{
	"data": {
		"bytecode": {
			"linkReferences": {},
			"object": "6107fb610053600b82828239805160001a607314610046577f4e487b7100000000000000000000000000000000000000000000000000000000600052600060045260246000fd5b30600052607381538281f3fe73000000000000000000000000000000000000000030146080604052600436106100f45760003560e01c80636bfc13bb11610096578063b2b4901911610070578063b2b4901914610225578063bc94124814610243578063e55e6f5f14610261578063f99a8ffb1461027f576100f4565b80636bfc13bb146101cb5780639584c8c9146101e9578063992c824014610207576100f4565b80632fd0cd8c116100d25780632fd0cd8c1461015357806341be0f97146101715780634547ea431461018f5780636a8155fb146101ad576100f4565b8063025573f7146100f9578063161f07e61461011757806326a9d63a14610135575b600080fd5b6101016102af565b60405161010e919061061a565b60405180910390f35b61011f6102e8565b60405161012c91906105ff565b60405180910390f35b61013d61030c565b60405161014a91906105ff565b60405180910390f35b61015b610330565b60405161016891906105ff565b60405180910390f35b610179610354565b60405161018691906105ff565b60405180910390f35b610197610378565b6040516101a491906105ff565b60405180910390f35b6101b561039c565b6040516101c291906105ff565b60405180910390f35b6101d36103c0565b6040516101e091906105ff565b60405180910390f35b6101f16103e4565b6040516101fe91906105ff565b60405180910390f35b61020f610408565b60405161021c91906105ff565b60405180910390f35b61022d61042c565b60405161023a91906105ff565b60405180910390f35b61024b610450565b60405161025891906105ff565b60405180910390f35b610269610474565b60405161027691906105ff565b60405180910390f35b61029960048036038101906102949190610553565b610498565b6040516102a691906105ff565b60405180910390f35b6040518060400160405280600e81526020017f41697264726f705772617070657200000000000000000000000000000000000081525081565b7f41495244524f505f464143544f5259000000000000000000000000000000000081565b7f5045524d49545445445f4552433230530000000000000000000000000000000081565b7f5045524d49545445445f534e46545f524543454956455200000000000000000081565b7f4e46545f545950455f524547495354525900000000000000000000000000000081565b7f4e465446495f42554e444c45520000000000000000000000000000000000000081565b7f4c4f414e5f52454749535452590000000000000000000000000000000000000081565b7f5045524d49545445445f41495244524f5053000000000000000000000000000081565b7f5045524d49545445445f42554e444c455f45524332305300000000000000000081565b7f41495244524f505f464c4153485f4c4f414e000000000000000000000000000081565b7f5045524d49545445445f504152544e455253000000000000000000000000000081565b7f5045524d49545445445f4e46545300000000000000000000000000000000000081565b7f41495244524f505f52454345495645520000000000000000000000000000000081565b60006020825111156104df576040517f08c379a00000000000000000000000000000000000000000000000000000000081526004016104d69061063c565b60405180910390fd5b60208201519050919050565b60006104fe6104f984610681565b61065c565b90508281526020810184848401111561051657600080fd5b6105218482856106e9565b509392505050565b600082601f83011261053a57600080fd5b813561054a8482602086016104eb565b91505092915050565b60006020828403121561056557600080fd5b600082013567ffffffffffffffff81111561057f57600080fd5b61058b84828501610529565b91505092915050565b61059d816106df565b82525050565b60006105ae826106b2565b6105b881856106ce565b93506105c88185602086016106f8565b6105d18161078b565b840191505092915050565b60006105e9600b836106bd565b91506105f48261079c565b602082019050919050565b60006020820190506106146000830184610594565b92915050565b6000602082019050818103600083015261063481846105a3565b905092915050565b60006020820190508181036000830152610655816105dc565b9050919050565b6000610666610677565b9050610672828261072b565b919050565b6000604051905090565b600067ffffffffffffffff82111561069c5761069b61075c565b5b6106a58261078b565b9050602081019050919050565b600081519050919050565b600082825260208201905092915050565b600082825260208201905092915050565b6000819050919050565b82818337600083830152505050565b60005b838110156107165780820151818401526020810190506106fb565b83811115610725576000848401525b50505050565b6107348261078b565b810181811067ffffffffffffffff821117156107535761075261075c565b5b80604052505050565b7f4e487b7100000000000000000000000000000000000000000000000000000000600052604160045260246000fd5b6000601f19601f8301169050919050565b7f696e76616c6964206b657900000000000000000000000000000000000000000060008201525056fea2646970667358221220be6c676538986421c4b05a96a906c8a2c59f38ff531f0a6451d25d96908d7d0564736f6c63430008040033",
			"opcodes": "PUSH2 0x7FB PUSH2 0x53 PUSH1 0xB DUP3 DUP3 DUP3 CODECOPY DUP1 MLOAD PUSH1 0x0 BYTE PUSH1 0x73 EQ PUSH2 0x46 JUMPI PUSH32 0x4E487B7100000000000000000000000000000000000000000000000000000000 PUSH1 0x0 MSTORE PUSH1 0x0 PUSH1 0x4 MSTORE PUSH1 0x24 PUSH1 0x0 REVERT JUMPDEST ADDRESS PUSH1 0x0 MSTORE PUSH1 0x73 DUP2 MSTORE8 DUP3 DUP2 RETURN INVALID PUSH20 0x0 ADDRESS EQ PUSH1 0x80 PUSH1 0x40 MSTORE PUSH1 0x4 CALLDATASIZE LT PUSH2 0xF4 JUMPI PUSH1 0x0 CALLDATALOAD PUSH1 0xE0 SHR DUP1 PUSH4 0x6BFC13BB GT PUSH2 0x96 JUMPI DUP1 PUSH4 0xB2B49019 GT PUSH2 0x70 JUMPI DUP1 PUSH4 0xB2B49019 EQ PUSH2 0x225 JUMPI DUP1 PUSH4 0xBC941248 EQ PUSH2 0x243 JUMPI DUP1 PUSH4 0xE55E6F5F EQ PUSH2 0x261 JUMPI DUP1 PUSH4 0xF99A8FFB EQ PUSH2 0x27F JUMPI PUSH2 0xF4 JUMP JUMPDEST DUP1 PUSH4 0x6BFC13BB EQ PUSH2 0x1CB JUMPI DUP1 PUSH4 0x9584C8C9 EQ PUSH2 0x1E9 JUMPI DUP1 PUSH4 0x992C8240 EQ PUSH2 0x207 JUMPI PUSH2 0xF4 JUMP JUMPDEST DUP1 PUSH4 0x2FD0CD8C GT PUSH2 0xD2 JUMPI DUP1 PUSH4 0x2FD0CD8C EQ PUSH2 0x153 JUMPI DUP1 PUSH4 0x41BE0F97 EQ PUSH2 0x171 JUMPI DUP1 PUSH4 0x4547EA43 EQ PUSH2 0x18F JUMPI DUP1 PUSH4 0x6A8155FB EQ PUSH2 0x1AD JUMPI PUSH2 0xF4 JUMP JUMPDEST DUP1 PUSH4 0x25573F7 EQ PUSH2 0xF9 JUMPI DUP1 PUSH4 0x161F07E6 EQ PUSH2 0x117 JUMPI DUP1 PUSH4 0x26A9D63A EQ PUSH2 0x135 JUMPI JUMPDEST PUSH1 0x0 DUP1 REVERT JUMPDEST PUSH2 0x101 PUSH2 0x2AF JUMP JUMPDEST PUSH1 0x40 MLOAD PUSH2 0x10E SWAP2 SWAP1 PUSH2 0x61A JUMP JUMPDEST PUSH1 0x40 MLOAD DUP1 SWAP2 SUB SWAP1 RETURN JUMPDEST PUSH2 0x11F PUSH2 0x2E8 JUMP JUMPDEST PUSH1 0x40 MLOAD PUSH2 0x12C SWAP2 SWAP1 PUSH2 0x5FF JUMP JUMPDEST PUSH1 0x40 MLOAD DUP1 SWAP2 SUB SWAP1 RETURN JUMPDEST PUSH2 0x13D PUSH2 0x30C JUMP JUMPDEST PUSH1 0x40 MLOAD PUSH2 0x14A SWAP2 SWAP1 PUSH2 0x5FF JUMP JUMPDEST PUSH1 0x40 MLOAD DUP1 SWAP2 SUB SWAP1 RETURN JUMPDEST PUSH2 0x15B PUSH2 0x330 JUMP JUMPDEST PUSH1 0x40 MLOAD PUSH2 0x168 SWAP2 SWAP1 PUSH2 0x5FF JUMP JUMPDEST PUSH1 0x40 MLOAD DUP1 SWAP2 SUB SWAP1 RETURN JUMPDEST PUSH2 0x179 PUSH2 0x354 JUMP JUMPDEST PUSH1 0x40 MLOAD PUSH2 0x186 SWAP2 SWAP1 PUSH2 0x5FF JUMP JUMPDEST PUSH1 0x40 MLOAD DUP1 SWAP2 SUB SWAP1 RETURN JUMPDEST PUSH2 0x197 PUSH2 0x378 JUMP JUMPDEST PUSH1 0x40 MLOAD PUSH2 0x1A4 SWAP2 SWAP1 PUSH2 0x5FF JUMP JUMPDEST PUSH1 0x40 MLOAD DUP1 SWAP2 SUB SWAP1 RETURN JUMPDEST PUSH2 0x1B5 PUSH2 0x39C JUMP JUMPDEST PUSH1 0x40 MLOAD PUSH2 0x1C2 SWAP2 SWAP1 PUSH2 0x5FF JUMP JUMPDEST PUSH1 0x40 MLOAD DUP1 SWAP2 SUB SWAP1 RETURN JUMPDEST PUSH2 0x1D3 PUSH2 0x3C0 JUMP JUMPDEST PUSH1 0x40 MLOAD PUSH2 0x1E0 SWAP2 SWAP1 PUSH2 0x5FF JUMP JUMPDEST PUSH1 0x40 MLOAD DUP1 SWAP2 SUB SWAP1 RETURN JUMPDEST PUSH2 0x1F1 PUSH2 0x3E4 JUMP JUMPDEST PUSH1 0x40 MLOAD PUSH2 0x1FE SWAP2 SWAP1 PUSH2 0x5FF JUMP JUMPDEST PUSH1 0x40 MLOAD DUP1 SWAP2 SUB SWAP1 RETURN JUMPDEST PUSH2 0x20F PUSH2 0x408 JUMP JUMPDEST PUSH1 0x40 MLOAD PUSH2 0x21C SWAP2 SWAP1 PUSH2 0x5FF JUMP JUMPDEST PUSH1 0x40 MLOAD DUP1 SWAP2 SUB SWAP1 RETURN JUMPDEST PUSH2 0x22D PUSH2 0x42C JUMP JUMPDEST PUSH1 0x40 MLOAD PUSH2 0x23A SWAP2 SWAP1 PUSH2 0x5FF JUMP JUMPDEST PUSH1 0x40 MLOAD DUP1 SWAP2 SUB SWAP1 RETURN JUMPDEST PUSH2 0x24B PUSH2 0x450 JUMP JUMPDEST PUSH1 0x40 MLOAD PUSH2 0x258 SWAP2 SWAP1 PUSH2 0x5FF JUMP JUMPDEST PUSH1 0x40 MLOAD DUP1 SWAP2 SUB SWAP1 RETURN JUMPDEST PUSH2 0x269 PUSH2 0x474 JUMP JUMPDEST PUSH1 0x40 MLOAD PUSH2 0x276 SWAP2 SWAP1 PUSH2 0x5FF JUMP JUMPDEST PUSH1 0x40 MLOAD DUP1 SWAP2 SUB SWAP1 RETURN JUMPDEST PUSH2 0x299 PUSH1 0x4 DUP1 CALLDATASIZE SUB DUP2 ADD SWAP1 PUSH2 0x294 SWAP2 SWAP1 PUSH2 0x553 JUMP JUMPDEST PUSH2 0x498 JUMP JUMPDEST PUSH1 0x40 MLOAD PUSH2 0x2A6 SWAP2 SWAP1 PUSH2 0x5FF JUMP JUMPDEST PUSH1 0x40 MLOAD DUP1 SWAP2 SUB SWAP1 RETURN JUMPDEST PUSH1 0x40 MLOAD DUP1 PUSH1 0x40 ADD PUSH1 0x40 MSTORE DUP1 PUSH1 0xE DUP2 MSTORE PUSH1 0x20 ADD PUSH32 0x41697264726F7057726170706572000000000000000000000000000000000000 DUP2 MSTORE POP DUP2 JUMP JUMPDEST PUSH32 0x41495244524F505F464143544F52590000000000000000000000000000000000 DUP2 JUMP JUMPDEST PUSH32 0x5045524D49545445445F45524332305300000000000000000000000000000000 DUP2 JUMP JUMPDEST PUSH32 0x5045524D49545445445F534E46545F5245434549564552000000000000000000 DUP2 JUMP JUMPDEST PUSH32 0x4E46545F545950455F5245474953545259000000000000000000000000000000 DUP2 JUMP JUMPDEST PUSH32 0x4E465446495F42554E444C455200000000000000000000000000000000000000 DUP2 JUMP JUMPDEST PUSH32 0x4C4F414E5F524547495354525900000000000000000000000000000000000000 DUP2 JUMP JUMPDEST PUSH32 0x5045524D49545445445F41495244524F50530000000000000000000000000000 DUP2 JUMP JUMPDEST PUSH32 0x5045524D49545445445F42554E444C455F455243323053000000000000000000 DUP2 JUMP JUMPDEST PUSH32 0x41495244524F505F464C4153485F4C4F414E0000000000000000000000000000 DUP2 JUMP JUMPDEST PUSH32 0x5045524D49545445445F504152544E4552530000000000000000000000000000 DUP2 JUMP JUMPDEST PUSH32 0x5045524D49545445445F4E465453000000000000000000000000000000000000 DUP2 JUMP JUMPDEST PUSH32 0x41495244524F505F524543454956455200000000000000000000000000000000 DUP2 JUMP JUMPDEST PUSH1 0x0 PUSH1 0x20 DUP3 MLOAD GT ISZERO PUSH2 0x4DF JUMPI PUSH1 0x40 MLOAD PUSH32 0x8C379A000000000000000000000000000000000000000000000000000000000 DUP2 MSTORE PUSH1 0x4 ADD PUSH2 0x4D6 SWAP1 PUSH2 0x63C JUMP JUMPDEST PUSH1 0x40 MLOAD DUP1 SWAP2 SUB SWAP1 REVERT JUMPDEST PUSH1 0x20 DUP3 ADD MLOAD SWAP1 POP SWAP2 SWAP1 POP JUMP JUMPDEST PUSH1 0x0 PUSH2 0x4FE PUSH2 0x4F9 DUP5 PUSH2 0x681 JUMP JUMPDEST PUSH2 0x65C JUMP JUMPDEST SWAP1 POP DUP3 DUP2 MSTORE PUSH1 0x20 DUP2 ADD DUP5 DUP5 DUP5 ADD GT ISZERO PUSH2 0x516 JUMPI PUSH1 0x0 DUP1 REVERT JUMPDEST PUSH2 0x521 DUP5 DUP3 DUP6 PUSH2 0x6E9 JUMP JUMPDEST POP SWAP4 SWAP3 POP POP POP JUMP JUMPDEST PUSH1 0x0 DUP3 PUSH1 0x1F DUP4 ADD SLT PUSH2 0x53A JUMPI PUSH1 0x0 DUP1 REVERT JUMPDEST DUP2 CALLDATALOAD PUSH2 0x54A DUP5 DUP3 PUSH1 0x20 DUP7 ADD PUSH2 0x4EB JUMP JUMPDEST SWAP2 POP POP SWAP3 SWAP2 POP POP JUMP JUMPDEST PUSH1 0x0 PUSH1 0x20 DUP3 DUP5 SUB SLT ISZERO PUSH2 0x565 JUMPI PUSH1 0x0 DUP1 REVERT JUMPDEST PUSH1 0x0 DUP3 ADD CALLDATALOAD PUSH8 0xFFFFFFFFFFFFFFFF DUP2 GT ISZERO PUSH2 0x57F JUMPI PUSH1 0x0 DUP1 REVERT JUMPDEST PUSH2 0x58B DUP5 DUP3 DUP6 ADD PUSH2 0x529 JUMP JUMPDEST SWAP2 POP POP SWAP3 SWAP2 POP POP JUMP JUMPDEST PUSH2 0x59D DUP2 PUSH2 0x6DF JUMP JUMPDEST DUP3 MSTORE POP POP JUMP JUMPDEST PUSH1 0x0 PUSH2 0x5AE DUP3 PUSH2 0x6B2 JUMP JUMPDEST PUSH2 0x5B8 DUP2 DUP6 PUSH2 0x6CE JUMP JUMPDEST SWAP4 POP PUSH2 0x5C8 DUP2 DUP6 PUSH1 0x20 DUP7 ADD PUSH2 0x6F8 JUMP JUMPDEST PUSH2 0x5D1 DUP2 PUSH2 0x78B JUMP JUMPDEST DUP5 ADD SWAP2 POP POP SWAP3 SWAP2 POP POP JUMP JUMPDEST PUSH1 0x0 PUSH2 0x5E9 PUSH1 0xB DUP4 PUSH2 0x6BD JUMP JUMPDEST SWAP2 POP PUSH2 0x5F4 DUP3 PUSH2 0x79C JUMP JUMPDEST PUSH1 0x20 DUP3 ADD SWAP1 POP SWAP2 SWAP1 POP JUMP JUMPDEST PUSH1 0x0 PUSH1 0x20 DUP3 ADD SWAP1 POP PUSH2 0x614 PUSH1 0x0 DUP4 ADD DUP5 PUSH2 0x594 JUMP JUMPDEST SWAP3 SWAP2 POP POP JUMP JUMPDEST PUSH1 0x0 PUSH1 0x20 DUP3 ADD SWAP1 POP DUP2 DUP2 SUB PUSH1 0x0 DUP4 ADD MSTORE PUSH2 0x634 DUP2 DUP5 PUSH2 0x5A3 JUMP JUMPDEST SWAP1 POP SWAP3 SWAP2 POP POP JUMP JUMPDEST PUSH1 0x0 PUSH1 0x20 DUP3 ADD SWAP1 POP DUP2 DUP2 SUB PUSH1 0x0 DUP4 ADD MSTORE PUSH2 0x655 DUP2 PUSH2 0x5DC JUMP JUMPDEST SWAP1 POP SWAP2 SWAP1 POP JUMP JUMPDEST PUSH1 0x0 PUSH2 0x666 PUSH2 0x677 JUMP JUMPDEST SWAP1 POP PUSH2 0x672 DUP3 DUP3 PUSH2 0x72B JUMP JUMPDEST SWAP2 SWAP1 POP JUMP JUMPDEST PUSH1 0x0 PUSH1 0x40 MLOAD SWAP1 POP SWAP1 JUMP JUMPDEST PUSH1 0x0 PUSH8 0xFFFFFFFFFFFFFFFF DUP3 GT ISZERO PUSH2 0x69C JUMPI PUSH2 0x69B PUSH2 0x75C JUMP JUMPDEST JUMPDEST PUSH2 0x6A5 DUP3 PUSH2 0x78B JUMP JUMPDEST SWAP1 POP PUSH1 0x20 DUP2 ADD SWAP1 POP SWAP2 SWAP1 POP JUMP JUMPDEST PUSH1 0x0 DUP2 MLOAD SWAP1 POP SWAP2 SWAP1 POP JUMP JUMPDEST PUSH1 0x0 DUP3 DUP3 MSTORE PUSH1 0x20 DUP3 ADD SWAP1 POP SWAP3 SWAP2 POP POP JUMP JUMPDEST PUSH1 0x0 DUP3 DUP3 MSTORE PUSH1 0x20 DUP3 ADD SWAP1 POP SWAP3 SWAP2 POP POP JUMP JUMPDEST PUSH1 0x0 DUP2 SWAP1 POP SWAP2 SWAP1 POP JUMP JUMPDEST DUP3 DUP2 DUP4 CALLDATACOPY PUSH1 0x0 DUP4 DUP4 ADD MSTORE POP POP POP JUMP JUMPDEST PUSH1 0x0 JUMPDEST DUP4 DUP2 LT ISZERO PUSH2 0x716 JUMPI DUP1 DUP3 ADD MLOAD DUP2 DUP5 ADD MSTORE PUSH1 0x20 DUP2 ADD SWAP1 POP PUSH2 0x6FB JUMP JUMPDEST DUP4 DUP2 GT ISZERO PUSH2 0x725 JUMPI PUSH1 0x0 DUP5 DUP5 ADD MSTORE JUMPDEST POP POP POP POP JUMP JUMPDEST PUSH2 0x734 DUP3 PUSH2 0x78B JUMP JUMPDEST DUP2 ADD DUP2 DUP2 LT PUSH8 0xFFFFFFFFFFFFFFFF DUP3 GT OR ISZERO PUSH2 0x753 JUMPI PUSH2 0x752 PUSH2 0x75C JUMP JUMPDEST JUMPDEST DUP1 PUSH1 0x40 MSTORE POP POP POP JUMP JUMPDEST PUSH32 0x4E487B7100000000000000000000000000000000000000000000000000000000 PUSH1 0x0 MSTORE PUSH1 0x41 PUSH1 0x4 MSTORE PUSH1 0x24 PUSH1 0x0 REVERT JUMPDEST PUSH1 0x0 PUSH1 0x1F NOT PUSH1 0x1F DUP4 ADD AND SWAP1 POP SWAP2 SWAP1 POP JUMP JUMPDEST PUSH32 0x696E76616C6964206B6579000000000000000000000000000000000000000000 PUSH1 0x0 DUP3 ADD MSTORE POP JUMP INVALID LOG2 PUSH5 0x6970667358 0x22 SLT KECCAK256 0xBE PUSH13 0x676538986421C4B05A96A906C8 LOG2 0xC5 SWAP16 CODESIZE SELFDESTRUCT MSTORE8 0x1F EXP PUSH5 0x51D25D9690 DUP14 PUSH30 0x564736F6C63430008040033000000000000000000000000000000000000 "
		},
		"gasEstimates": {
			"creation": {
				"codeDepositCost": "408600",
				"executionCost": "471",
				"totalCost": "409071"
			},
			"external": {
				"AIRDROP_FACTORY()": "359",
				"AIRDROP_FLASH_LOAN()": "380",
				"AIRDROP_RECEIVER()": "379",
				"AIRDROP_WRAPPER_STRING()": "infinite",
				"LOAN_REGISTRY()": "402",
				"NFTFI_BUNDLER()": "380",
				"NFT_TYPE_REGISTRY()": "358",
				"PERMITTED_AIRDROPS()": "336",
				"PERMITTED_BUNDLE_ERC20S()": "358",
				"PERMITTED_ERC20S()": "381",
				"PERMITTED_NFTS()": "357",
				"PERMITTED_PARTNERS()": "335",
				"PERMITTED_SNFT_RECEIVER()": "336",
				"getIdFromStringKey(string)": "infinite"
			}
		},
		"methodIdentifiers": {
			"AIRDROP_FACTORY()": "161f07e6",
			"AIRDROP_FLASH_LOAN()": "992c8240",
			"AIRDROP_RECEIVER()": "e55e6f5f",
			"AIRDROP_WRAPPER_STRING()": "025573f7",
			"LOAN_REGISTRY()": "6a8155fb",
			"NFTFI_BUNDLER()": "4547ea43",
			"NFT_TYPE_REGISTRY()": "41be0f97",
			"PERMITTED_AIRDROPS()": "6bfc13bb",
			"PERMITTED_BUNDLE_ERC20S()": "9584c8c9",
			"PERMITTED_ERC20S()": "26a9d63a",
			"PERMITTED_NFTS()": "bc941248",
			"PERMITTED_PARTNERS()": "b2b49019",
			"PERMITTED_SNFT_RECEIVER()": "2fd0cd8c",
			"getIdFromStringKey(string)": "f99a8ffb"
		}
	},
	"abi": [
		{
			"inputs": [],
			"name": "AIRDROP_FACTORY",
			"outputs": [
				{
					"internalType": "bytes32",
					"name": "",
					"type": "bytes32"
				}
			],
			"stateMutability": "view",
			"type": "function"
		},
		{
			"inputs": [],
			"name": "AIRDROP_FLASH_LOAN",
			"outputs": [
				{
					"internalType": "bytes32",
					"name": "",
					"type": "bytes32"
				}
			],
			"stateMutability": "view",
			"type": "function"
		},
		{
			"inputs": [],
			"name": "AIRDROP_RECEIVER",
			"outputs": [
				{
					"internalType": "bytes32",
					"name": "",
					"type": "bytes32"
				}
			],
			"stateMutability": "view",
			"type": "function"
		},
		{
			"inputs": [],
			"name": "AIRDROP_WRAPPER_STRING",
			"outputs": [
				{
					"internalType": "string",
					"name": "",
					"type": "string"
				}
			],
			"stateMutability": "view",
			"type": "function"
		},
		{
			"inputs": [],
			"name": "LOAN_REGISTRY",
			"outputs": [
				{
					"internalType": "bytes32",
					"name": "",
					"type": "bytes32"
				}
			],
			"stateMutability": "view",
			"type": "function"
		},
		{
			"inputs": [],
			"name": "NFTFI_BUNDLER",
			"outputs": [
				{
					"internalType": "bytes32",
					"name": "",
					"type": "bytes32"
				}
			],
			"stateMutability": "view",
			"type": "function"
		},
		{
			"inputs": [],
			"name": "NFT_TYPE_REGISTRY",
			"outputs": [
				{
					"internalType": "bytes32",
					"name": "",
					"type": "bytes32"
				}
			],
			"stateMutability": "view",
			"type": "function"
		},
		{
			"inputs": [],
			"name": "PERMITTED_AIRDROPS",
			"outputs": [
				{
					"internalType": "bytes32",
					"name": "",
					"type": "bytes32"
				}
			],
			"stateMutability": "view",
			"type": "function"
		},
		{
			"inputs": [],
			"name": "PERMITTED_BUNDLE_ERC20S",
			"outputs": [
				{
					"internalType": "bytes32",
					"name": "",
					"type": "bytes32"
				}
			],
			"stateMutability": "view",
			"type": "function"
		},
		{
			"inputs": [],
			"name": "PERMITTED_ERC20S",
			"outputs": [
				{
					"internalType": "bytes32",
					"name": "",
					"type": "bytes32"
				}
			],
			"stateMutability": "view",
			"type": "function"
		},
		{
			"inputs": [],
			"name": "PERMITTED_NFTS",
			"outputs": [
				{
					"internalType": "bytes32",
					"name": "",
					"type": "bytes32"
				}
			],
			"stateMutability": "view",
			"type": "function"
		},
		{
			"inputs": [],
			"name": "PERMITTED_PARTNERS",
			"outputs": [
				{
					"internalType": "bytes32",
					"name": "",
					"type": "bytes32"
				}
			],
			"stateMutability": "view",
			"type": "function"
		},
		{
			"inputs": [],
			"name": "PERMITTED_SNFT_RECEIVER",
			"outputs": [
				{
					"internalType": "bytes32",
					"name": "",
					"type": "bytes32"
				}
			],
			"stateMutability": "view",
			"type": "function"
		},
		{
			"inputs": [
				{
					"internalType": "string",
					"name": "_key",
					"type": "string"
				}
			],
			"name": "getIdFromStringKey",
			"outputs": [
				{
					"internalType": "bytes32",
					"name": "id",
					"type": "bytes32"
				}
			],
			"stateMutability": "pure",
			"type": "function"
		}
	]
}