{
	"data": {
		"bytecode": {
			"linkReferences": {},
			"object": "612a3b610053600b82828239805160001a607314610046577f4e487b7100000000000000000000000000000000000000000000000000000000600052600060045260246000fd5b30600052607381538281f3fe73000000000000000000000000000000000000000030146080604052600436106100b35760003560e01c806387c0a5731161007b57806387c0a57314610196578063a819956e146101c6578063c4212921146101f6578063d06ff74114610226578063eb2ac63f14610256578063fb7a322a14610286576100b3565b80632eb68793146100b85780633ce5ed9f146100e85780634051a17a14610118578063564b81ef146101485780636ab81ec014610166575b600080fd5b6100d260048036038101906100cd919061169d565b6102b6565b6040516100df919061235b565b60405180910390f35b61010260048036038101906100fd919061171f565b6102cd565b60405161010f919061235b565b60405180910390f35b610132600480360381019061012d91906117b6565b610458565b60405161013f919061235b565b60405180910390f35b61015061046d565b60405161015d919061248d565b60405180910390f35b610180600480360381019061017b91906119e5565b61047a565b60405161018d919061235b565b60405180910390f35b6101b060048036038101906101ab9190611ade565b6105e3565b6040516101bd919061235b565b60405180910390f35b6101e060048036038101906101db91906118f8565b61074d565b6040516101ed919061235b565b60405180910390f35b610210600480360381019061020b919061180c565b6108d8565b60405161021d919061235b565b60405180910390f35b610240600480360381019061023b9190611a4f565b610a41565b60405161024d919061235b565b60405180910390f35b610270600480360381019061026b919061198f565b610a5c565b60405161027d919061235b565b60405180910390f35b6102a0600480360381019061029b9190611876565b610a71565b6040516102ad919061235b565b60405180910390f35b60006102c4848484306102cd565b90509392505050565b60008260200151421115610316576040517f08c379a000000000000000000000000000000000000000000000000000000000815260040161030d9061240b565b60405180910390fd5b600073ffffffffffffffffffffffffffffffffffffffff168273ffffffffffffffffffffffffffffffffffffffff161415610386576040517f08c379a000000000000000000000000000000000000000000000000000000000815260040161037d9061244b565b60405180910390fd5b600073ffffffffffffffffffffffffffffffffffffffff16836040015173ffffffffffffffffffffffffffffffffffffffff1614156103c85760009050610450565b60006103d386610a88565b856040516020016103e4919061246b565b6040516020818303038152906040526103fc86610aed565b8561040561046d565b604051602001610419959493929190612265565b60405160208183030381529060405280519060200120905061044c846040015161044283610b26565b8660600151610b56565b9150505b949350505050565b60006104658383306108d8565b905092915050565b6000804690508091505090565b600082602001514211156104c3576040517f08c379a00000000000000000000000000000000000000000000000000000000081526004016104ba9061242b565b60405180910390fd5b600073ffffffffffffffffffffffffffffffffffffffff168273ffffffffffffffffffffffffffffffffffffffff161415610533576040517f08c379a000000000000000000000000000000000000000000000000000000000815260040161052a9061244b565b60405180910390fd5b600073ffffffffffffffffffffffffffffffffffffffff16836040015173ffffffffffffffffffffffffffffffffffffffff16141561057557600090506105dc565b600061058085610d68565b61058985610aed565b8461059261046d565b6040516020016105a5949392919061221f565b6040516020818303038152906040528051906020012090506105d884604001516105ce83610b26565b8660600151610b56565b9150505b9392505050565b6000826020015142111561062c576040517f08c379a0000000000000000000000000000000000000000000000000000000008152600401610623906123eb565b60405180910390fd5b600073ffffffffffffffffffffffffffffffffffffffff168273ffffffffffffffffffffffffffffffffffffffff16141561069c576040517f08c379a00000000000000000000000000000000000000000000000000000000081526004016106939061244b565b60405180910390fd5b600073ffffffffffffffffffffffffffffffffffffffff16836040015173ffffffffffffffffffffffffffffffffffffffff1614156106de5760009050610743565b6000878787876106ed88610aed565b876106f661046d565b60405160200161070c97969594939291906122de565b60405160208183030381529060405280519060200120905061073f846040015161073583610b26565b8660600151610b56565b9150505b9695505050505050565b60008260200151421115610796576040517f08c379a000000000000000000000000000000000000000000000000000000000815260040161078d9061242b565b60405180910390fd5b600073ffffffffffffffffffffffffffffffffffffffff168273ffffffffffffffffffffffffffffffffffffffff161415610806576040517f08c379a00000000000000000000000000000000000000000000000000000000081526004016107fd9061244b565b60405180910390fd5b600073ffffffffffffffffffffffffffffffffffffffff16836040015173ffffffffffffffffffffffffffffffffffffffff16141561084857600090506108d0565b600061085386610d68565b85604051602001610864919061246b565b60405160208183030381529060405261087c86610aed565b8561088561046d565b604051602001610899959493929190612265565b6040516020818303038152906040528051906020012090506108cc84604001516108c283610b26565b8660600151610b56565b9150505b949350505050565b60008260200151421115610921576040517f08c379a00000000000000000000000000000000000000000000000000000000081526004016109189061240b565b60405180910390fd5b600073ffffffffffffffffffffffffffffffffffffffff168273ffffffffffffffffffffffffffffffffffffffff161415610991576040517f08c379a00000000000000000000000000000000000000000000000000000000081526004016109889061244b565b60405180910390fd5b600073ffffffffffffffffffffffffffffffffffffffff16836040015173ffffffffffffffffffffffffffffffffffffffff1614156109d35760009050610a3a565b60006109de85610a88565b6109e785610aed565b846109f061046d565b604051602001610a03949392919061221f565b604051602081830303815290604052805190602001209050610a368460400151610a2c83610b26565b8660600151610b56565b9150505b9392505050565b6000610a518686868686306105e3565b905095945050505050565b6000610a6983833061047a565b905092915050565b6000610a7f8484843061074d565b90509392505050565b6060816101200151826000015183602001518460600151856040015186610100015187608001518860a001518960c001518a60e00151604051602001610ad79a99989796959493929190612154565b6040516020818303038152906040529050919050565b6060816040015182600001518360200151604051602001610b1093929190612085565b6040516020818303038152906040529050919050565b600081604051602001610b3991906122b8565b604051602081830303815290604052805190602001209050919050565b6000806000610b658585610dbf565b9150915060006004811115610ba3577f4e487b7100000000000000000000000000000000000000000000000000000000600052602160045260246000fd5b816004811115610bdc577f4e487b7100000000000000000000000000000000000000000000000000000000600052602160045260246000fd5b148015610c1457508573ffffffffffffffffffffffffffffffffffffffff168273ffffffffffffffffffffffffffffffffffffffff16145b15610c2457600192505050610d61565b6000808773ffffffffffffffffffffffffffffffffffffffff16631626ba7e60e01b8888604051602401610c59929190612376565b604051602081830303815290604052907bffffffffffffffffffffffffffffffffffffffffffffffffffffffff19166020820180517bffffffffffffffffffffffffffffffffffffffffffffffffffffffff8381831617835250505050604051610cc39190612208565b600060405180830381855afa9150503d8060008114610cfe576040519150601f19603f3d011682016040523d82523d6000602084013e610d03565b606091505b5091509150818015610d16575060208151145b8015610d5a5750631626ba7e60e01b7bffffffffffffffffffffffffffffffffffffffffffffffffffffffff191681806020019051810190610d589190611674565b145b9450505050505b9392505050565b60608160c0015182600001518360200151846060015185604001518660e0015187608001518860a00151604051602001610da99897969594939291906120c2565b6040516020818303038152906040529050919050565b600080604183511415610e015760008060006020860151925060408601519150606086015160001a9050610df587828585610e11565b94509450505050610e0a565b60006002915091505b9250929050565b6000807f7fffffffffffffffffffffffffffffff5d576e7357a4501ddfe92f46681b20a08360001c1115610e4c576000600391509150610eeb565b600060018787878760405160008152602001604052604051610e7194939291906123a6565b6020604051602081039080840390855afa158015610e93573d6000803e3d6000fd5b505050602060405103519050600073ffffffffffffffffffffffffffffffffffffffff168173ffffffffffffffffffffffffffffffffffffffff161415610ee257600060019250925050610eeb565b80600092509250505b94509492505050565b6000610f07610f02846124cd565b6124a8565b90508083825260208201905082856020860282011115610f2657600080fd5b60005b85811015610f7057813567ffffffffffffffff811115610f4857600080fd5b808601610f55898261120d565b85526020850194506020840193505050600181019050610f29565b5050509392505050565b6000610f8d610f88846124f9565b6124a8565b90508083825260208201905082856040860282011115610fac57600080fd5b60005b85811015610fdc5781610fc2888261129d565b845260208401935060408301925050600181019050610faf565b5050509392505050565b6000610ff9610ff484612525565b6124a8565b9050808382526020820190508285606086028201111561101857600080fd5b60005b85811015611048578161102e88826112e9565b84526020840193506060830192505060018101905061101b565b5050509392505050565b600061106561106084612551565b6124a8565b9050808382526020820190508285602086028201111561108457600080fd5b60005b858110156110b4578161109a888261164a565b845260208401935060208301925050600181019050611087565b5050509392505050565b60006110d16110cc8461257d565b6124a8565b9050828152602081018484840111156110e957600080fd5b6110f4848285612752565b509392505050565b60008135905061110b8161297b565b92915050565b600082601f83011261112257600080fd5b8135611132848260208601610ef4565b91505092915050565b600082601f83011261114c57600080fd5b813561115c848260208601610f7a565b91505092915050565b600082601f83011261117657600080fd5b8135611186848260208601610fe6565b91505092915050565b600082601f8301126111a057600080fd5b81356111b0848260208601611052565b91505092915050565b6000813590506111c881612992565b92915050565b6000815190506111dd816129a9565b92915050565b600082601f8301126111f457600080fd5b81356112048482602086016110be565b91505092915050565b60006060828403121561121f57600080fd5b61122960606124a8565b90506000611239848285016110fc565b600083015250602082013567ffffffffffffffff81111561125957600080fd5b6112658482850161118f565b602083015250604082013567ffffffffffffffff81111561128557600080fd5b6112918482850161118f565b60408301525092915050565b6000604082840312156112af57600080fd5b6112b960406124a8565b905060006112c9848285016110fc565b60008301525060206112dd8482850161164a565b60208301525092915050565b6000606082840312156112fb57600080fd5b61130560606124a8565b90506000611315848285016110fc565b60008301525060206113298482850161164a565b602083015250604061133d848285016111b9565b60408301525092915050565b60006060828403121561135b57600080fd5b61136560606124a8565b9050600082013567ffffffffffffffff81111561138157600080fd5b61138d84828501611165565b600083015250602082013567ffffffffffffffff8111156113ad57600080fd5b6113b98482850161113b565b602083015250604082013567ffffffffffffffff8111156113d957600080fd5b6113e584828501611111565b60408301525092915050565b6000610140828403121561140457600080fd5b61140f6101406124a8565b9050600061141f8482850161164a565b60008301525060206114338482850161164a565b60208301525060406114478482850161164a565b604083015250606061145b848285016110fc565b606083015250608061146f8482850161165f565b60808301525060a06114838482850161165f565b60a08301525060c061149784828501611635565b60c08301525060e06114ab84828501611635565b60e0830152506101006114c0848285016110fc565b610100830152506101206114d6848285016110fc565b6101208301525092915050565b600061010082840312156114f657600080fd5b6115016101006124a8565b905060006115118482850161164a565b60008301525060206115258482850161164a565b60208301525060406115398482850161164a565b604083015250606061154d848285016110fc565b60608301525060806115618482850161165f565b60808301525060a061157584828501611635565b60a08301525060c0611589848285016110fc565b60c08301525060e061159d848285016110fc565b60e08301525092915050565b6000608082840312156115bb57600080fd5b6115c560806124a8565b905060006115d58482850161164a565b60008301525060206115e98482850161164a565b60208301525060406115fd848285016110fc565b604083015250606082013567ffffffffffffffff81111561161d57600080fd5b611629848285016111e3565b60608301525092915050565b600081359050611644816129c0565b92915050565b600081359050611659816129d7565b92915050565b60008135905061166e816129ee565b92915050565b60006020828403121561168657600080fd5b6000611694848285016111ce565b91505092915050565b600080600061018084860312156116b357600080fd5b60006116c1868287016113f1565b93505061014084013567ffffffffffffffff8111156116df57600080fd5b6116eb86828701611349565b92505061016084013567ffffffffffffffff81111561170957600080fd5b611715868287016115a9565b9150509250925092565b6000806000806101a0858703121561173657600080fd5b6000611744878288016113f1565b94505061014085013567ffffffffffffffff81111561176257600080fd5b61176e87828801611349565b93505061016085013567ffffffffffffffff81111561178c57600080fd5b611798878288016115a9565b9250506101806117aa878288016110fc565b91505092959194509250565b60008061016083850312156117ca57600080fd5b60006117d8858286016113f1565b92505061014083013567ffffffffffffffff8111156117f657600080fd5b611802858286016115a9565b9150509250929050565b6000806000610180848603121561182257600080fd5b6000611830868287016113f1565b93505061014084013567ffffffffffffffff81111561184e57600080fd5b61185a868287016115a9565b92505061016061186c868287016110fc565b9150509250925092565b6000806000610140848603121561188c57600080fd5b600061189a868287016114e3565b93505061010084013567ffffffffffffffff8111156118b857600080fd5b6118c486828701611349565b92505061012084013567ffffffffffffffff8111156118e257600080fd5b6118ee868287016115a9565b9150509250925092565b600080600080610160858703121561190f57600080fd5b600061191d878288016114e3565b94505061010085013567ffffffffffffffff81111561193b57600080fd5b61194787828801611349565b93505061012085013567ffffffffffffffff81111561196557600080fd5b611971878288016115a9565b925050610140611983878288016110fc565b91505092959194509250565b60008061012083850312156119a357600080fd5b60006119b1858286016114e3565b92505061010083013567ffffffffffffffff8111156119cf57600080fd5b6119db858286016115a9565b9150509250929050565b600080600061014084860312156119fb57600080fd5b6000611a09868287016114e3565b93505061010084013567ffffffffffffffff811115611a2757600080fd5b611a33868287016115a9565b925050610120611a45868287016110fc565b9150509250925092565b600080600080600060a08688031215611a6757600080fd5b6000611a758882890161164a565b9550506020611a868882890161165f565b9450506040611a978882890161164a565b9350506060611aa88882890161164a565b925050608086013567ffffffffffffffff811115611ac557600080fd5b611ad1888289016115a9565b9150509295509295909350565b60008060008060008060c08789031215611af757600080fd5b6000611b0589828a0161164a565b9650506020611b1689828a0161165f565b9550506040611b2789828a0161164a565b9450506060611b3889828a0161164a565b935050608087013567ffffffffffffffff811115611b5557600080fd5b611b6189828a016115a9565b92505060a0611b7289828a016110fc565b9150509295509295509295565b6000611b8b8383611eed565b905092915050565b6000611b9f8383611f44565b60408301905092915050565b6000611bb78383611f73565b60608301905092915050565b6000611bcf838361202a565b60208301905092915050565b611be4816126d5565b82525050565b611bfb611bf6826126d5565b6127c5565b82525050565b6000611c0c826125ee565b611c168185612659565b935083602082028501611c28856125ae565b8060005b85811015611c645784840389528151611c458582611b7f565b9450611c5083612625565b925060208a01995050600181019050611c2c565b50829750879550505050505092915050565b6000611c81826125f9565b611c8b818561266a565b9350611c96836125be565b8060005b83811015611cc7578151611cae8882611b93565b9750611cb983612632565b925050600181019050611c9a565b5085935050505092915050565b6000611cdf82612604565b611ce9818561267b565b9350611cf4836125ce565b8060005b83811015611d25578151611d0c8882611bab565b9750611d178361263f565b925050600181019050611cf8565b5085935050505092915050565b6000611d3d8261260f565b611d47818561268c565b9350611d52836125de565b8060005b83811015611d83578151611d6a8882611bc3565b9750611d758361264c565b925050600181019050611d56565b5085935050505092915050565b611d99816126e7565b82525050565b611da8816126e7565b82525050565b611db7816126f3565b82525050565b611dce611dc9826126f3565b6127d7565b82525050565b6000611ddf8261261a565b611de9818561269d565b9350611df9818560208601612761565b611e0281612850565b840191505092915050565b6000611e188261261a565b611e2281856126ae565b9350611e32818560208601612761565b80840191505092915050565b6000611e4b6023836126b9565b9150611e5682612888565b604082019050919050565b6000611e6e601e836126b9565b9150611e79826128d7565b602082019050919050565b6000611e91601c836126ca565b9150611e9c82612900565b601c82019050919050565b6000611eb4601c836126b9565b9150611ebf82612929565b602082019050919050565b6000611ed76014836126b9565b9150611ee282612952565b602082019050919050565b6000606083016000830151611f056000860182611bdb565b5060208301518482036020860152611f1d8282611d32565b91505060408301518482036040860152611f378282611d32565b9150508091505092915050565b604082016000820151611f5a6000850182611bdb565b506020820151611f6d602085018261202a565b50505050565b606082016000820151611f896000850182611bdb565b506020820151611f9c602085018261202a565b506040820151611faf6040850182611d90565b50505050565b60006060830160008301518482036000860152611fd28282611cd4565b91505060208301518482036020860152611fec8282611c76565b915050604083015184820360408601526120068282611c01565b9150508091505092915050565b61202461201f826126fd565b6127e1565b82525050565b6120338161272b565b82525050565b6120428161272b565b82525050565b6120596120548261272b565b612805565b82525050565b61207061206b82612735565b61280f565b82525050565b61207f81612745565b82525050565b60006120918286611bea565b6014820191506120a18285612048565b6020820191506120b18284612048565b602082019150819050949350505050565b60006120ce828b611bea565b6014820191506120de828a612048565b6020820191506120ee8289612048565b6020820191506120fe8288611bea565b60148201915061210e8287612048565b60208201915061211e8286611bea565b60148201915061212e828561205f565b60048201915061213e8284612013565b6002820191508190509998505050505050505050565b6000612160828d611bea565b601482019150612170828c612048565b602082019150612180828b612048565b602082019150612190828a611bea565b6014820191506121a08289612048565b6020820191506121b08288611bea565b6014820191506121c0828761205f565b6004820191506121d0828661205f565b6004820191506121e08285612013565b6002820191506121f08284612013565b6002820191508190509b9a5050505050505050505050565b60006122148284611e0d565b915081905092915050565b600061222b8287611e0d565b91506122378286611e0d565b91506122438285611bea565b6014820191506122538284612048565b60208201915081905095945050505050565b60006122718288611e0d565b915061227d8287611e0d565b91506122898286611e0d565b91506122958285611bea565b6014820191506122a58284612048565b6020820191508190509695505050505050565b60006122c382611e84565b91506122cf8284611dbd565b60208201915081905092915050565b60006122ea828a612048565b6020820191506122fa828961205f565b60048201915061230a8288612048565b60208201915061231a8287612048565b60208201915061232a8286611e0d565b91506123368285611bea565b6014820191506123468284612048565b60208201915081905098975050505050505050565b60006020820190506123706000830184611d9f565b92915050565b600060408201905061238b6000830185611dae565b818103602083015261239d8184611dd4565b90509392505050565b60006080820190506123bb6000830187611dae565b6123c86020830186612076565b6123d56040830185611dae565b6123e26060830184611dae565b95945050505050565b6000602082019050818103600083015261240481611e3e565b9050919050565b6000602082019050818103600083015261242481611e61565b9050919050565b6000602082019050818103600083015261244481611ea7565b9050919050565b6000602082019050818103600083015261246481611eca565b9050919050565b600060208201905081810360008301526124858184611fb5565b905092915050565b60006020820190506124a26000830184612039565b92915050565b60006124b26124c3565b90506124be8282612794565b919050565b6000604051905090565b600067ffffffffffffffff8211156124e8576124e7612821565b5b602082029050602081019050919050565b600067ffffffffffffffff82111561251457612513612821565b5b602082029050602081019050919050565b600067ffffffffffffffff8211156125405761253f612821565b5b602082029050602081019050919050565b600067ffffffffffffffff82111561256c5761256b612821565b5b602082029050602081019050919050565b600067ffffffffffffffff82111561259857612597612821565b5b6125a182612850565b9050602081019050919050565b6000819050602082019050919050565b6000819050602082019050919050565b6000819050602082019050919050565b6000819050602082019050919050565b600081519050919050565b600081519050919050565b600081519050919050565b600081519050919050565b600081519050919050565b6000602082019050919050565b6000602082019050919050565b6000602082019050919050565b6000602082019050919050565b600082825260208201905092915050565b600082825260208201905092915050565b600082825260208201905092915050565b600082825260208201905092915050565b600082825260208201905092915050565b600081905092915050565b600082825260208201905092915050565b600081905092915050565b60006126e08261270b565b9050919050565b60008115159050919050565b6000819050919050565b600061ffff82169050919050565b600073ffffffffffffffffffffffffffffffffffffffff82169050919050565b6000819050919050565b600063ffffffff82169050919050565b600060ff82169050919050565b82818337600083830152505050565b60005b8381101561277f578082015181840152602081019050612764565b8381111561278e576000848401525b50505050565b61279d82612850565b810181811067ffffffffffffffff821117156127bc576127bb612821565b5b80604052505050565b60006127d0826127f3565b9050919050565b6000819050919050565b60006127ec8261286e565b9050919050565b60006127fe8261287b565b9050919050565b6000819050919050565b600061281a82612861565b9050919050565b7f4e487b7100000000000000000000000000000000000000000000000000000000600052604160045260246000fd5b6000601f19601f8301169050919050565b60008160e01b9050919050565b60008160f01b9050919050565b60008160601b9050919050565b7f52656e65676f74696174696f6e205369676e617475726520686173206578706960008201527f7265640000000000000000000000000000000000000000000000000000000000602082015250565b7f426f72726f776572205369676e61747572652068617320657870697265640000600082015250565b7f19457468657265756d205369676e6564204d6573736167653a0a333200000000600082015250565b7f4c656e646572205369676e617475726520686173206578706972656400000000600082015250565b7f4c6f616e206973207a65726f2061646472657373000000000000000000000000600082015250565b612984816126d5565b811461298f57600080fd5b50565b61299b816126e7565b81146129a657600080fd5b50565b6129b2816126f3565b81146129bd57600080fd5b50565b6129c9816126fd565b81146129d457600080fd5b50565b6129e08161272b565b81146129eb57600080fd5b50565b6129f781612735565b8114612a0257600080fd5b5056fea264697066735822122000e6030161e0730609dfcebc37fb4bf745cb494cff8c8337c4c5e502903a28be64736f6c63430008040033",
			"opcodes": "PUSH2 0x2A3B PUSH2 0x53 PUSH1 0xB DUP3 DUP3 DUP3 CODECOPY DUP1 MLOAD PUSH1 0x0 BYTE PUSH1 0x73 EQ PUSH2 0x46 JUMPI PUSH32 0x4E487B7100000000000000000000000000000000000000000000000000000000 PUSH1 0x0 MSTORE PUSH1 0x0 PUSH1 0x4 MSTORE PUSH1 0x24 PUSH1 0x0 REVERT JUMPDEST ADDRESS PUSH1 0x0 MSTORE PUSH1 0x73 DUP2 MSTORE8 DUP3 DUP2 RETURN INVALID PUSH20 0x0 ADDRESS EQ PUSH1 0x80 PUSH1 0x40 MSTORE PUSH1 0x4 CALLDATASIZE LT PUSH2 0xB3 JUMPI PUSH1 0x0 CALLDATALOAD PUSH1 0xE0 SHR DUP1 PUSH4 0x87C0A573 GT PUSH2 0x7B JUMPI DUP1 PUSH4 0x87C0A573 EQ PUSH2 0x196 JUMPI DUP1 PUSH4 0xA819956E EQ PUSH2 0x1C6 JUMPI DUP1 PUSH4 0xC4212921 EQ PUSH2 0x1F6 JUMPI DUP1 PUSH4 0xD06FF741 EQ PUSH2 0x226 JUMPI DUP1 PUSH4 0xEB2AC63F EQ PUSH2 0x256 JUMPI DUP1 PUSH4 0xFB7A322A EQ PUSH2 0x286 JUMPI PUSH2 0xB3 JUMP JUMPDEST DUP1 PUSH4 0x2EB68793 EQ PUSH2 0xB8 JUMPI DUP1 PUSH4 0x3CE5ED9F EQ PUSH2 0xE8 JUMPI DUP1 PUSH4 0x4051A17A EQ PUSH2 0x118 JUMPI DUP1 PUSH4 0x564B81EF EQ PUSH2 0x148 JUMPI DUP1 PUSH4 0x6AB81EC0 EQ PUSH2 0x166 JUMPI JUMPDEST PUSH1 0x0 DUP1 REVERT JUMPDEST PUSH2 0xD2 PUSH1 0x4 DUP1 CALLDATASIZE SUB DUP2 ADD SWAP1 PUSH2 0xCD SWAP2 SWAP1 PUSH2 0x169D JUMP JUMPDEST PUSH2 0x2B6 JUMP JUMPDEST PUSH1 0x40 MLOAD PUSH2 0xDF SWAP2 SWAP1 PUSH2 0x235B JUMP JUMPDEST PUSH1 0x40 MLOAD DUP1 SWAP2 SUB SWAP1 RETURN JUMPDEST PUSH2 0x102 PUSH1 0x4 DUP1 CALLDATASIZE SUB DUP2 ADD SWAP1 PUSH2 0xFD SWAP2 SWAP1 PUSH2 0x171F JUMP JUMPDEST PUSH2 0x2CD JUMP JUMPDEST PUSH1 0x40 MLOAD PUSH2 0x10F SWAP2 SWAP1 PUSH2 0x235B JUMP JUMPDEST PUSH1 0x40 MLOAD DUP1 SWAP2 SUB SWAP1 RETURN JUMPDEST PUSH2 0x132 PUSH1 0x4 DUP1 CALLDATASIZE SUB DUP2 ADD SWAP1 PUSH2 0x12D SWAP2 SWAP1 PUSH2 0x17B6 JUMP JUMPDEST PUSH2 0x458 JUMP JUMPDEST PUSH1 0x40 MLOAD PUSH2 0x13F SWAP2 SWAP1 PUSH2 0x235B JUMP JUMPDEST PUSH1 0x40 MLOAD DUP1 SWAP2 SUB SWAP1 RETURN JUMPDEST PUSH2 0x150 PUSH2 0x46D JUMP JUMPDEST PUSH1 0x40 MLOAD PUSH2 0x15D SWAP2 SWAP1 PUSH2 0x248D JUMP JUMPDEST PUSH1 0x40 MLOAD DUP1 SWAP2 SUB SWAP1 RETURN JUMPDEST PUSH2 0x180 PUSH1 0x4 DUP1 CALLDATASIZE SUB DUP2 ADD SWAP1 PUSH2 0x17B SWAP2 SWAP1 PUSH2 0x19E5 JUMP JUMPDEST PUSH2 0x47A JUMP JUMPDEST PUSH1 0x40 MLOAD PUSH2 0x18D SWAP2 SWAP1 PUSH2 0x235B JUMP JUMPDEST PUSH1 0x40 MLOAD DUP1 SWAP2 SUB SWAP1 RETURN JUMPDEST PUSH2 0x1B0 PUSH1 0x4 DUP1 CALLDATASIZE SUB DUP2 ADD SWAP1 PUSH2 0x1AB SWAP2 SWAP1 PUSH2 0x1ADE JUMP JUMPDEST PUSH2 0x5E3 JUMP JUMPDEST PUSH1 0x40 MLOAD PUSH2 0x1BD SWAP2 SWAP1 PUSH2 0x235B JUMP JUMPDEST PUSH1 0x40 MLOAD DUP1 SWAP2 SUB SWAP1 RETURN JUMPDEST PUSH2 0x1E0 PUSH1 0x4 DUP1 CALLDATASIZE SUB DUP2 ADD SWAP1 PUSH2 0x1DB SWAP2 SWAP1 PUSH2 0x18F8 JUMP JUMPDEST PUSH2 0x74D JUMP JUMPDEST PUSH1 0x40 MLOAD PUSH2 0x1ED SWAP2 SWAP1 PUSH2 0x235B JUMP JUMPDEST PUSH1 0x40 MLOAD DUP1 SWAP2 SUB SWAP1 RETURN JUMPDEST PUSH2 0x210 PUSH1 0x4 DUP1 CALLDATASIZE SUB DUP2 ADD SWAP1 PUSH2 0x20B SWAP2 SWAP1 PUSH2 0x180C JUMP JUMPDEST PUSH2 0x8D8 JUMP JUMPDEST PUSH1 0x40 MLOAD PUSH2 0x21D SWAP2 SWAP1 PUSH2 0x235B JUMP JUMPDEST PUSH1 0x40 MLOAD DUP1 SWAP2 SUB SWAP1 RETURN JUMPDEST PUSH2 0x240 PUSH1 0x4 DUP1 CALLDATASIZE SUB DUP2 ADD SWAP1 PUSH2 0x23B SWAP2 SWAP1 PUSH2 0x1A4F JUMP JUMPDEST PUSH2 0xA41 JUMP JUMPDEST PUSH1 0x40 MLOAD PUSH2 0x24D SWAP2 SWAP1 PUSH2 0x235B JUMP JUMPDEST PUSH1 0x40 MLOAD DUP1 SWAP2 SUB SWAP1 RETURN JUMPDEST PUSH2 0x270 PUSH1 0x4 DUP1 CALLDATASIZE SUB DUP2 ADD SWAP1 PUSH2 0x26B SWAP2 SWAP1 PUSH2 0x198F JUMP JUMPDEST PUSH2 0xA5C JUMP JUMPDEST PUSH1 0x40 MLOAD PUSH2 0x27D SWAP2 SWAP1 PUSH2 0x235B JUMP JUMPDEST PUSH1 0x40 MLOAD DUP1 SWAP2 SUB SWAP1 RETURN JUMPDEST PUSH2 0x2A0 PUSH1 0x4 DUP1 CALLDATASIZE SUB DUP2 ADD SWAP1 PUSH2 0x29B SWAP2 SWAP1 PUSH2 0x1876 JUMP JUMPDEST PUSH2 0xA71 JUMP JUMPDEST PUSH1 0x40 MLOAD PUSH2 0x2AD SWAP2 SWAP1 PUSH2 0x235B JUMP JUMPDEST PUSH1 0x40 MLOAD DUP1 SWAP2 SUB SWAP1 RETURN JUMPDEST PUSH1 0x0 PUSH2 0x2C4 DUP5 DUP5 DUP5 ADDRESS PUSH2 0x2CD JUMP JUMPDEST SWAP1 POP SWAP4 SWAP3 POP POP POP JUMP JUMPDEST PUSH1 0x0 DUP3 PUSH1 0x20 ADD MLOAD TIMESTAMP GT ISZERO PUSH2 0x316 JUMPI PUSH1 0x40 MLOAD PUSH32 0x8C379A000000000000000000000000000000000000000000000000000000000 DUP2 MSTORE PUSH1 0x4 ADD PUSH2 0x30D SWAP1 PUSH2 0x240B JUMP JUMPDEST PUSH1 0x40 MLOAD DUP1 SWAP2 SUB SWAP1 REVERT JUMPDEST PUSH1 0x0 PUSH20 0xFFFFFFFFFFFFFFFFFFFFFFFFFFFFFFFFFFFFFFFF AND DUP3 PUSH20 0xFFFFFFFFFFFFFFFFFFFFFFFFFFFFFFFFFFFFFFFF AND EQ ISZERO PUSH2 0x386 JUMPI PUSH1 0x40 MLOAD PUSH32 0x8C379A000000000000000000000000000000000000000000000000000000000 DUP2 MSTORE PUSH1 0x4 ADD PUSH2 0x37D SWAP1 PUSH2 0x244B JUMP JUMPDEST PUSH1 0x40 MLOAD DUP1 SWAP2 SUB SWAP1 REVERT JUMPDEST PUSH1 0x0 PUSH20 0xFFFFFFFFFFFFFFFFFFFFFFFFFFFFFFFFFFFFFFFF AND DUP4 PUSH1 0x40 ADD MLOAD PUSH20 0xFFFFFFFFFFFFFFFFFFFFFFFFFFFFFFFFFFFFFFFF AND EQ ISZERO PUSH2 0x3C8 JUMPI PUSH1 0x0 SWAP1 POP PUSH2 0x450 JUMP JUMPDEST PUSH1 0x0 PUSH2 0x3D3 DUP7 PUSH2 0xA88 JUMP JUMPDEST DUP6 PUSH1 0x40 MLOAD PUSH1 0x20 ADD PUSH2 0x3E4 SWAP2 SWAP1 PUSH2 0x246B JUMP JUMPDEST PUSH1 0x40 MLOAD PUSH1 0x20 DUP2 DUP4 SUB SUB DUP2 MSTORE SWAP1 PUSH1 0x40 MSTORE PUSH2 0x3FC DUP7 PUSH2 0xAED JUMP JUMPDEST DUP6 PUSH2 0x405 PUSH2 0x46D JUMP JUMPDEST PUSH1 0x40 MLOAD PUSH1 0x20 ADD PUSH2 0x419 SWAP6 SWAP5 SWAP4 SWAP3 SWAP2 SWAP1 PUSH2 0x2265 JUMP JUMPDEST PUSH1 0x40 MLOAD PUSH1 0x20 DUP2 DUP4 SUB SUB DUP2 MSTORE SWAP1 PUSH1 0x40 MSTORE DUP1 MLOAD SWAP1 PUSH1 0x20 ADD KECCAK256 SWAP1 POP PUSH2 0x44C DUP5 PUSH1 0x40 ADD MLOAD PUSH2 0x442 DUP4 PUSH2 0xB26 JUMP JUMPDEST DUP7 PUSH1 0x60 ADD MLOAD PUSH2 0xB56 JUMP JUMPDEST SWAP2 POP POP JUMPDEST SWAP5 SWAP4 POP POP POP POP JUMP JUMPDEST PUSH1 0x0 PUSH2 0x465 DUP4 DUP4 ADDRESS PUSH2 0x8D8 JUMP JUMPDEST SWAP1 POP SWAP3 SWAP2 POP POP JUMP JUMPDEST PUSH1 0x0 DUP1 CHAINID SWAP1 POP DUP1 SWAP2 POP POP SWAP1 JUMP JUMPDEST PUSH1 0x0 DUP3 PUSH1 0x20 ADD MLOAD TIMESTAMP GT ISZERO PUSH2 0x4C3 JUMPI PUSH1 0x40 MLOAD PUSH32 0x8C379A000000000000000000000000000000000000000000000000000000000 DUP2 MSTORE PUSH1 0x4 ADD PUSH2 0x4BA SWAP1 PUSH2 0x242B JUMP JUMPDEST PUSH1 0x40 MLOAD DUP1 SWAP2 SUB SWAP1 REVERT JUMPDEST PUSH1 0x0 PUSH20 0xFFFFFFFFFFFFFFFFFFFFFFFFFFFFFFFFFFFFFFFF AND DUP3 PUSH20 0xFFFFFFFFFFFFFFFFFFFFFFFFFFFFFFFFFFFFFFFF AND EQ ISZERO PUSH2 0x533 JUMPI PUSH1 0x40 MLOAD PUSH32 0x8C379A000000000000000000000000000000000000000000000000000000000 DUP2 MSTORE PUSH1 0x4 ADD PUSH2 0x52A SWAP1 PUSH2 0x244B JUMP JUMPDEST PUSH1 0x40 MLOAD DUP1 SWAP2 SUB SWAP1 REVERT JUMPDEST PUSH1 0x0 PUSH20 0xFFFFFFFFFFFFFFFFFFFFFFFFFFFFFFFFFFFFFFFF AND DUP4 PUSH1 0x40 ADD MLOAD PUSH20 0xFFFFFFFFFFFFFFFFFFFFFFFFFFFFFFFFFFFFFFFF AND EQ ISZERO PUSH2 0x575 JUMPI PUSH1 0x0 SWAP1 POP PUSH2 0x5DC JUMP JUMPDEST PUSH1 0x0 PUSH2 0x580 DUP6 PUSH2 0xD68 JUMP JUMPDEST PUSH2 0x589 DUP6 PUSH2 0xAED JUMP JUMPDEST DUP5 PUSH2 0x592 PUSH2 0x46D JUMP JUMPDEST PUSH1 0x40 MLOAD PUSH1 0x20 ADD PUSH2 0x5A5 SWAP5 SWAP4 SWAP3 SWAP2 SWAP1 PUSH2 0x221F JUMP JUMPDEST PUSH1 0x40 MLOAD PUSH1 0x20 DUP2 DUP4 SUB SUB DUP2 MSTORE SWAP1 PUSH1 0x40 MSTORE DUP1 MLOAD SWAP1 PUSH1 0x20 ADD KECCAK256 SWAP1 POP PUSH2 0x5D8 DUP5 PUSH1 0x40 ADD MLOAD PUSH2 0x5CE DUP4 PUSH2 0xB26 JUMP JUMPDEST DUP7 PUSH1 0x60 ADD MLOAD PUSH2 0xB56 JUMP JUMPDEST SWAP2 POP POP JUMPDEST SWAP4 SWAP3 POP POP POP JUMP JUMPDEST PUSH1 0x0 DUP3 PUSH1 0x20 ADD MLOAD TIMESTAMP GT ISZERO PUSH2 0x62C JUMPI PUSH1 0x40 MLOAD PUSH32 0x8C379A000000000000000000000000000000000000000000000000000000000 DUP2 MSTORE PUSH1 0x4 ADD PUSH2 0x623 SWAP1 PUSH2 0x23EB JUMP JUMPDEST PUSH1 0x40 MLOAD DUP1 SWAP2 SUB SWAP1 REVERT JUMPDEST PUSH1 0x0 PUSH20 0xFFFFFFFFFFFFFFFFFFFFFFFFFFFFFFFFFFFFFFFF AND DUP3 PUSH20 0xFFFFFFFFFFFFFFFFFFFFFFFFFFFFFFFFFFFFFFFF AND EQ ISZERO PUSH2 0x69C JUMPI PUSH1 0x40 MLOAD PUSH32 0x8C379A000000000000000000000000000000000000000000000000000000000 DUP2 MSTORE PUSH1 0x4 ADD PUSH2 0x693 SWAP1 PUSH2 0x244B JUMP JUMPDEST PUSH1 0x40 MLOAD DUP1 SWAP2 SUB SWAP1 REVERT JUMPDEST PUSH1 0x0 PUSH20 0xFFFFFFFFFFFFFFFFFFFFFFFFFFFFFFFFFFFFFFFF AND DUP4 PUSH1 0x40 ADD MLOAD PUSH20 0xFFFFFFFFFFFFFFFFFFFFFFFFFFFFFFFFFFFFFFFF AND EQ ISZERO PUSH2 0x6DE JUMPI PUSH1 0x0 SWAP1 POP PUSH2 0x743 JUMP JUMPDEST PUSH1 0x0 DUP8 DUP8 DUP8 DUP8 PUSH2 0x6ED DUP9 PUSH2 0xAED JUMP JUMPDEST DUP8 PUSH2 0x6F6 PUSH2 0x46D JUMP JUMPDEST PUSH1 0x40 MLOAD PUSH1 0x20 ADD PUSH2 0x70C SWAP8 SWAP7 SWAP6 SWAP5 SWAP4 SWAP3 SWAP2 SWAP1 PUSH2 0x22DE JUMP JUMPDEST PUSH1 0x40 MLOAD PUSH1 0x20 DUP2 DUP4 SUB SUB DUP2 MSTORE SWAP1 PUSH1 0x40 MSTORE DUP1 MLOAD SWAP1 PUSH1 0x20 ADD KECCAK256 SWAP1 POP PUSH2 0x73F DUP5 PUSH1 0x40 ADD MLOAD PUSH2 0x735 DUP4 PUSH2 0xB26 JUMP JUMPDEST DUP7 PUSH1 0x60 ADD MLOAD PUSH2 0xB56 JUMP JUMPDEST SWAP2 POP POP JUMPDEST SWAP7 SWAP6 POP POP POP POP POP POP JUMP JUMPDEST PUSH1 0x0 DUP3 PUSH1 0x20 ADD MLOAD TIMESTAMP GT ISZERO PUSH2 0x796 JUMPI PUSH1 0x40 MLOAD PUSH32 0x8C379A000000000000000000000000000000000000000000000000000000000 DUP2 MSTORE PUSH1 0x4 ADD PUSH2 0x78D SWAP1 PUSH2 0x242B JUMP JUMPDEST PUSH1 0x40 MLOAD DUP1 SWAP2 SUB SWAP1 REVERT JUMPDEST PUSH1 0x0 PUSH20 0xFFFFFFFFFFFFFFFFFFFFFFFFFFFFFFFFFFFFFFFF AND DUP3 PUSH20 0xFFFFFFFFFFFFFFFFFFFFFFFFFFFFFFFFFFFFFFFF AND EQ ISZERO PUSH2 0x806 JUMPI PUSH1 0x40 MLOAD PUSH32 0x8C379A000000000000000000000000000000000000000000000000000000000 DUP2 MSTORE PUSH1 0x4 ADD PUSH2 0x7FD SWAP1 PUSH2 0x244B JUMP JUMPDEST PUSH1 0x40 MLOAD DUP1 SWAP2 SUB SWAP1 REVERT JUMPDEST PUSH1 0x0 PUSH20 0xFFFFFFFFFFFFFFFFFFFFFFFFFFFFFFFFFFFFFFFF AND DUP4 PUSH1 0x40 ADD MLOAD PUSH20 0xFFFFFFFFFFFFFFFFFFFFFFFFFFFFFFFFFFFFFFFF AND EQ ISZERO PUSH2 0x848 JUMPI PUSH1 0x0 SWAP1 POP PUSH2 0x8D0 JUMP JUMPDEST PUSH1 0x0 PUSH2 0x853 DUP7 PUSH2 0xD68 JUMP JUMPDEST DUP6 PUSH1 0x40 MLOAD PUSH1 0x20 ADD PUSH2 0x864 SWAP2 SWAP1 PUSH2 0x246B JUMP JUMPDEST PUSH1 0x40 MLOAD PUSH1 0x20 DUP2 DUP4 SUB SUB DUP2 MSTORE SWAP1 PUSH1 0x40 MSTORE PUSH2 0x87C DUP7 PUSH2 0xAED JUMP JUMPDEST DUP6 PUSH2 0x885 PUSH2 0x46D JUMP JUMPDEST PUSH1 0x40 MLOAD PUSH1 0x20 ADD PUSH2 0x899 SWAP6 SWAP5 SWAP4 SWAP3 SWAP2 SWAP1 PUSH2 0x2265 JUMP JUMPDEST PUSH1 0x40 MLOAD PUSH1 0x20 DUP2 DUP4 SUB SUB DUP2 MSTORE SWAP1 PUSH1 0x40 MSTORE DUP1 MLOAD SWAP1 PUSH1 0x20 ADD KECCAK256 SWAP1 POP PUSH2 0x8CC DUP5 PUSH1 0x40 ADD MLOAD PUSH2 0x8C2 DUP4 PUSH2 0xB26 JUMP JUMPDEST DUP7 PUSH1 0x60 ADD MLOAD PUSH2 0xB56 JUMP JUMPDEST SWAP2 POP POP JUMPDEST SWAP5 SWAP4 POP POP POP POP JUMP JUMPDEST PUSH1 0x0 DUP3 PUSH1 0x20 ADD MLOAD TIMESTAMP GT ISZERO PUSH2 0x921 JUMPI PUSH1 0x40 MLOAD PUSH32 0x8C379A000000000000000000000000000000000000000000000000000000000 DUP2 MSTORE PUSH1 0x4 ADD PUSH2 0x918 SWAP1 PUSH2 0x240B JUMP JUMPDEST PUSH1 0x40 MLOAD DUP1 SWAP2 SUB SWAP1 REVERT JUMPDEST PUSH1 0x0 PUSH20 0xFFFFFFFFFFFFFFFFFFFFFFFFFFFFFFFFFFFFFFFF AND DUP3 PUSH20 0xFFFFFFFFFFFFFFFFFFFFFFFFFFFFFFFFFFFFFFFF AND EQ ISZERO PUSH2 0x991 JUMPI PUSH1 0x40 MLOAD PUSH32 0x8C379A000000000000000000000000000000000000000000000000000000000 DUP2 MSTORE PUSH1 0x4 ADD PUSH2 0x988 SWAP1 PUSH2 0x244B JUMP JUMPDEST PUSH1 0x40 MLOAD DUP1 SWAP2 SUB SWAP1 REVERT JUMPDEST PUSH1 0x0 PUSH20 0xFFFFFFFFFFFFFFFFFFFFFFFFFFFFFFFFFFFFFFFF AND DUP4 PUSH1 0x40 ADD MLOAD PUSH20 0xFFFFFFFFFFFFFFFFFFFFFFFFFFFFFFFFFFFFFFFF AND EQ ISZERO PUSH2 0x9D3 JUMPI PUSH1 0x0 SWAP1 POP PUSH2 0xA3A JUMP JUMPDEST PUSH1 0x0 PUSH2 0x9DE DUP6 PUSH2 0xA88 JUMP JUMPDEST PUSH2 0x9E7 DUP6 PUSH2 0xAED JUMP JUMPDEST DUP5 PUSH2 0x9F0 PUSH2 0x46D JUMP JUMPDEST PUSH1 0x40 MLOAD PUSH1 0x20 ADD PUSH2 0xA03 SWAP5 SWAP4 SWAP3 SWAP2 SWAP1 PUSH2 0x221F JUMP JUMPDEST PUSH1 0x40 MLOAD PUSH1 0x20 DUP2 DUP4 SUB SUB DUP2 MSTORE SWAP1 PUSH1 0x40 MSTORE DUP1 MLOAD SWAP1 PUSH1 0x20 ADD KECCAK256 SWAP1 POP PUSH2 0xA36 DUP5 PUSH1 0x40 ADD MLOAD PUSH2 0xA2C DUP4 PUSH2 0xB26 JUMP JUMPDEST DUP7 PUSH1 0x60 ADD MLOAD PUSH2 0xB56 JUMP JUMPDEST SWAP2 POP POP JUMPDEST SWAP4 SWAP3 POP POP POP JUMP JUMPDEST PUSH1 0x0 PUSH2 0xA51 DUP7 DUP7 DUP7 DUP7 DUP7 ADDRESS PUSH2 0x5E3 JUMP JUMPDEST SWAP1 POP SWAP6 SWAP5 POP POP POP POP POP JUMP JUMPDEST PUSH1 0x0 PUSH2 0xA69 DUP4 DUP4 ADDRESS PUSH2 0x47A JUMP JUMPDEST SWAP1 POP SWAP3 SWAP2 POP POP JUMP JUMPDEST PUSH1 0x0 PUSH2 0xA7F DUP5 DUP5 DUP5 ADDRESS PUSH2 0x74D JUMP JUMPDEST SWAP1 POP SWAP4 SWAP3 POP POP POP JUMP JUMPDEST PUSH1 0x60 DUP2 PUSH2 0x120 ADD MLOAD DUP3 PUSH1 0x0 ADD MLOAD DUP4 PUSH1 0x20 ADD MLOAD DUP5 PUSH1 0x60 ADD MLOAD DUP6 PUSH1 0x40 ADD MLOAD DUP7 PUSH2 0x100 ADD MLOAD DUP8 PUSH1 0x80 ADD MLOAD DUP9 PUSH1 0xA0 ADD MLOAD DUP10 PUSH1 0xC0 ADD MLOAD DUP11 PUSH1 0xE0 ADD MLOAD PUSH1 0x40 MLOAD PUSH1 0x20 ADD PUSH2 0xAD7 SWAP11 SWAP10 SWAP9 SWAP8 SWAP7 SWAP6 SWAP5 SWAP4 SWAP3 SWAP2 SWAP1 PUSH2 0x2154 JUMP JUMPDEST PUSH1 0x40 MLOAD PUSH1 0x20 DUP2 DUP4 SUB SUB DUP2 MSTORE SWAP1 PUSH1 0x40 MSTORE SWAP1 POP SWAP2 SWAP1 POP JUMP JUMPDEST PUSH1 0x60 DUP2 PUSH1 0x40 ADD MLOAD DUP3 PUSH1 0x0 ADD MLOAD DUP4 PUSH1 0x20 ADD MLOAD PUSH1 0x40 MLOAD PUSH1 0x20 ADD PUSH2 0xB10 SWAP4 SWAP3 SWAP2 SWAP1 PUSH2 0x2085 JUMP JUMPDEST PUSH1 0x40 MLOAD PUSH1 0x20 DUP2 DUP4 SUB SUB DUP2 MSTORE SWAP1 PUSH1 0x40 MSTORE SWAP1 POP SWAP2 SWAP1 POP JUMP JUMPDEST PUSH1 0x0 DUP2 PUSH1 0x40 MLOAD PUSH1 0x20 ADD PUSH2 0xB39 SWAP2 SWAP1 PUSH2 0x22B8 JUMP JUMPDEST PUSH1 0x40 MLOAD PUSH1 0x20 DUP2 DUP4 SUB SUB DUP2 MSTORE SWAP1 PUSH1 0x40 MSTORE DUP1 MLOAD SWAP1 PUSH1 0x20 ADD KECCAK256 SWAP1 POP SWAP2 SWAP1 POP JUMP JUMPDEST PUSH1 0x0 DUP1 PUSH1 0x0 PUSH2 0xB65 DUP6 DUP6 PUSH2 0xDBF JUMP JUMPDEST SWAP2 POP SWAP2 POP PUSH1 0x0 PUSH1 0x4 DUP2 GT ISZERO PUSH2 0xBA3 JUMPI PUSH32 0x4E487B7100000000000000000000000000000000000000000000000000000000 PUSH1 0x0 MSTORE PUSH1 0x21 PUSH1 0x4 MSTORE PUSH1 0x24 PUSH1 0x0 REVERT JUMPDEST DUP2 PUSH1 0x4 DUP2 GT ISZERO PUSH2 0xBDC JUMPI PUSH32 0x4E487B7100000000000000000000000000000000000000000000000000000000 PUSH1 0x0 MSTORE PUSH1 0x21 PUSH1 0x4 MSTORE PUSH1 0x24 PUSH1 0x0 REVERT JUMPDEST EQ DUP1 ISZERO PUSH2 0xC14 JUMPI POP DUP6 PUSH20 0xFFFFFFFFFFFFFFFFFFFFFFFFFFFFFFFFFFFFFFFF AND DUP3 PUSH20 0xFFFFFFFFFFFFFFFFFFFFFFFFFFFFFFFFFFFFFFFF AND EQ JUMPDEST ISZERO PUSH2 0xC24 JUMPI PUSH1 0x1 SWAP3 POP POP POP PUSH2 0xD61 JUMP JUMPDEST PUSH1 0x0 DUP1 DUP8 PUSH20 0xFFFFFFFFFFFFFFFFFFFFFFFFFFFFFFFFFFFFFFFF AND PUSH4 0x1626BA7E PUSH1 0xE0 SHL DUP9 DUP9 PUSH1 0x40 MLOAD PUSH1 0x24 ADD PUSH2 0xC59 SWAP3 SWAP2 SWAP1 PUSH2 0x2376 JUMP JUMPDEST PUSH1 0x40 MLOAD PUSH1 0x20 DUP2 DUP4 SUB SUB DUP2 MSTORE SWAP1 PUSH1 0x40 MSTORE SWAP1 PUSH28 0xFFFFFFFFFFFFFFFFFFFFFFFFFFFFFFFFFFFFFFFFFFFFFFFFFFFFFFFF NOT AND PUSH1 0x20 DUP3 ADD DUP1 MLOAD PUSH28 0xFFFFFFFFFFFFFFFFFFFFFFFFFFFFFFFFFFFFFFFFFFFFFFFFFFFFFFFF DUP4 DUP2 DUP4 AND OR DUP4 MSTORE POP POP POP POP PUSH1 0x40 MLOAD PUSH2 0xCC3 SWAP2 SWAP1 PUSH2 0x2208 JUMP JUMPDEST PUSH1 0x0 PUSH1 0x40 MLOAD DUP1 DUP4 SUB DUP2 DUP6 GAS STATICCALL SWAP2 POP POP RETURNDATASIZE DUP1 PUSH1 0x0 DUP2 EQ PUSH2 0xCFE JUMPI PUSH1 0x40 MLOAD SWAP2 POP PUSH1 0x1F NOT PUSH1 0x3F RETURNDATASIZE ADD AND DUP3 ADD PUSH1 0x40 MSTORE RETURNDATASIZE DUP3 MSTORE RETURNDATASIZE PUSH1 0x0 PUSH1 0x20 DUP5 ADD RETURNDATACOPY PUSH2 0xD03 JUMP JUMPDEST PUSH1 0x60 SWAP2 POP JUMPDEST POP SWAP2 POP SWAP2 POP DUP2 DUP1 ISZERO PUSH2 0xD16 JUMPI POP PUSH1 0x20 DUP2 MLOAD EQ JUMPDEST DUP1 ISZERO PUSH2 0xD5A JUMPI POP PUSH4 0x1626BA7E PUSH1 0xE0 SHL PUSH28 0xFFFFFFFFFFFFFFFFFFFFFFFFFFFFFFFFFFFFFFFFFFFFFFFFFFFFFFFF NOT AND DUP2 DUP1 PUSH1 0x20 ADD SWAP1 MLOAD DUP2 ADD SWAP1 PUSH2 0xD58 SWAP2 SWAP1 PUSH2 0x1674 JUMP JUMPDEST EQ JUMPDEST SWAP5 POP POP POP POP POP JUMPDEST SWAP4 SWAP3 POP POP POP JUMP JUMPDEST PUSH1 0x60 DUP2 PUSH1 0xC0 ADD MLOAD DUP3 PUSH1 0x0 ADD MLOAD DUP4 PUSH1 0x20 ADD MLOAD DUP5 PUSH1 0x60 ADD MLOAD DUP6 PUSH1 0x40 ADD MLOAD DUP7 PUSH1 0xE0 ADD MLOAD DUP8 PUSH1 0x80 ADD MLOAD DUP9 PUSH1 0xA0 ADD MLOAD PUSH1 0x40 MLOAD PUSH1 0x20 ADD PUSH2 0xDA9 SWAP9 SWAP8 SWAP7 SWAP6 SWAP5 SWAP4 SWAP3 SWAP2 SWAP1 PUSH2 0x20C2 JUMP JUMPDEST PUSH1 0x40 MLOAD PUSH1 0x20 DUP2 DUP4 SUB SUB DUP2 MSTORE SWAP1 PUSH1 0x40 MSTORE SWAP1 POP SWAP2 SWAP1 POP JUMP JUMPDEST PUSH1 0x0 DUP1 PUSH1 0x41 DUP4 MLOAD EQ ISZERO PUSH2 0xE01 JUMPI PUSH1 0x0 DUP1 PUSH1 0x0 PUSH1 0x20 DUP7 ADD MLOAD SWAP3 POP PUSH1 0x40 DUP7 ADD MLOAD SWAP2 POP PUSH1 0x60 DUP7 ADD MLOAD PUSH1 0x0 BYTE SWAP1 POP PUSH2 0xDF5 DUP8 DUP3 DUP6 DUP6 PUSH2 0xE11 JUMP JUMPDEST SWAP5 POP SWAP5 POP POP POP POP PUSH2 0xE0A JUMP JUMPDEST PUSH1 0x0 PUSH1 0x2 SWAP2 POP SWAP2 POP JUMPDEST SWAP3 POP SWAP3 SWAP1 POP JUMP JUMPDEST PUSH1 0x0 DUP1 PUSH32 0x7FFFFFFFFFFFFFFFFFFFFFFFFFFFFFFF5D576E7357A4501DDFE92F46681B20A0 DUP4 PUSH1 0x0 SHR GT ISZERO PUSH2 0xE4C JUMPI PUSH1 0x0 PUSH1 0x3 SWAP2 POP SWAP2 POP PUSH2 0xEEB JUMP JUMPDEST PUSH1 0x0 PUSH1 0x1 DUP8 DUP8 DUP8 DUP8 PUSH1 0x40 MLOAD PUSH1 0x0 DUP2 MSTORE PUSH1 0x20 ADD PUSH1 0x40 MSTORE PUSH1 0x40 MLOAD PUSH2 0xE71 SWAP5 SWAP4 SWAP3 SWAP2 SWAP1 PUSH2 0x23A6 JUMP JUMPDEST PUSH1 0x20 PUSH1 0x40 MLOAD PUSH1 0x20 DUP2 SUB SWAP1 DUP1 DUP5 SUB SWAP1 DUP6 GAS STATICCALL ISZERO DUP1 ISZERO PUSH2 0xE93 JUMPI RETURNDATASIZE PUSH1 0x0 DUP1 RETURNDATACOPY RETURNDATASIZE PUSH1 0x0 REVERT JUMPDEST POP POP POP PUSH1 0x20 PUSH1 0x40 MLOAD SUB MLOAD SWAP1 POP PUSH1 0x0 PUSH20 0xFFFFFFFFFFFFFFFFFFFFFFFFFFFFFFFFFFFFFFFF AND DUP2 PUSH20 0xFFFFFFFFFFFFFFFFFFFFFFFFFFFFFFFFFFFFFFFF AND EQ ISZERO PUSH2 0xEE2 JUMPI PUSH1 0x0 PUSH1 0x1 SWAP3 POP SWAP3 POP POP PUSH2 0xEEB JUMP JUMPDEST DUP1 PUSH1 0x0 SWAP3 POP SWAP3 POP POP JUMPDEST SWAP5 POP SWAP5 SWAP3 POP POP POP JUMP JUMPDEST PUSH1 0x0 PUSH2 0xF07 PUSH2 0xF02 DUP5 PUSH2 0x24CD JUMP JUMPDEST PUSH2 0x24A8 JUMP JUMPDEST SWAP1 POP DUP1 DUP4 DUP3 MSTORE PUSH1 0x20 DUP3 ADD SWAP1 POP DUP3 DUP6 PUSH1 0x20 DUP7 MUL DUP3 ADD GT ISZERO PUSH2 0xF26 JUMPI PUSH1 0x0 DUP1 REVERT JUMPDEST PUSH1 0x0 JUMPDEST DUP6 DUP2 LT ISZERO PUSH2 0xF70 JUMPI DUP2 CALLDATALOAD PUSH8 0xFFFFFFFFFFFFFFFF DUP2 GT ISZERO PUSH2 0xF48 JUMPI PUSH1 0x0 DUP1 REVERT JUMPDEST DUP1 DUP7 ADD PUSH2 0xF55 DUP10 DUP3 PUSH2 0x120D JUMP JUMPDEST DUP6 MSTORE PUSH1 0x20 DUP6 ADD SWAP5 POP PUSH1 0x20 DUP5 ADD SWAP4 POP POP POP PUSH1 0x1 DUP2 ADD SWAP1 POP PUSH2 0xF29 JUMP JUMPDEST POP POP POP SWAP4 SWAP3 POP POP POP JUMP JUMPDEST PUSH1 0x0 PUSH2 0xF8D PUSH2 0xF88 DUP5 PUSH2 0x24F9 JUMP JUMPDEST PUSH2 0x24A8 JUMP JUMPDEST SWAP1 POP DUP1 DUP4 DUP3 MSTORE PUSH1 0x20 DUP3 ADD SWAP1 POP DUP3 DUP6 PUSH1 0x40 DUP7 MUL DUP3 ADD GT ISZERO PUSH2 0xFAC JUMPI PUSH1 0x0 DUP1 REVERT JUMPDEST PUSH1 0x0 JUMPDEST DUP6 DUP2 LT ISZERO PUSH2 0xFDC JUMPI DUP2 PUSH2 0xFC2 DUP9 DUP3 PUSH2 0x129D JUMP JUMPDEST DUP5 MSTORE PUSH1 0x20 DUP5 ADD SWAP4 POP PUSH1 0x40 DUP4 ADD SWAP3 POP POP PUSH1 0x1 DUP2 ADD SWAP1 POP PUSH2 0xFAF JUMP JUMPDEST POP POP POP SWAP4 SWAP3 POP POP POP JUMP JUMPDEST PUSH1 0x0 PUSH2 0xFF9 PUSH2 0xFF4 DUP5 PUSH2 0x2525 JUMP JUMPDEST PUSH2 0x24A8 JUMP JUMPDEST SWAP1 POP DUP1 DUP4 DUP3 MSTORE PUSH1 0x20 DUP3 ADD SWAP1 POP DUP3 DUP6 PUSH1 0x60 DUP7 MUL DUP3 ADD GT ISZERO PUSH2 0x1018 JUMPI PUSH1 0x0 DUP1 REVERT JUMPDEST PUSH1 0x0 JUMPDEST DUP6 DUP2 LT ISZERO PUSH2 0x1048 JUMPI DUP2 PUSH2 0x102E DUP9 DUP3 PUSH2 0x12E9 JUMP JUMPDEST DUP5 MSTORE PUSH1 0x20 DUP5 ADD SWAP4 POP PUSH1 0x60 DUP4 ADD SWAP3 POP POP PUSH1 0x1 DUP2 ADD SWAP1 POP PUSH2 0x101B JUMP JUMPDEST POP POP POP SWAP4 SWAP3 POP POP POP JUMP JUMPDEST PUSH1 0x0 PUSH2 0x1065 PUSH2 0x1060 DUP5 PUSH2 0x2551 JUMP JUMPDEST PUSH2 0x24A8 JUMP JUMPDEST SWAP1 POP DUP1 DUP4 DUP3 MSTORE PUSH1 0x20 DUP3 ADD SWAP1 POP DUP3 DUP6 PUSH1 0x20 DUP7 MUL DUP3 ADD GT ISZERO PUSH2 0x1084 JUMPI PUSH1 0x0 DUP1 REVERT JUMPDEST PUSH1 0x0 JUMPDEST DUP6 DUP2 LT ISZERO PUSH2 0x10B4 JUMPI DUP2 PUSH2 0x109A DUP9 DUP3 PUSH2 0x164A JUMP JUMPDEST DUP5 MSTORE PUSH1 0x20 DUP5 ADD SWAP4 POP PUSH1 0x20 DUP4 ADD SWAP3 POP POP PUSH1 0x1 DUP2 ADD SWAP1 POP PUSH2 0x1087 JUMP JUMPDEST POP POP POP SWAP4 SWAP3 POP POP POP JUMP JUMPDEST PUSH1 0x0 PUSH2 0x10D1 PUSH2 0x10CC DUP5 PUSH2 0x257D JUMP JUMPDEST PUSH2 0x24A8 JUMP JUMPDEST SWAP1 POP DUP3 DUP2 MSTORE PUSH1 0x20 DUP2 ADD DUP5 DUP5 DUP5 ADD GT ISZERO PUSH2 0x10E9 JUMPI PUSH1 0x0 DUP1 REVERT JUMPDEST PUSH2 0x10F4 DUP5 DUP3 DUP6 PUSH2 0x2752 JUMP JUMPDEST POP SWAP4 SWAP3 POP POP POP JUMP JUMPDEST PUSH1 0x0 DUP2 CALLDATALOAD SWAP1 POP PUSH2 0x110B DUP2 PUSH2 0x297B JUMP JUMPDEST SWAP3 SWAP2 POP POP JUMP JUMPDEST PUSH1 0x0 DUP3 PUSH1 0x1F DUP4 ADD SLT PUSH2 0x1122 JUMPI PUSH1 0x0 DUP1 REVERT JUMPDEST DUP2 CALLDATALOAD PUSH2 0x1132 DUP5 DUP3 PUSH1 0x20 DUP7 ADD PUSH2 0xEF4 JUMP JUMPDEST SWAP2 POP POP SWAP3 SWAP2 POP POP JUMP JUMPDEST PUSH1 0x0 DUP3 PUSH1 0x1F DUP4 ADD SLT PUSH2 0x114C JUMPI PUSH1 0x0 DUP1 REVERT JUMPDEST DUP2 CALLDATALOAD PUSH2 0x115C DUP5 DUP3 PUSH1 0x20 DUP7 ADD PUSH2 0xF7A JUMP JUMPDEST SWAP2 POP POP SWAP3 SWAP2 POP POP JUMP JUMPDEST PUSH1 0x0 DUP3 PUSH1 0x1F DUP4 ADD SLT PUSH2 0x1176 JUMPI PUSH1 0x0 DUP1 REVERT JUMPDEST DUP2 CALLDATALOAD PUSH2 0x1186 DUP5 DUP3 PUSH1 0x20 DUP7 ADD PUSH2 0xFE6 JUMP JUMPDEST SWAP2 POP POP SWAP3 SWAP2 POP POP JUMP JUMPDEST PUSH1 0x0 DUP3 PUSH1 0x1F DUP4 ADD SLT PUSH2 0x11A0 JUMPI PUSH1 0x0 DUP1 REVERT JUMPDEST DUP2 CALLDATALOAD PUSH2 0x11B0 DUP5 DUP3 PUSH1 0x20 DUP7 ADD PUSH2 0x1052 JUMP JUMPDEST SWAP2 POP POP SWAP3 SWAP2 POP POP JUMP JUMPDEST PUSH1 0x0 DUP2 CALLDATALOAD SWAP1 POP PUSH2 0x11C8 DUP2 PUSH2 0x2992 JUMP JUMPDEST SWAP3 SWAP2 POP POP JUMP JUMPDEST PUSH1 0x0 DUP2 MLOAD SWAP1 POP PUSH2 0x11DD DUP2 PUSH2 0x29A9 JUMP JUMPDEST SWAP3 SWAP2 POP POP JUMP JUMPDEST PUSH1 0x0 DUP3 PUSH1 0x1F DUP4 ADD SLT PUSH2 0x11F4 JUMPI PUSH1 0x0 DUP1 REVERT JUMPDEST DUP2 CALLDATALOAD PUSH2 0x1204 DUP5 DUP3 PUSH1 0x20 DUP7 ADD PUSH2 0x10BE JUMP JUMPDEST SWAP2 POP POP SWAP3 SWAP2 POP POP JUMP JUMPDEST PUSH1 0x0 PUSH1 0x60 DUP3 DUP5 SUB SLT ISZERO PUSH2 0x121F JUMPI PUSH1 0x0 DUP1 REVERT JUMPDEST PUSH2 0x1229 PUSH1 0x60 PUSH2 0x24A8 JUMP JUMPDEST SWAP1 POP PUSH1 0x0 PUSH2 0x1239 DUP5 DUP3 DUP6 ADD PUSH2 0x10FC JUMP JUMPDEST PUSH1 0x0 DUP4 ADD MSTORE POP PUSH1 0x20 DUP3 ADD CALLDATALOAD PUSH8 0xFFFFFFFFFFFFFFFF DUP2 GT ISZERO PUSH2 0x1259 JUMPI PUSH1 0x0 DUP1 REVERT JUMPDEST PUSH2 0x1265 DUP5 DUP3 DUP6 ADD PUSH2 0x118F JUMP JUMPDEST PUSH1 0x20 DUP4 ADD MSTORE POP PUSH1 0x40 DUP3 ADD CALLDATALOAD PUSH8 0xFFFFFFFFFFFFFFFF DUP2 GT ISZERO PUSH2 0x1285 JUMPI PUSH1 0x0 DUP1 REVERT JUMPDEST PUSH2 0x1291 DUP5 DUP3 DUP6 ADD PUSH2 0x118F JUMP JUMPDEST PUSH1 0x40 DUP4 ADD MSTORE POP SWAP3 SWAP2 POP POP JUMP JUMPDEST PUSH1 0x0 PUSH1 0x40 DUP3 DUP5 SUB SLT ISZERO PUSH2 0x12AF JUMPI PUSH1 0x0 DUP1 REVERT JUMPDEST PUSH2 0x12B9 PUSH1 0x40 PUSH2 0x24A8 JUMP JUMPDEST SWAP1 POP PUSH1 0x0 PUSH2 0x12C9 DUP5 DUP3 DUP6 ADD PUSH2 0x10FC JUMP JUMPDEST PUSH1 0x0 DUP4 ADD MSTORE POP PUSH1 0x20 PUSH2 0x12DD DUP5 DUP3 DUP6 ADD PUSH2 0x164A JUMP JUMPDEST PUSH1 0x20 DUP4 ADD MSTORE POP SWAP3 SWAP2 POP POP JUMP JUMPDEST PUSH1 0x0 PUSH1 0x60 DUP3 DUP5 SUB SLT ISZERO PUSH2 0x12FB JUMPI PUSH1 0x0 DUP1 REVERT JUMPDEST PUSH2 0x1305 PUSH1 0x60 PUSH2 0x24A8 JUMP JUMPDEST SWAP1 POP PUSH1 0x0 PUSH2 0x1315 DUP5 DUP3 DUP6 ADD PUSH2 0x10FC JUMP JUMPDEST PUSH1 0x0 DUP4 ADD MSTORE POP PUSH1 0x20 PUSH2 0x1329 DUP5 DUP3 DUP6 ADD PUSH2 0x164A JUMP JUMPDEST PUSH1 0x20 DUP4 ADD MSTORE POP PUSH1 0x40 PUSH2 0x133D DUP5 DUP3 DUP6 ADD PUSH2 0x11B9 JUMP JUMPDEST PUSH1 0x40 DUP4 ADD MSTORE POP SWAP3 SWAP2 POP POP JUMP JUMPDEST PUSH1 0x0 PUSH1 0x60 DUP3 DUP5 SUB SLT ISZERO PUSH2 0x135B JUMPI PUSH1 0x0 DUP1 REVERT JUMPDEST PUSH2 0x1365 PUSH1 0x60 PUSH2 0x24A8 JUMP JUMPDEST SWAP1 POP PUSH1 0x0 DUP3 ADD CALLDATALOAD PUSH8 0xFFFFFFFFFFFFFFFF DUP2 GT ISZERO PUSH2 0x1381 JUMPI PUSH1 0x0 DUP1 REVERT JUMPDEST PUSH2 0x138D DUP5 DUP3 DUP6 ADD PUSH2 0x1165 JUMP JUMPDEST PUSH1 0x0 DUP4 ADD MSTORE POP PUSH1 0x20 DUP3 ADD CALLDATALOAD PUSH8 0xFFFFFFFFFFFFFFFF DUP2 GT ISZERO PUSH2 0x13AD JUMPI PUSH1 0x0 DUP1 REVERT JUMPDEST PUSH2 0x13B9 DUP5 DUP3 DUP6 ADD PUSH2 0x113B JUMP JUMPDEST PUSH1 0x20 DUP4 ADD MSTORE POP PUSH1 0x40 DUP3 ADD CALLDATALOAD PUSH8 0xFFFFFFFFFFFFFFFF DUP2 GT ISZERO PUSH2 0x13D9 JUMPI PUSH1 0x0 DUP1 REVERT JUMPDEST PUSH2 0x13E5 DUP5 DUP3 DUP6 ADD PUSH2 0x1111 JUMP JUMPDEST PUSH1 0x40 DUP4 ADD MSTORE POP SWAP3 SWAP2 POP POP JUMP JUMPDEST PUSH1 0x0 PUSH2 0x140 DUP3 DUP5 SUB SLT ISZERO PUSH2 0x1404 JUMPI PUSH1 0x0 DUP1 REVERT JUMPDEST PUSH2 0x140F PUSH2 0x140 PUSH2 0x24A8 JUMP JUMPDEST SWAP1 POP PUSH1 0x0 PUSH2 0x141F DUP5 DUP3 DUP6 ADD PUSH2 0x164A JUMP JUMPDEST PUSH1 0x0 DUP4 ADD MSTORE POP PUSH1 0x20 PUSH2 0x1433 DUP5 DUP3 DUP6 ADD PUSH2 0x164A JUMP JUMPDEST PUSH1 0x20 DUP4 ADD MSTORE POP PUSH1 0x40 PUSH2 0x1447 DUP5 DUP3 DUP6 ADD PUSH2 0x164A JUMP JUMPDEST PUSH1 0x40 DUP4 ADD MSTORE POP PUSH1 0x60 PUSH2 0x145B DUP5 DUP3 DUP6 ADD PUSH2 0x10FC JUMP JUMPDEST PUSH1 0x60 DUP4 ADD MSTORE POP PUSH1 0x80 PUSH2 0x146F DUP5 DUP3 DUP6 ADD PUSH2 0x165F JUMP JUMPDEST PUSH1 0x80 DUP4 ADD MSTORE POP PUSH1 0xA0 PUSH2 0x1483 DUP5 DUP3 DUP6 ADD PUSH2 0x165F JUMP JUMPDEST PUSH1 0xA0 DUP4 ADD MSTORE POP PUSH1 0xC0 PUSH2 0x1497 DUP5 DUP3 DUP6 ADD PUSH2 0x1635 JUMP JUMPDEST PUSH1 0xC0 DUP4 ADD MSTORE POP PUSH1 0xE0 PUSH2 0x14AB DUP5 DUP3 DUP6 ADD PUSH2 0x1635 JUMP JUMPDEST PUSH1 0xE0 DUP4 ADD MSTORE POP PUSH2 0x100 PUSH2 0x14C0 DUP5 DUP3 DUP6 ADD PUSH2 0x10FC JUMP JUMPDEST PUSH2 0x100 DUP4 ADD MSTORE POP PUSH2 0x120 PUSH2 0x14D6 DUP5 DUP3 DUP6 ADD PUSH2 0x10FC JUMP JUMPDEST PUSH2 0x120 DUP4 ADD MSTORE POP SWAP3 SWAP2 POP POP JUMP JUMPDEST PUSH1 0x0 PUSH2 0x100 DUP3 DUP5 SUB SLT ISZERO PUSH2 0x14F6 JUMPI PUSH1 0x0 DUP1 REVERT JUMPDEST PUSH2 0x1501 PUSH2 0x100 PUSH2 0x24A8 JUMP JUMPDEST SWAP1 POP PUSH1 0x0 PUSH2 0x1511 DUP5 DUP3 DUP6 ADD PUSH2 0x164A JUMP JUMPDEST PUSH1 0x0 DUP4 ADD MSTORE POP PUSH1 0x20 PUSH2 0x1525 DUP5 DUP3 DUP6 ADD PUSH2 0x164A JUMP JUMPDEST PUSH1 0x20 DUP4 ADD MSTORE POP PUSH1 0x40 PUSH2 0x1539 DUP5 DUP3 DUP6 ADD PUSH2 0x164A JUMP JUMPDEST PUSH1 0x40 DUP4 ADD MSTORE POP PUSH1 0x60 PUSH2 0x154D DUP5 DUP3 DUP6 ADD PUSH2 0x10FC JUMP JUMPDEST PUSH1 0x60 DUP4 ADD MSTORE POP PUSH1 0x80 PUSH2 0x1561 DUP5 DUP3 DUP6 ADD PUSH2 0x165F JUMP JUMPDEST PUSH1 0x80 DUP4 ADD MSTORE POP PUSH1 0xA0 PUSH2 0x1575 DUP5 DUP3 DUP6 ADD PUSH2 0x1635 JUMP JUMPDEST PUSH1 0xA0 DUP4 ADD MSTORE POP PUSH1 0xC0 PUSH2 0x1589 DUP5 DUP3 DUP6 ADD PUSH2 0x10FC JUMP JUMPDEST PUSH1 0xC0 DUP4 ADD MSTORE POP PUSH1 0xE0 PUSH2 0x159D DUP5 DUP3 DUP6 ADD PUSH2 0x10FC JUMP JUMPDEST PUSH1 0xE0 DUP4 ADD MSTORE POP SWAP3 SWAP2 POP POP JUMP JUMPDEST PUSH1 0x0 PUSH1 0x80 DUP3 DUP5 SUB SLT ISZERO PUSH2 0x15BB JUMPI PUSH1 0x0 DUP1 REVERT JUMPDEST PUSH2 0x15C5 PUSH1 0x80 PUSH2 0x24A8 JUMP JUMPDEST SWAP1 POP PUSH1 0x0 PUSH2 0x15D5 DUP5 DUP3 DUP6 ADD PUSH2 0x164A JUMP JUMPDEST PUSH1 0x0 DUP4 ADD MSTORE POP PUSH1 0x20 PUSH2 0x15E9 DUP5 DUP3 DUP6 ADD PUSH2 0x164A JUMP JUMPDEST PUSH1 0x20 DUP4 ADD MSTORE POP PUSH1 0x40 PUSH2 0x15FD DUP5 DUP3 DUP6 ADD PUSH2 0x10FC JUMP JUMPDEST PUSH1 0x40 DUP4 ADD MSTORE POP PUSH1 0x60 DUP3 ADD CALLDATALOAD PUSH8 0xFFFFFFFFFFFFFFFF DUP2 GT ISZERO PUSH2 0x161D JUMPI PUSH1 0x0 DUP1 REVERT JUMPDEST PUSH2 0x1629 DUP5 DUP3 DUP6 ADD PUSH2 0x11E3 JUMP JUMPDEST PUSH1 0x60 DUP4 ADD MSTORE POP SWAP3 SWAP2 POP POP JUMP JUMPDEST PUSH1 0x0 DUP2 CALLDATALOAD SWAP1 POP PUSH2 0x1644 DUP2 PUSH2 0x29C0 JUMP JUMPDEST SWAP3 SWAP2 POP POP JUMP JUMPDEST PUSH1 0x0 DUP2 CALLDATALOAD SWAP1 POP PUSH2 0x1659 DUP2 PUSH2 0x29D7 JUMP JUMPDEST SWAP3 SWAP2 POP POP JUMP JUMPDEST PUSH1 0x0 DUP2 CALLDATALOAD SWAP1 POP PUSH2 0x166E DUP2 PUSH2 0x29EE JUMP JUMPDEST SWAP3 SWAP2 POP POP JUMP JUMPDEST PUSH1 0x0 PUSH1 0x20 DUP3 DUP5 SUB SLT ISZERO PUSH2 0x1686 JUMPI PUSH1 0x0 DUP1 REVERT JUMPDEST PUSH1 0x0 PUSH2 0x1694 DUP5 DUP3 DUP6 ADD PUSH2 0x11CE JUMP JUMPDEST SWAP2 POP POP SWAP3 SWAP2 POP POP JUMP JUMPDEST PUSH1 0x0 DUP1 PUSH1 0x0 PUSH2 0x180 DUP5 DUP7 SUB SLT ISZERO PUSH2 0x16B3 JUMPI PUSH1 0x0 DUP1 REVERT JUMPDEST PUSH1 0x0 PUSH2 0x16C1 DUP7 DUP3 DUP8 ADD PUSH2 0x13F1 JUMP JUMPDEST SWAP4 POP POP PUSH2 0x140 DUP5 ADD CALLDATALOAD PUSH8 0xFFFFFFFFFFFFFFFF DUP2 GT ISZERO PUSH2 0x16DF JUMPI PUSH1 0x0 DUP1 REVERT JUMPDEST PUSH2 0x16EB DUP7 DUP3 DUP8 ADD PUSH2 0x1349 JUMP JUMPDEST SWAP3 POP POP PUSH2 0x160 DUP5 ADD CALLDATALOAD PUSH8 0xFFFFFFFFFFFFFFFF DUP2 GT ISZERO PUSH2 0x1709 JUMPI PUSH1 0x0 DUP1 REVERT JUMPDEST PUSH2 0x1715 DUP7 DUP3 DUP8 ADD PUSH2 0x15A9 JUMP JUMPDEST SWAP2 POP POP SWAP3 POP SWAP3 POP SWAP3 JUMP JUMPDEST PUSH1 0x0 DUP1 PUSH1 0x0 DUP1 PUSH2 0x1A0 DUP6 DUP8 SUB SLT ISZERO PUSH2 0x1736 JUMPI PUSH1 0x0 DUP1 REVERT JUMPDEST PUSH1 0x0 PUSH2 0x1744 DUP8 DUP3 DUP9 ADD PUSH2 0x13F1 JUMP JUMPDEST SWAP5 POP POP PUSH2 0x140 DUP6 ADD CALLDATALOAD PUSH8 0xFFFFFFFFFFFFFFFF DUP2 GT ISZERO PUSH2 0x1762 JUMPI PUSH1 0x0 DUP1 REVERT JUMPDEST PUSH2 0x176E DUP8 DUP3 DUP9 ADD PUSH2 0x1349 JUMP JUMPDEST SWAP4 POP POP PUSH2 0x160 DUP6 ADD CALLDATALOAD PUSH8 0xFFFFFFFFFFFFFFFF DUP2 GT ISZERO PUSH2 0x178C JUMPI PUSH1 0x0 DUP1 REVERT JUMPDEST PUSH2 0x1798 DUP8 DUP3 DUP9 ADD PUSH2 0x15A9 JUMP JUMPDEST SWAP3 POP POP PUSH2 0x180 PUSH2 0x17AA DUP8 DUP3 DUP9 ADD PUSH2 0x10FC JUMP JUMPDEST SWAP2 POP POP SWAP3 SWAP6 SWAP2 SWAP5 POP SWAP3 POP JUMP JUMPDEST PUSH1 0x0 DUP1 PUSH2 0x160 DUP4 DUP6 SUB SLT ISZERO PUSH2 0x17CA JUMPI PUSH1 0x0 DUP1 REVERT JUMPDEST PUSH1 0x0 PUSH2 0x17D8 DUP6 DUP3 DUP7 ADD PUSH2 0x13F1 JUMP JUMPDEST SWAP3 POP POP PUSH2 0x140 DUP4 ADD CALLDATALOAD PUSH8 0xFFFFFFFFFFFFFFFF DUP2 GT ISZERO PUSH2 0x17F6 JUMPI PUSH1 0x0 DUP1 REVERT JUMPDEST PUSH2 0x1802 DUP6 DUP3 DUP7 ADD PUSH2 0x15A9 JUMP JUMPDEST SWAP2 POP POP SWAP3 POP SWAP3 SWAP1 POP JUMP JUMPDEST PUSH1 0x0 DUP1 PUSH1 0x0 PUSH2 0x180 DUP5 DUP7 SUB SLT ISZERO PUSH2 0x1822 JUMPI PUSH1 0x0 DUP1 REVERT JUMPDEST PUSH1 0x0 PUSH2 0x1830 DUP7 DUP3 DUP8 ADD PUSH2 0x13F1 JUMP JUMPDEST SWAP4 POP POP PUSH2 0x140 DUP5 ADD CALLDATALOAD PUSH8 0xFFFFFFFFFFFFFFFF DUP2 GT ISZERO PUSH2 0x184E JUMPI PUSH1 0x0 DUP1 REVERT JUMPDEST PUSH2 0x185A DUP7 DUP3 DUP8 ADD PUSH2 0x15A9 JUMP JUMPDEST SWAP3 POP POP PUSH2 0x160 PUSH2 0x186C DUP7 DUP3 DUP8 ADD PUSH2 0x10FC JUMP JUMPDEST SWAP2 POP POP SWAP3 POP SWAP3 POP SWAP3 JUMP JUMPDEST PUSH1 0x0 DUP1 PUSH1 0x0 PUSH2 0x140 DUP5 DUP7 SUB SLT ISZERO PUSH2 0x188C JUMPI PUSH1 0x0 DUP1 REVERT JUMPDEST PUSH1 0x0 PUSH2 0x189A DUP7 DUP3 DUP8 ADD PUSH2 0x14E3 JUMP JUMPDEST SWAP4 POP POP PUSH2 0x100 DUP5 ADD CALLDATALOAD PUSH8 0xFFFFFFFFFFFFFFFF DUP2 GT ISZERO PUSH2 0x18B8 JUMPI PUSH1 0x0 DUP1 REVERT JUMPDEST PUSH2 0x18C4 DUP7 DUP3 DUP8 ADD PUSH2 0x1349 JUMP JUMPDEST SWAP3 POP POP PUSH2 0x120 DUP5 ADD CALLDATALOAD PUSH8 0xFFFFFFFFFFFFFFFF DUP2 GT ISZERO PUSH2 0x18E2 JUMPI PUSH1 0x0 DUP1 REVERT JUMPDEST PUSH2 0x18EE DUP7 DUP3 DUP8 ADD PUSH2 0x15A9 JUMP JUMPDEST SWAP2 POP POP SWAP3 POP SWAP3 POP SWAP3 JUMP JUMPDEST PUSH1 0x0 DUP1 PUSH1 0x0 DUP1 PUSH2 0x160 DUP6 DUP8 SUB SLT ISZERO PUSH2 0x190F JUMPI PUSH1 0x0 DUP1 REVERT JUMPDEST PUSH1 0x0 PUSH2 0x191D DUP8 DUP3 DUP9 ADD PUSH2 0x14E3 JUMP JUMPDEST SWAP5 POP POP PUSH2 0x100 DUP6 ADD CALLDATALOAD PUSH8 0xFFFFFFFFFFFFFFFF DUP2 GT ISZERO PUSH2 0x193B JUMPI PUSH1 0x0 DUP1 REVERT JUMPDEST PUSH2 0x1947 DUP8 DUP3 DUP9 ADD PUSH2 0x1349 JUMP JUMPDEST SWAP4 POP POP PUSH2 0x120 DUP6 ADD CALLDATALOAD PUSH8 0xFFFFFFFFFFFFFFFF DUP2 GT ISZERO PUSH2 0x1965 JUMPI PUSH1 0x0 DUP1 REVERT JUMPDEST PUSH2 0x1971 DUP8 DUP3 DUP9 ADD PUSH2 0x15A9 JUMP JUMPDEST SWAP3 POP POP PUSH2 0x140 PUSH2 0x1983 DUP8 DUP3 DUP9 ADD PUSH2 0x10FC JUMP JUMPDEST SWAP2 POP POP SWAP3 SWAP6 SWAP2 SWAP5 POP SWAP3 POP JUMP JUMPDEST PUSH1 0x0 DUP1 PUSH2 0x120 DUP4 DUP6 SUB SLT ISZERO PUSH2 0x19A3 JUMPI PUSH1 0x0 DUP1 REVERT JUMPDEST PUSH1 0x0 PUSH2 0x19B1 DUP6 DUP3 DUP7 ADD PUSH2 0x14E3 JUMP JUMPDEST SWAP3 POP POP PUSH2 0x100 DUP4 ADD CALLDATALOAD PUSH8 0xFFFFFFFFFFFFFFFF DUP2 GT ISZERO PUSH2 0x19CF JUMPI PUSH1 0x0 DUP1 REVERT JUMPDEST PUSH2 0x19DB DUP6 DUP3 DUP7 ADD PUSH2 0x15A9 JUMP JUMPDEST SWAP2 POP POP SWAP3 POP SWAP3 SWAP1 POP JUMP JUMPDEST PUSH1 0x0 DUP1 PUSH1 0x0 PUSH2 0x140 DUP5 DUP7 SUB SLT ISZERO PUSH2 0x19FB JUMPI PUSH1 0x0 DUP1 REVERT JUMPDEST PUSH1 0x0 PUSH2 0x1A09 DUP7 DUP3 DUP8 ADD PUSH2 0x14E3 JUMP JUMPDEST SWAP4 POP POP PUSH2 0x100 DUP5 ADD CALLDATALOAD PUSH8 0xFFFFFFFFFFFFFFFF DUP2 GT ISZERO PUSH2 0x1A27 JUMPI PUSH1 0x0 DUP1 REVERT JUMPDEST PUSH2 0x1A33 DUP7 DUP3 DUP8 ADD PUSH2 0x15A9 JUMP JUMPDEST SWAP3 POP POP PUSH2 0x120 PUSH2 0x1A45 DUP7 DUP3 DUP8 ADD PUSH2 0x10FC JUMP JUMPDEST SWAP2 POP POP SWAP3 POP SWAP3 POP SWAP3 JUMP JUMPDEST PUSH1 0x0 DUP1 PUSH1 0x0 DUP1 PUSH1 0x0 PUSH1 0xA0 DUP7 DUP9 SUB SLT ISZERO PUSH2 0x1A67 JUMPI PUSH1 0x0 DUP1 REVERT JUMPDEST PUSH1 0x0 PUSH2 0x1A75 DUP9 DUP3 DUP10 ADD PUSH2 0x164A JUMP JUMPDEST SWAP6 POP POP PUSH1 0x20 PUSH2 0x1A86 DUP9 DUP3 DUP10 ADD PUSH2 0x165F JUMP JUMPDEST SWAP5 POP POP PUSH1 0x40 PUSH2 0x1A97 DUP9 DUP3 DUP10 ADD PUSH2 0x164A JUMP JUMPDEST SWAP4 POP POP PUSH1 0x60 PUSH2 0x1AA8 DUP9 DUP3 DUP10 ADD PUSH2 0x164A JUMP JUMPDEST SWAP3 POP POP PUSH1 0x80 DUP7 ADD CALLDATALOAD PUSH8 0xFFFFFFFFFFFFFFFF DUP2 GT ISZERO PUSH2 0x1AC5 JUMPI PUSH1 0x0 DUP1 REVERT JUMPDEST PUSH2 0x1AD1 DUP9 DUP3 DUP10 ADD PUSH2 0x15A9 JUMP JUMPDEST SWAP2 POP POP SWAP3 SWAP6 POP SWAP3 SWAP6 SWAP1 SWAP4 POP JUMP JUMPDEST PUSH1 0x0 DUP1 PUSH1 0x0 DUP1 PUSH1 0x0 DUP1 PUSH1 0xC0 DUP8 DUP10 SUB SLT ISZERO PUSH2 0x1AF7 JUMPI PUSH1 0x0 DUP1 REVERT JUMPDEST PUSH1 0x0 PUSH2 0x1B05 DUP10 DUP3 DUP11 ADD PUSH2 0x164A JUMP JUMPDEST SWAP7 POP POP PUSH1 0x20 PUSH2 0x1B16 DUP10 DUP3 DUP11 ADD PUSH2 0x165F JUMP JUMPDEST SWAP6 POP POP PUSH1 0x40 PUSH2 0x1B27 DUP10 DUP3 DUP11 ADD PUSH2 0x164A JUMP JUMPDEST SWAP5 POP POP PUSH1 0x60 PUSH2 0x1B38 DUP10 DUP3 DUP11 ADD PUSH2 0x164A JUMP JUMPDEST SWAP4 POP POP PUSH1 0x80 DUP8 ADD CALLDATALOAD PUSH8 0xFFFFFFFFFFFFFFFF DUP2 GT ISZERO PUSH2 0x1B55 JUMPI PUSH1 0x0 DUP1 REVERT JUMPDEST PUSH2 0x1B61 DUP10 DUP3 DUP11 ADD PUSH2 0x15A9 JUMP JUMPDEST SWAP3 POP POP PUSH1 0xA0 PUSH2 0x1B72 DUP10 DUP3 DUP11 ADD PUSH2 0x10FC JUMP JUMPDEST SWAP2 POP POP SWAP3 SWAP6 POP SWAP3 SWAP6 POP SWAP3 SWAP6 JUMP JUMPDEST PUSH1 0x0 PUSH2 0x1B8B DUP4 DUP4 PUSH2 0x1EED JUMP JUMPDEST SWAP1 POP SWAP3 SWAP2 POP POP JUMP JUMPDEST PUSH1 0x0 PUSH2 0x1B9F DUP4 DUP4 PUSH2 0x1F44 JUMP JUMPDEST PUSH1 0x40 DUP4 ADD SWAP1 POP SWAP3 SWAP2 POP POP JUMP JUMPDEST PUSH1 0x0 PUSH2 0x1BB7 DUP4 DUP4 PUSH2 0x1F73 JUMP JUMPDEST PUSH1 0x60 DUP4 ADD SWAP1 POP SWAP3 SWAP2 POP POP JUMP JUMPDEST PUSH1 0x0 PUSH2 0x1BCF DUP4 DUP4 PUSH2 0x202A JUMP JUMPDEST PUSH1 0x20 DUP4 ADD SWAP1 POP SWAP3 SWAP2 POP POP JUMP JUMPDEST PUSH2 0x1BE4 DUP2 PUSH2 0x26D5 JUMP JUMPDEST DUP3 MSTORE POP POP JUMP JUMPDEST PUSH2 0x1BFB PUSH2 0x1BF6 DUP3 PUSH2 0x26D5 JUMP JUMPDEST PUSH2 0x27C5 JUMP JUMPDEST DUP3 MSTORE POP POP JUMP JUMPDEST PUSH1 0x0 PUSH2 0x1C0C DUP3 PUSH2 0x25EE JUMP JUMPDEST PUSH2 0x1C16 DUP2 DUP6 PUSH2 0x2659 JUMP JUMPDEST SWAP4 POP DUP4 PUSH1 0x20 DUP3 MUL DUP6 ADD PUSH2 0x1C28 DUP6 PUSH2 0x25AE JUMP JUMPDEST DUP1 PUSH1 0x0 JUMPDEST DUP6 DUP2 LT ISZERO PUSH2 0x1C64 JUMPI DUP5 DUP5 SUB DUP10 MSTORE DUP2 MLOAD PUSH2 0x1C45 DUP6 DUP3 PUSH2 0x1B7F JUMP JUMPDEST SWAP5 POP PUSH2 0x1C50 DUP4 PUSH2 0x2625 JUMP JUMPDEST SWAP3 POP PUSH1 0x20 DUP11 ADD SWAP10 POP POP PUSH1 0x1 DUP2 ADD SWAP1 POP PUSH2 0x1C2C JUMP JUMPDEST POP DUP3 SWAP8 POP DUP8 SWAP6 POP POP POP POP POP POP SWAP3 SWAP2 POP POP JUMP JUMPDEST PUSH1 0x0 PUSH2 0x1C81 DUP3 PUSH2 0x25F9 JUMP JUMPDEST PUSH2 0x1C8B DUP2 DUP6 PUSH2 0x266A JUMP JUMPDEST SWAP4 POP PUSH2 0x1C96 DUP4 PUSH2 0x25BE JUMP JUMPDEST DUP1 PUSH1 0x0 JUMPDEST DUP4 DUP2 LT ISZERO PUSH2 0x1CC7 JUMPI DUP2 MLOAD PUSH2 0x1CAE DUP9 DUP3 PUSH2 0x1B93 JUMP JUMPDEST SWAP8 POP PUSH2 0x1CB9 DUP4 PUSH2 0x2632 JUMP JUMPDEST SWAP3 POP POP PUSH1 0x1 DUP2 ADD SWAP1 POP PUSH2 0x1C9A JUMP JUMPDEST POP DUP6 SWAP4 POP POP POP POP SWAP3 SWAP2 POP POP JUMP JUMPDEST PUSH1 0x0 PUSH2 0x1CDF DUP3 PUSH2 0x2604 JUMP JUMPDEST PUSH2 0x1CE9 DUP2 DUP6 PUSH2 0x267B JUMP JUMPDEST SWAP4 POP PUSH2 0x1CF4 DUP4 PUSH2 0x25CE JUMP JUMPDEST DUP1 PUSH1 0x0 JUMPDEST DUP4 DUP2 LT ISZERO PUSH2 0x1D25 JUMPI DUP2 MLOAD PUSH2 0x1D0C DUP9 DUP3 PUSH2 0x1BAB JUMP JUMPDEST SWAP8 POP PUSH2 0x1D17 DUP4 PUSH2 0x263F JUMP JUMPDEST SWAP3 POP POP PUSH1 0x1 DUP2 ADD SWAP1 POP PUSH2 0x1CF8 JUMP JUMPDEST POP DUP6 SWAP4 POP POP POP POP SWAP3 SWAP2 POP POP JUMP JUMPDEST PUSH1 0x0 PUSH2 0x1D3D DUP3 PUSH2 0x260F JUMP JUMPDEST PUSH2 0x1D47 DUP2 DUP6 PUSH2 0x268C JUMP JUMPDEST SWAP4 POP PUSH2 0x1D52 DUP4 PUSH2 0x25DE JUMP JUMPDEST DUP1 PUSH1 0x0 JUMPDEST DUP4 DUP2 LT ISZERO PUSH2 0x1D83 JUMPI DUP2 MLOAD PUSH2 0x1D6A DUP9 DUP3 PUSH2 0x1BC3 JUMP JUMPDEST SWAP8 POP PUSH2 0x1D75 DUP4 PUSH2 0x264C JUMP JUMPDEST SWAP3 POP POP PUSH1 0x1 DUP2 ADD SWAP1 POP PUSH2 0x1D56 JUMP JUMPDEST POP DUP6 SWAP4 POP POP POP POP SWAP3 SWAP2 POP POP JUMP JUMPDEST PUSH2 0x1D99 DUP2 PUSH2 0x26E7 JUMP JUMPDEST DUP3 MSTORE POP POP JUMP JUMPDEST PUSH2 0x1DA8 DUP2 PUSH2 0x26E7 JUMP JUMPDEST DUP3 MSTORE POP POP JUMP JUMPDEST PUSH2 0x1DB7 DUP2 PUSH2 0x26F3 JUMP JUMPDEST DUP3 MSTORE POP POP JUMP JUMPDEST PUSH2 0x1DCE PUSH2 0x1DC9 DUP3 PUSH2 0x26F3 JUMP JUMPDEST PUSH2 0x27D7 JUMP JUMPDEST DUP3 MSTORE POP POP JUMP JUMPDEST PUSH1 0x0 PUSH2 0x1DDF DUP3 PUSH2 0x261A JUMP JUMPDEST PUSH2 0x1DE9 DUP2 DUP6 PUSH2 0x269D JUMP JUMPDEST SWAP4 POP PUSH2 0x1DF9 DUP2 DUP6 PUSH1 0x20 DUP7 ADD PUSH2 0x2761 JUMP JUMPDEST PUSH2 0x1E02 DUP2 PUSH2 0x2850 JUMP JUMPDEST DUP5 ADD SWAP2 POP POP SWAP3 SWAP2 POP POP JUMP JUMPDEST PUSH1 0x0 PUSH2 0x1E18 DUP3 PUSH2 0x261A JUMP JUMPDEST PUSH2 0x1E22 DUP2 DUP6 PUSH2 0x26AE JUMP JUMPDEST SWAP4 POP PUSH2 0x1E32 DUP2 DUP6 PUSH1 0x20 DUP7 ADD PUSH2 0x2761 JUMP JUMPDEST DUP1 DUP5 ADD SWAP2 POP POP SWAP3 SWAP2 POP POP JUMP JUMPDEST PUSH1 0x0 PUSH2 0x1E4B PUSH1 0x23 DUP4 PUSH2 0x26B9 JUMP JUMPDEST SWAP2 POP PUSH2 0x1E56 DUP3 PUSH2 0x2888 JUMP JUMPDEST PUSH1 0x40 DUP3 ADD SWAP1 POP SWAP2 SWAP1 POP JUMP JUMPDEST PUSH1 0x0 PUSH2 0x1E6E PUSH1 0x1E DUP4 PUSH2 0x26B9 JUMP JUMPDEST SWAP2 POP PUSH2 0x1E79 DUP3 PUSH2 0x28D7 JUMP JUMPDEST PUSH1 0x20 DUP3 ADD SWAP1 POP SWAP2 SWAP1 POP JUMP JUMPDEST PUSH1 0x0 PUSH2 0x1E91 PUSH1 0x1C DUP4 PUSH2 0x26CA JUMP JUMPDEST SWAP2 POP PUSH2 0x1E9C DUP3 PUSH2 0x2900 JUMP JUMPDEST PUSH1 0x1C DUP3 ADD SWAP1 POP SWAP2 SWAP1 POP JUMP JUMPDEST PUSH1 0x0 PUSH2 0x1EB4 PUSH1 0x1C DUP4 PUSH2 0x26B9 JUMP JUMPDEST SWAP2 POP PUSH2 0x1EBF DUP3 PUSH2 0x2929 JUMP JUMPDEST PUSH1 0x20 DUP3 ADD SWAP1 POP SWAP2 SWAP1 POP JUMP JUMPDEST PUSH1 0x0 PUSH2 0x1ED7 PUSH1 0x14 DUP4 PUSH2 0x26B9 JUMP JUMPDEST SWAP2 POP PUSH2 0x1EE2 DUP3 PUSH2 0x2952 JUMP JUMPDEST PUSH1 0x20 DUP3 ADD SWAP1 POP SWAP2 SWAP1 POP JUMP JUMPDEST PUSH1 0x0 PUSH1 0x60 DUP4 ADD PUSH1 0x0 DUP4 ADD MLOAD PUSH2 0x1F05 PUSH1 0x0 DUP7 ADD DUP3 PUSH2 0x1BDB JUMP JUMPDEST POP PUSH1 0x20 DUP4 ADD MLOAD DUP5 DUP3 SUB PUSH1 0x20 DUP7 ADD MSTORE PUSH2 0x1F1D DUP3 DUP3 PUSH2 0x1D32 JUMP JUMPDEST SWAP2 POP POP PUSH1 0x40 DUP4 ADD MLOAD DUP5 DUP3 SUB PUSH1 0x40 DUP7 ADD MSTORE PUSH2 0x1F37 DUP3 DUP3 PUSH2 0x1D32 JUMP JUMPDEST SWAP2 POP POP DUP1 SWAP2 POP POP SWAP3 SWAP2 POP POP JUMP JUMPDEST PUSH1 0x40 DUP3 ADD PUSH1 0x0 DUP3 ADD MLOAD PUSH2 0x1F5A PUSH1 0x0 DUP6 ADD DUP3 PUSH2 0x1BDB JUMP JUMPDEST POP PUSH1 0x20 DUP3 ADD MLOAD PUSH2 0x1F6D PUSH1 0x20 DUP6 ADD DUP3 PUSH2 0x202A JUMP JUMPDEST POP POP POP POP JUMP JUMPDEST PUSH1 0x60 DUP3 ADD PUSH1 0x0 DUP3 ADD MLOAD PUSH2 0x1F89 PUSH1 0x0 DUP6 ADD DUP3 PUSH2 0x1BDB JUMP JUMPDEST POP PUSH1 0x20 DUP3 ADD MLOAD PUSH2 0x1F9C PUSH1 0x20 DUP6 ADD DUP3 PUSH2 0x202A JUMP JUMPDEST POP PUSH1 0x40 DUP3 ADD MLOAD PUSH2 0x1FAF PUSH1 0x40 DUP6 ADD DUP3 PUSH2 0x1D90 JUMP JUMPDEST POP POP POP POP JUMP JUMPDEST PUSH1 0x0 PUSH1 0x60 DUP4 ADD PUSH1 0x0 DUP4 ADD MLOAD DUP5 DUP3 SUB PUSH1 0x0 DUP7 ADD MSTORE PUSH2 0x1FD2 DUP3 DUP3 PUSH2 0x1CD4 JUMP JUMPDEST SWAP2 POP POP PUSH1 0x20 DUP4 ADD MLOAD DUP5 DUP3 SUB PUSH1 0x20 DUP7 ADD MSTORE PUSH2 0x1FEC DUP3 DUP3 PUSH2 0x1C76 JUMP JUMPDEST SWAP2 POP POP PUSH1 0x40 DUP4 ADD MLOAD DUP5 DUP3 SUB PUSH1 0x40 DUP7 ADD MSTORE PUSH2 0x2006 DUP3 DUP3 PUSH2 0x1C01 JUMP JUMPDEST SWAP2 POP POP DUP1 SWAP2 POP POP SWAP3 SWAP2 POP POP JUMP JUMPDEST PUSH2 0x2024 PUSH2 0x201F DUP3 PUSH2 0x26FD JUMP JUMPDEST PUSH2 0x27E1 JUMP JUMPDEST DUP3 MSTORE POP POP JUMP JUMPDEST PUSH2 0x2033 DUP2 PUSH2 0x272B JUMP JUMPDEST DUP3 MSTORE POP POP JUMP JUMPDEST PUSH2 0x2042 DUP2 PUSH2 0x272B JUMP JUMPDEST DUP3 MSTORE POP POP JUMP JUMPDEST PUSH2 0x2059 PUSH2 0x2054 DUP3 PUSH2 0x272B JUMP JUMPDEST PUSH2 0x2805 JUMP JUMPDEST DUP3 MSTORE POP POP JUMP JUMPDEST PUSH2 0x2070 PUSH2 0x206B DUP3 PUSH2 0x2735 JUMP JUMPDEST PUSH2 0x280F JUMP JUMPDEST DUP3 MSTORE POP POP JUMP JUMPDEST PUSH2 0x207F DUP2 PUSH2 0x2745 JUMP JUMPDEST DUP3 MSTORE POP POP JUMP JUMPDEST PUSH1 0x0 PUSH2 0x2091 DUP3 DUP7 PUSH2 0x1BEA JUMP JUMPDEST PUSH1 0x14 DUP3 ADD SWAP2 POP PUSH2 0x20A1 DUP3 DUP6 PUSH2 0x2048 JUMP JUMPDEST PUSH1 0x20 DUP3 ADD SWAP2 POP PUSH2 0x20B1 DUP3 DUP5 PUSH2 0x2048 JUMP JUMPDEST PUSH1 0x20 DUP3 ADD SWAP2 POP DUP2 SWAP1 POP SWAP5 SWAP4 POP POP POP POP JUMP JUMPDEST PUSH1 0x0 PUSH2 0x20CE DUP3 DUP12 PUSH2 0x1BEA JUMP JUMPDEST PUSH1 0x14 DUP3 ADD SWAP2 POP PUSH2 0x20DE DUP3 DUP11 PUSH2 0x2048 JUMP JUMPDEST PUSH1 0x20 DUP3 ADD SWAP2 POP PUSH2 0x20EE DUP3 DUP10 PUSH2 0x2048 JUMP JUMPDEST PUSH1 0x20 DUP3 ADD SWAP2 POP PUSH2 0x20FE DUP3 DUP9 PUSH2 0x1BEA JUMP JUMPDEST PUSH1 0x14 DUP3 ADD SWAP2 POP PUSH2 0x210E DUP3 DUP8 PUSH2 0x2048 JUMP JUMPDEST PUSH1 0x20 DUP3 ADD SWAP2 POP PUSH2 0x211E DUP3 DUP7 PUSH2 0x1BEA JUMP JUMPDEST PUSH1 0x14 DUP3 ADD SWAP2 POP PUSH2 0x212E DUP3 DUP6 PUSH2 0x205F JUMP JUMPDEST PUSH1 0x4 DUP3 ADD SWAP2 POP PUSH2 0x213E DUP3 DUP5 PUSH2 0x2013 JUMP JUMPDEST PUSH1 0x2 DUP3 ADD SWAP2 POP DUP2 SWAP1 POP SWAP10 SWAP9 POP POP POP POP POP POP POP POP POP JUMP JUMPDEST PUSH1 0x0 PUSH2 0x2160 DUP3 DUP14 PUSH2 0x1BEA JUMP JUMPDEST PUSH1 0x14 DUP3 ADD SWAP2 POP PUSH2 0x2170 DUP3 DUP13 PUSH2 0x2048 JUMP JUMPDEST PUSH1 0x20 DUP3 ADD SWAP2 POP PUSH2 0x2180 DUP3 DUP12 PUSH2 0x2048 JUMP JUMPDEST PUSH1 0x20 DUP3 ADD SWAP2 POP PUSH2 0x2190 DUP3 DUP11 PUSH2 0x1BEA JUMP JUMPDEST PUSH1 0x14 DUP3 ADD SWAP2 POP PUSH2 0x21A0 DUP3 DUP10 PUSH2 0x2048 JUMP JUMPDEST PUSH1 0x20 DUP3 ADD SWAP2 POP PUSH2 0x21B0 DUP3 DUP9 PUSH2 0x1BEA JUMP JUMPDEST PUSH1 0x14 DUP3 ADD SWAP2 POP PUSH2 0x21C0 DUP3 DUP8 PUSH2 0x205F JUMP JUMPDEST PUSH1 0x4 DUP3 ADD SWAP2 POP PUSH2 0x21D0 DUP3 DUP7 PUSH2 0x205F JUMP JUMPDEST PUSH1 0x4 DUP3 ADD SWAP2 POP PUSH2 0x21E0 DUP3 DUP6 PUSH2 0x2013 JUMP JUMPDEST PUSH1 0x2 DUP3 ADD SWAP2 POP PUSH2 0x21F0 DUP3 DUP5 PUSH2 0x2013 JUMP JUMPDEST PUSH1 0x2 DUP3 ADD SWAP2 POP DUP2 SWAP1 POP SWAP12 SWAP11 POP POP POP POP POP POP POP POP POP POP POP JUMP JUMPDEST PUSH1 0x0 PUSH2 0x2214 DUP3 DUP5 PUSH2 0x1E0D JUMP JUMPDEST SWAP2 POP DUP2 SWAP1 POP SWAP3 SWAP2 POP POP JUMP JUMPDEST PUSH1 0x0 PUSH2 0x222B DUP3 DUP8 PUSH2 0x1E0D JUMP JUMPDEST SWAP2 POP PUSH2 0x2237 DUP3 DUP7 PUSH2 0x1E0D JUMP JUMPDEST SWAP2 POP PUSH2 0x2243 DUP3 DUP6 PUSH2 0x1BEA JUMP JUMPDEST PUSH1 0x14 DUP3 ADD SWAP2 POP PUSH2 0x2253 DUP3 DUP5 PUSH2 0x2048 JUMP JUMPDEST PUSH1 0x20 DUP3 ADD SWAP2 POP DUP2 SWAP1 POP SWAP6 SWAP5 POP POP POP POP POP JUMP JUMPDEST PUSH1 0x0 PUSH2 0x2271 DUP3 DUP9 PUSH2 0x1E0D JUMP JUMPDEST SWAP2 POP PUSH2 0x227D DUP3 DUP8 PUSH2 0x1E0D JUMP JUMPDEST SWAP2 POP PUSH2 0x2289 DUP3 DUP7 PUSH2 0x1E0D JUMP JUMPDEST SWAP2 POP PUSH2 0x2295 DUP3 DUP6 PUSH2 0x1BEA JUMP JUMPDEST PUSH1 0x14 DUP3 ADD SWAP2 POP PUSH2 0x22A5 DUP3 DUP5 PUSH2 0x2048 JUMP JUMPDEST PUSH1 0x20 DUP3 ADD SWAP2 POP DUP2 SWAP1 POP SWAP7 SWAP6 POP POP POP POP POP POP JUMP JUMPDEST PUSH1 0x0 PUSH2 0x22C3 DUP3 PUSH2 0x1E84 JUMP JUMPDEST SWAP2 POP PUSH2 0x22CF DUP3 DUP5 PUSH2 0x1DBD JUMP JUMPDEST PUSH1 0x20 DUP3 ADD SWAP2 POP DUP2 SWAP1 POP SWAP3 SWAP2 POP POP JUMP JUMPDEST PUSH1 0x0 PUSH2 0x22EA DUP3 DUP11 PUSH2 0x2048 JUMP JUMPDEST PUSH1 0x20 DUP3 ADD SWAP2 POP PUSH2 0x22FA DUP3 DUP10 PUSH2 0x205F JUMP JUMPDEST PUSH1 0x4 DUP3 ADD SWAP2 POP PUSH2 0x230A DUP3 DUP9 PUSH2 0x2048 JUMP JUMPDEST PUSH1 0x20 DUP3 ADD SWAP2 POP PUSH2 0x231A DUP3 DUP8 PUSH2 0x2048 JUMP JUMPDEST PUSH1 0x20 DUP3 ADD SWAP2 POP PUSH2 0x232A DUP3 DUP7 PUSH2 0x1E0D JUMP JUMPDEST SWAP2 POP PUSH2 0x2336 DUP3 DUP6 PUSH2 0x1BEA JUMP JUMPDEST PUSH1 0x14 DUP3 ADD SWAP2 POP PUSH2 0x2346 DUP3 DUP5 PUSH2 0x2048 JUMP JUMPDEST PUSH1 0x20 DUP3 ADD SWAP2 POP DUP2 SWAP1 POP SWAP9 SWAP8 POP POP POP POP POP POP POP POP JUMP JUMPDEST PUSH1 0x0 PUSH1 0x20 DUP3 ADD SWAP1 POP PUSH2 0x2370 PUSH1 0x0 DUP4 ADD DUP5 PUSH2 0x1D9F JUMP JUMPDEST SWAP3 SWAP2 POP POP JUMP JUMPDEST PUSH1 0x0 PUSH1 0x40 DUP3 ADD SWAP1 POP PUSH2 0x238B PUSH1 0x0 DUP4 ADD DUP6 PUSH2 0x1DAE JUMP JUMPDEST DUP2 DUP2 SUB PUSH1 0x20 DUP4 ADD MSTORE PUSH2 0x239D DUP2 DUP5 PUSH2 0x1DD4 JUMP JUMPDEST SWAP1 POP SWAP4 SWAP3 POP POP POP JUMP JUMPDEST PUSH1 0x0 PUSH1 0x80 DUP3 ADD SWAP1 POP PUSH2 0x23BB PUSH1 0x0 DUP4 ADD DUP8 PUSH2 0x1DAE JUMP JUMPDEST PUSH2 0x23C8 PUSH1 0x20 DUP4 ADD DUP7 PUSH2 0x2076 JUMP JUMPDEST PUSH2 0x23D5 PUSH1 0x40 DUP4 ADD DUP6 PUSH2 0x1DAE JUMP JUMPDEST PUSH2 0x23E2 PUSH1 0x60 DUP4 ADD DUP5 PUSH2 0x1DAE JUMP JUMPDEST SWAP6 SWAP5 POP POP POP POP POP JUMP JUMPDEST PUSH1 0x0 PUSH1 0x20 DUP3 ADD SWAP1 POP DUP2 DUP2 SUB PUSH1 0x0 DUP4 ADD MSTORE PUSH2 0x2404 DUP2 PUSH2 0x1E3E JUMP JUMPDEST SWAP1 POP SWAP2 SWAP1 POP JUMP JUMPDEST PUSH1 0x0 PUSH1 0x20 DUP3 ADD SWAP1 POP DUP2 DUP2 SUB PUSH1 0x0 DUP4 ADD MSTORE PUSH2 0x2424 DUP2 PUSH2 0x1E61 JUMP JUMPDEST SWAP1 POP SWAP2 SWAP1 POP JUMP JUMPDEST PUSH1 0x0 PUSH1 0x20 DUP3 ADD SWAP1 POP DUP2 DUP2 SUB PUSH1 0x0 DUP4 ADD MSTORE PUSH2 0x2444 DUP2 PUSH2 0x1EA7 JUMP JUMPDEST SWAP1 POP SWAP2 SWAP1 POP JUMP JUMPDEST PUSH1 0x0 PUSH1 0x20 DUP3 ADD SWAP1 POP DUP2 DUP2 SUB PUSH1 0x0 DUP4 ADD MSTORE PUSH2 0x2464 DUP2 PUSH2 0x1ECA JUMP JUMPDEST SWAP1 POP SWAP2 SWAP1 POP JUMP JUMPDEST PUSH1 0x0 PUSH1 0x20 DUP3 ADD SWAP1 POP DUP2 DUP2 SUB PUSH1 0x0 DUP4 ADD MSTORE PUSH2 0x2485 DUP2 DUP5 PUSH2 0x1FB5 JUMP JUMPDEST SWAP1 POP SWAP3 SWAP2 POP POP JUMP JUMPDEST PUSH1 0x0 PUSH1 0x20 DUP3 ADD SWAP1 POP PUSH2 0x24A2 PUSH1 0x0 DUP4 ADD DUP5 PUSH2 0x2039 JUMP JUMPDEST SWAP3 SWAP2 POP POP JUMP JUMPDEST PUSH1 0x0 PUSH2 0x24B2 PUSH2 0x24C3 JUMP JUMPDEST SWAP1 POP PUSH2 0x24BE DUP3 DUP3 PUSH2 0x2794 JUMP JUMPDEST SWAP2 SWAP1 POP JUMP JUMPDEST PUSH1 0x0 PUSH1 0x40 MLOAD SWAP1 POP SWAP1 JUMP JUMPDEST PUSH1 0x0 PUSH8 0xFFFFFFFFFFFFFFFF DUP3 GT ISZERO PUSH2 0x24E8 JUMPI PUSH2 0x24E7 PUSH2 0x2821 JUMP JUMPDEST JUMPDEST PUSH1 0x20 DUP3 MUL SWAP1 POP PUSH1 0x20 DUP2 ADD SWAP1 POP SWAP2 SWAP1 POP JUMP JUMPDEST PUSH1 0x0 PUSH8 0xFFFFFFFFFFFFFFFF DUP3 GT ISZERO PUSH2 0x2514 JUMPI PUSH2 0x2513 PUSH2 0x2821 JUMP JUMPDEST JUMPDEST PUSH1 0x20 DUP3 MUL SWAP1 POP PUSH1 0x20 DUP2 ADD SWAP1 POP SWAP2 SWAP1 POP JUMP JUMPDEST PUSH1 0x0 PUSH8 0xFFFFFFFFFFFFFFFF DUP3 GT ISZERO PUSH2 0x2540 JUMPI PUSH2 0x253F PUSH2 0x2821 JUMP JUMPDEST JUMPDEST PUSH1 0x20 DUP3 MUL SWAP1 POP PUSH1 0x20 DUP2 ADD SWAP1 POP SWAP2 SWAP1 POP JUMP JUMPDEST PUSH1 0x0 PUSH8 0xFFFFFFFFFFFFFFFF DUP3 GT ISZERO PUSH2 0x256C JUMPI PUSH2 0x256B PUSH2 0x2821 JUMP JUMPDEST JUMPDEST PUSH1 0x20 DUP3 MUL SWAP1 POP PUSH1 0x20 DUP2 ADD SWAP1 POP SWAP2 SWAP1 POP JUMP JUMPDEST PUSH1 0x0 PUSH8 0xFFFFFFFFFFFFFFFF DUP3 GT ISZERO PUSH2 0x2598 JUMPI PUSH2 0x2597 PUSH2 0x2821 JUMP JUMPDEST JUMPDEST PUSH2 0x25A1 DUP3 PUSH2 0x2850 JUMP JUMPDEST SWAP1 POP PUSH1 0x20 DUP2 ADD SWAP1 POP SWAP2 SWAP1 POP JUMP JUMPDEST PUSH1 0x0 DUP2 SWAP1 POP PUSH1 0x20 DUP3 ADD SWAP1 POP SWAP2 SWAP1 POP JUMP JUMPDEST PUSH1 0x0 DUP2 SWAP1 POP PUSH1 0x20 DUP3 ADD SWAP1 POP SWAP2 SWAP1 POP JUMP JUMPDEST PUSH1 0x0 DUP2 SWAP1 POP PUSH1 0x20 DUP3 ADD SWAP1 POP SWAP2 SWAP1 POP JUMP JUMPDEST PUSH1 0x0 DUP2 SWAP1 POP PUSH1 0x20 DUP3 ADD SWAP1 POP SWAP2 SWAP1 POP JUMP JUMPDEST PUSH1 0x0 DUP2 MLOAD SWAP1 POP SWAP2 SWAP1 POP JUMP JUMPDEST PUSH1 0x0 DUP2 MLOAD SWAP1 POP SWAP2 SWAP1 POP JUMP JUMPDEST PUSH1 0x0 DUP2 MLOAD SWAP1 POP SWAP2 SWAP1 POP JUMP JUMPDEST PUSH1 0x0 DUP2 MLOAD SWAP1 POP SWAP2 SWAP1 POP JUMP JUMPDEST PUSH1 0x0 DUP2 MLOAD SWAP1 POP SWAP2 SWAP1 POP JUMP JUMPDEST PUSH1 0x0 PUSH1 0x20 DUP3 ADD SWAP1 POP SWAP2 SWAP1 POP JUMP JUMPDEST PUSH1 0x0 PUSH1 0x20 DUP3 ADD SWAP1 POP SWAP2 SWAP1 POP JUMP JUMPDEST PUSH1 0x0 PUSH1 0x20 DUP3 ADD SWAP1 POP SWAP2 SWAP1 POP JUMP JUMPDEST PUSH1 0x0 PUSH1 0x20 DUP3 ADD SWAP1 POP SWAP2 SWAP1 POP JUMP JUMPDEST PUSH1 0x0 DUP3 DUP3 MSTORE PUSH1 0x20 DUP3 ADD SWAP1 POP SWAP3 SWAP2 POP POP JUMP JUMPDEST PUSH1 0x0 DUP3 DUP3 MSTORE PUSH1 0x20 DUP3 ADD SWAP1 POP SWAP3 SWAP2 POP POP JUMP JUMPDEST PUSH1 0x0 DUP3 DUP3 MSTORE PUSH1 0x20 DUP3 ADD SWAP1 POP SWAP3 SWAP2 POP POP JUMP JUMPDEST PUSH1 0x0 DUP3 DUP3 MSTORE PUSH1 0x20 DUP3 ADD SWAP1 POP SWAP3 SWAP2 POP POP JUMP JUMPDEST PUSH1 0x0 DUP3 DUP3 MSTORE PUSH1 0x20 DUP3 ADD SWAP1 POP SWAP3 SWAP2 POP POP JUMP JUMPDEST PUSH1 0x0 DUP2 SWAP1 POP SWAP3 SWAP2 POP POP JUMP JUMPDEST PUSH1 0x0 DUP3 DUP3 MSTORE PUSH1 0x20 DUP3 ADD SWAP1 POP SWAP3 SWAP2 POP POP JUMP JUMPDEST PUSH1 0x0 DUP2 SWAP1 POP SWAP3 SWAP2 POP POP JUMP JUMPDEST PUSH1 0x0 PUSH2 0x26E0 DUP3 PUSH2 0x270B JUMP JUMPDEST SWAP1 POP SWAP2 SWAP1 POP JUMP JUMPDEST PUSH1 0x0 DUP2 ISZERO ISZERO SWAP1 POP SWAP2 SWAP1 POP JUMP JUMPDEST PUSH1 0x0 DUP2 SWAP1 POP SWAP2 SWAP1 POP JUMP JUMPDEST PUSH1 0x0 PUSH2 0xFFFF DUP3 AND SWAP1 POP SWAP2 SWAP1 POP JUMP JUMPDEST PUSH1 0x0 PUSH20 0xFFFFFFFFFFFFFFFFFFFFFFFFFFFFFFFFFFFFFFFF DUP3 AND SWAP1 POP SWAP2 SWAP1 POP JUMP JUMPDEST PUSH1 0x0 DUP2 SWAP1 POP SWAP2 SWAP1 POP JUMP JUMPDEST PUSH1 0x0 PUSH4 0xFFFFFFFF DUP3 AND SWAP1 POP SWAP2 SWAP1 POP JUMP JUMPDEST PUSH1 0x0 PUSH1 0xFF DUP3 AND SWAP1 POP SWAP2 SWAP1 POP JUMP JUMPDEST DUP3 DUP2 DUP4 CALLDATACOPY PUSH1 0x0 DUP4 DUP4 ADD MSTORE POP POP POP JUMP JUMPDEST PUSH1 0x0 JUMPDEST DUP4 DUP2 LT ISZERO PUSH2 0x277F JUMPI DUP1 DUP3 ADD MLOAD DUP2 DUP5 ADD MSTORE PUSH1 0x20 DUP2 ADD SWAP1 POP PUSH2 0x2764 JUMP JUMPDEST DUP4 DUP2 GT ISZERO PUSH2 0x278E JUMPI PUSH1 0x0 DUP5 DUP5 ADD MSTORE JUMPDEST POP POP POP POP JUMP JUMPDEST PUSH2 0x279D DUP3 PUSH2 0x2850 JUMP JUMPDEST DUP2 ADD DUP2 DUP2 LT PUSH8 0xFFFFFFFFFFFFFFFF DUP3 GT OR ISZERO PUSH2 0x27BC JUMPI PUSH2 0x27BB PUSH2 0x2821 JUMP JUMPDEST JUMPDEST DUP1 PUSH1 0x40 MSTORE POP POP POP JUMP JUMPDEST PUSH1 0x0 PUSH2 0x27D0 DUP3 PUSH2 0x27F3 JUMP JUMPDEST SWAP1 POP SWAP2 SWAP1 POP JUMP JUMPDEST PUSH1 0x0 DUP2 SWAP1 POP SWAP2 SWAP1 POP JUMP JUMPDEST PUSH1 0x0 PUSH2 0x27EC DUP3 PUSH2 0x286E JUMP JUMPDEST SWAP1 POP SWAP2 SWAP1 POP JUMP JUMPDEST PUSH1 0x0 PUSH2 0x27FE DUP3 PUSH2 0x287B JUMP JUMPDEST SWAP1 POP SWAP2 SWAP1 POP JUMP JUMPDEST PUSH1 0x0 DUP2 SWAP1 POP SWAP2 SWAP1 POP JUMP JUMPDEST PUSH1 0x0 PUSH2 0x281A DUP3 PUSH2 0x2861 JUMP JUMPDEST SWAP1 POP SWAP2 SWAP1 POP JUMP JUMPDEST PUSH32 0x4E487B7100000000000000000000000000000000000000000000000000000000 PUSH1 0x0 MSTORE PUSH1 0x41 PUSH1 0x4 MSTORE PUSH1 0x24 PUSH1 0x0 REVERT JUMPDEST PUSH1 0x0 PUSH1 0x1F NOT PUSH1 0x1F DUP4 ADD AND SWAP1 POP SWAP2 SWAP1 POP JUMP JUMPDEST PUSH1 0x0 DUP2 PUSH1 0xE0 SHL SWAP1 POP SWAP2 SWAP1 POP JUMP JUMPDEST PUSH1 0x0 DUP2 PUSH1 0xF0 SHL SWAP1 POP SWAP2 SWAP1 POP JUMP JUMPDEST PUSH1 0x0 DUP2 PUSH1 0x60 SHL SWAP1 POP SWAP2 SWAP1 POP JUMP JUMPDEST PUSH32 0x52656E65676F74696174696F6E205369676E6174757265206861732065787069 PUSH1 0x0 DUP3 ADD MSTORE PUSH32 0x7265640000000000000000000000000000000000000000000000000000000000 PUSH1 0x20 DUP3 ADD MSTORE POP JUMP JUMPDEST PUSH32 0x426F72726F776572205369676E61747572652068617320657870697265640000 PUSH1 0x0 DUP3 ADD MSTORE POP JUMP JUMPDEST PUSH32 0x19457468657265756D205369676E6564204D6573736167653A0A333200000000 PUSH1 0x0 DUP3 ADD MSTORE POP JUMP JUMPDEST PUSH32 0x4C656E646572205369676E617475726520686173206578706972656400000000 PUSH1 0x0 DUP3 ADD MSTORE POP JUMP JUMPDEST PUSH32 0x4C6F616E206973207A65726F2061646472657373000000000000000000000000 PUSH1 0x0 DUP3 ADD MSTORE POP JUMP JUMPDEST PUSH2 0x2984 DUP2 PUSH2 0x26D5 JUMP JUMPDEST DUP2 EQ PUSH2 0x298F JUMPI PUSH1 0x0 DUP1 REVERT JUMPDEST POP JUMP JUMPDEST PUSH2 0x299B DUP2 PUSH2 0x26E7 JUMP JUMPDEST DUP2 EQ PUSH2 0x29A6 JUMPI PUSH1 0x0 DUP1 REVERT JUMPDEST POP JUMP JUMPDEST PUSH2 0x29B2 DUP2 PUSH2 0x26F3 JUMP JUMPDEST DUP2 EQ PUSH2 0x29BD JUMPI PUSH1 0x0 DUP1 REVERT JUMPDEST POP JUMP JUMPDEST PUSH2 0x29C9 DUP2 PUSH2 0x26FD JUMP JUMPDEST DUP2 EQ PUSH2 0x29D4 JUMPI PUSH1 0x0 DUP1 REVERT JUMPDEST POP JUMP JUMPDEST PUSH2 0x29E0 DUP2 PUSH2 0x272B JUMP JUMPDEST DUP2 EQ PUSH2 0x29EB JUMPI PUSH1 0x0 DUP1 REVERT JUMPDEST POP JUMP JUMPDEST PUSH2 0x29F7 DUP2 PUSH2 0x2735 JUMP JUMPDEST DUP2 EQ PUSH2 0x2A02 JUMPI PUSH1 0x0 DUP1 REVERT JUMPDEST POP JUMP INVALID LOG2 PUSH5 0x6970667358 0x22 SLT KECCAK256 STOP 0xE6 SUB ADD PUSH2 0xE073 MOD MULMOD 0xDF 0xCE 0xBC CALLDATACOPY 0xFB 0x4B 0xF7 GASLIMIT 0xCB 0x49 0x4C SELFDESTRUCT DUP13 DUP4 CALLDATACOPY 0xC4 0xC5 0xE5 MUL SWAP1 GASPRICE 0x28 0xBE PUSH5 0x736F6C6343 STOP ADDMOD DIV STOP CALLER "
		},
		"gasEstimates": {
			"creation": {
				"codeDepositCost": "2162200",
				"executionCost": "2331",
				"totalCost": "2164531"
			},
			"external": {
				"getChainID()": "400",
				"isValidBorrowerSignature(LoanData.ListingTerms,LoanData.Signature)": "infinite",
				"isValidBorrowerSignature(LoanData.ListingTerms,LoanData.Signature,address)": "infinite",
				"isValidBorrowerSignatureBundle(LoanData.ListingTerms,IBundleBuilder.BundleElements,LoanData.Signature)": "infinite",
				"isValidBorrowerSignatureBundle(LoanData.ListingTerms,IBundleBuilder.BundleElements,LoanData.Signature,address)": "infinite",
				"isValidLenderRenegotiationSignature(uint256,uint32,uint256,uint256,LoanData.Signature)": "infinite",
				"isValidLenderRenegotiationSignature(uint256,uint32,uint256,uint256,LoanData.Signature,address)": "infinite",
				"isValidLenderSignature(LoanData.Offer,LoanData.Signature)": "infinite",
				"isValidLenderSignature(LoanData.Offer,LoanData.Signature,address)": "infinite",
				"isValidLenderSignatureBundle(LoanData.Offer,IBundleBuilder.BundleElements,LoanData.Signature)": "infinite",
				"isValidLenderSignatureBundle(LoanData.Offer,IBundleBuilder.BundleElements,LoanData.Signature,address)": "infinite"
			},
			"internal": {
				"getEncodedListing(struct LoanData.ListingTerms memory)": "infinite",
				"getEncodedOffer(struct LoanData.Offer memory)": "infinite",
				"getEncodedSignature(struct LoanData.Signature memory)": "infinite"
			}
		},
		"methodIdentifiers": {
			"getChainID()": "564b81ef",
			"isValidBorrowerSignature(LoanData.ListingTerms,LoanData.Signature)": "4051a17a",
			"isValidBorrowerSignature(LoanData.ListingTerms,LoanData.Signature,address)": "c4212921",
			"isValidBorrowerSignatureBundle(LoanData.ListingTerms,IBundleBuilder.BundleElements,LoanData.Signature)": "2eb68793",
			"isValidBorrowerSignatureBundle(LoanData.ListingTerms,IBundleBuilder.BundleElements,LoanData.Signature,address)": "3ce5ed9f",
			"isValidLenderRenegotiationSignature(uint256,uint32,uint256,uint256,LoanData.Signature)": "d06ff741",
			"isValidLenderRenegotiationSignature(uint256,uint32,uint256,uint256,LoanData.Signature,address)": "87c0a573",
			"isValidLenderSignature(LoanData.Offer,LoanData.Signature)": "eb2ac63f",
			"isValidLenderSignature(LoanData.Offer,LoanData.Signature,address)": "6ab81ec0",
			"isValidLenderSignatureBundle(LoanData.Offer,IBundleBuilder.BundleElements,LoanData.Signature)": "fb7a322a",
			"isValidLenderSignatureBundle(LoanData.Offer,IBundleBuilder.BundleElements,LoanData.Signature,address)": "a819956e"
		}
	},
	"abi": [
		{
			"inputs": [],
			"name": "getChainID",
			"outputs": [
				{
					"internalType": "uint256",
					"name": "",
					"type": "uint256"
				}
			],
			"stateMutability": "view",
			"type": "function"
		},
		{
			"inputs": [
				{
					"components": [
						{
							"internalType": "uint256",
							"name": "minLoanPrincipalAmount",
							"type": "uint256"
						},
						{
							"internalType": "uint256",
							"name": "maxLoanPrincipalAmount",
							"type": "uint256"
						},
						{
							"internalType": "uint256",
							"name": "nftCollateralId",
							"type": "uint256"
						},
						{
							"internalType": "address",
							"name": "nftCollateralContract",
							"type": "address"
						},
						{
							"internalType": "uint32",
							"name": "minLoanDuration",
							"type": "uint32"
						},
						{
							"internalType": "uint32",
							"name": "maxLoanDuration",
							"type": "uint32"
						},
						{
							"internalType": "uint16",
							"name": "maxInterestRateForDurationInBasisPoints",
							"type": "uint16"
						},
						{
							"internalType": "uint16",
							"name": "referralFeeInBasisPoints",
							"type": "uint16"
						},
						{
							"internalType": "address",
							"name": "revenueSharePartner",
							"type": "address"
						},
						{
							"internalType": "address",
							"name": "loanERC20Denomination",
							"type": "address"
						}
					],
					"internalType": "struct LoanData.ListingTerms",
					"name": "_listingTerms",
					"type": "tuple"
				},
				{
					"components": [
						{
							"internalType": "uint256",
							"name": "nonce",
							"type": "uint256"
						},
						{
							"internalType": "uint256",
							"name": "expiry",
							"type": "uint256"
						},
						{
							"internalType": "address",
							"name": "signer",
							"type": "address"
						},
						{
							"internalType": "bytes",
							"name": "signature",
							"type": "bytes"
						}
					],
					"internalType": "struct LoanData.Signature",
					"name": "_signature",
					"type": "tuple"
				}
			],
			"name": "isValidBorrowerSignature",
			"outputs": [
				{
					"internalType": "bool",
					"name": "",
					"type": "bool"
				}
			],
			"stateMutability": "view",
			"type": "function"
		},
		{
			"inputs": [
				{
					"components": [
						{
							"internalType": "uint256",
							"name": "minLoanPrincipalAmount",
							"type": "uint256"
						},
						{
							"internalType": "uint256",
							"name": "maxLoanPrincipalAmount",
							"type": "uint256"
						},
						{
							"internalType": "uint256",
							"name": "nftCollateralId",
							"type": "uint256"
						},
						{
							"internalType": "address",
							"name": "nftCollateralContract",
							"type": "address"
						},
						{
							"internalType": "uint32",
							"name": "minLoanDuration",
							"type": "uint32"
						},
						{
							"internalType": "uint32",
							"name": "maxLoanDuration",
							"type": "uint32"
						},
						{
							"internalType": "uint16",
							"name": "maxInterestRateForDurationInBasisPoints",
							"type": "uint16"
						},
						{
							"internalType": "uint16",
							"name": "referralFeeInBasisPoints",
							"type": "uint16"
						},
						{
							"internalType": "address",
							"name": "revenueSharePartner",
							"type": "address"
						},
						{
							"internalType": "address",
							"name": "loanERC20Denomination",
							"type": "address"
						}
					],
					"internalType": "struct LoanData.ListingTerms",
					"name": "_listingTerms",
					"type": "tuple"
				},
				{
					"components": [
						{
							"internalType": "uint256",
							"name": "nonce",
							"type": "uint256"
						},
						{
							"internalType": "uint256",
							"name": "expiry",
							"type": "uint256"
						},
						{
							"internalType": "address",
							"name": "signer",
							"type": "address"
						},
						{
							"internalType": "bytes",
							"name": "signature",
							"type": "bytes"
						}
					],
					"internalType": "struct LoanData.Signature",
					"name": "_signature",
					"type": "tuple"
				},
				{
					"internalType": "address",
					"name": "_loanContract",
					"type": "address"
				}
			],
			"name": "isValidBorrowerSignature",
			"outputs": [
				{
					"internalType": "bool",
					"name": "",
					"type": "bool"
				}
			],
			"stateMutability": "view",
			"type": "function"
		},
		{
			"inputs": [
				{
					"components": [
						{
							"internalType": "uint256",
							"name": "minLoanPrincipalAmount",
							"type": "uint256"
						},
						{
							"internalType": "uint256",
							"name": "maxLoanPrincipalAmount",
							"type": "uint256"
						},
						{
							"internalType": "uint256",
							"name": "nftCollateralId",
							"type": "uint256"
						},
						{
							"internalType": "address",
							"name": "nftCollateralContract",
							"type": "address"
						},
						{
							"internalType": "uint32",
							"name": "minLoanDuration",
							"type": "uint32"
						},
						{
							"internalType": "uint32",
							"name": "maxLoanDuration",
							"type": "uint32"
						},
						{
							"internalType": "uint16",
							"name": "maxInterestRateForDurationInBasisPoints",
							"type": "uint16"
						},
						{
							"internalType": "uint16",
							"name": "referralFeeInBasisPoints",
							"type": "uint16"
						},
						{
							"internalType": "address",
							"name": "revenueSharePartner",
							"type": "address"
						},
						{
							"internalType": "address",
							"name": "loanERC20Denomination",
							"type": "address"
						}
					],
					"internalType": "struct LoanData.ListingTerms",
					"name": "_listingTerms",
					"type": "tuple"
				},
				{
					"components": [
						{
							"components": [
								{
									"internalType": "address",
									"name": "tokenContract",
									"type": "address"
								},
								{
									"internalType": "uint256",
									"name": "id",
									"type": "uint256"
								},
								{
									"internalType": "bool",
									"name": "safeTransferable",
									"type": "bool"
								}
							],
							"internalType": "struct IBundleBuilder.BundleElementERC721[]",
							"name": "erc721s",
							"type": "tuple[]"
						},
						{
							"components": [
								{
									"internalType": "address",
									"name": "tokenContract",
									"type": "address"
								},
								{
									"internalType": "uint256",
									"name": "amount",
									"type": "uint256"
								}
							],
							"internalType": "struct IBundleBuilder.BundleElementERC20[]",
							"name": "erc20s",
							"type": "tuple[]"
						},
						{
							"components": [
								{
									"internalType": "address",
									"name": "tokenContract",
									"type": "address"
								},
								{
									"internalType": "uint256[]",
									"name": "ids",
									"type": "uint256[]"
								},
								{
									"internalType": "uint256[]",
									"name": "amounts",
									"type": "uint256[]"
								}
							],
							"internalType": "struct IBundleBuilder.BundleElementERC1155[]",
							"name": "erc1155s",
							"type": "tuple[]"
						}
					],
					"internalType": "struct IBundleBuilder.BundleElements",
					"name": "_bundleElements",
					"type": "tuple"
				},
				{
					"components": [
						{
							"internalType": "uint256",
							"name": "nonce",
							"type": "uint256"
						},
						{
							"internalType": "uint256",
							"name": "expiry",
							"type": "uint256"
						},
						{
							"internalType": "address",
							"name": "signer",
							"type": "address"
						},
						{
							"internalType": "bytes",
							"name": "signature",
							"type": "bytes"
						}
					],
					"internalType": "struct LoanData.Signature",
					"name": "_signature",
					"type": "tuple"
				}
			],
			"name": "isValidBorrowerSignatureBundle",
			"outputs": [
				{
					"internalType": "bool",
					"name": "",
					"type": "bool"
				}
			],
			"stateMutability": "view",
			"type": "function"
		},
		{
			"inputs": [
				{
					"components": [
						{
							"internalType": "uint256",
							"name": "minLoanPrincipalAmount",
							"type": "uint256"
						},
						{
							"internalType": "uint256",
							"name": "maxLoanPrincipalAmount",
							"type": "uint256"
						},
						{
							"internalType": "uint256",
							"name": "nftCollateralId",
							"type": "uint256"
						},
						{
							"internalType": "address",
							"name": "nftCollateralContract",
							"type": "address"
						},
						{
							"internalType": "uint32",
							"name": "minLoanDuration",
							"type": "uint32"
						},
						{
							"internalType": "uint32",
							"name": "maxLoanDuration",
							"type": "uint32"
						},
						{
							"internalType": "uint16",
							"name": "maxInterestRateForDurationInBasisPoints",
							"type": "uint16"
						},
						{
							"internalType": "uint16",
							"name": "referralFeeInBasisPoints",
							"type": "uint16"
						},
						{
							"internalType": "address",
							"name": "revenueSharePartner",
							"type": "address"
						},
						{
							"internalType": "address",
							"name": "loanERC20Denomination",
							"type": "address"
						}
					],
					"internalType": "struct LoanData.ListingTerms",
					"name": "_listingTerms",
					"type": "tuple"
				},
				{
					"components": [
						{
							"components": [
								{
									"internalType": "address",
									"name": "tokenContract",
									"type": "address"
								},
								{
									"internalType": "uint256",
									"name": "id",
									"type": "uint256"
								},
								{
									"internalType": "bool",
									"name": "safeTransferable",
									"type": "bool"
								}
							],
							"internalType": "struct IBundleBuilder.BundleElementERC721[]",
							"name": "erc721s",
							"type": "tuple[]"
						},
						{
							"components": [
								{
									"internalType": "address",
									"name": "tokenContract",
									"type": "address"
								},
								{
									"internalType": "uint256",
									"name": "amount",
									"type": "uint256"
								}
							],
							"internalType": "struct IBundleBuilder.BundleElementERC20[]",
							"name": "erc20s",
							"type": "tuple[]"
						},
						{
							"components": [
								{
									"internalType": "address",
									"name": "tokenContract",
									"type": "address"
								},
								{
									"internalType": "uint256[]",
									"name": "ids",
									"type": "uint256[]"
								},
								{
									"internalType": "uint256[]",
									"name": "amounts",
									"type": "uint256[]"
								}
							],
							"internalType": "struct IBundleBuilder.BundleElementERC1155[]",
							"name": "erc1155s",
							"type": "tuple[]"
						}
					],
					"internalType": "struct IBundleBuilder.BundleElements",
					"name": "_bundleElements",
					"type": "tuple"
				},
				{
					"components": [
						{
							"internalType": "uint256",
							"name": "nonce",
							"type": "uint256"
						},
						{
							"internalType": "uint256",
							"name": "expiry",
							"type": "uint256"
						},
						{
							"internalType": "address",
							"name": "signer",
							"type": "address"
						},
						{
							"internalType": "bytes",
							"name": "signature",
							"type": "bytes"
						}
					],
					"internalType": "struct LoanData.Signature",
					"name": "_signature",
					"type": "tuple"
				},
				{
					"internalType": "address",
					"name": "_loanContract",
					"type": "address"
				}
			],
			"name": "isValidBorrowerSignatureBundle",
			"outputs": [
				{
					"internalType": "bool",
					"name": "",
					"type": "bool"
				}
			],
			"stateMutability": "view",
			"type": "function"
		},
		{
			"inputs": [
				{
					"internalType": "uint256",
					"name": "_loanId",
					"type": "uint256"
				},
				{
					"internalType": "uint32",
					"name": "_newLoanDuration",
					"type": "uint32"
				},
				{
					"internalType": "uint256",
					"name": "_newMaximumRepaymentAmount",
					"type": "uint256"
				},
				{
					"internalType": "uint256",
					"name": "_renegotiationFee",
					"type": "uint256"
				},
				{
					"components": [
						{
							"internalType": "uint256",
							"name": "nonce",
							"type": "uint256"
						},
						{
							"internalType": "uint256",
							"name": "expiry",
							"type": "uint256"
						},
						{
							"internalType": "address",
							"name": "signer",
							"type": "address"
						},
						{
							"internalType": "bytes",
							"name": "signature",
							"type": "bytes"
						}
					],
					"internalType": "struct LoanData.Signature",
					"name": "_signature",
					"type": "tuple"
				},
				{
					"internalType": "address",
					"name": "_loanContract",
					"type": "address"
				}
			],
			"name": "isValidLenderRenegotiationSignature",
			"outputs": [
				{
					"internalType": "bool",
					"name": "",
					"type": "bool"
				}
			],
			"stateMutability": "view",
			"type": "function"
		},
		{
			"inputs": [
				{
					"internalType": "uint256",
					"name": "_loanId",
					"type": "uint256"
				},
				{
					"internalType": "uint32",
					"name": "_newLoanDuration",
					"type": "uint32"
				},
				{
					"internalType": "uint256",
					"name": "_newMaximumRepaymentAmount",
					"type": "uint256"
				},
				{
					"internalType": "uint256",
					"name": "_renegotiationFee",
					"type": "uint256"
				},
				{
					"components": [
						{
							"internalType": "uint256",
							"name": "nonce",
							"type": "uint256"
						},
						{
							"internalType": "uint256",
							"name": "expiry",
							"type": "uint256"
						},
						{
							"internalType": "address",
							"name": "signer",
							"type": "address"
						},
						{
							"internalType": "bytes",
							"name": "signature",
							"type": "bytes"
						}
					],
					"internalType": "struct LoanData.Signature",
					"name": "_signature",
					"type": "tuple"
				}
			],
			"name": "isValidLenderRenegotiationSignature",
			"outputs": [
				{
					"internalType": "bool",
					"name": "",
					"type": "bool"
				}
			],
			"stateMutability": "view",
			"type": "function"
		},
		{
			"inputs": [
				{
					"components": [
						{
							"internalType": "uint256",
							"name": "loanPrincipalAmount",
							"type": "uint256"
						},
						{
							"internalType": "uint256",
							"name": "maximumRepaymentAmount",
							"type": "uint256"
						},
						{
							"internalType": "uint256",
							"name": "nftCollateralId",
							"type": "uint256"
						},
						{
							"internalType": "address",
							"name": "nftCollateralContract",
							"type": "address"
						},
						{
							"internalType": "uint32",
							"name": "loanDuration",
							"type": "uint32"
						},
						{
							"internalType": "uint16",
							"name": "loanAdminFeeInBasisPoints",
							"type": "uint16"
						},
						{
							"internalType": "address",
							"name": "loanERC20Denomination",
							"type": "address"
						},
						{
							"internalType": "address",
							"name": "referrer",
							"type": "address"
						}
					],
					"internalType": "struct LoanData.Offer",
					"name": "_offer",
					"type": "tuple"
				},
				{
					"components": [
						{
							"internalType": "uint256",
							"name": "nonce",
							"type": "uint256"
						},
						{
							"internalType": "uint256",
							"name": "expiry",
							"type": "uint256"
						},
						{
							"internalType": "address",
							"name": "signer",
							"type": "address"
						},
						{
							"internalType": "bytes",
							"name": "signature",
							"type": "bytes"
						}
					],
					"internalType": "struct LoanData.Signature",
					"name": "_signature",
					"type": "tuple"
				},
				{
					"internalType": "address",
					"name": "_loanContract",
					"type": "address"
				}
			],
			"name": "isValidLenderSignature",
			"outputs": [
				{
					"internalType": "bool",
					"name": "",
					"type": "bool"
				}
			],
			"stateMutability": "view",
			"type": "function"
		},
		{
			"inputs": [
				{
					"components": [
						{
							"internalType": "uint256",
							"name": "loanPrincipalAmount",
							"type": "uint256"
						},
						{
							"internalType": "uint256",
							"name": "maximumRepaymentAmount",
							"type": "uint256"
						},
						{
							"internalType": "uint256",
							"name": "nftCollateralId",
							"type": "uint256"
						},
						{
							"internalType": "address",
							"name": "nftCollateralContract",
							"type": "address"
						},
						{
							"internalType": "uint32",
							"name": "loanDuration",
							"type": "uint32"
						},
						{
							"internalType": "uint16",
							"name": "loanAdminFeeInBasisPoints",
							"type": "uint16"
						},
						{
							"internalType": "address",
							"name": "loanERC20Denomination",
							"type": "address"
						},
						{
							"internalType": "address",
							"name": "referrer",
							"type": "address"
						}
					],
					"internalType": "struct LoanData.Offer",
					"name": "_offer",
					"type": "tuple"
				},
				{
					"components": [
						{
							"internalType": "uint256",
							"name": "nonce",
							"type": "uint256"
						},
						{
							"internalType": "uint256",
							"name": "expiry",
							"type": "uint256"
						},
						{
							"internalType": "address",
							"name": "signer",
							"type": "address"
						},
						{
							"internalType": "bytes",
							"name": "signature",
							"type": "bytes"
						}
					],
					"internalType": "struct LoanData.Signature",
					"name": "_signature",
					"type": "tuple"
				}
			],
			"name": "isValidLenderSignature",
			"outputs": [
				{
					"internalType": "bool",
					"name": "",
					"type": "bool"
				}
			],
			"stateMutability": "view",
			"type": "function"
		},
		{
			"inputs": [
				{
					"components": [
						{
							"internalType": "uint256",
							"name": "loanPrincipalAmount",
							"type": "uint256"
						},
						{
							"internalType": "uint256",
							"name": "maximumRepaymentAmount",
							"type": "uint256"
						},
						{
							"internalType": "uint256",
							"name": "nftCollateralId",
							"type": "uint256"
						},
						{
							"internalType": "address",
							"name": "nftCollateralContract",
							"type": "address"
						},
						{
							"internalType": "uint32",
							"name": "loanDuration",
							"type": "uint32"
						},
						{
							"internalType": "uint16",
							"name": "loanAdminFeeInBasisPoints",
							"type": "uint16"
						},
						{
							"internalType": "address",
							"name": "loanERC20Denomination",
							"type": "address"
						},
						{
							"internalType": "address",
							"name": "referrer",
							"type": "address"
						}
					],
					"internalType": "struct LoanData.Offer",
					"name": "_offer",
					"type": "tuple"
				},
				{
					"components": [
						{
							"components": [
								{
									"internalType": "address",
									"name": "tokenContract",
									"type": "address"
								},
								{
									"internalType": "uint256",
									"name": "id",
									"type": "uint256"
								},
								{
									"internalType": "bool",
									"name": "safeTransferable",
									"type": "bool"
								}
							],
							"internalType": "struct IBundleBuilder.BundleElementERC721[]",
							"name": "erc721s",
							"type": "tuple[]"
						},
						{
							"components": [
								{
									"internalType": "address",
									"name": "tokenContract",
									"type": "address"
								},
								{
									"internalType": "uint256",
									"name": "amount",
									"type": "uint256"
								}
							],
							"internalType": "struct IBundleBuilder.BundleElementERC20[]",
							"name": "erc20s",
							"type": "tuple[]"
						},
						{
							"components": [
								{
									"internalType": "address",
									"name": "tokenContract",
									"type": "address"
								},
								{
									"internalType": "uint256[]",
									"name": "ids",
									"type": "uint256[]"
								},
								{
									"internalType": "uint256[]",
									"name": "amounts",
									"type": "uint256[]"
								}
							],
							"internalType": "struct IBundleBuilder.BundleElementERC1155[]",
							"name": "erc1155s",
							"type": "tuple[]"
						}
					],
					"internalType": "struct IBundleBuilder.BundleElements",
					"name": "_bundleElements",
					"type": "tuple"
				},
				{
					"components": [
						{
							"internalType": "uint256",
							"name": "nonce",
							"type": "uint256"
						},
						{
							"internalType": "uint256",
							"name": "expiry",
							"type": "uint256"
						},
						{
							"internalType": "address",
							"name": "signer",
							"type": "address"
						},
						{
							"internalType": "bytes",
							"name": "signature",
							"type": "bytes"
						}
					],
					"internalType": "struct LoanData.Signature",
					"name": "_signature",
					"type": "tuple"
				},
				{
					"internalType": "address",
					"name": "_loanContract",
					"type": "address"
				}
			],
			"name": "isValidLenderSignatureBundle",
			"outputs": [
				{
					"internalType": "bool",
					"name": "",
					"type": "bool"
				}
			],
			"stateMutability": "view",
			"type": "function"
		},
		{
			"inputs": [
				{
					"components": [
						{
							"internalType": "uint256",
							"name": "loanPrincipalAmount",
							"type": "uint256"
						},
						{
							"internalType": "uint256",
							"name": "maximumRepaymentAmount",
							"type": "uint256"
						},
						{
							"internalType": "uint256",
							"name": "nftCollateralId",
							"type": "uint256"
						},
						{
							"internalType": "address",
							"name": "nftCollateralContract",
							"type": "address"
						},
						{
							"internalType": "uint32",
							"name": "loanDuration",
							"type": "uint32"
						},
						{
							"internalType": "uint16",
							"name": "loanAdminFeeInBasisPoints",
							"type": "uint16"
						},
						{
							"internalType": "address",
							"name": "loanERC20Denomination",
							"type": "address"
						},
						{
							"internalType": "address",
							"name": "referrer",
							"type": "address"
						}
					],
					"internalType": "struct LoanData.Offer",
					"name": "_offer",
					"type": "tuple"
				},
				{
					"components": [
						{
							"components": [
								{
									"internalType": "address",
									"name": "tokenContract",
									"type": "address"
								},
								{
									"internalType": "uint256",
									"name": "id",
									"type": "uint256"
								},
								{
									"internalType": "bool",
									"name": "safeTransferable",
									"type": "bool"
								}
							],
							"internalType": "struct IBundleBuilder.BundleElementERC721[]",
							"name": "erc721s",
							"type": "tuple[]"
						},
						{
							"components": [
								{
									"internalType": "address",
									"name": "tokenContract",
									"type": "address"
								},
								{
									"internalType": "uint256",
									"name": "amount",
									"type": "uint256"
								}
							],
							"internalType": "struct IBundleBuilder.BundleElementERC20[]",
							"name": "erc20s",
							"type": "tuple[]"
						},
						{
							"components": [
								{
									"internalType": "address",
									"name": "tokenContract",
									"type": "address"
								},
								{
									"internalType": "uint256[]",
									"name": "ids",
									"type": "uint256[]"
								},
								{
									"internalType": "uint256[]",
									"name": "amounts",
									"type": "uint256[]"
								}
							],
							"internalType": "struct IBundleBuilder.BundleElementERC1155[]",
							"name": "erc1155s",
							"type": "tuple[]"
						}
					],
					"internalType": "struct IBundleBuilder.BundleElements",
					"name": "_bundleElements",
					"type": "tuple"
				},
				{
					"components": [
						{
							"internalType": "uint256",
							"name": "nonce",
							"type": "uint256"
						},
						{
							"internalType": "uint256",
							"name": "expiry",
							"type": "uint256"
						},
						{
							"internalType": "address",
							"name": "signer",
							"type": "address"
						},
						{
							"internalType": "bytes",
							"name": "signature",
							"type": "bytes"
						}
					],
					"internalType": "struct LoanData.Signature",
					"name": "_signature",
					"type": "tuple"
				}
			],
			"name": "isValidLenderSignatureBundle",
			"outputs": [
				{
					"internalType": "bool",
					"name": "",
					"type": "bool"
				}
			],
			"stateMutability": "view",
			"type": "function"
		}
	]
}