{
	"contracts/ERC721Wrapper.sol": {
		"ERC721Wrapper": {
			"abi": [
				{
					"inputs": [
						{
							"internalType": "address",
							"name": "_owner",
							"type": "address"
						},
						{
							"internalType": "address",
							"name": "_nftContract",
							"type": "address"
						},
						{
							"internalType": "uint256",
							"name": "_tokenId",
							"type": "uint256"
						}
					],
					"name": "isOwner",
					"outputs": [
						{
							"internalType": "bool",
							"name": "",
							"type": "bool"
						}
					],
					"stateMutability": "view",
					"type": "function"
				},
				{
					"inputs": [
						{
							"internalType": "address",
							"name": "_sender",
							"type": "address"
						},
						{
							"internalType": "address",
							"name": "_recipient",
							"type": "address"
						},
						{
							"internalType": "address",
							"name": "_nftContract",
							"type": "address"
						},
						{
							"internalType": "uint256",
							"name": "_nftId",
							"type": "uint256"
						}
					],
					"name": "transferNFT",
					"outputs": [
						{
							"internalType": "bool",
							"name": "",
							"type": "bool"
						}
					],
					"stateMutability": "nonpayable",
					"type": "function"
				},
				{
					"inputs": [
						{
							"internalType": "address",
							"name": "_recipient",
							"type": "address"
						},
						{
							"internalType": "address",
							"name": "_nftContract",
							"type": "address"
						},
						{
							"internalType": "uint256",
							"name": "_nftId",
							"type": "uint256"
						},
						{
							"internalType": "address",
							"name": "_beneficiary",
							"type": "address"
						}
					],
					"name": "wrapAirdropReceiver",
					"outputs": [
						{
							"internalType": "bool",
							"name": "",
							"type": "bool"
						}
					],
					"stateMutability": "nonpayable",
					"type": "function"
				}
			],
			"devdoc": {
				"author": "NFTfi",
				"details": "Provides logic to transfer ERC721",
				"kind": "dev",
				"methods": {
					"transferNFT(address,address,address,uint256)": {
						"details": "Transfers ERC721 `_nftId` handled by the contract `_nftContract` from `_sender` to `_recipient`",
						"params": {
							"_nftContract": "- ERC721 contract",
							"_nftId": "- ERC721 id",
							"_recipient": "- The new owner of the ERC721",
							"_sender": "- The current owner of the ERC721"
						},
						"returns": {
							"_0": "true if successfully transferred, false otherwise"
						}
					}
				},
				"title": "ERC721Wrapper",
				"version": 1
			},
			"evm": {
				"assembly": "    /* \"contracts/ERC721Wrapper.sol\":251:1505  contract ERC721Wrapper is INftWrapper {... */\n  mstore(0x40, 0x80)\n  callvalue\n  dup1\n  iszero\n  tag_1\n  jumpi\n  0x00\n  dup1\n  revert\ntag_1:\n  pop\n  dataSize(sub_0)\n  dup1\n  dataOffset(sub_0)\n  0x00\n  codecopy\n  0x00\n  return\nstop\n\nsub_0: assembly {\n        /* \"contracts/ERC721Wrapper.sol\":251:1505  contract ERC721Wrapper is INftWrapper {... */\n      mstore(0x40, 0x80)\n      callvalue\n      dup1\n      iszero\n      tag_1\n      jumpi\n      0x00\n      dup1\n      revert\n    tag_1:\n      pop\n      jumpi(tag_2, lt(calldatasize, 0x04))\n      shr(0xe0, calldataload(0x00))\n      dup1\n      0xb0306671\n      eq\n      tag_3\n      jumpi\n      dup1\n      0xc7783aaa\n      eq\n      tag_4\n      jumpi\n      dup1\n      0xf370e8c5\n      eq\n      tag_5\n      jumpi\n    tag_2:\n      0x00\n      dup1\n      revert\n        /* \"contracts/ERC721Wrapper.sol\":687:959  function transferNFT(... */\n    tag_3:\n      tag_6\n      0x04\n      dup1\n      calldatasize\n      sub\n      dup2\n      add\n      swap1\n      tag_7\n      swap2\n      swap1\n      tag_8\n      jump\t// in\n    tag_7:\n      tag_9\n      jump\t// in\n    tag_6:\n      mload(0x40)\n      tag_10\n      swap2\n      swap1\n      tag_11\n      jump\t// in\n    tag_10:\n      mload(0x40)\n      dup1\n      swap2\n      sub\n      swap1\n      return\n        /* \"contracts/ERC721Wrapper.sol\":1185:1503  function wrapAirdropReceiver(... */\n    tag_4:\n      tag_12\n      0x04\n      dup1\n      calldatasize\n      sub\n      dup2\n      add\n      swap1\n      tag_13\n      swap2\n      swap1\n      tag_14\n      jump\t// in\n    tag_13:\n      tag_15\n      jump\t// in\n    tag_12:\n      mload(0x40)\n      tag_16\n      swap2\n      swap1\n      tag_11\n      jump\t// in\n    tag_16:\n      mload(0x40)\n      dup1\n      swap2\n      sub\n      swap1\n      return\n        /* \"contracts/ERC721Wrapper.sol\":965:1179  function isOwner(... */\n    tag_5:\n      tag_17\n      0x04\n      dup1\n      calldatasize\n      sub\n      dup2\n      add\n      swap1\n      tag_18\n      swap2\n      swap1\n      tag_19\n      jump\t// in\n    tag_18:\n      tag_20\n      jump\t// in\n    tag_17:\n      mload(0x40)\n      tag_21\n      swap2\n      swap1\n      tag_11\n      jump\t// in\n    tag_21:\n      mload(0x40)\n      dup1\n      swap2\n      sub\n      swap1\n      return\n        /* \"contracts/ERC721Wrapper.sol\":687:959  function transferNFT(... */\n    tag_9:\n        /* \"contracts/ERC721Wrapper.sol\":848:852  bool */\n      0x00\n        /* \"contracts/ERC721Wrapper.sol\":872:884  _nftContract */\n      dup3\n        /* \"contracts/ERC721Wrapper.sol\":864:902  IERC721(_nftContract).safeTransferFrom */\n      0xffffffffffffffffffffffffffffffffffffffff\n      and\n      0x42842e0e\n        /* \"contracts/ERC721Wrapper.sol\":903:910  _sender */\n      dup7\n        /* \"contracts/ERC721Wrapper.sol\":912:922  _recipient */\n      dup7\n        /* \"contracts/ERC721Wrapper.sol\":924:930  _nftId */\n      dup6\n        /* \"contracts/ERC721Wrapper.sol\":864:931  IERC721(_nftContract).safeTransferFrom(_sender, _recipient, _nftId) */\n      mload(0x40)\n      dup5\n      0xffffffff\n      and\n      0xe0\n      shl\n      dup2\n      mstore\n      0x04\n      add\n      tag_23\n      swap4\n      swap3\n      swap2\n      swap1\n      tag_24\n      jump\t// in\n    tag_23:\n      0x00\n      mload(0x40)\n      dup1\n      dup4\n      sub\n      dup2\n      0x00\n      dup8\n      dup1\n      extcodesize\n      iszero\n      dup1\n      iszero\n      tag_25\n      jumpi\n      0x00\n      dup1\n      revert\n    tag_25:\n      pop\n      gas\n      call\n      iszero\n      dup1\n      iszero\n      tag_27\n      jumpi\n      returndatasize\n      0x00\n      dup1\n      returndatacopy\n      revert(0x00, returndatasize)\n    tag_27:\n      pop\n      pop\n      pop\n      pop\n        /* \"contracts/ERC721Wrapper.sol\":948:952  true */\n      0x01\n        /* \"contracts/ERC721Wrapper.sol\":941:952  return true */\n      swap1\n      pop\n        /* \"contracts/ERC721Wrapper.sol\":687:959  function transferNFT(... */\n      swap5\n      swap4\n      pop\n      pop\n      pop\n      pop\n      jump\t// out\n        /* \"contracts/ERC721Wrapper.sol\":1185:1503  function wrapAirdropReceiver(... */\n    tag_15:\n        /* \"contracts/ERC721Wrapper.sol\":1359:1363  bool */\n      0x00\n        /* \"contracts/ERC721Wrapper.sol\":1383:1395  _nftContract */\n      dup4\n        /* \"contracts/ERC721Wrapper.sol\":1375:1413  IERC721(_nftContract).safeTransferFrom */\n      0xffffffffffffffffffffffffffffffffffffffff\n      and\n      0xb88d4fde\n        /* \"contracts/ERC721Wrapper.sol\":1422:1426  this */\n      address\n        /* \"contracts/ERC721Wrapper.sol\":1429:1439  _recipient */\n      dup8\n        /* \"contracts/ERC721Wrapper.sol\":1441:1447  _nftId */\n      dup7\n        /* \"contracts/ERC721Wrapper.sol\":1460:1472  _beneficiary */\n      dup7\n        /* \"contracts/ERC721Wrapper.sol\":1449:1473  abi.encode(_beneficiary) */\n      add(0x20, mload(0x40))\n      tag_29\n      swap2\n      swap1\n      tag_30\n      jump\t// in\n    tag_29:\n      mload(0x40)\n      0x20\n      dup2\n      dup4\n      sub\n      sub\n      dup2\n      mstore\n      swap1\n      0x40\n      mstore\n        /* \"contracts/ERC721Wrapper.sol\":1375:1474  IERC721(_nftContract).safeTransferFrom(address(this), _recipient, _nftId, abi.encode(_beneficiary)) */\n      mload(0x40)\n      dup6\n      0xffffffff\n      and\n      0xe0\n      shl\n      dup2\n      mstore\n      0x04\n      add\n      tag_31\n      swap5\n      swap4\n      swap3\n      swap2\n      swap1\n      tag_32\n      jump\t// in\n    tag_31:\n      0x00\n      mload(0x40)\n      dup1\n      dup4\n      sub\n      dup2\n      0x00\n      dup8\n      dup1\n      extcodesize\n      iszero\n      dup1\n      iszero\n      tag_33\n      jumpi\n      0x00\n      dup1\n      revert\n    tag_33:\n      pop\n      gas\n      call\n      iszero\n      dup1\n      iszero\n      tag_35\n      jumpi\n      returndatasize\n      0x00\n      dup1\n      returndatacopy\n      revert(0x00, returndatasize)\n    tag_35:\n      pop\n      pop\n      pop\n      pop\n        /* \"contracts/ERC721Wrapper.sol\":1492:1496  true */\n      0x01\n        /* \"contracts/ERC721Wrapper.sol\":1485:1496  return true */\n      swap1\n      pop\n        /* \"contracts/ERC721Wrapper.sol\":1185:1503  function wrapAirdropReceiver(... */\n      swap5\n      swap4\n      pop\n      pop\n      pop\n      pop\n      jump\t// out\n        /* \"contracts/ERC721Wrapper.sol\":965:1179  function isOwner(... */\n    tag_20:\n        /* \"contracts/ERC721Wrapper.sol\":1100:1104  bool */\n      0x00\n        /* \"contracts/ERC721Wrapper.sol\":1166:1172  _owner */\n      dup4\n        /* \"contracts/ERC721Wrapper.sol\":1123:1172  IERC721(_nftContract).ownerOf(_tokenId) == _owner */\n      0xffffffffffffffffffffffffffffffffffffffff\n      and\n        /* \"contracts/ERC721Wrapper.sol\":1131:1143  _nftContract */\n      dup4\n        /* \"contracts/ERC721Wrapper.sol\":1123:1152  IERC721(_nftContract).ownerOf */\n      0xffffffffffffffffffffffffffffffffffffffff\n      and\n      0x6352211e\n        /* \"contracts/ERC721Wrapper.sol\":1153:1161  _tokenId */\n      dup5\n        /* \"contracts/ERC721Wrapper.sol\":1123:1162  IERC721(_nftContract).ownerOf(_tokenId) */\n      mload(0x40)\n      dup3\n      0xffffffff\n      and\n      0xe0\n      shl\n      dup2\n      mstore\n      0x04\n      add\n      tag_37\n      swap2\n      swap1\n      tag_38\n      jump\t// in\n    tag_37:\n      0x20\n      mload(0x40)\n      dup1\n      dup4\n      sub\n      dup2\n      dup7\n      dup1\n      extcodesize\n      iszero\n      dup1\n      iszero\n      tag_39\n      jumpi\n      0x00\n      dup1\n      revert\n    tag_39:\n      pop\n      gas\n      staticcall\n      iszero\n      dup1\n      iszero\n      tag_41\n      jumpi\n      returndatasize\n      0x00\n      dup1\n      returndatacopy\n      revert(0x00, returndatasize)\n    tag_41:\n      pop\n      pop\n      pop\n      pop\n      mload(0x40)\n      returndatasize\n      not(0x1f)\n      0x1f\n      dup3\n      add\n      and\n      dup3\n      add\n      dup1\n      0x40\n      mstore\n      pop\n      dup2\n      add\n      swap1\n      tag_42\n      swap2\n      swap1\n      tag_43\n      jump\t// in\n    tag_42:\n        /* \"contracts/ERC721Wrapper.sol\":1123:1172  IERC721(_nftContract).ownerOf(_tokenId) == _owner */\n      0xffffffffffffffffffffffffffffffffffffffff\n      and\n      eq\n        /* \"contracts/ERC721Wrapper.sol\":1116:1172  return IERC721(_nftContract).ownerOf(_tokenId) == _owner */\n      swap1\n      pop\n        /* \"contracts/ERC721Wrapper.sol\":965:1179  function isOwner(... */\n      swap4\n      swap3\n      pop\n      pop\n      pop\n      jump\t// out\n        /* \"#utility.yul\":7:146   */\n    tag_45:\n        /* \"#utility.yul\":53:58   */\n      0x00\n        /* \"#utility.yul\":91:97   */\n      dup2\n        /* \"#utility.yul\":78:98   */\n      calldataload\n        /* \"#utility.yul\":69:98   */\n      swap1\n      pop\n        /* \"#utility.yul\":107:140   */\n      tag_47\n        /* \"#utility.yul\":134:139   */\n      dup2\n        /* \"#utility.yul\":107:140   */\n      tag_48\n      jump\t// in\n    tag_47:\n        /* \"#utility.yul\":59:146   */\n      swap3\n      swap2\n      pop\n      pop\n      jump\t// out\n        /* \"#utility.yul\":152:295   */\n    tag_49:\n        /* \"#utility.yul\":209:214   */\n      0x00\n        /* \"#utility.yul\":240:246   */\n      dup2\n        /* \"#utility.yul\":234:247   */\n      mload\n        /* \"#utility.yul\":225:247   */\n      swap1\n      pop\n        /* \"#utility.yul\":256:289   */\n      tag_51\n        /* \"#utility.yul\":283:288   */\n      dup2\n        /* \"#utility.yul\":256:289   */\n      tag_48\n      jump\t// in\n    tag_51:\n        /* \"#utility.yul\":215:295   */\n      swap3\n      swap2\n      pop\n      pop\n      jump\t// out\n        /* \"#utility.yul\":301:440   */\n    tag_52:\n        /* \"#utility.yul\":347:352   */\n      0x00\n        /* \"#utility.yul\":385:391   */\n      dup2\n        /* \"#utility.yul\":372:392   */\n      calldataload\n        /* \"#utility.yul\":363:392   */\n      swap1\n      pop\n        /* \"#utility.yul\":401:434   */\n      tag_54\n        /* \"#utility.yul\":428:433   */\n      dup2\n        /* \"#utility.yul\":401:434   */\n      tag_55\n      jump\t// in\n    tag_54:\n        /* \"#utility.yul\":353:440   */\n      swap3\n      swap2\n      pop\n      pop\n      jump\t// out\n        /* \"#utility.yul\":446:730   */\n    tag_43:\n        /* \"#utility.yul\":516:522   */\n      0x00\n        /* \"#utility.yul\":565:567   */\n      0x20\n        /* \"#utility.yul\":553:562   */\n      dup3\n        /* \"#utility.yul\":544:551   */\n      dup5\n        /* \"#utility.yul\":540:563   */\n      sub\n        /* \"#utility.yul\":536:568   */\n      slt\n        /* \"#utility.yul\":533:535   */\n      iszero\n      tag_57\n      jumpi\n        /* \"#utility.yul\":581:582   */\n      0x00\n        /* \"#utility.yul\":578:579   */\n      dup1\n        /* \"#utility.yul\":571:583   */\n      revert\n        /* \"#utility.yul\":533:535   */\n    tag_57:\n        /* \"#utility.yul\":624:625   */\n      0x00\n        /* \"#utility.yul\":649:713   */\n      tag_58\n        /* \"#utility.yul\":705:712   */\n      dup5\n        /* \"#utility.yul\":696:702   */\n      dup3\n        /* \"#utility.yul\":685:694   */\n      dup6\n        /* \"#utility.yul\":681:703   */\n      add\n        /* \"#utility.yul\":649:713   */\n      tag_49\n      jump\t// in\n    tag_58:\n        /* \"#utility.yul\":639:713   */\n      swap2\n      pop\n        /* \"#utility.yul\":595:723   */\n      pop\n        /* \"#utility.yul\":523:730   */\n      swap3\n      swap2\n      pop\n      pop\n      jump\t// out\n        /* \"#utility.yul\":736:1434   */\n    tag_8:\n        /* \"#utility.yul\":822:828   */\n      0x00\n        /* \"#utility.yul\":830:836   */\n      dup1\n        /* \"#utility.yul\":838:844   */\n      0x00\n        /* \"#utility.yul\":846:852   */\n      dup1\n        /* \"#utility.yul\":895:898   */\n      0x80\n        /* \"#utility.yul\":883:892   */\n      dup6\n        /* \"#utility.yul\":874:881   */\n      dup8\n        /* \"#utility.yul\":870:893   */\n      sub\n        /* \"#utility.yul\":866:899   */\n      slt\n        /* \"#utility.yul\":863:865   */\n      iszero\n      tag_60\n      jumpi\n        /* \"#utility.yul\":912:913   */\n      0x00\n        /* \"#utility.yul\":909:910   */\n      dup1\n        /* \"#utility.yul\":902:914   */\n      revert\n        /* \"#utility.yul\":863:865   */\n    tag_60:\n        /* \"#utility.yul\":955:956   */\n      0x00\n        /* \"#utility.yul\":980:1033   */\n      tag_61\n        /* \"#utility.yul\":1025:1032   */\n      dup8\n        /* \"#utility.yul\":1016:1022   */\n      dup3\n        /* \"#utility.yul\":1005:1014   */\n      dup9\n        /* \"#utility.yul\":1001:1023   */\n      add\n        /* \"#utility.yul\":980:1033   */\n      tag_45\n      jump\t// in\n    tag_61:\n        /* \"#utility.yul\":970:1033   */\n      swap5\n      pop\n        /* \"#utility.yul\":926:1043   */\n      pop\n        /* \"#utility.yul\":1082:1084   */\n      0x20\n        /* \"#utility.yul\":1108:1161   */\n      tag_62\n        /* \"#utility.yul\":1153:1160   */\n      dup8\n        /* \"#utility.yul\":1144:1150   */\n      dup3\n        /* \"#utility.yul\":1133:1142   */\n      dup9\n        /* \"#utility.yul\":1129:1151   */\n      add\n        /* \"#utility.yul\":1108:1161   */\n      tag_45\n      jump\t// in\n    tag_62:\n        /* \"#utility.yul\":1098:1161   */\n      swap4\n      pop\n        /* \"#utility.yul\":1053:1171   */\n      pop\n        /* \"#utility.yul\":1210:1212   */\n      0x40\n        /* \"#utility.yul\":1236:1289   */\n      tag_63\n        /* \"#utility.yul\":1281:1288   */\n      dup8\n        /* \"#utility.yul\":1272:1278   */\n      dup3\n        /* \"#utility.yul\":1261:1270   */\n      dup9\n        /* \"#utility.yul\":1257:1279   */\n      add\n        /* \"#utility.yul\":1236:1289   */\n      tag_45\n      jump\t// in\n    tag_63:\n        /* \"#utility.yul\":1226:1289   */\n      swap3\n      pop\n        /* \"#utility.yul\":1181:1299   */\n      pop\n        /* \"#utility.yul\":1338:1340   */\n      0x60\n        /* \"#utility.yul\":1364:1417   */\n      tag_64\n        /* \"#utility.yul\":1409:1416   */\n      dup8\n        /* \"#utility.yul\":1400:1406   */\n      dup3\n        /* \"#utility.yul\":1389:1398   */\n      dup9\n        /* \"#utility.yul\":1385:1407   */\n      add\n        /* \"#utility.yul\":1364:1417   */\n      tag_52\n      jump\t// in\n    tag_64:\n        /* \"#utility.yul\":1354:1417   */\n      swap2\n      pop\n        /* \"#utility.yul\":1309:1427   */\n      pop\n        /* \"#utility.yul\":853:1434   */\n      swap3\n      swap6\n      swap2\n      swap5\n      pop\n      swap3\n      pop\n      jump\t// out\n        /* \"#utility.yul\":1440:1992   */\n    tag_19:\n        /* \"#utility.yul\":1517:1523   */\n      0x00\n        /* \"#utility.yul\":1525:1531   */\n      dup1\n        /* \"#utility.yul\":1533:1539   */\n      0x00\n        /* \"#utility.yul\":1582:1584   */\n      0x60\n        /* \"#utility.yul\":1570:1579   */\n      dup5\n        /* \"#utility.yul\":1561:1568   */\n      dup7\n        /* \"#utility.yul\":1557:1580   */\n      sub\n        /* \"#utility.yul\":1553:1585   */\n      slt\n        /* \"#utility.yul\":1550:1552   */\n      iszero\n      tag_66\n      jumpi\n        /* \"#utility.yul\":1598:1599   */\n      0x00\n        /* \"#utility.yul\":1595:1596   */\n      dup1\n        /* \"#utility.yul\":1588:1600   */\n      revert\n        /* \"#utility.yul\":1550:1552   */\n    tag_66:\n        /* \"#utility.yul\":1641:1642   */\n      0x00\n        /* \"#utility.yul\":1666:1719   */\n      tag_67\n        /* \"#utility.yul\":1711:1718   */\n      dup7\n        /* \"#utility.yul\":1702:1708   */\n      dup3\n        /* \"#utility.yul\":1691:1700   */\n      dup8\n        /* \"#utility.yul\":1687:1709   */\n      add\n        /* \"#utility.yul\":1666:1719   */\n      tag_45\n      jump\t// in\n    tag_67:\n        /* \"#utility.yul\":1656:1719   */\n      swap4\n      pop\n        /* \"#utility.yul\":1612:1729   */\n      pop\n        /* \"#utility.yul\":1768:1770   */\n      0x20\n        /* \"#utility.yul\":1794:1847   */\n      tag_68\n        /* \"#utility.yul\":1839:1846   */\n      dup7\n        /* \"#utility.yul\":1830:1836   */\n      dup3\n        /* \"#utility.yul\":1819:1828   */\n      dup8\n        /* \"#utility.yul\":1815:1837   */\n      add\n        /* \"#utility.yul\":1794:1847   */\n      tag_45\n      jump\t// in\n    tag_68:\n        /* \"#utility.yul\":1784:1847   */\n      swap3\n      pop\n        /* \"#utility.yul\":1739:1857   */\n      pop\n        /* \"#utility.yul\":1896:1898   */\n      0x40\n        /* \"#utility.yul\":1922:1975   */\n      tag_69\n        /* \"#utility.yul\":1967:1974   */\n      dup7\n        /* \"#utility.yul\":1958:1964   */\n      dup3\n        /* \"#utility.yul\":1947:1956   */\n      dup8\n        /* \"#utility.yul\":1943:1965   */\n      add\n        /* \"#utility.yul\":1922:1975   */\n      tag_52\n      jump\t// in\n    tag_69:\n        /* \"#utility.yul\":1912:1975   */\n      swap2\n      pop\n        /* \"#utility.yul\":1867:1985   */\n      pop\n        /* \"#utility.yul\":1540:1992   */\n      swap3\n      pop\n      swap3\n      pop\n      swap3\n      jump\t// out\n        /* \"#utility.yul\":1998:2696   */\n    tag_14:\n        /* \"#utility.yul\":2084:2090   */\n      0x00\n        /* \"#utility.yul\":2092:2098   */\n      dup1\n        /* \"#utility.yul\":2100:2106   */\n      0x00\n        /* \"#utility.yul\":2108:2114   */\n      dup1\n        /* \"#utility.yul\":2157:2160   */\n      0x80\n        /* \"#utility.yul\":2145:2154   */\n      dup6\n        /* \"#utility.yul\":2136:2143   */\n      dup8\n        /* \"#utility.yul\":2132:2155   */\n      sub\n        /* \"#utility.yul\":2128:2161   */\n      slt\n        /* \"#utility.yul\":2125:2127   */\n      iszero\n      tag_71\n      jumpi\n        /* \"#utility.yul\":2174:2175   */\n      0x00\n        /* \"#utility.yul\":2171:2172   */\n      dup1\n        /* \"#utility.yul\":2164:2176   */\n      revert\n        /* \"#utility.yul\":2125:2127   */\n    tag_71:\n        /* \"#utility.yul\":2217:2218   */\n      0x00\n        /* \"#utility.yul\":2242:2295   */\n      tag_72\n        /* \"#utility.yul\":2287:2294   */\n      dup8\n        /* \"#utility.yul\":2278:2284   */\n      dup3\n        /* \"#utility.yul\":2267:2276   */\n      dup9\n        /* \"#utility.yul\":2263:2285   */\n      add\n        /* \"#utility.yul\":2242:2295   */\n      tag_45\n      jump\t// in\n    tag_72:\n        /* \"#utility.yul\":2232:2295   */\n      swap5\n      pop\n        /* \"#utility.yul\":2188:2305   */\n      pop\n        /* \"#utility.yul\":2344:2346   */\n      0x20\n        /* \"#utility.yul\":2370:2423   */\n      tag_73\n        /* \"#utility.yul\":2415:2422   */\n      dup8\n        /* \"#utility.yul\":2406:2412   */\n      dup3\n        /* \"#utility.yul\":2395:2404   */\n      dup9\n        /* \"#utility.yul\":2391:2413   */\n      add\n        /* \"#utility.yul\":2370:2423   */\n      tag_45\n      jump\t// in\n    tag_73:\n        /* \"#utility.yul\":2360:2423   */\n      swap4\n      pop\n        /* \"#utility.yul\":2315:2433   */\n      pop\n        /* \"#utility.yul\":2472:2474   */\n      0x40\n        /* \"#utility.yul\":2498:2551   */\n      tag_74\n        /* \"#utility.yul\":2543:2550   */\n      dup8\n        /* \"#utility.yul\":2534:2540   */\n      dup3\n        /* \"#utility.yul\":2523:2532   */\n      dup9\n        /* \"#utility.yul\":2519:2541   */\n      add\n        /* \"#utility.yul\":2498:2551   */\n      tag_52\n      jump\t// in\n    tag_74:\n        /* \"#utility.yul\":2488:2551   */\n      swap3\n      pop\n        /* \"#utility.yul\":2443:2561   */\n      pop\n        /* \"#utility.yul\":2600:2602   */\n      0x60\n        /* \"#utility.yul\":2626:2679   */\n      tag_75\n        /* \"#utility.yul\":2671:2678   */\n      dup8\n        /* \"#utility.yul\":2662:2668   */\n      dup3\n        /* \"#utility.yul\":2651:2660   */\n      dup9\n        /* \"#utility.yul\":2647:2669   */\n      add\n        /* \"#utility.yul\":2626:2679   */\n      tag_45\n      jump\t// in\n    tag_75:\n        /* \"#utility.yul\":2616:2679   */\n      swap2\n      pop\n        /* \"#utility.yul\":2571:2689   */\n      pop\n        /* \"#utility.yul\":2115:2696   */\n      swap3\n      swap6\n      swap2\n      swap5\n      pop\n      swap3\n      pop\n      jump\t// out\n        /* \"#utility.yul\":2702:2820   */\n    tag_76:\n        /* \"#utility.yul\":2789:2813   */\n      tag_78\n        /* \"#utility.yul\":2807:2812   */\n      dup2\n        /* \"#utility.yul\":2789:2813   */\n      tag_79\n      jump\t// in\n    tag_78:\n        /* \"#utility.yul\":2784:2787   */\n      dup3\n        /* \"#utility.yul\":2777:2814   */\n      mstore\n        /* \"#utility.yul\":2767:2820   */\n      pop\n      pop\n      jump\t// out\n        /* \"#utility.yul\":2826:2935   */\n    tag_80:\n        /* \"#utility.yul\":2907:2928   */\n      tag_82\n        /* \"#utility.yul\":2922:2927   */\n      dup2\n        /* \"#utility.yul\":2907:2928   */\n      tag_83\n      jump\t// in\n    tag_82:\n        /* \"#utility.yul\":2902:2905   */\n      dup3\n        /* \"#utility.yul\":2895:2929   */\n      mstore\n        /* \"#utility.yul\":2885:2935   */\n      pop\n      pop\n      jump\t// out\n        /* \"#utility.yul\":2941:3301   */\n    tag_84:\n        /* \"#utility.yul\":3027:3030   */\n      0x00\n        /* \"#utility.yul\":3055:3093   */\n      tag_86\n        /* \"#utility.yul\":3087:3092   */\n      dup3\n        /* \"#utility.yul\":3055:3093   */\n      tag_87\n      jump\t// in\n    tag_86:\n        /* \"#utility.yul\":3109:3179   */\n      tag_88\n        /* \"#utility.yul\":3172:3178   */\n      dup2\n        /* \"#utility.yul\":3167:3170   */\n      dup6\n        /* \"#utility.yul\":3109:3179   */\n      tag_89\n      jump\t// in\n    tag_88:\n        /* \"#utility.yul\":3102:3179   */\n      swap4\n      pop\n        /* \"#utility.yul\":3188:3240   */\n      tag_90\n        /* \"#utility.yul\":3233:3239   */\n      dup2\n        /* \"#utility.yul\":3228:3231   */\n      dup6\n        /* \"#utility.yul\":3221:3225   */\n      0x20\n        /* \"#utility.yul\":3214:3219   */\n      dup7\n        /* \"#utility.yul\":3210:3226   */\n      add\n        /* \"#utility.yul\":3188:3240   */\n      tag_91\n      jump\t// in\n    tag_90:\n        /* \"#utility.yul\":3265:3294   */\n      tag_92\n        /* \"#utility.yul\":3287:3293   */\n      dup2\n        /* \"#utility.yul\":3265:3294   */\n      tag_93\n      jump\t// in\n    tag_92:\n        /* \"#utility.yul\":3260:3263   */\n      dup5\n        /* \"#utility.yul\":3256:3295   */\n      add\n        /* \"#utility.yul\":3249:3295   */\n      swap2\n      pop\n        /* \"#utility.yul\":3031:3301   */\n      pop\n      swap3\n      swap2\n      pop\n      pop\n      jump\t// out\n        /* \"#utility.yul\":3307:3425   */\n    tag_94:\n        /* \"#utility.yul\":3394:3418   */\n      tag_96\n        /* \"#utility.yul\":3412:3417   */\n      dup2\n        /* \"#utility.yul\":3394:3418   */\n      tag_97\n      jump\t// in\n    tag_96:\n        /* \"#utility.yul\":3389:3392   */\n      dup3\n        /* \"#utility.yul\":3382:3419   */\n      mstore\n        /* \"#utility.yul\":3372:3425   */\n      pop\n      pop\n      jump\t// out\n        /* \"#utility.yul\":3431:3653   */\n    tag_30:\n        /* \"#utility.yul\":3524:3528   */\n      0x00\n        /* \"#utility.yul\":3562:3564   */\n      0x20\n        /* \"#utility.yul\":3551:3560   */\n      dup3\n        /* \"#utility.yul\":3547:3565   */\n      add\n        /* \"#utility.yul\":3539:3565   */\n      swap1\n      pop\n        /* \"#utility.yul\":3575:3646   */\n      tag_99\n        /* \"#utility.yul\":3643:3644   */\n      0x00\n        /* \"#utility.yul\":3632:3641   */\n      dup4\n        /* \"#utility.yul\":3628:3645   */\n      add\n        /* \"#utility.yul\":3619:3625   */\n      dup5\n        /* \"#utility.yul\":3575:3646   */\n      tag_76\n      jump\t// in\n    tag_99:\n        /* \"#utility.yul\":3529:3653   */\n      swap3\n      swap2\n      pop\n      pop\n      jump\t// out\n        /* \"#utility.yul\":3659:4101   */\n    tag_24:\n        /* \"#utility.yul\":3808:3812   */\n      0x00\n        /* \"#utility.yul\":3846:3848   */\n      0x60\n        /* \"#utility.yul\":3835:3844   */\n      dup3\n        /* \"#utility.yul\":3831:3849   */\n      add\n        /* \"#utility.yul\":3823:3849   */\n      swap1\n      pop\n        /* \"#utility.yul\":3859:3930   */\n      tag_101\n        /* \"#utility.yul\":3927:3928   */\n      0x00\n        /* \"#utility.yul\":3916:3925   */\n      dup4\n        /* \"#utility.yul\":3912:3929   */\n      add\n        /* \"#utility.yul\":3903:3909   */\n      dup7\n        /* \"#utility.yul\":3859:3930   */\n      tag_76\n      jump\t// in\n    tag_101:\n        /* \"#utility.yul\":3940:4012   */\n      tag_102\n        /* \"#utility.yul\":4008:4010   */\n      0x20\n        /* \"#utility.yul\":3997:4006   */\n      dup4\n        /* \"#utility.yul\":3993:4011   */\n      add\n        /* \"#utility.yul\":3984:3990   */\n      dup6\n        /* \"#utility.yul\":3940:4012   */\n      tag_76\n      jump\t// in\n    tag_102:\n        /* \"#utility.yul\":4022:4094   */\n      tag_103\n        /* \"#utility.yul\":4090:4092   */\n      0x40\n        /* \"#utility.yul\":4079:4088   */\n      dup4\n        /* \"#utility.yul\":4075:4093   */\n      add\n        /* \"#utility.yul\":4066:4072   */\n      dup5\n        /* \"#utility.yul\":4022:4094   */\n      tag_94\n      jump\t// in\n    tag_103:\n        /* \"#utility.yul\":3813:4101   */\n      swap5\n      swap4\n      pop\n      pop\n      pop\n      pop\n      jump\t// out\n        /* \"#utility.yul\":4107:4747   */\n    tag_32:\n        /* \"#utility.yul\":4302:4306   */\n      0x00\n        /* \"#utility.yul\":4340:4343   */\n      0x80\n        /* \"#utility.yul\":4329:4338   */\n      dup3\n        /* \"#utility.yul\":4325:4344   */\n      add\n        /* \"#utility.yul\":4317:4344   */\n      swap1\n      pop\n        /* \"#utility.yul\":4354:4425   */\n      tag_105\n        /* \"#utility.yul\":4422:4423   */\n      0x00\n        /* \"#utility.yul\":4411:4420   */\n      dup4\n        /* \"#utility.yul\":4407:4424   */\n      add\n        /* \"#utility.yul\":4398:4404   */\n      dup8\n        /* \"#utility.yul\":4354:4425   */\n      tag_76\n      jump\t// in\n    tag_105:\n        /* \"#utility.yul\":4435:4507   */\n      tag_106\n        /* \"#utility.yul\":4503:4505   */\n      0x20\n        /* \"#utility.yul\":4492:4501   */\n      dup4\n        /* \"#utility.yul\":4488:4506   */\n      add\n        /* \"#utility.yul\":4479:4485   */\n      dup7\n        /* \"#utility.yul\":4435:4507   */\n      tag_76\n      jump\t// in\n    tag_106:\n        /* \"#utility.yul\":4517:4589   */\n      tag_107\n        /* \"#utility.yul\":4585:4587   */\n      0x40\n        /* \"#utility.yul\":4574:4583   */\n      dup4\n        /* \"#utility.yul\":4570:4588   */\n      add\n        /* \"#utility.yul\":4561:4567   */\n      dup6\n        /* \"#utility.yul\":4517:4589   */\n      tag_94\n      jump\t// in\n    tag_107:\n        /* \"#utility.yul\":4636:4645   */\n      dup2\n        /* \"#utility.yul\":4630:4634   */\n      dup2\n        /* \"#utility.yul\":4626:4646   */\n      sub\n        /* \"#utility.yul\":4621:4623   */\n      0x60\n        /* \"#utility.yul\":4610:4619   */\n      dup4\n        /* \"#utility.yul\":4606:4624   */\n      add\n        /* \"#utility.yul\":4599:4647   */\n      mstore\n        /* \"#utility.yul\":4664:4740   */\n      tag_108\n        /* \"#utility.yul\":4735:4739   */\n      dup2\n        /* \"#utility.yul\":4726:4732   */\n      dup5\n        /* \"#utility.yul\":4664:4740   */\n      tag_84\n      jump\t// in\n    tag_108:\n        /* \"#utility.yul\":4656:4740   */\n      swap1\n      pop\n        /* \"#utility.yul\":4307:4747   */\n      swap6\n      swap5\n      pop\n      pop\n      pop\n      pop\n      pop\n      jump\t// out\n        /* \"#utility.yul\":4753:4963   */\n    tag_11:\n        /* \"#utility.yul\":4840:4844   */\n      0x00\n        /* \"#utility.yul\":4878:4880   */\n      0x20\n        /* \"#utility.yul\":4867:4876   */\n      dup3\n        /* \"#utility.yul\":4863:4881   */\n      add\n        /* \"#utility.yul\":4855:4881   */\n      swap1\n      pop\n        /* \"#utility.yul\":4891:4956   */\n      tag_110\n        /* \"#utility.yul\":4953:4954   */\n      0x00\n        /* \"#utility.yul\":4942:4951   */\n      dup4\n        /* \"#utility.yul\":4938:4955   */\n      add\n        /* \"#utility.yul\":4929:4935   */\n      dup5\n        /* \"#utility.yul\":4891:4956   */\n      tag_80\n      jump\t// in\n    tag_110:\n        /* \"#utility.yul\":4845:4963   */\n      swap3\n      swap2\n      pop\n      pop\n      jump\t// out\n        /* \"#utility.yul\":4969:5191   */\n    tag_38:\n        /* \"#utility.yul\":5062:5066   */\n      0x00\n        /* \"#utility.yul\":5100:5102   */\n      0x20\n        /* \"#utility.yul\":5089:5098   */\n      dup3\n        /* \"#utility.yul\":5085:5103   */\n      add\n        /* \"#utility.yul\":5077:5103   */\n      swap1\n      pop\n        /* \"#utility.yul\":5113:5184   */\n      tag_112\n        /* \"#utility.yul\":5181:5182   */\n      0x00\n        /* \"#utility.yul\":5170:5179   */\n      dup4\n        /* \"#utility.yul\":5166:5183   */\n      add\n        /* \"#utility.yul\":5157:5163   */\n      dup5\n        /* \"#utility.yul\":5113:5184   */\n      tag_94\n      jump\t// in\n    tag_112:\n        /* \"#utility.yul\":5067:5191   */\n      swap3\n      swap2\n      pop\n      pop\n      jump\t// out\n        /* \"#utility.yul\":5197:5295   */\n    tag_87:\n        /* \"#utility.yul\":5248:5254   */\n      0x00\n        /* \"#utility.yul\":5282:5287   */\n      dup2\n        /* \"#utility.yul\":5276:5288   */\n      mload\n        /* \"#utility.yul\":5266:5288   */\n      swap1\n      pop\n        /* \"#utility.yul\":5255:5295   */\n      swap2\n      swap1\n      pop\n      jump\t// out\n        /* \"#utility.yul\":5301:5469   */\n    tag_89:\n        /* \"#utility.yul\":5384:5395   */\n      0x00\n        /* \"#utility.yul\":5418:5424   */\n      dup3\n        /* \"#utility.yul\":5413:5416   */\n      dup3\n        /* \"#utility.yul\":5406:5425   */\n      mstore\n        /* \"#utility.yul\":5458:5462   */\n      0x20\n        /* \"#utility.yul\":5453:5456   */\n      dup3\n        /* \"#utility.yul\":5449:5463   */\n      add\n        /* \"#utility.yul\":5434:5463   */\n      swap1\n      pop\n        /* \"#utility.yul\":5396:5469   */\n      swap3\n      swap2\n      pop\n      pop\n      jump\t// out\n        /* \"#utility.yul\":5475:5571   */\n    tag_79:\n        /* \"#utility.yul\":5512:5519   */\n      0x00\n        /* \"#utility.yul\":5541:5565   */\n      tag_116\n        /* \"#utility.yul\":5559:5564   */\n      dup3\n        /* \"#utility.yul\":5541:5565   */\n      tag_117\n      jump\t// in\n    tag_116:\n        /* \"#utility.yul\":5530:5565   */\n      swap1\n      pop\n        /* \"#utility.yul\":5520:5571   */\n      swap2\n      swap1\n      pop\n      jump\t// out\n        /* \"#utility.yul\":5577:5667   */\n    tag_83:\n        /* \"#utility.yul\":5611:5618   */\n      0x00\n        /* \"#utility.yul\":5654:5659   */\n      dup2\n        /* \"#utility.yul\":5647:5660   */\n      iszero\n        /* \"#utility.yul\":5640:5661   */\n      iszero\n        /* \"#utility.yul\":5629:5661   */\n      swap1\n      pop\n        /* \"#utility.yul\":5619:5667   */\n      swap2\n      swap1\n      pop\n      jump\t// out\n        /* \"#utility.yul\":5673:5799   */\n    tag_117:\n        /* \"#utility.yul\":5710:5717   */\n      0x00\n        /* \"#utility.yul\":5750:5792   */\n      0xffffffffffffffffffffffffffffffffffffffff\n        /* \"#utility.yul\":5743:5748   */\n      dup3\n        /* \"#utility.yul\":5739:5793   */\n      and\n        /* \"#utility.yul\":5728:5793   */\n      swap1\n      pop\n        /* \"#utility.yul\":5718:5799   */\n      swap2\n      swap1\n      pop\n      jump\t// out\n        /* \"#utility.yul\":5805:5882   */\n    tag_97:\n        /* \"#utility.yul\":5842:5849   */\n      0x00\n        /* \"#utility.yul\":5871:5876   */\n      dup2\n        /* \"#utility.yul\":5860:5876   */\n      swap1\n      pop\n        /* \"#utility.yul\":5850:5882   */\n      swap2\n      swap1\n      pop\n      jump\t// out\n        /* \"#utility.yul\":5888:6195   */\n    tag_91:\n        /* \"#utility.yul\":5956:5957   */\n      0x00\n        /* \"#utility.yul\":5966:6079   */\n    tag_122:\n        /* \"#utility.yul\":5980:5986   */\n      dup4\n        /* \"#utility.yul\":5977:5978   */\n      dup2\n        /* \"#utility.yul\":5974:5987   */\n      lt\n        /* \"#utility.yul\":5966:6079   */\n      iszero\n      tag_124\n      jumpi\n        /* \"#utility.yul\":6065:6066   */\n      dup1\n        /* \"#utility.yul\":6060:6063   */\n      dup3\n        /* \"#utility.yul\":6056:6067   */\n      add\n        /* \"#utility.yul\":6050:6068   */\n      mload\n        /* \"#utility.yul\":6046:6047   */\n      dup2\n        /* \"#utility.yul\":6041:6044   */\n      dup5\n        /* \"#utility.yul\":6037:6048   */\n      add\n        /* \"#utility.yul\":6030:6069   */\n      mstore\n        /* \"#utility.yul\":6002:6004   */\n      0x20\n        /* \"#utility.yul\":5999:6000   */\n      dup2\n        /* \"#utility.yul\":5995:6005   */\n      add\n        /* \"#utility.yul\":5990:6005   */\n      swap1\n      pop\n        /* \"#utility.yul\":5966:6079   */\n      jump(tag_122)\n    tag_124:\n        /* \"#utility.yul\":6097:6103   */\n      dup4\n        /* \"#utility.yul\":6094:6095   */\n      dup2\n        /* \"#utility.yul\":6091:6104   */\n      gt\n        /* \"#utility.yul\":6088:6090   */\n      iszero\n      tag_125\n      jumpi\n        /* \"#utility.yul\":6177:6178   */\n      0x00\n        /* \"#utility.yul\":6168:6174   */\n      dup5\n        /* \"#utility.yul\":6163:6166   */\n      dup5\n        /* \"#utility.yul\":6159:6175   */\n      add\n        /* \"#utility.yul\":6152:6179   */\n      mstore\n        /* \"#utility.yul\":6088:6090   */\n    tag_125:\n        /* \"#utility.yul\":5937:6195   */\n      pop\n      pop\n      pop\n      pop\n      jump\t// out\n        /* \"#utility.yul\":6201:6303   */\n    tag_93:\n        /* \"#utility.yul\":6242:6248   */\n      0x00\n        /* \"#utility.yul\":6293:6295   */\n      0x1f\n        /* \"#utility.yul\":6289:6296   */\n      not\n        /* \"#utility.yul\":6284:6286   */\n      0x1f\n        /* \"#utility.yul\":6277:6282   */\n      dup4\n        /* \"#utility.yul\":6273:6287   */\n      add\n        /* \"#utility.yul\":6269:6297   */\n      and\n        /* \"#utility.yul\":6259:6297   */\n      swap1\n      pop\n        /* \"#utility.yul\":6249:6303   */\n      swap2\n      swap1\n      pop\n      jump\t// out\n        /* \"#utility.yul\":6309:6431   */\n    tag_48:\n        /* \"#utility.yul\":6382:6406   */\n      tag_128\n        /* \"#utility.yul\":6400:6405   */\n      dup2\n        /* \"#utility.yul\":6382:6406   */\n      tag_79\n      jump\t// in\n    tag_128:\n        /* \"#utility.yul\":6375:6380   */\n      dup2\n        /* \"#utility.yul\":6372:6407   */\n      eq\n        /* \"#utility.yul\":6362:6364   */\n      tag_129\n      jumpi\n        /* \"#utility.yul\":6421:6422   */\n      0x00\n        /* \"#utility.yul\":6418:6419   */\n      dup1\n        /* \"#utility.yul\":6411:6423   */\n      revert\n        /* \"#utility.yul\":6362:6364   */\n    tag_129:\n        /* \"#utility.yul\":6352:6431   */\n      pop\n      jump\t// out\n        /* \"#utility.yul\":6437:6559   */\n    tag_55:\n        /* \"#utility.yul\":6510:6534   */\n      tag_131\n        /* \"#utility.yul\":6528:6533   */\n      dup2\n        /* \"#utility.yul\":6510:6534   */\n      tag_97\n      jump\t// in\n    tag_131:\n        /* \"#utility.yul\":6503:6508   */\n      dup2\n        /* \"#utility.yul\":6500:6535   */\n      eq\n        /* \"#utility.yul\":6490:6492   */\n      tag_132\n      jumpi\n        /* \"#utility.yul\":6549:6550   */\n      0x00\n        /* \"#utility.yul\":6546:6547   */\n      dup1\n        /* \"#utility.yul\":6539:6551   */\n      revert\n        /* \"#utility.yul\":6490:6492   */\n    tag_132:\n        /* \"#utility.yul\":6480:6559   */\n      pop\n      jump\t// out\n\n    auxdata: 0xa26469706673582212205d1552205fd750820968b3aa1cd75b3082ed9cd96505a45b1b13bffe06b05cd364736f6c63430008040033\n}\n",
				"bytecode": {
					"linkReferences": {},
					"object": "608060405234801561001057600080fd5b50610676806100206000396000f3fe608060405234801561001057600080fd5b50600436106100415760003560e01c8063b030667114610046578063c7783aaa14610076578063f370e8c5146100a6575b600080fd5b610060600480360381019061005b919061031b565b6100d6565b60405161006d9190610534565b60405180910390f35b610090600480360381019061008b91906103cd565b610153565b60405161009d9190610534565b60405180910390f35b6100c060048036038101906100bb919061037e565b6101f1565b6040516100cd9190610534565b60405180910390f35b60008273ffffffffffffffffffffffffffffffffffffffff166342842e0e8686856040518463ffffffff1660e01b8152600401610115939291906104b1565b600060405180830381600087803b15801561012f57600080fd5b505af1158015610143573d6000803e3d6000fd5b5050505060019050949350505050565b60008373ffffffffffffffffffffffffffffffffffffffff1663b88d4fde308786866040516020016101859190610496565b6040516020818303038152906040526040518563ffffffff1660e01b81526004016101b394939291906104e8565b600060405180830381600087803b1580156101cd57600080fd5b505af11580156101e1573d6000803e3d6000fd5b5050505060019050949350505050565b60008373ffffffffffffffffffffffffffffffffffffffff168373ffffffffffffffffffffffffffffffffffffffff16636352211e846040518263ffffffff1660e01b8152600401610243919061054f565b60206040518083038186803b15801561025b57600080fd5b505afa15801561026f573d6000803e3d6000fd5b505050506040513d601f19601f8201168201806040525081019061029391906102f2565b73ffffffffffffffffffffffffffffffffffffffff161490509392505050565b6000813590506102c281610612565b92915050565b6000815190506102d781610612565b92915050565b6000813590506102ec81610629565b92915050565b60006020828403121561030457600080fd5b6000610312848285016102c8565b91505092915050565b6000806000806080858703121561033157600080fd5b600061033f878288016102b3565b9450506020610350878288016102b3565b9350506040610361878288016102b3565b9250506060610372878288016102dd565b91505092959194509250565b60008060006060848603121561039357600080fd5b60006103a1868287016102b3565b93505060206103b2868287016102b3565b92505060406103c3868287016102dd565b9150509250925092565b600080600080608085870312156103e357600080fd5b60006103f1878288016102b3565b9450506020610402878288016102b3565b9350506040610413878288016102dd565b9250506060610424878288016102b3565b91505092959194509250565b61043981610586565b82525050565b61044881610598565b82525050565b60006104598261056a565b6104638185610575565b93506104738185602086016105ce565b61047c81610601565b840191505092915050565b610490816105c4565b82525050565b60006020820190506104ab6000830184610430565b92915050565b60006060820190506104c66000830186610430565b6104d36020830185610430565b6104e06040830184610487565b949350505050565b60006080820190506104fd6000830187610430565b61050a6020830186610430565b6105176040830185610487565b8181036060830152610529818461044e565b905095945050505050565b6000602082019050610549600083018461043f565b92915050565b60006020820190506105646000830184610487565b92915050565b600081519050919050565b600082825260208201905092915050565b6000610591826105a4565b9050919050565b60008115159050919050565b600073ffffffffffffffffffffffffffffffffffffffff82169050919050565b6000819050919050565b60005b838110156105ec5780820151818401526020810190506105d1565b838111156105fb576000848401525b50505050565b6000601f19601f8301169050919050565b61061b81610586565b811461062657600080fd5b50565b610632816105c4565b811461063d57600080fd5b5056fea26469706673582212205d1552205fd750820968b3aa1cd75b3082ed9cd96505a45b1b13bffe06b05cd364736f6c63430008040033",
					"opcodes": "PUSH1 0x80 PUSH1 0x40 MSTORE CALLVALUE DUP1 ISZERO PUSH2 0x10 JUMPI PUSH1 0x0 DUP1 REVERT JUMPDEST POP PUSH2 0x676 DUP1 PUSH2 0x20 PUSH1 0x0 CODECOPY PUSH1 0x0 RETURN INVALID PUSH1 0x80 PUSH1 0x40 MSTORE CALLVALUE DUP1 ISZERO PUSH2 0x10 JUMPI PUSH1 0x0 DUP1 REVERT JUMPDEST POP PUSH1 0x4 CALLDATASIZE LT PUSH2 0x41 JUMPI PUSH1 0x0 CALLDATALOAD PUSH1 0xE0 SHR DUP1 PUSH4 0xB0306671 EQ PUSH2 0x46 JUMPI DUP1 PUSH4 0xC7783AAA EQ PUSH2 0x76 JUMPI DUP1 PUSH4 0xF370E8C5 EQ PUSH2 0xA6 JUMPI JUMPDEST PUSH1 0x0 DUP1 REVERT JUMPDEST PUSH2 0x60 PUSH1 0x4 DUP1 CALLDATASIZE SUB DUP2 ADD SWAP1 PUSH2 0x5B SWAP2 SWAP1 PUSH2 0x31B JUMP JUMPDEST PUSH2 0xD6 JUMP JUMPDEST PUSH1 0x40 MLOAD PUSH2 0x6D SWAP2 SWAP1 PUSH2 0x534 JUMP JUMPDEST PUSH1 0x40 MLOAD DUP1 SWAP2 SUB SWAP1 RETURN JUMPDEST PUSH2 0x90 PUSH1 0x4 DUP1 CALLDATASIZE SUB DUP2 ADD SWAP1 PUSH2 0x8B SWAP2 SWAP1 PUSH2 0x3CD JUMP JUMPDEST PUSH2 0x153 JUMP JUMPDEST PUSH1 0x40 MLOAD PUSH2 0x9D SWAP2 SWAP1 PUSH2 0x534 JUMP JUMPDEST PUSH1 0x40 MLOAD DUP1 SWAP2 SUB SWAP1 RETURN JUMPDEST PUSH2 0xC0 PUSH1 0x4 DUP1 CALLDATASIZE SUB DUP2 ADD SWAP1 PUSH2 0xBB SWAP2 SWAP1 PUSH2 0x37E JUMP JUMPDEST PUSH2 0x1F1 JUMP JUMPDEST PUSH1 0x40 MLOAD PUSH2 0xCD SWAP2 SWAP1 PUSH2 0x534 JUMP JUMPDEST PUSH1 0x40 MLOAD DUP1 SWAP2 SUB SWAP1 RETURN JUMPDEST PUSH1 0x0 DUP3 PUSH20 0xFFFFFFFFFFFFFFFFFFFFFFFFFFFFFFFFFFFFFFFF AND PUSH4 0x42842E0E DUP7 DUP7 DUP6 PUSH1 0x40 MLOAD DUP5 PUSH4 0xFFFFFFFF AND PUSH1 0xE0 SHL DUP2 MSTORE PUSH1 0x4 ADD PUSH2 0x115 SWAP4 SWAP3 SWAP2 SWAP1 PUSH2 0x4B1 JUMP JUMPDEST PUSH1 0x0 PUSH1 0x40 MLOAD DUP1 DUP4 SUB DUP2 PUSH1 0x0 DUP8 DUP1 EXTCODESIZE ISZERO DUP1 ISZERO PUSH2 0x12F JUMPI PUSH1 0x0 DUP1 REVERT JUMPDEST POP GAS CALL ISZERO DUP1 ISZERO PUSH2 0x143 JUMPI RETURNDATASIZE PUSH1 0x0 DUP1 RETURNDATACOPY RETURNDATASIZE PUSH1 0x0 REVERT JUMPDEST POP POP POP POP PUSH1 0x1 SWAP1 POP SWAP5 SWAP4 POP POP POP POP JUMP JUMPDEST PUSH1 0x0 DUP4 PUSH20 0xFFFFFFFFFFFFFFFFFFFFFFFFFFFFFFFFFFFFFFFF AND PUSH4 0xB88D4FDE ADDRESS DUP8 DUP7 DUP7 PUSH1 0x40 MLOAD PUSH1 0x20 ADD PUSH2 0x185 SWAP2 SWAP1 PUSH2 0x496 JUMP JUMPDEST PUSH1 0x40 MLOAD PUSH1 0x20 DUP2 DUP4 SUB SUB DUP2 MSTORE SWAP1 PUSH1 0x40 MSTORE PUSH1 0x40 MLOAD DUP6 PUSH4 0xFFFFFFFF AND PUSH1 0xE0 SHL DUP2 MSTORE PUSH1 0x4 ADD PUSH2 0x1B3 SWAP5 SWAP4 SWAP3 SWAP2 SWAP1 PUSH2 0x4E8 JUMP JUMPDEST PUSH1 0x0 PUSH1 0x40 MLOAD DUP1 DUP4 SUB DUP2 PUSH1 0x0 DUP8 DUP1 EXTCODESIZE ISZERO DUP1 ISZERO PUSH2 0x1CD JUMPI PUSH1 0x0 DUP1 REVERT JUMPDEST POP GAS CALL ISZERO DUP1 ISZERO PUSH2 0x1E1 JUMPI RETURNDATASIZE PUSH1 0x0 DUP1 RETURNDATACOPY RETURNDATASIZE PUSH1 0x0 REVERT JUMPDEST POP POP POP POP PUSH1 0x1 SWAP1 POP SWAP5 SWAP4 POP POP POP POP JUMP JUMPDEST PUSH1 0x0 DUP4 PUSH20 0xFFFFFFFFFFFFFFFFFFFFFFFFFFFFFFFFFFFFFFFF AND DUP4 PUSH20 0xFFFFFFFFFFFFFFFFFFFFFFFFFFFFFFFFFFFFFFFF AND PUSH4 0x6352211E DUP5 PUSH1 0x40 MLOAD DUP3 PUSH4 0xFFFFFFFF AND PUSH1 0xE0 SHL DUP2 MSTORE PUSH1 0x4 ADD PUSH2 0x243 SWAP2 SWAP1 PUSH2 0x54F JUMP JUMPDEST PUSH1 0x20 PUSH1 0x40 MLOAD DUP1 DUP4 SUB DUP2 DUP7 DUP1 EXTCODESIZE ISZERO DUP1 ISZERO PUSH2 0x25B JUMPI PUSH1 0x0 DUP1 REVERT JUMPDEST POP GAS STATICCALL ISZERO DUP1 ISZERO PUSH2 0x26F JUMPI RETURNDATASIZE PUSH1 0x0 DUP1 RETURNDATACOPY RETURNDATASIZE PUSH1 0x0 REVERT JUMPDEST POP POP POP POP PUSH1 0x40 MLOAD RETURNDATASIZE PUSH1 0x1F NOT PUSH1 0x1F DUP3 ADD AND DUP3 ADD DUP1 PUSH1 0x40 MSTORE POP DUP2 ADD SWAP1 PUSH2 0x293 SWAP2 SWAP1 PUSH2 0x2F2 JUMP JUMPDEST PUSH20 0xFFFFFFFFFFFFFFFFFFFFFFFFFFFFFFFFFFFFFFFF AND EQ SWAP1 POP SWAP4 SWAP3 POP POP POP JUMP JUMPDEST PUSH1 0x0 DUP2 CALLDATALOAD SWAP1 POP PUSH2 0x2C2 DUP2 PUSH2 0x612 JUMP JUMPDEST SWAP3 SWAP2 POP POP JUMP JUMPDEST PUSH1 0x0 DUP2 MLOAD SWAP1 POP PUSH2 0x2D7 DUP2 PUSH2 0x612 JUMP JUMPDEST SWAP3 SWAP2 POP POP JUMP JUMPDEST PUSH1 0x0 DUP2 CALLDATALOAD SWAP1 POP PUSH2 0x2EC DUP2 PUSH2 0x629 JUMP JUMPDEST SWAP3 SWAP2 POP POP JUMP JUMPDEST PUSH1 0x0 PUSH1 0x20 DUP3 DUP5 SUB SLT ISZERO PUSH2 0x304 JUMPI PUSH1 0x0 DUP1 REVERT JUMPDEST PUSH1 0x0 PUSH2 0x312 DUP5 DUP3 DUP6 ADD PUSH2 0x2C8 JUMP JUMPDEST SWAP2 POP POP SWAP3 SWAP2 POP POP JUMP JUMPDEST PUSH1 0x0 DUP1 PUSH1 0x0 DUP1 PUSH1 0x80 DUP6 DUP8 SUB SLT ISZERO PUSH2 0x331 JUMPI PUSH1 0x0 DUP1 REVERT JUMPDEST PUSH1 0x0 PUSH2 0x33F DUP8 DUP3 DUP9 ADD PUSH2 0x2B3 JUMP JUMPDEST SWAP5 POP POP PUSH1 0x20 PUSH2 0x350 DUP8 DUP3 DUP9 ADD PUSH2 0x2B3 JUMP JUMPDEST SWAP4 POP POP PUSH1 0x40 PUSH2 0x361 DUP8 DUP3 DUP9 ADD PUSH2 0x2B3 JUMP JUMPDEST SWAP3 POP POP PUSH1 0x60 PUSH2 0x372 DUP8 DUP3 DUP9 ADD PUSH2 0x2DD JUMP JUMPDEST SWAP2 POP POP SWAP3 SWAP6 SWAP2 SWAP5 POP SWAP3 POP JUMP JUMPDEST PUSH1 0x0 DUP1 PUSH1 0x0 PUSH1 0x60 DUP5 DUP7 SUB SLT ISZERO PUSH2 0x393 JUMPI PUSH1 0x0 DUP1 REVERT JUMPDEST PUSH1 0x0 PUSH2 0x3A1 DUP7 DUP3 DUP8 ADD PUSH2 0x2B3 JUMP JUMPDEST SWAP4 POP POP PUSH1 0x20 PUSH2 0x3B2 DUP7 DUP3 DUP8 ADD PUSH2 0x2B3 JUMP JUMPDEST SWAP3 POP POP PUSH1 0x40 PUSH2 0x3C3 DUP7 DUP3 DUP8 ADD PUSH2 0x2DD JUMP JUMPDEST SWAP2 POP POP SWAP3 POP SWAP3 POP SWAP3 JUMP JUMPDEST PUSH1 0x0 DUP1 PUSH1 0x0 DUP1 PUSH1 0x80 DUP6 DUP8 SUB SLT ISZERO PUSH2 0x3E3 JUMPI PUSH1 0x0 DUP1 REVERT JUMPDEST PUSH1 0x0 PUSH2 0x3F1 DUP8 DUP3 DUP9 ADD PUSH2 0x2B3 JUMP JUMPDEST SWAP5 POP POP PUSH1 0x20 PUSH2 0x402 DUP8 DUP3 DUP9 ADD PUSH2 0x2B3 JUMP JUMPDEST SWAP4 POP POP PUSH1 0x40 PUSH2 0x413 DUP8 DUP3 DUP9 ADD PUSH2 0x2DD JUMP JUMPDEST SWAP3 POP POP PUSH1 0x60 PUSH2 0x424 DUP8 DUP3 DUP9 ADD PUSH2 0x2B3 JUMP JUMPDEST SWAP2 POP POP SWAP3 SWAP6 SWAP2 SWAP5 POP SWAP3 POP JUMP JUMPDEST PUSH2 0x439 DUP2 PUSH2 0x586 JUMP JUMPDEST DUP3 MSTORE POP POP JUMP JUMPDEST PUSH2 0x448 DUP2 PUSH2 0x598 JUMP JUMPDEST DUP3 MSTORE POP POP JUMP JUMPDEST PUSH1 0x0 PUSH2 0x459 DUP3 PUSH2 0x56A JUMP JUMPDEST PUSH2 0x463 DUP2 DUP6 PUSH2 0x575 JUMP JUMPDEST SWAP4 POP PUSH2 0x473 DUP2 DUP6 PUSH1 0x20 DUP7 ADD PUSH2 0x5CE JUMP JUMPDEST PUSH2 0x47C DUP2 PUSH2 0x601 JUMP JUMPDEST DUP5 ADD SWAP2 POP POP SWAP3 SWAP2 POP POP JUMP JUMPDEST PUSH2 0x490 DUP2 PUSH2 0x5C4 JUMP JUMPDEST DUP3 MSTORE POP POP JUMP JUMPDEST PUSH1 0x0 PUSH1 0x20 DUP3 ADD SWAP1 POP PUSH2 0x4AB PUSH1 0x0 DUP4 ADD DUP5 PUSH2 0x430 JUMP JUMPDEST SWAP3 SWAP2 POP POP JUMP JUMPDEST PUSH1 0x0 PUSH1 0x60 DUP3 ADD SWAP1 POP PUSH2 0x4C6 PUSH1 0x0 DUP4 ADD DUP7 PUSH2 0x430 JUMP JUMPDEST PUSH2 0x4D3 PUSH1 0x20 DUP4 ADD DUP6 PUSH2 0x430 JUMP JUMPDEST PUSH2 0x4E0 PUSH1 0x40 DUP4 ADD DUP5 PUSH2 0x487 JUMP JUMPDEST SWAP5 SWAP4 POP POP POP POP JUMP JUMPDEST PUSH1 0x0 PUSH1 0x80 DUP3 ADD SWAP1 POP PUSH2 0x4FD PUSH1 0x0 DUP4 ADD DUP8 PUSH2 0x430 JUMP JUMPDEST PUSH2 0x50A PUSH1 0x20 DUP4 ADD DUP7 PUSH2 0x430 JUMP JUMPDEST PUSH2 0x517 PUSH1 0x40 DUP4 ADD DUP6 PUSH2 0x487 JUMP JUMPDEST DUP2 DUP2 SUB PUSH1 0x60 DUP4 ADD MSTORE PUSH2 0x529 DUP2 DUP5 PUSH2 0x44E JUMP JUMPDEST SWAP1 POP SWAP6 SWAP5 POP POP POP POP POP JUMP JUMPDEST PUSH1 0x0 PUSH1 0x20 DUP3 ADD SWAP1 POP PUSH2 0x549 PUSH1 0x0 DUP4 ADD DUP5 PUSH2 0x43F JUMP JUMPDEST SWAP3 SWAP2 POP POP JUMP JUMPDEST PUSH1 0x0 PUSH1 0x20 DUP3 ADD SWAP1 POP PUSH2 0x564 PUSH1 0x0 DUP4 ADD DUP5 PUSH2 0x487 JUMP JUMPDEST SWAP3 SWAP2 POP POP JUMP JUMPDEST PUSH1 0x0 DUP2 MLOAD SWAP1 POP SWAP2 SWAP1 POP JUMP JUMPDEST PUSH1 0x0 DUP3 DUP3 MSTORE PUSH1 0x20 DUP3 ADD SWAP1 POP SWAP3 SWAP2 POP POP JUMP JUMPDEST PUSH1 0x0 PUSH2 0x591 DUP3 PUSH2 0x5A4 JUMP JUMPDEST SWAP1 POP SWAP2 SWAP1 POP JUMP JUMPDEST PUSH1 0x0 DUP2 ISZERO ISZERO SWAP1 POP SWAP2 SWAP1 POP JUMP JUMPDEST PUSH1 0x0 PUSH20 0xFFFFFFFFFFFFFFFFFFFFFFFFFFFFFFFFFFFFFFFF DUP3 AND SWAP1 POP SWAP2 SWAP1 POP JUMP JUMPDEST PUSH1 0x0 DUP2 SWAP1 POP SWAP2 SWAP1 POP JUMP JUMPDEST PUSH1 0x0 JUMPDEST DUP4 DUP2 LT ISZERO PUSH2 0x5EC JUMPI DUP1 DUP3 ADD MLOAD DUP2 DUP5 ADD MSTORE PUSH1 0x20 DUP2 ADD SWAP1 POP PUSH2 0x5D1 JUMP JUMPDEST DUP4 DUP2 GT ISZERO PUSH2 0x5FB JUMPI PUSH1 0x0 DUP5 DUP5 ADD MSTORE JUMPDEST POP POP POP POP JUMP JUMPDEST PUSH1 0x0 PUSH1 0x1F NOT PUSH1 0x1F DUP4 ADD AND SWAP1 POP SWAP2 SWAP1 POP JUMP JUMPDEST PUSH2 0x61B DUP2 PUSH2 0x586 JUMP JUMPDEST DUP2 EQ PUSH2 0x626 JUMPI PUSH1 0x0 DUP1 REVERT JUMPDEST POP JUMP JUMPDEST PUSH2 0x632 DUP2 PUSH2 0x5C4 JUMP JUMPDEST DUP2 EQ PUSH2 0x63D JUMPI PUSH1 0x0 DUP1 REVERT JUMPDEST POP JUMP INVALID LOG2 PUSH5 0x6970667358 0x22 SLT KECCAK256 0x5D ISZERO MSTORE KECCAK256 0x5F 0xD7 POP DUP3 MULMOD PUSH9 0xB3AA1CD75B3082ED9C 0xD9 PUSH6 0x5A45B1B13BF INVALID MOD 0xB0 0x5C 0xD3 PUSH5 0x736F6C6343 STOP ADDMOD DIV STOP CALLER "
				},
				"gasEstimates": {
					"creation": {
						"codeDepositCost": "330800",
						"executionCost": "368",
						"totalCost": "331168"
					},
					"external": {
						"isOwner(address,address,uint256)": "infinite",
						"transferNFT(address,address,address,uint256)": "infinite",
						"wrapAirdropReceiver(address,address,uint256,address)": "infinite"
					}
				},
				"methodIdentifiers": {
					"isOwner(address,address,uint256)": "f370e8c5",
					"transferNFT(address,address,address,uint256)": "b0306671",
					"wrapAirdropReceiver(address,address,uint256,address)": "c7783aaa"
				}
			},
			"storageLayout": {
				"storage": [],
				"types": null
			},
			"userdoc": {
				"kind": "user",
				"methods": {},
				"version": 1
			}
		}
	}
}