{
	"contracts/PermittedNFTsAndTypeRegistry.sol": {
		"PermittedNFTsAndTypeRegistry": {
			"abi": [
				{
					"inputs": [
						{
							"internalType": "address",
							"name": "_admin",
							"type": "address"
						},
						{
							"internalType": "address",
							"name": "_nftfiHub",
							"type": "address"
						},
						{
							"internalType": "string[]",
							"name": "_definedNftTypes",
							"type": "string[]"
						},
						{
							"internalType": "address[]",
							"name": "_definedNftWrappers",
							"type": "address[]"
						},
						{
							"internalType": "address[]",
							"name": "_permittedNftContracts",
							"type": "address[]"
						},
						{
							"internalType": "string[]",
							"name": "_permittedNftTypes",
							"type": "string[]"
						}
					],
					"stateMutability": "nonpayable",
					"type": "constructor"
				},
				{
					"anonymous": false,
					"inputs": [
						{
							"indexed": true,
							"internalType": "address",
							"name": "nftContract",
							"type": "address"
						},
						{
							"indexed": true,
							"internalType": "bytes32",
							"name": "nftType",
							"type": "bytes32"
						}
					],
					"name": "NFTPermit",
					"type": "event"
				},
				{
					"anonymous": false,
					"inputs": [
						{
							"indexed": true,
							"internalType": "address",
							"name": "previousOwner",
							"type": "address"
						},
						{
							"indexed": true,
							"internalType": "address",
							"name": "newOwner",
							"type": "address"
						}
					],
					"name": "OwnershipTransferred",
					"type": "event"
				},
				{
					"anonymous": false,
					"inputs": [
						{
							"indexed": true,
							"internalType": "bytes32",
							"name": "nftType",
							"type": "bytes32"
						},
						{
							"indexed": true,
							"internalType": "address",
							"name": "nftWrapper",
							"type": "address"
						}
					],
					"name": "TypeUpdated",
					"type": "event"
				},
				{
					"inputs": [
						{
							"internalType": "address",
							"name": "_nftContract",
							"type": "address"
						}
					],
					"name": "getNFTPermit",
					"outputs": [
						{
							"internalType": "bytes32",
							"name": "",
							"type": "bytes32"
						}
					],
					"stateMutability": "view",
					"type": "function"
				},
				{
					"inputs": [
						{
							"internalType": "address",
							"name": "_nftContract",
							"type": "address"
						}
					],
					"name": "getNFTWrapper",
					"outputs": [
						{
							"internalType": "address",
							"name": "",
							"type": "address"
						}
					],
					"stateMutability": "view",
					"type": "function"
				},
				{
					"inputs": [
						{
							"internalType": "bytes32",
							"name": "_nftType",
							"type": "bytes32"
						}
					],
					"name": "getNftTypeWrapper",
					"outputs": [
						{
							"internalType": "address",
							"name": "",
							"type": "address"
						}
					],
					"stateMutability": "view",
					"type": "function"
				},
				{
					"inputs": [],
					"name": "hub",
					"outputs": [
						{
							"internalType": "contract INftfiHub",
							"name": "",
							"type": "address"
						}
					],
					"stateMutability": "view",
					"type": "function"
				},
				{
					"inputs": [],
					"name": "owner",
					"outputs": [
						{
							"internalType": "address",
							"name": "",
							"type": "address"
						}
					],
					"stateMutability": "view",
					"type": "function"
				},
				{
					"inputs": [
						{
							"internalType": "address",
							"name": "_nftContract",
							"type": "address"
						},
						{
							"internalType": "string",
							"name": "_nftType",
							"type": "string"
						}
					],
					"name": "setNFTPermit",
					"outputs": [],
					"stateMutability": "nonpayable",
					"type": "function"
				},
				{
					"inputs": [
						{
							"internalType": "address[]",
							"name": "_nftContracts",
							"type": "address[]"
						},
						{
							"internalType": "string[]",
							"name": "_nftTypes",
							"type": "string[]"
						}
					],
					"name": "setNFTPermits",
					"outputs": [],
					"stateMutability": "nonpayable",
					"type": "function"
				},
				{
					"inputs": [
						{
							"internalType": "string",
							"name": "_nftType",
							"type": "string"
						},
						{
							"internalType": "address",
							"name": "_nftWrapper",
							"type": "address"
						}
					],
					"name": "setNftType",
					"outputs": [],
					"stateMutability": "nonpayable",
					"type": "function"
				},
				{
					"inputs": [
						{
							"internalType": "string[]",
							"name": "_nftTypes",
							"type": "string[]"
						},
						{
							"internalType": "address[]",
							"name": "_nftWrappers",
							"type": "address[]"
						}
					],
					"name": "setNftTypes",
					"outputs": [],
					"stateMutability": "nonpayable",
					"type": "function"
				},
				{
					"inputs": [
						{
							"internalType": "address",
							"name": "_newOwner",
							"type": "address"
						}
					],
					"name": "transferOwnership",
					"outputs": [],
					"stateMutability": "nonpayable",
					"type": "function"
				}
			],
			"devdoc": {
				"author": "NFTfi",
				"details": "Registry for NFT contracts supported by NFTfi. Each NFT is associated with an NFT Type.",
				"events": {
					"NFTPermit(address,bytes32)": {
						"params": {
							"nftContract": "- Address of the NFT contract.",
							"nftType": "- NTF type e.g. bytes32(\"CRYPTO_KITTIES\")"
						}
					},
					"TypeUpdated(bytes32,address)": {
						"params": {
							"nftType": "- Nft type represented by keccak256('nft type').",
							"nftWrapper": "- Address of the wrapper contract."
						}
					}
				},
				"kind": "dev",
				"methods": {
					"constructor": {
						"details": "Sets `nftTypeRegistry` Initialize `nftPermits` with a batch of permitted NFTs",
						"params": {
							"_admin": "- Initial admin of this contract.",
							"_definedNftTypes": "- All the ossible nft types",
							"_definedNftWrappers": "- All the possible wrappers for the types",
							"_nftfiHub": "- Address of the NftfiHub contract",
							"_permittedNftContracts": "- The addresses of the NFT contracts.",
							"_permittedNftTypes": "- The NFT Types. e.g. \"CRYPTO_KITTIES\" - \"\" means \"disable this permit\" - != \"\" means \"enable permit with the given NFT Type\""
						}
					},
					"getNFTPermit(address)": {
						"params": {
							"_nftContract": "- The address of the NFT contract."
						}
					},
					"getNFTWrapper(address)": {
						"params": {
							"_nftContract": "- The address of the NFT contract."
						}
					},
					"getNftTypeWrapper(bytes32)": {
						"params": {
							"_nftType": "- The nft type, e.g. bytes32(\"ERC721\"), or bytes32(\"ERC1155\")."
						}
					},
					"owner()": {
						"details": "Returns the address of the current owner."
					},
					"setNFTPermit(address,string)": {
						"params": {
							"_nftContract": "- The address of the NFT contract.",
							"_nftType": "- The NFT Type. e.g. \"CRYPTO_KITTIES\" - \"\" means \"disable this permit\" - != \"\" means \"enable permit with the given NFT Type\""
						}
					},
					"setNFTPermits(address[],string[])": {
						"params": {
							"_nftContracts": "- The addresses of the NFT contracts.",
							"_nftTypes": "- The NFT Types. e.g. \"CRYPTO_KITTIES\" - \"\" means \"disable this permit\" - != \"\" means \"enable permit with the given NFT Type\""
						}
					},
					"setNftType(string,address)": {
						"params": {
							"_nftType": "- The nft type, e.g. \"ERC721\", or \"ERC1155\".",
							"_nftWrapper": "- The address of the wrapper contract that implements INftWrapper behaviour for dealing with NFTs."
						}
					},
					"setNftTypes(string[],address[])": {
						"params": {
							"_nftTypes": "- The nft types, e.g. \"ERC721\", or \"ERC1155\".",
							"_nftWrappers": "- The addresses of the wrapper contract that implements INftWrapper behaviour for dealing with NFTs."
						}
					},
					"transferOwnership(address)": {
						"details": "Transfers ownership of the contract to a new account (`newOwner`). Can only be called by the current owner."
					}
				},
				"title": "PermittedNFTsAndTypeRegistry",
				"version": 1
			},
			"evm": {
				"assembly": "    /* \"contracts/PermittedNFTsAndTypeRegistry.sol\":416:10182  contract PermittedNFTsAndTypeRegistry is Ownable, IPermittedNFTs {... */\n  mstore(0x40, 0x80)\n    /* \"contracts/PermittedNFTsAndTypeRegistry.sol\":2714:3152  constructor(... */\n  callvalue\n  dup1\n  iszero\n  tag_1\n  jumpi\n  0x00\n  dup1\n  revert\ntag_1:\n  pop\n  mload(0x40)\n  sub(codesize, bytecodeSize)\n  dup1\n  bytecodeSize\n  dup4\n  codecopy\n  dup2\n  add\n  0x40\n  dup2\n  swap1\n  mstore\n  tag_2\n  swap2\n  tag_3\n  jump\t// in\ntag_2:\n    /* \"contracts/PermittedNFTsAndTypeRegistry.sol\":2972:2978  _admin */\n  dup6\n    /* \"contracts/utils/Ownable.sol\":1264:1288  _setOwner(_initialOwner) */\n  tag_7\n    /* \"contracts/PermittedNFTsAndTypeRegistry.sol\":2972:2978  _admin */\n  dup2\n    /* \"contracts/utils/Ownable.sol\":1264:1273  _setOwner */\n  tag_8\n    /* \"contracts/utils/Ownable.sol\":1264:1288  _setOwner(_initialOwner) */\n  jump\t// in\ntag_7:\n  pop\n    /* \"contracts/PermittedNFTsAndTypeRegistry.sol\":2990:2993  hub */\n  0x01\n    /* \"contracts/PermittedNFTsAndTypeRegistry.sol\":2990:3016  hub = INftfiHub(_nftfiHub) */\n  dup1\n  sload\n  not(sub(shl(0xa0, 0x01), 0x01))\n  and\n  sub(shl(0xa0, 0x01), 0x01)\n  dup8\n  and\n  or\n  swap1\n  sstore\n    /* \"contracts/PermittedNFTsAndTypeRegistry.sol\":3026:3077  _setNftTypes(_definedNftTypes, _definedNftWrappers) */\n  tag_10\n    /* \"contracts/PermittedNFTsAndTypeRegistry.sol\":3039:3055  _definedNftTypes */\n  dup5\n    /* \"contracts/PermittedNFTsAndTypeRegistry.sol\":3057:3076  _definedNftWrappers */\n  dup5\n    /* \"contracts/PermittedNFTsAndTypeRegistry.sol\":3026:3038  _setNftTypes */\n  tag_11\n    /* \"contracts/PermittedNFTsAndTypeRegistry.sol\":3026:3077  _setNftTypes(_definedNftTypes, _definedNftWrappers) */\n  jump\t// in\ntag_10:\n    /* \"contracts/PermittedNFTsAndTypeRegistry.sol\":3087:3145  _setNFTPermits(_permittedNftContracts, _permittedNftTypes) */\n  tag_12\n    /* \"contracts/PermittedNFTsAndTypeRegistry.sol\":3102:3124  _permittedNftContracts */\n  dup3\n    /* \"contracts/PermittedNFTsAndTypeRegistry.sol\":3126:3144  _permittedNftTypes */\n  dup3\n    /* \"contracts/PermittedNFTsAndTypeRegistry.sol\":3087:3101  _setNFTPermits */\n  tag_13\n    /* \"contracts/PermittedNFTsAndTypeRegistry.sol\":3087:3145  _setNFTPermits(_permittedNftContracts, _permittedNftTypes) */\n  jump\t// in\ntag_12:\n    /* \"contracts/PermittedNFTsAndTypeRegistry.sol\":2714:3152  constructor(... */\n  pop\n  pop\n  pop\n  pop\n  pop\n  pop\n    /* \"contracts/PermittedNFTsAndTypeRegistry.sol\":416:10182  contract PermittedNFTsAndTypeRegistry is Ownable, IPermittedNFTs {... */\n  jump(tag_67)\n    /* \"contracts/utils/Ownable.sol\":1847:2019  function _setOwner(address _newOwner) private {... */\ntag_8:\n    /* \"contracts/utils/Ownable.sol\":1903:1919  address oldOwner */\n  0x00\n    /* \"contracts/utils/Ownable.sol\":1922:1928  _owner */\n  dup1\n  sload\n  sub(shl(0xa0, 0x01), 0x01)\n    /* \"contracts/utils/Ownable.sol\":1938:1956  _owner = _newOwner */\n  dup4\n  dup2\n  and\n  not(sub(shl(0xa0, 0x01), 0x01))\n  dup4\n  and\n  dup2\n  or\n  dup5\n  sstore\n    /* \"contracts/utils/Ownable.sol\":1971:2012  OwnershipTransferred(oldOwner, _newOwner) */\n  mload(0x40)\n    /* \"contracts/utils/Ownable.sol\":1922:1928  _owner */\n  swap2\n  swap1\n  swap3\n  and\n  swap3\n  dup4\n  swap2\n    /* \"contracts/utils/Ownable.sol\":1971:2012  OwnershipTransferred(oldOwner, _newOwner) */\n  0x8be0079c531659141344cd1fd0a4f28419497f9722a3daafe3b4186f6b6457e0\n  swap2\n    /* \"contracts/utils/Ownable.sol\":1903:1919  address oldOwner */\n  swap1\n    /* \"contracts/utils/Ownable.sol\":1971:2012  OwnershipTransferred(oldOwner, _newOwner) */\n  log3\n    /* \"contracts/utils/Ownable.sol\":1847:2019  function _setOwner(address _newOwner) private {... */\n  pop\n  pop\n  jump\t// out\n    /* \"contracts/PermittedNFTsAndTypeRegistry.sol\":7982:8314  function _setNftTypes(string[] memory _nftTypes, address[] memory _nftWrappers) internal {... */\ntag_11:\n    /* \"contracts/PermittedNFTsAndTypeRegistry.sol\":8109:8121  _nftWrappers */\n  dup1\n    /* \"contracts/PermittedNFTsAndTypeRegistry.sol\":8109:8128  _nftWrappers.length */\n  mload\n    /* \"contracts/PermittedNFTsAndTypeRegistry.sol\":8089:8098  _nftTypes */\n  dup3\n    /* \"contracts/PermittedNFTsAndTypeRegistry.sol\":8089:8105  _nftTypes.length */\n  mload\n    /* \"contracts/PermittedNFTsAndTypeRegistry.sol\":8089:8128  _nftTypes.length == _nftWrappers.length */\n  eq\n    /* \"contracts/PermittedNFTsAndTypeRegistry.sol\":8081:8180  require(_nftTypes.length == _nftWrappers.length, \"setNftTypes function information arity mismatch\") */\n  tag_17\n  jumpi\n  mload(0x40)\n  shl(0xe5, 0x461bcd)\n  dup2\n  mstore\n    /* \"#utility.yul\":4367:4369   */\n  0x20\n    /* \"contracts/PermittedNFTsAndTypeRegistry.sol\":8081:8180  require(_nftTypes.length == _nftWrappers.length, \"setNftTypes function information arity mismatch\") */\n  0x04\n  dup3\n  add\n    /* \"#utility.yul\":4349:4370   */\n  mstore\n    /* \"#utility.yul\":4406:4408   */\n  0x2f\n    /* \"#utility.yul\":4386:4404   */\n  0x24\n  dup3\n  add\n    /* \"#utility.yul\":4379:4409   */\n  mstore\n    /* \"#utility.yul\":4445:4479   */\n  0x7365744e667454797065732066756e6374696f6e20696e666f726d6174696f6e\n    /* \"#utility.yul\":4425:4443   */\n  0x44\n  dup3\n  add\n    /* \"#utility.yul\":4418:4480   */\n  mstore\n  shl(0x8b, 0x040c2e4d2e8f240dad2e6dac2e8c6d)\n    /* \"#utility.yul\":4496:4514   */\n  0x64\n  dup3\n  add\n    /* \"#utility.yul\":4489:4534   */\n  mstore\n    /* \"#utility.yul\":4551:4570   */\n  0x84\n  add\n    /* \"contracts/PermittedNFTsAndTypeRegistry.sol\":8081:8180  require(_nftTypes.length == _nftWrappers.length, \"setNftTypes function information arity mismatch\") */\ntag_18:\n  mload(0x40)\n  dup1\n  swap2\n  sub\n  swap1\n  revert\ntag_17:\n    /* \"contracts/PermittedNFTsAndTypeRegistry.sol\":8196:8205  uint256 i */\n  0x00\n    /* \"contracts/PermittedNFTsAndTypeRegistry.sol\":8191:8308  for (uint256 i = 0; i < _nftWrappers.length; i++) {... */\ntag_20:\n    /* \"contracts/PermittedNFTsAndTypeRegistry.sol\":8215:8227  _nftWrappers */\n  dup2\n    /* \"contracts/PermittedNFTsAndTypeRegistry.sol\":8215:8234  _nftWrappers.length */\n  mload\n    /* \"contracts/PermittedNFTsAndTypeRegistry.sol\":8211:8212  i */\n  dup2\n    /* \"contracts/PermittedNFTsAndTypeRegistry.sol\":8211:8234  i < _nftWrappers.length */\n  lt\n    /* \"contracts/PermittedNFTsAndTypeRegistry.sol\":8191:8308  for (uint256 i = 0; i < _nftWrappers.length; i++) {... */\n  iszero\n  tag_21\n  jumpi\n    /* \"contracts/PermittedNFTsAndTypeRegistry.sol\":8255:8297  _setNftType(_nftTypes[i], _nftWrappers[i]) */\n  tag_23\n    /* \"contracts/PermittedNFTsAndTypeRegistry.sol\":8267:8276  _nftTypes */\n  dup4\n    /* \"contracts/PermittedNFTsAndTypeRegistry.sol\":8277:8278  i */\n  dup3\n    /* \"contracts/PermittedNFTsAndTypeRegistry.sol\":8267:8279  _nftTypes[i] */\n  dup2\n  mload\n  dup2\n  lt\n  tag_24\n  jumpi\n  mstore(0x00, shl(0xe0, 0x4e487b71))\n  mstore(0x04, 0x32)\n  revert(0x00, 0x24)\ntag_24:\n  0x20\n  mul\n  0x20\n  add\n  add\n  mload\n    /* \"contracts/PermittedNFTsAndTypeRegistry.sol\":8281:8293  _nftWrappers */\n  dup4\n    /* \"contracts/PermittedNFTsAndTypeRegistry.sol\":8294:8295  i */\n  dup4\n    /* \"contracts/PermittedNFTsAndTypeRegistry.sol\":8281:8296  _nftWrappers[i] */\n  dup2\n  mload\n  dup2\n  lt\n  tag_25\n  jumpi\n  mstore(0x00, shl(0xe0, 0x4e487b71))\n  mstore(0x04, 0x32)\n  revert(0x00, 0x24)\ntag_25:\n  0x20\n  mul\n  0x20\n  add\n  add\n  mload\n    /* \"contracts/PermittedNFTsAndTypeRegistry.sol\":8255:8266  _setNftType */\n  shl(0x20, tag_26)\n    /* \"contracts/PermittedNFTsAndTypeRegistry.sol\":8255:8297  _setNftType(_nftTypes[i], _nftWrappers[i]) */\n  0x20\n  shr\n  jump\t// in\ntag_23:\n    /* \"contracts/PermittedNFTsAndTypeRegistry.sol\":8236:8239  i++ */\n  dup1\n  tag_27\n  dup2\n  tag_28\n  jump\t// in\ntag_27:\n  swap2\n  pop\n  pop\n    /* \"contracts/PermittedNFTsAndTypeRegistry.sol\":8191:8308  for (uint256 i = 0; i < _nftWrappers.length; i++) {... */\n  jump(tag_20)\ntag_21:\n  pop\n    /* \"contracts/PermittedNFTsAndTypeRegistry.sol\":7982:8314  function _setNftTypes(string[] memory _nftTypes, address[] memory _nftWrappers) internal {... */\n  pop\n  pop\n  jump\t// out\n    /* \"contracts/PermittedNFTsAndTypeRegistry.sol\":9838:10180  function _setNFTPermits(address[] memory _nftContracts, string[] memory _nftTypes) internal {... */\ntag_13:\n    /* \"contracts/PermittedNFTsAndTypeRegistry.sol\":9972:9981  _nftTypes */\n  dup1\n    /* \"contracts/PermittedNFTsAndTypeRegistry.sol\":9972:9988  _nftTypes.length */\n  mload\n    /* \"contracts/PermittedNFTsAndTypeRegistry.sol\":9948:9961  _nftContracts */\n  dup3\n    /* \"contracts/PermittedNFTsAndTypeRegistry.sol\":9948:9968  _nftContracts.length */\n  mload\n    /* \"contracts/PermittedNFTsAndTypeRegistry.sol\":9948:9988  _nftContracts.length == _nftTypes.length */\n  eq\n    /* \"contracts/PermittedNFTsAndTypeRegistry.sol\":9940:10042  require(_nftContracts.length == _nftTypes.length, \"setNFTPermits function information arity mismatch\") */\n  tag_30\n  jumpi\n  mload(0x40)\n  shl(0xe5, 0x461bcd)\n  dup2\n  mstore\n    /* \"#utility.yul\":5841:5843   */\n  0x20\n    /* \"contracts/PermittedNFTsAndTypeRegistry.sol\":9940:10042  require(_nftContracts.length == _nftTypes.length, \"setNFTPermits function information arity mismatch\") */\n  0x04\n  dup3\n  add\n    /* \"#utility.yul\":5823:5844   */\n  mstore\n    /* \"#utility.yul\":5880:5882   */\n  0x31\n    /* \"#utility.yul\":5860:5878   */\n  0x24\n  dup3\n  add\n    /* \"#utility.yul\":5853:5883   */\n  mstore\n    /* \"#utility.yul\":5919:5953   */\n  0x7365744e46545065726d6974732066756e6374696f6e20696e666f726d617469\n    /* \"#utility.yul\":5899:5917   */\n  0x44\n  dup3\n  add\n    /* \"#utility.yul\":5892:5954   */\n  mstore\n  shl(0x7b, 0x0dedc40c2e4d2e8f240dad2e6dac2e8c6d)\n    /* \"#utility.yul\":5970:5988   */\n  0x64\n  dup3\n  add\n    /* \"#utility.yul\":5963:6010   */\n  mstore\n    /* \"#utility.yul\":6027:6046   */\n  0x84\n  add\n    /* \"contracts/PermittedNFTsAndTypeRegistry.sol\":9940:10042  require(_nftContracts.length == _nftTypes.length, \"setNFTPermits function information arity mismatch\") */\n  tag_18\n    /* \"#utility.yul\":5813:6052   */\n  jump\n    /* \"contracts/PermittedNFTsAndTypeRegistry.sol\":9940:10042  require(_nftContracts.length == _nftTypes.length, \"setNFTPermits function information arity mismatch\") */\ntag_30:\n    /* \"contracts/PermittedNFTsAndTypeRegistry.sol\":10058:10067  uint256 i */\n  0x00\n    /* \"contracts/PermittedNFTsAndTypeRegistry.sol\":10053:10174  for (uint256 i = 0; i < _nftContracts.length; i++) {... */\ntag_33:\n    /* \"contracts/PermittedNFTsAndTypeRegistry.sol\":10077:10090  _nftContracts */\n  dup3\n    /* \"contracts/PermittedNFTsAndTypeRegistry.sol\":10077:10097  _nftContracts.length */\n  mload\n    /* \"contracts/PermittedNFTsAndTypeRegistry.sol\":10073:10074  i */\n  dup2\n    /* \"contracts/PermittedNFTsAndTypeRegistry.sol\":10073:10097  i < _nftContracts.length */\n  lt\n    /* \"contracts/PermittedNFTsAndTypeRegistry.sol\":10053:10174  for (uint256 i = 0; i < _nftContracts.length; i++) {... */\n  iszero\n  tag_21\n  jumpi\n    /* \"contracts/PermittedNFTsAndTypeRegistry.sol\":10118:10163  _setNFTPermit(_nftContracts[i], _nftTypes[i]) */\n  tag_36\n    /* \"contracts/PermittedNFTsAndTypeRegistry.sol\":10132:10145  _nftContracts */\n  dup4\n    /* \"contracts/PermittedNFTsAndTypeRegistry.sol\":10146:10147  i */\n  dup3\n    /* \"contracts/PermittedNFTsAndTypeRegistry.sol\":10132:10148  _nftContracts[i] */\n  dup2\n  mload\n  dup2\n  lt\n  tag_37\n  jumpi\n  mstore(0x00, shl(0xe0, 0x4e487b71))\n  mstore(0x04, 0x32)\n  revert(0x00, 0x24)\ntag_37:\n  0x20\n  mul\n  0x20\n  add\n  add\n  mload\n    /* \"contracts/PermittedNFTsAndTypeRegistry.sol\":10150:10159  _nftTypes */\n  dup4\n    /* \"contracts/PermittedNFTsAndTypeRegistry.sol\":10160:10161  i */\n  dup4\n    /* \"contracts/PermittedNFTsAndTypeRegistry.sol\":10150:10162  _nftTypes[i] */\n  dup2\n  mload\n  dup2\n  lt\n  tag_38\n  jumpi\n  mstore(0x00, shl(0xe0, 0x4e487b71))\n  mstore(0x04, 0x32)\n  revert(0x00, 0x24)\ntag_38:\n  0x20\n  mul\n  0x20\n  add\n  add\n  mload\n    /* \"contracts/PermittedNFTsAndTypeRegistry.sol\":10118:10131  _setNFTPermit */\n  shl(0x20, tag_39)\n    /* \"contracts/PermittedNFTsAndTypeRegistry.sol\":10118:10163  _setNFTPermit(_nftContracts[i], _nftTypes[i]) */\n  0x20\n  shr\n  jump\t// in\ntag_36:\n    /* \"contracts/PermittedNFTsAndTypeRegistry.sol\":10099:10102  i++ */\n  dup1\n  tag_40\n  dup2\n  tag_28\n  jump\t// in\ntag_40:\n  swap2\n  pop\n  pop\n    /* \"contracts/PermittedNFTsAndTypeRegistry.sol\":10053:10174  for (uint256 i = 0; i < _nftContracts.length; i++) {... */\n  jump(tag_33)\n    /* \"contracts/PermittedNFTsAndTypeRegistry.sol\":7246:7563  function _setNftType(string memory _nftType, address _nftWrapper) internal {... */\ntag_26:\n    /* \"contracts/PermittedNFTsAndTypeRegistry.sol\":7339:7361  bytes(_nftType).length */\n  dup2\n  mload\n    /* \"contracts/PermittedNFTsAndTypeRegistry.sol\":7331:7387  require(bytes(_nftType).length != 0, \"nftType is empty\") */\n  tag_42\n  jumpi\n  mload(0x40)\n  shl(0xe5, 0x461bcd)\n  dup2\n  mstore\n    /* \"#utility.yul\":5144:5146   */\n  0x20\n    /* \"contracts/PermittedNFTsAndTypeRegistry.sol\":7331:7387  require(bytes(_nftType).length != 0, \"nftType is empty\") */\n  0x04\n  dup3\n  add\n    /* \"#utility.yul\":5126:5147   */\n  mstore\n    /* \"#utility.yul\":5183:5185   */\n  0x10\n    /* \"#utility.yul\":5163:5181   */\n  0x24\n  dup3\n  add\n    /* \"#utility.yul\":5156:5186   */\n  mstore\n  shl(0x80, 0x6e66745479706520697320656d707479)\n    /* \"#utility.yul\":5202:5220   */\n  0x44\n  dup3\n  add\n    /* \"#utility.yul\":5195:5241   */\n  mstore\n    /* \"#utility.yul\":5258:5276   */\n  0x64\n  add\n    /* \"contracts/PermittedNFTsAndTypeRegistry.sol\":7331:7387  require(bytes(_nftType).length != 0, \"nftType is empty\") */\n  tag_18\n    /* \"#utility.yul\":5116:5282   */\n  jump\n    /* \"contracts/PermittedNFTsAndTypeRegistry.sol\":7331:7387  require(bytes(_nftType).length != 0, \"nftType is empty\") */\ntag_42:\n    /* \"contracts/PermittedNFTsAndTypeRegistry.sol\":7397:7415  bytes32 nftTypeKey */\n  0x00\n    /* \"contracts/PermittedNFTsAndTypeRegistry.sol\":7418:7459  ContractKeys.getIdFromStringKey(_nftType) */\n  tag_45\n    /* \"contracts/PermittedNFTsAndTypeRegistry.sol\":7450:7458  _nftType */\n  dup4\n    /* \"contracts/PermittedNFTsAndTypeRegistry.sol\":7418:7449  ContractKeys.getIdFromStringKey */\n  or(tag_0_56, shl(0x20, tag_46))\n    /* \"contracts/PermittedNFTsAndTypeRegistry.sol\":7418:7459  ContractKeys.getIdFromStringKey(_nftType) */\n  0x20\n  shr\n  jump\t// in\ntag_45:\n    /* \"contracts/PermittedNFTsAndTypeRegistry.sol\":7470:7490  nftTypes[nftTypeKey] */\n  0x00\n  dup2\n  dup2\n  mstore\n    /* \"contracts/PermittedNFTsAndTypeRegistry.sol\":7470:7478  nftTypes */\n  0x02\n    /* \"contracts/PermittedNFTsAndTypeRegistry.sol\":7470:7490  nftTypes[nftTypeKey] */\n  0x20\n  mstore\n  0x40\n  dup1\n  dup3\n  keccak256\n    /* \"contracts/PermittedNFTsAndTypeRegistry.sol\":7470:7504  nftTypes[nftTypeKey] = _nftWrapper */\n  dup1\n  sload\n  not(sub(shl(0xa0, 0x01), 0x01))\n  and\n  sub(shl(0xa0, 0x01), 0x01)\n  dup8\n  and\n  swap1\n  dup2\n  or\n  swap1\n  swap2\n  sstore\n    /* \"contracts/PermittedNFTsAndTypeRegistry.sol\":7520:7556  TypeUpdated(nftTypeKey, _nftWrapper) */\n  swap1\n  mload\n    /* \"contracts/PermittedNFTsAndTypeRegistry.sol\":7470:7490  nftTypes[nftTypeKey] */\n  swap3\n  swap4\n  pop\n    /* \"contracts/PermittedNFTsAndTypeRegistry.sol\":7470:7504  nftTypes[nftTypeKey] = _nftWrapper */\n  swap2\n    /* \"contracts/PermittedNFTsAndTypeRegistry.sol\":7470:7490  nftTypes[nftTypeKey] */\n  dup4\n  swap2\n    /* \"contracts/PermittedNFTsAndTypeRegistry.sol\":7520:7556  TypeUpdated(nftTypeKey, _nftWrapper) */\n  0x22be69269c1f7d73e73dcb25b710dd88c7aa1cf374c16d945def98df2107c2f8\n  swap2\n  log3\n    /* \"contracts/PermittedNFTsAndTypeRegistry.sol\":7246:7563  function _setNftType(string memory _nftType, address _nftWrapper) internal {... */\n  pop\n  pop\n  pop\n  jump\t// out\n    /* \"contracts/PermittedNFTsAndTypeRegistry.sol\":8758:9409  function _setNFTPermit(address _nftContract, string memory _nftType) internal {... */\ntag_39:\n  sub(shl(0xa0, 0x01), 0x01)\n    /* \"contracts/PermittedNFTsAndTypeRegistry.sol\":8854:8880  _nftContract != address(0) */\n  dup3\n  and\n    /* \"contracts/PermittedNFTsAndTypeRegistry.sol\":8846:8912  require(_nftContract != address(0), \"nftContract is zero address\") */\n  tag_48\n  jumpi\n  mload(0x40)\n  shl(0xe5, 0x461bcd)\n  dup2\n  mstore\n    /* \"#utility.yul\":4011:4013   */\n  0x20\n    /* \"contracts/PermittedNFTsAndTypeRegistry.sol\":8846:8912  require(_nftContract != address(0), \"nftContract is zero address\") */\n  0x04\n  dup3\n  add\n    /* \"#utility.yul\":3993:4014   */\n  mstore\n    /* \"#utility.yul\":4050:4052   */\n  0x1b\n    /* \"#utility.yul\":4030:4048   */\n  0x24\n  dup3\n  add\n    /* \"#utility.yul\":4023:4053   */\n  mstore\n    /* \"#utility.yul\":4089:4118   */\n  0x6e6674436f6e7472616374206973207a65726f20616464726573730000000000\n    /* \"#utility.yul\":4069:4087   */\n  0x44\n  dup3\n  add\n    /* \"#utility.yul\":4062:4119   */\n  mstore\n    /* \"#utility.yul\":4136:4154   */\n  0x64\n  add\n    /* \"contracts/PermittedNFTsAndTypeRegistry.sol\":8846:8912  require(_nftContract != address(0), \"nftContract is zero address\") */\n  tag_18\n    /* \"#utility.yul\":3983:4160   */\n  jump\n    /* \"contracts/PermittedNFTsAndTypeRegistry.sol\":8846:8912  require(_nftContract != address(0), \"nftContract is zero address\") */\ntag_48:\n    /* \"contracts/PermittedNFTsAndTypeRegistry.sol\":8922:8940  bytes32 nftTypeKey */\n  0x00\n    /* \"contracts/PermittedNFTsAndTypeRegistry.sol\":8943:8984  ContractKeys.getIdFromStringKey(_nftType) */\n  tag_51\n    /* \"contracts/PermittedNFTsAndTypeRegistry.sol\":8975:8983  _nftType */\n  dup3\n    /* \"contracts/PermittedNFTsAndTypeRegistry.sol\":8943:8974  ContractKeys.getIdFromStringKey */\n  or(tag_0_56, shl(0x20, tag_46))\n    /* \"contracts/PermittedNFTsAndTypeRegistry.sol\":8943:8984  ContractKeys.getIdFromStringKey(_nftType) */\n  0x20\n  shr\n  jump\t// in\ntag_51:\n    /* \"contracts/PermittedNFTsAndTypeRegistry.sol\":8922:8984  bytes32 nftTypeKey = ContractKeys.getIdFromStringKey(_nftType) */\n  swap1\n  pop\n    /* \"contracts/PermittedNFTsAndTypeRegistry.sol\":8999:9014  nftTypeKey != 0 */\n  dup1\n  iszero\n    /* \"contracts/PermittedNFTsAndTypeRegistry.sol\":8995:9120  if (nftTypeKey != 0) {... */\n  tag_55\n  jumpi\n    /* \"contracts/PermittedNFTsAndTypeRegistry.sol\":9079:9080  0 */\n  0x00\n    /* \"contracts/PermittedNFTsAndTypeRegistry.sol\":6846:6864  nftTypes[_nftType] */\n  dup2\n  dup2\n  mstore\n    /* \"contracts/PermittedNFTsAndTypeRegistry.sol\":6846:6854  nftTypes */\n  0x02\n    /* \"contracts/PermittedNFTsAndTypeRegistry.sol\":6846:6864  nftTypes[_nftType] */\n  0x20\n  mstore\n  0x40\n  swap1\n  keccak256\n  sload\n  sub(shl(0xa0, 0x01), 0x01)\n  and\n    /* \"contracts/PermittedNFTsAndTypeRegistry.sol\":9030:9109  require(getNftTypeWrapper(nftTypeKey) != address(0), \"NFT type not registered\") */\n  tag_55\n  jumpi\n  mload(0x40)\n  shl(0xe5, 0x461bcd)\n  dup2\n  mstore\n    /* \"#utility.yul\":5489:5491   */\n  0x20\n    /* \"contracts/PermittedNFTsAndTypeRegistry.sol\":9030:9109  require(getNftTypeWrapper(nftTypeKey) != address(0), \"NFT type not registered\") */\n  0x04\n  dup3\n  add\n    /* \"#utility.yul\":5471:5492   */\n  mstore\n    /* \"#utility.yul\":5528:5530   */\n  0x17\n    /* \"#utility.yul\":5508:5526   */\n  0x24\n  dup3\n  add\n    /* \"#utility.yul\":5501:5531   */\n  mstore\n    /* \"#utility.yul\":5567:5592   */\n  0x4e46542074797065206e6f742072656769737465726564000000000000000000\n    /* \"#utility.yul\":5547:5565   */\n  0x44\n  dup3\n  add\n    /* \"#utility.yul\":5540:5593   */\n  mstore\n    /* \"#utility.yul\":5610:5628   */\n  0x64\n  add\n    /* \"contracts/PermittedNFTsAndTypeRegistry.sol\":9030:9109  require(getNftTypeWrapper(nftTypeKey) != address(0), \"NFT type not registered\") */\n  tag_18\n    /* \"#utility.yul\":5461:5634   */\n  jump\n    /* \"contracts/PermittedNFTsAndTypeRegistry.sol\":9030:9109  require(getNftTypeWrapper(nftTypeKey) != address(0), \"NFT type not registered\") */\ntag_55:\n    /* \"contracts/PermittedNFTsAndTypeRegistry.sol\":9179:9247  ContractKeys.getIdFromStringKey(ContractKeys.AIRDROP_WRAPPER_STRING) */\n  tag_58\n    /* \"contracts/PermittedNFTsAndTypeRegistry.sol\":9211:9246  ContractKeys.AIRDROP_WRAPPER_STRING */\n  mload(0x40)\n  dup1\n  0x40\n  add\n  0x40\n  mstore\n  dup1\n  0x0e\n  dup2\n  mstore\n  0x20\n  add\n  shl(0x91, 0x20b4b9323937b82bb930b83832b9)\n  dup2\n  mstore\n  pop\n    /* \"contracts/PermittedNFTsAndTypeRegistry.sol\":9179:9210  ContractKeys.getIdFromStringKey */\n  or(tag_0_56, shl(0x20, tag_46))\n    /* \"contracts/PermittedNFTsAndTypeRegistry.sol\":9179:9247  ContractKeys.getIdFromStringKey(ContractKeys.AIRDROP_WRAPPER_STRING) */\n  0x20\n  shr\n  jump\t// in\ntag_58:\n  sub(shl(0xa0, 0x01), 0x01)\n    /* \"contracts/PermittedNFTsAndTypeRegistry.sol\":9151:9175  nftPermits[_nftContract] */\n  dup5\n  and\n  0x00\n  swap1\n  dup2\n  mstore\n    /* \"contracts/PermittedNFTsAndTypeRegistry.sol\":9151:9161  nftPermits */\n  0x03\n    /* \"contracts/PermittedNFTsAndTypeRegistry.sol\":9151:9175  nftPermits[_nftContract] */\n  0x20\n  mstore\n  0x40\n  swap1\n  keccak256\n  sload\n    /* \"contracts/PermittedNFTsAndTypeRegistry.sol\":9151:9247  nftPermits[_nftContract] != ContractKeys.getIdFromStringKey(ContractKeys.AIRDROP_WRAPPER_STRING) */\n  eq\n  iszero\n    /* \"contracts/PermittedNFTsAndTypeRegistry.sol\":9130:9305  require(... */\n  tag_59\n  jumpi\n  mload(0x40)\n  shl(0xe5, 0x461bcd)\n  dup2\n  mstore\n    /* \"#utility.yul\":4783:4785   */\n  0x20\n    /* \"contracts/PermittedNFTsAndTypeRegistry.sol\":9130:9305  require(... */\n  0x04\n  dup3\n  add\n    /* \"#utility.yul\":4765:4786   */\n  dup2\n  swap1\n  mstore\n    /* \"#utility.yul\":4802:4820   */\n  0x24\n  dup3\n  add\n    /* \"#utility.yul\":4795:4825   */\n  mstore\n    /* \"#utility.yul\":4861:4895   */\n  0x41697264726f70577261707065722063616e2774206265206d6f646966696564\n    /* \"#utility.yul\":4841:4859   */\n  0x44\n  dup3\n  add\n    /* \"#utility.yul\":4834:4896   */\n  mstore\n    /* \"#utility.yul\":4913:4931   */\n  0x64\n  add\n    /* \"contracts/PermittedNFTsAndTypeRegistry.sol\":9130:9305  require(... */\n  tag_18\n    /* \"#utility.yul\":4755:4937   */\n  jump\n    /* \"contracts/PermittedNFTsAndTypeRegistry.sol\":9130:9305  require(... */\ntag_59:\n  sub(shl(0xa0, 0x01), 0x01)\n    /* \"contracts/PermittedNFTsAndTypeRegistry.sol\":9315:9339  nftPermits[_nftContract] */\n  dup4\n  and\n  0x00\n  dup2\n  dup2\n  mstore\n    /* \"contracts/PermittedNFTsAndTypeRegistry.sol\":9315:9325  nftPermits */\n  0x03\n    /* \"contracts/PermittedNFTsAndTypeRegistry.sol\":9315:9339  nftPermits[_nftContract] */\n  0x20\n  mstore\n  0x40\n  dup1\n  dup3\n  keccak256\n    /* \"contracts/PermittedNFTsAndTypeRegistry.sol\":9315:9352  nftPermits[_nftContract] = nftTypeKey */\n  dup5\n  swap1\n  sstore\n    /* \"contracts/PermittedNFTsAndTypeRegistry.sol\":9367:9402  NFTPermit(_nftContract, nftTypeKey) */\n  mload\n    /* \"contracts/PermittedNFTsAndTypeRegistry.sol\":9342:9352  nftTypeKey */\n  dup4\n  swap3\n    /* \"contracts/PermittedNFTsAndTypeRegistry.sol\":9315:9339  nftPermits[_nftContract] */\n  swap2\n    /* \"contracts/PermittedNFTsAndTypeRegistry.sol\":9367:9402  NFTPermit(_nftContract, nftTypeKey) */\n  0x903a211c8bcdc0ab18afc116fc4776504a9aac5c0121be0fda712d399017bd22\n  swap2\n  log3\n    /* \"contracts/PermittedNFTsAndTypeRegistry.sol\":8758:9409  function _setNFTPermit(address _nftContract, string memory _nftType) internal {... */\n  pop\n  pop\n  pop\n  jump\t// out\n    /* \"contracts/utils/ContractKeys.sol\":1365:1638  function getIdFromStringKey(string memory _key) internal pure returns (bytes32 id) {... */\ntag_46:\n    /* \"contracts/utils/ContractKeys.sol\":1436:1446  bytes32 id */\n  0x00\n    /* \"contracts/utils/ContractKeys.sol\":1488:1490  32 */\n  0x20\n    /* \"contracts/utils/ContractKeys.sol\":1472:1476  _key */\n  dup3\n    /* \"contracts/utils/ContractKeys.sol\":1466:1484  bytes(_key).length */\n  mload\n    /* \"contracts/utils/ContractKeys.sol\":1466:1490  bytes(_key).length <= 32 */\n  gt\n  iszero\n    /* \"contracts/utils/ContractKeys.sol\":1458:1506  require(bytes(_key).length <= 32, \"invalid key\") */\n  tag_63\n  jumpi\n  mload(0x40)\n  shl(0xe5, 0x461bcd)\n  dup2\n  mstore\n    /* \"#utility.yul\":6259:6261   */\n  0x20\n    /* \"contracts/utils/ContractKeys.sol\":1458:1506  require(bytes(_key).length <= 32, \"invalid key\") */\n  0x04\n  dup3\n  add\n    /* \"#utility.yul\":6241:6262   */\n  mstore\n    /* \"#utility.yul\":6298:6300   */\n  0x0b\n    /* \"#utility.yul\":6278:6296   */\n  0x24\n  dup3\n  add\n    /* \"#utility.yul\":6271:6301   */\n  mstore\n  shl(0xa8, 0x696e76616c6964206b6579)\n    /* \"#utility.yul\":6317:6335   */\n  0x44\n  dup3\n  add\n    /* \"#utility.yul\":6310:6351   */\n  mstore\n    /* \"#utility.yul\":6368:6386   */\n  0x64\n  add\n    /* \"contracts/utils/ContractKeys.sol\":1458:1506  require(bytes(_key).length <= 32, \"invalid key\") */\n  tag_18\n    /* \"#utility.yul\":6231:6392   */\n  jump\n    /* \"contracts/utils/ContractKeys.sol\":1458:1506  require(bytes(_key).length <= 32, \"invalid key\") */\ntag_63:\n  pop\n    /* \"contracts/utils/ContractKeys.sol\":1618:1620  32 */\n  0x20\n    /* \"contracts/utils/ContractKeys.sol\":1608:1621  add(_key, 32) */\n  add\n    /* \"contracts/utils/ContractKeys.sol\":1602:1622  mload(add(_key, 32)) */\n  mload\n  swap1\n    /* \"contracts/utils/ContractKeys.sol\":1582:1632  {... */\n  jump\t// out\n    /* \"#utility.yul\":14:191   */\ntag_68:\n    /* \"#utility.yul\":93:106   */\n  dup1\n  mload\n  sub(shl(0xa0, 0x01), 0x01)\n    /* \"#utility.yul\":135:166   */\n  dup2\n  and\n    /* \"#utility.yul\":125:167   */\n  dup2\n  eq\n    /* \"#utility.yul\":115:117   */\n  tag_70\n  jumpi\n    /* \"#utility.yul\":181:182   */\n  0x00\n    /* \"#utility.yul\":178:179   */\n  dup1\n    /* \"#utility.yul\":171:183   */\n  revert\n    /* \"#utility.yul\":115:117   */\ntag_70:\n    /* \"#utility.yul\":74:191   */\n  swap2\n  swap1\n  pop\n  jump\t// out\n    /* \"#utility.yul\":196:910   */\ntag_71:\n    /* \"#utility.yul\":261:266   */\n  0x00\n    /* \"#utility.yul\":314:317   */\n  dup3\n    /* \"#utility.yul\":307:311   */\n  0x1f\n    /* \"#utility.yul\":299:305   */\n  dup4\n    /* \"#utility.yul\":295:312   */\n  add\n    /* \"#utility.yul\":291:318   */\n  slt\n    /* \"#utility.yul\":281:283   */\n  tag_73\n  jumpi\n    /* \"#utility.yul\":336:341   */\n  dup1\n    /* \"#utility.yul\":329:334   */\n  dup2\n    /* \"#utility.yul\":322:342   */\n  revert\n    /* \"#utility.yul\":281:283   */\ntag_73:\n    /* \"#utility.yul\":369:375   */\n  dup2\n    /* \"#utility.yul\":363:376   */\n  mload\n    /* \"#utility.yul\":395:399   */\n  0x20\n    /* \"#utility.yul\":419:479   */\n  tag_74\n    /* \"#utility.yul\":435:478   */\n  tag_75\n    /* \"#utility.yul\":475:477   */\n  dup4\n    /* \"#utility.yul\":435:478   */\n  tag_76\n  jump\t// in\ntag_75:\n    /* \"#utility.yul\":419:479   */\n  tag_77\n  jump\t// in\ntag_74:\n    /* \"#utility.yul\":501:504   */\n  dup1\n    /* \"#utility.yul\":525:527   */\n  dup4\n    /* \"#utility.yul\":520:523   */\n  dup3\n    /* \"#utility.yul\":513:528   */\n  mstore\n    /* \"#utility.yul\":553:555   */\n  dup3\n    /* \"#utility.yul\":548:551   */\n  dup3\n    /* \"#utility.yul\":544:556   */\n  add\n    /* \"#utility.yul\":537:556   */\n  swap2\n  pop\n    /* \"#utility.yul\":588:590   */\n  dup3\n    /* \"#utility.yul\":580:586   */\n  dup7\n    /* \"#utility.yul\":576:591   */\n  add\n    /* \"#utility.yul\":640:643   */\n  dup8\n    /* \"#utility.yul\":635:637   */\n  dup5\n    /* \"#utility.yul\":629:631   */\n  dup7\n    /* \"#utility.yul\":626:627   */\n  0x05\n    /* \"#utility.yul\":622:632   */\n  shl\n    /* \"#utility.yul\":614:620   */\n  dup10\n    /* \"#utility.yul\":610:633   */\n  add\n    /* \"#utility.yul\":606:638   */\n  add\n    /* \"#utility.yul\":603:644   */\n  gt\n    /* \"#utility.yul\":600:602   */\n  iszero\n  tag_78\n  jumpi\n    /* \"#utility.yul\":661:666   */\n  dup6\n    /* \"#utility.yul\":654:659   */\n  dup7\n    /* \"#utility.yul\":647:667   */\n  revert\n    /* \"#utility.yul\":600:602   */\ntag_78:\n    /* \"#utility.yul\":687:692   */\n  dup6\n    /* \"#utility.yul\":701:881   */\ntag_79:\n    /* \"#utility.yul\":715:717   */\n  dup6\n    /* \"#utility.yul\":712:713   */\n  dup2\n    /* \"#utility.yul\":709:718   */\n  lt\n    /* \"#utility.yul\":701:881   */\n  iszero\n  tag_81\n  jumpi\n    /* \"#utility.yul\":772:806   */\n  tag_82\n    /* \"#utility.yul\":802:805   */\n  dup3\n    /* \"#utility.yul\":772:806   */\n  tag_68\n  jump\t// in\ntag_82:\n    /* \"#utility.yul\":760:807   */\n  dup5\n  mstore\n    /* \"#utility.yul\":827:839   */\n  swap3\n  dup5\n  add\n  swap3\n    /* \"#utility.yul\":859:871   */\n  swap1\n  dup5\n  add\n  swap1\n    /* \"#utility.yul\":733:734   */\n  0x01\n    /* \"#utility.yul\":726:735   */\n  add\n    /* \"#utility.yul\":701:881   */\n  jump(tag_79)\ntag_81:\n  pop\n    /* \"#utility.yul\":899:904   */\n  swap1\n  swap8\n    /* \"#utility.yul\":271:910   */\n  swap7\n  pop\n  pop\n  pop\n  pop\n  pop\n  pop\n  pop\n  jump\t// out\n    /* \"#utility.yul\":915:2484   */\ntag_83:\n    /* \"#utility.yul\":979:984   */\n  0x00\n    /* \"#utility.yul\":1009:1013   */\n  0x1f\n    /* \"#utility.yul\":1053:1056   */\n  dup4\n    /* \"#utility.yul\":1048:1050   */\n  dup2\n    /* \"#utility.yul\":1040:1046   */\n  dup5\n    /* \"#utility.yul\":1036:1051   */\n  add\n    /* \"#utility.yul\":1032:1057   */\n  slt\n    /* \"#utility.yul\":1022:1024   */\n  tag_85\n  jumpi\n    /* \"#utility.yul\":1075:1080   */\n  dup2\n    /* \"#utility.yul\":1068:1073   */\n  dup3\n    /* \"#utility.yul\":1061:1081   */\n  revert\n    /* \"#utility.yul\":1022:1024   */\ntag_85:\n    /* \"#utility.yul\":1108:1114   */\n  dup3\n    /* \"#utility.yul\":1102:1115   */\n  mload\n    /* \"#utility.yul\":1134:1138   */\n  0x20\n    /* \"#utility.yul\":1158:1218   */\n  tag_86\n    /* \"#utility.yul\":1174:1217   */\n  tag_75\n    /* \"#utility.yul\":1214:1216   */\n  dup4\n    /* \"#utility.yul\":1174:1217   */\n  tag_76\n  jump\t// in\n    /* \"#utility.yul\":1158:1218   */\ntag_86:\n    /* \"#utility.yul\":1240:1243   */\n  dup1\n    /* \"#utility.yul\":1264:1266   */\n  dup4\n    /* \"#utility.yul\":1259:1262   */\n  dup3\n    /* \"#utility.yul\":1252:1267   */\n  mstore\n    /* \"#utility.yul\":1292:1294   */\n  dup3\n    /* \"#utility.yul\":1287:1290   */\n  dup3\n    /* \"#utility.yul\":1283:1295   */\n  add\n    /* \"#utility.yul\":1276:1295   */\n  swap2\n  pop\n    /* \"#utility.yul\":1327:1329   */\n  dup3\n    /* \"#utility.yul\":1319:1325   */\n  dup8\n    /* \"#utility.yul\":1315:1330   */\n  add\n    /* \"#utility.yul\":1379:1382   */\n  dup9\n    /* \"#utility.yul\":1374:1376   */\n  dup5\n    /* \"#utility.yul\":1368:1370   */\n  dup7\n    /* \"#utility.yul\":1365:1366   */\n  0x05\n    /* \"#utility.yul\":1361:1371   */\n  shl\n    /* \"#utility.yul\":1353:1359   */\n  dup11\n    /* \"#utility.yul\":1349:1372   */\n  add\n    /* \"#utility.yul\":1345:1377   */\n  add\n    /* \"#utility.yul\":1342:1383   */\n  gt\n    /* \"#utility.yul\":1339:1341   */\n  iszero\n  tag_88\n  jumpi\n    /* \"#utility.yul\":1400:1405   */\n  dup7\n    /* \"#utility.yul\":1393:1398   */\n  dup8\n    /* \"#utility.yul\":1386:1406   */\n  revert\n    /* \"#utility.yul\":1339:1341   */\ntag_88:\n    /* \"#utility.yul\":1426:1431   */\n  dup7\n    /* \"#utility.yul\":1440:2455   */\ntag_89:\n    /* \"#utility.yul\":1454:1456   */\n  dup6\n    /* \"#utility.yul\":1451:1452   */\n  dup2\n    /* \"#utility.yul\":1448:1457   */\n  lt\n    /* \"#utility.yul\":1440:2455   */\n  iszero\n  tag_91\n  jumpi\n    /* \"#utility.yul\":1518:1528   */\n  dup2\n  mload\n  sub(shl(0x40, 0x01), 0x01)\n    /* \"#utility.yul\":1585:1604   */\n  dup1\n  dup3\n  gt\n    /* \"#utility.yul\":1582:1584   */\n  iszero\n  tag_92\n  jumpi\n    /* \"#utility.yul\":1621:1626   */\n  dup10\n    /* \"#utility.yul\":1614:1619   */\n  dup11\n    /* \"#utility.yul\":1607:1627   */\n  revert\n    /* \"#utility.yul\":1582:1584   */\ntag_92:\n    /* \"#utility.yul\":1664:1675   */\n  dup2\n    /* \"#utility.yul\":1656:1662   */\n  dup12\n    /* \"#utility.yul\":1652:1676   */\n  add\n    /* \"#utility.yul\":1642:1676   */\n  swap2\n  pop\n    /* \"#utility.yul\":1716:1719   */\n  dup12\n    /* \"#utility.yul\":1711:1713   */\n  0x3f\n    /* \"#utility.yul\":1707:1709   */\n  dup4\n    /* \"#utility.yul\":1703:1714   */\n  add\n    /* \"#utility.yul\":1699:1720   */\n  slt\n    /* \"#utility.yul\":1689:1691   */\n  tag_93\n  jumpi\n    /* \"#utility.yul\":1738:1743   */\n  dup10\n    /* \"#utility.yul\":1731:1736   */\n  dup11\n    /* \"#utility.yul\":1724:1744   */\n  revert\n    /* \"#utility.yul\":1689:1691   */\ntag_93:\n    /* \"#utility.yul\":1783:1785   */\n  dup7\n    /* \"#utility.yul\":1779:1781   */\n  dup3\n    /* \"#utility.yul\":1775:1786   */\n  add\n    /* \"#utility.yul\":1769:1787   */\n  mload\n    /* \"#utility.yul\":1810:1812   */\n  dup2\n    /* \"#utility.yul\":1806:1808   */\n  dup2\n    /* \"#utility.yul\":1803:1813   */\n  gt\n    /* \"#utility.yul\":1800:1802   */\n  iszero\n  tag_95\n  jumpi\n    /* \"#utility.yul\":1816:1834   */\n  tag_95\n  tag_96\n  jump\t// in\ntag_95:\n    /* \"#utility.yul\":1864:1915   */\n  tag_97\n    /* \"#utility.yul\":1888:1899   */\n  dup2\n  dup12\n  add\n  not(0x1f)\n    /* \"#utility.yul\":1884:1909   */\n  and\n    /* \"#utility.yul\":1880:1914   */\n  dup10\n  add\n    /* \"#utility.yul\":1864:1915   */\n  tag_77\n  jump\t// in\ntag_97:\n    /* \"#utility.yul\":1849:1915   */\n  swap2\n  pop\n    /* \"#utility.yul\":1944:1946   */\n  dup1\n    /* \"#utility.yul\":1935:1942   */\n  dup3\n    /* \"#utility.yul\":1928:1947   */\n  mstore\n    /* \"#utility.yul\":1970:1972   */\n  0x40\n    /* \"#utility.yul\":2013:2016   */\n  dup14\n    /* \"#utility.yul\":2008:2010   */\n  dup2\n    /* \"#utility.yul\":2003:2005   */\n  dup4\n    /* \"#utility.yul\":1999:2001   */\n  dup7\n    /* \"#utility.yul\":1995:2006   */\n  add\n    /* \"#utility.yul\":1991:2011   */\n  add\n    /* \"#utility.yul\":1988:2017   */\n  gt\n    /* \"#utility.yul\":1985:1987   */\n  iszero\n  tag_98\n  jumpi\n    /* \"#utility.yul\":2034:2039   */\n  dup12\n    /* \"#utility.yul\":2027:2032   */\n  dup13\n    /* \"#utility.yul\":2020:2040   */\n  revert\n    /* \"#utility.yul\":1985:1987   */\ntag_98:\n    /* \"#utility.yul\":2066:2071   */\n  dup12\n    /* \"#utility.yul\":2084:2236   */\ntag_99:\n    /* \"#utility.yul\":2100:2102   */\n  dup3\n    /* \"#utility.yul\":2095:2098   */\n  dup2\n    /* \"#utility.yul\":2092:2103   */\n  lt\n    /* \"#utility.yul\":2084:2236   */\n  iszero\n  tag_101\n  jumpi\n    /* \"#utility.yul\":2203:2215   */\n  dup5\n  dup2\n  add\n    /* \"#utility.yul\":2199:2220   */\n  dup3\n  add\n    /* \"#utility.yul\":2193:2221   */\n  mload\n    /* \"#utility.yul\":2169:2186   */\n  dup5\n  dup3\n  add\n    /* \"#utility.yul\":2165:2191   */\n  dup12\n  add\n    /* \"#utility.yul\":2158:2222   */\n  mstore\n    /* \"#utility.yul\":2113:2125   */\n  dup10\n  add\n    /* \"#utility.yul\":2084:2236   */\n  jump(tag_99)\ntag_101:\n    /* \"#utility.yul\":2260:2262   */\n  dup3\n    /* \"#utility.yul\":2255:2258   */\n  dup2\n    /* \"#utility.yul\":2252:2263   */\n  gt\n    /* \"#utility.yul\":2249:2251   */\n  iszero\n  tag_102\n  jumpi\n    /* \"#utility.yul\":2328:2333   */\n  dup13\n    /* \"#utility.yul\":2323:2325   */\n  dup11\n    /* \"#utility.yul\":2318:2320   */\n  dup5\n    /* \"#utility.yul\":2309:2316   */\n  dup7\n    /* \"#utility.yul\":2305:2321   */\n  add\n    /* \"#utility.yul\":2301:2326   */\n  add\n    /* \"#utility.yul\":2294:2334   */\n  mstore\n    /* \"#utility.yul\":2249:2251   */\ntag_102:\n  pop\n  pop\n  pop\n    /* \"#utility.yul\":2361:2381   */\n  dup6\n  mstore\n  pop\n    /* \"#utility.yul\":2401:2413   */\n  swap3\n  dup5\n  add\n  swap3\n    /* \"#utility.yul\":2433:2445   */\n  swap1\n  dup5\n  add\n  swap1\n    /* \"#utility.yul\":1472:1473   */\n  0x01\n    /* \"#utility.yul\":1465:1474   */\n  add\n    /* \"#utility.yul\":1440:2455   */\n  jump(tag_89)\ntag_91:\n  pop\n    /* \"#utility.yul\":2473:2478   */\n  swap1\n  swap9\n    /* \"#utility.yul\":989:2484   */\n  swap8\n  pop\n  pop\n  pop\n  pop\n  pop\n  pop\n  pop\n  pop\n  jump\t// out\n    /* \"#utility.yul\":2489:3804   */\ntag_3:\n    /* \"#utility.yul\":2724:2730   */\n  0x00\n    /* \"#utility.yul\":2732:2738   */\n  dup1\n    /* \"#utility.yul\":2740:2746   */\n  0x00\n    /* \"#utility.yul\":2748:2754   */\n  dup1\n    /* \"#utility.yul\":2756:2762   */\n  0x00\n    /* \"#utility.yul\":2764:2770   */\n  dup1\n    /* \"#utility.yul\":2817:2820   */\n  0xc0\n    /* \"#utility.yul\":2805:2814   */\n  dup8\n    /* \"#utility.yul\":2796:2803   */\n  dup10\n    /* \"#utility.yul\":2792:2815   */\n  sub\n    /* \"#utility.yul\":2788:2821   */\n  slt\n    /* \"#utility.yul\":2785:2787   */\n  iszero\n  tag_104\n  jumpi\n    /* \"#utility.yul\":2839:2845   */\n  dup2\n    /* \"#utility.yul\":2831:2837   */\n  dup3\n    /* \"#utility.yul\":2824:2846   */\n  revert\n    /* \"#utility.yul\":2785:2787   */\ntag_104:\n    /* \"#utility.yul\":2867:2907   */\n  tag_105\n    /* \"#utility.yul\":2897:2906   */\n  dup8\n    /* \"#utility.yul\":2867:2907   */\n  tag_68\n  jump\t// in\ntag_105:\n    /* \"#utility.yul\":2857:2907   */\n  swap6\n  pop\n    /* \"#utility.yul\":2926:2975   */\n  tag_106\n    /* \"#utility.yul\":2971:2973   */\n  0x20\n    /* \"#utility.yul\":2960:2969   */\n  dup9\n    /* \"#utility.yul\":2956:2974   */\n  add\n    /* \"#utility.yul\":2926:2975   */\n  tag_68\n  jump\t// in\ntag_106:\n    /* \"#utility.yul\":3019:3021   */\n  0x40\n    /* \"#utility.yul\":3004:3022   */\n  dup9\n  add\n    /* \"#utility.yul\":2998:3023   */\n  mload\n    /* \"#utility.yul\":2916:2975   */\n  swap1\n  swap6\n  pop\n  sub(shl(0x40, 0x01), 0x01)\n    /* \"#utility.yul\":3072:3086   */\n  dup1\n  dup3\n  gt\n    /* \"#utility.yul\":3069:3071   */\n  iszero\n  tag_107\n  jumpi\n    /* \"#utility.yul\":3104:3110   */\n  dup4\n    /* \"#utility.yul\":3096:3102   */\n  dup5\n    /* \"#utility.yul\":3089:3111   */\n  revert\n    /* \"#utility.yul\":3069:3071   */\ntag_107:\n    /* \"#utility.yul\":3132:3203   */\n  tag_108\n    /* \"#utility.yul\":3195:3202   */\n  dup11\n    /* \"#utility.yul\":3186:3192   */\n  dup4\n    /* \"#utility.yul\":3175:3184   */\n  dup12\n    /* \"#utility.yul\":3171:3193   */\n  add\n    /* \"#utility.yul\":3132:3203   */\n  tag_83\n  jump\t// in\ntag_108:\n    /* \"#utility.yul\":3122:3203   */\n  swap6\n  pop\n    /* \"#utility.yul\":3249:3251   */\n  0x60\n    /* \"#utility.yul\":3238:3247   */\n  dup10\n    /* \"#utility.yul\":3234:3252   */\n  add\n    /* \"#utility.yul\":3228:3253   */\n  mload\n    /* \"#utility.yul\":3212:3253   */\n  swap2\n  pop\n    /* \"#utility.yul\":3278:3280   */\n  dup1\n    /* \"#utility.yul\":3268:3276   */\n  dup3\n    /* \"#utility.yul\":3265:3281   */\n  gt\n    /* \"#utility.yul\":3262:3264   */\n  iszero\n  tag_109\n  jumpi\n    /* \"#utility.yul\":3299:3305   */\n  dup4\n    /* \"#utility.yul\":3291:3297   */\n  dup5\n    /* \"#utility.yul\":3284:3306   */\n  revert\n    /* \"#utility.yul\":3262:3264   */\ntag_109:\n    /* \"#utility.yul\":3327:3401   */\n  tag_110\n    /* \"#utility.yul\":3393:3400   */\n  dup11\n    /* \"#utility.yul\":3382:3390   */\n  dup4\n    /* \"#utility.yul\":3371:3380   */\n  dup12\n    /* \"#utility.yul\":3367:3391   */\n  add\n    /* \"#utility.yul\":3327:3401   */\n  tag_71\n  jump\t// in\ntag_110:\n    /* \"#utility.yul\":3317:3401   */\n  swap5\n  pop\n    /* \"#utility.yul\":3447:3450   */\n  0x80\n    /* \"#utility.yul\":3436:3445   */\n  dup10\n    /* \"#utility.yul\":3432:3451   */\n  add\n    /* \"#utility.yul\":3426:3452   */\n  mload\n    /* \"#utility.yul\":3410:3452   */\n  swap2\n  pop\n    /* \"#utility.yul\":3477:3479   */\n  dup1\n    /* \"#utility.yul\":3467:3475   */\n  dup3\n    /* \"#utility.yul\":3464:3480   */\n  gt\n    /* \"#utility.yul\":3461:3463   */\n  iszero\n  tag_111\n  jumpi\n    /* \"#utility.yul\":3498:3504   */\n  dup4\n    /* \"#utility.yul\":3490:3496   */\n  dup5\n    /* \"#utility.yul\":3483:3505   */\n  revert\n    /* \"#utility.yul\":3461:3463   */\ntag_111:\n    /* \"#utility.yul\":3526:3600   */\n  tag_112\n    /* \"#utility.yul\":3592:3599   */\n  dup11\n    /* \"#utility.yul\":3581:3589   */\n  dup4\n    /* \"#utility.yul\":3570:3579   */\n  dup12\n    /* \"#utility.yul\":3566:3590   */\n  add\n    /* \"#utility.yul\":3526:3600   */\n  tag_71\n  jump\t// in\ntag_112:\n    /* \"#utility.yul\":3516:3600   */\n  swap4\n  pop\n    /* \"#utility.yul\":3646:3649   */\n  0xa0\n    /* \"#utility.yul\":3635:3644   */\n  dup10\n    /* \"#utility.yul\":3631:3650   */\n  add\n    /* \"#utility.yul\":3625:3651   */\n  mload\n    /* \"#utility.yul\":3609:3651   */\n  swap2\n  pop\n    /* \"#utility.yul\":3676:3678   */\n  dup1\n    /* \"#utility.yul\":3666:3674   */\n  dup3\n    /* \"#utility.yul\":3663:3679   */\n  gt\n    /* \"#utility.yul\":3660:3662   */\n  iszero\n  tag_113\n  jumpi\n    /* \"#utility.yul\":3697:3703   */\n  dup3\n    /* \"#utility.yul\":3689:3695   */\n  dup4\n    /* \"#utility.yul\":3682:3704   */\n  revert\n    /* \"#utility.yul\":3660:3662   */\ntag_113:\n  pop\n    /* \"#utility.yul\":3725:3798   */\n  tag_114\n    /* \"#utility.yul\":3790:3797   */\n  dup10\n    /* \"#utility.yul\":3779:3787   */\n  dup3\n    /* \"#utility.yul\":3768:3777   */\n  dup11\n    /* \"#utility.yul\":3764:3788   */\n  add\n    /* \"#utility.yul\":3725:3798   */\n  tag_83\n  jump\t// in\ntag_114:\n    /* \"#utility.yul\":3715:3798   */\n  swap2\n  pop\n  pop\n    /* \"#utility.yul\":2775:3804   */\n  swap3\n  swap6\n  pop\n  swap3\n  swap6\n  pop\n  swap3\n  swap6\n  jump\t// out\n    /* \"#utility.yul\":6397:6672   */\ntag_77:\n    /* \"#utility.yul\":6468:6470   */\n  0x40\n    /* \"#utility.yul\":6462:6471   */\n  mload\n    /* \"#utility.yul\":6533:6535   */\n  0x1f\n    /* \"#utility.yul\":6514:6527   */\n  dup3\n  add\n  not(0x1f)\n    /* \"#utility.yul\":6510:6537   */\n  and\n    /* \"#utility.yul\":6498:6538   */\n  dup2\n  add\n  sub(shl(0x40, 0x01), 0x01)\n    /* \"#utility.yul\":6553:6587   */\n  dup2\n  gt\n    /* \"#utility.yul\":6589:6611   */\n  dup3\n  dup3\n  lt\n    /* \"#utility.yul\":6550:6612   */\n  or\n    /* \"#utility.yul\":6547:6549   */\n  iszero\n  tag_124\n  jumpi\n    /* \"#utility.yul\":6615:6633   */\n  tag_124\n  tag_96\n  jump\t// in\ntag_124:\n    /* \"#utility.yul\":6651:6653   */\n  0x40\n    /* \"#utility.yul\":6644:6666   */\n  mstore\n    /* \"#utility.yul\":6442:6672   */\n  swap2\n  swap1\n  pop\n  jump\t// out\n    /* \"#utility.yul\":6677:6860   */\ntag_76:\n    /* \"#utility.yul\":6737:6741   */\n  0x00\n  sub(shl(0x40, 0x01), 0x01)\n    /* \"#utility.yul\":6759:6789   */\n  dup3\n  gt\n    /* \"#utility.yul\":6756:6758   */\n  iszero\n  tag_127\n  jumpi\n    /* \"#utility.yul\":6792:6810   */\n  tag_127\n  tag_96\n  jump\t// in\ntag_127:\n  pop\n    /* \"#utility.yul\":6837:6838   */\n  0x05\n    /* \"#utility.yul\":6833:6847   */\n  shl\n    /* \"#utility.yul\":6849:6853   */\n  0x20\n    /* \"#utility.yul\":6829:6854   */\n  add\n  swap1\n    /* \"#utility.yul\":6746:6860   */\n  jump\t// out\n    /* \"#utility.yul\":6865:7101   */\ntag_28:\n    /* \"#utility.yul\":6904:6907   */\n  0x00\n  not(0x00)\n    /* \"#utility.yul\":6925:6942   */\n  dup3\n  eq\n    /* \"#utility.yul\":6922:6924   */\n  iszero\n  tag_129\n  jumpi\n  shl(0xe0, 0x4e487b71)\n    /* \"#utility.yul\":6965:6998   */\n  dup2\n  mstore\n    /* \"#utility.yul\":7021:7025   */\n  0x11\n    /* \"#utility.yul\":7018:7019   */\n  0x04\n    /* \"#utility.yul\":7011:7026   */\n  mstore\n    /* \"#utility.yul\":7051:7055   */\n  0x24\n    /* \"#utility.yul\":6972:6975   */\n  dup2\n    /* \"#utility.yul\":7039:7056   */\n  revert\n    /* \"#utility.yul\":6922:6924   */\ntag_129:\n  pop\n    /* \"#utility.yul\":7093:7094   */\n  0x01\n    /* \"#utility.yul\":7082:7095   */\n  add\n  swap1\n    /* \"#utility.yul\":6912:7101   */\n  jump\t// out\n    /* \"#utility.yul\":7106:7233   */\ntag_96:\n    /* \"#utility.yul\":7167:7177   */\n  0x4e487b71\n    /* \"#utility.yul\":7162:7165   */\n  0xe0\n    /* \"#utility.yul\":7158:7178   */\n  shl\n    /* \"#utility.yul\":7155:7156   */\n  0x00\n    /* \"#utility.yul\":7148:7179   */\n  mstore\n    /* \"#utility.yul\":7198:7202   */\n  0x41\n    /* \"#utility.yul\":7195:7196   */\n  0x04\n    /* \"#utility.yul\":7188:7203   */\n  mstore\n    /* \"#utility.yul\":7222:7226   */\n  0x24\n    /* \"#utility.yul\":7219:7220   */\n  0x00\n    /* \"#utility.yul\":7212:7227   */\n  revert\n    /* \"#utility.yul\":7138:7233   */\ntag_67:\n    /* \"contracts/PermittedNFTsAndTypeRegistry.sol\":416:10182  contract PermittedNFTsAndTypeRegistry is Ownable, IPermittedNFTs {... */\n  dataSize(sub_0)\n  dup1\n  dataOffset(sub_0)\n  0x00\n  codecopy\n  0x00\n  return\nstop\n\nsub_0: assembly {\n        /* \"contracts/PermittedNFTsAndTypeRegistry.sol\":416:10182  contract PermittedNFTsAndTypeRegistry is Ownable, IPermittedNFTs {... */\n      mstore(0x40, 0x80)\n      callvalue\n      dup1\n      iszero\n      tag_1\n      jumpi\n      0x00\n      dup1\n      revert\n    tag_1:\n      pop\n      jumpi(tag_2, lt(calldatasize, 0x04))\n      shr(0xe0, calldataload(0x00))\n      dup1\n      0x95244b94\n      gt\n      tag_13\n      jumpi\n      dup1\n      0x95244b94\n      eq\n      tag_8\n      jumpi\n      dup1\n      0xb8c8aff8\n      eq\n      tag_9\n      jumpi\n      dup1\n      0xc88641a2\n      eq\n      tag_10\n      jumpi\n      dup1\n      0xd8e4e93e\n      eq\n      tag_11\n      jumpi\n      dup1\n      0xf2fde38b\n      eq\n      tag_12\n      jumpi\n      0x00\n      dup1\n      revert\n    tag_13:\n      dup1\n      0x0a21cc43\n      eq\n      tag_3\n      jumpi\n      dup1\n      0x1a3dd0a5\n      eq\n      tag_4\n      jumpi\n      dup1\n      0x365a86fc\n      eq\n      tag_5\n      jumpi\n      dup1\n      0x6651f11d\n      eq\n      tag_6\n      jumpi\n      dup1\n      0x8da5cb5b\n      eq\n      tag_7\n      jumpi\n    tag_2:\n      0x00\n      dup1\n      revert\n        /* \"contracts/PermittedNFTsAndTypeRegistry.sol\":6369:6521  function setNftTypes(string[] memory _nftTypes, address[] memory _nftWrappers) external onlyOwner {... */\n    tag_3:\n      tag_14\n      tag_15\n      calldatasize\n      0x04\n      tag_16\n      jump\t// in\n    tag_15:\n      tag_17\n      jump\t// in\n    tag_14:\n      stop\n        /* \"contracts/PermittedNFTsAndTypeRegistry.sol\":6754:6871  function getNftTypeWrapper(bytes32 _nftType) public view returns (address) {... */\n    tag_4:\n      tag_18\n      tag_19\n      calldatasize\n      0x04\n      tag_20\n      jump\t// in\n    tag_19:\n      tag_21\n      jump\t// in\n    tag_18:\n      mload(0x40)\n      sub(shl(0xa0, 0x01), 0x01)\n        /* \"#utility.yul\":5334:5366   */\n      swap1\n      swap2\n      and\n        /* \"#utility.yul\":5316:5367   */\n      dup2\n      mstore\n        /* \"#utility.yul\":5304:5306   */\n      0x20\n        /* \"#utility.yul\":5289:5307   */\n      add\n        /* \"contracts/PermittedNFTsAndTypeRegistry.sol\":6754:6871  function getNftTypeWrapper(bytes32 _nftType) public view returns (address) {... */\n    tag_22:\n      mload(0x40)\n      dup1\n      swap2\n      sub\n      swap1\n      return\n        /* \"contracts/PermittedNFTsAndTypeRegistry.sol\":487:507  INftfiHub public hub */\n    tag_5:\n      sload(0x01)\n      tag_18\n      swap1\n      sub(shl(0xa0, 0x01), 0x01)\n      and\n      dup2\n      jump\n        /* \"contracts/PermittedNFTsAndTypeRegistry.sol\":4918:5051  function getNFTPermit(address _nftContract) external view override returns (bytes32) {... */\n    tag_6:\n      tag_28\n      tag_29\n      calldatasize\n      0x04\n      tag_30\n      jump\t// in\n    tag_29:\n      sub(shl(0xa0, 0x01), 0x01)\n        /* \"contracts/PermittedNFTsAndTypeRegistry.sol\":5020:5044  nftPermits[_nftContract] */\n      and\n        /* \"contracts/PermittedNFTsAndTypeRegistry.sol\":4994:5001  bytes32 */\n      0x00\n        /* \"contracts/PermittedNFTsAndTypeRegistry.sol\":5020:5044  nftPermits[_nftContract] */\n      swap1\n      dup2\n      mstore\n        /* \"contracts/PermittedNFTsAndTypeRegistry.sol\":5020:5030  nftPermits */\n      0x03\n        /* \"contracts/PermittedNFTsAndTypeRegistry.sol\":5020:5044  nftPermits[_nftContract] */\n      0x20\n      mstore\n      0x40\n      swap1\n      keccak256\n      sload\n      swap1\n        /* \"contracts/PermittedNFTsAndTypeRegistry.sol\":4918:5051  function getNFTPermit(address _nftContract) external view override returns (bytes32) {... */\n      jump\n    tag_28:\n      mload(0x40)\n        /* \"#utility.yul\":5524:5549   */\n      swap1\n      dup2\n      mstore\n        /* \"#utility.yul\":5512:5514   */\n      0x20\n        /* \"#utility.yul\":5497:5515   */\n      add\n        /* \"contracts/PermittedNFTsAndTypeRegistry.sol\":4918:5051  function getNFTPermit(address _nftContract) external view override returns (bytes32) {... */\n      tag_22\n        /* \"#utility.yul\":5479:5555   */\n      jump\n        /* \"contracts/utils/Ownable.sol\":1712:1797  function owner() public view virtual returns (address) {... */\n    tag_7:\n      tag_18\n      tag_35\n      jump\t// in\n        /* \"contracts/PermittedNFTsAndTypeRegistry.sol\":4423:4581  function setNFTPermits(address[] memory _nftContracts, string[] memory _nftTypes) external onlyOwner {... */\n    tag_8:\n      tag_14\n      tag_38\n      calldatasize\n      0x04\n      tag_39\n      jump\t// in\n    tag_38:\n      tag_40\n      jump\t// in\n        /* \"contracts/PermittedNFTsAndTypeRegistry.sol\":5274:5462  function getNFTWrapper(address _nftContract) external view override returns (address) {... */\n    tag_9:\n      tag_18\n      tag_42\n      calldatasize\n      0x04\n      tag_30\n      jump\t// in\n    tag_42:\n      tag_43\n      jump\t// in\n        /* \"contracts/PermittedNFTsAndTypeRegistry.sol\":3710:3914  function setNFTPermit(address _nftContract, string memory _nftType)... */\n    tag_10:\n      tag_14\n      tag_46\n      calldatasize\n      0x04\n      tag_47\n      jump\t// in\n    tag_46:\n      tag_48\n      jump\t// in\n        /* \"contracts/PermittedNFTsAndTypeRegistry.sol\":5837:5972  function setNftType(string memory _nftType, address _nftWrapper) external onlyOwner {... */\n    tag_11:\n      tag_14\n      tag_50\n      calldatasize\n      0x04\n      tag_51\n      jump\t// in\n    tag_50:\n      tag_52\n      jump\t// in\n        /* \"contracts/utils/Ownable.sol\":1444:1636  function transferOwnership(address _newOwner) public virtual onlyOwner {... */\n    tag_12:\n      tag_14\n      tag_54\n      calldatasize\n      0x04\n      tag_30\n      jump\t// in\n    tag_54:\n      tag_55\n      jump\t// in\n        /* \"contracts/PermittedNFTsAndTypeRegistry.sol\":6369:6521  function setNftTypes(string[] memory _nftTypes, address[] memory _nftWrappers) external onlyOwner {... */\n    tag_17:\n        /* \"@openzeppelin/contracts/utils/Context.sol\":719:729  msg.sender */\n      caller\n        /* \"contracts/utils/Ownable.sol\":1039:1046  owner() */\n      tag_60\n        /* \"contracts/utils/Ownable.sol\":1039:1044  owner */\n      tag_35\n        /* \"contracts/utils/Ownable.sol\":1039:1046  owner() */\n      jump\t// in\n    tag_60:\n      sub(shl(0xa0, 0x01), 0x01)\n        /* \"contracts/utils/Ownable.sol\":1039:1062  owner() == _msgSender() */\n      and\n      eq\n        /* \"contracts/utils/Ownable.sol\":1031:1099  require(owner() == _msgSender(), \"Ownable: caller is not the owner\") */\n      tag_61\n      jumpi\n      mload(0x40)\n      shl(0xe5, 0x461bcd)\n      dup2\n      mstore\n      0x04\n      add\n      tag_62\n      swap1\n      tag_63\n      jump\t// in\n    tag_62:\n      mload(0x40)\n      dup1\n      swap2\n      sub\n      swap1\n      revert\n    tag_61:\n        /* \"contracts/PermittedNFTsAndTypeRegistry.sol\":6477:6514  _setNftTypes(_nftTypes, _nftWrappers) */\n      tag_65\n        /* \"contracts/PermittedNFTsAndTypeRegistry.sol\":6490:6499  _nftTypes */\n      dup3\n        /* \"contracts/PermittedNFTsAndTypeRegistry.sol\":6501:6513  _nftWrappers */\n      dup3\n        /* \"contracts/PermittedNFTsAndTypeRegistry.sol\":6477:6489  _setNftTypes */\n      tag_66\n        /* \"contracts/PermittedNFTsAndTypeRegistry.sol\":6477:6514  _setNftTypes(_nftTypes, _nftWrappers) */\n      jump\t// in\n    tag_65:\n        /* \"contracts/PermittedNFTsAndTypeRegistry.sol\":6369:6521  function setNftTypes(string[] memory _nftTypes, address[] memory _nftWrappers) external onlyOwner {... */\n      pop\n      pop\n      jump\t// out\n        /* \"contracts/PermittedNFTsAndTypeRegistry.sol\":6754:6871  function getNftTypeWrapper(bytes32 _nftType) public view returns (address) {... */\n    tag_21:\n        /* \"contracts/PermittedNFTsAndTypeRegistry.sol\":6820:6827  address */\n      0x00\n        /* \"contracts/PermittedNFTsAndTypeRegistry.sol\":6846:6864  nftTypes[_nftType] */\n      swap1\n      dup2\n      mstore\n        /* \"contracts/PermittedNFTsAndTypeRegistry.sol\":6846:6854  nftTypes */\n      0x02\n        /* \"contracts/PermittedNFTsAndTypeRegistry.sol\":6846:6864  nftTypes[_nftType] */\n      0x20\n      mstore\n      0x40\n      swap1\n      keccak256\n      sload\n      sub(shl(0xa0, 0x01), 0x01)\n      and\n      swap1\n        /* \"contracts/PermittedNFTsAndTypeRegistry.sol\":6754:6871  function getNftTypeWrapper(bytes32 _nftType) public view returns (address) {... */\n      jump\t// out\n        /* \"contracts/utils/Ownable.sol\":1712:1797  function owner() public view virtual returns (address) {... */\n    tag_35:\n        /* \"contracts/utils/Ownable.sol\":1758:1765  address */\n      0x00\n        /* \"contracts/utils/Ownable.sol\":1784:1790  _owner */\n      sload\n      sub(shl(0xa0, 0x01), 0x01)\n      and\n      swap1\n        /* \"contracts/utils/Ownable.sol\":1712:1797  function owner() public view virtual returns (address) {... */\n      jump\t// out\n        /* \"contracts/PermittedNFTsAndTypeRegistry.sol\":4423:4581  function setNFTPermits(address[] memory _nftContracts, string[] memory _nftTypes) external onlyOwner {... */\n    tag_40:\n        /* \"@openzeppelin/contracts/utils/Context.sol\":719:729  msg.sender */\n      caller\n        /* \"contracts/utils/Ownable.sol\":1039:1046  owner() */\n      tag_72\n        /* \"contracts/utils/Ownable.sol\":1039:1044  owner */\n      tag_35\n        /* \"contracts/utils/Ownable.sol\":1039:1046  owner() */\n      jump\t// in\n    tag_72:\n      sub(shl(0xa0, 0x01), 0x01)\n        /* \"contracts/utils/Ownable.sol\":1039:1062  owner() == _msgSender() */\n      and\n      eq\n        /* \"contracts/utils/Ownable.sol\":1031:1099  require(owner() == _msgSender(), \"Ownable: caller is not the owner\") */\n      tag_73\n      jumpi\n      mload(0x40)\n      shl(0xe5, 0x461bcd)\n      dup2\n      mstore\n      0x04\n      add\n      tag_62\n      swap1\n      tag_63\n      jump\t// in\n    tag_73:\n        /* \"contracts/PermittedNFTsAndTypeRegistry.sol\":4534:4574  _setNFTPermits(_nftContracts, _nftTypes) */\n      tag_65\n        /* \"contracts/PermittedNFTsAndTypeRegistry.sol\":4549:4562  _nftContracts */\n      dup3\n        /* \"contracts/PermittedNFTsAndTypeRegistry.sol\":4564:4573  _nftTypes */\n      dup3\n        /* \"contracts/PermittedNFTsAndTypeRegistry.sol\":4534:4548  _setNFTPermits */\n      tag_77\n        /* \"contracts/PermittedNFTsAndTypeRegistry.sol\":4534:4574  _setNFTPermits(_nftContracts, _nftTypes) */\n      jump\t// in\n        /* \"contracts/PermittedNFTsAndTypeRegistry.sol\":5274:5462  function getNFTWrapper(address _nftContract) external view override returns (address) {... */\n    tag_43:\n      sub(shl(0xa0, 0x01), 0x01)\n        /* \"contracts/PermittedNFTsAndTypeRegistry.sol\":5388:5412  nftPermits[_nftContract] */\n      dup2\n      and\n        /* \"contracts/PermittedNFTsAndTypeRegistry.sol\":5351:5358  address */\n      0x00\n        /* \"contracts/PermittedNFTsAndTypeRegistry.sol\":5388:5412  nftPermits[_nftContract] */\n      swap1\n      dup2\n      mstore\n        /* \"contracts/PermittedNFTsAndTypeRegistry.sol\":5388:5398  nftPermits */\n      0x03\n        /* \"contracts/PermittedNFTsAndTypeRegistry.sol\":5388:5412  nftPermits[_nftContract] */\n      0x20\n      mstore\n      0x40\n      dup2\n      keccak256\n      sload\n        /* \"contracts/PermittedNFTsAndTypeRegistry.sol\":5429:5455  getNftTypeWrapper(nftType) */\n      tag_79\n        /* \"contracts/PermittedNFTsAndTypeRegistry.sol\":5388:5412  nftPermits[_nftContract] */\n      dup2\n        /* \"contracts/PermittedNFTsAndTypeRegistry.sol\":5429:5446  getNftTypeWrapper */\n      tag_21\n        /* \"contracts/PermittedNFTsAndTypeRegistry.sol\":5429:5455  getNftTypeWrapper(nftType) */\n      jump\t// in\n    tag_79:\n        /* \"contracts/PermittedNFTsAndTypeRegistry.sol\":5422:5455  return getNftTypeWrapper(nftType) */\n      swap4\n        /* \"contracts/PermittedNFTsAndTypeRegistry.sol\":5274:5462  function getNFTWrapper(address _nftContract) external view override returns (address) {... */\n      swap3\n      pop\n      pop\n      pop\n      jump\t// out\n        /* \"contracts/PermittedNFTsAndTypeRegistry.sol\":3710:3914  function setNFTPermit(address _nftContract, string memory _nftType)... */\n    tag_48:\n        /* \"contracts/PermittedNFTsAndTypeRegistry.sol\":3846:3854  _nftType */\n      dup1\n        /* \"contracts/PermittedNFTsAndTypeRegistry.sol\":1715:1783  ContractKeys.getIdFromStringKey(ContractKeys.AIRDROP_WRAPPER_STRING) */\n      tag_81\n        /* \"contracts/PermittedNFTsAndTypeRegistry.sol\":1747:1782  ContractKeys.AIRDROP_WRAPPER_STRING */\n      mload(0x40)\n      dup1\n      0x40\n      add\n      0x40\n      mstore\n      dup1\n      0x0e\n      dup2\n      mstore\n      0x20\n      add\n      shl(0x91, 0x20b4b9323937b82bb930b83832b9)\n      dup2\n      mstore\n      pop\n        /* \"contracts/PermittedNFTsAndTypeRegistry.sol\":1715:1746  ContractKeys.getIdFromStringKey */\n      tag_56\n        /* \"contracts/PermittedNFTsAndTypeRegistry.sol\":1715:1783  ContractKeys.getIdFromStringKey(ContractKeys.AIRDROP_WRAPPER_STRING) */\n      jump\t// in\n    tag_81:\n        /* \"contracts/PermittedNFTsAndTypeRegistry.sol\":1658:1699  ContractKeys.getIdFromStringKey(_nftType) */\n      tag_82\n        /* \"contracts/PermittedNFTsAndTypeRegistry.sol\":1690:1698  _nftType */\n      dup3\n        /* \"contracts/PermittedNFTsAndTypeRegistry.sol\":1658:1689  ContractKeys.getIdFromStringKey */\n      tag_56\n        /* \"contracts/PermittedNFTsAndTypeRegistry.sol\":1658:1699  ContractKeys.getIdFromStringKey(_nftType) */\n      jump\t// in\n    tag_82:\n        /* \"contracts/PermittedNFTsAndTypeRegistry.sol\":1658:1783  ContractKeys.getIdFromStringKey(_nftType) ==... */\n      eq\n        /* \"contracts/PermittedNFTsAndTypeRegistry.sol\":1641:2007  if (... */\n      iszero\n      tag_83\n      jumpi\n        /* \"@openzeppelin/contracts/utils/Context.sol\":719:729  msg.sender */\n      caller\n        /* \"contracts/PermittedNFTsAndTypeRegistry.sol\":1816:1819  hub */\n      sload(0x01)\n        /* \"contracts/PermittedNFTsAndTypeRegistry.sol\":1816:1861  hub.getContract(ContractKeys.AIRDROP_FACTORY) */\n      mload(0x40)\n      shl(0xe3, 0x1c2d8fb3)\n      dup2\n      mstore\n      shl(0x88, 0x41495244524f505f464143544f5259)\n      0x04\n      dup3\n      add\n        /* \"#utility.yul\":5524:5549   */\n      mstore\n      sub(shl(0xa0, 0x01), 0x01)\n        /* \"contracts/PermittedNFTsAndTypeRegistry.sol\":1816:1877  hub.getContract(ContractKeys.AIRDROP_FACTORY) == _msgSender() */\n      swap3\n      dup4\n      and\n      swap3\n        /* \"contracts/PermittedNFTsAndTypeRegistry.sol\":1816:1819  hub */\n      swap1\n      swap2\n      and\n      swap1\n        /* \"contracts/PermittedNFTsAndTypeRegistry.sol\":1816:1831  hub.getContract */\n      0xe16c7d98\n      swap1\n        /* \"#utility.yul\":5497:5515   */\n      0x24\n      add\n        /* \"contracts/PermittedNFTsAndTypeRegistry.sol\":1816:1861  hub.getContract(ContractKeys.AIRDROP_FACTORY) */\n      0x20\n      mload(0x40)\n      dup1\n      dup4\n      sub\n      dup2\n      dup7\n      dup1\n      extcodesize\n      iszero\n      dup1\n      iszero\n      tag_86\n      jumpi\n      0x00\n      dup1\n      revert\n    tag_86:\n      pop\n      gas\n      staticcall\n      iszero\n      dup1\n      iszero\n      tag_88\n      jumpi\n      returndatasize\n      0x00\n      dup1\n      returndatacopy\n      revert(0x00, returndatasize)\n    tag_88:\n      pop\n      pop\n      pop\n      pop\n      mload(0x40)\n      returndatasize\n      not(0x1f)\n      0x1f\n      dup3\n      add\n      and\n      dup3\n      add\n      dup1\n      0x40\n      mstore\n      pop\n      dup2\n      add\n      swap1\n      tag_89\n      swap2\n      swap1\n      tag_90\n      jump\t// in\n    tag_89:\n      sub(shl(0xa0, 0x01), 0x01)\n        /* \"contracts/PermittedNFTsAndTypeRegistry.sol\":1816:1877  hub.getContract(ContractKeys.AIRDROP_FACTORY) == _msgSender() */\n      and\n      eq\n        /* \"contracts/PermittedNFTsAndTypeRegistry.sol\":1808:1910  require(hub.getContract(ContractKeys.AIRDROP_FACTORY) == _msgSender(), \"caller is not AirdropFactory\") */\n      tag_91\n      jumpi\n      mload(0x40)\n      shl(0xe5, 0x461bcd)\n      dup2\n      mstore\n        /* \"#utility.yul\":9351:9353   */\n      0x20\n        /* \"contracts/PermittedNFTsAndTypeRegistry.sol\":1808:1910  require(hub.getContract(ContractKeys.AIRDROP_FACTORY) == _msgSender(), \"caller is not AirdropFactory\") */\n      0x04\n      dup3\n      add\n        /* \"#utility.yul\":9333:9354   */\n      mstore\n        /* \"#utility.yul\":9390:9392   */\n      0x1c\n        /* \"#utility.yul\":9370:9388   */\n      0x24\n      dup3\n      add\n        /* \"#utility.yul\":9363:9393   */\n      mstore\n        /* \"#utility.yul\":9429:9459   */\n      0x63616c6c6572206973206e6f742041697264726f70466163746f727900000000\n        /* \"#utility.yul\":9409:9427   */\n      0x44\n      dup3\n      add\n        /* \"#utility.yul\":9402:9460   */\n      mstore\n        /* \"#utility.yul\":9477:9495   */\n      0x64\n      add\n        /* \"contracts/PermittedNFTsAndTypeRegistry.sol\":1808:1910  require(hub.getContract(ContractKeys.AIRDROP_FACTORY) == _msgSender(), \"caller is not AirdropFactory\") */\n      tag_62\n        /* \"#utility.yul\":9323:9501   */\n      jump\n        /* \"contracts/PermittedNFTsAndTypeRegistry.sol\":1808:1910  require(hub.getContract(ContractKeys.AIRDROP_FACTORY) == _msgSender(), \"caller is not AirdropFactory\") */\n    tag_91:\n        /* \"contracts/PermittedNFTsAndTypeRegistry.sol\":1641:2007  if (... */\n      jump(tag_97)\n    tag_83:\n        /* \"@openzeppelin/contracts/utils/Context.sol\":719:729  msg.sender */\n      caller\n        /* \"contracts/PermittedNFTsAndTypeRegistry.sol\":1949:1956  owner() */\n      tag_96\n        /* \"contracts/PermittedNFTsAndTypeRegistry.sol\":1949:1954  owner */\n      tag_35\n        /* \"contracts/PermittedNFTsAndTypeRegistry.sol\":1949:1956  owner() */\n      jump\t// in\n    tag_96:\n      sub(shl(0xa0, 0x01), 0x01)\n        /* \"contracts/PermittedNFTsAndTypeRegistry.sol\":1949:1972  owner() == _msgSender() */\n      and\n      eq\n        /* \"contracts/PermittedNFTsAndTypeRegistry.sol\":1941:1996  require(owner() == _msgSender(), \"caller is not owner\") */\n      tag_97\n      jumpi\n      mload(0x40)\n      shl(0xe5, 0x461bcd)\n      dup2\n      mstore\n        /* \"#utility.yul\":7872:7874   */\n      0x20\n        /* \"contracts/PermittedNFTsAndTypeRegistry.sol\":1941:1996  require(owner() == _msgSender(), \"caller is not owner\") */\n      0x04\n      dup3\n      add\n        /* \"#utility.yul\":7854:7875   */\n      mstore\n        /* \"#utility.yul\":7911:7913   */\n      0x13\n        /* \"#utility.yul\":7891:7909   */\n      0x24\n      dup3\n      add\n        /* \"#utility.yul\":7884:7914   */\n      mstore\n      shl(0x69, 0x31b0b63632b91034b9903737ba1037bbb732b9)\n        /* \"#utility.yul\":7930:7948   */\n      0x44\n      dup3\n      add\n        /* \"#utility.yul\":7923:7972   */\n      mstore\n        /* \"#utility.yul\":7989:8007   */\n      0x64\n      add\n        /* \"contracts/PermittedNFTsAndTypeRegistry.sol\":1941:1996  require(owner() == _msgSender(), \"caller is not owner\") */\n      tag_62\n        /* \"#utility.yul\":7844:8013   */\n      jump\n        /* \"contracts/PermittedNFTsAndTypeRegistry.sol\":1941:1996  require(owner() == _msgSender(), \"caller is not owner\") */\n    tag_97:\n        /* \"contracts/PermittedNFTsAndTypeRegistry.sol\":3870:3907  _setNFTPermit(_nftContract, _nftType) */\n      tag_101\n        /* \"contracts/PermittedNFTsAndTypeRegistry.sol\":3884:3896  _nftContract */\n      dup4\n        /* \"contracts/PermittedNFTsAndTypeRegistry.sol\":3898:3906  _nftType */\n      dup4\n        /* \"contracts/PermittedNFTsAndTypeRegistry.sol\":3870:3883  _setNFTPermit */\n      tag_102\n        /* \"contracts/PermittedNFTsAndTypeRegistry.sol\":3870:3907  _setNFTPermit(_nftContract, _nftType) */\n      jump\t// in\n    tag_101:\n        /* \"contracts/PermittedNFTsAndTypeRegistry.sol\":3710:3914  function setNFTPermit(address _nftContract, string memory _nftType)... */\n      pop\n      pop\n      pop\n      jump\t// out\n        /* \"contracts/PermittedNFTsAndTypeRegistry.sol\":5837:5972  function setNftType(string memory _nftType, address _nftWrapper) external onlyOwner {... */\n    tag_52:\n        /* \"@openzeppelin/contracts/utils/Context.sol\":719:729  msg.sender */\n      caller\n        /* \"contracts/utils/Ownable.sol\":1039:1046  owner() */\n      tag_105\n        /* \"contracts/utils/Ownable.sol\":1039:1044  owner */\n      tag_35\n        /* \"contracts/utils/Ownable.sol\":1039:1046  owner() */\n      jump\t// in\n    tag_105:\n      sub(shl(0xa0, 0x01), 0x01)\n        /* \"contracts/utils/Ownable.sol\":1039:1062  owner() == _msgSender() */\n      and\n      eq\n        /* \"contracts/utils/Ownable.sol\":1031:1099  require(owner() == _msgSender(), \"Ownable: caller is not the owner\") */\n      tag_106\n      jumpi\n      mload(0x40)\n      shl(0xe5, 0x461bcd)\n      dup2\n      mstore\n      0x04\n      add\n      tag_62\n      swap1\n      tag_63\n      jump\t// in\n    tag_106:\n        /* \"contracts/PermittedNFTsAndTypeRegistry.sol\":5931:5965  _setNftType(_nftType, _nftWrapper) */\n      tag_65\n        /* \"contracts/PermittedNFTsAndTypeRegistry.sol\":5943:5951  _nftType */\n      dup3\n        /* \"contracts/PermittedNFTsAndTypeRegistry.sol\":5953:5964  _nftWrapper */\n      dup3\n        /* \"contracts/PermittedNFTsAndTypeRegistry.sol\":5931:5942  _setNftType */\n      tag_110\n        /* \"contracts/PermittedNFTsAndTypeRegistry.sol\":5931:5965  _setNftType(_nftType, _nftWrapper) */\n      jump\t// in\n        /* \"contracts/utils/Ownable.sol\":1444:1636  function transferOwnership(address _newOwner) public virtual onlyOwner {... */\n    tag_55:\n        /* \"@openzeppelin/contracts/utils/Context.sol\":719:729  msg.sender */\n      caller\n        /* \"contracts/utils/Ownable.sol\":1039:1046  owner() */\n      tag_113\n        /* \"contracts/utils/Ownable.sol\":1039:1044  owner */\n      tag_35\n        /* \"contracts/utils/Ownable.sol\":1039:1046  owner() */\n      jump\t// in\n    tag_113:\n      sub(shl(0xa0, 0x01), 0x01)\n        /* \"contracts/utils/Ownable.sol\":1039:1062  owner() == _msgSender() */\n      and\n      eq\n        /* \"contracts/utils/Ownable.sol\":1031:1099  require(owner() == _msgSender(), \"Ownable: caller is not the owner\") */\n      tag_114\n      jumpi\n      mload(0x40)\n      shl(0xe5, 0x461bcd)\n      dup2\n      mstore\n      0x04\n      add\n      tag_62\n      swap1\n      tag_63\n      jump\t// in\n    tag_114:\n      sub(shl(0xa0, 0x01), 0x01)\n        /* \"contracts/utils/Ownable.sol\":1533:1556  _newOwner != address(0) */\n      dup2\n      and\n        /* \"contracts/utils/Ownable.sol\":1525:1599  require(_newOwner != address(0), \"Ownable: new owner is the zero address\") */\n      tag_117\n      jumpi\n      mload(0x40)\n      shl(0xe5, 0x461bcd)\n      dup2\n      mstore\n        /* \"#utility.yul\":5987:5989   */\n      0x20\n        /* \"contracts/utils/Ownable.sol\":1525:1599  require(_newOwner != address(0), \"Ownable: new owner is the zero address\") */\n      0x04\n      dup3\n      add\n        /* \"#utility.yul\":5969:5990   */\n      mstore\n        /* \"#utility.yul\":6026:6028   */\n      0x26\n        /* \"#utility.yul\":6006:6024   */\n      0x24\n      dup3\n      add\n        /* \"#utility.yul\":5999:6029   */\n      mstore\n        /* \"#utility.yul\":6065:6099   */\n      0x4f776e61626c653a206e6577206f776e657220697320746865207a65726f2061\n        /* \"#utility.yul\":6045:6063   */\n      0x44\n      dup3\n      add\n        /* \"#utility.yul\":6038:6100   */\n      mstore\n      shl(0xd0, 0x646472657373)\n        /* \"#utility.yul\":6116:6134   */\n      0x64\n      dup3\n      add\n        /* \"#utility.yul\":6109:6145   */\n      mstore\n        /* \"#utility.yul\":6162:6181   */\n      0x84\n      add\n        /* \"contracts/utils/Ownable.sol\":1525:1599  require(_newOwner != address(0), \"Ownable: new owner is the zero address\") */\n      tag_62\n        /* \"#utility.yul\":5959:6187   */\n      jump\n        /* \"contracts/utils/Ownable.sol\":1525:1599  require(_newOwner != address(0), \"Ownable: new owner is the zero address\") */\n    tag_117:\n        /* \"contracts/utils/Ownable.sol\":1609:1629  _setOwner(_newOwner) */\n      tag_120\n        /* \"contracts/utils/Ownable.sol\":1619:1628  _newOwner */\n      dup2\n        /* \"contracts/utils/Ownable.sol\":1609:1618  _setOwner */\n      tag_121\n        /* \"contracts/utils/Ownable.sol\":1609:1629  _setOwner(_newOwner) */\n      jump\t// in\n    tag_120:\n        /* \"contracts/utils/Ownable.sol\":1444:1636  function transferOwnership(address _newOwner) public virtual onlyOwner {... */\n      pop\n      jump\t// out\n        /* \"contracts/utils/ContractKeys.sol\":1365:1638  function getIdFromStringKey(string memory _key) internal pure returns (bytes32 id) {... */\n    tag_56:\n        /* \"contracts/utils/ContractKeys.sol\":1436:1446  bytes32 id */\n      0x00\n        /* \"contracts/utils/ContractKeys.sol\":1488:1490  32 */\n      0x20\n        /* \"contracts/utils/ContractKeys.sol\":1472:1476  _key */\n      dup3\n        /* \"contracts/utils/ContractKeys.sol\":1466:1484  bytes(_key).length */\n      mload\n        /* \"contracts/utils/ContractKeys.sol\":1466:1490  bytes(_key).length <= 32 */\n      gt\n      iszero\n        /* \"contracts/utils/ContractKeys.sol\":1458:1506  require(bytes(_key).length <= 32, \"invalid key\") */\n      tag_123\n      jumpi\n      mload(0x40)\n      shl(0xe5, 0x461bcd)\n      dup2\n      mstore\n        /* \"#utility.yul\":9708:9710   */\n      0x20\n        /* \"contracts/utils/ContractKeys.sol\":1458:1506  require(bytes(_key).length <= 32, \"invalid key\") */\n      0x04\n      dup3\n      add\n        /* \"#utility.yul\":9690:9711   */\n      mstore\n        /* \"#utility.yul\":9747:9749   */\n      0x0b\n        /* \"#utility.yul\":9727:9745   */\n      0x24\n      dup3\n      add\n        /* \"#utility.yul\":9720:9750   */\n      mstore\n      shl(0xa8, 0x696e76616c6964206b6579)\n        /* \"#utility.yul\":9766:9784   */\n      0x44\n      dup3\n      add\n        /* \"#utility.yul\":9759:9800   */\n      mstore\n        /* \"#utility.yul\":9817:9835   */\n      0x64\n      add\n        /* \"contracts/utils/ContractKeys.sol\":1458:1506  require(bytes(_key).length <= 32, \"invalid key\") */\n      tag_62\n        /* \"#utility.yul\":9680:9841   */\n      jump\n        /* \"contracts/utils/ContractKeys.sol\":1458:1506  require(bytes(_key).length <= 32, \"invalid key\") */\n    tag_123:\n      pop\n        /* \"contracts/utils/ContractKeys.sol\":1618:1620  32 */\n      0x20\n        /* \"contracts/utils/ContractKeys.sol\":1608:1621  add(_key, 32) */\n      add\n        /* \"contracts/utils/ContractKeys.sol\":1602:1622  mload(add(_key, 32)) */\n      mload\n      swap1\n        /* \"contracts/utils/ContractKeys.sol\":1582:1632  {... */\n      jump\t// out\n        /* \"contracts/PermittedNFTsAndTypeRegistry.sol\":7982:8314  function _setNftTypes(string[] memory _nftTypes, address[] memory _nftWrappers) internal {... */\n    tag_66:\n        /* \"contracts/PermittedNFTsAndTypeRegistry.sol\":8109:8121  _nftWrappers */\n      dup1\n        /* \"contracts/PermittedNFTsAndTypeRegistry.sol\":8109:8128  _nftWrappers.length */\n      mload\n        /* \"contracts/PermittedNFTsAndTypeRegistry.sol\":8089:8098  _nftTypes */\n      dup3\n        /* \"contracts/PermittedNFTsAndTypeRegistry.sol\":8089:8105  _nftTypes.length */\n      mload\n        /* \"contracts/PermittedNFTsAndTypeRegistry.sol\":8089:8128  _nftTypes.length == _nftWrappers.length */\n      eq\n        /* \"contracts/PermittedNFTsAndTypeRegistry.sol\":8081:8180  require(_nftTypes.length == _nftWrappers.length, \"setNftTypes function information arity mismatch\") */\n      tag_128\n      jumpi\n      mload(0x40)\n      shl(0xe5, 0x461bcd)\n      dup2\n      mstore\n        /* \"#utility.yul\":6750:6752   */\n      0x20\n        /* \"contracts/PermittedNFTsAndTypeRegistry.sol\":8081:8180  require(_nftTypes.length == _nftWrappers.length, \"setNftTypes function information arity mismatch\") */\n      0x04\n      dup3\n      add\n        /* \"#utility.yul\":6732:6753   */\n      mstore\n        /* \"#utility.yul\":6789:6791   */\n      0x2f\n        /* \"#utility.yul\":6769:6787   */\n      0x24\n      dup3\n      add\n        /* \"#utility.yul\":6762:6792   */\n      mstore\n        /* \"#utility.yul\":6828:6862   */\n      0x7365744e667454797065732066756e6374696f6e20696e666f726d6174696f6e\n        /* \"#utility.yul\":6808:6826   */\n      0x44\n      dup3\n      add\n        /* \"#utility.yul\":6801:6863   */\n      mstore\n      shl(0x8b, 0x040c2e4d2e8f240dad2e6dac2e8c6d)\n        /* \"#utility.yul\":6879:6897   */\n      0x64\n      dup3\n      add\n        /* \"#utility.yul\":6872:6917   */\n      mstore\n        /* \"#utility.yul\":6934:6953   */\n      0x84\n      add\n        /* \"contracts/PermittedNFTsAndTypeRegistry.sol\":8081:8180  require(_nftTypes.length == _nftWrappers.length, \"setNftTypes function information arity mismatch\") */\n      tag_62\n        /* \"#utility.yul\":6722:6959   */\n      jump\n        /* \"contracts/PermittedNFTsAndTypeRegistry.sol\":8081:8180  require(_nftTypes.length == _nftWrappers.length, \"setNftTypes function information arity mismatch\") */\n    tag_128:\n        /* \"contracts/PermittedNFTsAndTypeRegistry.sol\":8196:8205  uint256 i */\n      0x00\n        /* \"contracts/PermittedNFTsAndTypeRegistry.sol\":8191:8308  for (uint256 i = 0; i < _nftWrappers.length; i++) {... */\n    tag_131:\n        /* \"contracts/PermittedNFTsAndTypeRegistry.sol\":8215:8227  _nftWrappers */\n      dup2\n        /* \"contracts/PermittedNFTsAndTypeRegistry.sol\":8215:8234  _nftWrappers.length */\n      mload\n        /* \"contracts/PermittedNFTsAndTypeRegistry.sol\":8211:8212  i */\n      dup2\n        /* \"contracts/PermittedNFTsAndTypeRegistry.sol\":8211:8234  i < _nftWrappers.length */\n      lt\n        /* \"contracts/PermittedNFTsAndTypeRegistry.sol\":8191:8308  for (uint256 i = 0; i < _nftWrappers.length; i++) {... */\n      iszero\n      tag_101\n      jumpi\n        /* \"contracts/PermittedNFTsAndTypeRegistry.sol\":8255:8297  _setNftType(_nftTypes[i], _nftWrappers[i]) */\n      tag_134\n        /* \"contracts/PermittedNFTsAndTypeRegistry.sol\":8267:8276  _nftTypes */\n      dup4\n        /* \"contracts/PermittedNFTsAndTypeRegistry.sol\":8277:8278  i */\n      dup3\n        /* \"contracts/PermittedNFTsAndTypeRegistry.sol\":8267:8279  _nftTypes[i] */\n      dup2\n      mload\n      dup2\n      lt\n      tag_135\n      jumpi\n      mstore(0x00, shl(0xe0, 0x4e487b71))\n      mstore(0x04, 0x32)\n      revert(0x00, 0x24)\n    tag_135:\n      0x20\n      mul\n      0x20\n      add\n      add\n      mload\n        /* \"contracts/PermittedNFTsAndTypeRegistry.sol\":8281:8293  _nftWrappers */\n      dup4\n        /* \"contracts/PermittedNFTsAndTypeRegistry.sol\":8294:8295  i */\n      dup4\n        /* \"contracts/PermittedNFTsAndTypeRegistry.sol\":8281:8296  _nftWrappers[i] */\n      dup2\n      mload\n      dup2\n      lt\n      tag_136\n      jumpi\n      mstore(0x00, shl(0xe0, 0x4e487b71))\n      mstore(0x04, 0x32)\n      revert(0x00, 0x24)\n    tag_136:\n      0x20\n      mul\n      0x20\n      add\n      add\n      mload\n        /* \"contracts/PermittedNFTsAndTypeRegistry.sol\":8255:8266  _setNftType */\n      tag_110\n        /* \"contracts/PermittedNFTsAndTypeRegistry.sol\":8255:8297  _setNftType(_nftTypes[i], _nftWrappers[i]) */\n      jump\t// in\n    tag_134:\n        /* \"contracts/PermittedNFTsAndTypeRegistry.sol\":8236:8239  i++ */\n      dup1\n      tag_137\n      dup2\n      tag_138\n      jump\t// in\n    tag_137:\n      swap2\n      pop\n      pop\n        /* \"contracts/PermittedNFTsAndTypeRegistry.sol\":8191:8308  for (uint256 i = 0; i < _nftWrappers.length; i++) {... */\n      jump(tag_131)\n        /* \"contracts/PermittedNFTsAndTypeRegistry.sol\":9838:10180  function _setNFTPermits(address[] memory _nftContracts, string[] memory _nftTypes) internal {... */\n    tag_77:\n        /* \"contracts/PermittedNFTsAndTypeRegistry.sol\":9972:9981  _nftTypes */\n      dup1\n        /* \"contracts/PermittedNFTsAndTypeRegistry.sol\":9972:9988  _nftTypes.length */\n      mload\n        /* \"contracts/PermittedNFTsAndTypeRegistry.sol\":9948:9961  _nftContracts */\n      dup3\n        /* \"contracts/PermittedNFTsAndTypeRegistry.sol\":9948:9968  _nftContracts.length */\n      mload\n        /* \"contracts/PermittedNFTsAndTypeRegistry.sol\":9948:9988  _nftContracts.length == _nftTypes.length */\n      eq\n        /* \"contracts/PermittedNFTsAndTypeRegistry.sol\":9940:10042  require(_nftContracts.length == _nftTypes.length, \"setNFTPermits function information arity mismatch\") */\n      tag_140\n      jumpi\n      mload(0x40)\n      shl(0xe5, 0x461bcd)\n      dup2\n      mstore\n        /* \"#utility.yul\":8933:8935   */\n      0x20\n        /* \"contracts/PermittedNFTsAndTypeRegistry.sol\":9940:10042  require(_nftContracts.length == _nftTypes.length, \"setNFTPermits function information arity mismatch\") */\n      0x04\n      dup3\n      add\n        /* \"#utility.yul\":8915:8936   */\n      mstore\n        /* \"#utility.yul\":8972:8974   */\n      0x31\n        /* \"#utility.yul\":8952:8970   */\n      0x24\n      dup3\n      add\n        /* \"#utility.yul\":8945:8975   */\n      mstore\n        /* \"#utility.yul\":9011:9045   */\n      0x7365744e46545065726d6974732066756e6374696f6e20696e666f726d617469\n        /* \"#utility.yul\":8991:9009   */\n      0x44\n      dup3\n      add\n        /* \"#utility.yul\":8984:9046   */\n      mstore\n      shl(0x7b, 0x0dedc40c2e4d2e8f240dad2e6dac2e8c6d)\n        /* \"#utility.yul\":9062:9080   */\n      0x64\n      dup3\n      add\n        /* \"#utility.yul\":9055:9102   */\n      mstore\n        /* \"#utility.yul\":9119:9138   */\n      0x84\n      add\n        /* \"contracts/PermittedNFTsAndTypeRegistry.sol\":9940:10042  require(_nftContracts.length == _nftTypes.length, \"setNFTPermits function information arity mismatch\") */\n      tag_62\n        /* \"#utility.yul\":8905:9144   */\n      jump\n        /* \"contracts/PermittedNFTsAndTypeRegistry.sol\":9940:10042  require(_nftContracts.length == _nftTypes.length, \"setNFTPermits function information arity mismatch\") */\n    tag_140:\n        /* \"contracts/PermittedNFTsAndTypeRegistry.sol\":10058:10067  uint256 i */\n      0x00\n        /* \"contracts/PermittedNFTsAndTypeRegistry.sol\":10053:10174  for (uint256 i = 0; i < _nftContracts.length; i++) {... */\n    tag_143:\n        /* \"contracts/PermittedNFTsAndTypeRegistry.sol\":10077:10090  _nftContracts */\n      dup3\n        /* \"contracts/PermittedNFTsAndTypeRegistry.sol\":10077:10097  _nftContracts.length */\n      mload\n        /* \"contracts/PermittedNFTsAndTypeRegistry.sol\":10073:10074  i */\n      dup2\n        /* \"contracts/PermittedNFTsAndTypeRegistry.sol\":10073:10097  i < _nftContracts.length */\n      lt\n        /* \"contracts/PermittedNFTsAndTypeRegistry.sol\":10053:10174  for (uint256 i = 0; i < _nftContracts.length; i++) {... */\n      iszero\n      tag_101\n      jumpi\n        /* \"contracts/PermittedNFTsAndTypeRegistry.sol\":10118:10163  _setNFTPermit(_nftContracts[i], _nftTypes[i]) */\n      tag_146\n        /* \"contracts/PermittedNFTsAndTypeRegistry.sol\":10132:10145  _nftContracts */\n      dup4\n        /* \"contracts/PermittedNFTsAndTypeRegistry.sol\":10146:10147  i */\n      dup3\n        /* \"contracts/PermittedNFTsAndTypeRegistry.sol\":10132:10148  _nftContracts[i] */\n      dup2\n      mload\n      dup2\n      lt\n      tag_147\n      jumpi\n      mstore(0x00, shl(0xe0, 0x4e487b71))\n      mstore(0x04, 0x32)\n      revert(0x00, 0x24)\n    tag_147:\n      0x20\n      mul\n      0x20\n      add\n      add\n      mload\n        /* \"contracts/PermittedNFTsAndTypeRegistry.sol\":10150:10159  _nftTypes */\n      dup4\n        /* \"contracts/PermittedNFTsAndTypeRegistry.sol\":10160:10161  i */\n      dup4\n        /* \"contracts/PermittedNFTsAndTypeRegistry.sol\":10150:10162  _nftTypes[i] */\n      dup2\n      mload\n      dup2\n      lt\n      tag_148\n      jumpi\n      mstore(0x00, shl(0xe0, 0x4e487b71))\n      mstore(0x04, 0x32)\n      revert(0x00, 0x24)\n    tag_148:\n      0x20\n      mul\n      0x20\n      add\n      add\n      mload\n        /* \"contracts/PermittedNFTsAndTypeRegistry.sol\":10118:10131  _setNFTPermit */\n      tag_102\n        /* \"contracts/PermittedNFTsAndTypeRegistry.sol\":10118:10163  _setNFTPermit(_nftContracts[i], _nftTypes[i]) */\n      jump\t// in\n    tag_146:\n        /* \"contracts/PermittedNFTsAndTypeRegistry.sol\":10099:10102  i++ */\n      dup1\n      tag_149\n      dup2\n      tag_138\n      jump\t// in\n    tag_149:\n      swap2\n      pop\n      pop\n        /* \"contracts/PermittedNFTsAndTypeRegistry.sol\":10053:10174  for (uint256 i = 0; i < _nftContracts.length; i++) {... */\n      jump(tag_143)\n        /* \"contracts/PermittedNFTsAndTypeRegistry.sol\":8758:9409  function _setNFTPermit(address _nftContract, string memory _nftType) internal {... */\n    tag_102:\n      sub(shl(0xa0, 0x01), 0x01)\n        /* \"contracts/PermittedNFTsAndTypeRegistry.sol\":8854:8880  _nftContract != address(0) */\n      dup3\n      and\n        /* \"contracts/PermittedNFTsAndTypeRegistry.sol\":8846:8912  require(_nftContract != address(0), \"nftContract is zero address\") */\n      tag_151\n      jumpi\n      mload(0x40)\n      shl(0xe5, 0x461bcd)\n      dup2\n      mstore\n        /* \"#utility.yul\":6394:6396   */\n      0x20\n        /* \"contracts/PermittedNFTsAndTypeRegistry.sol\":8846:8912  require(_nftContract != address(0), \"nftContract is zero address\") */\n      0x04\n      dup3\n      add\n        /* \"#utility.yul\":6376:6397   */\n      mstore\n        /* \"#utility.yul\":6433:6435   */\n      0x1b\n        /* \"#utility.yul\":6413:6431   */\n      0x24\n      dup3\n      add\n        /* \"#utility.yul\":6406:6436   */\n      mstore\n        /* \"#utility.yul\":6472:6501   */\n      0x6e6674436f6e7472616374206973207a65726f20616464726573730000000000\n        /* \"#utility.yul\":6452:6470   */\n      0x44\n      dup3\n      add\n        /* \"#utility.yul\":6445:6502   */\n      mstore\n        /* \"#utility.yul\":6519:6537   */\n      0x64\n      add\n        /* \"contracts/PermittedNFTsAndTypeRegistry.sol\":8846:8912  require(_nftContract != address(0), \"nftContract is zero address\") */\n      tag_62\n        /* \"#utility.yul\":6366:6543   */\n      jump\n        /* \"contracts/PermittedNFTsAndTypeRegistry.sol\":8846:8912  require(_nftContract != address(0), \"nftContract is zero address\") */\n    tag_151:\n        /* \"contracts/PermittedNFTsAndTypeRegistry.sol\":8922:8940  bytes32 nftTypeKey */\n      0x00\n        /* \"contracts/PermittedNFTsAndTypeRegistry.sol\":8943:8984  ContractKeys.getIdFromStringKey(_nftType) */\n      tag_154\n        /* \"contracts/PermittedNFTsAndTypeRegistry.sol\":8975:8983  _nftType */\n      dup3\n        /* \"contracts/PermittedNFTsAndTypeRegistry.sol\":8943:8974  ContractKeys.getIdFromStringKey */\n      tag_56\n        /* \"contracts/PermittedNFTsAndTypeRegistry.sol\":8943:8984  ContractKeys.getIdFromStringKey(_nftType) */\n      jump\t// in\n    tag_154:\n        /* \"contracts/PermittedNFTsAndTypeRegistry.sol\":8922:8984  bytes32 nftTypeKey = ContractKeys.getIdFromStringKey(_nftType) */\n      swap1\n      pop\n        /* \"contracts/PermittedNFTsAndTypeRegistry.sol\":8999:9014  nftTypeKey != 0 */\n      dup1\n      iszero\n        /* \"contracts/PermittedNFTsAndTypeRegistry.sol\":8995:9120  if (nftTypeKey != 0) {... */\n      tag_157\n      jumpi\n        /* \"contracts/PermittedNFTsAndTypeRegistry.sol\":9079:9080  0 */\n      0x00\n        /* \"contracts/PermittedNFTsAndTypeRegistry.sol\":9038:9067  getNftTypeWrapper(nftTypeKey) */\n      tag_156\n        /* \"contracts/PermittedNFTsAndTypeRegistry.sol\":9056:9066  nftTypeKey */\n      dup3\n        /* \"contracts/PermittedNFTsAndTypeRegistry.sol\":9038:9055  getNftTypeWrapper */\n      tag_21\n        /* \"contracts/PermittedNFTsAndTypeRegistry.sol\":9038:9067  getNftTypeWrapper(nftTypeKey) */\n      jump\t// in\n    tag_156:\n      sub(shl(0xa0, 0x01), 0x01)\n        /* \"contracts/PermittedNFTsAndTypeRegistry.sol\":9038:9081  getNftTypeWrapper(nftTypeKey) != address(0) */\n      and\n      eq\n      iszero\n        /* \"contracts/PermittedNFTsAndTypeRegistry.sol\":9030:9109  require(getNftTypeWrapper(nftTypeKey) != address(0), \"NFT type not registered\") */\n      tag_157\n      jumpi\n      mload(0x40)\n      shl(0xe5, 0x461bcd)\n      dup2\n      mstore\n        /* \"#utility.yul\":8220:8222   */\n      0x20\n        /* \"contracts/PermittedNFTsAndTypeRegistry.sol\":9030:9109  require(getNftTypeWrapper(nftTypeKey) != address(0), \"NFT type not registered\") */\n      0x04\n      dup3\n      add\n        /* \"#utility.yul\":8202:8223   */\n      mstore\n        /* \"#utility.yul\":8259:8261   */\n      0x17\n        /* \"#utility.yul\":8239:8257   */\n      0x24\n      dup3\n      add\n        /* \"#utility.yul\":8232:8262   */\n      mstore\n      shl(0x4a, 0x139195081d1e5c19481b9bdd081c9959da5cdd195c9959)\n        /* \"#utility.yul\":8278:8296   */\n      0x44\n      dup3\n      add\n        /* \"#utility.yul\":8271:8324   */\n      mstore\n        /* \"#utility.yul\":8341:8359   */\n      0x64\n      add\n        /* \"contracts/PermittedNFTsAndTypeRegistry.sol\":9030:9109  require(getNftTypeWrapper(nftTypeKey) != address(0), \"NFT type not registered\") */\n      tag_62\n        /* \"#utility.yul\":8192:8365   */\n      jump\n        /* \"contracts/PermittedNFTsAndTypeRegistry.sol\":9030:9109  require(getNftTypeWrapper(nftTypeKey) != address(0), \"NFT type not registered\") */\n    tag_157:\n        /* \"contracts/PermittedNFTsAndTypeRegistry.sol\":9179:9247  ContractKeys.getIdFromStringKey(ContractKeys.AIRDROP_WRAPPER_STRING) */\n      tag_160\n        /* \"contracts/PermittedNFTsAndTypeRegistry.sol\":9211:9246  ContractKeys.AIRDROP_WRAPPER_STRING */\n      mload(0x40)\n      dup1\n      0x40\n      add\n      0x40\n      mstore\n      dup1\n      0x0e\n      dup2\n      mstore\n      0x20\n      add\n      shl(0x91, 0x20b4b9323937b82bb930b83832b9)\n      dup2\n      mstore\n      pop\n        /* \"contracts/PermittedNFTsAndTypeRegistry.sol\":9179:9210  ContractKeys.getIdFromStringKey */\n      tag_56\n        /* \"contracts/PermittedNFTsAndTypeRegistry.sol\":9179:9247  ContractKeys.getIdFromStringKey(ContractKeys.AIRDROP_WRAPPER_STRING) */\n      jump\t// in\n    tag_160:\n      sub(shl(0xa0, 0x01), 0x01)\n        /* \"contracts/PermittedNFTsAndTypeRegistry.sol\":9151:9175  nftPermits[_nftContract] */\n      dup5\n      and\n      0x00\n      swap1\n      dup2\n      mstore\n        /* \"contracts/PermittedNFTsAndTypeRegistry.sol\":9151:9161  nftPermits */\n      0x03\n        /* \"contracts/PermittedNFTsAndTypeRegistry.sol\":9151:9175  nftPermits[_nftContract] */\n      0x20\n      mstore\n      0x40\n      swap1\n      keccak256\n      sload\n        /* \"contracts/PermittedNFTsAndTypeRegistry.sol\":9151:9247  nftPermits[_nftContract] != ContractKeys.getIdFromStringKey(ContractKeys.AIRDROP_WRAPPER_STRING) */\n      eq\n      iszero\n        /* \"contracts/PermittedNFTsAndTypeRegistry.sol\":9130:9305  require(... */\n      tag_161\n      jumpi\n      mload(0x40)\n      shl(0xe5, 0x461bcd)\n      dup2\n      mstore\n        /* \"#utility.yul\":7166:7168   */\n      0x20\n        /* \"contracts/PermittedNFTsAndTypeRegistry.sol\":9130:9305  require(... */\n      0x04\n      dup3\n      add\n        /* \"#utility.yul\":7148:7169   */\n      dup2\n      swap1\n      mstore\n        /* \"#utility.yul\":7185:7203   */\n      0x24\n      dup3\n      add\n        /* \"#utility.yul\":7178:7208   */\n      mstore\n        /* \"#utility.yul\":7244:7278   */\n      0x41697264726f70577261707065722063616e2774206265206d6f646966696564\n        /* \"#utility.yul\":7224:7242   */\n      0x44\n      dup3\n      add\n        /* \"#utility.yul\":7217:7279   */\n      mstore\n        /* \"#utility.yul\":7296:7314   */\n      0x64\n      add\n        /* \"contracts/PermittedNFTsAndTypeRegistry.sol\":9130:9305  require(... */\n      tag_62\n        /* \"#utility.yul\":7138:7320   */\n      jump\n        /* \"contracts/PermittedNFTsAndTypeRegistry.sol\":9130:9305  require(... */\n    tag_161:\n      sub(shl(0xa0, 0x01), 0x01)\n        /* \"contracts/PermittedNFTsAndTypeRegistry.sol\":9315:9339  nftPermits[_nftContract] */\n      dup4\n      and\n      0x00\n      dup2\n      dup2\n      mstore\n        /* \"contracts/PermittedNFTsAndTypeRegistry.sol\":9315:9325  nftPermits */\n      0x03\n        /* \"contracts/PermittedNFTsAndTypeRegistry.sol\":9315:9339  nftPermits[_nftContract] */\n      0x20\n      mstore\n      0x40\n      dup1\n      dup3\n      keccak256\n        /* \"contracts/PermittedNFTsAndTypeRegistry.sol\":9315:9352  nftPermits[_nftContract] = nftTypeKey */\n      dup5\n      swap1\n      sstore\n        /* \"contracts/PermittedNFTsAndTypeRegistry.sol\":9367:9402  NFTPermit(_nftContract, nftTypeKey) */\n      mload\n        /* \"contracts/PermittedNFTsAndTypeRegistry.sol\":9342:9352  nftTypeKey */\n      dup4\n      swap3\n        /* \"contracts/PermittedNFTsAndTypeRegistry.sol\":9315:9339  nftPermits[_nftContract] */\n      swap2\n        /* \"contracts/PermittedNFTsAndTypeRegistry.sol\":9367:9402  NFTPermit(_nftContract, nftTypeKey) */\n      0x903a211c8bcdc0ab18afc116fc4776504a9aac5c0121be0fda712d399017bd22\n      swap2\n      log3\n        /* \"contracts/PermittedNFTsAndTypeRegistry.sol\":8758:9409  function _setNFTPermit(address _nftContract, string memory _nftType) internal {... */\n      pop\n      pop\n      pop\n      jump\t// out\n        /* \"contracts/PermittedNFTsAndTypeRegistry.sol\":7246:7563  function _setNftType(string memory _nftType, address _nftWrapper) internal {... */\n    tag_110:\n        /* \"contracts/PermittedNFTsAndTypeRegistry.sol\":7339:7361  bytes(_nftType).length */\n      dup2\n      mload\n        /* \"contracts/PermittedNFTsAndTypeRegistry.sol\":7331:7387  require(bytes(_nftType).length != 0, \"nftType is empty\") */\n      tag_165\n      jumpi\n      mload(0x40)\n      shl(0xe5, 0x461bcd)\n      dup2\n      mstore\n        /* \"#utility.yul\":7527:7529   */\n      0x20\n        /* \"contracts/PermittedNFTsAndTypeRegistry.sol\":7331:7387  require(bytes(_nftType).length != 0, \"nftType is empty\") */\n      0x04\n      dup3\n      add\n        /* \"#utility.yul\":7509:7530   */\n      mstore\n        /* \"#utility.yul\":7566:7568   */\n      0x10\n        /* \"#utility.yul\":7546:7564   */\n      0x24\n      dup3\n      add\n        /* \"#utility.yul\":7539:7569   */\n      mstore\n      shl(0x80, 0x6e66745479706520697320656d707479)\n        /* \"#utility.yul\":7585:7603   */\n      0x44\n      dup3\n      add\n        /* \"#utility.yul\":7578:7624   */\n      mstore\n        /* \"#utility.yul\":7641:7659   */\n      0x64\n      add\n        /* \"contracts/PermittedNFTsAndTypeRegistry.sol\":7331:7387  require(bytes(_nftType).length != 0, \"nftType is empty\") */\n      tag_62\n        /* \"#utility.yul\":7499:7665   */\n      jump\n        /* \"contracts/PermittedNFTsAndTypeRegistry.sol\":7331:7387  require(bytes(_nftType).length != 0, \"nftType is empty\") */\n    tag_165:\n        /* \"contracts/PermittedNFTsAndTypeRegistry.sol\":7397:7415  bytes32 nftTypeKey */\n      0x00\n        /* \"contracts/PermittedNFTsAndTypeRegistry.sol\":7418:7459  ContractKeys.getIdFromStringKey(_nftType) */\n      tag_168\n        /* \"contracts/PermittedNFTsAndTypeRegistry.sol\":7450:7458  _nftType */\n      dup4\n        /* \"contracts/PermittedNFTsAndTypeRegistry.sol\":7418:7449  ContractKeys.getIdFromStringKey */\n      tag_56\n        /* \"contracts/PermittedNFTsAndTypeRegistry.sol\":7418:7459  ContractKeys.getIdFromStringKey(_nftType) */\n      jump\t// in\n    tag_168:\n        /* \"contracts/PermittedNFTsAndTypeRegistry.sol\":7470:7490  nftTypes[nftTypeKey] */\n      0x00\n      dup2\n      dup2\n      mstore\n        /* \"contracts/PermittedNFTsAndTypeRegistry.sol\":7470:7478  nftTypes */\n      0x02\n        /* \"contracts/PermittedNFTsAndTypeRegistry.sol\":7470:7490  nftTypes[nftTypeKey] */\n      0x20\n      mstore\n      0x40\n      dup1\n      dup3\n      keccak256\n        /* \"contracts/PermittedNFTsAndTypeRegistry.sol\":7470:7504  nftTypes[nftTypeKey] = _nftWrapper */\n      dup1\n      sload\n      not(sub(shl(0xa0, 0x01), 0x01))\n      and\n      sub(shl(0xa0, 0x01), 0x01)\n      dup8\n      and\n      swap1\n      dup2\n      or\n      swap1\n      swap2\n      sstore\n        /* \"contracts/PermittedNFTsAndTypeRegistry.sol\":7520:7556  TypeUpdated(nftTypeKey, _nftWrapper) */\n      swap1\n      mload\n        /* \"contracts/PermittedNFTsAndTypeRegistry.sol\":7470:7490  nftTypes[nftTypeKey] */\n      swap3\n      swap4\n      pop\n        /* \"contracts/PermittedNFTsAndTypeRegistry.sol\":7470:7504  nftTypes[nftTypeKey] = _nftWrapper */\n      swap2\n        /* \"contracts/PermittedNFTsAndTypeRegistry.sol\":7470:7490  nftTypes[nftTypeKey] */\n      dup4\n      swap2\n        /* \"contracts/PermittedNFTsAndTypeRegistry.sol\":7520:7556  TypeUpdated(nftTypeKey, _nftWrapper) */\n      0x22be69269c1f7d73e73dcb25b710dd88c7aa1cf374c16d945def98df2107c2f8\n      swap2\n      log3\n        /* \"contracts/PermittedNFTsAndTypeRegistry.sol\":7246:7563  function _setNftType(string memory _nftType, address _nftWrapper) internal {... */\n      pop\n      pop\n      pop\n      jump\t// out\n        /* \"contracts/utils/Ownable.sol\":1847:2019  function _setOwner(address _newOwner) private {... */\n    tag_121:\n        /* \"contracts/utils/Ownable.sol\":1903:1919  address oldOwner */\n      0x00\n        /* \"contracts/utils/Ownable.sol\":1922:1928  _owner */\n      dup1\n      sload\n      sub(shl(0xa0, 0x01), 0x01)\n        /* \"contracts/utils/Ownable.sol\":1938:1956  _owner = _newOwner */\n      dup4\n      dup2\n      and\n      not(sub(shl(0xa0, 0x01), 0x01))\n      dup4\n      and\n      dup2\n      or\n      dup5\n      sstore\n        /* \"contracts/utils/Ownable.sol\":1971:2012  OwnershipTransferred(oldOwner, _newOwner) */\n      mload(0x40)\n        /* \"contracts/utils/Ownable.sol\":1922:1928  _owner */\n      swap2\n      swap1\n      swap3\n      and\n      swap3\n      dup4\n      swap2\n        /* \"contracts/utils/Ownable.sol\":1971:2012  OwnershipTransferred(oldOwner, _newOwner) */\n      0x8be0079c531659141344cd1fd0a4f28419497f9722a3daafe3b4186f6b6457e0\n      swap2\n        /* \"contracts/utils/Ownable.sol\":1903:1919  address oldOwner */\n      swap1\n        /* \"contracts/utils/Ownable.sol\":1971:2012  OwnershipTransferred(oldOwner, _newOwner) */\n      log3\n        /* \"contracts/utils/Ownable.sol\":1847:2019  function _setOwner(address _newOwner) private {... */\n      pop\n      pop\n      jump\t// out\n        /* \"#utility.yul\":14:782   */\n    tag_171:\n        /* \"#utility.yul\":68:73   */\n      0x00\n        /* \"#utility.yul\":121:124   */\n      dup3\n        /* \"#utility.yul\":114:118   */\n      0x1f\n        /* \"#utility.yul\":106:112   */\n      dup4\n        /* \"#utility.yul\":102:119   */\n      add\n        /* \"#utility.yul\":98:125   */\n      slt\n        /* \"#utility.yul\":88:90   */\n      tag_173\n      jumpi\n        /* \"#utility.yul\":143:148   */\n      dup1\n        /* \"#utility.yul\":136:141   */\n      dup2\n        /* \"#utility.yul\":129:149   */\n      revert\n        /* \"#utility.yul\":88:90   */\n    tag_173:\n        /* \"#utility.yul\":183:189   */\n      dup2\n        /* \"#utility.yul\":170:190   */\n      calldataload\n        /* \"#utility.yul\":209:213   */\n      0x20\n        /* \"#utility.yul\":233:293   */\n      tag_174\n        /* \"#utility.yul\":249:292   */\n      tag_175\n        /* \"#utility.yul\":289:291   */\n      dup4\n        /* \"#utility.yul\":249:292   */\n      tag_176\n      jump\t// in\n    tag_175:\n        /* \"#utility.yul\":233:293   */\n      tag_177\n      jump\t// in\n    tag_174:\n        /* \"#utility.yul\":315:318   */\n      dup1\n        /* \"#utility.yul\":339:341   */\n      dup4\n        /* \"#utility.yul\":334:337   */\n      dup3\n        /* \"#utility.yul\":327:342   */\n      mstore\n        /* \"#utility.yul\":367:369   */\n      dup3\n        /* \"#utility.yul\":362:365   */\n      dup3\n        /* \"#utility.yul\":358:370   */\n      add\n        /* \"#utility.yul\":351:370   */\n      swap2\n      pop\n        /* \"#utility.yul\":402:404   */\n      dup3\n        /* \"#utility.yul\":394:400   */\n      dup7\n        /* \"#utility.yul\":390:405   */\n      add\n        /* \"#utility.yul\":454:457   */\n      dup8\n        /* \"#utility.yul\":449:451   */\n      dup5\n        /* \"#utility.yul\":443:445   */\n      dup7\n        /* \"#utility.yul\":440:441   */\n      0x05\n        /* \"#utility.yul\":436:446   */\n      shl\n        /* \"#utility.yul\":428:434   */\n      dup10\n        /* \"#utility.yul\":424:447   */\n      add\n        /* \"#utility.yul\":420:452   */\n      add\n        /* \"#utility.yul\":417:458   */\n      gt\n        /* \"#utility.yul\":414:416   */\n      iszero\n      tag_178\n      jumpi\n        /* \"#utility.yul\":475:480   */\n      dup6\n        /* \"#utility.yul\":468:473   */\n      dup7\n        /* \"#utility.yul\":461:481   */\n      revert\n        /* \"#utility.yul\":414:416   */\n    tag_178:\n        /* \"#utility.yul\":501:506   */\n      dup6\n        /* \"#utility.yul\":515:753   */\n    tag_179:\n        /* \"#utility.yul\":529:531   */\n      dup6\n        /* \"#utility.yul\":526:527   */\n      dup2\n        /* \"#utility.yul\":523:532   */\n      lt\n        /* \"#utility.yul\":515:753   */\n      iszero\n      tag_181\n      jumpi\n        /* \"#utility.yul\":600:603   */\n      dup2\n        /* \"#utility.yul\":587:604   */\n      calldataload\n        /* \"#utility.yul\":617:648   */\n      tag_182\n        /* \"#utility.yul\":642:647   */\n      dup2\n        /* \"#utility.yul\":617:648   */\n      tag_183\n      jump\t// in\n    tag_182:\n        /* \"#utility.yul\":661:679   */\n      dup5\n      mstore\n        /* \"#utility.yul\":699:711   */\n      swap3\n      dup5\n      add\n      swap3\n        /* \"#utility.yul\":731:743   */\n      swap1\n      dup5\n      add\n      swap1\n        /* \"#utility.yul\":547:548   */\n      0x01\n        /* \"#utility.yul\":540:549   */\n      add\n        /* \"#utility.yul\":515:753   */\n      jump(tag_179)\n    tag_181:\n      pop\n        /* \"#utility.yul\":771:776   */\n      swap1\n      swap8\n        /* \"#utility.yul\":78:782   */\n      swap7\n      pop\n      pop\n      pop\n      pop\n      pop\n      pop\n      pop\n      jump\t// out\n        /* \"#utility.yul\":787:1644   */\n    tag_184:\n        /* \"#utility.yul\":840:845   */\n      0x00\n        /* \"#utility.yul\":893:896   */\n      dup3\n        /* \"#utility.yul\":886:890   */\n      0x1f\n        /* \"#utility.yul\":878:884   */\n      dup4\n        /* \"#utility.yul\":874:891   */\n      add\n        /* \"#utility.yul\":870:897   */\n      slt\n        /* \"#utility.yul\":860:862   */\n      tag_186\n      jumpi\n        /* \"#utility.yul\":915:920   */\n      dup1\n        /* \"#utility.yul\":908:913   */\n      dup2\n        /* \"#utility.yul\":901:921   */\n      revert\n        /* \"#utility.yul\":860:862   */\n    tag_186:\n        /* \"#utility.yul\":955:961   */\n      dup2\n        /* \"#utility.yul\":942:962   */\n      calldataload\n        /* \"#utility.yul\":981:985   */\n      0x20\n        /* \"#utility.yul\":1005:1065   */\n      tag_187\n        /* \"#utility.yul\":1021:1064   */\n      tag_175\n        /* \"#utility.yul\":1061:1063   */\n      dup4\n        /* \"#utility.yul\":1021:1064   */\n      tag_176\n      jump\t// in\n        /* \"#utility.yul\":1005:1065   */\n    tag_187:\n        /* \"#utility.yul\":1087:1090   */\n      dup1\n        /* \"#utility.yul\":1111:1113   */\n      dup4\n        /* \"#utility.yul\":1106:1109   */\n      dup3\n        /* \"#utility.yul\":1099:1114   */\n      mstore\n        /* \"#utility.yul\":1139:1141   */\n      dup3\n        /* \"#utility.yul\":1134:1137   */\n      dup3\n        /* \"#utility.yul\":1130:1142   */\n      add\n        /* \"#utility.yul\":1123:1142   */\n      swap2\n      pop\n        /* \"#utility.yul\":1174:1176   */\n      dup3\n        /* \"#utility.yul\":1166:1172   */\n      dup7\n        /* \"#utility.yul\":1162:1177   */\n      add\n        /* \"#utility.yul\":1226:1229   */\n      dup8\n        /* \"#utility.yul\":1221:1223   */\n      dup5\n        /* \"#utility.yul\":1215:1217   */\n      dup7\n        /* \"#utility.yul\":1212:1213   */\n      0x05\n        /* \"#utility.yul\":1208:1218   */\n      shl\n        /* \"#utility.yul\":1200:1206   */\n      dup10\n        /* \"#utility.yul\":1196:1219   */\n      add\n        /* \"#utility.yul\":1192:1224   */\n      add\n        /* \"#utility.yul\":1189:1230   */\n      gt\n        /* \"#utility.yul\":1186:1188   */\n      iszero\n      tag_189\n      jumpi\n        /* \"#utility.yul\":1247:1252   */\n      dup6\n        /* \"#utility.yul\":1240:1245   */\n      dup7\n        /* \"#utility.yul\":1233:1253   */\n      revert\n        /* \"#utility.yul\":1186:1188   */\n    tag_189:\n        /* \"#utility.yul\":1273:1278   */\n      dup6\n        /* \"#utility.yul\":1287:1615   */\n    tag_190:\n        /* \"#utility.yul\":1301:1303   */\n      dup6\n        /* \"#utility.yul\":1298:1299   */\n      dup2\n        /* \"#utility.yul\":1295:1304   */\n      lt\n        /* \"#utility.yul\":1287:1615   */\n      iszero\n      tag_181\n      jumpi\n        /* \"#utility.yul\":1378:1381   */\n      dup2\n        /* \"#utility.yul\":1365:1382   */\n      calldataload\n      sub(shl(0x40, 0x01), 0x01)\n        /* \"#utility.yul\":1401:1412   */\n      dup2\n        /* \"#utility.yul\":1398:1433   */\n      gt\n        /* \"#utility.yul\":1395:1397   */\n      iszero\n      tag_193\n      jumpi\n        /* \"#utility.yul\":1450:1455   */\n      dup8\n        /* \"#utility.yul\":1443:1448   */\n      dup9\n        /* \"#utility.yul\":1436:1456   */\n      revert\n        /* \"#utility.yul\":1395:1397   */\n    tag_193:\n        /* \"#utility.yul\":1483:1540   */\n      tag_194\n        /* \"#utility.yul\":1536:1539   */\n      dup11\n        /* \"#utility.yul\":1531:1533   */\n      dup8\n        /* \"#utility.yul\":1517:1528   */\n      dup4\n        /* \"#utility.yul\":1509:1515   */\n      dup13\n        /* \"#utility.yul\":1505:1529   */\n      add\n        /* \"#utility.yul\":1501:1534   */\n      add\n        /* \"#utility.yul\":1483:1540   */\n      tag_195\n      jump\t// in\n    tag_194:\n        /* \"#utility.yul\":1471:1541   */\n      dup6\n      mstore\n      pop\n        /* \"#utility.yul\":1561:1573   */\n      swap3\n      dup5\n      add\n      swap3\n        /* \"#utility.yul\":1593:1605   */\n      swap1\n      dup5\n      add\n      swap1\n        /* \"#utility.yul\":1319:1320   */\n      0x01\n        /* \"#utility.yul\":1312:1321   */\n      add\n        /* \"#utility.yul\":1287:1615   */\n      jump(tag_190)\n        /* \"#utility.yul\":1649:2200   */\n    tag_195:\n        /* \"#utility.yul\":1692:1697   */\n      0x00\n        /* \"#utility.yul\":1745:1748   */\n      dup3\n        /* \"#utility.yul\":1738:1742   */\n      0x1f\n        /* \"#utility.yul\":1730:1736   */\n      dup4\n        /* \"#utility.yul\":1726:1743   */\n      add\n        /* \"#utility.yul\":1722:1749   */\n      slt\n        /* \"#utility.yul\":1712:1714   */\n      tag_197\n      jumpi\n        /* \"#utility.yul\":1767:1772   */\n      dup1\n        /* \"#utility.yul\":1760:1765   */\n      dup2\n        /* \"#utility.yul\":1753:1773   */\n      revert\n        /* \"#utility.yul\":1712:1714   */\n    tag_197:\n        /* \"#utility.yul\":1807:1813   */\n      dup2\n        /* \"#utility.yul\":1794:1814   */\n      calldataload\n      sub(shl(0x40, 0x01), 0x01)\n        /* \"#utility.yul\":1829:1831   */\n      dup2\n        /* \"#utility.yul\":1826:1852   */\n      gt\n        /* \"#utility.yul\":1823:1825   */\n      iszero\n      tag_199\n      jumpi\n        /* \"#utility.yul\":1855:1873   */\n      tag_199\n      tag_200\n      jump\t// in\n    tag_199:\n        /* \"#utility.yul\":1899:1954   */\n      tag_201\n        /* \"#utility.yul\":1942:1944   */\n      0x1f\n        /* \"#utility.yul\":1923:1936   */\n      dup3\n      add\n      not(0x1f)\n        /* \"#utility.yul\":1919:1946   */\n      and\n        /* \"#utility.yul\":1948:1952   */\n      0x20\n        /* \"#utility.yul\":1915:1953   */\n      add\n        /* \"#utility.yul\":1899:1954   */\n      tag_177\n      jump\t// in\n    tag_201:\n        /* \"#utility.yul\":1979:1981   */\n      dup2\n        /* \"#utility.yul\":1970:1977   */\n      dup2\n        /* \"#utility.yul\":1963:1982   */\n      mstore\n        /* \"#utility.yul\":2025:2028   */\n      dup5\n        /* \"#utility.yul\":2018:2022   */\n      0x20\n        /* \"#utility.yul\":2013:2015   */\n      dup4\n        /* \"#utility.yul\":2005:2011   */\n      dup7\n        /* \"#utility.yul\":2001:2016   */\n      add\n        /* \"#utility.yul\":1997:2023   */\n      add\n        /* \"#utility.yul\":1994:2029   */\n      gt\n        /* \"#utility.yul\":1991:1993   */\n      iszero\n      tag_202\n      jumpi\n        /* \"#utility.yul\":2046:2051   */\n      dup3\n        /* \"#utility.yul\":2039:2044   */\n      dup4\n        /* \"#utility.yul\":2032:2052   */\n      revert\n        /* \"#utility.yul\":1991:1993   */\n    tag_202:\n        /* \"#utility.yul\":2115:2117   */\n      dup2\n        /* \"#utility.yul\":2108:2112   */\n      0x20\n        /* \"#utility.yul\":2100:2106   */\n      dup6\n        /* \"#utility.yul\":2096:2113   */\n      add\n        /* \"#utility.yul\":2089:2093   */\n      0x20\n        /* \"#utility.yul\":2080:2087   */\n      dup4\n        /* \"#utility.yul\":2076:2094   */\n      add\n        /* \"#utility.yul\":2063:2118   */\n      calldatacopy\n        /* \"#utility.yul\":2138:2154   */\n      swap1\n      dup2\n      add\n        /* \"#utility.yul\":2156:2160   */\n      0x20\n        /* \"#utility.yul\":2134:2161   */\n      add\n        /* \"#utility.yul\":2127:2169   */\n      swap2\n      swap1\n      swap2\n      mstore\n        /* \"#utility.yul\":2142:2149   */\n      swap3\n        /* \"#utility.yul\":1702:2200   */\n      swap2\n      pop\n      pop\n      jump\t// out\n        /* \"#utility.yul\":2205:2462   */\n    tag_30:\n        /* \"#utility.yul\":2264:2270   */\n      0x00\n        /* \"#utility.yul\":2317:2319   */\n      0x20\n        /* \"#utility.yul\":2305:2314   */\n      dup3\n        /* \"#utility.yul\":2296:2303   */\n      dup5\n        /* \"#utility.yul\":2292:2315   */\n      sub\n        /* \"#utility.yul\":2288:2320   */\n      slt\n        /* \"#utility.yul\":2285:2287   */\n      iszero\n      tag_204\n      jumpi\n        /* \"#utility.yul\":2338:2344   */\n      dup1\n        /* \"#utility.yul\":2330:2336   */\n      dup2\n        /* \"#utility.yul\":2323:2345   */\n      revert\n        /* \"#utility.yul\":2285:2287   */\n    tag_204:\n        /* \"#utility.yul\":2382:2391   */\n      dup2\n        /* \"#utility.yul\":2369:2392   */\n      calldataload\n        /* \"#utility.yul\":2401:2432   */\n      tag_79\n        /* \"#utility.yul\":2426:2431   */\n      dup2\n        /* \"#utility.yul\":2401:2432   */\n      tag_183\n      jump\t// in\n        /* \"#utility.yul\":2467:2728   */\n    tag_90:\n        /* \"#utility.yul\":2537:2543   */\n      0x00\n        /* \"#utility.yul\":2590:2592   */\n      0x20\n        /* \"#utility.yul\":2578:2587   */\n      dup3\n        /* \"#utility.yul\":2569:2576   */\n      dup5\n        /* \"#utility.yul\":2565:2588   */\n      sub\n        /* \"#utility.yul\":2561:2593   */\n      slt\n        /* \"#utility.yul\":2558:2560   */\n      iszero\n      tag_207\n      jumpi\n        /* \"#utility.yul\":2611:2617   */\n      dup1\n        /* \"#utility.yul\":2603:2609   */\n      dup2\n        /* \"#utility.yul\":2596:2618   */\n      revert\n        /* \"#utility.yul\":2558:2560   */\n    tag_207:\n        /* \"#utility.yul\":2648:2657   */\n      dup2\n        /* \"#utility.yul\":2642:2658   */\n      mload\n        /* \"#utility.yul\":2667:2698   */\n      tag_79\n        /* \"#utility.yul\":2692:2697   */\n      dup2\n        /* \"#utility.yul\":2667:2698   */\n      tag_183\n      jump\t// in\n        /* \"#utility.yul\":2733:3210   */\n    tag_47:\n        /* \"#utility.yul\":2811:2817   */\n      0x00\n        /* \"#utility.yul\":2819:2825   */\n      dup1\n        /* \"#utility.yul\":2872:2874   */\n      0x40\n        /* \"#utility.yul\":2860:2869   */\n      dup4\n        /* \"#utility.yul\":2851:2858   */\n      dup6\n        /* \"#utility.yul\":2847:2870   */\n      sub\n        /* \"#utility.yul\":2843:2875   */\n      slt\n        /* \"#utility.yul\":2840:2842   */\n      iszero\n      tag_210\n      jumpi\n        /* \"#utility.yul\":2893:2899   */\n      dup1\n        /* \"#utility.yul\":2885:2891   */\n      dup2\n        /* \"#utility.yul\":2878:2900   */\n      revert\n        /* \"#utility.yul\":2840:2842   */\n    tag_210:\n        /* \"#utility.yul\":2937:2946   */\n      dup3\n        /* \"#utility.yul\":2924:2947   */\n      calldataload\n        /* \"#utility.yul\":2956:2987   */\n      tag_211\n        /* \"#utility.yul\":2981:2986   */\n      dup2\n        /* \"#utility.yul\":2956:2987   */\n      tag_183\n      jump\t// in\n    tag_211:\n        /* \"#utility.yul\":3006:3011   */\n      swap2\n      pop\n        /* \"#utility.yul\":3062:3064   */\n      0x20\n        /* \"#utility.yul\":3047:3065   */\n      dup4\n      add\n        /* \"#utility.yul\":3034:3066   */\n      calldataload\n      sub(shl(0x40, 0x01), 0x01)\n        /* \"#utility.yul\":3078:3108   */\n      dup2\n      gt\n        /* \"#utility.yul\":3075:3077   */\n      iszero\n      tag_212\n      jumpi\n        /* \"#utility.yul\":3126:3132   */\n      dup2\n        /* \"#utility.yul\":3118:3124   */\n      dup3\n        /* \"#utility.yul\":3111:3133   */\n      revert\n        /* \"#utility.yul\":3075:3077   */\n    tag_212:\n        /* \"#utility.yul\":3154:3204   */\n      tag_213\n        /* \"#utility.yul\":3196:3203   */\n      dup6\n        /* \"#utility.yul\":3187:3193   */\n      dup3\n        /* \"#utility.yul\":3176:3185   */\n      dup7\n        /* \"#utility.yul\":3172:3194   */\n      add\n        /* \"#utility.yul\":3154:3204   */\n      tag_195\n      jump\t// in\n    tag_213:\n        /* \"#utility.yul\":3144:3204   */\n      swap2\n      pop\n      pop\n        /* \"#utility.yul\":2830:3210   */\n      swap3\n      pop\n      swap3\n      swap1\n      pop\n      jump\t// out\n        /* \"#utility.yul\":3215:3849   */\n    tag_39:\n        /* \"#utility.yul\":3343:3349   */\n      0x00\n        /* \"#utility.yul\":3351:3357   */\n      dup1\n        /* \"#utility.yul\":3404:3406   */\n      0x40\n        /* \"#utility.yul\":3392:3401   */\n      dup4\n        /* \"#utility.yul\":3383:3390   */\n      dup6\n        /* \"#utility.yul\":3379:3402   */\n      sub\n        /* \"#utility.yul\":3375:3407   */\n      slt\n        /* \"#utility.yul\":3372:3374   */\n      iszero\n      tag_215\n      jumpi\n        /* \"#utility.yul\":3425:3431   */\n      dup2\n        /* \"#utility.yul\":3417:3423   */\n      dup3\n        /* \"#utility.yul\":3410:3432   */\n      revert\n        /* \"#utility.yul\":3372:3374   */\n    tag_215:\n        /* \"#utility.yul\":3470:3479   */\n      dup3\n        /* \"#utility.yul\":3457:3480   */\n      calldataload\n      sub(shl(0x40, 0x01), 0x01)\n        /* \"#utility.yul\":3540:3542   */\n      dup1\n        /* \"#utility.yul\":3532:3538   */\n      dup3\n        /* \"#utility.yul\":3529:3543   */\n      gt\n        /* \"#utility.yul\":3526:3528   */\n      iszero\n      tag_216\n      jumpi\n        /* \"#utility.yul\":3561:3567   */\n      dup4\n        /* \"#utility.yul\":3553:3559   */\n      dup5\n        /* \"#utility.yul\":3546:3568   */\n      revert\n        /* \"#utility.yul\":3526:3528   */\n    tag_216:\n        /* \"#utility.yul\":3589:3650   */\n      tag_217\n        /* \"#utility.yul\":3642:3649   */\n      dup7\n        /* \"#utility.yul\":3633:3639   */\n      dup4\n        /* \"#utility.yul\":3622:3631   */\n      dup8\n        /* \"#utility.yul\":3618:3640   */\n      add\n        /* \"#utility.yul\":3589:3650   */\n      tag_171\n      jump\t// in\n    tag_217:\n        /* \"#utility.yul\":3579:3650   */\n      swap4\n      pop\n        /* \"#utility.yul\":3703:3705   */\n      0x20\n        /* \"#utility.yul\":3692:3701   */\n      dup6\n        /* \"#utility.yul\":3688:3706   */\n      add\n        /* \"#utility.yul\":3675:3707   */\n      calldataload\n        /* \"#utility.yul\":3659:3707   */\n      swap2\n      pop\n        /* \"#utility.yul\":3732:3734   */\n      dup1\n        /* \"#utility.yul\":3722:3730   */\n      dup3\n        /* \"#utility.yul\":3719:3735   */\n      gt\n        /* \"#utility.yul\":3716:3718   */\n      iszero\n      tag_218\n      jumpi\n        /* \"#utility.yul\":3753:3759   */\n      dup3\n        /* \"#utility.yul\":3745:3751   */\n      dup4\n        /* \"#utility.yul\":3738:3760   */\n      revert\n        /* \"#utility.yul\":3716:3718   */\n    tag_218:\n      pop\n        /* \"#utility.yul\":3781:3843   */\n      tag_213\n        /* \"#utility.yul\":3835:3842   */\n      dup6\n        /* \"#utility.yul\":3824:3832   */\n      dup3\n        /* \"#utility.yul\":3813:3822   */\n      dup7\n        /* \"#utility.yul\":3809:3833   */\n      add\n        /* \"#utility.yul\":3781:3843   */\n      tag_184\n      jump\t// in\n        /* \"#utility.yul\":3854:4488   */\n    tag_16:\n        /* \"#utility.yul\":3982:3988   */\n      0x00\n        /* \"#utility.yul\":3990:3996   */\n      dup1\n        /* \"#utility.yul\":4043:4045   */\n      0x40\n        /* \"#utility.yul\":4031:4040   */\n      dup4\n        /* \"#utility.yul\":4022:4029   */\n      dup6\n        /* \"#utility.yul\":4018:4041   */\n      sub\n        /* \"#utility.yul\":4014:4046   */\n      slt\n        /* \"#utility.yul\":4011:4013   */\n      iszero\n      tag_221\n      jumpi\n        /* \"#utility.yul\":4064:4070   */\n      dup2\n        /* \"#utility.yul\":4056:4062   */\n      dup3\n        /* \"#utility.yul\":4049:4071   */\n      revert\n        /* \"#utility.yul\":4011:4013   */\n    tag_221:\n        /* \"#utility.yul\":4109:4118   */\n      dup3\n        /* \"#utility.yul\":4096:4119   */\n      calldataload\n      sub(shl(0x40, 0x01), 0x01)\n        /* \"#utility.yul\":4179:4181   */\n      dup1\n        /* \"#utility.yul\":4171:4177   */\n      dup3\n        /* \"#utility.yul\":4168:4182   */\n      gt\n        /* \"#utility.yul\":4165:4167   */\n      iszero\n      tag_222\n      jumpi\n        /* \"#utility.yul\":4200:4206   */\n      dup4\n        /* \"#utility.yul\":4192:4198   */\n      dup5\n        /* \"#utility.yul\":4185:4207   */\n      revert\n        /* \"#utility.yul\":4165:4167   */\n    tag_222:\n        /* \"#utility.yul\":4228:4288   */\n      tag_223\n        /* \"#utility.yul\":4280:4287   */\n      dup7\n        /* \"#utility.yul\":4271:4277   */\n      dup4\n        /* \"#utility.yul\":4260:4269   */\n      dup8\n        /* \"#utility.yul\":4256:4278   */\n      add\n        /* \"#utility.yul\":4228:4288   */\n      tag_184\n      jump\t// in\n    tag_223:\n        /* \"#utility.yul\":4218:4288   */\n      swap4\n      pop\n        /* \"#utility.yul\":4341:4343   */\n      0x20\n        /* \"#utility.yul\":4330:4339   */\n      dup6\n        /* \"#utility.yul\":4326:4344   */\n      add\n        /* \"#utility.yul\":4313:4345   */\n      calldataload\n        /* \"#utility.yul\":4297:4345   */\n      swap2\n      pop\n        /* \"#utility.yul\":4370:4372   */\n      dup1\n        /* \"#utility.yul\":4360:4368   */\n      dup3\n        /* \"#utility.yul\":4357:4373   */\n      gt\n        /* \"#utility.yul\":4354:4356   */\n      iszero\n      tag_224\n      jumpi\n        /* \"#utility.yul\":4391:4397   */\n      dup3\n        /* \"#utility.yul\":4383:4389   */\n      dup4\n        /* \"#utility.yul\":4376:4398   */\n      revert\n        /* \"#utility.yul\":4354:4356   */\n    tag_224:\n      pop\n        /* \"#utility.yul\":4419:4482   */\n      tag_213\n        /* \"#utility.yul\":4474:4481   */\n      dup6\n        /* \"#utility.yul\":4463:4471   */\n      dup3\n        /* \"#utility.yul\":4452:4461   */\n      dup7\n        /* \"#utility.yul\":4448:4472   */\n      add\n        /* \"#utility.yul\":4419:4482   */\n      tag_171\n      jump\t// in\n        /* \"#utility.yul\":4493:4683   */\n    tag_20:\n        /* \"#utility.yul\":4552:4558   */\n      0x00\n        /* \"#utility.yul\":4605:4607   */\n      0x20\n        /* \"#utility.yul\":4593:4602   */\n      dup3\n        /* \"#utility.yul\":4584:4591   */\n      dup5\n        /* \"#utility.yul\":4580:4603   */\n      sub\n        /* \"#utility.yul\":4576:4608   */\n      slt\n        /* \"#utility.yul\":4573:4575   */\n      iszero\n      tag_227\n      jumpi\n        /* \"#utility.yul\":4626:4632   */\n      dup1\n        /* \"#utility.yul\":4618:4624   */\n      dup2\n        /* \"#utility.yul\":4611:4633   */\n      revert\n        /* \"#utility.yul\":4573:4575   */\n    tag_227:\n      pop\n        /* \"#utility.yul\":4654:4677   */\n      calldataload\n      swap2\n        /* \"#utility.yul\":4563:4683   */\n      swap1\n      pop\n      jump\t// out\n        /* \"#utility.yul\":4688:5165   */\n    tag_51:\n        /* \"#utility.yul\":4766:4772   */\n      0x00\n        /* \"#utility.yul\":4774:4780   */\n      dup1\n        /* \"#utility.yul\":4827:4829   */\n      0x40\n        /* \"#utility.yul\":4815:4824   */\n      dup4\n        /* \"#utility.yul\":4806:4813   */\n      dup6\n        /* \"#utility.yul\":4802:4825   */\n      sub\n        /* \"#utility.yul\":4798:4830   */\n      slt\n        /* \"#utility.yul\":4795:4797   */\n      iszero\n      tag_229\n      jumpi\n        /* \"#utility.yul\":4848:4854   */\n      dup2\n        /* \"#utility.yul\":4840:4846   */\n      dup3\n        /* \"#utility.yul\":4833:4855   */\n      revert\n        /* \"#utility.yul\":4795:4797   */\n    tag_229:\n        /* \"#utility.yul\":4893:4902   */\n      dup3\n        /* \"#utility.yul\":4880:4903   */\n      calldataload\n      sub(shl(0x40, 0x01), 0x01)\n        /* \"#utility.yul\":4918:4924   */\n      dup2\n        /* \"#utility.yul\":4915:4945   */\n      gt\n        /* \"#utility.yul\":4912:4914   */\n      iszero\n      tag_230\n      jumpi\n        /* \"#utility.yul\":4963:4969   */\n      dup3\n        /* \"#utility.yul\":4955:4961   */\n      dup4\n        /* \"#utility.yul\":4948:4970   */\n      revert\n        /* \"#utility.yul\":4912:4914   */\n    tag_230:\n        /* \"#utility.yul\":4991:5041   */\n      tag_231\n        /* \"#utility.yul\":5033:5040   */\n      dup6\n        /* \"#utility.yul\":5024:5030   */\n      dup3\n        /* \"#utility.yul\":5013:5022   */\n      dup7\n        /* \"#utility.yul\":5009:5031   */\n      add\n        /* \"#utility.yul\":4991:5041   */\n      tag_195\n      jump\t// in\n    tag_231:\n        /* \"#utility.yul\":4981:5041   */\n      swap3\n      pop\n      pop\n        /* \"#utility.yul\":5091:5093   */\n      0x20\n        /* \"#utility.yul\":5080:5089   */\n      dup4\n        /* \"#utility.yul\":5076:5094   */\n      add\n        /* \"#utility.yul\":5063:5095   */\n      calldataload\n        /* \"#utility.yul\":5104:5135   */\n      tag_232\n        /* \"#utility.yul\":5129:5134   */\n      dup2\n        /* \"#utility.yul\":5104:5135   */\n      tag_183\n      jump\t// in\n    tag_232:\n        /* \"#utility.yul\":5154:5159   */\n      dup1\n        /* \"#utility.yul\":5144:5159   */\n      swap2\n      pop\n      pop\n        /* \"#utility.yul\":4785:5165   */\n      swap3\n      pop\n      swap3\n      swap1\n      pop\n      jump\t// out\n        /* \"#utility.yul\":8370:8726   */\n    tag_63:\n        /* \"#utility.yul\":8572:8574   */\n      0x20\n        /* \"#utility.yul\":8554:8575   */\n      dup1\n      dup3\n      mstore\n        /* \"#utility.yul\":8591:8609   */\n      dup2\n      dup2\n      add\n        /* \"#utility.yul\":8584:8614   */\n      mstore\n        /* \"#utility.yul\":8650:8684   */\n      0x4f776e61626c653a2063616c6c6572206973206e6f7420746865206f776e6572\n        /* \"#utility.yul\":8645:8647   */\n      0x40\n        /* \"#utility.yul\":8630:8648   */\n      dup3\n      add\n        /* \"#utility.yul\":8623:8685   */\n      mstore\n        /* \"#utility.yul\":8717:8719   */\n      0x60\n        /* \"#utility.yul\":8702:8720   */\n      add\n      swap1\n        /* \"#utility.yul\":8544:8726   */\n      jump\t// out\n        /* \"#utility.yul\":9846:10121   */\n    tag_177:\n        /* \"#utility.yul\":9917:9919   */\n      0x40\n        /* \"#utility.yul\":9911:9920   */\n      mload\n        /* \"#utility.yul\":9982:9984   */\n      0x1f\n        /* \"#utility.yul\":9963:9976   */\n      dup3\n      add\n      not(0x1f)\n        /* \"#utility.yul\":9959:9986   */\n      and\n        /* \"#utility.yul\":9947:9987   */\n      dup2\n      add\n      sub(shl(0x40, 0x01), 0x01)\n        /* \"#utility.yul\":10002:10036   */\n      dup2\n      gt\n        /* \"#utility.yul\":10038:10060   */\n      dup3\n      dup3\n      lt\n        /* \"#utility.yul\":9999:10061   */\n      or\n        /* \"#utility.yul\":9996:9998   */\n      iszero\n      tag_249\n      jumpi\n        /* \"#utility.yul\":10064:10082   */\n      tag_249\n      tag_200\n      jump\t// in\n    tag_249:\n        /* \"#utility.yul\":10100:10102   */\n      0x40\n        /* \"#utility.yul\":10093:10115   */\n      mstore\n        /* \"#utility.yul\":9891:10121   */\n      swap2\n      swap1\n      pop\n      jump\t// out\n        /* \"#utility.yul\":10126:10309   */\n    tag_176:\n        /* \"#utility.yul\":10186:10190   */\n      0x00\n      sub(shl(0x40, 0x01), 0x01)\n        /* \"#utility.yul\":10211:10217   */\n      dup3\n        /* \"#utility.yul\":10208:10238   */\n      gt\n        /* \"#utility.yul\":10205:10207   */\n      iszero\n      tag_252\n      jumpi\n        /* \"#utility.yul\":10241:10259   */\n      tag_252\n      tag_200\n      jump\t// in\n    tag_252:\n      pop\n        /* \"#utility.yul\":10286:10287   */\n      0x05\n        /* \"#utility.yul\":10282:10296   */\n      shl\n        /* \"#utility.yul\":10298:10302   */\n      0x20\n        /* \"#utility.yul\":10278:10303   */\n      add\n      swap1\n        /* \"#utility.yul\":10195:10309   */\n      jump\t// out\n        /* \"#utility.yul\":10314:10550   */\n    tag_138:\n        /* \"#utility.yul\":10353:10356   */\n      0x00\n      not(0x00)\n        /* \"#utility.yul\":10374:10391   */\n      dup3\n      eq\n        /* \"#utility.yul\":10371:10373   */\n      iszero\n      tag_254\n      jumpi\n      shl(0xe0, 0x4e487b71)\n        /* \"#utility.yul\":10414:10447   */\n      dup2\n      mstore\n        /* \"#utility.yul\":10470:10474   */\n      0x11\n        /* \"#utility.yul\":10467:10468   */\n      0x04\n        /* \"#utility.yul\":10460:10475   */\n      mstore\n        /* \"#utility.yul\":10500:10504   */\n      0x24\n        /* \"#utility.yul\":10421:10424   */\n      dup2\n        /* \"#utility.yul\":10488:10505   */\n      revert\n        /* \"#utility.yul\":10371:10373   */\n    tag_254:\n      pop\n        /* \"#utility.yul\":10542:10543   */\n      0x01\n        /* \"#utility.yul\":10531:10544   */\n      add\n      swap1\n        /* \"#utility.yul\":10361:10550   */\n      jump\t// out\n        /* \"#utility.yul\":10555:10682   */\n    tag_200:\n        /* \"#utility.yul\":10616:10626   */\n      0x4e487b71\n        /* \"#utility.yul\":10611:10614   */\n      0xe0\n        /* \"#utility.yul\":10607:10627   */\n      shl\n        /* \"#utility.yul\":10604:10605   */\n      0x00\n        /* \"#utility.yul\":10597:10628   */\n      mstore\n        /* \"#utility.yul\":10647:10651   */\n      0x41\n        /* \"#utility.yul\":10644:10645   */\n      0x04\n        /* \"#utility.yul\":10637:10652   */\n      mstore\n        /* \"#utility.yul\":10671:10675   */\n      0x24\n        /* \"#utility.yul\":10668:10669   */\n      0x00\n        /* \"#utility.yul\":10661:10676   */\n      revert\n        /* \"#utility.yul\":10687:10818   */\n    tag_183:\n      sub(shl(0xa0, 0x01), 0x01)\n        /* \"#utility.yul\":10762:10793   */\n      dup2\n      and\n        /* \"#utility.yul\":10752:10794   */\n      dup2\n      eq\n        /* \"#utility.yul\":10742:10744   */\n      tag_120\n      jumpi\n        /* \"#utility.yul\":10808:10809   */\n      0x00\n        /* \"#utility.yul\":10805:10806   */\n      dup1\n        /* \"#utility.yul\":10798:10810   */\n      revert\n\n    auxdata: 0xa2646970667358221220c9ae7940801d4662fcdd30394691ef1ffc53e6fa217faedc0dbb11ede3ad441864736f6c63430008040033\n}\n",
				"bytecode": {
					"linkReferences": {},
					"object": "60806040523480156200001157600080fd5b506040516200163738038062001637833981016040819052620000349162000736565b85620000408162000080565b50600180546001600160a01b0319166001600160a01b038716179055620000688484620000d0565b620000748282620001c8565b505050505050620008a6565b600080546001600160a01b038381166001600160a01b0319831681178455604051919092169283917f8be0079c531659141344cd1fd0a4f28419497f9722a3daafe3b4186f6b6457e09190a35050565b80518251146200013f5760405162461bcd60e51b815260206004820152602f60248201527f7365744e667454797065732066756e6374696f6e20696e666f726d6174696f6e60448201526e040c2e4d2e8f240dad2e6dac2e8c6d608b1b60648201526084015b60405180910390fd5b60005b8151811015620001c357620001ae8382815181106200017157634e487b7160e01b600052603260045260246000fd5b60200260200101518383815181106200019a57634e487b7160e01b600052603260045260246000fd5b6020026020010151620002b960201b60201c565b80620001ba8162000868565b91505062000142565b505050565b8051825114620002355760405162461bcd60e51b815260206004820152603160248201527f7365744e46545065726d6974732066756e6374696f6e20696e666f726d6174696044820152700dedc40c2e4d2e8f240dad2e6dac2e8c6d607b1b606482015260840162000136565b60005b8251811015620001c357620002a48382815181106200026757634e487b7160e01b600052603260045260246000fd5b60200260200101518383815181106200029057634e487b7160e01b600052603260045260246000fd5b60200260200101516200036f60201b60201c565b80620002b08162000868565b91505062000238565b8151620002fc5760405162461bcd60e51b815260206004820152601060248201526f6e66745479706520697320656d70747960801b604482015260640162000136565b600062000314836200053b60201b620004d41760201c565b60008181526002602052604080822080546001600160a01b0319166001600160a01b03871690811790915590519293509183917f22be69269c1f7d73e73dcb25b710dd88c7aa1cf374c16d945def98df2107c2f891a3505050565b6001600160a01b038216620003c75760405162461bcd60e51b815260206004820152601b60248201527f6e6674436f6e7472616374206973207a65726f20616464726573730000000000604482015260640162000136565b6000620003df826200053b60201b620004d41760201c565b905080156200044e576000818152600260205260409020546001600160a01b03166200044e5760405162461bcd60e51b815260206004820152601760248201527f4e46542074797065206e6f742072656769737465726564000000000000000000604482015260640162000136565b6200048a6040518060400160405280600e81526020016d20b4b9323937b82bb930b83832b960911b8152506200053b60201b620004d41760201c565b6001600160a01b0384166000908152600360205260409020541415620004f35760405162461bcd60e51b815260206004820181905260248201527f41697264726f70577261707065722063616e2774206265206d6f646966696564604482015260640162000136565b6001600160a01b038316600081815260036020526040808220849055518392917f903a211c8bcdc0ab18afc116fc4776504a9aac5c0121be0fda712d399017bd2291a3505050565b60006020825111156200057f5760405162461bcd60e51b815260206004820152600b60248201526a696e76616c6964206b657960a81b604482015260640162000136565b506020015190565b80516001600160a01b03811681146200059f57600080fd5b919050565b600082601f830112620005b5578081fd5b81516020620005ce620005c88362000842565b6200080f565b80838252828201915082860187848660051b8901011115620005ee578586fd5b855b858110156200061757620006048262000587565b84529284019290840190600101620005f0565b5090979650505050505050565b6000601f838184011262000636578182fd5b8251602062000649620005c88362000842565b80838252828201915082870188848660051b8a0101111562000669578687fd5b865b85811015620007285781516001600160401b03808211156200068b57898afd5b818b0191508b603f8301126200069f57898afd5b8682015181811115620006b657620006b662000890565b620006c9818b01601f191689016200080f565b915080825260408d81838601011115620006e1578b8cfd5b8b5b8281101562000700578481018201518482018b01528901620006e3565b8281111562000711578c8a84860101525b50505085525092840192908401906001016200066b565b509098975050505050505050565b60008060008060008060c087890312156200074f578182fd5b6200075a8762000587565b95506200076a6020880162000587565b60408801519095506001600160401b038082111562000787578384fd5b620007958a838b0162000624565b95506060890151915080821115620007ab578384fd5b620007b98a838b01620005a4565b94506080890151915080821115620007cf578384fd5b620007dd8a838b01620005a4565b935060a0890151915080821115620007f3578283fd5b506200080289828a0162000624565b9150509295509295509295565b604051601f8201601f191681016001600160401b03811182821017156200083a576200083a62000890565b604052919050565b60006001600160401b038211156200085e576200085e62000890565b5060051b60200190565b60006000198214156200088957634e487b7160e01b81526011600452602481fd5b5060010190565b634e487b7160e01b600052604160045260246000fd5b610d8180620008b66000396000f3fe608060405234801561001057600080fd5b506004361061009e5760003560e01c806395244b941161006657806395244b941461013a578063b8c8aff81461014d578063c88641a214610160578063d8e4e93e14610173578063f2fde38b1461018657600080fd5b80630a21cc43146100a35780631a3dd0a5146100b8578063365a86fc146100e85780636651f11d146100fb5780638da5cb5b14610132575b600080fd5b6100b66100b1366004610bb4565b610199565b005b6100cb6100c6366004610c0a565b6101df565b6040516001600160a01b0390911681526020015b60405180910390f35b6001546100cb906001600160a01b031681565b610124610109366004610ad9565b6001600160a01b031660009081526003602052604090205490565b6040519081526020016100df565b6100cb6101fa565b6100b6610148366004610b5e565b610209565b6100cb61015b366004610ad9565b610242565b6100b661016e366004610b11565b61026b565b6100b6610181366004610c22565b6103fb565b6100b6610194366004610ad9565b610434565b336101a26101fa565b6001600160a01b0316146101d15760405162461bcd60e51b81526004016101c890610c71565b60405180910390fd5b6101db828261051e565b5050565b6000908152600260205260409020546001600160a01b031690565b6000546001600160a01b031690565b336102126101fa565b6001600160a01b0316146102385760405162461bcd60e51b81526004016101c890610c71565b6101db82826105fd565b6001600160a01b038116600090815260036020526040812054610264816101df565b9392505050565b8061029b6040518060400160405280600e81526020016d20b4b9323937b82bb930b83832b960911b8152506104d4565b6102a4826104d4565b14156103975733600154604051631c2d8fb360e31b81526e41495244524f505f464143544f525960881b60048201526001600160a01b03928316929091169063e16c7d989060240160206040518083038186803b15801561030457600080fd5b505afa158015610318573d6000803e3d6000fd5b505050506040513d601f19601f8201168201806040525081019061033c9190610af5565b6001600160a01b0316146103925760405162461bcd60e51b815260206004820152601c60248201527f63616c6c6572206973206e6f742041697264726f70466163746f72790000000060448201526064016101c8565b6103ec565b336103a06101fa565b6001600160a01b0316146103ec5760405162461bcd60e51b815260206004820152601360248201527231b0b63632b91034b9903737ba1037bbb732b960691b60448201526064016101c8565b6103f683836106de565b505050565b336104046101fa565b6001600160a01b03161461042a5760405162461bcd60e51b81526004016101c890610c71565b6101db8282610881565b3361043d6101fa565b6001600160a01b0316146104635760405162461bcd60e51b81526004016101c890610c71565b6001600160a01b0381166104c85760405162461bcd60e51b815260206004820152602660248201527f4f776e61626c653a206e6577206f776e657220697320746865207a65726f206160448201526564647265737360d01b60648201526084016101c8565b6104d181610928565b50565b60006020825111156105165760405162461bcd60e51b815260206004820152600b60248201526a696e76616c6964206b657960a81b60448201526064016101c8565b506020015190565b80518251146105875760405162461bcd60e51b815260206004820152602f60248201527f7365744e667454797065732066756e6374696f6e20696e666f726d6174696f6e60448201526e040c2e4d2e8f240dad2e6dac2e8c6d608b1b60648201526084016101c8565b60005b81518110156103f6576105eb8382815181106105b657634e487b7160e01b600052603260045260246000fd5b60200260200101518383815181106105de57634e487b7160e01b600052603260045260246000fd5b6020026020010151610881565b806105f581610cf9565b91505061058a565b80518251146106685760405162461bcd60e51b815260206004820152603160248201527f7365744e46545065726d6974732066756e6374696f6e20696e666f726d6174696044820152700dedc40c2e4d2e8f240dad2e6dac2e8c6d607b1b60648201526084016101c8565b60005b82518110156103f6576106cc83828151811061069757634e487b7160e01b600052603260045260246000fd5b60200260200101518383815181106106bf57634e487b7160e01b600052603260045260246000fd5b60200260200101516106de565b806106d681610cf9565b91505061066b565b6001600160a01b0382166107345760405162461bcd60e51b815260206004820152601b60248201527f6e6674436f6e7472616374206973207a65726f2061646472657373000000000060448201526064016101c8565b600061073f826104d4565b905080156107a3576000610752826101df565b6001600160a01b031614156107a35760405162461bcd60e51b8152602060048201526017602482015276139195081d1e5c19481b9bdd081c9959da5cdd195c9959604a1b60448201526064016101c8565b6107d26040518060400160405280600e81526020016d20b4b9323937b82bb930b83832b960911b8152506104d4565b6001600160a01b03841660009081526003602052604090205414156108395760405162461bcd60e51b815260206004820181905260248201527f41697264726f70577261707065722063616e2774206265206d6f64696669656460448201526064016101c8565b6001600160a01b038316600081815260036020526040808220849055518392917f903a211c8bcdc0ab18afc116fc4776504a9aac5c0121be0fda712d399017bd2291a3505050565b81516108c25760405162461bcd60e51b815260206004820152601060248201526f6e66745479706520697320656d70747960801b60448201526064016101c8565b60006108cd836104d4565b60008181526002602052604080822080546001600160a01b0319166001600160a01b03871690811790915590519293509183917f22be69269c1f7d73e73dcb25b710dd88c7aa1cf374c16d945def98df2107c2f891a3505050565b600080546001600160a01b038381166001600160a01b0319831681178455604051919092169283917f8be0079c531659141344cd1fd0a4f28419497f9722a3daafe3b4186f6b6457e09190a35050565b600082601f830112610988578081fd5b8135602061099d61099883610cd6565b610ca6565b80838252828201915082860187848660051b89010111156109bc578586fd5b855b858110156109e35781356109d181610d36565b845292840192908401906001016109be565b5090979650505050505050565b600082601f830112610a00578081fd5b81356020610a1061099883610cd6565b80838252828201915082860187848660051b8901011115610a2f578586fd5b855b858110156109e35781356001600160401b03811115610a4e578788fd5b610a5c8a87838c0101610a6f565b8552509284019290840190600101610a31565b600082601f830112610a7f578081fd5b81356001600160401b03811115610a9857610a98610d20565b610aab601f8201601f1916602001610ca6565b818152846020838601011115610abf578283fd5b816020850160208301379081016020019190915292915050565b600060208284031215610aea578081fd5b813561026481610d36565b600060208284031215610b06578081fd5b815161026481610d36565b60008060408385031215610b23578081fd5b8235610b2e81610d36565b915060208301356001600160401b03811115610b48578182fd5b610b5485828601610a6f565b9150509250929050565b60008060408385031215610b70578182fd5b82356001600160401b0380821115610b86578384fd5b610b9286838701610978565b93506020850135915080821115610ba7578283fd5b50610b54858286016109f0565b60008060408385031215610bc6578182fd5b82356001600160401b0380821115610bdc578384fd5b610be8868387016109f0565b93506020850135915080821115610bfd578283fd5b50610b5485828601610978565b600060208284031215610c1b578081fd5b5035919050565b60008060408385031215610c34578182fd5b82356001600160401b03811115610c49578283fd5b610c5585828601610a6f565b9250506020830135610c6681610d36565b809150509250929050565b6020808252818101527f4f776e61626c653a2063616c6c6572206973206e6f7420746865206f776e6572604082015260600190565b604051601f8201601f191681016001600160401b0381118282101715610cce57610cce610d20565b604052919050565b60006001600160401b03821115610cef57610cef610d20565b5060051b60200190565b6000600019821415610d1957634e487b7160e01b81526011600452602481fd5b5060010190565b634e487b7160e01b600052604160045260246000fd5b6001600160a01b03811681146104d157600080fdfea2646970667358221220c9ae7940801d4662fcdd30394691ef1ffc53e6fa217faedc0dbb11ede3ad441864736f6c63430008040033",
					"opcodes": "PUSH1 0x80 PUSH1 0x40 MSTORE CALLVALUE DUP1 ISZERO PUSH3 0x11 JUMPI PUSH1 0x0 DUP1 REVERT JUMPDEST POP PUSH1 0x40 MLOAD PUSH3 0x1637 CODESIZE SUB DUP1 PUSH3 0x1637 DUP4 CODECOPY DUP2 ADD PUSH1 0x40 DUP2 SWAP1 MSTORE PUSH3 0x34 SWAP2 PUSH3 0x736 JUMP JUMPDEST DUP6 PUSH3 0x40 DUP2 PUSH3 0x80 JUMP JUMPDEST POP PUSH1 0x1 DUP1 SLOAD PUSH1 0x1 PUSH1 0x1 PUSH1 0xA0 SHL SUB NOT AND PUSH1 0x1 PUSH1 0x1 PUSH1 0xA0 SHL SUB DUP8 AND OR SWAP1 SSTORE PUSH3 0x68 DUP5 DUP5 PUSH3 0xD0 JUMP JUMPDEST PUSH3 0x74 DUP3 DUP3 PUSH3 0x1C8 JUMP JUMPDEST POP POP POP POP POP POP PUSH3 0x8A6 JUMP JUMPDEST PUSH1 0x0 DUP1 SLOAD PUSH1 0x1 PUSH1 0x1 PUSH1 0xA0 SHL SUB DUP4 DUP2 AND PUSH1 0x1 PUSH1 0x1 PUSH1 0xA0 SHL SUB NOT DUP4 AND DUP2 OR DUP5 SSTORE PUSH1 0x40 MLOAD SWAP2 SWAP1 SWAP3 AND SWAP3 DUP4 SWAP2 PUSH32 0x8BE0079C531659141344CD1FD0A4F28419497F9722A3DAAFE3B4186F6B6457E0 SWAP2 SWAP1 LOG3 POP POP JUMP JUMPDEST DUP1 MLOAD DUP3 MLOAD EQ PUSH3 0x13F JUMPI PUSH1 0x40 MLOAD PUSH3 0x461BCD PUSH1 0xE5 SHL DUP2 MSTORE PUSH1 0x20 PUSH1 0x4 DUP3 ADD MSTORE PUSH1 0x2F PUSH1 0x24 DUP3 ADD MSTORE PUSH32 0x7365744E667454797065732066756E6374696F6E20696E666F726D6174696F6E PUSH1 0x44 DUP3 ADD MSTORE PUSH15 0x40C2E4D2E8F240DAD2E6DAC2E8C6D PUSH1 0x8B SHL PUSH1 0x64 DUP3 ADD MSTORE PUSH1 0x84 ADD JUMPDEST PUSH1 0x40 MLOAD DUP1 SWAP2 SUB SWAP1 REVERT JUMPDEST PUSH1 0x0 JUMPDEST DUP2 MLOAD DUP2 LT ISZERO PUSH3 0x1C3 JUMPI PUSH3 0x1AE DUP4 DUP3 DUP2 MLOAD DUP2 LT PUSH3 0x171 JUMPI PUSH4 0x4E487B71 PUSH1 0xE0 SHL PUSH1 0x0 MSTORE PUSH1 0x32 PUSH1 0x4 MSTORE PUSH1 0x24 PUSH1 0x0 REVERT JUMPDEST PUSH1 0x20 MUL PUSH1 0x20 ADD ADD MLOAD DUP4 DUP4 DUP2 MLOAD DUP2 LT PUSH3 0x19A JUMPI PUSH4 0x4E487B71 PUSH1 0xE0 SHL PUSH1 0x0 MSTORE PUSH1 0x32 PUSH1 0x4 MSTORE PUSH1 0x24 PUSH1 0x0 REVERT JUMPDEST PUSH1 0x20 MUL PUSH1 0x20 ADD ADD MLOAD PUSH3 0x2B9 PUSH1 0x20 SHL PUSH1 0x20 SHR JUMP JUMPDEST DUP1 PUSH3 0x1BA DUP2 PUSH3 0x868 JUMP JUMPDEST SWAP2 POP POP PUSH3 0x142 JUMP JUMPDEST POP POP POP JUMP JUMPDEST DUP1 MLOAD DUP3 MLOAD EQ PUSH3 0x235 JUMPI PUSH1 0x40 MLOAD PUSH3 0x461BCD PUSH1 0xE5 SHL DUP2 MSTORE PUSH1 0x20 PUSH1 0x4 DUP3 ADD MSTORE PUSH1 0x31 PUSH1 0x24 DUP3 ADD MSTORE PUSH32 0x7365744E46545065726D6974732066756E6374696F6E20696E666F726D617469 PUSH1 0x44 DUP3 ADD MSTORE PUSH17 0xDEDC40C2E4D2E8F240DAD2E6DAC2E8C6D PUSH1 0x7B SHL PUSH1 0x64 DUP3 ADD MSTORE PUSH1 0x84 ADD PUSH3 0x136 JUMP JUMPDEST PUSH1 0x0 JUMPDEST DUP3 MLOAD DUP2 LT ISZERO PUSH3 0x1C3 JUMPI PUSH3 0x2A4 DUP4 DUP3 DUP2 MLOAD DUP2 LT PUSH3 0x267 JUMPI PUSH4 0x4E487B71 PUSH1 0xE0 SHL PUSH1 0x0 MSTORE PUSH1 0x32 PUSH1 0x4 MSTORE PUSH1 0x24 PUSH1 0x0 REVERT JUMPDEST PUSH1 0x20 MUL PUSH1 0x20 ADD ADD MLOAD DUP4 DUP4 DUP2 MLOAD DUP2 LT PUSH3 0x290 JUMPI PUSH4 0x4E487B71 PUSH1 0xE0 SHL PUSH1 0x0 MSTORE PUSH1 0x32 PUSH1 0x4 MSTORE PUSH1 0x24 PUSH1 0x0 REVERT JUMPDEST PUSH1 0x20 MUL PUSH1 0x20 ADD ADD MLOAD PUSH3 0x36F PUSH1 0x20 SHL PUSH1 0x20 SHR JUMP JUMPDEST DUP1 PUSH3 0x2B0 DUP2 PUSH3 0x868 JUMP JUMPDEST SWAP2 POP POP PUSH3 0x238 JUMP JUMPDEST DUP2 MLOAD PUSH3 0x2FC JUMPI PUSH1 0x40 MLOAD PUSH3 0x461BCD PUSH1 0xE5 SHL DUP2 MSTORE PUSH1 0x20 PUSH1 0x4 DUP3 ADD MSTORE PUSH1 0x10 PUSH1 0x24 DUP3 ADD MSTORE PUSH16 0x6E66745479706520697320656D707479 PUSH1 0x80 SHL PUSH1 0x44 DUP3 ADD MSTORE PUSH1 0x64 ADD PUSH3 0x136 JUMP JUMPDEST PUSH1 0x0 PUSH3 0x314 DUP4 PUSH3 0x53B PUSH1 0x20 SHL PUSH3 0x4D4 OR PUSH1 0x20 SHR JUMP JUMPDEST PUSH1 0x0 DUP2 DUP2 MSTORE PUSH1 0x2 PUSH1 0x20 MSTORE PUSH1 0x40 DUP1 DUP3 KECCAK256 DUP1 SLOAD PUSH1 0x1 PUSH1 0x1 PUSH1 0xA0 SHL SUB NOT AND PUSH1 0x1 PUSH1 0x1 PUSH1 0xA0 SHL SUB DUP8 AND SWAP1 DUP2 OR SWAP1 SWAP2 SSTORE SWAP1 MLOAD SWAP3 SWAP4 POP SWAP2 DUP4 SWAP2 PUSH32 0x22BE69269C1F7D73E73DCB25B710DD88C7AA1CF374C16D945DEF98DF2107C2F8 SWAP2 LOG3 POP POP POP JUMP JUMPDEST PUSH1 0x1 PUSH1 0x1 PUSH1 0xA0 SHL SUB DUP3 AND PUSH3 0x3C7 JUMPI PUSH1 0x40 MLOAD PUSH3 0x461BCD PUSH1 0xE5 SHL DUP2 MSTORE PUSH1 0x20 PUSH1 0x4 DUP3 ADD MSTORE PUSH1 0x1B PUSH1 0x24 DUP3 ADD MSTORE PUSH32 0x6E6674436F6E7472616374206973207A65726F20616464726573730000000000 PUSH1 0x44 DUP3 ADD MSTORE PUSH1 0x64 ADD PUSH3 0x136 JUMP JUMPDEST PUSH1 0x0 PUSH3 0x3DF DUP3 PUSH3 0x53B PUSH1 0x20 SHL PUSH3 0x4D4 OR PUSH1 0x20 SHR JUMP JUMPDEST SWAP1 POP DUP1 ISZERO PUSH3 0x44E JUMPI PUSH1 0x0 DUP2 DUP2 MSTORE PUSH1 0x2 PUSH1 0x20 MSTORE PUSH1 0x40 SWAP1 KECCAK256 SLOAD PUSH1 0x1 PUSH1 0x1 PUSH1 0xA0 SHL SUB AND PUSH3 0x44E JUMPI PUSH1 0x40 MLOAD PUSH3 0x461BCD PUSH1 0xE5 SHL DUP2 MSTORE PUSH1 0x20 PUSH1 0x4 DUP3 ADD MSTORE PUSH1 0x17 PUSH1 0x24 DUP3 ADD MSTORE PUSH32 0x4E46542074797065206E6F742072656769737465726564000000000000000000 PUSH1 0x44 DUP3 ADD MSTORE PUSH1 0x64 ADD PUSH3 0x136 JUMP JUMPDEST PUSH3 0x48A PUSH1 0x40 MLOAD DUP1 PUSH1 0x40 ADD PUSH1 0x40 MSTORE DUP1 PUSH1 0xE DUP2 MSTORE PUSH1 0x20 ADD PUSH14 0x20B4B9323937B82BB930B83832B9 PUSH1 0x91 SHL DUP2 MSTORE POP PUSH3 0x53B PUSH1 0x20 SHL PUSH3 0x4D4 OR PUSH1 0x20 SHR JUMP JUMPDEST PUSH1 0x1 PUSH1 0x1 PUSH1 0xA0 SHL SUB DUP5 AND PUSH1 0x0 SWAP1 DUP2 MSTORE PUSH1 0x3 PUSH1 0x20 MSTORE PUSH1 0x40 SWAP1 KECCAK256 SLOAD EQ ISZERO PUSH3 0x4F3 JUMPI PUSH1 0x40 MLOAD PUSH3 0x461BCD PUSH1 0xE5 SHL DUP2 MSTORE PUSH1 0x20 PUSH1 0x4 DUP3 ADD DUP2 SWAP1 MSTORE PUSH1 0x24 DUP3 ADD MSTORE PUSH32 0x41697264726F70577261707065722063616E2774206265206D6F646966696564 PUSH1 0x44 DUP3 ADD MSTORE PUSH1 0x64 ADD PUSH3 0x136 JUMP JUMPDEST PUSH1 0x1 PUSH1 0x1 PUSH1 0xA0 SHL SUB DUP4 AND PUSH1 0x0 DUP2 DUP2 MSTORE PUSH1 0x3 PUSH1 0x20 MSTORE PUSH1 0x40 DUP1 DUP3 KECCAK256 DUP5 SWAP1 SSTORE MLOAD DUP4 SWAP3 SWAP2 PUSH32 0x903A211C8BCDC0AB18AFC116FC4776504A9AAC5C0121BE0FDA712D399017BD22 SWAP2 LOG3 POP POP POP JUMP JUMPDEST PUSH1 0x0 PUSH1 0x20 DUP3 MLOAD GT ISZERO PUSH3 0x57F JUMPI PUSH1 0x40 MLOAD PUSH3 0x461BCD PUSH1 0xE5 SHL DUP2 MSTORE PUSH1 0x20 PUSH1 0x4 DUP3 ADD MSTORE PUSH1 0xB PUSH1 0x24 DUP3 ADD MSTORE PUSH11 0x696E76616C6964206B6579 PUSH1 0xA8 SHL PUSH1 0x44 DUP3 ADD MSTORE PUSH1 0x64 ADD PUSH3 0x136 JUMP JUMPDEST POP PUSH1 0x20 ADD MLOAD SWAP1 JUMP JUMPDEST DUP1 MLOAD PUSH1 0x1 PUSH1 0x1 PUSH1 0xA0 SHL SUB DUP2 AND DUP2 EQ PUSH3 0x59F JUMPI PUSH1 0x0 DUP1 REVERT JUMPDEST SWAP2 SWAP1 POP JUMP JUMPDEST PUSH1 0x0 DUP3 PUSH1 0x1F DUP4 ADD SLT PUSH3 0x5B5 JUMPI DUP1 DUP2 REVERT JUMPDEST DUP2 MLOAD PUSH1 0x20 PUSH3 0x5CE PUSH3 0x5C8 DUP4 PUSH3 0x842 JUMP JUMPDEST PUSH3 0x80F JUMP JUMPDEST DUP1 DUP4 DUP3 MSTORE DUP3 DUP3 ADD SWAP2 POP DUP3 DUP7 ADD DUP8 DUP5 DUP7 PUSH1 0x5 SHL DUP10 ADD ADD GT ISZERO PUSH3 0x5EE JUMPI DUP6 DUP7 REVERT JUMPDEST DUP6 JUMPDEST DUP6 DUP2 LT ISZERO PUSH3 0x617 JUMPI PUSH3 0x604 DUP3 PUSH3 0x587 JUMP JUMPDEST DUP5 MSTORE SWAP3 DUP5 ADD SWAP3 SWAP1 DUP5 ADD SWAP1 PUSH1 0x1 ADD PUSH3 0x5F0 JUMP JUMPDEST POP SWAP1 SWAP8 SWAP7 POP POP POP POP POP POP POP JUMP JUMPDEST PUSH1 0x0 PUSH1 0x1F DUP4 DUP2 DUP5 ADD SLT PUSH3 0x636 JUMPI DUP2 DUP3 REVERT JUMPDEST DUP3 MLOAD PUSH1 0x20 PUSH3 0x649 PUSH3 0x5C8 DUP4 PUSH3 0x842 JUMP JUMPDEST DUP1 DUP4 DUP3 MSTORE DUP3 DUP3 ADD SWAP2 POP DUP3 DUP8 ADD DUP9 DUP5 DUP7 PUSH1 0x5 SHL DUP11 ADD ADD GT ISZERO PUSH3 0x669 JUMPI DUP7 DUP8 REVERT JUMPDEST DUP7 JUMPDEST DUP6 DUP2 LT ISZERO PUSH3 0x728 JUMPI DUP2 MLOAD PUSH1 0x1 PUSH1 0x1 PUSH1 0x40 SHL SUB DUP1 DUP3 GT ISZERO PUSH3 0x68B JUMPI DUP10 DUP11 REVERT JUMPDEST DUP2 DUP12 ADD SWAP2 POP DUP12 PUSH1 0x3F DUP4 ADD SLT PUSH3 0x69F JUMPI DUP10 DUP11 REVERT JUMPDEST DUP7 DUP3 ADD MLOAD DUP2 DUP2 GT ISZERO PUSH3 0x6B6 JUMPI PUSH3 0x6B6 PUSH3 0x890 JUMP JUMPDEST PUSH3 0x6C9 DUP2 DUP12 ADD PUSH1 0x1F NOT AND DUP10 ADD PUSH3 0x80F JUMP JUMPDEST SWAP2 POP DUP1 DUP3 MSTORE PUSH1 0x40 DUP14 DUP2 DUP4 DUP7 ADD ADD GT ISZERO PUSH3 0x6E1 JUMPI DUP12 DUP13 REVERT JUMPDEST DUP12 JUMPDEST DUP3 DUP2 LT ISZERO PUSH3 0x700 JUMPI DUP5 DUP2 ADD DUP3 ADD MLOAD DUP5 DUP3 ADD DUP12 ADD MSTORE DUP10 ADD PUSH3 0x6E3 JUMP JUMPDEST DUP3 DUP2 GT ISZERO PUSH3 0x711 JUMPI DUP13 DUP11 DUP5 DUP7 ADD ADD MSTORE JUMPDEST POP POP POP DUP6 MSTORE POP SWAP3 DUP5 ADD SWAP3 SWAP1 DUP5 ADD SWAP1 PUSH1 0x1 ADD PUSH3 0x66B JUMP JUMPDEST POP SWAP1 SWAP9 SWAP8 POP POP POP POP POP POP POP POP JUMP JUMPDEST PUSH1 0x0 DUP1 PUSH1 0x0 DUP1 PUSH1 0x0 DUP1 PUSH1 0xC0 DUP8 DUP10 SUB SLT ISZERO PUSH3 0x74F JUMPI DUP2 DUP3 REVERT JUMPDEST PUSH3 0x75A DUP8 PUSH3 0x587 JUMP JUMPDEST SWAP6 POP PUSH3 0x76A PUSH1 0x20 DUP9 ADD PUSH3 0x587 JUMP JUMPDEST PUSH1 0x40 DUP9 ADD MLOAD SWAP1 SWAP6 POP PUSH1 0x1 PUSH1 0x1 PUSH1 0x40 SHL SUB DUP1 DUP3 GT ISZERO PUSH3 0x787 JUMPI DUP4 DUP5 REVERT JUMPDEST PUSH3 0x795 DUP11 DUP4 DUP12 ADD PUSH3 0x624 JUMP JUMPDEST SWAP6 POP PUSH1 0x60 DUP10 ADD MLOAD SWAP2 POP DUP1 DUP3 GT ISZERO PUSH3 0x7AB JUMPI DUP4 DUP5 REVERT JUMPDEST PUSH3 0x7B9 DUP11 DUP4 DUP12 ADD PUSH3 0x5A4 JUMP JUMPDEST SWAP5 POP PUSH1 0x80 DUP10 ADD MLOAD SWAP2 POP DUP1 DUP3 GT ISZERO PUSH3 0x7CF JUMPI DUP4 DUP5 REVERT JUMPDEST PUSH3 0x7DD DUP11 DUP4 DUP12 ADD PUSH3 0x5A4 JUMP JUMPDEST SWAP4 POP PUSH1 0xA0 DUP10 ADD MLOAD SWAP2 POP DUP1 DUP3 GT ISZERO PUSH3 0x7F3 JUMPI DUP3 DUP4 REVERT JUMPDEST POP PUSH3 0x802 DUP10 DUP3 DUP11 ADD PUSH3 0x624 JUMP JUMPDEST SWAP2 POP POP SWAP3 SWAP6 POP SWAP3 SWAP6 POP SWAP3 SWAP6 JUMP JUMPDEST PUSH1 0x40 MLOAD PUSH1 0x1F DUP3 ADD PUSH1 0x1F NOT AND DUP2 ADD PUSH1 0x1 PUSH1 0x1 PUSH1 0x40 SHL SUB DUP2 GT DUP3 DUP3 LT OR ISZERO PUSH3 0x83A JUMPI PUSH3 0x83A PUSH3 0x890 JUMP JUMPDEST PUSH1 0x40 MSTORE SWAP2 SWAP1 POP JUMP JUMPDEST PUSH1 0x0 PUSH1 0x1 PUSH1 0x1 PUSH1 0x40 SHL SUB DUP3 GT ISZERO PUSH3 0x85E JUMPI PUSH3 0x85E PUSH3 0x890 JUMP JUMPDEST POP PUSH1 0x5 SHL PUSH1 0x20 ADD SWAP1 JUMP JUMPDEST PUSH1 0x0 PUSH1 0x0 NOT DUP3 EQ ISZERO PUSH3 0x889 JUMPI PUSH4 0x4E487B71 PUSH1 0xE0 SHL DUP2 MSTORE PUSH1 0x11 PUSH1 0x4 MSTORE PUSH1 0x24 DUP2 REVERT JUMPDEST POP PUSH1 0x1 ADD SWAP1 JUMP JUMPDEST PUSH4 0x4E487B71 PUSH1 0xE0 SHL PUSH1 0x0 MSTORE PUSH1 0x41 PUSH1 0x4 MSTORE PUSH1 0x24 PUSH1 0x0 REVERT JUMPDEST PUSH2 0xD81 DUP1 PUSH3 0x8B6 PUSH1 0x0 CODECOPY PUSH1 0x0 RETURN INVALID PUSH1 0x80 PUSH1 0x40 MSTORE CALLVALUE DUP1 ISZERO PUSH2 0x10 JUMPI PUSH1 0x0 DUP1 REVERT JUMPDEST POP PUSH1 0x4 CALLDATASIZE LT PUSH2 0x9E JUMPI PUSH1 0x0 CALLDATALOAD PUSH1 0xE0 SHR DUP1 PUSH4 0x95244B94 GT PUSH2 0x66 JUMPI DUP1 PUSH4 0x95244B94 EQ PUSH2 0x13A JUMPI DUP1 PUSH4 0xB8C8AFF8 EQ PUSH2 0x14D JUMPI DUP1 PUSH4 0xC88641A2 EQ PUSH2 0x160 JUMPI DUP1 PUSH4 0xD8E4E93E EQ PUSH2 0x173 JUMPI DUP1 PUSH4 0xF2FDE38B EQ PUSH2 0x186 JUMPI PUSH1 0x0 DUP1 REVERT JUMPDEST DUP1 PUSH4 0xA21CC43 EQ PUSH2 0xA3 JUMPI DUP1 PUSH4 0x1A3DD0A5 EQ PUSH2 0xB8 JUMPI DUP1 PUSH4 0x365A86FC EQ PUSH2 0xE8 JUMPI DUP1 PUSH4 0x6651F11D EQ PUSH2 0xFB JUMPI DUP1 PUSH4 0x8DA5CB5B EQ PUSH2 0x132 JUMPI JUMPDEST PUSH1 0x0 DUP1 REVERT JUMPDEST PUSH2 0xB6 PUSH2 0xB1 CALLDATASIZE PUSH1 0x4 PUSH2 0xBB4 JUMP JUMPDEST PUSH2 0x199 JUMP JUMPDEST STOP JUMPDEST PUSH2 0xCB PUSH2 0xC6 CALLDATASIZE PUSH1 0x4 PUSH2 0xC0A JUMP JUMPDEST PUSH2 0x1DF JUMP JUMPDEST PUSH1 0x40 MLOAD PUSH1 0x1 PUSH1 0x1 PUSH1 0xA0 SHL SUB SWAP1 SWAP2 AND DUP2 MSTORE PUSH1 0x20 ADD JUMPDEST PUSH1 0x40 MLOAD DUP1 SWAP2 SUB SWAP1 RETURN JUMPDEST PUSH1 0x1 SLOAD PUSH2 0xCB SWAP1 PUSH1 0x1 PUSH1 0x1 PUSH1 0xA0 SHL SUB AND DUP2 JUMP JUMPDEST PUSH2 0x124 PUSH2 0x109 CALLDATASIZE PUSH1 0x4 PUSH2 0xAD9 JUMP JUMPDEST PUSH1 0x1 PUSH1 0x1 PUSH1 0xA0 SHL SUB AND PUSH1 0x0 SWAP1 DUP2 MSTORE PUSH1 0x3 PUSH1 0x20 MSTORE PUSH1 0x40 SWAP1 KECCAK256 SLOAD SWAP1 JUMP JUMPDEST PUSH1 0x40 MLOAD SWAP1 DUP2 MSTORE PUSH1 0x20 ADD PUSH2 0xDF JUMP JUMPDEST PUSH2 0xCB PUSH2 0x1FA JUMP JUMPDEST PUSH2 0xB6 PUSH2 0x148 CALLDATASIZE PUSH1 0x4 PUSH2 0xB5E JUMP JUMPDEST PUSH2 0x209 JUMP JUMPDEST PUSH2 0xCB PUSH2 0x15B CALLDATASIZE PUSH1 0x4 PUSH2 0xAD9 JUMP JUMPDEST PUSH2 0x242 JUMP JUMPDEST PUSH2 0xB6 PUSH2 0x16E CALLDATASIZE PUSH1 0x4 PUSH2 0xB11 JUMP JUMPDEST PUSH2 0x26B JUMP JUMPDEST PUSH2 0xB6 PUSH2 0x181 CALLDATASIZE PUSH1 0x4 PUSH2 0xC22 JUMP JUMPDEST PUSH2 0x3FB JUMP JUMPDEST PUSH2 0xB6 PUSH2 0x194 CALLDATASIZE PUSH1 0x4 PUSH2 0xAD9 JUMP JUMPDEST PUSH2 0x434 JUMP JUMPDEST CALLER PUSH2 0x1A2 PUSH2 0x1FA JUMP JUMPDEST PUSH1 0x1 PUSH1 0x1 PUSH1 0xA0 SHL SUB AND EQ PUSH2 0x1D1 JUMPI PUSH1 0x40 MLOAD PUSH3 0x461BCD PUSH1 0xE5 SHL DUP2 MSTORE PUSH1 0x4 ADD PUSH2 0x1C8 SWAP1 PUSH2 0xC71 JUMP JUMPDEST PUSH1 0x40 MLOAD DUP1 SWAP2 SUB SWAP1 REVERT JUMPDEST PUSH2 0x1DB DUP3 DUP3 PUSH2 0x51E JUMP JUMPDEST POP POP JUMP JUMPDEST PUSH1 0x0 SWAP1 DUP2 MSTORE PUSH1 0x2 PUSH1 0x20 MSTORE PUSH1 0x40 SWAP1 KECCAK256 SLOAD PUSH1 0x1 PUSH1 0x1 PUSH1 0xA0 SHL SUB AND SWAP1 JUMP JUMPDEST PUSH1 0x0 SLOAD PUSH1 0x1 PUSH1 0x1 PUSH1 0xA0 SHL SUB AND SWAP1 JUMP JUMPDEST CALLER PUSH2 0x212 PUSH2 0x1FA JUMP JUMPDEST PUSH1 0x1 PUSH1 0x1 PUSH1 0xA0 SHL SUB AND EQ PUSH2 0x238 JUMPI PUSH1 0x40 MLOAD PUSH3 0x461BCD PUSH1 0xE5 SHL DUP2 MSTORE PUSH1 0x4 ADD PUSH2 0x1C8 SWAP1 PUSH2 0xC71 JUMP JUMPDEST PUSH2 0x1DB DUP3 DUP3 PUSH2 0x5FD JUMP JUMPDEST PUSH1 0x1 PUSH1 0x1 PUSH1 0xA0 SHL SUB DUP2 AND PUSH1 0x0 SWAP1 DUP2 MSTORE PUSH1 0x3 PUSH1 0x20 MSTORE PUSH1 0x40 DUP2 KECCAK256 SLOAD PUSH2 0x264 DUP2 PUSH2 0x1DF JUMP JUMPDEST SWAP4 SWAP3 POP POP POP JUMP JUMPDEST DUP1 PUSH2 0x29B PUSH1 0x40 MLOAD DUP1 PUSH1 0x40 ADD PUSH1 0x40 MSTORE DUP1 PUSH1 0xE DUP2 MSTORE PUSH1 0x20 ADD PUSH14 0x20B4B9323937B82BB930B83832B9 PUSH1 0x91 SHL DUP2 MSTORE POP PUSH2 0x4D4 JUMP JUMPDEST PUSH2 0x2A4 DUP3 PUSH2 0x4D4 JUMP JUMPDEST EQ ISZERO PUSH2 0x397 JUMPI CALLER PUSH1 0x1 SLOAD PUSH1 0x40 MLOAD PUSH4 0x1C2D8FB3 PUSH1 0xE3 SHL DUP2 MSTORE PUSH15 0x41495244524F505F464143544F5259 PUSH1 0x88 SHL PUSH1 0x4 DUP3 ADD MSTORE PUSH1 0x1 PUSH1 0x1 PUSH1 0xA0 SHL SUB SWAP3 DUP4 AND SWAP3 SWAP1 SWAP2 AND SWAP1 PUSH4 0xE16C7D98 SWAP1 PUSH1 0x24 ADD PUSH1 0x20 PUSH1 0x40 MLOAD DUP1 DUP4 SUB DUP2 DUP7 DUP1 EXTCODESIZE ISZERO DUP1 ISZERO PUSH2 0x304 JUMPI PUSH1 0x0 DUP1 REVERT JUMPDEST POP GAS STATICCALL ISZERO DUP1 ISZERO PUSH2 0x318 JUMPI RETURNDATASIZE PUSH1 0x0 DUP1 RETURNDATACOPY RETURNDATASIZE PUSH1 0x0 REVERT JUMPDEST POP POP POP POP PUSH1 0x40 MLOAD RETURNDATASIZE PUSH1 0x1F NOT PUSH1 0x1F DUP3 ADD AND DUP3 ADD DUP1 PUSH1 0x40 MSTORE POP DUP2 ADD SWAP1 PUSH2 0x33C SWAP2 SWAP1 PUSH2 0xAF5 JUMP JUMPDEST PUSH1 0x1 PUSH1 0x1 PUSH1 0xA0 SHL SUB AND EQ PUSH2 0x392 JUMPI PUSH1 0x40 MLOAD PUSH3 0x461BCD PUSH1 0xE5 SHL DUP2 MSTORE PUSH1 0x20 PUSH1 0x4 DUP3 ADD MSTORE PUSH1 0x1C PUSH1 0x24 DUP3 ADD MSTORE PUSH32 0x63616C6C6572206973206E6F742041697264726F70466163746F727900000000 PUSH1 0x44 DUP3 ADD MSTORE PUSH1 0x64 ADD PUSH2 0x1C8 JUMP JUMPDEST PUSH2 0x3EC JUMP JUMPDEST CALLER PUSH2 0x3A0 PUSH2 0x1FA JUMP JUMPDEST PUSH1 0x1 PUSH1 0x1 PUSH1 0xA0 SHL SUB AND EQ PUSH2 0x3EC JUMPI PUSH1 0x40 MLOAD PUSH3 0x461BCD PUSH1 0xE5 SHL DUP2 MSTORE PUSH1 0x20 PUSH1 0x4 DUP3 ADD MSTORE PUSH1 0x13 PUSH1 0x24 DUP3 ADD MSTORE PUSH19 0x31B0B63632B91034B9903737BA1037BBB732B9 PUSH1 0x69 SHL PUSH1 0x44 DUP3 ADD MSTORE PUSH1 0x64 ADD PUSH2 0x1C8 JUMP JUMPDEST PUSH2 0x3F6 DUP4 DUP4 PUSH2 0x6DE JUMP JUMPDEST POP POP POP JUMP JUMPDEST CALLER PUSH2 0x404 PUSH2 0x1FA JUMP JUMPDEST PUSH1 0x1 PUSH1 0x1 PUSH1 0xA0 SHL SUB AND EQ PUSH2 0x42A JUMPI PUSH1 0x40 MLOAD PUSH3 0x461BCD PUSH1 0xE5 SHL DUP2 MSTORE PUSH1 0x4 ADD PUSH2 0x1C8 SWAP1 PUSH2 0xC71 JUMP JUMPDEST PUSH2 0x1DB DUP3 DUP3 PUSH2 0x881 JUMP JUMPDEST CALLER PUSH2 0x43D PUSH2 0x1FA JUMP JUMPDEST PUSH1 0x1 PUSH1 0x1 PUSH1 0xA0 SHL SUB AND EQ PUSH2 0x463 JUMPI PUSH1 0x40 MLOAD PUSH3 0x461BCD PUSH1 0xE5 SHL DUP2 MSTORE PUSH1 0x4 ADD PUSH2 0x1C8 SWAP1 PUSH2 0xC71 JUMP JUMPDEST PUSH1 0x1 PUSH1 0x1 PUSH1 0xA0 SHL SUB DUP2 AND PUSH2 0x4C8 JUMPI PUSH1 0x40 MLOAD PUSH3 0x461BCD PUSH1 0xE5 SHL DUP2 MSTORE PUSH1 0x20 PUSH1 0x4 DUP3 ADD MSTORE PUSH1 0x26 PUSH1 0x24 DUP3 ADD MSTORE PUSH32 0x4F776E61626C653A206E6577206F776E657220697320746865207A65726F2061 PUSH1 0x44 DUP3 ADD MSTORE PUSH6 0x646472657373 PUSH1 0xD0 SHL PUSH1 0x64 DUP3 ADD MSTORE PUSH1 0x84 ADD PUSH2 0x1C8 JUMP JUMPDEST PUSH2 0x4D1 DUP2 PUSH2 0x928 JUMP JUMPDEST POP JUMP JUMPDEST PUSH1 0x0 PUSH1 0x20 DUP3 MLOAD GT ISZERO PUSH2 0x516 JUMPI PUSH1 0x40 MLOAD PUSH3 0x461BCD PUSH1 0xE5 SHL DUP2 MSTORE PUSH1 0x20 PUSH1 0x4 DUP3 ADD MSTORE PUSH1 0xB PUSH1 0x24 DUP3 ADD MSTORE PUSH11 0x696E76616C6964206B6579 PUSH1 0xA8 SHL PUSH1 0x44 DUP3 ADD MSTORE PUSH1 0x64 ADD PUSH2 0x1C8 JUMP JUMPDEST POP PUSH1 0x20 ADD MLOAD SWAP1 JUMP JUMPDEST DUP1 MLOAD DUP3 MLOAD EQ PUSH2 0x587 JUMPI PUSH1 0x40 MLOAD PUSH3 0x461BCD PUSH1 0xE5 SHL DUP2 MSTORE PUSH1 0x20 PUSH1 0x4 DUP3 ADD MSTORE PUSH1 0x2F PUSH1 0x24 DUP3 ADD MSTORE PUSH32 0x7365744E667454797065732066756E6374696F6E20696E666F726D6174696F6E PUSH1 0x44 DUP3 ADD MSTORE PUSH15 0x40C2E4D2E8F240DAD2E6DAC2E8C6D PUSH1 0x8B SHL PUSH1 0x64 DUP3 ADD MSTORE PUSH1 0x84 ADD PUSH2 0x1C8 JUMP JUMPDEST PUSH1 0x0 JUMPDEST DUP2 MLOAD DUP2 LT ISZERO PUSH2 0x3F6 JUMPI PUSH2 0x5EB DUP4 DUP3 DUP2 MLOAD DUP2 LT PUSH2 0x5B6 JUMPI PUSH4 0x4E487B71 PUSH1 0xE0 SHL PUSH1 0x0 MSTORE PUSH1 0x32 PUSH1 0x4 MSTORE PUSH1 0x24 PUSH1 0x0 REVERT JUMPDEST PUSH1 0x20 MUL PUSH1 0x20 ADD ADD MLOAD DUP4 DUP4 DUP2 MLOAD DUP2 LT PUSH2 0x5DE JUMPI PUSH4 0x4E487B71 PUSH1 0xE0 SHL PUSH1 0x0 MSTORE PUSH1 0x32 PUSH1 0x4 MSTORE PUSH1 0x24 PUSH1 0x0 REVERT JUMPDEST PUSH1 0x20 MUL PUSH1 0x20 ADD ADD MLOAD PUSH2 0x881 JUMP JUMPDEST DUP1 PUSH2 0x5F5 DUP2 PUSH2 0xCF9 JUMP JUMPDEST SWAP2 POP POP PUSH2 0x58A JUMP JUMPDEST DUP1 MLOAD DUP3 MLOAD EQ PUSH2 0x668 JUMPI PUSH1 0x40 MLOAD PUSH3 0x461BCD PUSH1 0xE5 SHL DUP2 MSTORE PUSH1 0x20 PUSH1 0x4 DUP3 ADD MSTORE PUSH1 0x31 PUSH1 0x24 DUP3 ADD MSTORE PUSH32 0x7365744E46545065726D6974732066756E6374696F6E20696E666F726D617469 PUSH1 0x44 DUP3 ADD MSTORE PUSH17 0xDEDC40C2E4D2E8F240DAD2E6DAC2E8C6D PUSH1 0x7B SHL PUSH1 0x64 DUP3 ADD MSTORE PUSH1 0x84 ADD PUSH2 0x1C8 JUMP JUMPDEST PUSH1 0x0 JUMPDEST DUP3 MLOAD DUP2 LT ISZERO PUSH2 0x3F6 JUMPI PUSH2 0x6CC DUP4 DUP3 DUP2 MLOAD DUP2 LT PUSH2 0x697 JUMPI PUSH4 0x4E487B71 PUSH1 0xE0 SHL PUSH1 0x0 MSTORE PUSH1 0x32 PUSH1 0x4 MSTORE PUSH1 0x24 PUSH1 0x0 REVERT JUMPDEST PUSH1 0x20 MUL PUSH1 0x20 ADD ADD MLOAD DUP4 DUP4 DUP2 MLOAD DUP2 LT PUSH2 0x6BF JUMPI PUSH4 0x4E487B71 PUSH1 0xE0 SHL PUSH1 0x0 MSTORE PUSH1 0x32 PUSH1 0x4 MSTORE PUSH1 0x24 PUSH1 0x0 REVERT JUMPDEST PUSH1 0x20 MUL PUSH1 0x20 ADD ADD MLOAD PUSH2 0x6DE JUMP JUMPDEST DUP1 PUSH2 0x6D6 DUP2 PUSH2 0xCF9 JUMP JUMPDEST SWAP2 POP POP PUSH2 0x66B JUMP JUMPDEST PUSH1 0x1 PUSH1 0x1 PUSH1 0xA0 SHL SUB DUP3 AND PUSH2 0x734 JUMPI PUSH1 0x40 MLOAD PUSH3 0x461BCD PUSH1 0xE5 SHL DUP2 MSTORE PUSH1 0x20 PUSH1 0x4 DUP3 ADD MSTORE PUSH1 0x1B PUSH1 0x24 DUP3 ADD MSTORE PUSH32 0x6E6674436F6E7472616374206973207A65726F20616464726573730000000000 PUSH1 0x44 DUP3 ADD MSTORE PUSH1 0x64 ADD PUSH2 0x1C8 JUMP JUMPDEST PUSH1 0x0 PUSH2 0x73F DUP3 PUSH2 0x4D4 JUMP JUMPDEST SWAP1 POP DUP1 ISZERO PUSH2 0x7A3 JUMPI PUSH1 0x0 PUSH2 0x752 DUP3 PUSH2 0x1DF JUMP JUMPDEST PUSH1 0x1 PUSH1 0x1 PUSH1 0xA0 SHL SUB AND EQ ISZERO PUSH2 0x7A3 JUMPI PUSH1 0x40 MLOAD PUSH3 0x461BCD PUSH1 0xE5 SHL DUP2 MSTORE PUSH1 0x20 PUSH1 0x4 DUP3 ADD MSTORE PUSH1 0x17 PUSH1 0x24 DUP3 ADD MSTORE PUSH23 0x139195081D1E5C19481B9BDD081C9959DA5CDD195C9959 PUSH1 0x4A SHL PUSH1 0x44 DUP3 ADD MSTORE PUSH1 0x64 ADD PUSH2 0x1C8 JUMP JUMPDEST PUSH2 0x7D2 PUSH1 0x40 MLOAD DUP1 PUSH1 0x40 ADD PUSH1 0x40 MSTORE DUP1 PUSH1 0xE DUP2 MSTORE PUSH1 0x20 ADD PUSH14 0x20B4B9323937B82BB930B83832B9 PUSH1 0x91 SHL DUP2 MSTORE POP PUSH2 0x4D4 JUMP JUMPDEST PUSH1 0x1 PUSH1 0x1 PUSH1 0xA0 SHL SUB DUP5 AND PUSH1 0x0 SWAP1 DUP2 MSTORE PUSH1 0x3 PUSH1 0x20 MSTORE PUSH1 0x40 SWAP1 KECCAK256 SLOAD EQ ISZERO PUSH2 0x839 JUMPI PUSH1 0x40 MLOAD PUSH3 0x461BCD PUSH1 0xE5 SHL DUP2 MSTORE PUSH1 0x20 PUSH1 0x4 DUP3 ADD DUP2 SWAP1 MSTORE PUSH1 0x24 DUP3 ADD MSTORE PUSH32 0x41697264726F70577261707065722063616E2774206265206D6F646966696564 PUSH1 0x44 DUP3 ADD MSTORE PUSH1 0x64 ADD PUSH2 0x1C8 JUMP JUMPDEST PUSH1 0x1 PUSH1 0x1 PUSH1 0xA0 SHL SUB DUP4 AND PUSH1 0x0 DUP2 DUP2 MSTORE PUSH1 0x3 PUSH1 0x20 MSTORE PUSH1 0x40 DUP1 DUP3 KECCAK256 DUP5 SWAP1 SSTORE MLOAD DUP4 SWAP3 SWAP2 PUSH32 0x903A211C8BCDC0AB18AFC116FC4776504A9AAC5C0121BE0FDA712D399017BD22 SWAP2 LOG3 POP POP POP JUMP JUMPDEST DUP2 MLOAD PUSH2 0x8C2 JUMPI PUSH1 0x40 MLOAD PUSH3 0x461BCD PUSH1 0xE5 SHL DUP2 MSTORE PUSH1 0x20 PUSH1 0x4 DUP3 ADD MSTORE PUSH1 0x10 PUSH1 0x24 DUP3 ADD MSTORE PUSH16 0x6E66745479706520697320656D707479 PUSH1 0x80 SHL PUSH1 0x44 DUP3 ADD MSTORE PUSH1 0x64 ADD PUSH2 0x1C8 JUMP JUMPDEST PUSH1 0x0 PUSH2 0x8CD DUP4 PUSH2 0x4D4 JUMP JUMPDEST PUSH1 0x0 DUP2 DUP2 MSTORE PUSH1 0x2 PUSH1 0x20 MSTORE PUSH1 0x40 DUP1 DUP3 KECCAK256 DUP1 SLOAD PUSH1 0x1 PUSH1 0x1 PUSH1 0xA0 SHL SUB NOT AND PUSH1 0x1 PUSH1 0x1 PUSH1 0xA0 SHL SUB DUP8 AND SWAP1 DUP2 OR SWAP1 SWAP2 SSTORE SWAP1 MLOAD SWAP3 SWAP4 POP SWAP2 DUP4 SWAP2 PUSH32 0x22BE69269C1F7D73E73DCB25B710DD88C7AA1CF374C16D945DEF98DF2107C2F8 SWAP2 LOG3 POP POP POP JUMP JUMPDEST PUSH1 0x0 DUP1 SLOAD PUSH1 0x1 PUSH1 0x1 PUSH1 0xA0 SHL SUB DUP4 DUP2 AND PUSH1 0x1 PUSH1 0x1 PUSH1 0xA0 SHL SUB NOT DUP4 AND DUP2 OR DUP5 SSTORE PUSH1 0x40 MLOAD SWAP2 SWAP1 SWAP3 AND SWAP3 DUP4 SWAP2 PUSH32 0x8BE0079C531659141344CD1FD0A4F28419497F9722A3DAAFE3B4186F6B6457E0 SWAP2 SWAP1 LOG3 POP POP JUMP JUMPDEST PUSH1 0x0 DUP3 PUSH1 0x1F DUP4 ADD SLT PUSH2 0x988 JUMPI DUP1 DUP2 REVERT JUMPDEST DUP2 CALLDATALOAD PUSH1 0x20 PUSH2 0x99D PUSH2 0x998 DUP4 PUSH2 0xCD6 JUMP JUMPDEST PUSH2 0xCA6 JUMP JUMPDEST DUP1 DUP4 DUP3 MSTORE DUP3 DUP3 ADD SWAP2 POP DUP3 DUP7 ADD DUP8 DUP5 DUP7 PUSH1 0x5 SHL DUP10 ADD ADD GT ISZERO PUSH2 0x9BC JUMPI DUP6 DUP7 REVERT JUMPDEST DUP6 JUMPDEST DUP6 DUP2 LT ISZERO PUSH2 0x9E3 JUMPI DUP2 CALLDATALOAD PUSH2 0x9D1 DUP2 PUSH2 0xD36 JUMP JUMPDEST DUP5 MSTORE SWAP3 DUP5 ADD SWAP3 SWAP1 DUP5 ADD SWAP1 PUSH1 0x1 ADD PUSH2 0x9BE JUMP JUMPDEST POP SWAP1 SWAP8 SWAP7 POP POP POP POP POP POP POP JUMP JUMPDEST PUSH1 0x0 DUP3 PUSH1 0x1F DUP4 ADD SLT PUSH2 0xA00 JUMPI DUP1 DUP2 REVERT JUMPDEST DUP2 CALLDATALOAD PUSH1 0x20 PUSH2 0xA10 PUSH2 0x998 DUP4 PUSH2 0xCD6 JUMP JUMPDEST DUP1 DUP4 DUP3 MSTORE DUP3 DUP3 ADD SWAP2 POP DUP3 DUP7 ADD DUP8 DUP5 DUP7 PUSH1 0x5 SHL DUP10 ADD ADD GT ISZERO PUSH2 0xA2F JUMPI DUP6 DUP7 REVERT JUMPDEST DUP6 JUMPDEST DUP6 DUP2 LT ISZERO PUSH2 0x9E3 JUMPI DUP2 CALLDATALOAD PUSH1 0x1 PUSH1 0x1 PUSH1 0x40 SHL SUB DUP2 GT ISZERO PUSH2 0xA4E JUMPI DUP8 DUP9 REVERT JUMPDEST PUSH2 0xA5C DUP11 DUP8 DUP4 DUP13 ADD ADD PUSH2 0xA6F JUMP JUMPDEST DUP6 MSTORE POP SWAP3 DUP5 ADD SWAP3 SWAP1 DUP5 ADD SWAP1 PUSH1 0x1 ADD PUSH2 0xA31 JUMP JUMPDEST PUSH1 0x0 DUP3 PUSH1 0x1F DUP4 ADD SLT PUSH2 0xA7F JUMPI DUP1 DUP2 REVERT JUMPDEST DUP2 CALLDATALOAD PUSH1 0x1 PUSH1 0x1 PUSH1 0x40 SHL SUB DUP2 GT ISZERO PUSH2 0xA98 JUMPI PUSH2 0xA98 PUSH2 0xD20 JUMP JUMPDEST PUSH2 0xAAB PUSH1 0x1F DUP3 ADD PUSH1 0x1F NOT AND PUSH1 0x20 ADD PUSH2 0xCA6 JUMP JUMPDEST DUP2 DUP2 MSTORE DUP5 PUSH1 0x20 DUP4 DUP7 ADD ADD GT ISZERO PUSH2 0xABF JUMPI DUP3 DUP4 REVERT JUMPDEST DUP2 PUSH1 0x20 DUP6 ADD PUSH1 0x20 DUP4 ADD CALLDATACOPY SWAP1 DUP2 ADD PUSH1 0x20 ADD SWAP2 SWAP1 SWAP2 MSTORE SWAP3 SWAP2 POP POP JUMP JUMPDEST PUSH1 0x0 PUSH1 0x20 DUP3 DUP5 SUB SLT ISZERO PUSH2 0xAEA JUMPI DUP1 DUP2 REVERT JUMPDEST DUP2 CALLDATALOAD PUSH2 0x264 DUP2 PUSH2 0xD36 JUMP JUMPDEST PUSH1 0x0 PUSH1 0x20 DUP3 DUP5 SUB SLT ISZERO PUSH2 0xB06 JUMPI DUP1 DUP2 REVERT JUMPDEST DUP2 MLOAD PUSH2 0x264 DUP2 PUSH2 0xD36 JUMP JUMPDEST PUSH1 0x0 DUP1 PUSH1 0x40 DUP4 DUP6 SUB SLT ISZERO PUSH2 0xB23 JUMPI DUP1 DUP2 REVERT JUMPDEST DUP3 CALLDATALOAD PUSH2 0xB2E DUP2 PUSH2 0xD36 JUMP JUMPDEST SWAP2 POP PUSH1 0x20 DUP4 ADD CALLDATALOAD PUSH1 0x1 PUSH1 0x1 PUSH1 0x40 SHL SUB DUP2 GT ISZERO PUSH2 0xB48 JUMPI DUP2 DUP3 REVERT JUMPDEST PUSH2 0xB54 DUP6 DUP3 DUP7 ADD PUSH2 0xA6F JUMP JUMPDEST SWAP2 POP POP SWAP3 POP SWAP3 SWAP1 POP JUMP JUMPDEST PUSH1 0x0 DUP1 PUSH1 0x40 DUP4 DUP6 SUB SLT ISZERO PUSH2 0xB70 JUMPI DUP2 DUP3 REVERT JUMPDEST DUP3 CALLDATALOAD PUSH1 0x1 PUSH1 0x1 PUSH1 0x40 SHL SUB DUP1 DUP3 GT ISZERO PUSH2 0xB86 JUMPI DUP4 DUP5 REVERT JUMPDEST PUSH2 0xB92 DUP7 DUP4 DUP8 ADD PUSH2 0x978 JUMP JUMPDEST SWAP4 POP PUSH1 0x20 DUP6 ADD CALLDATALOAD SWAP2 POP DUP1 DUP3 GT ISZERO PUSH2 0xBA7 JUMPI DUP3 DUP4 REVERT JUMPDEST POP PUSH2 0xB54 DUP6 DUP3 DUP7 ADD PUSH2 0x9F0 JUMP JUMPDEST PUSH1 0x0 DUP1 PUSH1 0x40 DUP4 DUP6 SUB SLT ISZERO PUSH2 0xBC6 JUMPI DUP2 DUP3 REVERT JUMPDEST DUP3 CALLDATALOAD PUSH1 0x1 PUSH1 0x1 PUSH1 0x40 SHL SUB DUP1 DUP3 GT ISZERO PUSH2 0xBDC JUMPI DUP4 DUP5 REVERT JUMPDEST PUSH2 0xBE8 DUP7 DUP4 DUP8 ADD PUSH2 0x9F0 JUMP JUMPDEST SWAP4 POP PUSH1 0x20 DUP6 ADD CALLDATALOAD SWAP2 POP DUP1 DUP3 GT ISZERO PUSH2 0xBFD JUMPI DUP3 DUP4 REVERT JUMPDEST POP PUSH2 0xB54 DUP6 DUP3 DUP7 ADD PUSH2 0x978 JUMP JUMPDEST PUSH1 0x0 PUSH1 0x20 DUP3 DUP5 SUB SLT ISZERO PUSH2 0xC1B JUMPI DUP1 DUP2 REVERT JUMPDEST POP CALLDATALOAD SWAP2 SWAP1 POP JUMP JUMPDEST PUSH1 0x0 DUP1 PUSH1 0x40 DUP4 DUP6 SUB SLT ISZERO PUSH2 0xC34 JUMPI DUP2 DUP3 REVERT JUMPDEST DUP3 CALLDATALOAD PUSH1 0x1 PUSH1 0x1 PUSH1 0x40 SHL SUB DUP2 GT ISZERO PUSH2 0xC49 JUMPI DUP3 DUP4 REVERT JUMPDEST PUSH2 0xC55 DUP6 DUP3 DUP7 ADD PUSH2 0xA6F JUMP JUMPDEST SWAP3 POP POP PUSH1 0x20 DUP4 ADD CALLDATALOAD PUSH2 0xC66 DUP2 PUSH2 0xD36 JUMP JUMPDEST DUP1 SWAP2 POP POP SWAP3 POP SWAP3 SWAP1 POP JUMP JUMPDEST PUSH1 0x20 DUP1 DUP3 MSTORE DUP2 DUP2 ADD MSTORE PUSH32 0x4F776E61626C653A2063616C6C6572206973206E6F7420746865206F776E6572 PUSH1 0x40 DUP3 ADD MSTORE PUSH1 0x60 ADD SWAP1 JUMP JUMPDEST PUSH1 0x40 MLOAD PUSH1 0x1F DUP3 ADD PUSH1 0x1F NOT AND DUP2 ADD PUSH1 0x1 PUSH1 0x1 PUSH1 0x40 SHL SUB DUP2 GT DUP3 DUP3 LT OR ISZERO PUSH2 0xCCE JUMPI PUSH2 0xCCE PUSH2 0xD20 JUMP JUMPDEST PUSH1 0x40 MSTORE SWAP2 SWAP1 POP JUMP JUMPDEST PUSH1 0x0 PUSH1 0x1 PUSH1 0x1 PUSH1 0x40 SHL SUB DUP3 GT ISZERO PUSH2 0xCEF JUMPI PUSH2 0xCEF PUSH2 0xD20 JUMP JUMPDEST POP PUSH1 0x5 SHL PUSH1 0x20 ADD SWAP1 JUMP JUMPDEST PUSH1 0x0 PUSH1 0x0 NOT DUP3 EQ ISZERO PUSH2 0xD19 JUMPI PUSH4 0x4E487B71 PUSH1 0xE0 SHL DUP2 MSTORE PUSH1 0x11 PUSH1 0x4 MSTORE PUSH1 0x24 DUP2 REVERT JUMPDEST POP PUSH1 0x1 ADD SWAP1 JUMP JUMPDEST PUSH4 0x4E487B71 PUSH1 0xE0 SHL PUSH1 0x0 MSTORE PUSH1 0x41 PUSH1 0x4 MSTORE PUSH1 0x24 PUSH1 0x0 REVERT JUMPDEST PUSH1 0x1 PUSH1 0x1 PUSH1 0xA0 SHL SUB DUP2 AND DUP2 EQ PUSH2 0x4D1 JUMPI PUSH1 0x0 DUP1 REVERT INVALID LOG2 PUSH5 0x6970667358 0x22 SLT KECCAK256 0xC9 0xAE PUSH26 0x40801D4662FCDD30394691EF1FFC53E6FA217FAEDC0DBB11EDE3 0xAD DIFFICULTY XOR PUSH5 0x736F6C6343 STOP ADDMOD DIV STOP CALLER "
				},
				"gasEstimates": {
					"creation": {
						"codeDepositCost": "691400",
						"executionCost": "infinite",
						"totalCost": "infinite"
					},
					"external": {
						"getNFTPermit(address)": "1298",
						"getNFTWrapper(address)": "infinite",
						"getNftTypeWrapper(bytes32)": "1201",
						"hub()": "1071",
						"owner()": "1124",
						"setNFTPermit(address,string)": "infinite",
						"setNFTPermits(address[],string[])": "infinite",
						"setNftType(string,address)": "infinite",
						"setNftTypes(string[],address[])": "infinite",
						"transferOwnership(address)": "infinite"
					},
					"internal": {
						"_setNFTPermit(address,string memory)": "infinite",
						"_setNFTPermits(address[] memory,string memory[] memory)": "infinite",
						"_setNftType(string memory,address)": "infinite",
						"_setNftTypes(string memory[] memory,address[] memory)": "infinite"
					}
				},
				"methodIdentifiers": {
					"getNFTPermit(address)": "6651f11d",
					"getNFTWrapper(address)": "b8c8aff8",
					"getNftTypeWrapper(bytes32)": "1a3dd0a5",
					"hub()": "365a86fc",
					"owner()": "8da5cb5b",
					"setNFTPermit(address,string)": "c88641a2",
					"setNFTPermits(address[],string[])": "95244b94",
					"setNftType(string,address)": "d8e4e93e",
					"setNftTypes(string[],address[])": "0a21cc43",
					"transferOwnership(address)": "f2fde38b"
				}
			},
			"storageLayout": {
				"storage": [
					{
						"astId": 615,
						"contract": "contracts/PermittedNFTsAndTypeRegistry.sol:PermittedNFTsAndTypeRegistry",
						"label": "_owner",
						"offset": 0,
						"slot": "0",
						"type": "t_address"
					},
					{
						"astId": 36,
						"contract": "contracts/PermittedNFTsAndTypeRegistry.sol:PermittedNFTsAndTypeRegistry",
						"label": "hub",
						"offset": 0,
						"slot": "1",
						"type": "t_contract(INftfiHub)483"
					},
					{
						"astId": 40,
						"contract": "contracts/PermittedNFTsAndTypeRegistry.sol:PermittedNFTsAndTypeRegistry",
						"label": "nftTypes",
						"offset": 0,
						"slot": "2",
						"type": "t_mapping(t_bytes32,t_address)"
					},
					{
						"astId": 45,
						"contract": "contracts/PermittedNFTsAndTypeRegistry.sol:PermittedNFTsAndTypeRegistry",
						"label": "nftPermits",
						"offset": 0,
						"slot": "3",
						"type": "t_mapping(t_address,t_bytes32)"
					}
				],
				"types": {
					"t_address": {
						"encoding": "inplace",
						"label": "address",
						"numberOfBytes": "20"
					},
					"t_bytes32": {
						"encoding": "inplace",
						"label": "bytes32",
						"numberOfBytes": "32"
					},
					"t_contract(INftfiHub)483": {
						"encoding": "inplace",
						"label": "contract INftfiHub",
						"numberOfBytes": "20"
					},
					"t_mapping(t_address,t_bytes32)": {
						"encoding": "mapping",
						"key": "t_address",
						"label": "mapping(address => bytes32)",
						"numberOfBytes": "32",
						"value": "t_bytes32"
					},
					"t_mapping(t_bytes32,t_address)": {
						"encoding": "mapping",
						"key": "t_bytes32",
						"label": "mapping(bytes32 => address)",
						"numberOfBytes": "32",
						"value": "t_address"
					}
				}
			},
			"userdoc": {
				"events": {
					"NFTPermit(address,bytes32)": {
						"notice": "This event is fired whenever the admin sets a NFT's permit."
					},
					"TypeUpdated(bytes32,address)": {
						"notice": "This event is fired whenever the admins register a ntf type."
					}
				},
				"kind": "user",
				"methods": {
					"getNFTPermit(address)": {
						"notice": "This function can be called by anyone to lookup the Nft Type associated with the contract.Returns the NFT Type: - bytes32(\"\") means \"not permitted\" - != bytes32(\"\") means \"permitted with the given NFT Type\""
					},
					"getNFTWrapper(address)": {
						"notice": "This function can be called by anyone to lookup the address of the NftWrapper associated to the `_nftContract` type."
					},
					"getNftTypeWrapper(bytes32)": {
						"notice": "This function can be called by anyone to get the contract address that implements the given nft type."
					},
					"setNFTPermit(address,string)": {
						"notice": "This function can be called by admins to change the permitted list status of an NFT contract. This includes both adding an NFT contract to the permitted list and removing it. `_nftContract` can not be zero address."
					},
					"setNFTPermits(address[],string[])": {
						"notice": "This function can be called by admins to change the permitted list status of a batch NFT contracts. This includes both adding an NFT contract to the permitted list and removing it. `_nftContract` can not be zero address."
					},
					"setNftType(string,address)": {
						"notice": "Set or update the wrapper contract address for the given NFT Type. Set address(0) for a nft type for un-register such type."
					},
					"setNftTypes(string[],address[])": {
						"notice": "Batch set or update the wrappers contract address for the given batch of NFT Types. Set address(0) for a nft type for un-register such type."
					}
				},
				"version": 1
			}
		}
	}
}