{
	"contracts/PermittedNFTsAndTypeRegistry.sol": {
		"PermittedNFTsAndTypeRegistry": {
			"abi": [
				{
					"inputs": [
						{
							"internalType": "address",
							"name": "_admin",
							"type": "address"
						},
						{
							"internalType": "address",
							"name": "_nftfiHub",
							"type": "address"
						},
						{
							"internalType": "string[]",
							"name": "_definedNftTypes",
							"type": "string[]"
						},
						{
							"internalType": "address[]",
							"name": "_definedNftWrappers",
							"type": "address[]"
						},
						{
							"internalType": "address[]",
							"name": "_permittedNftContracts",
							"type": "address[]"
						},
						{
							"internalType": "string[]",
							"name": "_permittedNftTypes",
							"type": "string[]"
						}
					],
					"stateMutability": "nonpayable",
					"type": "constructor"
				},
				{
					"anonymous": false,
					"inputs": [
						{
							"indexed": true,
							"internalType": "address",
							"name": "nftContract",
							"type": "address"
						},
						{
							"indexed": true,
							"internalType": "bytes32",
							"name": "nftType",
							"type": "bytes32"
						}
					],
					"name": "NFTPermit",
					"type": "event"
				},
				{
					"anonymous": false,
					"inputs": [
						{
							"indexed": true,
							"internalType": "address",
							"name": "previousOwner",
							"type": "address"
						},
						{
							"indexed": true,
							"internalType": "address",
							"name": "newOwner",
							"type": "address"
						}
					],
					"name": "OwnershipTransferred",
					"type": "event"
				},
				{
					"anonymous": false,
					"inputs": [
						{
							"indexed": true,
							"internalType": "bytes32",
							"name": "nftType",
							"type": "bytes32"
						},
						{
							"indexed": true,
							"internalType": "address",
							"name": "nftWrapper",
							"type": "address"
						}
					],
					"name": "TypeUpdated",
					"type": "event"
				},
				{
					"inputs": [
						{
							"internalType": "address",
							"name": "_nftContract",
							"type": "address"
						}
					],
					"name": "getNFTPermit",
					"outputs": [
						{
							"internalType": "bytes32",
							"name": "",
							"type": "bytes32"
						}
					],
					"stateMutability": "view",
					"type": "function"
				},
				{
					"inputs": [
						{
							"internalType": "address",
							"name": "_nftContract",
							"type": "address"
						}
					],
					"name": "getNFTWrapper",
					"outputs": [
						{
							"internalType": "address",
							"name": "",
							"type": "address"
						}
					],
					"stateMutability": "view",
					"type": "function"
				},
				{
					"inputs": [
						{
							"internalType": "bytes32",
							"name": "_nftType",
							"type": "bytes32"
						}
					],
					"name": "getNftTypeWrapper",
					"outputs": [
						{
							"internalType": "address",
							"name": "",
							"type": "address"
						}
					],
					"stateMutability": "view",
					"type": "function"
				},
				{
					"inputs": [],
					"name": "hub",
					"outputs": [
						{
							"internalType": "contract INftfiHub",
							"name": "",
							"type": "address"
						}
					],
					"stateMutability": "view",
					"type": "function"
				},
				{
					"inputs": [],
					"name": "owner",
					"outputs": [
						{
							"internalType": "address",
							"name": "",
							"type": "address"
						}
					],
					"stateMutability": "view",
					"type": "function"
				},
				{
					"inputs": [
						{
							"internalType": "address",
							"name": "_nftContract",
							"type": "address"
						},
						{
							"internalType": "string",
							"name": "_nftType",
							"type": "string"
						}
					],
					"name": "setNFTPermit",
					"outputs": [],
					"stateMutability": "nonpayable",
					"type": "function"
				},
				{
					"inputs": [
						{
							"internalType": "address[]",
							"name": "_nftContracts",
							"type": "address[]"
						},
						{
							"internalType": "string[]",
							"name": "_nftTypes",
							"type": "string[]"
						}
					],
					"name": "setNFTPermits",
					"outputs": [],
					"stateMutability": "nonpayable",
					"type": "function"
				},
				{
					"inputs": [
						{
							"internalType": "string",
							"name": "_nftType",
							"type": "string"
						},
						{
							"internalType": "address",
							"name": "_nftWrapper",
							"type": "address"
						}
					],
					"name": "setNftType",
					"outputs": [],
					"stateMutability": "nonpayable",
					"type": "function"
				},
				{
					"inputs": [
						{
							"internalType": "string[]",
							"name": "_nftTypes",
							"type": "string[]"
						},
						{
							"internalType": "address[]",
							"name": "_nftWrappers",
							"type": "address[]"
						}
					],
					"name": "setNftTypes",
					"outputs": [],
					"stateMutability": "nonpayable",
					"type": "function"
				},
				{
					"inputs": [
						{
							"internalType": "address",
							"name": "_newOwner",
							"type": "address"
						}
					],
					"name": "transferOwnership",
					"outputs": [],
					"stateMutability": "nonpayable",
					"type": "function"
				}
			],
			"devdoc": {
				"author": "NFTfi",
				"details": "Registry for NFT contracts supported by NFTfi. Each NFT is associated with an NFT Type.",
				"events": {
					"NFTPermit(address,bytes32)": {
						"params": {
							"nftContract": "- Address of the NFT contract.",
							"nftType": "- NTF type e.g. bytes32(\"CRYPTO_KITTIES\")"
						}
					},
					"TypeUpdated(bytes32,address)": {
						"params": {
							"nftType": "- Nft type represented by keccak256('nft type').",
							"nftWrapper": "- Address of the wrapper contract."
						}
					}
				},
				"kind": "dev",
				"methods": {
					"constructor": {
						"details": "Sets `nftTypeRegistry` Initialize `nftPermits` with a batch of permitted NFTs",
						"params": {
							"_admin": "- Initial admin of this contract.",
							"_definedNftTypes": "- All the ossible nft types",
							"_definedNftWrappers": "- All the possible wrappers for the types",
							"_nftfiHub": "- Address of the NftfiHub contract",
							"_permittedNftContracts": "- The addresses of the NFT contracts.",
							"_permittedNftTypes": "- The NFT Types. e.g. \"CRYPTO_KITTIES\" - \"\" means \"disable this permit\" - != \"\" means \"enable permit with the given NFT Type\""
						}
					},
					"getNFTPermit(address)": {
						"params": {
							"_nftContract": "- The address of the NFT contract."
						}
					},
					"getNFTWrapper(address)": {
						"params": {
							"_nftContract": "- The address of the NFT contract."
						}
					},
					"getNftTypeWrapper(bytes32)": {
						"params": {
							"_nftType": "- The nft type, e.g. bytes32(\"ERC721\"), or bytes32(\"ERC1155\")."
						}
					},
					"owner()": {
						"details": "Returns the address of the current owner."
					},
					"setNFTPermit(address,string)": {
						"params": {
							"_nftContract": "- The address of the NFT contract.",
							"_nftType": "- The NFT Type. e.g. \"CRYPTO_KITTIES\" - \"\" means \"disable this permit\" - != \"\" means \"enable permit with the given NFT Type\""
						}
					},
					"setNFTPermits(address[],string[])": {
						"params": {
							"_nftContracts": "- The addresses of the NFT contracts.",
							"_nftTypes": "- The NFT Types. e.g. \"CRYPTO_KITTIES\" - \"\" means \"disable this permit\" - != \"\" means \"enable permit with the given NFT Type\""
						}
					},
					"setNftType(string,address)": {
						"params": {
							"_nftType": "- The nft type, e.g. \"ERC721\", or \"ERC1155\".",
							"_nftWrapper": "- The address of the wrapper contract that implements INftWrapper behaviour for dealing with NFTs."
						}
					},
					"setNftTypes(string[],address[])": {
						"params": {
							"_nftTypes": "- The nft types, e.g. \"ERC721\", or \"ERC1155\".",
							"_nftWrappers": "- The addresses of the wrapper contract that implements INftWrapper behaviour for dealing with NFTs."
						}
					},
					"transferOwnership(address)": {
						"details": "Transfers ownership of the contract to a new account (`newOwner`). Can only be called by the current owner."
					}
				},
				"title": "PermittedNFTsAndTypeRegistry",
				"version": 1
			},
			"evm": {
				"assembly": "    /* \"contracts/PermittedNFTsAndTypeRegistry.sol\":416:10182  contract PermittedNFTsAndTypeRegistry is Ownable, IPermittedNFTs {... */\n  mstore(0x40, 0x80)\n    /* \"contracts/PermittedNFTsAndTypeRegistry.sol\":2714:3152  constructor(... */\n  callvalue\n  dup1\n  iszero\n  tag_1\n  jumpi\n  0x00\n  dup1\n  revert\ntag_1:\n  pop\n  mload(0x40)\n  sub(codesize, bytecodeSize)\n  dup1\n  bytecodeSize\n  dup4\n  codecopy\n  dup2\n  add\n  0x40\n  dup2\n  swap1\n  mstore\n  tag_2\n  swap2\n  tag_3\n  jump\t// in\ntag_2:\n    /* \"contracts/PermittedNFTsAndTypeRegistry.sol\":2972:2978  _admin */\n  dup6\n    /* \"contracts/utils/Ownable.sol\":1264:1288  _setOwner(_initialOwner) */\n  tag_7\n    /* \"contracts/PermittedNFTsAndTypeRegistry.sol\":2972:2978  _admin */\n  dup2\n    /* \"contracts/utils/Ownable.sol\":1264:1273  _setOwner */\n  tag_8\n    /* \"contracts/utils/Ownable.sol\":1264:1288  _setOwner(_initialOwner) */\n  jump\t// in\ntag_7:\n  pop\n    /* \"contracts/PermittedNFTsAndTypeRegistry.sol\":2990:2993  hub */\n  0x01\n    /* \"contracts/PermittedNFTsAndTypeRegistry.sol\":2990:3016  hub = INftfiHub(_nftfiHub) */\n  dup1\n  sload\n  not(sub(shl(0xa0, 0x01), 0x01))\n  and\n  sub(shl(0xa0, 0x01), 0x01)\n  dup8\n  and\n  or\n  swap1\n  sstore\n    /* \"contracts/PermittedNFTsAndTypeRegistry.sol\":3026:3077  _setNftTypes(_definedNftTypes, _definedNftWrappers) */\n  tag_10\n    /* \"contracts/PermittedNFTsAndTypeRegistry.sol\":3039:3055  _definedNftTypes */\n  dup5\n    /* \"contracts/PermittedNFTsAndTypeRegistry.sol\":3057:3076  _definedNftWrappers */\n  dup5\n    /* \"contracts/PermittedNFTsAndTypeRegistry.sol\":3026:3038  _setNftTypes */\n  tag_11\n    /* \"contracts/PermittedNFTsAndTypeRegistry.sol\":3026:3077  _setNftTypes(_definedNftTypes, _definedNftWrappers) */\n  jump\t// in\ntag_10:\n    /* \"contracts/PermittedNFTsAndTypeRegistry.sol\":3087:3145  _setNFTPermits(_permittedNftContracts, _permittedNftTypes) */\n  tag_12\n    /* \"contracts/PermittedNFTsAndTypeRegistry.sol\":3102:3124  _permittedNftContracts */\n  dup3\n    /* \"contracts/PermittedNFTsAndTypeRegistry.sol\":3126:3144  _permittedNftTypes */\n  dup3\n    /* \"contracts/PermittedNFTsAndTypeRegistry.sol\":3087:3101  _setNFTPermits */\n  tag_13\n    /* \"contracts/PermittedNFTsAndTypeRegistry.sol\":3087:3145  _setNFTPermits(_permittedNftContracts, _permittedNftTypes) */\n  jump\t// in\ntag_12:\n    /* \"contracts/PermittedNFTsAndTypeRegistry.sol\":2714:3152  constructor(... */\n  pop\n  pop\n  pop\n  pop\n  pop\n  pop\n    /* \"contracts/PermittedNFTsAndTypeRegistry.sol\":416:10182  contract PermittedNFTsAndTypeRegistry is Ownable, IPermittedNFTs {... */\n  jump(tag_76)\n    /* \"contracts/utils/Ownable.sol\":1847:2019  function _setOwner(address _newOwner) private {... */\ntag_8:\n    /* \"contracts/utils/Ownable.sol\":1903:1919  address oldOwner */\n  0x00\n    /* \"contracts/utils/Ownable.sol\":1922:1928  _owner */\n  dup1\n  sload\n  sub(shl(0xa0, 0x01), 0x01)\n    /* \"contracts/utils/Ownable.sol\":1938:1956  _owner = _newOwner */\n  dup4\n  dup2\n  and\n  not(sub(shl(0xa0, 0x01), 0x01))\n  dup4\n  and\n  dup2\n  or\n  dup5\n  sstore\n    /* \"contracts/utils/Ownable.sol\":1971:2012  OwnershipTransferred(oldOwner, _newOwner) */\n  mload(0x40)\n    /* \"contracts/utils/Ownable.sol\":1922:1928  _owner */\n  swap2\n  swap1\n  swap3\n  and\n  swap3\n  dup4\n  swap2\n    /* \"contracts/utils/Ownable.sol\":1971:2012  OwnershipTransferred(oldOwner, _newOwner) */\n  0x8be0079c531659141344cd1fd0a4f28419497f9722a3daafe3b4186f6b6457e0\n  swap2\n    /* \"contracts/utils/Ownable.sol\":1903:1919  address oldOwner */\n  swap1\n    /* \"contracts/utils/Ownable.sol\":1971:2012  OwnershipTransferred(oldOwner, _newOwner) */\n  log3\n    /* \"contracts/utils/Ownable.sol\":1847:2019  function _setOwner(address _newOwner) private {... */\n  pop\n  pop\n  jump\t// out\n    /* \"contracts/PermittedNFTsAndTypeRegistry.sol\":7982:8314  function _setNftTypes(string[] memory _nftTypes, address[] memory _nftWrappers) internal {... */\ntag_11:\n    /* \"contracts/PermittedNFTsAndTypeRegistry.sol\":8109:8121  _nftWrappers */\n  dup1\n    /* \"contracts/PermittedNFTsAndTypeRegistry.sol\":8109:8128  _nftWrappers.length */\n  mload\n    /* \"contracts/PermittedNFTsAndTypeRegistry.sol\":8089:8098  _nftTypes */\n  dup3\n    /* \"contracts/PermittedNFTsAndTypeRegistry.sol\":8089:8105  _nftTypes.length */\n  mload\n    /* \"contracts/PermittedNFTsAndTypeRegistry.sol\":8089:8128  _nftTypes.length == _nftWrappers.length */\n  eq\n    /* \"contracts/PermittedNFTsAndTypeRegistry.sol\":8081:8180  require(_nftTypes.length == _nftWrappers.length, \"setNftTypes function information arity mismatch\") */\n  tag_17\n  jumpi\n  mload(0x40)\n  shl(0xe5, 0x461bcd)\n  dup2\n  mstore\n    /* \"#utility.yul\":4725:4727   */\n  0x20\n    /* \"contracts/PermittedNFTsAndTypeRegistry.sol\":8081:8180  require(_nftTypes.length == _nftWrappers.length, \"setNftTypes function information arity mismatch\") */\n  0x04\n  dup3\n  add\n    /* \"#utility.yul\":4707:4728   */\n  mstore\n    /* \"#utility.yul\":4764:4766   */\n  0x2f\n    /* \"#utility.yul\":4744:4762   */\n  0x24\n  dup3\n  add\n    /* \"#utility.yul\":4737:4767   */\n  mstore\n    /* \"#utility.yul\":4803:4837   */\n  0x7365744e667454797065732066756e6374696f6e20696e666f726d6174696f6e\n    /* \"#utility.yul\":4783:4801   */\n  0x44\n  dup3\n  add\n    /* \"#utility.yul\":4776:4838   */\n  mstore\n  shl(0x8b, 0x040c2e4d2e8f240dad2e6dac2e8c6d)\n    /* \"#utility.yul\":4854:4872   */\n  0x64\n  dup3\n  add\n    /* \"#utility.yul\":4847:4892   */\n  mstore\n    /* \"#utility.yul\":4909:4928   */\n  0x84\n  add\n    /* \"contracts/PermittedNFTsAndTypeRegistry.sol\":8081:8180  require(_nftTypes.length == _nftWrappers.length, \"setNftTypes function information arity mismatch\") */\ntag_18:\n  mload(0x40)\n  dup1\n  swap2\n  sub\n  swap1\n  revert\ntag_17:\n    /* \"contracts/PermittedNFTsAndTypeRegistry.sol\":8196:8205  uint256 i */\n  0x00\n    /* \"contracts/PermittedNFTsAndTypeRegistry.sol\":8191:8308  for (uint256 i = 0; i < _nftWrappers.length; i++) {... */\ntag_20:\n    /* \"contracts/PermittedNFTsAndTypeRegistry.sol\":8215:8227  _nftWrappers */\n  dup2\n    /* \"contracts/PermittedNFTsAndTypeRegistry.sol\":8215:8234  _nftWrappers.length */\n  mload\n    /* \"contracts/PermittedNFTsAndTypeRegistry.sol\":8211:8212  i */\n  dup2\n    /* \"contracts/PermittedNFTsAndTypeRegistry.sol\":8211:8234  i < _nftWrappers.length */\n  lt\n    /* \"contracts/PermittedNFTsAndTypeRegistry.sol\":8191:8308  for (uint256 i = 0; i < _nftWrappers.length; i++) {... */\n  iszero\n  tag_21\n  jumpi\n    /* \"contracts/PermittedNFTsAndTypeRegistry.sol\":8255:8297  _setNftType(_nftTypes[i], _nftWrappers[i]) */\n  tag_23\n    /* \"contracts/PermittedNFTsAndTypeRegistry.sol\":8267:8276  _nftTypes */\n  dup4\n    /* \"contracts/PermittedNFTsAndTypeRegistry.sol\":8277:8278  i */\n  dup3\n    /* \"contracts/PermittedNFTsAndTypeRegistry.sol\":8267:8279  _nftTypes[i] */\n  dup2\n  mload\n  dup2\n  lt\n  tag_24\n  jumpi\n  mstore(0x00, shl(0xe0, 0x4e487b71))\n  mstore(0x04, 0x32)\n  revert(0x00, 0x24)\ntag_24:\n  0x20\n  mul\n  0x20\n  add\n  add\n  mload\n    /* \"contracts/PermittedNFTsAndTypeRegistry.sol\":8281:8293  _nftWrappers */\n  dup4\n    /* \"contracts/PermittedNFTsAndTypeRegistry.sol\":8294:8295  i */\n  dup4\n    /* \"contracts/PermittedNFTsAndTypeRegistry.sol\":8281:8296  _nftWrappers[i] */\n  dup2\n  mload\n  dup2\n  lt\n  tag_25\n  jumpi\n  mstore(0x00, shl(0xe0, 0x4e487b71))\n  mstore(0x04, 0x32)\n  revert(0x00, 0x24)\ntag_25:\n  0x20\n  mul\n  0x20\n  add\n  add\n  mload\n    /* \"contracts/PermittedNFTsAndTypeRegistry.sol\":8255:8266  _setNftType */\n  shl(0x20, tag_26)\n    /* \"contracts/PermittedNFTsAndTypeRegistry.sol\":8255:8297  _setNftType(_nftTypes[i], _nftWrappers[i]) */\n  0x20\n  shr\n  jump\t// in\ntag_23:\n    /* \"contracts/PermittedNFTsAndTypeRegistry.sol\":8236:8239  i++ */\n  dup1\n  tag_27\n  dup2\n  tag_28\n  jump\t// in\ntag_27:\n  swap2\n  pop\n  pop\n    /* \"contracts/PermittedNFTsAndTypeRegistry.sol\":8191:8308  for (uint256 i = 0; i < _nftWrappers.length; i++) {... */\n  jump(tag_20)\ntag_21:\n  pop\n    /* \"contracts/PermittedNFTsAndTypeRegistry.sol\":7982:8314  function _setNftTypes(string[] memory _nftTypes, address[] memory _nftWrappers) internal {... */\n  pop\n  pop\n  jump\t// out\n    /* \"contracts/PermittedNFTsAndTypeRegistry.sol\":9838:10180  function _setNFTPermits(address[] memory _nftContracts, string[] memory _nftTypes) internal {... */\ntag_13:\n    /* \"contracts/PermittedNFTsAndTypeRegistry.sol\":9972:9981  _nftTypes */\n  dup1\n    /* \"contracts/PermittedNFTsAndTypeRegistry.sol\":9972:9988  _nftTypes.length */\n  mload\n    /* \"contracts/PermittedNFTsAndTypeRegistry.sol\":9948:9961  _nftContracts */\n  dup3\n    /* \"contracts/PermittedNFTsAndTypeRegistry.sol\":9948:9968  _nftContracts.length */\n  mload\n    /* \"contracts/PermittedNFTsAndTypeRegistry.sol\":9948:9988  _nftContracts.length == _nftTypes.length */\n  eq\n    /* \"contracts/PermittedNFTsAndTypeRegistry.sol\":9940:10042  require(_nftContracts.length == _nftTypes.length, \"setNFTPermits function information arity mismatch\") */\n  tag_30\n  jumpi\n  mload(0x40)\n  shl(0xe5, 0x461bcd)\n  dup2\n  mstore\n    /* \"#utility.yul\":6199:6201   */\n  0x20\n    /* \"contracts/PermittedNFTsAndTypeRegistry.sol\":9940:10042  require(_nftContracts.length == _nftTypes.length, \"setNFTPermits function information arity mismatch\") */\n  0x04\n  dup3\n  add\n    /* \"#utility.yul\":6181:6202   */\n  mstore\n    /* \"#utility.yul\":6238:6240   */\n  0x31\n    /* \"#utility.yul\":6218:6236   */\n  0x24\n  dup3\n  add\n    /* \"#utility.yul\":6211:6241   */\n  mstore\n    /* \"#utility.yul\":6277:6311   */\n  0x7365744e46545065726d6974732066756e6374696f6e20696e666f726d617469\n    /* \"#utility.yul\":6257:6275   */\n  0x44\n  dup3\n  add\n    /* \"#utility.yul\":6250:6312   */\n  mstore\n  shl(0x7b, 0x0dedc40c2e4d2e8f240dad2e6dac2e8c6d)\n    /* \"#utility.yul\":6328:6346   */\n  0x64\n  dup3\n  add\n    /* \"#utility.yul\":6321:6368   */\n  mstore\n    /* \"#utility.yul\":6385:6404   */\n  0x84\n  add\n    /* \"contracts/PermittedNFTsAndTypeRegistry.sol\":9940:10042  require(_nftContracts.length == _nftTypes.length, \"setNFTPermits function information arity mismatch\") */\n  tag_18\n    /* \"#utility.yul\":6171:6410   */\n  jump\n    /* \"contracts/PermittedNFTsAndTypeRegistry.sol\":9940:10042  require(_nftContracts.length == _nftTypes.length, \"setNFTPermits function information arity mismatch\") */\ntag_30:\n    /* \"contracts/PermittedNFTsAndTypeRegistry.sol\":10058:10067  uint256 i */\n  0x00\n    /* \"contracts/PermittedNFTsAndTypeRegistry.sol\":10053:10174  for (uint256 i = 0; i < _nftContracts.length; i++) {... */\ntag_33:\n    /* \"contracts/PermittedNFTsAndTypeRegistry.sol\":10077:10090  _nftContracts */\n  dup3\n    /* \"contracts/PermittedNFTsAndTypeRegistry.sol\":10077:10097  _nftContracts.length */\n  mload\n    /* \"contracts/PermittedNFTsAndTypeRegistry.sol\":10073:10074  i */\n  dup2\n    /* \"contracts/PermittedNFTsAndTypeRegistry.sol\":10073:10097  i < _nftContracts.length */\n  lt\n    /* \"contracts/PermittedNFTsAndTypeRegistry.sol\":10053:10174  for (uint256 i = 0; i < _nftContracts.length; i++) {... */\n  iszero\n  tag_21\n  jumpi\n    /* \"contracts/PermittedNFTsAndTypeRegistry.sol\":10118:10163  _setNFTPermit(_nftContracts[i], _nftTypes[i]) */\n  tag_36\n    /* \"contracts/PermittedNFTsAndTypeRegistry.sol\":10132:10145  _nftContracts */\n  dup4\n    /* \"contracts/PermittedNFTsAndTypeRegistry.sol\":10146:10147  i */\n  dup3\n    /* \"contracts/PermittedNFTsAndTypeRegistry.sol\":10132:10148  _nftContracts[i] */\n  dup2\n  mload\n  dup2\n  lt\n  tag_37\n  jumpi\n  mstore(0x00, shl(0xe0, 0x4e487b71))\n  mstore(0x04, 0x32)\n  revert(0x00, 0x24)\ntag_37:\n  0x20\n  mul\n  0x20\n  add\n  add\n  mload\n    /* \"contracts/PermittedNFTsAndTypeRegistry.sol\":10150:10159  _nftTypes */\n  dup4\n    /* \"contracts/PermittedNFTsAndTypeRegistry.sol\":10160:10161  i */\n  dup4\n    /* \"contracts/PermittedNFTsAndTypeRegistry.sol\":10150:10162  _nftTypes[i] */\n  dup2\n  mload\n  dup2\n  lt\n  tag_38\n  jumpi\n  mstore(0x00, shl(0xe0, 0x4e487b71))\n  mstore(0x04, 0x32)\n  revert(0x00, 0x24)\ntag_38:\n  0x20\n  mul\n  0x20\n  add\n  add\n  mload\n    /* \"contracts/PermittedNFTsAndTypeRegistry.sol\":10118:10131  _setNFTPermit */\n  shl(0x20, tag_39)\n    /* \"contracts/PermittedNFTsAndTypeRegistry.sol\":10118:10163  _setNFTPermit(_nftContracts[i], _nftTypes[i]) */\n  0x20\n  shr\n  jump\t// in\ntag_36:\n    /* \"contracts/PermittedNFTsAndTypeRegistry.sol\":10099:10102  i++ */\n  dup1\n  tag_40\n  dup2\n  tag_28\n  jump\t// in\ntag_40:\n  swap2\n  pop\n  pop\n    /* \"contracts/PermittedNFTsAndTypeRegistry.sol\":10053:10174  for (uint256 i = 0; i < _nftContracts.length; i++) {... */\n  jump(tag_33)\n    /* \"contracts/PermittedNFTsAndTypeRegistry.sol\":7246:7563  function _setNftType(string memory _nftType, address _nftWrapper) internal {... */\ntag_26:\n    /* \"contracts/PermittedNFTsAndTypeRegistry.sol\":7339:7361  bytes(_nftType).length */\n  dup2\n  mload\n    /* \"contracts/PermittedNFTsAndTypeRegistry.sol\":7331:7387  require(bytes(_nftType).length != 0, \"nftType is empty\") */\n  tag_42\n  jumpi\n  mload(0x40)\n  shl(0xe5, 0x461bcd)\n  dup2\n  mstore\n    /* \"#utility.yul\":5502:5504   */\n  0x20\n    /* \"contracts/PermittedNFTsAndTypeRegistry.sol\":7331:7387  require(bytes(_nftType).length != 0, \"nftType is empty\") */\n  0x04\n  dup3\n  add\n    /* \"#utility.yul\":5484:5505   */\n  mstore\n    /* \"#utility.yul\":5541:5543   */\n  0x10\n    /* \"#utility.yul\":5521:5539   */\n  0x24\n  dup3\n  add\n    /* \"#utility.yul\":5514:5544   */\n  mstore\n  shl(0x80, 0x6e66745479706520697320656d707479)\n    /* \"#utility.yul\":5560:5578   */\n  0x44\n  dup3\n  add\n    /* \"#utility.yul\":5553:5599   */\n  mstore\n    /* \"#utility.yul\":5616:5634   */\n  0x64\n  add\n    /* \"contracts/PermittedNFTsAndTypeRegistry.sol\":7331:7387  require(bytes(_nftType).length != 0, \"nftType is empty\") */\n  tag_18\n    /* \"#utility.yul\":5474:5640   */\n  jump\n    /* \"contracts/PermittedNFTsAndTypeRegistry.sol\":7331:7387  require(bytes(_nftType).length != 0, \"nftType is empty\") */\ntag_42:\n    /* \"contracts/PermittedNFTsAndTypeRegistry.sol\":7418:7459  ContractKeys.getIdFromStringKey(_nftType) */\n  mload(0x40)\n  shl(0xe0, 0xf99a8ffb)\n  dup2\n  mstore\n    /* \"contracts/PermittedNFTsAndTypeRegistry.sol\":7397:7415  bytes32 nftTypeKey */\n  0x00\n  swap1\n    /* \"contracts/PermittedNFTsAndTypeRegistry.sol\":7418:7430  ContractKeys */\n  linkerSymbol(\"d7e2e0a2db402280e6c36233d590dce656503db794e250e1a52bcde9e8c0eea1\")\n  swap1\n    /* \"contracts/PermittedNFTsAndTypeRegistry.sol\":7418:7449  ContractKeys.getIdFromStringKey */\n  0xf99a8ffb\n  swap1\n    /* \"contracts/PermittedNFTsAndTypeRegistry.sol\":7418:7459  ContractKeys.getIdFromStringKey(_nftType) */\n  tag_45\n  swap1\n    /* \"contracts/PermittedNFTsAndTypeRegistry.sol\":7450:7458  _nftType */\n  dup7\n  swap1\n    /* \"contracts/PermittedNFTsAndTypeRegistry.sol\":7418:7459  ContractKeys.getIdFromStringKey(_nftType) */\n  0x04\n  add\n  tag_46\n  jump\t// in\ntag_45:\n  0x20\n  mload(0x40)\n  dup1\n  dup4\n  sub\n  dup2\n  dup7\n  dup1\n  extcodesize\n  iszero\n  dup1\n  iszero\n  tag_47\n  jumpi\n  0x00\n  dup1\n  revert\ntag_47:\n  pop\n  gas\n  delegatecall\n  iszero\n  dup1\n  iszero\n  tag_49\n  jumpi\n  returndatasize\n  0x00\n  dup1\n  returndatacopy\n  revert(0x00, returndatasize)\ntag_49:\n  pop\n  pop\n  pop\n  pop\n  mload(0x40)\n  returndatasize\n  not(0x1f)\n  0x1f\n  dup3\n  add\n  and\n  dup3\n  add\n  dup1\n  0x40\n  mstore\n  pop\n  dup2\n  add\n  swap1\n  tag_50\n  swap2\n  swap1\n  tag_51\n  jump\t// in\ntag_50:\n    /* \"contracts/PermittedNFTsAndTypeRegistry.sol\":7470:7490  nftTypes[nftTypeKey] */\n  0x00\n  dup2\n  dup2\n  mstore\n    /* \"contracts/PermittedNFTsAndTypeRegistry.sol\":7470:7478  nftTypes */\n  0x02\n    /* \"contracts/PermittedNFTsAndTypeRegistry.sol\":7470:7490  nftTypes[nftTypeKey] */\n  0x20\n  mstore\n  0x40\n  dup1\n  dup3\n  keccak256\n    /* \"contracts/PermittedNFTsAndTypeRegistry.sol\":7470:7504  nftTypes[nftTypeKey] = _nftWrapper */\n  dup1\n  sload\n  not(sub(shl(0xa0, 0x01), 0x01))\n  and\n  sub(shl(0xa0, 0x01), 0x01)\n  dup8\n  and\n  swap1\n  dup2\n  or\n  swap1\n  swap2\n  sstore\n    /* \"contracts/PermittedNFTsAndTypeRegistry.sol\":7520:7556  TypeUpdated(nftTypeKey, _nftWrapper) */\n  swap1\n  mload\n    /* \"contracts/PermittedNFTsAndTypeRegistry.sol\":7470:7490  nftTypes[nftTypeKey] */\n  swap3\n  swap4\n  pop\n    /* \"contracts/PermittedNFTsAndTypeRegistry.sol\":7470:7504  nftTypes[nftTypeKey] = _nftWrapper */\n  swap2\n    /* \"contracts/PermittedNFTsAndTypeRegistry.sol\":7470:7490  nftTypes[nftTypeKey] */\n  dup4\n  swap2\n    /* \"contracts/PermittedNFTsAndTypeRegistry.sol\":7520:7556  TypeUpdated(nftTypeKey, _nftWrapper) */\n  0x22be69269c1f7d73e73dcb25b710dd88c7aa1cf374c16d945def98df2107c2f8\n  swap2\n  log3\n    /* \"contracts/PermittedNFTsAndTypeRegistry.sol\":7246:7563  function _setNftType(string memory _nftType, address _nftWrapper) internal {... */\n  pop\n  pop\n  pop\n  jump\t// out\n    /* \"contracts/PermittedNFTsAndTypeRegistry.sol\":8758:9409  function _setNFTPermit(address _nftContract, string memory _nftType) internal {... */\ntag_39:\n  sub(shl(0xa0, 0x01), 0x01)\n    /* \"contracts/PermittedNFTsAndTypeRegistry.sol\":8854:8880  _nftContract != address(0) */\n  dup3\n  and\n    /* \"contracts/PermittedNFTsAndTypeRegistry.sol\":8846:8912  require(_nftContract != address(0), \"nftContract is zero address\") */\n  tag_53\n  jumpi\n  mload(0x40)\n  shl(0xe5, 0x461bcd)\n  dup2\n  mstore\n    /* \"#utility.yul\":4369:4371   */\n  0x20\n    /* \"contracts/PermittedNFTsAndTypeRegistry.sol\":8846:8912  require(_nftContract != address(0), \"nftContract is zero address\") */\n  0x04\n  dup3\n  add\n    /* \"#utility.yul\":4351:4372   */\n  mstore\n    /* \"#utility.yul\":4408:4410   */\n  0x1b\n    /* \"#utility.yul\":4388:4406   */\n  0x24\n  dup3\n  add\n    /* \"#utility.yul\":4381:4411   */\n  mstore\n    /* \"#utility.yul\":4447:4476   */\n  0x6e6674436f6e7472616374206973207a65726f20616464726573730000000000\n    /* \"#utility.yul\":4427:4445   */\n  0x44\n  dup3\n  add\n    /* \"#utility.yul\":4420:4477   */\n  mstore\n    /* \"#utility.yul\":4494:4512   */\n  0x64\n  add\n    /* \"contracts/PermittedNFTsAndTypeRegistry.sol\":8846:8912  require(_nftContract != address(0), \"nftContract is zero address\") */\n  tag_18\n    /* \"#utility.yul\":4341:4518   */\n  jump\n    /* \"contracts/PermittedNFTsAndTypeRegistry.sol\":8846:8912  require(_nftContract != address(0), \"nftContract is zero address\") */\ntag_53:\n    /* \"contracts/PermittedNFTsAndTypeRegistry.sol\":8943:8984  ContractKeys.getIdFromStringKey(_nftType) */\n  mload(0x40)\n  shl(0xe0, 0xf99a8ffb)\n  dup2\n  mstore\n    /* \"contracts/PermittedNFTsAndTypeRegistry.sol\":8922:8940  bytes32 nftTypeKey */\n  0x00\n  swap1\n    /* \"contracts/PermittedNFTsAndTypeRegistry.sol\":8943:8955  ContractKeys */\n  linkerSymbol(\"d7e2e0a2db402280e6c36233d590dce656503db794e250e1a52bcde9e8c0eea1\")\n  swap1\n    /* \"contracts/PermittedNFTsAndTypeRegistry.sol\":8943:8974  ContractKeys.getIdFromStringKey */\n  0xf99a8ffb\n  swap1\n    /* \"contracts/PermittedNFTsAndTypeRegistry.sol\":8943:8984  ContractKeys.getIdFromStringKey(_nftType) */\n  tag_56\n  swap1\n    /* \"contracts/PermittedNFTsAndTypeRegistry.sol\":8975:8983  _nftType */\n  dup6\n  swap1\n    /* \"contracts/PermittedNFTsAndTypeRegistry.sol\":8943:8984  ContractKeys.getIdFromStringKey(_nftType) */\n  0x04\n  add\n  tag_46\n  jump\t// in\ntag_56:\n  0x20\n  mload(0x40)\n  dup1\n  dup4\n  sub\n  dup2\n  dup7\n  dup1\n  extcodesize\n  iszero\n  dup1\n  iszero\n  tag_57\n  jumpi\n  0x00\n  dup1\n  revert\ntag_57:\n  pop\n  gas\n  delegatecall\n  iszero\n  dup1\n  iszero\n  tag_59\n  jumpi\n  returndatasize\n  0x00\n  dup1\n  returndatacopy\n  revert(0x00, returndatasize)\ntag_59:\n  pop\n  pop\n  pop\n  pop\n  mload(0x40)\n  returndatasize\n  not(0x1f)\n  0x1f\n  dup3\n  add\n  and\n  dup3\n  add\n  dup1\n  0x40\n  mstore\n  pop\n  dup2\n  add\n  swap1\n  tag_60\n  swap2\n  swap1\n  tag_51\n  jump\t// in\ntag_60:\n    /* \"contracts/PermittedNFTsAndTypeRegistry.sol\":8922:8984  bytes32 nftTypeKey = ContractKeys.getIdFromStringKey(_nftType) */\n  swap1\n  pop\n    /* \"contracts/PermittedNFTsAndTypeRegistry.sol\":8999:9014  nftTypeKey != 0 */\n  dup1\n  iszero\n    /* \"contracts/PermittedNFTsAndTypeRegistry.sol\":8995:9120  if (nftTypeKey != 0) {... */\n  tag_64\n  jumpi\n    /* \"contracts/PermittedNFTsAndTypeRegistry.sol\":9079:9080  0 */\n  0x00\n    /* \"contracts/PermittedNFTsAndTypeRegistry.sol\":6846:6864  nftTypes[_nftType] */\n  dup2\n  dup2\n  mstore\n    /* \"contracts/PermittedNFTsAndTypeRegistry.sol\":6846:6854  nftTypes */\n  0x02\n    /* \"contracts/PermittedNFTsAndTypeRegistry.sol\":6846:6864  nftTypes[_nftType] */\n  0x20\n  mstore\n  0x40\n  swap1\n  keccak256\n  sload\n  sub(shl(0xa0, 0x01), 0x01)\n  and\n    /* \"contracts/PermittedNFTsAndTypeRegistry.sol\":9030:9109  require(getNftTypeWrapper(nftTypeKey) != address(0), \"NFT type not registered\") */\n  tag_64\n  jumpi\n  mload(0x40)\n  shl(0xe5, 0x461bcd)\n  dup2\n  mstore\n    /* \"#utility.yul\":5847:5849   */\n  0x20\n    /* \"contracts/PermittedNFTsAndTypeRegistry.sol\":9030:9109  require(getNftTypeWrapper(nftTypeKey) != address(0), \"NFT type not registered\") */\n  0x04\n  dup3\n  add\n    /* \"#utility.yul\":5829:5850   */\n  mstore\n    /* \"#utility.yul\":5886:5888   */\n  0x17\n    /* \"#utility.yul\":5866:5884   */\n  0x24\n  dup3\n  add\n    /* \"#utility.yul\":5859:5889   */\n  mstore\n    /* \"#utility.yul\":5925:5950   */\n  0x4e46542074797065206e6f742072656769737465726564000000000000000000\n    /* \"#utility.yul\":5905:5923   */\n  0x44\n  dup3\n  add\n    /* \"#utility.yul\":5898:5951   */\n  mstore\n    /* \"#utility.yul\":5968:5986   */\n  0x64\n  add\n    /* \"contracts/PermittedNFTsAndTypeRegistry.sol\":9030:9109  require(getNftTypeWrapper(nftTypeKey) != address(0), \"NFT type not registered\") */\n  tag_18\n    /* \"#utility.yul\":5819:5992   */\n  jump\n    /* \"contracts/PermittedNFTsAndTypeRegistry.sol\":9030:9109  require(getNftTypeWrapper(nftTypeKey) != address(0), \"NFT type not registered\") */\ntag_64:\n    /* \"contracts/PermittedNFTsAndTypeRegistry.sol\":9211:9246  ContractKeys.AIRDROP_WRAPPER_STRING */\n  0x40\n  dup1\n  mload\n  dup1\n  dup3\n  add\n  dup3\n  mstore\n  0x0e\n  dup2\n  mstore\n  shl(0x91, 0x20b4b9323937b82bb930b83832b9)\n  0x20\n  dup3\n  add\n  mstore\n    /* \"contracts/PermittedNFTsAndTypeRegistry.sol\":9179:9247  ContractKeys.getIdFromStringKey(ContractKeys.AIRDROP_WRAPPER_STRING) */\n  swap1\n  mload\n  shl(0xe0, 0xf99a8ffb)\n  dup2\n  mstore\n    /* \"contracts/PermittedNFTsAndTypeRegistry.sol\":9179:9191  ContractKeys */\n  linkerSymbol(\"d7e2e0a2db402280e6c36233d590dce656503db794e250e1a52bcde9e8c0eea1\")\n  swap2\n    /* \"contracts/PermittedNFTsAndTypeRegistry.sol\":9179:9210  ContractKeys.getIdFromStringKey */\n  0xf99a8ffb\n  swap2\n    /* \"contracts/PermittedNFTsAndTypeRegistry.sol\":9179:9247  ContractKeys.getIdFromStringKey(ContractKeys.AIRDROP_WRAPPER_STRING) */\n  tag_67\n  swap2\n    /* \"contracts/PermittedNFTsAndTypeRegistry.sol\":9211:9246  ContractKeys.AIRDROP_WRAPPER_STRING */\n  swap1\n    /* \"contracts/PermittedNFTsAndTypeRegistry.sol\":9179:9247  ContractKeys.getIdFromStringKey(ContractKeys.AIRDROP_WRAPPER_STRING) */\n  0x04\n  add\n  tag_46\n  jump\t// in\ntag_67:\n  0x20\n  mload(0x40)\n  dup1\n  dup4\n  sub\n  dup2\n  dup7\n  dup1\n  extcodesize\n  iszero\n  dup1\n  iszero\n  tag_68\n  jumpi\n  0x00\n  dup1\n  revert\ntag_68:\n  pop\n  gas\n  delegatecall\n  iszero\n  dup1\n  iszero\n  tag_70\n  jumpi\n  returndatasize\n  0x00\n  dup1\n  returndatacopy\n  revert(0x00, returndatasize)\ntag_70:\n  pop\n  pop\n  pop\n  pop\n  mload(0x40)\n  returndatasize\n  not(0x1f)\n  0x1f\n  dup3\n  add\n  and\n  dup3\n  add\n  dup1\n  0x40\n  mstore\n  pop\n  dup2\n  add\n  swap1\n  tag_71\n  swap2\n  swap1\n  tag_51\n  jump\t// in\ntag_71:\n  sub(shl(0xa0, 0x01), 0x01)\n    /* \"contracts/PermittedNFTsAndTypeRegistry.sol\":9151:9175  nftPermits[_nftContract] */\n  dup5\n  and\n  0x00\n  swap1\n  dup2\n  mstore\n    /* \"contracts/PermittedNFTsAndTypeRegistry.sol\":9151:9161  nftPermits */\n  0x03\n    /* \"contracts/PermittedNFTsAndTypeRegistry.sol\":9151:9175  nftPermits[_nftContract] */\n  0x20\n  mstore\n  0x40\n  swap1\n  keccak256\n  sload\n    /* \"contracts/PermittedNFTsAndTypeRegistry.sol\":9151:9247  nftPermits[_nftContract] != ContractKeys.getIdFromStringKey(ContractKeys.AIRDROP_WRAPPER_STRING) */\n  eq\n  iszero\n    /* \"contracts/PermittedNFTsAndTypeRegistry.sol\":9130:9305  require(... */\n  tag_72\n  jumpi\n  mload(0x40)\n  shl(0xe5, 0x461bcd)\n  dup2\n  mstore\n    /* \"#utility.yul\":5141:5143   */\n  0x20\n    /* \"contracts/PermittedNFTsAndTypeRegistry.sol\":9130:9305  require(... */\n  0x04\n  dup3\n  add\n    /* \"#utility.yul\":5123:5144   */\n  dup2\n  swap1\n  mstore\n    /* \"#utility.yul\":5160:5178   */\n  0x24\n  dup3\n  add\n    /* \"#utility.yul\":5153:5183   */\n  mstore\n    /* \"#utility.yul\":5219:5253   */\n  0x41697264726f70577261707065722063616e2774206265206d6f646966696564\n    /* \"#utility.yul\":5199:5217   */\n  0x44\n  dup3\n  add\n    /* \"#utility.yul\":5192:5254   */\n  mstore\n    /* \"#utility.yul\":5271:5289   */\n  0x64\n  add\n    /* \"contracts/PermittedNFTsAndTypeRegistry.sol\":9130:9305  require(... */\n  tag_18\n    /* \"#utility.yul\":5113:5295   */\n  jump\n    /* \"contracts/PermittedNFTsAndTypeRegistry.sol\":9130:9305  require(... */\ntag_72:\n  sub(shl(0xa0, 0x01), 0x01)\n    /* \"contracts/PermittedNFTsAndTypeRegistry.sol\":9315:9339  nftPermits[_nftContract] */\n  dup4\n  and\n  0x00\n  dup2\n  dup2\n  mstore\n    /* \"contracts/PermittedNFTsAndTypeRegistry.sol\":9315:9325  nftPermits */\n  0x03\n    /* \"contracts/PermittedNFTsAndTypeRegistry.sol\":9315:9339  nftPermits[_nftContract] */\n  0x20\n  mstore\n  0x40\n  dup1\n  dup3\n  keccak256\n    /* \"contracts/PermittedNFTsAndTypeRegistry.sol\":9315:9352  nftPermits[_nftContract] = nftTypeKey */\n  dup5\n  swap1\n  sstore\n    /* \"contracts/PermittedNFTsAndTypeRegistry.sol\":9367:9402  NFTPermit(_nftContract, nftTypeKey) */\n  mload\n    /* \"contracts/PermittedNFTsAndTypeRegistry.sol\":9342:9352  nftTypeKey */\n  dup4\n  swap3\n    /* \"contracts/PermittedNFTsAndTypeRegistry.sol\":9315:9339  nftPermits[_nftContract] */\n  swap2\n    /* \"contracts/PermittedNFTsAndTypeRegistry.sol\":9367:9402  NFTPermit(_nftContract, nftTypeKey) */\n  0x903a211c8bcdc0ab18afc116fc4776504a9aac5c0121be0fda712d399017bd22\n  swap2\n  log3\n    /* \"contracts/PermittedNFTsAndTypeRegistry.sol\":8758:9409  function _setNFTPermit(address _nftContract, string memory _nftType) internal {... */\n  pop\n  pop\n  pop\n  jump\t// out\n    /* \"#utility.yul\":14:191   */\ntag_77:\n    /* \"#utility.yul\":93:106   */\n  dup1\n  mload\n  sub(shl(0xa0, 0x01), 0x01)\n    /* \"#utility.yul\":135:166   */\n  dup2\n  and\n    /* \"#utility.yul\":125:167   */\n  dup2\n  eq\n    /* \"#utility.yul\":115:117   */\n  tag_79\n  jumpi\n    /* \"#utility.yul\":181:182   */\n  0x00\n    /* \"#utility.yul\":178:179   */\n  dup1\n    /* \"#utility.yul\":171:183   */\n  revert\n    /* \"#utility.yul\":115:117   */\ntag_79:\n    /* \"#utility.yul\":74:191   */\n  swap2\n  swap1\n  pop\n  jump\t// out\n    /* \"#utility.yul\":196:910   */\ntag_80:\n    /* \"#utility.yul\":261:266   */\n  0x00\n    /* \"#utility.yul\":314:317   */\n  dup3\n    /* \"#utility.yul\":307:311   */\n  0x1f\n    /* \"#utility.yul\":299:305   */\n  dup4\n    /* \"#utility.yul\":295:312   */\n  add\n    /* \"#utility.yul\":291:318   */\n  slt\n    /* \"#utility.yul\":281:283   */\n  tag_82\n  jumpi\n    /* \"#utility.yul\":336:341   */\n  dup1\n    /* \"#utility.yul\":329:334   */\n  dup2\n    /* \"#utility.yul\":322:342   */\n  revert\n    /* \"#utility.yul\":281:283   */\ntag_82:\n    /* \"#utility.yul\":369:375   */\n  dup2\n    /* \"#utility.yul\":363:376   */\n  mload\n    /* \"#utility.yul\":395:399   */\n  0x20\n    /* \"#utility.yul\":419:479   */\n  tag_83\n    /* \"#utility.yul\":435:478   */\n  tag_84\n    /* \"#utility.yul\":475:477   */\n  dup4\n    /* \"#utility.yul\":435:478   */\n  tag_85\n  jump\t// in\ntag_84:\n    /* \"#utility.yul\":419:479   */\n  tag_86\n  jump\t// in\ntag_83:\n    /* \"#utility.yul\":501:504   */\n  dup1\n    /* \"#utility.yul\":525:527   */\n  dup4\n    /* \"#utility.yul\":520:523   */\n  dup3\n    /* \"#utility.yul\":513:528   */\n  mstore\n    /* \"#utility.yul\":553:555   */\n  dup3\n    /* \"#utility.yul\":548:551   */\n  dup3\n    /* \"#utility.yul\":544:556   */\n  add\n    /* \"#utility.yul\":537:556   */\n  swap2\n  pop\n    /* \"#utility.yul\":588:590   */\n  dup3\n    /* \"#utility.yul\":580:586   */\n  dup7\n    /* \"#utility.yul\":576:591   */\n  add\n    /* \"#utility.yul\":640:643   */\n  dup8\n    /* \"#utility.yul\":635:637   */\n  dup5\n    /* \"#utility.yul\":629:631   */\n  dup7\n    /* \"#utility.yul\":626:627   */\n  0x05\n    /* \"#utility.yul\":622:632   */\n  shl\n    /* \"#utility.yul\":614:620   */\n  dup10\n    /* \"#utility.yul\":610:633   */\n  add\n    /* \"#utility.yul\":606:638   */\n  add\n    /* \"#utility.yul\":603:644   */\n  gt\n    /* \"#utility.yul\":600:602   */\n  iszero\n  tag_87\n  jumpi\n    /* \"#utility.yul\":661:666   */\n  dup6\n    /* \"#utility.yul\":654:659   */\n  dup7\n    /* \"#utility.yul\":647:667   */\n  revert\n    /* \"#utility.yul\":600:602   */\ntag_87:\n    /* \"#utility.yul\":687:692   */\n  dup6\n    /* \"#utility.yul\":701:881   */\ntag_88:\n    /* \"#utility.yul\":715:717   */\n  dup6\n    /* \"#utility.yul\":712:713   */\n  dup2\n    /* \"#utility.yul\":709:718   */\n  lt\n    /* \"#utility.yul\":701:881   */\n  iszero\n  tag_90\n  jumpi\n    /* \"#utility.yul\":772:806   */\n  tag_91\n    /* \"#utility.yul\":802:805   */\n  dup3\n    /* \"#utility.yul\":772:806   */\n  tag_77\n  jump\t// in\ntag_91:\n    /* \"#utility.yul\":760:807   */\n  dup5\n  mstore\n    /* \"#utility.yul\":827:839   */\n  swap3\n  dup5\n  add\n  swap3\n    /* \"#utility.yul\":859:871   */\n  swap1\n  dup5\n  add\n  swap1\n    /* \"#utility.yul\":733:734   */\n  0x01\n    /* \"#utility.yul\":726:735   */\n  add\n    /* \"#utility.yul\":701:881   */\n  jump(tag_88)\ntag_90:\n  pop\n    /* \"#utility.yul\":899:904   */\n  swap1\n  swap8\n    /* \"#utility.yul\":271:910   */\n  swap7\n  pop\n  pop\n  pop\n  pop\n  pop\n  pop\n  pop\n  jump\t// out\n    /* \"#utility.yul\":915:2247   */\ntag_92:\n    /* \"#utility.yul\":979:984   */\n  0x00\n    /* \"#utility.yul\":1009:1013   */\n  0x1f\n    /* \"#utility.yul\":1053:1056   */\n  dup4\n    /* \"#utility.yul\":1048:1050   */\n  dup2\n    /* \"#utility.yul\":1040:1046   */\n  dup5\n    /* \"#utility.yul\":1036:1051   */\n  add\n    /* \"#utility.yul\":1032:1057   */\n  slt\n    /* \"#utility.yul\":1022:1024   */\n  tag_94\n  jumpi\n    /* \"#utility.yul\":1075:1080   */\n  dup2\n    /* \"#utility.yul\":1068:1073   */\n  dup3\n    /* \"#utility.yul\":1061:1081   */\n  revert\n    /* \"#utility.yul\":1022:1024   */\ntag_94:\n    /* \"#utility.yul\":1108:1114   */\n  dup3\n    /* \"#utility.yul\":1102:1115   */\n  mload\n    /* \"#utility.yul\":1134:1138   */\n  0x20\n    /* \"#utility.yul\":1158:1218   */\n  tag_95\n    /* \"#utility.yul\":1174:1217   */\n  tag_84\n    /* \"#utility.yul\":1214:1216   */\n  dup4\n    /* \"#utility.yul\":1174:1217   */\n  tag_85\n  jump\t// in\n    /* \"#utility.yul\":1158:1218   */\ntag_95:\n    /* \"#utility.yul\":1240:1243   */\n  dup1\n    /* \"#utility.yul\":1264:1266   */\n  dup4\n    /* \"#utility.yul\":1259:1262   */\n  dup3\n    /* \"#utility.yul\":1252:1267   */\n  mstore\n    /* \"#utility.yul\":1292:1294   */\n  dup3\n    /* \"#utility.yul\":1287:1290   */\n  dup3\n    /* \"#utility.yul\":1283:1295   */\n  add\n    /* \"#utility.yul\":1276:1295   */\n  swap2\n  pop\n    /* \"#utility.yul\":1327:1329   */\n  dup3\n    /* \"#utility.yul\":1319:1325   */\n  dup8\n    /* \"#utility.yul\":1315:1330   */\n  add\n    /* \"#utility.yul\":1379:1382   */\n  dup9\n    /* \"#utility.yul\":1374:1376   */\n  dup5\n    /* \"#utility.yul\":1368:1370   */\n  dup7\n    /* \"#utility.yul\":1365:1366   */\n  0x05\n    /* \"#utility.yul\":1361:1371   */\n  shl\n    /* \"#utility.yul\":1353:1359   */\n  dup11\n    /* \"#utility.yul\":1349:1372   */\n  add\n    /* \"#utility.yul\":1345:1377   */\n  add\n    /* \"#utility.yul\":1342:1383   */\n  gt\n    /* \"#utility.yul\":1339:1341   */\n  iszero\n  tag_97\n  jumpi\n    /* \"#utility.yul\":1400:1405   */\n  dup7\n    /* \"#utility.yul\":1393:1398   */\n  dup8\n    /* \"#utility.yul\":1386:1406   */\n  revert\n    /* \"#utility.yul\":1339:1341   */\ntag_97:\n    /* \"#utility.yul\":1426:1431   */\n  dup7\n    /* \"#utility.yul\":1440:2218   */\ntag_98:\n    /* \"#utility.yul\":1454:1456   */\n  dup6\n    /* \"#utility.yul\":1451:1452   */\n  dup2\n    /* \"#utility.yul\":1448:1457   */\n  lt\n    /* \"#utility.yul\":1440:2218   */\n  iszero\n  tag_100\n  jumpi\n    /* \"#utility.yul\":1518:1528   */\n  dup2\n  mload\n  sub(shl(0x40, 0x01), 0x01)\n    /* \"#utility.yul\":1585:1604   */\n  dup1\n  dup3\n  gt\n    /* \"#utility.yul\":1582:1584   */\n  iszero\n  tag_101\n  jumpi\n    /* \"#utility.yul\":1621:1626   */\n  dup10\n    /* \"#utility.yul\":1614:1619   */\n  dup11\n    /* \"#utility.yul\":1607:1627   */\n  revert\n    /* \"#utility.yul\":1582:1584   */\ntag_101:\n    /* \"#utility.yul\":1664:1675   */\n  dup2\n    /* \"#utility.yul\":1656:1662   */\n  dup12\n    /* \"#utility.yul\":1652:1676   */\n  add\n    /* \"#utility.yul\":1642:1676   */\n  swap2\n  pop\n    /* \"#utility.yul\":1716:1719   */\n  dup12\n    /* \"#utility.yul\":1711:1713   */\n  0x3f\n    /* \"#utility.yul\":1707:1709   */\n  dup4\n    /* \"#utility.yul\":1703:1714   */\n  add\n    /* \"#utility.yul\":1699:1720   */\n  slt\n    /* \"#utility.yul\":1689:1691   */\n  tag_102\n  jumpi\n    /* \"#utility.yul\":1738:1743   */\n  dup10\n    /* \"#utility.yul\":1731:1736   */\n  dup11\n    /* \"#utility.yul\":1724:1744   */\n  revert\n    /* \"#utility.yul\":1689:1691   */\ntag_102:\n    /* \"#utility.yul\":1783:1785   */\n  dup7\n    /* \"#utility.yul\":1779:1781   */\n  dup3\n    /* \"#utility.yul\":1775:1786   */\n  add\n    /* \"#utility.yul\":1769:1787   */\n  mload\n    /* \"#utility.yul\":1810:1812   */\n  0x40\n    /* \"#utility.yul\":1835:1837   */\n  dup3\n    /* \"#utility.yul\":1831:1833   */\n  dup3\n    /* \"#utility.yul\":1828:1838   */\n  gt\n    /* \"#utility.yul\":1825:1827   */\n  iszero\n  tag_104\n  jumpi\n    /* \"#utility.yul\":1841:1859   */\n  tag_104\n  tag_105\n  jump\t// in\ntag_104:\n    /* \"#utility.yul\":1889:1940   */\n  tag_106\n    /* \"#utility.yul\":1913:1924   */\n  dup3\n  dup13\n  add\n  not(0x1f)\n    /* \"#utility.yul\":1909:1934   */\n  and\n    /* \"#utility.yul\":1905:1939   */\n  dup11\n  add\n    /* \"#utility.yul\":1889:1940   */\n  tag_86\n  jump\t// in\ntag_106:\n    /* \"#utility.yul\":1874:1940   */\n  swap3\n  pop\n    /* \"#utility.yul\":1969:1971   */\n  dup2\n    /* \"#utility.yul\":1960:1967   */\n  dup4\n    /* \"#utility.yul\":1953:1972   */\n  mstore\n    /* \"#utility.yul\":2013:2016   */\n  dup14\n    /* \"#utility.yul\":2008:2010   */\n  dup2\n    /* \"#utility.yul\":2003:2005   */\n  dup4\n    /* \"#utility.yul\":1999:2001   */\n  dup7\n    /* \"#utility.yul\":1995:2006   */\n  add\n    /* \"#utility.yul\":1991:2011   */\n  add\n    /* \"#utility.yul\":1988:2017   */\n  gt\n    /* \"#utility.yul\":1985:1987   */\n  iszero\n  tag_107\n  jumpi\n    /* \"#utility.yul\":2034:2039   */\n  dup12\n    /* \"#utility.yul\":2027:2032   */\n  dup13\n    /* \"#utility.yul\":2020:2040   */\n  revert\n    /* \"#utility.yul\":1985:1987   */\ntag_107:\n    /* \"#utility.yul\":2055:2111   */\n  tag_108\n    /* \"#utility.yul\":2108:2110   */\n  dup3\n    /* \"#utility.yul\":2103:2105   */\n  dup11\n    /* \"#utility.yul\":2094:2101   */\n  dup6\n    /* \"#utility.yul\":2090:2106   */\n  add\n    /* \"#utility.yul\":2085:2087   */\n  dup4\n    /* \"#utility.yul\":2081:2083   */\n  dup8\n    /* \"#utility.yul\":2077:2088   */\n  add\n    /* \"#utility.yul\":2055:2111   */\n  tag_109\n  jump\t// in\ntag_108:\n  pop\n  pop\n    /* \"#utility.yul\":2124:2144   */\n  dup6\n  mstore\n  pop\n    /* \"#utility.yul\":2164:2176   */\n  swap3\n  dup5\n  add\n  swap3\n    /* \"#utility.yul\":2196:2208   */\n  swap1\n  dup5\n  add\n  swap1\n    /* \"#utility.yul\":1472:1473   */\n  0x01\n    /* \"#utility.yul\":1465:1474   */\n  add\n    /* \"#utility.yul\":1440:2218   */\n  jump(tag_98)\ntag_100:\n  pop\n    /* \"#utility.yul\":2236:2241   */\n  swap1\n  swap9\n    /* \"#utility.yul\":989:2247   */\n  swap8\n  pop\n  pop\n  pop\n  pop\n  pop\n  pop\n  pop\n  pop\n  jump\t// out\n    /* \"#utility.yul\":2252:3567   */\ntag_3:\n    /* \"#utility.yul\":2487:2493   */\n  0x00\n    /* \"#utility.yul\":2495:2501   */\n  dup1\n    /* \"#utility.yul\":2503:2509   */\n  0x00\n    /* \"#utility.yul\":2511:2517   */\n  dup1\n    /* \"#utility.yul\":2519:2525   */\n  0x00\n    /* \"#utility.yul\":2527:2533   */\n  dup1\n    /* \"#utility.yul\":2580:2583   */\n  0xc0\n    /* \"#utility.yul\":2568:2577   */\n  dup8\n    /* \"#utility.yul\":2559:2566   */\n  dup10\n    /* \"#utility.yul\":2555:2578   */\n  sub\n    /* \"#utility.yul\":2551:2584   */\n  slt\n    /* \"#utility.yul\":2548:2550   */\n  iszero\n  tag_111\n  jumpi\n    /* \"#utility.yul\":2602:2608   */\n  dup2\n    /* \"#utility.yul\":2594:2600   */\n  dup3\n    /* \"#utility.yul\":2587:2609   */\n  revert\n    /* \"#utility.yul\":2548:2550   */\ntag_111:\n    /* \"#utility.yul\":2630:2670   */\n  tag_112\n    /* \"#utility.yul\":2660:2669   */\n  dup8\n    /* \"#utility.yul\":2630:2670   */\n  tag_77\n  jump\t// in\ntag_112:\n    /* \"#utility.yul\":2620:2670   */\n  swap6\n  pop\n    /* \"#utility.yul\":2689:2738   */\n  tag_113\n    /* \"#utility.yul\":2734:2736   */\n  0x20\n    /* \"#utility.yul\":2723:2732   */\n  dup9\n    /* \"#utility.yul\":2719:2737   */\n  add\n    /* \"#utility.yul\":2689:2738   */\n  tag_77\n  jump\t// in\ntag_113:\n    /* \"#utility.yul\":2782:2784   */\n  0x40\n    /* \"#utility.yul\":2767:2785   */\n  dup9\n  add\n    /* \"#utility.yul\":2761:2786   */\n  mload\n    /* \"#utility.yul\":2679:2738   */\n  swap1\n  swap6\n  pop\n  sub(shl(0x40, 0x01), 0x01)\n    /* \"#utility.yul\":2835:2849   */\n  dup1\n  dup3\n  gt\n    /* \"#utility.yul\":2832:2834   */\n  iszero\n  tag_114\n  jumpi\n    /* \"#utility.yul\":2867:2873   */\n  dup4\n    /* \"#utility.yul\":2859:2865   */\n  dup5\n    /* \"#utility.yul\":2852:2874   */\n  revert\n    /* \"#utility.yul\":2832:2834   */\ntag_114:\n    /* \"#utility.yul\":2895:2966   */\n  tag_115\n    /* \"#utility.yul\":2958:2965   */\n  dup11\n    /* \"#utility.yul\":2949:2955   */\n  dup4\n    /* \"#utility.yul\":2938:2947   */\n  dup12\n    /* \"#utility.yul\":2934:2956   */\n  add\n    /* \"#utility.yul\":2895:2966   */\n  tag_92\n  jump\t// in\ntag_115:\n    /* \"#utility.yul\":2885:2966   */\n  swap6\n  pop\n    /* \"#utility.yul\":3012:3014   */\n  0x60\n    /* \"#utility.yul\":3001:3010   */\n  dup10\n    /* \"#utility.yul\":2997:3015   */\n  add\n    /* \"#utility.yul\":2991:3016   */\n  mload\n    /* \"#utility.yul\":2975:3016   */\n  swap2\n  pop\n    /* \"#utility.yul\":3041:3043   */\n  dup1\n    /* \"#utility.yul\":3031:3039   */\n  dup3\n    /* \"#utility.yul\":3028:3044   */\n  gt\n    /* \"#utility.yul\":3025:3027   */\n  iszero\n  tag_116\n  jumpi\n    /* \"#utility.yul\":3062:3068   */\n  dup4\n    /* \"#utility.yul\":3054:3060   */\n  dup5\n    /* \"#utility.yul\":3047:3069   */\n  revert\n    /* \"#utility.yul\":3025:3027   */\ntag_116:\n    /* \"#utility.yul\":3090:3164   */\n  tag_117\n    /* \"#utility.yul\":3156:3163   */\n  dup11\n    /* \"#utility.yul\":3145:3153   */\n  dup4\n    /* \"#utility.yul\":3134:3143   */\n  dup12\n    /* \"#utility.yul\":3130:3154   */\n  add\n    /* \"#utility.yul\":3090:3164   */\n  tag_80\n  jump\t// in\ntag_117:\n    /* \"#utility.yul\":3080:3164   */\n  swap5\n  pop\n    /* \"#utility.yul\":3210:3213   */\n  0x80\n    /* \"#utility.yul\":3199:3208   */\n  dup10\n    /* \"#utility.yul\":3195:3214   */\n  add\n    /* \"#utility.yul\":3189:3215   */\n  mload\n    /* \"#utility.yul\":3173:3215   */\n  swap2\n  pop\n    /* \"#utility.yul\":3240:3242   */\n  dup1\n    /* \"#utility.yul\":3230:3238   */\n  dup3\n    /* \"#utility.yul\":3227:3243   */\n  gt\n    /* \"#utility.yul\":3224:3226   */\n  iszero\n  tag_118\n  jumpi\n    /* \"#utility.yul\":3261:3267   */\n  dup4\n    /* \"#utility.yul\":3253:3259   */\n  dup5\n    /* \"#utility.yul\":3246:3268   */\n  revert\n    /* \"#utility.yul\":3224:3226   */\ntag_118:\n    /* \"#utility.yul\":3289:3363   */\n  tag_119\n    /* \"#utility.yul\":3355:3362   */\n  dup11\n    /* \"#utility.yul\":3344:3352   */\n  dup4\n    /* \"#utility.yul\":3333:3342   */\n  dup12\n    /* \"#utility.yul\":3329:3353   */\n  add\n    /* \"#utility.yul\":3289:3363   */\n  tag_80\n  jump\t// in\ntag_119:\n    /* \"#utility.yul\":3279:3363   */\n  swap4\n  pop\n    /* \"#utility.yul\":3409:3412   */\n  0xa0\n    /* \"#utility.yul\":3398:3407   */\n  dup10\n    /* \"#utility.yul\":3394:3413   */\n  add\n    /* \"#utility.yul\":3388:3414   */\n  mload\n    /* \"#utility.yul\":3372:3414   */\n  swap2\n  pop\n    /* \"#utility.yul\":3439:3441   */\n  dup1\n    /* \"#utility.yul\":3429:3437   */\n  dup3\n    /* \"#utility.yul\":3426:3442   */\n  gt\n    /* \"#utility.yul\":3423:3425   */\n  iszero\n  tag_120\n  jumpi\n    /* \"#utility.yul\":3460:3466   */\n  dup3\n    /* \"#utility.yul\":3452:3458   */\n  dup4\n    /* \"#utility.yul\":3445:3467   */\n  revert\n    /* \"#utility.yul\":3423:3425   */\ntag_120:\n  pop\n    /* \"#utility.yul\":3488:3561   */\n  tag_121\n    /* \"#utility.yul\":3553:3560   */\n  dup10\n    /* \"#utility.yul\":3542:3550   */\n  dup3\n    /* \"#utility.yul\":3531:3540   */\n  dup11\n    /* \"#utility.yul\":3527:3551   */\n  add\n    /* \"#utility.yul\":3488:3561   */\n  tag_92\n  jump\t// in\ntag_121:\n    /* \"#utility.yul\":3478:3561   */\n  swap2\n  pop\n  pop\n    /* \"#utility.yul\":2538:3567   */\n  swap3\n  swap6\n  pop\n  swap3\n  swap6\n  pop\n  swap3\n  swap6\n  jump\t// out\n    /* \"#utility.yul\":3572:3766   */\ntag_51:\n    /* \"#utility.yul\":3642:3648   */\n  0x00\n    /* \"#utility.yul\":3695:3697   */\n  0x20\n    /* \"#utility.yul\":3683:3692   */\n  dup3\n    /* \"#utility.yul\":3674:3681   */\n  dup5\n    /* \"#utility.yul\":3670:3693   */\n  sub\n    /* \"#utility.yul\":3666:3698   */\n  slt\n    /* \"#utility.yul\":3663:3665   */\n  iszero\n  tag_123\n  jumpi\n    /* \"#utility.yul\":3716:3722   */\n  dup1\n    /* \"#utility.yul\":3708:3714   */\n  dup2\n    /* \"#utility.yul\":3701:3723   */\n  revert\n    /* \"#utility.yul\":3663:3665   */\ntag_123:\n  pop\n    /* \"#utility.yul\":3744:3760   */\n  mload\n  swap2\n    /* \"#utility.yul\":3653:3766   */\n  swap1\n  pop\n  jump\t// out\n    /* \"#utility.yul\":3771:4162   */\ntag_46:\n    /* \"#utility.yul\":3928:3930   */\n  0x20\n    /* \"#utility.yul\":3917:3926   */\n  dup2\n    /* \"#utility.yul\":3910:3931   */\n  mstore\n    /* \"#utility.yul\":3891:3895   */\n  0x00\n    /* \"#utility.yul\":3960:3966   */\n  dup3\n    /* \"#utility.yul\":3954:3967   */\n  mload\n    /* \"#utility.yul\":4003:4009   */\n  dup1\n    /* \"#utility.yul\":3998:4000   */\n  0x20\n    /* \"#utility.yul\":3987:3996   */\n  dup5\n    /* \"#utility.yul\":3983:4001   */\n  add\n    /* \"#utility.yul\":3976:4010   */\n  mstore\n    /* \"#utility.yul\":4019:4085   */\n  tag_125\n    /* \"#utility.yul\":4078:4084   */\n  dup2\n    /* \"#utility.yul\":4073:4075   */\n  0x40\n    /* \"#utility.yul\":4062:4071   */\n  dup6\n    /* \"#utility.yul\":4058:4076   */\n  add\n    /* \"#utility.yul\":4053:4055   */\n  0x20\n    /* \"#utility.yul\":4045:4051   */\n  dup8\n    /* \"#utility.yul\":4041:4056   */\n  add\n    /* \"#utility.yul\":4019:4085   */\n  tag_109\n  jump\t// in\ntag_125:\n    /* \"#utility.yul\":4146:4148   */\n  0x1f\n    /* \"#utility.yul\":4125:4140   */\n  add\n  not(0x1f)\n    /* \"#utility.yul\":4121:4150   */\n  and\n    /* \"#utility.yul\":4106:4151   */\n  swap2\n  swap1\n  swap2\n  add\n    /* \"#utility.yul\":4153:4155   */\n  0x40\n    /* \"#utility.yul\":4102:4156   */\n  add\n  swap3\n    /* \"#utility.yul\":3900:4162   */\n  swap2\n  pop\n  pop\n  jump\t// out\n    /* \"#utility.yul\":6415:6690   */\ntag_86:\n    /* \"#utility.yul\":6486:6488   */\n  0x40\n    /* \"#utility.yul\":6480:6489   */\n  mload\n    /* \"#utility.yul\":6551:6553   */\n  0x1f\n    /* \"#utility.yul\":6532:6545   */\n  dup3\n  add\n  not(0x1f)\n    /* \"#utility.yul\":6528:6555   */\n  and\n    /* \"#utility.yul\":6516:6556   */\n  dup2\n  add\n  sub(shl(0x40, 0x01), 0x01)\n    /* \"#utility.yul\":6571:6605   */\n  dup2\n  gt\n    /* \"#utility.yul\":6607:6629   */\n  dup3\n  dup3\n  lt\n    /* \"#utility.yul\":6568:6630   */\n  or\n    /* \"#utility.yul\":6565:6567   */\n  iszero\n  tag_134\n  jumpi\n    /* \"#utility.yul\":6633:6651   */\n  tag_134\n  tag_105\n  jump\t// in\ntag_134:\n    /* \"#utility.yul\":6669:6671   */\n  0x40\n    /* \"#utility.yul\":6662:6684   */\n  mstore\n    /* \"#utility.yul\":6460:6690   */\n  swap2\n  swap1\n  pop\n  jump\t// out\n    /* \"#utility.yul\":6695:6878   */\ntag_85:\n    /* \"#utility.yul\":6755:6759   */\n  0x00\n  sub(shl(0x40, 0x01), 0x01)\n    /* \"#utility.yul\":6777:6807   */\n  dup3\n  gt\n    /* \"#utility.yul\":6774:6776   */\n  iszero\n  tag_137\n  jumpi\n    /* \"#utility.yul\":6810:6828   */\n  tag_137\n  tag_105\n  jump\t// in\ntag_137:\n  pop\n    /* \"#utility.yul\":6855:6856   */\n  0x05\n    /* \"#utility.yul\":6851:6865   */\n  shl\n    /* \"#utility.yul\":6867:6871   */\n  0x20\n    /* \"#utility.yul\":6847:6872   */\n  add\n  swap1\n    /* \"#utility.yul\":6764:6878   */\n  jump\t// out\n    /* \"#utility.yul\":6883:7141   */\ntag_109:\n    /* \"#utility.yul\":6955:6956   */\n  0x00\n    /* \"#utility.yul\":6965:7078   */\ntag_139:\n    /* \"#utility.yul\":6979:6985   */\n  dup4\n    /* \"#utility.yul\":6976:6977   */\n  dup2\n    /* \"#utility.yul\":6973:6986   */\n  lt\n    /* \"#utility.yul\":6965:7078   */\n  iszero\n  tag_141\n  jumpi\n    /* \"#utility.yul\":7055:7066   */\n  dup2\n  dup2\n  add\n    /* \"#utility.yul\":7049:7067   */\n  mload\n    /* \"#utility.yul\":7036:7047   */\n  dup4\n  dup3\n  add\n    /* \"#utility.yul\":7029:7068   */\n  mstore\n    /* \"#utility.yul\":7001:7003   */\n  0x20\n    /* \"#utility.yul\":6994:7004   */\n  add\n    /* \"#utility.yul\":6965:7078   */\n  jump(tag_139)\ntag_141:\n    /* \"#utility.yul\":7096:7102   */\n  dup4\n    /* \"#utility.yul\":7093:7094   */\n  dup2\n    /* \"#utility.yul\":7090:7103   */\n  gt\n    /* \"#utility.yul\":7087:7089   */\n  iszero\n  tag_142\n  jumpi\n    /* \"#utility.yul\":7131:7132   */\n  0x00\n    /* \"#utility.yul\":7122:7128   */\n  dup5\n    /* \"#utility.yul\":7117:7120   */\n  dup5\n    /* \"#utility.yul\":7113:7129   */\n  add\n    /* \"#utility.yul\":7106:7133   */\n  mstore\n    /* \"#utility.yul\":7087:7089   */\ntag_142:\n  pop\n    /* \"#utility.yul\":6936:7141   */\n  pop\n  pop\n  pop\n  jump\t// out\n    /* \"#utility.yul\":7146:7382   */\ntag_28:\n    /* \"#utility.yul\":7185:7188   */\n  0x00\n  not(0x00)\n    /* \"#utility.yul\":7206:7223   */\n  dup3\n  eq\n    /* \"#utility.yul\":7203:7205   */\n  iszero\n  tag_144\n  jumpi\n  shl(0xe0, 0x4e487b71)\n    /* \"#utility.yul\":7246:7279   */\n  dup2\n  mstore\n    /* \"#utility.yul\":7302:7306   */\n  0x11\n    /* \"#utility.yul\":7299:7300   */\n  0x04\n    /* \"#utility.yul\":7292:7307   */\n  mstore\n    /* \"#utility.yul\":7332:7336   */\n  0x24\n    /* \"#utility.yul\":7253:7256   */\n  dup2\n    /* \"#utility.yul\":7320:7337   */\n  revert\n    /* \"#utility.yul\":7203:7205   */\ntag_144:\n  pop\n    /* \"#utility.yul\":7374:7375   */\n  0x01\n    /* \"#utility.yul\":7363:7376   */\n  add\n  swap1\n    /* \"#utility.yul\":7193:7382   */\n  jump\t// out\n    /* \"#utility.yul\":7387:7514   */\ntag_105:\n    /* \"#utility.yul\":7448:7458   */\n  0x4e487b71\n    /* \"#utility.yul\":7443:7446   */\n  0xe0\n    /* \"#utility.yul\":7439:7459   */\n  shl\n    /* \"#utility.yul\":7436:7437   */\n  0x00\n    /* \"#utility.yul\":7429:7460   */\n  mstore\n    /* \"#utility.yul\":7479:7483   */\n  0x41\n    /* \"#utility.yul\":7476:7477   */\n  0x04\n    /* \"#utility.yul\":7469:7484   */\n  mstore\n    /* \"#utility.yul\":7503:7507   */\n  0x24\n    /* \"#utility.yul\":7500:7501   */\n  0x00\n    /* \"#utility.yul\":7493:7508   */\n  revert\n    /* \"#utility.yul\":7419:7514   */\ntag_76:\n    /* \"contracts/PermittedNFTsAndTypeRegistry.sol\":416:10182  contract PermittedNFTsAndTypeRegistry is Ownable, IPermittedNFTs {... */\n  dataSize(sub_0)\n  dup1\n  dataOffset(sub_0)\n  0x00\n  codecopy\n  0x00\n  return\nstop\n\nsub_0: assembly {\n        /* \"contracts/PermittedNFTsAndTypeRegistry.sol\":416:10182  contract PermittedNFTsAndTypeRegistry is Ownable, IPermittedNFTs {... */\n      mstore(0x40, 0x80)\n      callvalue\n      dup1\n      iszero\n      tag_1\n      jumpi\n      0x00\n      dup1\n      revert\n    tag_1:\n      pop\n      jumpi(tag_2, lt(calldatasize, 0x04))\n      shr(0xe0, calldataload(0x00))\n      dup1\n      0x95244b94\n      gt\n      tag_13\n      jumpi\n      dup1\n      0x95244b94\n      eq\n      tag_8\n      jumpi\n      dup1\n      0xb8c8aff8\n      eq\n      tag_9\n      jumpi\n      dup1\n      0xc88641a2\n      eq\n      tag_10\n      jumpi\n      dup1\n      0xd8e4e93e\n      eq\n      tag_11\n      jumpi\n      dup1\n      0xf2fde38b\n      eq\n      tag_12\n      jumpi\n      0x00\n      dup1\n      revert\n    tag_13:\n      dup1\n      0x0a21cc43\n      eq\n      tag_3\n      jumpi\n      dup1\n      0x1a3dd0a5\n      eq\n      tag_4\n      jumpi\n      dup1\n      0x365a86fc\n      eq\n      tag_5\n      jumpi\n      dup1\n      0x6651f11d\n      eq\n      tag_6\n      jumpi\n      dup1\n      0x8da5cb5b\n      eq\n      tag_7\n      jumpi\n    tag_2:\n      0x00\n      dup1\n      revert\n        /* \"contracts/PermittedNFTsAndTypeRegistry.sol\":6369:6521  function setNftTypes(string[] memory _nftTypes, address[] memory _nftWrappers) external onlyOwner {... */\n    tag_3:\n      tag_14\n      tag_15\n      calldatasize\n      0x04\n      tag_16\n      jump\t// in\n    tag_15:\n      tag_17\n      jump\t// in\n    tag_14:\n      stop\n        /* \"contracts/PermittedNFTsAndTypeRegistry.sol\":6754:6871  function getNftTypeWrapper(bytes32 _nftType) public view returns (address) {... */\n    tag_4:\n      tag_18\n      tag_19\n      calldatasize\n      0x04\n      tag_20\n      jump\t// in\n    tag_19:\n      tag_21\n      jump\t// in\n    tag_18:\n      mload(0x40)\n      sub(shl(0xa0, 0x01), 0x01)\n        /* \"#utility.yul\":5533:5565   */\n      swap1\n      swap2\n      and\n        /* \"#utility.yul\":5515:5566   */\n      dup2\n      mstore\n        /* \"#utility.yul\":5503:5505   */\n      0x20\n        /* \"#utility.yul\":5488:5506   */\n      add\n        /* \"contracts/PermittedNFTsAndTypeRegistry.sol\":6754:6871  function getNftTypeWrapper(bytes32 _nftType) public view returns (address) {... */\n    tag_22:\n      mload(0x40)\n      dup1\n      swap2\n      sub\n      swap1\n      return\n        /* \"contracts/PermittedNFTsAndTypeRegistry.sol\":487:507  INftfiHub public hub */\n    tag_5:\n      sload(0x01)\n      tag_18\n      swap1\n      sub(shl(0xa0, 0x01), 0x01)\n      and\n      dup2\n      jump\n        /* \"contracts/PermittedNFTsAndTypeRegistry.sol\":4918:5051  function getNFTPermit(address _nftContract) external view override returns (bytes32) {... */\n    tag_6:\n      tag_28\n      tag_29\n      calldatasize\n      0x04\n      tag_30\n      jump\t// in\n    tag_29:\n      sub(shl(0xa0, 0x01), 0x01)\n        /* \"contracts/PermittedNFTsAndTypeRegistry.sol\":5020:5044  nftPermits[_nftContract] */\n      and\n        /* \"contracts/PermittedNFTsAndTypeRegistry.sol\":4994:5001  bytes32 */\n      0x00\n        /* \"contracts/PermittedNFTsAndTypeRegistry.sol\":5020:5044  nftPermits[_nftContract] */\n      swap1\n      dup2\n      mstore\n        /* \"contracts/PermittedNFTsAndTypeRegistry.sol\":5020:5030  nftPermits */\n      0x03\n        /* \"contracts/PermittedNFTsAndTypeRegistry.sol\":5020:5044  nftPermits[_nftContract] */\n      0x20\n      mstore\n      0x40\n      swap1\n      keccak256\n      sload\n      swap1\n        /* \"contracts/PermittedNFTsAndTypeRegistry.sol\":4918:5051  function getNFTPermit(address _nftContract) external view override returns (bytes32) {... */\n      jump\n    tag_28:\n      mload(0x40)\n        /* \"#utility.yul\":5723:5748   */\n      swap1\n      dup2\n      mstore\n        /* \"#utility.yul\":5711:5713   */\n      0x20\n        /* \"#utility.yul\":5696:5714   */\n      add\n        /* \"contracts/PermittedNFTsAndTypeRegistry.sol\":4918:5051  function getNFTPermit(address _nftContract) external view override returns (bytes32) {... */\n      tag_22\n        /* \"#utility.yul\":5678:5754   */\n      jump\n        /* \"contracts/utils/Ownable.sol\":1712:1797  function owner() public view virtual returns (address) {... */\n    tag_7:\n      tag_18\n      tag_35\n      jump\t// in\n        /* \"contracts/PermittedNFTsAndTypeRegistry.sol\":4423:4581  function setNFTPermits(address[] memory _nftContracts, string[] memory _nftTypes) external onlyOwner {... */\n    tag_8:\n      tag_14\n      tag_38\n      calldatasize\n      0x04\n      tag_39\n      jump\t// in\n    tag_38:\n      tag_40\n      jump\t// in\n        /* \"contracts/PermittedNFTsAndTypeRegistry.sol\":5274:5462  function getNFTWrapper(address _nftContract) external view override returns (address) {... */\n    tag_9:\n      tag_18\n      tag_42\n      calldatasize\n      0x04\n      tag_30\n      jump\t// in\n    tag_42:\n      tag_43\n      jump\t// in\n        /* \"contracts/PermittedNFTsAndTypeRegistry.sol\":3710:3914  function setNFTPermit(address _nftContract, string memory _nftType)... */\n    tag_10:\n      tag_14\n      tag_46\n      calldatasize\n      0x04\n      tag_47\n      jump\t// in\n    tag_46:\n      tag_48\n      jump\t// in\n        /* \"contracts/PermittedNFTsAndTypeRegistry.sol\":5837:5972  function setNftType(string memory _nftType, address _nftWrapper) external onlyOwner {... */\n    tag_11:\n      tag_14\n      tag_50\n      calldatasize\n      0x04\n      tag_51\n      jump\t// in\n    tag_50:\n      tag_52\n      jump\t// in\n        /* \"contracts/utils/Ownable.sol\":1444:1636  function transferOwnership(address _newOwner) public virtual onlyOwner {... */\n    tag_12:\n      tag_14\n      tag_54\n      calldatasize\n      0x04\n      tag_30\n      jump\t// in\n    tag_54:\n      tag_55\n      jump\t// in\n        /* \"contracts/PermittedNFTsAndTypeRegistry.sol\":6369:6521  function setNftTypes(string[] memory _nftTypes, address[] memory _nftWrappers) external onlyOwner {... */\n    tag_17:\n        /* \"@openzeppelin/contracts/utils/Context.sol\":719:729  msg.sender */\n      caller\n        /* \"contracts/utils/Ownable.sol\":1039:1046  owner() */\n      tag_59\n        /* \"contracts/utils/Ownable.sol\":1039:1044  owner */\n      tag_35\n        /* \"contracts/utils/Ownable.sol\":1039:1046  owner() */\n      jump\t// in\n    tag_59:\n      sub(shl(0xa0, 0x01), 0x01)\n        /* \"contracts/utils/Ownable.sol\":1039:1062  owner() == _msgSender() */\n      and\n      eq\n        /* \"contracts/utils/Ownable.sol\":1031:1099  require(owner() == _msgSender(), \"Ownable: caller is not the owner\") */\n      tag_60\n      jumpi\n      mload(0x40)\n      shl(0xe5, 0x461bcd)\n      dup2\n      mstore\n      0x04\n      add\n      tag_61\n      swap1\n      tag_62\n      jump\t// in\n    tag_61:\n      mload(0x40)\n      dup1\n      swap2\n      sub\n      swap1\n      revert\n    tag_60:\n        /* \"contracts/PermittedNFTsAndTypeRegistry.sol\":6477:6514  _setNftTypes(_nftTypes, _nftWrappers) */\n      tag_64\n        /* \"contracts/PermittedNFTsAndTypeRegistry.sol\":6490:6499  _nftTypes */\n      dup3\n        /* \"contracts/PermittedNFTsAndTypeRegistry.sol\":6501:6513  _nftWrappers */\n      dup3\n        /* \"contracts/PermittedNFTsAndTypeRegistry.sol\":6477:6489  _setNftTypes */\n      tag_65\n        /* \"contracts/PermittedNFTsAndTypeRegistry.sol\":6477:6514  _setNftTypes(_nftTypes, _nftWrappers) */\n      jump\t// in\n    tag_64:\n        /* \"contracts/PermittedNFTsAndTypeRegistry.sol\":6369:6521  function setNftTypes(string[] memory _nftTypes, address[] memory _nftWrappers) external onlyOwner {... */\n      pop\n      pop\n      jump\t// out\n        /* \"contracts/PermittedNFTsAndTypeRegistry.sol\":6754:6871  function getNftTypeWrapper(bytes32 _nftType) public view returns (address) {... */\n    tag_21:\n        /* \"contracts/PermittedNFTsAndTypeRegistry.sol\":6820:6827  address */\n      0x00\n        /* \"contracts/PermittedNFTsAndTypeRegistry.sol\":6846:6864  nftTypes[_nftType] */\n      swap1\n      dup2\n      mstore\n        /* \"contracts/PermittedNFTsAndTypeRegistry.sol\":6846:6854  nftTypes */\n      0x02\n        /* \"contracts/PermittedNFTsAndTypeRegistry.sol\":6846:6864  nftTypes[_nftType] */\n      0x20\n      mstore\n      0x40\n      swap1\n      keccak256\n      sload\n      sub(shl(0xa0, 0x01), 0x01)\n      and\n      swap1\n        /* \"contracts/PermittedNFTsAndTypeRegistry.sol\":6754:6871  function getNftTypeWrapper(bytes32 _nftType) public view returns (address) {... */\n      jump\t// out\n        /* \"contracts/utils/Ownable.sol\":1712:1797  function owner() public view virtual returns (address) {... */\n    tag_35:\n        /* \"contracts/utils/Ownable.sol\":1758:1765  address */\n      0x00\n        /* \"contracts/utils/Ownable.sol\":1784:1790  _owner */\n      sload\n      sub(shl(0xa0, 0x01), 0x01)\n      and\n      swap1\n        /* \"contracts/utils/Ownable.sol\":1712:1797  function owner() public view virtual returns (address) {... */\n      jump\t// out\n        /* \"contracts/PermittedNFTsAndTypeRegistry.sol\":4423:4581  function setNFTPermits(address[] memory _nftContracts, string[] memory _nftTypes) external onlyOwner {... */\n    tag_40:\n        /* \"@openzeppelin/contracts/utils/Context.sol\":719:729  msg.sender */\n      caller\n        /* \"contracts/utils/Ownable.sol\":1039:1046  owner() */\n      tag_71\n        /* \"contracts/utils/Ownable.sol\":1039:1044  owner */\n      tag_35\n        /* \"contracts/utils/Ownable.sol\":1039:1046  owner() */\n      jump\t// in\n    tag_71:\n      sub(shl(0xa0, 0x01), 0x01)\n        /* \"contracts/utils/Ownable.sol\":1039:1062  owner() == _msgSender() */\n      and\n      eq\n        /* \"contracts/utils/Ownable.sol\":1031:1099  require(owner() == _msgSender(), \"Ownable: caller is not the owner\") */\n      tag_72\n      jumpi\n      mload(0x40)\n      shl(0xe5, 0x461bcd)\n      dup2\n      mstore\n      0x04\n      add\n      tag_61\n      swap1\n      tag_62\n      jump\t// in\n    tag_72:\n        /* \"contracts/PermittedNFTsAndTypeRegistry.sol\":4534:4574  _setNFTPermits(_nftContracts, _nftTypes) */\n      tag_64\n        /* \"contracts/PermittedNFTsAndTypeRegistry.sol\":4549:4562  _nftContracts */\n      dup3\n        /* \"contracts/PermittedNFTsAndTypeRegistry.sol\":4564:4573  _nftTypes */\n      dup3\n        /* \"contracts/PermittedNFTsAndTypeRegistry.sol\":4534:4548  _setNFTPermits */\n      tag_76\n        /* \"contracts/PermittedNFTsAndTypeRegistry.sol\":4534:4574  _setNFTPermits(_nftContracts, _nftTypes) */\n      jump\t// in\n        /* \"contracts/PermittedNFTsAndTypeRegistry.sol\":5274:5462  function getNFTWrapper(address _nftContract) external view override returns (address) {... */\n    tag_43:\n      sub(shl(0xa0, 0x01), 0x01)\n        /* \"contracts/PermittedNFTsAndTypeRegistry.sol\":5388:5412  nftPermits[_nftContract] */\n      dup2\n      and\n        /* \"contracts/PermittedNFTsAndTypeRegistry.sol\":5351:5358  address */\n      0x00\n        /* \"contracts/PermittedNFTsAndTypeRegistry.sol\":5388:5412  nftPermits[_nftContract] */\n      swap1\n      dup2\n      mstore\n        /* \"contracts/PermittedNFTsAndTypeRegistry.sol\":5388:5398  nftPermits */\n      0x03\n        /* \"contracts/PermittedNFTsAndTypeRegistry.sol\":5388:5412  nftPermits[_nftContract] */\n      0x20\n      mstore\n      0x40\n      dup2\n      keccak256\n      sload\n        /* \"contracts/PermittedNFTsAndTypeRegistry.sol\":5429:5455  getNftTypeWrapper(nftType) */\n      tag_78\n        /* \"contracts/PermittedNFTsAndTypeRegistry.sol\":5388:5412  nftPermits[_nftContract] */\n      dup2\n        /* \"contracts/PermittedNFTsAndTypeRegistry.sol\":5429:5446  getNftTypeWrapper */\n      tag_21\n        /* \"contracts/PermittedNFTsAndTypeRegistry.sol\":5429:5455  getNftTypeWrapper(nftType) */\n      jump\t// in\n    tag_78:\n        /* \"contracts/PermittedNFTsAndTypeRegistry.sol\":5422:5455  return getNftTypeWrapper(nftType) */\n      swap4\n        /* \"contracts/PermittedNFTsAndTypeRegistry.sol\":5274:5462  function getNFTWrapper(address _nftContract) external view override returns (address) {... */\n      swap3\n      pop\n      pop\n      pop\n      jump\t// out\n        /* \"contracts/PermittedNFTsAndTypeRegistry.sol\":3710:3914  function setNFTPermit(address _nftContract, string memory _nftType)... */\n    tag_48:\n        /* \"contracts/PermittedNFTsAndTypeRegistry.sol\":1747:1782  ContractKeys.AIRDROP_WRAPPER_STRING */\n      0x40\n      dup1\n      mload\n      dup1\n      dup3\n      add\n      dup3\n      mstore\n      0x0e\n      dup2\n      mstore\n      shl(0x91, 0x20b4b9323937b82bb930b83832b9)\n      0x20\n      dup3\n      add\n      mstore\n        /* \"contracts/PermittedNFTsAndTypeRegistry.sol\":1715:1783  ContractKeys.getIdFromStringKey(ContractKeys.AIRDROP_WRAPPER_STRING) */\n      swap1\n      mload\n      shl(0xe0, 0xf99a8ffb)\n      dup2\n      mstore\n        /* \"contracts/PermittedNFTsAndTypeRegistry.sol\":3846:3854  _nftType */\n      dup3\n      swap2\n        /* \"contracts/PermittedNFTsAndTypeRegistry.sol\":1715:1727  ContractKeys */\n      linkerSymbol(\"d7e2e0a2db402280e6c36233d590dce656503db794e250e1a52bcde9e8c0eea1\")\n      swap2\n        /* \"contracts/PermittedNFTsAndTypeRegistry.sol\":1715:1746  ContractKeys.getIdFromStringKey */\n      0xf99a8ffb\n      swap2\n        /* \"contracts/PermittedNFTsAndTypeRegistry.sol\":1715:1783  ContractKeys.getIdFromStringKey(ContractKeys.AIRDROP_WRAPPER_STRING) */\n      tag_80\n      swap2\n      0x04\n      add\n      tag_81\n      jump\t// in\n    tag_80:\n      0x20\n      mload(0x40)\n      dup1\n      dup4\n      sub\n      dup2\n      dup7\n      dup1\n      extcodesize\n      iszero\n      dup1\n      iszero\n      tag_82\n      jumpi\n      0x00\n      dup1\n      revert\n    tag_82:\n      pop\n      gas\n      delegatecall\n      iszero\n      dup1\n      iszero\n      tag_84\n      jumpi\n      returndatasize\n      0x00\n      dup1\n      returndatacopy\n      revert(0x00, returndatasize)\n    tag_84:\n      pop\n      pop\n      pop\n      pop\n      mload(0x40)\n      returndatasize\n      not(0x1f)\n      0x1f\n      dup3\n      add\n      and\n      dup3\n      add\n      dup1\n      0x40\n      mstore\n      pop\n      dup2\n      add\n      swap1\n      tag_85\n      swap2\n      swap1\n      tag_86\n      jump\t// in\n    tag_85:\n        /* \"contracts/PermittedNFTsAndTypeRegistry.sol\":1658:1699  ContractKeys.getIdFromStringKey(_nftType) */\n      mload(0x40)\n      shl(0xe0, 0xf99a8ffb)\n      dup2\n      mstore\n        /* \"contracts/PermittedNFTsAndTypeRegistry.sol\":1658:1670  ContractKeys */\n      linkerSymbol(\"d7e2e0a2db402280e6c36233d590dce656503db794e250e1a52bcde9e8c0eea1\")\n      swap1\n        /* \"contracts/PermittedNFTsAndTypeRegistry.sol\":1658:1689  ContractKeys.getIdFromStringKey */\n      0xf99a8ffb\n      swap1\n        /* \"contracts/PermittedNFTsAndTypeRegistry.sol\":1658:1699  ContractKeys.getIdFromStringKey(_nftType) */\n      tag_87\n      swap1\n        /* \"contracts/PermittedNFTsAndTypeRegistry.sol\":1690:1698  _nftType */\n      dup6\n      swap1\n        /* \"contracts/PermittedNFTsAndTypeRegistry.sol\":1658:1699  ContractKeys.getIdFromStringKey(_nftType) */\n      0x04\n      add\n      tag_81\n      jump\t// in\n    tag_87:\n      0x20\n      mload(0x40)\n      dup1\n      dup4\n      sub\n      dup2\n      dup7\n      dup1\n      extcodesize\n      iszero\n      dup1\n      iszero\n      tag_88\n      jumpi\n      0x00\n      dup1\n      revert\n    tag_88:\n      pop\n      gas\n      delegatecall\n      iszero\n      dup1\n      iszero\n      tag_90\n      jumpi\n      returndatasize\n      0x00\n      dup1\n      returndatacopy\n      revert(0x00, returndatasize)\n    tag_90:\n      pop\n      pop\n      pop\n      pop\n      mload(0x40)\n      returndatasize\n      not(0x1f)\n      0x1f\n      dup3\n      add\n      and\n      dup3\n      add\n      dup1\n      0x40\n      mstore\n      pop\n      dup2\n      add\n      swap1\n      tag_91\n      swap2\n      swap1\n      tag_86\n      jump\t// in\n    tag_91:\n        /* \"contracts/PermittedNFTsAndTypeRegistry.sol\":1658:1783  ContractKeys.getIdFromStringKey(_nftType) ==... */\n      eq\n        /* \"contracts/PermittedNFTsAndTypeRegistry.sol\":1641:2007  if (... */\n      iszero\n      tag_92\n      jumpi\n        /* \"@openzeppelin/contracts/utils/Context.sol\":719:729  msg.sender */\n      caller\n        /* \"contracts/PermittedNFTsAndTypeRegistry.sol\":1816:1819  hub */\n      sload(0x01)\n        /* \"contracts/PermittedNFTsAndTypeRegistry.sol\":1816:1861  hub.getContract(ContractKeys.AIRDROP_FACTORY) */\n      mload(0x40)\n      shl(0xe3, 0x1c2d8fb3)\n      dup2\n      mstore\n      shl(0x88, 0x41495244524f505f464143544f5259)\n      0x04\n      dup3\n      add\n        /* \"#utility.yul\":5723:5748   */\n      mstore\n      sub(shl(0xa0, 0x01), 0x01)\n        /* \"contracts/PermittedNFTsAndTypeRegistry.sol\":1816:1877  hub.getContract(ContractKeys.AIRDROP_FACTORY) == _msgSender() */\n      swap3\n      dup4\n      and\n      swap3\n        /* \"contracts/PermittedNFTsAndTypeRegistry.sol\":1816:1819  hub */\n      swap1\n      swap2\n      and\n      swap1\n        /* \"contracts/PermittedNFTsAndTypeRegistry.sol\":1816:1831  hub.getContract */\n      0xe16c7d98\n      swap1\n        /* \"#utility.yul\":5696:5714   */\n      0x24\n      add\n        /* \"contracts/PermittedNFTsAndTypeRegistry.sol\":1816:1861  hub.getContract(ContractKeys.AIRDROP_FACTORY) */\n      0x20\n      mload(0x40)\n      dup1\n      dup4\n      sub\n      dup2\n      dup7\n      dup1\n      extcodesize\n      iszero\n      dup1\n      iszero\n      tag_95\n      jumpi\n      0x00\n      dup1\n      revert\n    tag_95:\n      pop\n      gas\n      staticcall\n      iszero\n      dup1\n      iszero\n      tag_97\n      jumpi\n      returndatasize\n      0x00\n      dup1\n      returndatacopy\n      revert(0x00, returndatasize)\n    tag_97:\n      pop\n      pop\n      pop\n      pop\n      mload(0x40)\n      returndatasize\n      not(0x1f)\n      0x1f\n      dup3\n      add\n      and\n      dup3\n      add\n      dup1\n      0x40\n      mstore\n      pop\n      dup2\n      add\n      swap1\n      tag_98\n      swap2\n      swap1\n      tag_99\n      jump\t// in\n    tag_98:\n      sub(shl(0xa0, 0x01), 0x01)\n        /* \"contracts/PermittedNFTsAndTypeRegistry.sol\":1816:1877  hub.getContract(ContractKeys.AIRDROP_FACTORY) == _msgSender() */\n      and\n      eq\n        /* \"contracts/PermittedNFTsAndTypeRegistry.sol\":1808:1910  require(hub.getContract(ContractKeys.AIRDROP_FACTORY) == _msgSender(), \"caller is not AirdropFactory\") */\n      tag_100\n      jumpi\n      mload(0x40)\n      shl(0xe5, 0x461bcd)\n      dup2\n      mstore\n        /* \"#utility.yul\":10166:10168   */\n      0x20\n        /* \"contracts/PermittedNFTsAndTypeRegistry.sol\":1808:1910  require(hub.getContract(ContractKeys.AIRDROP_FACTORY) == _msgSender(), \"caller is not AirdropFactory\") */\n      0x04\n      dup3\n      add\n        /* \"#utility.yul\":10148:10169   */\n      mstore\n        /* \"#utility.yul\":10205:10207   */\n      0x1c\n        /* \"#utility.yul\":10185:10203   */\n      0x24\n      dup3\n      add\n        /* \"#utility.yul\":10178:10208   */\n      mstore\n        /* \"#utility.yul\":10244:10274   */\n      0x63616c6c6572206973206e6f742041697264726f70466163746f727900000000\n        /* \"#utility.yul\":10224:10242   */\n      0x44\n      dup3\n      add\n        /* \"#utility.yul\":10217:10275   */\n      mstore\n        /* \"#utility.yul\":10292:10310   */\n      0x64\n      add\n        /* \"contracts/PermittedNFTsAndTypeRegistry.sol\":1808:1910  require(hub.getContract(ContractKeys.AIRDROP_FACTORY) == _msgSender(), \"caller is not AirdropFactory\") */\n      tag_61\n        /* \"#utility.yul\":10138:10316   */\n      jump\n        /* \"contracts/PermittedNFTsAndTypeRegistry.sol\":1808:1910  require(hub.getContract(ContractKeys.AIRDROP_FACTORY) == _msgSender(), \"caller is not AirdropFactory\") */\n    tag_100:\n        /* \"contracts/PermittedNFTsAndTypeRegistry.sol\":1641:2007  if (... */\n      jump(tag_106)\n    tag_92:\n        /* \"@openzeppelin/contracts/utils/Context.sol\":719:729  msg.sender */\n      caller\n        /* \"contracts/PermittedNFTsAndTypeRegistry.sol\":1949:1956  owner() */\n      tag_105\n        /* \"contracts/PermittedNFTsAndTypeRegistry.sol\":1949:1954  owner */\n      tag_35\n        /* \"contracts/PermittedNFTsAndTypeRegistry.sol\":1949:1956  owner() */\n      jump\t// in\n    tag_105:\n      sub(shl(0xa0, 0x01), 0x01)\n        /* \"contracts/PermittedNFTsAndTypeRegistry.sol\":1949:1972  owner() == _msgSender() */\n      and\n      eq\n        /* \"contracts/PermittedNFTsAndTypeRegistry.sol\":1941:1996  require(owner() == _msgSender(), \"caller is not owner\") */\n      tag_106\n      jumpi\n      mload(0x40)\n      shl(0xe5, 0x461bcd)\n      dup2\n      mstore\n        /* \"#utility.yul\":8687:8689   */\n      0x20\n        /* \"contracts/PermittedNFTsAndTypeRegistry.sol\":1941:1996  require(owner() == _msgSender(), \"caller is not owner\") */\n      0x04\n      dup3\n      add\n        /* \"#utility.yul\":8669:8690   */\n      mstore\n        /* \"#utility.yul\":8726:8728   */\n      0x13\n        /* \"#utility.yul\":8706:8724   */\n      0x24\n      dup3\n      add\n        /* \"#utility.yul\":8699:8729   */\n      mstore\n      shl(0x69, 0x31b0b63632b91034b9903737ba1037bbb732b9)\n        /* \"#utility.yul\":8745:8763   */\n      0x44\n      dup3\n      add\n        /* \"#utility.yul\":8738:8787   */\n      mstore\n        /* \"#utility.yul\":8804:8822   */\n      0x64\n      add\n        /* \"contracts/PermittedNFTsAndTypeRegistry.sol\":1941:1996  require(owner() == _msgSender(), \"caller is not owner\") */\n      tag_61\n        /* \"#utility.yul\":8659:8828   */\n      jump\n        /* \"contracts/PermittedNFTsAndTypeRegistry.sol\":1941:1996  require(owner() == _msgSender(), \"caller is not owner\") */\n    tag_106:\n        /* \"contracts/PermittedNFTsAndTypeRegistry.sol\":3870:3907  _setNFTPermit(_nftContract, _nftType) */\n      tag_110\n        /* \"contracts/PermittedNFTsAndTypeRegistry.sol\":3884:3896  _nftContract */\n      dup4\n        /* \"contracts/PermittedNFTsAndTypeRegistry.sol\":3898:3906  _nftType */\n      dup4\n        /* \"contracts/PermittedNFTsAndTypeRegistry.sol\":3870:3883  _setNFTPermit */\n      tag_111\n        /* \"contracts/PermittedNFTsAndTypeRegistry.sol\":3870:3907  _setNFTPermit(_nftContract, _nftType) */\n      jump\t// in\n    tag_110:\n        /* \"contracts/PermittedNFTsAndTypeRegistry.sol\":3710:3914  function setNFTPermit(address _nftContract, string memory _nftType)... */\n      pop\n      pop\n      pop\n      jump\t// out\n        /* \"contracts/PermittedNFTsAndTypeRegistry.sol\":5837:5972  function setNftType(string memory _nftType, address _nftWrapper) external onlyOwner {... */\n    tag_52:\n        /* \"@openzeppelin/contracts/utils/Context.sol\":719:729  msg.sender */\n      caller\n        /* \"contracts/utils/Ownable.sol\":1039:1046  owner() */\n      tag_114\n        /* \"contracts/utils/Ownable.sol\":1039:1044  owner */\n      tag_35\n        /* \"contracts/utils/Ownable.sol\":1039:1046  owner() */\n      jump\t// in\n    tag_114:\n      sub(shl(0xa0, 0x01), 0x01)\n        /* \"contracts/utils/Ownable.sol\":1039:1062  owner() == _msgSender() */\n      and\n      eq\n        /* \"contracts/utils/Ownable.sol\":1031:1099  require(owner() == _msgSender(), \"Ownable: caller is not the owner\") */\n      tag_115\n      jumpi\n      mload(0x40)\n      shl(0xe5, 0x461bcd)\n      dup2\n      mstore\n      0x04\n      add\n      tag_61\n      swap1\n      tag_62\n      jump\t// in\n    tag_115:\n        /* \"contracts/PermittedNFTsAndTypeRegistry.sol\":5931:5965  _setNftType(_nftType, _nftWrapper) */\n      tag_64\n        /* \"contracts/PermittedNFTsAndTypeRegistry.sol\":5943:5951  _nftType */\n      dup3\n        /* \"contracts/PermittedNFTsAndTypeRegistry.sol\":5953:5964  _nftWrapper */\n      dup3\n        /* \"contracts/PermittedNFTsAndTypeRegistry.sol\":5931:5942  _setNftType */\n      tag_119\n        /* \"contracts/PermittedNFTsAndTypeRegistry.sol\":5931:5965  _setNftType(_nftType, _nftWrapper) */\n      jump\t// in\n        /* \"contracts/utils/Ownable.sol\":1444:1636  function transferOwnership(address _newOwner) public virtual onlyOwner {... */\n    tag_55:\n        /* \"@openzeppelin/contracts/utils/Context.sol\":719:729  msg.sender */\n      caller\n        /* \"contracts/utils/Ownable.sol\":1039:1046  owner() */\n      tag_122\n        /* \"contracts/utils/Ownable.sol\":1039:1044  owner */\n      tag_35\n        /* \"contracts/utils/Ownable.sol\":1039:1046  owner() */\n      jump\t// in\n    tag_122:\n      sub(shl(0xa0, 0x01), 0x01)\n        /* \"contracts/utils/Ownable.sol\":1039:1062  owner() == _msgSender() */\n      and\n      eq\n        /* \"contracts/utils/Ownable.sol\":1031:1099  require(owner() == _msgSender(), \"Ownable: caller is not the owner\") */\n      tag_123\n      jumpi\n      mload(0x40)\n      shl(0xe5, 0x461bcd)\n      dup2\n      mstore\n      0x04\n      add\n      tag_61\n      swap1\n      tag_62\n      jump\t// in\n    tag_123:\n      sub(shl(0xa0, 0x01), 0x01)\n        /* \"contracts/utils/Ownable.sol\":1533:1556  _newOwner != address(0) */\n      dup2\n      and\n        /* \"contracts/utils/Ownable.sol\":1525:1599  require(_newOwner != address(0), \"Ownable: new owner is the zero address\") */\n      tag_126\n      jumpi\n      mload(0x40)\n      shl(0xe5, 0x461bcd)\n      dup2\n      mstore\n        /* \"#utility.yul\":6802:6804   */\n      0x20\n        /* \"contracts/utils/Ownable.sol\":1525:1599  require(_newOwner != address(0), \"Ownable: new owner is the zero address\") */\n      0x04\n      dup3\n      add\n        /* \"#utility.yul\":6784:6805   */\n      mstore\n        /* \"#utility.yul\":6841:6843   */\n      0x26\n        /* \"#utility.yul\":6821:6839   */\n      0x24\n      dup3\n      add\n        /* \"#utility.yul\":6814:6844   */\n      mstore\n        /* \"#utility.yul\":6880:6914   */\n      0x4f776e61626c653a206e6577206f776e657220697320746865207a65726f2061\n        /* \"#utility.yul\":6860:6878   */\n      0x44\n      dup3\n      add\n        /* \"#utility.yul\":6853:6915   */\n      mstore\n      shl(0xd0, 0x646472657373)\n        /* \"#utility.yul\":6931:6949   */\n      0x64\n      dup3\n      add\n        /* \"#utility.yul\":6924:6960   */\n      mstore\n        /* \"#utility.yul\":6977:6996   */\n      0x84\n      add\n        /* \"contracts/utils/Ownable.sol\":1525:1599  require(_newOwner != address(0), \"Ownable: new owner is the zero address\") */\n      tag_61\n        /* \"#utility.yul\":6774:7002   */\n      jump\n        /* \"contracts/utils/Ownable.sol\":1525:1599  require(_newOwner != address(0), \"Ownable: new owner is the zero address\") */\n    tag_126:\n        /* \"contracts/utils/Ownable.sol\":1609:1629  _setOwner(_newOwner) */\n      tag_129\n        /* \"contracts/utils/Ownable.sol\":1619:1628  _newOwner */\n      dup2\n        /* \"contracts/utils/Ownable.sol\":1609:1618  _setOwner */\n      tag_130\n        /* \"contracts/utils/Ownable.sol\":1609:1629  _setOwner(_newOwner) */\n      jump\t// in\n    tag_129:\n        /* \"contracts/utils/Ownable.sol\":1444:1636  function transferOwnership(address _newOwner) public virtual onlyOwner {... */\n      pop\n      jump\t// out\n        /* \"contracts/PermittedNFTsAndTypeRegistry.sol\":7982:8314  function _setNftTypes(string[] memory _nftTypes, address[] memory _nftWrappers) internal {... */\n    tag_65:\n        /* \"contracts/PermittedNFTsAndTypeRegistry.sol\":8109:8121  _nftWrappers */\n      dup1\n        /* \"contracts/PermittedNFTsAndTypeRegistry.sol\":8109:8128  _nftWrappers.length */\n      mload\n        /* \"contracts/PermittedNFTsAndTypeRegistry.sol\":8089:8098  _nftTypes */\n      dup3\n        /* \"contracts/PermittedNFTsAndTypeRegistry.sol\":8089:8105  _nftTypes.length */\n      mload\n        /* \"contracts/PermittedNFTsAndTypeRegistry.sol\":8089:8128  _nftTypes.length == _nftWrappers.length */\n      eq\n        /* \"contracts/PermittedNFTsAndTypeRegistry.sol\":8081:8180  require(_nftTypes.length == _nftWrappers.length, \"setNftTypes function information arity mismatch\") */\n      tag_133\n      jumpi\n      mload(0x40)\n      shl(0xe5, 0x461bcd)\n      dup2\n      mstore\n        /* \"#utility.yul\":7565:7567   */\n      0x20\n        /* \"contracts/PermittedNFTsAndTypeRegistry.sol\":8081:8180  require(_nftTypes.length == _nftWrappers.length, \"setNftTypes function information arity mismatch\") */\n      0x04\n      dup3\n      add\n        /* \"#utility.yul\":7547:7568   */\n      mstore\n        /* \"#utility.yul\":7604:7606   */\n      0x2f\n        /* \"#utility.yul\":7584:7602   */\n      0x24\n      dup3\n      add\n        /* \"#utility.yul\":7577:7607   */\n      mstore\n        /* \"#utility.yul\":7643:7677   */\n      0x7365744e667454797065732066756e6374696f6e20696e666f726d6174696f6e\n        /* \"#utility.yul\":7623:7641   */\n      0x44\n      dup3\n      add\n        /* \"#utility.yul\":7616:7678   */\n      mstore\n      shl(0x8b, 0x040c2e4d2e8f240dad2e6dac2e8c6d)\n        /* \"#utility.yul\":7694:7712   */\n      0x64\n      dup3\n      add\n        /* \"#utility.yul\":7687:7732   */\n      mstore\n        /* \"#utility.yul\":7749:7768   */\n      0x84\n      add\n        /* \"contracts/PermittedNFTsAndTypeRegistry.sol\":8081:8180  require(_nftTypes.length == _nftWrappers.length, \"setNftTypes function information arity mismatch\") */\n      tag_61\n        /* \"#utility.yul\":7537:7774   */\n      jump\n        /* \"contracts/PermittedNFTsAndTypeRegistry.sol\":8081:8180  require(_nftTypes.length == _nftWrappers.length, \"setNftTypes function information arity mismatch\") */\n    tag_133:\n        /* \"contracts/PermittedNFTsAndTypeRegistry.sol\":8196:8205  uint256 i */\n      0x00\n        /* \"contracts/PermittedNFTsAndTypeRegistry.sol\":8191:8308  for (uint256 i = 0; i < _nftWrappers.length; i++) {... */\n    tag_136:\n        /* \"contracts/PermittedNFTsAndTypeRegistry.sol\":8215:8227  _nftWrappers */\n      dup2\n        /* \"contracts/PermittedNFTsAndTypeRegistry.sol\":8215:8234  _nftWrappers.length */\n      mload\n        /* \"contracts/PermittedNFTsAndTypeRegistry.sol\":8211:8212  i */\n      dup2\n        /* \"contracts/PermittedNFTsAndTypeRegistry.sol\":8211:8234  i < _nftWrappers.length */\n      lt\n        /* \"contracts/PermittedNFTsAndTypeRegistry.sol\":8191:8308  for (uint256 i = 0; i < _nftWrappers.length; i++) {... */\n      iszero\n      tag_110\n      jumpi\n        /* \"contracts/PermittedNFTsAndTypeRegistry.sol\":8255:8297  _setNftType(_nftTypes[i], _nftWrappers[i]) */\n      tag_139\n        /* \"contracts/PermittedNFTsAndTypeRegistry.sol\":8267:8276  _nftTypes */\n      dup4\n        /* \"contracts/PermittedNFTsAndTypeRegistry.sol\":8277:8278  i */\n      dup3\n        /* \"contracts/PermittedNFTsAndTypeRegistry.sol\":8267:8279  _nftTypes[i] */\n      dup2\n      mload\n      dup2\n      lt\n      tag_140\n      jumpi\n      mstore(0x00, shl(0xe0, 0x4e487b71))\n      mstore(0x04, 0x32)\n      revert(0x00, 0x24)\n    tag_140:\n      0x20\n      mul\n      0x20\n      add\n      add\n      mload\n        /* \"contracts/PermittedNFTsAndTypeRegistry.sol\":8281:8293  _nftWrappers */\n      dup4\n        /* \"contracts/PermittedNFTsAndTypeRegistry.sol\":8294:8295  i */\n      dup4\n        /* \"contracts/PermittedNFTsAndTypeRegistry.sol\":8281:8296  _nftWrappers[i] */\n      dup2\n      mload\n      dup2\n      lt\n      tag_141\n      jumpi\n      mstore(0x00, shl(0xe0, 0x4e487b71))\n      mstore(0x04, 0x32)\n      revert(0x00, 0x24)\n    tag_141:\n      0x20\n      mul\n      0x20\n      add\n      add\n      mload\n        /* \"contracts/PermittedNFTsAndTypeRegistry.sol\":8255:8266  _setNftType */\n      tag_119\n        /* \"contracts/PermittedNFTsAndTypeRegistry.sol\":8255:8297  _setNftType(_nftTypes[i], _nftWrappers[i]) */\n      jump\t// in\n    tag_139:\n        /* \"contracts/PermittedNFTsAndTypeRegistry.sol\":8236:8239  i++ */\n      dup1\n      tag_142\n      dup2\n      tag_143\n      jump\t// in\n    tag_142:\n      swap2\n      pop\n      pop\n        /* \"contracts/PermittedNFTsAndTypeRegistry.sol\":8191:8308  for (uint256 i = 0; i < _nftWrappers.length; i++) {... */\n      jump(tag_136)\n        /* \"contracts/PermittedNFTsAndTypeRegistry.sol\":9838:10180  function _setNFTPermits(address[] memory _nftContracts, string[] memory _nftTypes) internal {... */\n    tag_76:\n        /* \"contracts/PermittedNFTsAndTypeRegistry.sol\":9972:9981  _nftTypes */\n      dup1\n        /* \"contracts/PermittedNFTsAndTypeRegistry.sol\":9972:9988  _nftTypes.length */\n      mload\n        /* \"contracts/PermittedNFTsAndTypeRegistry.sol\":9948:9961  _nftContracts */\n      dup3\n        /* \"contracts/PermittedNFTsAndTypeRegistry.sol\":9948:9968  _nftContracts.length */\n      mload\n        /* \"contracts/PermittedNFTsAndTypeRegistry.sol\":9948:9988  _nftContracts.length == _nftTypes.length */\n      eq\n        /* \"contracts/PermittedNFTsAndTypeRegistry.sol\":9940:10042  require(_nftContracts.length == _nftTypes.length, \"setNFTPermits function information arity mismatch\") */\n      tag_145\n      jumpi\n      mload(0x40)\n      shl(0xe5, 0x461bcd)\n      dup2\n      mstore\n        /* \"#utility.yul\":9748:9750   */\n      0x20\n        /* \"contracts/PermittedNFTsAndTypeRegistry.sol\":9940:10042  require(_nftContracts.length == _nftTypes.length, \"setNFTPermits function information arity mismatch\") */\n      0x04\n      dup3\n      add\n        /* \"#utility.yul\":9730:9751   */\n      mstore\n        /* \"#utility.yul\":9787:9789   */\n      0x31\n        /* \"#utility.yul\":9767:9785   */\n      0x24\n      dup3\n      add\n        /* \"#utility.yul\":9760:9790   */\n      mstore\n        /* \"#utility.yul\":9826:9860   */\n      0x7365744e46545065726d6974732066756e6374696f6e20696e666f726d617469\n        /* \"#utility.yul\":9806:9824   */\n      0x44\n      dup3\n      add\n        /* \"#utility.yul\":9799:9861   */\n      mstore\n      shl(0x7b, 0x0dedc40c2e4d2e8f240dad2e6dac2e8c6d)\n        /* \"#utility.yul\":9877:9895   */\n      0x64\n      dup3\n      add\n        /* \"#utility.yul\":9870:9917   */\n      mstore\n        /* \"#utility.yul\":9934:9953   */\n      0x84\n      add\n        /* \"contracts/PermittedNFTsAndTypeRegistry.sol\":9940:10042  require(_nftContracts.length == _nftTypes.length, \"setNFTPermits function information arity mismatch\") */\n      tag_61\n        /* \"#utility.yul\":9720:9959   */\n      jump\n        /* \"contracts/PermittedNFTsAndTypeRegistry.sol\":9940:10042  require(_nftContracts.length == _nftTypes.length, \"setNFTPermits function information arity mismatch\") */\n    tag_145:\n        /* \"contracts/PermittedNFTsAndTypeRegistry.sol\":10058:10067  uint256 i */\n      0x00\n        /* \"contracts/PermittedNFTsAndTypeRegistry.sol\":10053:10174  for (uint256 i = 0; i < _nftContracts.length; i++) {... */\n    tag_148:\n        /* \"contracts/PermittedNFTsAndTypeRegistry.sol\":10077:10090  _nftContracts */\n      dup3\n        /* \"contracts/PermittedNFTsAndTypeRegistry.sol\":10077:10097  _nftContracts.length */\n      mload\n        /* \"contracts/PermittedNFTsAndTypeRegistry.sol\":10073:10074  i */\n      dup2\n        /* \"contracts/PermittedNFTsAndTypeRegistry.sol\":10073:10097  i < _nftContracts.length */\n      lt\n        /* \"contracts/PermittedNFTsAndTypeRegistry.sol\":10053:10174  for (uint256 i = 0; i < _nftContracts.length; i++) {... */\n      iszero\n      tag_110\n      jumpi\n        /* \"contracts/PermittedNFTsAndTypeRegistry.sol\":10118:10163  _setNFTPermit(_nftContracts[i], _nftTypes[i]) */\n      tag_151\n        /* \"contracts/PermittedNFTsAndTypeRegistry.sol\":10132:10145  _nftContracts */\n      dup4\n        /* \"contracts/PermittedNFTsAndTypeRegistry.sol\":10146:10147  i */\n      dup3\n        /* \"contracts/PermittedNFTsAndTypeRegistry.sol\":10132:10148  _nftContracts[i] */\n      dup2\n      mload\n      dup2\n      lt\n      tag_152\n      jumpi\n      mstore(0x00, shl(0xe0, 0x4e487b71))\n      mstore(0x04, 0x32)\n      revert(0x00, 0x24)\n    tag_152:\n      0x20\n      mul\n      0x20\n      add\n      add\n      mload\n        /* \"contracts/PermittedNFTsAndTypeRegistry.sol\":10150:10159  _nftTypes */\n      dup4\n        /* \"contracts/PermittedNFTsAndTypeRegistry.sol\":10160:10161  i */\n      dup4\n        /* \"contracts/PermittedNFTsAndTypeRegistry.sol\":10150:10162  _nftTypes[i] */\n      dup2\n      mload\n      dup2\n      lt\n      tag_153\n      jumpi\n      mstore(0x00, shl(0xe0, 0x4e487b71))\n      mstore(0x04, 0x32)\n      revert(0x00, 0x24)\n    tag_153:\n      0x20\n      mul\n      0x20\n      add\n      add\n      mload\n        /* \"contracts/PermittedNFTsAndTypeRegistry.sol\":10118:10131  _setNFTPermit */\n      tag_111\n        /* \"contracts/PermittedNFTsAndTypeRegistry.sol\":10118:10163  _setNFTPermit(_nftContracts[i], _nftTypes[i]) */\n      jump\t// in\n    tag_151:\n        /* \"contracts/PermittedNFTsAndTypeRegistry.sol\":10099:10102  i++ */\n      dup1\n      tag_154\n      dup2\n      tag_143\n      jump\t// in\n    tag_154:\n      swap2\n      pop\n      pop\n        /* \"contracts/PermittedNFTsAndTypeRegistry.sol\":10053:10174  for (uint256 i = 0; i < _nftContracts.length; i++) {... */\n      jump(tag_148)\n        /* \"contracts/PermittedNFTsAndTypeRegistry.sol\":8758:9409  function _setNFTPermit(address _nftContract, string memory _nftType) internal {... */\n    tag_111:\n      sub(shl(0xa0, 0x01), 0x01)\n        /* \"contracts/PermittedNFTsAndTypeRegistry.sol\":8854:8880  _nftContract != address(0) */\n      dup3\n      and\n        /* \"contracts/PermittedNFTsAndTypeRegistry.sol\":8846:8912  require(_nftContract != address(0), \"nftContract is zero address\") */\n      tag_156\n      jumpi\n      mload(0x40)\n      shl(0xe5, 0x461bcd)\n      dup2\n      mstore\n        /* \"#utility.yul\":7209:7211   */\n      0x20\n        /* \"contracts/PermittedNFTsAndTypeRegistry.sol\":8846:8912  require(_nftContract != address(0), \"nftContract is zero address\") */\n      0x04\n      dup3\n      add\n        /* \"#utility.yul\":7191:7212   */\n      mstore\n        /* \"#utility.yul\":7248:7250   */\n      0x1b\n        /* \"#utility.yul\":7228:7246   */\n      0x24\n      dup3\n      add\n        /* \"#utility.yul\":7221:7251   */\n      mstore\n        /* \"#utility.yul\":7287:7316   */\n      0x6e6674436f6e7472616374206973207a65726f20616464726573730000000000\n        /* \"#utility.yul\":7267:7285   */\n      0x44\n      dup3\n      add\n        /* \"#utility.yul\":7260:7317   */\n      mstore\n        /* \"#utility.yul\":7334:7352   */\n      0x64\n      add\n        /* \"contracts/PermittedNFTsAndTypeRegistry.sol\":8846:8912  require(_nftContract != address(0), \"nftContract is zero address\") */\n      tag_61\n        /* \"#utility.yul\":7181:7358   */\n      jump\n        /* \"contracts/PermittedNFTsAndTypeRegistry.sol\":8846:8912  require(_nftContract != address(0), \"nftContract is zero address\") */\n    tag_156:\n        /* \"contracts/PermittedNFTsAndTypeRegistry.sol\":8943:8984  ContractKeys.getIdFromStringKey(_nftType) */\n      mload(0x40)\n      shl(0xe0, 0xf99a8ffb)\n      dup2\n      mstore\n        /* \"contracts/PermittedNFTsAndTypeRegistry.sol\":8922:8940  bytes32 nftTypeKey */\n      0x00\n      swap1\n        /* \"contracts/PermittedNFTsAndTypeRegistry.sol\":8943:8955  ContractKeys */\n      linkerSymbol(\"d7e2e0a2db402280e6c36233d590dce656503db794e250e1a52bcde9e8c0eea1\")\n      swap1\n        /* \"contracts/PermittedNFTsAndTypeRegistry.sol\":8943:8974  ContractKeys.getIdFromStringKey */\n      0xf99a8ffb\n      swap1\n        /* \"contracts/PermittedNFTsAndTypeRegistry.sol\":8943:8984  ContractKeys.getIdFromStringKey(_nftType) */\n      tag_159\n      swap1\n        /* \"contracts/PermittedNFTsAndTypeRegistry.sol\":8975:8983  _nftType */\n      dup6\n      swap1\n        /* \"contracts/PermittedNFTsAndTypeRegistry.sol\":8943:8984  ContractKeys.getIdFromStringKey(_nftType) */\n      0x04\n      add\n      tag_81\n      jump\t// in\n    tag_159:\n      0x20\n      mload(0x40)\n      dup1\n      dup4\n      sub\n      dup2\n      dup7\n      dup1\n      extcodesize\n      iszero\n      dup1\n      iszero\n      tag_160\n      jumpi\n      0x00\n      dup1\n      revert\n    tag_160:\n      pop\n      gas\n      delegatecall\n      iszero\n      dup1\n      iszero\n      tag_162\n      jumpi\n      returndatasize\n      0x00\n      dup1\n      returndatacopy\n      revert(0x00, returndatasize)\n    tag_162:\n      pop\n      pop\n      pop\n      pop\n      mload(0x40)\n      returndatasize\n      not(0x1f)\n      0x1f\n      dup3\n      add\n      and\n      dup3\n      add\n      dup1\n      0x40\n      mstore\n      pop\n      dup2\n      add\n      swap1\n      tag_163\n      swap2\n      swap1\n      tag_86\n      jump\t// in\n    tag_163:\n        /* \"contracts/PermittedNFTsAndTypeRegistry.sol\":8922:8984  bytes32 nftTypeKey = ContractKeys.getIdFromStringKey(_nftType) */\n      swap1\n      pop\n        /* \"contracts/PermittedNFTsAndTypeRegistry.sol\":8999:9014  nftTypeKey != 0 */\n      dup1\n      iszero\n        /* \"contracts/PermittedNFTsAndTypeRegistry.sol\":8995:9120  if (nftTypeKey != 0) {... */\n      tag_166\n      jumpi\n        /* \"contracts/PermittedNFTsAndTypeRegistry.sol\":9079:9080  0 */\n      0x00\n        /* \"contracts/PermittedNFTsAndTypeRegistry.sol\":9038:9067  getNftTypeWrapper(nftTypeKey) */\n      tag_165\n        /* \"contracts/PermittedNFTsAndTypeRegistry.sol\":9056:9066  nftTypeKey */\n      dup3\n        /* \"contracts/PermittedNFTsAndTypeRegistry.sol\":9038:9055  getNftTypeWrapper */\n      tag_21\n        /* \"contracts/PermittedNFTsAndTypeRegistry.sol\":9038:9067  getNftTypeWrapper(nftTypeKey) */\n      jump\t// in\n    tag_165:\n      sub(shl(0xa0, 0x01), 0x01)\n        /* \"contracts/PermittedNFTsAndTypeRegistry.sol\":9038:9081  getNftTypeWrapper(nftTypeKey) != address(0) */\n      and\n      eq\n      iszero\n        /* \"contracts/PermittedNFTsAndTypeRegistry.sol\":9030:9109  require(getNftTypeWrapper(nftTypeKey) != address(0), \"NFT type not registered\") */\n      tag_166\n      jumpi\n      mload(0x40)\n      shl(0xe5, 0x461bcd)\n      dup2\n      mstore\n        /* \"#utility.yul\":9035:9037   */\n      0x20\n        /* \"contracts/PermittedNFTsAndTypeRegistry.sol\":9030:9109  require(getNftTypeWrapper(nftTypeKey) != address(0), \"NFT type not registered\") */\n      0x04\n      dup3\n      add\n        /* \"#utility.yul\":9017:9038   */\n      mstore\n        /* \"#utility.yul\":9074:9076   */\n      0x17\n        /* \"#utility.yul\":9054:9072   */\n      0x24\n      dup3\n      add\n        /* \"#utility.yul\":9047:9077   */\n      mstore\n      shl(0x4a, 0x139195081d1e5c19481b9bdd081c9959da5cdd195c9959)\n        /* \"#utility.yul\":9093:9111   */\n      0x44\n      dup3\n      add\n        /* \"#utility.yul\":9086:9139   */\n      mstore\n        /* \"#utility.yul\":9156:9174   */\n      0x64\n      add\n        /* \"contracts/PermittedNFTsAndTypeRegistry.sol\":9030:9109  require(getNftTypeWrapper(nftTypeKey) != address(0), \"NFT type not registered\") */\n      tag_61\n        /* \"#utility.yul\":9007:9180   */\n      jump\n        /* \"contracts/PermittedNFTsAndTypeRegistry.sol\":9030:9109  require(getNftTypeWrapper(nftTypeKey) != address(0), \"NFT type not registered\") */\n    tag_166:\n        /* \"contracts/PermittedNFTsAndTypeRegistry.sol\":9211:9246  ContractKeys.AIRDROP_WRAPPER_STRING */\n      0x40\n      dup1\n      mload\n      dup1\n      dup3\n      add\n      dup3\n      mstore\n      0x0e\n      dup2\n      mstore\n      shl(0x91, 0x20b4b9323937b82bb930b83832b9)\n      0x20\n      dup3\n      add\n      mstore\n        /* \"contracts/PermittedNFTsAndTypeRegistry.sol\":9179:9247  ContractKeys.getIdFromStringKey(ContractKeys.AIRDROP_WRAPPER_STRING) */\n      swap1\n      mload\n      shl(0xe0, 0xf99a8ffb)\n      dup2\n      mstore\n        /* \"contracts/PermittedNFTsAndTypeRegistry.sol\":9179:9191  ContractKeys */\n      linkerSymbol(\"d7e2e0a2db402280e6c36233d590dce656503db794e250e1a52bcde9e8c0eea1\")\n      swap2\n        /* \"contracts/PermittedNFTsAndTypeRegistry.sol\":9179:9210  ContractKeys.getIdFromStringKey */\n      0xf99a8ffb\n      swap2\n        /* \"contracts/PermittedNFTsAndTypeRegistry.sol\":9179:9247  ContractKeys.getIdFromStringKey(ContractKeys.AIRDROP_WRAPPER_STRING) */\n      tag_169\n      swap2\n        /* \"contracts/PermittedNFTsAndTypeRegistry.sol\":9211:9246  ContractKeys.AIRDROP_WRAPPER_STRING */\n      swap1\n        /* \"contracts/PermittedNFTsAndTypeRegistry.sol\":9179:9247  ContractKeys.getIdFromStringKey(ContractKeys.AIRDROP_WRAPPER_STRING) */\n      0x04\n      add\n      tag_81\n      jump\t// in\n    tag_169:\n      0x20\n      mload(0x40)\n      dup1\n      dup4\n      sub\n      dup2\n      dup7\n      dup1\n      extcodesize\n      iszero\n      dup1\n      iszero\n      tag_170\n      jumpi\n      0x00\n      dup1\n      revert\n    tag_170:\n      pop\n      gas\n      delegatecall\n      iszero\n      dup1\n      iszero\n      tag_172\n      jumpi\n      returndatasize\n      0x00\n      dup1\n      returndatacopy\n      revert(0x00, returndatasize)\n    tag_172:\n      pop\n      pop\n      pop\n      pop\n      mload(0x40)\n      returndatasize\n      not(0x1f)\n      0x1f\n      dup3\n      add\n      and\n      dup3\n      add\n      dup1\n      0x40\n      mstore\n      pop\n      dup2\n      add\n      swap1\n      tag_173\n      swap2\n      swap1\n      tag_86\n      jump\t// in\n    tag_173:\n      sub(shl(0xa0, 0x01), 0x01)\n        /* \"contracts/PermittedNFTsAndTypeRegistry.sol\":9151:9175  nftPermits[_nftContract] */\n      dup5\n      and\n      0x00\n      swap1\n      dup2\n      mstore\n        /* \"contracts/PermittedNFTsAndTypeRegistry.sol\":9151:9161  nftPermits */\n      0x03\n        /* \"contracts/PermittedNFTsAndTypeRegistry.sol\":9151:9175  nftPermits[_nftContract] */\n      0x20\n      mstore\n      0x40\n      swap1\n      keccak256\n      sload\n        /* \"contracts/PermittedNFTsAndTypeRegistry.sol\":9151:9247  nftPermits[_nftContract] != ContractKeys.getIdFromStringKey(ContractKeys.AIRDROP_WRAPPER_STRING) */\n      eq\n      iszero\n        /* \"contracts/PermittedNFTsAndTypeRegistry.sol\":9130:9305  require(... */\n      tag_174\n      jumpi\n      mload(0x40)\n      shl(0xe5, 0x461bcd)\n      dup2\n      mstore\n        /* \"#utility.yul\":7981:7983   */\n      0x20\n        /* \"contracts/PermittedNFTsAndTypeRegistry.sol\":9130:9305  require(... */\n      0x04\n      dup3\n      add\n        /* \"#utility.yul\":7963:7984   */\n      dup2\n      swap1\n      mstore\n        /* \"#utility.yul\":8000:8018   */\n      0x24\n      dup3\n      add\n        /* \"#utility.yul\":7993:8023   */\n      mstore\n        /* \"#utility.yul\":8059:8093   */\n      0x41697264726f70577261707065722063616e2774206265206d6f646966696564\n        /* \"#utility.yul\":8039:8057   */\n      0x44\n      dup3\n      add\n        /* \"#utility.yul\":8032:8094   */\n      mstore\n        /* \"#utility.yul\":8111:8129   */\n      0x64\n      add\n        /* \"contracts/PermittedNFTsAndTypeRegistry.sol\":9130:9305  require(... */\n      tag_61\n        /* \"#utility.yul\":7953:8135   */\n      jump\n        /* \"contracts/PermittedNFTsAndTypeRegistry.sol\":9130:9305  require(... */\n    tag_174:\n      sub(shl(0xa0, 0x01), 0x01)\n        /* \"contracts/PermittedNFTsAndTypeRegistry.sol\":9315:9339  nftPermits[_nftContract] */\n      dup4\n      and\n      0x00\n      dup2\n      dup2\n      mstore\n        /* \"contracts/PermittedNFTsAndTypeRegistry.sol\":9315:9325  nftPermits */\n      0x03\n        /* \"contracts/PermittedNFTsAndTypeRegistry.sol\":9315:9339  nftPermits[_nftContract] */\n      0x20\n      mstore\n      0x40\n      dup1\n      dup3\n      keccak256\n        /* \"contracts/PermittedNFTsAndTypeRegistry.sol\":9315:9352  nftPermits[_nftContract] = nftTypeKey */\n      dup5\n      swap1\n      sstore\n        /* \"contracts/PermittedNFTsAndTypeRegistry.sol\":9367:9402  NFTPermit(_nftContract, nftTypeKey) */\n      mload\n        /* \"contracts/PermittedNFTsAndTypeRegistry.sol\":9342:9352  nftTypeKey */\n      dup4\n      swap3\n        /* \"contracts/PermittedNFTsAndTypeRegistry.sol\":9315:9339  nftPermits[_nftContract] */\n      swap2\n        /* \"contracts/PermittedNFTsAndTypeRegistry.sol\":9367:9402  NFTPermit(_nftContract, nftTypeKey) */\n      0x903a211c8bcdc0ab18afc116fc4776504a9aac5c0121be0fda712d399017bd22\n      swap2\n      log3\n        /* \"contracts/PermittedNFTsAndTypeRegistry.sol\":8758:9409  function _setNFTPermit(address _nftContract, string memory _nftType) internal {... */\n      pop\n      pop\n      pop\n      jump\t// out\n        /* \"contracts/PermittedNFTsAndTypeRegistry.sol\":7246:7563  function _setNftType(string memory _nftType, address _nftWrapper) internal {... */\n    tag_119:\n        /* \"contracts/PermittedNFTsAndTypeRegistry.sol\":7339:7361  bytes(_nftType).length */\n      dup2\n      mload\n        /* \"contracts/PermittedNFTsAndTypeRegistry.sol\":7331:7387  require(bytes(_nftType).length != 0, \"nftType is empty\") */\n      tag_178\n      jumpi\n      mload(0x40)\n      shl(0xe5, 0x461bcd)\n      dup2\n      mstore\n        /* \"#utility.yul\":8342:8344   */\n      0x20\n        /* \"contracts/PermittedNFTsAndTypeRegistry.sol\":7331:7387  require(bytes(_nftType).length != 0, \"nftType is empty\") */\n      0x04\n      dup3\n      add\n        /* \"#utility.yul\":8324:8345   */\n      mstore\n        /* \"#utility.yul\":8381:8383   */\n      0x10\n        /* \"#utility.yul\":8361:8379   */\n      0x24\n      dup3\n      add\n        /* \"#utility.yul\":8354:8384   */\n      mstore\n      shl(0x80, 0x6e66745479706520697320656d707479)\n        /* \"#utility.yul\":8400:8418   */\n      0x44\n      dup3\n      add\n        /* \"#utility.yul\":8393:8439   */\n      mstore\n        /* \"#utility.yul\":8456:8474   */\n      0x64\n      add\n        /* \"contracts/PermittedNFTsAndTypeRegistry.sol\":7331:7387  require(bytes(_nftType).length != 0, \"nftType is empty\") */\n      tag_61\n        /* \"#utility.yul\":8314:8480   */\n      jump\n        /* \"contracts/PermittedNFTsAndTypeRegistry.sol\":7331:7387  require(bytes(_nftType).length != 0, \"nftType is empty\") */\n    tag_178:\n        /* \"contracts/PermittedNFTsAndTypeRegistry.sol\":7418:7459  ContractKeys.getIdFromStringKey(_nftType) */\n      mload(0x40)\n      shl(0xe0, 0xf99a8ffb)\n      dup2\n      mstore\n        /* \"contracts/PermittedNFTsAndTypeRegistry.sol\":7397:7415  bytes32 nftTypeKey */\n      0x00\n      swap1\n        /* \"contracts/PermittedNFTsAndTypeRegistry.sol\":7418:7430  ContractKeys */\n      linkerSymbol(\"d7e2e0a2db402280e6c36233d590dce656503db794e250e1a52bcde9e8c0eea1\")\n      swap1\n        /* \"contracts/PermittedNFTsAndTypeRegistry.sol\":7418:7449  ContractKeys.getIdFromStringKey */\n      0xf99a8ffb\n      swap1\n        /* \"contracts/PermittedNFTsAndTypeRegistry.sol\":7418:7459  ContractKeys.getIdFromStringKey(_nftType) */\n      tag_181\n      swap1\n        /* \"contracts/PermittedNFTsAndTypeRegistry.sol\":7450:7458  _nftType */\n      dup7\n      swap1\n        /* \"contracts/PermittedNFTsAndTypeRegistry.sol\":7418:7459  ContractKeys.getIdFromStringKey(_nftType) */\n      0x04\n      add\n      tag_81\n      jump\t// in\n    tag_181:\n      0x20\n      mload(0x40)\n      dup1\n      dup4\n      sub\n      dup2\n      dup7\n      dup1\n      extcodesize\n      iszero\n      dup1\n      iszero\n      tag_182\n      jumpi\n      0x00\n      dup1\n      revert\n    tag_182:\n      pop\n      gas\n      delegatecall\n      iszero\n      dup1\n      iszero\n      tag_184\n      jumpi\n      returndatasize\n      0x00\n      dup1\n      returndatacopy\n      revert(0x00, returndatasize)\n    tag_184:\n      pop\n      pop\n      pop\n      pop\n      mload(0x40)\n      returndatasize\n      not(0x1f)\n      0x1f\n      dup3\n      add\n      and\n      dup3\n      add\n      dup1\n      0x40\n      mstore\n      pop\n      dup2\n      add\n      swap1\n      tag_185\n      swap2\n      swap1\n      tag_86\n      jump\t// in\n    tag_185:\n        /* \"contracts/PermittedNFTsAndTypeRegistry.sol\":7470:7490  nftTypes[nftTypeKey] */\n      0x00\n      dup2\n      dup2\n      mstore\n        /* \"contracts/PermittedNFTsAndTypeRegistry.sol\":7470:7478  nftTypes */\n      0x02\n        /* \"contracts/PermittedNFTsAndTypeRegistry.sol\":7470:7490  nftTypes[nftTypeKey] */\n      0x20\n      mstore\n      0x40\n      dup1\n      dup3\n      keccak256\n        /* \"contracts/PermittedNFTsAndTypeRegistry.sol\":7470:7504  nftTypes[nftTypeKey] = _nftWrapper */\n      dup1\n      sload\n      not(sub(shl(0xa0, 0x01), 0x01))\n      and\n      sub(shl(0xa0, 0x01), 0x01)\n      dup8\n      and\n      swap1\n      dup2\n      or\n      swap1\n      swap2\n      sstore\n        /* \"contracts/PermittedNFTsAndTypeRegistry.sol\":7520:7556  TypeUpdated(nftTypeKey, _nftWrapper) */\n      swap1\n      mload\n        /* \"contracts/PermittedNFTsAndTypeRegistry.sol\":7470:7490  nftTypes[nftTypeKey] */\n      swap3\n      swap4\n      pop\n        /* \"contracts/PermittedNFTsAndTypeRegistry.sol\":7470:7504  nftTypes[nftTypeKey] = _nftWrapper */\n      swap2\n        /* \"contracts/PermittedNFTsAndTypeRegistry.sol\":7470:7490  nftTypes[nftTypeKey] */\n      dup4\n      swap2\n        /* \"contracts/PermittedNFTsAndTypeRegistry.sol\":7520:7556  TypeUpdated(nftTypeKey, _nftWrapper) */\n      0x22be69269c1f7d73e73dcb25b710dd88c7aa1cf374c16d945def98df2107c2f8\n      swap2\n      log3\n        /* \"contracts/PermittedNFTsAndTypeRegistry.sol\":7246:7563  function _setNftType(string memory _nftType, address _nftWrapper) internal {... */\n      pop\n      pop\n      pop\n      jump\t// out\n        /* \"contracts/utils/Ownable.sol\":1847:2019  function _setOwner(address _newOwner) private {... */\n    tag_130:\n        /* \"contracts/utils/Ownable.sol\":1903:1919  address oldOwner */\n      0x00\n        /* \"contracts/utils/Ownable.sol\":1922:1928  _owner */\n      dup1\n      sload\n      sub(shl(0xa0, 0x01), 0x01)\n        /* \"contracts/utils/Ownable.sol\":1938:1956  _owner = _newOwner */\n      dup4\n      dup2\n      and\n      not(sub(shl(0xa0, 0x01), 0x01))\n      dup4\n      and\n      dup2\n      or\n      dup5\n      sstore\n        /* \"contracts/utils/Ownable.sol\":1971:2012  OwnershipTransferred(oldOwner, _newOwner) */\n      mload(0x40)\n        /* \"contracts/utils/Ownable.sol\":1922:1928  _owner */\n      swap2\n      swap1\n      swap3\n      and\n      swap3\n      dup4\n      swap2\n        /* \"contracts/utils/Ownable.sol\":1971:2012  OwnershipTransferred(oldOwner, _newOwner) */\n      0x8be0079c531659141344cd1fd0a4f28419497f9722a3daafe3b4186f6b6457e0\n      swap2\n        /* \"contracts/utils/Ownable.sol\":1903:1919  address oldOwner */\n      swap1\n        /* \"contracts/utils/Ownable.sol\":1971:2012  OwnershipTransferred(oldOwner, _newOwner) */\n      log3\n        /* \"contracts/utils/Ownable.sol\":1847:2019  function _setOwner(address _newOwner) private {... */\n      pop\n      pop\n      jump\t// out\n        /* \"#utility.yul\":14:782   */\n    tag_188:\n        /* \"#utility.yul\":68:73   */\n      0x00\n        /* \"#utility.yul\":121:124   */\n      dup3\n        /* \"#utility.yul\":114:118   */\n      0x1f\n        /* \"#utility.yul\":106:112   */\n      dup4\n        /* \"#utility.yul\":102:119   */\n      add\n        /* \"#utility.yul\":98:125   */\n      slt\n        /* \"#utility.yul\":88:90   */\n      tag_190\n      jumpi\n        /* \"#utility.yul\":143:148   */\n      dup1\n        /* \"#utility.yul\":136:141   */\n      dup2\n        /* \"#utility.yul\":129:149   */\n      revert\n        /* \"#utility.yul\":88:90   */\n    tag_190:\n        /* \"#utility.yul\":183:189   */\n      dup2\n        /* \"#utility.yul\":170:190   */\n      calldataload\n        /* \"#utility.yul\":209:213   */\n      0x20\n        /* \"#utility.yul\":233:293   */\n      tag_191\n        /* \"#utility.yul\":249:292   */\n      tag_192\n        /* \"#utility.yul\":289:291   */\n      dup4\n        /* \"#utility.yul\":249:292   */\n      tag_193\n      jump\t// in\n    tag_192:\n        /* \"#utility.yul\":233:293   */\n      tag_194\n      jump\t// in\n    tag_191:\n        /* \"#utility.yul\":315:318   */\n      dup1\n        /* \"#utility.yul\":339:341   */\n      dup4\n        /* \"#utility.yul\":334:337   */\n      dup3\n        /* \"#utility.yul\":327:342   */\n      mstore\n        /* \"#utility.yul\":367:369   */\n      dup3\n        /* \"#utility.yul\":362:365   */\n      dup3\n        /* \"#utility.yul\":358:370   */\n      add\n        /* \"#utility.yul\":351:370   */\n      swap2\n      pop\n        /* \"#utility.yul\":402:404   */\n      dup3\n        /* \"#utility.yul\":394:400   */\n      dup7\n        /* \"#utility.yul\":390:405   */\n      add\n        /* \"#utility.yul\":454:457   */\n      dup8\n        /* \"#utility.yul\":449:451   */\n      dup5\n        /* \"#utility.yul\":443:445   */\n      dup7\n        /* \"#utility.yul\":440:441   */\n      0x05\n        /* \"#utility.yul\":436:446   */\n      shl\n        /* \"#utility.yul\":428:434   */\n      dup10\n        /* \"#utility.yul\":424:447   */\n      add\n        /* \"#utility.yul\":420:452   */\n      add\n        /* \"#utility.yul\":417:458   */\n      gt\n        /* \"#utility.yul\":414:416   */\n      iszero\n      tag_195\n      jumpi\n        /* \"#utility.yul\":475:480   */\n      dup6\n        /* \"#utility.yul\":468:473   */\n      dup7\n        /* \"#utility.yul\":461:481   */\n      revert\n        /* \"#utility.yul\":414:416   */\n    tag_195:\n        /* \"#utility.yul\":501:506   */\n      dup6\n        /* \"#utility.yul\":515:753   */\n    tag_196:\n        /* \"#utility.yul\":529:531   */\n      dup6\n        /* \"#utility.yul\":526:527   */\n      dup2\n        /* \"#utility.yul\":523:532   */\n      lt\n        /* \"#utility.yul\":515:753   */\n      iszero\n      tag_198\n      jumpi\n        /* \"#utility.yul\":600:603   */\n      dup2\n        /* \"#utility.yul\":587:604   */\n      calldataload\n        /* \"#utility.yul\":617:648   */\n      tag_199\n        /* \"#utility.yul\":642:647   */\n      dup2\n        /* \"#utility.yul\":617:648   */\n      tag_200\n      jump\t// in\n    tag_199:\n        /* \"#utility.yul\":661:679   */\n      dup5\n      mstore\n        /* \"#utility.yul\":699:711   */\n      swap3\n      dup5\n      add\n      swap3\n        /* \"#utility.yul\":731:743   */\n      swap1\n      dup5\n      add\n      swap1\n        /* \"#utility.yul\":547:548   */\n      0x01\n        /* \"#utility.yul\":540:549   */\n      add\n        /* \"#utility.yul\":515:753   */\n      jump(tag_196)\n    tag_198:\n      pop\n        /* \"#utility.yul\":771:776   */\n      swap1\n      swap8\n        /* \"#utility.yul\":78:782   */\n      swap7\n      pop\n      pop\n      pop\n      pop\n      pop\n      pop\n      pop\n      jump\t// out\n        /* \"#utility.yul\":787:1644   */\n    tag_201:\n        /* \"#utility.yul\":840:845   */\n      0x00\n        /* \"#utility.yul\":893:896   */\n      dup3\n        /* \"#utility.yul\":886:890   */\n      0x1f\n        /* \"#utility.yul\":878:884   */\n      dup4\n        /* \"#utility.yul\":874:891   */\n      add\n        /* \"#utility.yul\":870:897   */\n      slt\n        /* \"#utility.yul\":860:862   */\n      tag_203\n      jumpi\n        /* \"#utility.yul\":915:920   */\n      dup1\n        /* \"#utility.yul\":908:913   */\n      dup2\n        /* \"#utility.yul\":901:921   */\n      revert\n        /* \"#utility.yul\":860:862   */\n    tag_203:\n        /* \"#utility.yul\":955:961   */\n      dup2\n        /* \"#utility.yul\":942:962   */\n      calldataload\n        /* \"#utility.yul\":981:985   */\n      0x20\n        /* \"#utility.yul\":1005:1065   */\n      tag_204\n        /* \"#utility.yul\":1021:1064   */\n      tag_192\n        /* \"#utility.yul\":1061:1063   */\n      dup4\n        /* \"#utility.yul\":1021:1064   */\n      tag_193\n      jump\t// in\n        /* \"#utility.yul\":1005:1065   */\n    tag_204:\n        /* \"#utility.yul\":1087:1090   */\n      dup1\n        /* \"#utility.yul\":1111:1113   */\n      dup4\n        /* \"#utility.yul\":1106:1109   */\n      dup3\n        /* \"#utility.yul\":1099:1114   */\n      mstore\n        /* \"#utility.yul\":1139:1141   */\n      dup3\n        /* \"#utility.yul\":1134:1137   */\n      dup3\n        /* \"#utility.yul\":1130:1142   */\n      add\n        /* \"#utility.yul\":1123:1142   */\n      swap2\n      pop\n        /* \"#utility.yul\":1174:1176   */\n      dup3\n        /* \"#utility.yul\":1166:1172   */\n      dup7\n        /* \"#utility.yul\":1162:1177   */\n      add\n        /* \"#utility.yul\":1226:1229   */\n      dup8\n        /* \"#utility.yul\":1221:1223   */\n      dup5\n        /* \"#utility.yul\":1215:1217   */\n      dup7\n        /* \"#utility.yul\":1212:1213   */\n      0x05\n        /* \"#utility.yul\":1208:1218   */\n      shl\n        /* \"#utility.yul\":1200:1206   */\n      dup10\n        /* \"#utility.yul\":1196:1219   */\n      add\n        /* \"#utility.yul\":1192:1224   */\n      add\n        /* \"#utility.yul\":1189:1230   */\n      gt\n        /* \"#utility.yul\":1186:1188   */\n      iszero\n      tag_206\n      jumpi\n        /* \"#utility.yul\":1247:1252   */\n      dup6\n        /* \"#utility.yul\":1240:1245   */\n      dup7\n        /* \"#utility.yul\":1233:1253   */\n      revert\n        /* \"#utility.yul\":1186:1188   */\n    tag_206:\n        /* \"#utility.yul\":1273:1278   */\n      dup6\n        /* \"#utility.yul\":1287:1615   */\n    tag_207:\n        /* \"#utility.yul\":1301:1303   */\n      dup6\n        /* \"#utility.yul\":1298:1299   */\n      dup2\n        /* \"#utility.yul\":1295:1304   */\n      lt\n        /* \"#utility.yul\":1287:1615   */\n      iszero\n      tag_198\n      jumpi\n        /* \"#utility.yul\":1378:1381   */\n      dup2\n        /* \"#utility.yul\":1365:1382   */\n      calldataload\n      sub(shl(0x40, 0x01), 0x01)\n        /* \"#utility.yul\":1401:1412   */\n      dup2\n        /* \"#utility.yul\":1398:1433   */\n      gt\n        /* \"#utility.yul\":1395:1397   */\n      iszero\n      tag_210\n      jumpi\n        /* \"#utility.yul\":1450:1455   */\n      dup8\n        /* \"#utility.yul\":1443:1448   */\n      dup9\n        /* \"#utility.yul\":1436:1456   */\n      revert\n        /* \"#utility.yul\":1395:1397   */\n    tag_210:\n        /* \"#utility.yul\":1483:1540   */\n      tag_211\n        /* \"#utility.yul\":1536:1539   */\n      dup11\n        /* \"#utility.yul\":1531:1533   */\n      dup8\n        /* \"#utility.yul\":1517:1528   */\n      dup4\n        /* \"#utility.yul\":1509:1515   */\n      dup13\n        /* \"#utility.yul\":1505:1529   */\n      add\n        /* \"#utility.yul\":1501:1534   */\n      add\n        /* \"#utility.yul\":1483:1540   */\n      tag_212\n      jump\t// in\n    tag_211:\n        /* \"#utility.yul\":1471:1541   */\n      dup6\n      mstore\n      pop\n        /* \"#utility.yul\":1561:1573   */\n      swap3\n      dup5\n      add\n      swap3\n        /* \"#utility.yul\":1593:1605   */\n      swap1\n      dup5\n      add\n      swap1\n        /* \"#utility.yul\":1319:1320   */\n      0x01\n        /* \"#utility.yul\":1312:1321   */\n      add\n        /* \"#utility.yul\":1287:1615   */\n      jump(tag_207)\n        /* \"#utility.yul\":1649:2200   */\n    tag_212:\n        /* \"#utility.yul\":1692:1697   */\n      0x00\n        /* \"#utility.yul\":1745:1748   */\n      dup3\n        /* \"#utility.yul\":1738:1742   */\n      0x1f\n        /* \"#utility.yul\":1730:1736   */\n      dup4\n        /* \"#utility.yul\":1726:1743   */\n      add\n        /* \"#utility.yul\":1722:1749   */\n      slt\n        /* \"#utility.yul\":1712:1714   */\n      tag_214\n      jumpi\n        /* \"#utility.yul\":1767:1772   */\n      dup1\n        /* \"#utility.yul\":1760:1765   */\n      dup2\n        /* \"#utility.yul\":1753:1773   */\n      revert\n        /* \"#utility.yul\":1712:1714   */\n    tag_214:\n        /* \"#utility.yul\":1807:1813   */\n      dup2\n        /* \"#utility.yul\":1794:1814   */\n      calldataload\n      sub(shl(0x40, 0x01), 0x01)\n        /* \"#utility.yul\":1829:1831   */\n      dup2\n        /* \"#utility.yul\":1826:1852   */\n      gt\n        /* \"#utility.yul\":1823:1825   */\n      iszero\n      tag_216\n      jumpi\n        /* \"#utility.yul\":1855:1873   */\n      tag_216\n      tag_217\n      jump\t// in\n    tag_216:\n        /* \"#utility.yul\":1899:1954   */\n      tag_218\n        /* \"#utility.yul\":1942:1944   */\n      0x1f\n        /* \"#utility.yul\":1923:1936   */\n      dup3\n      add\n      not(0x1f)\n        /* \"#utility.yul\":1919:1946   */\n      and\n        /* \"#utility.yul\":1948:1952   */\n      0x20\n        /* \"#utility.yul\":1915:1953   */\n      add\n        /* \"#utility.yul\":1899:1954   */\n      tag_194\n      jump\t// in\n    tag_218:\n        /* \"#utility.yul\":1979:1981   */\n      dup2\n        /* \"#utility.yul\":1970:1977   */\n      dup2\n        /* \"#utility.yul\":1963:1982   */\n      mstore\n        /* \"#utility.yul\":2025:2028   */\n      dup5\n        /* \"#utility.yul\":2018:2022   */\n      0x20\n        /* \"#utility.yul\":2013:2015   */\n      dup4\n        /* \"#utility.yul\":2005:2011   */\n      dup7\n        /* \"#utility.yul\":2001:2016   */\n      add\n        /* \"#utility.yul\":1997:2023   */\n      add\n        /* \"#utility.yul\":1994:2029   */\n      gt\n        /* \"#utility.yul\":1991:1993   */\n      iszero\n      tag_219\n      jumpi\n        /* \"#utility.yul\":2046:2051   */\n      dup3\n        /* \"#utility.yul\":2039:2044   */\n      dup4\n        /* \"#utility.yul\":2032:2052   */\n      revert\n        /* \"#utility.yul\":1991:1993   */\n    tag_219:\n        /* \"#utility.yul\":2115:2117   */\n      dup2\n        /* \"#utility.yul\":2108:2112   */\n      0x20\n        /* \"#utility.yul\":2100:2106   */\n      dup6\n        /* \"#utility.yul\":2096:2113   */\n      add\n        /* \"#utility.yul\":2089:2093   */\n      0x20\n        /* \"#utility.yul\":2080:2087   */\n      dup4\n        /* \"#utility.yul\":2076:2094   */\n      add\n        /* \"#utility.yul\":2063:2118   */\n      calldatacopy\n        /* \"#utility.yul\":2138:2154   */\n      swap1\n      dup2\n      add\n        /* \"#utility.yul\":2156:2160   */\n      0x20\n        /* \"#utility.yul\":2134:2161   */\n      add\n        /* \"#utility.yul\":2127:2169   */\n      swap2\n      swap1\n      swap2\n      mstore\n        /* \"#utility.yul\":2142:2149   */\n      swap3\n        /* \"#utility.yul\":1702:2200   */\n      swap2\n      pop\n      pop\n      jump\t// out\n        /* \"#utility.yul\":2205:2462   */\n    tag_30:\n        /* \"#utility.yul\":2264:2270   */\n      0x00\n        /* \"#utility.yul\":2317:2319   */\n      0x20\n        /* \"#utility.yul\":2305:2314   */\n      dup3\n        /* \"#utility.yul\":2296:2303   */\n      dup5\n        /* \"#utility.yul\":2292:2315   */\n      sub\n        /* \"#utility.yul\":2288:2320   */\n      slt\n        /* \"#utility.yul\":2285:2287   */\n      iszero\n      tag_221\n      jumpi\n        /* \"#utility.yul\":2338:2344   */\n      dup1\n        /* \"#utility.yul\":2330:2336   */\n      dup2\n        /* \"#utility.yul\":2323:2345   */\n      revert\n        /* \"#utility.yul\":2285:2287   */\n    tag_221:\n        /* \"#utility.yul\":2382:2391   */\n      dup2\n        /* \"#utility.yul\":2369:2392   */\n      calldataload\n        /* \"#utility.yul\":2401:2432   */\n      tag_78\n        /* \"#utility.yul\":2426:2431   */\n      dup2\n        /* \"#utility.yul\":2401:2432   */\n      tag_200\n      jump\t// in\n        /* \"#utility.yul\":2467:2728   */\n    tag_99:\n        /* \"#utility.yul\":2537:2543   */\n      0x00\n        /* \"#utility.yul\":2590:2592   */\n      0x20\n        /* \"#utility.yul\":2578:2587   */\n      dup3\n        /* \"#utility.yul\":2569:2576   */\n      dup5\n        /* \"#utility.yul\":2565:2588   */\n      sub\n        /* \"#utility.yul\":2561:2593   */\n      slt\n        /* \"#utility.yul\":2558:2560   */\n      iszero\n      tag_224\n      jumpi\n        /* \"#utility.yul\":2611:2617   */\n      dup1\n        /* \"#utility.yul\":2603:2609   */\n      dup2\n        /* \"#utility.yul\":2596:2618   */\n      revert\n        /* \"#utility.yul\":2558:2560   */\n    tag_224:\n        /* \"#utility.yul\":2648:2657   */\n      dup2\n        /* \"#utility.yul\":2642:2658   */\n      mload\n        /* \"#utility.yul\":2667:2698   */\n      tag_78\n        /* \"#utility.yul\":2692:2697   */\n      dup2\n        /* \"#utility.yul\":2667:2698   */\n      tag_200\n      jump\t// in\n        /* \"#utility.yul\":2733:3210   */\n    tag_47:\n        /* \"#utility.yul\":2811:2817   */\n      0x00\n        /* \"#utility.yul\":2819:2825   */\n      dup1\n        /* \"#utility.yul\":2872:2874   */\n      0x40\n        /* \"#utility.yul\":2860:2869   */\n      dup4\n        /* \"#utility.yul\":2851:2858   */\n      dup6\n        /* \"#utility.yul\":2847:2870   */\n      sub\n        /* \"#utility.yul\":2843:2875   */\n      slt\n        /* \"#utility.yul\":2840:2842   */\n      iszero\n      tag_227\n      jumpi\n        /* \"#utility.yul\":2893:2899   */\n      dup1\n        /* \"#utility.yul\":2885:2891   */\n      dup2\n        /* \"#utility.yul\":2878:2900   */\n      revert\n        /* \"#utility.yul\":2840:2842   */\n    tag_227:\n        /* \"#utility.yul\":2937:2946   */\n      dup3\n        /* \"#utility.yul\":2924:2947   */\n      calldataload\n        /* \"#utility.yul\":2956:2987   */\n      tag_228\n        /* \"#utility.yul\":2981:2986   */\n      dup2\n        /* \"#utility.yul\":2956:2987   */\n      tag_200\n      jump\t// in\n    tag_228:\n        /* \"#utility.yul\":3006:3011   */\n      swap2\n      pop\n        /* \"#utility.yul\":3062:3064   */\n      0x20\n        /* \"#utility.yul\":3047:3065   */\n      dup4\n      add\n        /* \"#utility.yul\":3034:3066   */\n      calldataload\n      sub(shl(0x40, 0x01), 0x01)\n        /* \"#utility.yul\":3078:3108   */\n      dup2\n      gt\n        /* \"#utility.yul\":3075:3077   */\n      iszero\n      tag_229\n      jumpi\n        /* \"#utility.yul\":3126:3132   */\n      dup2\n        /* \"#utility.yul\":3118:3124   */\n      dup3\n        /* \"#utility.yul\":3111:3133   */\n      revert\n        /* \"#utility.yul\":3075:3077   */\n    tag_229:\n        /* \"#utility.yul\":3154:3204   */\n      tag_230\n        /* \"#utility.yul\":3196:3203   */\n      dup6\n        /* \"#utility.yul\":3187:3193   */\n      dup3\n        /* \"#utility.yul\":3176:3185   */\n      dup7\n        /* \"#utility.yul\":3172:3194   */\n      add\n        /* \"#utility.yul\":3154:3204   */\n      tag_212\n      jump\t// in\n    tag_230:\n        /* \"#utility.yul\":3144:3204   */\n      swap2\n      pop\n      pop\n        /* \"#utility.yul\":2830:3210   */\n      swap3\n      pop\n      swap3\n      swap1\n      pop\n      jump\t// out\n        /* \"#utility.yul\":3215:3849   */\n    tag_39:\n        /* \"#utility.yul\":3343:3349   */\n      0x00\n        /* \"#utility.yul\":3351:3357   */\n      dup1\n        /* \"#utility.yul\":3404:3406   */\n      0x40\n        /* \"#utility.yul\":3392:3401   */\n      dup4\n        /* \"#utility.yul\":3383:3390   */\n      dup6\n        /* \"#utility.yul\":3379:3402   */\n      sub\n        /* \"#utility.yul\":3375:3407   */\n      slt\n        /* \"#utility.yul\":3372:3374   */\n      iszero\n      tag_232\n      jumpi\n        /* \"#utility.yul\":3425:3431   */\n      dup2\n        /* \"#utility.yul\":3417:3423   */\n      dup3\n        /* \"#utility.yul\":3410:3432   */\n      revert\n        /* \"#utility.yul\":3372:3374   */\n    tag_232:\n        /* \"#utility.yul\":3470:3479   */\n      dup3\n        /* \"#utility.yul\":3457:3480   */\n      calldataload\n      sub(shl(0x40, 0x01), 0x01)\n        /* \"#utility.yul\":3540:3542   */\n      dup1\n        /* \"#utility.yul\":3532:3538   */\n      dup3\n        /* \"#utility.yul\":3529:3543   */\n      gt\n        /* \"#utility.yul\":3526:3528   */\n      iszero\n      tag_233\n      jumpi\n        /* \"#utility.yul\":3561:3567   */\n      dup4\n        /* \"#utility.yul\":3553:3559   */\n      dup5\n        /* \"#utility.yul\":3546:3568   */\n      revert\n        /* \"#utility.yul\":3526:3528   */\n    tag_233:\n        /* \"#utility.yul\":3589:3650   */\n      tag_234\n        /* \"#utility.yul\":3642:3649   */\n      dup7\n        /* \"#utility.yul\":3633:3639   */\n      dup4\n        /* \"#utility.yul\":3622:3631   */\n      dup8\n        /* \"#utility.yul\":3618:3640   */\n      add\n        /* \"#utility.yul\":3589:3650   */\n      tag_188\n      jump\t// in\n    tag_234:\n        /* \"#utility.yul\":3579:3650   */\n      swap4\n      pop\n        /* \"#utility.yul\":3703:3705   */\n      0x20\n        /* \"#utility.yul\":3692:3701   */\n      dup6\n        /* \"#utility.yul\":3688:3706   */\n      add\n        /* \"#utility.yul\":3675:3707   */\n      calldataload\n        /* \"#utility.yul\":3659:3707   */\n      swap2\n      pop\n        /* \"#utility.yul\":3732:3734   */\n      dup1\n        /* \"#utility.yul\":3722:3730   */\n      dup3\n        /* \"#utility.yul\":3719:3735   */\n      gt\n        /* \"#utility.yul\":3716:3718   */\n      iszero\n      tag_235\n      jumpi\n        /* \"#utility.yul\":3753:3759   */\n      dup3\n        /* \"#utility.yul\":3745:3751   */\n      dup4\n        /* \"#utility.yul\":3738:3760   */\n      revert\n        /* \"#utility.yul\":3716:3718   */\n    tag_235:\n      pop\n        /* \"#utility.yul\":3781:3843   */\n      tag_230\n        /* \"#utility.yul\":3835:3842   */\n      dup6\n        /* \"#utility.yul\":3824:3832   */\n      dup3\n        /* \"#utility.yul\":3813:3822   */\n      dup7\n        /* \"#utility.yul\":3809:3833   */\n      add\n        /* \"#utility.yul\":3781:3843   */\n      tag_201\n      jump\t// in\n        /* \"#utility.yul\":3854:4488   */\n    tag_16:\n        /* \"#utility.yul\":3982:3988   */\n      0x00\n        /* \"#utility.yul\":3990:3996   */\n      dup1\n        /* \"#utility.yul\":4043:4045   */\n      0x40\n        /* \"#utility.yul\":4031:4040   */\n      dup4\n        /* \"#utility.yul\":4022:4029   */\n      dup6\n        /* \"#utility.yul\":4018:4041   */\n      sub\n        /* \"#utility.yul\":4014:4046   */\n      slt\n        /* \"#utility.yul\":4011:4013   */\n      iszero\n      tag_238\n      jumpi\n        /* \"#utility.yul\":4064:4070   */\n      dup2\n        /* \"#utility.yul\":4056:4062   */\n      dup3\n        /* \"#utility.yul\":4049:4071   */\n      revert\n        /* \"#utility.yul\":4011:4013   */\n    tag_238:\n        /* \"#utility.yul\":4109:4118   */\n      dup3\n        /* \"#utility.yul\":4096:4119   */\n      calldataload\n      sub(shl(0x40, 0x01), 0x01)\n        /* \"#utility.yul\":4179:4181   */\n      dup1\n        /* \"#utility.yul\":4171:4177   */\n      dup3\n        /* \"#utility.yul\":4168:4182   */\n      gt\n        /* \"#utility.yul\":4165:4167   */\n      iszero\n      tag_239\n      jumpi\n        /* \"#utility.yul\":4200:4206   */\n      dup4\n        /* \"#utility.yul\":4192:4198   */\n      dup5\n        /* \"#utility.yul\":4185:4207   */\n      revert\n        /* \"#utility.yul\":4165:4167   */\n    tag_239:\n        /* \"#utility.yul\":4228:4288   */\n      tag_240\n        /* \"#utility.yul\":4280:4287   */\n      dup7\n        /* \"#utility.yul\":4271:4277   */\n      dup4\n        /* \"#utility.yul\":4260:4269   */\n      dup8\n        /* \"#utility.yul\":4256:4278   */\n      add\n        /* \"#utility.yul\":4228:4288   */\n      tag_201\n      jump\t// in\n    tag_240:\n        /* \"#utility.yul\":4218:4288   */\n      swap4\n      pop\n        /* \"#utility.yul\":4341:4343   */\n      0x20\n        /* \"#utility.yul\":4330:4339   */\n      dup6\n        /* \"#utility.yul\":4326:4344   */\n      add\n        /* \"#utility.yul\":4313:4345   */\n      calldataload\n        /* \"#utility.yul\":4297:4345   */\n      swap2\n      pop\n        /* \"#utility.yul\":4370:4372   */\n      dup1\n        /* \"#utility.yul\":4360:4368   */\n      dup3\n        /* \"#utility.yul\":4357:4373   */\n      gt\n        /* \"#utility.yul\":4354:4356   */\n      iszero\n      tag_241\n      jumpi\n        /* \"#utility.yul\":4391:4397   */\n      dup3\n        /* \"#utility.yul\":4383:4389   */\n      dup4\n        /* \"#utility.yul\":4376:4398   */\n      revert\n        /* \"#utility.yul\":4354:4356   */\n    tag_241:\n      pop\n        /* \"#utility.yul\":4419:4482   */\n      tag_230\n        /* \"#utility.yul\":4474:4481   */\n      dup6\n        /* \"#utility.yul\":4463:4471   */\n      dup3\n        /* \"#utility.yul\":4452:4461   */\n      dup7\n        /* \"#utility.yul\":4448:4472   */\n      add\n        /* \"#utility.yul\":4419:4482   */\n      tag_188\n      jump\t// in\n        /* \"#utility.yul\":4493:4683   */\n    tag_20:\n        /* \"#utility.yul\":4552:4558   */\n      0x00\n        /* \"#utility.yul\":4605:4607   */\n      0x20\n        /* \"#utility.yul\":4593:4602   */\n      dup3\n        /* \"#utility.yul\":4584:4591   */\n      dup5\n        /* \"#utility.yul\":4580:4603   */\n      sub\n        /* \"#utility.yul\":4576:4608   */\n      slt\n        /* \"#utility.yul\":4573:4575   */\n      iszero\n      tag_244\n      jumpi\n        /* \"#utility.yul\":4626:4632   */\n      dup1\n        /* \"#utility.yul\":4618:4624   */\n      dup2\n        /* \"#utility.yul\":4611:4633   */\n      revert\n        /* \"#utility.yul\":4573:4575   */\n    tag_244:\n      pop\n        /* \"#utility.yul\":4654:4677   */\n      calldataload\n      swap2\n        /* \"#utility.yul\":4563:4683   */\n      swap1\n      pop\n      jump\t// out\n        /* \"#utility.yul\":4688:4882   */\n    tag_86:\n        /* \"#utility.yul\":4758:4764   */\n      0x00\n        /* \"#utility.yul\":4811:4813   */\n      0x20\n        /* \"#utility.yul\":4799:4808   */\n      dup3\n        /* \"#utility.yul\":4790:4797   */\n      dup5\n        /* \"#utility.yul\":4786:4809   */\n      sub\n        /* \"#utility.yul\":4782:4814   */\n      slt\n        /* \"#utility.yul\":4779:4781   */\n      iszero\n      tag_246\n      jumpi\n        /* \"#utility.yul\":4832:4838   */\n      dup1\n        /* \"#utility.yul\":4824:4830   */\n      dup2\n        /* \"#utility.yul\":4817:4839   */\n      revert\n        /* \"#utility.yul\":4779:4781   */\n    tag_246:\n      pop\n        /* \"#utility.yul\":4860:4876   */\n      mload\n      swap2\n        /* \"#utility.yul\":4769:4882   */\n      swap1\n      pop\n      jump\t// out\n        /* \"#utility.yul\":4887:5364   */\n    tag_51:\n        /* \"#utility.yul\":4965:4971   */\n      0x00\n        /* \"#utility.yul\":4973:4979   */\n      dup1\n        /* \"#utility.yul\":5026:5028   */\n      0x40\n        /* \"#utility.yul\":5014:5023   */\n      dup4\n        /* \"#utility.yul\":5005:5012   */\n      dup6\n        /* \"#utility.yul\":5001:5024   */\n      sub\n        /* \"#utility.yul\":4997:5029   */\n      slt\n        /* \"#utility.yul\":4994:4996   */\n      iszero\n      tag_248\n      jumpi\n        /* \"#utility.yul\":5047:5053   */\n      dup2\n        /* \"#utility.yul\":5039:5045   */\n      dup3\n        /* \"#utility.yul\":5032:5054   */\n      revert\n        /* \"#utility.yul\":4994:4996   */\n    tag_248:\n        /* \"#utility.yul\":5092:5101   */\n      dup3\n        /* \"#utility.yul\":5079:5102   */\n      calldataload\n      sub(shl(0x40, 0x01), 0x01)\n        /* \"#utility.yul\":5117:5123   */\n      dup2\n        /* \"#utility.yul\":5114:5144   */\n      gt\n        /* \"#utility.yul\":5111:5113   */\n      iszero\n      tag_249\n      jumpi\n        /* \"#utility.yul\":5162:5168   */\n      dup3\n        /* \"#utility.yul\":5154:5160   */\n      dup4\n        /* \"#utility.yul\":5147:5169   */\n      revert\n        /* \"#utility.yul\":5111:5113   */\n    tag_249:\n        /* \"#utility.yul\":5190:5240   */\n      tag_250\n        /* \"#utility.yul\":5232:5239   */\n      dup6\n        /* \"#utility.yul\":5223:5229   */\n      dup3\n        /* \"#utility.yul\":5212:5221   */\n      dup7\n        /* \"#utility.yul\":5208:5230   */\n      add\n        /* \"#utility.yul\":5190:5240   */\n      tag_212\n      jump\t// in\n    tag_250:\n        /* \"#utility.yul\":5180:5240   */\n      swap3\n      pop\n      pop\n        /* \"#utility.yul\":5290:5292   */\n      0x20\n        /* \"#utility.yul\":5279:5288   */\n      dup4\n        /* \"#utility.yul\":5275:5293   */\n      add\n        /* \"#utility.yul\":5262:5294   */\n      calldataload\n        /* \"#utility.yul\":5303:5334   */\n      tag_251\n        /* \"#utility.yul\":5328:5333   */\n      dup2\n        /* \"#utility.yul\":5303:5334   */\n      tag_200\n      jump\t// in\n    tag_251:\n        /* \"#utility.yul\":5353:5358   */\n      dup1\n        /* \"#utility.yul\":5343:5358   */\n      swap2\n      pop\n      pop\n        /* \"#utility.yul\":4984:5364   */\n      swap3\n      pop\n      swap3\n      swap1\n      pop\n      jump\t// out\n        /* \"#utility.yul\":5984:6595   */\n    tag_81:\n        /* \"#utility.yul\":6104:6108   */\n      0x00\n        /* \"#utility.yul\":6133:6135   */\n      0x20\n        /* \"#utility.yul\":6162:6164   */\n      dup1\n        /* \"#utility.yul\":6151:6160   */\n      dup4\n        /* \"#utility.yul\":6144:6165   */\n      mstore\n        /* \"#utility.yul\":6194:6200   */\n      dup4\n        /* \"#utility.yul\":6188:6201   */\n      mload\n        /* \"#utility.yul\":6237:6243   */\n      dup1\n        /* \"#utility.yul\":6232:6234   */\n      dup3\n        /* \"#utility.yul\":6221:6230   */\n      dup6\n        /* \"#utility.yul\":6217:6235   */\n      add\n        /* \"#utility.yul\":6210:6244   */\n      mstore\n        /* \"#utility.yul\":6262:6266   */\n      dup3\n        /* \"#utility.yul\":6275:6415   */\n    tag_256:\n        /* \"#utility.yul\":6289:6295   */\n      dup2\n        /* \"#utility.yul\":6286:6287   */\n      dup2\n        /* \"#utility.yul\":6283:6296   */\n      lt\n        /* \"#utility.yul\":6275:6415   */\n      iszero\n      tag_258\n      jumpi\n        /* \"#utility.yul\":6384:6398   */\n      dup6\n      dup2\n      add\n        /* \"#utility.yul\":6380:6403   */\n      dup4\n      add\n        /* \"#utility.yul\":6374:6404   */\n      mload\n        /* \"#utility.yul\":6350:6367   */\n      dup6\n      dup3\n      add\n        /* \"#utility.yul\":6369:6371   */\n      0x40\n        /* \"#utility.yul\":6346:6372   */\n      add\n        /* \"#utility.yul\":6339:6405   */\n      mstore\n        /* \"#utility.yul\":6304:6314   */\n      dup3\n      add\n        /* \"#utility.yul\":6275:6415   */\n      jump(tag_256)\n    tag_258:\n        /* \"#utility.yul\":6433:6439   */\n      dup2\n        /* \"#utility.yul\":6430:6431   */\n      dup2\n        /* \"#utility.yul\":6427:6440   */\n      gt\n        /* \"#utility.yul\":6424:6426   */\n      iszero\n      tag_259\n      jumpi\n        /* \"#utility.yul\":6503:6507   */\n      dup4\n        /* \"#utility.yul\":6498:6500   */\n      0x40\n        /* \"#utility.yul\":6489:6495   */\n      dup4\n        /* \"#utility.yul\":6478:6487   */\n      dup8\n        /* \"#utility.yul\":6474:6496   */\n      add\n        /* \"#utility.yul\":6470:6501   */\n      add\n        /* \"#utility.yul\":6463:6508   */\n      mstore\n        /* \"#utility.yul\":6424:6426   */\n    tag_259:\n      pop\n        /* \"#utility.yul\":6579:6581   */\n      0x1f\n        /* \"#utility.yul\":6558:6573   */\n      add\n      not(0x1f)\n        /* \"#utility.yul\":6554:6583   */\n      and\n        /* \"#utility.yul\":6539:6584   */\n      swap3\n      swap1\n      swap3\n      add\n        /* \"#utility.yul\":6586:6588   */\n      0x40\n        /* \"#utility.yul\":6535:6589   */\n      add\n      swap4\n        /* \"#utility.yul\":6113:6595   */\n      swap3\n      pop\n      pop\n      pop\n      jump\t// out\n        /* \"#utility.yul\":9185:9541   */\n    tag_62:\n        /* \"#utility.yul\":9387:9389   */\n      0x20\n        /* \"#utility.yul\":9369:9390   */\n      dup1\n      dup3\n      mstore\n        /* \"#utility.yul\":9406:9424   */\n      dup2\n      dup2\n      add\n        /* \"#utility.yul\":9399:9429   */\n      mstore\n        /* \"#utility.yul\":9465:9499   */\n      0x4f776e61626c653a2063616c6c6572206973206e6f7420746865206f776e6572\n        /* \"#utility.yul\":9460:9462   */\n      0x40\n        /* \"#utility.yul\":9445:9463   */\n      dup3\n      add\n        /* \"#utility.yul\":9438:9500   */\n      mstore\n        /* \"#utility.yul\":9532:9534   */\n      0x60\n        /* \"#utility.yul\":9517:9535   */\n      add\n      swap1\n        /* \"#utility.yul\":9359:9541   */\n      jump\t// out\n        /* \"#utility.yul\":10321:10596   */\n    tag_194:\n        /* \"#utility.yul\":10392:10394   */\n      0x40\n        /* \"#utility.yul\":10386:10395   */\n      mload\n        /* \"#utility.yul\":10457:10459   */\n      0x1f\n        /* \"#utility.yul\":10438:10451   */\n      dup3\n      add\n      not(0x1f)\n        /* \"#utility.yul\":10434:10461   */\n      and\n        /* \"#utility.yul\":10422:10462   */\n      dup2\n      add\n      sub(shl(0x40, 0x01), 0x01)\n        /* \"#utility.yul\":10477:10511   */\n      dup2\n      gt\n        /* \"#utility.yul\":10513:10535   */\n      dup3\n      dup3\n      lt\n        /* \"#utility.yul\":10474:10536   */\n      or\n        /* \"#utility.yul\":10471:10473   */\n      iszero\n      tag_272\n      jumpi\n        /* \"#utility.yul\":10539:10557   */\n      tag_272\n      tag_217\n      jump\t// in\n    tag_272:\n        /* \"#utility.yul\":10575:10577   */\n      0x40\n        /* \"#utility.yul\":10568:10590   */\n      mstore\n        /* \"#utility.yul\":10366:10596   */\n      swap2\n      swap1\n      pop\n      jump\t// out\n        /* \"#utility.yul\":10601:10784   */\n    tag_193:\n        /* \"#utility.yul\":10661:10665   */\n      0x00\n      sub(shl(0x40, 0x01), 0x01)\n        /* \"#utility.yul\":10686:10692   */\n      dup3\n        /* \"#utility.yul\":10683:10713   */\n      gt\n        /* \"#utility.yul\":10680:10682   */\n      iszero\n      tag_275\n      jumpi\n        /* \"#utility.yul\":10716:10734   */\n      tag_275\n      tag_217\n      jump\t// in\n    tag_275:\n      pop\n        /* \"#utility.yul\":10761:10762   */\n      0x05\n        /* \"#utility.yul\":10757:10771   */\n      shl\n        /* \"#utility.yul\":10773:10777   */\n      0x20\n        /* \"#utility.yul\":10753:10778   */\n      add\n      swap1\n        /* \"#utility.yul\":10670:10784   */\n      jump\t// out\n        /* \"#utility.yul\":10789:11025   */\n    tag_143:\n        /* \"#utility.yul\":10828:10831   */\n      0x00\n      not(0x00)\n        /* \"#utility.yul\":10849:10866   */\n      dup3\n      eq\n        /* \"#utility.yul\":10846:10848   */\n      iszero\n      tag_277\n      jumpi\n      shl(0xe0, 0x4e487b71)\n        /* \"#utility.yul\":10889:10922   */\n      dup2\n      mstore\n        /* \"#utility.yul\":10945:10949   */\n      0x11\n        /* \"#utility.yul\":10942:10943   */\n      0x04\n        /* \"#utility.yul\":10935:10950   */\n      mstore\n        /* \"#utility.yul\":10975:10979   */\n      0x24\n        /* \"#utility.yul\":10896:10899   */\n      dup2\n        /* \"#utility.yul\":10963:10980   */\n      revert\n        /* \"#utility.yul\":10846:10848   */\n    tag_277:\n      pop\n        /* \"#utility.yul\":11017:11018   */\n      0x01\n        /* \"#utility.yul\":11006:11019   */\n      add\n      swap1\n        /* \"#utility.yul\":10836:11025   */\n      jump\t// out\n        /* \"#utility.yul\":11030:11157   */\n    tag_217:\n        /* \"#utility.yul\":11091:11101   */\n      0x4e487b71\n        /* \"#utility.yul\":11086:11089   */\n      0xe0\n        /* \"#utility.yul\":11082:11102   */\n      shl\n        /* \"#utility.yul\":11079:11080   */\n      0x00\n        /* \"#utility.yul\":11072:11103   */\n      mstore\n        /* \"#utility.yul\":11122:11126   */\n      0x41\n        /* \"#utility.yul\":11119:11120   */\n      0x04\n        /* \"#utility.yul\":11112:11127   */\n      mstore\n        /* \"#utility.yul\":11146:11150   */\n      0x24\n        /* \"#utility.yul\":11143:11144   */\n      0x00\n        /* \"#utility.yul\":11136:11151   */\n      revert\n        /* \"#utility.yul\":11162:11293   */\n    tag_200:\n      sub(shl(0xa0, 0x01), 0x01)\n        /* \"#utility.yul\":11237:11268   */\n      dup2\n      and\n        /* \"#utility.yul\":11227:11269   */\n      dup2\n      eq\n        /* \"#utility.yul\":11217:11219   */\n      tag_129\n      jumpi\n        /* \"#utility.yul\":11283:11284   */\n      0x00\n        /* \"#utility.yul\":11280:11281   */\n      dup1\n        /* \"#utility.yul\":11273:11285   */\n      revert\n\n    auxdata: 0xa2646970667358221220afb4e97aed32efd6591de5b89ab4d1a9e6df8aa121f82ad0774fddcf513413b764736f6c63430008040033\n}\n",
				"bytecode": {
					"linkReferences": {
						"contracts/utils/ContractKeys.sol": {
							"ContractKeys": [
								{
									"length": 20,
									"start": 782
								},
								{
									"length": 20,
									"start": 1105
								},
								{
									"length": 20,
									"start": 1392
								},
								{
									"length": 20,
									"start": 3277
								},
								{
									"length": 20,
									"start": 3410
								},
								{
									"length": 20,
									"start": 4642
								},
								{
									"length": 20,
									"start": 4912
								},
								{
									"length": 20,
									"start": 5289
								}
							]
						}
					},
					"object": "60806040523480156200001157600080fd5b5060405162001a4038038062001a4083398101604081905262000034916200082d565b85620000408162000080565b50600180546001600160a01b0319166001600160a01b038716179055620000688484620000d0565b620000748282620001c8565b50505050505062000a1e565b600080546001600160a01b038381166001600160a01b0319831681178455604051919092169283917f8be0079c531659141344cd1fd0a4f28419497f9722a3daafe3b4186f6b6457e09190a35050565b80518251146200013f5760405162461bcd60e51b815260206004820152602f60248201527f7365744e667454797065732066756e6374696f6e20696e666f726d6174696f6e60448201526e040c2e4d2e8f240dad2e6dac2e8c6d608b1b60648201526084015b60405180910390fd5b60005b8151811015620001c357620001ae8382815181106200017157634e487b7160e01b600052603260045260246000fd5b60200260200101518383815181106200019a57634e487b7160e01b600052603260045260246000fd5b6020026020010151620002b960201b60201c565b80620001ba81620009e0565b91505062000142565b505050565b8051825114620002355760405162461bcd60e51b815260206004820152603160248201527f7365744e46545065726d6974732066756e6374696f6e20696e666f726d6174696044820152700dedc40c2e4d2e8f240dad2e6dac2e8c6d607b1b606482015260840162000136565b60005b8251811015620001c357620002a48382815181106200026757634e487b7160e01b600052603260045260246000fd5b60200260200101518383815181106200029057634e487b7160e01b600052603260045260246000fd5b6020026020010151620003e760201b60201c565b80620002b081620009e0565b91505062000238565b8151620002fc5760405162461bcd60e51b815260206004820152601060248201526f6e66745479706520697320656d70747960801b604482015260640162000136565b60405163f99a8ffb60e01b815260009073__$d7e2e0a2db402280e6c36233d590dce656$__9063f99a8ffb90620003389086906004016200091f565b60206040518083038186803b1580156200035157600080fd5b505af415801562000366573d6000803e3d6000fd5b505050506040513d601f19601f820116820180604052508101906200038c919062000906565b60008181526002602052604080822080546001600160a01b0319166001600160a01b03871690811790915590519293509183917f22be69269c1f7d73e73dcb25b710dd88c7aa1cf374c16d945def98df2107c2f891a3505050565b6001600160a01b0382166200043f5760405162461bcd60e51b815260206004820152601b60248201527f6e6674436f6e7472616374206973207a65726f20616464726573730000000000604482015260640162000136565b60405163f99a8ffb60e01b815260009073__$d7e2e0a2db402280e6c36233d590dce656$__9063f99a8ffb906200047b9085906004016200091f565b60206040518083038186803b1580156200049457600080fd5b505af4158015620004a9573d6000803e3d6000fd5b505050506040513d601f19601f82011682018060405250810190620004cf919062000906565b905080156200053e576000818152600260205260409020546001600160a01b03166200053e5760405162461bcd60e51b815260206004820152601760248201527f4e46542074797065206e6f742072656769737465726564000000000000000000604482015260640162000136565b604080518082018252600e81526d20b4b9323937b82bb930b83832b960911b6020820152905163f99a8ffb60e01b815273__$d7e2e0a2db402280e6c36233d590dce656$__9163f99a8ffb916200059991906004016200091f565b60206040518083038186803b158015620005b257600080fd5b505af4158015620005c7573d6000803e3d6000fd5b505050506040513d601f19601f82011682018060405250810190620005ed919062000906565b6001600160a01b0384166000908152600360205260409020541415620006565760405162461bcd60e51b815260206004820181905260248201527f41697264726f70577261707065722063616e2774206265206d6f646966696564604482015260640162000136565b6001600160a01b038316600081815260036020526040808220849055518392917f903a211c8bcdc0ab18afc116fc4776504a9aac5c0121be0fda712d399017bd2291a3505050565b80516001600160a01b0381168114620006b657600080fd5b919050565b600082601f830112620006cc578081fd5b81516020620006e5620006df8362000987565b62000954565b80838252828201915082860187848660051b890101111562000705578586fd5b855b858110156200072e576200071b826200069e565b8452928401929084019060010162000707565b5090979650505050505050565b6000601f83818401126200074d578182fd5b8251602062000760620006df8362000987565b80838252828201915082870188848660051b8a0101111562000780578687fd5b865b858110156200081f5781516001600160401b0380821115620007a257898afd5b818b0191508b603f830112620007b657898afd5b86820151604082821115620007cf57620007cf62000a08565b620007e2828c01601f19168a0162000954565b92508183528d81838601011115620007f8578b8cfd5b62000809828a8501838701620009ad565b5050855250928401929084019060010162000782565b509098975050505050505050565b60008060008060008060c0878903121562000846578182fd5b62000851876200069e565b955062000861602088016200069e565b60408801519095506001600160401b03808211156200087e578384fd5b6200088c8a838b016200073b565b95506060890151915080821115620008a2578384fd5b620008b08a838b01620006bb565b94506080890151915080821115620008c6578384fd5b620008d48a838b01620006bb565b935060a0890151915080821115620008ea578283fd5b50620008f989828a016200073b565b9150509295509295509295565b60006020828403121562000918578081fd5b5051919050565b602081526000825180602084015262000940816040850160208701620009ad565b601f01601f19169190910160400192915050565b604051601f8201601f191681016001600160401b03811182821017156200097f576200097f62000a08565b604052919050565b60006001600160401b03821115620009a357620009a362000a08565b5060051b60200190565b60005b83811015620009ca578181015183820152602001620009b0565b83811115620009da576000848401525b50505050565b600060001982141562000a0157634e487b7160e01b81526011600452602481fd5b5060010190565b634e487b7160e01b600052604160045260246000fd5b6110128062000a2e6000396000f3fe608060405234801561001057600080fd5b506004361061009e5760003560e01c806395244b941161006657806395244b941461013a578063b8c8aff81461014d578063c88641a214610160578063d8e4e93e14610173578063f2fde38b1461018657600080fd5b80630a21cc43146100a35780631a3dd0a5146100b8578063365a86fc146100e85780636651f11d146100fb5780638da5cb5b14610132575b600080fd5b6100b66100b1366004610dda565b610199565b005b6100cb6100c6366004610e30565b6101df565b6040516001600160a01b0390911681526020015b60405180910390f35b6001546100cb906001600160a01b031681565b610124610109366004610cff565b6001600160a01b031660009081526003602052604090205490565b6040519081526020016100df565b6100cb6101fa565b6100b6610148366004610d84565b610209565b6100cb61015b366004610cff565b610242565b6100b661016e366004610d37565b61026b565b6100b6610181366004610e60565b6104f3565b6100b6610194366004610cff565b61052c565b336101a26101fa565b6001600160a01b0316146101d15760405162461bcd60e51b81526004016101c890610f02565b60405180910390fd5b6101db82826105cc565b5050565b6000908152600260205260409020546001600160a01b031690565b6000546001600160a01b031690565b336102126101fa565b6001600160a01b0316146102385760405162461bcd60e51b81526004016101c890610f02565b6101db82826106ab565b6001600160a01b038116600090815260036020526040812054610264816101df565b9392505050565b604080518082018252600e81526d20b4b9323937b82bb930b83832b960911b6020820152905163f99a8ffb60e01b8152829173__$d7e2e0a2db402280e6c36233d590dce656$__9163f99a8ffb916102c591600401610eaf565b60206040518083038186803b1580156102dd57600080fd5b505af41580156102f1573d6000803e3d6000fd5b505050506040513d601f19601f820116820180604052508101906103159190610e48565b60405163f99a8ffb60e01b815273__$d7e2e0a2db402280e6c36233d590dce656$__9063f99a8ffb9061034c908590600401610eaf565b60206040518083038186803b15801561036457600080fd5b505af4158015610378573d6000803e3d6000fd5b505050506040513d601f19601f8201168201806040525081019061039c9190610e48565b141561048f5733600154604051631c2d8fb360e31b81526e41495244524f505f464143544f525960881b60048201526001600160a01b03928316929091169063e16c7d989060240160206040518083038186803b1580156103fc57600080fd5b505afa158015610410573d6000803e3d6000fd5b505050506040513d601f19601f820116820180604052508101906104349190610d1b565b6001600160a01b03161461048a5760405162461bcd60e51b815260206004820152601c60248201527f63616c6c6572206973206e6f742041697264726f70466163746f72790000000060448201526064016101c8565b6104e4565b336104986101fa565b6001600160a01b0316146104e45760405162461bcd60e51b815260206004820152601360248201527231b0b63632b91034b9903737ba1037bbb732b960691b60448201526064016101c8565b6104ee838361078c565b505050565b336104fc6101fa565b6001600160a01b0316146105225760405162461bcd60e51b81526004016101c890610f02565b6101db8282610a28565b336105356101fa565b6001600160a01b03161461055b5760405162461bcd60e51b81526004016101c890610f02565b6001600160a01b0381166105c05760405162461bcd60e51b815260206004820152602660248201527f4f776e61626c653a206e6577206f776e657220697320746865207a65726f206160448201526564647265737360d01b60648201526084016101c8565b6105c981610b4e565b50565b80518251146106355760405162461bcd60e51b815260206004820152602f60248201527f7365744e667454797065732066756e6374696f6e20696e666f726d6174696f6e60448201526e040c2e4d2e8f240dad2e6dac2e8c6d608b1b60648201526084016101c8565b60005b81518110156104ee5761069983828151811061066457634e487b7160e01b600052603260045260246000fd5b602002602001015183838151811061068c57634e487b7160e01b600052603260045260246000fd5b6020026020010151610a28565b806106a381610f8a565b915050610638565b80518251146107165760405162461bcd60e51b815260206004820152603160248201527f7365744e46545065726d6974732066756e6374696f6e20696e666f726d6174696044820152700dedc40c2e4d2e8f240dad2e6dac2e8c6d607b1b60648201526084016101c8565b60005b82518110156104ee5761077a83828151811061074557634e487b7160e01b600052603260045260246000fd5b602002602001015183838151811061076d57634e487b7160e01b600052603260045260246000fd5b602002602001015161078c565b8061078481610f8a565b915050610719565b6001600160a01b0382166107e25760405162461bcd60e51b815260206004820152601b60248201527f6e6674436f6e7472616374206973207a65726f2061646472657373000000000060448201526064016101c8565b60405163f99a8ffb60e01b815260009073__$d7e2e0a2db402280e6c36233d590dce656$__9063f99a8ffb9061081c908590600401610eaf565b60206040518083038186803b15801561083457600080fd5b505af4158015610848573d6000803e3d6000fd5b505050506040513d601f19601f8201168201806040525081019061086c9190610e48565b905080156108d057600061087f826101df565b6001600160a01b031614156108d05760405162461bcd60e51b8152602060048201526017602482015276139195081d1e5c19481b9bdd081c9959da5cdd195c9959604a1b60448201526064016101c8565b604080518082018252600e81526d20b4b9323937b82bb930b83832b960911b6020820152905163f99a8ffb60e01b815273__$d7e2e0a2db402280e6c36233d590dce656$__9163f99a8ffb916109299190600401610eaf565b60206040518083038186803b15801561094157600080fd5b505af4158015610955573d6000803e3d6000fd5b505050506040513d601f19601f820116820180604052508101906109799190610e48565b6001600160a01b03841660009081526003602052604090205414156109e05760405162461bcd60e51b815260206004820181905260248201527f41697264726f70577261707065722063616e2774206265206d6f64696669656460448201526064016101c8565b6001600160a01b038316600081815260036020526040808220849055518392917f903a211c8bcdc0ab18afc116fc4776504a9aac5c0121be0fda712d399017bd2291a3505050565b8151610a695760405162461bcd60e51b815260206004820152601060248201526f6e66745479706520697320656d70747960801b60448201526064016101c8565b60405163f99a8ffb60e01b815260009073__$d7e2e0a2db402280e6c36233d590dce656$__9063f99a8ffb90610aa3908690600401610eaf565b60206040518083038186803b158015610abb57600080fd5b505af4158015610acf573d6000803e3d6000fd5b505050506040513d601f19601f82011682018060405250810190610af39190610e48565b60008181526002602052604080822080546001600160a01b0319166001600160a01b03871690811790915590519293509183917f22be69269c1f7d73e73dcb25b710dd88c7aa1cf374c16d945def98df2107c2f891a3505050565b600080546001600160a01b038381166001600160a01b0319831681178455604051919092169283917f8be0079c531659141344cd1fd0a4f28419497f9722a3daafe3b4186f6b6457e09190a35050565b600082601f830112610bae578081fd5b81356020610bc3610bbe83610f67565b610f37565b80838252828201915082860187848660051b8901011115610be2578586fd5b855b85811015610c09578135610bf781610fc7565b84529284019290840190600101610be4565b5090979650505050505050565b600082601f830112610c26578081fd5b81356020610c36610bbe83610f67565b80838252828201915082860187848660051b8901011115610c55578586fd5b855b85811015610c095781356001600160401b03811115610c74578788fd5b610c828a87838c0101610c95565b8552509284019290840190600101610c57565b600082601f830112610ca5578081fd5b81356001600160401b03811115610cbe57610cbe610fb1565b610cd1601f8201601f1916602001610f37565b818152846020838601011115610ce5578283fd5b816020850160208301379081016020019190915292915050565b600060208284031215610d10578081fd5b813561026481610fc7565b600060208284031215610d2c578081fd5b815161026481610fc7565b60008060408385031215610d49578081fd5b8235610d5481610fc7565b915060208301356001600160401b03811115610d6e578182fd5b610d7a85828601610c95565b9150509250929050565b60008060408385031215610d96578182fd5b82356001600160401b0380821115610dac578384fd5b610db886838701610b9e565b93506020850135915080821115610dcd578283fd5b50610d7a85828601610c16565b60008060408385031215610dec578182fd5b82356001600160401b0380821115610e02578384fd5b610e0e86838701610c16565b93506020850135915080821115610e23578283fd5b50610d7a85828601610b9e565b600060208284031215610e41578081fd5b5035919050565b600060208284031215610e59578081fd5b5051919050565b60008060408385031215610e72578182fd5b82356001600160401b03811115610e87578283fd5b610e9385828601610c95565b9250506020830135610ea481610fc7565b809150509250929050565b6000602080835283518082850152825b81811015610edb57858101830151858201604001528201610ebf565b81811115610eec5783604083870101525b50601f01601f1916929092016040019392505050565b6020808252818101527f4f776e61626c653a2063616c6c6572206973206e6f7420746865206f776e6572604082015260600190565b604051601f8201601f191681016001600160401b0381118282101715610f5f57610f5f610fb1565b604052919050565b60006001600160401b03821115610f8057610f80610fb1565b5060051b60200190565b6000600019821415610faa57634e487b7160e01b81526011600452602481fd5b5060010190565b634e487b7160e01b600052604160045260246000fd5b6001600160a01b03811681146105c957600080fdfea2646970667358221220afb4e97aed32efd6591de5b89ab4d1a9e6df8aa121f82ad0774fddcf513413b764736f6c63430008040033",
					"opcodes": "PUSH1 0x80 PUSH1 0x40 MSTORE CALLVALUE DUP1 ISZERO PUSH3 0x11 JUMPI PUSH1 0x0 DUP1 REVERT JUMPDEST POP PUSH1 0x40 MLOAD PUSH3 0x1A40 CODESIZE SUB DUP1 PUSH3 0x1A40 DUP4 CODECOPY DUP2 ADD PUSH1 0x40 DUP2 SWAP1 MSTORE PUSH3 0x34 SWAP2 PUSH3 0x82D JUMP JUMPDEST DUP6 PUSH3 0x40 DUP2 PUSH3 0x80 JUMP JUMPDEST POP PUSH1 0x1 DUP1 SLOAD PUSH1 0x1 PUSH1 0x1 PUSH1 0xA0 SHL SUB NOT AND PUSH1 0x1 PUSH1 0x1 PUSH1 0xA0 SHL SUB DUP8 AND OR SWAP1 SSTORE PUSH3 0x68 DUP5 DUP5 PUSH3 0xD0 JUMP JUMPDEST PUSH3 0x74 DUP3 DUP3 PUSH3 0x1C8 JUMP JUMPDEST POP POP POP POP POP POP PUSH3 0xA1E JUMP JUMPDEST PUSH1 0x0 DUP1 SLOAD PUSH1 0x1 PUSH1 0x1 PUSH1 0xA0 SHL SUB DUP4 DUP2 AND PUSH1 0x1 PUSH1 0x1 PUSH1 0xA0 SHL SUB NOT DUP4 AND DUP2 OR DUP5 SSTORE PUSH1 0x40 MLOAD SWAP2 SWAP1 SWAP3 AND SWAP3 DUP4 SWAP2 PUSH32 0x8BE0079C531659141344CD1FD0A4F28419497F9722A3DAAFE3B4186F6B6457E0 SWAP2 SWAP1 LOG3 POP POP JUMP JUMPDEST DUP1 MLOAD DUP3 MLOAD EQ PUSH3 0x13F JUMPI PUSH1 0x40 MLOAD PUSH3 0x461BCD PUSH1 0xE5 SHL DUP2 MSTORE PUSH1 0x20 PUSH1 0x4 DUP3 ADD MSTORE PUSH1 0x2F PUSH1 0x24 DUP3 ADD MSTORE PUSH32 0x7365744E667454797065732066756E6374696F6E20696E666F726D6174696F6E PUSH1 0x44 DUP3 ADD MSTORE PUSH15 0x40C2E4D2E8F240DAD2E6DAC2E8C6D PUSH1 0x8B SHL PUSH1 0x64 DUP3 ADD MSTORE PUSH1 0x84 ADD JUMPDEST PUSH1 0x40 MLOAD DUP1 SWAP2 SUB SWAP1 REVERT JUMPDEST PUSH1 0x0 JUMPDEST DUP2 MLOAD DUP2 LT ISZERO PUSH3 0x1C3 JUMPI PUSH3 0x1AE DUP4 DUP3 DUP2 MLOAD DUP2 LT PUSH3 0x171 JUMPI PUSH4 0x4E487B71 PUSH1 0xE0 SHL PUSH1 0x0 MSTORE PUSH1 0x32 PUSH1 0x4 MSTORE PUSH1 0x24 PUSH1 0x0 REVERT JUMPDEST PUSH1 0x20 MUL PUSH1 0x20 ADD ADD MLOAD DUP4 DUP4 DUP2 MLOAD DUP2 LT PUSH3 0x19A JUMPI PUSH4 0x4E487B71 PUSH1 0xE0 SHL PUSH1 0x0 MSTORE PUSH1 0x32 PUSH1 0x4 MSTORE PUSH1 0x24 PUSH1 0x0 REVERT JUMPDEST PUSH1 0x20 MUL PUSH1 0x20 ADD ADD MLOAD PUSH3 0x2B9 PUSH1 0x20 SHL PUSH1 0x20 SHR JUMP JUMPDEST DUP1 PUSH3 0x1BA DUP2 PUSH3 0x9E0 JUMP JUMPDEST SWAP2 POP POP PUSH3 0x142 JUMP JUMPDEST POP POP POP JUMP JUMPDEST DUP1 MLOAD DUP3 MLOAD EQ PUSH3 0x235 JUMPI PUSH1 0x40 MLOAD PUSH3 0x461BCD PUSH1 0xE5 SHL DUP2 MSTORE PUSH1 0x20 PUSH1 0x4 DUP3 ADD MSTORE PUSH1 0x31 PUSH1 0x24 DUP3 ADD MSTORE PUSH32 0x7365744E46545065726D6974732066756E6374696F6E20696E666F726D617469 PUSH1 0x44 DUP3 ADD MSTORE PUSH17 0xDEDC40C2E4D2E8F240DAD2E6DAC2E8C6D PUSH1 0x7B SHL PUSH1 0x64 DUP3 ADD MSTORE PUSH1 0x84 ADD PUSH3 0x136 JUMP JUMPDEST PUSH1 0x0 JUMPDEST DUP3 MLOAD DUP2 LT ISZERO PUSH3 0x1C3 JUMPI PUSH3 0x2A4 DUP4 DUP3 DUP2 MLOAD DUP2 LT PUSH3 0x267 JUMPI PUSH4 0x4E487B71 PUSH1 0xE0 SHL PUSH1 0x0 MSTORE PUSH1 0x32 PUSH1 0x4 MSTORE PUSH1 0x24 PUSH1 0x0 REVERT JUMPDEST PUSH1 0x20 MUL PUSH1 0x20 ADD ADD MLOAD DUP4 DUP4 DUP2 MLOAD DUP2 LT PUSH3 0x290 JUMPI PUSH4 0x4E487B71 PUSH1 0xE0 SHL PUSH1 0x0 MSTORE PUSH1 0x32 PUSH1 0x4 MSTORE PUSH1 0x24 PUSH1 0x0 REVERT JUMPDEST PUSH1 0x20 MUL PUSH1 0x20 ADD ADD MLOAD PUSH3 0x3E7 PUSH1 0x20 SHL PUSH1 0x20 SHR JUMP JUMPDEST DUP1 PUSH3 0x2B0 DUP2 PUSH3 0x9E0 JUMP JUMPDEST SWAP2 POP POP PUSH3 0x238 JUMP JUMPDEST DUP2 MLOAD PUSH3 0x2FC JUMPI PUSH1 0x40 MLOAD PUSH3 0x461BCD PUSH1 0xE5 SHL DUP2 MSTORE PUSH1 0x20 PUSH1 0x4 DUP3 ADD MSTORE PUSH1 0x10 PUSH1 0x24 DUP3 ADD MSTORE PUSH16 0x6E66745479706520697320656D707479 PUSH1 0x80 SHL PUSH1 0x44 DUP3 ADD MSTORE PUSH1 0x64 ADD PUSH3 0x136 JUMP JUMPDEST PUSH1 0x40 MLOAD PUSH4 0xF99A8FFB PUSH1 0xE0 SHL DUP2 MSTORE PUSH1 0x0 SWAP1 PUSH20 0x0 SWAP1 PUSH4 0xF99A8FFB SWAP1 PUSH3 0x338 SWAP1 DUP7 SWAP1 PUSH1 0x4 ADD PUSH3 0x91F JUMP JUMPDEST PUSH1 0x20 PUSH1 0x40 MLOAD DUP1 DUP4 SUB DUP2 DUP7 DUP1 EXTCODESIZE ISZERO DUP1 ISZERO PUSH3 0x351 JUMPI PUSH1 0x0 DUP1 REVERT JUMPDEST POP GAS DELEGATECALL ISZERO DUP1 ISZERO PUSH3 0x366 JUMPI RETURNDATASIZE PUSH1 0x0 DUP1 RETURNDATACOPY RETURNDATASIZE PUSH1 0x0 REVERT JUMPDEST POP POP POP POP PUSH1 0x40 MLOAD RETURNDATASIZE PUSH1 0x1F NOT PUSH1 0x1F DUP3 ADD AND DUP3 ADD DUP1 PUSH1 0x40 MSTORE POP DUP2 ADD SWAP1 PUSH3 0x38C SWAP2 SWAP1 PUSH3 0x906 JUMP JUMPDEST PUSH1 0x0 DUP2 DUP2 MSTORE PUSH1 0x2 PUSH1 0x20 MSTORE PUSH1 0x40 DUP1 DUP3 KECCAK256 DUP1 SLOAD PUSH1 0x1 PUSH1 0x1 PUSH1 0xA0 SHL SUB NOT AND PUSH1 0x1 PUSH1 0x1 PUSH1 0xA0 SHL SUB DUP8 AND SWAP1 DUP2 OR SWAP1 SWAP2 SSTORE SWAP1 MLOAD SWAP3 SWAP4 POP SWAP2 DUP4 SWAP2 PUSH32 0x22BE69269C1F7D73E73DCB25B710DD88C7AA1CF374C16D945DEF98DF2107C2F8 SWAP2 LOG3 POP POP POP JUMP JUMPDEST PUSH1 0x1 PUSH1 0x1 PUSH1 0xA0 SHL SUB DUP3 AND PUSH3 0x43F JUMPI PUSH1 0x40 MLOAD PUSH3 0x461BCD PUSH1 0xE5 SHL DUP2 MSTORE PUSH1 0x20 PUSH1 0x4 DUP3 ADD MSTORE PUSH1 0x1B PUSH1 0x24 DUP3 ADD MSTORE PUSH32 0x6E6674436F6E7472616374206973207A65726F20616464726573730000000000 PUSH1 0x44 DUP3 ADD MSTORE PUSH1 0x64 ADD PUSH3 0x136 JUMP JUMPDEST PUSH1 0x40 MLOAD PUSH4 0xF99A8FFB PUSH1 0xE0 SHL DUP2 MSTORE PUSH1 0x0 SWAP1 PUSH20 0x0 SWAP1 PUSH4 0xF99A8FFB SWAP1 PUSH3 0x47B SWAP1 DUP6 SWAP1 PUSH1 0x4 ADD PUSH3 0x91F JUMP JUMPDEST PUSH1 0x20 PUSH1 0x40 MLOAD DUP1 DUP4 SUB DUP2 DUP7 DUP1 EXTCODESIZE ISZERO DUP1 ISZERO PUSH3 0x494 JUMPI PUSH1 0x0 DUP1 REVERT JUMPDEST POP GAS DELEGATECALL ISZERO DUP1 ISZERO PUSH3 0x4A9 JUMPI RETURNDATASIZE PUSH1 0x0 DUP1 RETURNDATACOPY RETURNDATASIZE PUSH1 0x0 REVERT JUMPDEST POP POP POP POP PUSH1 0x40 MLOAD RETURNDATASIZE PUSH1 0x1F NOT PUSH1 0x1F DUP3 ADD AND DUP3 ADD DUP1 PUSH1 0x40 MSTORE POP DUP2 ADD SWAP1 PUSH3 0x4CF SWAP2 SWAP1 PUSH3 0x906 JUMP JUMPDEST SWAP1 POP DUP1 ISZERO PUSH3 0x53E JUMPI PUSH1 0x0 DUP2 DUP2 MSTORE PUSH1 0x2 PUSH1 0x20 MSTORE PUSH1 0x40 SWAP1 KECCAK256 SLOAD PUSH1 0x1 PUSH1 0x1 PUSH1 0xA0 SHL SUB AND PUSH3 0x53E JUMPI PUSH1 0x40 MLOAD PUSH3 0x461BCD PUSH1 0xE5 SHL DUP2 MSTORE PUSH1 0x20 PUSH1 0x4 DUP3 ADD MSTORE PUSH1 0x17 PUSH1 0x24 DUP3 ADD MSTORE PUSH32 0x4E46542074797065206E6F742072656769737465726564000000000000000000 PUSH1 0x44 DUP3 ADD MSTORE PUSH1 0x64 ADD PUSH3 0x136 JUMP JUMPDEST PUSH1 0x40 DUP1 MLOAD DUP1 DUP3 ADD DUP3 MSTORE PUSH1 0xE DUP2 MSTORE PUSH14 0x20B4B9323937B82BB930B83832B9 PUSH1 0x91 SHL PUSH1 0x20 DUP3 ADD MSTORE SWAP1 MLOAD PUSH4 0xF99A8FFB PUSH1 0xE0 SHL DUP2 MSTORE PUSH20 0x0 SWAP2 PUSH4 0xF99A8FFB SWAP2 PUSH3 0x599 SWAP2 SWAP1 PUSH1 0x4 ADD PUSH3 0x91F JUMP JUMPDEST PUSH1 0x20 PUSH1 0x40 MLOAD DUP1 DUP4 SUB DUP2 DUP7 DUP1 EXTCODESIZE ISZERO DUP1 ISZERO PUSH3 0x5B2 JUMPI PUSH1 0x0 DUP1 REVERT JUMPDEST POP GAS DELEGATECALL ISZERO DUP1 ISZERO PUSH3 0x5C7 JUMPI RETURNDATASIZE PUSH1 0x0 DUP1 RETURNDATACOPY RETURNDATASIZE PUSH1 0x0 REVERT JUMPDEST POP POP POP POP PUSH1 0x40 MLOAD RETURNDATASIZE PUSH1 0x1F NOT PUSH1 0x1F DUP3 ADD AND DUP3 ADD DUP1 PUSH1 0x40 MSTORE POP DUP2 ADD SWAP1 PUSH3 0x5ED SWAP2 SWAP1 PUSH3 0x906 JUMP JUMPDEST PUSH1 0x1 PUSH1 0x1 PUSH1 0xA0 SHL SUB DUP5 AND PUSH1 0x0 SWAP1 DUP2 MSTORE PUSH1 0x3 PUSH1 0x20 MSTORE PUSH1 0x40 SWAP1 KECCAK256 SLOAD EQ ISZERO PUSH3 0x656 JUMPI PUSH1 0x40 MLOAD PUSH3 0x461BCD PUSH1 0xE5 SHL DUP2 MSTORE PUSH1 0x20 PUSH1 0x4 DUP3 ADD DUP2 SWAP1 MSTORE PUSH1 0x24 DUP3 ADD MSTORE PUSH32 0x41697264726F70577261707065722063616E2774206265206D6F646966696564 PUSH1 0x44 DUP3 ADD MSTORE PUSH1 0x64 ADD PUSH3 0x136 JUMP JUMPDEST PUSH1 0x1 PUSH1 0x1 PUSH1 0xA0 SHL SUB DUP4 AND PUSH1 0x0 DUP2 DUP2 MSTORE PUSH1 0x3 PUSH1 0x20 MSTORE PUSH1 0x40 DUP1 DUP3 KECCAK256 DUP5 SWAP1 SSTORE MLOAD DUP4 SWAP3 SWAP2 PUSH32 0x903A211C8BCDC0AB18AFC116FC4776504A9AAC5C0121BE0FDA712D399017BD22 SWAP2 LOG3 POP POP POP JUMP JUMPDEST DUP1 MLOAD PUSH1 0x1 PUSH1 0x1 PUSH1 0xA0 SHL SUB DUP2 AND DUP2 EQ PUSH3 0x6B6 JUMPI PUSH1 0x0 DUP1 REVERT JUMPDEST SWAP2 SWAP1 POP JUMP JUMPDEST PUSH1 0x0 DUP3 PUSH1 0x1F DUP4 ADD SLT PUSH3 0x6CC JUMPI DUP1 DUP2 REVERT JUMPDEST DUP2 MLOAD PUSH1 0x20 PUSH3 0x6E5 PUSH3 0x6DF DUP4 PUSH3 0x987 JUMP JUMPDEST PUSH3 0x954 JUMP JUMPDEST DUP1 DUP4 DUP3 MSTORE DUP3 DUP3 ADD SWAP2 POP DUP3 DUP7 ADD DUP8 DUP5 DUP7 PUSH1 0x5 SHL DUP10 ADD ADD GT ISZERO PUSH3 0x705 JUMPI DUP6 DUP7 REVERT JUMPDEST DUP6 JUMPDEST DUP6 DUP2 LT ISZERO PUSH3 0x72E JUMPI PUSH3 0x71B DUP3 PUSH3 0x69E JUMP JUMPDEST DUP5 MSTORE SWAP3 DUP5 ADD SWAP3 SWAP1 DUP5 ADD SWAP1 PUSH1 0x1 ADD PUSH3 0x707 JUMP JUMPDEST POP SWAP1 SWAP8 SWAP7 POP POP POP POP POP POP POP JUMP JUMPDEST PUSH1 0x0 PUSH1 0x1F DUP4 DUP2 DUP5 ADD SLT PUSH3 0x74D JUMPI DUP2 DUP3 REVERT JUMPDEST DUP3 MLOAD PUSH1 0x20 PUSH3 0x760 PUSH3 0x6DF DUP4 PUSH3 0x987 JUMP JUMPDEST DUP1 DUP4 DUP3 MSTORE DUP3 DUP3 ADD SWAP2 POP DUP3 DUP8 ADD DUP9 DUP5 DUP7 PUSH1 0x5 SHL DUP11 ADD ADD GT ISZERO PUSH3 0x780 JUMPI DUP7 DUP8 REVERT JUMPDEST DUP7 JUMPDEST DUP6 DUP2 LT ISZERO PUSH3 0x81F JUMPI DUP2 MLOAD PUSH1 0x1 PUSH1 0x1 PUSH1 0x40 SHL SUB DUP1 DUP3 GT ISZERO PUSH3 0x7A2 JUMPI DUP10 DUP11 REVERT JUMPDEST DUP2 DUP12 ADD SWAP2 POP DUP12 PUSH1 0x3F DUP4 ADD SLT PUSH3 0x7B6 JUMPI DUP10 DUP11 REVERT JUMPDEST DUP7 DUP3 ADD MLOAD PUSH1 0x40 DUP3 DUP3 GT ISZERO PUSH3 0x7CF JUMPI PUSH3 0x7CF PUSH3 0xA08 JUMP JUMPDEST PUSH3 0x7E2 DUP3 DUP13 ADD PUSH1 0x1F NOT AND DUP11 ADD PUSH3 0x954 JUMP JUMPDEST SWAP3 POP DUP2 DUP4 MSTORE DUP14 DUP2 DUP4 DUP7 ADD ADD GT ISZERO PUSH3 0x7F8 JUMPI DUP12 DUP13 REVERT JUMPDEST PUSH3 0x809 DUP3 DUP11 DUP6 ADD DUP4 DUP8 ADD PUSH3 0x9AD JUMP JUMPDEST POP POP DUP6 MSTORE POP SWAP3 DUP5 ADD SWAP3 SWAP1 DUP5 ADD SWAP1 PUSH1 0x1 ADD PUSH3 0x782 JUMP JUMPDEST POP SWAP1 SWAP9 SWAP8 POP POP POP POP POP POP POP POP JUMP JUMPDEST PUSH1 0x0 DUP1 PUSH1 0x0 DUP1 PUSH1 0x0 DUP1 PUSH1 0xC0 DUP8 DUP10 SUB SLT ISZERO PUSH3 0x846 JUMPI DUP2 DUP3 REVERT JUMPDEST PUSH3 0x851 DUP8 PUSH3 0x69E JUMP JUMPDEST SWAP6 POP PUSH3 0x861 PUSH1 0x20 DUP9 ADD PUSH3 0x69E JUMP JUMPDEST PUSH1 0x40 DUP9 ADD MLOAD SWAP1 SWAP6 POP PUSH1 0x1 PUSH1 0x1 PUSH1 0x40 SHL SUB DUP1 DUP3 GT ISZERO PUSH3 0x87E JUMPI DUP4 DUP5 REVERT JUMPDEST PUSH3 0x88C DUP11 DUP4 DUP12 ADD PUSH3 0x73B JUMP JUMPDEST SWAP6 POP PUSH1 0x60 DUP10 ADD MLOAD SWAP2 POP DUP1 DUP3 GT ISZERO PUSH3 0x8A2 JUMPI DUP4 DUP5 REVERT JUMPDEST PUSH3 0x8B0 DUP11 DUP4 DUP12 ADD PUSH3 0x6BB JUMP JUMPDEST SWAP5 POP PUSH1 0x80 DUP10 ADD MLOAD SWAP2 POP DUP1 DUP3 GT ISZERO PUSH3 0x8C6 JUMPI DUP4 DUP5 REVERT JUMPDEST PUSH3 0x8D4 DUP11 DUP4 DUP12 ADD PUSH3 0x6BB JUMP JUMPDEST SWAP4 POP PUSH1 0xA0 DUP10 ADD MLOAD SWAP2 POP DUP1 DUP3 GT ISZERO PUSH3 0x8EA JUMPI DUP3 DUP4 REVERT JUMPDEST POP PUSH3 0x8F9 DUP10 DUP3 DUP11 ADD PUSH3 0x73B JUMP JUMPDEST SWAP2 POP POP SWAP3 SWAP6 POP SWAP3 SWAP6 POP SWAP3 SWAP6 JUMP JUMPDEST PUSH1 0x0 PUSH1 0x20 DUP3 DUP5 SUB SLT ISZERO PUSH3 0x918 JUMPI DUP1 DUP2 REVERT JUMPDEST POP MLOAD SWAP2 SWAP1 POP JUMP JUMPDEST PUSH1 0x20 DUP2 MSTORE PUSH1 0x0 DUP3 MLOAD DUP1 PUSH1 0x20 DUP5 ADD MSTORE PUSH3 0x940 DUP2 PUSH1 0x40 DUP6 ADD PUSH1 0x20 DUP8 ADD PUSH3 0x9AD JUMP JUMPDEST PUSH1 0x1F ADD PUSH1 0x1F NOT AND SWAP2 SWAP1 SWAP2 ADD PUSH1 0x40 ADD SWAP3 SWAP2 POP POP JUMP JUMPDEST PUSH1 0x40 MLOAD PUSH1 0x1F DUP3 ADD PUSH1 0x1F NOT AND DUP2 ADD PUSH1 0x1 PUSH1 0x1 PUSH1 0x40 SHL SUB DUP2 GT DUP3 DUP3 LT OR ISZERO PUSH3 0x97F JUMPI PUSH3 0x97F PUSH3 0xA08 JUMP JUMPDEST PUSH1 0x40 MSTORE SWAP2 SWAP1 POP JUMP JUMPDEST PUSH1 0x0 PUSH1 0x1 PUSH1 0x1 PUSH1 0x40 SHL SUB DUP3 GT ISZERO PUSH3 0x9A3 JUMPI PUSH3 0x9A3 PUSH3 0xA08 JUMP JUMPDEST POP PUSH1 0x5 SHL PUSH1 0x20 ADD SWAP1 JUMP JUMPDEST PUSH1 0x0 JUMPDEST DUP4 DUP2 LT ISZERO PUSH3 0x9CA JUMPI DUP2 DUP2 ADD MLOAD DUP4 DUP3 ADD MSTORE PUSH1 0x20 ADD PUSH3 0x9B0 JUMP JUMPDEST DUP4 DUP2 GT ISZERO PUSH3 0x9DA JUMPI PUSH1 0x0 DUP5 DUP5 ADD MSTORE JUMPDEST POP POP POP POP JUMP JUMPDEST PUSH1 0x0 PUSH1 0x0 NOT DUP3 EQ ISZERO PUSH3 0xA01 JUMPI PUSH4 0x4E487B71 PUSH1 0xE0 SHL DUP2 MSTORE PUSH1 0x11 PUSH1 0x4 MSTORE PUSH1 0x24 DUP2 REVERT JUMPDEST POP PUSH1 0x1 ADD SWAP1 JUMP JUMPDEST PUSH4 0x4E487B71 PUSH1 0xE0 SHL PUSH1 0x0 MSTORE PUSH1 0x41 PUSH1 0x4 MSTORE PUSH1 0x24 PUSH1 0x0 REVERT JUMPDEST PUSH2 0x1012 DUP1 PUSH3 0xA2E PUSH1 0x0 CODECOPY PUSH1 0x0 RETURN INVALID PUSH1 0x80 PUSH1 0x40 MSTORE CALLVALUE DUP1 ISZERO PUSH2 0x10 JUMPI PUSH1 0x0 DUP1 REVERT JUMPDEST POP PUSH1 0x4 CALLDATASIZE LT PUSH2 0x9E JUMPI PUSH1 0x0 CALLDATALOAD PUSH1 0xE0 SHR DUP1 PUSH4 0x95244B94 GT PUSH2 0x66 JUMPI DUP1 PUSH4 0x95244B94 EQ PUSH2 0x13A JUMPI DUP1 PUSH4 0xB8C8AFF8 EQ PUSH2 0x14D JUMPI DUP1 PUSH4 0xC88641A2 EQ PUSH2 0x160 JUMPI DUP1 PUSH4 0xD8E4E93E EQ PUSH2 0x173 JUMPI DUP1 PUSH4 0xF2FDE38B EQ PUSH2 0x186 JUMPI PUSH1 0x0 DUP1 REVERT JUMPDEST DUP1 PUSH4 0xA21CC43 EQ PUSH2 0xA3 JUMPI DUP1 PUSH4 0x1A3DD0A5 EQ PUSH2 0xB8 JUMPI DUP1 PUSH4 0x365A86FC EQ PUSH2 0xE8 JUMPI DUP1 PUSH4 0x6651F11D EQ PUSH2 0xFB JUMPI DUP1 PUSH4 0x8DA5CB5B EQ PUSH2 0x132 JUMPI JUMPDEST PUSH1 0x0 DUP1 REVERT JUMPDEST PUSH2 0xB6 PUSH2 0xB1 CALLDATASIZE PUSH1 0x4 PUSH2 0xDDA JUMP JUMPDEST PUSH2 0x199 JUMP JUMPDEST STOP JUMPDEST PUSH2 0xCB PUSH2 0xC6 CALLDATASIZE PUSH1 0x4 PUSH2 0xE30 JUMP JUMPDEST PUSH2 0x1DF JUMP JUMPDEST PUSH1 0x40 MLOAD PUSH1 0x1 PUSH1 0x1 PUSH1 0xA0 SHL SUB SWAP1 SWAP2 AND DUP2 MSTORE PUSH1 0x20 ADD JUMPDEST PUSH1 0x40 MLOAD DUP1 SWAP2 SUB SWAP1 RETURN JUMPDEST PUSH1 0x1 SLOAD PUSH2 0xCB SWAP1 PUSH1 0x1 PUSH1 0x1 PUSH1 0xA0 SHL SUB AND DUP2 JUMP JUMPDEST PUSH2 0x124 PUSH2 0x109 CALLDATASIZE PUSH1 0x4 PUSH2 0xCFF JUMP JUMPDEST PUSH1 0x1 PUSH1 0x1 PUSH1 0xA0 SHL SUB AND PUSH1 0x0 SWAP1 DUP2 MSTORE PUSH1 0x3 PUSH1 0x20 MSTORE PUSH1 0x40 SWAP1 KECCAK256 SLOAD SWAP1 JUMP JUMPDEST PUSH1 0x40 MLOAD SWAP1 DUP2 MSTORE PUSH1 0x20 ADD PUSH2 0xDF JUMP JUMPDEST PUSH2 0xCB PUSH2 0x1FA JUMP JUMPDEST PUSH2 0xB6 PUSH2 0x148 CALLDATASIZE PUSH1 0x4 PUSH2 0xD84 JUMP JUMPDEST PUSH2 0x209 JUMP JUMPDEST PUSH2 0xCB PUSH2 0x15B CALLDATASIZE PUSH1 0x4 PUSH2 0xCFF JUMP JUMPDEST PUSH2 0x242 JUMP JUMPDEST PUSH2 0xB6 PUSH2 0x16E CALLDATASIZE PUSH1 0x4 PUSH2 0xD37 JUMP JUMPDEST PUSH2 0x26B JUMP JUMPDEST PUSH2 0xB6 PUSH2 0x181 CALLDATASIZE PUSH1 0x4 PUSH2 0xE60 JUMP JUMPDEST PUSH2 0x4F3 JUMP JUMPDEST PUSH2 0xB6 PUSH2 0x194 CALLDATASIZE PUSH1 0x4 PUSH2 0xCFF JUMP JUMPDEST PUSH2 0x52C JUMP JUMPDEST CALLER PUSH2 0x1A2 PUSH2 0x1FA JUMP JUMPDEST PUSH1 0x1 PUSH1 0x1 PUSH1 0xA0 SHL SUB AND EQ PUSH2 0x1D1 JUMPI PUSH1 0x40 MLOAD PUSH3 0x461BCD PUSH1 0xE5 SHL DUP2 MSTORE PUSH1 0x4 ADD PUSH2 0x1C8 SWAP1 PUSH2 0xF02 JUMP JUMPDEST PUSH1 0x40 MLOAD DUP1 SWAP2 SUB SWAP1 REVERT JUMPDEST PUSH2 0x1DB DUP3 DUP3 PUSH2 0x5CC JUMP JUMPDEST POP POP JUMP JUMPDEST PUSH1 0x0 SWAP1 DUP2 MSTORE PUSH1 0x2 PUSH1 0x20 MSTORE PUSH1 0x40 SWAP1 KECCAK256 SLOAD PUSH1 0x1 PUSH1 0x1 PUSH1 0xA0 SHL SUB AND SWAP1 JUMP JUMPDEST PUSH1 0x0 SLOAD PUSH1 0x1 PUSH1 0x1 PUSH1 0xA0 SHL SUB AND SWAP1 JUMP JUMPDEST CALLER PUSH2 0x212 PUSH2 0x1FA JUMP JUMPDEST PUSH1 0x1 PUSH1 0x1 PUSH1 0xA0 SHL SUB AND EQ PUSH2 0x238 JUMPI PUSH1 0x40 MLOAD PUSH3 0x461BCD PUSH1 0xE5 SHL DUP2 MSTORE PUSH1 0x4 ADD PUSH2 0x1C8 SWAP1 PUSH2 0xF02 JUMP JUMPDEST PUSH2 0x1DB DUP3 DUP3 PUSH2 0x6AB JUMP JUMPDEST PUSH1 0x1 PUSH1 0x1 PUSH1 0xA0 SHL SUB DUP2 AND PUSH1 0x0 SWAP1 DUP2 MSTORE PUSH1 0x3 PUSH1 0x20 MSTORE PUSH1 0x40 DUP2 KECCAK256 SLOAD PUSH2 0x264 DUP2 PUSH2 0x1DF JUMP JUMPDEST SWAP4 SWAP3 POP POP POP JUMP JUMPDEST PUSH1 0x40 DUP1 MLOAD DUP1 DUP3 ADD DUP3 MSTORE PUSH1 0xE DUP2 MSTORE PUSH14 0x20B4B9323937B82BB930B83832B9 PUSH1 0x91 SHL PUSH1 0x20 DUP3 ADD MSTORE SWAP1 MLOAD PUSH4 0xF99A8FFB PUSH1 0xE0 SHL DUP2 MSTORE DUP3 SWAP2 PUSH20 0x0 SWAP2 PUSH4 0xF99A8FFB SWAP2 PUSH2 0x2C5 SWAP2 PUSH1 0x4 ADD PUSH2 0xEAF JUMP JUMPDEST PUSH1 0x20 PUSH1 0x40 MLOAD DUP1 DUP4 SUB DUP2 DUP7 DUP1 EXTCODESIZE ISZERO DUP1 ISZERO PUSH2 0x2DD JUMPI PUSH1 0x0 DUP1 REVERT JUMPDEST POP GAS DELEGATECALL ISZERO DUP1 ISZERO PUSH2 0x2F1 JUMPI RETURNDATASIZE PUSH1 0x0 DUP1 RETURNDATACOPY RETURNDATASIZE PUSH1 0x0 REVERT JUMPDEST POP POP POP POP PUSH1 0x40 MLOAD RETURNDATASIZE PUSH1 0x1F NOT PUSH1 0x1F DUP3 ADD AND DUP3 ADD DUP1 PUSH1 0x40 MSTORE POP DUP2 ADD SWAP1 PUSH2 0x315 SWAP2 SWAP1 PUSH2 0xE48 JUMP JUMPDEST PUSH1 0x40 MLOAD PUSH4 0xF99A8FFB PUSH1 0xE0 SHL DUP2 MSTORE PUSH20 0x0 SWAP1 PUSH4 0xF99A8FFB SWAP1 PUSH2 0x34C SWAP1 DUP6 SWAP1 PUSH1 0x4 ADD PUSH2 0xEAF JUMP JUMPDEST PUSH1 0x20 PUSH1 0x40 MLOAD DUP1 DUP4 SUB DUP2 DUP7 DUP1 EXTCODESIZE ISZERO DUP1 ISZERO PUSH2 0x364 JUMPI PUSH1 0x0 DUP1 REVERT JUMPDEST POP GAS DELEGATECALL ISZERO DUP1 ISZERO PUSH2 0x378 JUMPI RETURNDATASIZE PUSH1 0x0 DUP1 RETURNDATACOPY RETURNDATASIZE PUSH1 0x0 REVERT JUMPDEST POP POP POP POP PUSH1 0x40 MLOAD RETURNDATASIZE PUSH1 0x1F NOT PUSH1 0x1F DUP3 ADD AND DUP3 ADD DUP1 PUSH1 0x40 MSTORE POP DUP2 ADD SWAP1 PUSH2 0x39C SWAP2 SWAP1 PUSH2 0xE48 JUMP JUMPDEST EQ ISZERO PUSH2 0x48F JUMPI CALLER PUSH1 0x1 SLOAD PUSH1 0x40 MLOAD PUSH4 0x1C2D8FB3 PUSH1 0xE3 SHL DUP2 MSTORE PUSH15 0x41495244524F505F464143544F5259 PUSH1 0x88 SHL PUSH1 0x4 DUP3 ADD MSTORE PUSH1 0x1 PUSH1 0x1 PUSH1 0xA0 SHL SUB SWAP3 DUP4 AND SWAP3 SWAP1 SWAP2 AND SWAP1 PUSH4 0xE16C7D98 SWAP1 PUSH1 0x24 ADD PUSH1 0x20 PUSH1 0x40 MLOAD DUP1 DUP4 SUB DUP2 DUP7 DUP1 EXTCODESIZE ISZERO DUP1 ISZERO PUSH2 0x3FC JUMPI PUSH1 0x0 DUP1 REVERT JUMPDEST POP GAS STATICCALL ISZERO DUP1 ISZERO PUSH2 0x410 JUMPI RETURNDATASIZE PUSH1 0x0 DUP1 RETURNDATACOPY RETURNDATASIZE PUSH1 0x0 REVERT JUMPDEST POP POP POP POP PUSH1 0x40 MLOAD RETURNDATASIZE PUSH1 0x1F NOT PUSH1 0x1F DUP3 ADD AND DUP3 ADD DUP1 PUSH1 0x40 MSTORE POP DUP2 ADD SWAP1 PUSH2 0x434 SWAP2 SWAP1 PUSH2 0xD1B JUMP JUMPDEST PUSH1 0x1 PUSH1 0x1 PUSH1 0xA0 SHL SUB AND EQ PUSH2 0x48A JUMPI PUSH1 0x40 MLOAD PUSH3 0x461BCD PUSH1 0xE5 SHL DUP2 MSTORE PUSH1 0x20 PUSH1 0x4 DUP3 ADD MSTORE PUSH1 0x1C PUSH1 0x24 DUP3 ADD MSTORE PUSH32 0x63616C6C6572206973206E6F742041697264726F70466163746F727900000000 PUSH1 0x44 DUP3 ADD MSTORE PUSH1 0x64 ADD PUSH2 0x1C8 JUMP JUMPDEST PUSH2 0x4E4 JUMP JUMPDEST CALLER PUSH2 0x498 PUSH2 0x1FA JUMP JUMPDEST PUSH1 0x1 PUSH1 0x1 PUSH1 0xA0 SHL SUB AND EQ PUSH2 0x4E4 JUMPI PUSH1 0x40 MLOAD PUSH3 0x461BCD PUSH1 0xE5 SHL DUP2 MSTORE PUSH1 0x20 PUSH1 0x4 DUP3 ADD MSTORE PUSH1 0x13 PUSH1 0x24 DUP3 ADD MSTORE PUSH19 0x31B0B63632B91034B9903737BA1037BBB732B9 PUSH1 0x69 SHL PUSH1 0x44 DUP3 ADD MSTORE PUSH1 0x64 ADD PUSH2 0x1C8 JUMP JUMPDEST PUSH2 0x4EE DUP4 DUP4 PUSH2 0x78C JUMP JUMPDEST POP POP POP JUMP JUMPDEST CALLER PUSH2 0x4FC PUSH2 0x1FA JUMP JUMPDEST PUSH1 0x1 PUSH1 0x1 PUSH1 0xA0 SHL SUB AND EQ PUSH2 0x522 JUMPI PUSH1 0x40 MLOAD PUSH3 0x461BCD PUSH1 0xE5 SHL DUP2 MSTORE PUSH1 0x4 ADD PUSH2 0x1C8 SWAP1 PUSH2 0xF02 JUMP JUMPDEST PUSH2 0x1DB DUP3 DUP3 PUSH2 0xA28 JUMP JUMPDEST CALLER PUSH2 0x535 PUSH2 0x1FA JUMP JUMPDEST PUSH1 0x1 PUSH1 0x1 PUSH1 0xA0 SHL SUB AND EQ PUSH2 0x55B JUMPI PUSH1 0x40 MLOAD PUSH3 0x461BCD PUSH1 0xE5 SHL DUP2 MSTORE PUSH1 0x4 ADD PUSH2 0x1C8 SWAP1 PUSH2 0xF02 JUMP JUMPDEST PUSH1 0x1 PUSH1 0x1 PUSH1 0xA0 SHL SUB DUP2 AND PUSH2 0x5C0 JUMPI PUSH1 0x40 MLOAD PUSH3 0x461BCD PUSH1 0xE5 SHL DUP2 MSTORE PUSH1 0x20 PUSH1 0x4 DUP3 ADD MSTORE PUSH1 0x26 PUSH1 0x24 DUP3 ADD MSTORE PUSH32 0x4F776E61626C653A206E6577206F776E657220697320746865207A65726F2061 PUSH1 0x44 DUP3 ADD MSTORE PUSH6 0x646472657373 PUSH1 0xD0 SHL PUSH1 0x64 DUP3 ADD MSTORE PUSH1 0x84 ADD PUSH2 0x1C8 JUMP JUMPDEST PUSH2 0x5C9 DUP2 PUSH2 0xB4E JUMP JUMPDEST POP JUMP JUMPDEST DUP1 MLOAD DUP3 MLOAD EQ PUSH2 0x635 JUMPI PUSH1 0x40 MLOAD PUSH3 0x461BCD PUSH1 0xE5 SHL DUP2 MSTORE PUSH1 0x20 PUSH1 0x4 DUP3 ADD MSTORE PUSH1 0x2F PUSH1 0x24 DUP3 ADD MSTORE PUSH32 0x7365744E667454797065732066756E6374696F6E20696E666F726D6174696F6E PUSH1 0x44 DUP3 ADD MSTORE PUSH15 0x40C2E4D2E8F240DAD2E6DAC2E8C6D PUSH1 0x8B SHL PUSH1 0x64 DUP3 ADD MSTORE PUSH1 0x84 ADD PUSH2 0x1C8 JUMP JUMPDEST PUSH1 0x0 JUMPDEST DUP2 MLOAD DUP2 LT ISZERO PUSH2 0x4EE JUMPI PUSH2 0x699 DUP4 DUP3 DUP2 MLOAD DUP2 LT PUSH2 0x664 JUMPI PUSH4 0x4E487B71 PUSH1 0xE0 SHL PUSH1 0x0 MSTORE PUSH1 0x32 PUSH1 0x4 MSTORE PUSH1 0x24 PUSH1 0x0 REVERT JUMPDEST PUSH1 0x20 MUL PUSH1 0x20 ADD ADD MLOAD DUP4 DUP4 DUP2 MLOAD DUP2 LT PUSH2 0x68C JUMPI PUSH4 0x4E487B71 PUSH1 0xE0 SHL PUSH1 0x0 MSTORE PUSH1 0x32 PUSH1 0x4 MSTORE PUSH1 0x24 PUSH1 0x0 REVERT JUMPDEST PUSH1 0x20 MUL PUSH1 0x20 ADD ADD MLOAD PUSH2 0xA28 JUMP JUMPDEST DUP1 PUSH2 0x6A3 DUP2 PUSH2 0xF8A JUMP JUMPDEST SWAP2 POP POP PUSH2 0x638 JUMP JUMPDEST DUP1 MLOAD DUP3 MLOAD EQ PUSH2 0x716 JUMPI PUSH1 0x40 MLOAD PUSH3 0x461BCD PUSH1 0xE5 SHL DUP2 MSTORE PUSH1 0x20 PUSH1 0x4 DUP3 ADD MSTORE PUSH1 0x31 PUSH1 0x24 DUP3 ADD MSTORE PUSH32 0x7365744E46545065726D6974732066756E6374696F6E20696E666F726D617469 PUSH1 0x44 DUP3 ADD MSTORE PUSH17 0xDEDC40C2E4D2E8F240DAD2E6DAC2E8C6D PUSH1 0x7B SHL PUSH1 0x64 DUP3 ADD MSTORE PUSH1 0x84 ADD PUSH2 0x1C8 JUMP JUMPDEST PUSH1 0x0 JUMPDEST DUP3 MLOAD DUP2 LT ISZERO PUSH2 0x4EE JUMPI PUSH2 0x77A DUP4 DUP3 DUP2 MLOAD DUP2 LT PUSH2 0x745 JUMPI PUSH4 0x4E487B71 PUSH1 0xE0 SHL PUSH1 0x0 MSTORE PUSH1 0x32 PUSH1 0x4 MSTORE PUSH1 0x24 PUSH1 0x0 REVERT JUMPDEST PUSH1 0x20 MUL PUSH1 0x20 ADD ADD MLOAD DUP4 DUP4 DUP2 MLOAD DUP2 LT PUSH2 0x76D JUMPI PUSH4 0x4E487B71 PUSH1 0xE0 SHL PUSH1 0x0 MSTORE PUSH1 0x32 PUSH1 0x4 MSTORE PUSH1 0x24 PUSH1 0x0 REVERT JUMPDEST PUSH1 0x20 MUL PUSH1 0x20 ADD ADD MLOAD PUSH2 0x78C JUMP JUMPDEST DUP1 PUSH2 0x784 DUP2 PUSH2 0xF8A JUMP JUMPDEST SWAP2 POP POP PUSH2 0x719 JUMP JUMPDEST PUSH1 0x1 PUSH1 0x1 PUSH1 0xA0 SHL SUB DUP3 AND PUSH2 0x7E2 JUMPI PUSH1 0x40 MLOAD PUSH3 0x461BCD PUSH1 0xE5 SHL DUP2 MSTORE PUSH1 0x20 PUSH1 0x4 DUP3 ADD MSTORE PUSH1 0x1B PUSH1 0x24 DUP3 ADD MSTORE PUSH32 0x6E6674436F6E7472616374206973207A65726F20616464726573730000000000 PUSH1 0x44 DUP3 ADD MSTORE PUSH1 0x64 ADD PUSH2 0x1C8 JUMP JUMPDEST PUSH1 0x40 MLOAD PUSH4 0xF99A8FFB PUSH1 0xE0 SHL DUP2 MSTORE PUSH1 0x0 SWAP1 PUSH20 0x0 SWAP1 PUSH4 0xF99A8FFB SWAP1 PUSH2 0x81C SWAP1 DUP6 SWAP1 PUSH1 0x4 ADD PUSH2 0xEAF JUMP JUMPDEST PUSH1 0x20 PUSH1 0x40 MLOAD DUP1 DUP4 SUB DUP2 DUP7 DUP1 EXTCODESIZE ISZERO DUP1 ISZERO PUSH2 0x834 JUMPI PUSH1 0x0 DUP1 REVERT JUMPDEST POP GAS DELEGATECALL ISZERO DUP1 ISZERO PUSH2 0x848 JUMPI RETURNDATASIZE PUSH1 0x0 DUP1 RETURNDATACOPY RETURNDATASIZE PUSH1 0x0 REVERT JUMPDEST POP POP POP POP PUSH1 0x40 MLOAD RETURNDATASIZE PUSH1 0x1F NOT PUSH1 0x1F DUP3 ADD AND DUP3 ADD DUP1 PUSH1 0x40 MSTORE POP DUP2 ADD SWAP1 PUSH2 0x86C SWAP2 SWAP1 PUSH2 0xE48 JUMP JUMPDEST SWAP1 POP DUP1 ISZERO PUSH2 0x8D0 JUMPI PUSH1 0x0 PUSH2 0x87F DUP3 PUSH2 0x1DF JUMP JUMPDEST PUSH1 0x1 PUSH1 0x1 PUSH1 0xA0 SHL SUB AND EQ ISZERO PUSH2 0x8D0 JUMPI PUSH1 0x40 MLOAD PUSH3 0x461BCD PUSH1 0xE5 SHL DUP2 MSTORE PUSH1 0x20 PUSH1 0x4 DUP3 ADD MSTORE PUSH1 0x17 PUSH1 0x24 DUP3 ADD MSTORE PUSH23 0x139195081D1E5C19481B9BDD081C9959DA5CDD195C9959 PUSH1 0x4A SHL PUSH1 0x44 DUP3 ADD MSTORE PUSH1 0x64 ADD PUSH2 0x1C8 JUMP JUMPDEST PUSH1 0x40 DUP1 MLOAD DUP1 DUP3 ADD DUP3 MSTORE PUSH1 0xE DUP2 MSTORE PUSH14 0x20B4B9323937B82BB930B83832B9 PUSH1 0x91 SHL PUSH1 0x20 DUP3 ADD MSTORE SWAP1 MLOAD PUSH4 0xF99A8FFB PUSH1 0xE0 SHL DUP2 MSTORE PUSH20 0x0 SWAP2 PUSH4 0xF99A8FFB SWAP2 PUSH2 0x929 SWAP2 SWAP1 PUSH1 0x4 ADD PUSH2 0xEAF JUMP JUMPDEST PUSH1 0x20 PUSH1 0x40 MLOAD DUP1 DUP4 SUB DUP2 DUP7 DUP1 EXTCODESIZE ISZERO DUP1 ISZERO PUSH2 0x941 JUMPI PUSH1 0x0 DUP1 REVERT JUMPDEST POP GAS DELEGATECALL ISZERO DUP1 ISZERO PUSH2 0x955 JUMPI RETURNDATASIZE PUSH1 0x0 DUP1 RETURNDATACOPY RETURNDATASIZE PUSH1 0x0 REVERT JUMPDEST POP POP POP POP PUSH1 0x40 MLOAD RETURNDATASIZE PUSH1 0x1F NOT PUSH1 0x1F DUP3 ADD AND DUP3 ADD DUP1 PUSH1 0x40 MSTORE POP DUP2 ADD SWAP1 PUSH2 0x979 SWAP2 SWAP1 PUSH2 0xE48 JUMP JUMPDEST PUSH1 0x1 PUSH1 0x1 PUSH1 0xA0 SHL SUB DUP5 AND PUSH1 0x0 SWAP1 DUP2 MSTORE PUSH1 0x3 PUSH1 0x20 MSTORE PUSH1 0x40 SWAP1 KECCAK256 SLOAD EQ ISZERO PUSH2 0x9E0 JUMPI PUSH1 0x40 MLOAD PUSH3 0x461BCD PUSH1 0xE5 SHL DUP2 MSTORE PUSH1 0x20 PUSH1 0x4 DUP3 ADD DUP2 SWAP1 MSTORE PUSH1 0x24 DUP3 ADD MSTORE PUSH32 0x41697264726F70577261707065722063616E2774206265206D6F646966696564 PUSH1 0x44 DUP3 ADD MSTORE PUSH1 0x64 ADD PUSH2 0x1C8 JUMP JUMPDEST PUSH1 0x1 PUSH1 0x1 PUSH1 0xA0 SHL SUB DUP4 AND PUSH1 0x0 DUP2 DUP2 MSTORE PUSH1 0x3 PUSH1 0x20 MSTORE PUSH1 0x40 DUP1 DUP3 KECCAK256 DUP5 SWAP1 SSTORE MLOAD DUP4 SWAP3 SWAP2 PUSH32 0x903A211C8BCDC0AB18AFC116FC4776504A9AAC5C0121BE0FDA712D399017BD22 SWAP2 LOG3 POP POP POP JUMP JUMPDEST DUP2 MLOAD PUSH2 0xA69 JUMPI PUSH1 0x40 MLOAD PUSH3 0x461BCD PUSH1 0xE5 SHL DUP2 MSTORE PUSH1 0x20 PUSH1 0x4 DUP3 ADD MSTORE PUSH1 0x10 PUSH1 0x24 DUP3 ADD MSTORE PUSH16 0x6E66745479706520697320656D707479 PUSH1 0x80 SHL PUSH1 0x44 DUP3 ADD MSTORE PUSH1 0x64 ADD PUSH2 0x1C8 JUMP JUMPDEST PUSH1 0x40 MLOAD PUSH4 0xF99A8FFB PUSH1 0xE0 SHL DUP2 MSTORE PUSH1 0x0 SWAP1 PUSH20 0x0 SWAP1 PUSH4 0xF99A8FFB SWAP1 PUSH2 0xAA3 SWAP1 DUP7 SWAP1 PUSH1 0x4 ADD PUSH2 0xEAF JUMP JUMPDEST PUSH1 0x20 PUSH1 0x40 MLOAD DUP1 DUP4 SUB DUP2 DUP7 DUP1 EXTCODESIZE ISZERO DUP1 ISZERO PUSH2 0xABB JUMPI PUSH1 0x0 DUP1 REVERT JUMPDEST POP GAS DELEGATECALL ISZERO DUP1 ISZERO PUSH2 0xACF JUMPI RETURNDATASIZE PUSH1 0x0 DUP1 RETURNDATACOPY RETURNDATASIZE PUSH1 0x0 REVERT JUMPDEST POP POP POP POP PUSH1 0x40 MLOAD RETURNDATASIZE PUSH1 0x1F NOT PUSH1 0x1F DUP3 ADD AND DUP3 ADD DUP1 PUSH1 0x40 MSTORE POP DUP2 ADD SWAP1 PUSH2 0xAF3 SWAP2 SWAP1 PUSH2 0xE48 JUMP JUMPDEST PUSH1 0x0 DUP2 DUP2 MSTORE PUSH1 0x2 PUSH1 0x20 MSTORE PUSH1 0x40 DUP1 DUP3 KECCAK256 DUP1 SLOAD PUSH1 0x1 PUSH1 0x1 PUSH1 0xA0 SHL SUB NOT AND PUSH1 0x1 PUSH1 0x1 PUSH1 0xA0 SHL SUB DUP8 AND SWAP1 DUP2 OR SWAP1 SWAP2 SSTORE SWAP1 MLOAD SWAP3 SWAP4 POP SWAP2 DUP4 SWAP2 PUSH32 0x22BE69269C1F7D73E73DCB25B710DD88C7AA1CF374C16D945DEF98DF2107C2F8 SWAP2 LOG3 POP POP POP JUMP JUMPDEST PUSH1 0x0 DUP1 SLOAD PUSH1 0x1 PUSH1 0x1 PUSH1 0xA0 SHL SUB DUP4 DUP2 AND PUSH1 0x1 PUSH1 0x1 PUSH1 0xA0 SHL SUB NOT DUP4 AND DUP2 OR DUP5 SSTORE PUSH1 0x40 MLOAD SWAP2 SWAP1 SWAP3 AND SWAP3 DUP4 SWAP2 PUSH32 0x8BE0079C531659141344CD1FD0A4F28419497F9722A3DAAFE3B4186F6B6457E0 SWAP2 SWAP1 LOG3 POP POP JUMP JUMPDEST PUSH1 0x0 DUP3 PUSH1 0x1F DUP4 ADD SLT PUSH2 0xBAE JUMPI DUP1 DUP2 REVERT JUMPDEST DUP2 CALLDATALOAD PUSH1 0x20 PUSH2 0xBC3 PUSH2 0xBBE DUP4 PUSH2 0xF67 JUMP JUMPDEST PUSH2 0xF37 JUMP JUMPDEST DUP1 DUP4 DUP3 MSTORE DUP3 DUP3 ADD SWAP2 POP DUP3 DUP7 ADD DUP8 DUP5 DUP7 PUSH1 0x5 SHL DUP10 ADD ADD GT ISZERO PUSH2 0xBE2 JUMPI DUP6 DUP7 REVERT JUMPDEST DUP6 JUMPDEST DUP6 DUP2 LT ISZERO PUSH2 0xC09 JUMPI DUP2 CALLDATALOAD PUSH2 0xBF7 DUP2 PUSH2 0xFC7 JUMP JUMPDEST DUP5 MSTORE SWAP3 DUP5 ADD SWAP3 SWAP1 DUP5 ADD SWAP1 PUSH1 0x1 ADD PUSH2 0xBE4 JUMP JUMPDEST POP SWAP1 SWAP8 SWAP7 POP POP POP POP POP POP POP JUMP JUMPDEST PUSH1 0x0 DUP3 PUSH1 0x1F DUP4 ADD SLT PUSH2 0xC26 JUMPI DUP1 DUP2 REVERT JUMPDEST DUP2 CALLDATALOAD PUSH1 0x20 PUSH2 0xC36 PUSH2 0xBBE DUP4 PUSH2 0xF67 JUMP JUMPDEST DUP1 DUP4 DUP3 MSTORE DUP3 DUP3 ADD SWAP2 POP DUP3 DUP7 ADD DUP8 DUP5 DUP7 PUSH1 0x5 SHL DUP10 ADD ADD GT ISZERO PUSH2 0xC55 JUMPI DUP6 DUP7 REVERT JUMPDEST DUP6 JUMPDEST DUP6 DUP2 LT ISZERO PUSH2 0xC09 JUMPI DUP2 CALLDATALOAD PUSH1 0x1 PUSH1 0x1 PUSH1 0x40 SHL SUB DUP2 GT ISZERO PUSH2 0xC74 JUMPI DUP8 DUP9 REVERT JUMPDEST PUSH2 0xC82 DUP11 DUP8 DUP4 DUP13 ADD ADD PUSH2 0xC95 JUMP JUMPDEST DUP6 MSTORE POP SWAP3 DUP5 ADD SWAP3 SWAP1 DUP5 ADD SWAP1 PUSH1 0x1 ADD PUSH2 0xC57 JUMP JUMPDEST PUSH1 0x0 DUP3 PUSH1 0x1F DUP4 ADD SLT PUSH2 0xCA5 JUMPI DUP1 DUP2 REVERT JUMPDEST DUP2 CALLDATALOAD PUSH1 0x1 PUSH1 0x1 PUSH1 0x40 SHL SUB DUP2 GT ISZERO PUSH2 0xCBE JUMPI PUSH2 0xCBE PUSH2 0xFB1 JUMP JUMPDEST PUSH2 0xCD1 PUSH1 0x1F DUP3 ADD PUSH1 0x1F NOT AND PUSH1 0x20 ADD PUSH2 0xF37 JUMP JUMPDEST DUP2 DUP2 MSTORE DUP5 PUSH1 0x20 DUP4 DUP7 ADD ADD GT ISZERO PUSH2 0xCE5 JUMPI DUP3 DUP4 REVERT JUMPDEST DUP2 PUSH1 0x20 DUP6 ADD PUSH1 0x20 DUP4 ADD CALLDATACOPY SWAP1 DUP2 ADD PUSH1 0x20 ADD SWAP2 SWAP1 SWAP2 MSTORE SWAP3 SWAP2 POP POP JUMP JUMPDEST PUSH1 0x0 PUSH1 0x20 DUP3 DUP5 SUB SLT ISZERO PUSH2 0xD10 JUMPI DUP1 DUP2 REVERT JUMPDEST DUP2 CALLDATALOAD PUSH2 0x264 DUP2 PUSH2 0xFC7 JUMP JUMPDEST PUSH1 0x0 PUSH1 0x20 DUP3 DUP5 SUB SLT ISZERO PUSH2 0xD2C JUMPI DUP1 DUP2 REVERT JUMPDEST DUP2 MLOAD PUSH2 0x264 DUP2 PUSH2 0xFC7 JUMP JUMPDEST PUSH1 0x0 DUP1 PUSH1 0x40 DUP4 DUP6 SUB SLT ISZERO PUSH2 0xD49 JUMPI DUP1 DUP2 REVERT JUMPDEST DUP3 CALLDATALOAD PUSH2 0xD54 DUP2 PUSH2 0xFC7 JUMP JUMPDEST SWAP2 POP PUSH1 0x20 DUP4 ADD CALLDATALOAD PUSH1 0x1 PUSH1 0x1 PUSH1 0x40 SHL SUB DUP2 GT ISZERO PUSH2 0xD6E JUMPI DUP2 DUP3 REVERT JUMPDEST PUSH2 0xD7A DUP6 DUP3 DUP7 ADD PUSH2 0xC95 JUMP JUMPDEST SWAP2 POP POP SWAP3 POP SWAP3 SWAP1 POP JUMP JUMPDEST PUSH1 0x0 DUP1 PUSH1 0x40 DUP4 DUP6 SUB SLT ISZERO PUSH2 0xD96 JUMPI DUP2 DUP3 REVERT JUMPDEST DUP3 CALLDATALOAD PUSH1 0x1 PUSH1 0x1 PUSH1 0x40 SHL SUB DUP1 DUP3 GT ISZERO PUSH2 0xDAC JUMPI DUP4 DUP5 REVERT JUMPDEST PUSH2 0xDB8 DUP7 DUP4 DUP8 ADD PUSH2 0xB9E JUMP JUMPDEST SWAP4 POP PUSH1 0x20 DUP6 ADD CALLDATALOAD SWAP2 POP DUP1 DUP3 GT ISZERO PUSH2 0xDCD JUMPI DUP3 DUP4 REVERT JUMPDEST POP PUSH2 0xD7A DUP6 DUP3 DUP7 ADD PUSH2 0xC16 JUMP JUMPDEST PUSH1 0x0 DUP1 PUSH1 0x40 DUP4 DUP6 SUB SLT ISZERO PUSH2 0xDEC JUMPI DUP2 DUP3 REVERT JUMPDEST DUP3 CALLDATALOAD PUSH1 0x1 PUSH1 0x1 PUSH1 0x40 SHL SUB DUP1 DUP3 GT ISZERO PUSH2 0xE02 JUMPI DUP4 DUP5 REVERT JUMPDEST PUSH2 0xE0E DUP7 DUP4 DUP8 ADD PUSH2 0xC16 JUMP JUMPDEST SWAP4 POP PUSH1 0x20 DUP6 ADD CALLDATALOAD SWAP2 POP DUP1 DUP3 GT ISZERO PUSH2 0xE23 JUMPI DUP3 DUP4 REVERT JUMPDEST POP PUSH2 0xD7A DUP6 DUP3 DUP7 ADD PUSH2 0xB9E JUMP JUMPDEST PUSH1 0x0 PUSH1 0x20 DUP3 DUP5 SUB SLT ISZERO PUSH2 0xE41 JUMPI DUP1 DUP2 REVERT JUMPDEST POP CALLDATALOAD SWAP2 SWAP1 POP JUMP JUMPDEST PUSH1 0x0 PUSH1 0x20 DUP3 DUP5 SUB SLT ISZERO PUSH2 0xE59 JUMPI DUP1 DUP2 REVERT JUMPDEST POP MLOAD SWAP2 SWAP1 POP JUMP JUMPDEST PUSH1 0x0 DUP1 PUSH1 0x40 DUP4 DUP6 SUB SLT ISZERO PUSH2 0xE72 JUMPI DUP2 DUP3 REVERT JUMPDEST DUP3 CALLDATALOAD PUSH1 0x1 PUSH1 0x1 PUSH1 0x40 SHL SUB DUP2 GT ISZERO PUSH2 0xE87 JUMPI DUP3 DUP4 REVERT JUMPDEST PUSH2 0xE93 DUP6 DUP3 DUP7 ADD PUSH2 0xC95 JUMP JUMPDEST SWAP3 POP POP PUSH1 0x20 DUP4 ADD CALLDATALOAD PUSH2 0xEA4 DUP2 PUSH2 0xFC7 JUMP JUMPDEST DUP1 SWAP2 POP POP SWAP3 POP SWAP3 SWAP1 POP JUMP JUMPDEST PUSH1 0x0 PUSH1 0x20 DUP1 DUP4 MSTORE DUP4 MLOAD DUP1 DUP3 DUP6 ADD MSTORE DUP3 JUMPDEST DUP2 DUP2 LT ISZERO PUSH2 0xEDB JUMPI DUP6 DUP2 ADD DUP4 ADD MLOAD DUP6 DUP3 ADD PUSH1 0x40 ADD MSTORE DUP3 ADD PUSH2 0xEBF JUMP JUMPDEST DUP2 DUP2 GT ISZERO PUSH2 0xEEC JUMPI DUP4 PUSH1 0x40 DUP4 DUP8 ADD ADD MSTORE JUMPDEST POP PUSH1 0x1F ADD PUSH1 0x1F NOT AND SWAP3 SWAP1 SWAP3 ADD PUSH1 0x40 ADD SWAP4 SWAP3 POP POP POP JUMP JUMPDEST PUSH1 0x20 DUP1 DUP3 MSTORE DUP2 DUP2 ADD MSTORE PUSH32 0x4F776E61626C653A2063616C6C6572206973206E6F7420746865206F776E6572 PUSH1 0x40 DUP3 ADD MSTORE PUSH1 0x60 ADD SWAP1 JUMP JUMPDEST PUSH1 0x40 MLOAD PUSH1 0x1F DUP3 ADD PUSH1 0x1F NOT AND DUP2 ADD PUSH1 0x1 PUSH1 0x1 PUSH1 0x40 SHL SUB DUP2 GT DUP3 DUP3 LT OR ISZERO PUSH2 0xF5F JUMPI PUSH2 0xF5F PUSH2 0xFB1 JUMP JUMPDEST PUSH1 0x40 MSTORE SWAP2 SWAP1 POP JUMP JUMPDEST PUSH1 0x0 PUSH1 0x1 PUSH1 0x1 PUSH1 0x40 SHL SUB DUP3 GT ISZERO PUSH2 0xF80 JUMPI PUSH2 0xF80 PUSH2 0xFB1 JUMP JUMPDEST POP PUSH1 0x5 SHL PUSH1 0x20 ADD SWAP1 JUMP JUMPDEST PUSH1 0x0 PUSH1 0x0 NOT DUP3 EQ ISZERO PUSH2 0xFAA JUMPI PUSH4 0x4E487B71 PUSH1 0xE0 SHL DUP2 MSTORE PUSH1 0x11 PUSH1 0x4 MSTORE PUSH1 0x24 DUP2 REVERT JUMPDEST POP PUSH1 0x1 ADD SWAP1 JUMP JUMPDEST PUSH4 0x4E487B71 PUSH1 0xE0 SHL PUSH1 0x0 MSTORE PUSH1 0x41 PUSH1 0x4 MSTORE PUSH1 0x24 PUSH1 0x0 REVERT JUMPDEST PUSH1 0x1 PUSH1 0x1 PUSH1 0xA0 SHL SUB DUP2 AND DUP2 EQ PUSH2 0x5C9 JUMPI PUSH1 0x0 DUP1 REVERT INVALID LOG2 PUSH5 0x6970667358 0x22 SLT KECCAK256 0xAF 0xB4 0xE9 PUSH27 0xED32EFD6591DE5B89AB4D1A9E6DF8AA121F82AD0774FDDCF513413 0xB7 PUSH5 0x736F6C6343 STOP ADDMOD DIV STOP CALLER "
				},
				"gasEstimates": {
					"creation": {
						"codeDepositCost": "822800",
						"executionCost": "infinite",
						"totalCost": "infinite"
					},
					"external": {
						"getNFTPermit(address)": "1298",
						"getNFTWrapper(address)": "infinite",
						"getNftTypeWrapper(bytes32)": "1201",
						"hub()": "1071",
						"owner()": "1124",
						"setNFTPermit(address,string)": "infinite",
						"setNFTPermits(address[],string[])": "infinite",
						"setNftType(string,address)": "infinite",
						"setNftTypes(string[],address[])": "infinite",
						"transferOwnership(address)": "infinite"
					},
					"internal": {
						"_setNFTPermit(address,string memory)": "infinite",
						"_setNFTPermits(address[] memory,string memory[] memory)": "infinite",
						"_setNftType(string memory,address)": "infinite",
						"_setNftTypes(string memory[] memory,address[] memory)": "infinite"
					}
				},
				"methodIdentifiers": {
					"getNFTPermit(address)": "6651f11d",
					"getNFTWrapper(address)": "b8c8aff8",
					"getNftTypeWrapper(bytes32)": "1a3dd0a5",
					"hub()": "365a86fc",
					"owner()": "8da5cb5b",
					"setNFTPermit(address,string)": "c88641a2",
					"setNFTPermits(address[],string[])": "95244b94",
					"setNftType(string,address)": "d8e4e93e",
					"setNftTypes(string[],address[])": "0a21cc43",
					"transferOwnership(address)": "f2fde38b"
				}
			},
			"storageLayout": {
				"storage": [
					{
						"astId": 615,
						"contract": "contracts/PermittedNFTsAndTypeRegistry.sol:PermittedNFTsAndTypeRegistry",
						"label": "_owner",
						"offset": 0,
						"slot": "0",
						"type": "t_address"
					},
					{
						"astId": 36,
						"contract": "contracts/PermittedNFTsAndTypeRegistry.sol:PermittedNFTsAndTypeRegistry",
						"label": "hub",
						"offset": 0,
						"slot": "1",
						"type": "t_contract(INftfiHub)483"
					},
					{
						"astId": 40,
						"contract": "contracts/PermittedNFTsAndTypeRegistry.sol:PermittedNFTsAndTypeRegistry",
						"label": "nftTypes",
						"offset": 0,
						"slot": "2",
						"type": "t_mapping(t_bytes32,t_address)"
					},
					{
						"astId": 45,
						"contract": "contracts/PermittedNFTsAndTypeRegistry.sol:PermittedNFTsAndTypeRegistry",
						"label": "nftPermits",
						"offset": 0,
						"slot": "3",
						"type": "t_mapping(t_address,t_bytes32)"
					}
				],
				"types": {
					"t_address": {
						"encoding": "inplace",
						"label": "address",
						"numberOfBytes": "20"
					},
					"t_bytes32": {
						"encoding": "inplace",
						"label": "bytes32",
						"numberOfBytes": "32"
					},
					"t_contract(INftfiHub)483": {
						"encoding": "inplace",
						"label": "contract INftfiHub",
						"numberOfBytes": "20"
					},
					"t_mapping(t_address,t_bytes32)": {
						"encoding": "mapping",
						"key": "t_address",
						"label": "mapping(address => bytes32)",
						"numberOfBytes": "32",
						"value": "t_bytes32"
					},
					"t_mapping(t_bytes32,t_address)": {
						"encoding": "mapping",
						"key": "t_bytes32",
						"label": "mapping(bytes32 => address)",
						"numberOfBytes": "32",
						"value": "t_address"
					}
				}
			},
			"userdoc": {
				"events": {
					"NFTPermit(address,bytes32)": {
						"notice": "This event is fired whenever the admin sets a NFT's permit."
					},
					"TypeUpdated(bytes32,address)": {
						"notice": "This event is fired whenever the admins register a ntf type."
					}
				},
				"kind": "user",
				"methods": {
					"getNFTPermit(address)": {
						"notice": "This function can be called by anyone to lookup the Nft Type associated with the contract.Returns the NFT Type: - bytes32(\"\") means \"not permitted\" - != bytes32(\"\") means \"permitted with the given NFT Type\""
					},
					"getNFTWrapper(address)": {
						"notice": "This function can be called by anyone to lookup the address of the NftWrapper associated to the `_nftContract` type."
					},
					"getNftTypeWrapper(bytes32)": {
						"notice": "This function can be called by anyone to get the contract address that implements the given nft type."
					},
					"setNFTPermit(address,string)": {
						"notice": "This function can be called by admins to change the permitted list status of an NFT contract. This includes both adding an NFT contract to the permitted list and removing it. `_nftContract` can not be zero address."
					},
					"setNFTPermits(address[],string[])": {
						"notice": "This function can be called by admins to change the permitted list status of a batch NFT contracts. This includes both adding an NFT contract to the permitted list and removing it. `_nftContract` can not be zero address."
					},
					"setNftType(string,address)": {
						"notice": "Set or update the wrapper contract address for the given NFT Type. Set address(0) for a nft type for un-register such type."
					},
					"setNftTypes(string[],address[])": {
						"notice": "Batch set or update the wrappers contract address for the given batch of NFT Types. Set address(0) for a nft type for un-register such type."
					}
				},
				"version": 1
			}
		}
	}
}