{
	"contracts/utils/ContractKeys.sol": {
		"ContractKeys": {
			"abi": [
				{
					"inputs": [],
					"name": "AIRDROP_FACTORY",
					"outputs": [
						{
							"internalType": "bytes32",
							"name": "",
							"type": "bytes32"
						}
					],
					"stateMutability": "view",
					"type": "function"
				},
				{
					"inputs": [],
					"name": "AIRDROP_FLASH_LOAN",
					"outputs": [
						{
							"internalType": "bytes32",
							"name": "",
							"type": "bytes32"
						}
					],
					"stateMutability": "view",
					"type": "function"
				},
				{
					"inputs": [],
					"name": "AIRDROP_RECEIVER",
					"outputs": [
						{
							"internalType": "bytes32",
							"name": "",
							"type": "bytes32"
						}
					],
					"stateMutability": "view",
					"type": "function"
				},
				{
					"inputs": [],
					"name": "AIRDROP_WRAPPER_STRING",
					"outputs": [
						{
							"internalType": "string",
							"name": "",
							"type": "string"
						}
					],
					"stateMutability": "view",
					"type": "function"
				},
				{
					"inputs": [],
					"name": "LOAN_REGISTRY",
					"outputs": [
						{
							"internalType": "bytes32",
							"name": "",
							"type": "bytes32"
						}
					],
					"stateMutability": "view",
					"type": "function"
				},
				{
					"inputs": [],
					"name": "NFTFI_BUNDLER",
					"outputs": [
						{
							"internalType": "bytes32",
							"name": "",
							"type": "bytes32"
						}
					],
					"stateMutability": "view",
					"type": "function"
				},
				{
					"inputs": [],
					"name": "NFT_TYPE_REGISTRY",
					"outputs": [
						{
							"internalType": "bytes32",
							"name": "",
							"type": "bytes32"
						}
					],
					"stateMutability": "view",
					"type": "function"
				},
				{
					"inputs": [],
					"name": "PERMITTED_AIRDROPS",
					"outputs": [
						{
							"internalType": "bytes32",
							"name": "",
							"type": "bytes32"
						}
					],
					"stateMutability": "view",
					"type": "function"
				},
				{
					"inputs": [],
					"name": "PERMITTED_BUNDLE_ERC20S",
					"outputs": [
						{
							"internalType": "bytes32",
							"name": "",
							"type": "bytes32"
						}
					],
					"stateMutability": "view",
					"type": "function"
				},
				{
					"inputs": [],
					"name": "PERMITTED_ERC20S",
					"outputs": [
						{
							"internalType": "bytes32",
							"name": "",
							"type": "bytes32"
						}
					],
					"stateMutability": "view",
					"type": "function"
				},
				{
					"inputs": [],
					"name": "PERMITTED_NFTS",
					"outputs": [
						{
							"internalType": "bytes32",
							"name": "",
							"type": "bytes32"
						}
					],
					"stateMutability": "view",
					"type": "function"
				},
				{
					"inputs": [],
					"name": "PERMITTED_PARTNERS",
					"outputs": [
						{
							"internalType": "bytes32",
							"name": "",
							"type": "bytes32"
						}
					],
					"stateMutability": "view",
					"type": "function"
				},
				{
					"inputs": [],
					"name": "PERMITTED_SNFT_RECEIVER",
					"outputs": [
						{
							"internalType": "bytes32",
							"name": "",
							"type": "bytes32"
						}
					],
					"stateMutability": "view",
					"type": "function"
				},
				{
					"inputs": [
						{
							"internalType": "string",
							"name": "_key",
							"type": "string"
						}
					],
					"name": "getIdFromStringKey",
					"outputs": [
						{
							"internalType": "bytes32",
							"name": "id",
							"type": "bytes32"
						}
					],
					"stateMutability": "pure",
					"type": "function"
				}
			],
			"devdoc": {
				"author": "NFTfi",
				"details": "Common library for contract keys",
				"kind": "dev",
				"methods": {
					"getIdFromStringKey(string)": {
						"params": {
							"_key": "the string key"
						},
						"returns": {
							"id": "bytes32 representation"
						}
					}
				},
				"title": "ContractKeys",
				"version": 1
			},
			"evm": {
				"assembly": "    /* \"contracts/utils/ContractKeys.sol\":151:1614  library ContractKeys {... */\n  dataSize(sub_0)\n  dataOffset(sub_0)\n  0x0b\n  dup3\n  dup3\n  dup3\n  codecopy\n  dup1\n  mload\n  0x00\n  byte\n  0x73\n  eq\n  tag_1\n  jumpi\n  mstore(0x00, shl(0xe0, 0x4e487b71))\n  mstore(0x04, 0x00)\n  revert(0x00, 0x24)\ntag_1:\n  mstore(0x00, address)\n  0x73\n  dup2\n  mstore8\n  dup3\n  dup2\n  return\nstop\n\nsub_0: assembly {\n        /* \"contracts/utils/ContractKeys.sol\":151:1614  library ContractKeys {... */\n      eq(address, deployTimeAddress())\n      mstore(0x40, 0x80)\n      jumpi(tag_1, lt(calldatasize, 0x04))\n      shr(0xe0, calldataload(0x00))\n      dup1\n      0x6bfc13bb\n      gt\n      tag_16\n      jumpi\n      dup1\n      0x6bfc13bb\n      eq\n      tag_9\n      jumpi\n      dup1\n      0x9584c8c9\n      eq\n      tag_10\n      jumpi\n      dup1\n      0x992c8240\n      eq\n      tag_11\n      jumpi\n      dup1\n      0xb2b49019\n      eq\n      tag_12\n      jumpi\n      dup1\n      0xbc941248\n      eq\n      tag_13\n      jumpi\n      dup1\n      0xe55e6f5f\n      eq\n      tag_14\n      jumpi\n      dup1\n      0xf99a8ffb\n      eq\n      tag_15\n      jumpi\n      0x00\n      dup1\n      revert\n    tag_16:\n      dup1\n      0x025573f7\n      eq\n      tag_2\n      jumpi\n      dup1\n      0x161f07e6\n      eq\n      tag_3\n      jumpi\n      dup1\n      0x26a9d63a\n      eq\n      tag_4\n      jumpi\n      dup1\n      0x2fd0cd8c\n      eq\n      tag_5\n      jumpi\n      dup1\n      0x41be0f97\n      eq\n      tag_6\n      jumpi\n      dup1\n      0x4547ea43\n      eq\n      tag_7\n      jumpi\n      dup1\n      0x6a8155fb\n      eq\n      tag_8\n      jumpi\n    tag_1:\n      0x00\n      dup1\n      revert\n        /* \"contracts/utils/ContractKeys.sol\":1115:1179  string public constant AIRDROP_WRAPPER_STRING = \"AirdropWrapper\" */\n    tag_2:\n      tag_17\n      mload(0x40)\n      dup1\n      0x40\n      add\n      0x40\n      mstore\n      dup1\n      0x0e\n      dup2\n      mstore\n      0x20\n      add\n      shl(0x91, 0x20b4b9323937b82bb930b83832b9)\n      dup2\n      mstore\n      pop\n      dup2\n      jump\n    tag_17:\n      mload(0x40)\n      tag_19\n      swap2\n      swap1\n      tag_20\n      jump\t// in\n    tag_19:\n      mload(0x40)\n      dup1\n      swap2\n      sub\n      swap1\n      return\n        /* \"contracts/utils/ContractKeys.sol\":890:958  bytes32 public constant AIRDROP_FACTORY = bytes32(\"AIRDROP_FACTORY\") */\n    tag_3:\n      tag_21\n      shl(0x88, 0x41495244524f505f464143544f5259)\n      dup2\n      jump\n    tag_21:\n      mload(0x40)\n        /* \"#utility.yul\":1140:1165   */\n      swap1\n      dup2\n      mstore\n        /* \"#utility.yul\":1128:1130   */\n      0x20\n        /* \"#utility.yul\":1113:1131   */\n      add\n        /* \"contracts/utils/ContractKeys.sol\":890:958  bytes32 public constant AIRDROP_FACTORY = bytes32(\"AIRDROP_FACTORY\") */\n      tag_19\n        /* \"#utility.yul\":1095:1171   */\n      jump\n        /* \"contracts/utils/ContractKeys.sol\":178:248  bytes32 public constant PERMITTED_ERC20S = bytes32(\"PERMITTED_ERC20S\") */\n    tag_4:\n      tag_21\n      shl(0x80, 0x5045524d49545445445f455243323053)\n      dup2\n      jump\n        /* \"contracts/utils/ContractKeys.sol\":554:638  bytes32 public constant PERMITTED_SNFT_RECEIVER = bytes32(\"PERMITTED_SNFT_RECEIVER\") */\n    tag_5:\n      tag_21\n      shl(0x49, 0x2822a926a4aa2a22a22fa9a7232a2fa922a1a2a4ab22a9)\n      dup2\n      jump\n        /* \"contracts/utils/ContractKeys.sol\":406:478  bytes32 public constant NFT_TYPE_REGISTRY = bytes32(\"NFT_TYPE_REGISTRY\") */\n    tag_6:\n      tag_21\n      shl(0x78, 0x4e46545f545950455f5245474953545259)\n      dup2\n      jump\n        /* \"contracts/utils/ContractKeys.sol\":1044:1108  bytes32 public constant NFTFI_BUNDLER = bytes32(\"NFTFI_BUNDLER\") */\n    tag_7:\n      tag_21\n      shl(0x99, 0x27232a2324afa12aa7222622a9)\n      dup2\n      jump\n        /* \"contracts/utils/ContractKeys.sol\":484:548  bytes32 public constant LOAN_REGISTRY = bytes32(\"LOAN_REGISTRY\") */\n    tag_8:\n      tag_21\n      shl(0x98, 0x4c4f414e5f5245474953545259)\n      dup2\n      jump\n        /* \"contracts/utils/ContractKeys.sol\":734:808  bytes32 public constant PERMITTED_AIRDROPS = bytes32(\"PERMITTED_AIRDROPS\") */\n    tag_9:\n      tag_21\n      shl(0x70, 0x5045524d49545445445f41495244524f5053)\n      dup2\n      jump\n        /* \"contracts/utils/ContractKeys.sol\":644:728  bytes32 public constant PERMITTED_BUNDLE_ERC20S = bytes32(\"PERMITTED_BUNDLE_ERC20S\") */\n    tag_10:\n      tag_21\n      shl(0x48, 0x5045524d49545445445f42554e444c455f455243323053)\n      dup2\n      jump\n        /* \"contracts/utils/ContractKeys.sol\":964:1038  bytes32 public constant AIRDROP_FLASH_LOAN = bytes32(\"AIRDROP_FLASH_LOAN\") */\n    tag_11:\n      tag_21\n      shl(0x71, 0x20a4a9222927a82fa32620a9a42fa627a0a7)\n      dup2\n      jump\n        /* \"contracts/utils/ContractKeys.sol\":326:400  bytes32 public constant PERMITTED_PARTNERS = bytes32(\"PERMITTED_PARTNERS\") */\n    tag_12:\n      tag_21\n      shl(0x70, 0x5045524d49545445445f504152544e455253)\n      dup2\n      jump\n        /* \"contracts/utils/ContractKeys.sol\":254:320  bytes32 public constant PERMITTED_NFTS = bytes32(\"PERMITTED_NFTS\") */\n    tag_13:\n      tag_21\n      shl(0x90, 0x5045524d49545445445f4e465453)\n      dup2\n      jump\n        /* \"contracts/utils/ContractKeys.sol\":814:884  bytes32 public constant AIRDROP_RECEIVER = bytes32(\"AIRDROP_RECEIVER\") */\n    tag_14:\n      tag_21\n      shl(0x81, 0x20a4a9222927a82fa922a1a2a4ab22a9)\n      dup2\n      jump\n        /* \"contracts/utils/ContractKeys.sol\":1339:1612  function getIdFromStringKey(string memory _key) external pure returns (bytes32 id) {... */\n    tag_15:\n      tag_21\n      tag_59\n      calldatasize\n      0x04\n      tag_60\n      jump\t// in\n    tag_59:\n        /* \"contracts/utils/ContractKeys.sol\":1410:1420  bytes32 id */\n      0x00\n        /* \"contracts/utils/ContractKeys.sol\":1462:1464  32 */\n      0x20\n        /* \"contracts/utils/ContractKeys.sol\":1446:1450  _key */\n      dup3\n        /* \"contracts/utils/ContractKeys.sol\":1440:1458  bytes(_key).length */\n      mload\n        /* \"contracts/utils/ContractKeys.sol\":1440:1464  bytes(_key).length <= 32 */\n      gt\n      iszero\n        /* \"contracts/utils/ContractKeys.sol\":1432:1480  require(bytes(_key).length <= 32, \"invalid key\") */\n      tag_64\n      jumpi\n      mload(0x40)\n      shl(0xe5, 0x461bcd)\n      dup2\n      mstore\n        /* \"#utility.yul\":1994:1996   */\n      0x20\n        /* \"contracts/utils/ContractKeys.sol\":1432:1480  require(bytes(_key).length <= 32, \"invalid key\") */\n      0x04\n      dup3\n      add\n        /* \"#utility.yul\":1976:1997   */\n      mstore\n        /* \"#utility.yul\":2033:2035   */\n      0x0b\n        /* \"#utility.yul\":2013:2031   */\n      0x24\n      dup3\n      add\n        /* \"#utility.yul\":2006:2036   */\n      mstore\n      shl(0xa8, 0x696e76616c6964206b6579)\n        /* \"#utility.yul\":2052:2070   */\n      0x44\n      dup3\n      add\n        /* \"#utility.yul\":2045:2086   */\n      mstore\n        /* \"#utility.yul\":2103:2121   */\n      0x64\n      add\n        /* \"contracts/utils/ContractKeys.sol\":1432:1480  require(bytes(_key).length <= 32, \"invalid key\") */\n      mload(0x40)\n      dup1\n      swap2\n      sub\n      swap1\n      revert\n    tag_64:\n      pop\n        /* \"contracts/utils/ContractKeys.sol\":1592:1594  32 */\n      0x20\n        /* \"contracts/utils/ContractKeys.sol\":1582:1595  add(_key, 32) */\n      add\n        /* \"contracts/utils/ContractKeys.sol\":1576:1596  mload(add(_key, 32)) */\n      mload\n      swap1\n        /* \"contracts/utils/ContractKeys.sol\":1556:1606  {... */\n      jump\t// out\n        /* \"#utility.yul\":14:981   */\n    tag_60:\n        /* \"#utility.yul\":83:89   */\n      0x00\n        /* \"#utility.yul\":136:138   */\n      0x20\n        /* \"#utility.yul\":124:133   */\n      dup3\n        /* \"#utility.yul\":115:122   */\n      dup5\n        /* \"#utility.yul\":111:134   */\n      sub\n        /* \"#utility.yul\":107:139   */\n      slt\n        /* \"#utility.yul\":104:106   */\n      iszero\n      tag_69\n      jumpi\n        /* \"#utility.yul\":157:163   */\n      dup1\n        /* \"#utility.yul\":149:155   */\n      dup2\n        /* \"#utility.yul\":142:164   */\n      revert\n        /* \"#utility.yul\":104:106   */\n    tag_69:\n        /* \"#utility.yul\":202:211   */\n      dup2\n        /* \"#utility.yul\":189:212   */\n      calldataload\n        /* \"#utility.yul\":231:249   */\n      0xffffffffffffffff\n        /* \"#utility.yul\":272:274   */\n      dup1\n        /* \"#utility.yul\":264:270   */\n      dup3\n        /* \"#utility.yul\":261:275   */\n      gt\n        /* \"#utility.yul\":258:260   */\n      iszero\n      tag_70\n      jumpi\n        /* \"#utility.yul\":293:299   */\n      dup3\n        /* \"#utility.yul\":285:291   */\n      dup4\n        /* \"#utility.yul\":278:300   */\n      revert\n        /* \"#utility.yul\":258:260   */\n    tag_70:\n        /* \"#utility.yul\":336:342   */\n      dup2\n        /* \"#utility.yul\":325:334   */\n      dup5\n        /* \"#utility.yul\":321:343   */\n      add\n        /* \"#utility.yul\":311:343   */\n      swap2\n      pop\n        /* \"#utility.yul\":381:388   */\n      dup5\n        /* \"#utility.yul\":374:378   */\n      0x1f\n        /* \"#utility.yul\":370:372   */\n      dup4\n        /* \"#utility.yul\":366:379   */\n      add\n        /* \"#utility.yul\":362:389   */\n      slt\n        /* \"#utility.yul\":352:354   */\n      tag_71\n      jumpi\n        /* \"#utility.yul\":408:414   */\n      dup3\n        /* \"#utility.yul\":400:406   */\n      dup4\n        /* \"#utility.yul\":393:415   */\n      revert\n        /* \"#utility.yul\":352:354   */\n    tag_71:\n        /* \"#utility.yul\":449:451   */\n      dup2\n        /* \"#utility.yul\":436:452   */\n      calldataload\n        /* \"#utility.yul\":471:473   */\n      dup2\n        /* \"#utility.yul\":467:469   */\n      dup2\n        /* \"#utility.yul\":464:474   */\n      gt\n        /* \"#utility.yul\":461:463   */\n      iszero\n      tag_73\n      jumpi\n        /* \"#utility.yul\":477:495   */\n      tag_73\n      tag_74\n      jump\t// in\n    tag_73:\n        /* \"#utility.yul\":552:554   */\n      0x40\n        /* \"#utility.yul\":546:555   */\n      mload\n        /* \"#utility.yul\":520:522   */\n      0x1f\n        /* \"#utility.yul\":606:619   */\n      dup3\n      add\n      not(0x1f)\n        /* \"#utility.yul\":602:624   */\n      swap1\n      dup2\n      and\n        /* \"#utility.yul\":626:628   */\n      0x3f\n        /* \"#utility.yul\":598:629   */\n      add\n        /* \"#utility.yul\":594:634   */\n      and\n        /* \"#utility.yul\":582:635   */\n      dup2\n      add\n      swap1\n        /* \"#utility.yul\":650:668   */\n      dup4\n      dup3\n      gt\n        /* \"#utility.yul\":670:692   */\n      dup2\n      dup4\n      lt\n        /* \"#utility.yul\":647:693   */\n      or\n        /* \"#utility.yul\":644:646   */\n      iszero\n      tag_76\n      jumpi\n        /* \"#utility.yul\":696:714   */\n      tag_76\n      tag_74\n      jump\t// in\n    tag_76:\n        /* \"#utility.yul\":736:746   */\n      dup2\n        /* \"#utility.yul\":732:734   */\n      0x40\n        /* \"#utility.yul\":725:747   */\n      mstore\n        /* \"#utility.yul\":771:773   */\n      dup3\n        /* \"#utility.yul\":763:769   */\n      dup2\n        /* \"#utility.yul\":756:774   */\n      mstore\n        /* \"#utility.yul\":811:818   */\n      dup8\n        /* \"#utility.yul\":806:808   */\n      0x20\n        /* \"#utility.yul\":801:803   */\n      dup5\n        /* \"#utility.yul\":797:799   */\n      dup8\n        /* \"#utility.yul\":793:804   */\n      add\n        /* \"#utility.yul\":789:809   */\n      add\n        /* \"#utility.yul\":786:819   */\n      gt\n        /* \"#utility.yul\":783:785   */\n      iszero\n      tag_77\n      jumpi\n        /* \"#utility.yul\":837:843   */\n      dup6\n        /* \"#utility.yul\":829:835   */\n      dup7\n        /* \"#utility.yul\":822:844   */\n      revert\n        /* \"#utility.yul\":783:785   */\n    tag_77:\n        /* \"#utility.yul\":898:900   */\n      dup3\n        /* \"#utility.yul\":893:895   */\n      0x20\n        /* \"#utility.yul\":889:891   */\n      dup7\n        /* \"#utility.yul\":885:896   */\n      add\n        /* \"#utility.yul\":880:882   */\n      0x20\n        /* \"#utility.yul\":872:878   */\n      dup4\n        /* \"#utility.yul\":868:883   */\n      add\n        /* \"#utility.yul\":855:901   */\n      calldatacopy\n        /* \"#utility.yul\":921:936   */\n      swap2\n      dup3\n      add\n        /* \"#utility.yul\":938:940   */\n      0x20\n        /* \"#utility.yul\":917:941   */\n      add\n        /* \"#utility.yul\":910:950   */\n      swap5\n      swap1\n      swap5\n      mstore\n        /* \"#utility.yul\":925:931   */\n      swap6\n        /* \"#utility.yul\":94:981   */\n      swap5\n      pop\n      pop\n      pop\n      pop\n      pop\n      jump\t// out\n        /* \"#utility.yul\":1176:1787   */\n    tag_20:\n        /* \"#utility.yul\":1296:1300   */\n      0x00\n        /* \"#utility.yul\":1325:1327   */\n      0x20\n        /* \"#utility.yul\":1354:1356   */\n      dup1\n        /* \"#utility.yul\":1343:1352   */\n      dup4\n        /* \"#utility.yul\":1336:1357   */\n      mstore\n        /* \"#utility.yul\":1386:1392   */\n      dup4\n        /* \"#utility.yul\":1380:1393   */\n      mload\n        /* \"#utility.yul\":1429:1435   */\n      dup1\n        /* \"#utility.yul\":1424:1426   */\n      dup3\n        /* \"#utility.yul\":1413:1422   */\n      dup6\n        /* \"#utility.yul\":1409:1427   */\n      add\n        /* \"#utility.yul\":1402:1436   */\n      mstore\n        /* \"#utility.yul\":1454:1458   */\n      dup3\n        /* \"#utility.yul\":1467:1607   */\n    tag_80:\n        /* \"#utility.yul\":1481:1487   */\n      dup2\n        /* \"#utility.yul\":1478:1479   */\n      dup2\n        /* \"#utility.yul\":1475:1488   */\n      lt\n        /* \"#utility.yul\":1467:1607   */\n      iszero\n      tag_82\n      jumpi\n        /* \"#utility.yul\":1576:1590   */\n      dup6\n      dup2\n      add\n        /* \"#utility.yul\":1572:1595   */\n      dup4\n      add\n        /* \"#utility.yul\":1566:1596   */\n      mload\n        /* \"#utility.yul\":1542:1559   */\n      dup6\n      dup3\n      add\n        /* \"#utility.yul\":1561:1563   */\n      0x40\n        /* \"#utility.yul\":1538:1564   */\n      add\n        /* \"#utility.yul\":1531:1597   */\n      mstore\n        /* \"#utility.yul\":1496:1506   */\n      dup3\n      add\n        /* \"#utility.yul\":1467:1607   */\n      jump(tag_80)\n    tag_82:\n        /* \"#utility.yul\":1625:1631   */\n      dup2\n        /* \"#utility.yul\":1622:1623   */\n      dup2\n        /* \"#utility.yul\":1619:1632   */\n      gt\n        /* \"#utility.yul\":1616:1618   */\n      iszero\n      tag_83\n      jumpi\n        /* \"#utility.yul\":1695:1699   */\n      dup4\n        /* \"#utility.yul\":1690:1692   */\n      0x40\n        /* \"#utility.yul\":1681:1687   */\n      dup4\n        /* \"#utility.yul\":1670:1679   */\n      dup8\n        /* \"#utility.yul\":1666:1688   */\n      add\n        /* \"#utility.yul\":1662:1693   */\n      add\n        /* \"#utility.yul\":1655:1700   */\n      mstore\n        /* \"#utility.yul\":1616:1618   */\n    tag_83:\n      pop\n        /* \"#utility.yul\":1771:1773   */\n      0x1f\n        /* \"#utility.yul\":1750:1765   */\n      add\n      not(0x1f)\n        /* \"#utility.yul\":1746:1775   */\n      and\n        /* \"#utility.yul\":1731:1776   */\n      swap3\n      swap1\n      swap3\n      add\n        /* \"#utility.yul\":1778:1780   */\n      0x40\n        /* \"#utility.yul\":1727:1781   */\n      add\n      swap4\n        /* \"#utility.yul\":1305:1787   */\n      swap3\n      pop\n      pop\n      pop\n      jump\t// out\n        /* \"#utility.yul\":2132:2259   */\n    tag_74:\n        /* \"#utility.yul\":2193:2203   */\n      0x4e487b71\n        /* \"#utility.yul\":2188:2191   */\n      0xe0\n        /* \"#utility.yul\":2184:2204   */\n      shl\n        /* \"#utility.yul\":2181:2182   */\n      0x00\n        /* \"#utility.yul\":2174:2205   */\n      mstore\n        /* \"#utility.yul\":2224:2228   */\n      0x41\n        /* \"#utility.yul\":2221:2222   */\n      0x04\n        /* \"#utility.yul\":2214:2229   */\n      mstore\n        /* \"#utility.yul\":2248:2252   */\n      0x24\n        /* \"#utility.yul\":2245:2246   */\n      0x00\n        /* \"#utility.yul\":2238:2253   */\n      revert\n\n    auxdata: 0xa2646970667358221220c6151294b9569cd45ef8e8b7d627fdbedc9630827225f15a6e047dc465ade48264736f6c63430008040033\n}\n",
				"bytecode": {
					"linkReferences": {},
					"object": "61041361003a600b82828239805160001a60731461002d57634e487b7160e01b600052600060045260246000fd5b30600052607381538281f3fe73000000000000000000000000000000000000000030146080604052600436106100d45760003560e01c80636bfc13bb116100865780636bfc13bb146101c75780639584c8c9146101e3578063992c824014610204578063b2b4901914610220578063bc9412481461023c578063e55e6f5f14610254578063f99a8ffb1461026e57600080fd5b8063025573f7146100d9578063161f07e61461011c57806326a9d63a146101435780632fd0cd8c1461015d57806341be0f971461017e5780634547ea43146101995780636a8155fb146101b0575b600080fd5b6101066040518060400160405280600e81526020016d20b4b9323937b82bb930b83832b960911b81525081565b6040516101139190610374565b60405180910390f35b6101356e41495244524f505f464143544f525960881b81565b604051908152602001610113565b6101356f5045524d49545445445f45524332305360801b81565b610135762822a926a4aa2a22a22fa9a7232a2fa922a1a2a4ab22a960491b81565b610135704e46545f545950455f524547495354525960781b81565b6101356c27232a2324afa12aa7222622a960991b81565b6101356c4c4f414e5f524547495354525960981b81565b610135715045524d49545445445f41495244524f505360701b81565b610135765045524d49545445445f42554e444c455f45524332305360481b81565b6101357120a4a9222927a82fa32620a9a42fa627a0a760711b81565b610135715045524d49545445445f504152544e45525360701b81565b6101356d5045524d49545445445f4e46545360901b81565b6101356f20a4a9222927a82fa922a1a2a4ab22a960811b81565b61013561027c3660046102ca565b60006020825111156102c25760405162461bcd60e51b815260206004820152600b60248201526a696e76616c6964206b657960a81b604482015260640160405180910390fd5b506020015190565b6000602082840312156102db578081fd5b813567ffffffffffffffff808211156102f2578283fd5b818401915084601f830112610305578283fd5b813581811115610317576103176103c7565b604051601f8201601f19908116603f0116810190838211818310171561033f5761033f6103c7565b81604052828152876020848701011115610357578586fd5b826020860160208301379182016020019490945295945050505050565b6000602080835283518082850152825b818110156103a057858101830151858201604001528201610384565b818111156103b15783604083870101525b50601f01601f1916929092016040019392505050565b634e487b7160e01b600052604160045260246000fdfea2646970667358221220c6151294b9569cd45ef8e8b7d627fdbedc9630827225f15a6e047dc465ade48264736f6c63430008040033",
					"opcodes": "PUSH2 0x413 PUSH2 0x3A PUSH1 0xB DUP3 DUP3 DUP3 CODECOPY DUP1 MLOAD PUSH1 0x0 BYTE PUSH1 0x73 EQ PUSH2 0x2D JUMPI PUSH4 0x4E487B71 PUSH1 0xE0 SHL PUSH1 0x0 MSTORE PUSH1 0x0 PUSH1 0x4 MSTORE PUSH1 0x24 PUSH1 0x0 REVERT JUMPDEST ADDRESS PUSH1 0x0 MSTORE PUSH1 0x73 DUP2 MSTORE8 DUP3 DUP2 RETURN INVALID PUSH20 0x0 ADDRESS EQ PUSH1 0x80 PUSH1 0x40 MSTORE PUSH1 0x4 CALLDATASIZE LT PUSH2 0xD4 JUMPI PUSH1 0x0 CALLDATALOAD PUSH1 0xE0 SHR DUP1 PUSH4 0x6BFC13BB GT PUSH2 0x86 JUMPI DUP1 PUSH4 0x6BFC13BB EQ PUSH2 0x1C7 JUMPI DUP1 PUSH4 0x9584C8C9 EQ PUSH2 0x1E3 JUMPI DUP1 PUSH4 0x992C8240 EQ PUSH2 0x204 JUMPI DUP1 PUSH4 0xB2B49019 EQ PUSH2 0x220 JUMPI DUP1 PUSH4 0xBC941248 EQ PUSH2 0x23C JUMPI DUP1 PUSH4 0xE55E6F5F EQ PUSH2 0x254 JUMPI DUP1 PUSH4 0xF99A8FFB EQ PUSH2 0x26E JUMPI PUSH1 0x0 DUP1 REVERT JUMPDEST DUP1 PUSH4 0x25573F7 EQ PUSH2 0xD9 JUMPI DUP1 PUSH4 0x161F07E6 EQ PUSH2 0x11C JUMPI DUP1 PUSH4 0x26A9D63A EQ PUSH2 0x143 JUMPI DUP1 PUSH4 0x2FD0CD8C EQ PUSH2 0x15D JUMPI DUP1 PUSH4 0x41BE0F97 EQ PUSH2 0x17E JUMPI DUP1 PUSH4 0x4547EA43 EQ PUSH2 0x199 JUMPI DUP1 PUSH4 0x6A8155FB EQ PUSH2 0x1B0 JUMPI JUMPDEST PUSH1 0x0 DUP1 REVERT JUMPDEST PUSH2 0x106 PUSH1 0x40 MLOAD DUP1 PUSH1 0x40 ADD PUSH1 0x40 MSTORE DUP1 PUSH1 0xE DUP2 MSTORE PUSH1 0x20 ADD PUSH14 0x20B4B9323937B82BB930B83832B9 PUSH1 0x91 SHL DUP2 MSTORE POP DUP2 JUMP JUMPDEST PUSH1 0x40 MLOAD PUSH2 0x113 SWAP2 SWAP1 PUSH2 0x374 JUMP JUMPDEST PUSH1 0x40 MLOAD DUP1 SWAP2 SUB SWAP1 RETURN JUMPDEST PUSH2 0x135 PUSH15 0x41495244524F505F464143544F5259 PUSH1 0x88 SHL DUP2 JUMP JUMPDEST PUSH1 0x40 MLOAD SWAP1 DUP2 MSTORE PUSH1 0x20 ADD PUSH2 0x113 JUMP JUMPDEST PUSH2 0x135 PUSH16 0x5045524D49545445445F455243323053 PUSH1 0x80 SHL DUP2 JUMP JUMPDEST PUSH2 0x135 PUSH23 0x2822A926A4AA2A22A22FA9A7232A2FA922A1A2A4AB22A9 PUSH1 0x49 SHL DUP2 JUMP JUMPDEST PUSH2 0x135 PUSH17 0x4E46545F545950455F5245474953545259 PUSH1 0x78 SHL DUP2 JUMP JUMPDEST PUSH2 0x135 PUSH13 0x27232A2324AFA12AA7222622A9 PUSH1 0x99 SHL DUP2 JUMP JUMPDEST PUSH2 0x135 PUSH13 0x4C4F414E5F5245474953545259 PUSH1 0x98 SHL DUP2 JUMP JUMPDEST PUSH2 0x135 PUSH18 0x5045524D49545445445F41495244524F5053 PUSH1 0x70 SHL DUP2 JUMP JUMPDEST PUSH2 0x135 PUSH23 0x5045524D49545445445F42554E444C455F455243323053 PUSH1 0x48 SHL DUP2 JUMP JUMPDEST PUSH2 0x135 PUSH18 0x20A4A9222927A82FA32620A9A42FA627A0A7 PUSH1 0x71 SHL DUP2 JUMP JUMPDEST PUSH2 0x135 PUSH18 0x5045524D49545445445F504152544E455253 PUSH1 0x70 SHL DUP2 JUMP JUMPDEST PUSH2 0x135 PUSH14 0x5045524D49545445445F4E465453 PUSH1 0x90 SHL DUP2 JUMP JUMPDEST PUSH2 0x135 PUSH16 0x20A4A9222927A82FA922A1A2A4AB22A9 PUSH1 0x81 SHL DUP2 JUMP JUMPDEST PUSH2 0x135 PUSH2 0x27C CALLDATASIZE PUSH1 0x4 PUSH2 0x2CA JUMP JUMPDEST PUSH1 0x0 PUSH1 0x20 DUP3 MLOAD GT ISZERO PUSH2 0x2C2 JUMPI PUSH1 0x40 MLOAD PUSH3 0x461BCD PUSH1 0xE5 SHL DUP2 MSTORE PUSH1 0x20 PUSH1 0x4 DUP3 ADD MSTORE PUSH1 0xB PUSH1 0x24 DUP3 ADD MSTORE PUSH11 0x696E76616C6964206B6579 PUSH1 0xA8 SHL PUSH1 0x44 DUP3 ADD MSTORE PUSH1 0x64 ADD PUSH1 0x40 MLOAD DUP1 SWAP2 SUB SWAP1 REVERT JUMPDEST POP PUSH1 0x20 ADD MLOAD SWAP1 JUMP JUMPDEST PUSH1 0x0 PUSH1 0x20 DUP3 DUP5 SUB SLT ISZERO PUSH2 0x2DB JUMPI DUP1 DUP2 REVERT JUMPDEST DUP2 CALLDATALOAD PUSH8 0xFFFFFFFFFFFFFFFF DUP1 DUP3 GT ISZERO PUSH2 0x2F2 JUMPI DUP3 DUP4 REVERT JUMPDEST DUP2 DUP5 ADD SWAP2 POP DUP5 PUSH1 0x1F DUP4 ADD SLT PUSH2 0x305 JUMPI DUP3 DUP4 REVERT JUMPDEST DUP2 CALLDATALOAD DUP2 DUP2 GT ISZERO PUSH2 0x317 JUMPI PUSH2 0x317 PUSH2 0x3C7 JUMP JUMPDEST PUSH1 0x40 MLOAD PUSH1 0x1F DUP3 ADD PUSH1 0x1F NOT SWAP1 DUP2 AND PUSH1 0x3F ADD AND DUP2 ADD SWAP1 DUP4 DUP3 GT DUP2 DUP4 LT OR ISZERO PUSH2 0x33F JUMPI PUSH2 0x33F PUSH2 0x3C7 JUMP JUMPDEST DUP2 PUSH1 0x40 MSTORE DUP3 DUP2 MSTORE DUP8 PUSH1 0x20 DUP5 DUP8 ADD ADD GT ISZERO PUSH2 0x357 JUMPI DUP6 DUP7 REVERT JUMPDEST DUP3 PUSH1 0x20 DUP7 ADD PUSH1 0x20 DUP4 ADD CALLDATACOPY SWAP2 DUP3 ADD PUSH1 0x20 ADD SWAP5 SWAP1 SWAP5 MSTORE SWAP6 SWAP5 POP POP POP POP POP JUMP JUMPDEST PUSH1 0x0 PUSH1 0x20 DUP1 DUP4 MSTORE DUP4 MLOAD DUP1 DUP3 DUP6 ADD MSTORE DUP3 JUMPDEST DUP2 DUP2 LT ISZERO PUSH2 0x3A0 JUMPI DUP6 DUP2 ADD DUP4 ADD MLOAD DUP6 DUP3 ADD PUSH1 0x40 ADD MSTORE DUP3 ADD PUSH2 0x384 JUMP JUMPDEST DUP2 DUP2 GT ISZERO PUSH2 0x3B1 JUMPI DUP4 PUSH1 0x40 DUP4 DUP8 ADD ADD MSTORE JUMPDEST POP PUSH1 0x1F ADD PUSH1 0x1F NOT AND SWAP3 SWAP1 SWAP3 ADD PUSH1 0x40 ADD SWAP4 SWAP3 POP POP POP JUMP JUMPDEST PUSH4 0x4E487B71 PUSH1 0xE0 SHL PUSH1 0x0 MSTORE PUSH1 0x41 PUSH1 0x4 MSTORE PUSH1 0x24 PUSH1 0x0 REVERT INVALID LOG2 PUSH5 0x6970667358 0x22 SLT KECCAK256 0xC6 ISZERO SLT SWAP5 0xB9 JUMP SWAP13 0xD4 0x5E 0xF8 0xE8 0xB7 0xD6 0x27 REVERT 0xBE 0xDC SWAP7 ADDRESS DUP3 PUSH19 0x25F15A6E047DC465ADE48264736F6C63430008 DIV STOP CALLER "
				},
				"gasEstimates": {
					"creation": {
						"codeDepositCost": "208600",
						"executionCost": "282",
						"totalCost": "208882"
					},
					"external": {
						"AIRDROP_FACTORY()": "208",
						"AIRDROP_FLASH_LOAN()": "229",
						"AIRDROP_RECEIVER()": "295",
						"AIRDROP_WRAPPER_STRING()": "infinite",
						"LOAN_REGISTRY()": "318",
						"NFTFI_BUNDLER()": "296",
						"NFT_TYPE_REGISTRY()": "274",
						"PERMITTED_AIRDROPS()": "185",
						"PERMITTED_BUNDLE_ERC20S()": "207",
						"PERMITTED_ERC20S()": "230",
						"PERMITTED_NFTS()": "273",
						"PERMITTED_PARTNERS()": "251",
						"PERMITTED_SNFT_RECEIVER()": "252",
						"getIdFromStringKey(string)": "infinite"
					}
				},
				"methodIdentifiers": {
					"AIRDROP_FACTORY()": "161f07e6",
					"AIRDROP_FLASH_LOAN()": "992c8240",
					"AIRDROP_RECEIVER()": "e55e6f5f",
					"AIRDROP_WRAPPER_STRING()": "025573f7",
					"LOAN_REGISTRY()": "6a8155fb",
					"NFTFI_BUNDLER()": "4547ea43",
					"NFT_TYPE_REGISTRY()": "41be0f97",
					"PERMITTED_AIRDROPS()": "6bfc13bb",
					"PERMITTED_BUNDLE_ERC20S()": "9584c8c9",
					"PERMITTED_ERC20S()": "26a9d63a",
					"PERMITTED_NFTS()": "bc941248",
					"PERMITTED_PARTNERS()": "b2b49019",
					"PERMITTED_SNFT_RECEIVER()": "2fd0cd8c",
					"getIdFromStringKey(string)": "f99a8ffb"
				}
			},
			"storageLayout": {
				"storage": [],
				"types": null
			},
			"userdoc": {
				"kind": "user",
				"methods": {
					"getIdFromStringKey(string)": {
						"notice": "Returns the bytes32 representation of a string"
					}
				},
				"version": 1
			}
		}
	}
}