{
	"data": {
		"bytecode": {
			"linkReferences": {
				"contracts/utils/ContractKeys.sol": {
					"ContractKeys": [
						{
							"length": 20,
							"start": 527
						},
						{
							"length": 20,
							"start": 5827
						}
					]
				}
			},
			"object": "60c06040526003805464ffffffffff191690553480156200001f57600080fd5b5060405162001d7838038062001d78833981016040819052620000429162000394565b826200004e816200007d565b50606084811b6001600160601b03191660805233901b60a052620000738282620000cd565b5050505062000610565b600080546001600160a01b038381166001600160a01b0319831681178455604051919092169283917f8be0079c531659141344cd1fd0a4f28419497f9722a3daafe3b4186f6b6457e09190a35050565b8051825114620001305760405162461bcd60e51b815260206004820152602360248201527f66756e6374696f6e20696e666f726d6174696f6e206172697479206d69736d616044820152620e8c6d60eb1b60648201526084015b60405180910390fd5b60005b8251811015620001b4576200019f8382815181106200016257634e487b7160e01b600052603260045260246000fd5b60200260200101518383815181106200018b57634e487b7160e01b600052603260045260246000fd5b6020026020010151620001b960201b60201c565b80620001ab81620005d2565b91505062000133565b505050565b8151620001fd5760405162461bcd60e51b81526020600482015260116024820152706c6f616e5479706520697320656d70747960781b604482015260640162000127565b60405163f99a8ffb60e01b815260009073__$d7e2e0a2db402280e6c36233d590dce656$__9063f99a8ffb906200023990869060040162000511565b60206040518083038186803b1580156200025257600080fd5b505af415801562000267573d6000803e3d6000fd5b505050506040513d601f19601f820116820180604052508101906200028d9190620004f8565b600081815260016020908152604080832080546001600160a01b0319166001600160a01b0388169081179091558084526002909252808320849055519293509183917f22be69269c1f7d73e73dcb25b710dd88c7aa1cf374c16d945def98df2107c2f891a3505050565b80516001600160a01b03811681146200030f57600080fd5b919050565b600082601f83011262000325578081fd5b815160206200033e620003388362000579565b62000546565b80838252828201915082860187848660051b89010111156200035e578586fd5b855b8581101562000387576200037482620002f7565b8452928401929084019060010162000360565b5090979650505050505050565b60008060008060808587031215620003aa578384fd5b620003b585620002f7565b9350620003c560208601620002f7565b60408601519093506001600160401b0380821115620003e2578384fd5b818701915087601f830112620003f6578384fd5b815162000407620003388262000579565b80828252602082019150602085018b60208560051b88010111156200042a578788fd5b875b84811015620004c2578151868111156200044457898afd5b8701603f81018e136200045557898afd5b6020810151878111156200046d576200046d620005fa565b62000482601f8201601f191660200162000546565b8181528f604083850101111562000497578b8cfd5b620004aa8260208301604086016200059f565b8652505060209384019391909101906001016200042c565b505060608a01519096509350505080821115620004dd578283fd5b50620004ec8782880162000314565b91505092959194509250565b6000602082840312156200050a578081fd5b5051919050565b6020815260008251806020840152620005328160408501602087016200059f565b601f01601f19169190910160400192915050565b604051601f8201601f191681016001600160401b0381118282101715620005715762000571620005fa565b604052919050565b60006001600160401b03821115620005955762000595620005fa565b5060051b60200190565b60005b83811015620005bc578181015183820152602001620005a2565b83811115620005cc576000848401525b50505050565b6000600019821415620005f357634e487b7160e01b81526011600452602481fd5b5060010190565b634e487b7160e01b600052604160045260246000fd5b60805160601c60a05160601c61173c6200063c600039600061064b01526000610158015261173c6000f3fe608060405234801561001057600080fd5b50600436106100e05760003560e01c80638208e76c116100875780638208e76c1461020b57806386d93f661461021e5780638da5cb5b1461025557806392163ea614610266578063d1f7659514610279578063d5d4d1821461028c578063e6c5a5411461029f578063f2fde38b146102bf57600080fd5b806308abefa9146100e55780631b982cf11461012b5780632604187414610140578063365a86fc14610153578063485cc9551461017a5780634fbe68a01461018d57806352a067e5146101a05780635794fefc146101e6575b600080fd5b61010e6100f3366004611437565b6000908152600160205260409020546001600160a01b031690565b6040516001600160a01b0390911681526020015b60405180910390f35b61013e6101393660046114c3565b6102d2565b005b61013e61014e366004611345565b610608565b61010e7f000000000000000000000000000000000000000000000000000000000000000081565b61013e6101883660046112ea565b610640565b60055461010e906001600160a01b031681565b6101d66101ae3660046114c3565b63ffffffff9091166000908152600460205260409020546001600160a01b0390811691161490565b6040519015158152602001610122565b6003546101f69063ffffffff1681565b60405163ffffffff9091168152602001610122565b60065461010e906001600160a01b031681565b61024761022c3660046112c9565b6001600160a01b031660009081526002602052604090205490565b604051908152602001610122565b6000546001600160a01b031661010e565b61013e6102743660046114a9565b6107e6565b6101f661028736600461131c565b610ae2565b61013e61029a366004611467565b610dcd565b6102b26102ad3660046114a9565b610e01565b6040516101229190611606565b61013e6102cd3660046112c9565b610ec0565b600354600160201b900460ff166103045760405162461bcd60e51b81526004016102fb906115a8565b60405180910390fd5b3360008181526002602052604081205414156103705760405162461bcd60e51b815260206004820152602560248201527f43616c6c6572206d75737420612062652072656769737465726564206c6f616e604482015264207479706560d81b60648201526084016102fb565b63ffffffff8316600090815260046020526040902054600160a01b90046001600160401b0316806103d85760405162461bcd60e51b81526020600482015260126024820152711b1bd85b88191bd95cdb89dd08195e1a5cdd60721b60448201526064016102fb565b600554604051634f558e7960e01b81526001600160401b03831660048201526001600160a01b0390911690634f558e799060240160206040518083038186803b15801561042457600080fd5b505afa158015610438573d6000803e3d6000fd5b505050506040513d601f19601f8201168201806040525081019061045c9190611417565b6104a85760405162461bcd60e51b815260206004820152601c60248201527f50726f6d6973736f7279206e6f74652073686f756c642065786973740000000060448201526064016102fb565b600654604051634f558e7960e01b81526001600160401b03831660048201526001600160a01b0390911690634f558e799060240160206040518083038186803b1580156104f457600080fd5b505afa158015610508573d6000803e3d6000fd5b505050506040513d601f19601f8201168201806040525081019061052c9190611417565b156105795760405162461bcd60e51b815260206004820152601c60248201527f4f626c69676174696f6e20722073686f756c646e27742065786973740000000060448201526064016102fb565b6006546040805163ffffffff871660208201526001600160a01b03909216916394d008ef9186918591016040516020818303038152906040526040518463ffffffff1660e01b81526004016105d09392919061154b565b600060405180830381600087803b1580156105ea57600080fd5b505af11580156105fe573d6000803e3d6000fd5b5050505050505050565b6000546001600160a01b031633146106325760405162461bcd60e51b81526004016102fb906115d1565b61063c8282610f5b565b5050565b336001600160a01b037f000000000000000000000000000000000000000000000000000000000000000016146106a85760405162461bcd60e51b815260206004820152600d60248201526c37b7363c903232b83637bcb2b960991b60448201526064016102fb565b600354600160201b900460ff16156106f85760405162461bcd60e51b8152602060048201526013602482015272185b1c9958591e481a5b9a5d1a585b1a5e9959606a1b60448201526064016102fb565b6001600160a01b03821661074e5760405162461bcd60e51b815260206004820152601b60248201527f70726f6d6973736f72794e6f7465546f6b656e206973207a65726f000000000060448201526064016102fb565b6001600160a01b0381166107a45760405162461bcd60e51b815260206004820152601e60248201527f6f626c69676174696f6e52656365697074546f6b656e206973207a65726f000060448201526064016102fb565b6003805464ff000000001916600160201b179055600580546001600160a01b039384166001600160a01b03199182161790915560068054929093169116179055565b600354600160201b900460ff1661080f5760405162461bcd60e51b81526004016102fb906115a8565b63ffffffff8116600090815260046020526040902060018154600160e01b900460ff16600281111561085157634e487b7160e01b600052602160045260246000fd5b146108985760405162461bcd60e51b81526020600482015260176024820152764c6f616e20737461747573206d757374206265204e657760481b60448201526064016102fb565b80546001600160a01b031633146109045760405162461bcd60e51b815260206004820152602a60248201527f4e6f74207468652073616d6520436f6e747261637420746861742072656769736044820152693a32b932b2102637b0b760b11b60648201526084016102fb565b8054600160e11b60ff60e01b1990911617808255600554604051630852cd8d60e31b81526001600160401b03600160a01b9093049290921660048301526001600160a01b0316906342966c6890602401600060405180830381600087803b15801561096e57600080fd5b505af1158015610982573d6000803e3d6000fd5b50506006548354604051634f558e7960e01b8152600160a01b9091046001600160401b031660048201526001600160a01b039091169250634f558e79915060240160206040518083038186803b1580156109db57600080fd5b505afa1580156109ef573d6000803e3d6000fd5b505050506040513d601f19601f82011682018060405250810190610a139190611417565b15610a88576006548154604051630852cd8d60e31b8152600160a01b9091046001600160401b031660048201526001600160a01b03909116906342966c6890602401600060405180830381600087803b158015610a6f57600080fd5b505af1158015610a83573d6000803e3d6000fd5b505050505b80546040513391600160a01b90046001600160401b03169063ffffffff8516907fed71188e6e889129ea3e58f204838c0d459c617582cbbc6759017f50820edb5c90610ad690600290611587565b60405180910390a45050565b600354600090600160201b900460ff16610b0e5760405162461bcd60e51b81526004016102fb906115a8565b3380610b2f846000908152600160205260409020546001600160a01b031690565b6001600160a01b031614610b955760405162461bcd60e51b815260206004820152602760248201527f43616c6c6572206d757374206265207265676973746572656420666f72206c6f604482015266616e207479706560c81b60648201526084016102fb565b6003805460019190600090610bb190849063ffffffff16611697565b82546101009290920a63ffffffff818102199093169190921691909102179055506003546040513060601b6bffffffffffffffffffffffff1916602082015260e09190911b6001600160e01b031916603482015260009060380160408051808303601f1901815282825280516020918201206060840183526001600160a01b0386811685526001600160401b03821683860152600185850152600554600354855163ffffffff9091169481019490945291955016916394d008ef9189918691016040516020818303038152906040526040518463ffffffff1660e01b8152600401610c9e9392919061154b565b600060405180830381600087803b158015610cb857600080fd5b505af1158015610ccc573d6000803e3d6000fd5b505060035463ffffffff1660009081526004602090815260409182902085518154928701516001600160401b0316600160a01b026001600160e01b03199093166001600160a01b0390911617919091178082559185015185945090925090829060ff60e01b1916600160e01b836002811115610d5857634e487b7160e01b600052602160045260246000fd5b0217905550506003546040516001600160a01b03861692506001600160401b0385169163ffffffff16907fed71188e6e889129ea3e58f204838c0d459c617582cbbc6759017f50820edb5c90610db090600190611587565b60405180910390a4505060035463ffffffff169150505b92915050565b6000546001600160a01b03163314610df75760405162461bcd60e51b81526004016102fb906115d1565b61063c8282611033565b610e2260408051606081018252600080825260208201819052909182015290565b63ffffffff8216600090815260046020908152604091829020825160608101845281546001600160a01b0381168252600160a01b81046001600160401b03169382019390935292909190830190600160e01b900460ff166002811115610e9857634e487b7160e01b600052602160045260246000fd5b6002811115610eb757634e487b7160e01b600052602160045260246000fd5b90525092915050565b6000546001600160a01b03163314610eea5760405162461bcd60e51b81526004016102fb906115d1565b6001600160a01b038116610f4f5760405162461bcd60e51b815260206004820152602660248201527f4f776e61626c653a206e6577206f776e657220697320746865207a65726f206160448201526564647265737360d01b60648201526084016102fb565b610f5881611169565b50565b8051825114610fb85760405162461bcd60e51b815260206004820152602360248201527f66756e6374696f6e20696e666f726d6174696f6e206172697479206d69736d616044820152620e8c6d60eb1b60648201526084016102fb565b60005b825181101561102e5761101c838281518110610fe757634e487b7160e01b600052603260045260246000fd5b602002602001015183838151811061100f57634e487b7160e01b600052603260045260246000fd5b6020026020010151611033565b80611026816116bf565b915050610fbb565b505050565b81516110755760405162461bcd60e51b81526020600482015260116024820152706c6f616e5479706520697320656d70747960781b60448201526064016102fb565b60405163f99a8ffb60e01b815260009073__$d7e2e0a2db402280e6c36233d590dce656$__9063f99a8ffb906110af908690600401611595565b60206040518083038186803b1580156110c757600080fd5b505af41580156110db573d6000803e3d6000fd5b505050506040513d601f19601f820116820180604052508101906110ff919061144f565b600081815260016020908152604080832080546001600160a01b0319166001600160a01b0388169081179091558084526002909252808320849055519293509183917f22be69269c1f7d73e73dcb25b710dd88c7aa1cf374c16d945def98df2107c2f891a3505050565b600080546001600160a01b038381166001600160a01b0319831681178455604051919092169283917f8be0079c531659141344cd1fd0a4f28419497f9722a3daafe3b4186f6b6457e09190a35050565b80356001600160a01b03811681146111d057600080fd5b919050565b600082601f8301126111e5578081fd5b813560206111fa6111f583611674565b611644565b80838252828201915082860187848660051b8901011115611219578586fd5b855b8581101561123e5761122c826111b9565b8452928401929084019060010161121b565b5090979650505050505050565b600082601f83011261125b578081fd5b81356001600160401b03811115611274576112746116f0565b611287601f8201601f1916602001611644565b81815284602083860101111561129b578283fd5b816020850160208301379081016020019190915292915050565b803563ffffffff811681146111d057600080fd5b6000602082840312156112da578081fd5b6112e3826111b9565b9392505050565b600080604083850312156112fc578081fd5b611305836111b9565b9150611313602084016111b9565b90509250929050565b6000806040838503121561132e578182fd5b611337836111b9565b946020939093013593505050565b60008060408385031215611357578182fd5b82356001600160401b038082111561136d578384fd5b818501915085601f830112611380578384fd5b813560206113906111f583611674565b8083825282820191508286018a848660051b89010111156113af578889fd5b885b858110156113e8578135878111156113c7578a8bfd5b6113d58d87838c010161124b565b85525092840192908401906001016113b1565b50909750505086013592505080821115611400578283fd5b5061140d858286016111d5565b9150509250929050565b600060208284031215611428578081fd5b815180151581146112e3578182fd5b600060208284031215611448578081fd5b5035919050565b600060208284031215611460578081fd5b5051919050565b60008060408385031215611479578182fd5b82356001600160401b0381111561148e578283fd5b61149a8582860161124b565b925050611313602084016111b9565b6000602082840312156114ba578081fd5b6112e3826112b5565b600080604083850312156114d5578182fd5b611305836112b5565b60008151808452815b81811015611503576020818501810151868301820152016114e7565b818111156115145782602083870101525b50601f01601f19169290920160200192915050565b6003811061154757634e487b7160e01b600052602160045260246000fd5b9052565b6001600160a01b03841681526001600160401b038316602082015260606040820181905260009061157e908301846114de565b95945050505050565b60208101610dc78284611529565b6020815260006112e360208301846114de565b6020808252600f908201526e1b9bdd081a5b9a5d1a585b1a5e9959608a1b604082015260600190565b6020808252818101527f4f776e61626c653a2063616c6c6572206973206e6f7420746865206f776e6572604082015260600190565b81516001600160a01b031681526020808301516001600160401b031690820152604080830151606083019161163d90840182611529565b5092915050565b604051601f8201601f191681016001600160401b038111828210171561166c5761166c6116f0565b604052919050565b60006001600160401b0382111561168d5761168d6116f0565b5060051b60200190565b600063ffffffff8083168185168083038211156116b6576116b66116da565b01949350505050565b60006000198214156116d3576116d36116da565b5060010190565b634e487b7160e01b600052601160045260246000fd5b634e487b7160e01b600052604160045260246000fdfea2646970667358221220fd7697ff580fa62bf0fde7b7ac8ed7a2070b649b58bbba319c958e023e37298f64736f6c63430008040033",
			"opcodes": "PUSH1 0xC0 PUSH1 0x40 MSTORE PUSH1 0x3 DUP1 SLOAD PUSH5 0xFFFFFFFFFF NOT AND SWAP1 SSTORE CALLVALUE DUP1 ISZERO PUSH3 0x1F JUMPI PUSH1 0x0 DUP1 REVERT JUMPDEST POP PUSH1 0x40 MLOAD PUSH3 0x1D78 CODESIZE SUB DUP1 PUSH3 0x1D78 DUP4 CODECOPY DUP2 ADD PUSH1 0x40 DUP2 SWAP1 MSTORE PUSH3 0x42 SWAP2 PUSH3 0x394 JUMP JUMPDEST DUP3 PUSH3 0x4E DUP2 PUSH3 0x7D JUMP JUMPDEST POP PUSH1 0x60 DUP5 DUP2 SHL PUSH1 0x1 PUSH1 0x1 PUSH1 0x60 SHL SUB NOT AND PUSH1 0x80 MSTORE CALLER SWAP1 SHL PUSH1 0xA0 MSTORE PUSH3 0x73 DUP3 DUP3 PUSH3 0xCD JUMP JUMPDEST POP POP POP POP PUSH3 0x610 JUMP JUMPDEST PUSH1 0x0 DUP1 SLOAD PUSH1 0x1 PUSH1 0x1 PUSH1 0xA0 SHL SUB DUP4 DUP2 AND PUSH1 0x1 PUSH1 0x1 PUSH1 0xA0 SHL SUB NOT DUP4 AND DUP2 OR DUP5 SSTORE PUSH1 0x40 MLOAD SWAP2 SWAP1 SWAP3 AND SWAP3 DUP4 SWAP2 PUSH32 0x8BE0079C531659141344CD1FD0A4F28419497F9722A3DAAFE3B4186F6B6457E0 SWAP2 SWAP1 LOG3 POP POP JUMP JUMPDEST DUP1 MLOAD DUP3 MLOAD EQ PUSH3 0x130 JUMPI PUSH1 0x40 MLOAD PUSH3 0x461BCD PUSH1 0xE5 SHL DUP2 MSTORE PUSH1 0x20 PUSH1 0x4 DUP3 ADD MSTORE PUSH1 0x23 PUSH1 0x24 DUP3 ADD MSTORE PUSH32 0x66756E6374696F6E20696E666F726D6174696F6E206172697479206D69736D61 PUSH1 0x44 DUP3 ADD MSTORE PUSH3 0xE8C6D PUSH1 0xEB SHL PUSH1 0x64 DUP3 ADD MSTORE PUSH1 0x84 ADD JUMPDEST PUSH1 0x40 MLOAD DUP1 SWAP2 SUB SWAP1 REVERT JUMPDEST PUSH1 0x0 JUMPDEST DUP3 MLOAD DUP2 LT ISZERO PUSH3 0x1B4 JUMPI PUSH3 0x19F DUP4 DUP3 DUP2 MLOAD DUP2 LT PUSH3 0x162 JUMPI PUSH4 0x4E487B71 PUSH1 0xE0 SHL PUSH1 0x0 MSTORE PUSH1 0x32 PUSH1 0x4 MSTORE PUSH1 0x24 PUSH1 0x0 REVERT JUMPDEST PUSH1 0x20 MUL PUSH1 0x20 ADD ADD MLOAD DUP4 DUP4 DUP2 MLOAD DUP2 LT PUSH3 0x18B JUMPI PUSH4 0x4E487B71 PUSH1 0xE0 SHL PUSH1 0x0 MSTORE PUSH1 0x32 PUSH1 0x4 MSTORE PUSH1 0x24 PUSH1 0x0 REVERT JUMPDEST PUSH1 0x20 MUL PUSH1 0x20 ADD ADD MLOAD PUSH3 0x1B9 PUSH1 0x20 SHL PUSH1 0x20 SHR JUMP JUMPDEST DUP1 PUSH3 0x1AB DUP2 PUSH3 0x5D2 JUMP JUMPDEST SWAP2 POP POP PUSH3 0x133 JUMP JUMPDEST POP POP POP JUMP JUMPDEST DUP2 MLOAD PUSH3 0x1FD JUMPI PUSH1 0x40 MLOAD PUSH3 0x461BCD PUSH1 0xE5 SHL DUP2 MSTORE PUSH1 0x20 PUSH1 0x4 DUP3 ADD MSTORE PUSH1 0x11 PUSH1 0x24 DUP3 ADD MSTORE PUSH17 0x6C6F616E5479706520697320656D707479 PUSH1 0x78 SHL PUSH1 0x44 DUP3 ADD MSTORE PUSH1 0x64 ADD PUSH3 0x127 JUMP JUMPDEST PUSH1 0x40 MLOAD PUSH4 0xF99A8FFB PUSH1 0xE0 SHL DUP2 MSTORE PUSH1 0x0 SWAP1 PUSH20 0x0 SWAP1 PUSH4 0xF99A8FFB SWAP1 PUSH3 0x239 SWAP1 DUP7 SWAP1 PUSH1 0x4 ADD PUSH3 0x511 JUMP JUMPDEST PUSH1 0x20 PUSH1 0x40 MLOAD DUP1 DUP4 SUB DUP2 DUP7 DUP1 EXTCODESIZE ISZERO DUP1 ISZERO PUSH3 0x252 JUMPI PUSH1 0x0 DUP1 REVERT JUMPDEST POP GAS DELEGATECALL ISZERO DUP1 ISZERO PUSH3 0x267 JUMPI RETURNDATASIZE PUSH1 0x0 DUP1 RETURNDATACOPY RETURNDATASIZE PUSH1 0x0 REVERT JUMPDEST POP POP POP POP PUSH1 0x40 MLOAD RETURNDATASIZE PUSH1 0x1F NOT PUSH1 0x1F DUP3 ADD AND DUP3 ADD DUP1 PUSH1 0x40 MSTORE POP DUP2 ADD SWAP1 PUSH3 0x28D SWAP2 SWAP1 PUSH3 0x4F8 JUMP JUMPDEST PUSH1 0x0 DUP2 DUP2 MSTORE PUSH1 0x1 PUSH1 0x20 SWAP1 DUP2 MSTORE PUSH1 0x40 DUP1 DUP4 KECCAK256 DUP1 SLOAD PUSH1 0x1 PUSH1 0x1 PUSH1 0xA0 SHL SUB NOT AND PUSH1 0x1 PUSH1 0x1 PUSH1 0xA0 SHL SUB DUP9 AND SWAP1 DUP2 OR SWAP1 SWAP2 SSTORE DUP1 DUP5 MSTORE PUSH1 0x2 SWAP1 SWAP3 MSTORE DUP1 DUP4 KECCAK256 DUP5 SWAP1 SSTORE MLOAD SWAP3 SWAP4 POP SWAP2 DUP4 SWAP2 PUSH32 0x22BE69269C1F7D73E73DCB25B710DD88C7AA1CF374C16D945DEF98DF2107C2F8 SWAP2 LOG3 POP POP POP JUMP JUMPDEST DUP1 MLOAD PUSH1 0x1 PUSH1 0x1 PUSH1 0xA0 SHL SUB DUP2 AND DUP2 EQ PUSH3 0x30F JUMPI PUSH1 0x0 DUP1 REVERT JUMPDEST SWAP2 SWAP1 POP JUMP JUMPDEST PUSH1 0x0 DUP3 PUSH1 0x1F DUP4 ADD SLT PUSH3 0x325 JUMPI DUP1 DUP2 REVERT JUMPDEST DUP2 MLOAD PUSH1 0x20 PUSH3 0x33E PUSH3 0x338 DUP4 PUSH3 0x579 JUMP JUMPDEST PUSH3 0x546 JUMP JUMPDEST DUP1 DUP4 DUP3 MSTORE DUP3 DUP3 ADD SWAP2 POP DUP3 DUP7 ADD DUP8 DUP5 DUP7 PUSH1 0x5 SHL DUP10 ADD ADD GT ISZERO PUSH3 0x35E JUMPI DUP6 DUP7 REVERT JUMPDEST DUP6 JUMPDEST DUP6 DUP2 LT ISZERO PUSH3 0x387 JUMPI PUSH3 0x374 DUP3 PUSH3 0x2F7 JUMP JUMPDEST DUP5 MSTORE SWAP3 DUP5 ADD SWAP3 SWAP1 DUP5 ADD SWAP1 PUSH1 0x1 ADD PUSH3 0x360 JUMP JUMPDEST POP SWAP1 SWAP8 SWAP7 POP POP POP POP POP POP POP JUMP JUMPDEST PUSH1 0x0 DUP1 PUSH1 0x0 DUP1 PUSH1 0x80 DUP6 DUP8 SUB SLT ISZERO PUSH3 0x3AA JUMPI DUP4 DUP5 REVERT JUMPDEST PUSH3 0x3B5 DUP6 PUSH3 0x2F7 JUMP JUMPDEST SWAP4 POP PUSH3 0x3C5 PUSH1 0x20 DUP7 ADD PUSH3 0x2F7 JUMP JUMPDEST PUSH1 0x40 DUP7 ADD MLOAD SWAP1 SWAP4 POP PUSH1 0x1 PUSH1 0x1 PUSH1 0x40 SHL SUB DUP1 DUP3 GT ISZERO PUSH3 0x3E2 JUMPI DUP4 DUP5 REVERT JUMPDEST DUP2 DUP8 ADD SWAP2 POP DUP8 PUSH1 0x1F DUP4 ADD SLT PUSH3 0x3F6 JUMPI DUP4 DUP5 REVERT JUMPDEST DUP2 MLOAD PUSH3 0x407 PUSH3 0x338 DUP3 PUSH3 0x579 JUMP JUMPDEST DUP1 DUP3 DUP3 MSTORE PUSH1 0x20 DUP3 ADD SWAP2 POP PUSH1 0x20 DUP6 ADD DUP12 PUSH1 0x20 DUP6 PUSH1 0x5 SHL DUP9 ADD ADD GT ISZERO PUSH3 0x42A JUMPI DUP8 DUP9 REVERT JUMPDEST DUP8 JUMPDEST DUP5 DUP2 LT ISZERO PUSH3 0x4C2 JUMPI DUP2 MLOAD DUP7 DUP2 GT ISZERO PUSH3 0x444 JUMPI DUP10 DUP11 REVERT JUMPDEST DUP8 ADD PUSH1 0x3F DUP2 ADD DUP15 SGT PUSH3 0x455 JUMPI DUP10 DUP11 REVERT JUMPDEST PUSH1 0x20 DUP2 ADD MLOAD DUP8 DUP2 GT ISZERO PUSH3 0x46D JUMPI PUSH3 0x46D PUSH3 0x5FA JUMP JUMPDEST PUSH3 0x482 PUSH1 0x1F DUP3 ADD PUSH1 0x1F NOT AND PUSH1 0x20 ADD PUSH3 0x546 JUMP JUMPDEST DUP2 DUP2 MSTORE DUP16 PUSH1 0x40 DUP4 DUP6 ADD ADD GT ISZERO PUSH3 0x497 JUMPI DUP12 DUP13 REVERT JUMPDEST PUSH3 0x4AA DUP3 PUSH1 0x20 DUP4 ADD PUSH1 0x40 DUP7 ADD PUSH3 0x59F JUMP JUMPDEST DUP7 MSTORE POP POP PUSH1 0x20 SWAP4 DUP5 ADD SWAP4 SWAP2 SWAP1 SWAP2 ADD SWAP1 PUSH1 0x1 ADD PUSH3 0x42C JUMP JUMPDEST POP POP PUSH1 0x60 DUP11 ADD MLOAD SWAP1 SWAP7 POP SWAP4 POP POP POP DUP1 DUP3 GT ISZERO PUSH3 0x4DD JUMPI DUP3 DUP4 REVERT JUMPDEST POP PUSH3 0x4EC DUP8 DUP3 DUP9 ADD PUSH3 0x314 JUMP JUMPDEST SWAP2 POP POP SWAP3 SWAP6 SWAP2 SWAP5 POP SWAP3 POP JUMP JUMPDEST PUSH1 0x0 PUSH1 0x20 DUP3 DUP5 SUB SLT ISZERO PUSH3 0x50A JUMPI DUP1 DUP2 REVERT JUMPDEST POP MLOAD SWAP2 SWAP1 POP JUMP JUMPDEST PUSH1 0x20 DUP2 MSTORE PUSH1 0x0 DUP3 MLOAD DUP1 PUSH1 0x20 DUP5 ADD MSTORE PUSH3 0x532 DUP2 PUSH1 0x40 DUP6 ADD PUSH1 0x20 DUP8 ADD PUSH3 0x59F JUMP JUMPDEST PUSH1 0x1F ADD PUSH1 0x1F NOT AND SWAP2 SWAP1 SWAP2 ADD PUSH1 0x40 ADD SWAP3 SWAP2 POP POP JUMP JUMPDEST PUSH1 0x40 MLOAD PUSH1 0x1F DUP3 ADD PUSH1 0x1F NOT AND DUP2 ADD PUSH1 0x1 PUSH1 0x1 PUSH1 0x40 SHL SUB DUP2 GT DUP3 DUP3 LT OR ISZERO PUSH3 0x571 JUMPI PUSH3 0x571 PUSH3 0x5FA JUMP JUMPDEST PUSH1 0x40 MSTORE SWAP2 SWAP1 POP JUMP JUMPDEST PUSH1 0x0 PUSH1 0x1 PUSH1 0x1 PUSH1 0x40 SHL SUB DUP3 GT ISZERO PUSH3 0x595 JUMPI PUSH3 0x595 PUSH3 0x5FA JUMP JUMPDEST POP PUSH1 0x5 SHL PUSH1 0x20 ADD SWAP1 JUMP JUMPDEST PUSH1 0x0 JUMPDEST DUP4 DUP2 LT ISZERO PUSH3 0x5BC JUMPI DUP2 DUP2 ADD MLOAD DUP4 DUP3 ADD MSTORE PUSH1 0x20 ADD PUSH3 0x5A2 JUMP JUMPDEST DUP4 DUP2 GT ISZERO PUSH3 0x5CC JUMPI PUSH1 0x0 DUP5 DUP5 ADD MSTORE JUMPDEST POP POP POP POP JUMP JUMPDEST PUSH1 0x0 PUSH1 0x0 NOT DUP3 EQ ISZERO PUSH3 0x5F3 JUMPI PUSH4 0x4E487B71 PUSH1 0xE0 SHL DUP2 MSTORE PUSH1 0x11 PUSH1 0x4 MSTORE PUSH1 0x24 DUP2 REVERT JUMPDEST POP PUSH1 0x1 ADD SWAP1 JUMP JUMPDEST PUSH4 0x4E487B71 PUSH1 0xE0 SHL PUSH1 0x0 MSTORE PUSH1 0x41 PUSH1 0x4 MSTORE PUSH1 0x24 PUSH1 0x0 REVERT JUMPDEST PUSH1 0x80 MLOAD PUSH1 0x60 SHR PUSH1 0xA0 MLOAD PUSH1 0x60 SHR PUSH2 0x173C PUSH3 0x63C PUSH1 0x0 CODECOPY PUSH1 0x0 PUSH2 0x64B ADD MSTORE PUSH1 0x0 PUSH2 0x158 ADD MSTORE PUSH2 0x173C PUSH1 0x0 RETURN INVALID PUSH1 0x80 PUSH1 0x40 MSTORE CALLVALUE DUP1 ISZERO PUSH2 0x10 JUMPI PUSH1 0x0 DUP1 REVERT JUMPDEST POP PUSH1 0x4 CALLDATASIZE LT PUSH2 0xE0 JUMPI PUSH1 0x0 CALLDATALOAD PUSH1 0xE0 SHR DUP1 PUSH4 0x8208E76C GT PUSH2 0x87 JUMPI DUP1 PUSH4 0x8208E76C EQ PUSH2 0x20B JUMPI DUP1 PUSH4 0x86D93F66 EQ PUSH2 0x21E JUMPI DUP1 PUSH4 0x8DA5CB5B EQ PUSH2 0x255 JUMPI DUP1 PUSH4 0x92163EA6 EQ PUSH2 0x266 JUMPI DUP1 PUSH4 0xD1F76595 EQ PUSH2 0x279 JUMPI DUP1 PUSH4 0xD5D4D182 EQ PUSH2 0x28C JUMPI DUP1 PUSH4 0xE6C5A541 EQ PUSH2 0x29F JUMPI DUP1 PUSH4 0xF2FDE38B EQ PUSH2 0x2BF JUMPI PUSH1 0x0 DUP1 REVERT JUMPDEST DUP1 PUSH4 0x8ABEFA9 EQ PUSH2 0xE5 JUMPI DUP1 PUSH4 0x1B982CF1 EQ PUSH2 0x12B JUMPI DUP1 PUSH4 0x26041874 EQ PUSH2 0x140 JUMPI DUP1 PUSH4 0x365A86FC EQ PUSH2 0x153 JUMPI DUP1 PUSH4 0x485CC955 EQ PUSH2 0x17A JUMPI DUP1 PUSH4 0x4FBE68A0 EQ PUSH2 0x18D JUMPI DUP1 PUSH4 0x52A067E5 EQ PUSH2 0x1A0 JUMPI DUP1 PUSH4 0x5794FEFC EQ PUSH2 0x1E6 JUMPI JUMPDEST PUSH1 0x0 DUP1 REVERT JUMPDEST PUSH2 0x10E PUSH2 0xF3 CALLDATASIZE PUSH1 0x4 PUSH2 0x1437 JUMP JUMPDEST PUSH1 0x0 SWAP1 DUP2 MSTORE PUSH1 0x1 PUSH1 0x20 MSTORE PUSH1 0x40 SWAP1 KECCAK256 SLOAD PUSH1 0x1 PUSH1 0x1 PUSH1 0xA0 SHL SUB AND SWAP1 JUMP JUMPDEST PUSH1 0x40 MLOAD PUSH1 0x1 PUSH1 0x1 PUSH1 0xA0 SHL SUB SWAP1 SWAP2 AND DUP2 MSTORE PUSH1 0x20 ADD JUMPDEST PUSH1 0x40 MLOAD DUP1 SWAP2 SUB SWAP1 RETURN JUMPDEST PUSH2 0x13E PUSH2 0x139 CALLDATASIZE PUSH1 0x4 PUSH2 0x14C3 JUMP JUMPDEST PUSH2 0x2D2 JUMP JUMPDEST STOP JUMPDEST PUSH2 0x13E PUSH2 0x14E CALLDATASIZE PUSH1 0x4 PUSH2 0x1345 JUMP JUMPDEST PUSH2 0x608 JUMP JUMPDEST PUSH2 0x10E PUSH32 0x0 DUP2 JUMP JUMPDEST PUSH2 0x13E PUSH2 0x188 CALLDATASIZE PUSH1 0x4 PUSH2 0x12EA JUMP JUMPDEST PUSH2 0x640 JUMP JUMPDEST PUSH1 0x5 SLOAD PUSH2 0x10E SWAP1 PUSH1 0x1 PUSH1 0x1 PUSH1 0xA0 SHL SUB AND DUP2 JUMP JUMPDEST PUSH2 0x1D6 PUSH2 0x1AE CALLDATASIZE PUSH1 0x4 PUSH2 0x14C3 JUMP JUMPDEST PUSH4 0xFFFFFFFF SWAP1 SWAP2 AND PUSH1 0x0 SWAP1 DUP2 MSTORE PUSH1 0x4 PUSH1 0x20 MSTORE PUSH1 0x40 SWAP1 KECCAK256 SLOAD PUSH1 0x1 PUSH1 0x1 PUSH1 0xA0 SHL SUB SWAP1 DUP2 AND SWAP2 AND EQ SWAP1 JUMP JUMPDEST PUSH1 0x40 MLOAD SWAP1 ISZERO ISZERO DUP2 MSTORE PUSH1 0x20 ADD PUSH2 0x122 JUMP JUMPDEST PUSH1 0x3 SLOAD PUSH2 0x1F6 SWAP1 PUSH4 0xFFFFFFFF AND DUP2 JUMP JUMPDEST PUSH1 0x40 MLOAD PUSH4 0xFFFFFFFF SWAP1 SWAP2 AND DUP2 MSTORE PUSH1 0x20 ADD PUSH2 0x122 JUMP JUMPDEST PUSH1 0x6 SLOAD PUSH2 0x10E SWAP1 PUSH1 0x1 PUSH1 0x1 PUSH1 0xA0 SHL SUB AND DUP2 JUMP JUMPDEST PUSH2 0x247 PUSH2 0x22C CALLDATASIZE PUSH1 0x4 PUSH2 0x12C9 JUMP JUMPDEST PUSH1 0x1 PUSH1 0x1 PUSH1 0xA0 SHL SUB AND PUSH1 0x0 SWAP1 DUP2 MSTORE PUSH1 0x2 PUSH1 0x20 MSTORE PUSH1 0x40 SWAP1 KECCAK256 SLOAD SWAP1 JUMP JUMPDEST PUSH1 0x40 MLOAD SWAP1 DUP2 MSTORE PUSH1 0x20 ADD PUSH2 0x122 JUMP JUMPDEST PUSH1 0x0 SLOAD PUSH1 0x1 PUSH1 0x1 PUSH1 0xA0 SHL SUB AND PUSH2 0x10E JUMP JUMPDEST PUSH2 0x13E PUSH2 0x274 CALLDATASIZE PUSH1 0x4 PUSH2 0x14A9 JUMP JUMPDEST PUSH2 0x7E6 JUMP JUMPDEST PUSH2 0x1F6 PUSH2 0x287 CALLDATASIZE PUSH1 0x4 PUSH2 0x131C JUMP JUMPDEST PUSH2 0xAE2 JUMP JUMPDEST PUSH2 0x13E PUSH2 0x29A CALLDATASIZE PUSH1 0x4 PUSH2 0x1467 JUMP JUMPDEST PUSH2 0xDCD JUMP JUMPDEST PUSH2 0x2B2 PUSH2 0x2AD CALLDATASIZE PUSH1 0x4 PUSH2 0x14A9 JUMP JUMPDEST PUSH2 0xE01 JUMP JUMPDEST PUSH1 0x40 MLOAD PUSH2 0x122 SWAP2 SWAP1 PUSH2 0x1606 JUMP JUMPDEST PUSH2 0x13E PUSH2 0x2CD CALLDATASIZE PUSH1 0x4 PUSH2 0x12C9 JUMP JUMPDEST PUSH2 0xEC0 JUMP JUMPDEST PUSH1 0x3 SLOAD PUSH1 0x1 PUSH1 0x20 SHL SWAP1 DIV PUSH1 0xFF AND PUSH2 0x304 JUMPI PUSH1 0x40 MLOAD PUSH3 0x461BCD PUSH1 0xE5 SHL DUP2 MSTORE PUSH1 0x4 ADD PUSH2 0x2FB SWAP1 PUSH2 0x15A8 JUMP JUMPDEST PUSH1 0x40 MLOAD DUP1 SWAP2 SUB SWAP1 REVERT JUMPDEST CALLER PUSH1 0x0 DUP2 DUP2 MSTORE PUSH1 0x2 PUSH1 0x20 MSTORE PUSH1 0x40 DUP2 KECCAK256 SLOAD EQ ISZERO PUSH2 0x370 JUMPI PUSH1 0x40 MLOAD PUSH3 0x461BCD PUSH1 0xE5 SHL DUP2 MSTORE PUSH1 0x20 PUSH1 0x4 DUP3 ADD MSTORE PUSH1 0x25 PUSH1 0x24 DUP3 ADD MSTORE PUSH32 0x43616C6C6572206D75737420612062652072656769737465726564206C6F616E PUSH1 0x44 DUP3 ADD MSTORE PUSH5 0x2074797065 PUSH1 0xD8 SHL PUSH1 0x64 DUP3 ADD MSTORE PUSH1 0x84 ADD PUSH2 0x2FB JUMP JUMPDEST PUSH4 0xFFFFFFFF DUP4 AND PUSH1 0x0 SWAP1 DUP2 MSTORE PUSH1 0x4 PUSH1 0x20 MSTORE PUSH1 0x40 SWAP1 KECCAK256 SLOAD PUSH1 0x1 PUSH1 0xA0 SHL SWAP1 DIV PUSH1 0x1 PUSH1 0x1 PUSH1 0x40 SHL SUB AND DUP1 PUSH2 0x3D8 JUMPI PUSH1 0x40 MLOAD PUSH3 0x461BCD PUSH1 0xE5 SHL DUP2 MSTORE PUSH1 0x20 PUSH1 0x4 DUP3 ADD MSTORE PUSH1 0x12 PUSH1 0x24 DUP3 ADD MSTORE PUSH18 0x1B1BD85B88191BD95CDB89DD08195E1A5CDD PUSH1 0x72 SHL PUSH1 0x44 DUP3 ADD MSTORE PUSH1 0x64 ADD PUSH2 0x2FB JUMP JUMPDEST PUSH1 0x5 SLOAD PUSH1 0x40 MLOAD PUSH4 0x4F558E79 PUSH1 0xE0 SHL DUP2 MSTORE PUSH1 0x1 PUSH1 0x1 PUSH1 0x40 SHL SUB DUP4 AND PUSH1 0x4 DUP3 ADD MSTORE PUSH1 0x1 PUSH1 0x1 PUSH1 0xA0 SHL SUB SWAP1 SWAP2 AND SWAP1 PUSH4 0x4F558E79 SWAP1 PUSH1 0x24 ADD PUSH1 0x20 PUSH1 0x40 MLOAD DUP1 DUP4 SUB DUP2 DUP7 DUP1 EXTCODESIZE ISZERO DUP1 ISZERO PUSH2 0x424 JUMPI PUSH1 0x0 DUP1 REVERT JUMPDEST POP GAS STATICCALL ISZERO DUP1 ISZERO PUSH2 0x438 JUMPI RETURNDATASIZE PUSH1 0x0 DUP1 RETURNDATACOPY RETURNDATASIZE PUSH1 0x0 REVERT JUMPDEST POP POP POP POP PUSH1 0x40 MLOAD RETURNDATASIZE PUSH1 0x1F NOT PUSH1 0x1F DUP3 ADD AND DUP3 ADD DUP1 PUSH1 0x40 MSTORE POP DUP2 ADD SWAP1 PUSH2 0x45C SWAP2 SWAP1 PUSH2 0x1417 JUMP JUMPDEST PUSH2 0x4A8 JUMPI PUSH1 0x40 MLOAD PUSH3 0x461BCD PUSH1 0xE5 SHL DUP2 MSTORE PUSH1 0x20 PUSH1 0x4 DUP3 ADD MSTORE PUSH1 0x1C PUSH1 0x24 DUP3 ADD MSTORE PUSH32 0x50726F6D6973736F7279206E6F74652073686F756C6420657869737400000000 PUSH1 0x44 DUP3 ADD MSTORE PUSH1 0x64 ADD PUSH2 0x2FB JUMP JUMPDEST PUSH1 0x6 SLOAD PUSH1 0x40 MLOAD PUSH4 0x4F558E79 PUSH1 0xE0 SHL DUP2 MSTORE PUSH1 0x1 PUSH1 0x1 PUSH1 0x40 SHL SUB DUP4 AND PUSH1 0x4 DUP3 ADD MSTORE PUSH1 0x1 PUSH1 0x1 PUSH1 0xA0 SHL SUB SWAP1 SWAP2 AND SWAP1 PUSH4 0x4F558E79 SWAP1 PUSH1 0x24 ADD PUSH1 0x20 PUSH1 0x40 MLOAD DUP1 DUP4 SUB DUP2 DUP7 DUP1 EXTCODESIZE ISZERO DUP1 ISZERO PUSH2 0x4F4 JUMPI PUSH1 0x0 DUP1 REVERT JUMPDEST POP GAS STATICCALL ISZERO DUP1 ISZERO PUSH2 0x508 JUMPI RETURNDATASIZE PUSH1 0x0 DUP1 RETURNDATACOPY RETURNDATASIZE PUSH1 0x0 REVERT JUMPDEST POP POP POP POP PUSH1 0x40 MLOAD RETURNDATASIZE PUSH1 0x1F NOT PUSH1 0x1F DUP3 ADD AND DUP3 ADD DUP1 PUSH1 0x40 MSTORE POP DUP2 ADD SWAP1 PUSH2 0x52C SWAP2 SWAP1 PUSH2 0x1417 JUMP JUMPDEST ISZERO PUSH2 0x579 JUMPI PUSH1 0x40 MLOAD PUSH3 0x461BCD PUSH1 0xE5 SHL DUP2 MSTORE PUSH1 0x20 PUSH1 0x4 DUP3 ADD MSTORE PUSH1 0x1C PUSH1 0x24 DUP3 ADD MSTORE PUSH32 0x4F626C69676174696F6E20722073686F756C646E277420657869737400000000 PUSH1 0x44 DUP3 ADD MSTORE PUSH1 0x64 ADD PUSH2 0x2FB JUMP JUMPDEST PUSH1 0x6 SLOAD PUSH1 0x40 DUP1 MLOAD PUSH4 0xFFFFFFFF DUP8 AND PUSH1 0x20 DUP3 ADD MSTORE PUSH1 0x1 PUSH1 0x1 PUSH1 0xA0 SHL SUB SWAP1 SWAP3 AND SWAP2 PUSH4 0x94D008EF SWAP2 DUP7 SWAP2 DUP6 SWAP2 ADD PUSH1 0x40 MLOAD PUSH1 0x20 DUP2 DUP4 SUB SUB DUP2 MSTORE SWAP1 PUSH1 0x40 MSTORE PUSH1 0x40 MLOAD DUP5 PUSH4 0xFFFFFFFF AND PUSH1 0xE0 SHL DUP2 MSTORE PUSH1 0x4 ADD PUSH2 0x5D0 SWAP4 SWAP3 SWAP2 SWAP1 PUSH2 0x154B JUMP JUMPDEST PUSH1 0x0 PUSH1 0x40 MLOAD DUP1 DUP4 SUB DUP2 PUSH1 0x0 DUP8 DUP1 EXTCODESIZE ISZERO DUP1 ISZERO PUSH2 0x5EA JUMPI PUSH1 0x0 DUP1 REVERT JUMPDEST POP GAS CALL ISZERO DUP1 ISZERO PUSH2 0x5FE JUMPI RETURNDATASIZE PUSH1 0x0 DUP1 RETURNDATACOPY RETURNDATASIZE PUSH1 0x0 REVERT JUMPDEST POP POP POP POP POP POP POP POP JUMP JUMPDEST PUSH1 0x0 SLOAD PUSH1 0x1 PUSH1 0x1 PUSH1 0xA0 SHL SUB AND CALLER EQ PUSH2 0x632 JUMPI PUSH1 0x40 MLOAD PUSH3 0x461BCD PUSH1 0xE5 SHL DUP2 MSTORE PUSH1 0x4 ADD PUSH2 0x2FB SWAP1 PUSH2 0x15D1 JUMP JUMPDEST PUSH2 0x63C DUP3 DUP3 PUSH2 0xF5B JUMP JUMPDEST POP POP JUMP JUMPDEST CALLER PUSH1 0x1 PUSH1 0x1 PUSH1 0xA0 SHL SUB PUSH32 0x0 AND EQ PUSH2 0x6A8 JUMPI PUSH1 0x40 MLOAD PUSH3 0x461BCD PUSH1 0xE5 SHL DUP2 MSTORE PUSH1 0x20 PUSH1 0x4 DUP3 ADD MSTORE PUSH1 0xD PUSH1 0x24 DUP3 ADD MSTORE PUSH13 0x37B7363C903232B83637BCB2B9 PUSH1 0x99 SHL PUSH1 0x44 DUP3 ADD MSTORE PUSH1 0x64 ADD PUSH2 0x2FB JUMP JUMPDEST PUSH1 0x3 SLOAD PUSH1 0x1 PUSH1 0x20 SHL SWAP1 DIV PUSH1 0xFF AND ISZERO PUSH2 0x6F8 JUMPI PUSH1 0x40 MLOAD PUSH3 0x461BCD PUSH1 0xE5 SHL DUP2 MSTORE PUSH1 0x20 PUSH1 0x4 DUP3 ADD MSTORE PUSH1 0x13 PUSH1 0x24 DUP3 ADD MSTORE PUSH19 0x185B1C9958591E481A5B9A5D1A585B1A5E9959 PUSH1 0x6A SHL PUSH1 0x44 DUP3 ADD MSTORE PUSH1 0x64 ADD PUSH2 0x2FB JUMP JUMPDEST PUSH1 0x1 PUSH1 0x1 PUSH1 0xA0 SHL SUB DUP3 AND PUSH2 0x74E JUMPI PUSH1 0x40 MLOAD PUSH3 0x461BCD PUSH1 0xE5 SHL DUP2 MSTORE PUSH1 0x20 PUSH1 0x4 DUP3 ADD MSTORE PUSH1 0x1B PUSH1 0x24 DUP3 ADD MSTORE PUSH32 0x70726F6D6973736F72794E6F7465546F6B656E206973207A65726F0000000000 PUSH1 0x44 DUP3 ADD MSTORE PUSH1 0x64 ADD PUSH2 0x2FB JUMP JUMPDEST PUSH1 0x1 PUSH1 0x1 PUSH1 0xA0 SHL SUB DUP2 AND PUSH2 0x7A4 JUMPI PUSH1 0x40 MLOAD PUSH3 0x461BCD PUSH1 0xE5 SHL DUP2 MSTORE PUSH1 0x20 PUSH1 0x4 DUP3 ADD MSTORE PUSH1 0x1E PUSH1 0x24 DUP3 ADD MSTORE PUSH32 0x6F626C69676174696F6E52656365697074546F6B656E206973207A65726F0000 PUSH1 0x44 DUP3 ADD MSTORE PUSH1 0x64 ADD PUSH2 0x2FB JUMP JUMPDEST PUSH1 0x3 DUP1 SLOAD PUSH5 0xFF00000000 NOT AND PUSH1 0x1 PUSH1 0x20 SHL OR SWAP1 SSTORE PUSH1 0x5 DUP1 SLOAD PUSH1 0x1 PUSH1 0x1 PUSH1 0xA0 SHL SUB SWAP4 DUP5 AND PUSH1 0x1 PUSH1 0x1 PUSH1 0xA0 SHL SUB NOT SWAP2 DUP3 AND OR SWAP1 SWAP2 SSTORE PUSH1 0x6 DUP1 SLOAD SWAP3 SWAP1 SWAP4 AND SWAP2 AND OR SWAP1 SSTORE JUMP JUMPDEST PUSH1 0x3 SLOAD PUSH1 0x1 PUSH1 0x20 SHL SWAP1 DIV PUSH1 0xFF AND PUSH2 0x80F JUMPI PUSH1 0x40 MLOAD PUSH3 0x461BCD PUSH1 0xE5 SHL DUP2 MSTORE PUSH1 0x4 ADD PUSH2 0x2FB SWAP1 PUSH2 0x15A8 JUMP JUMPDEST PUSH4 0xFFFFFFFF DUP2 AND PUSH1 0x0 SWAP1 DUP2 MSTORE PUSH1 0x4 PUSH1 0x20 MSTORE PUSH1 0x40 SWAP1 KECCAK256 PUSH1 0x1 DUP2 SLOAD PUSH1 0x1 PUSH1 0xE0 SHL SWAP1 DIV PUSH1 0xFF AND PUSH1 0x2 DUP2 GT ISZERO PUSH2 0x851 JUMPI PUSH4 0x4E487B71 PUSH1 0xE0 SHL PUSH1 0x0 MSTORE PUSH1 0x21 PUSH1 0x4 MSTORE PUSH1 0x24 PUSH1 0x0 REVERT JUMPDEST EQ PUSH2 0x898 JUMPI PUSH1 0x40 MLOAD PUSH3 0x461BCD PUSH1 0xE5 SHL DUP2 MSTORE PUSH1 0x20 PUSH1 0x4 DUP3 ADD MSTORE PUSH1 0x17 PUSH1 0x24 DUP3 ADD MSTORE PUSH23 0x4C6F616E20737461747573206D757374206265204E6577 PUSH1 0x48 SHL PUSH1 0x44 DUP3 ADD MSTORE PUSH1 0x64 ADD PUSH2 0x2FB JUMP JUMPDEST DUP1 SLOAD PUSH1 0x1 PUSH1 0x1 PUSH1 0xA0 SHL SUB AND CALLER EQ PUSH2 0x904 JUMPI PUSH1 0x40 MLOAD PUSH3 0x461BCD PUSH1 0xE5 SHL DUP2 MSTORE PUSH1 0x20 PUSH1 0x4 DUP3 ADD MSTORE PUSH1 0x2A PUSH1 0x24 DUP3 ADD MSTORE PUSH32 0x4E6F74207468652073616D6520436F6E74726163742074686174207265676973 PUSH1 0x44 DUP3 ADD MSTORE PUSH10 0x3A32B932B2102637B0B7 PUSH1 0xB1 SHL PUSH1 0x64 DUP3 ADD MSTORE PUSH1 0x84 ADD PUSH2 0x2FB JUMP JUMPDEST DUP1 SLOAD PUSH1 0x1 PUSH1 0xE1 SHL PUSH1 0xFF PUSH1 0xE0 SHL NOT SWAP1 SWAP2 AND OR DUP1 DUP3 SSTORE PUSH1 0x5 SLOAD PUSH1 0x40 MLOAD PUSH4 0x852CD8D PUSH1 0xE3 SHL DUP2 MSTORE PUSH1 0x1 PUSH1 0x1 PUSH1 0x40 SHL SUB PUSH1 0x1 PUSH1 0xA0 SHL SWAP1 SWAP4 DIV SWAP3 SWAP1 SWAP3 AND PUSH1 0x4 DUP4 ADD MSTORE PUSH1 0x1 PUSH1 0x1 PUSH1 0xA0 SHL SUB AND SWAP1 PUSH4 0x42966C68 SWAP1 PUSH1 0x24 ADD PUSH1 0x0 PUSH1 0x40 MLOAD DUP1 DUP4 SUB DUP2 PUSH1 0x0 DUP8 DUP1 EXTCODESIZE ISZERO DUP1 ISZERO PUSH2 0x96E JUMPI PUSH1 0x0 DUP1 REVERT JUMPDEST POP GAS CALL ISZERO DUP1 ISZERO PUSH2 0x982 JUMPI RETURNDATASIZE PUSH1 0x0 DUP1 RETURNDATACOPY RETURNDATASIZE PUSH1 0x0 REVERT JUMPDEST POP POP PUSH1 0x6 SLOAD DUP4 SLOAD PUSH1 0x40 MLOAD PUSH4 0x4F558E79 PUSH1 0xE0 SHL DUP2 MSTORE PUSH1 0x1 PUSH1 0xA0 SHL SWAP1 SWAP2 DIV PUSH1 0x1 PUSH1 0x1 PUSH1 0x40 SHL SUB AND PUSH1 0x4 DUP3 ADD MSTORE PUSH1 0x1 PUSH1 0x1 PUSH1 0xA0 SHL SUB SWAP1 SWAP2 AND SWAP3 POP PUSH4 0x4F558E79 SWAP2 POP PUSH1 0x24 ADD PUSH1 0x20 PUSH1 0x40 MLOAD DUP1 DUP4 SUB DUP2 DUP7 DUP1 EXTCODESIZE ISZERO DUP1 ISZERO PUSH2 0x9DB JUMPI PUSH1 0x0 DUP1 REVERT JUMPDEST POP GAS STATICCALL ISZERO DUP1 ISZERO PUSH2 0x9EF JUMPI RETURNDATASIZE PUSH1 0x0 DUP1 RETURNDATACOPY RETURNDATASIZE PUSH1 0x0 REVERT JUMPDEST POP POP POP POP PUSH1 0x40 MLOAD RETURNDATASIZE PUSH1 0x1F NOT PUSH1 0x1F DUP3 ADD AND DUP3 ADD DUP1 PUSH1 0x40 MSTORE POP DUP2 ADD SWAP1 PUSH2 0xA13 SWAP2 SWAP1 PUSH2 0x1417 JUMP JUMPDEST ISZERO PUSH2 0xA88 JUMPI PUSH1 0x6 SLOAD DUP2 SLOAD PUSH1 0x40 MLOAD PUSH4 0x852CD8D PUSH1 0xE3 SHL DUP2 MSTORE PUSH1 0x1 PUSH1 0xA0 SHL SWAP1 SWAP2 DIV PUSH1 0x1 PUSH1 0x1 PUSH1 0x40 SHL SUB AND PUSH1 0x4 DUP3 ADD MSTORE PUSH1 0x1 PUSH1 0x1 PUSH1 0xA0 SHL SUB SWAP1 SWAP2 AND SWAP1 PUSH4 0x42966C68 SWAP1 PUSH1 0x24 ADD PUSH1 0x0 PUSH1 0x40 MLOAD DUP1 DUP4 SUB DUP2 PUSH1 0x0 DUP8 DUP1 EXTCODESIZE ISZERO DUP1 ISZERO PUSH2 0xA6F JUMPI PUSH1 0x0 DUP1 REVERT JUMPDEST POP GAS CALL ISZERO DUP1 ISZERO PUSH2 0xA83 JUMPI RETURNDATASIZE PUSH1 0x0 DUP1 RETURNDATACOPY RETURNDATASIZE PUSH1 0x0 REVERT JUMPDEST POP POP POP POP JUMPDEST DUP1 SLOAD PUSH1 0x40 MLOAD CALLER SWAP2 PUSH1 0x1 PUSH1 0xA0 SHL SWAP1 DIV PUSH1 0x1 PUSH1 0x1 PUSH1 0x40 SHL SUB AND SWAP1 PUSH4 0xFFFFFFFF DUP6 AND SWAP1 PUSH32 0xED71188E6E889129EA3E58F204838C0D459C617582CBBC6759017F50820EDB5C SWAP1 PUSH2 0xAD6 SWAP1 PUSH1 0x2 SWAP1 PUSH2 0x1587 JUMP JUMPDEST PUSH1 0x40 MLOAD DUP1 SWAP2 SUB SWAP1 LOG4 POP POP JUMP JUMPDEST PUSH1 0x3 SLOAD PUSH1 0x0 SWAP1 PUSH1 0x1 PUSH1 0x20 SHL SWAP1 DIV PUSH1 0xFF AND PUSH2 0xB0E JUMPI PUSH1 0x40 MLOAD PUSH3 0x461BCD PUSH1 0xE5 SHL DUP2 MSTORE PUSH1 0x4 ADD PUSH2 0x2FB SWAP1 PUSH2 0x15A8 JUMP JUMPDEST CALLER DUP1 PUSH2 0xB2F DUP5 PUSH1 0x0 SWAP1 DUP2 MSTORE PUSH1 0x1 PUSH1 0x20 MSTORE PUSH1 0x40 SWAP1 KECCAK256 SLOAD PUSH1 0x1 PUSH1 0x1 PUSH1 0xA0 SHL SUB AND SWAP1 JUMP JUMPDEST PUSH1 0x1 PUSH1 0x1 PUSH1 0xA0 SHL SUB AND EQ PUSH2 0xB95 JUMPI PUSH1 0x40 MLOAD PUSH3 0x461BCD PUSH1 0xE5 SHL DUP2 MSTORE PUSH1 0x20 PUSH1 0x4 DUP3 ADD MSTORE PUSH1 0x27 PUSH1 0x24 DUP3 ADD MSTORE PUSH32 0x43616C6C6572206D757374206265207265676973746572656420666F72206C6F PUSH1 0x44 DUP3 ADD MSTORE PUSH7 0x616E2074797065 PUSH1 0xC8 SHL PUSH1 0x64 DUP3 ADD MSTORE PUSH1 0x84 ADD PUSH2 0x2FB JUMP JUMPDEST PUSH1 0x3 DUP1 SLOAD PUSH1 0x1 SWAP2 SWAP1 PUSH1 0x0 SWAP1 PUSH2 0xBB1 SWAP1 DUP5 SWAP1 PUSH4 0xFFFFFFFF AND PUSH2 0x1697 JUMP JUMPDEST DUP3 SLOAD PUSH2 0x100 SWAP3 SWAP1 SWAP3 EXP PUSH4 0xFFFFFFFF DUP2 DUP2 MUL NOT SWAP1 SWAP4 AND SWAP2 SWAP1 SWAP3 AND SWAP2 SWAP1 SWAP2 MUL OR SWAP1 SSTORE POP PUSH1 0x3 SLOAD PUSH1 0x40 MLOAD ADDRESS PUSH1 0x60 SHL PUSH12 0xFFFFFFFFFFFFFFFFFFFFFFFF NOT AND PUSH1 0x20 DUP3 ADD MSTORE PUSH1 0xE0 SWAP2 SWAP1 SWAP2 SHL PUSH1 0x1 PUSH1 0x1 PUSH1 0xE0 SHL SUB NOT AND PUSH1 0x34 DUP3 ADD MSTORE PUSH1 0x0 SWAP1 PUSH1 0x38 ADD PUSH1 0x40 DUP1 MLOAD DUP1 DUP4 SUB PUSH1 0x1F NOT ADD DUP2 MSTORE DUP3 DUP3 MSTORE DUP1 MLOAD PUSH1 0x20 SWAP2 DUP3 ADD KECCAK256 PUSH1 0x60 DUP5 ADD DUP4 MSTORE PUSH1 0x1 PUSH1 0x1 PUSH1 0xA0 SHL SUB DUP7 DUP2 AND DUP6 MSTORE PUSH1 0x1 PUSH1 0x1 PUSH1 0x40 SHL SUB DUP3 AND DUP4 DUP7 ADD MSTORE PUSH1 0x1 DUP6 DUP6 ADD MSTORE PUSH1 0x5 SLOAD PUSH1 0x3 SLOAD DUP6 MLOAD PUSH4 0xFFFFFFFF SWAP1 SWAP2 AND SWAP5 DUP2 ADD SWAP5 SWAP1 SWAP5 MSTORE SWAP2 SWAP6 POP AND SWAP2 PUSH4 0x94D008EF SWAP2 DUP10 SWAP2 DUP7 SWAP2 ADD PUSH1 0x40 MLOAD PUSH1 0x20 DUP2 DUP4 SUB SUB DUP2 MSTORE SWAP1 PUSH1 0x40 MSTORE PUSH1 0x40 MLOAD DUP5 PUSH4 0xFFFFFFFF AND PUSH1 0xE0 SHL DUP2 MSTORE PUSH1 0x4 ADD PUSH2 0xC9E SWAP4 SWAP3 SWAP2 SWAP1 PUSH2 0x154B JUMP JUMPDEST PUSH1 0x0 PUSH1 0x40 MLOAD DUP1 DUP4 SUB DUP2 PUSH1 0x0 DUP8 DUP1 EXTCODESIZE ISZERO DUP1 ISZERO PUSH2 0xCB8 JUMPI PUSH1 0x0 DUP1 REVERT JUMPDEST POP GAS CALL ISZERO DUP1 ISZERO PUSH2 0xCCC JUMPI RETURNDATASIZE PUSH1 0x0 DUP1 RETURNDATACOPY RETURNDATASIZE PUSH1 0x0 REVERT JUMPDEST POP POP PUSH1 0x3 SLOAD PUSH4 0xFFFFFFFF AND PUSH1 0x0 SWAP1 DUP2 MSTORE PUSH1 0x4 PUSH1 0x20 SWAP1 DUP2 MSTORE PUSH1 0x40 SWAP2 DUP3 SWAP1 KECCAK256 DUP6 MLOAD DUP2 SLOAD SWAP3 DUP8 ADD MLOAD PUSH1 0x1 PUSH1 0x1 PUSH1 0x40 SHL SUB AND PUSH1 0x1 PUSH1 0xA0 SHL MUL PUSH1 0x1 PUSH1 0x1 PUSH1 0xE0 SHL SUB NOT SWAP1 SWAP4 AND PUSH1 0x1 PUSH1 0x1 PUSH1 0xA0 SHL SUB SWAP1 SWAP2 AND OR SWAP2 SWAP1 SWAP2 OR DUP1 DUP3 SSTORE SWAP2 DUP6 ADD MLOAD DUP6 SWAP5 POP SWAP1 SWAP3 POP SWAP1 DUP3 SWAP1 PUSH1 0xFF PUSH1 0xE0 SHL NOT AND PUSH1 0x1 PUSH1 0xE0 SHL DUP4 PUSH1 0x2 DUP2 GT ISZERO PUSH2 0xD58 JUMPI PUSH4 0x4E487B71 PUSH1 0xE0 SHL PUSH1 0x0 MSTORE PUSH1 0x21 PUSH1 0x4 MSTORE PUSH1 0x24 PUSH1 0x0 REVERT JUMPDEST MUL OR SWAP1 SSTORE POP POP PUSH1 0x3 SLOAD PUSH1 0x40 MLOAD PUSH1 0x1 PUSH1 0x1 PUSH1 0xA0 SHL SUB DUP7 AND SWAP3 POP PUSH1 0x1 PUSH1 0x1 PUSH1 0x40 SHL SUB DUP6 AND SWAP2 PUSH4 0xFFFFFFFF AND SWAP1 PUSH32 0xED71188E6E889129EA3E58F204838C0D459C617582CBBC6759017F50820EDB5C SWAP1 PUSH2 0xDB0 SWAP1 PUSH1 0x1 SWAP1 PUSH2 0x1587 JUMP JUMPDEST PUSH1 0x40 MLOAD DUP1 SWAP2 SUB SWAP1 LOG4 POP POP PUSH1 0x3 SLOAD PUSH4 0xFFFFFFFF AND SWAP2 POP POP JUMPDEST SWAP3 SWAP2 POP POP JUMP JUMPDEST PUSH1 0x0 SLOAD PUSH1 0x1 PUSH1 0x1 PUSH1 0xA0 SHL SUB AND CALLER EQ PUSH2 0xDF7 JUMPI PUSH1 0x40 MLOAD PUSH3 0x461BCD PUSH1 0xE5 SHL DUP2 MSTORE PUSH1 0x4 ADD PUSH2 0x2FB SWAP1 PUSH2 0x15D1 JUMP JUMPDEST PUSH2 0x63C DUP3 DUP3 PUSH2 0x1033 JUMP JUMPDEST PUSH2 0xE22 PUSH1 0x40 DUP1 MLOAD PUSH1 0x60 DUP2 ADD DUP3 MSTORE PUSH1 0x0 DUP1 DUP3 MSTORE PUSH1 0x20 DUP3 ADD DUP2 SWAP1 MSTORE SWAP1 SWAP2 DUP3 ADD MSTORE SWAP1 JUMP JUMPDEST PUSH4 0xFFFFFFFF DUP3 AND PUSH1 0x0 SWAP1 DUP2 MSTORE PUSH1 0x4 PUSH1 0x20 SWAP1 DUP2 MSTORE PUSH1 0x40 SWAP2 DUP3 SWAP1 KECCAK256 DUP3 MLOAD PUSH1 0x60 DUP2 ADD DUP5 MSTORE DUP2 SLOAD PUSH1 0x1 PUSH1 0x1 PUSH1 0xA0 SHL SUB DUP2 AND DUP3 MSTORE PUSH1 0x1 PUSH1 0xA0 SHL DUP2 DIV PUSH1 0x1 PUSH1 0x1 PUSH1 0x40 SHL SUB AND SWAP4 DUP3 ADD SWAP4 SWAP1 SWAP4 MSTORE SWAP3 SWAP1 SWAP2 SWAP1 DUP4 ADD SWAP1 PUSH1 0x1 PUSH1 0xE0 SHL SWAP1 DIV PUSH1 0xFF AND PUSH1 0x2 DUP2 GT ISZERO PUSH2 0xE98 JUMPI PUSH4 0x4E487B71 PUSH1 0xE0 SHL PUSH1 0x0 MSTORE PUSH1 0x21 PUSH1 0x4 MSTORE PUSH1 0x24 PUSH1 0x0 REVERT JUMPDEST PUSH1 0x2 DUP2 GT ISZERO PUSH2 0xEB7 JUMPI PUSH4 0x4E487B71 PUSH1 0xE0 SHL PUSH1 0x0 MSTORE PUSH1 0x21 PUSH1 0x4 MSTORE PUSH1 0x24 PUSH1 0x0 REVERT JUMPDEST SWAP1 MSTORE POP SWAP3 SWAP2 POP POP JUMP JUMPDEST PUSH1 0x0 SLOAD PUSH1 0x1 PUSH1 0x1 PUSH1 0xA0 SHL SUB AND CALLER EQ PUSH2 0xEEA JUMPI PUSH1 0x40 MLOAD PUSH3 0x461BCD PUSH1 0xE5 SHL DUP2 MSTORE PUSH1 0x4 ADD PUSH2 0x2FB SWAP1 PUSH2 0x15D1 JUMP JUMPDEST PUSH1 0x1 PUSH1 0x1 PUSH1 0xA0 SHL SUB DUP2 AND PUSH2 0xF4F JUMPI PUSH1 0x40 MLOAD PUSH3 0x461BCD PUSH1 0xE5 SHL DUP2 MSTORE PUSH1 0x20 PUSH1 0x4 DUP3 ADD MSTORE PUSH1 0x26 PUSH1 0x24 DUP3 ADD MSTORE PUSH32 0x4F776E61626C653A206E6577206F776E657220697320746865207A65726F2061 PUSH1 0x44 DUP3 ADD MSTORE PUSH6 0x646472657373 PUSH1 0xD0 SHL PUSH1 0x64 DUP3 ADD MSTORE PUSH1 0x84 ADD PUSH2 0x2FB JUMP JUMPDEST PUSH2 0xF58 DUP2 PUSH2 0x1169 JUMP JUMPDEST POP JUMP JUMPDEST DUP1 MLOAD DUP3 MLOAD EQ PUSH2 0xFB8 JUMPI PUSH1 0x40 MLOAD PUSH3 0x461BCD PUSH1 0xE5 SHL DUP2 MSTORE PUSH1 0x20 PUSH1 0x4 DUP3 ADD MSTORE PUSH1 0x23 PUSH1 0x24 DUP3 ADD MSTORE PUSH32 0x66756E6374696F6E20696E666F726D6174696F6E206172697479206D69736D61 PUSH1 0x44 DUP3 ADD MSTORE PUSH3 0xE8C6D PUSH1 0xEB SHL PUSH1 0x64 DUP3 ADD MSTORE PUSH1 0x84 ADD PUSH2 0x2FB JUMP JUMPDEST PUSH1 0x0 JUMPDEST DUP3 MLOAD DUP2 LT ISZERO PUSH2 0x102E JUMPI PUSH2 0x101C DUP4 DUP3 DUP2 MLOAD DUP2 LT PUSH2 0xFE7 JUMPI PUSH4 0x4E487B71 PUSH1 0xE0 SHL PUSH1 0x0 MSTORE PUSH1 0x32 PUSH1 0x4 MSTORE PUSH1 0x24 PUSH1 0x0 REVERT JUMPDEST PUSH1 0x20 MUL PUSH1 0x20 ADD ADD MLOAD DUP4 DUP4 DUP2 MLOAD DUP2 LT PUSH2 0x100F JUMPI PUSH4 0x4E487B71 PUSH1 0xE0 SHL PUSH1 0x0 MSTORE PUSH1 0x32 PUSH1 0x4 MSTORE PUSH1 0x24 PUSH1 0x0 REVERT JUMPDEST PUSH1 0x20 MUL PUSH1 0x20 ADD ADD MLOAD PUSH2 0x1033 JUMP JUMPDEST DUP1 PUSH2 0x1026 DUP2 PUSH2 0x16BF JUMP JUMPDEST SWAP2 POP POP PUSH2 0xFBB JUMP JUMPDEST POP POP POP JUMP JUMPDEST DUP2 MLOAD PUSH2 0x1075 JUMPI PUSH1 0x40 MLOAD PUSH3 0x461BCD PUSH1 0xE5 SHL DUP2 MSTORE PUSH1 0x20 PUSH1 0x4 DUP3 ADD MSTORE PUSH1 0x11 PUSH1 0x24 DUP3 ADD MSTORE PUSH17 0x6C6F616E5479706520697320656D707479 PUSH1 0x78 SHL PUSH1 0x44 DUP3 ADD MSTORE PUSH1 0x64 ADD PUSH2 0x2FB JUMP JUMPDEST PUSH1 0x40 MLOAD PUSH4 0xF99A8FFB PUSH1 0xE0 SHL DUP2 MSTORE PUSH1 0x0 SWAP1 PUSH20 0x0 SWAP1 PUSH4 0xF99A8FFB SWAP1 PUSH2 0x10AF SWAP1 DUP7 SWAP1 PUSH1 0x4 ADD PUSH2 0x1595 JUMP JUMPDEST PUSH1 0x20 PUSH1 0x40 MLOAD DUP1 DUP4 SUB DUP2 DUP7 DUP1 EXTCODESIZE ISZERO DUP1 ISZERO PUSH2 0x10C7 JUMPI PUSH1 0x0 DUP1 REVERT JUMPDEST POP GAS DELEGATECALL ISZERO DUP1 ISZERO PUSH2 0x10DB JUMPI RETURNDATASIZE PUSH1 0x0 DUP1 RETURNDATACOPY RETURNDATASIZE PUSH1 0x0 REVERT JUMPDEST POP POP POP POP PUSH1 0x40 MLOAD RETURNDATASIZE PUSH1 0x1F NOT PUSH1 0x1F DUP3 ADD AND DUP3 ADD DUP1 PUSH1 0x40 MSTORE POP DUP2 ADD SWAP1 PUSH2 0x10FF SWAP2 SWAP1 PUSH2 0x144F JUMP JUMPDEST PUSH1 0x0 DUP2 DUP2 MSTORE PUSH1 0x1 PUSH1 0x20 SWAP1 DUP2 MSTORE PUSH1 0x40 DUP1 DUP4 KECCAK256 DUP1 SLOAD PUSH1 0x1 PUSH1 0x1 PUSH1 0xA0 SHL SUB NOT AND PUSH1 0x1 PUSH1 0x1 PUSH1 0xA0 SHL SUB DUP9 AND SWAP1 DUP2 OR SWAP1 SWAP2 SSTORE DUP1 DUP5 MSTORE PUSH1 0x2 SWAP1 SWAP3 MSTORE DUP1 DUP4 KECCAK256 DUP5 SWAP1 SSTORE MLOAD SWAP3 SWAP4 POP SWAP2 DUP4 SWAP2 PUSH32 0x22BE69269C1F7D73E73DCB25B710DD88C7AA1CF374C16D945DEF98DF2107C2F8 SWAP2 LOG3 POP POP POP JUMP JUMPDEST PUSH1 0x0 DUP1 SLOAD PUSH1 0x1 PUSH1 0x1 PUSH1 0xA0 SHL SUB DUP4 DUP2 AND PUSH1 0x1 PUSH1 0x1 PUSH1 0xA0 SHL SUB NOT DUP4 AND DUP2 OR DUP5 SSTORE PUSH1 0x40 MLOAD SWAP2 SWAP1 SWAP3 AND SWAP3 DUP4 SWAP2 PUSH32 0x8BE0079C531659141344CD1FD0A4F28419497F9722A3DAAFE3B4186F6B6457E0 SWAP2 SWAP1 LOG3 POP POP JUMP JUMPDEST DUP1 CALLDATALOAD PUSH1 0x1 PUSH1 0x1 PUSH1 0xA0 SHL SUB DUP2 AND DUP2 EQ PUSH2 0x11D0 JUMPI PUSH1 0x0 DUP1 REVERT JUMPDEST SWAP2 SWAP1 POP JUMP JUMPDEST PUSH1 0x0 DUP3 PUSH1 0x1F DUP4 ADD SLT PUSH2 0x11E5 JUMPI DUP1 DUP2 REVERT JUMPDEST DUP2 CALLDATALOAD PUSH1 0x20 PUSH2 0x11FA PUSH2 0x11F5 DUP4 PUSH2 0x1674 JUMP JUMPDEST PUSH2 0x1644 JUMP JUMPDEST DUP1 DUP4 DUP3 MSTORE DUP3 DUP3 ADD SWAP2 POP DUP3 DUP7 ADD DUP8 DUP5 DUP7 PUSH1 0x5 SHL DUP10 ADD ADD GT ISZERO PUSH2 0x1219 JUMPI DUP6 DUP7 REVERT JUMPDEST DUP6 JUMPDEST DUP6 DUP2 LT ISZERO PUSH2 0x123E JUMPI PUSH2 0x122C DUP3 PUSH2 0x11B9 JUMP JUMPDEST DUP5 MSTORE SWAP3 DUP5 ADD SWAP3 SWAP1 DUP5 ADD SWAP1 PUSH1 0x1 ADD PUSH2 0x121B JUMP JUMPDEST POP SWAP1 SWAP8 SWAP7 POP POP POP POP POP POP POP JUMP JUMPDEST PUSH1 0x0 DUP3 PUSH1 0x1F DUP4 ADD SLT PUSH2 0x125B JUMPI DUP1 DUP2 REVERT JUMPDEST DUP2 CALLDATALOAD PUSH1 0x1 PUSH1 0x1 PUSH1 0x40 SHL SUB DUP2 GT ISZERO PUSH2 0x1274 JUMPI PUSH2 0x1274 PUSH2 0x16F0 JUMP JUMPDEST PUSH2 0x1287 PUSH1 0x1F DUP3 ADD PUSH1 0x1F NOT AND PUSH1 0x20 ADD PUSH2 0x1644 JUMP JUMPDEST DUP2 DUP2 MSTORE DUP5 PUSH1 0x20 DUP4 DUP7 ADD ADD GT ISZERO PUSH2 0x129B JUMPI DUP3 DUP4 REVERT JUMPDEST DUP2 PUSH1 0x20 DUP6 ADD PUSH1 0x20 DUP4 ADD CALLDATACOPY SWAP1 DUP2 ADD PUSH1 0x20 ADD SWAP2 SWAP1 SWAP2 MSTORE SWAP3 SWAP2 POP POP JUMP JUMPDEST DUP1 CALLDATALOAD PUSH4 0xFFFFFFFF DUP2 AND DUP2 EQ PUSH2 0x11D0 JUMPI PUSH1 0x0 DUP1 REVERT JUMPDEST PUSH1 0x0 PUSH1 0x20 DUP3 DUP5 SUB SLT ISZERO PUSH2 0x12DA JUMPI DUP1 DUP2 REVERT JUMPDEST PUSH2 0x12E3 DUP3 PUSH2 0x11B9 JUMP JUMPDEST SWAP4 SWAP3 POP POP POP JUMP JUMPDEST PUSH1 0x0 DUP1 PUSH1 0x40 DUP4 DUP6 SUB SLT ISZERO PUSH2 0x12FC JUMPI DUP1 DUP2 REVERT JUMPDEST PUSH2 0x1305 DUP4 PUSH2 0x11B9 JUMP JUMPDEST SWAP2 POP PUSH2 0x1313 PUSH1 0x20 DUP5 ADD PUSH2 0x11B9 JUMP JUMPDEST SWAP1 POP SWAP3 POP SWAP3 SWAP1 POP JUMP JUMPDEST PUSH1 0x0 DUP1 PUSH1 0x40 DUP4 DUP6 SUB SLT ISZERO PUSH2 0x132E JUMPI DUP2 DUP3 REVERT JUMPDEST PUSH2 0x1337 DUP4 PUSH2 0x11B9 JUMP JUMPDEST SWAP5 PUSH1 0x20 SWAP4 SWAP1 SWAP4 ADD CALLDATALOAD SWAP4 POP POP POP JUMP JUMPDEST PUSH1 0x0 DUP1 PUSH1 0x40 DUP4 DUP6 SUB SLT ISZERO PUSH2 0x1357 JUMPI DUP2 DUP3 REVERT JUMPDEST DUP3 CALLDATALOAD PUSH1 0x1 PUSH1 0x1 PUSH1 0x40 SHL SUB DUP1 DUP3 GT ISZERO PUSH2 0x136D JUMPI DUP4 DUP5 REVERT JUMPDEST DUP2 DUP6 ADD SWAP2 POP DUP6 PUSH1 0x1F DUP4 ADD SLT PUSH2 0x1380 JUMPI DUP4 DUP5 REVERT JUMPDEST DUP2 CALLDATALOAD PUSH1 0x20 PUSH2 0x1390 PUSH2 0x11F5 DUP4 PUSH2 0x1674 JUMP JUMPDEST DUP1 DUP4 DUP3 MSTORE DUP3 DUP3 ADD SWAP2 POP DUP3 DUP7 ADD DUP11 DUP5 DUP7 PUSH1 0x5 SHL DUP10 ADD ADD GT ISZERO PUSH2 0x13AF JUMPI DUP9 DUP10 REVERT JUMPDEST DUP9 JUMPDEST DUP6 DUP2 LT ISZERO PUSH2 0x13E8 JUMPI DUP2 CALLDATALOAD DUP8 DUP2 GT ISZERO PUSH2 0x13C7 JUMPI DUP11 DUP12 REVERT JUMPDEST PUSH2 0x13D5 DUP14 DUP8 DUP4 DUP13 ADD ADD PUSH2 0x124B JUMP JUMPDEST DUP6 MSTORE POP SWAP3 DUP5 ADD SWAP3 SWAP1 DUP5 ADD SWAP1 PUSH1 0x1 ADD PUSH2 0x13B1 JUMP JUMPDEST POP SWAP1 SWAP8 POP POP POP DUP7 ADD CALLDATALOAD SWAP3 POP POP DUP1 DUP3 GT ISZERO PUSH2 0x1400 JUMPI DUP3 DUP4 REVERT JUMPDEST POP PUSH2 0x140D DUP6 DUP3 DUP7 ADD PUSH2 0x11D5 JUMP JUMPDEST SWAP2 POP POP SWAP3 POP SWAP3 SWAP1 POP JUMP JUMPDEST PUSH1 0x0 PUSH1 0x20 DUP3 DUP5 SUB SLT ISZERO PUSH2 0x1428 JUMPI DUP1 DUP2 REVERT JUMPDEST DUP2 MLOAD DUP1 ISZERO ISZERO DUP2 EQ PUSH2 0x12E3 JUMPI DUP2 DUP3 REVERT JUMPDEST PUSH1 0x0 PUSH1 0x20 DUP3 DUP5 SUB SLT ISZERO PUSH2 0x1448 JUMPI DUP1 DUP2 REVERT JUMPDEST POP CALLDATALOAD SWAP2 SWAP1 POP JUMP JUMPDEST PUSH1 0x0 PUSH1 0x20 DUP3 DUP5 SUB SLT ISZERO PUSH2 0x1460 JUMPI DUP1 DUP2 REVERT JUMPDEST POP MLOAD SWAP2 SWAP1 POP JUMP JUMPDEST PUSH1 0x0 DUP1 PUSH1 0x40 DUP4 DUP6 SUB SLT ISZERO PUSH2 0x1479 JUMPI DUP2 DUP3 REVERT JUMPDEST DUP3 CALLDATALOAD PUSH1 0x1 PUSH1 0x1 PUSH1 0x40 SHL SUB DUP2 GT ISZERO PUSH2 0x148E JUMPI DUP3 DUP4 REVERT JUMPDEST PUSH2 0x149A DUP6 DUP3 DUP7 ADD PUSH2 0x124B JUMP JUMPDEST SWAP3 POP POP PUSH2 0x1313 PUSH1 0x20 DUP5 ADD PUSH2 0x11B9 JUMP JUMPDEST PUSH1 0x0 PUSH1 0x20 DUP3 DUP5 SUB SLT ISZERO PUSH2 0x14BA JUMPI DUP1 DUP2 REVERT JUMPDEST PUSH2 0x12E3 DUP3 PUSH2 0x12B5 JUMP JUMPDEST PUSH1 0x0 DUP1 PUSH1 0x40 DUP4 DUP6 SUB SLT ISZERO PUSH2 0x14D5 JUMPI DUP2 DUP3 REVERT JUMPDEST PUSH2 0x1305 DUP4 PUSH2 0x12B5 JUMP JUMPDEST PUSH1 0x0 DUP2 MLOAD DUP1 DUP5 MSTORE DUP2 JUMPDEST DUP2 DUP2 LT ISZERO PUSH2 0x1503 JUMPI PUSH1 0x20 DUP2 DUP6 ADD DUP2 ADD MLOAD DUP7 DUP4 ADD DUP3 ADD MSTORE ADD PUSH2 0x14E7 JUMP JUMPDEST DUP2 DUP2 GT ISZERO PUSH2 0x1514 JUMPI DUP3 PUSH1 0x20 DUP4 DUP8 ADD ADD MSTORE JUMPDEST POP PUSH1 0x1F ADD PUSH1 0x1F NOT AND SWAP3 SWAP1 SWAP3 ADD PUSH1 0x20 ADD SWAP3 SWAP2 POP POP JUMP JUMPDEST PUSH1 0x3 DUP2 LT PUSH2 0x1547 JUMPI PUSH4 0x4E487B71 PUSH1 0xE0 SHL PUSH1 0x0 MSTORE PUSH1 0x21 PUSH1 0x4 MSTORE PUSH1 0x24 PUSH1 0x0 REVERT JUMPDEST SWAP1 MSTORE JUMP JUMPDEST PUSH1 0x1 PUSH1 0x1 PUSH1 0xA0 SHL SUB DUP5 AND DUP2 MSTORE PUSH1 0x1 PUSH1 0x1 PUSH1 0x40 SHL SUB DUP4 AND PUSH1 0x20 DUP3 ADD MSTORE PUSH1 0x60 PUSH1 0x40 DUP3 ADD DUP2 SWAP1 MSTORE PUSH1 0x0 SWAP1 PUSH2 0x157E SWAP1 DUP4 ADD DUP5 PUSH2 0x14DE JUMP JUMPDEST SWAP6 SWAP5 POP POP POP POP POP JUMP JUMPDEST PUSH1 0x20 DUP2 ADD PUSH2 0xDC7 DUP3 DUP5 PUSH2 0x1529 JUMP JUMPDEST PUSH1 0x20 DUP2 MSTORE PUSH1 0x0 PUSH2 0x12E3 PUSH1 0x20 DUP4 ADD DUP5 PUSH2 0x14DE JUMP JUMPDEST PUSH1 0x20 DUP1 DUP3 MSTORE PUSH1 0xF SWAP1 DUP3 ADD MSTORE PUSH15 0x1B9BDD081A5B9A5D1A585B1A5E9959 PUSH1 0x8A SHL PUSH1 0x40 DUP3 ADD MSTORE PUSH1 0x60 ADD SWAP1 JUMP JUMPDEST PUSH1 0x20 DUP1 DUP3 MSTORE DUP2 DUP2 ADD MSTORE PUSH32 0x4F776E61626C653A2063616C6C6572206973206E6F7420746865206F776E6572 PUSH1 0x40 DUP3 ADD MSTORE PUSH1 0x60 ADD SWAP1 JUMP JUMPDEST DUP2 MLOAD PUSH1 0x1 PUSH1 0x1 PUSH1 0xA0 SHL SUB AND DUP2 MSTORE PUSH1 0x20 DUP1 DUP4 ADD MLOAD PUSH1 0x1 PUSH1 0x1 PUSH1 0x40 SHL SUB AND SWAP1 DUP3 ADD MSTORE PUSH1 0x40 DUP1 DUP4 ADD MLOAD PUSH1 0x60 DUP4 ADD SWAP2 PUSH2 0x163D SWAP1 DUP5 ADD DUP3 PUSH2 0x1529 JUMP JUMPDEST POP SWAP3 SWAP2 POP POP JUMP JUMPDEST PUSH1 0x40 MLOAD PUSH1 0x1F DUP3 ADD PUSH1 0x1F NOT AND DUP2 ADD PUSH1 0x1 PUSH1 0x1 PUSH1 0x40 SHL SUB DUP2 GT DUP3 DUP3 LT OR ISZERO PUSH2 0x166C JUMPI PUSH2 0x166C PUSH2 0x16F0 JUMP JUMPDEST PUSH1 0x40 MSTORE SWAP2 SWAP1 POP JUMP JUMPDEST PUSH1 0x0 PUSH1 0x1 PUSH1 0x1 PUSH1 0x40 SHL SUB DUP3 GT ISZERO PUSH2 0x168D JUMPI PUSH2 0x168D PUSH2 0x16F0 JUMP JUMPDEST POP PUSH1 0x5 SHL PUSH1 0x20 ADD SWAP1 JUMP JUMPDEST PUSH1 0x0 PUSH4 0xFFFFFFFF DUP1 DUP4 AND DUP2 DUP6 AND DUP1 DUP4 SUB DUP3 GT ISZERO PUSH2 0x16B6 JUMPI PUSH2 0x16B6 PUSH2 0x16DA JUMP JUMPDEST ADD SWAP5 SWAP4 POP POP POP POP JUMP JUMPDEST PUSH1 0x0 PUSH1 0x0 NOT DUP3 EQ ISZERO PUSH2 0x16D3 JUMPI PUSH2 0x16D3 PUSH2 0x16DA JUMP JUMPDEST POP PUSH1 0x1 ADD SWAP1 JUMP JUMPDEST PUSH4 0x4E487B71 PUSH1 0xE0 SHL PUSH1 0x0 MSTORE PUSH1 0x11 PUSH1 0x4 MSTORE PUSH1 0x24 PUSH1 0x0 REVERT JUMPDEST PUSH4 0x4E487B71 PUSH1 0xE0 SHL PUSH1 0x0 MSTORE PUSH1 0x41 PUSH1 0x4 MSTORE PUSH1 0x24 PUSH1 0x0 REVERT INVALID LOG2 PUSH5 0x6970667358 0x22 SLT KECCAK256 REVERT PUSH23 0x97FF580FA62BF0FDE7B7AC8ED7A2070B649B58BBBA319C SWAP6 DUP15 MUL RETURNDATACOPY CALLDATACOPY 0x29 DUP16 PUSH5 0x736F6C6343 STOP ADDMOD DIV STOP CALLER "
		},
		"gasEstimates": {
			"creation": {
				"codeDepositCost": "1189600",
				"executionCost": "infinite",
				"totalCost": "infinite"
			},
			"external": {
				"getContractFromType(bytes32)": "1167",
				"getLoanData(uint32)": "1880",
				"getTypeFromContract(address)": "1259",
				"hub()": "infinite",
				"initialize(address,address)": "infinite",
				"isValidLoanId(uint32,address)": "infinite",
				"mintObligationReceipt(uint32,address)": "infinite",
				"obligationReceiptToken()": "1026",
				"owner()": "1064",
				"promissoryNoteToken()": "1137",
				"registerLoan(address,bytes32)": "infinite",
				"registerLoanType(string,address)": "infinite",
				"registerLoanTypes(string[],address[])": "infinite",
				"resolveLoan(uint32)": "infinite",
				"totalNumLoans()": "1168",
				"transferOwnership(address)": "23763"
			},
			"internal": {
				"_registerLoanType(string memory,address)": "infinite",
				"_registerLoanTypes(string memory[] memory,address[] memory)": "infinite"
			}
		},
		"methodIdentifiers": {
			"getContractFromType(bytes32)": "08abefa9",
			"getLoanData(uint32)": "e6c5a541",
			"getTypeFromContract(address)": "86d93f66",
			"hub()": "365a86fc",
			"initialize(address,address)": "485cc955",
			"isValidLoanId(uint32,address)": "52a067e5",
			"mintObligationReceipt(uint32,address)": "1b982cf1",
			"obligationReceiptToken()": "8208e76c",
			"owner()": "8da5cb5b",
			"promissoryNoteToken()": "4fbe68a0",
			"registerLoan(address,bytes32)": "d1f76595",
			"registerLoanType(string,address)": "d5d4d182",
			"registerLoanTypes(string[],address[])": "26041874",
			"resolveLoan(uint32)": "92163ea6",
			"totalNumLoans()": "5794fefc",
			"transferOwnership(address)": "f2fde38b"
		}
	},
	"abi": [
		{
			"inputs": [
				{
					"internalType": "address",
					"name": "_nftfiHub",
					"type": "address"
				},
				{
					"internalType": "address",
					"name": "_admin",
					"type": "address"
				},
				{
					"internalType": "string[]",
					"name": "_loanTypes",
					"type": "string[]"
				},
				{
					"internalType": "address[]",
					"name": "_loanContracts",
					"type": "address[]"
				}
			],
			"stateMutability": "nonpayable",
			"type": "constructor"
		},
		{
			"anonymous": false,
			"inputs": [
				{
					"indexed": true,
					"internalType": "address",
					"name": "previousOwner",
					"type": "address"
				},
				{
					"indexed": true,
					"internalType": "address",
					"name": "newOwner",
					"type": "address"
				}
			],
			"name": "OwnershipTransferred",
			"type": "event"
		},
		{
			"anonymous": false,
			"inputs": [
				{
					"indexed": true,
					"internalType": "bytes32",
					"name": "loanType",
					"type": "bytes32"
				},
				{
					"indexed": true,
					"internalType": "address",
					"name": "loanContract",
					"type": "address"
				}
			],
			"name": "TypeUpdated",
			"type": "event"
		},
		{
			"anonymous": false,
			"inputs": [
				{
					"indexed": true,
					"internalType": "uint32",
					"name": "loanId",
					"type": "uint32"
				},
				{
					"indexed": true,
					"internalType": "uint64",
					"name": "smartNftId",
					"type": "uint64"
				},
				{
					"indexed": true,
					"internalType": "address",
					"name": "loanContract",
					"type": "address"
				},
				{
					"indexed": false,
					"internalType": "enum IDirectLoanCoordinator.StatusType",
					"name": "newStatus",
					"type": "uint8"
				}
			],
			"name": "UpdateStatus",
			"type": "event"
		},
		{
			"inputs": [
				{
					"internalType": "bytes32",
					"name": "_loanType",
					"type": "bytes32"
				}
			],
			"name": "getContractFromType",
			"outputs": [
				{
					"internalType": "address",
					"name": "",
					"type": "address"
				}
			],
			"stateMutability": "view",
			"type": "function"
		},
		{
			"inputs": [
				{
					"internalType": "uint32",
					"name": "_loanId",
					"type": "uint32"
				}
			],
			"name": "getLoanData",
			"outputs": [
				{
					"components": [
						{
							"internalType": "address",
							"name": "loanContract",
							"type": "address"
						},
						{
							"internalType": "uint64",
							"name": "smartNftId",
							"type": "uint64"
						},
						{
							"internalType": "enum IDirectLoanCoordinator.StatusType",
							"name": "status",
							"type": "uint8"
						}
					],
					"internalType": "struct IDirectLoanCoordinator.Loan",
					"name": "",
					"type": "tuple"
				}
			],
			"stateMutability": "view",
			"type": "function"
		},
		{
			"inputs": [
				{
					"internalType": "address",
					"name": "_loanContract",
					"type": "address"
				}
			],
			"name": "getTypeFromContract",
			"outputs": [
				{
					"internalType": "bytes32",
					"name": "",
					"type": "bytes32"
				}
			],
			"stateMutability": "view",
			"type": "function"
		},
		{
			"inputs": [],
			"name": "hub",
			"outputs": [
				{
					"internalType": "contract INftfiHub",
					"name": "",
					"type": "address"
				}
			],
			"stateMutability": "view",
			"type": "function"
		},
		{
			"inputs": [
				{
					"internalType": "address",
					"name": "_promissoryNoteToken",
					"type": "address"
				},
				{
					"internalType": "address",
					"name": "_obligationReceiptToken",
					"type": "address"
				}
			],
			"name": "initialize",
			"outputs": [],
			"stateMutability": "nonpayable",
			"type": "function"
		},
		{
			"inputs": [
				{
					"internalType": "uint32",
					"name": "_loanId",
					"type": "uint32"
				},
				{
					"internalType": "address",
					"name": "_loanContract",
					"type": "address"
				}
			],
			"name": "isValidLoanId",
			"outputs": [
				{
					"internalType": "bool",
					"name": "validity",
					"type": "bool"
				}
			],
			"stateMutability": "view",
			"type": "function"
		},
		{
			"inputs": [
				{
					"internalType": "uint32",
					"name": "_loanId",
					"type": "uint32"
				},
				{
					"internalType": "address",
					"name": "_borrower",
					"type": "address"
				}
			],
			"name": "mintObligationReceipt",
			"outputs": [],
			"stateMutability": "nonpayable",
			"type": "function"
		},
		{
			"inputs": [],
			"name": "obligationReceiptToken",
			"outputs": [
				{
					"internalType": "address",
					"name": "",
					"type": "address"
				}
			],
			"stateMutability": "view",
			"type": "function"
		},
		{
			"inputs": [],
			"name": "owner",
			"outputs": [
				{
					"internalType": "address",
					"name": "",
					"type": "address"
				}
			],
			"stateMutability": "view",
			"type": "function"
		},
		{
			"inputs": [],
			"name": "promissoryNoteToken",
			"outputs": [
				{
					"internalType": "address",
					"name": "",
					"type": "address"
				}
			],
			"stateMutability": "view",
			"type": "function"
		},
		{
			"inputs": [
				{
					"internalType": "address",
					"name": "_lender",
					"type": "address"
				},
				{
					"internalType": "bytes32",
					"name": "_loanType",
					"type": "bytes32"
				}
			],
			"name": "registerLoan",
			"outputs": [
				{
					"internalType": "uint32",
					"name": "",
					"type": "uint32"
				}
			],
			"stateMutability": "nonpayable",
			"type": "function"
		},
		{
			"inputs": [
				{
					"internalType": "string",
					"name": "_loanType",
					"type": "string"
				},
				{
					"internalType": "address",
					"name": "_loanContract",
					"type": "address"
				}
			],
			"name": "registerLoanType",
			"outputs": [],
			"stateMutability": "nonpayable",
			"type": "function"
		},
		{
			"inputs": [
				{
					"internalType": "string[]",
					"name": "_loanTypes",
					"type": "string[]"
				},
				{
					"internalType": "address[]",
					"name": "_loanContracts",
					"type": "address[]"
				}
			],
			"name": "registerLoanTypes",
			"outputs": [],
			"stateMutability": "nonpayable",
			"type": "function"
		},
		{
			"inputs": [
				{
					"internalType": "uint32",
					"name": "_loanId",
					"type": "uint32"
				}
			],
			"name": "resolveLoan",
			"outputs": [],
			"stateMutability": "nonpayable",
			"type": "function"
		},
		{
			"inputs": [],
			"name": "totalNumLoans",
			"outputs": [
				{
					"internalType": "uint32",
					"name": "",
					"type": "uint32"
				}
			],
			"stateMutability": "view",
			"type": "function"
		},
		{
			"inputs": [
				{
					"internalType": "address",
					"name": "_newOwner",
					"type": "address"
				}
			],
			"name": "transferOwnership",
			"outputs": [],
			"stateMutability": "nonpayable",
			"type": "function"
		}
	]
}