{
	"data": {
		"bytecode": {
			"linkReferences": {
				"contracts/loans/direct/loanTypes/LoanAirdropUtils.sol": {
					"LoanAirdropUtils": [
						{
							"length": 20,
							"start": 4122
						},
						{
							"length": 20,
							"start": 5384
						}
					]
				},
				"contracts/loans/direct/loanTypes/LoanChecksAndCalculations.sol": {
					"LoanChecksAndCalculations": [
						{
							"length": 20,
							"start": 3409
						},
						{
							"length": 20,
							"start": 3744
						},
						{
							"length": 20,
							"start": 5040
						},
						{
							"length": 20,
							"start": 6692
						},
						{
							"length": 20,
							"start": 9419
						},
						{
							"length": 20,
							"start": 11194
						},
						{
							"length": 20,
							"start": 12381
						},
						{
							"length": 20,
							"start": 12902
						},
						{
							"length": 20,
							"start": 13589
						},
						{
							"length": 20,
							"start": 14478
						}
					]
				},
				"contracts/utils/ContractKeys.sol": {
					"ContractKeys": [
						{
							"length": 20,
							"start": 82
						}
					]
				},
				"contracts/utils/NFTfiSigningUtils.sol": {
					"NFTfiSigningUtils": [
						{
							"length": 20,
							"start": 11500
						},
						{
							"length": 20,
							"start": 12637
						}
					]
				}
			},
			"object": "60c06040526301e91c806002556003805461ffff19166101f41790553480156200002857600080fd5b5060405162004ee238038062004ee28339810160408190526200004b91620002d7565b828282828273__$d7e2e0a2db402280e6c36233d590dce656$__63f99a8ffb6040518163ffffffff1660e01b8152600401620000b89060208082526017908201527f4449524543545f4c4f414e5f434f4f5244494e41544f52000000000000000000604082015260600190565b60206040518083038186803b158015620000d157600080fd5b505af4158015620000e6573d6000803e3d6000fd5b505050506040513d601f19601f820116820180604052508101906200010c9190620003d3565b8383806200011a81620001b0565b50506000805460ff60a01b19168155600180556001600160601b0319606085901b1660a05260808390525b81518110156200019f576200018a8282815181106200017457634e487b7160e01b600052603260045260246000fd5b602002602001015160016200020060201b60201c565b806200019681620003ec565b91505062000145565b50505050505050505050506200042a565b600080546001600160a01b038381166001600160a01b0319831681178455604051919092169283917f8be0079c531659141344cd1fd0a4f28419497f9722a3daafe3b4186f6b6457e09190a35050565b6001600160a01b0382166200025b5760405162461bcd60e51b815260206004820152601560248201527f6572633230206973207a65726f20616464726573730000000000000000000000604482015260640160405180910390fd5b6001600160a01b038216600081815260096020908152604091829020805460ff191685151590811790915591519182527ff100355be652ecc881568750e6a98c0713e4316f75d5314ebc9039e0acb52f24910160405180910390a25050565b80516001600160a01b0381168114620002d257600080fd5b919050565b600080600060608486031215620002ec578283fd5b620002f784620002ba565b9250602062000308818601620002ba565b60408601519093506001600160401b038082111562000325578384fd5b818701915087601f83011262000339578384fd5b8151818111156200034e576200034e62000414565b8060051b604051601f19603f8301168101818110858211171562000376576200037662000414565b604052828152858101935084860182860187018c101562000395578788fd5b8795505b83861015620003c257620003ad81620002ba565b85526001959095019493860193860162000399565b508096505050505050509250925092565b600060208284031215620003e5578081fd5b5051919050565b60006000198214156200040d57634e487b7160e01b81526011600452602481fd5b5060010190565b634e487b7160e01b600052604160045260246000fd5b60805160a05160601c614a1f620004c36000396000818161043b015281816108b0015281816109ff01528181610b8901528181610f0f0152818161101901528181611583015281816118f101528181611b9501528181612252015281816126ca0152818161291501528181612bc401526134c00152600081816104ef015281816118c801528181611b6c01526134970152614a1f6000f3fe608060405234801561001057600080fd5b50600436106101ac5760003560e01c806301ffc9a7146101b157806305b406cf146101d95780630717f3aa146101ee5780630ff81c3f14610211578063150b7a021461027b578063192b355d146102a75780631c6caf41146102be578063227cda18146102d15780632b218022146103d7578063318dacd3146103ea578063328404b0146103fd578063365a86fc146104365780633f4ba83a1461046a57806347948d92146104725780635163a1c31461048557806356efe98c1461049857806359a72734146104ab5780635c975abb146104be578063616693d8146104c65780636ed93dd0146104ce57806377cfa991146104ea5780637836baf11461051157806379b64040146105245780638456cb5914610537578063872873be1461053f5780638da5cb5b146105525780639658e4051461055a578063a4441a6f1461056d578063ab3b12801461057b578063ac4e35ea146105a4578063b18e7772146105b7578063b31ec1d4146105ca578063bc197c81146105dd578063bce42e42146105f0578063f23a6e6114610603578063f2fde38b14610623575b600080fd5b6101c46101bf366004614022565b610636565b60405190151581526020015b60405180910390f35b6101ec6101e7366004613c7c565b610688565b005b6101c46101fc36600461420b565b60066020526000908152604090205460ff1681565b61025161021f36600461420b565b6005602052600090815260409020546001600160a01b0381169061ffff600160a01b8204811691600160b01b90041683565b604080516001600160a01b03909416845261ffff92831660208501529116908201526060016101d0565b61028e610289366004613d9c565b61079f565b6040516001600160e01b031990911681526020016101d0565b6102b060025481565b6040519081526020016101d0565b6101ec6102cc3660046141a3565b6107b0565b6103636102df36600461420b565b600460208190526000918252604090912080546001820154600283015460038401549484015460058501546006909501549395929491936001600160a01b0380851694600160a01b80820463ffffffff1695600160c01b830461ffff90811696600160d01b909404169484841694929093046001600160401b03169290821691168b565b604080519b8c5260208c019a909a52988a01979097526001600160a01b0395861660608a015263ffffffff909416608089015261ffff92831660a0890152911660c0870152821660e08601526001600160401b031661010085015290811661012084015216610140820152610160016101d0565b6101ec6103e536600461420b565b610877565b6101ec6103f8366004614243565b6109c6565b6101c461040b366004613eab565b6001600160a01b03919091166000908152600860209081526040808320938352929052205460ff1690565b61045d7f000000000000000000000000000000000000000000000000000000000000000081565b6040516101d091906144b6565b6101ec610bf3565b6101ec6104803660046141db565b610c2c565b6101ec610493366004613f03565b610cdd565b6101ec6104a63660046140c8565b610e6d565b6101ec6104b936600461420b565b610ed6565b6101c46110fc565b6102b061110c565b6104d761271081565b60405161ffff90911681526020016101d0565b6102b07f000000000000000000000000000000000000000000000000000000000000000081565b6101ec61051f366004613e7e565b61112d565b6101ec610532366004613f44565b61116a565b6101ec61127c565b6101c461054d366004613c3d565b6112b3565b61045d6112d1565b6101ec6105683660046141db565b6112e0565b6003546104d79061ffff1681565b6102b061058936600461420b565b63ffffffff1660009081526004602052604090206001015490565b6101ec6105b2366004613f03565b611361565b6101ec6105c53660046142e2565b611519565b6101ec6105d836600461420b565b61154a565b61028e6105eb366004613ce2565b6117fb565b6101ec6105fe36600461420b565b611844565b61028e610611366004613e05565b63f23a6e6160e01b9695505050505050565b6101ec610631366004613c3d565b611a05565b60006001600160e01b03198216630271189760e51b148061066757506001600160e01b03198216630a85bd0160e11b145b8061068257506001600160e01b031982166301ffc9a760e01b145b92915050565b336106916112d1565b6001600160a01b0316146106c05760405162461bcd60e51b81526004016106b790614551565b60405180910390fd5b6040516370a0823160e01b815282906000906001600160a01b038316906370a08231906106f19030906004016144b6565b60206040518083038186803b15801561070957600080fd5b505afa15801561071d573d6000803e3d6000fd5b505050506040513d601f19601f8201168201806040525081019061074191906141f3565b9050600081116107855760405162461bcd60e51b815260206004820152600f60248201526e1b9bc81d1bdad95b9cc81bdddb9959608a1b60448201526064016106b7565b6107996001600160a01b0383168483611aa2565b50505050565b630a85bd0160e11b5b949350505050565b336107b96112d1565b6001600160a01b0316146107df5760405162461bcd60e51b81526004016106b790614551565b61271061ffff8216111561082c5760405162461bcd60e51b81526020600482015260146024820152730626173697320706f696e7473203e2031303030360641b60448201526064016106b7565b6003805461ffff191661ffff83169081179091556040519081527f03017365bbe16943b524030df07e7689168ab63e854d27417498e6f9dc584dab906020015b60405180910390a150565b61087f611af8565b60405163364d0abb60e11b815273__$1291e1ff22aea68c4ae26c19e2b9f8f397$__90636c9a1576906108d89084907f00000000000000000000000000000000000000000000000000000000000000009060040161478f565b60006040518083038186803b1580156108f057600080fd5b505af4158015610904573d6000803e3d6000fd5b5050505060008060008061091785611b52565b935093509350935061092b85858585611f66565b6109378585848461217c565b50505063ffffffff8216600090815260046020818152604080842084815560018101859055600281018590556003810180546001600160e01b03199081169091559381018054909416909355600580840180546001600160a01b031990811690915560069094018054909416909355919052902080546001600160c01b0319169055506109c360018055565b50565b6109ce611af8565b604051635bfd0fb160e11b815273__$1291e1ff22aea68c4ae26c19e2b9f8f397$__9063b7fa1f6290610a27908b907f00000000000000000000000000000000000000000000000000000000000000009060040161478f565b60006040518083038186803b158015610a3f57600080fd5b505af4158015610a53573d6000803e3d6000fd5b5050505063ffffffff881660009081526006602052604090205460ff1615610a8d5760405162461bcd60e51b81526004016106b79061451a565b63ffffffff8881166000908152600460208181526040928390208351610160810185528154815260018201549281019290925260028101548285015260038101546001600160a01b038082166060850152600160a01b8083049097166080850152600160c01b820461ffff90811660a0860152600160d01b90920490911660c08401528184015480821660e0850152959095046001600160401b03166101008301526005810154851661012083015260060154909316610140840152905163491bd44160e11b815273__$f4648c37a6443643782b15e2e6be9a7811$__91639237a88291610baf918d9186918e918e918e918e918e918e918e917f000000000000000000000000000000000000000000000000000000000000000091016147ae565b60006040518083038186803b158015610bc757600080fd5b505af4158015610bdb573d6000803e3d6000fd5b5050505050610be960018055565b5050505050505050565b33610bfc6112d1565b6001600160a01b031614610c225760405162461bcd60e51b81526004016106b790614551565b610c2a612192565b565b33610c356112d1565b6001600160a01b031614610c5b5760405162461bcd60e51b81526004016106b790614551565b63ffffffff811115610ca85760405162461bcd60e51b81526020600482015260166024820152754c6f616e206475726174696f6e206f766572666c6f7760501b60448201526064016106b7565b60028190556040518181527f64f65a4a1a932867ad599da36210fc47c698b3abb2413cfdfd36bf59697a69cb9060200161086c565b33610ce66112d1565b6001600160a01b031614610d0c5760405162461bcd60e51b81526004016106b790614551565b6001600160a01b0383166000908152600760209081526040808320858452909152902054839015610d4f5760405162461bcd60e51b81526004016106b790614586565b6040516331a9108f60e11b81526004810184905230906001600160a01b03831690636352211e9060240160206040518083038186803b158015610d9157600080fd5b505afa158015610da5573d6000803e3d6000fd5b505050506040513d601f19601f82011682018060405250810190610dc99190613c60565b6001600160a01b031614610e0f5760405162461bcd60e51b815260206004820152600d60248201526c1b999d081b9bdd081bdddb9959609a1b60448201526064016106b7565b604051632142170760e11b81526001600160a01b038216906342842e0e90610e3f903090869088906004016144ca565b600060405180830381600087803b158015610e5957600080fd5b505af1158015610be9573d6000803e3d6000fd5b610e756121e1565b610e7d611af8565b6000610e8c8460600151612229565b9050610e98848261234f565b610ea184612560565b610ec7610eae85836125cb565b610ec08460000151856020015161267f565b868661277d565b50610ed160018055565b505050565b610ede611af8565b604051635bfd0fb160e11b815273__$1291e1ff22aea68c4ae26c19e2b9f8f397$__9063b7fa1f6290610f379084907f00000000000000000000000000000000000000000000000000000000000000009060040161478f565b60006040518083038186803b158015610f4f57600080fd5b505af4158015610f63573d6000803e3d6000fd5b5050505063ffffffff811660009081526006602052604090205460ff1615610f9d5760405162461bcd60e51b81526004016106b79061451a565b63ffffffff8116600090815260046020908152604080832060058101546001600160a01b031684526007835281842060028201548552909252822080549192600192610fea90849061490e565b9091555050604051631276b77d60e11b815263ffffffff83166004820152602481018290526001600160a01b037f0000000000000000000000000000000000000000000000000000000000000000166044820152600090819073__$f4648c37a6443643782b15e2e6be9a7811$__906324ed6efa90606401604080518083038186803b15801561107957600080fd5b505af415801561108d573d6000803e3d6000fd5b505050506040513d601f19601f820116820180604052508101906110b19190613ed6565b6001600160a01b0382166000908152600760209081526040808320848452909152812080549395509193506001926110ea9084906148f6565b909155505060018055506109c3915050565b600054600160a01b900460ff1690565b794449524543545f4c4f414e5f46495845445f52454445504c4f5960301b90565b336111366112d1565b6001600160a01b03161461115c5760405162461bcd60e51b81526004016106b790614551565b6111668282612a7f565b5050565b336111736112d1565b6001600160a01b0316146111995760405162461bcd60e51b81526004016106b790614551565b80518251146112065760405162461bcd60e51b815260206004820152603360248201527f73657445524332305065726d6974732066756e6374696f6e20696e666f726d616044820152720e8d2dedc40c2e4d2e8f240dad2e6dac2e8c6d606b1b60648201526084016106b7565b60005b8251811015610ed15761126a83828151811061123557634e487b7160e01b600052603260045260246000fd5b602002602001015183838151811061125d57634e487b7160e01b600052603260045260246000fd5b6020026020010151612a7f565b806112748161495d565b915050611209565b336112856112d1565b6001600160a01b0316146112ab5760405162461bcd60e51b81526004016106b790614551565b610c2a612b2c565b6001600160a01b031660009081526009602052604090205460ff1690565b6000546001600160a01b031690565b33600090815260086020908152604080832084845290915290205460ff161561133b5760405162461bcd60e51b815260206004820152600d60248201526c496e76616c6964206e6f6e636560981b60448201526064016106b7565b33600090815260086020908152604080832093835292905220805460ff19166001179055565b3361136a6112d1565b6001600160a01b0316146113905760405162461bcd60e51b81526004016106b790614551565b604051627eeac760e11b815283906000906001600160a01b0383169062fdd58e906113c190309088906004016144ee565b60206040518083038186803b1580156113d957600080fd5b505afa1580156113ed573d6000803e3d6000fd5b505050506040513d601f19601f8201168201806040525081019061141191906141f3565b6001600160a01b0386166000908152600760209081526040808320888452909152902054909150156114555760405162461bcd60e51b81526004016106b790614586565b600081116114955760405162461bcd60e51b815260206004820152600d60248201526c1b9bc81b999d1cc81bdddb9959609a1b60448201526064016106b7565b604051637921219560e11b81523060048201526001600160a01b038481166024830152604482018690526064820183905260a06084830152600060a483015283169063f242432a9060c401600060405180830381600087803b1580156114fa57600080fd5b505af115801561150e573d6000803e3d6000fd5b505050505050505050565b6115216121e1565b611529611af8565b61153887878787878787612b6f565b61154160018055565b50505050505050565b611552611af8565b604051635bfd0fb160e11b815273__$1291e1ff22aea68c4ae26c19e2b9f8f397$__9063b7fa1f62906115ab9084907f00000000000000000000000000000000000000000000000000000000000000009060040161478f565b60006040518083038186803b1580156115c357600080fd5b505af41580156115d7573d6000803e3d6000fd5b5050505063ffffffff811660009081526006602052604090205460ff16156116115760405162461bcd60e51b81526004016106b79061451a565b60008060008061162085611b52565b93509350935093506000826080015163ffffffff168361010001516001600160401b031661164e91906148f6565b90508042116116995760405162461bcd60e51b8152602060048201526017602482015276131bd85b881a5cc81b9bdd081bdd995c991d59481e595d604a1b60448201526064016106b7565b336001600160a01b038516146116ed5760405162461bcd60e51b81526020600482015260196024820152784f6e6c79206c656e6465722063616e206c697175696461746560381b60448201526064016106b7565b6116f98685858561217c565b8251604080850151610120860151825193845260208401919091529082018390524260608301526001600160a01b039081166080830152808616919087169063ffffffff8916907f4fac0ff43299a330bce57d0579985305af580acf256a6d7977083ede81be13269060a00160405180910390a450505063ffffffff8316600090815260046020818152604080842084815560018101859055600281018590556003810180546001600160e01b03199081169091559381018054909416909355600580840180546001600160a01b031990811690915560069094018054909416909355919052902080546001600160c01b0319169055506109c3905060018055565b60405162461bcd60e51b815260206004820152601b60248201527a115490cc4c4d4d4818985d18da081b9bdd081cdd5c1c1bdc9d1959602a1b60448201526000906064016106b7565b61184c611af8565b63ffffffff81166000908152600460205260409020600601546001600160a01b03163381146118b95760405162461bcd60e51b815260206004820152601960248201527839b2b73232b9103430b9903a37903132903137b93937bbb2b960391b60448201526064016106b7565b604051631c2d8fb360e31b81527f000000000000000000000000000000000000000000000000000000000000000060048201526000907f00000000000000000000000000000000000000000000000000000000000000006001600160a01b03169063e16c7d989060240160206040518083038186803b15801561193b57600080fd5b505afa15801561194f573d6000803e3d6000fd5b505050506040513d601f19601f820116820180604052508101906119739190613c60565b604051631b982cf160e01b81529091506001600160a01b03821690631b982cf1906119a4908690869060040161478f565b600060405180830381600087803b1580156119be57600080fd5b505af11580156119d2573d6000803e3d6000fd5b5050505063ffffffff8316600090815260046020526040902060060180546001600160a01b031916905550506001805550565b33611a0e6112d1565b6001600160a01b031614611a345760405162461bcd60e51b81526004016106b790614551565b6001600160a01b038116611a995760405162461bcd60e51b815260206004820152602660248201527f4f776e61626c653a206e6577206f776e657220697320746865207a65726f206160448201526564647265737360d01b60648201526084016106b7565b6109c381612eee565b610ed18363a9059cbb60e01b8484604051602401611ac19291906144ee565b60408051601f198184030181529190526020810180516001600160e01b03166001600160e01b031990931692909217909152612f3e565b60026001541415611b4b5760405162461bcd60e51b815260206004820152601f60248201527f5265656e7472616e637947756172643a207265656e7472616e742063616c6c0060448201526064016106b7565b6002600155565b600080611b5d613963565b604051631c2d8fb360e31b81527f000000000000000000000000000000000000000000000000000000000000000060048201526000907f00000000000000000000000000000000000000000000000000000000000000006001600160a01b03169063e16c7d989060240160206040518083038186803b158015611bdf57600080fd5b505afa158015611bf3573d6000803e3d6000fd5b505050506040513d601f19601f82011682018060405250810190611c179190613c60565b60405163e6c5a54160e01b815263ffffffff871660048201529091506000906001600160a01b0383169063e6c5a5419060240160606040518083038186803b158015611c6257600080fd5b505afa158015611c76573d6000803e3d6000fd5b505050506040513d601f19601f82011682018060405250810190611c9a919061404a565b60208181015163ffffffff898116600090815260048085526040918290208251610160810184528154815260018201549681019690965260028101549286019290925260038201546001600160a01b038082166060880152600160a01b8083049095166080880152600160c01b820461ffff90811660a0890152600160d01b90920490911660c08701529082015480821660e08701526001600160401b03939004831661010086015260058201548116610120860152600690910154166101408401819052929650929350919091169015611d7c578361014001519550611e6d565b826001600160a01b0316638208e76c6040518163ffffffff1660e01b815260040160206040518083038186803b158015611db557600080fd5b505afa158015611dc9573d6000803e3d6000fd5b505050506040513d601f19601f82011682018060405250810190611ded9190613c60565b6001600160a01b0316636352211e826040518263ffffffff1660e01b8152600401611e1a91815260200190565b60206040518083038186803b158015611e3257600080fd5b505afa158015611e46573d6000803e3d6000fd5b505050506040513d601f19601f82011682018060405250810190611e6a9190613c60565b95505b826001600160a01b0316634fbe68a06040518163ffffffff1660e01b815260040160206040518083038186803b158015611ea657600080fd5b505afa158015611eba573d6000803e3d6000fd5b505050506040513d601f19601f82011682018060405250810190611ede9190613c60565b6001600160a01b0316636352211e826040518263ffffffff1660e01b8152600401611f0b91815260200190565b60206040518083038186803b158015611f2357600080fd5b505afa158015611f37573d6000803e3d6000fd5b505050506040513d601f19601f82011682018060405250810190611f5b9190613c60565b945050509193509193565b63ffffffff84166000908152600560209081526040808320815160608101835290546001600160a01b038116825261ffff600160a01b8204811694830194909452600160b01b9004909216908201529080611fc084613010565b60608601519193509150611fdf906001600160a01b03163387846130d9565b6020830151604051637f5e0ed360e01b81526004810184905261ffff909116602482015260009073__$1291e1ff22aea68c4ae26c19e2b9f8f397$__90637f5e0ed39060440160206040518083038186803b15801561203d57600080fd5b505af4158015612051573d6000803e3d6000fd5b505050506040513d601f19601f8201168201806040525081019061207591906141f3565b9050600081118015612090575083516001600160a01b031615155b156120bf5761209f818461490e565b845160608701519194506120bf916001600160a01b0316903390846130d9565b6120e1336120cb6112d1565b60608801516001600160a01b03169190866130d9565b845160408087015186516101208901516060808b0151855196875260208701949094528585018890528501889052608085018690526001600160a01b0391821660a0860152811660c085015290811660e0840152905188821692918a169163ffffffff8c16917f3687d64f40b11dd1c102a76882ac1735891c546a96ae27935eb5c7865b9d86fa918190036101000190a45050505050505050565b6121878483836130fa565b6107998230856131b4565b61219a613257565b6000805460ff60a01b191690557f5db9ee0a495bf2e6ff9c91a7834c1ba4fdd244a5e8aa4e537bd38aeae4b073aa335b6040516121d791906144b6565b60405180910390a1565b6121e96110fc565b15610c2a5760405162461bcd60e51b815260206004820152601060248201526f14185d5cd8589b194e881c185d5cd95960821b60448201526064016106b7565b604051631c2d8fb360e31b81526d5045524d49545445445f4e46545360901b60048201526000907f00000000000000000000000000000000000000000000000000000000000000006001600160a01b03169063e16c7d989060240160206040518083038186803b15801561229c57600080fd5b505afa1580156122b0573d6000803e3d6000fd5b505050506040513d601f19601f820116820180604052508101906122d49190613c60565b6001600160a01b031663b8c8aff8836040518263ffffffff1660e01b81526004016122ff91906144b6565b60206040518083038186803b15801561231757600080fd5b505afa15801561232b573d6000803e3d6000fd5b505050506040513d601f19601f820116820180604052508101906106829190613c60565b61235c8260c001516112b3565b6123b75760405162461bcd60e51b815260206004820152602660248201527f43757272656e63792064656e6f6d696e6174696f6e206973206e6f74207065726044820152651b5a5d1d195960d21b60648201526084016106b7565b6001600160a01b03811661241e5760405162461bcd60e51b815260206004820152602860248201527f4e465420636f6c6c61746572616c20636f6e7472616374206973206e6f742070604482015267195c9b5a5d1d195960c21b60648201526084016106b7565b600254826080015163ffffffff16111561248e5760405162461bcd60e51b815260206004820152602b60248201527f4c6f616e206475726174696f6e2065786365656473206d6178696d756d206c6f60448201526a30b710323ab930ba34b7b760a91b60648201526084016106b7565b608082015163ffffffff166124e45760405162461bcd60e51b815260206004820152601c60248201527b4c6f616e206475726174696f6e2063616e6e6f74206265207a65726f60201b60448201526064016106b7565b60035460a083015161ffff9081169116146111665760405162461bcd60e51b815260206004820152603660248201527f5468652061646d696e2066656520686173206368616e6765642073696e6365206044820152753a3434b99037b93232b9103bb0b99039b4b3b732b21760511b60648201526084016106b7565b8051602082015110156109c35760405162461bcd60e51b815260206004820152602d60248201527f4e6567617469766520696e7465726573742072617465206c6f616e732061726560448201526c103737ba1030b63637bbb2b21760991b60648201526084016106b7565b6125d3613963565b6040518061016001604052808460000151815260200184602001518152602001846040015181526020018460c001516001600160a01b03168152602001846080015163ffffffff168152602001600061ffff1681526020018460a0015161ffff168152602001836001600160a01b03168152602001426001600160401b0316815260200184606001516001600160a01b03168152602001336001600160a01b0316815250905092915050565b6040805160608101825260008082526020820181905291810191909152604080516060810182526001600160a01b0380861680835292516347e332df60e11b815260048101939093527f000000000000000000000000000000000000000000000000000000000000000016602483015290602082019073__$1291e1ff22aea68c4ae26c19e2b9f8f397$__90638fc665be9060440160206040518083038186803b15801561272c57600080fd5b505af4158015612740573d6000803e3d6000fd5b505050506040513d601f19601f8201168201806040525081019061276491906141bf565b61ffff1681526020018361ffff16815250905092915050565b6040808201516001600160a01b0316600090815260086020908152828220845183529052205460ff16156127ea5760405162461bcd60e51b815260206004820152601460248201527313195b99195c881b9bdb98d9481a5b9d985b1a5960621b60448201526064016106b7565b6040808201516001600160a01b0316600090815260086020908152828220845183529052819020805460ff191660011790555163eb2ac63f60e01b815273__$07730b9b91c2b41a419f99961f709e7858$__9063eb2ac63f906128539085908590600401614700565b60206040518083038186803b15801561286b57600080fd5b505af415801561287f573d6000803e3d6000fd5b505050506040513d601f19601f820116820180604052508101906128a39190614006565b6128ed5760405162461bcd60e51b815260206004820152601b60248201527a13195b99195c881cda59db985d1d5c99481a5cc81a5b9d985b1a59602a1b60448201526064016106b7565b604051631c2d8fb360e31b81526c27232a2324afa12aa7222622a960991b60048201526000907f00000000000000000000000000000000000000000000000000000000000000006001600160a01b03169063e16c7d989060240160206040518083038186803b15801561295f57600080fd5b505afa158015612973573d6000803e3d6000fd5b505050506040513d601f19601f820116820180604052508101906129979190613c60565b9050806001600160a01b03168561012001516001600160a01b031614156129fe5760405162461bcd60e51b815260206004820152601b60248201527a436f6c6c61746572616c2063616e6e6f742062652062756e646c6560281b60448201526064016106b7565b6000612a1d612a0b61110c565b87873387604001518960e001516132a2565b905082604001516001600160a01b0316336001600160a01b03168263ffffffff167f42cc7f53ef7b494c5dd6f0095175f7d07b5d3d7b2a03f34389fea445ba4a3a8b8989604051612a6f9291906145b3565b60405180910390a4505050505050565b6001600160a01b038216612acd5760405162461bcd60e51b81526020600482015260156024820152746572633230206973207a65726f206164647265737360581b60448201526064016106b7565b6001600160a01b038216600081815260096020908152604091829020805460ff191685151590811790915591519182527ff100355be652ecc881568750e6a98c0713e4316f75d5314ebc9039e0acb52f24910160405180910390a25050565b612b346121e1565b6000805460ff60a01b1916600160a01b1790557f62e78cea01bee320cd4e420270b5ea74000d11b0c9f74754ebdbfc544b05a2586121ca3390565b63ffffffff87166000908152600460208190526040808320905163b5ec526360e01b8152909291829173__$1291e1ff22aea68c4ae26c19e2b9f8f397$__9163b5ec526391612bea9187918f918f918f918e917f000000000000000000000000000000000000000000000000000000000000000091016145f9565b604080518083038186803b158015612c0157600080fd5b505af4158015612c15573d6000803e3d6000fd5b505050506040513d601f19601f82011682018060405250810190612c399190613cb4565b6001600160a01b03811660008181526008602090815260408083208c8452825291829020805460ff1916600117905581516080810183528b81529081018a905280820192909252606082018890525163d06ff74160e01b815292945090925073__$07730b9b91c2b41a419f99961f709e7858$__9163d06ff74191612cc8918e918e918e918e91600401614845565b60206040518083038186803b158015612ce057600080fd5b505af4158015612cf4573d6000803e3d6000fd5b505050506040513d601f19601f82011682018060405250810190612d189190614006565b612d6f5760405162461bcd60e51b815260206004820152602260248201527f52656e65676f74696174696f6e207369676e617475726520697320696e76616c6044820152611a5960f21b60648201526084016106b7565b60008715612e59576003840154604051632ad659af60e01b8152600481018a9052600160d01b90910461ffff16602482015273__$1291e1ff22aea68c4ae26c19e2b9f8f397$__90632ad659af9060440160206040518083038186803b158015612dd857600080fd5b505af4158015612dec573d6000803e3d6000fd5b505050506040513d601f19601f82011682018060405250810190612e1091906141f3565b9050612e378383612e21848c61490e565b60038801546001600160a01b03169291906130d9565b612e5983612e436112d1565b60038701546001600160a01b03169190846130d9565b60038401805463ffffffff60a01b1916600160a01b63ffffffff8d811691820292909217909255600186018b905560408051928352602083018c905282018a9052606082018390526001600160a01b0384811692908616918e16907f37357bed780fda5aed28c32fe9cd762cb2f2f8a70c0d9b342aba59c945943ca09060800160405180910390a45050505050505050505050565b600080546001600160a01b038381166001600160a01b0319831681178455604051919092169283917f8be0079c531659141344cd1fd0a4f28419497f9722a3daafe3b4186f6b6457e09190a35050565b6000612f93826040518060400160405280602081526020017f5361666545524332303a206c6f772d6c6576656c2063616c6c206661696c6564815250856001600160a01b03166132c89092919063ffffffff16565b805190915015610ed15780806020019051810190612fb19190614006565b610ed15760405162461bcd60e51b815260206004820152602a60248201527f5361666545524332303a204552433230206f7065726174696f6e20646964206e6044820152691bdd081cdd58d8d9595960b21b60648201526084016106b7565b600080600083600001518460200151613029919061490e565b60c0850151604051632ad659af60e01b81526004810183905261ffff909116602482015290915073__$1291e1ff22aea68c4ae26c19e2b9f8f397$__90632ad659af9060440160206040518083038186803b15801561308757600080fd5b505af415801561309b573d6000803e3d6000fd5b505050506040513d601f19601f820116820180604052508101906130bf91906141f3565b92508284602001516130d1919061490e565b915050915091565b610799846323b872dd60e01b858585604051602401611ac1939291906144ca565b63ffffffff83166000908152600660209081526040808320805460ff191660019081179091556101208601516001600160a01b0316845260078352818420868301518552909252822080549192909161315490849061490e565b909155505060405163490b1f5360e11b815263ffffffff841660048201526001600160a01b038216906392163ea690602401600060405180830381600087803b1580156131a057600080fd5b505af1158015611541573d6000803e3d6000fd5b60e083015161012084015160408086015181516001600160a01b038781166024830152868116604483015290931660648401526084808401919091528151808403909101815260a49092018152602080830180516001600160e01b031663b030667160e01b17905281518083019092528082527f4e4654206e6f74207375636365737366756c6c79207472616e73666572726564908201526107999291906132d7565b61325f6110fc565b610c2a5760405162461bcd60e51b815260206004820152601460248201527314185d5cd8589b194e881b9bdd081c185d5cd95960621b60448201526064016106b7565b60006132af8685306131b4565b6132bd87878787878761334f565b979650505050505050565b60606107a884846000856137fc565b6060600080856001600160a01b0316856040516132f4919061449a565b600060405180830381855af49150503d806000811461332f576040519150601f19603f3d011682016040523d82523d6000602084013e613334565b606091505b5091509150613345868383876138c8565b9695505050505050565b6101208501516001600160a01b031660009081526007602090815260408083208189015184529091528120805460019190839061338d9084906148f6565b909155505085516040868101519051637b2392f160e01b8152600481019290925261ffff1660248201526001600160a01b038316604482015260009073__$1291e1ff22aea68c4ae26c19e2b9f8f397$__90637b2392f19060640160206040518083038186803b15801561340057600080fd5b505af4158015613414573d6000803e3d6000fd5b505050506040513d601f19601f8201168201806040525081019061343891906141f3565b9050600081886000015161344c919061490e565b9050811561346e57606088015161346e906001600160a01b03168686856130d9565b6060880151613488906001600160a01b03168688846130d9565b604051631c2d8fb360e31b81527f000000000000000000000000000000000000000000000000000000000000000060048201526000907f00000000000000000000000000000000000000000000000000000000000000006001600160a01b03169063e16c7d989060240160206040518083038186803b15801561350a57600080fd5b505afa15801561351e573d6000803e3d6000fd5b505050506040513d601f19601f820116820180604052508101906135429190613c60565b60405163d1f7659560e01b81529091506001600160a01b0382169063d1f76595906135739089908e906004016144ee565b602060405180830381600087803b15801561358d57600080fd5b505af11580156135a1573d6000803e3d6000fd5b505050506040513d601f19601f820116820180604052508101906135c59190614227565b935088600460008663ffffffff1663ffffffff16815260200190815260200160002060008201518160000155602082015181600101556040820151816002015560608201518160030160006101000a8154816001600160a01b0302191690836001600160a01b0316021790555060808201518160030160146101000a81548163ffffffff021916908363ffffffff16021790555060a08201518160030160186101000a81548161ffff021916908361ffff16021790555060c082015181600301601a6101000a81548161ffff021916908361ffff16021790555060e08201518160040160006101000a8154816001600160a01b0302191690836001600160a01b031602179055506101008201518160040160146101000a8154816001600160401b0302191690836001600160401b031602179055506101208201518160050160006101000a8154816001600160a01b0302191690836001600160a01b031602179055506101408201518160060160006101000a8154816001600160a01b0302191690836001600160a01b0316021790555090505087600560008663ffffffff1663ffffffff16815260200190815260200160002060008201518160000160006101000a8154816001600160a01b0302191690836001600160a01b0316021790555060208201518160000160146101000a81548161ffff021916908361ffff16021790555060408201518160000160166101000a81548161ffff021916908361ffff1602179055509050505050509695505050505050565b60608247101561385d5760405162461bcd60e51b815260206004820152602660248201527f416464726573733a20696e73756666696369656e742062616c616e636520666f6044820152651c8818d85b1b60d21b60648201526084016106b7565b600080866001600160a01b03168587604051613879919061449a565b60006040518083038185875af1925050503d80600081146138b6576040519150601f19603f3d011682016040523d82523d6000602084013e6138bb565b606091505b50915091506132bd878383875b6060831561393457825161392d576001600160a01b0385163b61392d5760405162461bcd60e51b815260206004820152601d60248201527f416464726573733a2063616c6c20746f206e6f6e2d636f6e747261637400000060448201526064016106b7565b50816107a8565b6107a883838151156139495781518083602001fd5b8060405162461bcd60e51b81526004016106b79190614507565b6040805161016081018252600080825260208201819052918101829052606081018290526080810182905260a0810182905260c0810182905260e081018290526101008101829052610120810182905261014081019190915290565b80356139ca816149a4565b919050565b600082601f8301126139df578081fd5b813560206139f46139ef836148d3565b6148a3565b80838252828201915082860187848660051b8901011115613a13578586fd5b855b85811015613a3a578135613a28816149b9565b84529284019290840190600101613a15565b5090979650505050505050565b60008083601f840112613a58578182fd5b5081356001600160401b03811115613a6e578182fd5b6020830191508360208260051b8501011115613a8957600080fd5b9250929050565b60008083601f840112613aa1578182fd5b5081356001600160401b03811115613ab7578182fd5b602083019150836020828501011115613a8957600080fd5b600082601f830112613adf578081fd5b81356001600160401b03811115613af857613af861498e565b613b0b601f8201601f19166020016148a3565b818152846020838601011115613b1f578283fd5b816020850160208301379081016020019190915292915050565b600060408284031215613b4a578081fd5b604080519081016001600160401b0381118282101715613b6c57613b6c61498e565b6040529050808235613b7d816149a4565b81526020830135613b8d816149c7565b6020919091015292915050565b600060808284031215613bab578081fd5b604051608081016001600160401b038082118383101715613bce57613bce61498e565b81604052829350843583526020850135602084015260408501359150613bf3826149a4565b8160408401526060850135915080821115613c0d57600080fd5b50613c1a85828601613acf565b6060830152505092915050565b80356139ca816149c7565b80356139ca816149d7565b600060208284031215613c4e578081fd5b8135613c59816149a4565b9392505050565b600060208284031215613c71578081fd5b8151613c59816149a4565b60008060408385031215613c8e578081fd5b8235613c99816149a4565b91506020830135613ca9816149a4565b809150509250929050565b60008060408385031215613cc6578182fd5b8251613cd1816149a4565b6020840151909250613ca9816149a4565b60008060008060008060008060a0898b031215613cfd578384fd5b8835613d08816149a4565b97506020890135613d18816149a4565b965060408901356001600160401b0380821115613d33578586fd5b613d3f8c838d01613a47565b909850965060608b0135915080821115613d57578586fd5b613d638c838d01613a47565b909650945060808b0135915080821115613d7b578384fd5b50613d888b828c01613a90565b999c989b5096995094979396929594505050565b60008060008060808587031215613db1578182fd5b8435613dbc816149a4565b93506020850135613dcc816149a4565b92506040850135915060608501356001600160401b03811115613ded578182fd5b613df987828801613acf565b91505092959194509250565b60008060008060008060a08789031215613e1d578384fd5b8635613e28816149a4565b95506020870135613e38816149a4565b9450604087013593506060870135925060808701356001600160401b03811115613e60578283fd5b613e6c89828a01613a90565b979a9699509497509295939492505050565b60008060408385031215613e90578182fd5b8235613e9b816149a4565b91506020830135613ca9816149b9565b60008060408385031215613ebd578182fd5b8235613ec8816149a4565b946020939093013593505050565b60008060408385031215613ee8578182fd5b8251613ef3816149a4565b6020939093015192949293505050565b600080600060608486031215613f17578081fd5b8335613f22816149a4565b9250602084013591506040840135613f39816149a4565b809150509250925092565b60008060408385031215613f56578182fd5b82356001600160401b0380821115613f6c578384fd5b818501915085601f830112613f7f578384fd5b81356020613f8f6139ef836148d3565b8083825282820191508286018a848660051b8901011115613fae578889fd5b8896505b84871015613fd9578035613fc5816149a4565b835260019690960195918301918301613fb2565b5096505086013592505080821115613fef578283fd5b50613ffc858286016139cf565b9150509250929050565b600060208284031215614017578081fd5b8151613c59816149b9565b600060208284031215614033578081fd5b81356001600160e01b031981168114613c59578182fd5b60006060828403121561405b578081fd5b604051606081016001600160401b03808211838310171561407e5761407e61498e565b816040528451915061408f826149a4565b90825260208401519080821682146140a5578384fd5b5060208201526040830151600381106140bc578283fd5b60408201529392505050565b60008060008385036101608112156140de578182fd5b610100808212156140ed578283fd5b6140f561487a565b915085358252602086013560208301526040860135604083015261411b606087016139bf565b606083015261412c60808701613c32565b608083015261413d60a08701613c27565b60a083015261414e60c087016139bf565b60c083015261415f60e087016139bf565b60e08301529093508401356001600160401b0381111561417d578182fd5b61418986828701613b9a565b92505061419a856101208601613b39565b90509250925092565b6000602082840312156141b4578081fd5b8135613c59816149c7565b6000602082840312156141d0578081fd5b8151613c59816149c7565b6000602082840312156141ec578081fd5b5035919050565b600060208284031215614204578081fd5b5051919050565b60006020828403121561421c578081fd5b8135613c59816149d7565b600060208284031215614238578081fd5b8151613c59816149d7565b60008060008060008060008060e0898b03121561425e578182fd5b8835614269816149d7565b97506020890135614279816149a4565b965060408901356001600160401b03811115614293578283fd5b61429f8b828c01613a90565b90975095505060608901356142b3816149a4565b93506080890135925060a08901356142ca816149b9565b8092505060c089013590509295985092959890939650565b600080600080600080600060e0888a0312156142fc578081fd5b8735614307816149d7565b96506020880135614317816149d7565b955060408801359450606088013593506080880135925060a0880135915060c08801356001600160401b0381111561434d578182fd5b6143598a828b01613acf565b91505092959891949750929550565b6001600160a01b03169052565b6000815180845261438d816020860160208601614931565b601f01601f19169290920160200192915050565b80518252602081015160208301526040810151604083015260608101516143cb6060840182614368565b5060808101516143e3608084018263ffffffff169052565b5060a08101516143f960a084018261ffff169052565b5060c081015161440f60c084018261ffff169052565b5060e081015161442260e0840182614368565b50610100818101516001600160401b0316908301526101208082015161444a82850182614368565b50506101408082015161079982850182614368565b805182526020810151602083015260018060a01b03604082015116604083015260006060820151608060608501526107a86080850182614375565b600082516144ac818460208701614931565b9190910192915050565b6001600160a01b0391909116815260200190565b6001600160a01b039384168152919092166020820152604081019190915260600190565b6001600160a01b03929092168252602082015260400190565b602081526000613c596020830184614375565b6020808252601e908201527f4c6f616e20616c7265616479207265706169642f6c6971756964617465640000604082015260600190565b6020808252818101527f4f776e61626c653a2063616c6c6572206973206e6f7420746865206f776e6572604082015260600190565b6020808252601390820152721d1bdad95b881a5cc818dbdb1b185d195c985b606a1b604082015260600190565b6101c081016145c282856143a1565b82516001600160a01b0316610160830152602083015161ffff9081166101808401526040909301519092166101a090910152919050565b86548152600187015460208201526002870154604082015260038701546102008201906001600160a01b0361463360608501828416614368565b60a082901c63ffffffff16608085015261ffff60c083901c811660a086015261466760c08601828560d01c1661ffff169052565b5060048a0154915061467e60e08501828416614368565b5060a01c6001600160401b0316610100830152600588015461469f90614925565b6146ad610120840182614368565b506146bb6006890154614925565b6146c9610140840182614368565b5063ffffffff871661016083015263ffffffff8616610180830152846101a0830152836101c08301526132bd6101e0830184614368565b600061012084518352602085015160208401526040850151604084015260018060a01b03606086015116606084015263ffffffff608086015116608084015261ffff60a08601511660a084015260c085015161475f60c0850182614368565b5060e085015161477260e0850182614368565b50806101008401526147868184018561445f565b95945050505050565b63ffffffff9290921682526001600160a01b0316602082015260400190565b600061026063ffffffff8d1683526147c9602084018d6143a1565b6001600160a01b038b81166101808501526101a0840182905290830189905261028090898b83860137838a018201929092529087166101c08301526101e082018690528415156102008301526102208201849052601f8801601f1916820101614836610240830184614368565b9b9a5050505050505050505050565b600063ffffffff808816835280871660208401525084604083015283606083015260a060808301526132bd60a083018461445f565b60405161010081016001600160401b038111828210171561489d5761489d61498e565b60405290565b604051601f8201601f191681016001600160401b03811182821017156148cb576148cb61498e565b604052919050565b60006001600160401b038211156148ec576148ec61498e565b5060051b60200190565b6000821982111561490957614909614978565b500190565b60008282101561492057614920614978565b500390565b6001600160a01b031690565b60005b8381101561494c578181015183820152602001614934565b838111156107995750506000910152565b600060001982141561497157614971614978565b5060010190565b634e487b7160e01b600052601160045260246000fd5b634e487b7160e01b600052604160045260246000fd5b6001600160a01b03811681146109c357600080fd5b80151581146109c357600080fd5b61ffff811681146109c357600080fd5b63ffffffff811681146109c357600080fdfea26469706673582212203c0b1335e31ee1c4ccabef0009f97d76841add876ada81a9ec49d2d2fe7c98b464736f6c63430008040033",
			"opcodes": "PUSH1 0xC0 PUSH1 0x40 MSTORE PUSH4 0x1E91C80 PUSH1 0x2 SSTORE PUSH1 0x3 DUP1 SLOAD PUSH2 0xFFFF NOT AND PUSH2 0x1F4 OR SWAP1 SSTORE CALLVALUE DUP1 ISZERO PUSH3 0x28 JUMPI PUSH1 0x0 DUP1 REVERT JUMPDEST POP PUSH1 0x40 MLOAD PUSH3 0x4EE2 CODESIZE SUB DUP1 PUSH3 0x4EE2 DUP4 CODECOPY DUP2 ADD PUSH1 0x40 DUP2 SWAP1 MSTORE PUSH3 0x4B SWAP2 PUSH3 0x2D7 JUMP JUMPDEST DUP3 DUP3 DUP3 DUP3 DUP3 PUSH20 0x0 PUSH4 0xF99A8FFB PUSH1 0x40 MLOAD DUP2 PUSH4 0xFFFFFFFF AND PUSH1 0xE0 SHL DUP2 MSTORE PUSH1 0x4 ADD PUSH3 0xB8 SWAP1 PUSH1 0x20 DUP1 DUP3 MSTORE PUSH1 0x17 SWAP1 DUP3 ADD MSTORE PUSH32 0x4449524543545F4C4F414E5F434F4F5244494E41544F52000000000000000000 PUSH1 0x40 DUP3 ADD MSTORE PUSH1 0x60 ADD SWAP1 JUMP JUMPDEST PUSH1 0x20 PUSH1 0x40 MLOAD DUP1 DUP4 SUB DUP2 DUP7 DUP1 EXTCODESIZE ISZERO DUP1 ISZERO PUSH3 0xD1 JUMPI PUSH1 0x0 DUP1 REVERT JUMPDEST POP GAS DELEGATECALL ISZERO DUP1 ISZERO PUSH3 0xE6 JUMPI RETURNDATASIZE PUSH1 0x0 DUP1 RETURNDATACOPY RETURNDATASIZE PUSH1 0x0 REVERT JUMPDEST POP POP POP POP PUSH1 0x40 MLOAD RETURNDATASIZE PUSH1 0x1F NOT PUSH1 0x1F DUP3 ADD AND DUP3 ADD DUP1 PUSH1 0x40 MSTORE POP DUP2 ADD SWAP1 PUSH3 0x10C SWAP2 SWAP1 PUSH3 0x3D3 JUMP JUMPDEST DUP4 DUP4 DUP1 PUSH3 0x11A DUP2 PUSH3 0x1B0 JUMP JUMPDEST POP POP PUSH1 0x0 DUP1 SLOAD PUSH1 0xFF PUSH1 0xA0 SHL NOT AND DUP2 SSTORE PUSH1 0x1 DUP1 SSTORE PUSH1 0x1 PUSH1 0x1 PUSH1 0x60 SHL SUB NOT PUSH1 0x60 DUP6 SWAP1 SHL AND PUSH1 0xA0 MSTORE PUSH1 0x80 DUP4 SWAP1 MSTORE JUMPDEST DUP2 MLOAD DUP2 LT ISZERO PUSH3 0x19F JUMPI PUSH3 0x18A DUP3 DUP3 DUP2 MLOAD DUP2 LT PUSH3 0x174 JUMPI PUSH4 0x4E487B71 PUSH1 0xE0 SHL PUSH1 0x0 MSTORE PUSH1 0x32 PUSH1 0x4 MSTORE PUSH1 0x24 PUSH1 0x0 REVERT JUMPDEST PUSH1 0x20 MUL PUSH1 0x20 ADD ADD MLOAD PUSH1 0x1 PUSH3 0x200 PUSH1 0x20 SHL PUSH1 0x20 SHR JUMP JUMPDEST DUP1 PUSH3 0x196 DUP2 PUSH3 0x3EC JUMP JUMPDEST SWAP2 POP POP PUSH3 0x145 JUMP JUMPDEST POP POP POP POP POP POP POP POP POP POP POP PUSH3 0x42A JUMP JUMPDEST PUSH1 0x0 DUP1 SLOAD PUSH1 0x1 PUSH1 0x1 PUSH1 0xA0 SHL SUB DUP4 DUP2 AND PUSH1 0x1 PUSH1 0x1 PUSH1 0xA0 SHL SUB NOT DUP4 AND DUP2 OR DUP5 SSTORE PUSH1 0x40 MLOAD SWAP2 SWAP1 SWAP3 AND SWAP3 DUP4 SWAP2 PUSH32 0x8BE0079C531659141344CD1FD0A4F28419497F9722A3DAAFE3B4186F6B6457E0 SWAP2 SWAP1 LOG3 POP POP JUMP JUMPDEST PUSH1 0x1 PUSH1 0x1 PUSH1 0xA0 SHL SUB DUP3 AND PUSH3 0x25B JUMPI PUSH1 0x40 MLOAD PUSH3 0x461BCD PUSH1 0xE5 SHL DUP2 MSTORE PUSH1 0x20 PUSH1 0x4 DUP3 ADD MSTORE PUSH1 0x15 PUSH1 0x24 DUP3 ADD MSTORE PUSH32 0x6572633230206973207A65726F20616464726573730000000000000000000000 PUSH1 0x44 DUP3 ADD MSTORE PUSH1 0x64 ADD PUSH1 0x40 MLOAD DUP1 SWAP2 SUB SWAP1 REVERT JUMPDEST PUSH1 0x1 PUSH1 0x1 PUSH1 0xA0 SHL SUB DUP3 AND PUSH1 0x0 DUP2 DUP2 MSTORE PUSH1 0x9 PUSH1 0x20 SWAP1 DUP2 MSTORE PUSH1 0x40 SWAP2 DUP3 SWAP1 KECCAK256 DUP1 SLOAD PUSH1 0xFF NOT AND DUP6 ISZERO ISZERO SWAP1 DUP2 OR SWAP1 SWAP2 SSTORE SWAP2 MLOAD SWAP2 DUP3 MSTORE PUSH32 0xF100355BE652ECC881568750E6A98C0713E4316F75D5314EBC9039E0ACB52F24 SWAP2 ADD PUSH1 0x40 MLOAD DUP1 SWAP2 SUB SWAP1 LOG2 POP POP JUMP JUMPDEST DUP1 MLOAD PUSH1 0x1 PUSH1 0x1 PUSH1 0xA0 SHL SUB DUP2 AND DUP2 EQ PUSH3 0x2D2 JUMPI PUSH1 0x0 DUP1 REVERT JUMPDEST SWAP2 SWAP1 POP JUMP JUMPDEST PUSH1 0x0 DUP1 PUSH1 0x0 PUSH1 0x60 DUP5 DUP7 SUB SLT ISZERO PUSH3 0x2EC JUMPI DUP3 DUP4 REVERT JUMPDEST PUSH3 0x2F7 DUP5 PUSH3 0x2BA JUMP JUMPDEST SWAP3 POP PUSH1 0x20 PUSH3 0x308 DUP2 DUP7 ADD PUSH3 0x2BA JUMP JUMPDEST PUSH1 0x40 DUP7 ADD MLOAD SWAP1 SWAP4 POP PUSH1 0x1 PUSH1 0x1 PUSH1 0x40 SHL SUB DUP1 DUP3 GT ISZERO PUSH3 0x325 JUMPI DUP4 DUP5 REVERT JUMPDEST DUP2 DUP8 ADD SWAP2 POP DUP8 PUSH1 0x1F DUP4 ADD SLT PUSH3 0x339 JUMPI DUP4 DUP5 REVERT JUMPDEST DUP2 MLOAD DUP2 DUP2 GT ISZERO PUSH3 0x34E JUMPI PUSH3 0x34E PUSH3 0x414 JUMP JUMPDEST DUP1 PUSH1 0x5 SHL PUSH1 0x40 MLOAD PUSH1 0x1F NOT PUSH1 0x3F DUP4 ADD AND DUP2 ADD DUP2 DUP2 LT DUP6 DUP3 GT OR ISZERO PUSH3 0x376 JUMPI PUSH3 0x376 PUSH3 0x414 JUMP JUMPDEST PUSH1 0x40 MSTORE DUP3 DUP2 MSTORE DUP6 DUP2 ADD SWAP4 POP DUP5 DUP7 ADD DUP3 DUP7 ADD DUP8 ADD DUP13 LT ISZERO PUSH3 0x395 JUMPI DUP8 DUP9 REVERT JUMPDEST DUP8 SWAP6 POP JUMPDEST DUP4 DUP7 LT ISZERO PUSH3 0x3C2 JUMPI PUSH3 0x3AD DUP2 PUSH3 0x2BA JUMP JUMPDEST DUP6 MSTORE PUSH1 0x1 SWAP6 SWAP1 SWAP6 ADD SWAP5 SWAP4 DUP7 ADD SWAP4 DUP7 ADD PUSH3 0x399 JUMP JUMPDEST POP DUP1 SWAP7 POP POP POP POP POP POP POP SWAP3 POP SWAP3 POP SWAP3 JUMP JUMPDEST PUSH1 0x0 PUSH1 0x20 DUP3 DUP5 SUB SLT ISZERO PUSH3 0x3E5 JUMPI DUP1 DUP2 REVERT JUMPDEST POP MLOAD SWAP2 SWAP1 POP JUMP JUMPDEST PUSH1 0x0 PUSH1 0x0 NOT DUP3 EQ ISZERO PUSH3 0x40D JUMPI PUSH4 0x4E487B71 PUSH1 0xE0 SHL DUP2 MSTORE PUSH1 0x11 PUSH1 0x4 MSTORE PUSH1 0x24 DUP2 REVERT JUMPDEST POP PUSH1 0x1 ADD SWAP1 JUMP JUMPDEST PUSH4 0x4E487B71 PUSH1 0xE0 SHL PUSH1 0x0 MSTORE PUSH1 0x41 PUSH1 0x4 MSTORE PUSH1 0x24 PUSH1 0x0 REVERT JUMPDEST PUSH1 0x80 MLOAD PUSH1 0xA0 MLOAD PUSH1 0x60 SHR PUSH2 0x4A1F PUSH3 0x4C3 PUSH1 0x0 CODECOPY PUSH1 0x0 DUP2 DUP2 PUSH2 0x43B ADD MSTORE DUP2 DUP2 PUSH2 0x8B0 ADD MSTORE DUP2 DUP2 PUSH2 0x9FF ADD MSTORE DUP2 DUP2 PUSH2 0xB89 ADD MSTORE DUP2 DUP2 PUSH2 0xF0F ADD MSTORE DUP2 DUP2 PUSH2 0x1019 ADD MSTORE DUP2 DUP2 PUSH2 0x1583 ADD MSTORE DUP2 DUP2 PUSH2 0x18F1 ADD MSTORE DUP2 DUP2 PUSH2 0x1B95 ADD MSTORE DUP2 DUP2 PUSH2 0x2252 ADD MSTORE DUP2 DUP2 PUSH2 0x26CA ADD MSTORE DUP2 DUP2 PUSH2 0x2915 ADD MSTORE DUP2 DUP2 PUSH2 0x2BC4 ADD MSTORE PUSH2 0x34C0 ADD MSTORE PUSH1 0x0 DUP2 DUP2 PUSH2 0x4EF ADD MSTORE DUP2 DUP2 PUSH2 0x18C8 ADD MSTORE DUP2 DUP2 PUSH2 0x1B6C ADD MSTORE PUSH2 0x3497 ADD MSTORE PUSH2 0x4A1F PUSH1 0x0 RETURN INVALID PUSH1 0x80 PUSH1 0x40 MSTORE CALLVALUE DUP1 ISZERO PUSH2 0x10 JUMPI PUSH1 0x0 DUP1 REVERT JUMPDEST POP PUSH1 0x4 CALLDATASIZE LT PUSH2 0x1AC JUMPI PUSH1 0x0 CALLDATALOAD PUSH1 0xE0 SHR DUP1 PUSH4 0x1FFC9A7 EQ PUSH2 0x1B1 JUMPI DUP1 PUSH4 0x5B406CF EQ PUSH2 0x1D9 JUMPI DUP1 PUSH4 0x717F3AA EQ PUSH2 0x1EE JUMPI DUP1 PUSH4 0xFF81C3F EQ PUSH2 0x211 JUMPI DUP1 PUSH4 0x150B7A02 EQ PUSH2 0x27B JUMPI DUP1 PUSH4 0x192B355D EQ PUSH2 0x2A7 JUMPI DUP1 PUSH4 0x1C6CAF41 EQ PUSH2 0x2BE JUMPI DUP1 PUSH4 0x227CDA18 EQ PUSH2 0x2D1 JUMPI DUP1 PUSH4 0x2B218022 EQ PUSH2 0x3D7 JUMPI DUP1 PUSH4 0x318DACD3 EQ PUSH2 0x3EA JUMPI DUP1 PUSH4 0x328404B0 EQ PUSH2 0x3FD JUMPI DUP1 PUSH4 0x365A86FC EQ PUSH2 0x436 JUMPI DUP1 PUSH4 0x3F4BA83A EQ PUSH2 0x46A JUMPI DUP1 PUSH4 0x47948D92 EQ PUSH2 0x472 JUMPI DUP1 PUSH4 0x5163A1C3 EQ PUSH2 0x485 JUMPI DUP1 PUSH4 0x56EFE98C EQ PUSH2 0x498 JUMPI DUP1 PUSH4 0x59A72734 EQ PUSH2 0x4AB JUMPI DUP1 PUSH4 0x5C975ABB EQ PUSH2 0x4BE JUMPI DUP1 PUSH4 0x616693D8 EQ PUSH2 0x4C6 JUMPI DUP1 PUSH4 0x6ED93DD0 EQ PUSH2 0x4CE JUMPI DUP1 PUSH4 0x77CFA991 EQ PUSH2 0x4EA JUMPI DUP1 PUSH4 0x7836BAF1 EQ PUSH2 0x511 JUMPI DUP1 PUSH4 0x79B64040 EQ PUSH2 0x524 JUMPI DUP1 PUSH4 0x8456CB59 EQ PUSH2 0x537 JUMPI DUP1 PUSH4 0x872873BE EQ PUSH2 0x53F JUMPI DUP1 PUSH4 0x8DA5CB5B EQ PUSH2 0x552 JUMPI DUP1 PUSH4 0x9658E405 EQ PUSH2 0x55A JUMPI DUP1 PUSH4 0xA4441A6F EQ PUSH2 0x56D JUMPI DUP1 PUSH4 0xAB3B1280 EQ PUSH2 0x57B JUMPI DUP1 PUSH4 0xAC4E35EA EQ PUSH2 0x5A4 JUMPI DUP1 PUSH4 0xB18E7772 EQ PUSH2 0x5B7 JUMPI DUP1 PUSH4 0xB31EC1D4 EQ PUSH2 0x5CA JUMPI DUP1 PUSH4 0xBC197C81 EQ PUSH2 0x5DD JUMPI DUP1 PUSH4 0xBCE42E42 EQ PUSH2 0x5F0 JUMPI DUP1 PUSH4 0xF23A6E61 EQ PUSH2 0x603 JUMPI DUP1 PUSH4 0xF2FDE38B EQ PUSH2 0x623 JUMPI JUMPDEST PUSH1 0x0 DUP1 REVERT JUMPDEST PUSH2 0x1C4 PUSH2 0x1BF CALLDATASIZE PUSH1 0x4 PUSH2 0x4022 JUMP JUMPDEST PUSH2 0x636 JUMP JUMPDEST PUSH1 0x40 MLOAD SWAP1 ISZERO ISZERO DUP2 MSTORE PUSH1 0x20 ADD JUMPDEST PUSH1 0x40 MLOAD DUP1 SWAP2 SUB SWAP1 RETURN JUMPDEST PUSH2 0x1EC PUSH2 0x1E7 CALLDATASIZE PUSH1 0x4 PUSH2 0x3C7C JUMP JUMPDEST PUSH2 0x688 JUMP JUMPDEST STOP JUMPDEST PUSH2 0x1C4 PUSH2 0x1FC CALLDATASIZE PUSH1 0x4 PUSH2 0x420B JUMP JUMPDEST PUSH1 0x6 PUSH1 0x20 MSTORE PUSH1 0x0 SWAP1 DUP2 MSTORE PUSH1 0x40 SWAP1 KECCAK256 SLOAD PUSH1 0xFF AND DUP2 JUMP JUMPDEST PUSH2 0x251 PUSH2 0x21F CALLDATASIZE PUSH1 0x4 PUSH2 0x420B JUMP JUMPDEST PUSH1 0x5 PUSH1 0x20 MSTORE PUSH1 0x0 SWAP1 DUP2 MSTORE PUSH1 0x40 SWAP1 KECCAK256 SLOAD PUSH1 0x1 PUSH1 0x1 PUSH1 0xA0 SHL SUB DUP2 AND SWAP1 PUSH2 0xFFFF PUSH1 0x1 PUSH1 0xA0 SHL DUP3 DIV DUP2 AND SWAP2 PUSH1 0x1 PUSH1 0xB0 SHL SWAP1 DIV AND DUP4 JUMP JUMPDEST PUSH1 0x40 DUP1 MLOAD PUSH1 0x1 PUSH1 0x1 PUSH1 0xA0 SHL SUB SWAP1 SWAP5 AND DUP5 MSTORE PUSH2 0xFFFF SWAP3 DUP4 AND PUSH1 0x20 DUP6 ADD MSTORE SWAP2 AND SWAP1 DUP3 ADD MSTORE PUSH1 0x60 ADD PUSH2 0x1D0 JUMP JUMPDEST PUSH2 0x28E PUSH2 0x289 CALLDATASIZE PUSH1 0x4 PUSH2 0x3D9C JUMP JUMPDEST PUSH2 0x79F JUMP JUMPDEST PUSH1 0x40 MLOAD PUSH1 0x1 PUSH1 0x1 PUSH1 0xE0 SHL SUB NOT SWAP1 SWAP2 AND DUP2 MSTORE PUSH1 0x20 ADD PUSH2 0x1D0 JUMP JUMPDEST PUSH2 0x2B0 PUSH1 0x2 SLOAD DUP2 JUMP JUMPDEST PUSH1 0x40 MLOAD SWAP1 DUP2 MSTORE PUSH1 0x20 ADD PUSH2 0x1D0 JUMP JUMPDEST PUSH2 0x1EC PUSH2 0x2CC CALLDATASIZE PUSH1 0x4 PUSH2 0x41A3 JUMP JUMPDEST PUSH2 0x7B0 JUMP JUMPDEST PUSH2 0x363 PUSH2 0x2DF CALLDATASIZE PUSH1 0x4 PUSH2 0x420B JUMP JUMPDEST PUSH1 0x4 PUSH1 0x20 DUP2 SWAP1 MSTORE PUSH1 0x0 SWAP2 DUP3 MSTORE PUSH1 0x40 SWAP1 SWAP2 KECCAK256 DUP1 SLOAD PUSH1 0x1 DUP3 ADD SLOAD PUSH1 0x2 DUP4 ADD SLOAD PUSH1 0x3 DUP5 ADD SLOAD SWAP5 DUP5 ADD SLOAD PUSH1 0x5 DUP6 ADD SLOAD PUSH1 0x6 SWAP1 SWAP6 ADD SLOAD SWAP4 SWAP6 SWAP3 SWAP5 SWAP2 SWAP4 PUSH1 0x1 PUSH1 0x1 PUSH1 0xA0 SHL SUB DUP1 DUP6 AND SWAP5 PUSH1 0x1 PUSH1 0xA0 SHL DUP1 DUP3 DIV PUSH4 0xFFFFFFFF AND SWAP6 PUSH1 0x1 PUSH1 0xC0 SHL DUP4 DIV PUSH2 0xFFFF SWAP1 DUP2 AND SWAP7 PUSH1 0x1 PUSH1 0xD0 SHL SWAP1 SWAP5 DIV AND SWAP5 DUP5 DUP5 AND SWAP5 SWAP3 SWAP1 SWAP4 DIV PUSH1 0x1 PUSH1 0x1 PUSH1 0x40 SHL SUB AND SWAP3 SWAP1 DUP3 AND SWAP2 AND DUP12 JUMP JUMPDEST PUSH1 0x40 DUP1 MLOAD SWAP12 DUP13 MSTORE PUSH1 0x20 DUP13 ADD SWAP11 SWAP1 SWAP11 MSTORE SWAP9 DUP11 ADD SWAP8 SWAP1 SWAP8 MSTORE PUSH1 0x1 PUSH1 0x1 PUSH1 0xA0 SHL SUB SWAP6 DUP7 AND PUSH1 0x60 DUP11 ADD MSTORE PUSH4 0xFFFFFFFF SWAP1 SWAP5 AND PUSH1 0x80 DUP10 ADD MSTORE PUSH2 0xFFFF SWAP3 DUP4 AND PUSH1 0xA0 DUP10 ADD MSTORE SWAP2 AND PUSH1 0xC0 DUP8 ADD MSTORE DUP3 AND PUSH1 0xE0 DUP7 ADD MSTORE PUSH1 0x1 PUSH1 0x1 PUSH1 0x40 SHL SUB AND PUSH2 0x100 DUP6 ADD MSTORE SWAP1 DUP2 AND PUSH2 0x120 DUP5 ADD MSTORE AND PUSH2 0x140 DUP3 ADD MSTORE PUSH2 0x160 ADD PUSH2 0x1D0 JUMP JUMPDEST PUSH2 0x1EC PUSH2 0x3E5 CALLDATASIZE PUSH1 0x4 PUSH2 0x420B JUMP JUMPDEST PUSH2 0x877 JUMP JUMPDEST PUSH2 0x1EC PUSH2 0x3F8 CALLDATASIZE PUSH1 0x4 PUSH2 0x4243 JUMP JUMPDEST PUSH2 0x9C6 JUMP JUMPDEST PUSH2 0x1C4 PUSH2 0x40B CALLDATASIZE PUSH1 0x4 PUSH2 0x3EAB JUMP JUMPDEST PUSH1 0x1 PUSH1 0x1 PUSH1 0xA0 SHL SUB SWAP2 SWAP1 SWAP2 AND PUSH1 0x0 SWAP1 DUP2 MSTORE PUSH1 0x8 PUSH1 0x20 SWAP1 DUP2 MSTORE PUSH1 0x40 DUP1 DUP4 KECCAK256 SWAP4 DUP4 MSTORE SWAP3 SWAP1 MSTORE KECCAK256 SLOAD PUSH1 0xFF AND SWAP1 JUMP JUMPDEST PUSH2 0x45D PUSH32 0x0 DUP2 JUMP JUMPDEST PUSH1 0x40 MLOAD PUSH2 0x1D0 SWAP2 SWAP1 PUSH2 0x44B6 JUMP JUMPDEST PUSH2 0x1EC PUSH2 0xBF3 JUMP JUMPDEST PUSH2 0x1EC PUSH2 0x480 CALLDATASIZE PUSH1 0x4 PUSH2 0x41DB JUMP JUMPDEST PUSH2 0xC2C JUMP JUMPDEST PUSH2 0x1EC PUSH2 0x493 CALLDATASIZE PUSH1 0x4 PUSH2 0x3F03 JUMP JUMPDEST PUSH2 0xCDD JUMP JUMPDEST PUSH2 0x1EC PUSH2 0x4A6 CALLDATASIZE PUSH1 0x4 PUSH2 0x40C8 JUMP JUMPDEST PUSH2 0xE6D JUMP JUMPDEST PUSH2 0x1EC PUSH2 0x4B9 CALLDATASIZE PUSH1 0x4 PUSH2 0x420B JUMP JUMPDEST PUSH2 0xED6 JUMP JUMPDEST PUSH2 0x1C4 PUSH2 0x10FC JUMP JUMPDEST PUSH2 0x2B0 PUSH2 0x110C JUMP JUMPDEST PUSH2 0x4D7 PUSH2 0x2710 DUP2 JUMP JUMPDEST PUSH1 0x40 MLOAD PUSH2 0xFFFF SWAP1 SWAP2 AND DUP2 MSTORE PUSH1 0x20 ADD PUSH2 0x1D0 JUMP JUMPDEST PUSH2 0x2B0 PUSH32 0x0 DUP2 JUMP JUMPDEST PUSH2 0x1EC PUSH2 0x51F CALLDATASIZE PUSH1 0x4 PUSH2 0x3E7E JUMP JUMPDEST PUSH2 0x112D JUMP JUMPDEST PUSH2 0x1EC PUSH2 0x532 CALLDATASIZE PUSH1 0x4 PUSH2 0x3F44 JUMP JUMPDEST PUSH2 0x116A JUMP JUMPDEST PUSH2 0x1EC PUSH2 0x127C JUMP JUMPDEST PUSH2 0x1C4 PUSH2 0x54D CALLDATASIZE PUSH1 0x4 PUSH2 0x3C3D JUMP JUMPDEST PUSH2 0x12B3 JUMP JUMPDEST PUSH2 0x45D PUSH2 0x12D1 JUMP JUMPDEST PUSH2 0x1EC PUSH2 0x568 CALLDATASIZE PUSH1 0x4 PUSH2 0x41DB JUMP JUMPDEST PUSH2 0x12E0 JUMP JUMPDEST PUSH1 0x3 SLOAD PUSH2 0x4D7 SWAP1 PUSH2 0xFFFF AND DUP2 JUMP JUMPDEST PUSH2 0x2B0 PUSH2 0x589 CALLDATASIZE PUSH1 0x4 PUSH2 0x420B JUMP JUMPDEST PUSH4 0xFFFFFFFF AND PUSH1 0x0 SWAP1 DUP2 MSTORE PUSH1 0x4 PUSH1 0x20 MSTORE PUSH1 0x40 SWAP1 KECCAK256 PUSH1 0x1 ADD SLOAD SWAP1 JUMP JUMPDEST PUSH2 0x1EC PUSH2 0x5B2 CALLDATASIZE PUSH1 0x4 PUSH2 0x3F03 JUMP JUMPDEST PUSH2 0x1361 JUMP JUMPDEST PUSH2 0x1EC PUSH2 0x5C5 CALLDATASIZE PUSH1 0x4 PUSH2 0x42E2 JUMP JUMPDEST PUSH2 0x1519 JUMP JUMPDEST PUSH2 0x1EC PUSH2 0x5D8 CALLDATASIZE PUSH1 0x4 PUSH2 0x420B JUMP JUMPDEST PUSH2 0x154A JUMP JUMPDEST PUSH2 0x28E PUSH2 0x5EB CALLDATASIZE PUSH1 0x4 PUSH2 0x3CE2 JUMP JUMPDEST PUSH2 0x17FB JUMP JUMPDEST PUSH2 0x1EC PUSH2 0x5FE CALLDATASIZE PUSH1 0x4 PUSH2 0x420B JUMP JUMPDEST PUSH2 0x1844 JUMP JUMPDEST PUSH2 0x28E PUSH2 0x611 CALLDATASIZE PUSH1 0x4 PUSH2 0x3E05 JUMP JUMPDEST PUSH4 0xF23A6E61 PUSH1 0xE0 SHL SWAP7 SWAP6 POP POP POP POP POP POP JUMP JUMPDEST PUSH2 0x1EC PUSH2 0x631 CALLDATASIZE PUSH1 0x4 PUSH2 0x3C3D JUMP JUMPDEST PUSH2 0x1A05 JUMP JUMPDEST PUSH1 0x0 PUSH1 0x1 PUSH1 0x1 PUSH1 0xE0 SHL SUB NOT DUP3 AND PUSH4 0x2711897 PUSH1 0xE5 SHL EQ DUP1 PUSH2 0x667 JUMPI POP PUSH1 0x1 PUSH1 0x1 PUSH1 0xE0 SHL SUB NOT DUP3 AND PUSH4 0xA85BD01 PUSH1 0xE1 SHL EQ JUMPDEST DUP1 PUSH2 0x682 JUMPI POP PUSH1 0x1 PUSH1 0x1 PUSH1 0xE0 SHL SUB NOT DUP3 AND PUSH4 0x1FFC9A7 PUSH1 0xE0 SHL EQ JUMPDEST SWAP3 SWAP2 POP POP JUMP JUMPDEST CALLER PUSH2 0x691 PUSH2 0x12D1 JUMP JUMPDEST PUSH1 0x1 PUSH1 0x1 PUSH1 0xA0 SHL SUB AND EQ PUSH2 0x6C0 JUMPI PUSH1 0x40 MLOAD PUSH3 0x461BCD PUSH1 0xE5 SHL DUP2 MSTORE PUSH1 0x4 ADD PUSH2 0x6B7 SWAP1 PUSH2 0x4551 JUMP JUMPDEST PUSH1 0x40 MLOAD DUP1 SWAP2 SUB SWAP1 REVERT JUMPDEST PUSH1 0x40 MLOAD PUSH4 0x70A08231 PUSH1 0xE0 SHL DUP2 MSTORE DUP3 SWAP1 PUSH1 0x0 SWAP1 PUSH1 0x1 PUSH1 0x1 PUSH1 0xA0 SHL SUB DUP4 AND SWAP1 PUSH4 0x70A08231 SWAP1 PUSH2 0x6F1 SWAP1 ADDRESS SWAP1 PUSH1 0x4 ADD PUSH2 0x44B6 JUMP JUMPDEST PUSH1 0x20 PUSH1 0x40 MLOAD DUP1 DUP4 SUB DUP2 DUP7 DUP1 EXTCODESIZE ISZERO DUP1 ISZERO PUSH2 0x709 JUMPI PUSH1 0x0 DUP1 REVERT JUMPDEST POP GAS STATICCALL ISZERO DUP1 ISZERO PUSH2 0x71D JUMPI RETURNDATASIZE PUSH1 0x0 DUP1 RETURNDATACOPY RETURNDATASIZE PUSH1 0x0 REVERT JUMPDEST POP POP POP POP PUSH1 0x40 MLOAD RETURNDATASIZE PUSH1 0x1F NOT PUSH1 0x1F DUP3 ADD AND DUP3 ADD DUP1 PUSH1 0x40 MSTORE POP DUP2 ADD SWAP1 PUSH2 0x741 SWAP2 SWAP1 PUSH2 0x41F3 JUMP JUMPDEST SWAP1 POP PUSH1 0x0 DUP2 GT PUSH2 0x785 JUMPI PUSH1 0x40 MLOAD PUSH3 0x461BCD PUSH1 0xE5 SHL DUP2 MSTORE PUSH1 0x20 PUSH1 0x4 DUP3 ADD MSTORE PUSH1 0xF PUSH1 0x24 DUP3 ADD MSTORE PUSH15 0x1B9BC81D1BDAD95B9CC81BDDDB9959 PUSH1 0x8A SHL PUSH1 0x44 DUP3 ADD MSTORE PUSH1 0x64 ADD PUSH2 0x6B7 JUMP JUMPDEST PUSH2 0x799 PUSH1 0x1 PUSH1 0x1 PUSH1 0xA0 SHL SUB DUP4 AND DUP5 DUP4 PUSH2 0x1AA2 JUMP JUMPDEST POP POP POP POP JUMP JUMPDEST PUSH4 0xA85BD01 PUSH1 0xE1 SHL JUMPDEST SWAP5 SWAP4 POP POP POP POP JUMP JUMPDEST CALLER PUSH2 0x7B9 PUSH2 0x12D1 JUMP JUMPDEST PUSH1 0x1 PUSH1 0x1 PUSH1 0xA0 SHL SUB AND EQ PUSH2 0x7DF JUMPI PUSH1 0x40 MLOAD PUSH3 0x461BCD PUSH1 0xE5 SHL DUP2 MSTORE PUSH1 0x4 ADD PUSH2 0x6B7 SWAP1 PUSH2 0x4551 JUMP JUMPDEST PUSH2 0x2710 PUSH2 0xFFFF DUP3 AND GT ISZERO PUSH2 0x82C JUMPI PUSH1 0x40 MLOAD PUSH3 0x461BCD PUSH1 0xE5 SHL DUP2 MSTORE PUSH1 0x20 PUSH1 0x4 DUP3 ADD MSTORE PUSH1 0x14 PUSH1 0x24 DUP3 ADD MSTORE PUSH20 0x626173697320706F696E7473203E20313030303 PUSH1 0x64 SHL PUSH1 0x44 DUP3 ADD MSTORE PUSH1 0x64 ADD PUSH2 0x6B7 JUMP JUMPDEST PUSH1 0x3 DUP1 SLOAD PUSH2 0xFFFF NOT AND PUSH2 0xFFFF DUP4 AND SWAP1 DUP2 OR SWAP1 SWAP2 SSTORE PUSH1 0x40 MLOAD SWAP1 DUP2 MSTORE PUSH32 0x3017365BBE16943B524030DF07E7689168AB63E854D27417498E6F9DC584DAB SWAP1 PUSH1 0x20 ADD JUMPDEST PUSH1 0x40 MLOAD DUP1 SWAP2 SUB SWAP1 LOG1 POP JUMP JUMPDEST PUSH2 0x87F PUSH2 0x1AF8 JUMP JUMPDEST PUSH1 0x40 MLOAD PUSH4 0x364D0ABB PUSH1 0xE1 SHL DUP2 MSTORE PUSH20 0x0 SWAP1 PUSH4 0x6C9A1576 SWAP1 PUSH2 0x8D8 SWAP1 DUP5 SWAP1 PUSH32 0x0 SWAP1 PUSH1 0x4 ADD PUSH2 0x478F JUMP JUMPDEST PUSH1 0x0 PUSH1 0x40 MLOAD DUP1 DUP4 SUB DUP2 DUP7 DUP1 EXTCODESIZE ISZERO DUP1 ISZERO PUSH2 0x8F0 JUMPI PUSH1 0x0 DUP1 REVERT JUMPDEST POP GAS DELEGATECALL ISZERO DUP1 ISZERO PUSH2 0x904 JUMPI RETURNDATASIZE PUSH1 0x0 DUP1 RETURNDATACOPY RETURNDATASIZE PUSH1 0x0 REVERT JUMPDEST POP POP POP POP PUSH1 0x0 DUP1 PUSH1 0x0 DUP1 PUSH2 0x917 DUP6 PUSH2 0x1B52 JUMP JUMPDEST SWAP4 POP SWAP4 POP SWAP4 POP SWAP4 POP PUSH2 0x92B DUP6 DUP6 DUP6 DUP6 PUSH2 0x1F66 JUMP JUMPDEST PUSH2 0x937 DUP6 DUP6 DUP5 DUP5 PUSH2 0x217C JUMP JUMPDEST POP POP POP PUSH4 0xFFFFFFFF DUP3 AND PUSH1 0x0 SWAP1 DUP2 MSTORE PUSH1 0x4 PUSH1 0x20 DUP2 DUP2 MSTORE PUSH1 0x40 DUP1 DUP5 KECCAK256 DUP5 DUP2 SSTORE PUSH1 0x1 DUP2 ADD DUP6 SWAP1 SSTORE PUSH1 0x2 DUP2 ADD DUP6 SWAP1 SSTORE PUSH1 0x3 DUP2 ADD DUP1 SLOAD PUSH1 0x1 PUSH1 0x1 PUSH1 0xE0 SHL SUB NOT SWAP1 DUP2 AND SWAP1 SWAP2 SSTORE SWAP4 DUP2 ADD DUP1 SLOAD SWAP1 SWAP5 AND SWAP1 SWAP4 SSTORE PUSH1 0x5 DUP1 DUP5 ADD DUP1 SLOAD PUSH1 0x1 PUSH1 0x1 PUSH1 0xA0 SHL SUB NOT SWAP1 DUP2 AND SWAP1 SWAP2 SSTORE PUSH1 0x6 SWAP1 SWAP5 ADD DUP1 SLOAD SWAP1 SWAP5 AND SWAP1 SWAP4 SSTORE SWAP2 SWAP1 MSTORE SWAP1 KECCAK256 DUP1 SLOAD PUSH1 0x1 PUSH1 0x1 PUSH1 0xC0 SHL SUB NOT AND SWAP1 SSTORE POP PUSH2 0x9C3 PUSH1 0x1 DUP1 SSTORE JUMP JUMPDEST POP JUMP JUMPDEST PUSH2 0x9CE PUSH2 0x1AF8 JUMP JUMPDEST PUSH1 0x40 MLOAD PUSH4 0x5BFD0FB1 PUSH1 0xE1 SHL DUP2 MSTORE PUSH20 0x0 SWAP1 PUSH4 0xB7FA1F62 SWAP1 PUSH2 0xA27 SWAP1 DUP12 SWAP1 PUSH32 0x0 SWAP1 PUSH1 0x4 ADD PUSH2 0x478F JUMP JUMPDEST PUSH1 0x0 PUSH1 0x40 MLOAD DUP1 DUP4 SUB DUP2 DUP7 DUP1 EXTCODESIZE ISZERO DUP1 ISZERO PUSH2 0xA3F JUMPI PUSH1 0x0 DUP1 REVERT JUMPDEST POP GAS DELEGATECALL ISZERO DUP1 ISZERO PUSH2 0xA53 JUMPI RETURNDATASIZE PUSH1 0x0 DUP1 RETURNDATACOPY RETURNDATASIZE PUSH1 0x0 REVERT JUMPDEST POP POP POP POP PUSH4 0xFFFFFFFF DUP9 AND PUSH1 0x0 SWAP1 DUP2 MSTORE PUSH1 0x6 PUSH1 0x20 MSTORE PUSH1 0x40 SWAP1 KECCAK256 SLOAD PUSH1 0xFF AND ISZERO PUSH2 0xA8D JUMPI PUSH1 0x40 MLOAD PUSH3 0x461BCD PUSH1 0xE5 SHL DUP2 MSTORE PUSH1 0x4 ADD PUSH2 0x6B7 SWAP1 PUSH2 0x451A JUMP JUMPDEST PUSH4 0xFFFFFFFF DUP9 DUP2 AND PUSH1 0x0 SWAP1 DUP2 MSTORE PUSH1 0x4 PUSH1 0x20 DUP2 DUP2 MSTORE PUSH1 0x40 SWAP3 DUP4 SWAP1 KECCAK256 DUP4 MLOAD PUSH2 0x160 DUP2 ADD DUP6 MSTORE DUP2 SLOAD DUP2 MSTORE PUSH1 0x1 DUP3 ADD SLOAD SWAP3 DUP2 ADD SWAP3 SWAP1 SWAP3 MSTORE PUSH1 0x2 DUP2 ADD SLOAD DUP3 DUP6 ADD MSTORE PUSH1 0x3 DUP2 ADD SLOAD PUSH1 0x1 PUSH1 0x1 PUSH1 0xA0 SHL SUB DUP1 DUP3 AND PUSH1 0x60 DUP6 ADD MSTORE PUSH1 0x1 PUSH1 0xA0 SHL DUP1 DUP4 DIV SWAP1 SWAP8 AND PUSH1 0x80 DUP6 ADD MSTORE PUSH1 0x1 PUSH1 0xC0 SHL DUP3 DIV PUSH2 0xFFFF SWAP1 DUP2 AND PUSH1 0xA0 DUP7 ADD MSTORE PUSH1 0x1 PUSH1 0xD0 SHL SWAP1 SWAP3 DIV SWAP1 SWAP2 AND PUSH1 0xC0 DUP5 ADD MSTORE DUP2 DUP5 ADD SLOAD DUP1 DUP3 AND PUSH1 0xE0 DUP6 ADD MSTORE SWAP6 SWAP1 SWAP6 DIV PUSH1 0x1 PUSH1 0x1 PUSH1 0x40 SHL SUB AND PUSH2 0x100 DUP4 ADD MSTORE PUSH1 0x5 DUP2 ADD SLOAD DUP6 AND PUSH2 0x120 DUP4 ADD MSTORE PUSH1 0x6 ADD SLOAD SWAP1 SWAP4 AND PUSH2 0x140 DUP5 ADD MSTORE SWAP1 MLOAD PUSH4 0x491BD441 PUSH1 0xE1 SHL DUP2 MSTORE PUSH20 0x0 SWAP2 PUSH4 0x9237A882 SWAP2 PUSH2 0xBAF SWAP2 DUP14 SWAP2 DUP7 SWAP2 DUP15 SWAP2 DUP15 SWAP2 DUP15 SWAP2 DUP15 SWAP2 DUP15 SWAP2 DUP15 SWAP2 DUP15 SWAP2 PUSH32 0x0 SWAP2 ADD PUSH2 0x47AE JUMP JUMPDEST PUSH1 0x0 PUSH1 0x40 MLOAD DUP1 DUP4 SUB DUP2 DUP7 DUP1 EXTCODESIZE ISZERO DUP1 ISZERO PUSH2 0xBC7 JUMPI PUSH1 0x0 DUP1 REVERT JUMPDEST POP GAS DELEGATECALL ISZERO DUP1 ISZERO PUSH2 0xBDB JUMPI RETURNDATASIZE PUSH1 0x0 DUP1 RETURNDATACOPY RETURNDATASIZE PUSH1 0x0 REVERT JUMPDEST POP POP POP POP POP PUSH2 0xBE9 PUSH1 0x1 DUP1 SSTORE JUMP JUMPDEST POP POP POP POP POP POP POP POP JUMP JUMPDEST CALLER PUSH2 0xBFC PUSH2 0x12D1 JUMP JUMPDEST PUSH1 0x1 PUSH1 0x1 PUSH1 0xA0 SHL SUB AND EQ PUSH2 0xC22 JUMPI PUSH1 0x40 MLOAD PUSH3 0x461BCD PUSH1 0xE5 SHL DUP2 MSTORE PUSH1 0x4 ADD PUSH2 0x6B7 SWAP1 PUSH2 0x4551 JUMP JUMPDEST PUSH2 0xC2A PUSH2 0x2192 JUMP JUMPDEST JUMP JUMPDEST CALLER PUSH2 0xC35 PUSH2 0x12D1 JUMP JUMPDEST PUSH1 0x1 PUSH1 0x1 PUSH1 0xA0 SHL SUB AND EQ PUSH2 0xC5B JUMPI PUSH1 0x40 MLOAD PUSH3 0x461BCD PUSH1 0xE5 SHL DUP2 MSTORE PUSH1 0x4 ADD PUSH2 0x6B7 SWAP1 PUSH2 0x4551 JUMP JUMPDEST PUSH4 0xFFFFFFFF DUP2 GT ISZERO PUSH2 0xCA8 JUMPI PUSH1 0x40 MLOAD PUSH3 0x461BCD PUSH1 0xE5 SHL DUP2 MSTORE PUSH1 0x20 PUSH1 0x4 DUP3 ADD MSTORE PUSH1 0x16 PUSH1 0x24 DUP3 ADD MSTORE PUSH22 0x4C6F616E206475726174696F6E206F766572666C6F77 PUSH1 0x50 SHL PUSH1 0x44 DUP3 ADD MSTORE PUSH1 0x64 ADD PUSH2 0x6B7 JUMP JUMPDEST PUSH1 0x2 DUP2 SWAP1 SSTORE PUSH1 0x40 MLOAD DUP2 DUP2 MSTORE PUSH32 0x64F65A4A1A932867AD599DA36210FC47C698B3ABB2413CFDFD36BF59697A69CB SWAP1 PUSH1 0x20 ADD PUSH2 0x86C JUMP JUMPDEST CALLER PUSH2 0xCE6 PUSH2 0x12D1 JUMP JUMPDEST PUSH1 0x1 PUSH1 0x1 PUSH1 0xA0 SHL SUB AND EQ PUSH2 0xD0C JUMPI PUSH1 0x40 MLOAD PUSH3 0x461BCD PUSH1 0xE5 SHL DUP2 MSTORE PUSH1 0x4 ADD PUSH2 0x6B7 SWAP1 PUSH2 0x4551 JUMP JUMPDEST PUSH1 0x1 PUSH1 0x1 PUSH1 0xA0 SHL SUB DUP4 AND PUSH1 0x0 SWAP1 DUP2 MSTORE PUSH1 0x7 PUSH1 0x20 SWAP1 DUP2 MSTORE PUSH1 0x40 DUP1 DUP4 KECCAK256 DUP6 DUP5 MSTORE SWAP1 SWAP2 MSTORE SWAP1 KECCAK256 SLOAD DUP4 SWAP1 ISZERO PUSH2 0xD4F JUMPI PUSH1 0x40 MLOAD PUSH3 0x461BCD PUSH1 0xE5 SHL DUP2 MSTORE PUSH1 0x4 ADD PUSH2 0x6B7 SWAP1 PUSH2 0x4586 JUMP JUMPDEST PUSH1 0x40 MLOAD PUSH4 0x31A9108F PUSH1 0xE1 SHL DUP2 MSTORE PUSH1 0x4 DUP2 ADD DUP5 SWAP1 MSTORE ADDRESS SWAP1 PUSH1 0x1 PUSH1 0x1 PUSH1 0xA0 SHL SUB DUP4 AND SWAP1 PUSH4 0x6352211E SWAP1 PUSH1 0x24 ADD PUSH1 0x20 PUSH1 0x40 MLOAD DUP1 DUP4 SUB DUP2 DUP7 DUP1 EXTCODESIZE ISZERO DUP1 ISZERO PUSH2 0xD91 JUMPI PUSH1 0x0 DUP1 REVERT JUMPDEST POP GAS STATICCALL ISZERO DUP1 ISZERO PUSH2 0xDA5 JUMPI RETURNDATASIZE PUSH1 0x0 DUP1 RETURNDATACOPY RETURNDATASIZE PUSH1 0x0 REVERT JUMPDEST POP POP POP POP PUSH1 0x40 MLOAD RETURNDATASIZE PUSH1 0x1F NOT PUSH1 0x1F DUP3 ADD AND DUP3 ADD DUP1 PUSH1 0x40 MSTORE POP DUP2 ADD SWAP1 PUSH2 0xDC9 SWAP2 SWAP1 PUSH2 0x3C60 JUMP JUMPDEST PUSH1 0x1 PUSH1 0x1 PUSH1 0xA0 SHL SUB AND EQ PUSH2 0xE0F JUMPI PUSH1 0x40 MLOAD PUSH3 0x461BCD PUSH1 0xE5 SHL DUP2 MSTORE PUSH1 0x20 PUSH1 0x4 DUP3 ADD MSTORE PUSH1 0xD PUSH1 0x24 DUP3 ADD MSTORE PUSH13 0x1B999D081B9BDD081BDDDB9959 PUSH1 0x9A SHL PUSH1 0x44 DUP3 ADD MSTORE PUSH1 0x64 ADD PUSH2 0x6B7 JUMP JUMPDEST PUSH1 0x40 MLOAD PUSH4 0x21421707 PUSH1 0xE1 SHL DUP2 MSTORE PUSH1 0x1 PUSH1 0x1 PUSH1 0xA0 SHL SUB DUP3 AND SWAP1 PUSH4 0x42842E0E SWAP1 PUSH2 0xE3F SWAP1 ADDRESS SWAP1 DUP7 SWAP1 DUP9 SWAP1 PUSH1 0x4 ADD PUSH2 0x44CA JUMP JUMPDEST PUSH1 0x0 PUSH1 0x40 MLOAD DUP1 DUP4 SUB DUP2 PUSH1 0x0 DUP8 DUP1 EXTCODESIZE ISZERO DUP1 ISZERO PUSH2 0xE59 JUMPI PUSH1 0x0 DUP1 REVERT JUMPDEST POP GAS CALL ISZERO DUP1 ISZERO PUSH2 0xBE9 JUMPI RETURNDATASIZE PUSH1 0x0 DUP1 RETURNDATACOPY RETURNDATASIZE PUSH1 0x0 REVERT JUMPDEST PUSH2 0xE75 PUSH2 0x21E1 JUMP JUMPDEST PUSH2 0xE7D PUSH2 0x1AF8 JUMP JUMPDEST PUSH1 0x0 PUSH2 0xE8C DUP5 PUSH1 0x60 ADD MLOAD PUSH2 0x2229 JUMP JUMPDEST SWAP1 POP PUSH2 0xE98 DUP5 DUP3 PUSH2 0x234F JUMP JUMPDEST PUSH2 0xEA1 DUP5 PUSH2 0x2560 JUMP JUMPDEST PUSH2 0xEC7 PUSH2 0xEAE DUP6 DUP4 PUSH2 0x25CB JUMP JUMPDEST PUSH2 0xEC0 DUP5 PUSH1 0x0 ADD MLOAD DUP6 PUSH1 0x20 ADD MLOAD PUSH2 0x267F JUMP JUMPDEST DUP7 DUP7 PUSH2 0x277D JUMP JUMPDEST POP PUSH2 0xED1 PUSH1 0x1 DUP1 SSTORE JUMP JUMPDEST POP POP POP JUMP JUMPDEST PUSH2 0xEDE PUSH2 0x1AF8 JUMP JUMPDEST PUSH1 0x40 MLOAD PUSH4 0x5BFD0FB1 PUSH1 0xE1 SHL DUP2 MSTORE PUSH20 0x0 SWAP1 PUSH4 0xB7FA1F62 SWAP1 PUSH2 0xF37 SWAP1 DUP5 SWAP1 PUSH32 0x0 SWAP1 PUSH1 0x4 ADD PUSH2 0x478F JUMP JUMPDEST PUSH1 0x0 PUSH1 0x40 MLOAD DUP1 DUP4 SUB DUP2 DUP7 DUP1 EXTCODESIZE ISZERO DUP1 ISZERO PUSH2 0xF4F JUMPI PUSH1 0x0 DUP1 REVERT JUMPDEST POP GAS DELEGATECALL ISZERO DUP1 ISZERO PUSH2 0xF63 JUMPI RETURNDATASIZE PUSH1 0x0 DUP1 RETURNDATACOPY RETURNDATASIZE PUSH1 0x0 REVERT JUMPDEST POP POP POP POP PUSH4 0xFFFFFFFF DUP2 AND PUSH1 0x0 SWAP1 DUP2 MSTORE PUSH1 0x6 PUSH1 0x20 MSTORE PUSH1 0x40 SWAP1 KECCAK256 SLOAD PUSH1 0xFF AND ISZERO PUSH2 0xF9D JUMPI PUSH1 0x40 MLOAD PUSH3 0x461BCD PUSH1 0xE5 SHL DUP2 MSTORE PUSH1 0x4 ADD PUSH2 0x6B7 SWAP1 PUSH2 0x451A JUMP JUMPDEST PUSH4 0xFFFFFFFF DUP2 AND PUSH1 0x0 SWAP1 DUP2 MSTORE PUSH1 0x4 PUSH1 0x20 SWAP1 DUP2 MSTORE PUSH1 0x40 DUP1 DUP4 KECCAK256 PUSH1 0x5 DUP2 ADD SLOAD PUSH1 0x1 PUSH1 0x1 PUSH1 0xA0 SHL SUB AND DUP5 MSTORE PUSH1 0x7 DUP4 MSTORE DUP2 DUP5 KECCAK256 PUSH1 0x2 DUP3 ADD SLOAD DUP6 MSTORE SWAP1 SWAP3 MSTORE DUP3 KECCAK256 DUP1 SLOAD SWAP2 SWAP3 PUSH1 0x1 SWAP3 PUSH2 0xFEA SWAP1 DUP5 SWAP1 PUSH2 0x490E JUMP JUMPDEST SWAP1 SWAP2 SSTORE POP POP PUSH1 0x40 MLOAD PUSH4 0x1276B77D PUSH1 0xE1 SHL DUP2 MSTORE PUSH4 0xFFFFFFFF DUP4 AND PUSH1 0x4 DUP3 ADD MSTORE PUSH1 0x24 DUP2 ADD DUP3 SWAP1 MSTORE PUSH1 0x1 PUSH1 0x1 PUSH1 0xA0 SHL SUB PUSH32 0x0 AND PUSH1 0x44 DUP3 ADD MSTORE PUSH1 0x0 SWAP1 DUP2 SWAP1 PUSH20 0x0 SWAP1 PUSH4 0x24ED6EFA SWAP1 PUSH1 0x64 ADD PUSH1 0x40 DUP1 MLOAD DUP1 DUP4 SUB DUP2 DUP7 DUP1 EXTCODESIZE ISZERO DUP1 ISZERO PUSH2 0x1079 JUMPI PUSH1 0x0 DUP1 REVERT JUMPDEST POP GAS DELEGATECALL ISZERO DUP1 ISZERO PUSH2 0x108D JUMPI RETURNDATASIZE PUSH1 0x0 DUP1 RETURNDATACOPY RETURNDATASIZE PUSH1 0x0 REVERT JUMPDEST POP POP POP POP PUSH1 0x40 MLOAD RETURNDATASIZE PUSH1 0x1F NOT PUSH1 0x1F DUP3 ADD AND DUP3 ADD DUP1 PUSH1 0x40 MSTORE POP DUP2 ADD SWAP1 PUSH2 0x10B1 SWAP2 SWAP1 PUSH2 0x3ED6 JUMP JUMPDEST PUSH1 0x1 PUSH1 0x1 PUSH1 0xA0 SHL SUB DUP3 AND PUSH1 0x0 SWAP1 DUP2 MSTORE PUSH1 0x7 PUSH1 0x20 SWAP1 DUP2 MSTORE PUSH1 0x40 DUP1 DUP4 KECCAK256 DUP5 DUP5 MSTORE SWAP1 SWAP2 MSTORE DUP2 KECCAK256 DUP1 SLOAD SWAP4 SWAP6 POP SWAP2 SWAP4 POP PUSH1 0x1 SWAP3 PUSH2 0x10EA SWAP1 DUP5 SWAP1 PUSH2 0x48F6 JUMP JUMPDEST SWAP1 SWAP2 SSTORE POP POP PUSH1 0x1 DUP1 SSTORE POP PUSH2 0x9C3 SWAP2 POP POP JUMP JUMPDEST PUSH1 0x0 SLOAD PUSH1 0x1 PUSH1 0xA0 SHL SWAP1 DIV PUSH1 0xFF AND SWAP1 JUMP JUMPDEST PUSH26 0x4449524543545F4C4F414E5F46495845445F52454445504C4F59 PUSH1 0x30 SHL SWAP1 JUMP JUMPDEST CALLER PUSH2 0x1136 PUSH2 0x12D1 JUMP JUMPDEST PUSH1 0x1 PUSH1 0x1 PUSH1 0xA0 SHL SUB AND EQ PUSH2 0x115C JUMPI PUSH1 0x40 MLOAD PUSH3 0x461BCD PUSH1 0xE5 SHL DUP2 MSTORE PUSH1 0x4 ADD PUSH2 0x6B7 SWAP1 PUSH2 0x4551 JUMP JUMPDEST PUSH2 0x1166 DUP3 DUP3 PUSH2 0x2A7F JUMP JUMPDEST POP POP JUMP JUMPDEST CALLER PUSH2 0x1173 PUSH2 0x12D1 JUMP JUMPDEST PUSH1 0x1 PUSH1 0x1 PUSH1 0xA0 SHL SUB AND EQ PUSH2 0x1199 JUMPI PUSH1 0x40 MLOAD PUSH3 0x461BCD PUSH1 0xE5 SHL DUP2 MSTORE PUSH1 0x4 ADD PUSH2 0x6B7 SWAP1 PUSH2 0x4551 JUMP JUMPDEST DUP1 MLOAD DUP3 MLOAD EQ PUSH2 0x1206 JUMPI PUSH1 0x40 MLOAD PUSH3 0x461BCD PUSH1 0xE5 SHL DUP2 MSTORE PUSH1 0x20 PUSH1 0x4 DUP3 ADD MSTORE PUSH1 0x33 PUSH1 0x24 DUP3 ADD MSTORE PUSH32 0x73657445524332305065726D6974732066756E6374696F6E20696E666F726D61 PUSH1 0x44 DUP3 ADD MSTORE PUSH19 0xE8D2DEDC40C2E4D2E8F240DAD2E6DAC2E8C6D PUSH1 0x6B SHL PUSH1 0x64 DUP3 ADD MSTORE PUSH1 0x84 ADD PUSH2 0x6B7 JUMP JUMPDEST PUSH1 0x0 JUMPDEST DUP3 MLOAD DUP2 LT ISZERO PUSH2 0xED1 JUMPI PUSH2 0x126A DUP4 DUP3 DUP2 MLOAD DUP2 LT PUSH2 0x1235 JUMPI PUSH4 0x4E487B71 PUSH1 0xE0 SHL PUSH1 0x0 MSTORE PUSH1 0x32 PUSH1 0x4 MSTORE PUSH1 0x24 PUSH1 0x0 REVERT JUMPDEST PUSH1 0x20 MUL PUSH1 0x20 ADD ADD MLOAD DUP4 DUP4 DUP2 MLOAD DUP2 LT PUSH2 0x125D JUMPI PUSH4 0x4E487B71 PUSH1 0xE0 SHL PUSH1 0x0 MSTORE PUSH1 0x32 PUSH1 0x4 MSTORE PUSH1 0x24 PUSH1 0x0 REVERT JUMPDEST PUSH1 0x20 MUL PUSH1 0x20 ADD ADD MLOAD PUSH2 0x2A7F JUMP JUMPDEST DUP1 PUSH2 0x1274 DUP2 PUSH2 0x495D JUMP JUMPDEST SWAP2 POP POP PUSH2 0x1209 JUMP JUMPDEST CALLER PUSH2 0x1285 PUSH2 0x12D1 JUMP JUMPDEST PUSH1 0x1 PUSH1 0x1 PUSH1 0xA0 SHL SUB AND EQ PUSH2 0x12AB JUMPI PUSH1 0x40 MLOAD PUSH3 0x461BCD PUSH1 0xE5 SHL DUP2 MSTORE PUSH1 0x4 ADD PUSH2 0x6B7 SWAP1 PUSH2 0x4551 JUMP JUMPDEST PUSH2 0xC2A PUSH2 0x2B2C JUMP JUMPDEST PUSH1 0x1 PUSH1 0x1 PUSH1 0xA0 SHL SUB AND PUSH1 0x0 SWAP1 DUP2 MSTORE PUSH1 0x9 PUSH1 0x20 MSTORE PUSH1 0x40 SWAP1 KECCAK256 SLOAD PUSH1 0xFF AND SWAP1 JUMP JUMPDEST PUSH1 0x0 SLOAD PUSH1 0x1 PUSH1 0x1 PUSH1 0xA0 SHL SUB AND SWAP1 JUMP JUMPDEST CALLER PUSH1 0x0 SWAP1 DUP2 MSTORE PUSH1 0x8 PUSH1 0x20 SWAP1 DUP2 MSTORE PUSH1 0x40 DUP1 DUP4 KECCAK256 DUP5 DUP5 MSTORE SWAP1 SWAP2 MSTORE SWAP1 KECCAK256 SLOAD PUSH1 0xFF AND ISZERO PUSH2 0x133B JUMPI PUSH1 0x40 MLOAD PUSH3 0x461BCD PUSH1 0xE5 SHL DUP2 MSTORE PUSH1 0x20 PUSH1 0x4 DUP3 ADD MSTORE PUSH1 0xD PUSH1 0x24 DUP3 ADD MSTORE PUSH13 0x496E76616C6964206E6F6E6365 PUSH1 0x98 SHL PUSH1 0x44 DUP3 ADD MSTORE PUSH1 0x64 ADD PUSH2 0x6B7 JUMP JUMPDEST CALLER PUSH1 0x0 SWAP1 DUP2 MSTORE PUSH1 0x8 PUSH1 0x20 SWAP1 DUP2 MSTORE PUSH1 0x40 DUP1 DUP4 KECCAK256 SWAP4 DUP4 MSTORE SWAP3 SWAP1 MSTORE KECCAK256 DUP1 SLOAD PUSH1 0xFF NOT AND PUSH1 0x1 OR SWAP1 SSTORE JUMP JUMPDEST CALLER PUSH2 0x136A PUSH2 0x12D1 JUMP JUMPDEST PUSH1 0x1 PUSH1 0x1 PUSH1 0xA0 SHL SUB AND EQ PUSH2 0x1390 JUMPI PUSH1 0x40 MLOAD PUSH3 0x461BCD PUSH1 0xE5 SHL DUP2 MSTORE PUSH1 0x4 ADD PUSH2 0x6B7 SWAP1 PUSH2 0x4551 JUMP JUMPDEST PUSH1 0x40 MLOAD PUSH3 0x7EEAC7 PUSH1 0xE1 SHL DUP2 MSTORE DUP4 SWAP1 PUSH1 0x0 SWAP1 PUSH1 0x1 PUSH1 0x1 PUSH1 0xA0 SHL SUB DUP4 AND SWAP1 PUSH3 0xFDD58E SWAP1 PUSH2 0x13C1 SWAP1 ADDRESS SWAP1 DUP9 SWAP1 PUSH1 0x4 ADD PUSH2 0x44EE JUMP JUMPDEST PUSH1 0x20 PUSH1 0x40 MLOAD DUP1 DUP4 SUB DUP2 DUP7 DUP1 EXTCODESIZE ISZERO DUP1 ISZERO PUSH2 0x13D9 JUMPI PUSH1 0x0 DUP1 REVERT JUMPDEST POP GAS STATICCALL ISZERO DUP1 ISZERO PUSH2 0x13ED JUMPI RETURNDATASIZE PUSH1 0x0 DUP1 RETURNDATACOPY RETURNDATASIZE PUSH1 0x0 REVERT JUMPDEST POP POP POP POP PUSH1 0x40 MLOAD RETURNDATASIZE PUSH1 0x1F NOT PUSH1 0x1F DUP3 ADD AND DUP3 ADD DUP1 PUSH1 0x40 MSTORE POP DUP2 ADD SWAP1 PUSH2 0x1411 SWAP2 SWAP1 PUSH2 0x41F3 JUMP JUMPDEST PUSH1 0x1 PUSH1 0x1 PUSH1 0xA0 SHL SUB DUP7 AND PUSH1 0x0 SWAP1 DUP2 MSTORE PUSH1 0x7 PUSH1 0x20 SWAP1 DUP2 MSTORE PUSH1 0x40 DUP1 DUP4 KECCAK256 DUP9 DUP5 MSTORE SWAP1 SWAP2 MSTORE SWAP1 KECCAK256 SLOAD SWAP1 SWAP2 POP ISZERO PUSH2 0x1455 JUMPI PUSH1 0x40 MLOAD PUSH3 0x461BCD PUSH1 0xE5 SHL DUP2 MSTORE PUSH1 0x4 ADD PUSH2 0x6B7 SWAP1 PUSH2 0x4586 JUMP JUMPDEST PUSH1 0x0 DUP2 GT PUSH2 0x1495 JUMPI PUSH1 0x40 MLOAD PUSH3 0x461BCD PUSH1 0xE5 SHL DUP2 MSTORE PUSH1 0x20 PUSH1 0x4 DUP3 ADD MSTORE PUSH1 0xD PUSH1 0x24 DUP3 ADD MSTORE PUSH13 0x1B9BC81B999D1CC81BDDDB9959 PUSH1 0x9A SHL PUSH1 0x44 DUP3 ADD MSTORE PUSH1 0x64 ADD PUSH2 0x6B7 JUMP JUMPDEST PUSH1 0x40 MLOAD PUSH4 0x79212195 PUSH1 0xE1 SHL DUP2 MSTORE ADDRESS PUSH1 0x4 DUP3 ADD MSTORE PUSH1 0x1 PUSH1 0x1 PUSH1 0xA0 SHL SUB DUP5 DUP2 AND PUSH1 0x24 DUP4 ADD MSTORE PUSH1 0x44 DUP3 ADD DUP7 SWAP1 MSTORE PUSH1 0x64 DUP3 ADD DUP4 SWAP1 MSTORE PUSH1 0xA0 PUSH1 0x84 DUP4 ADD MSTORE PUSH1 0x0 PUSH1 0xA4 DUP4 ADD MSTORE DUP4 AND SWAP1 PUSH4 0xF242432A SWAP1 PUSH1 0xC4 ADD PUSH1 0x0 PUSH1 0x40 MLOAD DUP1 DUP4 SUB DUP2 PUSH1 0x0 DUP8 DUP1 EXTCODESIZE ISZERO DUP1 ISZERO PUSH2 0x14FA JUMPI PUSH1 0x0 DUP1 REVERT JUMPDEST POP GAS CALL ISZERO DUP1 ISZERO PUSH2 0x150E JUMPI RETURNDATASIZE PUSH1 0x0 DUP1 RETURNDATACOPY RETURNDATASIZE PUSH1 0x0 REVERT JUMPDEST POP POP POP POP POP POP POP POP POP JUMP JUMPDEST PUSH2 0x1521 PUSH2 0x21E1 JUMP JUMPDEST PUSH2 0x1529 PUSH2 0x1AF8 JUMP JUMPDEST PUSH2 0x1538 DUP8 DUP8 DUP8 DUP8 DUP8 DUP8 DUP8 PUSH2 0x2B6F JUMP JUMPDEST PUSH2 0x1541 PUSH1 0x1 DUP1 SSTORE JUMP JUMPDEST POP POP POP POP POP POP POP JUMP JUMPDEST PUSH2 0x1552 PUSH2 0x1AF8 JUMP JUMPDEST PUSH1 0x40 MLOAD PUSH4 0x5BFD0FB1 PUSH1 0xE1 SHL DUP2 MSTORE PUSH20 0x0 SWAP1 PUSH4 0xB7FA1F62 SWAP1 PUSH2 0x15AB SWAP1 DUP5 SWAP1 PUSH32 0x0 SWAP1 PUSH1 0x4 ADD PUSH2 0x478F JUMP JUMPDEST PUSH1 0x0 PUSH1 0x40 MLOAD DUP1 DUP4 SUB DUP2 DUP7 DUP1 EXTCODESIZE ISZERO DUP1 ISZERO PUSH2 0x15C3 JUMPI PUSH1 0x0 DUP1 REVERT JUMPDEST POP GAS DELEGATECALL ISZERO DUP1 ISZERO PUSH2 0x15D7 JUMPI RETURNDATASIZE PUSH1 0x0 DUP1 RETURNDATACOPY RETURNDATASIZE PUSH1 0x0 REVERT JUMPDEST POP POP POP POP PUSH4 0xFFFFFFFF DUP2 AND PUSH1 0x0 SWAP1 DUP2 MSTORE PUSH1 0x6 PUSH1 0x20 MSTORE PUSH1 0x40 SWAP1 KECCAK256 SLOAD PUSH1 0xFF AND ISZERO PUSH2 0x1611 JUMPI PUSH1 0x40 MLOAD PUSH3 0x461BCD PUSH1 0xE5 SHL DUP2 MSTORE PUSH1 0x4 ADD PUSH2 0x6B7 SWAP1 PUSH2 0x451A JUMP JUMPDEST PUSH1 0x0 DUP1 PUSH1 0x0 DUP1 PUSH2 0x1620 DUP6 PUSH2 0x1B52 JUMP JUMPDEST SWAP4 POP SWAP4 POP SWAP4 POP SWAP4 POP PUSH1 0x0 DUP3 PUSH1 0x80 ADD MLOAD PUSH4 0xFFFFFFFF AND DUP4 PUSH2 0x100 ADD MLOAD PUSH1 0x1 PUSH1 0x1 PUSH1 0x40 SHL SUB AND PUSH2 0x164E SWAP2 SWAP1 PUSH2 0x48F6 JUMP JUMPDEST SWAP1 POP DUP1 TIMESTAMP GT PUSH2 0x1699 JUMPI PUSH1 0x40 MLOAD PUSH3 0x461BCD PUSH1 0xE5 SHL DUP2 MSTORE PUSH1 0x20 PUSH1 0x4 DUP3 ADD MSTORE PUSH1 0x17 PUSH1 0x24 DUP3 ADD MSTORE PUSH23 0x131BD85B881A5CC81B9BDD081BDD995C991D59481E595D PUSH1 0x4A SHL PUSH1 0x44 DUP3 ADD MSTORE PUSH1 0x64 ADD PUSH2 0x6B7 JUMP JUMPDEST CALLER PUSH1 0x1 PUSH1 0x1 PUSH1 0xA0 SHL SUB DUP6 AND EQ PUSH2 0x16ED JUMPI PUSH1 0x40 MLOAD PUSH3 0x461BCD PUSH1 0xE5 SHL DUP2 MSTORE PUSH1 0x20 PUSH1 0x4 DUP3 ADD MSTORE PUSH1 0x19 PUSH1 0x24 DUP3 ADD MSTORE PUSH25 0x4F6E6C79206C656E6465722063616E206C6971756964617465 PUSH1 0x38 SHL PUSH1 0x44 DUP3 ADD MSTORE PUSH1 0x64 ADD PUSH2 0x6B7 JUMP JUMPDEST PUSH2 0x16F9 DUP7 DUP6 DUP6 DUP6 PUSH2 0x217C JUMP JUMPDEST DUP3 MLOAD PUSH1 0x40 DUP1 DUP6 ADD MLOAD PUSH2 0x120 DUP7 ADD MLOAD DUP3 MLOAD SWAP4 DUP5 MSTORE PUSH1 0x20 DUP5 ADD SWAP2 SWAP1 SWAP2 MSTORE SWAP1 DUP3 ADD DUP4 SWAP1 MSTORE TIMESTAMP PUSH1 0x60 DUP4 ADD MSTORE PUSH1 0x1 PUSH1 0x1 PUSH1 0xA0 SHL SUB SWAP1 DUP2 AND PUSH1 0x80 DUP4 ADD MSTORE DUP1 DUP7 AND SWAP2 SWAP1 DUP8 AND SWAP1 PUSH4 0xFFFFFFFF DUP10 AND SWAP1 PUSH32 0x4FAC0FF43299A330BCE57D0579985305AF580ACF256A6D7977083EDE81BE1326 SWAP1 PUSH1 0xA0 ADD PUSH1 0x40 MLOAD DUP1 SWAP2 SUB SWAP1 LOG4 POP POP POP PUSH4 0xFFFFFFFF DUP4 AND PUSH1 0x0 SWAP1 DUP2 MSTORE PUSH1 0x4 PUSH1 0x20 DUP2 DUP2 MSTORE PUSH1 0x40 DUP1 DUP5 KECCAK256 DUP5 DUP2 SSTORE PUSH1 0x1 DUP2 ADD DUP6 SWAP1 SSTORE PUSH1 0x2 DUP2 ADD DUP6 SWAP1 SSTORE PUSH1 0x3 DUP2 ADD DUP1 SLOAD PUSH1 0x1 PUSH1 0x1 PUSH1 0xE0 SHL SUB NOT SWAP1 DUP2 AND SWAP1 SWAP2 SSTORE SWAP4 DUP2 ADD DUP1 SLOAD SWAP1 SWAP5 AND SWAP1 SWAP4 SSTORE PUSH1 0x5 DUP1 DUP5 ADD DUP1 SLOAD PUSH1 0x1 PUSH1 0x1 PUSH1 0xA0 SHL SUB NOT SWAP1 DUP2 AND SWAP1 SWAP2 SSTORE PUSH1 0x6 SWAP1 SWAP5 ADD DUP1 SLOAD SWAP1 SWAP5 AND SWAP1 SWAP4 SSTORE SWAP2 SWAP1 MSTORE SWAP1 KECCAK256 DUP1 SLOAD PUSH1 0x1 PUSH1 0x1 PUSH1 0xC0 SHL SUB NOT AND SWAP1 SSTORE POP PUSH2 0x9C3 SWAP1 POP PUSH1 0x1 DUP1 SSTORE JUMP JUMPDEST PUSH1 0x40 MLOAD PUSH3 0x461BCD PUSH1 0xE5 SHL DUP2 MSTORE PUSH1 0x20 PUSH1 0x4 DUP3 ADD MSTORE PUSH1 0x1B PUSH1 0x24 DUP3 ADD MSTORE PUSH27 0x115490CC4C4D4D4818985D18DA081B9BDD081CDD5C1C1BDC9D1959 PUSH1 0x2A SHL PUSH1 0x44 DUP3 ADD MSTORE PUSH1 0x0 SWAP1 PUSH1 0x64 ADD PUSH2 0x6B7 JUMP JUMPDEST PUSH2 0x184C PUSH2 0x1AF8 JUMP JUMPDEST PUSH4 0xFFFFFFFF DUP2 AND PUSH1 0x0 SWAP1 DUP2 MSTORE PUSH1 0x4 PUSH1 0x20 MSTORE PUSH1 0x40 SWAP1 KECCAK256 PUSH1 0x6 ADD SLOAD PUSH1 0x1 PUSH1 0x1 PUSH1 0xA0 SHL SUB AND CALLER DUP2 EQ PUSH2 0x18B9 JUMPI PUSH1 0x40 MLOAD PUSH3 0x461BCD PUSH1 0xE5 SHL DUP2 MSTORE PUSH1 0x20 PUSH1 0x4 DUP3 ADD MSTORE PUSH1 0x19 PUSH1 0x24 DUP3 ADD MSTORE PUSH25 0x39B2B73232B9103430B9903A37903132903137B93937BBB2B9 PUSH1 0x39 SHL PUSH1 0x44 DUP3 ADD MSTORE PUSH1 0x64 ADD PUSH2 0x6B7 JUMP JUMPDEST PUSH1 0x40 MLOAD PUSH4 0x1C2D8FB3 PUSH1 0xE3 SHL DUP2 MSTORE PUSH32 0x0 PUSH1 0x4 DUP3 ADD MSTORE PUSH1 0x0 SWAP1 PUSH32 0x0 PUSH1 0x1 PUSH1 0x1 PUSH1 0xA0 SHL SUB AND SWAP1 PUSH4 0xE16C7D98 SWAP1 PUSH1 0x24 ADD PUSH1 0x20 PUSH1 0x40 MLOAD DUP1 DUP4 SUB DUP2 DUP7 DUP1 EXTCODESIZE ISZERO DUP1 ISZERO PUSH2 0x193B JUMPI PUSH1 0x0 DUP1 REVERT JUMPDEST POP GAS STATICCALL ISZERO DUP1 ISZERO PUSH2 0x194F JUMPI RETURNDATASIZE PUSH1 0x0 DUP1 RETURNDATACOPY RETURNDATASIZE PUSH1 0x0 REVERT JUMPDEST POP POP POP POP PUSH1 0x40 MLOAD RETURNDATASIZE PUSH1 0x1F NOT PUSH1 0x1F DUP3 ADD AND DUP3 ADD DUP1 PUSH1 0x40 MSTORE POP DUP2 ADD SWAP1 PUSH2 0x1973 SWAP2 SWAP1 PUSH2 0x3C60 JUMP JUMPDEST PUSH1 0x40 MLOAD PUSH4 0x1B982CF1 PUSH1 0xE0 SHL DUP2 MSTORE SWAP1 SWAP2 POP PUSH1 0x1 PUSH1 0x1 PUSH1 0xA0 SHL SUB DUP3 AND SWAP1 PUSH4 0x1B982CF1 SWAP1 PUSH2 0x19A4 SWAP1 DUP7 SWAP1 DUP7 SWAP1 PUSH1 0x4 ADD PUSH2 0x478F JUMP JUMPDEST PUSH1 0x0 PUSH1 0x40 MLOAD DUP1 DUP4 SUB DUP2 PUSH1 0x0 DUP8 DUP1 EXTCODESIZE ISZERO DUP1 ISZERO PUSH2 0x19BE JUMPI PUSH1 0x0 DUP1 REVERT JUMPDEST POP GAS CALL ISZERO DUP1 ISZERO PUSH2 0x19D2 JUMPI RETURNDATASIZE PUSH1 0x0 DUP1 RETURNDATACOPY RETURNDATASIZE PUSH1 0x0 REVERT JUMPDEST POP POP POP POP PUSH4 0xFFFFFFFF DUP4 AND PUSH1 0x0 SWAP1 DUP2 MSTORE PUSH1 0x4 PUSH1 0x20 MSTORE PUSH1 0x40 SWAP1 KECCAK256 PUSH1 0x6 ADD DUP1 SLOAD PUSH1 0x1 PUSH1 0x1 PUSH1 0xA0 SHL SUB NOT AND SWAP1 SSTORE POP POP PUSH1 0x1 DUP1 SSTORE POP JUMP JUMPDEST CALLER PUSH2 0x1A0E PUSH2 0x12D1 JUMP JUMPDEST PUSH1 0x1 PUSH1 0x1 PUSH1 0xA0 SHL SUB AND EQ PUSH2 0x1A34 JUMPI PUSH1 0x40 MLOAD PUSH3 0x461BCD PUSH1 0xE5 SHL DUP2 MSTORE PUSH1 0x4 ADD PUSH2 0x6B7 SWAP1 PUSH2 0x4551 JUMP JUMPDEST PUSH1 0x1 PUSH1 0x1 PUSH1 0xA0 SHL SUB DUP2 AND PUSH2 0x1A99 JUMPI PUSH1 0x40 MLOAD PUSH3 0x461BCD PUSH1 0xE5 SHL DUP2 MSTORE PUSH1 0x20 PUSH1 0x4 DUP3 ADD MSTORE PUSH1 0x26 PUSH1 0x24 DUP3 ADD MSTORE PUSH32 0x4F776E61626C653A206E6577206F776E657220697320746865207A65726F2061 PUSH1 0x44 DUP3 ADD MSTORE PUSH6 0x646472657373 PUSH1 0xD0 SHL PUSH1 0x64 DUP3 ADD MSTORE PUSH1 0x84 ADD PUSH2 0x6B7 JUMP JUMPDEST PUSH2 0x9C3 DUP2 PUSH2 0x2EEE JUMP JUMPDEST PUSH2 0xED1 DUP4 PUSH4 0xA9059CBB PUSH1 0xE0 SHL DUP5 DUP5 PUSH1 0x40 MLOAD PUSH1 0x24 ADD PUSH2 0x1AC1 SWAP3 SWAP2 SWAP1 PUSH2 0x44EE JUMP JUMPDEST PUSH1 0x40 DUP1 MLOAD PUSH1 0x1F NOT DUP2 DUP5 SUB ADD DUP2 MSTORE SWAP2 SWAP1 MSTORE PUSH1 0x20 DUP2 ADD DUP1 MLOAD PUSH1 0x1 PUSH1 0x1 PUSH1 0xE0 SHL SUB AND PUSH1 0x1 PUSH1 0x1 PUSH1 0xE0 SHL SUB NOT SWAP1 SWAP4 AND SWAP3 SWAP1 SWAP3 OR SWAP1 SWAP2 MSTORE PUSH2 0x2F3E JUMP JUMPDEST PUSH1 0x2 PUSH1 0x1 SLOAD EQ ISZERO PUSH2 0x1B4B JUMPI PUSH1 0x40 MLOAD PUSH3 0x461BCD PUSH1 0xE5 SHL DUP2 MSTORE PUSH1 0x20 PUSH1 0x4 DUP3 ADD MSTORE PUSH1 0x1F PUSH1 0x24 DUP3 ADD MSTORE PUSH32 0x5265656E7472616E637947756172643A207265656E7472616E742063616C6C00 PUSH1 0x44 DUP3 ADD MSTORE PUSH1 0x64 ADD PUSH2 0x6B7 JUMP JUMPDEST PUSH1 0x2 PUSH1 0x1 SSTORE JUMP JUMPDEST PUSH1 0x0 DUP1 PUSH2 0x1B5D PUSH2 0x3963 JUMP JUMPDEST PUSH1 0x40 MLOAD PUSH4 0x1C2D8FB3 PUSH1 0xE3 SHL DUP2 MSTORE PUSH32 0x0 PUSH1 0x4 DUP3 ADD MSTORE PUSH1 0x0 SWAP1 PUSH32 0x0 PUSH1 0x1 PUSH1 0x1 PUSH1 0xA0 SHL SUB AND SWAP1 PUSH4 0xE16C7D98 SWAP1 PUSH1 0x24 ADD PUSH1 0x20 PUSH1 0x40 MLOAD DUP1 DUP4 SUB DUP2 DUP7 DUP1 EXTCODESIZE ISZERO DUP1 ISZERO PUSH2 0x1BDF JUMPI PUSH1 0x0 DUP1 REVERT JUMPDEST POP GAS STATICCALL ISZERO DUP1 ISZERO PUSH2 0x1BF3 JUMPI RETURNDATASIZE PUSH1 0x0 DUP1 RETURNDATACOPY RETURNDATASIZE PUSH1 0x0 REVERT JUMPDEST POP POP POP POP PUSH1 0x40 MLOAD RETURNDATASIZE PUSH1 0x1F NOT PUSH1 0x1F DUP3 ADD AND DUP3 ADD DUP1 PUSH1 0x40 MSTORE POP DUP2 ADD SWAP1 PUSH2 0x1C17 SWAP2 SWAP1 PUSH2 0x3C60 JUMP JUMPDEST PUSH1 0x40 MLOAD PUSH4 0xE6C5A541 PUSH1 0xE0 SHL DUP2 MSTORE PUSH4 0xFFFFFFFF DUP8 AND PUSH1 0x4 DUP3 ADD MSTORE SWAP1 SWAP2 POP PUSH1 0x0 SWAP1 PUSH1 0x1 PUSH1 0x1 PUSH1 0xA0 SHL SUB DUP4 AND SWAP1 PUSH4 0xE6C5A541 SWAP1 PUSH1 0x24 ADD PUSH1 0x60 PUSH1 0x40 MLOAD DUP1 DUP4 SUB DUP2 DUP7 DUP1 EXTCODESIZE ISZERO DUP1 ISZERO PUSH2 0x1C62 JUMPI PUSH1 0x0 DUP1 REVERT JUMPDEST POP GAS STATICCALL ISZERO DUP1 ISZERO PUSH2 0x1C76 JUMPI RETURNDATASIZE PUSH1 0x0 DUP1 RETURNDATACOPY RETURNDATASIZE PUSH1 0x0 REVERT JUMPDEST POP POP POP POP PUSH1 0x40 MLOAD RETURNDATASIZE PUSH1 0x1F NOT PUSH1 0x1F DUP3 ADD AND DUP3 ADD DUP1 PUSH1 0x40 MSTORE POP DUP2 ADD SWAP1 PUSH2 0x1C9A SWAP2 SWAP1 PUSH2 0x404A JUMP JUMPDEST PUSH1 0x20 DUP2 DUP2 ADD MLOAD PUSH4 0xFFFFFFFF DUP10 DUP2 AND PUSH1 0x0 SWAP1 DUP2 MSTORE PUSH1 0x4 DUP1 DUP6 MSTORE PUSH1 0x40 SWAP2 DUP3 SWAP1 KECCAK256 DUP3 MLOAD PUSH2 0x160 DUP2 ADD DUP5 MSTORE DUP2 SLOAD DUP2 MSTORE PUSH1 0x1 DUP3 ADD SLOAD SWAP7 DUP2 ADD SWAP7 SWAP1 SWAP7 MSTORE PUSH1 0x2 DUP2 ADD SLOAD SWAP3 DUP7 ADD SWAP3 SWAP1 SWAP3 MSTORE PUSH1 0x3 DUP3 ADD SLOAD PUSH1 0x1 PUSH1 0x1 PUSH1 0xA0 SHL SUB DUP1 DUP3 AND PUSH1 0x60 DUP9 ADD MSTORE PUSH1 0x1 PUSH1 0xA0 SHL DUP1 DUP4 DIV SWAP1 SWAP6 AND PUSH1 0x80 DUP9 ADD MSTORE PUSH1 0x1 PUSH1 0xC0 SHL DUP3 DIV PUSH2 0xFFFF SWAP1 DUP2 AND PUSH1 0xA0 DUP10 ADD MSTORE PUSH1 0x1 PUSH1 0xD0 SHL SWAP1 SWAP3 DIV SWAP1 SWAP2 AND PUSH1 0xC0 DUP8 ADD MSTORE SWAP1 DUP3 ADD SLOAD DUP1 DUP3 AND PUSH1 0xE0 DUP8 ADD MSTORE PUSH1 0x1 PUSH1 0x1 PUSH1 0x40 SHL SUB SWAP4 SWAP1 DIV DUP4 AND PUSH2 0x100 DUP7 ADD MSTORE PUSH1 0x5 DUP3 ADD SLOAD DUP2 AND PUSH2 0x120 DUP7 ADD MSTORE PUSH1 0x6 SWAP1 SWAP2 ADD SLOAD AND PUSH2 0x140 DUP5 ADD DUP2 SWAP1 MSTORE SWAP3 SWAP7 POP SWAP3 SWAP4 POP SWAP2 SWAP1 SWAP2 AND SWAP1 ISZERO PUSH2 0x1D7C JUMPI DUP4 PUSH2 0x140 ADD MLOAD SWAP6 POP PUSH2 0x1E6D JUMP JUMPDEST DUP3 PUSH1 0x1 PUSH1 0x1 PUSH1 0xA0 SHL SUB AND PUSH4 0x8208E76C PUSH1 0x40 MLOAD DUP2 PUSH4 0xFFFFFFFF AND PUSH1 0xE0 SHL DUP2 MSTORE PUSH1 0x4 ADD PUSH1 0x20 PUSH1 0x40 MLOAD DUP1 DUP4 SUB DUP2 DUP7 DUP1 EXTCODESIZE ISZERO DUP1 ISZERO PUSH2 0x1DB5 JUMPI PUSH1 0x0 DUP1 REVERT JUMPDEST POP GAS STATICCALL ISZERO DUP1 ISZERO PUSH2 0x1DC9 JUMPI RETURNDATASIZE PUSH1 0x0 DUP1 RETURNDATACOPY RETURNDATASIZE PUSH1 0x0 REVERT JUMPDEST POP POP POP POP PUSH1 0x40 MLOAD RETURNDATASIZE PUSH1 0x1F NOT PUSH1 0x1F DUP3 ADD AND DUP3 ADD DUP1 PUSH1 0x40 MSTORE POP DUP2 ADD SWAP1 PUSH2 0x1DED SWAP2 SWAP1 PUSH2 0x3C60 JUMP JUMPDEST PUSH1 0x1 PUSH1 0x1 PUSH1 0xA0 SHL SUB AND PUSH4 0x6352211E DUP3 PUSH1 0x40 MLOAD DUP3 PUSH4 0xFFFFFFFF AND PUSH1 0xE0 SHL DUP2 MSTORE PUSH1 0x4 ADD PUSH2 0x1E1A SWAP2 DUP2 MSTORE PUSH1 0x20 ADD SWAP1 JUMP JUMPDEST PUSH1 0x20 PUSH1 0x40 MLOAD DUP1 DUP4 SUB DUP2 DUP7 DUP1 EXTCODESIZE ISZERO DUP1 ISZERO PUSH2 0x1E32 JUMPI PUSH1 0x0 DUP1 REVERT JUMPDEST POP GAS STATICCALL ISZERO DUP1 ISZERO PUSH2 0x1E46 JUMPI RETURNDATASIZE PUSH1 0x0 DUP1 RETURNDATACOPY RETURNDATASIZE PUSH1 0x0 REVERT JUMPDEST POP POP POP POP PUSH1 0x40 MLOAD RETURNDATASIZE PUSH1 0x1F NOT PUSH1 0x1F DUP3 ADD AND DUP3 ADD DUP1 PUSH1 0x40 MSTORE POP DUP2 ADD SWAP1 PUSH2 0x1E6A SWAP2 SWAP1 PUSH2 0x3C60 JUMP JUMPDEST SWAP6 POP JUMPDEST DUP3 PUSH1 0x1 PUSH1 0x1 PUSH1 0xA0 SHL SUB AND PUSH4 0x4FBE68A0 PUSH1 0x40 MLOAD DUP2 PUSH4 0xFFFFFFFF AND PUSH1 0xE0 SHL DUP2 MSTORE PUSH1 0x4 ADD PUSH1 0x20 PUSH1 0x40 MLOAD DUP1 DUP4 SUB DUP2 DUP7 DUP1 EXTCODESIZE ISZERO DUP1 ISZERO PUSH2 0x1EA6 JUMPI PUSH1 0x0 DUP1 REVERT JUMPDEST POP GAS STATICCALL ISZERO DUP1 ISZERO PUSH2 0x1EBA JUMPI RETURNDATASIZE PUSH1 0x0 DUP1 RETURNDATACOPY RETURNDATASIZE PUSH1 0x0 REVERT JUMPDEST POP POP POP POP PUSH1 0x40 MLOAD RETURNDATASIZE PUSH1 0x1F NOT PUSH1 0x1F DUP3 ADD AND DUP3 ADD DUP1 PUSH1 0x40 MSTORE POP DUP2 ADD SWAP1 PUSH2 0x1EDE SWAP2 SWAP1 PUSH2 0x3C60 JUMP JUMPDEST PUSH1 0x1 PUSH1 0x1 PUSH1 0xA0 SHL SUB AND PUSH4 0x6352211E DUP3 PUSH1 0x40 MLOAD DUP3 PUSH4 0xFFFFFFFF AND PUSH1 0xE0 SHL DUP2 MSTORE PUSH1 0x4 ADD PUSH2 0x1F0B SWAP2 DUP2 MSTORE PUSH1 0x20 ADD SWAP1 JUMP JUMPDEST PUSH1 0x20 PUSH1 0x40 MLOAD DUP1 DUP4 SUB DUP2 DUP7 DUP1 EXTCODESIZE ISZERO DUP1 ISZERO PUSH2 0x1F23 JUMPI PUSH1 0x0 DUP1 REVERT JUMPDEST POP GAS STATICCALL ISZERO DUP1 ISZERO PUSH2 0x1F37 JUMPI RETURNDATASIZE PUSH1 0x0 DUP1 RETURNDATACOPY RETURNDATASIZE PUSH1 0x0 REVERT JUMPDEST POP POP POP POP PUSH1 0x40 MLOAD RETURNDATASIZE PUSH1 0x1F NOT PUSH1 0x1F DUP3 ADD AND DUP3 ADD DUP1 PUSH1 0x40 MSTORE POP DUP2 ADD SWAP1 PUSH2 0x1F5B SWAP2 SWAP1 PUSH2 0x3C60 JUMP JUMPDEST SWAP5 POP POP POP SWAP2 SWAP4 POP SWAP2 SWAP4 JUMP JUMPDEST PUSH4 0xFFFFFFFF DUP5 AND PUSH1 0x0 SWAP1 DUP2 MSTORE PUSH1 0x5 PUSH1 0x20 SWAP1 DUP2 MSTORE PUSH1 0x40 DUP1 DUP4 KECCAK256 DUP2 MLOAD PUSH1 0x60 DUP2 ADD DUP4 MSTORE SWAP1 SLOAD PUSH1 0x1 PUSH1 0x1 PUSH1 0xA0 SHL SUB DUP2 AND DUP3 MSTORE PUSH2 0xFFFF PUSH1 0x1 PUSH1 0xA0 SHL DUP3 DIV DUP2 AND SWAP5 DUP4 ADD SWAP5 SWAP1 SWAP5 MSTORE PUSH1 0x1 PUSH1 0xB0 SHL SWAP1 DIV SWAP1 SWAP3 AND SWAP1 DUP3 ADD MSTORE SWAP1 DUP1 PUSH2 0x1FC0 DUP5 PUSH2 0x3010 JUMP JUMPDEST PUSH1 0x60 DUP7 ADD MLOAD SWAP2 SWAP4 POP SWAP2 POP PUSH2 0x1FDF SWAP1 PUSH1 0x1 PUSH1 0x1 PUSH1 0xA0 SHL SUB AND CALLER DUP8 DUP5 PUSH2 0x30D9 JUMP JUMPDEST PUSH1 0x20 DUP4 ADD MLOAD PUSH1 0x40 MLOAD PUSH4 0x7F5E0ED3 PUSH1 0xE0 SHL DUP2 MSTORE PUSH1 0x4 DUP2 ADD DUP5 SWAP1 MSTORE PUSH2 0xFFFF SWAP1 SWAP2 AND PUSH1 0x24 DUP3 ADD MSTORE PUSH1 0x0 SWAP1 PUSH20 0x0 SWAP1 PUSH4 0x7F5E0ED3 SWAP1 PUSH1 0x44 ADD PUSH1 0x20 PUSH1 0x40 MLOAD DUP1 DUP4 SUB DUP2 DUP7 DUP1 EXTCODESIZE ISZERO DUP1 ISZERO PUSH2 0x203D JUMPI PUSH1 0x0 DUP1 REVERT JUMPDEST POP GAS DELEGATECALL ISZERO DUP1 ISZERO PUSH2 0x2051 JUMPI RETURNDATASIZE PUSH1 0x0 DUP1 RETURNDATACOPY RETURNDATASIZE PUSH1 0x0 REVERT JUMPDEST POP POP POP POP PUSH1 0x40 MLOAD RETURNDATASIZE PUSH1 0x1F NOT PUSH1 0x1F DUP3 ADD AND DUP3 ADD DUP1 PUSH1 0x40 MSTORE POP DUP2 ADD SWAP1 PUSH2 0x2075 SWAP2 SWAP1 PUSH2 0x41F3 JUMP JUMPDEST SWAP1 POP PUSH1 0x0 DUP2 GT DUP1 ISZERO PUSH2 0x2090 JUMPI POP DUP4 MLOAD PUSH1 0x1 PUSH1 0x1 PUSH1 0xA0 SHL SUB AND ISZERO ISZERO JUMPDEST ISZERO PUSH2 0x20BF JUMPI PUSH2 0x209F DUP2 DUP5 PUSH2 0x490E JUMP JUMPDEST DUP5 MLOAD PUSH1 0x60 DUP8 ADD MLOAD SWAP2 SWAP5 POP PUSH2 0x20BF SWAP2 PUSH1 0x1 PUSH1 0x1 PUSH1 0xA0 SHL SUB AND SWAP1 CALLER SWAP1 DUP5 PUSH2 0x30D9 JUMP JUMPDEST PUSH2 0x20E1 CALLER PUSH2 0x20CB PUSH2 0x12D1 JUMP JUMPDEST PUSH1 0x60 DUP9 ADD MLOAD PUSH1 0x1 PUSH1 0x1 PUSH1 0xA0 SHL SUB AND SWAP2 SWAP1 DUP7 PUSH2 0x30D9 JUMP JUMPDEST DUP5 MLOAD PUSH1 0x40 DUP1 DUP8 ADD MLOAD DUP7 MLOAD PUSH2 0x120 DUP10 ADD MLOAD PUSH1 0x60 DUP1 DUP12 ADD MLOAD DUP6 MLOAD SWAP7 DUP8 MSTORE PUSH1 0x20 DUP8 ADD SWAP5 SWAP1 SWAP5 MSTORE DUP6 DUP6 ADD DUP9 SWAP1 MSTORE DUP6 ADD DUP9 SWAP1 MSTORE PUSH1 0x80 DUP6 ADD DUP7 SWAP1 MSTORE PUSH1 0x1 PUSH1 0x1 PUSH1 0xA0 SHL SUB SWAP2 DUP3 AND PUSH1 0xA0 DUP7 ADD MSTORE DUP2 AND PUSH1 0xC0 DUP6 ADD MSTORE SWAP1 DUP2 AND PUSH1 0xE0 DUP5 ADD MSTORE SWAP1 MLOAD DUP9 DUP3 AND SWAP3 SWAP2 DUP11 AND SWAP2 PUSH4 0xFFFFFFFF DUP13 AND SWAP2 PUSH32 0x3687D64F40B11DD1C102A76882AC1735891C546A96AE27935EB5C7865B9D86FA SWAP2 DUP2 SWAP1 SUB PUSH2 0x100 ADD SWAP1 LOG4 POP POP POP POP POP POP POP POP JUMP JUMPDEST PUSH2 0x2187 DUP5 DUP4 DUP4 PUSH2 0x30FA JUMP JUMPDEST PUSH2 0x799 DUP3 ADDRESS DUP6 PUSH2 0x31B4 JUMP JUMPDEST PUSH2 0x219A PUSH2 0x3257 JUMP JUMPDEST PUSH1 0x0 DUP1 SLOAD PUSH1 0xFF PUSH1 0xA0 SHL NOT AND SWAP1 SSTORE PUSH32 0x5DB9EE0A495BF2E6FF9C91A7834C1BA4FDD244A5E8AA4E537BD38AEAE4B073AA CALLER JUMPDEST PUSH1 0x40 MLOAD PUSH2 0x21D7 SWAP2 SWAP1 PUSH2 0x44B6 JUMP JUMPDEST PUSH1 0x40 MLOAD DUP1 SWAP2 SUB SWAP1 LOG1 JUMP JUMPDEST PUSH2 0x21E9 PUSH2 0x10FC JUMP JUMPDEST ISZERO PUSH2 0xC2A JUMPI PUSH1 0x40 MLOAD PUSH3 0x461BCD PUSH1 0xE5 SHL DUP2 MSTORE PUSH1 0x20 PUSH1 0x4 DUP3 ADD MSTORE PUSH1 0x10 PUSH1 0x24 DUP3 ADD MSTORE PUSH16 0x14185D5CD8589B194E881C185D5CD959 PUSH1 0x82 SHL PUSH1 0x44 DUP3 ADD MSTORE PUSH1 0x64 ADD PUSH2 0x6B7 JUMP JUMPDEST PUSH1 0x40 MLOAD PUSH4 0x1C2D8FB3 PUSH1 0xE3 SHL DUP2 MSTORE PUSH14 0x5045524D49545445445F4E465453 PUSH1 0x90 SHL PUSH1 0x4 DUP3 ADD MSTORE PUSH1 0x0 SWAP1 PUSH32 0x0 PUSH1 0x1 PUSH1 0x1 PUSH1 0xA0 SHL SUB AND SWAP1 PUSH4 0xE16C7D98 SWAP1 PUSH1 0x24 ADD PUSH1 0x20 PUSH1 0x40 MLOAD DUP1 DUP4 SUB DUP2 DUP7 DUP1 EXTCODESIZE ISZERO DUP1 ISZERO PUSH2 0x229C JUMPI PUSH1 0x0 DUP1 REVERT JUMPDEST POP GAS STATICCALL ISZERO DUP1 ISZERO PUSH2 0x22B0 JUMPI RETURNDATASIZE PUSH1 0x0 DUP1 RETURNDATACOPY RETURNDATASIZE PUSH1 0x0 REVERT JUMPDEST POP POP POP POP PUSH1 0x40 MLOAD RETURNDATASIZE PUSH1 0x1F NOT PUSH1 0x1F DUP3 ADD AND DUP3 ADD DUP1 PUSH1 0x40 MSTORE POP DUP2 ADD SWAP1 PUSH2 0x22D4 SWAP2 SWAP1 PUSH2 0x3C60 JUMP JUMPDEST PUSH1 0x1 PUSH1 0x1 PUSH1 0xA0 SHL SUB AND PUSH4 0xB8C8AFF8 DUP4 PUSH1 0x40 MLOAD DUP3 PUSH4 0xFFFFFFFF AND PUSH1 0xE0 SHL DUP2 MSTORE PUSH1 0x4 ADD PUSH2 0x22FF SWAP2 SWAP1 PUSH2 0x44B6 JUMP JUMPDEST PUSH1 0x20 PUSH1 0x40 MLOAD DUP1 DUP4 SUB DUP2 DUP7 DUP1 EXTCODESIZE ISZERO DUP1 ISZERO PUSH2 0x2317 JUMPI PUSH1 0x0 DUP1 REVERT JUMPDEST POP GAS STATICCALL ISZERO DUP1 ISZERO PUSH2 0x232B JUMPI RETURNDATASIZE PUSH1 0x0 DUP1 RETURNDATACOPY RETURNDATASIZE PUSH1 0x0 REVERT JUMPDEST POP POP POP POP PUSH1 0x40 MLOAD RETURNDATASIZE PUSH1 0x1F NOT PUSH1 0x1F DUP3 ADD AND DUP3 ADD DUP1 PUSH1 0x40 MSTORE POP DUP2 ADD SWAP1 PUSH2 0x682 SWAP2 SWAP1 PUSH2 0x3C60 JUMP JUMPDEST PUSH2 0x235C DUP3 PUSH1 0xC0 ADD MLOAD PUSH2 0x12B3 JUMP JUMPDEST PUSH2 0x23B7 JUMPI PUSH1 0x40 MLOAD PUSH3 0x461BCD PUSH1 0xE5 SHL DUP2 MSTORE PUSH1 0x20 PUSH1 0x4 DUP3 ADD MSTORE PUSH1 0x26 PUSH1 0x24 DUP3 ADD MSTORE PUSH32 0x43757272656E63792064656E6F6D696E6174696F6E206973206E6F7420706572 PUSH1 0x44 DUP3 ADD MSTORE PUSH6 0x1B5A5D1D1959 PUSH1 0xD2 SHL PUSH1 0x64 DUP3 ADD MSTORE PUSH1 0x84 ADD PUSH2 0x6B7 JUMP JUMPDEST PUSH1 0x1 PUSH1 0x1 PUSH1 0xA0 SHL SUB DUP2 AND PUSH2 0x241E JUMPI PUSH1 0x40 MLOAD PUSH3 0x461BCD PUSH1 0xE5 SHL DUP2 MSTORE PUSH1 0x20 PUSH1 0x4 DUP3 ADD MSTORE PUSH1 0x28 PUSH1 0x24 DUP3 ADD MSTORE PUSH32 0x4E465420636F6C6C61746572616C20636F6E7472616374206973206E6F742070 PUSH1 0x44 DUP3 ADD MSTORE PUSH8 0x195C9B5A5D1D1959 PUSH1 0xC2 SHL PUSH1 0x64 DUP3 ADD MSTORE PUSH1 0x84 ADD PUSH2 0x6B7 JUMP JUMPDEST PUSH1 0x2 SLOAD DUP3 PUSH1 0x80 ADD MLOAD PUSH4 0xFFFFFFFF AND GT ISZERO PUSH2 0x248E JUMPI PUSH1 0x40 MLOAD PUSH3 0x461BCD PUSH1 0xE5 SHL DUP2 MSTORE PUSH1 0x20 PUSH1 0x4 DUP3 ADD MSTORE PUSH1 0x2B PUSH1 0x24 DUP3 ADD MSTORE PUSH32 0x4C6F616E206475726174696F6E2065786365656473206D6178696D756D206C6F PUSH1 0x44 DUP3 ADD MSTORE PUSH11 0x30B710323AB930BA34B7B7 PUSH1 0xA9 SHL PUSH1 0x64 DUP3 ADD MSTORE PUSH1 0x84 ADD PUSH2 0x6B7 JUMP JUMPDEST PUSH1 0x80 DUP3 ADD MLOAD PUSH4 0xFFFFFFFF AND PUSH2 0x24E4 JUMPI PUSH1 0x40 MLOAD PUSH3 0x461BCD PUSH1 0xE5 SHL DUP2 MSTORE PUSH1 0x20 PUSH1 0x4 DUP3 ADD MSTORE PUSH1 0x1C PUSH1 0x24 DUP3 ADD MSTORE PUSH28 0x4C6F616E206475726174696F6E2063616E6E6F74206265207A65726F PUSH1 0x20 SHL PUSH1 0x44 DUP3 ADD MSTORE PUSH1 0x64 ADD PUSH2 0x6B7 JUMP JUMPDEST PUSH1 0x3 SLOAD PUSH1 0xA0 DUP4 ADD MLOAD PUSH2 0xFFFF SWAP1 DUP2 AND SWAP2 AND EQ PUSH2 0x1166 JUMPI PUSH1 0x40 MLOAD PUSH3 0x461BCD PUSH1 0xE5 SHL DUP2 MSTORE PUSH1 0x20 PUSH1 0x4 DUP3 ADD MSTORE PUSH1 0x36 PUSH1 0x24 DUP3 ADD MSTORE PUSH32 0x5468652061646D696E2066656520686173206368616E6765642073696E636520 PUSH1 0x44 DUP3 ADD MSTORE PUSH22 0x3A3434B99037B93232B9103BB0B99039B4B3B732B217 PUSH1 0x51 SHL PUSH1 0x64 DUP3 ADD MSTORE PUSH1 0x84 ADD PUSH2 0x6B7 JUMP JUMPDEST DUP1 MLOAD PUSH1 0x20 DUP3 ADD MLOAD LT ISZERO PUSH2 0x9C3 JUMPI PUSH1 0x40 MLOAD PUSH3 0x461BCD PUSH1 0xE5 SHL DUP2 MSTORE PUSH1 0x20 PUSH1 0x4 DUP3 ADD MSTORE PUSH1 0x2D PUSH1 0x24 DUP3 ADD MSTORE PUSH32 0x4E6567617469766520696E7465726573742072617465206C6F616E7320617265 PUSH1 0x44 DUP3 ADD MSTORE PUSH13 0x103737BA1030B63637BBB2B217 PUSH1 0x99 SHL PUSH1 0x64 DUP3 ADD MSTORE PUSH1 0x84 ADD PUSH2 0x6B7 JUMP JUMPDEST PUSH2 0x25D3 PUSH2 0x3963 JUMP JUMPDEST PUSH1 0x40 MLOAD DUP1 PUSH2 0x160 ADD PUSH1 0x40 MSTORE DUP1 DUP5 PUSH1 0x0 ADD MLOAD DUP2 MSTORE PUSH1 0x20 ADD DUP5 PUSH1 0x20 ADD MLOAD DUP2 MSTORE PUSH1 0x20 ADD DUP5 PUSH1 0x40 ADD MLOAD DUP2 MSTORE PUSH1 0x20 ADD DUP5 PUSH1 0xC0 ADD MLOAD PUSH1 0x1 PUSH1 0x1 PUSH1 0xA0 SHL SUB AND DUP2 MSTORE PUSH1 0x20 ADD DUP5 PUSH1 0x80 ADD MLOAD PUSH4 0xFFFFFFFF AND DUP2 MSTORE PUSH1 0x20 ADD PUSH1 0x0 PUSH2 0xFFFF AND DUP2 MSTORE PUSH1 0x20 ADD DUP5 PUSH1 0xA0 ADD MLOAD PUSH2 0xFFFF AND DUP2 MSTORE PUSH1 0x20 ADD DUP4 PUSH1 0x1 PUSH1 0x1 PUSH1 0xA0 SHL SUB AND DUP2 MSTORE PUSH1 0x20 ADD TIMESTAMP PUSH1 0x1 PUSH1 0x1 PUSH1 0x40 SHL SUB AND DUP2 MSTORE PUSH1 0x20 ADD DUP5 PUSH1 0x60 ADD MLOAD PUSH1 0x1 PUSH1 0x1 PUSH1 0xA0 SHL SUB AND DUP2 MSTORE PUSH1 0x20 ADD CALLER PUSH1 0x1 PUSH1 0x1 PUSH1 0xA0 SHL SUB AND DUP2 MSTORE POP SWAP1 POP SWAP3 SWAP2 POP POP JUMP JUMPDEST PUSH1 0x40 DUP1 MLOAD PUSH1 0x60 DUP2 ADD DUP3 MSTORE PUSH1 0x0 DUP1 DUP3 MSTORE PUSH1 0x20 DUP3 ADD DUP2 SWAP1 MSTORE SWAP2 DUP2 ADD SWAP2 SWAP1 SWAP2 MSTORE PUSH1 0x40 DUP1 MLOAD PUSH1 0x60 DUP2 ADD DUP3 MSTORE PUSH1 0x1 PUSH1 0x1 PUSH1 0xA0 SHL SUB DUP1 DUP7 AND DUP1 DUP4 MSTORE SWAP3 MLOAD PUSH4 0x47E332DF PUSH1 0xE1 SHL DUP2 MSTORE PUSH1 0x4 DUP2 ADD SWAP4 SWAP1 SWAP4 MSTORE PUSH32 0x0 AND PUSH1 0x24 DUP4 ADD MSTORE SWAP1 PUSH1 0x20 DUP3 ADD SWAP1 PUSH20 0x0 SWAP1 PUSH4 0x8FC665BE SWAP1 PUSH1 0x44 ADD PUSH1 0x20 PUSH1 0x40 MLOAD DUP1 DUP4 SUB DUP2 DUP7 DUP1 EXTCODESIZE ISZERO DUP1 ISZERO PUSH2 0x272C JUMPI PUSH1 0x0 DUP1 REVERT JUMPDEST POP GAS DELEGATECALL ISZERO DUP1 ISZERO PUSH2 0x2740 JUMPI RETURNDATASIZE PUSH1 0x0 DUP1 RETURNDATACOPY RETURNDATASIZE PUSH1 0x0 REVERT JUMPDEST POP POP POP POP PUSH1 0x40 MLOAD RETURNDATASIZE PUSH1 0x1F NOT PUSH1 0x1F DUP3 ADD AND DUP3 ADD DUP1 PUSH1 0x40 MSTORE POP DUP2 ADD SWAP1 PUSH2 0x2764 SWAP2 SWAP1 PUSH2 0x41BF JUMP JUMPDEST PUSH2 0xFFFF AND DUP2 MSTORE PUSH1 0x20 ADD DUP4 PUSH2 0xFFFF AND DUP2 MSTORE POP SWAP1 POP SWAP3 SWAP2 POP POP JUMP JUMPDEST PUSH1 0x40 DUP1 DUP3 ADD MLOAD PUSH1 0x1 PUSH1 0x1 PUSH1 0xA0 SHL SUB AND PUSH1 0x0 SWAP1 DUP2 MSTORE PUSH1 0x8 PUSH1 0x20 SWAP1 DUP2 MSTORE DUP3 DUP3 KECCAK256 DUP5 MLOAD DUP4 MSTORE SWAP1 MSTORE KECCAK256 SLOAD PUSH1 0xFF AND ISZERO PUSH2 0x27EA JUMPI PUSH1 0x40 MLOAD PUSH3 0x461BCD PUSH1 0xE5 SHL DUP2 MSTORE PUSH1 0x20 PUSH1 0x4 DUP3 ADD MSTORE PUSH1 0x14 PUSH1 0x24 DUP3 ADD MSTORE PUSH20 0x13195B99195C881B9BDB98D9481A5B9D985B1A59 PUSH1 0x62 SHL PUSH1 0x44 DUP3 ADD MSTORE PUSH1 0x64 ADD PUSH2 0x6B7 JUMP JUMPDEST PUSH1 0x40 DUP1 DUP3 ADD MLOAD PUSH1 0x1 PUSH1 0x1 PUSH1 0xA0 SHL SUB AND PUSH1 0x0 SWAP1 DUP2 MSTORE PUSH1 0x8 PUSH1 0x20 SWAP1 DUP2 MSTORE DUP3 DUP3 KECCAK256 DUP5 MLOAD DUP4 MSTORE SWAP1 MSTORE DUP2 SWAP1 KECCAK256 DUP1 SLOAD PUSH1 0xFF NOT AND PUSH1 0x1 OR SWAP1 SSTORE MLOAD PUSH4 0xEB2AC63F PUSH1 0xE0 SHL DUP2 MSTORE PUSH20 0x0 SWAP1 PUSH4 0xEB2AC63F SWAP1 PUSH2 0x2853 SWAP1 DUP6 SWAP1 DUP6 SWAP1 PUSH1 0x4 ADD PUSH2 0x4700 JUMP JUMPDEST PUSH1 0x20 PUSH1 0x40 MLOAD DUP1 DUP4 SUB DUP2 DUP7 DUP1 EXTCODESIZE ISZERO DUP1 ISZERO PUSH2 0x286B JUMPI PUSH1 0x0 DUP1 REVERT JUMPDEST POP GAS DELEGATECALL ISZERO DUP1 ISZERO PUSH2 0x287F JUMPI RETURNDATASIZE PUSH1 0x0 DUP1 RETURNDATACOPY RETURNDATASIZE PUSH1 0x0 REVERT JUMPDEST POP POP POP POP PUSH1 0x40 MLOAD RETURNDATASIZE PUSH1 0x1F NOT PUSH1 0x1F DUP3 ADD AND DUP3 ADD DUP1 PUSH1 0x40 MSTORE POP DUP2 ADD SWAP1 PUSH2 0x28A3 SWAP2 SWAP1 PUSH2 0x4006 JUMP JUMPDEST PUSH2 0x28ED JUMPI PUSH1 0x40 MLOAD PUSH3 0x461BCD PUSH1 0xE5 SHL DUP2 MSTORE PUSH1 0x20 PUSH1 0x4 DUP3 ADD MSTORE PUSH1 0x1B PUSH1 0x24 DUP3 ADD MSTORE PUSH27 0x13195B99195C881CDA59DB985D1D5C99481A5CC81A5B9D985B1A59 PUSH1 0x2A SHL PUSH1 0x44 DUP3 ADD MSTORE PUSH1 0x64 ADD PUSH2 0x6B7 JUMP JUMPDEST PUSH1 0x40 MLOAD PUSH4 0x1C2D8FB3 PUSH1 0xE3 SHL DUP2 MSTORE PUSH13 0x27232A2324AFA12AA7222622A9 PUSH1 0x99 SHL PUSH1 0x4 DUP3 ADD MSTORE PUSH1 0x0 SWAP1 PUSH32 0x0 PUSH1 0x1 PUSH1 0x1 PUSH1 0xA0 SHL SUB AND SWAP1 PUSH4 0xE16C7D98 SWAP1 PUSH1 0x24 ADD PUSH1 0x20 PUSH1 0x40 MLOAD DUP1 DUP4 SUB DUP2 DUP7 DUP1 EXTCODESIZE ISZERO DUP1 ISZERO PUSH2 0x295F JUMPI PUSH1 0x0 DUP1 REVERT JUMPDEST POP GAS STATICCALL ISZERO DUP1 ISZERO PUSH2 0x2973 JUMPI RETURNDATASIZE PUSH1 0x0 DUP1 RETURNDATACOPY RETURNDATASIZE PUSH1 0x0 REVERT JUMPDEST POP POP POP POP PUSH1 0x40 MLOAD RETURNDATASIZE PUSH1 0x1F NOT PUSH1 0x1F DUP3 ADD AND DUP3 ADD DUP1 PUSH1 0x40 MSTORE POP DUP2 ADD SWAP1 PUSH2 0x2997 SWAP2 SWAP1 PUSH2 0x3C60 JUMP JUMPDEST SWAP1 POP DUP1 PUSH1 0x1 PUSH1 0x1 PUSH1 0xA0 SHL SUB AND DUP6 PUSH2 0x120 ADD MLOAD PUSH1 0x1 PUSH1 0x1 PUSH1 0xA0 SHL SUB AND EQ ISZERO PUSH2 0x29FE JUMPI PUSH1 0x40 MLOAD PUSH3 0x461BCD PUSH1 0xE5 SHL DUP2 MSTORE PUSH1 0x20 PUSH1 0x4 DUP3 ADD MSTORE PUSH1 0x1B PUSH1 0x24 DUP3 ADD MSTORE PUSH27 0x436F6C6C61746572616C2063616E6E6F742062652062756E646C65 PUSH1 0x28 SHL PUSH1 0x44 DUP3 ADD MSTORE PUSH1 0x64 ADD PUSH2 0x6B7 JUMP JUMPDEST PUSH1 0x0 PUSH2 0x2A1D PUSH2 0x2A0B PUSH2 0x110C JUMP JUMPDEST DUP8 DUP8 CALLER DUP8 PUSH1 0x40 ADD MLOAD DUP10 PUSH1 0xE0 ADD MLOAD PUSH2 0x32A2 JUMP JUMPDEST SWAP1 POP DUP3 PUSH1 0x40 ADD MLOAD PUSH1 0x1 PUSH1 0x1 PUSH1 0xA0 SHL SUB AND CALLER PUSH1 0x1 PUSH1 0x1 PUSH1 0xA0 SHL SUB AND DUP3 PUSH4 0xFFFFFFFF AND PUSH32 0x42CC7F53EF7B494C5DD6F0095175F7D07B5D3D7B2A03F34389FEA445BA4A3A8B DUP10 DUP10 PUSH1 0x40 MLOAD PUSH2 0x2A6F SWAP3 SWAP2 SWAP1 PUSH2 0x45B3 JUMP JUMPDEST PUSH1 0x40 MLOAD DUP1 SWAP2 SUB SWAP1 LOG4 POP POP POP POP POP POP JUMP JUMPDEST PUSH1 0x1 PUSH1 0x1 PUSH1 0xA0 SHL SUB DUP3 AND PUSH2 0x2ACD JUMPI PUSH1 0x40 MLOAD PUSH3 0x461BCD PUSH1 0xE5 SHL DUP2 MSTORE PUSH1 0x20 PUSH1 0x4 DUP3 ADD MSTORE PUSH1 0x15 PUSH1 0x24 DUP3 ADD MSTORE PUSH21 0x6572633230206973207A65726F2061646472657373 PUSH1 0x58 SHL PUSH1 0x44 DUP3 ADD MSTORE PUSH1 0x64 ADD PUSH2 0x6B7 JUMP JUMPDEST PUSH1 0x1 PUSH1 0x1 PUSH1 0xA0 SHL SUB DUP3 AND PUSH1 0x0 DUP2 DUP2 MSTORE PUSH1 0x9 PUSH1 0x20 SWAP1 DUP2 MSTORE PUSH1 0x40 SWAP2 DUP3 SWAP1 KECCAK256 DUP1 SLOAD PUSH1 0xFF NOT AND DUP6 ISZERO ISZERO SWAP1 DUP2 OR SWAP1 SWAP2 SSTORE SWAP2 MLOAD SWAP2 DUP3 MSTORE PUSH32 0xF100355BE652ECC881568750E6A98C0713E4316F75D5314EBC9039E0ACB52F24 SWAP2 ADD PUSH1 0x40 MLOAD DUP1 SWAP2 SUB SWAP1 LOG2 POP POP JUMP JUMPDEST PUSH2 0x2B34 PUSH2 0x21E1 JUMP JUMPDEST PUSH1 0x0 DUP1 SLOAD PUSH1 0xFF PUSH1 0xA0 SHL NOT AND PUSH1 0x1 PUSH1 0xA0 SHL OR SWAP1 SSTORE PUSH32 0x62E78CEA01BEE320CD4E420270B5EA74000D11B0C9F74754EBDBFC544B05A258 PUSH2 0x21CA CALLER SWAP1 JUMP JUMPDEST PUSH4 0xFFFFFFFF DUP8 AND PUSH1 0x0 SWAP1 DUP2 MSTORE PUSH1 0x4 PUSH1 0x20 DUP2 SWAP1 MSTORE PUSH1 0x40 DUP1 DUP4 KECCAK256 SWAP1 MLOAD PUSH4 0xB5EC5263 PUSH1 0xE0 SHL DUP2 MSTORE SWAP1 SWAP3 SWAP2 DUP3 SWAP2 PUSH20 0x0 SWAP2 PUSH4 0xB5EC5263 SWAP2 PUSH2 0x2BEA SWAP2 DUP8 SWAP2 DUP16 SWAP2 DUP16 SWAP2 DUP16 SWAP2 DUP15 SWAP2 PUSH32 0x0 SWAP2 ADD PUSH2 0x45F9 JUMP JUMPDEST PUSH1 0x40 DUP1 MLOAD DUP1 DUP4 SUB DUP2 DUP7 DUP1 EXTCODESIZE ISZERO DUP1 ISZERO PUSH2 0x2C01 JUMPI PUSH1 0x0 DUP1 REVERT JUMPDEST POP GAS DELEGATECALL ISZERO DUP1 ISZERO PUSH2 0x2C15 JUMPI RETURNDATASIZE PUSH1 0x0 DUP1 RETURNDATACOPY RETURNDATASIZE PUSH1 0x0 REVERT JUMPDEST POP POP POP POP PUSH1 0x40 MLOAD RETURNDATASIZE PUSH1 0x1F NOT PUSH1 0x1F DUP3 ADD AND DUP3 ADD DUP1 PUSH1 0x40 MSTORE POP DUP2 ADD SWAP1 PUSH2 0x2C39 SWAP2 SWAP1 PUSH2 0x3CB4 JUMP JUMPDEST PUSH1 0x1 PUSH1 0x1 PUSH1 0xA0 SHL SUB DUP2 AND PUSH1 0x0 DUP2 DUP2 MSTORE PUSH1 0x8 PUSH1 0x20 SWAP1 DUP2 MSTORE PUSH1 0x40 DUP1 DUP4 KECCAK256 DUP13 DUP5 MSTORE DUP3 MSTORE SWAP2 DUP3 SWAP1 KECCAK256 DUP1 SLOAD PUSH1 0xFF NOT AND PUSH1 0x1 OR SWAP1 SSTORE DUP2 MLOAD PUSH1 0x80 DUP2 ADD DUP4 MSTORE DUP12 DUP2 MSTORE SWAP1 DUP2 ADD DUP11 SWAP1 MSTORE DUP1 DUP3 ADD SWAP3 SWAP1 SWAP3 MSTORE PUSH1 0x60 DUP3 ADD DUP9 SWAP1 MSTORE MLOAD PUSH4 0xD06FF741 PUSH1 0xE0 SHL DUP2 MSTORE SWAP3 SWAP5 POP SWAP1 SWAP3 POP PUSH20 0x0 SWAP2 PUSH4 0xD06FF741 SWAP2 PUSH2 0x2CC8 SWAP2 DUP15 SWAP2 DUP15 SWAP2 DUP15 SWAP2 DUP15 SWAP2 PUSH1 0x4 ADD PUSH2 0x4845 JUMP JUMPDEST PUSH1 0x20 PUSH1 0x40 MLOAD DUP1 DUP4 SUB DUP2 DUP7 DUP1 EXTCODESIZE ISZERO DUP1 ISZERO PUSH2 0x2CE0 JUMPI PUSH1 0x0 DUP1 REVERT JUMPDEST POP GAS DELEGATECALL ISZERO DUP1 ISZERO PUSH2 0x2CF4 JUMPI RETURNDATASIZE PUSH1 0x0 DUP1 RETURNDATACOPY RETURNDATASIZE PUSH1 0x0 REVERT JUMPDEST POP POP POP POP PUSH1 0x40 MLOAD RETURNDATASIZE PUSH1 0x1F NOT PUSH1 0x1F DUP3 ADD AND DUP3 ADD DUP1 PUSH1 0x40 MSTORE POP DUP2 ADD SWAP1 PUSH2 0x2D18 SWAP2 SWAP1 PUSH2 0x4006 JUMP JUMPDEST PUSH2 0x2D6F JUMPI PUSH1 0x40 MLOAD PUSH3 0x461BCD PUSH1 0xE5 SHL DUP2 MSTORE PUSH1 0x20 PUSH1 0x4 DUP3 ADD MSTORE PUSH1 0x22 PUSH1 0x24 DUP3 ADD MSTORE PUSH32 0x52656E65676F74696174696F6E207369676E617475726520697320696E76616C PUSH1 0x44 DUP3 ADD MSTORE PUSH2 0x1A59 PUSH1 0xF2 SHL PUSH1 0x64 DUP3 ADD MSTORE PUSH1 0x84 ADD PUSH2 0x6B7 JUMP JUMPDEST PUSH1 0x0 DUP8 ISZERO PUSH2 0x2E59 JUMPI PUSH1 0x3 DUP5 ADD SLOAD PUSH1 0x40 MLOAD PUSH4 0x2AD659AF PUSH1 0xE0 SHL DUP2 MSTORE PUSH1 0x4 DUP2 ADD DUP11 SWAP1 MSTORE PUSH1 0x1 PUSH1 0xD0 SHL SWAP1 SWAP2 DIV PUSH2 0xFFFF AND PUSH1 0x24 DUP3 ADD MSTORE PUSH20 0x0 SWAP1 PUSH4 0x2AD659AF SWAP1 PUSH1 0x44 ADD PUSH1 0x20 PUSH1 0x40 MLOAD DUP1 DUP4 SUB DUP2 DUP7 DUP1 EXTCODESIZE ISZERO DUP1 ISZERO PUSH2 0x2DD8 JUMPI PUSH1 0x0 DUP1 REVERT JUMPDEST POP GAS DELEGATECALL ISZERO DUP1 ISZERO PUSH2 0x2DEC JUMPI RETURNDATASIZE PUSH1 0x0 DUP1 RETURNDATACOPY RETURNDATASIZE PUSH1 0x0 REVERT JUMPDEST POP POP POP POP PUSH1 0x40 MLOAD RETURNDATASIZE PUSH1 0x1F NOT PUSH1 0x1F DUP3 ADD AND DUP3 ADD DUP1 PUSH1 0x40 MSTORE POP DUP2 ADD SWAP1 PUSH2 0x2E10 SWAP2 SWAP1 PUSH2 0x41F3 JUMP JUMPDEST SWAP1 POP PUSH2 0x2E37 DUP4 DUP4 PUSH2 0x2E21 DUP5 DUP13 PUSH2 0x490E JUMP JUMPDEST PUSH1 0x3 DUP9 ADD SLOAD PUSH1 0x1 PUSH1 0x1 PUSH1 0xA0 SHL SUB AND SWAP3 SWAP2 SWAP1 PUSH2 0x30D9 JUMP JUMPDEST PUSH2 0x2E59 DUP4 PUSH2 0x2E43 PUSH2 0x12D1 JUMP JUMPDEST PUSH1 0x3 DUP8 ADD SLOAD PUSH1 0x1 PUSH1 0x1 PUSH1 0xA0 SHL SUB AND SWAP2 SWAP1 DUP5 PUSH2 0x30D9 JUMP JUMPDEST PUSH1 0x3 DUP5 ADD DUP1 SLOAD PUSH4 0xFFFFFFFF PUSH1 0xA0 SHL NOT AND PUSH1 0x1 PUSH1 0xA0 SHL PUSH4 0xFFFFFFFF DUP14 DUP2 AND SWAP2 DUP3 MUL SWAP3 SWAP1 SWAP3 OR SWAP1 SWAP3 SSTORE PUSH1 0x1 DUP7 ADD DUP12 SWAP1 SSTORE PUSH1 0x40 DUP1 MLOAD SWAP3 DUP4 MSTORE PUSH1 0x20 DUP4 ADD DUP13 SWAP1 MSTORE DUP3 ADD DUP11 SWAP1 MSTORE PUSH1 0x60 DUP3 ADD DUP4 SWAP1 MSTORE PUSH1 0x1 PUSH1 0x1 PUSH1 0xA0 SHL SUB DUP5 DUP2 AND SWAP3 SWAP1 DUP7 AND SWAP2 DUP15 AND SWAP1 PUSH32 0x37357BED780FDA5AED28C32FE9CD762CB2F2F8A70C0D9B342ABA59C945943CA0 SWAP1 PUSH1 0x80 ADD PUSH1 0x40 MLOAD DUP1 SWAP2 SUB SWAP1 LOG4 POP POP POP POP POP POP POP POP POP POP POP JUMP JUMPDEST PUSH1 0x0 DUP1 SLOAD PUSH1 0x1 PUSH1 0x1 PUSH1 0xA0 SHL SUB DUP4 DUP2 AND PUSH1 0x1 PUSH1 0x1 PUSH1 0xA0 SHL SUB NOT DUP4 AND DUP2 OR DUP5 SSTORE PUSH1 0x40 MLOAD SWAP2 SWAP1 SWAP3 AND SWAP3 DUP4 SWAP2 PUSH32 0x8BE0079C531659141344CD1FD0A4F28419497F9722A3DAAFE3B4186F6B6457E0 SWAP2 SWAP1 LOG3 POP POP JUMP JUMPDEST PUSH1 0x0 PUSH2 0x2F93 DUP3 PUSH1 0x40 MLOAD DUP1 PUSH1 0x40 ADD PUSH1 0x40 MSTORE DUP1 PUSH1 0x20 DUP2 MSTORE PUSH1 0x20 ADD PUSH32 0x5361666545524332303A206C6F772D6C6576656C2063616C6C206661696C6564 DUP2 MSTORE POP DUP6 PUSH1 0x1 PUSH1 0x1 PUSH1 0xA0 SHL SUB AND PUSH2 0x32C8 SWAP1 SWAP3 SWAP2 SWAP1 PUSH4 0xFFFFFFFF AND JUMP JUMPDEST DUP1 MLOAD SWAP1 SWAP2 POP ISZERO PUSH2 0xED1 JUMPI DUP1 DUP1 PUSH1 0x20 ADD SWAP1 MLOAD DUP2 ADD SWAP1 PUSH2 0x2FB1 SWAP2 SWAP1 PUSH2 0x4006 JUMP JUMPDEST PUSH2 0xED1 JUMPI PUSH1 0x40 MLOAD PUSH3 0x461BCD PUSH1 0xE5 SHL DUP2 MSTORE PUSH1 0x20 PUSH1 0x4 DUP3 ADD MSTORE PUSH1 0x2A PUSH1 0x24 DUP3 ADD MSTORE PUSH32 0x5361666545524332303A204552433230206F7065726174696F6E20646964206E PUSH1 0x44 DUP3 ADD MSTORE PUSH10 0x1BDD081CDD58D8D95959 PUSH1 0xB2 SHL PUSH1 0x64 DUP3 ADD MSTORE PUSH1 0x84 ADD PUSH2 0x6B7 JUMP JUMPDEST PUSH1 0x0 DUP1 PUSH1 0x0 DUP4 PUSH1 0x0 ADD MLOAD DUP5 PUSH1 0x20 ADD MLOAD PUSH2 0x3029 SWAP2 SWAP1 PUSH2 0x490E JUMP JUMPDEST PUSH1 0xC0 DUP6 ADD MLOAD PUSH1 0x40 MLOAD PUSH4 0x2AD659AF PUSH1 0xE0 SHL DUP2 MSTORE PUSH1 0x4 DUP2 ADD DUP4 SWAP1 MSTORE PUSH2 0xFFFF SWAP1 SWAP2 AND PUSH1 0x24 DUP3 ADD MSTORE SWAP1 SWAP2 POP PUSH20 0x0 SWAP1 PUSH4 0x2AD659AF SWAP1 PUSH1 0x44 ADD PUSH1 0x20 PUSH1 0x40 MLOAD DUP1 DUP4 SUB DUP2 DUP7 DUP1 EXTCODESIZE ISZERO DUP1 ISZERO PUSH2 0x3087 JUMPI PUSH1 0x0 DUP1 REVERT JUMPDEST POP GAS DELEGATECALL ISZERO DUP1 ISZERO PUSH2 0x309B JUMPI RETURNDATASIZE PUSH1 0x0 DUP1 RETURNDATACOPY RETURNDATASIZE PUSH1 0x0 REVERT JUMPDEST POP POP POP POP PUSH1 0x40 MLOAD RETURNDATASIZE PUSH1 0x1F NOT PUSH1 0x1F DUP3 ADD AND DUP3 ADD DUP1 PUSH1 0x40 MSTORE POP DUP2 ADD SWAP1 PUSH2 0x30BF SWAP2 SWAP1 PUSH2 0x41F3 JUMP JUMPDEST SWAP3 POP DUP3 DUP5 PUSH1 0x20 ADD MLOAD PUSH2 0x30D1 SWAP2 SWAP1 PUSH2 0x490E JUMP JUMPDEST SWAP2 POP POP SWAP2 POP SWAP2 JUMP JUMPDEST PUSH2 0x799 DUP5 PUSH4 0x23B872DD PUSH1 0xE0 SHL DUP6 DUP6 DUP6 PUSH1 0x40 MLOAD PUSH1 0x24 ADD PUSH2 0x1AC1 SWAP4 SWAP3 SWAP2 SWAP1 PUSH2 0x44CA JUMP JUMPDEST PUSH4 0xFFFFFFFF DUP4 AND PUSH1 0x0 SWAP1 DUP2 MSTORE PUSH1 0x6 PUSH1 0x20 SWAP1 DUP2 MSTORE PUSH1 0x40 DUP1 DUP4 KECCAK256 DUP1 SLOAD PUSH1 0xFF NOT AND PUSH1 0x1 SWAP1 DUP2 OR SWAP1 SWAP2 SSTORE PUSH2 0x120 DUP7 ADD MLOAD PUSH1 0x1 PUSH1 0x1 PUSH1 0xA0 SHL SUB AND DUP5 MSTORE PUSH1 0x7 DUP4 MSTORE DUP2 DUP5 KECCAK256 DUP7 DUP4 ADD MLOAD DUP6 MSTORE SWAP1 SWAP3 MSTORE DUP3 KECCAK256 DUP1 SLOAD SWAP2 SWAP3 SWAP1 SWAP2 PUSH2 0x3154 SWAP1 DUP5 SWAP1 PUSH2 0x490E JUMP JUMPDEST SWAP1 SWAP2 SSTORE POP POP PUSH1 0x40 MLOAD PUSH4 0x490B1F53 PUSH1 0xE1 SHL DUP2 MSTORE PUSH4 0xFFFFFFFF DUP5 AND PUSH1 0x4 DUP3 ADD MSTORE PUSH1 0x1 PUSH1 0x1 PUSH1 0xA0 SHL SUB DUP3 AND SWAP1 PUSH4 0x92163EA6 SWAP1 PUSH1 0x24 ADD PUSH1 0x0 PUSH1 0x40 MLOAD DUP1 DUP4 SUB DUP2 PUSH1 0x0 DUP8 DUP1 EXTCODESIZE ISZERO DUP1 ISZERO PUSH2 0x31A0 JUMPI PUSH1 0x0 DUP1 REVERT JUMPDEST POP GAS CALL ISZERO DUP1 ISZERO PUSH2 0x1541 JUMPI RETURNDATASIZE PUSH1 0x0 DUP1 RETURNDATACOPY RETURNDATASIZE PUSH1 0x0 REVERT JUMPDEST PUSH1 0xE0 DUP4 ADD MLOAD PUSH2 0x120 DUP5 ADD MLOAD PUSH1 0x40 DUP1 DUP7 ADD MLOAD DUP2 MLOAD PUSH1 0x1 PUSH1 0x1 PUSH1 0xA0 SHL SUB DUP8 DUP2 AND PUSH1 0x24 DUP4 ADD MSTORE DUP7 DUP2 AND PUSH1 0x44 DUP4 ADD MSTORE SWAP1 SWAP4 AND PUSH1 0x64 DUP5 ADD MSTORE PUSH1 0x84 DUP1 DUP5 ADD SWAP2 SWAP1 SWAP2 MSTORE DUP2 MLOAD DUP1 DUP5 SUB SWAP1 SWAP2 ADD DUP2 MSTORE PUSH1 0xA4 SWAP1 SWAP3 ADD DUP2 MSTORE PUSH1 0x20 DUP1 DUP4 ADD DUP1 MLOAD PUSH1 0x1 PUSH1 0x1 PUSH1 0xE0 SHL SUB AND PUSH4 0xB0306671 PUSH1 0xE0 SHL OR SWAP1 MSTORE DUP2 MLOAD DUP1 DUP4 ADD SWAP1 SWAP3 MSTORE DUP1 DUP3 MSTORE PUSH32 0x4E4654206E6F74207375636365737366756C6C79207472616E73666572726564 SWAP1 DUP3 ADD MSTORE PUSH2 0x799 SWAP3 SWAP2 SWAP1 PUSH2 0x32D7 JUMP JUMPDEST PUSH2 0x325F PUSH2 0x10FC JUMP JUMPDEST PUSH2 0xC2A JUMPI PUSH1 0x40 MLOAD PUSH3 0x461BCD PUSH1 0xE5 SHL DUP2 MSTORE PUSH1 0x20 PUSH1 0x4 DUP3 ADD MSTORE PUSH1 0x14 PUSH1 0x24 DUP3 ADD MSTORE PUSH20 0x14185D5CD8589B194E881B9BDD081C185D5CD959 PUSH1 0x62 SHL PUSH1 0x44 DUP3 ADD MSTORE PUSH1 0x64 ADD PUSH2 0x6B7 JUMP JUMPDEST PUSH1 0x0 PUSH2 0x32AF DUP7 DUP6 ADDRESS PUSH2 0x31B4 JUMP JUMPDEST PUSH2 0x32BD DUP8 DUP8 DUP8 DUP8 DUP8 DUP8 PUSH2 0x334F JUMP JUMPDEST SWAP8 SWAP7 POP POP POP POP POP POP POP JUMP JUMPDEST PUSH1 0x60 PUSH2 0x7A8 DUP5 DUP5 PUSH1 0x0 DUP6 PUSH2 0x37FC JUMP JUMPDEST PUSH1 0x60 PUSH1 0x0 DUP1 DUP6 PUSH1 0x1 PUSH1 0x1 PUSH1 0xA0 SHL SUB AND DUP6 PUSH1 0x40 MLOAD PUSH2 0x32F4 SWAP2 SWAP1 PUSH2 0x449A JUMP JUMPDEST PUSH1 0x0 PUSH1 0x40 MLOAD DUP1 DUP4 SUB DUP2 DUP6 GAS DELEGATECALL SWAP2 POP POP RETURNDATASIZE DUP1 PUSH1 0x0 DUP2 EQ PUSH2 0x332F JUMPI PUSH1 0x40 MLOAD SWAP2 POP PUSH1 0x1F NOT PUSH1 0x3F RETURNDATASIZE ADD AND DUP3 ADD PUSH1 0x40 MSTORE RETURNDATASIZE DUP3 MSTORE RETURNDATASIZE PUSH1 0x0 PUSH1 0x20 DUP5 ADD RETURNDATACOPY PUSH2 0x3334 JUMP JUMPDEST PUSH1 0x60 SWAP2 POP JUMPDEST POP SWAP2 POP SWAP2 POP PUSH2 0x3345 DUP7 DUP4 DUP4 DUP8 PUSH2 0x38C8 JUMP JUMPDEST SWAP7 SWAP6 POP POP POP POP POP POP JUMP JUMPDEST PUSH2 0x120 DUP6 ADD MLOAD PUSH1 0x1 PUSH1 0x1 PUSH1 0xA0 SHL SUB AND PUSH1 0x0 SWAP1 DUP2 MSTORE PUSH1 0x7 PUSH1 0x20 SWAP1 DUP2 MSTORE PUSH1 0x40 DUP1 DUP4 KECCAK256 DUP2 DUP10 ADD MLOAD DUP5 MSTORE SWAP1 SWAP2 MSTORE DUP2 KECCAK256 DUP1 SLOAD PUSH1 0x1 SWAP2 SWAP1 DUP4 SWAP1 PUSH2 0x338D SWAP1 DUP5 SWAP1 PUSH2 0x48F6 JUMP JUMPDEST SWAP1 SWAP2 SSTORE POP POP DUP6 MLOAD PUSH1 0x40 DUP7 DUP2 ADD MLOAD SWAP1 MLOAD PUSH4 0x7B2392F1 PUSH1 0xE0 SHL DUP2 MSTORE PUSH1 0x4 DUP2 ADD SWAP3 SWAP1 SWAP3 MSTORE PUSH2 0xFFFF AND PUSH1 0x24 DUP3 ADD MSTORE PUSH1 0x1 PUSH1 0x1 PUSH1 0xA0 SHL SUB DUP4 AND PUSH1 0x44 DUP3 ADD MSTORE PUSH1 0x0 SWAP1 PUSH20 0x0 SWAP1 PUSH4 0x7B2392F1 SWAP1 PUSH1 0x64 ADD PUSH1 0x20 PUSH1 0x40 MLOAD DUP1 DUP4 SUB DUP2 DUP7 DUP1 EXTCODESIZE ISZERO DUP1 ISZERO PUSH2 0x3400 JUMPI PUSH1 0x0 DUP1 REVERT JUMPDEST POP GAS DELEGATECALL ISZERO DUP1 ISZERO PUSH2 0x3414 JUMPI RETURNDATASIZE PUSH1 0x0 DUP1 RETURNDATACOPY RETURNDATASIZE PUSH1 0x0 REVERT JUMPDEST POP POP POP POP PUSH1 0x40 MLOAD RETURNDATASIZE PUSH1 0x1F NOT PUSH1 0x1F DUP3 ADD AND DUP3 ADD DUP1 PUSH1 0x40 MSTORE POP DUP2 ADD SWAP1 PUSH2 0x3438 SWAP2 SWAP1 PUSH2 0x41F3 JUMP JUMPDEST SWAP1 POP PUSH1 0x0 DUP2 DUP9 PUSH1 0x0 ADD MLOAD PUSH2 0x344C SWAP2 SWAP1 PUSH2 0x490E JUMP JUMPDEST SWAP1 POP DUP2 ISZERO PUSH2 0x346E JUMPI PUSH1 0x60 DUP9 ADD MLOAD PUSH2 0x346E SWAP1 PUSH1 0x1 PUSH1 0x1 PUSH1 0xA0 SHL SUB AND DUP7 DUP7 DUP6 PUSH2 0x30D9 JUMP JUMPDEST PUSH1 0x60 DUP9 ADD MLOAD PUSH2 0x3488 SWAP1 PUSH1 0x1 PUSH1 0x1 PUSH1 0xA0 SHL SUB AND DUP7 DUP9 DUP5 PUSH2 0x30D9 JUMP JUMPDEST PUSH1 0x40 MLOAD PUSH4 0x1C2D8FB3 PUSH1 0xE3 SHL DUP2 MSTORE PUSH32 0x0 PUSH1 0x4 DUP3 ADD MSTORE PUSH1 0x0 SWAP1 PUSH32 0x0 PUSH1 0x1 PUSH1 0x1 PUSH1 0xA0 SHL SUB AND SWAP1 PUSH4 0xE16C7D98 SWAP1 PUSH1 0x24 ADD PUSH1 0x20 PUSH1 0x40 MLOAD DUP1 DUP4 SUB DUP2 DUP7 DUP1 EXTCODESIZE ISZERO DUP1 ISZERO PUSH2 0x350A JUMPI PUSH1 0x0 DUP1 REVERT JUMPDEST POP GAS STATICCALL ISZERO DUP1 ISZERO PUSH2 0x351E JUMPI RETURNDATASIZE PUSH1 0x0 DUP1 RETURNDATACOPY RETURNDATASIZE PUSH1 0x0 REVERT JUMPDEST POP POP POP POP PUSH1 0x40 MLOAD RETURNDATASIZE PUSH1 0x1F NOT PUSH1 0x1F DUP3 ADD AND DUP3 ADD DUP1 PUSH1 0x40 MSTORE POP DUP2 ADD SWAP1 PUSH2 0x3542 SWAP2 SWAP1 PUSH2 0x3C60 JUMP JUMPDEST PUSH1 0x40 MLOAD PUSH4 0xD1F76595 PUSH1 0xE0 SHL DUP2 MSTORE SWAP1 SWAP2 POP PUSH1 0x1 PUSH1 0x1 PUSH1 0xA0 SHL SUB DUP3 AND SWAP1 PUSH4 0xD1F76595 SWAP1 PUSH2 0x3573 SWAP1 DUP10 SWAP1 DUP15 SWAP1 PUSH1 0x4 ADD PUSH2 0x44EE JUMP JUMPDEST PUSH1 0x20 PUSH1 0x40 MLOAD DUP1 DUP4 SUB DUP2 PUSH1 0x0 DUP8 DUP1 EXTCODESIZE ISZERO DUP1 ISZERO PUSH2 0x358D JUMPI PUSH1 0x0 DUP1 REVERT JUMPDEST POP GAS CALL ISZERO DUP1 ISZERO PUSH2 0x35A1 JUMPI RETURNDATASIZE PUSH1 0x0 DUP1 RETURNDATACOPY RETURNDATASIZE PUSH1 0x0 REVERT JUMPDEST POP POP POP POP PUSH1 0x40 MLOAD RETURNDATASIZE PUSH1 0x1F NOT PUSH1 0x1F DUP3 ADD AND DUP3 ADD DUP1 PUSH1 0x40 MSTORE POP DUP2 ADD SWAP1 PUSH2 0x35C5 SWAP2 SWAP1 PUSH2 0x4227 JUMP JUMPDEST SWAP4 POP DUP9 PUSH1 0x4 PUSH1 0x0 DUP7 PUSH4 0xFFFFFFFF AND PUSH4 0xFFFFFFFF AND DUP2 MSTORE PUSH1 0x20 ADD SWAP1 DUP2 MSTORE PUSH1 0x20 ADD PUSH1 0x0 KECCAK256 PUSH1 0x0 DUP3 ADD MLOAD DUP2 PUSH1 0x0 ADD SSTORE PUSH1 0x20 DUP3 ADD MLOAD DUP2 PUSH1 0x1 ADD SSTORE PUSH1 0x40 DUP3 ADD MLOAD DUP2 PUSH1 0x2 ADD SSTORE PUSH1 0x60 DUP3 ADD MLOAD DUP2 PUSH1 0x3 ADD PUSH1 0x0 PUSH2 0x100 EXP DUP2 SLOAD DUP2 PUSH1 0x1 PUSH1 0x1 PUSH1 0xA0 SHL SUB MUL NOT AND SWAP1 DUP4 PUSH1 0x1 PUSH1 0x1 PUSH1 0xA0 SHL SUB AND MUL OR SWAP1 SSTORE POP PUSH1 0x80 DUP3 ADD MLOAD DUP2 PUSH1 0x3 ADD PUSH1 0x14 PUSH2 0x100 EXP DUP2 SLOAD DUP2 PUSH4 0xFFFFFFFF MUL NOT AND SWAP1 DUP4 PUSH4 0xFFFFFFFF AND MUL OR SWAP1 SSTORE POP PUSH1 0xA0 DUP3 ADD MLOAD DUP2 PUSH1 0x3 ADD PUSH1 0x18 PUSH2 0x100 EXP DUP2 SLOAD DUP2 PUSH2 0xFFFF MUL NOT AND SWAP1 DUP4 PUSH2 0xFFFF AND MUL OR SWAP1 SSTORE POP PUSH1 0xC0 DUP3 ADD MLOAD DUP2 PUSH1 0x3 ADD PUSH1 0x1A PUSH2 0x100 EXP DUP2 SLOAD DUP2 PUSH2 0xFFFF MUL NOT AND SWAP1 DUP4 PUSH2 0xFFFF AND MUL OR SWAP1 SSTORE POP PUSH1 0xE0 DUP3 ADD MLOAD DUP2 PUSH1 0x4 ADD PUSH1 0x0 PUSH2 0x100 EXP DUP2 SLOAD DUP2 PUSH1 0x1 PUSH1 0x1 PUSH1 0xA0 SHL SUB MUL NOT AND SWAP1 DUP4 PUSH1 0x1 PUSH1 0x1 PUSH1 0xA0 SHL SUB AND MUL OR SWAP1 SSTORE POP PUSH2 0x100 DUP3 ADD MLOAD DUP2 PUSH1 0x4 ADD PUSH1 0x14 PUSH2 0x100 EXP DUP2 SLOAD DUP2 PUSH1 0x1 PUSH1 0x1 PUSH1 0x40 SHL SUB MUL NOT AND SWAP1 DUP4 PUSH1 0x1 PUSH1 0x1 PUSH1 0x40 SHL SUB AND MUL OR SWAP1 SSTORE POP PUSH2 0x120 DUP3 ADD MLOAD DUP2 PUSH1 0x5 ADD PUSH1 0x0 PUSH2 0x100 EXP DUP2 SLOAD DUP2 PUSH1 0x1 PUSH1 0x1 PUSH1 0xA0 SHL SUB MUL NOT AND SWAP1 DUP4 PUSH1 0x1 PUSH1 0x1 PUSH1 0xA0 SHL SUB AND MUL OR SWAP1 SSTORE POP PUSH2 0x140 DUP3 ADD MLOAD DUP2 PUSH1 0x6 ADD PUSH1 0x0 PUSH2 0x100 EXP DUP2 SLOAD DUP2 PUSH1 0x1 PUSH1 0x1 PUSH1 0xA0 SHL SUB MUL NOT AND SWAP1 DUP4 PUSH1 0x1 PUSH1 0x1 PUSH1 0xA0 SHL SUB AND MUL OR SWAP1 SSTORE POP SWAP1 POP POP DUP8 PUSH1 0x5 PUSH1 0x0 DUP7 PUSH4 0xFFFFFFFF AND PUSH4 0xFFFFFFFF AND DUP2 MSTORE PUSH1 0x20 ADD SWAP1 DUP2 MSTORE PUSH1 0x20 ADD PUSH1 0x0 KECCAK256 PUSH1 0x0 DUP3 ADD MLOAD DUP2 PUSH1 0x0 ADD PUSH1 0x0 PUSH2 0x100 EXP DUP2 SLOAD DUP2 PUSH1 0x1 PUSH1 0x1 PUSH1 0xA0 SHL SUB MUL NOT AND SWAP1 DUP4 PUSH1 0x1 PUSH1 0x1 PUSH1 0xA0 SHL SUB AND MUL OR SWAP1 SSTORE POP PUSH1 0x20 DUP3 ADD MLOAD DUP2 PUSH1 0x0 ADD PUSH1 0x14 PUSH2 0x100 EXP DUP2 SLOAD DUP2 PUSH2 0xFFFF MUL NOT AND SWAP1 DUP4 PUSH2 0xFFFF AND MUL OR SWAP1 SSTORE POP PUSH1 0x40 DUP3 ADD MLOAD DUP2 PUSH1 0x0 ADD PUSH1 0x16 PUSH2 0x100 EXP DUP2 SLOAD DUP2 PUSH2 0xFFFF MUL NOT AND SWAP1 DUP4 PUSH2 0xFFFF AND MUL OR SWAP1 SSTORE POP SWAP1 POP POP POP POP POP SWAP7 SWAP6 POP POP POP POP POP POP JUMP JUMPDEST PUSH1 0x60 DUP3 SELFBALANCE LT ISZERO PUSH2 0x385D JUMPI PUSH1 0x40 MLOAD PUSH3 0x461BCD PUSH1 0xE5 SHL DUP2 MSTORE PUSH1 0x20 PUSH1 0x4 DUP3 ADD MSTORE PUSH1 0x26 PUSH1 0x24 DUP3 ADD MSTORE PUSH32 0x416464726573733A20696E73756666696369656E742062616C616E636520666F PUSH1 0x44 DUP3 ADD MSTORE PUSH6 0x1C8818D85B1B PUSH1 0xD2 SHL PUSH1 0x64 DUP3 ADD MSTORE PUSH1 0x84 ADD PUSH2 0x6B7 JUMP JUMPDEST PUSH1 0x0 DUP1 DUP7 PUSH1 0x1 PUSH1 0x1 PUSH1 0xA0 SHL SUB AND DUP6 DUP8 PUSH1 0x40 MLOAD PUSH2 0x3879 SWAP2 SWAP1 PUSH2 0x449A JUMP JUMPDEST PUSH1 0x0 PUSH1 0x40 MLOAD DUP1 DUP4 SUB DUP2 DUP6 DUP8 GAS CALL SWAP3 POP POP POP RETURNDATASIZE DUP1 PUSH1 0x0 DUP2 EQ PUSH2 0x38B6 JUMPI PUSH1 0x40 MLOAD SWAP2 POP PUSH1 0x1F NOT PUSH1 0x3F RETURNDATASIZE ADD AND DUP3 ADD PUSH1 0x40 MSTORE RETURNDATASIZE DUP3 MSTORE RETURNDATASIZE PUSH1 0x0 PUSH1 0x20 DUP5 ADD RETURNDATACOPY PUSH2 0x38BB JUMP JUMPDEST PUSH1 0x60 SWAP2 POP JUMPDEST POP SWAP2 POP SWAP2 POP PUSH2 0x32BD DUP8 DUP4 DUP4 DUP8 JUMPDEST PUSH1 0x60 DUP4 ISZERO PUSH2 0x3934 JUMPI DUP3 MLOAD PUSH2 0x392D JUMPI PUSH1 0x1 PUSH1 0x1 PUSH1 0xA0 SHL SUB DUP6 AND EXTCODESIZE PUSH2 0x392D JUMPI PUSH1 0x40 MLOAD PUSH3 0x461BCD PUSH1 0xE5 SHL DUP2 MSTORE PUSH1 0x20 PUSH1 0x4 DUP3 ADD MSTORE PUSH1 0x1D PUSH1 0x24 DUP3 ADD MSTORE PUSH32 0x416464726573733A2063616C6C20746F206E6F6E2D636F6E7472616374000000 PUSH1 0x44 DUP3 ADD MSTORE PUSH1 0x64 ADD PUSH2 0x6B7 JUMP JUMPDEST POP DUP2 PUSH2 0x7A8 JUMP JUMPDEST PUSH2 0x7A8 DUP4 DUP4 DUP2 MLOAD ISZERO PUSH2 0x3949 JUMPI DUP2 MLOAD DUP1 DUP4 PUSH1 0x20 ADD REVERT JUMPDEST DUP1 PUSH1 0x40 MLOAD PUSH3 0x461BCD PUSH1 0xE5 SHL DUP2 MSTORE PUSH1 0x4 ADD PUSH2 0x6B7 SWAP2 SWAP1 PUSH2 0x4507 JUMP JUMPDEST PUSH1 0x40 DUP1 MLOAD PUSH2 0x160 DUP2 ADD DUP3 MSTORE PUSH1 0x0 DUP1 DUP3 MSTORE PUSH1 0x20 DUP3 ADD DUP2 SWAP1 MSTORE SWAP2 DUP2 ADD DUP3 SWAP1 MSTORE PUSH1 0x60 DUP2 ADD DUP3 SWAP1 MSTORE PUSH1 0x80 DUP2 ADD DUP3 SWAP1 MSTORE PUSH1 0xA0 DUP2 ADD DUP3 SWAP1 MSTORE PUSH1 0xC0 DUP2 ADD DUP3 SWAP1 MSTORE PUSH1 0xE0 DUP2 ADD DUP3 SWAP1 MSTORE PUSH2 0x100 DUP2 ADD DUP3 SWAP1 MSTORE PUSH2 0x120 DUP2 ADD DUP3 SWAP1 MSTORE PUSH2 0x140 DUP2 ADD SWAP2 SWAP1 SWAP2 MSTORE SWAP1 JUMP JUMPDEST DUP1 CALLDATALOAD PUSH2 0x39CA DUP2 PUSH2 0x49A4 JUMP JUMPDEST SWAP2 SWAP1 POP JUMP JUMPDEST PUSH1 0x0 DUP3 PUSH1 0x1F DUP4 ADD SLT PUSH2 0x39DF JUMPI DUP1 DUP2 REVERT JUMPDEST DUP2 CALLDATALOAD PUSH1 0x20 PUSH2 0x39F4 PUSH2 0x39EF DUP4 PUSH2 0x48D3 JUMP JUMPDEST PUSH2 0x48A3 JUMP JUMPDEST DUP1 DUP4 DUP3 MSTORE DUP3 DUP3 ADD SWAP2 POP DUP3 DUP7 ADD DUP8 DUP5 DUP7 PUSH1 0x5 SHL DUP10 ADD ADD GT ISZERO PUSH2 0x3A13 JUMPI DUP6 DUP7 REVERT JUMPDEST DUP6 JUMPDEST DUP6 DUP2 LT ISZERO PUSH2 0x3A3A JUMPI DUP2 CALLDATALOAD PUSH2 0x3A28 DUP2 PUSH2 0x49B9 JUMP JUMPDEST DUP5 MSTORE SWAP3 DUP5 ADD SWAP3 SWAP1 DUP5 ADD SWAP1 PUSH1 0x1 ADD PUSH2 0x3A15 JUMP JUMPDEST POP SWAP1 SWAP8 SWAP7 POP POP POP POP POP POP POP JUMP JUMPDEST PUSH1 0x0 DUP1 DUP4 PUSH1 0x1F DUP5 ADD SLT PUSH2 0x3A58 JUMPI DUP2 DUP3 REVERT JUMPDEST POP DUP2 CALLDATALOAD PUSH1 0x1 PUSH1 0x1 PUSH1 0x40 SHL SUB DUP2 GT ISZERO PUSH2 0x3A6E JUMPI DUP2 DUP3 REVERT JUMPDEST PUSH1 0x20 DUP4 ADD SWAP2 POP DUP4 PUSH1 0x20 DUP3 PUSH1 0x5 SHL DUP6 ADD ADD GT ISZERO PUSH2 0x3A89 JUMPI PUSH1 0x0 DUP1 REVERT JUMPDEST SWAP3 POP SWAP3 SWAP1 POP JUMP JUMPDEST PUSH1 0x0 DUP1 DUP4 PUSH1 0x1F DUP5 ADD SLT PUSH2 0x3AA1 JUMPI DUP2 DUP3 REVERT JUMPDEST POP DUP2 CALLDATALOAD PUSH1 0x1 PUSH1 0x1 PUSH1 0x40 SHL SUB DUP2 GT ISZERO PUSH2 0x3AB7 JUMPI DUP2 DUP3 REVERT JUMPDEST PUSH1 0x20 DUP4 ADD SWAP2 POP DUP4 PUSH1 0x20 DUP3 DUP6 ADD ADD GT ISZERO PUSH2 0x3A89 JUMPI PUSH1 0x0 DUP1 REVERT JUMPDEST PUSH1 0x0 DUP3 PUSH1 0x1F DUP4 ADD SLT PUSH2 0x3ADF JUMPI DUP1 DUP2 REVERT JUMPDEST DUP2 CALLDATALOAD PUSH1 0x1 PUSH1 0x1 PUSH1 0x40 SHL SUB DUP2 GT ISZERO PUSH2 0x3AF8 JUMPI PUSH2 0x3AF8 PUSH2 0x498E JUMP JUMPDEST PUSH2 0x3B0B PUSH1 0x1F DUP3 ADD PUSH1 0x1F NOT AND PUSH1 0x20 ADD PUSH2 0x48A3 JUMP JUMPDEST DUP2 DUP2 MSTORE DUP5 PUSH1 0x20 DUP4 DUP7 ADD ADD GT ISZERO PUSH2 0x3B1F JUMPI DUP3 DUP4 REVERT JUMPDEST DUP2 PUSH1 0x20 DUP6 ADD PUSH1 0x20 DUP4 ADD CALLDATACOPY SWAP1 DUP2 ADD PUSH1 0x20 ADD SWAP2 SWAP1 SWAP2 MSTORE SWAP3 SWAP2 POP POP JUMP JUMPDEST PUSH1 0x0 PUSH1 0x40 DUP3 DUP5 SUB SLT ISZERO PUSH2 0x3B4A JUMPI DUP1 DUP2 REVERT JUMPDEST PUSH1 0x40 DUP1 MLOAD SWAP1 DUP2 ADD PUSH1 0x1 PUSH1 0x1 PUSH1 0x40 SHL SUB DUP2 GT DUP3 DUP3 LT OR ISZERO PUSH2 0x3B6C JUMPI PUSH2 0x3B6C PUSH2 0x498E JUMP JUMPDEST PUSH1 0x40 MSTORE SWAP1 POP DUP1 DUP3 CALLDATALOAD PUSH2 0x3B7D DUP2 PUSH2 0x49A4 JUMP JUMPDEST DUP2 MSTORE PUSH1 0x20 DUP4 ADD CALLDATALOAD PUSH2 0x3B8D DUP2 PUSH2 0x49C7 JUMP JUMPDEST PUSH1 0x20 SWAP2 SWAP1 SWAP2 ADD MSTORE SWAP3 SWAP2 POP POP JUMP JUMPDEST PUSH1 0x0 PUSH1 0x80 DUP3 DUP5 SUB SLT ISZERO PUSH2 0x3BAB JUMPI DUP1 DUP2 REVERT JUMPDEST PUSH1 0x40 MLOAD PUSH1 0x80 DUP2 ADD PUSH1 0x1 PUSH1 0x1 PUSH1 0x40 SHL SUB DUP1 DUP3 GT DUP4 DUP4 LT OR ISZERO PUSH2 0x3BCE JUMPI PUSH2 0x3BCE PUSH2 0x498E JUMP JUMPDEST DUP2 PUSH1 0x40 MSTORE DUP3 SWAP4 POP DUP5 CALLDATALOAD DUP4 MSTORE PUSH1 0x20 DUP6 ADD CALLDATALOAD PUSH1 0x20 DUP5 ADD MSTORE PUSH1 0x40 DUP6 ADD CALLDATALOAD SWAP2 POP PUSH2 0x3BF3 DUP3 PUSH2 0x49A4 JUMP JUMPDEST DUP2 PUSH1 0x40 DUP5 ADD MSTORE PUSH1 0x60 DUP6 ADD CALLDATALOAD SWAP2 POP DUP1 DUP3 GT ISZERO PUSH2 0x3C0D JUMPI PUSH1 0x0 DUP1 REVERT JUMPDEST POP PUSH2 0x3C1A DUP6 DUP3 DUP7 ADD PUSH2 0x3ACF JUMP JUMPDEST PUSH1 0x60 DUP4 ADD MSTORE POP POP SWAP3 SWAP2 POP POP JUMP JUMPDEST DUP1 CALLDATALOAD PUSH2 0x39CA DUP2 PUSH2 0x49C7 JUMP JUMPDEST DUP1 CALLDATALOAD PUSH2 0x39CA DUP2 PUSH2 0x49D7 JUMP JUMPDEST PUSH1 0x0 PUSH1 0x20 DUP3 DUP5 SUB SLT ISZERO PUSH2 0x3C4E JUMPI DUP1 DUP2 REVERT JUMPDEST DUP2 CALLDATALOAD PUSH2 0x3C59 DUP2 PUSH2 0x49A4 JUMP JUMPDEST SWAP4 SWAP3 POP POP POP JUMP JUMPDEST PUSH1 0x0 PUSH1 0x20 DUP3 DUP5 SUB SLT ISZERO PUSH2 0x3C71 JUMPI DUP1 DUP2 REVERT JUMPDEST DUP2 MLOAD PUSH2 0x3C59 DUP2 PUSH2 0x49A4 JUMP JUMPDEST PUSH1 0x0 DUP1 PUSH1 0x40 DUP4 DUP6 SUB SLT ISZERO PUSH2 0x3C8E JUMPI DUP1 DUP2 REVERT JUMPDEST DUP3 CALLDATALOAD PUSH2 0x3C99 DUP2 PUSH2 0x49A4 JUMP JUMPDEST SWAP2 POP PUSH1 0x20 DUP4 ADD CALLDATALOAD PUSH2 0x3CA9 DUP2 PUSH2 0x49A4 JUMP JUMPDEST DUP1 SWAP2 POP POP SWAP3 POP SWAP3 SWAP1 POP JUMP JUMPDEST PUSH1 0x0 DUP1 PUSH1 0x40 DUP4 DUP6 SUB SLT ISZERO PUSH2 0x3CC6 JUMPI DUP2 DUP3 REVERT JUMPDEST DUP3 MLOAD PUSH2 0x3CD1 DUP2 PUSH2 0x49A4 JUMP JUMPDEST PUSH1 0x20 DUP5 ADD MLOAD SWAP1 SWAP3 POP PUSH2 0x3CA9 DUP2 PUSH2 0x49A4 JUMP JUMPDEST PUSH1 0x0 DUP1 PUSH1 0x0 DUP1 PUSH1 0x0 DUP1 PUSH1 0x0 DUP1 PUSH1 0xA0 DUP10 DUP12 SUB SLT ISZERO PUSH2 0x3CFD JUMPI DUP4 DUP5 REVERT JUMPDEST DUP9 CALLDATALOAD PUSH2 0x3D08 DUP2 PUSH2 0x49A4 JUMP JUMPDEST SWAP8 POP PUSH1 0x20 DUP10 ADD CALLDATALOAD PUSH2 0x3D18 DUP2 PUSH2 0x49A4 JUMP JUMPDEST SWAP7 POP PUSH1 0x40 DUP10 ADD CALLDATALOAD PUSH1 0x1 PUSH1 0x1 PUSH1 0x40 SHL SUB DUP1 DUP3 GT ISZERO PUSH2 0x3D33 JUMPI DUP6 DUP7 REVERT JUMPDEST PUSH2 0x3D3F DUP13 DUP4 DUP14 ADD PUSH2 0x3A47 JUMP JUMPDEST SWAP1 SWAP9 POP SWAP7 POP PUSH1 0x60 DUP12 ADD CALLDATALOAD SWAP2 POP DUP1 DUP3 GT ISZERO PUSH2 0x3D57 JUMPI DUP6 DUP7 REVERT JUMPDEST PUSH2 0x3D63 DUP13 DUP4 DUP14 ADD PUSH2 0x3A47 JUMP JUMPDEST SWAP1 SWAP7 POP SWAP5 POP PUSH1 0x80 DUP12 ADD CALLDATALOAD SWAP2 POP DUP1 DUP3 GT ISZERO PUSH2 0x3D7B JUMPI DUP4 DUP5 REVERT JUMPDEST POP PUSH2 0x3D88 DUP12 DUP3 DUP13 ADD PUSH2 0x3A90 JUMP JUMPDEST SWAP10 SWAP13 SWAP9 SWAP12 POP SWAP7 SWAP10 POP SWAP5 SWAP8 SWAP4 SWAP7 SWAP3 SWAP6 SWAP5 POP POP POP JUMP JUMPDEST PUSH1 0x0 DUP1 PUSH1 0x0 DUP1 PUSH1 0x80 DUP6 DUP8 SUB SLT ISZERO PUSH2 0x3DB1 JUMPI DUP2 DUP3 REVERT JUMPDEST DUP5 CALLDATALOAD PUSH2 0x3DBC DUP2 PUSH2 0x49A4 JUMP JUMPDEST SWAP4 POP PUSH1 0x20 DUP6 ADD CALLDATALOAD PUSH2 0x3DCC DUP2 PUSH2 0x49A4 JUMP JUMPDEST SWAP3 POP PUSH1 0x40 DUP6 ADD CALLDATALOAD SWAP2 POP PUSH1 0x60 DUP6 ADD CALLDATALOAD PUSH1 0x1 PUSH1 0x1 PUSH1 0x40 SHL SUB DUP2 GT ISZERO PUSH2 0x3DED JUMPI DUP2 DUP3 REVERT JUMPDEST PUSH2 0x3DF9 DUP8 DUP3 DUP9 ADD PUSH2 0x3ACF JUMP JUMPDEST SWAP2 POP POP SWAP3 SWAP6 SWAP2 SWAP5 POP SWAP3 POP JUMP JUMPDEST PUSH1 0x0 DUP1 PUSH1 0x0 DUP1 PUSH1 0x0 DUP1 PUSH1 0xA0 DUP8 DUP10 SUB SLT ISZERO PUSH2 0x3E1D JUMPI DUP4 DUP5 REVERT JUMPDEST DUP7 CALLDATALOAD PUSH2 0x3E28 DUP2 PUSH2 0x49A4 JUMP JUMPDEST SWAP6 POP PUSH1 0x20 DUP8 ADD CALLDATALOAD PUSH2 0x3E38 DUP2 PUSH2 0x49A4 JUMP JUMPDEST SWAP5 POP PUSH1 0x40 DUP8 ADD CALLDATALOAD SWAP4 POP PUSH1 0x60 DUP8 ADD CALLDATALOAD SWAP3 POP PUSH1 0x80 DUP8 ADD CALLDATALOAD PUSH1 0x1 PUSH1 0x1 PUSH1 0x40 SHL SUB DUP2 GT ISZERO PUSH2 0x3E60 JUMPI DUP3 DUP4 REVERT JUMPDEST PUSH2 0x3E6C DUP10 DUP3 DUP11 ADD PUSH2 0x3A90 JUMP JUMPDEST SWAP8 SWAP11 SWAP7 SWAP10 POP SWAP5 SWAP8 POP SWAP3 SWAP6 SWAP4 SWAP5 SWAP3 POP POP POP JUMP JUMPDEST PUSH1 0x0 DUP1 PUSH1 0x40 DUP4 DUP6 SUB SLT ISZERO PUSH2 0x3E90 JUMPI DUP2 DUP3 REVERT JUMPDEST DUP3 CALLDATALOAD PUSH2 0x3E9B DUP2 PUSH2 0x49A4 JUMP JUMPDEST SWAP2 POP PUSH1 0x20 DUP4 ADD CALLDATALOAD PUSH2 0x3CA9 DUP2 PUSH2 0x49B9 JUMP JUMPDEST PUSH1 0x0 DUP1 PUSH1 0x40 DUP4 DUP6 SUB SLT ISZERO PUSH2 0x3EBD JUMPI DUP2 DUP3 REVERT JUMPDEST DUP3 CALLDATALOAD PUSH2 0x3EC8 DUP2 PUSH2 0x49A4 JUMP JUMPDEST SWAP5 PUSH1 0x20 SWAP4 SWAP1 SWAP4 ADD CALLDATALOAD SWAP4 POP POP POP JUMP JUMPDEST PUSH1 0x0 DUP1 PUSH1 0x40 DUP4 DUP6 SUB SLT ISZERO PUSH2 0x3EE8 JUMPI DUP2 DUP3 REVERT JUMPDEST DUP3 MLOAD PUSH2 0x3EF3 DUP2 PUSH2 0x49A4 JUMP JUMPDEST PUSH1 0x20 SWAP4 SWAP1 SWAP4 ADD MLOAD SWAP3 SWAP5 SWAP3 SWAP4 POP POP POP JUMP JUMPDEST PUSH1 0x0 DUP1 PUSH1 0x0 PUSH1 0x60 DUP5 DUP7 SUB SLT ISZERO PUSH2 0x3F17 JUMPI DUP1 DUP2 REVERT JUMPDEST DUP4 CALLDATALOAD PUSH2 0x3F22 DUP2 PUSH2 0x49A4 JUMP JUMPDEST SWAP3 POP PUSH1 0x20 DUP5 ADD CALLDATALOAD SWAP2 POP PUSH1 0x40 DUP5 ADD CALLDATALOAD PUSH2 0x3F39 DUP2 PUSH2 0x49A4 JUMP JUMPDEST DUP1 SWAP2 POP POP SWAP3 POP SWAP3 POP SWAP3 JUMP JUMPDEST PUSH1 0x0 DUP1 PUSH1 0x40 DUP4 DUP6 SUB SLT ISZERO PUSH2 0x3F56 JUMPI DUP2 DUP3 REVERT JUMPDEST DUP3 CALLDATALOAD PUSH1 0x1 PUSH1 0x1 PUSH1 0x40 SHL SUB DUP1 DUP3 GT ISZERO PUSH2 0x3F6C JUMPI DUP4 DUP5 REVERT JUMPDEST DUP2 DUP6 ADD SWAP2 POP DUP6 PUSH1 0x1F DUP4 ADD SLT PUSH2 0x3F7F JUMPI DUP4 DUP5 REVERT JUMPDEST DUP2 CALLDATALOAD PUSH1 0x20 PUSH2 0x3F8F PUSH2 0x39EF DUP4 PUSH2 0x48D3 JUMP JUMPDEST DUP1 DUP4 DUP3 MSTORE DUP3 DUP3 ADD SWAP2 POP DUP3 DUP7 ADD DUP11 DUP5 DUP7 PUSH1 0x5 SHL DUP10 ADD ADD GT ISZERO PUSH2 0x3FAE JUMPI DUP9 DUP10 REVERT JUMPDEST DUP9 SWAP7 POP JUMPDEST DUP5 DUP8 LT ISZERO PUSH2 0x3FD9 JUMPI DUP1 CALLDATALOAD PUSH2 0x3FC5 DUP2 PUSH2 0x49A4 JUMP JUMPDEST DUP4 MSTORE PUSH1 0x1 SWAP7 SWAP1 SWAP7 ADD SWAP6 SWAP2 DUP4 ADD SWAP2 DUP4 ADD PUSH2 0x3FB2 JUMP JUMPDEST POP SWAP7 POP POP DUP7 ADD CALLDATALOAD SWAP3 POP POP DUP1 DUP3 GT ISZERO PUSH2 0x3FEF JUMPI DUP3 DUP4 REVERT JUMPDEST POP PUSH2 0x3FFC DUP6 DUP3 DUP7 ADD PUSH2 0x39CF JUMP JUMPDEST SWAP2 POP POP SWAP3 POP SWAP3 SWAP1 POP JUMP JUMPDEST PUSH1 0x0 PUSH1 0x20 DUP3 DUP5 SUB SLT ISZERO PUSH2 0x4017 JUMPI DUP1 DUP2 REVERT JUMPDEST DUP2 MLOAD PUSH2 0x3C59 DUP2 PUSH2 0x49B9 JUMP JUMPDEST PUSH1 0x0 PUSH1 0x20 DUP3 DUP5 SUB SLT ISZERO PUSH2 0x4033 JUMPI DUP1 DUP2 REVERT JUMPDEST DUP2 CALLDATALOAD PUSH1 0x1 PUSH1 0x1 PUSH1 0xE0 SHL SUB NOT DUP2 AND DUP2 EQ PUSH2 0x3C59 JUMPI DUP2 DUP3 REVERT JUMPDEST PUSH1 0x0 PUSH1 0x60 DUP3 DUP5 SUB SLT ISZERO PUSH2 0x405B JUMPI DUP1 DUP2 REVERT JUMPDEST PUSH1 0x40 MLOAD PUSH1 0x60 DUP2 ADD PUSH1 0x1 PUSH1 0x1 PUSH1 0x40 SHL SUB DUP1 DUP3 GT DUP4 DUP4 LT OR ISZERO PUSH2 0x407E JUMPI PUSH2 0x407E PUSH2 0x498E JUMP JUMPDEST DUP2 PUSH1 0x40 MSTORE DUP5 MLOAD SWAP2 POP PUSH2 0x408F DUP3 PUSH2 0x49A4 JUMP JUMPDEST SWAP1 DUP3 MSTORE PUSH1 0x20 DUP5 ADD MLOAD SWAP1 DUP1 DUP3 AND DUP3 EQ PUSH2 0x40A5 JUMPI DUP4 DUP5 REVERT JUMPDEST POP PUSH1 0x20 DUP3 ADD MSTORE PUSH1 0x40 DUP4 ADD MLOAD PUSH1 0x3 DUP2 LT PUSH2 0x40BC JUMPI DUP3 DUP4 REVERT JUMPDEST PUSH1 0x40 DUP3 ADD MSTORE SWAP4 SWAP3 POP POP POP JUMP JUMPDEST PUSH1 0x0 DUP1 PUSH1 0x0 DUP4 DUP6 SUB PUSH2 0x160 DUP2 SLT ISZERO PUSH2 0x40DE JUMPI DUP2 DUP3 REVERT JUMPDEST PUSH2 0x100 DUP1 DUP3 SLT ISZERO PUSH2 0x40ED JUMPI DUP3 DUP4 REVERT JUMPDEST PUSH2 0x40F5 PUSH2 0x487A JUMP JUMPDEST SWAP2 POP DUP6 CALLDATALOAD DUP3 MSTORE PUSH1 0x20 DUP7 ADD CALLDATALOAD PUSH1 0x20 DUP4 ADD MSTORE PUSH1 0x40 DUP7 ADD CALLDATALOAD PUSH1 0x40 DUP4 ADD MSTORE PUSH2 0x411B PUSH1 0x60 DUP8 ADD PUSH2 0x39BF JUMP JUMPDEST PUSH1 0x60 DUP4 ADD MSTORE PUSH2 0x412C PUSH1 0x80 DUP8 ADD PUSH2 0x3C32 JUMP JUMPDEST PUSH1 0x80 DUP4 ADD MSTORE PUSH2 0x413D PUSH1 0xA0 DUP8 ADD PUSH2 0x3C27 JUMP JUMPDEST PUSH1 0xA0 DUP4 ADD MSTORE PUSH2 0x414E PUSH1 0xC0 DUP8 ADD PUSH2 0x39BF JUMP JUMPDEST PUSH1 0xC0 DUP4 ADD MSTORE PUSH2 0x415F PUSH1 0xE0 DUP8 ADD PUSH2 0x39BF JUMP JUMPDEST PUSH1 0xE0 DUP4 ADD MSTORE SWAP1 SWAP4 POP DUP5 ADD CALLDATALOAD PUSH1 0x1 PUSH1 0x1 PUSH1 0x40 SHL SUB DUP2 GT ISZERO PUSH2 0x417D JUMPI DUP2 DUP3 REVERT JUMPDEST PUSH2 0x4189 DUP7 DUP3 DUP8 ADD PUSH2 0x3B9A JUMP JUMPDEST SWAP3 POP POP PUSH2 0x419A DUP6 PUSH2 0x120 DUP7 ADD PUSH2 0x3B39 JUMP JUMPDEST SWAP1 POP SWAP3 POP SWAP3 POP SWAP3 JUMP JUMPDEST PUSH1 0x0 PUSH1 0x20 DUP3 DUP5 SUB SLT ISZERO PUSH2 0x41B4 JUMPI DUP1 DUP2 REVERT JUMPDEST DUP2 CALLDATALOAD PUSH2 0x3C59 DUP2 PUSH2 0x49C7 JUMP JUMPDEST PUSH1 0x0 PUSH1 0x20 DUP3 DUP5 SUB SLT ISZERO PUSH2 0x41D0 JUMPI DUP1 DUP2 REVERT JUMPDEST DUP2 MLOAD PUSH2 0x3C59 DUP2 PUSH2 0x49C7 JUMP JUMPDEST PUSH1 0x0 PUSH1 0x20 DUP3 DUP5 SUB SLT ISZERO PUSH2 0x41EC JUMPI DUP1 DUP2 REVERT JUMPDEST POP CALLDATALOAD SWAP2 SWAP1 POP JUMP JUMPDEST PUSH1 0x0 PUSH1 0x20 DUP3 DUP5 SUB SLT ISZERO PUSH2 0x4204 JUMPI DUP1 DUP2 REVERT JUMPDEST POP MLOAD SWAP2 SWAP1 POP JUMP JUMPDEST PUSH1 0x0 PUSH1 0x20 DUP3 DUP5 SUB SLT ISZERO PUSH2 0x421C JUMPI DUP1 DUP2 REVERT JUMPDEST DUP2 CALLDATALOAD PUSH2 0x3C59 DUP2 PUSH2 0x49D7 JUMP JUMPDEST PUSH1 0x0 PUSH1 0x20 DUP3 DUP5 SUB SLT ISZERO PUSH2 0x4238 JUMPI DUP1 DUP2 REVERT JUMPDEST DUP2 MLOAD PUSH2 0x3C59 DUP2 PUSH2 0x49D7 JUMP JUMPDEST PUSH1 0x0 DUP1 PUSH1 0x0 DUP1 PUSH1 0x0 DUP1 PUSH1 0x0 DUP1 PUSH1 0xE0 DUP10 DUP12 SUB SLT ISZERO PUSH2 0x425E JUMPI DUP2 DUP3 REVERT JUMPDEST DUP9 CALLDATALOAD PUSH2 0x4269 DUP2 PUSH2 0x49D7 JUMP JUMPDEST SWAP8 POP PUSH1 0x20 DUP10 ADD CALLDATALOAD PUSH2 0x4279 DUP2 PUSH2 0x49A4 JUMP JUMPDEST SWAP7 POP PUSH1 0x40 DUP10 ADD CALLDATALOAD PUSH1 0x1 PUSH1 0x1 PUSH1 0x40 SHL SUB DUP2 GT ISZERO PUSH2 0x4293 JUMPI DUP3 DUP4 REVERT JUMPDEST PUSH2 0x429F DUP12 DUP3 DUP13 ADD PUSH2 0x3A90 JUMP JUMPDEST SWAP1 SWAP8 POP SWAP6 POP POP PUSH1 0x60 DUP10 ADD CALLDATALOAD PUSH2 0x42B3 DUP2 PUSH2 0x49A4 JUMP JUMPDEST SWAP4 POP PUSH1 0x80 DUP10 ADD CALLDATALOAD SWAP3 POP PUSH1 0xA0 DUP10 ADD CALLDATALOAD PUSH2 0x42CA DUP2 PUSH2 0x49B9 JUMP JUMPDEST DUP1 SWAP3 POP POP PUSH1 0xC0 DUP10 ADD CALLDATALOAD SWAP1 POP SWAP3 SWAP6 SWAP9 POP SWAP3 SWAP6 SWAP9 SWAP1 SWAP4 SWAP7 POP JUMP JUMPDEST PUSH1 0x0 DUP1 PUSH1 0x0 DUP1 PUSH1 0x0 DUP1 PUSH1 0x0 PUSH1 0xE0 DUP9 DUP11 SUB SLT ISZERO PUSH2 0x42FC JUMPI DUP1 DUP2 REVERT JUMPDEST DUP8 CALLDATALOAD PUSH2 0x4307 DUP2 PUSH2 0x49D7 JUMP JUMPDEST SWAP7 POP PUSH1 0x20 DUP9 ADD CALLDATALOAD PUSH2 0x4317 DUP2 PUSH2 0x49D7 JUMP JUMPDEST SWAP6 POP PUSH1 0x40 DUP9 ADD CALLDATALOAD SWAP5 POP PUSH1 0x60 DUP9 ADD CALLDATALOAD SWAP4 POP PUSH1 0x80 DUP9 ADD CALLDATALOAD SWAP3 POP PUSH1 0xA0 DUP9 ADD CALLDATALOAD SWAP2 POP PUSH1 0xC0 DUP9 ADD CALLDATALOAD PUSH1 0x1 PUSH1 0x1 PUSH1 0x40 SHL SUB DUP2 GT ISZERO PUSH2 0x434D JUMPI DUP2 DUP3 REVERT JUMPDEST PUSH2 0x4359 DUP11 DUP3 DUP12 ADD PUSH2 0x3ACF JUMP JUMPDEST SWAP2 POP POP SWAP3 SWAP6 SWAP9 SWAP2 SWAP5 SWAP8 POP SWAP3 SWAP6 POP JUMP JUMPDEST PUSH1 0x1 PUSH1 0x1 PUSH1 0xA0 SHL SUB AND SWAP1 MSTORE JUMP JUMPDEST PUSH1 0x0 DUP2 MLOAD DUP1 DUP5 MSTORE PUSH2 0x438D DUP2 PUSH1 0x20 DUP7 ADD PUSH1 0x20 DUP7 ADD PUSH2 0x4931 JUMP JUMPDEST PUSH1 0x1F ADD PUSH1 0x1F NOT AND SWAP3 SWAP1 SWAP3 ADD PUSH1 0x20 ADD SWAP3 SWAP2 POP POP JUMP JUMPDEST DUP1 MLOAD DUP3 MSTORE PUSH1 0x20 DUP2 ADD MLOAD PUSH1 0x20 DUP4 ADD MSTORE PUSH1 0x40 DUP2 ADD MLOAD PUSH1 0x40 DUP4 ADD MSTORE PUSH1 0x60 DUP2 ADD MLOAD PUSH2 0x43CB PUSH1 0x60 DUP5 ADD DUP3 PUSH2 0x4368 JUMP JUMPDEST POP PUSH1 0x80 DUP2 ADD MLOAD PUSH2 0x43E3 PUSH1 0x80 DUP5 ADD DUP3 PUSH4 0xFFFFFFFF AND SWAP1 MSTORE JUMP JUMPDEST POP PUSH1 0xA0 DUP2 ADD MLOAD PUSH2 0x43F9 PUSH1 0xA0 DUP5 ADD DUP3 PUSH2 0xFFFF AND SWAP1 MSTORE JUMP JUMPDEST POP PUSH1 0xC0 DUP2 ADD MLOAD PUSH2 0x440F PUSH1 0xC0 DUP5 ADD DUP3 PUSH2 0xFFFF AND SWAP1 MSTORE JUMP JUMPDEST POP PUSH1 0xE0 DUP2 ADD MLOAD PUSH2 0x4422 PUSH1 0xE0 DUP5 ADD DUP3 PUSH2 0x4368 JUMP JUMPDEST POP PUSH2 0x100 DUP2 DUP2 ADD MLOAD PUSH1 0x1 PUSH1 0x1 PUSH1 0x40 SHL SUB AND SWAP1 DUP4 ADD MSTORE PUSH2 0x120 DUP1 DUP3 ADD MLOAD PUSH2 0x444A DUP3 DUP6 ADD DUP3 PUSH2 0x4368 JUMP JUMPDEST POP POP PUSH2 0x140 DUP1 DUP3 ADD MLOAD PUSH2 0x799 DUP3 DUP6 ADD DUP3 PUSH2 0x4368 JUMP JUMPDEST DUP1 MLOAD DUP3 MSTORE PUSH1 0x20 DUP2 ADD MLOAD PUSH1 0x20 DUP4 ADD MSTORE PUSH1 0x1 DUP1 PUSH1 0xA0 SHL SUB PUSH1 0x40 DUP3 ADD MLOAD AND PUSH1 0x40 DUP4 ADD MSTORE PUSH1 0x0 PUSH1 0x60 DUP3 ADD MLOAD PUSH1 0x80 PUSH1 0x60 DUP6 ADD MSTORE PUSH2 0x7A8 PUSH1 0x80 DUP6 ADD DUP3 PUSH2 0x4375 JUMP JUMPDEST PUSH1 0x0 DUP3 MLOAD PUSH2 0x44AC DUP2 DUP5 PUSH1 0x20 DUP8 ADD PUSH2 0x4931 JUMP JUMPDEST SWAP2 SWAP1 SWAP2 ADD SWAP3 SWAP2 POP POP JUMP JUMPDEST PUSH1 0x1 PUSH1 0x1 PUSH1 0xA0 SHL SUB SWAP2 SWAP1 SWAP2 AND DUP2 MSTORE PUSH1 0x20 ADD SWAP1 JUMP JUMPDEST PUSH1 0x1 PUSH1 0x1 PUSH1 0xA0 SHL SUB SWAP4 DUP5 AND DUP2 MSTORE SWAP2 SWAP1 SWAP3 AND PUSH1 0x20 DUP3 ADD MSTORE PUSH1 0x40 DUP2 ADD SWAP2 SWAP1 SWAP2 MSTORE PUSH1 0x60 ADD SWAP1 JUMP JUMPDEST PUSH1 0x1 PUSH1 0x1 PUSH1 0xA0 SHL SUB SWAP3 SWAP1 SWAP3 AND DUP3 MSTORE PUSH1 0x20 DUP3 ADD MSTORE PUSH1 0x40 ADD SWAP1 JUMP JUMPDEST PUSH1 0x20 DUP2 MSTORE PUSH1 0x0 PUSH2 0x3C59 PUSH1 0x20 DUP4 ADD DUP5 PUSH2 0x4375 JUMP JUMPDEST PUSH1 0x20 DUP1 DUP3 MSTORE PUSH1 0x1E SWAP1 DUP3 ADD MSTORE PUSH32 0x4C6F616E20616C7265616479207265706169642F6C6971756964617465640000 PUSH1 0x40 DUP3 ADD MSTORE PUSH1 0x60 ADD SWAP1 JUMP JUMPDEST PUSH1 0x20 DUP1 DUP3 MSTORE DUP2 DUP2 ADD MSTORE PUSH32 0x4F776E61626C653A2063616C6C6572206973206E6F7420746865206F776E6572 PUSH1 0x40 DUP3 ADD MSTORE PUSH1 0x60 ADD SWAP1 JUMP JUMPDEST PUSH1 0x20 DUP1 DUP3 MSTORE PUSH1 0x13 SWAP1 DUP3 ADD MSTORE PUSH19 0x1D1BDAD95B881A5CC818DBDB1B185D195C985B PUSH1 0x6A SHL PUSH1 0x40 DUP3 ADD MSTORE PUSH1 0x60 ADD SWAP1 JUMP JUMPDEST PUSH2 0x1C0 DUP2 ADD PUSH2 0x45C2 DUP3 DUP6 PUSH2 0x43A1 JUMP JUMPDEST DUP3 MLOAD PUSH1 0x1 PUSH1 0x1 PUSH1 0xA0 SHL SUB AND PUSH2 0x160 DUP4 ADD MSTORE PUSH1 0x20 DUP4 ADD MLOAD PUSH2 0xFFFF SWAP1 DUP2 AND PUSH2 0x180 DUP5 ADD MSTORE PUSH1 0x40 SWAP1 SWAP4 ADD MLOAD SWAP1 SWAP3 AND PUSH2 0x1A0 SWAP1 SWAP2 ADD MSTORE SWAP2 SWAP1 POP JUMP JUMPDEST DUP7 SLOAD DUP2 MSTORE PUSH1 0x1 DUP8 ADD SLOAD PUSH1 0x20 DUP3 ADD MSTORE PUSH1 0x2 DUP8 ADD SLOAD PUSH1 0x40 DUP3 ADD MSTORE PUSH1 0x3 DUP8 ADD SLOAD PUSH2 0x200 DUP3 ADD SWAP1 PUSH1 0x1 PUSH1 0x1 PUSH1 0xA0 SHL SUB PUSH2 0x4633 PUSH1 0x60 DUP6 ADD DUP3 DUP5 AND PUSH2 0x4368 JUMP JUMPDEST PUSH1 0xA0 DUP3 SWAP1 SHR PUSH4 0xFFFFFFFF AND PUSH1 0x80 DUP6 ADD MSTORE PUSH2 0xFFFF PUSH1 0xC0 DUP4 SWAP1 SHR DUP2 AND PUSH1 0xA0 DUP7 ADD MSTORE PUSH2 0x4667 PUSH1 0xC0 DUP7 ADD DUP3 DUP6 PUSH1 0xD0 SHR AND PUSH2 0xFFFF AND SWAP1 MSTORE JUMP JUMPDEST POP PUSH1 0x4 DUP11 ADD SLOAD SWAP2 POP PUSH2 0x467E PUSH1 0xE0 DUP6 ADD DUP3 DUP5 AND PUSH2 0x4368 JUMP JUMPDEST POP PUSH1 0xA0 SHR PUSH1 0x1 PUSH1 0x1 PUSH1 0x40 SHL SUB AND PUSH2 0x100 DUP4 ADD MSTORE PUSH1 0x5 DUP9 ADD SLOAD PUSH2 0x469F SWAP1 PUSH2 0x4925 JUMP JUMPDEST PUSH2 0x46AD PUSH2 0x120 DUP5 ADD DUP3 PUSH2 0x4368 JUMP JUMPDEST POP PUSH2 0x46BB PUSH1 0x6 DUP10 ADD SLOAD PUSH2 0x4925 JUMP JUMPDEST PUSH2 0x46C9 PUSH2 0x140 DUP5 ADD DUP3 PUSH2 0x4368 JUMP JUMPDEST POP PUSH4 0xFFFFFFFF DUP8 AND PUSH2 0x160 DUP4 ADD MSTORE PUSH4 0xFFFFFFFF DUP7 AND PUSH2 0x180 DUP4 ADD MSTORE DUP5 PUSH2 0x1A0 DUP4 ADD MSTORE DUP4 PUSH2 0x1C0 DUP4 ADD MSTORE PUSH2 0x32BD PUSH2 0x1E0 DUP4 ADD DUP5 PUSH2 0x4368 JUMP JUMPDEST PUSH1 0x0 PUSH2 0x120 DUP5 MLOAD DUP4 MSTORE PUSH1 0x20 DUP6 ADD MLOAD PUSH1 0x20 DUP5 ADD MSTORE PUSH1 0x40 DUP6 ADD MLOAD PUSH1 0x40 DUP5 ADD MSTORE PUSH1 0x1 DUP1 PUSH1 0xA0 SHL SUB PUSH1 0x60 DUP7 ADD MLOAD AND PUSH1 0x60 DUP5 ADD MSTORE PUSH4 0xFFFFFFFF PUSH1 0x80 DUP7 ADD MLOAD AND PUSH1 0x80 DUP5 ADD MSTORE PUSH2 0xFFFF PUSH1 0xA0 DUP7 ADD MLOAD AND PUSH1 0xA0 DUP5 ADD MSTORE PUSH1 0xC0 DUP6 ADD MLOAD PUSH2 0x475F PUSH1 0xC0 DUP6 ADD DUP3 PUSH2 0x4368 JUMP JUMPDEST POP PUSH1 0xE0 DUP6 ADD MLOAD PUSH2 0x4772 PUSH1 0xE0 DUP6 ADD DUP3 PUSH2 0x4368 JUMP JUMPDEST POP DUP1 PUSH2 0x100 DUP5 ADD MSTORE PUSH2 0x4786 DUP2 DUP5 ADD DUP6 PUSH2 0x445F JUMP JUMPDEST SWAP6 SWAP5 POP POP POP POP POP JUMP JUMPDEST PUSH4 0xFFFFFFFF SWAP3 SWAP1 SWAP3 AND DUP3 MSTORE PUSH1 0x1 PUSH1 0x1 PUSH1 0xA0 SHL SUB AND PUSH1 0x20 DUP3 ADD MSTORE PUSH1 0x40 ADD SWAP1 JUMP JUMPDEST PUSH1 0x0 PUSH2 0x260 PUSH4 0xFFFFFFFF DUP14 AND DUP4 MSTORE PUSH2 0x47C9 PUSH1 0x20 DUP5 ADD DUP14 PUSH2 0x43A1 JUMP JUMPDEST PUSH1 0x1 PUSH1 0x1 PUSH1 0xA0 SHL SUB DUP12 DUP2 AND PUSH2 0x180 DUP6 ADD MSTORE PUSH2 0x1A0 DUP5 ADD DUP3 SWAP1 MSTORE SWAP1 DUP4 ADD DUP10 SWAP1 MSTORE PUSH2 0x280 SWAP1 DUP10 DUP12 DUP4 DUP7 ADD CALLDATACOPY DUP4 DUP11 ADD DUP3 ADD SWAP3 SWAP1 SWAP3 MSTORE SWAP1 DUP8 AND PUSH2 0x1C0 DUP4 ADD MSTORE PUSH2 0x1E0 DUP3 ADD DUP7 SWAP1 MSTORE DUP5 ISZERO ISZERO PUSH2 0x200 DUP4 ADD MSTORE PUSH2 0x220 DUP3 ADD DUP5 SWAP1 MSTORE PUSH1 0x1F DUP9 ADD PUSH1 0x1F NOT AND DUP3 ADD ADD PUSH2 0x4836 PUSH2 0x240 DUP4 ADD DUP5 PUSH2 0x4368 JUMP JUMPDEST SWAP12 SWAP11 POP POP POP POP POP POP POP POP POP POP POP JUMP JUMPDEST PUSH1 0x0 PUSH4 0xFFFFFFFF DUP1 DUP9 AND DUP4 MSTORE DUP1 DUP8 AND PUSH1 0x20 DUP5 ADD MSTORE POP DUP5 PUSH1 0x40 DUP4 ADD MSTORE DUP4 PUSH1 0x60 DUP4 ADD MSTORE PUSH1 0xA0 PUSH1 0x80 DUP4 ADD MSTORE PUSH2 0x32BD PUSH1 0xA0 DUP4 ADD DUP5 PUSH2 0x445F JUMP JUMPDEST PUSH1 0x40 MLOAD PUSH2 0x100 DUP2 ADD PUSH1 0x1 PUSH1 0x1 PUSH1 0x40 SHL SUB DUP2 GT DUP3 DUP3 LT OR ISZERO PUSH2 0x489D JUMPI PUSH2 0x489D PUSH2 0x498E JUMP JUMPDEST PUSH1 0x40 MSTORE SWAP1 JUMP JUMPDEST PUSH1 0x40 MLOAD PUSH1 0x1F DUP3 ADD PUSH1 0x1F NOT AND DUP2 ADD PUSH1 0x1 PUSH1 0x1 PUSH1 0x40 SHL SUB DUP2 GT DUP3 DUP3 LT OR ISZERO PUSH2 0x48CB JUMPI PUSH2 0x48CB PUSH2 0x498E JUMP JUMPDEST PUSH1 0x40 MSTORE SWAP2 SWAP1 POP JUMP JUMPDEST PUSH1 0x0 PUSH1 0x1 PUSH1 0x1 PUSH1 0x40 SHL SUB DUP3 GT ISZERO PUSH2 0x48EC JUMPI PUSH2 0x48EC PUSH2 0x498E JUMP JUMPDEST POP PUSH1 0x5 SHL PUSH1 0x20 ADD SWAP1 JUMP JUMPDEST PUSH1 0x0 DUP3 NOT DUP3 GT ISZERO PUSH2 0x4909 JUMPI PUSH2 0x4909 PUSH2 0x4978 JUMP JUMPDEST POP ADD SWAP1 JUMP JUMPDEST PUSH1 0x0 DUP3 DUP3 LT ISZERO PUSH2 0x4920 JUMPI PUSH2 0x4920 PUSH2 0x4978 JUMP JUMPDEST POP SUB SWAP1 JUMP JUMPDEST PUSH1 0x1 PUSH1 0x1 PUSH1 0xA0 SHL SUB AND SWAP1 JUMP JUMPDEST PUSH1 0x0 JUMPDEST DUP4 DUP2 LT ISZERO PUSH2 0x494C JUMPI DUP2 DUP2 ADD MLOAD DUP4 DUP3 ADD MSTORE PUSH1 0x20 ADD PUSH2 0x4934 JUMP JUMPDEST DUP4 DUP2 GT ISZERO PUSH2 0x799 JUMPI POP POP PUSH1 0x0 SWAP2 ADD MSTORE JUMP JUMPDEST PUSH1 0x0 PUSH1 0x0 NOT DUP3 EQ ISZERO PUSH2 0x4971 JUMPI PUSH2 0x4971 PUSH2 0x4978 JUMP JUMPDEST POP PUSH1 0x1 ADD SWAP1 JUMP JUMPDEST PUSH4 0x4E487B71 PUSH1 0xE0 SHL PUSH1 0x0 MSTORE PUSH1 0x11 PUSH1 0x4 MSTORE PUSH1 0x24 PUSH1 0x0 REVERT JUMPDEST PUSH4 0x4E487B71 PUSH1 0xE0 SHL PUSH1 0x0 MSTORE PUSH1 0x41 PUSH1 0x4 MSTORE PUSH1 0x24 PUSH1 0x0 REVERT JUMPDEST PUSH1 0x1 PUSH1 0x1 PUSH1 0xA0 SHL SUB DUP2 AND DUP2 EQ PUSH2 0x9C3 JUMPI PUSH1 0x0 DUP1 REVERT JUMPDEST DUP1 ISZERO ISZERO DUP2 EQ PUSH2 0x9C3 JUMPI PUSH1 0x0 DUP1 REVERT JUMPDEST PUSH2 0xFFFF DUP2 AND DUP2 EQ PUSH2 0x9C3 JUMPI PUSH1 0x0 DUP1 REVERT JUMPDEST PUSH4 0xFFFFFFFF DUP2 AND DUP2 EQ PUSH2 0x9C3 JUMPI PUSH1 0x0 DUP1 REVERT INVALID LOG2 PUSH5 0x6970667358 0x22 SLT KECCAK256 EXTCODECOPY SIGNEXTEND SGT CALLDATALOAD 0xE3 0x1E 0xE1 0xC4 0xCC 0xAB 0xEF STOP MULMOD 0xF9 PUSH30 0x76841ADD876ADA81A9EC49D2D2FE7C98B464736F6C634300080400330000 "
		},
		"gasEstimates": {
			"creation": {
				"codeDepositCost": "3795000",
				"executionCost": "infinite",
				"totalCost": "infinite"
			},
			"external": {
				"HUNDRED_PERCENT()": "600",
				"LOAN_COORDINATOR()": "infinite",
				"LOAN_TYPE()": "587",
				"acceptOffer((uint256,uint256,uint256,address,uint32,uint16,address,address),(uint256,uint256,address,bytes),(address,uint16))": "infinite",
				"adminFeeInBasisPoints()": "1585",
				"cancelLoanCommitmentBeforeLoanHasBegun(uint256)": "22698",
				"drainERC1155Airdrop(address,uint256,address)": "infinite",
				"drainERC20Airdrop(address,address)": "infinite",
				"drainERC721Airdrop(address,uint256,address)": "infinite",
				"getERC20Permit(address)": "1750",
				"getPayoffAmount(uint32)": "1807",
				"getWhetherNonceHasBeenUsedForUser(address,uint256)": "1529",
				"hub()": "infinite",
				"liquidateOverdueLoan(uint32)": "infinite",
				"loanIdToLoan(uint32)": "6657",
				"loanIdToLoanExtras(uint32)": "1390",
				"loanRepaidOrLiquidated(uint32)": "1224",
				"maximumLoanDuration()": "1083",
				"mintObligationReceipt(uint32)": "infinite",
				"onERC1155BatchReceived(address,address,uint256[],uint256[],bytes)": "infinite",
				"onERC1155Received(address,address,uint256,uint256,bytes)": "infinite",
				"onERC721Received(address,address,uint256,bytes)": "infinite",
				"owner()": "1598",
				"pause()": "infinite",
				"paused()": "1377",
				"payBackLoan(uint32)": "infinite",
				"pullAirdrop(uint32,address,bytes,address,uint256,bool,uint256)": "infinite",
				"renegotiateLoan(uint32,uint32,uint256,uint256,uint256,uint256,bytes)": "infinite",
				"setERC20Permit(address,bool)": "infinite",
				"setERC20Permits(address[],bool[])": "infinite",
				"supportsInterface(bytes4)": "459",
				"transferOwnership(address)": "infinite",
				"unpause()": "infinite",
				"updateAdminFee(uint16)": "23210",
				"updateMaximumLoanDuration(uint256)": "22476",
				"wrapCollateral(uint32)": "infinite"
			}
		},
		"methodIdentifiers": {
			"HUNDRED_PERCENT()": "6ed93dd0",
			"LOAN_COORDINATOR()": "77cfa991",
			"LOAN_TYPE()": "616693d8",
			"acceptOffer((uint256,uint256,uint256,address,uint32,uint16,address,address),(uint256,uint256,address,bytes),(address,uint16))": "56efe98c",
			"adminFeeInBasisPoints()": "a4441a6f",
			"cancelLoanCommitmentBeforeLoanHasBegun(uint256)": "9658e405",
			"drainERC1155Airdrop(address,uint256,address)": "ac4e35ea",
			"drainERC20Airdrop(address,address)": "05b406cf",
			"drainERC721Airdrop(address,uint256,address)": "5163a1c3",
			"getERC20Permit(address)": "872873be",
			"getPayoffAmount(uint32)": "ab3b1280",
			"getWhetherNonceHasBeenUsedForUser(address,uint256)": "328404b0",
			"hub()": "365a86fc",
			"liquidateOverdueLoan(uint32)": "b31ec1d4",
			"loanIdToLoan(uint32)": "227cda18",
			"loanIdToLoanExtras(uint32)": "0ff81c3f",
			"loanRepaidOrLiquidated(uint32)": "0717f3aa",
			"maximumLoanDuration()": "192b355d",
			"mintObligationReceipt(uint32)": "bce42e42",
			"onERC1155BatchReceived(address,address,uint256[],uint256[],bytes)": "bc197c81",
			"onERC1155Received(address,address,uint256,uint256,bytes)": "f23a6e61",
			"onERC721Received(address,address,uint256,bytes)": "150b7a02",
			"owner()": "8da5cb5b",
			"pause()": "8456cb59",
			"paused()": "5c975abb",
			"payBackLoan(uint32)": "2b218022",
			"pullAirdrop(uint32,address,bytes,address,uint256,bool,uint256)": "318dacd3",
			"renegotiateLoan(uint32,uint32,uint256,uint256,uint256,uint256,bytes)": "b18e7772",
			"setERC20Permit(address,bool)": "7836baf1",
			"setERC20Permits(address[],bool[])": "79b64040",
			"supportsInterface(bytes4)": "01ffc9a7",
			"transferOwnership(address)": "f2fde38b",
			"unpause()": "3f4ba83a",
			"updateAdminFee(uint16)": "1c6caf41",
			"updateMaximumLoanDuration(uint256)": "47948d92",
			"wrapCollateral(uint32)": "59a72734"
		}
	},
	"abi": [
		{
			"inputs": [
				{
					"internalType": "address",
					"name": "_admin",
					"type": "address"
				},
				{
					"internalType": "address",
					"name": "_nftfiHub",
					"type": "address"
				},
				{
					"internalType": "address[]",
					"name": "_permittedErc20s",
					"type": "address[]"
				}
			],
			"stateMutability": "nonpayable",
			"type": "constructor"
		},
		{
			"anonymous": false,
			"inputs": [
				{
					"indexed": false,
					"internalType": "uint16",
					"name": "newAdminFee",
					"type": "uint16"
				}
			],
			"name": "AdminFeeUpdated",
			"type": "event"
		},
		{
			"anonymous": false,
			"inputs": [
				{
					"indexed": true,
					"internalType": "address",
					"name": "erc20Contract",
					"type": "address"
				},
				{
					"indexed": false,
					"internalType": "bool",
					"name": "isPermitted",
					"type": "bool"
				}
			],
			"name": "ERC20Permit",
			"type": "event"
		},
		{
			"anonymous": false,
			"inputs": [
				{
					"indexed": true,
					"internalType": "uint32",
					"name": "loanId",
					"type": "uint32"
				},
				{
					"indexed": true,
					"internalType": "address",
					"name": "borrower",
					"type": "address"
				},
				{
					"indexed": true,
					"internalType": "address",
					"name": "lender",
					"type": "address"
				},
				{
					"indexed": false,
					"internalType": "uint256",
					"name": "loanPrincipalAmount",
					"type": "uint256"
				},
				{
					"indexed": false,
					"internalType": "uint256",
					"name": "nftCollateralId",
					"type": "uint256"
				},
				{
					"indexed": false,
					"internalType": "uint256",
					"name": "loanMaturityDate",
					"type": "uint256"
				},
				{
					"indexed": false,
					"internalType": "uint256",
					"name": "loanLiquidationDate",
					"type": "uint256"
				},
				{
					"indexed": false,
					"internalType": "address",
					"name": "nftCollateralContract",
					"type": "address"
				}
			],
			"name": "LoanLiquidated",
			"type": "event"
		},
		{
			"anonymous": false,
			"inputs": [
				{
					"indexed": true,
					"internalType": "uint32",
					"name": "loanId",
					"type": "uint32"
				},
				{
					"indexed": true,
					"internalType": "address",
					"name": "borrower",
					"type": "address"
				},
				{
					"indexed": true,
					"internalType": "address",
					"name": "lender",
					"type": "address"
				},
				{
					"indexed": false,
					"internalType": "uint32",
					"name": "newLoanDuration",
					"type": "uint32"
				},
				{
					"indexed": false,
					"internalType": "uint256",
					"name": "newMaximumRepaymentAmount",
					"type": "uint256"
				},
				{
					"indexed": false,
					"internalType": "uint256",
					"name": "renegotiationFee",
					"type": "uint256"
				},
				{
					"indexed": false,
					"internalType": "uint256",
					"name": "renegotiationAdminFee",
					"type": "uint256"
				}
			],
			"name": "LoanRenegotiated",
			"type": "event"
		},
		{
			"anonymous": false,
			"inputs": [
				{
					"indexed": true,
					"internalType": "uint32",
					"name": "loanId",
					"type": "uint32"
				},
				{
					"indexed": true,
					"internalType": "address",
					"name": "borrower",
					"type": "address"
				},
				{
					"indexed": true,
					"internalType": "address",
					"name": "lender",
					"type": "address"
				},
				{
					"indexed": false,
					"internalType": "uint256",
					"name": "loanPrincipalAmount",
					"type": "uint256"
				},
				{
					"indexed": false,
					"internalType": "uint256",
					"name": "nftCollateralId",
					"type": "uint256"
				},
				{
					"indexed": false,
					"internalType": "uint256",
					"name": "amountPaidToLender",
					"type": "uint256"
				},
				{
					"indexed": false,
					"internalType": "uint256",
					"name": "adminFee",
					"type": "uint256"
				},
				{
					"indexed": false,
					"internalType": "uint256",
					"name": "revenueShare",
					"type": "uint256"
				},
				{
					"indexed": false,
					"internalType": "address",
					"name": "revenueSharePartner",
					"type": "address"
				},
				{
					"indexed": false,
					"internalType": "address",
					"name": "nftCollateralContract",
					"type": "address"
				},
				{
					"indexed": false,
					"internalType": "address",
					"name": "loanERC20Denomination",
					"type": "address"
				}
			],
			"name": "LoanRepaid",
			"type": "event"
		},
		{
			"anonymous": false,
			"inputs": [
				{
					"indexed": true,
					"internalType": "uint32",
					"name": "loanId",
					"type": "uint32"
				},
				{
					"indexed": true,
					"internalType": "address",
					"name": "borrower",
					"type": "address"
				},
				{
					"indexed": true,
					"internalType": "address",
					"name": "lender",
					"type": "address"
				},
				{
					"components": [
						{
							"internalType": "uint256",
							"name": "loanPrincipalAmount",
							"type": "uint256"
						},
						{
							"internalType": "uint256",
							"name": "maximumRepaymentAmount",
							"type": "uint256"
						},
						{
							"internalType": "uint256",
							"name": "nftCollateralId",
							"type": "uint256"
						},
						{
							"internalType": "address",
							"name": "loanERC20Denomination",
							"type": "address"
						},
						{
							"internalType": "uint32",
							"name": "loanDuration",
							"type": "uint32"
						},
						{
							"internalType": "uint16",
							"name": "loanInterestRateForDurationInBasisPoints",
							"type": "uint16"
						},
						{
							"internalType": "uint16",
							"name": "loanAdminFeeInBasisPoints",
							"type": "uint16"
						},
						{
							"internalType": "address",
							"name": "nftCollateralWrapper",
							"type": "address"
						},
						{
							"internalType": "uint64",
							"name": "loanStartTime",
							"type": "uint64"
						},
						{
							"internalType": "address",
							"name": "nftCollateralContract",
							"type": "address"
						},
						{
							"internalType": "address",
							"name": "borrower",
							"type": "address"
						}
					],
					"indexed": false,
					"internalType": "struct LoanData.LoanTerms",
					"name": "loanTerms",
					"type": "tuple"
				},
				{
					"components": [
						{
							"internalType": "address",
							"name": "revenueSharePartner",
							"type": "address"
						},
						{
							"internalType": "uint16",
							"name": "revenueShareInBasisPoints",
							"type": "uint16"
						},
						{
							"internalType": "uint16",
							"name": "referralFeeInBasisPoints",
							"type": "uint16"
						}
					],
					"indexed": false,
					"internalType": "struct LoanData.LoanExtras",
					"name": "loanExtras",
					"type": "tuple"
				}
			],
			"name": "LoanStarted",
			"type": "event"
		},
		{
			"anonymous": false,
			"inputs": [
				{
					"indexed": false,
					"internalType": "uint256",
					"name": "newMaximumLoanDuration",
					"type": "uint256"
				}
			],
			"name": "MaximumLoanDurationUpdated",
			"type": "event"
		},
		{
			"anonymous": false,
			"inputs": [
				{
					"indexed": true,
					"internalType": "address",
					"name": "previousOwner",
					"type": "address"
				},
				{
					"indexed": true,
					"internalType": "address",
					"name": "newOwner",
					"type": "address"
				}
			],
			"name": "OwnershipTransferred",
			"type": "event"
		},
		{
			"anonymous": false,
			"inputs": [
				{
					"indexed": false,
					"internalType": "address",
					"name": "account",
					"type": "address"
				}
			],
			"name": "Paused",
			"type": "event"
		},
		{
			"anonymous": false,
			"inputs": [
				{
					"indexed": false,
					"internalType": "address",
					"name": "account",
					"type": "address"
				}
			],
			"name": "Unpaused",
			"type": "event"
		},
		{
			"inputs": [],
			"name": "HUNDRED_PERCENT",
			"outputs": [
				{
					"internalType": "uint16",
					"name": "",
					"type": "uint16"
				}
			],
			"stateMutability": "view",
			"type": "function"
		},
		{
			"inputs": [],
			"name": "LOAN_COORDINATOR",
			"outputs": [
				{
					"internalType": "bytes32",
					"name": "",
					"type": "bytes32"
				}
			],
			"stateMutability": "view",
			"type": "function"
		},
		{
			"inputs": [],
			"name": "LOAN_TYPE",
			"outputs": [
				{
					"internalType": "bytes32",
					"name": "",
					"type": "bytes32"
				}
			],
			"stateMutability": "pure",
			"type": "function"
		},
		{
			"inputs": [
				{
					"components": [
						{
							"internalType": "uint256",
							"name": "loanPrincipalAmount",
							"type": "uint256"
						},
						{
							"internalType": "uint256",
							"name": "maximumRepaymentAmount",
							"type": "uint256"
						},
						{
							"internalType": "uint256",
							"name": "nftCollateralId",
							"type": "uint256"
						},
						{
							"internalType": "address",
							"name": "nftCollateralContract",
							"type": "address"
						},
						{
							"internalType": "uint32",
							"name": "loanDuration",
							"type": "uint32"
						},
						{
							"internalType": "uint16",
							"name": "loanAdminFeeInBasisPoints",
							"type": "uint16"
						},
						{
							"internalType": "address",
							"name": "loanERC20Denomination",
							"type": "address"
						},
						{
							"internalType": "address",
							"name": "referrer",
							"type": "address"
						}
					],
					"internalType": "struct LoanData.Offer",
					"name": "_offer",
					"type": "tuple"
				},
				{
					"components": [
						{
							"internalType": "uint256",
							"name": "nonce",
							"type": "uint256"
						},
						{
							"internalType": "uint256",
							"name": "expiry",
							"type": "uint256"
						},
						{
							"internalType": "address",
							"name": "signer",
							"type": "address"
						},
						{
							"internalType": "bytes",
							"name": "signature",
							"type": "bytes"
						}
					],
					"internalType": "struct LoanData.Signature",
					"name": "_signature",
					"type": "tuple"
				},
				{
					"components": [
						{
							"internalType": "address",
							"name": "revenueSharePartner",
							"type": "address"
						},
						{
							"internalType": "uint16",
							"name": "referralFeeInBasisPoints",
							"type": "uint16"
						}
					],
					"internalType": "struct LoanData.BorrowerSettings",
					"name": "_borrowerSettings",
					"type": "tuple"
				}
			],
			"name": "acceptOffer",
			"outputs": [],
			"stateMutability": "nonpayable",
			"type": "function"
		},
		{
			"inputs": [],
			"name": "adminFeeInBasisPoints",
			"outputs": [
				{
					"internalType": "uint16",
					"name": "",
					"type": "uint16"
				}
			],
			"stateMutability": "view",
			"type": "function"
		},
		{
			"inputs": [
				{
					"internalType": "uint256",
					"name": "_nonce",
					"type": "uint256"
				}
			],
			"name": "cancelLoanCommitmentBeforeLoanHasBegun",
			"outputs": [],
			"stateMutability": "nonpayable",
			"type": "function"
		},
		{
			"inputs": [
				{
					"internalType": "address",
					"name": "_tokenAddress",
					"type": "address"
				},
				{
					"internalType": "uint256",
					"name": "_tokenId",
					"type": "uint256"
				},
				{
					"internalType": "address",
					"name": "_receiver",
					"type": "address"
				}
			],
			"name": "drainERC1155Airdrop",
			"outputs": [],
			"stateMutability": "nonpayable",
			"type": "function"
		},
		{
			"inputs": [
				{
					"internalType": "address",
					"name": "_tokenAddress",
					"type": "address"
				},
				{
					"internalType": "address",
					"name": "_receiver",
					"type": "address"
				}
			],
			"name": "drainERC20Airdrop",
			"outputs": [],
			"stateMutability": "nonpayable",
			"type": "function"
		},
		{
			"inputs": [
				{
					"internalType": "address",
					"name": "_tokenAddress",
					"type": "address"
				},
				{
					"internalType": "uint256",
					"name": "_tokenId",
					"type": "uint256"
				},
				{
					"internalType": "address",
					"name": "_receiver",
					"type": "address"
				}
			],
			"name": "drainERC721Airdrop",
			"outputs": [],
			"stateMutability": "nonpayable",
			"type": "function"
		},
		{
			"inputs": [
				{
					"internalType": "address",
					"name": "_erc20",
					"type": "address"
				}
			],
			"name": "getERC20Permit",
			"outputs": [
				{
					"internalType": "bool",
					"name": "",
					"type": "bool"
				}
			],
			"stateMutability": "view",
			"type": "function"
		},
		{
			"inputs": [
				{
					"internalType": "uint32",
					"name": "_loanId",
					"type": "uint32"
				}
			],
			"name": "getPayoffAmount",
			"outputs": [
				{
					"internalType": "uint256",
					"name": "",
					"type": "uint256"
				}
			],
			"stateMutability": "view",
			"type": "function"
		},
		{
			"inputs": [
				{
					"internalType": "address",
					"name": "_user",
					"type": "address"
				},
				{
					"internalType": "uint256",
					"name": "_nonce",
					"type": "uint256"
				}
			],
			"name": "getWhetherNonceHasBeenUsedForUser",
			"outputs": [
				{
					"internalType": "bool",
					"name": "",
					"type": "bool"
				}
			],
			"stateMutability": "view",
			"type": "function"
		},
		{
			"inputs": [],
			"name": "hub",
			"outputs": [
				{
					"internalType": "contract INftfiHub",
					"name": "",
					"type": "address"
				}
			],
			"stateMutability": "view",
			"type": "function"
		},
		{
			"inputs": [
				{
					"internalType": "uint32",
					"name": "_loanId",
					"type": "uint32"
				}
			],
			"name": "liquidateOverdueLoan",
			"outputs": [],
			"stateMutability": "nonpayable",
			"type": "function"
		},
		{
			"inputs": [
				{
					"internalType": "uint32",
					"name": "",
					"type": "uint32"
				}
			],
			"name": "loanIdToLoan",
			"outputs": [
				{
					"internalType": "uint256",
					"name": "loanPrincipalAmount",
					"type": "uint256"
				},
				{
					"internalType": "uint256",
					"name": "maximumRepaymentAmount",
					"type": "uint256"
				},
				{
					"internalType": "uint256",
					"name": "nftCollateralId",
					"type": "uint256"
				},
				{
					"internalType": "address",
					"name": "loanERC20Denomination",
					"type": "address"
				},
				{
					"internalType": "uint32",
					"name": "loanDuration",
					"type": "uint32"
				},
				{
					"internalType": "uint16",
					"name": "loanInterestRateForDurationInBasisPoints",
					"type": "uint16"
				},
				{
					"internalType": "uint16",
					"name": "loanAdminFeeInBasisPoints",
					"type": "uint16"
				},
				{
					"internalType": "address",
					"name": "nftCollateralWrapper",
					"type": "address"
				},
				{
					"internalType": "uint64",
					"name": "loanStartTime",
					"type": "uint64"
				},
				{
					"internalType": "address",
					"name": "nftCollateralContract",
					"type": "address"
				},
				{
					"internalType": "address",
					"name": "borrower",
					"type": "address"
				}
			],
			"stateMutability": "view",
			"type": "function"
		},
		{
			"inputs": [
				{
					"internalType": "uint32",
					"name": "",
					"type": "uint32"
				}
			],
			"name": "loanIdToLoanExtras",
			"outputs": [
				{
					"internalType": "address",
					"name": "revenueSharePartner",
					"type": "address"
				},
				{
					"internalType": "uint16",
					"name": "revenueShareInBasisPoints",
					"type": "uint16"
				},
				{
					"internalType": "uint16",
					"name": "referralFeeInBasisPoints",
					"type": "uint16"
				}
			],
			"stateMutability": "view",
			"type": "function"
		},
		{
			"inputs": [
				{
					"internalType": "uint32",
					"name": "",
					"type": "uint32"
				}
			],
			"name": "loanRepaidOrLiquidated",
			"outputs": [
				{
					"internalType": "bool",
					"name": "",
					"type": "bool"
				}
			],
			"stateMutability": "view",
			"type": "function"
		},
		{
			"inputs": [],
			"name": "maximumLoanDuration",
			"outputs": [
				{
					"internalType": "uint256",
					"name": "",
					"type": "uint256"
				}
			],
			"stateMutability": "view",
			"type": "function"
		},
		{
			"inputs": [
				{
					"internalType": "uint32",
					"name": "_loanId",
					"type": "uint32"
				}
			],
			"name": "mintObligationReceipt",
			"outputs": [],
			"stateMutability": "nonpayable",
			"type": "function"
		},
		{
			"inputs": [
				{
					"internalType": "address",
					"name": "",
					"type": "address"
				},
				{
					"internalType": "address",
					"name": "",
					"type": "address"
				},
				{
					"internalType": "uint256[]",
					"name": "",
					"type": "uint256[]"
				},
				{
					"internalType": "uint256[]",
					"name": "",
					"type": "uint256[]"
				},
				{
					"internalType": "bytes",
					"name": "",
					"type": "bytes"
				}
			],
			"name": "onERC1155BatchReceived",
			"outputs": [
				{
					"internalType": "bytes4",
					"name": "",
					"type": "bytes4"
				}
			],
			"stateMutability": "nonpayable",
			"type": "function"
		},
		{
			"inputs": [
				{
					"internalType": "address",
					"name": "",
					"type": "address"
				},
				{
					"internalType": "address",
					"name": "",
					"type": "address"
				},
				{
					"internalType": "uint256",
					"name": "",
					"type": "uint256"
				},
				{
					"internalType": "uint256",
					"name": "",
					"type": "uint256"
				},
				{
					"internalType": "bytes",
					"name": "",
					"type": "bytes"
				}
			],
			"name": "onERC1155Received",
			"outputs": [
				{
					"internalType": "bytes4",
					"name": "",
					"type": "bytes4"
				}
			],
			"stateMutability": "nonpayable",
			"type": "function"
		},
		{
			"inputs": [
				{
					"internalType": "address",
					"name": "",
					"type": "address"
				},
				{
					"internalType": "address",
					"name": "",
					"type": "address"
				},
				{
					"internalType": "uint256",
					"name": "",
					"type": "uint256"
				},
				{
					"internalType": "bytes",
					"name": "",
					"type": "bytes"
				}
			],
			"name": "onERC721Received",
			"outputs": [
				{
					"internalType": "bytes4",
					"name": "",
					"type": "bytes4"
				}
			],
			"stateMutability": "nonpayable",
			"type": "function"
		},
		{
			"inputs": [],
			"name": "owner",
			"outputs": [
				{
					"internalType": "address",
					"name": "",
					"type": "address"
				}
			],
			"stateMutability": "view",
			"type": "function"
		},
		{
			"inputs": [],
			"name": "pause",
			"outputs": [],
			"stateMutability": "nonpayable",
			"type": "function"
		},
		{
			"inputs": [],
			"name": "paused",
			"outputs": [
				{
					"internalType": "bool",
					"name": "",
					"type": "bool"
				}
			],
			"stateMutability": "view",
			"type": "function"
		},
		{
			"inputs": [
				{
					"internalType": "uint32",
					"name": "_loanId",
					"type": "uint32"
				}
			],
			"name": "payBackLoan",
			"outputs": [],
			"stateMutability": "nonpayable",
			"type": "function"
		},
		{
			"inputs": [
				{
					"internalType": "uint32",
					"name": "_loanId",
					"type": "uint32"
				},
				{
					"internalType": "address",
					"name": "_target",
					"type": "address"
				},
				{
					"internalType": "bytes",
					"name": "_data",
					"type": "bytes"
				},
				{
					"internalType": "address",
					"name": "_nftAirdrop",
					"type": "address"
				},
				{
					"internalType": "uint256",
					"name": "_nftAirdropId",
					"type": "uint256"
				},
				{
					"internalType": "bool",
					"name": "_is1155",
					"type": "bool"
				},
				{
					"internalType": "uint256",
					"name": "_nftAirdropAmount",
					"type": "uint256"
				}
			],
			"name": "pullAirdrop",
			"outputs": [],
			"stateMutability": "nonpayable",
			"type": "function"
		},
		{
			"inputs": [
				{
					"internalType": "uint32",
					"name": "_loanId",
					"type": "uint32"
				},
				{
					"internalType": "uint32",
					"name": "_newLoanDuration",
					"type": "uint32"
				},
				{
					"internalType": "uint256",
					"name": "_newMaximumRepaymentAmount",
					"type": "uint256"
				},
				{
					"internalType": "uint256",
					"name": "_renegotiationFee",
					"type": "uint256"
				},
				{
					"internalType": "uint256",
					"name": "_lenderNonce",
					"type": "uint256"
				},
				{
					"internalType": "uint256",
					"name": "_expiry",
					"type": "uint256"
				},
				{
					"internalType": "bytes",
					"name": "_lenderSignature",
					"type": "bytes"
				}
			],
			"name": "renegotiateLoan",
			"outputs": [],
			"stateMutability": "nonpayable",
			"type": "function"
		},
		{
			"inputs": [
				{
					"internalType": "address",
					"name": "_erc20",
					"type": "address"
				},
				{
					"internalType": "bool",
					"name": "_permit",
					"type": "bool"
				}
			],
			"name": "setERC20Permit",
			"outputs": [],
			"stateMutability": "nonpayable",
			"type": "function"
		},
		{
			"inputs": [
				{
					"internalType": "address[]",
					"name": "_erc20s",
					"type": "address[]"
				},
				{
					"internalType": "bool[]",
					"name": "_permits",
					"type": "bool[]"
				}
			],
			"name": "setERC20Permits",
			"outputs": [],
			"stateMutability": "nonpayable",
			"type": "function"
		},
		{
			"inputs": [
				{
					"internalType": "bytes4",
					"name": "_interfaceId",
					"type": "bytes4"
				}
			],
			"name": "supportsInterface",
			"outputs": [
				{
					"internalType": "bool",
					"name": "",
					"type": "bool"
				}
			],
			"stateMutability": "view",
			"type": "function"
		},
		{
			"inputs": [
				{
					"internalType": "address",
					"name": "_newOwner",
					"type": "address"
				}
			],
			"name": "transferOwnership",
			"outputs": [],
			"stateMutability": "nonpayable",
			"type": "function"
		},
		{
			"inputs": [],
			"name": "unpause",
			"outputs": [],
			"stateMutability": "nonpayable",
			"type": "function"
		},
		{
			"inputs": [
				{
					"internalType": "uint16",
					"name": "_newAdminFeeInBasisPoints",
					"type": "uint16"
				}
			],
			"name": "updateAdminFee",
			"outputs": [],
			"stateMutability": "nonpayable",
			"type": "function"
		},
		{
			"inputs": [
				{
					"internalType": "uint256",
					"name": "_newMaximumLoanDuration",
					"type": "uint256"
				}
			],
			"name": "updateMaximumLoanDuration",
			"outputs": [],
			"stateMutability": "nonpayable",
			"type": "function"
		},
		{
			"inputs": [
				{
					"internalType": "uint32",
					"name": "_loanId",
					"type": "uint32"
				}
			],
			"name": "wrapCollateral",
			"outputs": [],
			"stateMutability": "nonpayable",
			"type": "function"
		}
	]
}