{
	"data": {
		"bytecode": {
			"linkReferences": {},
			"object": "60c06040526301e91c806002556003805461ffff19166101f41790553480156200002857600080fd5b50604051620065a1380380620065a18339810160408190526200004b91620002b3565b82828282826200009b6040518060400160405280601781526020017f4449524543545f4c4f414e5f434f4f5244494e41544f520000000000000000008152506200013f60201b6200185f1760201c565b838380620000a9816200018f565b50506000805460ff60a01b19168155600180556001600160601b0319606085901b1660a05260808390525b81518110156200012e57620001198282815181106200010357634e487b7160e01b600052603260045260246000fd5b60200260200101516001620001df60201b60201c565b806200012581620003af565b915050620000d4565b5050505050505050505050620003ed565b6000602082511115620001875760405162461bcd60e51b815260206004820152600b60248201526a696e76616c6964206b657960a81b60448201526064015b60405180910390fd5b506020015190565b600080546001600160a01b038381166001600160a01b0319831681178455604051919092169283917f8be0079c531659141344cd1fd0a4f28419497f9722a3daafe3b4186f6b6457e09190a35050565b6001600160a01b038216620002375760405162461bcd60e51b815260206004820152601560248201527f6572633230206973207a65726f2061646472657373000000000000000000000060448201526064016200017e565b6001600160a01b038216600081815260096020908152604091829020805460ff191685151590811790915591519182527ff100355be652ecc881568750e6a98c0713e4316f75d5314ebc9039e0acb52f24910160405180910390a25050565b80516001600160a01b0381168114620002ae57600080fd5b919050565b600080600060608486031215620002c8578283fd5b620002d38462000296565b92506020620002e481860162000296565b60408601519093506001600160401b038082111562000301578384fd5b818701915087601f83011262000315578384fd5b8151818111156200032a576200032a620003d7565b8060051b604051601f19603f83011681018181108582111715620003525762000352620003d7565b604052828152858101935084860182860187018c101562000371578788fd5b8795505b838610156200039e57620003898162000296565b85526001959095019493860193860162000375565b508096505050505050509250925092565b6000600019821415620003d057634e487b7160e01b81526011600452602481fd5b5060010190565b634e487b7160e01b600052604160045260246000fd5b60805160a05160601c61611b620004866000396000818161046b015281816108dc015281816109cc01528181610af301528181610e1c01528181610ed30152818161135f0152818161169b01528181611b1a0152818161284801528181612c8001528181612db10152818161363e015261465501526000818161053a0152818161167201528181611af1015261462c015261611b6000f3fe608060405234801561001057600080fd5b50600436106101dc5760003560e01c8063616693d811610105578063a4441a6f1161009d578063a4441a6f146105d1578063ab3b1280146105df578063ac4e35ea14610608578063b18e77721461061b578063b31ec1d41461062e578063bc197c8114610641578063bce42e4214610654578063f23a6e6114610667578063f2fde38b1461067a57600080fd5b8063616693d8146104f65780636ed93dd01461051957806377cfa991146105355780637836baf11461055c57806379b640401461056f5780638456cb5914610582578063872873be1461058a5780638da5cb5b146105b65780639658e405146105be57600080fd5b8063318dacd311610178578063318dacd31461041a578063328404b01461042d578063365a86fc146104665780633f4ba83a1461049a57806347948d92146104a25780635163a1c3146104b557806356efe98c146104c857806359a72734146104db5780635c975abb146104ee57600080fd5b806301ffc9a7146101e157806305b406cf146102095780630717f3aa1461021e5780630ff81c3f14610241578063150b7a02146102ab578063192b355d146102d75780631c6caf41146102ee578063227cda18146103015780632b21802214610407575b600080fd5b6101f46101ef366004615688565b61068d565b60405190151581526020015b60405180910390f35b61021c6102173660046152f8565b6106df565b005b6101f461022c366004615917565b60066020526000908152604090205460ff1681565b61028161024f366004615917565b6005602052600090815260409020546001600160a01b0381169061ffff600160a01b8204811691600160b01b90041683565b604080516001600160a01b03909416845261ffff9283166020850152911690820152606001610200565b6102be6102b93660046153ea565b6107f6565b6040516001600160e01b03199091168152602001610200565b6102e060025481565b604051908152602001610200565b61021c6102fc3660046157fc565b610807565b61039361030f366004615917565b600460208190526000918252604090912080546001820154600283015460038401549484015460058501546006909501549395929491936001600160a01b0380851694600160a01b80820463ffffffff1695600160c01b830461ffff90811696600160d01b909404169484841694929093046001600160401b03169290821691168b565b604080519b8c5260208c019a909a52988a01979097526001600160a01b0395861660608a015263ffffffff909416608089015261ffff92831660a0890152911660c0870152821660e08601526001600160401b03166101008501529081166101208401521661014082015261016001610200565b61021c610415366004615917565b6108ce565b61021c61042836600461594f565b6109be565b6101f461043b3660046154f9565b6001600160a01b03919091166000908152600860209081526040808320938352929052205460ff1690565b61048d7f000000000000000000000000000000000000000000000000000000000000000081565b6040516102009190615b9c565b61021c610b2b565b61021c6104b0366004615834565b610b64565b61021c6104c3366004615551565b610c15565b61021c6104d6366004615721565b610da5565b61021c6104e9366004615917565b610e0e565b6101f4610f42565b794449524543545f4c4f414e5f46495845445f52454445504c4f5960301b6102e0565b61052261271081565b60405161ffff9091168152602001610200565b6102e07f000000000000000000000000000000000000000000000000000000000000000081565b61021c61056a3660046154cc565b610f52565b61021c61057d366004615592565b610f8f565b61021c6110a1565b6101f46105983660046152c0565b6001600160a01b031660009081526009602052604090205460ff1690565b61048d6110d8565b61021c6105cc366004615834565b6110e7565b6003546105229061ffff1681565b6102e06105ed366004615917565b63ffffffff1660009081526004602052604090206001015490565b61021c610616366004615551565b611168565b61021c6106293660046159ee565b611320565b61021c61063c366004615917565b611351565b6102be61064f366004615330565b6115a3565b61021c610662366004615917565b6115ee565b6102be610675366004615453565b6117af565b61021c6106883660046152c0565b6117c2565b60006001600160e01b03198216630271189760e51b14806106be57506001600160e01b03198216630a85bd0160e11b145b806106d957506001600160e01b031982166301ffc9a760e01b145b92915050565b336106e86110d8565b6001600160a01b0316146107175760405162461bcd60e51b815260040161070e90615d6e565b60405180910390fd5b6040516370a0823160e01b815282906000906001600160a01b038316906370a0823190610748903090600401615b9c565b60206040518083038186803b15801561076057600080fd5b505afa158015610774573d6000803e3d6000fd5b505050506040513d601f19601f820116820180604052508101906107989190615670565b9050600081116107dc5760405162461bcd60e51b815260206004820152600f60248201526e1b9bc81d1bdad95b9cc81bdddb9959608a1b604482015260640161070e565b6107f06001600160a01b03831684836118a9565b50505050565b630a85bd0160e11b5b949350505050565b336108106110d8565b6001600160a01b0316146108365760405162461bcd60e51b815260040161070e90615d6e565b61271061ffff821611156108835760405162461bcd60e51b81526020600482015260146024820152730626173697320706f696e7473203e2031303030360641b604482015260640161070e565b6003805461ffff191661ffff83169081179091556040519081527f03017365bbe16943b524030df07e7689168ab63e854d27417498e6f9dc584dab906020015b60405180910390a150565b6108d66118ff565b610900817f0000000000000000000000000000000000000000000000000000000000000000611959565b60008060008061090f85611ad7565b935093509350935061092385858585611eeb565b61092f8585848461207f565b50505063ffffffff8216600090815260046020818152604080842084815560018101859055600281018590556003810180546001600160e01b03199081169091559381018054909416909355600580840180546001600160a01b031990811690915560069094018054909416909355919052902080546001600160c01b0319169055506109bb60018055565b50565b6109c66118ff565b6109f0887f0000000000000000000000000000000000000000000000000000000000000000612095565b63ffffffff881660009081526006602052604090205460ff1615610a265760405162461bcd60e51b815260040161070e90615cdb565b63ffffffff8881166000908152600460208181526040928390208351610160810185528154815260018201549281019290925260028101549382019390935260038301546001600160a01b038082166060840152600160a01b8083049096166080840152600160c01b820461ffff90811660a0850152600160d01b90920490911660c08301529183015480831660e0830152939093046001600160401b03166101008401526005820154811661012084015260069091015416610140820152610b1789828a8a8a8a8a8a8a7f000000000000000000000000000000000000000000000000000000000000000061223d565b50610b2160018055565b5050505050505050565b33610b346110d8565b6001600160a01b031614610b5a5760405162461bcd60e51b815260040161070e90615d6e565b610b62612788565b565b33610b6d6110d8565b6001600160a01b031614610b935760405162461bcd60e51b815260040161070e90615d6e565b63ffffffff811115610be05760405162461bcd60e51b81526020600482015260166024820152754c6f616e206475726174696f6e206f766572666c6f7760501b604482015260640161070e565b60028190556040518181527f64f65a4a1a932867ad599da36210fc47c698b3abb2413cfdfd36bf59697a69cb906020016108c3565b33610c1e6110d8565b6001600160a01b031614610c445760405162461bcd60e51b815260040161070e90615d6e565b6001600160a01b0383166000908152600760209081526040808320858452909152902054839015610c875760405162461bcd60e51b815260040161070e90615da3565b6040516331a9108f60e11b81526004810184905230906001600160a01b03831690636352211e9060240160206040518083038186803b158015610cc957600080fd5b505afa158015610cdd573d6000803e3d6000fd5b505050506040513d601f19601f82011682018060405250810190610d0191906152dc565b6001600160a01b031614610d475760405162461bcd60e51b815260206004820152600d60248201526c1b999d081b9bdd081bdddb9959609a1b604482015260640161070e565b604051632142170760e11b81526001600160a01b038216906342842e0e90610d7790309086908890600401615bb0565b600060405180830381600087803b158015610d9157600080fd5b505af1158015610b21573d6000803e3d6000fd5b610dad6127d7565b610db56118ff565b6000610dc4846060015161281f565b9050610dd08482612945565b610dd984612b6a565b610dff610de68583612b8f565b610df884600001518560200151612c43565b8686612cbd565b50610e0960018055565b505050565b610e166118ff565b610e40817f0000000000000000000000000000000000000000000000000000000000000000612095565b63ffffffff811660009081526006602052604090205460ff1615610e765760405162461bcd60e51b815260040161070e90615cdb565b63ffffffff8116600090815260046020908152604080832060058101546001600160a01b031684526007835281842060028201548552909252822080549192600192610ec3908490615ff5565b909155506000905080610ef784847f0000000000000000000000000000000000000000000000000000000000000000612f33565b6001600160a01b038216600090815260076020908152604080832084845290915281208054939550919350600192610f30908490615f9e565b909155505060018055506109bb915050565b600054600160a01b900460ff1690565b33610f5b6110d8565b6001600160a01b031614610f815760405162461bcd60e51b815260040161070e90615d6e565b610f8b8282613483565b5050565b33610f986110d8565b6001600160a01b031614610fbe5760405162461bcd60e51b815260040161070e90615d6e565b805182511461102b5760405162461bcd60e51b815260206004820152603360248201527f73657445524332305065726d6974732066756e6374696f6e20696e666f726d616044820152720e8d2dedc40c2e4d2e8f240dad2e6dac2e8c6d606b1b606482015260840161070e565b60005b8251811015610e095761108f83828151811061105a57634e487b7160e01b600052603260045260246000fd5b602002602001015183838151811061108257634e487b7160e01b600052603260045260246000fd5b6020026020010151613483565b8061109981616038565b91505061102e565b336110aa6110d8565b6001600160a01b0316146110d05760405162461bcd60e51b815260040161070e90615d6e565b610b62613530565b6000546001600160a01b031690565b33600090815260086020908152604080832084845290915290205460ff16156111425760405162461bcd60e51b815260206004820152600d60248201526c496e76616c6964206e6f6e636560981b604482015260640161070e565b33600090815260086020908152604080832093835292905220805460ff19166001179055565b336111716110d8565b6001600160a01b0316146111975760405162461bcd60e51b815260040161070e90615d6e565b604051627eeac760e11b815283906000906001600160a01b0383169062fdd58e906111c89030908890600401615bd4565b60206040518083038186803b1580156111e057600080fd5b505afa1580156111f4573d6000803e3d6000fd5b505050506040513d601f19601f820116820180604052508101906112189190615670565b6001600160a01b03861660009081526007602090815260408083208884529091529020549091501561125c5760405162461bcd60e51b815260040161070e90615da3565b6000811161129c5760405162461bcd60e51b815260206004820152600d60248201526c1b9bc81b999d1cc81bdddb9959609a1b604482015260640161070e565b604051637921219560e11b81523060048201526001600160a01b038481166024830152604482018690526064820183905260a06084830152600060a483015283169063f242432a9060c401600060405180830381600087803b15801561130157600080fd5b505af1158015611315573d6000803e3d6000fd5b505050505050505050565b6113286127d7565b6113306118ff565b61133f87878787878787613573565b61134860018055565b50505050505050565b6113596118ff565b611383817f0000000000000000000000000000000000000000000000000000000000000000612095565b63ffffffff811660009081526006602052604090205460ff16156113b95760405162461bcd60e51b815260040161070e90615cdb565b6000806000806113c885611ad7565b93509350935093506000826080015163ffffffff168361010001516001600160401b03166113f69190615f9e565b90508042116114415760405162461bcd60e51b8152602060048201526017602482015276131bd85b881a5cc81b9bdd081bdd995c991d59481e595d604a1b604482015260640161070e565b336001600160a01b038516146114955760405162461bcd60e51b81526020600482015260196024820152784f6e6c79206c656e6465722063616e206c697175696461746560381b604482015260640161070e565b6114a18685858561207f565b8251604080850151610120860151825193845260208401919091529082018390524260608301526001600160a01b039081166080830152808616919087169063ffffffff8916907f4fac0ff43299a330bce57d0579985305af580acf256a6d7977083ede81be13269060a00160405180910390a450505063ffffffff8316600090815260046020818152604080842084815560018101859055600281018590556003810180546001600160e01b03199081169091559381018054909416909355600580840180546001600160a01b031990811690915560069094018054909416909355919052902080546001600160c01b0319169055506109bb905060018055565b60405162461bcd60e51b815260206004820152601b60248201527f45524331313535206261746368206e6f7420737570706f727465640000000000604482015260009060640161070e565b6115f66118ff565b63ffffffff81166000908152600460205260409020600601546001600160a01b03163381146116635760405162461bcd60e51b815260206004820152601960248201527839b2b73232b9103430b9903a37903132903137b93937bbb2b960391b604482015260640161070e565b604051631c2d8fb360e31b81527f000000000000000000000000000000000000000000000000000000000000000060048201526000907f00000000000000000000000000000000000000000000000000000000000000006001600160a01b03169063e16c7d989060240160206040518083038186803b1580156116e557600080fd5b505afa1580156116f9573d6000803e3d6000fd5b505050506040513d601f19601f8201168201806040525081019061171d91906152dc565b604051631b982cf160e01b81529091506001600160a01b03821690631b982cf19061174e9086908690600401615f03565b600060405180830381600087803b15801561176857600080fd5b505af115801561177c573d6000803e3d6000fd5b5050505063ffffffff8316600090815260046020526040902060060180546001600160a01b031916905550506001805550565b63f23a6e6160e01b5b9695505050505050565b336117cb6110d8565b6001600160a01b0316146117f15760405162461bcd60e51b815260040161070e90615d6e565b6001600160a01b0381166118565760405162461bcd60e51b815260206004820152602660248201527f4f776e61626c653a206e6577206f776e657220697320746865207a65726f206160448201526564647265737360d01b606482015260840161070e565b6109bb81613824565b60006020825111156118a15760405162461bcd60e51b815260206004820152600b60248201526a696e76616c6964206b657960a81b604482015260640161070e565b506020015190565b610e098363a9059cbb60e01b84846040516024016118c8929190615bd4565b60408051601f198184030181529190526020810180516001600160e01b03166001600160e01b031990931692909217909152613874565b600260015414156119525760405162461bcd60e51b815260206004820152601f60248201527f5265656e7472616e637947756172643a207265656e7472616e742063616c6c00604482015260640161070e565b6002600155565b6119638282612095565b60405163038bf9d560e11b815263ffffffff831660048201523090630717f3aa9060240160206040518083038186803b15801561199f57600080fd5b505afa1580156119b3573d6000803e3d6000fd5b505050506040513d601f19601f820116820180604052508101906119d79190615654565b156119f45760405162461bcd60e51b815260040161070e90615cdb565b60405163044f9b4360e31b815263ffffffff831660048201526000908190309063227cda18906024016101606040518083038186803b158015611a3657600080fd5b505afa158015611a4a573d6000803e3d6000fd5b505050506040513d601f19601f82011682018060405250810190611a6e919061584c565b505098505050509550505050508163ffffffff16816001600160401b0316611a969190615f9e565b4211156107f05760405162461bcd60e51b815260206004820152600f60248201526e131bd85b881a5cc8195e1c1a5c9959608a1b604482015260640161070e565b600080611ae2614fd6565b604051631c2d8fb360e31b81527f000000000000000000000000000000000000000000000000000000000000000060048201526000907f00000000000000000000000000000000000000000000000000000000000000006001600160a01b03169063e16c7d989060240160206040518083038186803b158015611b6457600080fd5b505afa158015611b78573d6000803e3d6000fd5b505050506040513d601f19601f82011682018060405250810190611b9c91906152dc565b60405163e6c5a54160e01b815263ffffffff871660048201529091506000906001600160a01b0383169063e6c5a5419060240160606040518083038186803b158015611be757600080fd5b505afa158015611bfb573d6000803e3d6000fd5b505050506040513d601f19601f82011682018060405250810190611c1f91906156b0565b60208181015163ffffffff898116600090815260048085526040918290208251610160810184528154815260018201549681019690965260028101549286019290925260038201546001600160a01b038082166060880152600160a01b8083049095166080880152600160c01b820461ffff90811660a0890152600160d01b90920490911660c08701529082015480821660e08701526001600160401b03939004831661010086015260058201548116610120860152600690910154166101408401819052929650929350919091169015611d01578361014001519550611df2565b826001600160a01b0316638208e76c6040518163ffffffff1660e01b815260040160206040518083038186803b158015611d3a57600080fd5b505afa158015611d4e573d6000803e3d6000fd5b505050506040513d601f19601f82011682018060405250810190611d7291906152dc565b6001600160a01b0316636352211e826040518263ffffffff1660e01b8152600401611d9f91815260200190565b60206040518083038186803b158015611db757600080fd5b505afa158015611dcb573d6000803e3d6000fd5b505050506040513d601f19601f82011682018060405250810190611def91906152dc565b95505b826001600160a01b0316634fbe68a06040518163ffffffff1660e01b815260040160206040518083038186803b158015611e2b57600080fd5b505afa158015611e3f573d6000803e3d6000fd5b505050506040513d601f19601f82011682018060405250810190611e6391906152dc565b6001600160a01b0316636352211e826040518263ffffffff1660e01b8152600401611e9091815260200190565b60206040518083038186803b158015611ea857600080fd5b505afa158015611ebc573d6000803e3d6000fd5b505050506040513d601f19601f82011682018060405250810190611ee091906152dc565b945050509193509193565b63ffffffff84166000908152600560209081526040808320815160608101835290546001600160a01b038116825261ffff600160a01b8204811694830194909452600160b01b9004909216908201529080611f4584613946565b60608601519193509150611f64906001600160a01b031633878461398d565b6000611f7883856020015161ffff166139ae565b9050600081118015611f93575083516001600160a01b031615155b15611fc257611fa28184615ff5565b84516060870151919450611fc2916001600160a01b03169033908461398d565b611fe433611fce6110d8565b60608801516001600160a01b031691908661398d565b845160408087015186516101208901516060808b0151855196875260208701949094528585018890528501889052608085018690526001600160a01b0391821660a0860152811660c085015290811660e0840152905188821692918a169163ffffffff8c16917f3687d64f40b11dd1c102a76882ac1735891c546a96ae27935eb5c7865b9d86fa918190036101000190a45050505050505050565b61208a8483836139ce565b6107f0823085613a88565b806001600160a01b031663e16c7d98306001600160a01b03166377cfa9916040518163ffffffff1660e01b815260040160206040518083038186803b1580156120dd57600080fd5b505afa1580156120f1573d6000803e3d6000fd5b505050506040513d601f19601f820116820180604052508101906121159190615670565b6040518263ffffffff1660e01b815260040161213391815260200190565b60206040518083038186803b15801561214b57600080fd5b505afa15801561215f573d6000803e3d6000fd5b505050506040513d601f19601f8201168201806040525081019061218391906152dc565b6001600160a01b03166352a067e583306040518363ffffffff1660e01b81526004016121b0929190615f03565b60206040518083038186803b1580156121c857600080fd5b505afa1580156121dc573d6000803e3d6000fd5b505050506040513d601f19601f820116820180604052508101906122009190615654565b610f8b5760405162461bcd60e51b815260206004820152600e60248201526d1a5b9d985b1a59081b1bd85b925960921b604482015260640161070e565b6000816001600160a01b031663e16c7d98306001600160a01b03166377cfa9916040518163ffffffff1660e01b815260040160206040518083038186803b15801561228757600080fd5b505afa15801561229b573d6000803e3d6000fd5b505050506040513d601f19601f820116820180604052508101906122bf9190615670565b6040518263ffffffff1660e01b81526004016122dd91815260200190565b60206040518083038186803b1580156122f557600080fd5b505afa158015612309573d6000803e3d6000fd5b505050506040513d601f19601f8201168201806040525081019061232d91906152dc565b60405163e6c5a54160e01b815263ffffffff8d16600482015290915060009081906001600160a01b0384169063e6c5a5419060240160606040518083038186803b15801561237a57600080fd5b505afa15801561238e573d6000803e3d6000fd5b505050506040513d601f19601f820116820180604052508101906123b291906156b0565b60208101516101408e01519192506001600160401b0316906001600160a01b0316156123e5578c610140015192506124d6565b836001600160a01b0316638208e76c6040518163ffffffff1660e01b815260040160206040518083038186803b15801561241e57600080fd5b505afa158015612432573d6000803e3d6000fd5b505050506040513d601f19601f8201168201806040525081019061245691906152dc565b6001600160a01b0316636352211e826040518263ffffffff1660e01b815260040161248391815260200190565b60206040518083038186803b15801561249b57600080fd5b505afa1580156124af573d6000803e3d6000fd5b505050506040513d601f19601f820116820180604052508101906124d391906152dc565b92505b5050336001600160a01b0382161461252c5760405162461bcd60e51b815260206004820152601960248201527804f6e6c7920626f72726f7765722063616e2061697264726f7603c1b604482015260640161070e565b604051631c2d8fb360e31b81527120a4a9222927a82fa32620a9a42fa627a0a760711b60048201526000906001600160a01b0385169063e16c7d989060240160206040518083038186803b15801561258357600080fd5b505afa158015612597573d6000803e3d6000fd5b505050506040513d601f19601f820116820180604052508101906125bb91906152dc565b90506125c88c3083613a88565b806001600160a01b0316630846e9408d61012001518e604001518f60e001518f8f8f8f8f8f8f8d6040518c63ffffffff1660e01b81526004016126159b9a99989796959493929190615bed565b600060405180830381600087803b15801561262f57600080fd5b505af1158015612643573d6000803e3d6000fd5b50505050508a60e001516001600160a01b031663f370e8c5308d61012001518e604001516040518463ffffffff1660e01b815260040161268593929190615bb0565b60206040518083038186803b15801561269d57600080fd5b505afa1580156126b1573d6000803e3d6000fd5b505050506040513d601f19601f820116820180604052508101906126d59190615654565b6127215760405162461bcd60e51b815260206004820152601d60248201527f436f6c6c61746572616c2073686f756c642062652072657475726e6564000000604482015260640161070e565b806001600160a01b03168c63ffffffff167faaf2e5ae3768d93ab0323bdd249040a63fbfabc559387211ecb3813990d294798d604001518e61012001518e8e8e604051612772959493929190615ed0565b60405180910390a3505050505050505050505050565b612790613b2b565b6000805460ff60a01b191690557f5db9ee0a495bf2e6ff9c91a7834c1ba4fdd244a5e8aa4e537bd38aeae4b073aa335b6040516127cd9190615b9c565b60405180910390a1565b6127df610f42565b15610b625760405162461bcd60e51b815260206004820152601060248201526f14185d5cd8589b194e881c185d5cd95960821b604482015260640161070e565b604051631c2d8fb360e31b81526d5045524d49545445445f4e46545360901b60048201526000907f00000000000000000000000000000000000000000000000000000000000000006001600160a01b03169063e16c7d989060240160206040518083038186803b15801561289257600080fd5b505afa1580156128a6573d6000803e3d6000fd5b505050506040513d601f19601f820116820180604052508101906128ca91906152dc565b6001600160a01b031663b8c8aff8836040518263ffffffff1660e01b81526004016128f59190615b9c565b60206040518083038186803b15801561290d57600080fd5b505afa158015612921573d6000803e3d6000fd5b505050506040513d601f19601f820116820180604052508101906106d991906152dc565b60c08201516001600160a01b031660009081526009602052604090205460ff166129c05760405162461bcd60e51b815260206004820152602660248201527f43757272656e63792064656e6f6d696e6174696f6e206973206e6f74207065726044820152651b5a5d1d195960d21b606482015260840161070e565b6001600160a01b038116612a275760405162461bcd60e51b815260206004820152602860248201527f4e465420636f6c6c61746572616c20636f6e7472616374206973206e6f742070604482015267195c9b5a5d1d195960c21b606482015260840161070e565b600254826080015163ffffffff161115612a975760405162461bcd60e51b815260206004820152602b60248201527f4c6f616e206475726174696f6e2065786365656473206d6178696d756d206c6f60448201526a30b710323ab930ba34b7b760a91b606482015260840161070e565b608082015163ffffffff16612aee5760405162461bcd60e51b815260206004820152601c60248201527f4c6f616e206475726174696f6e2063616e6e6f74206265207a65726f00000000604482015260640161070e565b60035460a083015161ffff908116911614610f8b5760405162461bcd60e51b815260206004820152603660248201527f5468652061646d696e2066656520686173206368616e6765642073696e6365206044820152753a3434b99037b93232b9103bb0b99039b4b3b732b21760511b606482015260840161070e565b8051602082015110156109bb5760405162461bcd60e51b815260040161070e90615c8e565b612b97614fd6565b6040518061016001604052808460000151815260200184602001518152602001846040015181526020018460c001516001600160a01b03168152602001846080015163ffffffff168152602001600061ffff1681526020018460a0015161ffff168152602001836001600160a01b03168152602001426001600160401b0316815260200184606001516001600160a01b03168152602001336001600160a01b0316815250905092915050565b60408051606081018252600080825260208201819052918101919091526040518060600160405280846001600160a01b03168152602001612ca4857f0000000000000000000000000000000000000000000000000000000000000000613b76565b61ffff1681526020018361ffff16815250905092915050565b6040808201516001600160a01b0316600090815260086020908152828220845183529052205460ff1615612d035760405162461bcd60e51b815260040161070e90615d40565b6040808201516001600160a01b031660009081526008602090815282822084518352905220805460ff19166001179055612d3d8282613c98565b612d895760405162461bcd60e51b815260206004820152601b60248201527f4c656e646572207369676e617475726520697320696e76616c69640000000000604482015260640161070e565b604051631c2d8fb360e31b81526c27232a2324afa12aa7222622a960991b60048201526000907f00000000000000000000000000000000000000000000000000000000000000006001600160a01b03169063e16c7d989060240160206040518083038186803b158015612dfb57600080fd5b505afa158015612e0f573d6000803e3d6000fd5b505050506040513d601f19601f82011682018060405250810190612e3391906152dc565b9050806001600160a01b03168561012001516001600160a01b03161415612e9c5760405162461bcd60e51b815260206004820152601b60248201527f436f6c6c61746572616c2063616e6e6f742062652062756e646c650000000000604482015260640161070e565b6000612ed1794449524543545f4c4f414e5f46495845445f52454445504c4f5960301b87873387604001518960e00151613ca5565b905082604001516001600160a01b0316336001600160a01b03168263ffffffff167f42cc7f53ef7b494c5dd6f0095175f7d07b5d3d7b2a03f34389fea445ba4a3a8b8989604051612f23929190615dd0565b60405180910390a4505050505050565b6000806000836001600160a01b031663e16c7d98306001600160a01b03166377cfa9916040518163ffffffff1660e01b815260040160206040518083038186803b158015612f8057600080fd5b505afa158015612f94573d6000803e3d6000fd5b505050506040513d601f19601f82011682018060405250810190612fb89190615670565b6040518263ffffffff1660e01b8152600401612fd691815260200190565b60206040518083038186803b158015612fee57600080fd5b505afa158015613002573d6000803e3d6000fd5b505050506040513d601f19601f8201168201806040525081019061302691906152dc565b60405163e6c5a54160e01b815263ffffffff881660048201529091506000906001600160a01b0383169063e6c5a5419060240160606040518083038186803b15801561307157600080fd5b505afa158015613085573d6000803e3d6000fd5b505050506040513d601f19601f820116820180604052508101906130a991906156b0565b602081015160068801549192506001600160401b0316906000906001600160a01b0316156130e5575060068701546001600160a01b03166131d6565b836001600160a01b0316638208e76c6040518163ffffffff1660e01b815260040160206040518083038186803b15801561311e57600080fd5b505afa158015613132573d6000803e3d6000fd5b505050506040513d601f19601f8201168201806040525081019061315691906152dc565b6001600160a01b0316636352211e836040518263ffffffff1660e01b815260040161318391815260200190565b60206040518083038186803b15801561319b57600080fd5b505afa1580156131af573d6000803e3d6000fd5b505050506040513d601f19601f820116820180604052508101906131d391906152dc565b90505b336001600160a01b038216146132285760405162461bcd60e51b815260206004820152601760248201527604f6e6c7920626f72726f7765722063616e20777261707604c1b604482015260640161070e565b604051631c2d8fb360e31b81526e41495244524f505f464143544f525960881b60048201526000906001600160a01b0389169063e16c7d989060240160206040518083038186803b15801561327c57600080fd5b505afa158015613290573d6000803e3d6000fd5b505050506040513d601f19601f820116820180604052508101906132b491906152dc565b604051637a52a1f960e11b81529091506001600160a01b0382169063f4a543f2906132e3903090600401615b9c565b6040805180830381600087803b1580156132fc57600080fd5b505af1158015613310573d6000803e3d6000fd5b505050506040513d601f19601f820116820180604052508101906133349190615524565b60408051610160810182528c54815260018d0154602082015260028d01549181019190915260038c01546001600160a01b038082166060840152600160a01b80830463ffffffff166080850152600160c01b830461ffff90811660a0860152600160d01b90930490921660c084015260048e015480821660e0850152919091046001600160401b031661010083015260058d0154811661012083015260068d01541661014082015291985096506133ec908884613ccb565b600289015460058a0154604080519283526001600160a01b0391821660208401528201889052888116606083015283169063ffffffff8c16907fc7f9ce9d1921361882f1a6c4297e86042b75f9a6f01c6a042a492ffa32d5eda09060800160405180910390a3505050506005850180546001600160a01b0319166001600160a01b0385161790555060029093018390559391925050565b6001600160a01b0382166134d15760405162461bcd60e51b81526020600482015260156024820152746572633230206973207a65726f206164647265737360581b604482015260640161070e565b6001600160a01b038216600081815260096020908152604091829020805460ff191685151590811790915591519182527ff100355be652ecc881568750e6a98c0713e4316f75d5314ebc9039e0acb52f24910160405180910390a25050565b6135386127d7565b6000805460ff60a01b1916600160a01b1790557f62e78cea01bee320cd4e420270b5ea74000d11b0c9f74754ebdbfc544b05a2586127c03390565b63ffffffff87811660009081526004602081815260408084208151610160810183528154815260018201549381019390935260028101549183019190915260038101546001600160a01b038082166060850152600160a01b8083049097166080850152600160c01b820461ffff90811660a0860152600160d01b90920490911660c08401529281015480841660e0840152949094046001600160401b03166101008201526005840154821661012082015260068401549091166101408201528190613662908b8b8b8a7f0000000000000000000000000000000000000000000000000000000000000000613d57565b6001600160a01b03811660008181526008602090815260408083208c8452825291829020805460ff1916600117905581516080810183528b81529081018a9052908101919091526060810187905291935091506136cc9063ffffffff8c16908b908b908b906143eb565b6137235760405162461bcd60e51b815260206004820152602260248201527f52656e65676f74696174696f6e207369676e617475726520697320696e76616c6044820152611a5960f21b606482015260840161070e565b6000871561378f576003840154613746908990600160d01b900461ffff166139ae565b905061376d8383613757848c615ff5565b60038801546001600160a01b031692919061398d565b61378f836137796110d8565b60038701546001600160a01b031691908461398d565b60038401805463ffffffff60a01b1916600160a01b63ffffffff8d811691820292909217909255600186018b905560408051928352602083018c905282018a9052606082018390526001600160a01b0384811692908616918e16907f37357bed780fda5aed28c32fe9cd762cb2f2f8a70c0d9b342aba59c945943ca09060800160405180910390a45050505050505050505050565b600080546001600160a01b038381166001600160a01b0319831681178455604051919092169283917f8be0079c531659141344cd1fd0a4f28419497f9722a3daafe3b4186f6b6457e09190a35050565b60006138c9826040518060400160405280602081526020017f5361666545524332303a206c6f772d6c6576656c2063616c6c206661696c6564815250856001600160a01b03166143fb9092919063ffffffff16565b805190915015610e0957808060200190518101906138e79190615654565b610e095760405162461bcd60e51b815260206004820152602a60248201527f5361666545524332303a204552433230206f7065726174696f6e20646964206e6044820152691bdd081cdd58d8d9595960b21b606482015260840161070e565b60008060008360000151846020015161395f9190615ff5565b9050613973818560c0015161ffff166139ae565b92508284602001516139859190615ff5565b915050915091565b6107f0846323b872dd60e01b8585856040516024016118c893929190615bb0565b60006127106139bd8385615fd6565b6139c79190615fb6565b9392505050565b63ffffffff83166000908152600660209081526040808320805460ff191660019081179091556101208601516001600160a01b03168452600783528184208683015185529092528220805491929091613a28908490615ff5565b909155505060405163490b1f5360e11b815263ffffffff841660048201526001600160a01b038216906392163ea690602401600060405180830381600087803b158015613a7457600080fd5b505af1158015611348573d6000803e3d6000fd5b60e083015161012084015160408086015181516001600160a01b038781166024830152868116604483015290931660648401526084808401919091528151808403909101815260a49092018152602080830180516001600160e01b031663b030667160e01b17905281518083019092528082527f4e4654206e6f74207375636365737366756c6c79207472616e73666572726564908201526107f092919061440a565b613b33610f42565b610b625760405162461bcd60e51b815260206004820152601460248201527314185d5cd8589b194e881b9bdd081c185d5cd95960621b604482015260640161070e565b60006001600160a01b038316613b8e575060006106d9565b604051631c2d8fb360e31b8152715045524d49545445445f504152544e45525360701b60048201526000906001600160a01b0384169063e16c7d989060240160206040518083038186803b158015613be557600080fd5b505afa158015613bf9573d6000803e3d6000fd5b505050506040513d601f19601f82011682018060405250810190613c1d91906152dc565b6001600160a01b031663410ed2e5856040518263ffffffff1660e01b8152600401613c489190615b9c565b60206040518083038186803b158015613c6057600080fd5b505afa158015613c74573d6000803e3d6000fd5b505050506040513d601f19601f820116820180604052508101906107ff9190615818565b60006139c7838330614478565b6000613cb2868530613a88565b613cc0878787878787614572565b979650505050505050565b60e083015161012084015160408086015181516001600160a01b038781166024830152938416604482015260648101919091529184166084808401919091528151808403909101815260a49092018152602080830180516001600160e01b03166363bc1d5560e11b17905281516060810190925260218083526107f0949392916160c59083013961440a565b600080613d648784612095565b6000836001600160a01b031663e16c7d98306001600160a01b03166377cfa9916040518163ffffffff1660e01b815260040160206040518083038186803b158015613dae57600080fd5b505afa158015613dc2573d6000803e3d6000fd5b505050506040513d601f19601f82011682018060405250810190613de69190615670565b6040518263ffffffff1660e01b8152600401613e0491815260200190565b60206040518083038186803b158015613e1c57600080fd5b505afa158015613e30573d6000803e3d6000fd5b505050506040513d601f19601f82011682018060405250810190613e5491906152dc565b60405163e6c5a54160e01b815263ffffffff8a1660048201529091506000906001600160a01b0383169063e6c5a5419060240160606040518083038186803b158015613e9f57600080fd5b505afa158015613eb3573d6000803e3d6000fd5b505050506040513d601f19601f82011682018060405250810190613ed791906156b0565b602001516001600160401b031690506000806001600160a01b03168b61014001516001600160a01b031614613f1257506101408a0151614003565b826001600160a01b0316638208e76c6040518163ffffffff1660e01b815260040160206040518083038186803b158015613f4b57600080fd5b505afa158015613f5f573d6000803e3d6000fd5b505050506040513d601f19601f82011682018060405250810190613f8391906152dc565b6001600160a01b0316636352211e836040518263ffffffff1660e01b8152600401613fb091815260200190565b60206040518083038186803b158015613fc857600080fd5b505afa158015613fdc573d6000803e3d6000fd5b505050506040513d601f19601f8201168201806040525081019061400091906152dc565b90505b336001600160a01b0382161461405b5760405162461bcd60e51b815260206004820152601a60248201527f4f6e6c7920626f72726f7765722063616e20696e697469617465000000000000604482015260640161070e565b8863ffffffff168b61010001516001600160401b031661407b9190615f9e565b4211156140ca5760405162461bcd60e51b815260206004820152601c60248201527f4e6577206475726174696f6e20616c7265616479206578706972656400000000604482015260640161070e565b306001600160a01b031663192b355d6040518163ffffffff1660e01b815260040160206040518083038186803b15801561410357600080fd5b505afa158015614117573d6000803e3d6000fd5b505050506040513d601f19601f8201168201806040525081019061413b9190615670565b8963ffffffff1611156141a35760405162461bcd60e51b815260206004820152602a60248201527f4e6577206475726174696f6e2065786365656473206d6178696d756d206c6f616044820152693710323ab930ba34b7b760b11b606482015260840161070e565b60405163038bf9d560e11b815263ffffffff8b1660048201523090630717f3aa9060240160206040518083038186803b1580156141df57600080fd5b505afa1580156141f3573d6000803e3d6000fd5b505050506040513d601f19601f820116820180604052508101906142179190615654565b156142345760405162461bcd60e51b815260040161070e90615cdb565b8a518810156142555760405162461bcd60e51b815260040161070e90615c8e565b6000836001600160a01b0316634fbe68a06040518163ffffffff1660e01b815260040160206040518083038186803b15801561429057600080fd5b505afa1580156142a4573d6000803e3d6000fd5b505050506040513d601f19601f820116820180604052508101906142c891906152dc565b6001600160a01b0316636352211e846040518263ffffffff1660e01b81526004016142f591815260200190565b60206040518083038186803b15801561430d57600080fd5b505afa158015614321573d6000803e3d6000fd5b505050506040513d601f19601f8201168201806040525081019061434591906152dc565b604051630328404b60e41b8152909150309063328404b09061436d9084908c90600401615bd4565b60206040518083038186803b15801561438557600080fd5b505afa158015614399573d6000803e3d6000fd5b505050506040513d601f19601f820116820180604052508101906143bd9190615654565b156143da5760405162461bcd60e51b815260040161070e90615d40565b909b909a5098505050505050505050565b60006117b8868686868630614991565b60606107ff8484600085614a8b565b6060600080856001600160a01b0316856040516144279190615ac9565b600060405180830381855af49150503d8060008114614462576040519150601f19603f3d011682016040523d82523d6000602084013e614467565b606091505b50915091506117b886838387614b57565b600082602001514211156144ce5760405162461bcd60e51b815260206004820152601c60248201527f4c656e646572205369676e617475726520686173206578706972656400000000604482015260640161070e565b6001600160a01b0382166144f45760405162461bcd60e51b815260040161070e90615d12565b60408301516001600160a01b031661450e575060006139c7565b600061451985614bcd565b61452285614c8c565b84466040516020016145379493929190615ae5565b60405160208183030381529060405280519060200120905061456a846040015161456083614ccf565b8660600151614d22565b9150506139c7565b6101208501516001600160a01b03166000908152600760209081526040808320818901518452909152812080546001919083906145b0908490615f9e565b9091555050855160408601516000916145cd9161ffff1685614e72565b905060008188600001516145e19190615ff5565b90508115614603576060880151614603906001600160a01b031686868561398d565b606088015161461d906001600160a01b031686888461398d565b604051631c2d8fb360e31b81527f000000000000000000000000000000000000000000000000000000000000000060048201526000907f00000000000000000000000000000000000000000000000000000000000000006001600160a01b03169063e16c7d989060240160206040518083038186803b15801561469f57600080fd5b505afa1580156146b3573d6000803e3d6000fd5b505050506040513d601f19601f820116820180604052508101906146d791906152dc565b60405163d1f7659560e01b81529091506001600160a01b0382169063d1f76595906147089089908e90600401615bd4565b602060405180830381600087803b15801561472257600080fd5b505af1158015614736573d6000803e3d6000fd5b505050506040513d601f19601f8201168201806040525081019061475a9190615933565b935088600460008663ffffffff1663ffffffff16815260200190815260200160002060008201518160000155602082015181600101556040820151816002015560608201518160030160006101000a8154816001600160a01b0302191690836001600160a01b0316021790555060808201518160030160146101000a81548163ffffffff021916908363ffffffff16021790555060a08201518160030160186101000a81548161ffff021916908361ffff16021790555060c082015181600301601a6101000a81548161ffff021916908361ffff16021790555060e08201518160040160006101000a8154816001600160a01b0302191690836001600160a01b031602179055506101008201518160040160146101000a8154816001600160401b0302191690836001600160401b031602179055506101208201518160050160006101000a8154816001600160a01b0302191690836001600160a01b031602179055506101408201518160060160006101000a8154816001600160a01b0302191690836001600160a01b0316021790555090505087600560008663ffffffff1663ffffffff16815260200190815260200160002060008201518160000160006101000a8154816001600160a01b0302191690836001600160a01b0316021790555060208201518160000160146101000a81548161ffff021916908361ffff16021790555060408201518160000160166101000a81548161ffff021916908361ffff1602179055509050505050509695505050505050565b600082602001514211156149f35760405162461bcd60e51b815260206004820152602360248201527f52656e65676f74696174696f6e205369676e61747572652068617320657870696044820152621c995960ea1b606482015260840161070e565b6001600160a01b038216614a195760405162461bcd60e51b815260040161070e90615d12565b60408301516001600160a01b0316614a33575060006117b8565b600087878787614a4288614c8c565b8746604051602001614a5a9796959493929190615b30565b604051602081830303815290604052805190602001209050614a83846040015161456083614ccf565b9150506117b8565b606082471015614aec5760405162461bcd60e51b815260206004820152602660248201527f416464726573733a20696e73756666696369656e742062616c616e636520666f6044820152651c8818d85b1b60d21b606482015260840161070e565b600080866001600160a01b03168587604051614b089190615ac9565b60006040518083038185875af1925050503d8060008114614b45576040519150601f19603f3d011682016040523d82523d6000602084013e614b4a565b606091505b5091509150613cc0878383875b60608315614bc3578251614bbc576001600160a01b0385163b614bbc5760405162461bcd60e51b815260206004820152601d60248201527f416464726573733a2063616c6c20746f206e6f6e2d636f6e7472616374000000604482015260640161070e565b50816107ff565b6107ff8383614eac565b60608160c0015182600001518360200151846060015185604001518660e0015187608001518860a00151604051602001614c76989796959493929190606098891b6001600160601b031990811682526014820198909852603481019690965293871b86166054860152606885019290925290941b909216608882015260e09290921b6001600160e01b031916609c83015260f01b6001600160f01b03191660a082015260a20190565b6040516020818303038152906040529050919050565b6060816040015182600001518360200151604051602001614c769392919060609390931b6001600160601b03191683526014830191909152603482015260540190565b6040517f19457468657265756d205369676e6564204d6573736167653a0a3332000000006020820152603c8101829052600090605c01604051602081830303815290604052805190602001209050919050565b6000806000614d318585614ed6565b90925090506000816004811115614d5857634e487b7160e01b600052602160045260246000fd5b148015614d765750856001600160a01b0316826001600160a01b0316145b15614d86576001925050506139c7565b600080876001600160a01b0316631626ba7e60e01b8888604051602401614dae929190615c62565b60408051601f198184030181529181526020820180516001600160e01b03166001600160e01b0319909416939093179092529051614dec9190615ac9565b600060405180830381855afa9150503d8060008114614e27576040519150601f19603f3d011682016040523d82523d6000602084013e614e2c565b606091505b5091509150818015614e3f575080516020145b8015614e6657508051630b135d3f60e11b90614e649083016020908101908401615670565b145b98975050505050505050565b6000821580614e8857506001600160a01b038216155b15614e95575060006139c7565b612710614ea28486615fd6565b6107ff9190615fb6565b815115614ebc5781518083602001fd5b8060405162461bcd60e51b815260040161070e9190615c7b565b600080825160411415614f0d5760208301516040840151606085015160001a614f0187828585614f1c565b94509450505050614f15565b506000905060025b9250929050565b6000806fa2a8918ca85bafe22016d0b997e4df60600160ff1b03831115614f495750600090506003614fcd565b6040805160008082526020820180845289905260ff881692820192909252606081018690526080810185905260019060a0016020604051602081039080840390855afa158015614f9d573d6000803e3d6000fd5b5050604051601f1901519150506001600160a01b038116614fc657600060019250925050614fcd565b9150600090505b94509492505050565b6040805161016081018252600080825260208201819052918101829052606081018290526080810182905260a0810182905260c0810182905260e081018290526101008101829052610120810182905261014081019190915290565b803561503d8161607f565b919050565b600082601f830112615052578081fd5b8135602061506761506283615f7b565b615f4b565b80838252828201915082860187848660051b8901011115615086578586fd5b855b858110156150ad57813561509b81616094565b84529284019290840190600101615088565b5090979650505050505050565b60008083601f8401126150cb578182fd5b5081356001600160401b038111156150e1578182fd5b6020830191508360208260051b8501011115614f1557600080fd5b60008083601f84011261510d578182fd5b5081356001600160401b03811115615123578182fd5b602083019150836020828501011115614f1557600080fd5b600082601f83011261514b578081fd5b81356001600160401b0381111561516457615164616069565b615177601f8201601f1916602001615f4b565b81815284602083860101111561518b578283fd5b816020850160208301379081016020019190915292915050565b6000604082840312156151b6578081fd5b604051604081018181106001600160401b03821117156151d8576151d8616069565b60405290508082356151e98161607f565b815260208301356151f9816160a2565b6020919091015292915050565b600060808284031215615217578081fd5b604051608081016001600160401b03828210818311171561523a5761523a616069565b8160405282935084358352602085013560208401526040850135915061525f8261607f565b816040840152606085013591508082111561527957600080fd5b506152868582860161513b565b6060830152505092915050565b803561503d816160a2565b803561503d816160b2565b80516001600160401b038116811461503d57600080fd5b6000602082840312156152d1578081fd5b81356139c78161607f565b6000602082840312156152ed578081fd5b81516139c78161607f565b6000806040838503121561530a578081fd5b82356153158161607f565b915060208301356153258161607f565b809150509250929050565b60008060008060008060008060a0898b03121561534b578384fd5b88356153568161607f565b975060208901356153668161607f565b965060408901356001600160401b0380821115615381578586fd5b61538d8c838d016150ba565b909850965060608b01359150808211156153a5578586fd5b6153b18c838d016150ba565b909650945060808b01359150808211156153c9578384fd5b506153d68b828c016150fc565b999c989b5096995094979396929594505050565b600080600080608085870312156153ff578182fd5b843561540a8161607f565b9350602085013561541a8161607f565b92506040850135915060608501356001600160401b0381111561543b578182fd5b6154478782880161513b565b91505092959194509250565b60008060008060008060a0878903121561546b578384fd5b86356154768161607f565b955060208701356154868161607f565b9450604087013593506060870135925060808701356001600160401b038111156154ae578283fd5b6154ba89828a016150fc565b979a9699509497509295939492505050565b600080604083850312156154de578182fd5b82356154e98161607f565b9150602083013561532581616094565b6000806040838503121561550b578182fd5b82356155168161607f565b946020939093013593505050565b60008060408385031215615536578182fd5b82516155418161607f565b6020939093015192949293505050565b600080600060608486031215615565578081fd5b83356155708161607f565b92506020840135915060408401356155878161607f565b809150509250925092565b600080604083850312156155a4578182fd5b82356001600160401b03808211156155ba578384fd5b818501915085601f8301126155cd578384fd5b813560206155dd61506283615f7b565b8083825282820191508286018a848660051b89010111156155fc578889fd5b8896505b848710156156275780356156138161607f565b835260019690960195918301918301615600565b509650508601359250508082111561563d578283fd5b5061564a85828601615042565b9150509250929050565b600060208284031215615665578081fd5b81516139c781616094565b600060208284031215615681578081fd5b5051919050565b600060208284031215615699578081fd5b81356001600160e01b0319811681146139c7578182fd5b6000606082840312156156c1578081fd5b604051606081018181106001600160401b03821117156156e3576156e3616069565b60405282516156f18161607f565b81526156ff602084016152a9565b6020820152604083015160038110615715578283fd5b60408201529392505050565b6000806000838503610160811215615737578182fd5b61010080821215615746578283fd5b61574e615f22565b915085358252602086013560208301526040860135604083015261577460608701615032565b60608301526157856080870161529e565b608083015261579660a08701615293565b60a08301526157a760c08701615032565b60c08301526157b860e08701615032565b60e08301529093508401356001600160401b038111156157d6578182fd5b6157e286828701615206565b9250506157f38561012086016151a5565b90509250925092565b60006020828403121561580d578081fd5b81356139c7816160a2565b600060208284031215615829578081fd5b81516139c7816160a2565b600060208284031215615845578081fd5b5035919050565b60008060008060008060008060008060006101608c8e03121561586d578485fd5b8b519a5060208c0151995060408c0151985060608c015161588d8161607f565b60808d015190985061589e816160b2565b60a08d01519097506158af816160a2565b60c08d01519096506158c0816160a2565b60e08d01519095506158d18161607f565b93506158e06101008d016152a9565b92506101208c01516158f18161607f565b6101408d01519092506159038161607f565b809150509295989b509295989b9093969950565b600060208284031215615928578081fd5b81356139c7816160b2565b600060208284031215615944578081fd5b81516139c7816160b2565b60008060008060008060008060e0898b03121561596a578182fd5b8835615975816160b2565b975060208901356159858161607f565b965060408901356001600160401b0381111561599f578283fd5b6159ab8b828c016150fc565b90975095505060608901356159bf8161607f565b93506080890135925060a08901356159d681616094565b8092505060c089013590509295985092959890939650565b600080600080600080600060e0888a031215615a08578081fd5b8735615a13816160b2565b96506020880135615a23816160b2565b955060408801359450606088013593506080880135925060a0880135915060c08801356001600160401b03811115615a59578182fd5b615a658a828b0161513b565b91505092959891949750929550565b81835281816020850137506000828201602090810191909152601f909101601f19169091010190565b60008151808452615ab581602086016020860161600c565b601f01601f19169290920160200192915050565b60008251615adb81846020870161600c565b9190910192915050565b60008551615af7818460208a0161600c565b855190830190615b0b818360208a0161600c565b60609590951b6001600160601b03191694019384525050601482015260340192915050565b87815263ffffffff60e01b8760e01b16602082015285602482015284604482015260008451615b6681606485016020890161600c565b80830190506bffffffffffffffffffffffff198560601b1660648201528360788201526098810191505098975050505050505050565b6001600160a01b0391909116815260200190565b6001600160a01b039384168152919092166020820152604081019190915260600190565b6001600160a01b03929092168252602082015260400190565b6001600160a01b038c81168252602082018c90528a81166040830152898116606083015261014060808301819052600091615c2b8483018b8d615a74565b98811660a085015260c0840197909752505092151560e0840152610100830191909152909116610120909101529695505050505050565b8281526040602082015260006107ff6040830184615a9d565b6020815260006139c76020830184615a9d565b6020808252602d908201527f4e6567617469766520696e7465726573742072617465206c6f616e732061726560408201526c103737ba1030b63637bbb2b21760991b606082015260800190565b6020808252601e908201527f4c6f616e20616c7265616479207265706169642f6c6971756964617465640000604082015260600190565b6020808252601490820152734c6f616e206973207a65726f206164647265737360601b604082015260600190565b60208082526014908201527313195b99195c881b9bdb98d9481a5b9d985b1a5960621b604082015260600190565b6020808252818101527f4f776e61626c653a2063616c6c6572206973206e6f7420746865206f776e6572604082015260600190565b6020808252601390820152721d1bdad95b881a5cc818dbdb1b185d195c985b606a1b604082015260600190565b60006101c0820190508351825260208401516020830152604084015160408301526060840151615e0b60608401826001600160a01b03169052565b506080840151615e23608084018263ffffffff169052565b5060a0840151615e3960a084018261ffff169052565b5060c0840151615e4f60c084018261ffff169052565b5060e0840151615e6a60e08401826001600160a01b03169052565b50610100848101516001600160401b031690830152610120808501516001600160a01b039081169184019190915261014080860151821690840152835116610160830152602083015161ffff9081166101808401526040840151166101a08301526139c7565b8581526001600160a01b03858116602083015284166040820152608060608201819052600090613cc09083018486615a74565b63ffffffff9290921682526001600160a01b0316602082015260400190565b60405161010081016001600160401b0381118282101715615f4557615f45616069565b60405290565b604051601f8201601f191681016001600160401b0381118282101715615f7357615f73616069565b604052919050565b60006001600160401b03821115615f9457615f94616069565b5060051b60200190565b60008219821115615fb157615fb1616053565b500190565b600082615fd157634e487b7160e01b81526012600452602481fd5b500490565b6000816000190483118215151615615ff057615ff0616053565b500290565b60008282101561600757616007616053565b500390565b60005b8381101561602757818101518382015260200161600f565b838111156107f05750506000910152565b600060001982141561604c5761604c616053565b5060010190565b634e487b7160e01b600052601160045260246000fd5b634e487b7160e01b600052604160045260246000fd5b6001600160a01b03811681146109bb57600080fd5b80151581146109bb57600080fd5b61ffff811681146109bb57600080fd5b63ffffffff811681146109bb57600080fdfe4e465420776173206e6f74207375636365737366756c6c79206d69677261746564a264697066735822122041c675c6c6708b942a455e2716217445969d2590e2b750dda64ff5efad410afc64736f6c63430008040033",
			"opcodes": "PUSH1 0xC0 PUSH1 0x40 MSTORE PUSH4 0x1E91C80 PUSH1 0x2 SSTORE PUSH1 0x3 DUP1 SLOAD PUSH2 0xFFFF NOT AND PUSH2 0x1F4 OR SWAP1 SSTORE CALLVALUE DUP1 ISZERO PUSH3 0x28 JUMPI PUSH1 0x0 DUP1 REVERT JUMPDEST POP PUSH1 0x40 MLOAD PUSH3 0x65A1 CODESIZE SUB DUP1 PUSH3 0x65A1 DUP4 CODECOPY DUP2 ADD PUSH1 0x40 DUP2 SWAP1 MSTORE PUSH3 0x4B SWAP2 PUSH3 0x2B3 JUMP JUMPDEST DUP3 DUP3 DUP3 DUP3 DUP3 PUSH3 0x9B PUSH1 0x40 MLOAD DUP1 PUSH1 0x40 ADD PUSH1 0x40 MSTORE DUP1 PUSH1 0x17 DUP2 MSTORE PUSH1 0x20 ADD PUSH32 0x4449524543545F4C4F414E5F434F4F5244494E41544F52000000000000000000 DUP2 MSTORE POP PUSH3 0x13F PUSH1 0x20 SHL PUSH3 0x185F OR PUSH1 0x20 SHR JUMP JUMPDEST DUP4 DUP4 DUP1 PUSH3 0xA9 DUP2 PUSH3 0x18F JUMP JUMPDEST POP POP PUSH1 0x0 DUP1 SLOAD PUSH1 0xFF PUSH1 0xA0 SHL NOT AND DUP2 SSTORE PUSH1 0x1 DUP1 SSTORE PUSH1 0x1 PUSH1 0x1 PUSH1 0x60 SHL SUB NOT PUSH1 0x60 DUP6 SWAP1 SHL AND PUSH1 0xA0 MSTORE PUSH1 0x80 DUP4 SWAP1 MSTORE JUMPDEST DUP2 MLOAD DUP2 LT ISZERO PUSH3 0x12E JUMPI PUSH3 0x119 DUP3 DUP3 DUP2 MLOAD DUP2 LT PUSH3 0x103 JUMPI PUSH4 0x4E487B71 PUSH1 0xE0 SHL PUSH1 0x0 MSTORE PUSH1 0x32 PUSH1 0x4 MSTORE PUSH1 0x24 PUSH1 0x0 REVERT JUMPDEST PUSH1 0x20 MUL PUSH1 0x20 ADD ADD MLOAD PUSH1 0x1 PUSH3 0x1DF PUSH1 0x20 SHL PUSH1 0x20 SHR JUMP JUMPDEST DUP1 PUSH3 0x125 DUP2 PUSH3 0x3AF JUMP JUMPDEST SWAP2 POP POP PUSH3 0xD4 JUMP JUMPDEST POP POP POP POP POP POP POP POP POP POP POP PUSH3 0x3ED JUMP JUMPDEST PUSH1 0x0 PUSH1 0x20 DUP3 MLOAD GT ISZERO PUSH3 0x187 JUMPI PUSH1 0x40 MLOAD PUSH3 0x461BCD PUSH1 0xE5 SHL DUP2 MSTORE PUSH1 0x20 PUSH1 0x4 DUP3 ADD MSTORE PUSH1 0xB PUSH1 0x24 DUP3 ADD MSTORE PUSH11 0x696E76616C6964206B6579 PUSH1 0xA8 SHL PUSH1 0x44 DUP3 ADD MSTORE PUSH1 0x64 ADD JUMPDEST PUSH1 0x40 MLOAD DUP1 SWAP2 SUB SWAP1 REVERT JUMPDEST POP PUSH1 0x20 ADD MLOAD SWAP1 JUMP JUMPDEST PUSH1 0x0 DUP1 SLOAD PUSH1 0x1 PUSH1 0x1 PUSH1 0xA0 SHL SUB DUP4 DUP2 AND PUSH1 0x1 PUSH1 0x1 PUSH1 0xA0 SHL SUB NOT DUP4 AND DUP2 OR DUP5 SSTORE PUSH1 0x40 MLOAD SWAP2 SWAP1 SWAP3 AND SWAP3 DUP4 SWAP2 PUSH32 0x8BE0079C531659141344CD1FD0A4F28419497F9722A3DAAFE3B4186F6B6457E0 SWAP2 SWAP1 LOG3 POP POP JUMP JUMPDEST PUSH1 0x1 PUSH1 0x1 PUSH1 0xA0 SHL SUB DUP3 AND PUSH3 0x237 JUMPI PUSH1 0x40 MLOAD PUSH3 0x461BCD PUSH1 0xE5 SHL DUP2 MSTORE PUSH1 0x20 PUSH1 0x4 DUP3 ADD MSTORE PUSH1 0x15 PUSH1 0x24 DUP3 ADD MSTORE PUSH32 0x6572633230206973207A65726F20616464726573730000000000000000000000 PUSH1 0x44 DUP3 ADD MSTORE PUSH1 0x64 ADD PUSH3 0x17E JUMP JUMPDEST PUSH1 0x1 PUSH1 0x1 PUSH1 0xA0 SHL SUB DUP3 AND PUSH1 0x0 DUP2 DUP2 MSTORE PUSH1 0x9 PUSH1 0x20 SWAP1 DUP2 MSTORE PUSH1 0x40 SWAP2 DUP3 SWAP1 KECCAK256 DUP1 SLOAD PUSH1 0xFF NOT AND DUP6 ISZERO ISZERO SWAP1 DUP2 OR SWAP1 SWAP2 SSTORE SWAP2 MLOAD SWAP2 DUP3 MSTORE PUSH32 0xF100355BE652ECC881568750E6A98C0713E4316F75D5314EBC9039E0ACB52F24 SWAP2 ADD PUSH1 0x40 MLOAD DUP1 SWAP2 SUB SWAP1 LOG2 POP POP JUMP JUMPDEST DUP1 MLOAD PUSH1 0x1 PUSH1 0x1 PUSH1 0xA0 SHL SUB DUP2 AND DUP2 EQ PUSH3 0x2AE JUMPI PUSH1 0x0 DUP1 REVERT JUMPDEST SWAP2 SWAP1 POP JUMP JUMPDEST PUSH1 0x0 DUP1 PUSH1 0x0 PUSH1 0x60 DUP5 DUP7 SUB SLT ISZERO PUSH3 0x2C8 JUMPI DUP3 DUP4 REVERT JUMPDEST PUSH3 0x2D3 DUP5 PUSH3 0x296 JUMP JUMPDEST SWAP3 POP PUSH1 0x20 PUSH3 0x2E4 DUP2 DUP7 ADD PUSH3 0x296 JUMP JUMPDEST PUSH1 0x40 DUP7 ADD MLOAD SWAP1 SWAP4 POP PUSH1 0x1 PUSH1 0x1 PUSH1 0x40 SHL SUB DUP1 DUP3 GT ISZERO PUSH3 0x301 JUMPI DUP4 DUP5 REVERT JUMPDEST DUP2 DUP8 ADD SWAP2 POP DUP8 PUSH1 0x1F DUP4 ADD SLT PUSH3 0x315 JUMPI DUP4 DUP5 REVERT JUMPDEST DUP2 MLOAD DUP2 DUP2 GT ISZERO PUSH3 0x32A JUMPI PUSH3 0x32A PUSH3 0x3D7 JUMP JUMPDEST DUP1 PUSH1 0x5 SHL PUSH1 0x40 MLOAD PUSH1 0x1F NOT PUSH1 0x3F DUP4 ADD AND DUP2 ADD DUP2 DUP2 LT DUP6 DUP3 GT OR ISZERO PUSH3 0x352 JUMPI PUSH3 0x352 PUSH3 0x3D7 JUMP JUMPDEST PUSH1 0x40 MSTORE DUP3 DUP2 MSTORE DUP6 DUP2 ADD SWAP4 POP DUP5 DUP7 ADD DUP3 DUP7 ADD DUP8 ADD DUP13 LT ISZERO PUSH3 0x371 JUMPI DUP8 DUP9 REVERT JUMPDEST DUP8 SWAP6 POP JUMPDEST DUP4 DUP7 LT ISZERO PUSH3 0x39E JUMPI PUSH3 0x389 DUP2 PUSH3 0x296 JUMP JUMPDEST DUP6 MSTORE PUSH1 0x1 SWAP6 SWAP1 SWAP6 ADD SWAP5 SWAP4 DUP7 ADD SWAP4 DUP7 ADD PUSH3 0x375 JUMP JUMPDEST POP DUP1 SWAP7 POP POP POP POP POP POP POP SWAP3 POP SWAP3 POP SWAP3 JUMP JUMPDEST PUSH1 0x0 PUSH1 0x0 NOT DUP3 EQ ISZERO PUSH3 0x3D0 JUMPI PUSH4 0x4E487B71 PUSH1 0xE0 SHL DUP2 MSTORE PUSH1 0x11 PUSH1 0x4 MSTORE PUSH1 0x24 DUP2 REVERT JUMPDEST POP PUSH1 0x1 ADD SWAP1 JUMP JUMPDEST PUSH4 0x4E487B71 PUSH1 0xE0 SHL PUSH1 0x0 MSTORE PUSH1 0x41 PUSH1 0x4 MSTORE PUSH1 0x24 PUSH1 0x0 REVERT JUMPDEST PUSH1 0x80 MLOAD PUSH1 0xA0 MLOAD PUSH1 0x60 SHR PUSH2 0x611B PUSH3 0x486 PUSH1 0x0 CODECOPY PUSH1 0x0 DUP2 DUP2 PUSH2 0x46B ADD MSTORE DUP2 DUP2 PUSH2 0x8DC ADD MSTORE DUP2 DUP2 PUSH2 0x9CC ADD MSTORE DUP2 DUP2 PUSH2 0xAF3 ADD MSTORE DUP2 DUP2 PUSH2 0xE1C ADD MSTORE DUP2 DUP2 PUSH2 0xED3 ADD MSTORE DUP2 DUP2 PUSH2 0x135F ADD MSTORE DUP2 DUP2 PUSH2 0x169B ADD MSTORE DUP2 DUP2 PUSH2 0x1B1A ADD MSTORE DUP2 DUP2 PUSH2 0x2848 ADD MSTORE DUP2 DUP2 PUSH2 0x2C80 ADD MSTORE DUP2 DUP2 PUSH2 0x2DB1 ADD MSTORE DUP2 DUP2 PUSH2 0x363E ADD MSTORE PUSH2 0x4655 ADD MSTORE PUSH1 0x0 DUP2 DUP2 PUSH2 0x53A ADD MSTORE DUP2 DUP2 PUSH2 0x1672 ADD MSTORE DUP2 DUP2 PUSH2 0x1AF1 ADD MSTORE PUSH2 0x462C ADD MSTORE PUSH2 0x611B PUSH1 0x0 RETURN INVALID PUSH1 0x80 PUSH1 0x40 MSTORE CALLVALUE DUP1 ISZERO PUSH2 0x10 JUMPI PUSH1 0x0 DUP1 REVERT JUMPDEST POP PUSH1 0x4 CALLDATASIZE LT PUSH2 0x1DC JUMPI PUSH1 0x0 CALLDATALOAD PUSH1 0xE0 SHR DUP1 PUSH4 0x616693D8 GT PUSH2 0x105 JUMPI DUP1 PUSH4 0xA4441A6F GT PUSH2 0x9D JUMPI DUP1 PUSH4 0xA4441A6F EQ PUSH2 0x5D1 JUMPI DUP1 PUSH4 0xAB3B1280 EQ PUSH2 0x5DF JUMPI DUP1 PUSH4 0xAC4E35EA EQ PUSH2 0x608 JUMPI DUP1 PUSH4 0xB18E7772 EQ PUSH2 0x61B JUMPI DUP1 PUSH4 0xB31EC1D4 EQ PUSH2 0x62E JUMPI DUP1 PUSH4 0xBC197C81 EQ PUSH2 0x641 JUMPI DUP1 PUSH4 0xBCE42E42 EQ PUSH2 0x654 JUMPI DUP1 PUSH4 0xF23A6E61 EQ PUSH2 0x667 JUMPI DUP1 PUSH4 0xF2FDE38B EQ PUSH2 0x67A JUMPI PUSH1 0x0 DUP1 REVERT JUMPDEST DUP1 PUSH4 0x616693D8 EQ PUSH2 0x4F6 JUMPI DUP1 PUSH4 0x6ED93DD0 EQ PUSH2 0x519 JUMPI DUP1 PUSH4 0x77CFA991 EQ PUSH2 0x535 JUMPI DUP1 PUSH4 0x7836BAF1 EQ PUSH2 0x55C JUMPI DUP1 PUSH4 0x79B64040 EQ PUSH2 0x56F JUMPI DUP1 PUSH4 0x8456CB59 EQ PUSH2 0x582 JUMPI DUP1 PUSH4 0x872873BE EQ PUSH2 0x58A JUMPI DUP1 PUSH4 0x8DA5CB5B EQ PUSH2 0x5B6 JUMPI DUP1 PUSH4 0x9658E405 EQ PUSH2 0x5BE JUMPI PUSH1 0x0 DUP1 REVERT JUMPDEST DUP1 PUSH4 0x318DACD3 GT PUSH2 0x178 JUMPI DUP1 PUSH4 0x318DACD3 EQ PUSH2 0x41A JUMPI DUP1 PUSH4 0x328404B0 EQ PUSH2 0x42D JUMPI DUP1 PUSH4 0x365A86FC EQ PUSH2 0x466 JUMPI DUP1 PUSH4 0x3F4BA83A EQ PUSH2 0x49A JUMPI DUP1 PUSH4 0x47948D92 EQ PUSH2 0x4A2 JUMPI DUP1 PUSH4 0x5163A1C3 EQ PUSH2 0x4B5 JUMPI DUP1 PUSH4 0x56EFE98C EQ PUSH2 0x4C8 JUMPI DUP1 PUSH4 0x59A72734 EQ PUSH2 0x4DB JUMPI DUP1 PUSH4 0x5C975ABB EQ PUSH2 0x4EE JUMPI PUSH1 0x0 DUP1 REVERT JUMPDEST DUP1 PUSH4 0x1FFC9A7 EQ PUSH2 0x1E1 JUMPI DUP1 PUSH4 0x5B406CF EQ PUSH2 0x209 JUMPI DUP1 PUSH4 0x717F3AA EQ PUSH2 0x21E JUMPI DUP1 PUSH4 0xFF81C3F EQ PUSH2 0x241 JUMPI DUP1 PUSH4 0x150B7A02 EQ PUSH2 0x2AB JUMPI DUP1 PUSH4 0x192B355D EQ PUSH2 0x2D7 JUMPI DUP1 PUSH4 0x1C6CAF41 EQ PUSH2 0x2EE JUMPI DUP1 PUSH4 0x227CDA18 EQ PUSH2 0x301 JUMPI DUP1 PUSH4 0x2B218022 EQ PUSH2 0x407 JUMPI JUMPDEST PUSH1 0x0 DUP1 REVERT JUMPDEST PUSH2 0x1F4 PUSH2 0x1EF CALLDATASIZE PUSH1 0x4 PUSH2 0x5688 JUMP JUMPDEST PUSH2 0x68D JUMP JUMPDEST PUSH1 0x40 MLOAD SWAP1 ISZERO ISZERO DUP2 MSTORE PUSH1 0x20 ADD JUMPDEST PUSH1 0x40 MLOAD DUP1 SWAP2 SUB SWAP1 RETURN JUMPDEST PUSH2 0x21C PUSH2 0x217 CALLDATASIZE PUSH1 0x4 PUSH2 0x52F8 JUMP JUMPDEST PUSH2 0x6DF JUMP JUMPDEST STOP JUMPDEST PUSH2 0x1F4 PUSH2 0x22C CALLDATASIZE PUSH1 0x4 PUSH2 0x5917 JUMP JUMPDEST PUSH1 0x6 PUSH1 0x20 MSTORE PUSH1 0x0 SWAP1 DUP2 MSTORE PUSH1 0x40 SWAP1 KECCAK256 SLOAD PUSH1 0xFF AND DUP2 JUMP JUMPDEST PUSH2 0x281 PUSH2 0x24F CALLDATASIZE PUSH1 0x4 PUSH2 0x5917 JUMP JUMPDEST PUSH1 0x5 PUSH1 0x20 MSTORE PUSH1 0x0 SWAP1 DUP2 MSTORE PUSH1 0x40 SWAP1 KECCAK256 SLOAD PUSH1 0x1 PUSH1 0x1 PUSH1 0xA0 SHL SUB DUP2 AND SWAP1 PUSH2 0xFFFF PUSH1 0x1 PUSH1 0xA0 SHL DUP3 DIV DUP2 AND SWAP2 PUSH1 0x1 PUSH1 0xB0 SHL SWAP1 DIV AND DUP4 JUMP JUMPDEST PUSH1 0x40 DUP1 MLOAD PUSH1 0x1 PUSH1 0x1 PUSH1 0xA0 SHL SUB SWAP1 SWAP5 AND DUP5 MSTORE PUSH2 0xFFFF SWAP3 DUP4 AND PUSH1 0x20 DUP6 ADD MSTORE SWAP2 AND SWAP1 DUP3 ADD MSTORE PUSH1 0x60 ADD PUSH2 0x200 JUMP JUMPDEST PUSH2 0x2BE PUSH2 0x2B9 CALLDATASIZE PUSH1 0x4 PUSH2 0x53EA JUMP JUMPDEST PUSH2 0x7F6 JUMP JUMPDEST PUSH1 0x40 MLOAD PUSH1 0x1 PUSH1 0x1 PUSH1 0xE0 SHL SUB NOT SWAP1 SWAP2 AND DUP2 MSTORE PUSH1 0x20 ADD PUSH2 0x200 JUMP JUMPDEST PUSH2 0x2E0 PUSH1 0x2 SLOAD DUP2 JUMP JUMPDEST PUSH1 0x40 MLOAD SWAP1 DUP2 MSTORE PUSH1 0x20 ADD PUSH2 0x200 JUMP JUMPDEST PUSH2 0x21C PUSH2 0x2FC CALLDATASIZE PUSH1 0x4 PUSH2 0x57FC JUMP JUMPDEST PUSH2 0x807 JUMP JUMPDEST PUSH2 0x393 PUSH2 0x30F CALLDATASIZE PUSH1 0x4 PUSH2 0x5917 JUMP JUMPDEST PUSH1 0x4 PUSH1 0x20 DUP2 SWAP1 MSTORE PUSH1 0x0 SWAP2 DUP3 MSTORE PUSH1 0x40 SWAP1 SWAP2 KECCAK256 DUP1 SLOAD PUSH1 0x1 DUP3 ADD SLOAD PUSH1 0x2 DUP4 ADD SLOAD PUSH1 0x3 DUP5 ADD SLOAD SWAP5 DUP5 ADD SLOAD PUSH1 0x5 DUP6 ADD SLOAD PUSH1 0x6 SWAP1 SWAP6 ADD SLOAD SWAP4 SWAP6 SWAP3 SWAP5 SWAP2 SWAP4 PUSH1 0x1 PUSH1 0x1 PUSH1 0xA0 SHL SUB DUP1 DUP6 AND SWAP5 PUSH1 0x1 PUSH1 0xA0 SHL DUP1 DUP3 DIV PUSH4 0xFFFFFFFF AND SWAP6 PUSH1 0x1 PUSH1 0xC0 SHL DUP4 DIV PUSH2 0xFFFF SWAP1 DUP2 AND SWAP7 PUSH1 0x1 PUSH1 0xD0 SHL SWAP1 SWAP5 DIV AND SWAP5 DUP5 DUP5 AND SWAP5 SWAP3 SWAP1 SWAP4 DIV PUSH1 0x1 PUSH1 0x1 PUSH1 0x40 SHL SUB AND SWAP3 SWAP1 DUP3 AND SWAP2 AND DUP12 JUMP JUMPDEST PUSH1 0x40 DUP1 MLOAD SWAP12 DUP13 MSTORE PUSH1 0x20 DUP13 ADD SWAP11 SWAP1 SWAP11 MSTORE SWAP9 DUP11 ADD SWAP8 SWAP1 SWAP8 MSTORE PUSH1 0x1 PUSH1 0x1 PUSH1 0xA0 SHL SUB SWAP6 DUP7 AND PUSH1 0x60 DUP11 ADD MSTORE PUSH4 0xFFFFFFFF SWAP1 SWAP5 AND PUSH1 0x80 DUP10 ADD MSTORE PUSH2 0xFFFF SWAP3 DUP4 AND PUSH1 0xA0 DUP10 ADD MSTORE SWAP2 AND PUSH1 0xC0 DUP8 ADD MSTORE DUP3 AND PUSH1 0xE0 DUP7 ADD MSTORE PUSH1 0x1 PUSH1 0x1 PUSH1 0x40 SHL SUB AND PUSH2 0x100 DUP6 ADD MSTORE SWAP1 DUP2 AND PUSH2 0x120 DUP5 ADD MSTORE AND PUSH2 0x140 DUP3 ADD MSTORE PUSH2 0x160 ADD PUSH2 0x200 JUMP JUMPDEST PUSH2 0x21C PUSH2 0x415 CALLDATASIZE PUSH1 0x4 PUSH2 0x5917 JUMP JUMPDEST PUSH2 0x8CE JUMP JUMPDEST PUSH2 0x21C PUSH2 0x428 CALLDATASIZE PUSH1 0x4 PUSH2 0x594F JUMP JUMPDEST PUSH2 0x9BE JUMP JUMPDEST PUSH2 0x1F4 PUSH2 0x43B CALLDATASIZE PUSH1 0x4 PUSH2 0x54F9 JUMP JUMPDEST PUSH1 0x1 PUSH1 0x1 PUSH1 0xA0 SHL SUB SWAP2 SWAP1 SWAP2 AND PUSH1 0x0 SWAP1 DUP2 MSTORE PUSH1 0x8 PUSH1 0x20 SWAP1 DUP2 MSTORE PUSH1 0x40 DUP1 DUP4 KECCAK256 SWAP4 DUP4 MSTORE SWAP3 SWAP1 MSTORE KECCAK256 SLOAD PUSH1 0xFF AND SWAP1 JUMP JUMPDEST PUSH2 0x48D PUSH32 0x0 DUP2 JUMP JUMPDEST PUSH1 0x40 MLOAD PUSH2 0x200 SWAP2 SWAP1 PUSH2 0x5B9C JUMP JUMPDEST PUSH2 0x21C PUSH2 0xB2B JUMP JUMPDEST PUSH2 0x21C PUSH2 0x4B0 CALLDATASIZE PUSH1 0x4 PUSH2 0x5834 JUMP JUMPDEST PUSH2 0xB64 JUMP JUMPDEST PUSH2 0x21C PUSH2 0x4C3 CALLDATASIZE PUSH1 0x4 PUSH2 0x5551 JUMP JUMPDEST PUSH2 0xC15 JUMP JUMPDEST PUSH2 0x21C PUSH2 0x4D6 CALLDATASIZE PUSH1 0x4 PUSH2 0x5721 JUMP JUMPDEST PUSH2 0xDA5 JUMP JUMPDEST PUSH2 0x21C PUSH2 0x4E9 CALLDATASIZE PUSH1 0x4 PUSH2 0x5917 JUMP JUMPDEST PUSH2 0xE0E JUMP JUMPDEST PUSH2 0x1F4 PUSH2 0xF42 JUMP JUMPDEST PUSH26 0x4449524543545F4C4F414E5F46495845445F52454445504C4F59 PUSH1 0x30 SHL PUSH2 0x2E0 JUMP JUMPDEST PUSH2 0x522 PUSH2 0x2710 DUP2 JUMP JUMPDEST PUSH1 0x40 MLOAD PUSH2 0xFFFF SWAP1 SWAP2 AND DUP2 MSTORE PUSH1 0x20 ADD PUSH2 0x200 JUMP JUMPDEST PUSH2 0x2E0 PUSH32 0x0 DUP2 JUMP JUMPDEST PUSH2 0x21C PUSH2 0x56A CALLDATASIZE PUSH1 0x4 PUSH2 0x54CC JUMP JUMPDEST PUSH2 0xF52 JUMP JUMPDEST PUSH2 0x21C PUSH2 0x57D CALLDATASIZE PUSH1 0x4 PUSH2 0x5592 JUMP JUMPDEST PUSH2 0xF8F JUMP JUMPDEST PUSH2 0x21C PUSH2 0x10A1 JUMP JUMPDEST PUSH2 0x1F4 PUSH2 0x598 CALLDATASIZE PUSH1 0x4 PUSH2 0x52C0 JUMP JUMPDEST PUSH1 0x1 PUSH1 0x1 PUSH1 0xA0 SHL SUB AND PUSH1 0x0 SWAP1 DUP2 MSTORE PUSH1 0x9 PUSH1 0x20 MSTORE PUSH1 0x40 SWAP1 KECCAK256 SLOAD PUSH1 0xFF AND SWAP1 JUMP JUMPDEST PUSH2 0x48D PUSH2 0x10D8 JUMP JUMPDEST PUSH2 0x21C PUSH2 0x5CC CALLDATASIZE PUSH1 0x4 PUSH2 0x5834 JUMP JUMPDEST PUSH2 0x10E7 JUMP JUMPDEST PUSH1 0x3 SLOAD PUSH2 0x522 SWAP1 PUSH2 0xFFFF AND DUP2 JUMP JUMPDEST PUSH2 0x2E0 PUSH2 0x5ED CALLDATASIZE PUSH1 0x4 PUSH2 0x5917 JUMP JUMPDEST PUSH4 0xFFFFFFFF AND PUSH1 0x0 SWAP1 DUP2 MSTORE PUSH1 0x4 PUSH1 0x20 MSTORE PUSH1 0x40 SWAP1 KECCAK256 PUSH1 0x1 ADD SLOAD SWAP1 JUMP JUMPDEST PUSH2 0x21C PUSH2 0x616 CALLDATASIZE PUSH1 0x4 PUSH2 0x5551 JUMP JUMPDEST PUSH2 0x1168 JUMP JUMPDEST PUSH2 0x21C PUSH2 0x629 CALLDATASIZE PUSH1 0x4 PUSH2 0x59EE JUMP JUMPDEST PUSH2 0x1320 JUMP JUMPDEST PUSH2 0x21C PUSH2 0x63C CALLDATASIZE PUSH1 0x4 PUSH2 0x5917 JUMP JUMPDEST PUSH2 0x1351 JUMP JUMPDEST PUSH2 0x2BE PUSH2 0x64F CALLDATASIZE PUSH1 0x4 PUSH2 0x5330 JUMP JUMPDEST PUSH2 0x15A3 JUMP JUMPDEST PUSH2 0x21C PUSH2 0x662 CALLDATASIZE PUSH1 0x4 PUSH2 0x5917 JUMP JUMPDEST PUSH2 0x15EE JUMP JUMPDEST PUSH2 0x2BE PUSH2 0x675 CALLDATASIZE PUSH1 0x4 PUSH2 0x5453 JUMP JUMPDEST PUSH2 0x17AF JUMP JUMPDEST PUSH2 0x21C PUSH2 0x688 CALLDATASIZE PUSH1 0x4 PUSH2 0x52C0 JUMP JUMPDEST PUSH2 0x17C2 JUMP JUMPDEST PUSH1 0x0 PUSH1 0x1 PUSH1 0x1 PUSH1 0xE0 SHL SUB NOT DUP3 AND PUSH4 0x2711897 PUSH1 0xE5 SHL EQ DUP1 PUSH2 0x6BE JUMPI POP PUSH1 0x1 PUSH1 0x1 PUSH1 0xE0 SHL SUB NOT DUP3 AND PUSH4 0xA85BD01 PUSH1 0xE1 SHL EQ JUMPDEST DUP1 PUSH2 0x6D9 JUMPI POP PUSH1 0x1 PUSH1 0x1 PUSH1 0xE0 SHL SUB NOT DUP3 AND PUSH4 0x1FFC9A7 PUSH1 0xE0 SHL EQ JUMPDEST SWAP3 SWAP2 POP POP JUMP JUMPDEST CALLER PUSH2 0x6E8 PUSH2 0x10D8 JUMP JUMPDEST PUSH1 0x1 PUSH1 0x1 PUSH1 0xA0 SHL SUB AND EQ PUSH2 0x717 JUMPI PUSH1 0x40 MLOAD PUSH3 0x461BCD PUSH1 0xE5 SHL DUP2 MSTORE PUSH1 0x4 ADD PUSH2 0x70E SWAP1 PUSH2 0x5D6E JUMP JUMPDEST PUSH1 0x40 MLOAD DUP1 SWAP2 SUB SWAP1 REVERT JUMPDEST PUSH1 0x40 MLOAD PUSH4 0x70A08231 PUSH1 0xE0 SHL DUP2 MSTORE DUP3 SWAP1 PUSH1 0x0 SWAP1 PUSH1 0x1 PUSH1 0x1 PUSH1 0xA0 SHL SUB DUP4 AND SWAP1 PUSH4 0x70A08231 SWAP1 PUSH2 0x748 SWAP1 ADDRESS SWAP1 PUSH1 0x4 ADD PUSH2 0x5B9C JUMP JUMPDEST PUSH1 0x20 PUSH1 0x40 MLOAD DUP1 DUP4 SUB DUP2 DUP7 DUP1 EXTCODESIZE ISZERO DUP1 ISZERO PUSH2 0x760 JUMPI PUSH1 0x0 DUP1 REVERT JUMPDEST POP GAS STATICCALL ISZERO DUP1 ISZERO PUSH2 0x774 JUMPI RETURNDATASIZE PUSH1 0x0 DUP1 RETURNDATACOPY RETURNDATASIZE PUSH1 0x0 REVERT JUMPDEST POP POP POP POP PUSH1 0x40 MLOAD RETURNDATASIZE PUSH1 0x1F NOT PUSH1 0x1F DUP3 ADD AND DUP3 ADD DUP1 PUSH1 0x40 MSTORE POP DUP2 ADD SWAP1 PUSH2 0x798 SWAP2 SWAP1 PUSH2 0x5670 JUMP JUMPDEST SWAP1 POP PUSH1 0x0 DUP2 GT PUSH2 0x7DC JUMPI PUSH1 0x40 MLOAD PUSH3 0x461BCD PUSH1 0xE5 SHL DUP2 MSTORE PUSH1 0x20 PUSH1 0x4 DUP3 ADD MSTORE PUSH1 0xF PUSH1 0x24 DUP3 ADD MSTORE PUSH15 0x1B9BC81D1BDAD95B9CC81BDDDB9959 PUSH1 0x8A SHL PUSH1 0x44 DUP3 ADD MSTORE PUSH1 0x64 ADD PUSH2 0x70E JUMP JUMPDEST PUSH2 0x7F0 PUSH1 0x1 PUSH1 0x1 PUSH1 0xA0 SHL SUB DUP4 AND DUP5 DUP4 PUSH2 0x18A9 JUMP JUMPDEST POP POP POP POP JUMP JUMPDEST PUSH4 0xA85BD01 PUSH1 0xE1 SHL JUMPDEST SWAP5 SWAP4 POP POP POP POP JUMP JUMPDEST CALLER PUSH2 0x810 PUSH2 0x10D8 JUMP JUMPDEST PUSH1 0x1 PUSH1 0x1 PUSH1 0xA0 SHL SUB AND EQ PUSH2 0x836 JUMPI PUSH1 0x40 MLOAD PUSH3 0x461BCD PUSH1 0xE5 SHL DUP2 MSTORE PUSH1 0x4 ADD PUSH2 0x70E SWAP1 PUSH2 0x5D6E JUMP JUMPDEST PUSH2 0x2710 PUSH2 0xFFFF DUP3 AND GT ISZERO PUSH2 0x883 JUMPI PUSH1 0x40 MLOAD PUSH3 0x461BCD PUSH1 0xE5 SHL DUP2 MSTORE PUSH1 0x20 PUSH1 0x4 DUP3 ADD MSTORE PUSH1 0x14 PUSH1 0x24 DUP3 ADD MSTORE PUSH20 0x626173697320706F696E7473203E20313030303 PUSH1 0x64 SHL PUSH1 0x44 DUP3 ADD MSTORE PUSH1 0x64 ADD PUSH2 0x70E JUMP JUMPDEST PUSH1 0x3 DUP1 SLOAD PUSH2 0xFFFF NOT AND PUSH2 0xFFFF DUP4 AND SWAP1 DUP2 OR SWAP1 SWAP2 SSTORE PUSH1 0x40 MLOAD SWAP1 DUP2 MSTORE PUSH32 0x3017365BBE16943B524030DF07E7689168AB63E854D27417498E6F9DC584DAB SWAP1 PUSH1 0x20 ADD JUMPDEST PUSH1 0x40 MLOAD DUP1 SWAP2 SUB SWAP1 LOG1 POP JUMP JUMPDEST PUSH2 0x8D6 PUSH2 0x18FF JUMP JUMPDEST PUSH2 0x900 DUP2 PUSH32 0x0 PUSH2 0x1959 JUMP JUMPDEST PUSH1 0x0 DUP1 PUSH1 0x0 DUP1 PUSH2 0x90F DUP6 PUSH2 0x1AD7 JUMP JUMPDEST SWAP4 POP SWAP4 POP SWAP4 POP SWAP4 POP PUSH2 0x923 DUP6 DUP6 DUP6 DUP6 PUSH2 0x1EEB JUMP JUMPDEST PUSH2 0x92F DUP6 DUP6 DUP5 DUP5 PUSH2 0x207F JUMP JUMPDEST POP POP POP PUSH4 0xFFFFFFFF DUP3 AND PUSH1 0x0 SWAP1 DUP2 MSTORE PUSH1 0x4 PUSH1 0x20 DUP2 DUP2 MSTORE PUSH1 0x40 DUP1 DUP5 KECCAK256 DUP5 DUP2 SSTORE PUSH1 0x1 DUP2 ADD DUP6 SWAP1 SSTORE PUSH1 0x2 DUP2 ADD DUP6 SWAP1 SSTORE PUSH1 0x3 DUP2 ADD DUP1 SLOAD PUSH1 0x1 PUSH1 0x1 PUSH1 0xE0 SHL SUB NOT SWAP1 DUP2 AND SWAP1 SWAP2 SSTORE SWAP4 DUP2 ADD DUP1 SLOAD SWAP1 SWAP5 AND SWAP1 SWAP4 SSTORE PUSH1 0x5 DUP1 DUP5 ADD DUP1 SLOAD PUSH1 0x1 PUSH1 0x1 PUSH1 0xA0 SHL SUB NOT SWAP1 DUP2 AND SWAP1 SWAP2 SSTORE PUSH1 0x6 SWAP1 SWAP5 ADD DUP1 SLOAD SWAP1 SWAP5 AND SWAP1 SWAP4 SSTORE SWAP2 SWAP1 MSTORE SWAP1 KECCAK256 DUP1 SLOAD PUSH1 0x1 PUSH1 0x1 PUSH1 0xC0 SHL SUB NOT AND SWAP1 SSTORE POP PUSH2 0x9BB PUSH1 0x1 DUP1 SSTORE JUMP JUMPDEST POP JUMP JUMPDEST PUSH2 0x9C6 PUSH2 0x18FF JUMP JUMPDEST PUSH2 0x9F0 DUP9 PUSH32 0x0 PUSH2 0x2095 JUMP JUMPDEST PUSH4 0xFFFFFFFF DUP9 AND PUSH1 0x0 SWAP1 DUP2 MSTORE PUSH1 0x6 PUSH1 0x20 MSTORE PUSH1 0x40 SWAP1 KECCAK256 SLOAD PUSH1 0xFF AND ISZERO PUSH2 0xA26 JUMPI PUSH1 0x40 MLOAD PUSH3 0x461BCD PUSH1 0xE5 SHL DUP2 MSTORE PUSH1 0x4 ADD PUSH2 0x70E SWAP1 PUSH2 0x5CDB JUMP JUMPDEST PUSH4 0xFFFFFFFF DUP9 DUP2 AND PUSH1 0x0 SWAP1 DUP2 MSTORE PUSH1 0x4 PUSH1 0x20 DUP2 DUP2 MSTORE PUSH1 0x40 SWAP3 DUP4 SWAP1 KECCAK256 DUP4 MLOAD PUSH2 0x160 DUP2 ADD DUP6 MSTORE DUP2 SLOAD DUP2 MSTORE PUSH1 0x1 DUP3 ADD SLOAD SWAP3 DUP2 ADD SWAP3 SWAP1 SWAP3 MSTORE PUSH1 0x2 DUP2 ADD SLOAD SWAP4 DUP3 ADD SWAP4 SWAP1 SWAP4 MSTORE PUSH1 0x3 DUP4 ADD SLOAD PUSH1 0x1 PUSH1 0x1 PUSH1 0xA0 SHL SUB DUP1 DUP3 AND PUSH1 0x60 DUP5 ADD MSTORE PUSH1 0x1 PUSH1 0xA0 SHL DUP1 DUP4 DIV SWAP1 SWAP7 AND PUSH1 0x80 DUP5 ADD MSTORE PUSH1 0x1 PUSH1 0xC0 SHL DUP3 DIV PUSH2 0xFFFF SWAP1 DUP2 AND PUSH1 0xA0 DUP6 ADD MSTORE PUSH1 0x1 PUSH1 0xD0 SHL SWAP1 SWAP3 DIV SWAP1 SWAP2 AND PUSH1 0xC0 DUP4 ADD MSTORE SWAP2 DUP4 ADD SLOAD DUP1 DUP4 AND PUSH1 0xE0 DUP4 ADD MSTORE SWAP4 SWAP1 SWAP4 DIV PUSH1 0x1 PUSH1 0x1 PUSH1 0x40 SHL SUB AND PUSH2 0x100 DUP5 ADD MSTORE PUSH1 0x5 DUP3 ADD SLOAD DUP2 AND PUSH2 0x120 DUP5 ADD MSTORE PUSH1 0x6 SWAP1 SWAP2 ADD SLOAD AND PUSH2 0x140 DUP3 ADD MSTORE PUSH2 0xB17 DUP10 DUP3 DUP11 DUP11 DUP11 DUP11 DUP11 DUP11 DUP11 PUSH32 0x0 PUSH2 0x223D JUMP JUMPDEST POP PUSH2 0xB21 PUSH1 0x1 DUP1 SSTORE JUMP JUMPDEST POP POP POP POP POP POP POP POP JUMP JUMPDEST CALLER PUSH2 0xB34 PUSH2 0x10D8 JUMP JUMPDEST PUSH1 0x1 PUSH1 0x1 PUSH1 0xA0 SHL SUB AND EQ PUSH2 0xB5A JUMPI PUSH1 0x40 MLOAD PUSH3 0x461BCD PUSH1 0xE5 SHL DUP2 MSTORE PUSH1 0x4 ADD PUSH2 0x70E SWAP1 PUSH2 0x5D6E JUMP JUMPDEST PUSH2 0xB62 PUSH2 0x2788 JUMP JUMPDEST JUMP JUMPDEST CALLER PUSH2 0xB6D PUSH2 0x10D8 JUMP JUMPDEST PUSH1 0x1 PUSH1 0x1 PUSH1 0xA0 SHL SUB AND EQ PUSH2 0xB93 JUMPI PUSH1 0x40 MLOAD PUSH3 0x461BCD PUSH1 0xE5 SHL DUP2 MSTORE PUSH1 0x4 ADD PUSH2 0x70E SWAP1 PUSH2 0x5D6E JUMP JUMPDEST PUSH4 0xFFFFFFFF DUP2 GT ISZERO PUSH2 0xBE0 JUMPI PUSH1 0x40 MLOAD PUSH3 0x461BCD PUSH1 0xE5 SHL DUP2 MSTORE PUSH1 0x20 PUSH1 0x4 DUP3 ADD MSTORE PUSH1 0x16 PUSH1 0x24 DUP3 ADD MSTORE PUSH22 0x4C6F616E206475726174696F6E206F766572666C6F77 PUSH1 0x50 SHL PUSH1 0x44 DUP3 ADD MSTORE PUSH1 0x64 ADD PUSH2 0x70E JUMP JUMPDEST PUSH1 0x2 DUP2 SWAP1 SSTORE PUSH1 0x40 MLOAD DUP2 DUP2 MSTORE PUSH32 0x64F65A4A1A932867AD599DA36210FC47C698B3ABB2413CFDFD36BF59697A69CB SWAP1 PUSH1 0x20 ADD PUSH2 0x8C3 JUMP JUMPDEST CALLER PUSH2 0xC1E PUSH2 0x10D8 JUMP JUMPDEST PUSH1 0x1 PUSH1 0x1 PUSH1 0xA0 SHL SUB AND EQ PUSH2 0xC44 JUMPI PUSH1 0x40 MLOAD PUSH3 0x461BCD PUSH1 0xE5 SHL DUP2 MSTORE PUSH1 0x4 ADD PUSH2 0x70E SWAP1 PUSH2 0x5D6E JUMP JUMPDEST PUSH1 0x1 PUSH1 0x1 PUSH1 0xA0 SHL SUB DUP4 AND PUSH1 0x0 SWAP1 DUP2 MSTORE PUSH1 0x7 PUSH1 0x20 SWAP1 DUP2 MSTORE PUSH1 0x40 DUP1 DUP4 KECCAK256 DUP6 DUP5 MSTORE SWAP1 SWAP2 MSTORE SWAP1 KECCAK256 SLOAD DUP4 SWAP1 ISZERO PUSH2 0xC87 JUMPI PUSH1 0x40 MLOAD PUSH3 0x461BCD PUSH1 0xE5 SHL DUP2 MSTORE PUSH1 0x4 ADD PUSH2 0x70E SWAP1 PUSH2 0x5DA3 JUMP JUMPDEST PUSH1 0x40 MLOAD PUSH4 0x31A9108F PUSH1 0xE1 SHL DUP2 MSTORE PUSH1 0x4 DUP2 ADD DUP5 SWAP1 MSTORE ADDRESS SWAP1 PUSH1 0x1 PUSH1 0x1 PUSH1 0xA0 SHL SUB DUP4 AND SWAP1 PUSH4 0x6352211E SWAP1 PUSH1 0x24 ADD PUSH1 0x20 PUSH1 0x40 MLOAD DUP1 DUP4 SUB DUP2 DUP7 DUP1 EXTCODESIZE ISZERO DUP1 ISZERO PUSH2 0xCC9 JUMPI PUSH1 0x0 DUP1 REVERT JUMPDEST POP GAS STATICCALL ISZERO DUP1 ISZERO PUSH2 0xCDD JUMPI RETURNDATASIZE PUSH1 0x0 DUP1 RETURNDATACOPY RETURNDATASIZE PUSH1 0x0 REVERT JUMPDEST POP POP POP POP PUSH1 0x40 MLOAD RETURNDATASIZE PUSH1 0x1F NOT PUSH1 0x1F DUP3 ADD AND DUP3 ADD DUP1 PUSH1 0x40 MSTORE POP DUP2 ADD SWAP1 PUSH2 0xD01 SWAP2 SWAP1 PUSH2 0x52DC JUMP JUMPDEST PUSH1 0x1 PUSH1 0x1 PUSH1 0xA0 SHL SUB AND EQ PUSH2 0xD47 JUMPI PUSH1 0x40 MLOAD PUSH3 0x461BCD PUSH1 0xE5 SHL DUP2 MSTORE PUSH1 0x20 PUSH1 0x4 DUP3 ADD MSTORE PUSH1 0xD PUSH1 0x24 DUP3 ADD MSTORE PUSH13 0x1B999D081B9BDD081BDDDB9959 PUSH1 0x9A SHL PUSH1 0x44 DUP3 ADD MSTORE PUSH1 0x64 ADD PUSH2 0x70E JUMP JUMPDEST PUSH1 0x40 MLOAD PUSH4 0x21421707 PUSH1 0xE1 SHL DUP2 MSTORE PUSH1 0x1 PUSH1 0x1 PUSH1 0xA0 SHL SUB DUP3 AND SWAP1 PUSH4 0x42842E0E SWAP1 PUSH2 0xD77 SWAP1 ADDRESS SWAP1 DUP7 SWAP1 DUP9 SWAP1 PUSH1 0x4 ADD PUSH2 0x5BB0 JUMP JUMPDEST PUSH1 0x0 PUSH1 0x40 MLOAD DUP1 DUP4 SUB DUP2 PUSH1 0x0 DUP8 DUP1 EXTCODESIZE ISZERO DUP1 ISZERO PUSH2 0xD91 JUMPI PUSH1 0x0 DUP1 REVERT JUMPDEST POP GAS CALL ISZERO DUP1 ISZERO PUSH2 0xB21 JUMPI RETURNDATASIZE PUSH1 0x0 DUP1 RETURNDATACOPY RETURNDATASIZE PUSH1 0x0 REVERT JUMPDEST PUSH2 0xDAD PUSH2 0x27D7 JUMP JUMPDEST PUSH2 0xDB5 PUSH2 0x18FF JUMP JUMPDEST PUSH1 0x0 PUSH2 0xDC4 DUP5 PUSH1 0x60 ADD MLOAD PUSH2 0x281F JUMP JUMPDEST SWAP1 POP PUSH2 0xDD0 DUP5 DUP3 PUSH2 0x2945 JUMP JUMPDEST PUSH2 0xDD9 DUP5 PUSH2 0x2B6A JUMP JUMPDEST PUSH2 0xDFF PUSH2 0xDE6 DUP6 DUP4 PUSH2 0x2B8F JUMP JUMPDEST PUSH2 0xDF8 DUP5 PUSH1 0x0 ADD MLOAD DUP6 PUSH1 0x20 ADD MLOAD PUSH2 0x2C43 JUMP JUMPDEST DUP7 DUP7 PUSH2 0x2CBD JUMP JUMPDEST POP PUSH2 0xE09 PUSH1 0x1 DUP1 SSTORE JUMP JUMPDEST POP POP POP JUMP JUMPDEST PUSH2 0xE16 PUSH2 0x18FF JUMP JUMPDEST PUSH2 0xE40 DUP2 PUSH32 0x0 PUSH2 0x2095 JUMP JUMPDEST PUSH4 0xFFFFFFFF DUP2 AND PUSH1 0x0 SWAP1 DUP2 MSTORE PUSH1 0x6 PUSH1 0x20 MSTORE PUSH1 0x40 SWAP1 KECCAK256 SLOAD PUSH1 0xFF AND ISZERO PUSH2 0xE76 JUMPI PUSH1 0x40 MLOAD PUSH3 0x461BCD PUSH1 0xE5 SHL DUP2 MSTORE PUSH1 0x4 ADD PUSH2 0x70E SWAP1 PUSH2 0x5CDB JUMP JUMPDEST PUSH4 0xFFFFFFFF DUP2 AND PUSH1 0x0 SWAP1 DUP2 MSTORE PUSH1 0x4 PUSH1 0x20 SWAP1 DUP2 MSTORE PUSH1 0x40 DUP1 DUP4 KECCAK256 PUSH1 0x5 DUP2 ADD SLOAD PUSH1 0x1 PUSH1 0x1 PUSH1 0xA0 SHL SUB AND DUP5 MSTORE PUSH1 0x7 DUP4 MSTORE DUP2 DUP5 KECCAK256 PUSH1 0x2 DUP3 ADD SLOAD DUP6 MSTORE SWAP1 SWAP3 MSTORE DUP3 KECCAK256 DUP1 SLOAD SWAP2 SWAP3 PUSH1 0x1 SWAP3 PUSH2 0xEC3 SWAP1 DUP5 SWAP1 PUSH2 0x5FF5 JUMP JUMPDEST SWAP1 SWAP2 SSTORE POP PUSH1 0x0 SWAP1 POP DUP1 PUSH2 0xEF7 DUP5 DUP5 PUSH32 0x0 PUSH2 0x2F33 JUMP JUMPDEST PUSH1 0x1 PUSH1 0x1 PUSH1 0xA0 SHL SUB DUP3 AND PUSH1 0x0 SWAP1 DUP2 MSTORE PUSH1 0x7 PUSH1 0x20 SWAP1 DUP2 MSTORE PUSH1 0x40 DUP1 DUP4 KECCAK256 DUP5 DUP5 MSTORE SWAP1 SWAP2 MSTORE DUP2 KECCAK256 DUP1 SLOAD SWAP4 SWAP6 POP SWAP2 SWAP4 POP PUSH1 0x1 SWAP3 PUSH2 0xF30 SWAP1 DUP5 SWAP1 PUSH2 0x5F9E JUMP JUMPDEST SWAP1 SWAP2 SSTORE POP POP PUSH1 0x1 DUP1 SSTORE POP PUSH2 0x9BB SWAP2 POP POP JUMP JUMPDEST PUSH1 0x0 SLOAD PUSH1 0x1 PUSH1 0xA0 SHL SWAP1 DIV PUSH1 0xFF AND SWAP1 JUMP JUMPDEST CALLER PUSH2 0xF5B PUSH2 0x10D8 JUMP JUMPDEST PUSH1 0x1 PUSH1 0x1 PUSH1 0xA0 SHL SUB AND EQ PUSH2 0xF81 JUMPI PUSH1 0x40 MLOAD PUSH3 0x461BCD PUSH1 0xE5 SHL DUP2 MSTORE PUSH1 0x4 ADD PUSH2 0x70E SWAP1 PUSH2 0x5D6E JUMP JUMPDEST PUSH2 0xF8B DUP3 DUP3 PUSH2 0x3483 JUMP JUMPDEST POP POP JUMP JUMPDEST CALLER PUSH2 0xF98 PUSH2 0x10D8 JUMP JUMPDEST PUSH1 0x1 PUSH1 0x1 PUSH1 0xA0 SHL SUB AND EQ PUSH2 0xFBE JUMPI PUSH1 0x40 MLOAD PUSH3 0x461BCD PUSH1 0xE5 SHL DUP2 MSTORE PUSH1 0x4 ADD PUSH2 0x70E SWAP1 PUSH2 0x5D6E JUMP JUMPDEST DUP1 MLOAD DUP3 MLOAD EQ PUSH2 0x102B JUMPI PUSH1 0x40 MLOAD PUSH3 0x461BCD PUSH1 0xE5 SHL DUP2 MSTORE PUSH1 0x20 PUSH1 0x4 DUP3 ADD MSTORE PUSH1 0x33 PUSH1 0x24 DUP3 ADD MSTORE PUSH32 0x73657445524332305065726D6974732066756E6374696F6E20696E666F726D61 PUSH1 0x44 DUP3 ADD MSTORE PUSH19 0xE8D2DEDC40C2E4D2E8F240DAD2E6DAC2E8C6D PUSH1 0x6B SHL PUSH1 0x64 DUP3 ADD MSTORE PUSH1 0x84 ADD PUSH2 0x70E JUMP JUMPDEST PUSH1 0x0 JUMPDEST DUP3 MLOAD DUP2 LT ISZERO PUSH2 0xE09 JUMPI PUSH2 0x108F DUP4 DUP3 DUP2 MLOAD DUP2 LT PUSH2 0x105A JUMPI PUSH4 0x4E487B71 PUSH1 0xE0 SHL PUSH1 0x0 MSTORE PUSH1 0x32 PUSH1 0x4 MSTORE PUSH1 0x24 PUSH1 0x0 REVERT JUMPDEST PUSH1 0x20 MUL PUSH1 0x20 ADD ADD MLOAD DUP4 DUP4 DUP2 MLOAD DUP2 LT PUSH2 0x1082 JUMPI PUSH4 0x4E487B71 PUSH1 0xE0 SHL PUSH1 0x0 MSTORE PUSH1 0x32 PUSH1 0x4 MSTORE PUSH1 0x24 PUSH1 0x0 REVERT JUMPDEST PUSH1 0x20 MUL PUSH1 0x20 ADD ADD MLOAD PUSH2 0x3483 JUMP JUMPDEST DUP1 PUSH2 0x1099 DUP2 PUSH2 0x6038 JUMP JUMPDEST SWAP2 POP POP PUSH2 0x102E JUMP JUMPDEST CALLER PUSH2 0x10AA PUSH2 0x10D8 JUMP JUMPDEST PUSH1 0x1 PUSH1 0x1 PUSH1 0xA0 SHL SUB AND EQ PUSH2 0x10D0 JUMPI PUSH1 0x40 MLOAD PUSH3 0x461BCD PUSH1 0xE5 SHL DUP2 MSTORE PUSH1 0x4 ADD PUSH2 0x70E SWAP1 PUSH2 0x5D6E JUMP JUMPDEST PUSH2 0xB62 PUSH2 0x3530 JUMP JUMPDEST PUSH1 0x0 SLOAD PUSH1 0x1 PUSH1 0x1 PUSH1 0xA0 SHL SUB AND SWAP1 JUMP JUMPDEST CALLER PUSH1 0x0 SWAP1 DUP2 MSTORE PUSH1 0x8 PUSH1 0x20 SWAP1 DUP2 MSTORE PUSH1 0x40 DUP1 DUP4 KECCAK256 DUP5 DUP5 MSTORE SWAP1 SWAP2 MSTORE SWAP1 KECCAK256 SLOAD PUSH1 0xFF AND ISZERO PUSH2 0x1142 JUMPI PUSH1 0x40 MLOAD PUSH3 0x461BCD PUSH1 0xE5 SHL DUP2 MSTORE PUSH1 0x20 PUSH1 0x4 DUP3 ADD MSTORE PUSH1 0xD PUSH1 0x24 DUP3 ADD MSTORE PUSH13 0x496E76616C6964206E6F6E6365 PUSH1 0x98 SHL PUSH1 0x44 DUP3 ADD MSTORE PUSH1 0x64 ADD PUSH2 0x70E JUMP JUMPDEST CALLER PUSH1 0x0 SWAP1 DUP2 MSTORE PUSH1 0x8 PUSH1 0x20 SWAP1 DUP2 MSTORE PUSH1 0x40 DUP1 DUP4 KECCAK256 SWAP4 DUP4 MSTORE SWAP3 SWAP1 MSTORE KECCAK256 DUP1 SLOAD PUSH1 0xFF NOT AND PUSH1 0x1 OR SWAP1 SSTORE JUMP JUMPDEST CALLER PUSH2 0x1171 PUSH2 0x10D8 JUMP JUMPDEST PUSH1 0x1 PUSH1 0x1 PUSH1 0xA0 SHL SUB AND EQ PUSH2 0x1197 JUMPI PUSH1 0x40 MLOAD PUSH3 0x461BCD PUSH1 0xE5 SHL DUP2 MSTORE PUSH1 0x4 ADD PUSH2 0x70E SWAP1 PUSH2 0x5D6E JUMP JUMPDEST PUSH1 0x40 MLOAD PUSH3 0x7EEAC7 PUSH1 0xE1 SHL DUP2 MSTORE DUP4 SWAP1 PUSH1 0x0 SWAP1 PUSH1 0x1 PUSH1 0x1 PUSH1 0xA0 SHL SUB DUP4 AND SWAP1 PUSH3 0xFDD58E SWAP1 PUSH2 0x11C8 SWAP1 ADDRESS SWAP1 DUP9 SWAP1 PUSH1 0x4 ADD PUSH2 0x5BD4 JUMP JUMPDEST PUSH1 0x20 PUSH1 0x40 MLOAD DUP1 DUP4 SUB DUP2 DUP7 DUP1 EXTCODESIZE ISZERO DUP1 ISZERO PUSH2 0x11E0 JUMPI PUSH1 0x0 DUP1 REVERT JUMPDEST POP GAS STATICCALL ISZERO DUP1 ISZERO PUSH2 0x11F4 JUMPI RETURNDATASIZE PUSH1 0x0 DUP1 RETURNDATACOPY RETURNDATASIZE PUSH1 0x0 REVERT JUMPDEST POP POP POP POP PUSH1 0x40 MLOAD RETURNDATASIZE PUSH1 0x1F NOT PUSH1 0x1F DUP3 ADD AND DUP3 ADD DUP1 PUSH1 0x40 MSTORE POP DUP2 ADD SWAP1 PUSH2 0x1218 SWAP2 SWAP1 PUSH2 0x5670 JUMP JUMPDEST PUSH1 0x1 PUSH1 0x1 PUSH1 0xA0 SHL SUB DUP7 AND PUSH1 0x0 SWAP1 DUP2 MSTORE PUSH1 0x7 PUSH1 0x20 SWAP1 DUP2 MSTORE PUSH1 0x40 DUP1 DUP4 KECCAK256 DUP9 DUP5 MSTORE SWAP1 SWAP2 MSTORE SWAP1 KECCAK256 SLOAD SWAP1 SWAP2 POP ISZERO PUSH2 0x125C JUMPI PUSH1 0x40 MLOAD PUSH3 0x461BCD PUSH1 0xE5 SHL DUP2 MSTORE PUSH1 0x4 ADD PUSH2 0x70E SWAP1 PUSH2 0x5DA3 JUMP JUMPDEST PUSH1 0x0 DUP2 GT PUSH2 0x129C JUMPI PUSH1 0x40 MLOAD PUSH3 0x461BCD PUSH1 0xE5 SHL DUP2 MSTORE PUSH1 0x20 PUSH1 0x4 DUP3 ADD MSTORE PUSH1 0xD PUSH1 0x24 DUP3 ADD MSTORE PUSH13 0x1B9BC81B999D1CC81BDDDB9959 PUSH1 0x9A SHL PUSH1 0x44 DUP3 ADD MSTORE PUSH1 0x64 ADD PUSH2 0x70E JUMP JUMPDEST PUSH1 0x40 MLOAD PUSH4 0x79212195 PUSH1 0xE1 SHL DUP2 MSTORE ADDRESS PUSH1 0x4 DUP3 ADD MSTORE PUSH1 0x1 PUSH1 0x1 PUSH1 0xA0 SHL SUB DUP5 DUP2 AND PUSH1 0x24 DUP4 ADD MSTORE PUSH1 0x44 DUP3 ADD DUP7 SWAP1 MSTORE PUSH1 0x64 DUP3 ADD DUP4 SWAP1 MSTORE PUSH1 0xA0 PUSH1 0x84 DUP4 ADD MSTORE PUSH1 0x0 PUSH1 0xA4 DUP4 ADD MSTORE DUP4 AND SWAP1 PUSH4 0xF242432A SWAP1 PUSH1 0xC4 ADD PUSH1 0x0 PUSH1 0x40 MLOAD DUP1 DUP4 SUB DUP2 PUSH1 0x0 DUP8 DUP1 EXTCODESIZE ISZERO DUP1 ISZERO PUSH2 0x1301 JUMPI PUSH1 0x0 DUP1 REVERT JUMPDEST POP GAS CALL ISZERO DUP1 ISZERO PUSH2 0x1315 JUMPI RETURNDATASIZE PUSH1 0x0 DUP1 RETURNDATACOPY RETURNDATASIZE PUSH1 0x0 REVERT JUMPDEST POP POP POP POP POP POP POP POP POP JUMP JUMPDEST PUSH2 0x1328 PUSH2 0x27D7 JUMP JUMPDEST PUSH2 0x1330 PUSH2 0x18FF JUMP JUMPDEST PUSH2 0x133F DUP8 DUP8 DUP8 DUP8 DUP8 DUP8 DUP8 PUSH2 0x3573 JUMP JUMPDEST PUSH2 0x1348 PUSH1 0x1 DUP1 SSTORE JUMP JUMPDEST POP POP POP POP POP POP POP JUMP JUMPDEST PUSH2 0x1359 PUSH2 0x18FF JUMP JUMPDEST PUSH2 0x1383 DUP2 PUSH32 0x0 PUSH2 0x2095 JUMP JUMPDEST PUSH4 0xFFFFFFFF DUP2 AND PUSH1 0x0 SWAP1 DUP2 MSTORE PUSH1 0x6 PUSH1 0x20 MSTORE PUSH1 0x40 SWAP1 KECCAK256 SLOAD PUSH1 0xFF AND ISZERO PUSH2 0x13B9 JUMPI PUSH1 0x40 MLOAD PUSH3 0x461BCD PUSH1 0xE5 SHL DUP2 MSTORE PUSH1 0x4 ADD PUSH2 0x70E SWAP1 PUSH2 0x5CDB JUMP JUMPDEST PUSH1 0x0 DUP1 PUSH1 0x0 DUP1 PUSH2 0x13C8 DUP6 PUSH2 0x1AD7 JUMP JUMPDEST SWAP4 POP SWAP4 POP SWAP4 POP SWAP4 POP PUSH1 0x0 DUP3 PUSH1 0x80 ADD MLOAD PUSH4 0xFFFFFFFF AND DUP4 PUSH2 0x100 ADD MLOAD PUSH1 0x1 PUSH1 0x1 PUSH1 0x40 SHL SUB AND PUSH2 0x13F6 SWAP2 SWAP1 PUSH2 0x5F9E JUMP JUMPDEST SWAP1 POP DUP1 TIMESTAMP GT PUSH2 0x1441 JUMPI PUSH1 0x40 MLOAD PUSH3 0x461BCD PUSH1 0xE5 SHL DUP2 MSTORE PUSH1 0x20 PUSH1 0x4 DUP3 ADD MSTORE PUSH1 0x17 PUSH1 0x24 DUP3 ADD MSTORE PUSH23 0x131BD85B881A5CC81B9BDD081BDD995C991D59481E595D PUSH1 0x4A SHL PUSH1 0x44 DUP3 ADD MSTORE PUSH1 0x64 ADD PUSH2 0x70E JUMP JUMPDEST CALLER PUSH1 0x1 PUSH1 0x1 PUSH1 0xA0 SHL SUB DUP6 AND EQ PUSH2 0x1495 JUMPI PUSH1 0x40 MLOAD PUSH3 0x461BCD PUSH1 0xE5 SHL DUP2 MSTORE PUSH1 0x20 PUSH1 0x4 DUP3 ADD MSTORE PUSH1 0x19 PUSH1 0x24 DUP3 ADD MSTORE PUSH25 0x4F6E6C79206C656E6465722063616E206C6971756964617465 PUSH1 0x38 SHL PUSH1 0x44 DUP3 ADD MSTORE PUSH1 0x64 ADD PUSH2 0x70E JUMP JUMPDEST PUSH2 0x14A1 DUP7 DUP6 DUP6 DUP6 PUSH2 0x207F JUMP JUMPDEST DUP3 MLOAD PUSH1 0x40 DUP1 DUP6 ADD MLOAD PUSH2 0x120 DUP7 ADD MLOAD DUP3 MLOAD SWAP4 DUP5 MSTORE PUSH1 0x20 DUP5 ADD SWAP2 SWAP1 SWAP2 MSTORE SWAP1 DUP3 ADD DUP4 SWAP1 MSTORE TIMESTAMP PUSH1 0x60 DUP4 ADD MSTORE PUSH1 0x1 PUSH1 0x1 PUSH1 0xA0 SHL SUB SWAP1 DUP2 AND PUSH1 0x80 DUP4 ADD MSTORE DUP1 DUP7 AND SWAP2 SWAP1 DUP8 AND SWAP1 PUSH4 0xFFFFFFFF DUP10 AND SWAP1 PUSH32 0x4FAC0FF43299A330BCE57D0579985305AF580ACF256A6D7977083EDE81BE1326 SWAP1 PUSH1 0xA0 ADD PUSH1 0x40 MLOAD DUP1 SWAP2 SUB SWAP1 LOG4 POP POP POP PUSH4 0xFFFFFFFF DUP4 AND PUSH1 0x0 SWAP1 DUP2 MSTORE PUSH1 0x4 PUSH1 0x20 DUP2 DUP2 MSTORE PUSH1 0x40 DUP1 DUP5 KECCAK256 DUP5 DUP2 SSTORE PUSH1 0x1 DUP2 ADD DUP6 SWAP1 SSTORE PUSH1 0x2 DUP2 ADD DUP6 SWAP1 SSTORE PUSH1 0x3 DUP2 ADD DUP1 SLOAD PUSH1 0x1 PUSH1 0x1 PUSH1 0xE0 SHL SUB NOT SWAP1 DUP2 AND SWAP1 SWAP2 SSTORE SWAP4 DUP2 ADD DUP1 SLOAD SWAP1 SWAP5 AND SWAP1 SWAP4 SSTORE PUSH1 0x5 DUP1 DUP5 ADD DUP1 SLOAD PUSH1 0x1 PUSH1 0x1 PUSH1 0xA0 SHL SUB NOT SWAP1 DUP2 AND SWAP1 SWAP2 SSTORE PUSH1 0x6 SWAP1 SWAP5 ADD DUP1 SLOAD SWAP1 SWAP5 AND SWAP1 SWAP4 SSTORE SWAP2 SWAP1 MSTORE SWAP1 KECCAK256 DUP1 SLOAD PUSH1 0x1 PUSH1 0x1 PUSH1 0xC0 SHL SUB NOT AND SWAP1 SSTORE POP PUSH2 0x9BB SWAP1 POP PUSH1 0x1 DUP1 SSTORE JUMP JUMPDEST PUSH1 0x40 MLOAD PUSH3 0x461BCD PUSH1 0xE5 SHL DUP2 MSTORE PUSH1 0x20 PUSH1 0x4 DUP3 ADD MSTORE PUSH1 0x1B PUSH1 0x24 DUP3 ADD MSTORE PUSH32 0x45524331313535206261746368206E6F7420737570706F727465640000000000 PUSH1 0x44 DUP3 ADD MSTORE PUSH1 0x0 SWAP1 PUSH1 0x64 ADD PUSH2 0x70E JUMP JUMPDEST PUSH2 0x15F6 PUSH2 0x18FF JUMP JUMPDEST PUSH4 0xFFFFFFFF DUP2 AND PUSH1 0x0 SWAP1 DUP2 MSTORE PUSH1 0x4 PUSH1 0x20 MSTORE PUSH1 0x40 SWAP1 KECCAK256 PUSH1 0x6 ADD SLOAD PUSH1 0x1 PUSH1 0x1 PUSH1 0xA0 SHL SUB AND CALLER DUP2 EQ PUSH2 0x1663 JUMPI PUSH1 0x40 MLOAD PUSH3 0x461BCD PUSH1 0xE5 SHL DUP2 MSTORE PUSH1 0x20 PUSH1 0x4 DUP3 ADD MSTORE PUSH1 0x19 PUSH1 0x24 DUP3 ADD MSTORE PUSH25 0x39B2B73232B9103430B9903A37903132903137B93937BBB2B9 PUSH1 0x39 SHL PUSH1 0x44 DUP3 ADD MSTORE PUSH1 0x64 ADD PUSH2 0x70E JUMP JUMPDEST PUSH1 0x40 MLOAD PUSH4 0x1C2D8FB3 PUSH1 0xE3 SHL DUP2 MSTORE PUSH32 0x0 PUSH1 0x4 DUP3 ADD MSTORE PUSH1 0x0 SWAP1 PUSH32 0x0 PUSH1 0x1 PUSH1 0x1 PUSH1 0xA0 SHL SUB AND SWAP1 PUSH4 0xE16C7D98 SWAP1 PUSH1 0x24 ADD PUSH1 0x20 PUSH1 0x40 MLOAD DUP1 DUP4 SUB DUP2 DUP7 DUP1 EXTCODESIZE ISZERO DUP1 ISZERO PUSH2 0x16E5 JUMPI PUSH1 0x0 DUP1 REVERT JUMPDEST POP GAS STATICCALL ISZERO DUP1 ISZERO PUSH2 0x16F9 JUMPI RETURNDATASIZE PUSH1 0x0 DUP1 RETURNDATACOPY RETURNDATASIZE PUSH1 0x0 REVERT JUMPDEST POP POP POP POP PUSH1 0x40 MLOAD RETURNDATASIZE PUSH1 0x1F NOT PUSH1 0x1F DUP3 ADD AND DUP3 ADD DUP1 PUSH1 0x40 MSTORE POP DUP2 ADD SWAP1 PUSH2 0x171D SWAP2 SWAP1 PUSH2 0x52DC JUMP JUMPDEST PUSH1 0x40 MLOAD PUSH4 0x1B982CF1 PUSH1 0xE0 SHL DUP2 MSTORE SWAP1 SWAP2 POP PUSH1 0x1 PUSH1 0x1 PUSH1 0xA0 SHL SUB DUP3 AND SWAP1 PUSH4 0x1B982CF1 SWAP1 PUSH2 0x174E SWAP1 DUP7 SWAP1 DUP7 SWAP1 PUSH1 0x4 ADD PUSH2 0x5F03 JUMP JUMPDEST PUSH1 0x0 PUSH1 0x40 MLOAD DUP1 DUP4 SUB DUP2 PUSH1 0x0 DUP8 DUP1 EXTCODESIZE ISZERO DUP1 ISZERO PUSH2 0x1768 JUMPI PUSH1 0x0 DUP1 REVERT JUMPDEST POP GAS CALL ISZERO DUP1 ISZERO PUSH2 0x177C JUMPI RETURNDATASIZE PUSH1 0x0 DUP1 RETURNDATACOPY RETURNDATASIZE PUSH1 0x0 REVERT JUMPDEST POP POP POP POP PUSH4 0xFFFFFFFF DUP4 AND PUSH1 0x0 SWAP1 DUP2 MSTORE PUSH1 0x4 PUSH1 0x20 MSTORE PUSH1 0x40 SWAP1 KECCAK256 PUSH1 0x6 ADD DUP1 SLOAD PUSH1 0x1 PUSH1 0x1 PUSH1 0xA0 SHL SUB NOT AND SWAP1 SSTORE POP POP PUSH1 0x1 DUP1 SSTORE POP JUMP JUMPDEST PUSH4 0xF23A6E61 PUSH1 0xE0 SHL JUMPDEST SWAP7 SWAP6 POP POP POP POP POP POP JUMP JUMPDEST CALLER PUSH2 0x17CB PUSH2 0x10D8 JUMP JUMPDEST PUSH1 0x1 PUSH1 0x1 PUSH1 0xA0 SHL SUB AND EQ PUSH2 0x17F1 JUMPI PUSH1 0x40 MLOAD PUSH3 0x461BCD PUSH1 0xE5 SHL DUP2 MSTORE PUSH1 0x4 ADD PUSH2 0x70E SWAP1 PUSH2 0x5D6E JUMP JUMPDEST PUSH1 0x1 PUSH1 0x1 PUSH1 0xA0 SHL SUB DUP2 AND PUSH2 0x1856 JUMPI PUSH1 0x40 MLOAD PUSH3 0x461BCD PUSH1 0xE5 SHL DUP2 MSTORE PUSH1 0x20 PUSH1 0x4 DUP3 ADD MSTORE PUSH1 0x26 PUSH1 0x24 DUP3 ADD MSTORE PUSH32 0x4F776E61626C653A206E6577206F776E657220697320746865207A65726F2061 PUSH1 0x44 DUP3 ADD MSTORE PUSH6 0x646472657373 PUSH1 0xD0 SHL PUSH1 0x64 DUP3 ADD MSTORE PUSH1 0x84 ADD PUSH2 0x70E JUMP JUMPDEST PUSH2 0x9BB DUP2 PUSH2 0x3824 JUMP JUMPDEST PUSH1 0x0 PUSH1 0x20 DUP3 MLOAD GT ISZERO PUSH2 0x18A1 JUMPI PUSH1 0x40 MLOAD PUSH3 0x461BCD PUSH1 0xE5 SHL DUP2 MSTORE PUSH1 0x20 PUSH1 0x4 DUP3 ADD MSTORE PUSH1 0xB PUSH1 0x24 DUP3 ADD MSTORE PUSH11 0x696E76616C6964206B6579 PUSH1 0xA8 SHL PUSH1 0x44 DUP3 ADD MSTORE PUSH1 0x64 ADD PUSH2 0x70E JUMP JUMPDEST POP PUSH1 0x20 ADD MLOAD SWAP1 JUMP JUMPDEST PUSH2 0xE09 DUP4 PUSH4 0xA9059CBB PUSH1 0xE0 SHL DUP5 DUP5 PUSH1 0x40 MLOAD PUSH1 0x24 ADD PUSH2 0x18C8 SWAP3 SWAP2 SWAP1 PUSH2 0x5BD4 JUMP JUMPDEST PUSH1 0x40 DUP1 MLOAD PUSH1 0x1F NOT DUP2 DUP5 SUB ADD DUP2 MSTORE SWAP2 SWAP1 MSTORE PUSH1 0x20 DUP2 ADD DUP1 MLOAD PUSH1 0x1 PUSH1 0x1 PUSH1 0xE0 SHL SUB AND PUSH1 0x1 PUSH1 0x1 PUSH1 0xE0 SHL SUB NOT SWAP1 SWAP4 AND SWAP3 SWAP1 SWAP3 OR SWAP1 SWAP2 MSTORE PUSH2 0x3874 JUMP JUMPDEST PUSH1 0x2 PUSH1 0x1 SLOAD EQ ISZERO PUSH2 0x1952 JUMPI PUSH1 0x40 MLOAD PUSH3 0x461BCD PUSH1 0xE5 SHL DUP2 MSTORE PUSH1 0x20 PUSH1 0x4 DUP3 ADD MSTORE PUSH1 0x1F PUSH1 0x24 DUP3 ADD MSTORE PUSH32 0x5265656E7472616E637947756172643A207265656E7472616E742063616C6C00 PUSH1 0x44 DUP3 ADD MSTORE PUSH1 0x64 ADD PUSH2 0x70E JUMP JUMPDEST PUSH1 0x2 PUSH1 0x1 SSTORE JUMP JUMPDEST PUSH2 0x1963 DUP3 DUP3 PUSH2 0x2095 JUMP JUMPDEST PUSH1 0x40 MLOAD PUSH4 0x38BF9D5 PUSH1 0xE1 SHL DUP2 MSTORE PUSH4 0xFFFFFFFF DUP4 AND PUSH1 0x4 DUP3 ADD MSTORE ADDRESS SWAP1 PUSH4 0x717F3AA SWAP1 PUSH1 0x24 ADD PUSH1 0x20 PUSH1 0x40 MLOAD DUP1 DUP4 SUB DUP2 DUP7 DUP1 EXTCODESIZE ISZERO DUP1 ISZERO PUSH2 0x199F JUMPI PUSH1 0x0 DUP1 REVERT JUMPDEST POP GAS STATICCALL ISZERO DUP1 ISZERO PUSH2 0x19B3 JUMPI RETURNDATASIZE PUSH1 0x0 DUP1 RETURNDATACOPY RETURNDATASIZE PUSH1 0x0 REVERT JUMPDEST POP POP POP POP PUSH1 0x40 MLOAD RETURNDATASIZE PUSH1 0x1F NOT PUSH1 0x1F DUP3 ADD AND DUP3 ADD DUP1 PUSH1 0x40 MSTORE POP DUP2 ADD SWAP1 PUSH2 0x19D7 SWAP2 SWAP1 PUSH2 0x5654 JUMP JUMPDEST ISZERO PUSH2 0x19F4 JUMPI PUSH1 0x40 MLOAD PUSH3 0x461BCD PUSH1 0xE5 SHL DUP2 MSTORE PUSH1 0x4 ADD PUSH2 0x70E SWAP1 PUSH2 0x5CDB JUMP JUMPDEST PUSH1 0x40 MLOAD PUSH4 0x44F9B43 PUSH1 0xE3 SHL DUP2 MSTORE PUSH4 0xFFFFFFFF DUP4 AND PUSH1 0x4 DUP3 ADD MSTORE PUSH1 0x0 SWAP1 DUP2 SWAP1 ADDRESS SWAP1 PUSH4 0x227CDA18 SWAP1 PUSH1 0x24 ADD PUSH2 0x160 PUSH1 0x40 MLOAD DUP1 DUP4 SUB DUP2 DUP7 DUP1 EXTCODESIZE ISZERO DUP1 ISZERO PUSH2 0x1A36 JUMPI PUSH1 0x0 DUP1 REVERT JUMPDEST POP GAS STATICCALL ISZERO DUP1 ISZERO PUSH2 0x1A4A JUMPI RETURNDATASIZE PUSH1 0x0 DUP1 RETURNDATACOPY RETURNDATASIZE PUSH1 0x0 REVERT JUMPDEST POP POP POP POP PUSH1 0x40 MLOAD RETURNDATASIZE PUSH1 0x1F NOT PUSH1 0x1F DUP3 ADD AND DUP3 ADD DUP1 PUSH1 0x40 MSTORE POP DUP2 ADD SWAP1 PUSH2 0x1A6E SWAP2 SWAP1 PUSH2 0x584C JUMP JUMPDEST POP POP SWAP9 POP POP POP POP SWAP6 POP POP POP POP POP DUP2 PUSH4 0xFFFFFFFF AND DUP2 PUSH1 0x1 PUSH1 0x1 PUSH1 0x40 SHL SUB AND PUSH2 0x1A96 SWAP2 SWAP1 PUSH2 0x5F9E JUMP JUMPDEST TIMESTAMP GT ISZERO PUSH2 0x7F0 JUMPI PUSH1 0x40 MLOAD PUSH3 0x461BCD PUSH1 0xE5 SHL DUP2 MSTORE PUSH1 0x20 PUSH1 0x4 DUP3 ADD MSTORE PUSH1 0xF PUSH1 0x24 DUP3 ADD MSTORE PUSH15 0x131BD85B881A5CC8195E1C1A5C9959 PUSH1 0x8A SHL PUSH1 0x44 DUP3 ADD MSTORE PUSH1 0x64 ADD PUSH2 0x70E JUMP JUMPDEST PUSH1 0x0 DUP1 PUSH2 0x1AE2 PUSH2 0x4FD6 JUMP JUMPDEST PUSH1 0x40 MLOAD PUSH4 0x1C2D8FB3 PUSH1 0xE3 SHL DUP2 MSTORE PUSH32 0x0 PUSH1 0x4 DUP3 ADD MSTORE PUSH1 0x0 SWAP1 PUSH32 0x0 PUSH1 0x1 PUSH1 0x1 PUSH1 0xA0 SHL SUB AND SWAP1 PUSH4 0xE16C7D98 SWAP1 PUSH1 0x24 ADD PUSH1 0x20 PUSH1 0x40 MLOAD DUP1 DUP4 SUB DUP2 DUP7 DUP1 EXTCODESIZE ISZERO DUP1 ISZERO PUSH2 0x1B64 JUMPI PUSH1 0x0 DUP1 REVERT JUMPDEST POP GAS STATICCALL ISZERO DUP1 ISZERO PUSH2 0x1B78 JUMPI RETURNDATASIZE PUSH1 0x0 DUP1 RETURNDATACOPY RETURNDATASIZE PUSH1 0x0 REVERT JUMPDEST POP POP POP POP PUSH1 0x40 MLOAD RETURNDATASIZE PUSH1 0x1F NOT PUSH1 0x1F DUP3 ADD AND DUP3 ADD DUP1 PUSH1 0x40 MSTORE POP DUP2 ADD SWAP1 PUSH2 0x1B9C SWAP2 SWAP1 PUSH2 0x52DC JUMP JUMPDEST PUSH1 0x40 MLOAD PUSH4 0xE6C5A541 PUSH1 0xE0 SHL DUP2 MSTORE PUSH4 0xFFFFFFFF DUP8 AND PUSH1 0x4 DUP3 ADD MSTORE SWAP1 SWAP2 POP PUSH1 0x0 SWAP1 PUSH1 0x1 PUSH1 0x1 PUSH1 0xA0 SHL SUB DUP4 AND SWAP1 PUSH4 0xE6C5A541 SWAP1 PUSH1 0x24 ADD PUSH1 0x60 PUSH1 0x40 MLOAD DUP1 DUP4 SUB DUP2 DUP7 DUP1 EXTCODESIZE ISZERO DUP1 ISZERO PUSH2 0x1BE7 JUMPI PUSH1 0x0 DUP1 REVERT JUMPDEST POP GAS STATICCALL ISZERO DUP1 ISZERO PUSH2 0x1BFB JUMPI RETURNDATASIZE PUSH1 0x0 DUP1 RETURNDATACOPY RETURNDATASIZE PUSH1 0x0 REVERT JUMPDEST POP POP POP POP PUSH1 0x40 MLOAD RETURNDATASIZE PUSH1 0x1F NOT PUSH1 0x1F DUP3 ADD AND DUP3 ADD DUP1 PUSH1 0x40 MSTORE POP DUP2 ADD SWAP1 PUSH2 0x1C1F SWAP2 SWAP1 PUSH2 0x56B0 JUMP JUMPDEST PUSH1 0x20 DUP2 DUP2 ADD MLOAD PUSH4 0xFFFFFFFF DUP10 DUP2 AND PUSH1 0x0 SWAP1 DUP2 MSTORE PUSH1 0x4 DUP1 DUP6 MSTORE PUSH1 0x40 SWAP2 DUP3 SWAP1 KECCAK256 DUP3 MLOAD PUSH2 0x160 DUP2 ADD DUP5 MSTORE DUP2 SLOAD DUP2 MSTORE PUSH1 0x1 DUP3 ADD SLOAD SWAP7 DUP2 ADD SWAP7 SWAP1 SWAP7 MSTORE PUSH1 0x2 DUP2 ADD SLOAD SWAP3 DUP7 ADD SWAP3 SWAP1 SWAP3 MSTORE PUSH1 0x3 DUP3 ADD SLOAD PUSH1 0x1 PUSH1 0x1 PUSH1 0xA0 SHL SUB DUP1 DUP3 AND PUSH1 0x60 DUP9 ADD MSTORE PUSH1 0x1 PUSH1 0xA0 SHL DUP1 DUP4 DIV SWAP1 SWAP6 AND PUSH1 0x80 DUP9 ADD MSTORE PUSH1 0x1 PUSH1 0xC0 SHL DUP3 DIV PUSH2 0xFFFF SWAP1 DUP2 AND PUSH1 0xA0 DUP10 ADD MSTORE PUSH1 0x1 PUSH1 0xD0 SHL SWAP1 SWAP3 DIV SWAP1 SWAP2 AND PUSH1 0xC0 DUP8 ADD MSTORE SWAP1 DUP3 ADD SLOAD DUP1 DUP3 AND PUSH1 0xE0 DUP8 ADD MSTORE PUSH1 0x1 PUSH1 0x1 PUSH1 0x40 SHL SUB SWAP4 SWAP1 DIV DUP4 AND PUSH2 0x100 DUP7 ADD MSTORE PUSH1 0x5 DUP3 ADD SLOAD DUP2 AND PUSH2 0x120 DUP7 ADD MSTORE PUSH1 0x6 SWAP1 SWAP2 ADD SLOAD AND PUSH2 0x140 DUP5 ADD DUP2 SWAP1 MSTORE SWAP3 SWAP7 POP SWAP3 SWAP4 POP SWAP2 SWAP1 SWAP2 AND SWAP1 ISZERO PUSH2 0x1D01 JUMPI DUP4 PUSH2 0x140 ADD MLOAD SWAP6 POP PUSH2 0x1DF2 JUMP JUMPDEST DUP3 PUSH1 0x1 PUSH1 0x1 PUSH1 0xA0 SHL SUB AND PUSH4 0x8208E76C PUSH1 0x40 MLOAD DUP2 PUSH4 0xFFFFFFFF AND PUSH1 0xE0 SHL DUP2 MSTORE PUSH1 0x4 ADD PUSH1 0x20 PUSH1 0x40 MLOAD DUP1 DUP4 SUB DUP2 DUP7 DUP1 EXTCODESIZE ISZERO DUP1 ISZERO PUSH2 0x1D3A JUMPI PUSH1 0x0 DUP1 REVERT JUMPDEST POP GAS STATICCALL ISZERO DUP1 ISZERO PUSH2 0x1D4E JUMPI RETURNDATASIZE PUSH1 0x0 DUP1 RETURNDATACOPY RETURNDATASIZE PUSH1 0x0 REVERT JUMPDEST POP POP POP POP PUSH1 0x40 MLOAD RETURNDATASIZE PUSH1 0x1F NOT PUSH1 0x1F DUP3 ADD AND DUP3 ADD DUP1 PUSH1 0x40 MSTORE POP DUP2 ADD SWAP1 PUSH2 0x1D72 SWAP2 SWAP1 PUSH2 0x52DC JUMP JUMPDEST PUSH1 0x1 PUSH1 0x1 PUSH1 0xA0 SHL SUB AND PUSH4 0x6352211E DUP3 PUSH1 0x40 MLOAD DUP3 PUSH4 0xFFFFFFFF AND PUSH1 0xE0 SHL DUP2 MSTORE PUSH1 0x4 ADD PUSH2 0x1D9F SWAP2 DUP2 MSTORE PUSH1 0x20 ADD SWAP1 JUMP JUMPDEST PUSH1 0x20 PUSH1 0x40 MLOAD DUP1 DUP4 SUB DUP2 DUP7 DUP1 EXTCODESIZE ISZERO DUP1 ISZERO PUSH2 0x1DB7 JUMPI PUSH1 0x0 DUP1 REVERT JUMPDEST POP GAS STATICCALL ISZERO DUP1 ISZERO PUSH2 0x1DCB JUMPI RETURNDATASIZE PUSH1 0x0 DUP1 RETURNDATACOPY RETURNDATASIZE PUSH1 0x0 REVERT JUMPDEST POP POP POP POP PUSH1 0x40 MLOAD RETURNDATASIZE PUSH1 0x1F NOT PUSH1 0x1F DUP3 ADD AND DUP3 ADD DUP1 PUSH1 0x40 MSTORE POP DUP2 ADD SWAP1 PUSH2 0x1DEF SWAP2 SWAP1 PUSH2 0x52DC JUMP JUMPDEST SWAP6 POP JUMPDEST DUP3 PUSH1 0x1 PUSH1 0x1 PUSH1 0xA0 SHL SUB AND PUSH4 0x4FBE68A0 PUSH1 0x40 MLOAD DUP2 PUSH4 0xFFFFFFFF AND PUSH1 0xE0 SHL DUP2 MSTORE PUSH1 0x4 ADD PUSH1 0x20 PUSH1 0x40 MLOAD DUP1 DUP4 SUB DUP2 DUP7 DUP1 EXTCODESIZE ISZERO DUP1 ISZERO PUSH2 0x1E2B JUMPI PUSH1 0x0 DUP1 REVERT JUMPDEST POP GAS STATICCALL ISZERO DUP1 ISZERO PUSH2 0x1E3F JUMPI RETURNDATASIZE PUSH1 0x0 DUP1 RETURNDATACOPY RETURNDATASIZE PUSH1 0x0 REVERT JUMPDEST POP POP POP POP PUSH1 0x40 MLOAD RETURNDATASIZE PUSH1 0x1F NOT PUSH1 0x1F DUP3 ADD AND DUP3 ADD DUP1 PUSH1 0x40 MSTORE POP DUP2 ADD SWAP1 PUSH2 0x1E63 SWAP2 SWAP1 PUSH2 0x52DC JUMP JUMPDEST PUSH1 0x1 PUSH1 0x1 PUSH1 0xA0 SHL SUB AND PUSH4 0x6352211E DUP3 PUSH1 0x40 MLOAD DUP3 PUSH4 0xFFFFFFFF AND PUSH1 0xE0 SHL DUP2 MSTORE PUSH1 0x4 ADD PUSH2 0x1E90 SWAP2 DUP2 MSTORE PUSH1 0x20 ADD SWAP1 JUMP JUMPDEST PUSH1 0x20 PUSH1 0x40 MLOAD DUP1 DUP4 SUB DUP2 DUP7 DUP1 EXTCODESIZE ISZERO DUP1 ISZERO PUSH2 0x1EA8 JUMPI PUSH1 0x0 DUP1 REVERT JUMPDEST POP GAS STATICCALL ISZERO DUP1 ISZERO PUSH2 0x1EBC JUMPI RETURNDATASIZE PUSH1 0x0 DUP1 RETURNDATACOPY RETURNDATASIZE PUSH1 0x0 REVERT JUMPDEST POP POP POP POP PUSH1 0x40 MLOAD RETURNDATASIZE PUSH1 0x1F NOT PUSH1 0x1F DUP3 ADD AND DUP3 ADD DUP1 PUSH1 0x40 MSTORE POP DUP2 ADD SWAP1 PUSH2 0x1EE0 SWAP2 SWAP1 PUSH2 0x52DC JUMP JUMPDEST SWAP5 POP POP POP SWAP2 SWAP4 POP SWAP2 SWAP4 JUMP JUMPDEST PUSH4 0xFFFFFFFF DUP5 AND PUSH1 0x0 SWAP1 DUP2 MSTORE PUSH1 0x5 PUSH1 0x20 SWAP1 DUP2 MSTORE PUSH1 0x40 DUP1 DUP4 KECCAK256 DUP2 MLOAD PUSH1 0x60 DUP2 ADD DUP4 MSTORE SWAP1 SLOAD PUSH1 0x1 PUSH1 0x1 PUSH1 0xA0 SHL SUB DUP2 AND DUP3 MSTORE PUSH2 0xFFFF PUSH1 0x1 PUSH1 0xA0 SHL DUP3 DIV DUP2 AND SWAP5 DUP4 ADD SWAP5 SWAP1 SWAP5 MSTORE PUSH1 0x1 PUSH1 0xB0 SHL SWAP1 DIV SWAP1 SWAP3 AND SWAP1 DUP3 ADD MSTORE SWAP1 DUP1 PUSH2 0x1F45 DUP5 PUSH2 0x3946 JUMP JUMPDEST PUSH1 0x60 DUP7 ADD MLOAD SWAP2 SWAP4 POP SWAP2 POP PUSH2 0x1F64 SWAP1 PUSH1 0x1 PUSH1 0x1 PUSH1 0xA0 SHL SUB AND CALLER DUP8 DUP5 PUSH2 0x398D JUMP JUMPDEST PUSH1 0x0 PUSH2 0x1F78 DUP4 DUP6 PUSH1 0x20 ADD MLOAD PUSH2 0xFFFF AND PUSH2 0x39AE JUMP JUMPDEST SWAP1 POP PUSH1 0x0 DUP2 GT DUP1 ISZERO PUSH2 0x1F93 JUMPI POP DUP4 MLOAD PUSH1 0x1 PUSH1 0x1 PUSH1 0xA0 SHL SUB AND ISZERO ISZERO JUMPDEST ISZERO PUSH2 0x1FC2 JUMPI PUSH2 0x1FA2 DUP2 DUP5 PUSH2 0x5FF5 JUMP JUMPDEST DUP5 MLOAD PUSH1 0x60 DUP8 ADD MLOAD SWAP2 SWAP5 POP PUSH2 0x1FC2 SWAP2 PUSH1 0x1 PUSH1 0x1 PUSH1 0xA0 SHL SUB AND SWAP1 CALLER SWAP1 DUP5 PUSH2 0x398D JUMP JUMPDEST PUSH2 0x1FE4 CALLER PUSH2 0x1FCE PUSH2 0x10D8 JUMP JUMPDEST PUSH1 0x60 DUP9 ADD MLOAD PUSH1 0x1 PUSH1 0x1 PUSH1 0xA0 SHL SUB AND SWAP2 SWAP1 DUP7 PUSH2 0x398D JUMP JUMPDEST DUP5 MLOAD PUSH1 0x40 DUP1 DUP8 ADD MLOAD DUP7 MLOAD PUSH2 0x120 DUP10 ADD MLOAD PUSH1 0x60 DUP1 DUP12 ADD MLOAD DUP6 MLOAD SWAP7 DUP8 MSTORE PUSH1 0x20 DUP8 ADD SWAP5 SWAP1 SWAP5 MSTORE DUP6 DUP6 ADD DUP9 SWAP1 MSTORE DUP6 ADD DUP9 SWAP1 MSTORE PUSH1 0x80 DUP6 ADD DUP7 SWAP1 MSTORE PUSH1 0x1 PUSH1 0x1 PUSH1 0xA0 SHL SUB SWAP2 DUP3 AND PUSH1 0xA0 DUP7 ADD MSTORE DUP2 AND PUSH1 0xC0 DUP6 ADD MSTORE SWAP1 DUP2 AND PUSH1 0xE0 DUP5 ADD MSTORE SWAP1 MLOAD DUP9 DUP3 AND SWAP3 SWAP2 DUP11 AND SWAP2 PUSH4 0xFFFFFFFF DUP13 AND SWAP2 PUSH32 0x3687D64F40B11DD1C102A76882AC1735891C546A96AE27935EB5C7865B9D86FA SWAP2 DUP2 SWAP1 SUB PUSH2 0x100 ADD SWAP1 LOG4 POP POP POP POP POP POP POP POP JUMP JUMPDEST PUSH2 0x208A DUP5 DUP4 DUP4 PUSH2 0x39CE JUMP JUMPDEST PUSH2 0x7F0 DUP3 ADDRESS DUP6 PUSH2 0x3A88 JUMP JUMPDEST DUP1 PUSH1 0x1 PUSH1 0x1 PUSH1 0xA0 SHL SUB AND PUSH4 0xE16C7D98 ADDRESS PUSH1 0x1 PUSH1 0x1 PUSH1 0xA0 SHL SUB AND PUSH4 0x77CFA991 PUSH1 0x40 MLOAD DUP2 PUSH4 0xFFFFFFFF AND PUSH1 0xE0 SHL DUP2 MSTORE PUSH1 0x4 ADD PUSH1 0x20 PUSH1 0x40 MLOAD DUP1 DUP4 SUB DUP2 DUP7 DUP1 EXTCODESIZE ISZERO DUP1 ISZERO PUSH2 0x20DD JUMPI PUSH1 0x0 DUP1 REVERT JUMPDEST POP GAS STATICCALL ISZERO DUP1 ISZERO PUSH2 0x20F1 JUMPI RETURNDATASIZE PUSH1 0x0 DUP1 RETURNDATACOPY RETURNDATASIZE PUSH1 0x0 REVERT JUMPDEST POP POP POP POP PUSH1 0x40 MLOAD RETURNDATASIZE PUSH1 0x1F NOT PUSH1 0x1F DUP3 ADD AND DUP3 ADD DUP1 PUSH1 0x40 MSTORE POP DUP2 ADD SWAP1 PUSH2 0x2115 SWAP2 SWAP1 PUSH2 0x5670 JUMP JUMPDEST PUSH1 0x40 MLOAD DUP3 PUSH4 0xFFFFFFFF AND PUSH1 0xE0 SHL DUP2 MSTORE PUSH1 0x4 ADD PUSH2 0x2133 SWAP2 DUP2 MSTORE PUSH1 0x20 ADD SWAP1 JUMP JUMPDEST PUSH1 0x20 PUSH1 0x40 MLOAD DUP1 DUP4 SUB DUP2 DUP7 DUP1 EXTCODESIZE ISZERO DUP1 ISZERO PUSH2 0x214B JUMPI PUSH1 0x0 DUP1 REVERT JUMPDEST POP GAS STATICCALL ISZERO DUP1 ISZERO PUSH2 0x215F JUMPI RETURNDATASIZE PUSH1 0x0 DUP1 RETURNDATACOPY RETURNDATASIZE PUSH1 0x0 REVERT JUMPDEST POP POP POP POP PUSH1 0x40 MLOAD RETURNDATASIZE PUSH1 0x1F NOT PUSH1 0x1F DUP3 ADD AND DUP3 ADD DUP1 PUSH1 0x40 MSTORE POP DUP2 ADD SWAP1 PUSH2 0x2183 SWAP2 SWAP1 PUSH2 0x52DC JUMP JUMPDEST PUSH1 0x1 PUSH1 0x1 PUSH1 0xA0 SHL SUB AND PUSH4 0x52A067E5 DUP4 ADDRESS PUSH1 0x40 MLOAD DUP4 PUSH4 0xFFFFFFFF AND PUSH1 0xE0 SHL DUP2 MSTORE PUSH1 0x4 ADD PUSH2 0x21B0 SWAP3 SWAP2 SWAP1 PUSH2 0x5F03 JUMP JUMPDEST PUSH1 0x20 PUSH1 0x40 MLOAD DUP1 DUP4 SUB DUP2 DUP7 DUP1 EXTCODESIZE ISZERO DUP1 ISZERO PUSH2 0x21C8 JUMPI PUSH1 0x0 DUP1 REVERT JUMPDEST POP GAS STATICCALL ISZERO DUP1 ISZERO PUSH2 0x21DC JUMPI RETURNDATASIZE PUSH1 0x0 DUP1 RETURNDATACOPY RETURNDATASIZE PUSH1 0x0 REVERT JUMPDEST POP POP POP POP PUSH1 0x40 MLOAD RETURNDATASIZE PUSH1 0x1F NOT PUSH1 0x1F DUP3 ADD AND DUP3 ADD DUP1 PUSH1 0x40 MSTORE POP DUP2 ADD SWAP1 PUSH2 0x2200 SWAP2 SWAP1 PUSH2 0x5654 JUMP JUMPDEST PUSH2 0xF8B JUMPI PUSH1 0x40 MLOAD PUSH3 0x461BCD PUSH1 0xE5 SHL DUP2 MSTORE PUSH1 0x20 PUSH1 0x4 DUP3 ADD MSTORE PUSH1 0xE PUSH1 0x24 DUP3 ADD MSTORE PUSH14 0x1A5B9D985B1A59081B1BD85B9259 PUSH1 0x92 SHL PUSH1 0x44 DUP3 ADD MSTORE PUSH1 0x64 ADD PUSH2 0x70E JUMP JUMPDEST PUSH1 0x0 DUP2 PUSH1 0x1 PUSH1 0x1 PUSH1 0xA0 SHL SUB AND PUSH4 0xE16C7D98 ADDRESS PUSH1 0x1 PUSH1 0x1 PUSH1 0xA0 SHL SUB AND PUSH4 0x77CFA991 PUSH1 0x40 MLOAD DUP2 PUSH4 0xFFFFFFFF AND PUSH1 0xE0 SHL DUP2 MSTORE PUSH1 0x4 ADD PUSH1 0x20 PUSH1 0x40 MLOAD DUP1 DUP4 SUB DUP2 DUP7 DUP1 EXTCODESIZE ISZERO DUP1 ISZERO PUSH2 0x2287 JUMPI PUSH1 0x0 DUP1 REVERT JUMPDEST POP GAS STATICCALL ISZERO DUP1 ISZERO PUSH2 0x229B JUMPI RETURNDATASIZE PUSH1 0x0 DUP1 RETURNDATACOPY RETURNDATASIZE PUSH1 0x0 REVERT JUMPDEST POP POP POP POP PUSH1 0x40 MLOAD RETURNDATASIZE PUSH1 0x1F NOT PUSH1 0x1F DUP3 ADD AND DUP3 ADD DUP1 PUSH1 0x40 MSTORE POP DUP2 ADD SWAP1 PUSH2 0x22BF SWAP2 SWAP1 PUSH2 0x5670 JUMP JUMPDEST PUSH1 0x40 MLOAD DUP3 PUSH4 0xFFFFFFFF AND PUSH1 0xE0 SHL DUP2 MSTORE PUSH1 0x4 ADD PUSH2 0x22DD SWAP2 DUP2 MSTORE PUSH1 0x20 ADD SWAP1 JUMP JUMPDEST PUSH1 0x20 PUSH1 0x40 MLOAD DUP1 DUP4 SUB DUP2 DUP7 DUP1 EXTCODESIZE ISZERO DUP1 ISZERO PUSH2 0x22F5 JUMPI PUSH1 0x0 DUP1 REVERT JUMPDEST POP GAS STATICCALL ISZERO DUP1 ISZERO PUSH2 0x2309 JUMPI RETURNDATASIZE PUSH1 0x0 DUP1 RETURNDATACOPY RETURNDATASIZE PUSH1 0x0 REVERT JUMPDEST POP POP POP POP PUSH1 0x40 MLOAD RETURNDATASIZE PUSH1 0x1F NOT PUSH1 0x1F DUP3 ADD AND DUP3 ADD DUP1 PUSH1 0x40 MSTORE POP DUP2 ADD SWAP1 PUSH2 0x232D SWAP2 SWAP1 PUSH2 0x52DC JUMP JUMPDEST PUSH1 0x40 MLOAD PUSH4 0xE6C5A541 PUSH1 0xE0 SHL DUP2 MSTORE PUSH4 0xFFFFFFFF DUP14 AND PUSH1 0x4 DUP3 ADD MSTORE SWAP1 SWAP2 POP PUSH1 0x0 SWAP1 DUP2 SWAP1 PUSH1 0x1 PUSH1 0x1 PUSH1 0xA0 SHL SUB DUP5 AND SWAP1 PUSH4 0xE6C5A541 SWAP1 PUSH1 0x24 ADD PUSH1 0x60 PUSH1 0x40 MLOAD DUP1 DUP4 SUB DUP2 DUP7 DUP1 EXTCODESIZE ISZERO DUP1 ISZERO PUSH2 0x237A JUMPI PUSH1 0x0 DUP1 REVERT JUMPDEST POP GAS STATICCALL ISZERO DUP1 ISZERO PUSH2 0x238E JUMPI RETURNDATASIZE PUSH1 0x0 DUP1 RETURNDATACOPY RETURNDATASIZE PUSH1 0x0 REVERT JUMPDEST POP POP POP POP PUSH1 0x40 MLOAD RETURNDATASIZE PUSH1 0x1F NOT PUSH1 0x1F DUP3 ADD AND DUP3 ADD DUP1 PUSH1 0x40 MSTORE POP DUP2 ADD SWAP1 PUSH2 0x23B2 SWAP2 SWAP1 PUSH2 0x56B0 JUMP JUMPDEST PUSH1 0x20 DUP2 ADD MLOAD PUSH2 0x140 DUP15 ADD MLOAD SWAP2 SWAP3 POP PUSH1 0x1 PUSH1 0x1 PUSH1 0x40 SHL SUB AND SWAP1 PUSH1 0x1 PUSH1 0x1 PUSH1 0xA0 SHL SUB AND ISZERO PUSH2 0x23E5 JUMPI DUP13 PUSH2 0x140 ADD MLOAD SWAP3 POP PUSH2 0x24D6 JUMP JUMPDEST DUP4 PUSH1 0x1 PUSH1 0x1 PUSH1 0xA0 SHL SUB AND PUSH4 0x8208E76C PUSH1 0x40 MLOAD DUP2 PUSH4 0xFFFFFFFF AND PUSH1 0xE0 SHL DUP2 MSTORE PUSH1 0x4 ADD PUSH1 0x20 PUSH1 0x40 MLOAD DUP1 DUP4 SUB DUP2 DUP7 DUP1 EXTCODESIZE ISZERO DUP1 ISZERO PUSH2 0x241E JUMPI PUSH1 0x0 DUP1 REVERT JUMPDEST POP GAS STATICCALL ISZERO DUP1 ISZERO PUSH2 0x2432 JUMPI RETURNDATASIZE PUSH1 0x0 DUP1 RETURNDATACOPY RETURNDATASIZE PUSH1 0x0 REVERT JUMPDEST POP POP POP POP PUSH1 0x40 MLOAD RETURNDATASIZE PUSH1 0x1F NOT PUSH1 0x1F DUP3 ADD AND DUP3 ADD DUP1 PUSH1 0x40 MSTORE POP DUP2 ADD SWAP1 PUSH2 0x2456 SWAP2 SWAP1 PUSH2 0x52DC JUMP JUMPDEST PUSH1 0x1 PUSH1 0x1 PUSH1 0xA0 SHL SUB AND PUSH4 0x6352211E DUP3 PUSH1 0x40 MLOAD DUP3 PUSH4 0xFFFFFFFF AND PUSH1 0xE0 SHL DUP2 MSTORE PUSH1 0x4 ADD PUSH2 0x2483 SWAP2 DUP2 MSTORE PUSH1 0x20 ADD SWAP1 JUMP JUMPDEST PUSH1 0x20 PUSH1 0x40 MLOAD DUP1 DUP4 SUB DUP2 DUP7 DUP1 EXTCODESIZE ISZERO DUP1 ISZERO PUSH2 0x249B JUMPI PUSH1 0x0 DUP1 REVERT JUMPDEST POP GAS STATICCALL ISZERO DUP1 ISZERO PUSH2 0x24AF JUMPI RETURNDATASIZE PUSH1 0x0 DUP1 RETURNDATACOPY RETURNDATASIZE PUSH1 0x0 REVERT JUMPDEST POP POP POP POP PUSH1 0x40 MLOAD RETURNDATASIZE PUSH1 0x1F NOT PUSH1 0x1F DUP3 ADD AND DUP3 ADD DUP1 PUSH1 0x40 MSTORE POP DUP2 ADD SWAP1 PUSH2 0x24D3 SWAP2 SWAP1 PUSH2 0x52DC JUMP JUMPDEST SWAP3 POP JUMPDEST POP POP CALLER PUSH1 0x1 PUSH1 0x1 PUSH1 0xA0 SHL SUB DUP3 AND EQ PUSH2 0x252C JUMPI PUSH1 0x40 MLOAD PUSH3 0x461BCD PUSH1 0xE5 SHL DUP2 MSTORE PUSH1 0x20 PUSH1 0x4 DUP3 ADD MSTORE PUSH1 0x19 PUSH1 0x24 DUP3 ADD MSTORE PUSH25 0x4F6E6C7920626F72726F7765722063616E2061697264726F7 PUSH1 0x3C SHL PUSH1 0x44 DUP3 ADD MSTORE PUSH1 0x64 ADD PUSH2 0x70E JUMP JUMPDEST PUSH1 0x40 MLOAD PUSH4 0x1C2D8FB3 PUSH1 0xE3 SHL DUP2 MSTORE PUSH18 0x20A4A9222927A82FA32620A9A42FA627A0A7 PUSH1 0x71 SHL PUSH1 0x4 DUP3 ADD MSTORE PUSH1 0x0 SWAP1 PUSH1 0x1 PUSH1 0x1 PUSH1 0xA0 SHL SUB DUP6 AND SWAP1 PUSH4 0xE16C7D98 SWAP1 PUSH1 0x24 ADD PUSH1 0x20 PUSH1 0x40 MLOAD DUP1 DUP4 SUB DUP2 DUP7 DUP1 EXTCODESIZE ISZERO DUP1 ISZERO PUSH2 0x2583 JUMPI PUSH1 0x0 DUP1 REVERT JUMPDEST POP GAS STATICCALL ISZERO DUP1 ISZERO PUSH2 0x2597 JUMPI RETURNDATASIZE PUSH1 0x0 DUP1 RETURNDATACOPY RETURNDATASIZE PUSH1 0x0 REVERT JUMPDEST POP POP POP POP PUSH1 0x40 MLOAD RETURNDATASIZE PUSH1 0x1F NOT PUSH1 0x1F DUP3 ADD AND DUP3 ADD DUP1 PUSH1 0x40 MSTORE POP DUP2 ADD SWAP1 PUSH2 0x25BB SWAP2 SWAP1 PUSH2 0x52DC JUMP JUMPDEST SWAP1 POP PUSH2 0x25C8 DUP13 ADDRESS DUP4 PUSH2 0x3A88 JUMP JUMPDEST DUP1 PUSH1 0x1 PUSH1 0x1 PUSH1 0xA0 SHL SUB AND PUSH4 0x846E940 DUP14 PUSH2 0x120 ADD MLOAD DUP15 PUSH1 0x40 ADD MLOAD DUP16 PUSH1 0xE0 ADD MLOAD DUP16 DUP16 DUP16 DUP16 DUP16 DUP16 DUP16 DUP14 PUSH1 0x40 MLOAD DUP13 PUSH4 0xFFFFFFFF AND PUSH1 0xE0 SHL DUP2 MSTORE PUSH1 0x4 ADD PUSH2 0x2615 SWAP12 SWAP11 SWAP10 SWAP9 SWAP8 SWAP7 SWAP6 SWAP5 SWAP4 SWAP3 SWAP2 SWAP1 PUSH2 0x5BED JUMP JUMPDEST PUSH1 0x0 PUSH1 0x40 MLOAD DUP1 DUP4 SUB DUP2 PUSH1 0x0 DUP8 DUP1 EXTCODESIZE ISZERO DUP1 ISZERO PUSH2 0x262F JUMPI PUSH1 0x0 DUP1 REVERT JUMPDEST POP GAS CALL ISZERO DUP1 ISZERO PUSH2 0x2643 JUMPI RETURNDATASIZE PUSH1 0x0 DUP1 RETURNDATACOPY RETURNDATASIZE PUSH1 0x0 REVERT JUMPDEST POP POP POP POP POP DUP11 PUSH1 0xE0 ADD MLOAD PUSH1 0x1 PUSH1 0x1 PUSH1 0xA0 SHL SUB AND PUSH4 0xF370E8C5 ADDRESS DUP14 PUSH2 0x120 ADD MLOAD DUP15 PUSH1 0x40 ADD MLOAD PUSH1 0x40 MLOAD DUP5 PUSH4 0xFFFFFFFF AND PUSH1 0xE0 SHL DUP2 MSTORE PUSH1 0x4 ADD PUSH2 0x2685 SWAP4 SWAP3 SWAP2 SWAP1 PUSH2 0x5BB0 JUMP JUMPDEST PUSH1 0x20 PUSH1 0x40 MLOAD DUP1 DUP4 SUB DUP2 DUP7 DUP1 EXTCODESIZE ISZERO DUP1 ISZERO PUSH2 0x269D JUMPI PUSH1 0x0 DUP1 REVERT JUMPDEST POP GAS STATICCALL ISZERO DUP1 ISZERO PUSH2 0x26B1 JUMPI RETURNDATASIZE PUSH1 0x0 DUP1 RETURNDATACOPY RETURNDATASIZE PUSH1 0x0 REVERT JUMPDEST POP POP POP POP PUSH1 0x40 MLOAD RETURNDATASIZE PUSH1 0x1F NOT PUSH1 0x1F DUP3 ADD AND DUP3 ADD DUP1 PUSH1 0x40 MSTORE POP DUP2 ADD SWAP1 PUSH2 0x26D5 SWAP2 SWAP1 PUSH2 0x5654 JUMP JUMPDEST PUSH2 0x2721 JUMPI PUSH1 0x40 MLOAD PUSH3 0x461BCD PUSH1 0xE5 SHL DUP2 MSTORE PUSH1 0x20 PUSH1 0x4 DUP3 ADD MSTORE PUSH1 0x1D PUSH1 0x24 DUP3 ADD MSTORE PUSH32 0x436F6C6C61746572616C2073686F756C642062652072657475726E6564000000 PUSH1 0x44 DUP3 ADD MSTORE PUSH1 0x64 ADD PUSH2 0x70E JUMP JUMPDEST DUP1 PUSH1 0x1 PUSH1 0x1 PUSH1 0xA0 SHL SUB AND DUP13 PUSH4 0xFFFFFFFF AND PUSH32 0xAAF2E5AE3768D93AB0323BDD249040A63FBFABC559387211ECB3813990D29479 DUP14 PUSH1 0x40 ADD MLOAD DUP15 PUSH2 0x120 ADD MLOAD DUP15 DUP15 DUP15 PUSH1 0x40 MLOAD PUSH2 0x2772 SWAP6 SWAP5 SWAP4 SWAP3 SWAP2 SWAP1 PUSH2 0x5ED0 JUMP JUMPDEST PUSH1 0x40 MLOAD DUP1 SWAP2 SUB SWAP1 LOG3 POP POP POP POP POP POP POP POP POP POP POP POP JUMP JUMPDEST PUSH2 0x2790 PUSH2 0x3B2B JUMP JUMPDEST PUSH1 0x0 DUP1 SLOAD PUSH1 0xFF PUSH1 0xA0 SHL NOT AND SWAP1 SSTORE PUSH32 0x5DB9EE0A495BF2E6FF9C91A7834C1BA4FDD244A5E8AA4E537BD38AEAE4B073AA CALLER JUMPDEST PUSH1 0x40 MLOAD PUSH2 0x27CD SWAP2 SWAP1 PUSH2 0x5B9C JUMP JUMPDEST PUSH1 0x40 MLOAD DUP1 SWAP2 SUB SWAP1 LOG1 JUMP JUMPDEST PUSH2 0x27DF PUSH2 0xF42 JUMP JUMPDEST ISZERO PUSH2 0xB62 JUMPI PUSH1 0x40 MLOAD PUSH3 0x461BCD PUSH1 0xE5 SHL DUP2 MSTORE PUSH1 0x20 PUSH1 0x4 DUP3 ADD MSTORE PUSH1 0x10 PUSH1 0x24 DUP3 ADD MSTORE PUSH16 0x14185D5CD8589B194E881C185D5CD959 PUSH1 0x82 SHL PUSH1 0x44 DUP3 ADD MSTORE PUSH1 0x64 ADD PUSH2 0x70E JUMP JUMPDEST PUSH1 0x40 MLOAD PUSH4 0x1C2D8FB3 PUSH1 0xE3 SHL DUP2 MSTORE PUSH14 0x5045524D49545445445F4E465453 PUSH1 0x90 SHL PUSH1 0x4 DUP3 ADD MSTORE PUSH1 0x0 SWAP1 PUSH32 0x0 PUSH1 0x1 PUSH1 0x1 PUSH1 0xA0 SHL SUB AND SWAP1 PUSH4 0xE16C7D98 SWAP1 PUSH1 0x24 ADD PUSH1 0x20 PUSH1 0x40 MLOAD DUP1 DUP4 SUB DUP2 DUP7 DUP1 EXTCODESIZE ISZERO DUP1 ISZERO PUSH2 0x2892 JUMPI PUSH1 0x0 DUP1 REVERT JUMPDEST POP GAS STATICCALL ISZERO DUP1 ISZERO PUSH2 0x28A6 JUMPI RETURNDATASIZE PUSH1 0x0 DUP1 RETURNDATACOPY RETURNDATASIZE PUSH1 0x0 REVERT JUMPDEST POP POP POP POP PUSH1 0x40 MLOAD RETURNDATASIZE PUSH1 0x1F NOT PUSH1 0x1F DUP3 ADD AND DUP3 ADD DUP1 PUSH1 0x40 MSTORE POP DUP2 ADD SWAP1 PUSH2 0x28CA SWAP2 SWAP1 PUSH2 0x52DC JUMP JUMPDEST PUSH1 0x1 PUSH1 0x1 PUSH1 0xA0 SHL SUB AND PUSH4 0xB8C8AFF8 DUP4 PUSH1 0x40 MLOAD DUP3 PUSH4 0xFFFFFFFF AND PUSH1 0xE0 SHL DUP2 MSTORE PUSH1 0x4 ADD PUSH2 0x28F5 SWAP2 SWAP1 PUSH2 0x5B9C JUMP JUMPDEST PUSH1 0x20 PUSH1 0x40 MLOAD DUP1 DUP4 SUB DUP2 DUP7 DUP1 EXTCODESIZE ISZERO DUP1 ISZERO PUSH2 0x290D JUMPI PUSH1 0x0 DUP1 REVERT JUMPDEST POP GAS STATICCALL ISZERO DUP1 ISZERO PUSH2 0x2921 JUMPI RETURNDATASIZE PUSH1 0x0 DUP1 RETURNDATACOPY RETURNDATASIZE PUSH1 0x0 REVERT JUMPDEST POP POP POP POP PUSH1 0x40 MLOAD RETURNDATASIZE PUSH1 0x1F NOT PUSH1 0x1F DUP3 ADD AND DUP3 ADD DUP1 PUSH1 0x40 MSTORE POP DUP2 ADD SWAP1 PUSH2 0x6D9 SWAP2 SWAP1 PUSH2 0x52DC JUMP JUMPDEST PUSH1 0xC0 DUP3 ADD MLOAD PUSH1 0x1 PUSH1 0x1 PUSH1 0xA0 SHL SUB AND PUSH1 0x0 SWAP1 DUP2 MSTORE PUSH1 0x9 PUSH1 0x20 MSTORE PUSH1 0x40 SWAP1 KECCAK256 SLOAD PUSH1 0xFF AND PUSH2 0x29C0 JUMPI PUSH1 0x40 MLOAD PUSH3 0x461BCD PUSH1 0xE5 SHL DUP2 MSTORE PUSH1 0x20 PUSH1 0x4 DUP3 ADD MSTORE PUSH1 0x26 PUSH1 0x24 DUP3 ADD MSTORE PUSH32 0x43757272656E63792064656E6F6D696E6174696F6E206973206E6F7420706572 PUSH1 0x44 DUP3 ADD MSTORE PUSH6 0x1B5A5D1D1959 PUSH1 0xD2 SHL PUSH1 0x64 DUP3 ADD MSTORE PUSH1 0x84 ADD PUSH2 0x70E JUMP JUMPDEST PUSH1 0x1 PUSH1 0x1 PUSH1 0xA0 SHL SUB DUP2 AND PUSH2 0x2A27 JUMPI PUSH1 0x40 MLOAD PUSH3 0x461BCD PUSH1 0xE5 SHL DUP2 MSTORE PUSH1 0x20 PUSH1 0x4 DUP3 ADD MSTORE PUSH1 0x28 PUSH1 0x24 DUP3 ADD MSTORE PUSH32 0x4E465420636F6C6C61746572616C20636F6E7472616374206973206E6F742070 PUSH1 0x44 DUP3 ADD MSTORE PUSH8 0x195C9B5A5D1D1959 PUSH1 0xC2 SHL PUSH1 0x64 DUP3 ADD MSTORE PUSH1 0x84 ADD PUSH2 0x70E JUMP JUMPDEST PUSH1 0x2 SLOAD DUP3 PUSH1 0x80 ADD MLOAD PUSH4 0xFFFFFFFF AND GT ISZERO PUSH2 0x2A97 JUMPI PUSH1 0x40 MLOAD PUSH3 0x461BCD PUSH1 0xE5 SHL DUP2 MSTORE PUSH1 0x20 PUSH1 0x4 DUP3 ADD MSTORE PUSH1 0x2B PUSH1 0x24 DUP3 ADD MSTORE PUSH32 0x4C6F616E206475726174696F6E2065786365656473206D6178696D756D206C6F PUSH1 0x44 DUP3 ADD MSTORE PUSH11 0x30B710323AB930BA34B7B7 PUSH1 0xA9 SHL PUSH1 0x64 DUP3 ADD MSTORE PUSH1 0x84 ADD PUSH2 0x70E JUMP JUMPDEST PUSH1 0x80 DUP3 ADD MLOAD PUSH4 0xFFFFFFFF AND PUSH2 0x2AEE JUMPI PUSH1 0x40 MLOAD PUSH3 0x461BCD PUSH1 0xE5 SHL DUP2 MSTORE PUSH1 0x20 PUSH1 0x4 DUP3 ADD MSTORE PUSH1 0x1C PUSH1 0x24 DUP3 ADD MSTORE PUSH32 0x4C6F616E206475726174696F6E2063616E6E6F74206265207A65726F00000000 PUSH1 0x44 DUP3 ADD MSTORE PUSH1 0x64 ADD PUSH2 0x70E JUMP JUMPDEST PUSH1 0x3 SLOAD PUSH1 0xA0 DUP4 ADD MLOAD PUSH2 0xFFFF SWAP1 DUP2 AND SWAP2 AND EQ PUSH2 0xF8B JUMPI PUSH1 0x40 MLOAD PUSH3 0x461BCD PUSH1 0xE5 SHL DUP2 MSTORE PUSH1 0x20 PUSH1 0x4 DUP3 ADD MSTORE PUSH1 0x36 PUSH1 0x24 DUP3 ADD MSTORE PUSH32 0x5468652061646D696E2066656520686173206368616E6765642073696E636520 PUSH1 0x44 DUP3 ADD MSTORE PUSH22 0x3A3434B99037B93232B9103BB0B99039B4B3B732B217 PUSH1 0x51 SHL PUSH1 0x64 DUP3 ADD MSTORE PUSH1 0x84 ADD PUSH2 0x70E JUMP JUMPDEST DUP1 MLOAD PUSH1 0x20 DUP3 ADD MLOAD LT ISZERO PUSH2 0x9BB JUMPI PUSH1 0x40 MLOAD PUSH3 0x461BCD PUSH1 0xE5 SHL DUP2 MSTORE PUSH1 0x4 ADD PUSH2 0x70E SWAP1 PUSH2 0x5C8E JUMP JUMPDEST PUSH2 0x2B97 PUSH2 0x4FD6 JUMP JUMPDEST PUSH1 0x40 MLOAD DUP1 PUSH2 0x160 ADD PUSH1 0x40 MSTORE DUP1 DUP5 PUSH1 0x0 ADD MLOAD DUP2 MSTORE PUSH1 0x20 ADD DUP5 PUSH1 0x20 ADD MLOAD DUP2 MSTORE PUSH1 0x20 ADD DUP5 PUSH1 0x40 ADD MLOAD DUP2 MSTORE PUSH1 0x20 ADD DUP5 PUSH1 0xC0 ADD MLOAD PUSH1 0x1 PUSH1 0x1 PUSH1 0xA0 SHL SUB AND DUP2 MSTORE PUSH1 0x20 ADD DUP5 PUSH1 0x80 ADD MLOAD PUSH4 0xFFFFFFFF AND DUP2 MSTORE PUSH1 0x20 ADD PUSH1 0x0 PUSH2 0xFFFF AND DUP2 MSTORE PUSH1 0x20 ADD DUP5 PUSH1 0xA0 ADD MLOAD PUSH2 0xFFFF AND DUP2 MSTORE PUSH1 0x20 ADD DUP4 PUSH1 0x1 PUSH1 0x1 PUSH1 0xA0 SHL SUB AND DUP2 MSTORE PUSH1 0x20 ADD TIMESTAMP PUSH1 0x1 PUSH1 0x1 PUSH1 0x40 SHL SUB AND DUP2 MSTORE PUSH1 0x20 ADD DUP5 PUSH1 0x60 ADD MLOAD PUSH1 0x1 PUSH1 0x1 PUSH1 0xA0 SHL SUB AND DUP2 MSTORE PUSH1 0x20 ADD CALLER PUSH1 0x1 PUSH1 0x1 PUSH1 0xA0 SHL SUB AND DUP2 MSTORE POP SWAP1 POP SWAP3 SWAP2 POP POP JUMP JUMPDEST PUSH1 0x40 DUP1 MLOAD PUSH1 0x60 DUP2 ADD DUP3 MSTORE PUSH1 0x0 DUP1 DUP3 MSTORE PUSH1 0x20 DUP3 ADD DUP2 SWAP1 MSTORE SWAP2 DUP2 ADD SWAP2 SWAP1 SWAP2 MSTORE PUSH1 0x40 MLOAD DUP1 PUSH1 0x60 ADD PUSH1 0x40 MSTORE DUP1 DUP5 PUSH1 0x1 PUSH1 0x1 PUSH1 0xA0 SHL SUB AND DUP2 MSTORE PUSH1 0x20 ADD PUSH2 0x2CA4 DUP6 PUSH32 0x0 PUSH2 0x3B76 JUMP JUMPDEST PUSH2 0xFFFF AND DUP2 MSTORE PUSH1 0x20 ADD DUP4 PUSH2 0xFFFF AND DUP2 MSTORE POP SWAP1 POP SWAP3 SWAP2 POP POP JUMP JUMPDEST PUSH1 0x40 DUP1 DUP3 ADD MLOAD PUSH1 0x1 PUSH1 0x1 PUSH1 0xA0 SHL SUB AND PUSH1 0x0 SWAP1 DUP2 MSTORE PUSH1 0x8 PUSH1 0x20 SWAP1 DUP2 MSTORE DUP3 DUP3 KECCAK256 DUP5 MLOAD DUP4 MSTORE SWAP1 MSTORE KECCAK256 SLOAD PUSH1 0xFF AND ISZERO PUSH2 0x2D03 JUMPI PUSH1 0x40 MLOAD PUSH3 0x461BCD PUSH1 0xE5 SHL DUP2 MSTORE PUSH1 0x4 ADD PUSH2 0x70E SWAP1 PUSH2 0x5D40 JUMP JUMPDEST PUSH1 0x40 DUP1 DUP3 ADD MLOAD PUSH1 0x1 PUSH1 0x1 PUSH1 0xA0 SHL SUB AND PUSH1 0x0 SWAP1 DUP2 MSTORE PUSH1 0x8 PUSH1 0x20 SWAP1 DUP2 MSTORE DUP3 DUP3 KECCAK256 DUP5 MLOAD DUP4 MSTORE SWAP1 MSTORE KECCAK256 DUP1 SLOAD PUSH1 0xFF NOT AND PUSH1 0x1 OR SWAP1 SSTORE PUSH2 0x2D3D DUP3 DUP3 PUSH2 0x3C98 JUMP JUMPDEST PUSH2 0x2D89 JUMPI PUSH1 0x40 MLOAD PUSH3 0x461BCD PUSH1 0xE5 SHL DUP2 MSTORE PUSH1 0x20 PUSH1 0x4 DUP3 ADD MSTORE PUSH1 0x1B PUSH1 0x24 DUP3 ADD MSTORE PUSH32 0x4C656E646572207369676E617475726520697320696E76616C69640000000000 PUSH1 0x44 DUP3 ADD MSTORE PUSH1 0x64 ADD PUSH2 0x70E JUMP JUMPDEST PUSH1 0x40 MLOAD PUSH4 0x1C2D8FB3 PUSH1 0xE3 SHL DUP2 MSTORE PUSH13 0x27232A2324AFA12AA7222622A9 PUSH1 0x99 SHL PUSH1 0x4 DUP3 ADD MSTORE PUSH1 0x0 SWAP1 PUSH32 0x0 PUSH1 0x1 PUSH1 0x1 PUSH1 0xA0 SHL SUB AND SWAP1 PUSH4 0xE16C7D98 SWAP1 PUSH1 0x24 ADD PUSH1 0x20 PUSH1 0x40 MLOAD DUP1 DUP4 SUB DUP2 DUP7 DUP1 EXTCODESIZE ISZERO DUP1 ISZERO PUSH2 0x2DFB JUMPI PUSH1 0x0 DUP1 REVERT JUMPDEST POP GAS STATICCALL ISZERO DUP1 ISZERO PUSH2 0x2E0F JUMPI RETURNDATASIZE PUSH1 0x0 DUP1 RETURNDATACOPY RETURNDATASIZE PUSH1 0x0 REVERT JUMPDEST POP POP POP POP PUSH1 0x40 MLOAD RETURNDATASIZE PUSH1 0x1F NOT PUSH1 0x1F DUP3 ADD AND DUP3 ADD DUP1 PUSH1 0x40 MSTORE POP DUP2 ADD SWAP1 PUSH2 0x2E33 SWAP2 SWAP1 PUSH2 0x52DC JUMP JUMPDEST SWAP1 POP DUP1 PUSH1 0x1 PUSH1 0x1 PUSH1 0xA0 SHL SUB AND DUP6 PUSH2 0x120 ADD MLOAD PUSH1 0x1 PUSH1 0x1 PUSH1 0xA0 SHL SUB AND EQ ISZERO PUSH2 0x2E9C JUMPI PUSH1 0x40 MLOAD PUSH3 0x461BCD PUSH1 0xE5 SHL DUP2 MSTORE PUSH1 0x20 PUSH1 0x4 DUP3 ADD MSTORE PUSH1 0x1B PUSH1 0x24 DUP3 ADD MSTORE PUSH32 0x436F6C6C61746572616C2063616E6E6F742062652062756E646C650000000000 PUSH1 0x44 DUP3 ADD MSTORE PUSH1 0x64 ADD PUSH2 0x70E JUMP JUMPDEST PUSH1 0x0 PUSH2 0x2ED1 PUSH26 0x4449524543545F4C4F414E5F46495845445F52454445504C4F59 PUSH1 0x30 SHL DUP8 DUP8 CALLER DUP8 PUSH1 0x40 ADD MLOAD DUP10 PUSH1 0xE0 ADD MLOAD PUSH2 0x3CA5 JUMP JUMPDEST SWAP1 POP DUP3 PUSH1 0x40 ADD MLOAD PUSH1 0x1 PUSH1 0x1 PUSH1 0xA0 SHL SUB AND CALLER PUSH1 0x1 PUSH1 0x1 PUSH1 0xA0 SHL SUB AND DUP3 PUSH4 0xFFFFFFFF AND PUSH32 0x42CC7F53EF7B494C5DD6F0095175F7D07B5D3D7B2A03F34389FEA445BA4A3A8B DUP10 DUP10 PUSH1 0x40 MLOAD PUSH2 0x2F23 SWAP3 SWAP2 SWAP1 PUSH2 0x5DD0 JUMP JUMPDEST PUSH1 0x40 MLOAD DUP1 SWAP2 SUB SWAP1 LOG4 POP POP POP POP POP POP JUMP JUMPDEST PUSH1 0x0 DUP1 PUSH1 0x0 DUP4 PUSH1 0x1 PUSH1 0x1 PUSH1 0xA0 SHL SUB AND PUSH4 0xE16C7D98 ADDRESS PUSH1 0x1 PUSH1 0x1 PUSH1 0xA0 SHL SUB AND PUSH4 0x77CFA991 PUSH1 0x40 MLOAD DUP2 PUSH4 0xFFFFFFFF AND PUSH1 0xE0 SHL DUP2 MSTORE PUSH1 0x4 ADD PUSH1 0x20 PUSH1 0x40 MLOAD DUP1 DUP4 SUB DUP2 DUP7 DUP1 EXTCODESIZE ISZERO DUP1 ISZERO PUSH2 0x2F80 JUMPI PUSH1 0x0 DUP1 REVERT JUMPDEST POP GAS STATICCALL ISZERO DUP1 ISZERO PUSH2 0x2F94 JUMPI RETURNDATASIZE PUSH1 0x0 DUP1 RETURNDATACOPY RETURNDATASIZE PUSH1 0x0 REVERT JUMPDEST POP POP POP POP PUSH1 0x40 MLOAD RETURNDATASIZE PUSH1 0x1F NOT PUSH1 0x1F DUP3 ADD AND DUP3 ADD DUP1 PUSH1 0x40 MSTORE POP DUP2 ADD SWAP1 PUSH2 0x2FB8 SWAP2 SWAP1 PUSH2 0x5670 JUMP JUMPDEST PUSH1 0x40 MLOAD DUP3 PUSH4 0xFFFFFFFF AND PUSH1 0xE0 SHL DUP2 MSTORE PUSH1 0x4 ADD PUSH2 0x2FD6 SWAP2 DUP2 MSTORE PUSH1 0x20 ADD SWAP1 JUMP JUMPDEST PUSH1 0x20 PUSH1 0x40 MLOAD DUP1 DUP4 SUB DUP2 DUP7 DUP1 EXTCODESIZE ISZERO DUP1 ISZERO PUSH2 0x2FEE JUMPI PUSH1 0x0 DUP1 REVERT JUMPDEST POP GAS STATICCALL ISZERO DUP1 ISZERO PUSH2 0x3002 JUMPI RETURNDATASIZE PUSH1 0x0 DUP1 RETURNDATACOPY RETURNDATASIZE PUSH1 0x0 REVERT JUMPDEST POP POP POP POP PUSH1 0x40 MLOAD RETURNDATASIZE PUSH1 0x1F NOT PUSH1 0x1F DUP3 ADD AND DUP3 ADD DUP1 PUSH1 0x40 MSTORE POP DUP2 ADD SWAP1 PUSH2 0x3026 SWAP2 SWAP1 PUSH2 0x52DC JUMP JUMPDEST PUSH1 0x40 MLOAD PUSH4 0xE6C5A541 PUSH1 0xE0 SHL DUP2 MSTORE PUSH4 0xFFFFFFFF DUP9 AND PUSH1 0x4 DUP3 ADD MSTORE SWAP1 SWAP2 POP PUSH1 0x0 SWAP1 PUSH1 0x1 PUSH1 0x1 PUSH1 0xA0 SHL SUB DUP4 AND SWAP1 PUSH4 0xE6C5A541 SWAP1 PUSH1 0x24 ADD PUSH1 0x60 PUSH1 0x40 MLOAD DUP1 DUP4 SUB DUP2 DUP7 DUP1 EXTCODESIZE ISZERO DUP1 ISZERO PUSH2 0x3071 JUMPI PUSH1 0x0 DUP1 REVERT JUMPDEST POP GAS STATICCALL ISZERO DUP1 ISZERO PUSH2 0x3085 JUMPI RETURNDATASIZE PUSH1 0x0 DUP1 RETURNDATACOPY RETURNDATASIZE PUSH1 0x0 REVERT JUMPDEST POP POP POP POP PUSH1 0x40 MLOAD RETURNDATASIZE PUSH1 0x1F NOT PUSH1 0x1F DUP3 ADD AND DUP3 ADD DUP1 PUSH1 0x40 MSTORE POP DUP2 ADD SWAP1 PUSH2 0x30A9 SWAP2 SWAP1 PUSH2 0x56B0 JUMP JUMPDEST PUSH1 0x20 DUP2 ADD MLOAD PUSH1 0x6 DUP9 ADD SLOAD SWAP2 SWAP3 POP PUSH1 0x1 PUSH1 0x1 PUSH1 0x40 SHL SUB AND SWAP1 PUSH1 0x0 SWAP1 PUSH1 0x1 PUSH1 0x1 PUSH1 0xA0 SHL SUB AND ISZERO PUSH2 0x30E5 JUMPI POP PUSH1 0x6 DUP8 ADD SLOAD PUSH1 0x1 PUSH1 0x1 PUSH1 0xA0 SHL SUB AND PUSH2 0x31D6 JUMP JUMPDEST DUP4 PUSH1 0x1 PUSH1 0x1 PUSH1 0xA0 SHL SUB AND PUSH4 0x8208E76C PUSH1 0x40 MLOAD DUP2 PUSH4 0xFFFFFFFF AND PUSH1 0xE0 SHL DUP2 MSTORE PUSH1 0x4 ADD PUSH1 0x20 PUSH1 0x40 MLOAD DUP1 DUP4 SUB DUP2 DUP7 DUP1 EXTCODESIZE ISZERO DUP1 ISZERO PUSH2 0x311E JUMPI PUSH1 0x0 DUP1 REVERT JUMPDEST POP GAS STATICCALL ISZERO DUP1 ISZERO PUSH2 0x3132 JUMPI RETURNDATASIZE PUSH1 0x0 DUP1 RETURNDATACOPY RETURNDATASIZE PUSH1 0x0 REVERT JUMPDEST POP POP POP POP PUSH1 0x40 MLOAD RETURNDATASIZE PUSH1 0x1F NOT PUSH1 0x1F DUP3 ADD AND DUP3 ADD DUP1 PUSH1 0x40 MSTORE POP DUP2 ADD SWAP1 PUSH2 0x3156 SWAP2 SWAP1 PUSH2 0x52DC JUMP JUMPDEST PUSH1 0x1 PUSH1 0x1 PUSH1 0xA0 SHL SUB AND PUSH4 0x6352211E DUP4 PUSH1 0x40 MLOAD DUP3 PUSH4 0xFFFFFFFF AND PUSH1 0xE0 SHL DUP2 MSTORE PUSH1 0x4 ADD PUSH2 0x3183 SWAP2 DUP2 MSTORE PUSH1 0x20 ADD SWAP1 JUMP JUMPDEST PUSH1 0x20 PUSH1 0x40 MLOAD DUP1 DUP4 SUB DUP2 DUP7 DUP1 EXTCODESIZE ISZERO DUP1 ISZERO PUSH2 0x319B JUMPI PUSH1 0x0 DUP1 REVERT JUMPDEST POP GAS STATICCALL ISZERO DUP1 ISZERO PUSH2 0x31AF JUMPI RETURNDATASIZE PUSH1 0x0 DUP1 RETURNDATACOPY RETURNDATASIZE PUSH1 0x0 REVERT JUMPDEST POP POP POP POP PUSH1 0x40 MLOAD RETURNDATASIZE PUSH1 0x1F NOT PUSH1 0x1F DUP3 ADD AND DUP3 ADD DUP1 PUSH1 0x40 MSTORE POP DUP2 ADD SWAP1 PUSH2 0x31D3 SWAP2 SWAP1 PUSH2 0x52DC JUMP JUMPDEST SWAP1 POP JUMPDEST CALLER PUSH1 0x1 PUSH1 0x1 PUSH1 0xA0 SHL SUB DUP3 AND EQ PUSH2 0x3228 JUMPI PUSH1 0x40 MLOAD PUSH3 0x461BCD PUSH1 0xE5 SHL DUP2 MSTORE PUSH1 0x20 PUSH1 0x4 DUP3 ADD MSTORE PUSH1 0x17 PUSH1 0x24 DUP3 ADD MSTORE PUSH23 0x4F6E6C7920626F72726F7765722063616E20777261707 PUSH1 0x4C SHL PUSH1 0x44 DUP3 ADD MSTORE PUSH1 0x64 ADD PUSH2 0x70E JUMP JUMPDEST PUSH1 0x40 MLOAD PUSH4 0x1C2D8FB3 PUSH1 0xE3 SHL DUP2 MSTORE PUSH15 0x41495244524F505F464143544F5259 PUSH1 0x88 SHL PUSH1 0x4 DUP3 ADD MSTORE PUSH1 0x0 SWAP1 PUSH1 0x1 PUSH1 0x1 PUSH1 0xA0 SHL SUB DUP10 AND SWAP1 PUSH4 0xE16C7D98 SWAP1 PUSH1 0x24 ADD PUSH1 0x20 PUSH1 0x40 MLOAD DUP1 DUP4 SUB DUP2 DUP7 DUP1 EXTCODESIZE ISZERO DUP1 ISZERO PUSH2 0x327C JUMPI PUSH1 0x0 DUP1 REVERT JUMPDEST POP GAS STATICCALL ISZERO DUP1 ISZERO PUSH2 0x3290 JUMPI RETURNDATASIZE PUSH1 0x0 DUP1 RETURNDATACOPY RETURNDATASIZE PUSH1 0x0 REVERT JUMPDEST POP POP POP POP PUSH1 0x40 MLOAD RETURNDATASIZE PUSH1 0x1F NOT PUSH1 0x1F DUP3 ADD AND DUP3 ADD DUP1 PUSH1 0x40 MSTORE POP DUP2 ADD SWAP1 PUSH2 0x32B4 SWAP2 SWAP1 PUSH2 0x52DC JUMP JUMPDEST PUSH1 0x40 MLOAD PUSH4 0x7A52A1F9 PUSH1 0xE1 SHL DUP2 MSTORE SWAP1 SWAP2 POP PUSH1 0x1 PUSH1 0x1 PUSH1 0xA0 SHL SUB DUP3 AND SWAP1 PUSH4 0xF4A543F2 SWAP1 PUSH2 0x32E3 SWAP1 ADDRESS SWAP1 PUSH1 0x4 ADD PUSH2 0x5B9C JUMP JUMPDEST PUSH1 0x40 DUP1 MLOAD DUP1 DUP4 SUB DUP2 PUSH1 0x0 DUP8 DUP1 EXTCODESIZE ISZERO DUP1 ISZERO PUSH2 0x32FC JUMPI PUSH1 0x0 DUP1 REVERT JUMPDEST POP GAS CALL ISZERO DUP1 ISZERO PUSH2 0x3310 JUMPI RETURNDATASIZE PUSH1 0x0 DUP1 RETURNDATACOPY RETURNDATASIZE PUSH1 0x0 REVERT JUMPDEST POP POP POP POP PUSH1 0x40 MLOAD RETURNDATASIZE PUSH1 0x1F NOT PUSH1 0x1F DUP3 ADD AND DUP3 ADD DUP1 PUSH1 0x40 MSTORE POP DUP2 ADD SWAP1 PUSH2 0x3334 SWAP2 SWAP1 PUSH2 0x5524 JUMP JUMPDEST PUSH1 0x40 DUP1 MLOAD PUSH2 0x160 DUP2 ADD DUP3 MSTORE DUP13 SLOAD DUP2 MSTORE PUSH1 0x1 DUP14 ADD SLOAD PUSH1 0x20 DUP3 ADD MSTORE PUSH1 0x2 DUP14 ADD SLOAD SWAP2 DUP2 ADD SWAP2 SWAP1 SWAP2 MSTORE PUSH1 0x3 DUP13 ADD SLOAD PUSH1 0x1 PUSH1 0x1 PUSH1 0xA0 SHL SUB DUP1 DUP3 AND PUSH1 0x60 DUP5 ADD MSTORE PUSH1 0x1 PUSH1 0xA0 SHL DUP1 DUP4 DIV PUSH4 0xFFFFFFFF AND PUSH1 0x80 DUP6 ADD MSTORE PUSH1 0x1 PUSH1 0xC0 SHL DUP4 DIV PUSH2 0xFFFF SWAP1 DUP2 AND PUSH1 0xA0 DUP7 ADD MSTORE PUSH1 0x1 PUSH1 0xD0 SHL SWAP1 SWAP4 DIV SWAP1 SWAP3 AND PUSH1 0xC0 DUP5 ADD MSTORE PUSH1 0x4 DUP15 ADD SLOAD DUP1 DUP3 AND PUSH1 0xE0 DUP6 ADD MSTORE SWAP2 SWAP1 SWAP2 DIV PUSH1 0x1 PUSH1 0x1 PUSH1 0x40 SHL SUB AND PUSH2 0x100 DUP4 ADD MSTORE PUSH1 0x5 DUP14 ADD SLOAD DUP2 AND PUSH2 0x120 DUP4 ADD MSTORE PUSH1 0x6 DUP14 ADD SLOAD AND PUSH2 0x140 DUP3 ADD MSTORE SWAP2 SWAP9 POP SWAP7 POP PUSH2 0x33EC SWAP1 DUP9 DUP5 PUSH2 0x3CCB JUMP JUMPDEST PUSH1 0x2 DUP10 ADD SLOAD PUSH1 0x5 DUP11 ADD SLOAD PUSH1 0x40 DUP1 MLOAD SWAP3 DUP4 MSTORE PUSH1 0x1 PUSH1 0x1 PUSH1 0xA0 SHL SUB SWAP2 DUP3 AND PUSH1 0x20 DUP5 ADD MSTORE DUP3 ADD DUP9 SWAP1 MSTORE DUP9 DUP2 AND PUSH1 0x60 DUP4 ADD MSTORE DUP4 AND SWAP1 PUSH4 0xFFFFFFFF DUP13 AND SWAP1 PUSH32 0xC7F9CE9D1921361882F1A6C4297E86042B75F9A6F01C6A042A492FFA32D5EDA0 SWAP1 PUSH1 0x80 ADD PUSH1 0x40 MLOAD DUP1 SWAP2 SUB SWAP1 LOG3 POP POP POP POP PUSH1 0x5 DUP6 ADD DUP1 SLOAD PUSH1 0x1 PUSH1 0x1 PUSH1 0xA0 SHL SUB NOT AND PUSH1 0x1 PUSH1 0x1 PUSH1 0xA0 SHL SUB DUP6 AND OR SWAP1 SSTORE POP PUSH1 0x2 SWAP1 SWAP4 ADD DUP4 SWAP1 SSTORE SWAP4 SWAP2 SWAP3 POP POP JUMP JUMPDEST PUSH1 0x1 PUSH1 0x1 PUSH1 0xA0 SHL SUB DUP3 AND PUSH2 0x34D1 JUMPI PUSH1 0x40 MLOAD PUSH3 0x461BCD PUSH1 0xE5 SHL DUP2 MSTORE PUSH1 0x20 PUSH1 0x4 DUP3 ADD MSTORE PUSH1 0x15 PUSH1 0x24 DUP3 ADD MSTORE PUSH21 0x6572633230206973207A65726F2061646472657373 PUSH1 0x58 SHL PUSH1 0x44 DUP3 ADD MSTORE PUSH1 0x64 ADD PUSH2 0x70E JUMP JUMPDEST PUSH1 0x1 PUSH1 0x1 PUSH1 0xA0 SHL SUB DUP3 AND PUSH1 0x0 DUP2 DUP2 MSTORE PUSH1 0x9 PUSH1 0x20 SWAP1 DUP2 MSTORE PUSH1 0x40 SWAP2 DUP3 SWAP1 KECCAK256 DUP1 SLOAD PUSH1 0xFF NOT AND DUP6 ISZERO ISZERO SWAP1 DUP2 OR SWAP1 SWAP2 SSTORE SWAP2 MLOAD SWAP2 DUP3 MSTORE PUSH32 0xF100355BE652ECC881568750E6A98C0713E4316F75D5314EBC9039E0ACB52F24 SWAP2 ADD PUSH1 0x40 MLOAD DUP1 SWAP2 SUB SWAP1 LOG2 POP POP JUMP JUMPDEST PUSH2 0x3538 PUSH2 0x27D7 JUMP JUMPDEST PUSH1 0x0 DUP1 SLOAD PUSH1 0xFF PUSH1 0xA0 SHL NOT AND PUSH1 0x1 PUSH1 0xA0 SHL OR SWAP1 SSTORE PUSH32 0x62E78CEA01BEE320CD4E420270B5EA74000D11B0C9F74754EBDBFC544B05A258 PUSH2 0x27C0 CALLER SWAP1 JUMP JUMPDEST PUSH4 0xFFFFFFFF DUP8 DUP2 AND PUSH1 0x0 SWAP1 DUP2 MSTORE PUSH1 0x4 PUSH1 0x20 DUP2 DUP2 MSTORE PUSH1 0x40 DUP1 DUP5 KECCAK256 DUP2 MLOAD PUSH2 0x160 DUP2 ADD DUP4 MSTORE DUP2 SLOAD DUP2 MSTORE PUSH1 0x1 DUP3 ADD SLOAD SWAP4 DUP2 ADD SWAP4 SWAP1 SWAP4 MSTORE PUSH1 0x2 DUP2 ADD SLOAD SWAP2 DUP4 ADD SWAP2 SWAP1 SWAP2 MSTORE PUSH1 0x3 DUP2 ADD SLOAD PUSH1 0x1 PUSH1 0x1 PUSH1 0xA0 SHL SUB DUP1 DUP3 AND PUSH1 0x60 DUP6 ADD MSTORE PUSH1 0x1 PUSH1 0xA0 SHL DUP1 DUP4 DIV SWAP1 SWAP8 AND PUSH1 0x80 DUP6 ADD MSTORE PUSH1 0x1 PUSH1 0xC0 SHL DUP3 DIV PUSH2 0xFFFF SWAP1 DUP2 AND PUSH1 0xA0 DUP7 ADD MSTORE PUSH1 0x1 PUSH1 0xD0 SHL SWAP1 SWAP3 DIV SWAP1 SWAP2 AND PUSH1 0xC0 DUP5 ADD MSTORE SWAP3 DUP2 ADD SLOAD DUP1 DUP5 AND PUSH1 0xE0 DUP5 ADD MSTORE SWAP5 SWAP1 SWAP5 DIV PUSH1 0x1 PUSH1 0x1 PUSH1 0x40 SHL SUB AND PUSH2 0x100 DUP3 ADD MSTORE PUSH1 0x5 DUP5 ADD SLOAD DUP3 AND PUSH2 0x120 DUP3 ADD MSTORE PUSH1 0x6 DUP5 ADD SLOAD SWAP1 SWAP2 AND PUSH2 0x140 DUP3 ADD MSTORE DUP2 SWAP1 PUSH2 0x3662 SWAP1 DUP12 DUP12 DUP12 DUP11 PUSH32 0x0 PUSH2 0x3D57 JUMP JUMPDEST PUSH1 0x1 PUSH1 0x1 PUSH1 0xA0 SHL SUB DUP2 AND PUSH1 0x0 DUP2 DUP2 MSTORE PUSH1 0x8 PUSH1 0x20 SWAP1 DUP2 MSTORE PUSH1 0x40 DUP1 DUP4 KECCAK256 DUP13 DUP5 MSTORE DUP3 MSTORE SWAP2 DUP3 SWAP1 KECCAK256 DUP1 SLOAD PUSH1 0xFF NOT AND PUSH1 0x1 OR SWAP1 SSTORE DUP2 MLOAD PUSH1 0x80 DUP2 ADD DUP4 MSTORE DUP12 DUP2 MSTORE SWAP1 DUP2 ADD DUP11 SWAP1 MSTORE SWAP1 DUP2 ADD SWAP2 SWAP1 SWAP2 MSTORE PUSH1 0x60 DUP2 ADD DUP8 SWAP1 MSTORE SWAP2 SWAP4 POP SWAP2 POP PUSH2 0x36CC SWAP1 PUSH4 0xFFFFFFFF DUP13 AND SWAP1 DUP12 SWAP1 DUP12 SWAP1 DUP12 SWAP1 PUSH2 0x43EB JUMP JUMPDEST PUSH2 0x3723 JUMPI PUSH1 0x40 MLOAD PUSH3 0x461BCD PUSH1 0xE5 SHL DUP2 MSTORE PUSH1 0x20 PUSH1 0x4 DUP3 ADD MSTORE PUSH1 0x22 PUSH1 0x24 DUP3 ADD MSTORE PUSH32 0x52656E65676F74696174696F6E207369676E617475726520697320696E76616C PUSH1 0x44 DUP3 ADD MSTORE PUSH2 0x1A59 PUSH1 0xF2 SHL PUSH1 0x64 DUP3 ADD MSTORE PUSH1 0x84 ADD PUSH2 0x70E JUMP JUMPDEST PUSH1 0x0 DUP8 ISZERO PUSH2 0x378F JUMPI PUSH1 0x3 DUP5 ADD SLOAD PUSH2 0x3746 SWAP1 DUP10 SWAP1 PUSH1 0x1 PUSH1 0xD0 SHL SWAP1 DIV PUSH2 0xFFFF AND PUSH2 0x39AE JUMP JUMPDEST SWAP1 POP PUSH2 0x376D DUP4 DUP4 PUSH2 0x3757 DUP5 DUP13 PUSH2 0x5FF5 JUMP JUMPDEST PUSH1 0x3 DUP9 ADD SLOAD PUSH1 0x1 PUSH1 0x1 PUSH1 0xA0 SHL SUB AND SWAP3 SWAP2 SWAP1 PUSH2 0x398D JUMP JUMPDEST PUSH2 0x378F DUP4 PUSH2 0x3779 PUSH2 0x10D8 JUMP JUMPDEST PUSH1 0x3 DUP8 ADD SLOAD PUSH1 0x1 PUSH1 0x1 PUSH1 0xA0 SHL SUB AND SWAP2 SWAP1 DUP5 PUSH2 0x398D JUMP JUMPDEST PUSH1 0x3 DUP5 ADD DUP1 SLOAD PUSH4 0xFFFFFFFF PUSH1 0xA0 SHL NOT AND PUSH1 0x1 PUSH1 0xA0 SHL PUSH4 0xFFFFFFFF DUP14 DUP2 AND SWAP2 DUP3 MUL SWAP3 SWAP1 SWAP3 OR SWAP1 SWAP3 SSTORE PUSH1 0x1 DUP7 ADD DUP12 SWAP1 SSTORE PUSH1 0x40 DUP1 MLOAD SWAP3 DUP4 MSTORE PUSH1 0x20 DUP4 ADD DUP13 SWAP1 MSTORE DUP3 ADD DUP11 SWAP1 MSTORE PUSH1 0x60 DUP3 ADD DUP4 SWAP1 MSTORE PUSH1 0x1 PUSH1 0x1 PUSH1 0xA0 SHL SUB DUP5 DUP2 AND SWAP3 SWAP1 DUP7 AND SWAP2 DUP15 AND SWAP1 PUSH32 0x37357BED780FDA5AED28C32FE9CD762CB2F2F8A70C0D9B342ABA59C945943CA0 SWAP1 PUSH1 0x80 ADD PUSH1 0x40 MLOAD DUP1 SWAP2 SUB SWAP1 LOG4 POP POP POP POP POP POP POP POP POP POP POP JUMP JUMPDEST PUSH1 0x0 DUP1 SLOAD PUSH1 0x1 PUSH1 0x1 PUSH1 0xA0 SHL SUB DUP4 DUP2 AND PUSH1 0x1 PUSH1 0x1 PUSH1 0xA0 SHL SUB NOT DUP4 AND DUP2 OR DUP5 SSTORE PUSH1 0x40 MLOAD SWAP2 SWAP1 SWAP3 AND SWAP3 DUP4 SWAP2 PUSH32 0x8BE0079C531659141344CD1FD0A4F28419497F9722A3DAAFE3B4186F6B6457E0 SWAP2 SWAP1 LOG3 POP POP JUMP JUMPDEST PUSH1 0x0 PUSH2 0x38C9 DUP3 PUSH1 0x40 MLOAD DUP1 PUSH1 0x40 ADD PUSH1 0x40 MSTORE DUP1 PUSH1 0x20 DUP2 MSTORE PUSH1 0x20 ADD PUSH32 0x5361666545524332303A206C6F772D6C6576656C2063616C6C206661696C6564 DUP2 MSTORE POP DUP6 PUSH1 0x1 PUSH1 0x1 PUSH1 0xA0 SHL SUB AND PUSH2 0x43FB SWAP1 SWAP3 SWAP2 SWAP1 PUSH4 0xFFFFFFFF AND JUMP JUMPDEST DUP1 MLOAD SWAP1 SWAP2 POP ISZERO PUSH2 0xE09 JUMPI DUP1 DUP1 PUSH1 0x20 ADD SWAP1 MLOAD DUP2 ADD SWAP1 PUSH2 0x38E7 SWAP2 SWAP1 PUSH2 0x5654 JUMP JUMPDEST PUSH2 0xE09 JUMPI PUSH1 0x40 MLOAD PUSH3 0x461BCD PUSH1 0xE5 SHL DUP2 MSTORE PUSH1 0x20 PUSH1 0x4 DUP3 ADD MSTORE PUSH1 0x2A PUSH1 0x24 DUP3 ADD MSTORE PUSH32 0x5361666545524332303A204552433230206F7065726174696F6E20646964206E PUSH1 0x44 DUP3 ADD MSTORE PUSH10 0x1BDD081CDD58D8D95959 PUSH1 0xB2 SHL PUSH1 0x64 DUP3 ADD MSTORE PUSH1 0x84 ADD PUSH2 0x70E JUMP JUMPDEST PUSH1 0x0 DUP1 PUSH1 0x0 DUP4 PUSH1 0x0 ADD MLOAD DUP5 PUSH1 0x20 ADD MLOAD PUSH2 0x395F SWAP2 SWAP1 PUSH2 0x5FF5 JUMP JUMPDEST SWAP1 POP PUSH2 0x3973 DUP2 DUP6 PUSH1 0xC0 ADD MLOAD PUSH2 0xFFFF AND PUSH2 0x39AE JUMP JUMPDEST SWAP3 POP DUP3 DUP5 PUSH1 0x20 ADD MLOAD PUSH2 0x3985 SWAP2 SWAP1 PUSH2 0x5FF5 JUMP JUMPDEST SWAP2 POP POP SWAP2 POP SWAP2 JUMP JUMPDEST PUSH2 0x7F0 DUP5 PUSH4 0x23B872DD PUSH1 0xE0 SHL DUP6 DUP6 DUP6 PUSH1 0x40 MLOAD PUSH1 0x24 ADD PUSH2 0x18C8 SWAP4 SWAP3 SWAP2 SWAP1 PUSH2 0x5BB0 JUMP JUMPDEST PUSH1 0x0 PUSH2 0x2710 PUSH2 0x39BD DUP4 DUP6 PUSH2 0x5FD6 JUMP JUMPDEST PUSH2 0x39C7 SWAP2 SWAP1 PUSH2 0x5FB6 JUMP JUMPDEST SWAP4 SWAP3 POP POP POP JUMP JUMPDEST PUSH4 0xFFFFFFFF DUP4 AND PUSH1 0x0 SWAP1 DUP2 MSTORE PUSH1 0x6 PUSH1 0x20 SWAP1 DUP2 MSTORE PUSH1 0x40 DUP1 DUP4 KECCAK256 DUP1 SLOAD PUSH1 0xFF NOT AND PUSH1 0x1 SWAP1 DUP2 OR SWAP1 SWAP2 SSTORE PUSH2 0x120 DUP7 ADD MLOAD PUSH1 0x1 PUSH1 0x1 PUSH1 0xA0 SHL SUB AND DUP5 MSTORE PUSH1 0x7 DUP4 MSTORE DUP2 DUP5 KECCAK256 DUP7 DUP4 ADD MLOAD DUP6 MSTORE SWAP1 SWAP3 MSTORE DUP3 KECCAK256 DUP1 SLOAD SWAP2 SWAP3 SWAP1 SWAP2 PUSH2 0x3A28 SWAP1 DUP5 SWAP1 PUSH2 0x5FF5 JUMP JUMPDEST SWAP1 SWAP2 SSTORE POP POP PUSH1 0x40 MLOAD PUSH4 0x490B1F53 PUSH1 0xE1 SHL DUP2 MSTORE PUSH4 0xFFFFFFFF DUP5 AND PUSH1 0x4 DUP3 ADD MSTORE PUSH1 0x1 PUSH1 0x1 PUSH1 0xA0 SHL SUB DUP3 AND SWAP1 PUSH4 0x92163EA6 SWAP1 PUSH1 0x24 ADD PUSH1 0x0 PUSH1 0x40 MLOAD DUP1 DUP4 SUB DUP2 PUSH1 0x0 DUP8 DUP1 EXTCODESIZE ISZERO DUP1 ISZERO PUSH2 0x3A74 JUMPI PUSH1 0x0 DUP1 REVERT JUMPDEST POP GAS CALL ISZERO DUP1 ISZERO PUSH2 0x1348 JUMPI RETURNDATASIZE PUSH1 0x0 DUP1 RETURNDATACOPY RETURNDATASIZE PUSH1 0x0 REVERT JUMPDEST PUSH1 0xE0 DUP4 ADD MLOAD PUSH2 0x120 DUP5 ADD MLOAD PUSH1 0x40 DUP1 DUP7 ADD MLOAD DUP2 MLOAD PUSH1 0x1 PUSH1 0x1 PUSH1 0xA0 SHL SUB DUP8 DUP2 AND PUSH1 0x24 DUP4 ADD MSTORE DUP7 DUP2 AND PUSH1 0x44 DUP4 ADD MSTORE SWAP1 SWAP4 AND PUSH1 0x64 DUP5 ADD MSTORE PUSH1 0x84 DUP1 DUP5 ADD SWAP2 SWAP1 SWAP2 MSTORE DUP2 MLOAD DUP1 DUP5 SUB SWAP1 SWAP2 ADD DUP2 MSTORE PUSH1 0xA4 SWAP1 SWAP3 ADD DUP2 MSTORE PUSH1 0x20 DUP1 DUP4 ADD DUP1 MLOAD PUSH1 0x1 PUSH1 0x1 PUSH1 0xE0 SHL SUB AND PUSH4 0xB0306671 PUSH1 0xE0 SHL OR SWAP1 MSTORE DUP2 MLOAD DUP1 DUP4 ADD SWAP1 SWAP3 MSTORE DUP1 DUP3 MSTORE PUSH32 0x4E4654206E6F74207375636365737366756C6C79207472616E73666572726564 SWAP1 DUP3 ADD MSTORE PUSH2 0x7F0 SWAP3 SWAP2 SWAP1 PUSH2 0x440A JUMP JUMPDEST PUSH2 0x3B33 PUSH2 0xF42 JUMP JUMPDEST PUSH2 0xB62 JUMPI PUSH1 0x40 MLOAD PUSH3 0x461BCD PUSH1 0xE5 SHL DUP2 MSTORE PUSH1 0x20 PUSH1 0x4 DUP3 ADD MSTORE PUSH1 0x14 PUSH1 0x24 DUP3 ADD MSTORE PUSH20 0x14185D5CD8589B194E881B9BDD081C185D5CD959 PUSH1 0x62 SHL PUSH1 0x44 DUP3 ADD MSTORE PUSH1 0x64 ADD PUSH2 0x70E JUMP JUMPDEST PUSH1 0x0 PUSH1 0x1 PUSH1 0x1 PUSH1 0xA0 SHL SUB DUP4 AND PUSH2 0x3B8E JUMPI POP PUSH1 0x0 PUSH2 0x6D9 JUMP JUMPDEST PUSH1 0x40 MLOAD PUSH4 0x1C2D8FB3 PUSH1 0xE3 SHL DUP2 MSTORE PUSH18 0x5045524D49545445445F504152544E455253 PUSH1 0x70 SHL PUSH1 0x4 DUP3 ADD MSTORE PUSH1 0x0 SWAP1 PUSH1 0x1 PUSH1 0x1 PUSH1 0xA0 SHL SUB DUP5 AND SWAP1 PUSH4 0xE16C7D98 SWAP1 PUSH1 0x24 ADD PUSH1 0x20 PUSH1 0x40 MLOAD DUP1 DUP4 SUB DUP2 DUP7 DUP1 EXTCODESIZE ISZERO DUP1 ISZERO PUSH2 0x3BE5 JUMPI PUSH1 0x0 DUP1 REVERT JUMPDEST POP GAS STATICCALL ISZERO DUP1 ISZERO PUSH2 0x3BF9 JUMPI RETURNDATASIZE PUSH1 0x0 DUP1 RETURNDATACOPY RETURNDATASIZE PUSH1 0x0 REVERT JUMPDEST POP POP POP POP PUSH1 0x40 MLOAD RETURNDATASIZE PUSH1 0x1F NOT PUSH1 0x1F DUP3 ADD AND DUP3 ADD DUP1 PUSH1 0x40 MSTORE POP DUP2 ADD SWAP1 PUSH2 0x3C1D SWAP2 SWAP1 PUSH2 0x52DC JUMP JUMPDEST PUSH1 0x1 PUSH1 0x1 PUSH1 0xA0 SHL SUB AND PUSH4 0x410ED2E5 DUP6 PUSH1 0x40 MLOAD DUP3 PUSH4 0xFFFFFFFF AND PUSH1 0xE0 SHL DUP2 MSTORE PUSH1 0x4 ADD PUSH2 0x3C48 SWAP2 SWAP1 PUSH2 0x5B9C JUMP JUMPDEST PUSH1 0x20 PUSH1 0x40 MLOAD DUP1 DUP4 SUB DUP2 DUP7 DUP1 EXTCODESIZE ISZERO DUP1 ISZERO PUSH2 0x3C60 JUMPI PUSH1 0x0 DUP1 REVERT JUMPDEST POP GAS STATICCALL ISZERO DUP1 ISZERO PUSH2 0x3C74 JUMPI RETURNDATASIZE PUSH1 0x0 DUP1 RETURNDATACOPY RETURNDATASIZE PUSH1 0x0 REVERT JUMPDEST POP POP POP POP PUSH1 0x40 MLOAD RETURNDATASIZE PUSH1 0x1F NOT PUSH1 0x1F DUP3 ADD AND DUP3 ADD DUP1 PUSH1 0x40 MSTORE POP DUP2 ADD SWAP1 PUSH2 0x7FF SWAP2 SWAP1 PUSH2 0x5818 JUMP JUMPDEST PUSH1 0x0 PUSH2 0x39C7 DUP4 DUP4 ADDRESS PUSH2 0x4478 JUMP JUMPDEST PUSH1 0x0 PUSH2 0x3CB2 DUP7 DUP6 ADDRESS PUSH2 0x3A88 JUMP JUMPDEST PUSH2 0x3CC0 DUP8 DUP8 DUP8 DUP8 DUP8 DUP8 PUSH2 0x4572 JUMP JUMPDEST SWAP8 SWAP7 POP POP POP POP POP POP POP JUMP JUMPDEST PUSH1 0xE0 DUP4 ADD MLOAD PUSH2 0x120 DUP5 ADD MLOAD PUSH1 0x40 DUP1 DUP7 ADD MLOAD DUP2 MLOAD PUSH1 0x1 PUSH1 0x1 PUSH1 0xA0 SHL SUB DUP8 DUP2 AND PUSH1 0x24 DUP4 ADD MSTORE SWAP4 DUP5 AND PUSH1 0x44 DUP3 ADD MSTORE PUSH1 0x64 DUP2 ADD SWAP2 SWAP1 SWAP2 MSTORE SWAP2 DUP5 AND PUSH1 0x84 DUP1 DUP5 ADD SWAP2 SWAP1 SWAP2 MSTORE DUP2 MLOAD DUP1 DUP5 SUB SWAP1 SWAP2 ADD DUP2 MSTORE PUSH1 0xA4 SWAP1 SWAP3 ADD DUP2 MSTORE PUSH1 0x20 DUP1 DUP4 ADD DUP1 MLOAD PUSH1 0x1 PUSH1 0x1 PUSH1 0xE0 SHL SUB AND PUSH4 0x63BC1D55 PUSH1 0xE1 SHL OR SWAP1 MSTORE DUP2 MLOAD PUSH1 0x60 DUP2 ADD SWAP1 SWAP3 MSTORE PUSH1 0x21 DUP1 DUP4 MSTORE PUSH2 0x7F0 SWAP5 SWAP4 SWAP3 SWAP2 PUSH2 0x60C5 SWAP1 DUP4 ADD CODECOPY PUSH2 0x440A JUMP JUMPDEST PUSH1 0x0 DUP1 PUSH2 0x3D64 DUP8 DUP5 PUSH2 0x2095 JUMP JUMPDEST PUSH1 0x0 DUP4 PUSH1 0x1 PUSH1 0x1 PUSH1 0xA0 SHL SUB AND PUSH4 0xE16C7D98 ADDRESS PUSH1 0x1 PUSH1 0x1 PUSH1 0xA0 SHL SUB AND PUSH4 0x77CFA991 PUSH1 0x40 MLOAD DUP2 PUSH4 0xFFFFFFFF AND PUSH1 0xE0 SHL DUP2 MSTORE PUSH1 0x4 ADD PUSH1 0x20 PUSH1 0x40 MLOAD DUP1 DUP4 SUB DUP2 DUP7 DUP1 EXTCODESIZE ISZERO DUP1 ISZERO PUSH2 0x3DAE JUMPI PUSH1 0x0 DUP1 REVERT JUMPDEST POP GAS STATICCALL ISZERO DUP1 ISZERO PUSH2 0x3DC2 JUMPI RETURNDATASIZE PUSH1 0x0 DUP1 RETURNDATACOPY RETURNDATASIZE PUSH1 0x0 REVERT JUMPDEST POP POP POP POP PUSH1 0x40 MLOAD RETURNDATASIZE PUSH1 0x1F NOT PUSH1 0x1F DUP3 ADD AND DUP3 ADD DUP1 PUSH1 0x40 MSTORE POP DUP2 ADD SWAP1 PUSH2 0x3DE6 SWAP2 SWAP1 PUSH2 0x5670 JUMP JUMPDEST PUSH1 0x40 MLOAD DUP3 PUSH4 0xFFFFFFFF AND PUSH1 0xE0 SHL DUP2 MSTORE PUSH1 0x4 ADD PUSH2 0x3E04 SWAP2 DUP2 MSTORE PUSH1 0x20 ADD SWAP1 JUMP JUMPDEST PUSH1 0x20 PUSH1 0x40 MLOAD DUP1 DUP4 SUB DUP2 DUP7 DUP1 EXTCODESIZE ISZERO DUP1 ISZERO PUSH2 0x3E1C JUMPI PUSH1 0x0 DUP1 REVERT JUMPDEST POP GAS STATICCALL ISZERO DUP1 ISZERO PUSH2 0x3E30 JUMPI RETURNDATASIZE PUSH1 0x0 DUP1 RETURNDATACOPY RETURNDATASIZE PUSH1 0x0 REVERT JUMPDEST POP POP POP POP PUSH1 0x40 MLOAD RETURNDATASIZE PUSH1 0x1F NOT PUSH1 0x1F DUP3 ADD AND DUP3 ADD DUP1 PUSH1 0x40 MSTORE POP DUP2 ADD SWAP1 PUSH2 0x3E54 SWAP2 SWAP1 PUSH2 0x52DC JUMP JUMPDEST PUSH1 0x40 MLOAD PUSH4 0xE6C5A541 PUSH1 0xE0 SHL DUP2 MSTORE PUSH4 0xFFFFFFFF DUP11 AND PUSH1 0x4 DUP3 ADD MSTORE SWAP1 SWAP2 POP PUSH1 0x0 SWAP1 PUSH1 0x1 PUSH1 0x1 PUSH1 0xA0 SHL SUB DUP4 AND SWAP1 PUSH4 0xE6C5A541 SWAP1 PUSH1 0x24 ADD PUSH1 0x60 PUSH1 0x40 MLOAD DUP1 DUP4 SUB DUP2 DUP7 DUP1 EXTCODESIZE ISZERO DUP1 ISZERO PUSH2 0x3E9F JUMPI PUSH1 0x0 DUP1 REVERT JUMPDEST POP GAS STATICCALL ISZERO DUP1 ISZERO PUSH2 0x3EB3 JUMPI RETURNDATASIZE PUSH1 0x0 DUP1 RETURNDATACOPY RETURNDATASIZE PUSH1 0x0 REVERT JUMPDEST POP POP POP POP PUSH1 0x40 MLOAD RETURNDATASIZE PUSH1 0x1F NOT PUSH1 0x1F DUP3 ADD AND DUP3 ADD DUP1 PUSH1 0x40 MSTORE POP DUP2 ADD SWAP1 PUSH2 0x3ED7 SWAP2 SWAP1 PUSH2 0x56B0 JUMP JUMPDEST PUSH1 0x20 ADD MLOAD PUSH1 0x1 PUSH1 0x1 PUSH1 0x40 SHL SUB AND SWAP1 POP PUSH1 0x0 DUP1 PUSH1 0x1 PUSH1 0x1 PUSH1 0xA0 SHL SUB AND DUP12 PUSH2 0x140 ADD MLOAD PUSH1 0x1 PUSH1 0x1 PUSH1 0xA0 SHL SUB AND EQ PUSH2 0x3F12 JUMPI POP PUSH2 0x140 DUP11 ADD MLOAD PUSH2 0x4003 JUMP JUMPDEST DUP3 PUSH1 0x1 PUSH1 0x1 PUSH1 0xA0 SHL SUB AND PUSH4 0x8208E76C PUSH1 0x40 MLOAD DUP2 PUSH4 0xFFFFFFFF AND PUSH1 0xE0 SHL DUP2 MSTORE PUSH1 0x4 ADD PUSH1 0x20 PUSH1 0x40 MLOAD DUP1 DUP4 SUB DUP2 DUP7 DUP1 EXTCODESIZE ISZERO DUP1 ISZERO PUSH2 0x3F4B JUMPI PUSH1 0x0 DUP1 REVERT JUMPDEST POP GAS STATICCALL ISZERO DUP1 ISZERO PUSH2 0x3F5F JUMPI RETURNDATASIZE PUSH1 0x0 DUP1 RETURNDATACOPY RETURNDATASIZE PUSH1 0x0 REVERT JUMPDEST POP POP POP POP PUSH1 0x40 MLOAD RETURNDATASIZE PUSH1 0x1F NOT PUSH1 0x1F DUP3 ADD AND DUP3 ADD DUP1 PUSH1 0x40 MSTORE POP DUP2 ADD SWAP1 PUSH2 0x3F83 SWAP2 SWAP1 PUSH2 0x52DC JUMP JUMPDEST PUSH1 0x1 PUSH1 0x1 PUSH1 0xA0 SHL SUB AND PUSH4 0x6352211E DUP4 PUSH1 0x40 MLOAD DUP3 PUSH4 0xFFFFFFFF AND PUSH1 0xE0 SHL DUP2 MSTORE PUSH1 0x4 ADD PUSH2 0x3FB0 SWAP2 DUP2 MSTORE PUSH1 0x20 ADD SWAP1 JUMP JUMPDEST PUSH1 0x20 PUSH1 0x40 MLOAD DUP1 DUP4 SUB DUP2 DUP7 DUP1 EXTCODESIZE ISZERO DUP1 ISZERO PUSH2 0x3FC8 JUMPI PUSH1 0x0 DUP1 REVERT JUMPDEST POP GAS STATICCALL ISZERO DUP1 ISZERO PUSH2 0x3FDC JUMPI RETURNDATASIZE PUSH1 0x0 DUP1 RETURNDATACOPY RETURNDATASIZE PUSH1 0x0 REVERT JUMPDEST POP POP POP POP PUSH1 0x40 MLOAD RETURNDATASIZE PUSH1 0x1F NOT PUSH1 0x1F DUP3 ADD AND DUP3 ADD DUP1 PUSH1 0x40 MSTORE POP DUP2 ADD SWAP1 PUSH2 0x4000 SWAP2 SWAP1 PUSH2 0x52DC JUMP JUMPDEST SWAP1 POP JUMPDEST CALLER PUSH1 0x1 PUSH1 0x1 PUSH1 0xA0 SHL SUB DUP3 AND EQ PUSH2 0x405B JUMPI PUSH1 0x40 MLOAD PUSH3 0x461BCD PUSH1 0xE5 SHL DUP2 MSTORE PUSH1 0x20 PUSH1 0x4 DUP3 ADD MSTORE PUSH1 0x1A PUSH1 0x24 DUP3 ADD MSTORE PUSH32 0x4F6E6C7920626F72726F7765722063616E20696E697469617465000000000000 PUSH1 0x44 DUP3 ADD MSTORE PUSH1 0x64 ADD PUSH2 0x70E JUMP JUMPDEST DUP9 PUSH4 0xFFFFFFFF AND DUP12 PUSH2 0x100 ADD MLOAD PUSH1 0x1 PUSH1 0x1 PUSH1 0x40 SHL SUB AND PUSH2 0x407B SWAP2 SWAP1 PUSH2 0x5F9E JUMP JUMPDEST TIMESTAMP GT ISZERO PUSH2 0x40CA JUMPI PUSH1 0x40 MLOAD PUSH3 0x461BCD PUSH1 0xE5 SHL DUP2 MSTORE PUSH1 0x20 PUSH1 0x4 DUP3 ADD MSTORE PUSH1 0x1C PUSH1 0x24 DUP3 ADD MSTORE PUSH32 0x4E6577206475726174696F6E20616C7265616479206578706972656400000000 PUSH1 0x44 DUP3 ADD MSTORE PUSH1 0x64 ADD PUSH2 0x70E JUMP JUMPDEST ADDRESS PUSH1 0x1 PUSH1 0x1 PUSH1 0xA0 SHL SUB AND PUSH4 0x192B355D PUSH1 0x40 MLOAD DUP2 PUSH4 0xFFFFFFFF AND PUSH1 0xE0 SHL DUP2 MSTORE PUSH1 0x4 ADD PUSH1 0x20 PUSH1 0x40 MLOAD DUP1 DUP4 SUB DUP2 DUP7 DUP1 EXTCODESIZE ISZERO DUP1 ISZERO PUSH2 0x4103 JUMPI PUSH1 0x0 DUP1 REVERT JUMPDEST POP GAS STATICCALL ISZERO DUP1 ISZERO PUSH2 0x4117 JUMPI RETURNDATASIZE PUSH1 0x0 DUP1 RETURNDATACOPY RETURNDATASIZE PUSH1 0x0 REVERT JUMPDEST POP POP POP POP PUSH1 0x40 MLOAD RETURNDATASIZE PUSH1 0x1F NOT PUSH1 0x1F DUP3 ADD AND DUP3 ADD DUP1 PUSH1 0x40 MSTORE POP DUP2 ADD SWAP1 PUSH2 0x413B SWAP2 SWAP1 PUSH2 0x5670 JUMP JUMPDEST DUP10 PUSH4 0xFFFFFFFF AND GT ISZERO PUSH2 0x41A3 JUMPI PUSH1 0x40 MLOAD PUSH3 0x461BCD PUSH1 0xE5 SHL DUP2 MSTORE PUSH1 0x20 PUSH1 0x4 DUP3 ADD MSTORE PUSH1 0x2A PUSH1 0x24 DUP3 ADD MSTORE PUSH32 0x4E6577206475726174696F6E2065786365656473206D6178696D756D206C6F61 PUSH1 0x44 DUP3 ADD MSTORE PUSH10 0x3710323AB930BA34B7B7 PUSH1 0xB1 SHL PUSH1 0x64 DUP3 ADD MSTORE PUSH1 0x84 ADD PUSH2 0x70E JUMP JUMPDEST PUSH1 0x40 MLOAD PUSH4 0x38BF9D5 PUSH1 0xE1 SHL DUP2 MSTORE PUSH4 0xFFFFFFFF DUP12 AND PUSH1 0x4 DUP3 ADD MSTORE ADDRESS SWAP1 PUSH4 0x717F3AA SWAP1 PUSH1 0x24 ADD PUSH1 0x20 PUSH1 0x40 MLOAD DUP1 DUP4 SUB DUP2 DUP7 DUP1 EXTCODESIZE ISZERO DUP1 ISZERO PUSH2 0x41DF JUMPI PUSH1 0x0 DUP1 REVERT JUMPDEST POP GAS STATICCALL ISZERO DUP1 ISZERO PUSH2 0x41F3 JUMPI RETURNDATASIZE PUSH1 0x0 DUP1 RETURNDATACOPY RETURNDATASIZE PUSH1 0x0 REVERT JUMPDEST POP POP POP POP PUSH1 0x40 MLOAD RETURNDATASIZE PUSH1 0x1F NOT PUSH1 0x1F DUP3 ADD AND DUP3 ADD DUP1 PUSH1 0x40 MSTORE POP DUP2 ADD SWAP1 PUSH2 0x4217 SWAP2 SWAP1 PUSH2 0x5654 JUMP JUMPDEST ISZERO PUSH2 0x4234 JUMPI PUSH1 0x40 MLOAD PUSH3 0x461BCD PUSH1 0xE5 SHL DUP2 MSTORE PUSH1 0x4 ADD PUSH2 0x70E SWAP1 PUSH2 0x5CDB JUMP JUMPDEST DUP11 MLOAD DUP9 LT ISZERO PUSH2 0x4255 JUMPI PUSH1 0x40 MLOAD PUSH3 0x461BCD PUSH1 0xE5 SHL DUP2 MSTORE PUSH1 0x4 ADD PUSH2 0x70E SWAP1 PUSH2 0x5C8E JUMP JUMPDEST PUSH1 0x0 DUP4 PUSH1 0x1 PUSH1 0x1 PUSH1 0xA0 SHL SUB AND PUSH4 0x4FBE68A0 PUSH1 0x40 MLOAD DUP2 PUSH4 0xFFFFFFFF AND PUSH1 0xE0 SHL DUP2 MSTORE PUSH1 0x4 ADD PUSH1 0x20 PUSH1 0x40 MLOAD DUP1 DUP4 SUB DUP2 DUP7 DUP1 EXTCODESIZE ISZERO DUP1 ISZERO PUSH2 0x4290 JUMPI PUSH1 0x0 DUP1 REVERT JUMPDEST POP GAS STATICCALL ISZERO DUP1 ISZERO PUSH2 0x42A4 JUMPI RETURNDATASIZE PUSH1 0x0 DUP1 RETURNDATACOPY RETURNDATASIZE PUSH1 0x0 REVERT JUMPDEST POP POP POP POP PUSH1 0x40 MLOAD RETURNDATASIZE PUSH1 0x1F NOT PUSH1 0x1F DUP3 ADD AND DUP3 ADD DUP1 PUSH1 0x40 MSTORE POP DUP2 ADD SWAP1 PUSH2 0x42C8 SWAP2 SWAP1 PUSH2 0x52DC JUMP JUMPDEST PUSH1 0x1 PUSH1 0x1 PUSH1 0xA0 SHL SUB AND PUSH4 0x6352211E DUP5 PUSH1 0x40 MLOAD DUP3 PUSH4 0xFFFFFFFF AND PUSH1 0xE0 SHL DUP2 MSTORE PUSH1 0x4 ADD PUSH2 0x42F5 SWAP2 DUP2 MSTORE PUSH1 0x20 ADD SWAP1 JUMP JUMPDEST PUSH1 0x20 PUSH1 0x40 MLOAD DUP1 DUP4 SUB DUP2 DUP7 DUP1 EXTCODESIZE ISZERO DUP1 ISZERO PUSH2 0x430D JUMPI PUSH1 0x0 DUP1 REVERT JUMPDEST POP GAS STATICCALL ISZERO DUP1 ISZERO PUSH2 0x4321 JUMPI RETURNDATASIZE PUSH1 0x0 DUP1 RETURNDATACOPY RETURNDATASIZE PUSH1 0x0 REVERT JUMPDEST POP POP POP POP PUSH1 0x40 MLOAD RETURNDATASIZE PUSH1 0x1F NOT PUSH1 0x1F DUP3 ADD AND DUP3 ADD DUP1 PUSH1 0x40 MSTORE POP DUP2 ADD SWAP1 PUSH2 0x4345 SWAP2 SWAP1 PUSH2 0x52DC JUMP JUMPDEST PUSH1 0x40 MLOAD PUSH4 0x328404B PUSH1 0xE4 SHL DUP2 MSTORE SWAP1 SWAP2 POP ADDRESS SWAP1 PUSH4 0x328404B0 SWAP1 PUSH2 0x436D SWAP1 DUP5 SWAP1 DUP13 SWAP1 PUSH1 0x4 ADD PUSH2 0x5BD4 JUMP JUMPDEST PUSH1 0x20 PUSH1 0x40 MLOAD DUP1 DUP4 SUB DUP2 DUP7 DUP1 EXTCODESIZE ISZERO DUP1 ISZERO PUSH2 0x4385 JUMPI PUSH1 0x0 DUP1 REVERT JUMPDEST POP GAS STATICCALL ISZERO DUP1 ISZERO PUSH2 0x4399 JUMPI RETURNDATASIZE PUSH1 0x0 DUP1 RETURNDATACOPY RETURNDATASIZE PUSH1 0x0 REVERT JUMPDEST POP POP POP POP PUSH1 0x40 MLOAD RETURNDATASIZE PUSH1 0x1F NOT PUSH1 0x1F DUP3 ADD AND DUP3 ADD DUP1 PUSH1 0x40 MSTORE POP DUP2 ADD SWAP1 PUSH2 0x43BD SWAP2 SWAP1 PUSH2 0x5654 JUMP JUMPDEST ISZERO PUSH2 0x43DA JUMPI PUSH1 0x40 MLOAD PUSH3 0x461BCD PUSH1 0xE5 SHL DUP2 MSTORE PUSH1 0x4 ADD PUSH2 0x70E SWAP1 PUSH2 0x5D40 JUMP JUMPDEST SWAP1 SWAP12 SWAP1 SWAP11 POP SWAP9 POP POP POP POP POP POP POP POP POP JUMP JUMPDEST PUSH1 0x0 PUSH2 0x17B8 DUP7 DUP7 DUP7 DUP7 DUP7 ADDRESS PUSH2 0x4991 JUMP JUMPDEST PUSH1 0x60 PUSH2 0x7FF DUP5 DUP5 PUSH1 0x0 DUP6 PUSH2 0x4A8B JUMP JUMPDEST PUSH1 0x60 PUSH1 0x0 DUP1 DUP6 PUSH1 0x1 PUSH1 0x1 PUSH1 0xA0 SHL SUB AND DUP6 PUSH1 0x40 MLOAD PUSH2 0x4427 SWAP2 SWAP1 PUSH2 0x5AC9 JUMP JUMPDEST PUSH1 0x0 PUSH1 0x40 MLOAD DUP1 DUP4 SUB DUP2 DUP6 GAS DELEGATECALL SWAP2 POP POP RETURNDATASIZE DUP1 PUSH1 0x0 DUP2 EQ PUSH2 0x4462 JUMPI PUSH1 0x40 MLOAD SWAP2 POP PUSH1 0x1F NOT PUSH1 0x3F RETURNDATASIZE ADD AND DUP3 ADD PUSH1 0x40 MSTORE RETURNDATASIZE DUP3 MSTORE RETURNDATASIZE PUSH1 0x0 PUSH1 0x20 DUP5 ADD RETURNDATACOPY PUSH2 0x4467 JUMP JUMPDEST PUSH1 0x60 SWAP2 POP JUMPDEST POP SWAP2 POP SWAP2 POP PUSH2 0x17B8 DUP7 DUP4 DUP4 DUP8 PUSH2 0x4B57 JUMP JUMPDEST PUSH1 0x0 DUP3 PUSH1 0x20 ADD MLOAD TIMESTAMP GT ISZERO PUSH2 0x44CE JUMPI PUSH1 0x40 MLOAD PUSH3 0x461BCD PUSH1 0xE5 SHL DUP2 MSTORE PUSH1 0x20 PUSH1 0x4 DUP3 ADD MSTORE PUSH1 0x1C PUSH1 0x24 DUP3 ADD MSTORE PUSH32 0x4C656E646572205369676E617475726520686173206578706972656400000000 PUSH1 0x44 DUP3 ADD MSTORE PUSH1 0x64 ADD PUSH2 0x70E JUMP JUMPDEST PUSH1 0x1 PUSH1 0x1 PUSH1 0xA0 SHL SUB DUP3 AND PUSH2 0x44F4 JUMPI PUSH1 0x40 MLOAD PUSH3 0x461BCD PUSH1 0xE5 SHL DUP2 MSTORE PUSH1 0x4 ADD PUSH2 0x70E SWAP1 PUSH2 0x5D12 JUMP JUMPDEST PUSH1 0x40 DUP4 ADD MLOAD PUSH1 0x1 PUSH1 0x1 PUSH1 0xA0 SHL SUB AND PUSH2 0x450E JUMPI POP PUSH1 0x0 PUSH2 0x39C7 JUMP JUMPDEST PUSH1 0x0 PUSH2 0x4519 DUP6 PUSH2 0x4BCD JUMP JUMPDEST PUSH2 0x4522 DUP6 PUSH2 0x4C8C JUMP JUMPDEST DUP5 CHAINID PUSH1 0x40 MLOAD PUSH1 0x20 ADD PUSH2 0x4537 SWAP5 SWAP4 SWAP3 SWAP2 SWAP1 PUSH2 0x5AE5 JUMP JUMPDEST PUSH1 0x40 MLOAD PUSH1 0x20 DUP2 DUP4 SUB SUB DUP2 MSTORE SWAP1 PUSH1 0x40 MSTORE DUP1 MLOAD SWAP1 PUSH1 0x20 ADD KECCAK256 SWAP1 POP PUSH2 0x456A DUP5 PUSH1 0x40 ADD MLOAD PUSH2 0x4560 DUP4 PUSH2 0x4CCF JUMP JUMPDEST DUP7 PUSH1 0x60 ADD MLOAD PUSH2 0x4D22 JUMP JUMPDEST SWAP2 POP POP PUSH2 0x39C7 JUMP JUMPDEST PUSH2 0x120 DUP6 ADD MLOAD PUSH1 0x1 PUSH1 0x1 PUSH1 0xA0 SHL SUB AND PUSH1 0x0 SWAP1 DUP2 MSTORE PUSH1 0x7 PUSH1 0x20 SWAP1 DUP2 MSTORE PUSH1 0x40 DUP1 DUP4 KECCAK256 DUP2 DUP10 ADD MLOAD DUP5 MSTORE SWAP1 SWAP2 MSTORE DUP2 KECCAK256 DUP1 SLOAD PUSH1 0x1 SWAP2 SWAP1 DUP4 SWAP1 PUSH2 0x45B0 SWAP1 DUP5 SWAP1 PUSH2 0x5F9E JUMP JUMPDEST SWAP1 SWAP2 SSTORE POP POP DUP6 MLOAD PUSH1 0x40 DUP7 ADD MLOAD PUSH1 0x0 SWAP2 PUSH2 0x45CD SWAP2 PUSH2 0xFFFF AND DUP6 PUSH2 0x4E72 JUMP JUMPDEST SWAP1 POP PUSH1 0x0 DUP2 DUP9 PUSH1 0x0 ADD MLOAD PUSH2 0x45E1 SWAP2 SWAP1 PUSH2 0x5FF5 JUMP JUMPDEST SWAP1 POP DUP2 ISZERO PUSH2 0x4603 JUMPI PUSH1 0x60 DUP9 ADD MLOAD PUSH2 0x4603 SWAP1 PUSH1 0x1 PUSH1 0x1 PUSH1 0xA0 SHL SUB AND DUP7 DUP7 DUP6 PUSH2 0x398D JUMP JUMPDEST PUSH1 0x60 DUP9 ADD MLOAD PUSH2 0x461D SWAP1 PUSH1 0x1 PUSH1 0x1 PUSH1 0xA0 SHL SUB AND DUP7 DUP9 DUP5 PUSH2 0x398D JUMP JUMPDEST PUSH1 0x40 MLOAD PUSH4 0x1C2D8FB3 PUSH1 0xE3 SHL DUP2 MSTORE PUSH32 0x0 PUSH1 0x4 DUP3 ADD MSTORE PUSH1 0x0 SWAP1 PUSH32 0x0 PUSH1 0x1 PUSH1 0x1 PUSH1 0xA0 SHL SUB AND SWAP1 PUSH4 0xE16C7D98 SWAP1 PUSH1 0x24 ADD PUSH1 0x20 PUSH1 0x40 MLOAD DUP1 DUP4 SUB DUP2 DUP7 DUP1 EXTCODESIZE ISZERO DUP1 ISZERO PUSH2 0x469F JUMPI PUSH1 0x0 DUP1 REVERT JUMPDEST POP GAS STATICCALL ISZERO DUP1 ISZERO PUSH2 0x46B3 JUMPI RETURNDATASIZE PUSH1 0x0 DUP1 RETURNDATACOPY RETURNDATASIZE PUSH1 0x0 REVERT JUMPDEST POP POP POP POP PUSH1 0x40 MLOAD RETURNDATASIZE PUSH1 0x1F NOT PUSH1 0x1F DUP3 ADD AND DUP3 ADD DUP1 PUSH1 0x40 MSTORE POP DUP2 ADD SWAP1 PUSH2 0x46D7 SWAP2 SWAP1 PUSH2 0x52DC JUMP JUMPDEST PUSH1 0x40 MLOAD PUSH4 0xD1F76595 PUSH1 0xE0 SHL DUP2 MSTORE SWAP1 SWAP2 POP PUSH1 0x1 PUSH1 0x1 PUSH1 0xA0 SHL SUB DUP3 AND SWAP1 PUSH4 0xD1F76595 SWAP1 PUSH2 0x4708 SWAP1 DUP10 SWAP1 DUP15 SWAP1 PUSH1 0x4 ADD PUSH2 0x5BD4 JUMP JUMPDEST PUSH1 0x20 PUSH1 0x40 MLOAD DUP1 DUP4 SUB DUP2 PUSH1 0x0 DUP8 DUP1 EXTCODESIZE ISZERO DUP1 ISZERO PUSH2 0x4722 JUMPI PUSH1 0x0 DUP1 REVERT JUMPDEST POP GAS CALL ISZERO DUP1 ISZERO PUSH2 0x4736 JUMPI RETURNDATASIZE PUSH1 0x0 DUP1 RETURNDATACOPY RETURNDATASIZE PUSH1 0x0 REVERT JUMPDEST POP POP POP POP PUSH1 0x40 MLOAD RETURNDATASIZE PUSH1 0x1F NOT PUSH1 0x1F DUP3 ADD AND DUP3 ADD DUP1 PUSH1 0x40 MSTORE POP DUP2 ADD SWAP1 PUSH2 0x475A SWAP2 SWAP1 PUSH2 0x5933 JUMP JUMPDEST SWAP4 POP DUP9 PUSH1 0x4 PUSH1 0x0 DUP7 PUSH4 0xFFFFFFFF AND PUSH4 0xFFFFFFFF AND DUP2 MSTORE PUSH1 0x20 ADD SWAP1 DUP2 MSTORE PUSH1 0x20 ADD PUSH1 0x0 KECCAK256 PUSH1 0x0 DUP3 ADD MLOAD DUP2 PUSH1 0x0 ADD SSTORE PUSH1 0x20 DUP3 ADD MLOAD DUP2 PUSH1 0x1 ADD SSTORE PUSH1 0x40 DUP3 ADD MLOAD DUP2 PUSH1 0x2 ADD SSTORE PUSH1 0x60 DUP3 ADD MLOAD DUP2 PUSH1 0x3 ADD PUSH1 0x0 PUSH2 0x100 EXP DUP2 SLOAD DUP2 PUSH1 0x1 PUSH1 0x1 PUSH1 0xA0 SHL SUB MUL NOT AND SWAP1 DUP4 PUSH1 0x1 PUSH1 0x1 PUSH1 0xA0 SHL SUB AND MUL OR SWAP1 SSTORE POP PUSH1 0x80 DUP3 ADD MLOAD DUP2 PUSH1 0x3 ADD PUSH1 0x14 PUSH2 0x100 EXP DUP2 SLOAD DUP2 PUSH4 0xFFFFFFFF MUL NOT AND SWAP1 DUP4 PUSH4 0xFFFFFFFF AND MUL OR SWAP1 SSTORE POP PUSH1 0xA0 DUP3 ADD MLOAD DUP2 PUSH1 0x3 ADD PUSH1 0x18 PUSH2 0x100 EXP DUP2 SLOAD DUP2 PUSH2 0xFFFF MUL NOT AND SWAP1 DUP4 PUSH2 0xFFFF AND MUL OR SWAP1 SSTORE POP PUSH1 0xC0 DUP3 ADD MLOAD DUP2 PUSH1 0x3 ADD PUSH1 0x1A PUSH2 0x100 EXP DUP2 SLOAD DUP2 PUSH2 0xFFFF MUL NOT AND SWAP1 DUP4 PUSH2 0xFFFF AND MUL OR SWAP1 SSTORE POP PUSH1 0xE0 DUP3 ADD MLOAD DUP2 PUSH1 0x4 ADD PUSH1 0x0 PUSH2 0x100 EXP DUP2 SLOAD DUP2 PUSH1 0x1 PUSH1 0x1 PUSH1 0xA0 SHL SUB MUL NOT AND SWAP1 DUP4 PUSH1 0x1 PUSH1 0x1 PUSH1 0xA0 SHL SUB AND MUL OR SWAP1 SSTORE POP PUSH2 0x100 DUP3 ADD MLOAD DUP2 PUSH1 0x4 ADD PUSH1 0x14 PUSH2 0x100 EXP DUP2 SLOAD DUP2 PUSH1 0x1 PUSH1 0x1 PUSH1 0x40 SHL SUB MUL NOT AND SWAP1 DUP4 PUSH1 0x1 PUSH1 0x1 PUSH1 0x40 SHL SUB AND MUL OR SWAP1 SSTORE POP PUSH2 0x120 DUP3 ADD MLOAD DUP2 PUSH1 0x5 ADD PUSH1 0x0 PUSH2 0x100 EXP DUP2 SLOAD DUP2 PUSH1 0x1 PUSH1 0x1 PUSH1 0xA0 SHL SUB MUL NOT AND SWAP1 DUP4 PUSH1 0x1 PUSH1 0x1 PUSH1 0xA0 SHL SUB AND MUL OR SWAP1 SSTORE POP PUSH2 0x140 DUP3 ADD MLOAD DUP2 PUSH1 0x6 ADD PUSH1 0x0 PUSH2 0x100 EXP DUP2 SLOAD DUP2 PUSH1 0x1 PUSH1 0x1 PUSH1 0xA0 SHL SUB MUL NOT AND SWAP1 DUP4 PUSH1 0x1 PUSH1 0x1 PUSH1 0xA0 SHL SUB AND MUL OR SWAP1 SSTORE POP SWAP1 POP POP DUP8 PUSH1 0x5 PUSH1 0x0 DUP7 PUSH4 0xFFFFFFFF AND PUSH4 0xFFFFFFFF AND DUP2 MSTORE PUSH1 0x20 ADD SWAP1 DUP2 MSTORE PUSH1 0x20 ADD PUSH1 0x0 KECCAK256 PUSH1 0x0 DUP3 ADD MLOAD DUP2 PUSH1 0x0 ADD PUSH1 0x0 PUSH2 0x100 EXP DUP2 SLOAD DUP2 PUSH1 0x1 PUSH1 0x1 PUSH1 0xA0 SHL SUB MUL NOT AND SWAP1 DUP4 PUSH1 0x1 PUSH1 0x1 PUSH1 0xA0 SHL SUB AND MUL OR SWAP1 SSTORE POP PUSH1 0x20 DUP3 ADD MLOAD DUP2 PUSH1 0x0 ADD PUSH1 0x14 PUSH2 0x100 EXP DUP2 SLOAD DUP2 PUSH2 0xFFFF MUL NOT AND SWAP1 DUP4 PUSH2 0xFFFF AND MUL OR SWAP1 SSTORE POP PUSH1 0x40 DUP3 ADD MLOAD DUP2 PUSH1 0x0 ADD PUSH1 0x16 PUSH2 0x100 EXP DUP2 SLOAD DUP2 PUSH2 0xFFFF MUL NOT AND SWAP1 DUP4 PUSH2 0xFFFF AND MUL OR SWAP1 SSTORE POP SWAP1 POP POP POP POP POP SWAP7 SWAP6 POP POP POP POP POP POP JUMP JUMPDEST PUSH1 0x0 DUP3 PUSH1 0x20 ADD MLOAD TIMESTAMP GT ISZERO PUSH2 0x49F3 JUMPI PUSH1 0x40 MLOAD PUSH3 0x461BCD PUSH1 0xE5 SHL DUP2 MSTORE PUSH1 0x20 PUSH1 0x4 DUP3 ADD MSTORE PUSH1 0x23 PUSH1 0x24 DUP3 ADD MSTORE PUSH32 0x52656E65676F74696174696F6E205369676E6174757265206861732065787069 PUSH1 0x44 DUP3 ADD MSTORE PUSH3 0x1C9959 PUSH1 0xEA SHL PUSH1 0x64 DUP3 ADD MSTORE PUSH1 0x84 ADD PUSH2 0x70E JUMP JUMPDEST PUSH1 0x1 PUSH1 0x1 PUSH1 0xA0 SHL SUB DUP3 AND PUSH2 0x4A19 JUMPI PUSH1 0x40 MLOAD PUSH3 0x461BCD PUSH1 0xE5 SHL DUP2 MSTORE PUSH1 0x4 ADD PUSH2 0x70E SWAP1 PUSH2 0x5D12 JUMP JUMPDEST PUSH1 0x40 DUP4 ADD MLOAD PUSH1 0x1 PUSH1 0x1 PUSH1 0xA0 SHL SUB AND PUSH2 0x4A33 JUMPI POP PUSH1 0x0 PUSH2 0x17B8 JUMP JUMPDEST PUSH1 0x0 DUP8 DUP8 DUP8 DUP8 PUSH2 0x4A42 DUP9 PUSH2 0x4C8C JUMP JUMPDEST DUP8 CHAINID PUSH1 0x40 MLOAD PUSH1 0x20 ADD PUSH2 0x4A5A SWAP8 SWAP7 SWAP6 SWAP5 SWAP4 SWAP3 SWAP2 SWAP1 PUSH2 0x5B30 JUMP JUMPDEST PUSH1 0x40 MLOAD PUSH1 0x20 DUP2 DUP4 SUB SUB DUP2 MSTORE SWAP1 PUSH1 0x40 MSTORE DUP1 MLOAD SWAP1 PUSH1 0x20 ADD KECCAK256 SWAP1 POP PUSH2 0x4A83 DUP5 PUSH1 0x40 ADD MLOAD PUSH2 0x4560 DUP4 PUSH2 0x4CCF JUMP JUMPDEST SWAP2 POP POP PUSH2 0x17B8 JUMP JUMPDEST PUSH1 0x60 DUP3 SELFBALANCE LT ISZERO PUSH2 0x4AEC JUMPI PUSH1 0x40 MLOAD PUSH3 0x461BCD PUSH1 0xE5 SHL DUP2 MSTORE PUSH1 0x20 PUSH1 0x4 DUP3 ADD MSTORE PUSH1 0x26 PUSH1 0x24 DUP3 ADD MSTORE PUSH32 0x416464726573733A20696E73756666696369656E742062616C616E636520666F PUSH1 0x44 DUP3 ADD MSTORE PUSH6 0x1C8818D85B1B PUSH1 0xD2 SHL PUSH1 0x64 DUP3 ADD MSTORE PUSH1 0x84 ADD PUSH2 0x70E JUMP JUMPDEST PUSH1 0x0 DUP1 DUP7 PUSH1 0x1 PUSH1 0x1 PUSH1 0xA0 SHL SUB AND DUP6 DUP8 PUSH1 0x40 MLOAD PUSH2 0x4B08 SWAP2 SWAP1 PUSH2 0x5AC9 JUMP JUMPDEST PUSH1 0x0 PUSH1 0x40 MLOAD DUP1 DUP4 SUB DUP2 DUP6 DUP8 GAS CALL SWAP3 POP POP POP RETURNDATASIZE DUP1 PUSH1 0x0 DUP2 EQ PUSH2 0x4B45 JUMPI PUSH1 0x40 MLOAD SWAP2 POP PUSH1 0x1F NOT PUSH1 0x3F RETURNDATASIZE ADD AND DUP3 ADD PUSH1 0x40 MSTORE RETURNDATASIZE DUP3 MSTORE RETURNDATASIZE PUSH1 0x0 PUSH1 0x20 DUP5 ADD RETURNDATACOPY PUSH2 0x4B4A JUMP JUMPDEST PUSH1 0x60 SWAP2 POP JUMPDEST POP SWAP2 POP SWAP2 POP PUSH2 0x3CC0 DUP8 DUP4 DUP4 DUP8 JUMPDEST PUSH1 0x60 DUP4 ISZERO PUSH2 0x4BC3 JUMPI DUP3 MLOAD PUSH2 0x4BBC JUMPI PUSH1 0x1 PUSH1 0x1 PUSH1 0xA0 SHL SUB DUP6 AND EXTCODESIZE PUSH2 0x4BBC JUMPI PUSH1 0x40 MLOAD PUSH3 0x461BCD PUSH1 0xE5 SHL DUP2 MSTORE PUSH1 0x20 PUSH1 0x4 DUP3 ADD MSTORE PUSH1 0x1D PUSH1 0x24 DUP3 ADD MSTORE PUSH32 0x416464726573733A2063616C6C20746F206E6F6E2D636F6E7472616374000000 PUSH1 0x44 DUP3 ADD MSTORE PUSH1 0x64 ADD PUSH2 0x70E JUMP JUMPDEST POP DUP2 PUSH2 0x7FF JUMP JUMPDEST PUSH2 0x7FF DUP4 DUP4 PUSH2 0x4EAC JUMP JUMPDEST PUSH1 0x60 DUP2 PUSH1 0xC0 ADD MLOAD DUP3 PUSH1 0x0 ADD MLOAD DUP4 PUSH1 0x20 ADD MLOAD DUP5 PUSH1 0x60 ADD MLOAD DUP6 PUSH1 0x40 ADD MLOAD DUP7 PUSH1 0xE0 ADD MLOAD DUP8 PUSH1 0x80 ADD MLOAD DUP9 PUSH1 0xA0 ADD MLOAD PUSH1 0x40 MLOAD PUSH1 0x20 ADD PUSH2 0x4C76 SWAP9 SWAP8 SWAP7 SWAP6 SWAP5 SWAP4 SWAP3 SWAP2 SWAP1 PUSH1 0x60 SWAP9 DUP10 SHL PUSH1 0x1 PUSH1 0x1 PUSH1 0x60 SHL SUB NOT SWAP1 DUP2 AND DUP3 MSTORE PUSH1 0x14 DUP3 ADD SWAP9 SWAP1 SWAP9 MSTORE PUSH1 0x34 DUP2 ADD SWAP7 SWAP1 SWAP7 MSTORE SWAP4 DUP8 SHL DUP7 AND PUSH1 0x54 DUP7 ADD MSTORE PUSH1 0x68 DUP6 ADD SWAP3 SWAP1 SWAP3 MSTORE SWAP1 SWAP5 SHL SWAP1 SWAP3 AND PUSH1 0x88 DUP3 ADD MSTORE PUSH1 0xE0 SWAP3 SWAP1 SWAP3 SHL PUSH1 0x1 PUSH1 0x1 PUSH1 0xE0 SHL SUB NOT AND PUSH1 0x9C DUP4 ADD MSTORE PUSH1 0xF0 SHL PUSH1 0x1 PUSH1 0x1 PUSH1 0xF0 SHL SUB NOT AND PUSH1 0xA0 DUP3 ADD MSTORE PUSH1 0xA2 ADD SWAP1 JUMP JUMPDEST PUSH1 0x40 MLOAD PUSH1 0x20 DUP2 DUP4 SUB SUB DUP2 MSTORE SWAP1 PUSH1 0x40 MSTORE SWAP1 POP SWAP2 SWAP1 POP JUMP JUMPDEST PUSH1 0x60 DUP2 PUSH1 0x40 ADD MLOAD DUP3 PUSH1 0x0 ADD MLOAD DUP4 PUSH1 0x20 ADD MLOAD PUSH1 0x40 MLOAD PUSH1 0x20 ADD PUSH2 0x4C76 SWAP4 SWAP3 SWAP2 SWAP1 PUSH1 0x60 SWAP4 SWAP1 SWAP4 SHL PUSH1 0x1 PUSH1 0x1 PUSH1 0x60 SHL SUB NOT AND DUP4 MSTORE PUSH1 0x14 DUP4 ADD SWAP2 SWAP1 SWAP2 MSTORE PUSH1 0x34 DUP3 ADD MSTORE PUSH1 0x54 ADD SWAP1 JUMP JUMPDEST PUSH1 0x40 MLOAD PUSH32 0x19457468657265756D205369676E6564204D6573736167653A0A333200000000 PUSH1 0x20 DUP3 ADD MSTORE PUSH1 0x3C DUP2 ADD DUP3 SWAP1 MSTORE PUSH1 0x0 SWAP1 PUSH1 0x5C ADD PUSH1 0x40 MLOAD PUSH1 0x20 DUP2 DUP4 SUB SUB DUP2 MSTORE SWAP1 PUSH1 0x40 MSTORE DUP1 MLOAD SWAP1 PUSH1 0x20 ADD KECCAK256 SWAP1 POP SWAP2 SWAP1 POP JUMP JUMPDEST PUSH1 0x0 DUP1 PUSH1 0x0 PUSH2 0x4D31 DUP6 DUP6 PUSH2 0x4ED6 JUMP JUMPDEST SWAP1 SWAP3 POP SWAP1 POP PUSH1 0x0 DUP2 PUSH1 0x4 DUP2 GT ISZERO PUSH2 0x4D58 JUMPI PUSH4 0x4E487B71 PUSH1 0xE0 SHL PUSH1 0x0 MSTORE PUSH1 0x21 PUSH1 0x4 MSTORE PUSH1 0x24 PUSH1 0x0 REVERT JUMPDEST EQ DUP1 ISZERO PUSH2 0x4D76 JUMPI POP DUP6 PUSH1 0x1 PUSH1 0x1 PUSH1 0xA0 SHL SUB AND DUP3 PUSH1 0x1 PUSH1 0x1 PUSH1 0xA0 SHL SUB AND EQ JUMPDEST ISZERO PUSH2 0x4D86 JUMPI PUSH1 0x1 SWAP3 POP POP POP PUSH2 0x39C7 JUMP JUMPDEST PUSH1 0x0 DUP1 DUP8 PUSH1 0x1 PUSH1 0x1 PUSH1 0xA0 SHL SUB AND PUSH4 0x1626BA7E PUSH1 0xE0 SHL DUP9 DUP9 PUSH1 0x40 MLOAD PUSH1 0x24 ADD PUSH2 0x4DAE SWAP3 SWAP2 SWAP1 PUSH2 0x5C62 JUMP JUMPDEST PUSH1 0x40 DUP1 MLOAD PUSH1 0x1F NOT DUP2 DUP5 SUB ADD DUP2 MSTORE SWAP2 DUP2 MSTORE PUSH1 0x20 DUP3 ADD DUP1 MLOAD PUSH1 0x1 PUSH1 0x1 PUSH1 0xE0 SHL SUB AND PUSH1 0x1 PUSH1 0x1 PUSH1 0xE0 SHL SUB NOT SWAP1 SWAP5 AND SWAP4 SWAP1 SWAP4 OR SWAP1 SWAP3 MSTORE SWAP1 MLOAD PUSH2 0x4DEC SWAP2 SWAP1 PUSH2 0x5AC9 JUMP JUMPDEST PUSH1 0x0 PUSH1 0x40 MLOAD DUP1 DUP4 SUB DUP2 DUP6 GAS STATICCALL SWAP2 POP POP RETURNDATASIZE DUP1 PUSH1 0x0 DUP2 EQ PUSH2 0x4E27 JUMPI PUSH1 0x40 MLOAD SWAP2 POP PUSH1 0x1F NOT PUSH1 0x3F RETURNDATASIZE ADD AND DUP3 ADD PUSH1 0x40 MSTORE RETURNDATASIZE DUP3 MSTORE RETURNDATASIZE PUSH1 0x0 PUSH1 0x20 DUP5 ADD RETURNDATACOPY PUSH2 0x4E2C JUMP JUMPDEST PUSH1 0x60 SWAP2 POP JUMPDEST POP SWAP2 POP SWAP2 POP DUP2 DUP1 ISZERO PUSH2 0x4E3F JUMPI POP DUP1 MLOAD PUSH1 0x20 EQ JUMPDEST DUP1 ISZERO PUSH2 0x4E66 JUMPI POP DUP1 MLOAD PUSH4 0xB135D3F PUSH1 0xE1 SHL SWAP1 PUSH2 0x4E64 SWAP1 DUP4 ADD PUSH1 0x20 SWAP1 DUP2 ADD SWAP1 DUP5 ADD PUSH2 0x5670 JUMP JUMPDEST EQ JUMPDEST SWAP9 SWAP8 POP POP POP POP POP POP POP POP JUMP JUMPDEST PUSH1 0x0 DUP3 ISZERO DUP1 PUSH2 0x4E88 JUMPI POP PUSH1 0x1 PUSH1 0x1 PUSH1 0xA0 SHL SUB DUP3 AND ISZERO JUMPDEST ISZERO PUSH2 0x4E95 JUMPI POP PUSH1 0x0 PUSH2 0x39C7 JUMP JUMPDEST PUSH2 0x2710 PUSH2 0x4EA2 DUP5 DUP7 PUSH2 0x5FD6 JUMP JUMPDEST PUSH2 0x7FF SWAP2 SWAP1 PUSH2 0x5FB6 JUMP JUMPDEST DUP2 MLOAD ISZERO PUSH2 0x4EBC JUMPI DUP2 MLOAD DUP1 DUP4 PUSH1 0x20 ADD REVERT JUMPDEST DUP1 PUSH1 0x40 MLOAD PUSH3 0x461BCD PUSH1 0xE5 SHL DUP2 MSTORE PUSH1 0x4 ADD PUSH2 0x70E SWAP2 SWAP1 PUSH2 0x5C7B JUMP JUMPDEST PUSH1 0x0 DUP1 DUP3 MLOAD PUSH1 0x41 EQ ISZERO PUSH2 0x4F0D JUMPI PUSH1 0x20 DUP4 ADD MLOAD PUSH1 0x40 DUP5 ADD MLOAD PUSH1 0x60 DUP6 ADD MLOAD PUSH1 0x0 BYTE PUSH2 0x4F01 DUP8 DUP3 DUP6 DUP6 PUSH2 0x4F1C JUMP JUMPDEST SWAP5 POP SWAP5 POP POP POP POP PUSH2 0x4F15 JUMP JUMPDEST POP PUSH1 0x0 SWAP1 POP PUSH1 0x2 JUMPDEST SWAP3 POP SWAP3 SWAP1 POP JUMP JUMPDEST PUSH1 0x0 DUP1 PUSH16 0xA2A8918CA85BAFE22016D0B997E4DF60 PUSH1 0x1 PUSH1 0xFF SHL SUB DUP4 GT ISZERO PUSH2 0x4F49 JUMPI POP PUSH1 0x0 SWAP1 POP PUSH1 0x3 PUSH2 0x4FCD JUMP JUMPDEST PUSH1 0x40 DUP1 MLOAD PUSH1 0x0 DUP1 DUP3 MSTORE PUSH1 0x20 DUP3 ADD DUP1 DUP5 MSTORE DUP10 SWAP1 MSTORE PUSH1 0xFF DUP9 AND SWAP3 DUP3 ADD SWAP3 SWAP1 SWAP3 MSTORE PUSH1 0x60 DUP2 ADD DUP7 SWAP1 MSTORE PUSH1 0x80 DUP2 ADD DUP6 SWAP1 MSTORE PUSH1 0x1 SWAP1 PUSH1 0xA0 ADD PUSH1 0x20 PUSH1 0x40 MLOAD PUSH1 0x20 DUP2 SUB SWAP1 DUP1 DUP5 SUB SWAP1 DUP6 GAS STATICCALL ISZERO DUP1 ISZERO PUSH2 0x4F9D JUMPI RETURNDATASIZE PUSH1 0x0 DUP1 RETURNDATACOPY RETURNDATASIZE PUSH1 0x0 REVERT JUMPDEST POP POP PUSH1 0x40 MLOAD PUSH1 0x1F NOT ADD MLOAD SWAP2 POP POP PUSH1 0x1 PUSH1 0x1 PUSH1 0xA0 SHL SUB DUP2 AND PUSH2 0x4FC6 JUMPI PUSH1 0x0 PUSH1 0x1 SWAP3 POP SWAP3 POP POP PUSH2 0x4FCD JUMP JUMPDEST SWAP2 POP PUSH1 0x0 SWAP1 POP JUMPDEST SWAP5 POP SWAP5 SWAP3 POP POP POP JUMP JUMPDEST PUSH1 0x40 DUP1 MLOAD PUSH2 0x160 DUP2 ADD DUP3 MSTORE PUSH1 0x0 DUP1 DUP3 MSTORE PUSH1 0x20 DUP3 ADD DUP2 SWAP1 MSTORE SWAP2 DUP2 ADD DUP3 SWAP1 MSTORE PUSH1 0x60 DUP2 ADD DUP3 SWAP1 MSTORE PUSH1 0x80 DUP2 ADD DUP3 SWAP1 MSTORE PUSH1 0xA0 DUP2 ADD DUP3 SWAP1 MSTORE PUSH1 0xC0 DUP2 ADD DUP3 SWAP1 MSTORE PUSH1 0xE0 DUP2 ADD DUP3 SWAP1 MSTORE PUSH2 0x100 DUP2 ADD DUP3 SWAP1 MSTORE PUSH2 0x120 DUP2 ADD DUP3 SWAP1 MSTORE PUSH2 0x140 DUP2 ADD SWAP2 SWAP1 SWAP2 MSTORE SWAP1 JUMP JUMPDEST DUP1 CALLDATALOAD PUSH2 0x503D DUP2 PUSH2 0x607F JUMP JUMPDEST SWAP2 SWAP1 POP JUMP JUMPDEST PUSH1 0x0 DUP3 PUSH1 0x1F DUP4 ADD SLT PUSH2 0x5052 JUMPI DUP1 DUP2 REVERT JUMPDEST DUP2 CALLDATALOAD PUSH1 0x20 PUSH2 0x5067 PUSH2 0x5062 DUP4 PUSH2 0x5F7B JUMP JUMPDEST PUSH2 0x5F4B JUMP JUMPDEST DUP1 DUP4 DUP3 MSTORE DUP3 DUP3 ADD SWAP2 POP DUP3 DUP7 ADD DUP8 DUP5 DUP7 PUSH1 0x5 SHL DUP10 ADD ADD GT ISZERO PUSH2 0x5086 JUMPI DUP6 DUP7 REVERT JUMPDEST DUP6 JUMPDEST DUP6 DUP2 LT ISZERO PUSH2 0x50AD JUMPI DUP2 CALLDATALOAD PUSH2 0x509B DUP2 PUSH2 0x6094 JUMP JUMPDEST DUP5 MSTORE SWAP3 DUP5 ADD SWAP3 SWAP1 DUP5 ADD SWAP1 PUSH1 0x1 ADD PUSH2 0x5088 JUMP JUMPDEST POP SWAP1 SWAP8 SWAP7 POP POP POP POP POP POP POP JUMP JUMPDEST PUSH1 0x0 DUP1 DUP4 PUSH1 0x1F DUP5 ADD SLT PUSH2 0x50CB JUMPI DUP2 DUP3 REVERT JUMPDEST POP DUP2 CALLDATALOAD PUSH1 0x1 PUSH1 0x1 PUSH1 0x40 SHL SUB DUP2 GT ISZERO PUSH2 0x50E1 JUMPI DUP2 DUP3 REVERT JUMPDEST PUSH1 0x20 DUP4 ADD SWAP2 POP DUP4 PUSH1 0x20 DUP3 PUSH1 0x5 SHL DUP6 ADD ADD GT ISZERO PUSH2 0x4F15 JUMPI PUSH1 0x0 DUP1 REVERT JUMPDEST PUSH1 0x0 DUP1 DUP4 PUSH1 0x1F DUP5 ADD SLT PUSH2 0x510D JUMPI DUP2 DUP3 REVERT JUMPDEST POP DUP2 CALLDATALOAD PUSH1 0x1 PUSH1 0x1 PUSH1 0x40 SHL SUB DUP2 GT ISZERO PUSH2 0x5123 JUMPI DUP2 DUP3 REVERT JUMPDEST PUSH1 0x20 DUP4 ADD SWAP2 POP DUP4 PUSH1 0x20 DUP3 DUP6 ADD ADD GT ISZERO PUSH2 0x4F15 JUMPI PUSH1 0x0 DUP1 REVERT JUMPDEST PUSH1 0x0 DUP3 PUSH1 0x1F DUP4 ADD SLT PUSH2 0x514B JUMPI DUP1 DUP2 REVERT JUMPDEST DUP2 CALLDATALOAD PUSH1 0x1 PUSH1 0x1 PUSH1 0x40 SHL SUB DUP2 GT ISZERO PUSH2 0x5164 JUMPI PUSH2 0x5164 PUSH2 0x6069 JUMP JUMPDEST PUSH2 0x5177 PUSH1 0x1F DUP3 ADD PUSH1 0x1F NOT AND PUSH1 0x20 ADD PUSH2 0x5F4B JUMP JUMPDEST DUP2 DUP2 MSTORE DUP5 PUSH1 0x20 DUP4 DUP7 ADD ADD GT ISZERO PUSH2 0x518B JUMPI DUP3 DUP4 REVERT JUMPDEST DUP2 PUSH1 0x20 DUP6 ADD PUSH1 0x20 DUP4 ADD CALLDATACOPY SWAP1 DUP2 ADD PUSH1 0x20 ADD SWAP2 SWAP1 SWAP2 MSTORE SWAP3 SWAP2 POP POP JUMP JUMPDEST PUSH1 0x0 PUSH1 0x40 DUP3 DUP5 SUB SLT ISZERO PUSH2 0x51B6 JUMPI DUP1 DUP2 REVERT JUMPDEST PUSH1 0x40 MLOAD PUSH1 0x40 DUP2 ADD DUP2 DUP2 LT PUSH1 0x1 PUSH1 0x1 PUSH1 0x40 SHL SUB DUP3 GT OR ISZERO PUSH2 0x51D8 JUMPI PUSH2 0x51D8 PUSH2 0x6069 JUMP JUMPDEST PUSH1 0x40 MSTORE SWAP1 POP DUP1 DUP3 CALLDATALOAD PUSH2 0x51E9 DUP2 PUSH2 0x607F JUMP JUMPDEST DUP2 MSTORE PUSH1 0x20 DUP4 ADD CALLDATALOAD PUSH2 0x51F9 DUP2 PUSH2 0x60A2 JUMP JUMPDEST PUSH1 0x20 SWAP2 SWAP1 SWAP2 ADD MSTORE SWAP3 SWAP2 POP POP JUMP JUMPDEST PUSH1 0x0 PUSH1 0x80 DUP3 DUP5 SUB SLT ISZERO PUSH2 0x5217 JUMPI DUP1 DUP2 REVERT JUMPDEST PUSH1 0x40 MLOAD PUSH1 0x80 DUP2 ADD PUSH1 0x1 PUSH1 0x1 PUSH1 0x40 SHL SUB DUP3 DUP3 LT DUP2 DUP4 GT OR ISZERO PUSH2 0x523A JUMPI PUSH2 0x523A PUSH2 0x6069 JUMP JUMPDEST DUP2 PUSH1 0x40 MSTORE DUP3 SWAP4 POP DUP5 CALLDATALOAD DUP4 MSTORE PUSH1 0x20 DUP6 ADD CALLDATALOAD PUSH1 0x20 DUP5 ADD MSTORE PUSH1 0x40 DUP6 ADD CALLDATALOAD SWAP2 POP PUSH2 0x525F DUP3 PUSH2 0x607F JUMP JUMPDEST DUP2 PUSH1 0x40 DUP5 ADD MSTORE PUSH1 0x60 DUP6 ADD CALLDATALOAD SWAP2 POP DUP1 DUP3 GT ISZERO PUSH2 0x5279 JUMPI PUSH1 0x0 DUP1 REVERT JUMPDEST POP PUSH2 0x5286 DUP6 DUP3 DUP7 ADD PUSH2 0x513B JUMP JUMPDEST PUSH1 0x60 DUP4 ADD MSTORE POP POP SWAP3 SWAP2 POP POP JUMP JUMPDEST DUP1 CALLDATALOAD PUSH2 0x503D DUP2 PUSH2 0x60A2 JUMP JUMPDEST DUP1 CALLDATALOAD PUSH2 0x503D DUP2 PUSH2 0x60B2 JUMP JUMPDEST DUP1 MLOAD PUSH1 0x1 PUSH1 0x1 PUSH1 0x40 SHL SUB DUP2 AND DUP2 EQ PUSH2 0x503D JUMPI PUSH1 0x0 DUP1 REVERT JUMPDEST PUSH1 0x0 PUSH1 0x20 DUP3 DUP5 SUB SLT ISZERO PUSH2 0x52D1 JUMPI DUP1 DUP2 REVERT JUMPDEST DUP2 CALLDATALOAD PUSH2 0x39C7 DUP2 PUSH2 0x607F JUMP JUMPDEST PUSH1 0x0 PUSH1 0x20 DUP3 DUP5 SUB SLT ISZERO PUSH2 0x52ED JUMPI DUP1 DUP2 REVERT JUMPDEST DUP2 MLOAD PUSH2 0x39C7 DUP2 PUSH2 0x607F JUMP JUMPDEST PUSH1 0x0 DUP1 PUSH1 0x40 DUP4 DUP6 SUB SLT ISZERO PUSH2 0x530A JUMPI DUP1 DUP2 REVERT JUMPDEST DUP3 CALLDATALOAD PUSH2 0x5315 DUP2 PUSH2 0x607F JUMP JUMPDEST SWAP2 POP PUSH1 0x20 DUP4 ADD CALLDATALOAD PUSH2 0x5325 DUP2 PUSH2 0x607F JUMP JUMPDEST DUP1 SWAP2 POP POP SWAP3 POP SWAP3 SWAP1 POP JUMP JUMPDEST PUSH1 0x0 DUP1 PUSH1 0x0 DUP1 PUSH1 0x0 DUP1 PUSH1 0x0 DUP1 PUSH1 0xA0 DUP10 DUP12 SUB SLT ISZERO PUSH2 0x534B JUMPI DUP4 DUP5 REVERT JUMPDEST DUP9 CALLDATALOAD PUSH2 0x5356 DUP2 PUSH2 0x607F JUMP JUMPDEST SWAP8 POP PUSH1 0x20 DUP10 ADD CALLDATALOAD PUSH2 0x5366 DUP2 PUSH2 0x607F JUMP JUMPDEST SWAP7 POP PUSH1 0x40 DUP10 ADD CALLDATALOAD PUSH1 0x1 PUSH1 0x1 PUSH1 0x40 SHL SUB DUP1 DUP3 GT ISZERO PUSH2 0x5381 JUMPI DUP6 DUP7 REVERT JUMPDEST PUSH2 0x538D DUP13 DUP4 DUP14 ADD PUSH2 0x50BA JUMP JUMPDEST SWAP1 SWAP9 POP SWAP7 POP PUSH1 0x60 DUP12 ADD CALLDATALOAD SWAP2 POP DUP1 DUP3 GT ISZERO PUSH2 0x53A5 JUMPI DUP6 DUP7 REVERT JUMPDEST PUSH2 0x53B1 DUP13 DUP4 DUP14 ADD PUSH2 0x50BA JUMP JUMPDEST SWAP1 SWAP7 POP SWAP5 POP PUSH1 0x80 DUP12 ADD CALLDATALOAD SWAP2 POP DUP1 DUP3 GT ISZERO PUSH2 0x53C9 JUMPI DUP4 DUP5 REVERT JUMPDEST POP PUSH2 0x53D6 DUP12 DUP3 DUP13 ADD PUSH2 0x50FC JUMP JUMPDEST SWAP10 SWAP13 SWAP9 SWAP12 POP SWAP7 SWAP10 POP SWAP5 SWAP8 SWAP4 SWAP7 SWAP3 SWAP6 SWAP5 POP POP POP JUMP JUMPDEST PUSH1 0x0 DUP1 PUSH1 0x0 DUP1 PUSH1 0x80 DUP6 DUP8 SUB SLT ISZERO PUSH2 0x53FF JUMPI DUP2 DUP3 REVERT JUMPDEST DUP5 CALLDATALOAD PUSH2 0x540A DUP2 PUSH2 0x607F JUMP JUMPDEST SWAP4 POP PUSH1 0x20 DUP6 ADD CALLDATALOAD PUSH2 0x541A DUP2 PUSH2 0x607F JUMP JUMPDEST SWAP3 POP PUSH1 0x40 DUP6 ADD CALLDATALOAD SWAP2 POP PUSH1 0x60 DUP6 ADD CALLDATALOAD PUSH1 0x1 PUSH1 0x1 PUSH1 0x40 SHL SUB DUP2 GT ISZERO PUSH2 0x543B JUMPI DUP2 DUP3 REVERT JUMPDEST PUSH2 0x5447 DUP8 DUP3 DUP9 ADD PUSH2 0x513B JUMP JUMPDEST SWAP2 POP POP SWAP3 SWAP6 SWAP2 SWAP5 POP SWAP3 POP JUMP JUMPDEST PUSH1 0x0 DUP1 PUSH1 0x0 DUP1 PUSH1 0x0 DUP1 PUSH1 0xA0 DUP8 DUP10 SUB SLT ISZERO PUSH2 0x546B JUMPI DUP4 DUP5 REVERT JUMPDEST DUP7 CALLDATALOAD PUSH2 0x5476 DUP2 PUSH2 0x607F JUMP JUMPDEST SWAP6 POP PUSH1 0x20 DUP8 ADD CALLDATALOAD PUSH2 0x5486 DUP2 PUSH2 0x607F JUMP JUMPDEST SWAP5 POP PUSH1 0x40 DUP8 ADD CALLDATALOAD SWAP4 POP PUSH1 0x60 DUP8 ADD CALLDATALOAD SWAP3 POP PUSH1 0x80 DUP8 ADD CALLDATALOAD PUSH1 0x1 PUSH1 0x1 PUSH1 0x40 SHL SUB DUP2 GT ISZERO PUSH2 0x54AE JUMPI DUP3 DUP4 REVERT JUMPDEST PUSH2 0x54BA DUP10 DUP3 DUP11 ADD PUSH2 0x50FC JUMP JUMPDEST SWAP8 SWAP11 SWAP7 SWAP10 POP SWAP5 SWAP8 POP SWAP3 SWAP6 SWAP4 SWAP5 SWAP3 POP POP POP JUMP JUMPDEST PUSH1 0x0 DUP1 PUSH1 0x40 DUP4 DUP6 SUB SLT ISZERO PUSH2 0x54DE JUMPI DUP2 DUP3 REVERT JUMPDEST DUP3 CALLDATALOAD PUSH2 0x54E9 DUP2 PUSH2 0x607F JUMP JUMPDEST SWAP2 POP PUSH1 0x20 DUP4 ADD CALLDATALOAD PUSH2 0x5325 DUP2 PUSH2 0x6094 JUMP JUMPDEST PUSH1 0x0 DUP1 PUSH1 0x40 DUP4 DUP6 SUB SLT ISZERO PUSH2 0x550B JUMPI DUP2 DUP3 REVERT JUMPDEST DUP3 CALLDATALOAD PUSH2 0x5516 DUP2 PUSH2 0x607F JUMP JUMPDEST SWAP5 PUSH1 0x20 SWAP4 SWAP1 SWAP4 ADD CALLDATALOAD SWAP4 POP POP POP JUMP JUMPDEST PUSH1 0x0 DUP1 PUSH1 0x40 DUP4 DUP6 SUB SLT ISZERO PUSH2 0x5536 JUMPI DUP2 DUP3 REVERT JUMPDEST DUP3 MLOAD PUSH2 0x5541 DUP2 PUSH2 0x607F JUMP JUMPDEST PUSH1 0x20 SWAP4 SWAP1 SWAP4 ADD MLOAD SWAP3 SWAP5 SWAP3 SWAP4 POP POP POP JUMP JUMPDEST PUSH1 0x0 DUP1 PUSH1 0x0 PUSH1 0x60 DUP5 DUP7 SUB SLT ISZERO PUSH2 0x5565 JUMPI DUP1 DUP2 REVERT JUMPDEST DUP4 CALLDATALOAD PUSH2 0x5570 DUP2 PUSH2 0x607F JUMP JUMPDEST SWAP3 POP PUSH1 0x20 DUP5 ADD CALLDATALOAD SWAP2 POP PUSH1 0x40 DUP5 ADD CALLDATALOAD PUSH2 0x5587 DUP2 PUSH2 0x607F JUMP JUMPDEST DUP1 SWAP2 POP POP SWAP3 POP SWAP3 POP SWAP3 JUMP JUMPDEST PUSH1 0x0 DUP1 PUSH1 0x40 DUP4 DUP6 SUB SLT ISZERO PUSH2 0x55A4 JUMPI DUP2 DUP3 REVERT JUMPDEST DUP3 CALLDATALOAD PUSH1 0x1 PUSH1 0x1 PUSH1 0x40 SHL SUB DUP1 DUP3 GT ISZERO PUSH2 0x55BA JUMPI DUP4 DUP5 REVERT JUMPDEST DUP2 DUP6 ADD SWAP2 POP DUP6 PUSH1 0x1F DUP4 ADD SLT PUSH2 0x55CD JUMPI DUP4 DUP5 REVERT JUMPDEST DUP2 CALLDATALOAD PUSH1 0x20 PUSH2 0x55DD PUSH2 0x5062 DUP4 PUSH2 0x5F7B JUMP JUMPDEST DUP1 DUP4 DUP3 MSTORE DUP3 DUP3 ADD SWAP2 POP DUP3 DUP7 ADD DUP11 DUP5 DUP7 PUSH1 0x5 SHL DUP10 ADD ADD GT ISZERO PUSH2 0x55FC JUMPI DUP9 DUP10 REVERT JUMPDEST DUP9 SWAP7 POP JUMPDEST DUP5 DUP8 LT ISZERO PUSH2 0x5627 JUMPI DUP1 CALLDATALOAD PUSH2 0x5613 DUP2 PUSH2 0x607F JUMP JUMPDEST DUP4 MSTORE PUSH1 0x1 SWAP7 SWAP1 SWAP7 ADD SWAP6 SWAP2 DUP4 ADD SWAP2 DUP4 ADD PUSH2 0x5600 JUMP JUMPDEST POP SWAP7 POP POP DUP7 ADD CALLDATALOAD SWAP3 POP POP DUP1 DUP3 GT ISZERO PUSH2 0x563D JUMPI DUP3 DUP4 REVERT JUMPDEST POP PUSH2 0x564A DUP6 DUP3 DUP7 ADD PUSH2 0x5042 JUMP JUMPDEST SWAP2 POP POP SWAP3 POP SWAP3 SWAP1 POP JUMP JUMPDEST PUSH1 0x0 PUSH1 0x20 DUP3 DUP5 SUB SLT ISZERO PUSH2 0x5665 JUMPI DUP1 DUP2 REVERT JUMPDEST DUP2 MLOAD PUSH2 0x39C7 DUP2 PUSH2 0x6094 JUMP JUMPDEST PUSH1 0x0 PUSH1 0x20 DUP3 DUP5 SUB SLT ISZERO PUSH2 0x5681 JUMPI DUP1 DUP2 REVERT JUMPDEST POP MLOAD SWAP2 SWAP1 POP JUMP JUMPDEST PUSH1 0x0 PUSH1 0x20 DUP3 DUP5 SUB SLT ISZERO PUSH2 0x5699 JUMPI DUP1 DUP2 REVERT JUMPDEST DUP2 CALLDATALOAD PUSH1 0x1 PUSH1 0x1 PUSH1 0xE0 SHL SUB NOT DUP2 AND DUP2 EQ PUSH2 0x39C7 JUMPI DUP2 DUP3 REVERT JUMPDEST PUSH1 0x0 PUSH1 0x60 DUP3 DUP5 SUB SLT ISZERO PUSH2 0x56C1 JUMPI DUP1 DUP2 REVERT JUMPDEST PUSH1 0x40 MLOAD PUSH1 0x60 DUP2 ADD DUP2 DUP2 LT PUSH1 0x1 PUSH1 0x1 PUSH1 0x40 SHL SUB DUP3 GT OR ISZERO PUSH2 0x56E3 JUMPI PUSH2 0x56E3 PUSH2 0x6069 JUMP JUMPDEST PUSH1 0x40 MSTORE DUP3 MLOAD PUSH2 0x56F1 DUP2 PUSH2 0x607F JUMP JUMPDEST DUP2 MSTORE PUSH2 0x56FF PUSH1 0x20 DUP5 ADD PUSH2 0x52A9 JUMP JUMPDEST PUSH1 0x20 DUP3 ADD MSTORE PUSH1 0x40 DUP4 ADD MLOAD PUSH1 0x3 DUP2 LT PUSH2 0x5715 JUMPI DUP3 DUP4 REVERT JUMPDEST PUSH1 0x40 DUP3 ADD MSTORE SWAP4 SWAP3 POP POP POP JUMP JUMPDEST PUSH1 0x0 DUP1 PUSH1 0x0 DUP4 DUP6 SUB PUSH2 0x160 DUP2 SLT ISZERO PUSH2 0x5737 JUMPI DUP2 DUP3 REVERT JUMPDEST PUSH2 0x100 DUP1 DUP3 SLT ISZERO PUSH2 0x5746 JUMPI DUP3 DUP4 REVERT JUMPDEST PUSH2 0x574E PUSH2 0x5F22 JUMP JUMPDEST SWAP2 POP DUP6 CALLDATALOAD DUP3 MSTORE PUSH1 0x20 DUP7 ADD CALLDATALOAD PUSH1 0x20 DUP4 ADD MSTORE PUSH1 0x40 DUP7 ADD CALLDATALOAD PUSH1 0x40 DUP4 ADD MSTORE PUSH2 0x5774 PUSH1 0x60 DUP8 ADD PUSH2 0x5032 JUMP JUMPDEST PUSH1 0x60 DUP4 ADD MSTORE PUSH2 0x5785 PUSH1 0x80 DUP8 ADD PUSH2 0x529E JUMP JUMPDEST PUSH1 0x80 DUP4 ADD MSTORE PUSH2 0x5796 PUSH1 0xA0 DUP8 ADD PUSH2 0x5293 JUMP JUMPDEST PUSH1 0xA0 DUP4 ADD MSTORE PUSH2 0x57A7 PUSH1 0xC0 DUP8 ADD PUSH2 0x5032 JUMP JUMPDEST PUSH1 0xC0 DUP4 ADD MSTORE PUSH2 0x57B8 PUSH1 0xE0 DUP8 ADD PUSH2 0x5032 JUMP JUMPDEST PUSH1 0xE0 DUP4 ADD MSTORE SWAP1 SWAP4 POP DUP5 ADD CALLDATALOAD PUSH1 0x1 PUSH1 0x1 PUSH1 0x40 SHL SUB DUP2 GT ISZERO PUSH2 0x57D6 JUMPI DUP2 DUP3 REVERT JUMPDEST PUSH2 0x57E2 DUP7 DUP3 DUP8 ADD PUSH2 0x5206 JUMP JUMPDEST SWAP3 POP POP PUSH2 0x57F3 DUP6 PUSH2 0x120 DUP7 ADD PUSH2 0x51A5 JUMP JUMPDEST SWAP1 POP SWAP3 POP SWAP3 POP SWAP3 JUMP JUMPDEST PUSH1 0x0 PUSH1 0x20 DUP3 DUP5 SUB SLT ISZERO PUSH2 0x580D JUMPI DUP1 DUP2 REVERT JUMPDEST DUP2 CALLDATALOAD PUSH2 0x39C7 DUP2 PUSH2 0x60A2 JUMP JUMPDEST PUSH1 0x0 PUSH1 0x20 DUP3 DUP5 SUB SLT ISZERO PUSH2 0x5829 JUMPI DUP1 DUP2 REVERT JUMPDEST DUP2 MLOAD PUSH2 0x39C7 DUP2 PUSH2 0x60A2 JUMP JUMPDEST PUSH1 0x0 PUSH1 0x20 DUP3 DUP5 SUB SLT ISZERO PUSH2 0x5845 JUMPI DUP1 DUP2 REVERT JUMPDEST POP CALLDATALOAD SWAP2 SWAP1 POP JUMP JUMPDEST PUSH1 0x0 DUP1 PUSH1 0x0 DUP1 PUSH1 0x0 DUP1 PUSH1 0x0 DUP1 PUSH1 0x0 DUP1 PUSH1 0x0 PUSH2 0x160 DUP13 DUP15 SUB SLT ISZERO PUSH2 0x586D JUMPI DUP5 DUP6 REVERT JUMPDEST DUP12 MLOAD SWAP11 POP PUSH1 0x20 DUP13 ADD MLOAD SWAP10 POP PUSH1 0x40 DUP13 ADD MLOAD SWAP9 POP PUSH1 0x60 DUP13 ADD MLOAD PUSH2 0x588D DUP2 PUSH2 0x607F JUMP JUMPDEST PUSH1 0x80 DUP14 ADD MLOAD SWAP1 SWAP9 POP PUSH2 0x589E DUP2 PUSH2 0x60B2 JUMP JUMPDEST PUSH1 0xA0 DUP14 ADD MLOAD SWAP1 SWAP8 POP PUSH2 0x58AF DUP2 PUSH2 0x60A2 JUMP JUMPDEST PUSH1 0xC0 DUP14 ADD MLOAD SWAP1 SWAP7 POP PUSH2 0x58C0 DUP2 PUSH2 0x60A2 JUMP JUMPDEST PUSH1 0xE0 DUP14 ADD MLOAD SWAP1 SWAP6 POP PUSH2 0x58D1 DUP2 PUSH2 0x607F JUMP JUMPDEST SWAP4 POP PUSH2 0x58E0 PUSH2 0x100 DUP14 ADD PUSH2 0x52A9 JUMP JUMPDEST SWAP3 POP PUSH2 0x120 DUP13 ADD MLOAD PUSH2 0x58F1 DUP2 PUSH2 0x607F JUMP JUMPDEST PUSH2 0x140 DUP14 ADD MLOAD SWAP1 SWAP3 POP PUSH2 0x5903 DUP2 PUSH2 0x607F JUMP JUMPDEST DUP1 SWAP2 POP POP SWAP3 SWAP6 SWAP9 SWAP12 POP SWAP3 SWAP6 SWAP9 SWAP12 SWAP1 SWAP4 SWAP7 SWAP10 POP JUMP JUMPDEST PUSH1 0x0 PUSH1 0x20 DUP3 DUP5 SUB SLT ISZERO PUSH2 0x5928 JUMPI DUP1 DUP2 REVERT JUMPDEST DUP2 CALLDATALOAD PUSH2 0x39C7 DUP2 PUSH2 0x60B2 JUMP JUMPDEST PUSH1 0x0 PUSH1 0x20 DUP3 DUP5 SUB SLT ISZERO PUSH2 0x5944 JUMPI DUP1 DUP2 REVERT JUMPDEST DUP2 MLOAD PUSH2 0x39C7 DUP2 PUSH2 0x60B2 JUMP JUMPDEST PUSH1 0x0 DUP1 PUSH1 0x0 DUP1 PUSH1 0x0 DUP1 PUSH1 0x0 DUP1 PUSH1 0xE0 DUP10 DUP12 SUB SLT ISZERO PUSH2 0x596A JUMPI DUP2 DUP3 REVERT JUMPDEST DUP9 CALLDATALOAD PUSH2 0x5975 DUP2 PUSH2 0x60B2 JUMP JUMPDEST SWAP8 POP PUSH1 0x20 DUP10 ADD CALLDATALOAD PUSH2 0x5985 DUP2 PUSH2 0x607F JUMP JUMPDEST SWAP7 POP PUSH1 0x40 DUP10 ADD CALLDATALOAD PUSH1 0x1 PUSH1 0x1 PUSH1 0x40 SHL SUB DUP2 GT ISZERO PUSH2 0x599F JUMPI DUP3 DUP4 REVERT JUMPDEST PUSH2 0x59AB DUP12 DUP3 DUP13 ADD PUSH2 0x50FC JUMP JUMPDEST SWAP1 SWAP8 POP SWAP6 POP POP PUSH1 0x60 DUP10 ADD CALLDATALOAD PUSH2 0x59BF DUP2 PUSH2 0x607F JUMP JUMPDEST SWAP4 POP PUSH1 0x80 DUP10 ADD CALLDATALOAD SWAP3 POP PUSH1 0xA0 DUP10 ADD CALLDATALOAD PUSH2 0x59D6 DUP2 PUSH2 0x6094 JUMP JUMPDEST DUP1 SWAP3 POP POP PUSH1 0xC0 DUP10 ADD CALLDATALOAD SWAP1 POP SWAP3 SWAP6 SWAP9 POP SWAP3 SWAP6 SWAP9 SWAP1 SWAP4 SWAP7 POP JUMP JUMPDEST PUSH1 0x0 DUP1 PUSH1 0x0 DUP1 PUSH1 0x0 DUP1 PUSH1 0x0 PUSH1 0xE0 DUP9 DUP11 SUB SLT ISZERO PUSH2 0x5A08 JUMPI DUP1 DUP2 REVERT JUMPDEST DUP8 CALLDATALOAD PUSH2 0x5A13 DUP2 PUSH2 0x60B2 JUMP JUMPDEST SWAP7 POP PUSH1 0x20 DUP9 ADD CALLDATALOAD PUSH2 0x5A23 DUP2 PUSH2 0x60B2 JUMP JUMPDEST SWAP6 POP PUSH1 0x40 DUP9 ADD CALLDATALOAD SWAP5 POP PUSH1 0x60 DUP9 ADD CALLDATALOAD SWAP4 POP PUSH1 0x80 DUP9 ADD CALLDATALOAD SWAP3 POP PUSH1 0xA0 DUP9 ADD CALLDATALOAD SWAP2 POP PUSH1 0xC0 DUP9 ADD CALLDATALOAD PUSH1 0x1 PUSH1 0x1 PUSH1 0x40 SHL SUB DUP2 GT ISZERO PUSH2 0x5A59 JUMPI DUP2 DUP3 REVERT JUMPDEST PUSH2 0x5A65 DUP11 DUP3 DUP12 ADD PUSH2 0x513B JUMP JUMPDEST SWAP2 POP POP SWAP3 SWAP6 SWAP9 SWAP2 SWAP5 SWAP8 POP SWAP3 SWAP6 POP JUMP JUMPDEST DUP2 DUP4 MSTORE DUP2 DUP2 PUSH1 0x20 DUP6 ADD CALLDATACOPY POP PUSH1 0x0 DUP3 DUP3 ADD PUSH1 0x20 SWAP1 DUP2 ADD SWAP2 SWAP1 SWAP2 MSTORE PUSH1 0x1F SWAP1 SWAP2 ADD PUSH1 0x1F NOT AND SWAP1 SWAP2 ADD ADD SWAP1 JUMP JUMPDEST PUSH1 0x0 DUP2 MLOAD DUP1 DUP5 MSTORE PUSH2 0x5AB5 DUP2 PUSH1 0x20 DUP7 ADD PUSH1 0x20 DUP7 ADD PUSH2 0x600C JUMP JUMPDEST PUSH1 0x1F ADD PUSH1 0x1F NOT AND SWAP3 SWAP1 SWAP3 ADD PUSH1 0x20 ADD SWAP3 SWAP2 POP POP JUMP JUMPDEST PUSH1 0x0 DUP3 MLOAD PUSH2 0x5ADB DUP2 DUP5 PUSH1 0x20 DUP8 ADD PUSH2 0x600C JUMP JUMPDEST SWAP2 SWAP1 SWAP2 ADD SWAP3 SWAP2 POP POP JUMP JUMPDEST PUSH1 0x0 DUP6 MLOAD PUSH2 0x5AF7 DUP2 DUP5 PUSH1 0x20 DUP11 ADD PUSH2 0x600C JUMP JUMPDEST DUP6 MLOAD SWAP1 DUP4 ADD SWAP1 PUSH2 0x5B0B DUP2 DUP4 PUSH1 0x20 DUP11 ADD PUSH2 0x600C JUMP JUMPDEST PUSH1 0x60 SWAP6 SWAP1 SWAP6 SHL PUSH1 0x1 PUSH1 0x1 PUSH1 0x60 SHL SUB NOT AND SWAP5 ADD SWAP4 DUP5 MSTORE POP POP PUSH1 0x14 DUP3 ADD MSTORE PUSH1 0x34 ADD SWAP3 SWAP2 POP POP JUMP JUMPDEST DUP8 DUP2 MSTORE PUSH4 0xFFFFFFFF PUSH1 0xE0 SHL DUP8 PUSH1 0xE0 SHL AND PUSH1 0x20 DUP3 ADD MSTORE DUP6 PUSH1 0x24 DUP3 ADD MSTORE DUP5 PUSH1 0x44 DUP3 ADD MSTORE PUSH1 0x0 DUP5 MLOAD PUSH2 0x5B66 DUP2 PUSH1 0x64 DUP6 ADD PUSH1 0x20 DUP10 ADD PUSH2 0x600C JUMP JUMPDEST DUP1 DUP4 ADD SWAP1 POP PUSH12 0xFFFFFFFFFFFFFFFFFFFFFFFF NOT DUP6 PUSH1 0x60 SHL AND PUSH1 0x64 DUP3 ADD MSTORE DUP4 PUSH1 0x78 DUP3 ADD MSTORE PUSH1 0x98 DUP2 ADD SWAP2 POP POP SWAP9 SWAP8 POP POP POP POP POP POP POP POP JUMP JUMPDEST PUSH1 0x1 PUSH1 0x1 PUSH1 0xA0 SHL SUB SWAP2 SWAP1 SWAP2 AND DUP2 MSTORE PUSH1 0x20 ADD SWAP1 JUMP JUMPDEST PUSH1 0x1 PUSH1 0x1 PUSH1 0xA0 SHL SUB SWAP4 DUP5 AND DUP2 MSTORE SWAP2 SWAP1 SWAP3 AND PUSH1 0x20 DUP3 ADD MSTORE PUSH1 0x40 DUP2 ADD SWAP2 SWAP1 SWAP2 MSTORE PUSH1 0x60 ADD SWAP1 JUMP JUMPDEST PUSH1 0x1 PUSH1 0x1 PUSH1 0xA0 SHL SUB SWAP3 SWAP1 SWAP3 AND DUP3 MSTORE PUSH1 0x20 DUP3 ADD MSTORE PUSH1 0x40 ADD SWAP1 JUMP JUMPDEST PUSH1 0x1 PUSH1 0x1 PUSH1 0xA0 SHL SUB DUP13 DUP2 AND DUP3 MSTORE PUSH1 0x20 DUP3 ADD DUP13 SWAP1 MSTORE DUP11 DUP2 AND PUSH1 0x40 DUP4 ADD MSTORE DUP10 DUP2 AND PUSH1 0x60 DUP4 ADD MSTORE PUSH2 0x140 PUSH1 0x80 DUP4 ADD DUP2 SWAP1 MSTORE PUSH1 0x0 SWAP2 PUSH2 0x5C2B DUP5 DUP4 ADD DUP12 DUP14 PUSH2 0x5A74 JUMP JUMPDEST SWAP9 DUP2 AND PUSH1 0xA0 DUP6 ADD MSTORE PUSH1 0xC0 DUP5 ADD SWAP8 SWAP1 SWAP8 MSTORE POP POP SWAP3 ISZERO ISZERO PUSH1 0xE0 DUP5 ADD MSTORE PUSH2 0x100 DUP4 ADD SWAP2 SWAP1 SWAP2 MSTORE SWAP1 SWAP2 AND PUSH2 0x120 SWAP1 SWAP2 ADD MSTORE SWAP7 SWAP6 POP POP POP POP POP POP JUMP JUMPDEST DUP3 DUP2 MSTORE PUSH1 0x40 PUSH1 0x20 DUP3 ADD MSTORE PUSH1 0x0 PUSH2 0x7FF PUSH1 0x40 DUP4 ADD DUP5 PUSH2 0x5A9D JUMP JUMPDEST PUSH1 0x20 DUP2 MSTORE PUSH1 0x0 PUSH2 0x39C7 PUSH1 0x20 DUP4 ADD DUP5 PUSH2 0x5A9D JUMP JUMPDEST PUSH1 0x20 DUP1 DUP3 MSTORE PUSH1 0x2D SWAP1 DUP3 ADD MSTORE PUSH32 0x4E6567617469766520696E7465726573742072617465206C6F616E7320617265 PUSH1 0x40 DUP3 ADD MSTORE PUSH13 0x103737BA1030B63637BBB2B217 PUSH1 0x99 SHL PUSH1 0x60 DUP3 ADD MSTORE PUSH1 0x80 ADD SWAP1 JUMP JUMPDEST PUSH1 0x20 DUP1 DUP3 MSTORE PUSH1 0x1E SWAP1 DUP3 ADD MSTORE PUSH32 0x4C6F616E20616C7265616479207265706169642F6C6971756964617465640000 PUSH1 0x40 DUP3 ADD MSTORE PUSH1 0x60 ADD SWAP1 JUMP JUMPDEST PUSH1 0x20 DUP1 DUP3 MSTORE PUSH1 0x14 SWAP1 DUP3 ADD MSTORE PUSH20 0x4C6F616E206973207A65726F2061646472657373 PUSH1 0x60 SHL PUSH1 0x40 DUP3 ADD MSTORE PUSH1 0x60 ADD SWAP1 JUMP JUMPDEST PUSH1 0x20 DUP1 DUP3 MSTORE PUSH1 0x14 SWAP1 DUP3 ADD MSTORE PUSH20 0x13195B99195C881B9BDB98D9481A5B9D985B1A59 PUSH1 0x62 SHL PUSH1 0x40 DUP3 ADD MSTORE PUSH1 0x60 ADD SWAP1 JUMP JUMPDEST PUSH1 0x20 DUP1 DUP3 MSTORE DUP2 DUP2 ADD MSTORE PUSH32 0x4F776E61626C653A2063616C6C6572206973206E6F7420746865206F776E6572 PUSH1 0x40 DUP3 ADD MSTORE PUSH1 0x60 ADD SWAP1 JUMP JUMPDEST PUSH1 0x20 DUP1 DUP3 MSTORE PUSH1 0x13 SWAP1 DUP3 ADD MSTORE PUSH19 0x1D1BDAD95B881A5CC818DBDB1B185D195C985B PUSH1 0x6A SHL PUSH1 0x40 DUP3 ADD MSTORE PUSH1 0x60 ADD SWAP1 JUMP JUMPDEST PUSH1 0x0 PUSH2 0x1C0 DUP3 ADD SWAP1 POP DUP4 MLOAD DUP3 MSTORE PUSH1 0x20 DUP5 ADD MLOAD PUSH1 0x20 DUP4 ADD MSTORE PUSH1 0x40 DUP5 ADD MLOAD PUSH1 0x40 DUP4 ADD MSTORE PUSH1 0x60 DUP5 ADD MLOAD PUSH2 0x5E0B PUSH1 0x60 DUP5 ADD DUP3 PUSH1 0x1 PUSH1 0x1 PUSH1 0xA0 SHL SUB AND SWAP1 MSTORE JUMP JUMPDEST POP PUSH1 0x80 DUP5 ADD MLOAD PUSH2 0x5E23 PUSH1 0x80 DUP5 ADD DUP3 PUSH4 0xFFFFFFFF AND SWAP1 MSTORE JUMP JUMPDEST POP PUSH1 0xA0 DUP5 ADD MLOAD PUSH2 0x5E39 PUSH1 0xA0 DUP5 ADD DUP3 PUSH2 0xFFFF AND SWAP1 MSTORE JUMP JUMPDEST POP PUSH1 0xC0 DUP5 ADD MLOAD PUSH2 0x5E4F PUSH1 0xC0 DUP5 ADD DUP3 PUSH2 0xFFFF AND SWAP1 MSTORE JUMP JUMPDEST POP PUSH1 0xE0 DUP5 ADD MLOAD PUSH2 0x5E6A PUSH1 0xE0 DUP5 ADD DUP3 PUSH1 0x1 PUSH1 0x1 PUSH1 0xA0 SHL SUB AND SWAP1 MSTORE JUMP JUMPDEST POP PUSH2 0x100 DUP5 DUP2 ADD MLOAD PUSH1 0x1 PUSH1 0x1 PUSH1 0x40 SHL SUB AND SWAP1 DUP4 ADD MSTORE PUSH2 0x120 DUP1 DUP6 ADD MLOAD PUSH1 0x1 PUSH1 0x1 PUSH1 0xA0 SHL SUB SWAP1 DUP2 AND SWAP2 DUP5 ADD SWAP2 SWAP1 SWAP2 MSTORE PUSH2 0x140 DUP1 DUP7 ADD MLOAD DUP3 AND SWAP1 DUP5 ADD MSTORE DUP4 MLOAD AND PUSH2 0x160 DUP4 ADD MSTORE PUSH1 0x20 DUP4 ADD MLOAD PUSH2 0xFFFF SWAP1 DUP2 AND PUSH2 0x180 DUP5 ADD MSTORE PUSH1 0x40 DUP5 ADD MLOAD AND PUSH2 0x1A0 DUP4 ADD MSTORE PUSH2 0x39C7 JUMP JUMPDEST DUP6 DUP2 MSTORE PUSH1 0x1 PUSH1 0x1 PUSH1 0xA0 SHL SUB DUP6 DUP2 AND PUSH1 0x20 DUP4 ADD MSTORE DUP5 AND PUSH1 0x40 DUP3 ADD MSTORE PUSH1 0x80 PUSH1 0x60 DUP3 ADD DUP2 SWAP1 MSTORE PUSH1 0x0 SWAP1 PUSH2 0x3CC0 SWAP1 DUP4 ADD DUP5 DUP7 PUSH2 0x5A74 JUMP JUMPDEST PUSH4 0xFFFFFFFF SWAP3 SWAP1 SWAP3 AND DUP3 MSTORE PUSH1 0x1 PUSH1 0x1 PUSH1 0xA0 SHL SUB AND PUSH1 0x20 DUP3 ADD MSTORE PUSH1 0x40 ADD SWAP1 JUMP JUMPDEST PUSH1 0x40 MLOAD PUSH2 0x100 DUP2 ADD PUSH1 0x1 PUSH1 0x1 PUSH1 0x40 SHL SUB DUP2 GT DUP3 DUP3 LT OR ISZERO PUSH2 0x5F45 JUMPI PUSH2 0x5F45 PUSH2 0x6069 JUMP JUMPDEST PUSH1 0x40 MSTORE SWAP1 JUMP JUMPDEST PUSH1 0x40 MLOAD PUSH1 0x1F DUP3 ADD PUSH1 0x1F NOT AND DUP2 ADD PUSH1 0x1 PUSH1 0x1 PUSH1 0x40 SHL SUB DUP2 GT DUP3 DUP3 LT OR ISZERO PUSH2 0x5F73 JUMPI PUSH2 0x5F73 PUSH2 0x6069 JUMP JUMPDEST PUSH1 0x40 MSTORE SWAP2 SWAP1 POP JUMP JUMPDEST PUSH1 0x0 PUSH1 0x1 PUSH1 0x1 PUSH1 0x40 SHL SUB DUP3 GT ISZERO PUSH2 0x5F94 JUMPI PUSH2 0x5F94 PUSH2 0x6069 JUMP JUMPDEST POP PUSH1 0x5 SHL PUSH1 0x20 ADD SWAP1 JUMP JUMPDEST PUSH1 0x0 DUP3 NOT DUP3 GT ISZERO PUSH2 0x5FB1 JUMPI PUSH2 0x5FB1 PUSH2 0x6053 JUMP JUMPDEST POP ADD SWAP1 JUMP JUMPDEST PUSH1 0x0 DUP3 PUSH2 0x5FD1 JUMPI PUSH4 0x4E487B71 PUSH1 0xE0 SHL DUP2 MSTORE PUSH1 0x12 PUSH1 0x4 MSTORE PUSH1 0x24 DUP2 REVERT JUMPDEST POP DIV SWAP1 JUMP JUMPDEST PUSH1 0x0 DUP2 PUSH1 0x0 NOT DIV DUP4 GT DUP3 ISZERO ISZERO AND ISZERO PUSH2 0x5FF0 JUMPI PUSH2 0x5FF0 PUSH2 0x6053 JUMP JUMPDEST POP MUL SWAP1 JUMP JUMPDEST PUSH1 0x0 DUP3 DUP3 LT ISZERO PUSH2 0x6007 JUMPI PUSH2 0x6007 PUSH2 0x6053 JUMP JUMPDEST POP SUB SWAP1 JUMP JUMPDEST PUSH1 0x0 JUMPDEST DUP4 DUP2 LT ISZERO PUSH2 0x6027 JUMPI DUP2 DUP2 ADD MLOAD DUP4 DUP3 ADD MSTORE PUSH1 0x20 ADD PUSH2 0x600F JUMP JUMPDEST DUP4 DUP2 GT ISZERO PUSH2 0x7F0 JUMPI POP POP PUSH1 0x0 SWAP2 ADD MSTORE JUMP JUMPDEST PUSH1 0x0 PUSH1 0x0 NOT DUP3 EQ ISZERO PUSH2 0x604C JUMPI PUSH2 0x604C PUSH2 0x6053 JUMP JUMPDEST POP PUSH1 0x1 ADD SWAP1 JUMP JUMPDEST PUSH4 0x4E487B71 PUSH1 0xE0 SHL PUSH1 0x0 MSTORE PUSH1 0x11 PUSH1 0x4 MSTORE PUSH1 0x24 PUSH1 0x0 REVERT JUMPDEST PUSH4 0x4E487B71 PUSH1 0xE0 SHL PUSH1 0x0 MSTORE PUSH1 0x41 PUSH1 0x4 MSTORE PUSH1 0x24 PUSH1 0x0 REVERT JUMPDEST PUSH1 0x1 PUSH1 0x1 PUSH1 0xA0 SHL SUB DUP2 AND DUP2 EQ PUSH2 0x9BB JUMPI PUSH1 0x0 DUP1 REVERT JUMPDEST DUP1 ISZERO ISZERO DUP2 EQ PUSH2 0x9BB JUMPI PUSH1 0x0 DUP1 REVERT JUMPDEST PUSH2 0xFFFF DUP2 AND DUP2 EQ PUSH2 0x9BB JUMPI PUSH1 0x0 DUP1 REVERT JUMPDEST PUSH4 0xFFFFFFFF DUP2 AND DUP2 EQ PUSH2 0x9BB JUMPI PUSH1 0x0 DUP1 REVERT INVALID 0x4E CHAINID SLOAD KECCAK256 PUSH24 0x6173206E6F74207375636365737366756C6C79206D696772 PUSH2 0x7465 PUSH5 0xA264697066 PUSH20 0x5822122041C675C6C6708B942A455E2716217445 SWAP7 SWAP14 0x25 SWAP1 0xE2 0xB7 POP 0xDD 0xA6 0x4F CREATE2 0xEF 0xAD COINBASE EXP 0xFC PUSH5 0x736F6C6343 STOP ADDMOD DIV STOP CALLER "
		},
		"gasEstimates": {
			"creation": {
				"codeDepositCost": "4971800",
				"executionCost": "infinite",
				"totalCost": "infinite"
			},
			"external": {
				"HUNDRED_PERCENT()": "249",
				"LOAN_COORDINATOR()": "infinite",
				"LOAN_TYPE()": "221",
				"acceptOffer((uint256,uint256,uint256,address,uint32,uint16,address,address),(uint256,uint256,address,bytes),(address,uint16))": "infinite",
				"adminFeeInBasisPoints()": "1035",
				"cancelLoanCommitmentBeforeLoanHasBegun(uint256)": "22347",
				"drainERC1155Airdrop(address,uint256,address)": "infinite",
				"drainERC20Airdrop(address,address)": "infinite",
				"drainERC721Airdrop(address,uint256,address)": "infinite",
				"getERC20Permit(address)": "1387",
				"getPayoffAmount(uint32)": "1257",
				"getWhetherNonceHasBeenUsedForUser(address,uint256)": "1376",
				"hub()": "infinite",
				"liquidateOverdueLoan(uint32)": "infinite",
				"loanIdToLoan(uint32)": "6703",
				"loanIdToLoanExtras(uint32)": "1436",
				"loanRepaidOrLiquidated(uint32)": "1270",
				"maximumLoanDuration()": "1129",
				"mintObligationReceipt(uint32)": "infinite",
				"onERC1155BatchReceived(address,address,uint256[],uint256[],bytes)": "infinite",
				"onERC1155Received(address,address,uint256,uint256,bytes)": "infinite",
				"onERC721Received(address,address,uint256,bytes)": "infinite",
				"owner()": "1247",
				"pause()": "infinite",
				"paused()": "1224",
				"payBackLoan(uint32)": "infinite",
				"pullAirdrop(uint32,address,bytes,address,uint256,bool,uint256)": "infinite",
				"renegotiateLoan(uint32,uint32,uint256,uint256,uint256,uint256,bytes)": "infinite",
				"setERC20Permit(address,bool)": "infinite",
				"setERC20Permits(address[],bool[])": "infinite",
				"supportsInterface(bytes4)": "505",
				"transferOwnership(address)": "infinite",
				"unpause()": "infinite",
				"updateAdminFee(uint16)": "23256",
				"updateMaximumLoanDuration(uint256)": "22323",
				"wrapCollateral(uint32)": "infinite"
			}
		},
		"methodIdentifiers": {
			"HUNDRED_PERCENT()": "6ed93dd0",
			"LOAN_COORDINATOR()": "77cfa991",
			"LOAN_TYPE()": "616693d8",
			"acceptOffer((uint256,uint256,uint256,address,uint32,uint16,address,address),(uint256,uint256,address,bytes),(address,uint16))": "56efe98c",
			"adminFeeInBasisPoints()": "a4441a6f",
			"cancelLoanCommitmentBeforeLoanHasBegun(uint256)": "9658e405",
			"drainERC1155Airdrop(address,uint256,address)": "ac4e35ea",
			"drainERC20Airdrop(address,address)": "05b406cf",
			"drainERC721Airdrop(address,uint256,address)": "5163a1c3",
			"getERC20Permit(address)": "872873be",
			"getPayoffAmount(uint32)": "ab3b1280",
			"getWhetherNonceHasBeenUsedForUser(address,uint256)": "328404b0",
			"hub()": "365a86fc",
			"liquidateOverdueLoan(uint32)": "b31ec1d4",
			"loanIdToLoan(uint32)": "227cda18",
			"loanIdToLoanExtras(uint32)": "0ff81c3f",
			"loanRepaidOrLiquidated(uint32)": "0717f3aa",
			"maximumLoanDuration()": "192b355d",
			"mintObligationReceipt(uint32)": "bce42e42",
			"onERC1155BatchReceived(address,address,uint256[],uint256[],bytes)": "bc197c81",
			"onERC1155Received(address,address,uint256,uint256,bytes)": "f23a6e61",
			"onERC721Received(address,address,uint256,bytes)": "150b7a02",
			"owner()": "8da5cb5b",
			"pause()": "8456cb59",
			"paused()": "5c975abb",
			"payBackLoan(uint32)": "2b218022",
			"pullAirdrop(uint32,address,bytes,address,uint256,bool,uint256)": "318dacd3",
			"renegotiateLoan(uint32,uint32,uint256,uint256,uint256,uint256,bytes)": "b18e7772",
			"setERC20Permit(address,bool)": "7836baf1",
			"setERC20Permits(address[],bool[])": "79b64040",
			"supportsInterface(bytes4)": "01ffc9a7",
			"transferOwnership(address)": "f2fde38b",
			"unpause()": "3f4ba83a",
			"updateAdminFee(uint16)": "1c6caf41",
			"updateMaximumLoanDuration(uint256)": "47948d92",
			"wrapCollateral(uint32)": "59a72734"
		}
	},
	"abi": [
		{
			"inputs": [
				{
					"internalType": "address",
					"name": "_admin",
					"type": "address"
				},
				{
					"internalType": "address",
					"name": "_nftfiHub",
					"type": "address"
				},
				{
					"internalType": "address[]",
					"name": "_permittedErc20s",
					"type": "address[]"
				}
			],
			"stateMutability": "nonpayable",
			"type": "constructor"
		},
		{
			"anonymous": false,
			"inputs": [
				{
					"indexed": false,
					"internalType": "uint16",
					"name": "newAdminFee",
					"type": "uint16"
				}
			],
			"name": "AdminFeeUpdated",
			"type": "event"
		},
		{
			"anonymous": false,
			"inputs": [
				{
					"indexed": true,
					"internalType": "address",
					"name": "erc20Contract",
					"type": "address"
				},
				{
					"indexed": false,
					"internalType": "bool",
					"name": "isPermitted",
					"type": "bool"
				}
			],
			"name": "ERC20Permit",
			"type": "event"
		},
		{
			"anonymous": false,
			"inputs": [
				{
					"indexed": true,
					"internalType": "uint32",
					"name": "loanId",
					"type": "uint32"
				},
				{
					"indexed": true,
					"internalType": "address",
					"name": "borrower",
					"type": "address"
				},
				{
					"indexed": true,
					"internalType": "address",
					"name": "lender",
					"type": "address"
				},
				{
					"indexed": false,
					"internalType": "uint256",
					"name": "loanPrincipalAmount",
					"type": "uint256"
				},
				{
					"indexed": false,
					"internalType": "uint256",
					"name": "nftCollateralId",
					"type": "uint256"
				},
				{
					"indexed": false,
					"internalType": "uint256",
					"name": "loanMaturityDate",
					"type": "uint256"
				},
				{
					"indexed": false,
					"internalType": "uint256",
					"name": "loanLiquidationDate",
					"type": "uint256"
				},
				{
					"indexed": false,
					"internalType": "address",
					"name": "nftCollateralContract",
					"type": "address"
				}
			],
			"name": "LoanLiquidated",
			"type": "event"
		},
		{
			"anonymous": false,
			"inputs": [
				{
					"indexed": true,
					"internalType": "uint32",
					"name": "loanId",
					"type": "uint32"
				},
				{
					"indexed": true,
					"internalType": "address",
					"name": "borrower",
					"type": "address"
				},
				{
					"indexed": true,
					"internalType": "address",
					"name": "lender",
					"type": "address"
				},
				{
					"indexed": false,
					"internalType": "uint32",
					"name": "newLoanDuration",
					"type": "uint32"
				},
				{
					"indexed": false,
					"internalType": "uint256",
					"name": "newMaximumRepaymentAmount",
					"type": "uint256"
				},
				{
					"indexed": false,
					"internalType": "uint256",
					"name": "renegotiationFee",
					"type": "uint256"
				},
				{
					"indexed": false,
					"internalType": "uint256",
					"name": "renegotiationAdminFee",
					"type": "uint256"
				}
			],
			"name": "LoanRenegotiated",
			"type": "event"
		},
		{
			"anonymous": false,
			"inputs": [
				{
					"indexed": true,
					"internalType": "uint32",
					"name": "loanId",
					"type": "uint32"
				},
				{
					"indexed": true,
					"internalType": "address",
					"name": "borrower",
					"type": "address"
				},
				{
					"indexed": true,
					"internalType": "address",
					"name": "lender",
					"type": "address"
				},
				{
					"indexed": false,
					"internalType": "uint256",
					"name": "loanPrincipalAmount",
					"type": "uint256"
				},
				{
					"indexed": false,
					"internalType": "uint256",
					"name": "nftCollateralId",
					"type": "uint256"
				},
				{
					"indexed": false,
					"internalType": "uint256",
					"name": "amountPaidToLender",
					"type": "uint256"
				},
				{
					"indexed": false,
					"internalType": "uint256",
					"name": "adminFee",
					"type": "uint256"
				},
				{
					"indexed": false,
					"internalType": "uint256",
					"name": "revenueShare",
					"type": "uint256"
				},
				{
					"indexed": false,
					"internalType": "address",
					"name": "revenueSharePartner",
					"type": "address"
				},
				{
					"indexed": false,
					"internalType": "address",
					"name": "nftCollateralContract",
					"type": "address"
				},
				{
					"indexed": false,
					"internalType": "address",
					"name": "loanERC20Denomination",
					"type": "address"
				}
			],
			"name": "LoanRepaid",
			"type": "event"
		},
		{
			"anonymous": false,
			"inputs": [
				{
					"indexed": true,
					"internalType": "uint32",
					"name": "loanId",
					"type": "uint32"
				},
				{
					"indexed": true,
					"internalType": "address",
					"name": "borrower",
					"type": "address"
				},
				{
					"indexed": true,
					"internalType": "address",
					"name": "lender",
					"type": "address"
				},
				{
					"components": [
						{
							"internalType": "uint256",
							"name": "loanPrincipalAmount",
							"type": "uint256"
						},
						{
							"internalType": "uint256",
							"name": "maximumRepaymentAmount",
							"type": "uint256"
						},
						{
							"internalType": "uint256",
							"name": "nftCollateralId",
							"type": "uint256"
						},
						{
							"internalType": "address",
							"name": "loanERC20Denomination",
							"type": "address"
						},
						{
							"internalType": "uint32",
							"name": "loanDuration",
							"type": "uint32"
						},
						{
							"internalType": "uint16",
							"name": "loanInterestRateForDurationInBasisPoints",
							"type": "uint16"
						},
						{
							"internalType": "uint16",
							"name": "loanAdminFeeInBasisPoints",
							"type": "uint16"
						},
						{
							"internalType": "address",
							"name": "nftCollateralWrapper",
							"type": "address"
						},
						{
							"internalType": "uint64",
							"name": "loanStartTime",
							"type": "uint64"
						},
						{
							"internalType": "address",
							"name": "nftCollateralContract",
							"type": "address"
						},
						{
							"internalType": "address",
							"name": "borrower",
							"type": "address"
						}
					],
					"indexed": false,
					"internalType": "struct LoanData.LoanTerms",
					"name": "loanTerms",
					"type": "tuple"
				},
				{
					"components": [
						{
							"internalType": "address",
							"name": "revenueSharePartner",
							"type": "address"
						},
						{
							"internalType": "uint16",
							"name": "revenueShareInBasisPoints",
							"type": "uint16"
						},
						{
							"internalType": "uint16",
							"name": "referralFeeInBasisPoints",
							"type": "uint16"
						}
					],
					"indexed": false,
					"internalType": "struct LoanData.LoanExtras",
					"name": "loanExtras",
					"type": "tuple"
				}
			],
			"name": "LoanStarted",
			"type": "event"
		},
		{
			"anonymous": false,
			"inputs": [
				{
					"indexed": false,
					"internalType": "uint256",
					"name": "newMaximumLoanDuration",
					"type": "uint256"
				}
			],
			"name": "MaximumLoanDurationUpdated",
			"type": "event"
		},
		{
			"anonymous": false,
			"inputs": [
				{
					"indexed": true,
					"internalType": "address",
					"name": "previousOwner",
					"type": "address"
				},
				{
					"indexed": true,
					"internalType": "address",
					"name": "newOwner",
					"type": "address"
				}
			],
			"name": "OwnershipTransferred",
			"type": "event"
		},
		{
			"anonymous": false,
			"inputs": [
				{
					"indexed": false,
					"internalType": "address",
					"name": "account",
					"type": "address"
				}
			],
			"name": "Paused",
			"type": "event"
		},
		{
			"anonymous": false,
			"inputs": [
				{
					"indexed": false,
					"internalType": "address",
					"name": "account",
					"type": "address"
				}
			],
			"name": "Unpaused",
			"type": "event"
		},
		{
			"inputs": [],
			"name": "HUNDRED_PERCENT",
			"outputs": [
				{
					"internalType": "uint16",
					"name": "",
					"type": "uint16"
				}
			],
			"stateMutability": "view",
			"type": "function"
		},
		{
			"inputs": [],
			"name": "LOAN_COORDINATOR",
			"outputs": [
				{
					"internalType": "bytes32",
					"name": "",
					"type": "bytes32"
				}
			],
			"stateMutability": "view",
			"type": "function"
		},
		{
			"inputs": [],
			"name": "LOAN_TYPE",
			"outputs": [
				{
					"internalType": "bytes32",
					"name": "",
					"type": "bytes32"
				}
			],
			"stateMutability": "pure",
			"type": "function"
		},
		{
			"inputs": [
				{
					"components": [
						{
							"internalType": "uint256",
							"name": "loanPrincipalAmount",
							"type": "uint256"
						},
						{
							"internalType": "uint256",
							"name": "maximumRepaymentAmount",
							"type": "uint256"
						},
						{
							"internalType": "uint256",
							"name": "nftCollateralId",
							"type": "uint256"
						},
						{
							"internalType": "address",
							"name": "nftCollateralContract",
							"type": "address"
						},
						{
							"internalType": "uint32",
							"name": "loanDuration",
							"type": "uint32"
						},
						{
							"internalType": "uint16",
							"name": "loanAdminFeeInBasisPoints",
							"type": "uint16"
						},
						{
							"internalType": "address",
							"name": "loanERC20Denomination",
							"type": "address"
						},
						{
							"internalType": "address",
							"name": "referrer",
							"type": "address"
						}
					],
					"internalType": "struct LoanData.Offer",
					"name": "_offer",
					"type": "tuple"
				},
				{
					"components": [
						{
							"internalType": "uint256",
							"name": "nonce",
							"type": "uint256"
						},
						{
							"internalType": "uint256",
							"name": "expiry",
							"type": "uint256"
						},
						{
							"internalType": "address",
							"name": "signer",
							"type": "address"
						},
						{
							"internalType": "bytes",
							"name": "signature",
							"type": "bytes"
						}
					],
					"internalType": "struct LoanData.Signature",
					"name": "_signature",
					"type": "tuple"
				},
				{
					"components": [
						{
							"internalType": "address",
							"name": "revenueSharePartner",
							"type": "address"
						},
						{
							"internalType": "uint16",
							"name": "referralFeeInBasisPoints",
							"type": "uint16"
						}
					],
					"internalType": "struct LoanData.BorrowerSettings",
					"name": "_borrowerSettings",
					"type": "tuple"
				}
			],
			"name": "acceptOffer",
			"outputs": [],
			"stateMutability": "nonpayable",
			"type": "function"
		},
		{
			"inputs": [],
			"name": "adminFeeInBasisPoints",
			"outputs": [
				{
					"internalType": "uint16",
					"name": "",
					"type": "uint16"
				}
			],
			"stateMutability": "view",
			"type": "function"
		},
		{
			"inputs": [
				{
					"internalType": "uint256",
					"name": "_nonce",
					"type": "uint256"
				}
			],
			"name": "cancelLoanCommitmentBeforeLoanHasBegun",
			"outputs": [],
			"stateMutability": "nonpayable",
			"type": "function"
		},
		{
			"inputs": [
				{
					"internalType": "address",
					"name": "_tokenAddress",
					"type": "address"
				},
				{
					"internalType": "uint256",
					"name": "_tokenId",
					"type": "uint256"
				},
				{
					"internalType": "address",
					"name": "_receiver",
					"type": "address"
				}
			],
			"name": "drainERC1155Airdrop",
			"outputs": [],
			"stateMutability": "nonpayable",
			"type": "function"
		},
		{
			"inputs": [
				{
					"internalType": "address",
					"name": "_tokenAddress",
					"type": "address"
				},
				{
					"internalType": "address",
					"name": "_receiver",
					"type": "address"
				}
			],
			"name": "drainERC20Airdrop",
			"outputs": [],
			"stateMutability": "nonpayable",
			"type": "function"
		},
		{
			"inputs": [
				{
					"internalType": "address",
					"name": "_tokenAddress",
					"type": "address"
				},
				{
					"internalType": "uint256",
					"name": "_tokenId",
					"type": "uint256"
				},
				{
					"internalType": "address",
					"name": "_receiver",
					"type": "address"
				}
			],
			"name": "drainERC721Airdrop",
			"outputs": [],
			"stateMutability": "nonpayable",
			"type": "function"
		},
		{
			"inputs": [
				{
					"internalType": "address",
					"name": "_erc20",
					"type": "address"
				}
			],
			"name": "getERC20Permit",
			"outputs": [
				{
					"internalType": "bool",
					"name": "",
					"type": "bool"
				}
			],
			"stateMutability": "view",
			"type": "function"
		},
		{
			"inputs": [
				{
					"internalType": "uint32",
					"name": "_loanId",
					"type": "uint32"
				}
			],
			"name": "getPayoffAmount",
			"outputs": [
				{
					"internalType": "uint256",
					"name": "",
					"type": "uint256"
				}
			],
			"stateMutability": "view",
			"type": "function"
		},
		{
			"inputs": [
				{
					"internalType": "address",
					"name": "_user",
					"type": "address"
				},
				{
					"internalType": "uint256",
					"name": "_nonce",
					"type": "uint256"
				}
			],
			"name": "getWhetherNonceHasBeenUsedForUser",
			"outputs": [
				{
					"internalType": "bool",
					"name": "",
					"type": "bool"
				}
			],
			"stateMutability": "view",
			"type": "function"
		},
		{
			"inputs": [],
			"name": "hub",
			"outputs": [
				{
					"internalType": "contract INftfiHub",
					"name": "",
					"type": "address"
				}
			],
			"stateMutability": "view",
			"type": "function"
		},
		{
			"inputs": [
				{
					"internalType": "uint32",
					"name": "_loanId",
					"type": "uint32"
				}
			],
			"name": "liquidateOverdueLoan",
			"outputs": [],
			"stateMutability": "nonpayable",
			"type": "function"
		},
		{
			"inputs": [
				{
					"internalType": "uint32",
					"name": "",
					"type": "uint32"
				}
			],
			"name": "loanIdToLoan",
			"outputs": [
				{
					"internalType": "uint256",
					"name": "loanPrincipalAmount",
					"type": "uint256"
				},
				{
					"internalType": "uint256",
					"name": "maximumRepaymentAmount",
					"type": "uint256"
				},
				{
					"internalType": "uint256",
					"name": "nftCollateralId",
					"type": "uint256"
				},
				{
					"internalType": "address",
					"name": "loanERC20Denomination",
					"type": "address"
				},
				{
					"internalType": "uint32",
					"name": "loanDuration",
					"type": "uint32"
				},
				{
					"internalType": "uint16",
					"name": "loanInterestRateForDurationInBasisPoints",
					"type": "uint16"
				},
				{
					"internalType": "uint16",
					"name": "loanAdminFeeInBasisPoints",
					"type": "uint16"
				},
				{
					"internalType": "address",
					"name": "nftCollateralWrapper",
					"type": "address"
				},
				{
					"internalType": "uint64",
					"name": "loanStartTime",
					"type": "uint64"
				},
				{
					"internalType": "address",
					"name": "nftCollateralContract",
					"type": "address"
				},
				{
					"internalType": "address",
					"name": "borrower",
					"type": "address"
				}
			],
			"stateMutability": "view",
			"type": "function"
		},
		{
			"inputs": [
				{
					"internalType": "uint32",
					"name": "",
					"type": "uint32"
				}
			],
			"name": "loanIdToLoanExtras",
			"outputs": [
				{
					"internalType": "address",
					"name": "revenueSharePartner",
					"type": "address"
				},
				{
					"internalType": "uint16",
					"name": "revenueShareInBasisPoints",
					"type": "uint16"
				},
				{
					"internalType": "uint16",
					"name": "referralFeeInBasisPoints",
					"type": "uint16"
				}
			],
			"stateMutability": "view",
			"type": "function"
		},
		{
			"inputs": [
				{
					"internalType": "uint32",
					"name": "",
					"type": "uint32"
				}
			],
			"name": "loanRepaidOrLiquidated",
			"outputs": [
				{
					"internalType": "bool",
					"name": "",
					"type": "bool"
				}
			],
			"stateMutability": "view",
			"type": "function"
		},
		{
			"inputs": [],
			"name": "maximumLoanDuration",
			"outputs": [
				{
					"internalType": "uint256",
					"name": "",
					"type": "uint256"
				}
			],
			"stateMutability": "view",
			"type": "function"
		},
		{
			"inputs": [
				{
					"internalType": "uint32",
					"name": "_loanId",
					"type": "uint32"
				}
			],
			"name": "mintObligationReceipt",
			"outputs": [],
			"stateMutability": "nonpayable",
			"type": "function"
		},
		{
			"inputs": [
				{
					"internalType": "address",
					"name": "",
					"type": "address"
				},
				{
					"internalType": "address",
					"name": "",
					"type": "address"
				},
				{
					"internalType": "uint256[]",
					"name": "",
					"type": "uint256[]"
				},
				{
					"internalType": "uint256[]",
					"name": "",
					"type": "uint256[]"
				},
				{
					"internalType": "bytes",
					"name": "",
					"type": "bytes"
				}
			],
			"name": "onERC1155BatchReceived",
			"outputs": [
				{
					"internalType": "bytes4",
					"name": "",
					"type": "bytes4"
				}
			],
			"stateMutability": "nonpayable",
			"type": "function"
		},
		{
			"inputs": [
				{
					"internalType": "address",
					"name": "",
					"type": "address"
				},
				{
					"internalType": "address",
					"name": "",
					"type": "address"
				},
				{
					"internalType": "uint256",
					"name": "",
					"type": "uint256"
				},
				{
					"internalType": "uint256",
					"name": "",
					"type": "uint256"
				},
				{
					"internalType": "bytes",
					"name": "",
					"type": "bytes"
				}
			],
			"name": "onERC1155Received",
			"outputs": [
				{
					"internalType": "bytes4",
					"name": "",
					"type": "bytes4"
				}
			],
			"stateMutability": "nonpayable",
			"type": "function"
		},
		{
			"inputs": [
				{
					"internalType": "address",
					"name": "",
					"type": "address"
				},
				{
					"internalType": "address",
					"name": "",
					"type": "address"
				},
				{
					"internalType": "uint256",
					"name": "",
					"type": "uint256"
				},
				{
					"internalType": "bytes",
					"name": "",
					"type": "bytes"
				}
			],
			"name": "onERC721Received",
			"outputs": [
				{
					"internalType": "bytes4",
					"name": "",
					"type": "bytes4"
				}
			],
			"stateMutability": "nonpayable",
			"type": "function"
		},
		{
			"inputs": [],
			"name": "owner",
			"outputs": [
				{
					"internalType": "address",
					"name": "",
					"type": "address"
				}
			],
			"stateMutability": "view",
			"type": "function"
		},
		{
			"inputs": [],
			"name": "pause",
			"outputs": [],
			"stateMutability": "nonpayable",
			"type": "function"
		},
		{
			"inputs": [],
			"name": "paused",
			"outputs": [
				{
					"internalType": "bool",
					"name": "",
					"type": "bool"
				}
			],
			"stateMutability": "view",
			"type": "function"
		},
		{
			"inputs": [
				{
					"internalType": "uint32",
					"name": "_loanId",
					"type": "uint32"
				}
			],
			"name": "payBackLoan",
			"outputs": [],
			"stateMutability": "nonpayable",
			"type": "function"
		},
		{
			"inputs": [
				{
					"internalType": "uint32",
					"name": "_loanId",
					"type": "uint32"
				},
				{
					"internalType": "address",
					"name": "_target",
					"type": "address"
				},
				{
					"internalType": "bytes",
					"name": "_data",
					"type": "bytes"
				},
				{
					"internalType": "address",
					"name": "_nftAirdrop",
					"type": "address"
				},
				{
					"internalType": "uint256",
					"name": "_nftAirdropId",
					"type": "uint256"
				},
				{
					"internalType": "bool",
					"name": "_is1155",
					"type": "bool"
				},
				{
					"internalType": "uint256",
					"name": "_nftAirdropAmount",
					"type": "uint256"
				}
			],
			"name": "pullAirdrop",
			"outputs": [],
			"stateMutability": "nonpayable",
			"type": "function"
		},
		{
			"inputs": [
				{
					"internalType": "uint32",
					"name": "_loanId",
					"type": "uint32"
				},
				{
					"internalType": "uint32",
					"name": "_newLoanDuration",
					"type": "uint32"
				},
				{
					"internalType": "uint256",
					"name": "_newMaximumRepaymentAmount",
					"type": "uint256"
				},
				{
					"internalType": "uint256",
					"name": "_renegotiationFee",
					"type": "uint256"
				},
				{
					"internalType": "uint256",
					"name": "_lenderNonce",
					"type": "uint256"
				},
				{
					"internalType": "uint256",
					"name": "_expiry",
					"type": "uint256"
				},
				{
					"internalType": "bytes",
					"name": "_lenderSignature",
					"type": "bytes"
				}
			],
			"name": "renegotiateLoan",
			"outputs": [],
			"stateMutability": "nonpayable",
			"type": "function"
		},
		{
			"inputs": [
				{
					"internalType": "address",
					"name": "_erc20",
					"type": "address"
				},
				{
					"internalType": "bool",
					"name": "_permit",
					"type": "bool"
				}
			],
			"name": "setERC20Permit",
			"outputs": [],
			"stateMutability": "nonpayable",
			"type": "function"
		},
		{
			"inputs": [
				{
					"internalType": "address[]",
					"name": "_erc20s",
					"type": "address[]"
				},
				{
					"internalType": "bool[]",
					"name": "_permits",
					"type": "bool[]"
				}
			],
			"name": "setERC20Permits",
			"outputs": [],
			"stateMutability": "nonpayable",
			"type": "function"
		},
		{
			"inputs": [
				{
					"internalType": "bytes4",
					"name": "_interfaceId",
					"type": "bytes4"
				}
			],
			"name": "supportsInterface",
			"outputs": [
				{
					"internalType": "bool",
					"name": "",
					"type": "bool"
				}
			],
			"stateMutability": "view",
			"type": "function"
		},
		{
			"inputs": [
				{
					"internalType": "address",
					"name": "_newOwner",
					"type": "address"
				}
			],
			"name": "transferOwnership",
			"outputs": [],
			"stateMutability": "nonpayable",
			"type": "function"
		},
		{
			"inputs": [],
			"name": "unpause",
			"outputs": [],
			"stateMutability": "nonpayable",
			"type": "function"
		},
		{
			"inputs": [
				{
					"internalType": "uint16",
					"name": "_newAdminFeeInBasisPoints",
					"type": "uint16"
				}
			],
			"name": "updateAdminFee",
			"outputs": [],
			"stateMutability": "nonpayable",
			"type": "function"
		},
		{
			"inputs": [
				{
					"internalType": "uint256",
					"name": "_newMaximumLoanDuration",
					"type": "uint256"
				}
			],
			"name": "updateMaximumLoanDuration",
			"outputs": [],
			"stateMutability": "nonpayable",
			"type": "function"
		},
		{
			"inputs": [
				{
					"internalType": "uint32",
					"name": "_loanId",
					"type": "uint32"
				}
			],
			"name": "wrapCollateral",
			"outputs": [],
			"stateMutability": "nonpayable",
			"type": "function"
		}
	]
}