{
	"data": {
		"bytecode": {
			"linkReferences": {
				"contracts/utils/ContractKeys.sol": {
					"ContractKeys": [
						{
							"length": 20,
							"start": 449
						},
						{
							"length": 20,
							"start": 2074
						}
					]
				}
			},
			"object": "60806040523480156200001157600080fd5b5060405162000dec38038062000dec833981016040819052620000349162000337565b82620000408162000067565b506000805460ff60a01b19169055600180556200005e8282620000b7565b5050506200059a565b600080546001600160a01b038381166001600160a01b0319831681178455604051919092169283917f8be0079c531659141344cd1fd0a4f28419497f9722a3daafe3b4186f6b6457e09190a35050565b8051825114620001265760405162461bcd60e51b815260206004820152603060248201527f736574436f6e7472616374732066756e6374696f6e20696e666f726d6174696f60448201526f0dc40c2e4d2e8f240dad2e6dac2e8c6d60831b606482015260840160405180910390fd5b60005b8251811015620001aa57620001958382815181106200015857634e487b7160e01b600052603260045260246000fd5b60200260200101518383815181106200018157634e487b7160e01b600052603260045260246000fd5b6020026020010151620001af60201b60201c565b80620001a1816200055c565b91505062000129565b505050565b60405163f99a8ffb60e01b815260009073__$d7e2e0a2db402280e6c36233d590dce656$__9063f99a8ffb90620001eb9086906004016200049b565b60206040518083038186803b1580156200020457600080fd5b505af415801562000219573d6000803e3d6000fd5b505050506040513d601f19601f820116820180604052508101906200023f919062000482565b60008181526002602052604080822080546001600160a01b0319166001600160a01b03871690811790915590519293509183917fd45de243cd15102b320d0d75eb12a34864595b07f8853b6b7d487946b292463091a3505050565b80516001600160a01b0381168114620002b257600080fd5b919050565b600082601f830112620002c8578081fd5b81516020620002e1620002db8362000503565b620004d0565b80838252828201915082860187848660051b890101111562000301578586fd5b855b858110156200032a5762000317826200029a565b8452928401929084019060010162000303565b5090979650505050505050565b6000806000606084860312156200034c578283fd5b62000357846200029a565b602085810151919450906001600160401b038082111562000376578485fd5b818701915087601f8301126200038a578485fd5b81516200039b620002db8262000503565b8082825285820191508585018b878560051b8801011115620003bb578889fd5b885b848110156200044d57815186811115620003d5578a8bfd5b8701603f81018e13620003e6578a8bfd5b8881015187811115620003fd57620003fd62000584565b62000411601f8201601f19168b01620004d0565b8181528f604083850101111562000426578c8dfd5b62000438828c83016040860162000529565b865250509287019290870190600101620003bd565b505060408a0151909750945050508083111562000468578384fd5b50506200047886828701620002b7565b9150509250925092565b60006020828403121562000494578081fd5b5051919050565b6020815260008251806020840152620004bc81604085016020870162000529565b601f01601f19169190910160400192915050565b604051601f8201601f191681016001600160401b0381118282101715620004fb57620004fb62000584565b604052919050565b60006001600160401b038211156200051f576200051f62000584565b5060051b60200190565b60005b83811015620005465781810151838201526020016200052c565b8381111562000556576000848401525b50505050565b60006000198214156200057d57634e487b7160e01b81526011600452602481fd5b5060010190565b634e487b7160e01b600052604160045260246000fd5b61084280620005aa6000396000f3fe608060405234801561001057600080fd5b50600436106100625760003560e01c80633f0ed0df146100675780635c975abb1461007c5780637ca9e0c41461009e5780638da5cb5b146100b1578063e16c7d98146100d6578063f2fde38b146100ff575b600080fd5b61007a610075366004610676565b610112565b005b600054600160a01b900460ff1660405190151581526020015b60405180910390f35b61007a6100ac366004610526565b61018b565b6000546001600160a01b03165b6040516001600160a01b039091168152602001610095565b6100be6100e4366004610646565b6000908152600260205260409020546001600160a01b031690565b61007a61010d366004610505565b6101c3565b6000546001600160a01b031633146101455760405162461bcd60e51b815260040161013c90610745565b60405180910390fd5b61018683838080601f01602080910402602001604051908101604052809392919081815260200183838082843760009201919091525085925061025e915050565b505050565b6000546001600160a01b031633146101b55760405162461bcd60e51b815260040161013c90610745565b6101bf8282610343565b5050565b6000546001600160a01b031633146101ed5760405162461bcd60e51b815260040161013c90610745565b6001600160a01b0381166102525760405162461bcd60e51b815260206004820152602660248201527f4f776e61626c653a206e6577206f776e657220697320746865207a65726f206160448201526564647265737360d01b606482015260840161013c565b61025b81610423565b50565b60405163f99a8ffb60e01b815260009073__$d7e2e0a2db402280e6c36233d590dce656$__9063f99a8ffb906102989086906004016106f2565b60206040518083038186803b1580156102b057600080fd5b505af41580156102c4573d6000803e3d6000fd5b505050506040513d601f19601f820116820180604052508101906102e8919061065e565b60008181526002602052604080822080546001600160a01b0319166001600160a01b03871690811790915590519293509183917fd45de243cd15102b320d0d75eb12a34864595b07f8853b6b7d487946b292463091a3505050565b80518251146103ad5760405162461bcd60e51b815260206004820152603060248201527f736574436f6e7472616374732066756e6374696f6e20696e666f726d6174696f60448201526f0dc40c2e4d2e8f240dad2e6dac2e8c6d60831b606482015260840161013c565b60005b8251811015610186576104118382815181106103dc57634e487b7160e01b600052603260045260246000fd5b602002602001015183838151811061040457634e487b7160e01b600052603260045260246000fd5b602002602001015161025e565b8061041b816107cf565b9150506103b0565b600080546001600160a01b038381166001600160a01b0319831681178455604051919092169283917f8be0079c531659141344cd1fd0a4f28419497f9722a3daafe3b4186f6b6457e09190a35050565b80356001600160a01b038116811461048a57600080fd5b919050565b600082601f83011261049f578081fd5b813560206104b46104af836107ab565b61077a565b80838252828201915082860187848660051b89010111156104d3578586fd5b855b858110156104f8576104e682610473565b845292840192908401906001016104d5565b5090979650505050505050565b600060208284031215610516578081fd5b61051f82610473565b9392505050565b6000806040808486031215610539578182fd5b833567ffffffffffffffff80821115610550578384fd5b818601915086601f830112610563578384fd5b813560206105736104af836107ab565b8083825282820191508286018b848660051b8901011115610592578889fd5b885b85811015610616578135878111156105aa578a8bfd5b8801603f81018e136105ba578a8bfd5b85810135888111156105ce576105ce6107f6565b6105e0601f8201601f1916880161077a565b8181528f8c8385010111156105f3578c8dfd5b818c84018983013790810187018c90528552509284019290840190600101610594565b5090985050508701359350508083111561062e578384fd5b505061063c8582860161048f565b9150509250929050565b600060208284031215610657578081fd5b5035919050565b60006020828403121561066f578081fd5b5051919050565b60008060006040848603121561068a578081fd5b833567ffffffffffffffff808211156106a1578283fd5b818601915086601f8301126106b4578283fd5b8135818111156106c2578384fd5b8760208285010111156106d3578384fd5b6020928301955093506106e99186019050610473565b90509250925092565b6000602080835283518082850152825b8181101561071e57858101830151858201604001528201610702565b8181111561072f5783604083870101525b50601f01601f1916929092016040019392505050565b6020808252818101527f4f776e61626c653a2063616c6c6572206973206e6f7420746865206f776e6572604082015260600190565b604051601f8201601f1916810167ffffffffffffffff811182821017156107a3576107a36107f6565b604052919050565b600067ffffffffffffffff8211156107c5576107c56107f6565b5060051b60200190565b60006000198214156107ef57634e487b7160e01b81526011600452602481fd5b5060010190565b634e487b7160e01b600052604160045260246000fdfea2646970667358221220d35ae85936aac6a0c40e7e3585cd284bb069c267852465488d948fbf13b14c6664736f6c63430008040033",
			"opcodes": "PUSH1 0x80 PUSH1 0x40 MSTORE CALLVALUE DUP1 ISZERO PUSH3 0x11 JUMPI PUSH1 0x0 DUP1 REVERT JUMPDEST POP PUSH1 0x40 MLOAD PUSH3 0xDEC CODESIZE SUB DUP1 PUSH3 0xDEC DUP4 CODECOPY DUP2 ADD PUSH1 0x40 DUP2 SWAP1 MSTORE PUSH3 0x34 SWAP2 PUSH3 0x337 JUMP JUMPDEST DUP3 PUSH3 0x40 DUP2 PUSH3 0x67 JUMP JUMPDEST POP PUSH1 0x0 DUP1 SLOAD PUSH1 0xFF PUSH1 0xA0 SHL NOT AND SWAP1 SSTORE PUSH1 0x1 DUP1 SSTORE PUSH3 0x5E DUP3 DUP3 PUSH3 0xB7 JUMP JUMPDEST POP POP POP PUSH3 0x59A JUMP JUMPDEST PUSH1 0x0 DUP1 SLOAD PUSH1 0x1 PUSH1 0x1 PUSH1 0xA0 SHL SUB DUP4 DUP2 AND PUSH1 0x1 PUSH1 0x1 PUSH1 0xA0 SHL SUB NOT DUP4 AND DUP2 OR DUP5 SSTORE PUSH1 0x40 MLOAD SWAP2 SWAP1 SWAP3 AND SWAP3 DUP4 SWAP2 PUSH32 0x8BE0079C531659141344CD1FD0A4F28419497F9722A3DAAFE3B4186F6B6457E0 SWAP2 SWAP1 LOG3 POP POP JUMP JUMPDEST DUP1 MLOAD DUP3 MLOAD EQ PUSH3 0x126 JUMPI PUSH1 0x40 MLOAD PUSH3 0x461BCD PUSH1 0xE5 SHL DUP2 MSTORE PUSH1 0x20 PUSH1 0x4 DUP3 ADD MSTORE PUSH1 0x30 PUSH1 0x24 DUP3 ADD MSTORE PUSH32 0x736574436F6E7472616374732066756E6374696F6E20696E666F726D6174696F PUSH1 0x44 DUP3 ADD MSTORE PUSH16 0xDC40C2E4D2E8F240DAD2E6DAC2E8C6D PUSH1 0x83 SHL PUSH1 0x64 DUP3 ADD MSTORE PUSH1 0x84 ADD PUSH1 0x40 MLOAD DUP1 SWAP2 SUB SWAP1 REVERT JUMPDEST PUSH1 0x0 JUMPDEST DUP3 MLOAD DUP2 LT ISZERO PUSH3 0x1AA JUMPI PUSH3 0x195 DUP4 DUP3 DUP2 MLOAD DUP2 LT PUSH3 0x158 JUMPI PUSH4 0x4E487B71 PUSH1 0xE0 SHL PUSH1 0x0 MSTORE PUSH1 0x32 PUSH1 0x4 MSTORE PUSH1 0x24 PUSH1 0x0 REVERT JUMPDEST PUSH1 0x20 MUL PUSH1 0x20 ADD ADD MLOAD DUP4 DUP4 DUP2 MLOAD DUP2 LT PUSH3 0x181 JUMPI PUSH4 0x4E487B71 PUSH1 0xE0 SHL PUSH1 0x0 MSTORE PUSH1 0x32 PUSH1 0x4 MSTORE PUSH1 0x24 PUSH1 0x0 REVERT JUMPDEST PUSH1 0x20 MUL PUSH1 0x20 ADD ADD MLOAD PUSH3 0x1AF PUSH1 0x20 SHL PUSH1 0x20 SHR JUMP JUMPDEST DUP1 PUSH3 0x1A1 DUP2 PUSH3 0x55C JUMP JUMPDEST SWAP2 POP POP PUSH3 0x129 JUMP JUMPDEST POP POP POP JUMP JUMPDEST PUSH1 0x40 MLOAD PUSH4 0xF99A8FFB PUSH1 0xE0 SHL DUP2 MSTORE PUSH1 0x0 SWAP1 PUSH20 0x0 SWAP1 PUSH4 0xF99A8FFB SWAP1 PUSH3 0x1EB SWAP1 DUP7 SWAP1 PUSH1 0x4 ADD PUSH3 0x49B JUMP JUMPDEST PUSH1 0x20 PUSH1 0x40 MLOAD DUP1 DUP4 SUB DUP2 DUP7 DUP1 EXTCODESIZE ISZERO DUP1 ISZERO PUSH3 0x204 JUMPI PUSH1 0x0 DUP1 REVERT JUMPDEST POP GAS DELEGATECALL ISZERO DUP1 ISZERO PUSH3 0x219 JUMPI RETURNDATASIZE PUSH1 0x0 DUP1 RETURNDATACOPY RETURNDATASIZE PUSH1 0x0 REVERT JUMPDEST POP POP POP POP PUSH1 0x40 MLOAD RETURNDATASIZE PUSH1 0x1F NOT PUSH1 0x1F DUP3 ADD AND DUP3 ADD DUP1 PUSH1 0x40 MSTORE POP DUP2 ADD SWAP1 PUSH3 0x23F SWAP2 SWAP1 PUSH3 0x482 JUMP JUMPDEST PUSH1 0x0 DUP2 DUP2 MSTORE PUSH1 0x2 PUSH1 0x20 MSTORE PUSH1 0x40 DUP1 DUP3 KECCAK256 DUP1 SLOAD PUSH1 0x1 PUSH1 0x1 PUSH1 0xA0 SHL SUB NOT AND PUSH1 0x1 PUSH1 0x1 PUSH1 0xA0 SHL SUB DUP8 AND SWAP1 DUP2 OR SWAP1 SWAP2 SSTORE SWAP1 MLOAD SWAP3 SWAP4 POP SWAP2 DUP4 SWAP2 PUSH32 0xD45DE243CD15102B320D0D75EB12A34864595B07F8853B6B7D487946B2924630 SWAP2 LOG3 POP POP POP JUMP JUMPDEST DUP1 MLOAD PUSH1 0x1 PUSH1 0x1 PUSH1 0xA0 SHL SUB DUP2 AND DUP2 EQ PUSH3 0x2B2 JUMPI PUSH1 0x0 DUP1 REVERT JUMPDEST SWAP2 SWAP1 POP JUMP JUMPDEST PUSH1 0x0 DUP3 PUSH1 0x1F DUP4 ADD SLT PUSH3 0x2C8 JUMPI DUP1 DUP2 REVERT JUMPDEST DUP2 MLOAD PUSH1 0x20 PUSH3 0x2E1 PUSH3 0x2DB DUP4 PUSH3 0x503 JUMP JUMPDEST PUSH3 0x4D0 JUMP JUMPDEST DUP1 DUP4 DUP3 MSTORE DUP3 DUP3 ADD SWAP2 POP DUP3 DUP7 ADD DUP8 DUP5 DUP7 PUSH1 0x5 SHL DUP10 ADD ADD GT ISZERO PUSH3 0x301 JUMPI DUP6 DUP7 REVERT JUMPDEST DUP6 JUMPDEST DUP6 DUP2 LT ISZERO PUSH3 0x32A JUMPI PUSH3 0x317 DUP3 PUSH3 0x29A JUMP JUMPDEST DUP5 MSTORE SWAP3 DUP5 ADD SWAP3 SWAP1 DUP5 ADD SWAP1 PUSH1 0x1 ADD PUSH3 0x303 JUMP JUMPDEST POP SWAP1 SWAP8 SWAP7 POP POP POP POP POP POP POP JUMP JUMPDEST PUSH1 0x0 DUP1 PUSH1 0x0 PUSH1 0x60 DUP5 DUP7 SUB SLT ISZERO PUSH3 0x34C JUMPI DUP3 DUP4 REVERT JUMPDEST PUSH3 0x357 DUP5 PUSH3 0x29A JUMP JUMPDEST PUSH1 0x20 DUP6 DUP2 ADD MLOAD SWAP2 SWAP5 POP SWAP1 PUSH1 0x1 PUSH1 0x1 PUSH1 0x40 SHL SUB DUP1 DUP3 GT ISZERO PUSH3 0x376 JUMPI DUP5 DUP6 REVERT JUMPDEST DUP2 DUP8 ADD SWAP2 POP DUP8 PUSH1 0x1F DUP4 ADD SLT PUSH3 0x38A JUMPI DUP5 DUP6 REVERT JUMPDEST DUP2 MLOAD PUSH3 0x39B PUSH3 0x2DB DUP3 PUSH3 0x503 JUMP JUMPDEST DUP1 DUP3 DUP3 MSTORE DUP6 DUP3 ADD SWAP2 POP DUP6 DUP6 ADD DUP12 DUP8 DUP6 PUSH1 0x5 SHL DUP9 ADD ADD GT ISZERO PUSH3 0x3BB JUMPI DUP9 DUP10 REVERT JUMPDEST DUP9 JUMPDEST DUP5 DUP2 LT ISZERO PUSH3 0x44D JUMPI DUP2 MLOAD DUP7 DUP2 GT ISZERO PUSH3 0x3D5 JUMPI DUP11 DUP12 REVERT JUMPDEST DUP8 ADD PUSH1 0x3F DUP2 ADD DUP15 SGT PUSH3 0x3E6 JUMPI DUP11 DUP12 REVERT JUMPDEST DUP9 DUP2 ADD MLOAD DUP8 DUP2 GT ISZERO PUSH3 0x3FD JUMPI PUSH3 0x3FD PUSH3 0x584 JUMP JUMPDEST PUSH3 0x411 PUSH1 0x1F DUP3 ADD PUSH1 0x1F NOT AND DUP12 ADD PUSH3 0x4D0 JUMP JUMPDEST DUP2 DUP2 MSTORE DUP16 PUSH1 0x40 DUP4 DUP6 ADD ADD GT ISZERO PUSH3 0x426 JUMPI DUP13 DUP14 REVERT JUMPDEST PUSH3 0x438 DUP3 DUP13 DUP4 ADD PUSH1 0x40 DUP7 ADD PUSH3 0x529 JUMP JUMPDEST DUP7 MSTORE POP POP SWAP3 DUP8 ADD SWAP3 SWAP1 DUP8 ADD SWAP1 PUSH1 0x1 ADD PUSH3 0x3BD JUMP JUMPDEST POP POP PUSH1 0x40 DUP11 ADD MLOAD SWAP1 SWAP8 POP SWAP5 POP POP POP DUP1 DUP4 GT ISZERO PUSH3 0x468 JUMPI DUP4 DUP5 REVERT JUMPDEST POP POP PUSH3 0x478 DUP7 DUP3 DUP8 ADD PUSH3 0x2B7 JUMP JUMPDEST SWAP2 POP POP SWAP3 POP SWAP3 POP SWAP3 JUMP JUMPDEST PUSH1 0x0 PUSH1 0x20 DUP3 DUP5 SUB SLT ISZERO PUSH3 0x494 JUMPI DUP1 DUP2 REVERT JUMPDEST POP MLOAD SWAP2 SWAP1 POP JUMP JUMPDEST PUSH1 0x20 DUP2 MSTORE PUSH1 0x0 DUP3 MLOAD DUP1 PUSH1 0x20 DUP5 ADD MSTORE PUSH3 0x4BC DUP2 PUSH1 0x40 DUP6 ADD PUSH1 0x20 DUP8 ADD PUSH3 0x529 JUMP JUMPDEST PUSH1 0x1F ADD PUSH1 0x1F NOT AND SWAP2 SWAP1 SWAP2 ADD PUSH1 0x40 ADD SWAP3 SWAP2 POP POP JUMP JUMPDEST PUSH1 0x40 MLOAD PUSH1 0x1F DUP3 ADD PUSH1 0x1F NOT AND DUP2 ADD PUSH1 0x1 PUSH1 0x1 PUSH1 0x40 SHL SUB DUP2 GT DUP3 DUP3 LT OR ISZERO PUSH3 0x4FB JUMPI PUSH3 0x4FB PUSH3 0x584 JUMP JUMPDEST PUSH1 0x40 MSTORE SWAP2 SWAP1 POP JUMP JUMPDEST PUSH1 0x0 PUSH1 0x1 PUSH1 0x1 PUSH1 0x40 SHL SUB DUP3 GT ISZERO PUSH3 0x51F JUMPI PUSH3 0x51F PUSH3 0x584 JUMP JUMPDEST POP PUSH1 0x5 SHL PUSH1 0x20 ADD SWAP1 JUMP JUMPDEST PUSH1 0x0 JUMPDEST DUP4 DUP2 LT ISZERO PUSH3 0x546 JUMPI DUP2 DUP2 ADD MLOAD DUP4 DUP3 ADD MSTORE PUSH1 0x20 ADD PUSH3 0x52C JUMP JUMPDEST DUP4 DUP2 GT ISZERO PUSH3 0x556 JUMPI PUSH1 0x0 DUP5 DUP5 ADD MSTORE JUMPDEST POP POP POP POP JUMP JUMPDEST PUSH1 0x0 PUSH1 0x0 NOT DUP3 EQ ISZERO PUSH3 0x57D JUMPI PUSH4 0x4E487B71 PUSH1 0xE0 SHL DUP2 MSTORE PUSH1 0x11 PUSH1 0x4 MSTORE PUSH1 0x24 DUP2 REVERT JUMPDEST POP PUSH1 0x1 ADD SWAP1 JUMP JUMPDEST PUSH4 0x4E487B71 PUSH1 0xE0 SHL PUSH1 0x0 MSTORE PUSH1 0x41 PUSH1 0x4 MSTORE PUSH1 0x24 PUSH1 0x0 REVERT JUMPDEST PUSH2 0x842 DUP1 PUSH3 0x5AA PUSH1 0x0 CODECOPY PUSH1 0x0 RETURN INVALID PUSH1 0x80 PUSH1 0x40 MSTORE CALLVALUE DUP1 ISZERO PUSH2 0x10 JUMPI PUSH1 0x0 DUP1 REVERT JUMPDEST POP PUSH1 0x4 CALLDATASIZE LT PUSH2 0x62 JUMPI PUSH1 0x0 CALLDATALOAD PUSH1 0xE0 SHR DUP1 PUSH4 0x3F0ED0DF EQ PUSH2 0x67 JUMPI DUP1 PUSH4 0x5C975ABB EQ PUSH2 0x7C JUMPI DUP1 PUSH4 0x7CA9E0C4 EQ PUSH2 0x9E JUMPI DUP1 PUSH4 0x8DA5CB5B EQ PUSH2 0xB1 JUMPI DUP1 PUSH4 0xE16C7D98 EQ PUSH2 0xD6 JUMPI DUP1 PUSH4 0xF2FDE38B EQ PUSH2 0xFF JUMPI JUMPDEST PUSH1 0x0 DUP1 REVERT JUMPDEST PUSH2 0x7A PUSH2 0x75 CALLDATASIZE PUSH1 0x4 PUSH2 0x676 JUMP JUMPDEST PUSH2 0x112 JUMP JUMPDEST STOP JUMPDEST PUSH1 0x0 SLOAD PUSH1 0x1 PUSH1 0xA0 SHL SWAP1 DIV PUSH1 0xFF AND PUSH1 0x40 MLOAD SWAP1 ISZERO ISZERO DUP2 MSTORE PUSH1 0x20 ADD JUMPDEST PUSH1 0x40 MLOAD DUP1 SWAP2 SUB SWAP1 RETURN JUMPDEST PUSH2 0x7A PUSH2 0xAC CALLDATASIZE PUSH1 0x4 PUSH2 0x526 JUMP JUMPDEST PUSH2 0x18B JUMP JUMPDEST PUSH1 0x0 SLOAD PUSH1 0x1 PUSH1 0x1 PUSH1 0xA0 SHL SUB AND JUMPDEST PUSH1 0x40 MLOAD PUSH1 0x1 PUSH1 0x1 PUSH1 0xA0 SHL SUB SWAP1 SWAP2 AND DUP2 MSTORE PUSH1 0x20 ADD PUSH2 0x95 JUMP JUMPDEST PUSH2 0xBE PUSH2 0xE4 CALLDATASIZE PUSH1 0x4 PUSH2 0x646 JUMP JUMPDEST PUSH1 0x0 SWAP1 DUP2 MSTORE PUSH1 0x2 PUSH1 0x20 MSTORE PUSH1 0x40 SWAP1 KECCAK256 SLOAD PUSH1 0x1 PUSH1 0x1 PUSH1 0xA0 SHL SUB AND SWAP1 JUMP JUMPDEST PUSH2 0x7A PUSH2 0x10D CALLDATASIZE PUSH1 0x4 PUSH2 0x505 JUMP JUMPDEST PUSH2 0x1C3 JUMP JUMPDEST PUSH1 0x0 SLOAD PUSH1 0x1 PUSH1 0x1 PUSH1 0xA0 SHL SUB AND CALLER EQ PUSH2 0x145 JUMPI PUSH1 0x40 MLOAD PUSH3 0x461BCD PUSH1 0xE5 SHL DUP2 MSTORE PUSH1 0x4 ADD PUSH2 0x13C SWAP1 PUSH2 0x745 JUMP JUMPDEST PUSH1 0x40 MLOAD DUP1 SWAP2 SUB SWAP1 REVERT JUMPDEST PUSH2 0x186 DUP4 DUP4 DUP1 DUP1 PUSH1 0x1F ADD PUSH1 0x20 DUP1 SWAP2 DIV MUL PUSH1 0x20 ADD PUSH1 0x40 MLOAD SWAP1 DUP2 ADD PUSH1 0x40 MSTORE DUP1 SWAP4 SWAP3 SWAP2 SWAP1 DUP2 DUP2 MSTORE PUSH1 0x20 ADD DUP4 DUP4 DUP1 DUP3 DUP5 CALLDATACOPY PUSH1 0x0 SWAP3 ADD SWAP2 SWAP1 SWAP2 MSTORE POP DUP6 SWAP3 POP PUSH2 0x25E SWAP2 POP POP JUMP JUMPDEST POP POP POP JUMP JUMPDEST PUSH1 0x0 SLOAD PUSH1 0x1 PUSH1 0x1 PUSH1 0xA0 SHL SUB AND CALLER EQ PUSH2 0x1B5 JUMPI PUSH1 0x40 MLOAD PUSH3 0x461BCD PUSH1 0xE5 SHL DUP2 MSTORE PUSH1 0x4 ADD PUSH2 0x13C SWAP1 PUSH2 0x745 JUMP JUMPDEST PUSH2 0x1BF DUP3 DUP3 PUSH2 0x343 JUMP JUMPDEST POP POP JUMP JUMPDEST PUSH1 0x0 SLOAD PUSH1 0x1 PUSH1 0x1 PUSH1 0xA0 SHL SUB AND CALLER EQ PUSH2 0x1ED JUMPI PUSH1 0x40 MLOAD PUSH3 0x461BCD PUSH1 0xE5 SHL DUP2 MSTORE PUSH1 0x4 ADD PUSH2 0x13C SWAP1 PUSH2 0x745 JUMP JUMPDEST PUSH1 0x1 PUSH1 0x1 PUSH1 0xA0 SHL SUB DUP2 AND PUSH2 0x252 JUMPI PUSH1 0x40 MLOAD PUSH3 0x461BCD PUSH1 0xE5 SHL DUP2 MSTORE PUSH1 0x20 PUSH1 0x4 DUP3 ADD MSTORE PUSH1 0x26 PUSH1 0x24 DUP3 ADD MSTORE PUSH32 0x4F776E61626C653A206E6577206F776E657220697320746865207A65726F2061 PUSH1 0x44 DUP3 ADD MSTORE PUSH6 0x646472657373 PUSH1 0xD0 SHL PUSH1 0x64 DUP3 ADD MSTORE PUSH1 0x84 ADD PUSH2 0x13C JUMP JUMPDEST PUSH2 0x25B DUP2 PUSH2 0x423 JUMP JUMPDEST POP JUMP JUMPDEST PUSH1 0x40 MLOAD PUSH4 0xF99A8FFB PUSH1 0xE0 SHL DUP2 MSTORE PUSH1 0x0 SWAP1 PUSH20 0x0 SWAP1 PUSH4 0xF99A8FFB SWAP1 PUSH2 0x298 SWAP1 DUP7 SWAP1 PUSH1 0x4 ADD PUSH2 0x6F2 JUMP JUMPDEST PUSH1 0x20 PUSH1 0x40 MLOAD DUP1 DUP4 SUB DUP2 DUP7 DUP1 EXTCODESIZE ISZERO DUP1 ISZERO PUSH2 0x2B0 JUMPI PUSH1 0x0 DUP1 REVERT JUMPDEST POP GAS DELEGATECALL ISZERO DUP1 ISZERO PUSH2 0x2C4 JUMPI RETURNDATASIZE PUSH1 0x0 DUP1 RETURNDATACOPY RETURNDATASIZE PUSH1 0x0 REVERT JUMPDEST POP POP POP POP PUSH1 0x40 MLOAD RETURNDATASIZE PUSH1 0x1F NOT PUSH1 0x1F DUP3 ADD AND DUP3 ADD DUP1 PUSH1 0x40 MSTORE POP DUP2 ADD SWAP1 PUSH2 0x2E8 SWAP2 SWAP1 PUSH2 0x65E JUMP JUMPDEST PUSH1 0x0 DUP2 DUP2 MSTORE PUSH1 0x2 PUSH1 0x20 MSTORE PUSH1 0x40 DUP1 DUP3 KECCAK256 DUP1 SLOAD PUSH1 0x1 PUSH1 0x1 PUSH1 0xA0 SHL SUB NOT AND PUSH1 0x1 PUSH1 0x1 PUSH1 0xA0 SHL SUB DUP8 AND SWAP1 DUP2 OR SWAP1 SWAP2 SSTORE SWAP1 MLOAD SWAP3 SWAP4 POP SWAP2 DUP4 SWAP2 PUSH32 0xD45DE243CD15102B320D0D75EB12A34864595B07F8853B6B7D487946B2924630 SWAP2 LOG3 POP POP POP JUMP JUMPDEST DUP1 MLOAD DUP3 MLOAD EQ PUSH2 0x3AD JUMPI PUSH1 0x40 MLOAD PUSH3 0x461BCD PUSH1 0xE5 SHL DUP2 MSTORE PUSH1 0x20 PUSH1 0x4 DUP3 ADD MSTORE PUSH1 0x30 PUSH1 0x24 DUP3 ADD MSTORE PUSH32 0x736574436F6E7472616374732066756E6374696F6E20696E666F726D6174696F PUSH1 0x44 DUP3 ADD MSTORE PUSH16 0xDC40C2E4D2E8F240DAD2E6DAC2E8C6D PUSH1 0x83 SHL PUSH1 0x64 DUP3 ADD MSTORE PUSH1 0x84 ADD PUSH2 0x13C JUMP JUMPDEST PUSH1 0x0 JUMPDEST DUP3 MLOAD DUP2 LT ISZERO PUSH2 0x186 JUMPI PUSH2 0x411 DUP4 DUP3 DUP2 MLOAD DUP2 LT PUSH2 0x3DC JUMPI PUSH4 0x4E487B71 PUSH1 0xE0 SHL PUSH1 0x0 MSTORE PUSH1 0x32 PUSH1 0x4 MSTORE PUSH1 0x24 PUSH1 0x0 REVERT JUMPDEST PUSH1 0x20 MUL PUSH1 0x20 ADD ADD MLOAD DUP4 DUP4 DUP2 MLOAD DUP2 LT PUSH2 0x404 JUMPI PUSH4 0x4E487B71 PUSH1 0xE0 SHL PUSH1 0x0 MSTORE PUSH1 0x32 PUSH1 0x4 MSTORE PUSH1 0x24 PUSH1 0x0 REVERT JUMPDEST PUSH1 0x20 MUL PUSH1 0x20 ADD ADD MLOAD PUSH2 0x25E JUMP JUMPDEST DUP1 PUSH2 0x41B DUP2 PUSH2 0x7CF JUMP JUMPDEST SWAP2 POP POP PUSH2 0x3B0 JUMP JUMPDEST PUSH1 0x0 DUP1 SLOAD PUSH1 0x1 PUSH1 0x1 PUSH1 0xA0 SHL SUB DUP4 DUP2 AND PUSH1 0x1 PUSH1 0x1 PUSH1 0xA0 SHL SUB NOT DUP4 AND DUP2 OR DUP5 SSTORE PUSH1 0x40 MLOAD SWAP2 SWAP1 SWAP3 AND SWAP3 DUP4 SWAP2 PUSH32 0x8BE0079C531659141344CD1FD0A4F28419497F9722A3DAAFE3B4186F6B6457E0 SWAP2 SWAP1 LOG3 POP POP JUMP JUMPDEST DUP1 CALLDATALOAD PUSH1 0x1 PUSH1 0x1 PUSH1 0xA0 SHL SUB DUP2 AND DUP2 EQ PUSH2 0x48A JUMPI PUSH1 0x0 DUP1 REVERT JUMPDEST SWAP2 SWAP1 POP JUMP JUMPDEST PUSH1 0x0 DUP3 PUSH1 0x1F DUP4 ADD SLT PUSH2 0x49F JUMPI DUP1 DUP2 REVERT JUMPDEST DUP2 CALLDATALOAD PUSH1 0x20 PUSH2 0x4B4 PUSH2 0x4AF DUP4 PUSH2 0x7AB JUMP JUMPDEST PUSH2 0x77A JUMP JUMPDEST DUP1 DUP4 DUP3 MSTORE DUP3 DUP3 ADD SWAP2 POP DUP3 DUP7 ADD DUP8 DUP5 DUP7 PUSH1 0x5 SHL DUP10 ADD ADD GT ISZERO PUSH2 0x4D3 JUMPI DUP6 DUP7 REVERT JUMPDEST DUP6 JUMPDEST DUP6 DUP2 LT ISZERO PUSH2 0x4F8 JUMPI PUSH2 0x4E6 DUP3 PUSH2 0x473 JUMP JUMPDEST DUP5 MSTORE SWAP3 DUP5 ADD SWAP3 SWAP1 DUP5 ADD SWAP1 PUSH1 0x1 ADD PUSH2 0x4D5 JUMP JUMPDEST POP SWAP1 SWAP8 SWAP7 POP POP POP POP POP POP POP JUMP JUMPDEST PUSH1 0x0 PUSH1 0x20 DUP3 DUP5 SUB SLT ISZERO PUSH2 0x516 JUMPI DUP1 DUP2 REVERT JUMPDEST PUSH2 0x51F DUP3 PUSH2 0x473 JUMP JUMPDEST SWAP4 SWAP3 POP POP POP JUMP JUMPDEST PUSH1 0x0 DUP1 PUSH1 0x40 DUP1 DUP5 DUP7 SUB SLT ISZERO PUSH2 0x539 JUMPI DUP2 DUP3 REVERT JUMPDEST DUP4 CALLDATALOAD PUSH8 0xFFFFFFFFFFFFFFFF DUP1 DUP3 GT ISZERO PUSH2 0x550 JUMPI DUP4 DUP5 REVERT JUMPDEST DUP2 DUP7 ADD SWAP2 POP DUP7 PUSH1 0x1F DUP4 ADD SLT PUSH2 0x563 JUMPI DUP4 DUP5 REVERT JUMPDEST DUP2 CALLDATALOAD PUSH1 0x20 PUSH2 0x573 PUSH2 0x4AF DUP4 PUSH2 0x7AB JUMP JUMPDEST DUP1 DUP4 DUP3 MSTORE DUP3 DUP3 ADD SWAP2 POP DUP3 DUP7 ADD DUP12 DUP5 DUP7 PUSH1 0x5 SHL DUP10 ADD ADD GT ISZERO PUSH2 0x592 JUMPI DUP9 DUP10 REVERT JUMPDEST DUP9 JUMPDEST DUP6 DUP2 LT ISZERO PUSH2 0x616 JUMPI DUP2 CALLDATALOAD DUP8 DUP2 GT ISZERO PUSH2 0x5AA JUMPI DUP11 DUP12 REVERT JUMPDEST DUP9 ADD PUSH1 0x3F DUP2 ADD DUP15 SGT PUSH2 0x5BA JUMPI DUP11 DUP12 REVERT JUMPDEST DUP6 DUP2 ADD CALLDATALOAD DUP9 DUP2 GT ISZERO PUSH2 0x5CE JUMPI PUSH2 0x5CE PUSH2 0x7F6 JUMP JUMPDEST PUSH2 0x5E0 PUSH1 0x1F DUP3 ADD PUSH1 0x1F NOT AND DUP9 ADD PUSH2 0x77A JUMP JUMPDEST DUP2 DUP2 MSTORE DUP16 DUP13 DUP4 DUP6 ADD ADD GT ISZERO PUSH2 0x5F3 JUMPI DUP13 DUP14 REVERT JUMPDEST DUP2 DUP13 DUP5 ADD DUP10 DUP4 ADD CALLDATACOPY SWAP1 DUP2 ADD DUP8 ADD DUP13 SWAP1 MSTORE DUP6 MSTORE POP SWAP3 DUP5 ADD SWAP3 SWAP1 DUP5 ADD SWAP1 PUSH1 0x1 ADD PUSH2 0x594 JUMP JUMPDEST POP SWAP1 SWAP9 POP POP POP DUP8 ADD CALLDATALOAD SWAP4 POP POP DUP1 DUP4 GT ISZERO PUSH2 0x62E JUMPI DUP4 DUP5 REVERT JUMPDEST POP POP PUSH2 0x63C DUP6 DUP3 DUP7 ADD PUSH2 0x48F JUMP JUMPDEST SWAP2 POP POP SWAP3 POP SWAP3 SWAP1 POP JUMP JUMPDEST PUSH1 0x0 PUSH1 0x20 DUP3 DUP5 SUB SLT ISZERO PUSH2 0x657 JUMPI DUP1 DUP2 REVERT JUMPDEST POP CALLDATALOAD SWAP2 SWAP1 POP JUMP JUMPDEST PUSH1 0x0 PUSH1 0x20 DUP3 DUP5 SUB SLT ISZERO PUSH2 0x66F JUMPI DUP1 DUP2 REVERT JUMPDEST POP MLOAD SWAP2 SWAP1 POP JUMP JUMPDEST PUSH1 0x0 DUP1 PUSH1 0x0 PUSH1 0x40 DUP5 DUP7 SUB SLT ISZERO PUSH2 0x68A JUMPI DUP1 DUP2 REVERT JUMPDEST DUP4 CALLDATALOAD PUSH8 0xFFFFFFFFFFFFFFFF DUP1 DUP3 GT ISZERO PUSH2 0x6A1 JUMPI DUP3 DUP4 REVERT JUMPDEST DUP2 DUP7 ADD SWAP2 POP DUP7 PUSH1 0x1F DUP4 ADD SLT PUSH2 0x6B4 JUMPI DUP3 DUP4 REVERT JUMPDEST DUP2 CALLDATALOAD DUP2 DUP2 GT ISZERO PUSH2 0x6C2 JUMPI DUP4 DUP5 REVERT JUMPDEST DUP8 PUSH1 0x20 DUP3 DUP6 ADD ADD GT ISZERO PUSH2 0x6D3 JUMPI DUP4 DUP5 REVERT JUMPDEST PUSH1 0x20 SWAP3 DUP4 ADD SWAP6 POP SWAP4 POP PUSH2 0x6E9 SWAP2 DUP7 ADD SWAP1 POP PUSH2 0x473 JUMP JUMPDEST SWAP1 POP SWAP3 POP SWAP3 POP SWAP3 JUMP JUMPDEST PUSH1 0x0 PUSH1 0x20 DUP1 DUP4 MSTORE DUP4 MLOAD DUP1 DUP3 DUP6 ADD MSTORE DUP3 JUMPDEST DUP2 DUP2 LT ISZERO PUSH2 0x71E JUMPI DUP6 DUP2 ADD DUP4 ADD MLOAD DUP6 DUP3 ADD PUSH1 0x40 ADD MSTORE DUP3 ADD PUSH2 0x702 JUMP JUMPDEST DUP2 DUP2 GT ISZERO PUSH2 0x72F JUMPI DUP4 PUSH1 0x40 DUP4 DUP8 ADD ADD MSTORE JUMPDEST POP PUSH1 0x1F ADD PUSH1 0x1F NOT AND SWAP3 SWAP1 SWAP3 ADD PUSH1 0x40 ADD SWAP4 SWAP3 POP POP POP JUMP JUMPDEST PUSH1 0x20 DUP1 DUP3 MSTORE DUP2 DUP2 ADD MSTORE PUSH32 0x4F776E61626C653A2063616C6C6572206973206E6F7420746865206F776E6572 PUSH1 0x40 DUP3 ADD MSTORE PUSH1 0x60 ADD SWAP1 JUMP JUMPDEST PUSH1 0x40 MLOAD PUSH1 0x1F DUP3 ADD PUSH1 0x1F NOT AND DUP2 ADD PUSH8 0xFFFFFFFFFFFFFFFF DUP2 GT DUP3 DUP3 LT OR ISZERO PUSH2 0x7A3 JUMPI PUSH2 0x7A3 PUSH2 0x7F6 JUMP JUMPDEST PUSH1 0x40 MSTORE SWAP2 SWAP1 POP JUMP JUMPDEST PUSH1 0x0 PUSH8 0xFFFFFFFFFFFFFFFF DUP3 GT ISZERO PUSH2 0x7C5 JUMPI PUSH2 0x7C5 PUSH2 0x7F6 JUMP JUMPDEST POP PUSH1 0x5 SHL PUSH1 0x20 ADD SWAP1 JUMP JUMPDEST PUSH1 0x0 PUSH1 0x0 NOT DUP3 EQ ISZERO PUSH2 0x7EF JUMPI PUSH4 0x4E487B71 PUSH1 0xE0 SHL DUP2 MSTORE PUSH1 0x11 PUSH1 0x4 MSTORE PUSH1 0x24 DUP2 REVERT JUMPDEST POP PUSH1 0x1 ADD SWAP1 JUMP JUMPDEST PUSH4 0x4E487B71 PUSH1 0xE0 SHL PUSH1 0x0 MSTORE PUSH1 0x41 PUSH1 0x4 MSTORE PUSH1 0x24 PUSH1 0x0 REVERT INVALID LOG2 PUSH5 0x6970667358 0x22 SLT KECCAK256 0xD3 GAS 0xE8 MSIZE CALLDATASIZE 0xAA 0xC6 LOG0 0xC4 0xE PUSH31 0x3585CD284BB069C267852465488D948FBF13B14C6664736F6C634300080400 CALLER "
		},
		"gasEstimates": {
			"creation": {
				"codeDepositCost": "422800",
				"executionCost": "infinite",
				"totalCost": "infinite"
			},
			"external": {
				"getContract(bytes32)": "1243",
				"owner()": "1064",
				"paused()": "998",
				"setContract(string,address)": "infinite",
				"setContracts(string[],address[])": "infinite",
				"transferOwnership(address)": "23697"
			},
			"internal": {
				"_setContract(string memory,address)": "infinite",
				"_setContracts(string memory[] memory,address[] memory)": "infinite"
			}
		},
		"methodIdentifiers": {
			"getContract(bytes32)": "e16c7d98",
			"owner()": "8da5cb5b",
			"paused()": "5c975abb",
			"setContract(string,address)": "3f0ed0df",
			"setContracts(string[],address[])": "7ca9e0c4",
			"transferOwnership(address)": "f2fde38b"
		}
	},
	"abi": [
		{
			"inputs": [
				{
					"internalType": "address",
					"name": "_admin",
					"type": "address"
				},
				{
					"internalType": "string[]",
					"name": "_contractKeys",
					"type": "string[]"
				},
				{
					"internalType": "address[]",
					"name": "_contractAddresses",
					"type": "address[]"
				}
			],
			"stateMutability": "nonpayable",
			"type": "constructor"
		},
		{
			"anonymous": false,
			"inputs": [
				{
					"indexed": true,
					"internalType": "bytes32",
					"name": "contractKey",
					"type": "bytes32"
				},
				{
					"indexed": true,
					"internalType": "address",
					"name": "contractAddress",
					"type": "address"
				}
			],
			"name": "ContractUpdated",
			"type": "event"
		},
		{
			"anonymous": false,
			"inputs": [
				{
					"indexed": true,
					"internalType": "address",
					"name": "previousOwner",
					"type": "address"
				},
				{
					"indexed": true,
					"internalType": "address",
					"name": "newOwner",
					"type": "address"
				}
			],
			"name": "OwnershipTransferred",
			"type": "event"
		},
		{
			"anonymous": false,
			"inputs": [
				{
					"indexed": false,
					"internalType": "address",
					"name": "account",
					"type": "address"
				}
			],
			"name": "Paused",
			"type": "event"
		},
		{
			"anonymous": false,
			"inputs": [
				{
					"indexed": false,
					"internalType": "address",
					"name": "account",
					"type": "address"
				}
			],
			"name": "Unpaused",
			"type": "event"
		},
		{
			"inputs": [
				{
					"internalType": "bytes32",
					"name": "_contractKey",
					"type": "bytes32"
				}
			],
			"name": "getContract",
			"outputs": [
				{
					"internalType": "address",
					"name": "",
					"type": "address"
				}
			],
			"stateMutability": "view",
			"type": "function"
		},
		{
			"inputs": [],
			"name": "owner",
			"outputs": [
				{
					"internalType": "address",
					"name": "",
					"type": "address"
				}
			],
			"stateMutability": "view",
			"type": "function"
		},
		{
			"inputs": [],
			"name": "paused",
			"outputs": [
				{
					"internalType": "bool",
					"name": "",
					"type": "bool"
				}
			],
			"stateMutability": "view",
			"type": "function"
		},
		{
			"inputs": [
				{
					"internalType": "string",
					"name": "_contractKey",
					"type": "string"
				},
				{
					"internalType": "address",
					"name": "_contractAddress",
					"type": "address"
				}
			],
			"name": "setContract",
			"outputs": [],
			"stateMutability": "nonpayable",
			"type": "function"
		},
		{
			"inputs": [
				{
					"internalType": "string[]",
					"name": "_contractKeys",
					"type": "string[]"
				},
				{
					"internalType": "address[]",
					"name": "_contractAddresses",
					"type": "address[]"
				}
			],
			"name": "setContracts",
			"outputs": [],
			"stateMutability": "nonpayable",
			"type": "function"
		},
		{
			"inputs": [
				{
					"internalType": "address",
					"name": "_newOwner",
					"type": "address"
				}
			],
			"name": "transferOwnership",
			"outputs": [],
			"stateMutability": "nonpayable",
			"type": "function"
		}
	]
}