{
	"data": {
		"bytecode": {
			"linkReferences": {},
			"object": "60806040526009805463ffffffff191690556000600a553480156200002357600080fd5b5060405162003bd538038062003bd5833981016040819052620000469162000180565b6040805160208101909152600081526200006081620000a4565b50600480546001600160a01b039485166001600160a01b03199182161790915560058054938516938216939093179092556006805491909316911617905562000206565b8051620000b9906002906020840190620000bd565b5050565b828054620000cb90620001c9565b90600052602060002090601f016020900481019282620000ef57600085556200013a565b82601f106200010a57805160ff19168380011785556200013a565b828001600101855582156200013a579182015b828111156200013a5782518255916020019190600101906200011d565b50620001489291506200014c565b5090565b5b808211156200014857600081556001016200014d565b80516001600160a01b03811681146200017b57600080fd5b919050565b60008060006060848603121562000195578283fd5b620001a08462000163565b9250620001b06020850162000163565b9150620001c06040850162000163565b90509250925092565b600181811c90821680620001de57607f821691505b602082108114156200020057634e487b7160e01b600052602260045260246000fd5b50919050565b6139bf80620002166000396000f3fe608060405234801561001057600080fd5b506004361061012b5760003560e01c8063bc197c81116100ad578063e985e9c511610071578063e985e9c5146102c1578063f23a6e61146102fd578063f242432a1461031d578063f8a8fd6d14610330578063ff6d2edc1461033857600080fd5b8063bc197c811461023c578063bd85b03914610268578063c5c65fc914610288578063c8c1885a1461029b578063d3904b92146102ae57600080fd5b80633b7e6a12116100f45780633b7e6a12146101c15780634e1273f4146101d45780634f558e79146101f457806375bab09214610216578063a22cb4651461022957600080fd5b8062fdd58e1461013057806301ffc9a714610156578063092af626146101795780630e89341c1461018e5780632eb2c2d6146101ae575b600080fd5b61014361013e366004612fa3565b61034b565b6040519081526020015b60405180910390f35b61016961016436600461315a565b6103e4565b604051901515815260200161014d565b61018c6101873660046132dd565b610434565b005b6101a161019c366004613192565b610761565b60405161014d91906134d3565b61018c6101bc366004612dee565b6107f5565b61018c6101cf36600461309a565b61083a565b6101e76101e2366004612fce565b610d7b565b60405161014d9190613492565b610169610202366004613192565b600090815260036020526040902054151590565b6101436102243660046132a9565b610edc565b61018c610237366004612f76565b611131565b61024f61024a366004612d34565b611140565b6040516001600160e01b0319909116815260200161014d565b610143610276366004613192565b60009081526003602052604090205490565b61018c610296366004612fa3565b61118b565b6101436102a9366004612fa3565b6113f4565b6101436102bc3660046132a9565b61154b565b6101696102cf366004612cfc565b6001600160a01b03918216600090815260016020908152604080832093909416825291909152205460ff1690565b61024f61030b366004612e97565b63f23a6e6160e01b9695505050505050565b61018c61032b366004612f10565b61176f565b6101436117b4565b61018c61034636600461328d565b611844565b60006001600160a01b0383166103bb5760405162461bcd60e51b815260206004820152602a60248201527f455243313135353a2061646472657373207a65726f206973206e6f742061207660448201526930b634b21037bbb732b960b11b60648201526084015b60405180910390fd5b506000818152602081815260408083206001600160a01b03861684529091529020545b92915050565b60006001600160e01b03198216636cdb3d1360e11b148061041557506001600160e01b031982166303a24d0760e21b145b806103de57506301ffc9a760e01b6001600160e01b03198316146103de565b63ffffffff8316600090815260076020908152604080832081516101408101835281546001600160a01b031681526001820154818501526002820180548451818702810187018652818152929593948601938301828280156104b557602002820191906000526020600020905b8154815260200190600101908083116104a1575b505050505081526020016003820180548060200260200160405190810160405280929190818152602001828054801561050d57602002820191906000526020600020905b8154815260200190600101908083116104f9575b5050505050815260200160048201805480602002602001604051908101604052809291908181526020016000905b828210156105ba5760008481526020908190206040805160c08101825260058602909201805483526001808201548486015260028201546001600160401b031692840192909252600381015460608401526004015463ffffffff81166080840152600160201b900460ff16151560a0830152908352909201910161053b565b5050505081526020016005820180548060200260200160405190810160405280929190818152602001828054801561061157602002820191906000526020600020905b8154815260200190600101908083116105fd575b505050505081526020016006820160009054906101000a900460ff1615151515815260200160078201548152602001600882015481526020016009820154815250509050600061066e3083602001518660ff1661013e919061365b565b1161068b5760405162461bcd60e51b81526004016103b2906135c1565b60006106978285611e55565b60045483519192506001600160a01b0316906323b872dd9033906106bb87866136d4565b6040518463ffffffff1660e01b81526004016106d993929190613429565b602060405180830381600087803b1580156106f357600080fd5b505af1158015610707573d6000803e3d6000fd5b505050506040513d601f19601f8201168201806040525081019061072b919061313e565b5061075a303384602001518760ff16610744919061365b565b866040518060200160405280600081525061176f565b5050505050565b60606002805461077090613788565b80601f016020809104026020016040519081016040528092919081815260200182805461079c90613788565b80156107e95780601f106107be576101008083540402835291602001916107e9565b820191906000526020600020905b8154815290600101906020018083116107cc57829003601f168201915b50505050509050919050565b6001600160a01b038516331480610811575061081185336102cf565b61082d5760405162461bcd60e51b81526004016103b29061352e565b61075a8585858585611ecf565b6020871061087e5760405162461bcd60e51b8152602060048201526011602482015270546f6f206d616e79207472616e6368657360781b60448201526064016103b2565b8685146108e85760405162461bcd60e51b815260206004820152603260248201527f4e756d626572206f6620696e74657265737420726174657320616e64206e6f746044820152710d2dedcc2d8e640c8dedc4ee840dac2e8c6d60731b60648201526084016103b2565b60095463ffffffff166000908152600760205260408120905b63ffffffff8116851115610b8a576000826004018263ffffffff168154811061093a57634e487b7160e01b600052603260045260246000fd5b9060005260206000209060050201905086868363ffffffff1681811061097057634e487b7160e01b600052603260045260246000fd5b9050602002016020810190610985919061328d565b6004828101805463ffffffff191663ffffffff93909316928317905560055460405163044f9b4360e31b815291820192909252600091829182918291829182916001600160a01b039091169063227cda18906024016101606040518083038186803b1580156109f357600080fd5b505afa158015610a07573d6000803e3d6000fd5b505050506040513d601f19601f82011682018060405250810190610a2b91906131c2565b909192939495965090919293945090919250508d6000016000829950839a50849b50859c50869d50879e50889190505550505050505050866000015461271084612710610a789190613722565b61ffff16896000015489610a8c9190613745565b610a9691906136d4565b610aa091906136b4565b610aaa919061365b565b6001880155610abf63ffffffff851683613692565b60028801805467ffffffffffffffff19166001600160401b0392909216919091179055610af06201518060236136f3565b610b03906001600160401b03164261365b565b600390970196909655505060408051808201825260095463ffffffff908116825287811660208084019182526001600160a01b0390981660009081526008895284812096815295909752919093209251835495518216600160201b0267ffffffffffffffff1990961691161793909317905550819050610b828161380a565b915050610901565b5080546001600160a01b03191633178155600a5460018201554260078201819055610bb690849061365b565b60088201556009810182905560005b60ff8116891115610c7457816002018a8a8360ff16818110610bf757634e487b7160e01b600052603260045260246000fd5b8354600181018555600094855260209485902091909402929092013591909201555060038201888860ff8416818110610c4057634e487b7160e01b600052603260045260246000fd5b8354600181018555600094855260209485902091909402929092013591909201555080610c6c8161382e565b915050610bc5565b506009805460019190600090610c9190849063ffffffff16613673565b92506101000a81548163ffffffff021916908363ffffffff16021790555060005b60ff8116871115610d2357610d1130600a548360ff16610cd2919061365b565b8a8a8560ff16818110610cf557634e487b7160e01b600052603260045260246000fd5b90506020020135604051806020016040528060008152506120d6565b80610d1b8161382e565b915050610cb2565b50600a54610d4f903090610d3890899061365b565b6001604051806020016040528060008152506120d6565b610d5a86600161365b565b600a6000828254610d6b919061365b565b9091555050505050505050505050565b60608151835114610de05760405162461bcd60e51b815260206004820152602960248201527f455243313135353a206163636f756e747320616e6420696473206c656e677468604482015268040dad2e6dac2e8c6d60bb1b60648201526084016103b2565b600083516001600160401b03811115610e0957634e487b7160e01b600052604160045260246000fd5b604051908082528060200260200182016040528015610e32578160200160208202803683370190505b50905060005b8451811015610ed457610e99858281518110610e6457634e487b7160e01b600052603260045260246000fd5b6020026020010151858381518110610e8c57634e487b7160e01b600052603260045260246000fd5b602002602001015161034b565b828281518110610eb957634e487b7160e01b600052603260045260246000fd5b6020908102919091010152610ecd816137ef565b9050610e38565b509392505050565b63ffffffff8216600090815260076020908152604080832081516101408101835281546001600160a01b0316815260018201548185015260028201805484518187028101870186528181528796939586019390929190830182828015610f6157602002820191906000526020600020905b815481526020019060010190808311610f4d575b5050505050815260200160038201805480602002602001604051908101604052809291908181526020018280548015610fb957602002820191906000526020600020905b815481526020019060010190808311610fa5575b5050505050815260200160048201805480602002602001604051908101604052809291908181526020016000905b828210156110665760008481526020908190206040805160c08101825260058602909201805483526001808201548486015260028201546001600160401b031692840192909252600381015460608401526004015463ffffffff81166080840152600160201b900460ff16151560a08301529083529092019101610fe7565b505050508152602001600582018054806020026020016040519081016040528092919081815260200182805480156110bd57602002820191906000526020600020905b8154815260200190600101908083116110a9575b5050509183525050600682015460ff161515602082015260078201546040820152600882015460608201526009909101546080909101529050600061110282856121e7565b1161111f5760405162461bcd60e51b81526004016103b2906135c1565b6111298184611e55565b949350505050565b61113c338383612207565b5050565b60405162461bcd60e51b815260206004820152601b60248201527f45524331313535206261746368206e6f7420737570706f72746564000000000060448201526000906064016103b2565b600061119783836122e8565b905060006111b2826000015183604001518460600151612409565b60048054604051636eb1769f60e11b815230928101929092523360248301529192506001600160a01b03909116908290829063dd62ed3e9060440160206040518083038186803b15801561120557600080fd5b505afa158015611219573d6000803e3d6000fd5b505050506040513d601f19601f8201168201806040525081019061123d91906131aa565b101561129b5760405162461bcd60e51b815260206004820152602760248201527f4469646e277420617070726f766520656e6f756768207745544820746f206c696044820152667175696461746560c81b60648201526084016103b2565b6005546080840151604051632cc7b07560e21b815263ffffffff90911660048201526001600160a01b039091169063b31ec1d490602401600060405180830381600087803b1580156112ec57600080fd5b505af1158015611300573d6000803e3d6000fd5b50506040516323b872dd60e01b81526001600160a01b03841692506323b872dd915061133490339030908790600401613429565b602060405180830381600087803b15801561134e57600080fd5b505af1158015611362573d6000803e3d6000fd5b505050506040513d601f19601f82011682018060405250810190611386919061313e565b506040516323b872dd60e01b81526001600160a01b038616906323b872dd906113b790309033908990600401613429565b600060405180830381600087803b1580156113d157600080fd5b505af11580156113e5573d6000803e3d6000fd5b50505050602090920152505050565b60008061140184846122e8565b905080604001516001600160401b031642116114565760405162461bcd60e51b8152602060048201526014602482015273131bd85b881b9bdd08195e1c1a5c9959081e595d60621b60448201526064016103b2565b600554608082015160405163038bf9d560e11b815263ffffffff90911660048201526001600160a01b0390911690630717f3aa9060240160206040518083038186803b1580156114a557600080fd5b505afa1580156114b9573d6000803e3d6000fd5b505050506040513d601f19601f820116820180604052508101906114dd919061313e565b156115345760405162461bcd60e51b815260206004820152602160248201527f4c6f616e20616c726561647920726570616964206f72206c69717569646174656044820152601960fa1b60648201526084016103b2565b611129816000015182604001518360600151612409565b63ffffffff8216600090815260076020908152604080832081516101408101835281546001600160a01b03168152600182015481850152600282018054845181870281018701865281815287969395860193909291908301828280156115d057602002820191906000526020600020905b8154815260200190600101908083116115bc575b505050505081526020016003820180548060200260200160405190810160405280929190818152602001828054801561162857602002820191906000526020600020905b815481526020019060010190808311611614575b5050505050815260200160048201805480602002602001604051908101604052809291908181526020016000905b828210156116d55760008481526020908190206040805160c08101825260058602909201805483526001808201548486015260028201546001600160401b031692840192909252600381015460608401526004015463ffffffff81166080840152600160201b900460ff16151560a08301529083529092019101611656565b5050505081526020016005820180548060200260200160405190810160405280929190818152602001828054801561172c57602002820191906000526020600020905b815481526020019060010190808311611718575b5050509183525050600682015460ff16151560208201526007820154604082015260088201546060820152600990910154608090910152905061112981846121e7565b6001600160a01b03851633148061178b575061178b85336102cf565b6117a75760405162461bcd60e51b81526004016103b29061352e565b61075a8585858585612457565b6040805180820182526001808252601d60fa1b6020808401919091528351908101829052600160f81b81850152835160218183030181526041820190945260009391929183916118089084906061016133af565b60408051601f19818403018152908290526118269291602001613380565b60405160208183030381529060405280519060200120935050505090565b63ffffffff81166000908152600760205260409020600881015442116118b75760405162461bcd60e51b815260206004820152602260248201527f546f6b656e206e6f742079657420726561647920666f7220726564656d70746960448201526137b760f11b60648201526084016103b2565b60045460068201546001600160a01b039091169060ff16611cec576005546001600160a01b03166000805b600485015463ffffffff82161015611a6557846004018163ffffffff168154811061191d57634e487b7160e01b600052603260045260246000fd5b906000526020600020906005020160040160049054906101000a900460ff1680611a055750826001600160a01b0316630717f3aa866004018363ffffffff168154811061197a57634e487b7160e01b600052603260045260246000fd5b6000918252602090912060046005909202018101546040516001600160e01b031960e085901b16815263ffffffff9091169181019190915260240160206040518083038186803b1580156119cd57600080fd5b505afa1580156119e1573d6000803e3d6000fd5b505050506040513d601f19601f82011682018060405250810190611a05919061313e565b15611a5357846004018163ffffffff1681548110611a3357634e487b7160e01b600052603260045260246000fd5b90600052602060002090600502016001015482611a50919061365b565b91505b80611a5d8161380a565b9150506118e2565b50611a7867016345785d8a000082613745565b905060005b600385015460ff82161015611bae576000612710866002018360ff1681548110611ab757634e487b7160e01b600052603260045260246000fd5b9060005260206000200154612710611acf919061365b565b876003018460ff1681548110611af557634e487b7160e01b600052603260045260246000fd5b9060005260206000200154611b0a91906136d4565b611b1491906136b4565b9050808310611b615780866005018360ff1681548110611b4457634e487b7160e01b600052603260045260246000fd5b600091825260209091200155611b5a8184613745565b9250611b9b565b82866005018360ff1681548110611b8857634e487b7160e01b600052603260045260246000fd5b9060005260206000200181905550600092505b5080611ba68161382e565b915050611a7d565b508015611c52576040516370a0823160e01b81523060048201526005850190611c3b906001600160a01b038616906370a082319060240160206040518083038186803b158015611bfd57600080fd5b505afa158015611c11573d6000803e3d6000fd5b505050506040513d601f19601f82011682018060405250810190611c3591906131aa565b8361257d565b815460018101835560009283526020909220909101555b60068401805460ff1916600117905560405163a9059cbb60e01b815233600482015267016345785d8a000060248201526001600160a01b0384169063a9059cbb90604401602060405180830381600087803b158015611cb057600080fd5b505af1158015611cc4573d6000803e3d6000fd5b505050506040513d601f19601f82011682018060405250810190611ce8919061313e565b5050505b60005b6002830154611cff90600161365b565b811015611e4f576000836001015482611d18919061365b565b90506000611d26338361034b565b90508015611e3a57611d39338383612593565b836001600160a01b031663a9059cbb33876003018681548110611d6c57634e487b7160e01b600052603260045260246000fd5b906000526020600020015484896005018881548110611d9b57634e487b7160e01b600052603260045260246000fd5b9060005260206000200154611db091906136d4565b611dba91906136b4565b6040516001600160e01b031960e085901b1681526001600160a01b0390921660048301526024820152604401602060405180830381600087803b158015611e0057600080fd5b505af1158015611e14573d6000803e3d6000fd5b505050506040513d601f19601f82011682018060405250810190611e38919061313e565b505b50508080611e47906137ef565b915050611cef565b50505050565b60008260400151518260ff161415611e7357506101208201516103de565b611ec86000620151806001600160401b03168560e0015142611e959190613745565b611ea79067016345785d8a00006136d4565b611eb191906136b4565b611ec390670f43fc2c04ee0000613745565b612711565b90506103de565b8151835114611f315760405162461bcd60e51b815260206004820152602860248201527f455243313135353a2069647320616e6420616d6f756e7473206c656e677468206044820152670dad2e6dac2e8c6d60c31b60648201526084016103b2565b6001600160a01b038416611f575760405162461bcd60e51b81526004016103b29061357c565b33611f66818787878787612720565b60005b8451811015612068576000858281518110611f9457634e487b7160e01b600052603260045260246000fd5b602002602001015190506000858381518110611fc057634e487b7160e01b600052603260045260246000fd5b602090810291909101810151600084815280835260408082206001600160a01b038e1683529093529190912054909150818110156120105760405162461bcd60e51b81526004016103b2906135ee565b6000838152602081815260408083206001600160a01b038e8116855292528083208585039055908b1682528120805484929061204d90849061365b565b9250508190555050505080612061906137ef565b9050611f69565b50846001600160a01b0316866001600160a01b0316826001600160a01b03167f4a39dc06d4c0dbc64b70af90fd698a233a518aa5d07e595d983b8c0526c8f7fb87876040516120b89291906134a5565b60405180910390a46120ce8187878787876128d1565b505050505050565b6001600160a01b0384166121365760405162461bcd60e51b815260206004820152602160248201527f455243313135353a206d696e7420746f20746865207a65726f206164647265736044820152607360f81b60648201526084016103b2565b33600061214285612a3c565b9050600061214f85612a3c565b905061216083600089858589612720565b6000868152602081815260408083206001600160a01b038b1684529091528120805487929061219090849061365b565b909155505060408051878152602081018790526001600160a01b03808a16926000929187169160008051602061396a833981519152910160405180910390a46121de83600089898989612a95565b50505050505050565b60006122003084602001518460ff1661013e919061365b565b9392505050565b816001600160a01b0316836001600160a01b0316141561227b5760405162461bcd60e51b815260206004820152602960248201527f455243313135353a2073657474696e6720617070726f76616c20737461747573604482015268103337b91039b2b63360b91b60648201526084016103b2565b6001600160a01b03838116600081815260016020908152604080832094871680845294825291829020805460ff191686151590811790915591519182527f17307eab39ab6107e8899845ad3d59bd9653f200f220920489ca2b5937696c31910160405180910390a3505050565b6040805160c08101825260008082526020808301829052828401829052606083018290526080830182905260a083018290526001600160a01b038616825260088152838220858352815283822084518086018652905463ffffffff808216808452600160201b909204811683850190815291855260079093529490922093516004909401805493949293909290911690811061239457634e487b7160e01b600052603260045260246000fd5b60009182526020918290206040805160c0810182526005939093029091018054835260018101549383019390935260028301546001600160401b0316908201526003820154606082015260049091015463ffffffff81166080830152600160201b900460ff16151560a0820152949350505050565b60006111298160026124246001600160401b03871686613745565b61242e4287613745565b6124398960036136d4565b61244391906136d4565b61244d91906136b4565b611ec391906136b4565b6001600160a01b03841661247d5760405162461bcd60e51b81526004016103b29061357c565b33600061248985612a3c565b9050600061249685612a3c565b90506124a6838989858589612720565b6000868152602081815260408083206001600160a01b038c168452909152902054858110156124e75760405162461bcd60e51b81526004016103b2906135ee565b6000878152602081815260408083206001600160a01b038d8116855292528083208985039055908a1682528120805488929061252490849061365b565b909155505060408051888152602081018890526001600160a01b03808b16928c8216929188169160008051602061396a833981519152910160405180910390a4612572848a8a8a8a8a612a95565b505050505050505050565b600081831061258c5781612200565b5090919050565b6001600160a01b0383166125f55760405162461bcd60e51b815260206004820152602360248201527f455243313135353a206275726e2066726f6d20746865207a65726f206164647260448201526265737360e81b60648201526084016103b2565b33600061260184612a3c565b9050600061260e84612a3c565b905061262e83876000858560405180602001604052806000815250612720565b6000858152602081815260408083206001600160a01b038a168452909152902054848110156126ab5760405162461bcd60e51b8152602060048201526024808201527f455243313135353a206275726e20616d6f756e7420657863656564732062616c604482015263616e636560e01b60648201526084016103b2565b6000868152602081815260408083206001600160a01b038b81168086529184528285208a8703905582518b81529384018a905290929088169160008051602061396a833981519152910160405180910390a46040805160208101909152600090526121de565b600081831161258c5781612200565b6001600160a01b0385166127c35760005b83518110156127c15782818151811061275a57634e487b7160e01b600052603260045260246000fd5b60200260200101516003600086848151811061278657634e487b7160e01b600052603260045260246000fd5b6020026020010151815260200190815260200160002060008282546127ab919061365b565b909155506127ba9050816137ef565b9050612731565b505b6001600160a01b0384166120ce5760005b83518110156121de5760008482815181106127ff57634e487b7160e01b600052603260045260246000fd5b60200260200101519050600084838151811061282b57634e487b7160e01b600052603260045260246000fd5b60200260200101519050600060036000848152602001908152602001600020549050818110156128ae5760405162461bcd60e51b815260206004820152602860248201527f455243313135353a206275726e20616d6f756e74206578636565647320746f74604482015267616c537570706c7960c01b60648201526084016103b2565b600092835260036020526040909220910390556128ca816137ef565b90506127d4565b6001600160a01b0384163b156120ce5760405163bc197c8160e01b81526001600160a01b0385169063bc197c819061291590899089908890889088906004016133cb565b602060405180830381600087803b15801561292f57600080fd5b505af192505050801561295f575060408051601f3d908101601f1916820190925261295c91810190613176565b60015b612a0c5761296b61387a565b806308c379a014156129a55750612980613892565b8061298b57506129a7565b8060405162461bcd60e51b81526004016103b291906134d3565b505b60405162461bcd60e51b815260206004820152603460248201527f455243313135353a207472616e7366657220746f206e6f6e2d455243313135356044820152732932b1b2b4bb32b91034b6b83632b6b2b73a32b960611b60648201526084016103b2565b6001600160e01b0319811663bc197c8160e01b146121de5760405162461bcd60e51b81526004016103b2906134e6565b60408051600180825281830190925260609160009190602080830190803683370190505090508281600081518110612a8457634e487b7160e01b600052603260045260246000fd5b602090810291909101015292915050565b6001600160a01b0384163b156120ce5760405163f23a6e6160e01b81526001600160a01b0385169063f23a6e6190612ad9908990899088908890889060040161344d565b602060405180830381600087803b158015612af357600080fd5b505af1925050508015612b23575060408051601f3d908101601f19168201909252612b2091810190613176565b60015b612b2f5761296b61387a565b6001600160e01b0319811663f23a6e6160e01b146121de5760405162461bcd60e51b81526004016103b2906134e6565b8051612b6a8161391b565b919050565b60008083601f840112612b80578182fd5b5081356001600160401b03811115612b96578182fd5b6020830191508360208260051b8501011115612bb157600080fd5b9250929050565b600082601f830112612bc8578081fd5b81356020612bd582613638565b604051612be282826137c3565b8381528281019150858301600585901b87018401881015612c01578586fd5b855b85811015612c1f57813584529284019290840190600101612c03565b5090979650505050505050565b60008083601f840112612c3d578182fd5b5081356001600160401b03811115612c53578182fd5b602083019150836020828501011115612bb157600080fd5b600082601f830112612c7b578081fd5b81356001600160401b03811115612c9457612c94613864565b604051612cab601f8301601f1916602001826137c3565b818152846020838601011115612cbf578283fd5b816020850160208301379081016020019190915292915050565b805161ffff81168114612b6a57600080fd5b803560ff81168114612b6a57600080fd5b60008060408385031215612d0e578182fd5b8235612d198161391b565b91506020830135612d298161391b565b809150509250929050565b60008060008060008060008060a0898b031215612d4f578384fd5b8835612d5a8161391b565b97506020890135612d6a8161391b565b965060408901356001600160401b0380821115612d85578586fd5b612d918c838d01612b6f565b909850965060608b0135915080821115612da9578586fd5b612db58c838d01612b6f565b909650945060808b0135915080821115612dcd578384fd5b50612dda8b828c01612c2c565b999c989b5096995094979396929594505050565b600080600080600060a08688031215612e05578081fd5b8535612e108161391b565b94506020860135612e208161391b565b935060408601356001600160401b0380821115612e3b578283fd5b612e4789838a01612bb8565b94506060880135915080821115612e5c578283fd5b612e6889838a01612bb8565b93506080880135915080821115612e7d578283fd5b50612e8a88828901612c6b565b9150509295509295909350565b60008060008060008060a08789031215612eaf578384fd5b8635612eba8161391b565b95506020870135612eca8161391b565b9450604087013593506060870135925060808701356001600160401b03811115612ef2578283fd5b612efe89828a01612c2c565b979a9699509497509295939492505050565b600080600080600060a08688031215612f27578283fd5b8535612f328161391b565b94506020860135612f428161391b565b9350604086013592506060860135915060808601356001600160401b03811115612f6a578182fd5b612e8a88828901612c6b565b60008060408385031215612f88578182fd5b8235612f938161391b565b91506020830135612d2981613933565b60008060408385031215612fb5578182fd5b8235612fc08161391b565b946020939093013593505050565b60008060408385031215612fe0578182fd5b82356001600160401b0380821115612ff6578384fd5b818501915085601f830112613009578384fd5b8135602061301682613638565b60405161302382826137c3565b8381528281019150858301600585901b870184018b1015613042578889fd5b8896505b8487101561306d5780356130598161391b565b835260019690960195918301918301613046565b5096505086013592505080821115613083578283fd5b5061309085828601612bb8565b9150509250929050565b60008060008060008060008060a0898b0312156130b5578182fd5b88356001600160401b03808211156130cb578384fd5b6130d78c838d01612b6f565b909a50985060208b01359150808211156130ef578384fd5b6130fb8c838d01612b6f565b909850965060408b0135915080821115613113578384fd5b506131208b828c01612b6f565b999c989b509699959896976060870135966080013595509350505050565b60006020828403121561314f578081fd5b815161220081613933565b60006020828403121561316b578081fd5b813561220081613941565b600060208284031215613187578081fd5b815161220081613941565b6000602082840312156131a3578081fd5b5035919050565b6000602082840312156131bb578081fd5b5051919050565b60008060008060008060008060008060006101608c8e0312156131e3578485fd5b8b519a5060208c0151995060408c0151985060608c01516132038161391b565b60808d015190985061321481613957565b965061322260a08d01612cd9565b955061323060c08d01612cd9565b945060e08c01516132408161391b565b6101008d01519094506001600160401b038116811461325d578384fd5b925061326c6101208d01612b5f565b915061327b6101408d01612b5f565b90509295989b509295989b9093969950565b60006020828403121561329e578081fd5b813561220081613957565b600080604083850312156132bb578182fd5b82356132c681613957565b91506132d460208401612ceb565b90509250929050565b6000806000606084860312156132f1578081fd5b83356132fc81613957565b925061330a60208501612ceb565b9150604084013590509250925092565b6000815180845260208085019450808401835b838110156133495781518752958201959082019060010161332d565b509495945050505050565b6000815180845261336c81602086016020860161375c565b601f01601f19169290920160200192915050565b6000835161339281846020880161375c565b8351908301906133a681836020880161375c565b01949350505050565b600082516133c181846020870161375c565b9190910192915050565b6001600160a01b0386811682528516602082015260a0604082018190526000906133f79083018661331a565b8281036060840152613409818661331a565b9050828103608084015261341d8185613354565b98975050505050505050565b6001600160a01b039384168152919092166020820152604081019190915260600190565b6001600160a01b03868116825285166020820152604081018490526060810183905260a06080820181905260009061348790830184613354565b979650505050505050565b602081526000612200602083018461331a565b6040815260006134b8604083018561331a565b82810360208401526134ca818561331a565b95945050505050565b6020815260006122006020830184613354565b60208082526028908201527f455243313135353a204552433131353552656365697665722072656a656374656040820152676420746f6b656e7360c01b606082015260800190565b6020808252602e908201527f455243313135353a2063616c6c6572206973206e6f7420746f6b656e206f776e60408201526d195c881bdc88185c1c1c9bdd995960921b606082015260800190565b60208082526025908201527f455243313135353a207472616e7366657220746f20746865207a65726f206164604082015264647265737360d81b606082015260800190565b6020808252601390820152724e6f20737570706c792072656d61696e696e6760681b604082015260600190565b6020808252602a908201527f455243313135353a20696e73756666696369656e742062616c616e636520666f60408201526939103a3930b739b332b960b11b606082015260800190565b60006001600160401b0382111561365157613651613864565b5060051b60200190565b6000821982111561366e5761366e61384e565b500190565b600063ffffffff8083168185168083038211156133a6576133a661384e565b60006001600160401b038083168185168083038211156133a6576133a661384e565b6000826136cf57634e487b7160e01b81526012600452602481fd5b500490565b60008160001904831182151516156136ee576136ee61384e565b500290565b60006001600160401b03808316818516818304811182151516156137195761371961384e565b02949350505050565b600061ffff8381169083168181101561373d5761373d61384e565b039392505050565b6000828210156137575761375761384e565b500390565b60005b8381101561377757818101518382015260200161375f565b83811115611e4f5750506000910152565b600181811c9082168061379c57607f821691505b602082108114156137bd57634e487b7160e01b600052602260045260246000fd5b50919050565b601f8201601f191681016001600160401b03811182821017156137e8576137e8613864565b6040525050565b60006000198214156138035761380361384e565b5060010190565b600063ffffffff808316818114156138245761382461384e565b6001019392505050565b600060ff821660ff8114156138455761384561384e565b60010192915050565b634e487b7160e01b600052601160045260246000fd5b634e487b7160e01b600052604160045260246000fd5b600060033d111561388f57600481823e5160e01c5b90565b600060443d10156138a05790565b6040516003193d81016004833e81513d6001600160401b0381602484011181841117156138cf57505050505090565b82850191508151818111156138e75750505050505090565b843d87010160208285010111156139015750505050505090565b613910602082860101876137c3565b509095945050505050565b6001600160a01b038116811461393057600080fd5b50565b801515811461393057600080fd5b6001600160e01b03198116811461393057600080fd5b63ffffffff8116811461393057600080fdfec3d58168c5ae7397731d063d5bbf3d657854427343f4c083240f7aacaa2d0f62a2646970667358221220b68f9423b411ee306541d7cc0b72ce7e50230db55ce8fbbb38893de5c4348ca064736f6c63430008040033",
			"opcodes": "PUSH1 0x80 PUSH1 0x40 MSTORE PUSH1 0x9 DUP1 SLOAD PUSH4 0xFFFFFFFF NOT AND SWAP1 SSTORE PUSH1 0x0 PUSH1 0xA SSTORE CALLVALUE DUP1 ISZERO PUSH3 0x23 JUMPI PUSH1 0x0 DUP1 REVERT JUMPDEST POP PUSH1 0x40 MLOAD PUSH3 0x3BD5 CODESIZE SUB DUP1 PUSH3 0x3BD5 DUP4 CODECOPY DUP2 ADD PUSH1 0x40 DUP2 SWAP1 MSTORE PUSH3 0x46 SWAP2 PUSH3 0x180 JUMP JUMPDEST PUSH1 0x40 DUP1 MLOAD PUSH1 0x20 DUP2 ADD SWAP1 SWAP2 MSTORE PUSH1 0x0 DUP2 MSTORE PUSH3 0x60 DUP2 PUSH3 0xA4 JUMP JUMPDEST POP PUSH1 0x4 DUP1 SLOAD PUSH1 0x1 PUSH1 0x1 PUSH1 0xA0 SHL SUB SWAP5 DUP6 AND PUSH1 0x1 PUSH1 0x1 PUSH1 0xA0 SHL SUB NOT SWAP2 DUP3 AND OR SWAP1 SWAP2 SSTORE PUSH1 0x5 DUP1 SLOAD SWAP4 DUP6 AND SWAP4 DUP3 AND SWAP4 SWAP1 SWAP4 OR SWAP1 SWAP3 SSTORE PUSH1 0x6 DUP1 SLOAD SWAP2 SWAP1 SWAP4 AND SWAP2 AND OR SWAP1 SSTORE PUSH3 0x206 JUMP JUMPDEST DUP1 MLOAD PUSH3 0xB9 SWAP1 PUSH1 0x2 SWAP1 PUSH1 0x20 DUP5 ADD SWAP1 PUSH3 0xBD JUMP JUMPDEST POP POP JUMP JUMPDEST DUP3 DUP1 SLOAD PUSH3 0xCB SWAP1 PUSH3 0x1C9 JUMP JUMPDEST SWAP1 PUSH1 0x0 MSTORE PUSH1 0x20 PUSH1 0x0 KECCAK256 SWAP1 PUSH1 0x1F ADD PUSH1 0x20 SWAP1 DIV DUP2 ADD SWAP3 DUP3 PUSH3 0xEF JUMPI PUSH1 0x0 DUP6 SSTORE PUSH3 0x13A JUMP JUMPDEST DUP3 PUSH1 0x1F LT PUSH3 0x10A JUMPI DUP1 MLOAD PUSH1 0xFF NOT AND DUP4 DUP1 ADD OR DUP6 SSTORE PUSH3 0x13A JUMP JUMPDEST DUP3 DUP1 ADD PUSH1 0x1 ADD DUP6 SSTORE DUP3 ISZERO PUSH3 0x13A JUMPI SWAP2 DUP3 ADD JUMPDEST DUP3 DUP2 GT ISZERO PUSH3 0x13A JUMPI DUP3 MLOAD DUP3 SSTORE SWAP2 PUSH1 0x20 ADD SWAP2 SWAP1 PUSH1 0x1 ADD SWAP1 PUSH3 0x11D JUMP JUMPDEST POP PUSH3 0x148 SWAP3 SWAP2 POP PUSH3 0x14C JUMP JUMPDEST POP SWAP1 JUMP JUMPDEST JUMPDEST DUP1 DUP3 GT ISZERO PUSH3 0x148 JUMPI PUSH1 0x0 DUP2 SSTORE PUSH1 0x1 ADD PUSH3 0x14D JUMP JUMPDEST DUP1 MLOAD PUSH1 0x1 PUSH1 0x1 PUSH1 0xA0 SHL SUB DUP2 AND DUP2 EQ PUSH3 0x17B JUMPI PUSH1 0x0 DUP1 REVERT JUMPDEST SWAP2 SWAP1 POP JUMP JUMPDEST PUSH1 0x0 DUP1 PUSH1 0x0 PUSH1 0x60 DUP5 DUP7 SUB SLT ISZERO PUSH3 0x195 JUMPI DUP3 DUP4 REVERT JUMPDEST PUSH3 0x1A0 DUP5 PUSH3 0x163 JUMP JUMPDEST SWAP3 POP PUSH3 0x1B0 PUSH1 0x20 DUP6 ADD PUSH3 0x163 JUMP JUMPDEST SWAP2 POP PUSH3 0x1C0 PUSH1 0x40 DUP6 ADD PUSH3 0x163 JUMP JUMPDEST SWAP1 POP SWAP3 POP SWAP3 POP SWAP3 JUMP JUMPDEST PUSH1 0x1 DUP2 DUP2 SHR SWAP1 DUP3 AND DUP1 PUSH3 0x1DE JUMPI PUSH1 0x7F DUP3 AND SWAP2 POP JUMPDEST PUSH1 0x20 DUP3 LT DUP2 EQ ISZERO PUSH3 0x200 JUMPI PUSH4 0x4E487B71 PUSH1 0xE0 SHL PUSH1 0x0 MSTORE PUSH1 0x22 PUSH1 0x4 MSTORE PUSH1 0x24 PUSH1 0x0 REVERT JUMPDEST POP SWAP2 SWAP1 POP JUMP JUMPDEST PUSH2 0x39BF DUP1 PUSH3 0x216 PUSH1 0x0 CODECOPY PUSH1 0x0 RETURN INVALID PUSH1 0x80 PUSH1 0x40 MSTORE CALLVALUE DUP1 ISZERO PUSH2 0x10 JUMPI PUSH1 0x0 DUP1 REVERT JUMPDEST POP PUSH1 0x4 CALLDATASIZE LT PUSH2 0x12B JUMPI PUSH1 0x0 CALLDATALOAD PUSH1 0xE0 SHR DUP1 PUSH4 0xBC197C81 GT PUSH2 0xAD JUMPI DUP1 PUSH4 0xE985E9C5 GT PUSH2 0x71 JUMPI DUP1 PUSH4 0xE985E9C5 EQ PUSH2 0x2C1 JUMPI DUP1 PUSH4 0xF23A6E61 EQ PUSH2 0x2FD JUMPI DUP1 PUSH4 0xF242432A EQ PUSH2 0x31D JUMPI DUP1 PUSH4 0xF8A8FD6D EQ PUSH2 0x330 JUMPI DUP1 PUSH4 0xFF6D2EDC EQ PUSH2 0x338 JUMPI PUSH1 0x0 DUP1 REVERT JUMPDEST DUP1 PUSH4 0xBC197C81 EQ PUSH2 0x23C JUMPI DUP1 PUSH4 0xBD85B039 EQ PUSH2 0x268 JUMPI DUP1 PUSH4 0xC5C65FC9 EQ PUSH2 0x288 JUMPI DUP1 PUSH4 0xC8C1885A EQ PUSH2 0x29B JUMPI DUP1 PUSH4 0xD3904B92 EQ PUSH2 0x2AE JUMPI PUSH1 0x0 DUP1 REVERT JUMPDEST DUP1 PUSH4 0x3B7E6A12 GT PUSH2 0xF4 JUMPI DUP1 PUSH4 0x3B7E6A12 EQ PUSH2 0x1C1 JUMPI DUP1 PUSH4 0x4E1273F4 EQ PUSH2 0x1D4 JUMPI DUP1 PUSH4 0x4F558E79 EQ PUSH2 0x1F4 JUMPI DUP1 PUSH4 0x75BAB092 EQ PUSH2 0x216 JUMPI DUP1 PUSH4 0xA22CB465 EQ PUSH2 0x229 JUMPI PUSH1 0x0 DUP1 REVERT JUMPDEST DUP1 PUSH3 0xFDD58E EQ PUSH2 0x130 JUMPI DUP1 PUSH4 0x1FFC9A7 EQ PUSH2 0x156 JUMPI DUP1 PUSH4 0x92AF626 EQ PUSH2 0x179 JUMPI DUP1 PUSH4 0xE89341C EQ PUSH2 0x18E JUMPI DUP1 PUSH4 0x2EB2C2D6 EQ PUSH2 0x1AE JUMPI JUMPDEST PUSH1 0x0 DUP1 REVERT JUMPDEST PUSH2 0x143 PUSH2 0x13E CALLDATASIZE PUSH1 0x4 PUSH2 0x2FA3 JUMP JUMPDEST PUSH2 0x34B JUMP JUMPDEST PUSH1 0x40 MLOAD SWAP1 DUP2 MSTORE PUSH1 0x20 ADD JUMPDEST PUSH1 0x40 MLOAD DUP1 SWAP2 SUB SWAP1 RETURN JUMPDEST PUSH2 0x169 PUSH2 0x164 CALLDATASIZE PUSH1 0x4 PUSH2 0x315A JUMP JUMPDEST PUSH2 0x3E4 JUMP JUMPDEST PUSH1 0x40 MLOAD SWAP1 ISZERO ISZERO DUP2 MSTORE PUSH1 0x20 ADD PUSH2 0x14D JUMP JUMPDEST PUSH2 0x18C PUSH2 0x187 CALLDATASIZE PUSH1 0x4 PUSH2 0x32DD JUMP JUMPDEST PUSH2 0x434 JUMP JUMPDEST STOP JUMPDEST PUSH2 0x1A1 PUSH2 0x19C CALLDATASIZE PUSH1 0x4 PUSH2 0x3192 JUMP JUMPDEST PUSH2 0x761 JUMP JUMPDEST PUSH1 0x40 MLOAD PUSH2 0x14D SWAP2 SWAP1 PUSH2 0x34D3 JUMP JUMPDEST PUSH2 0x18C PUSH2 0x1BC CALLDATASIZE PUSH1 0x4 PUSH2 0x2DEE JUMP JUMPDEST PUSH2 0x7F5 JUMP JUMPDEST PUSH2 0x18C PUSH2 0x1CF CALLDATASIZE PUSH1 0x4 PUSH2 0x309A JUMP JUMPDEST PUSH2 0x83A JUMP JUMPDEST PUSH2 0x1E7 PUSH2 0x1E2 CALLDATASIZE PUSH1 0x4 PUSH2 0x2FCE JUMP JUMPDEST PUSH2 0xD7B JUMP JUMPDEST PUSH1 0x40 MLOAD PUSH2 0x14D SWAP2 SWAP1 PUSH2 0x3492 JUMP JUMPDEST PUSH2 0x169 PUSH2 0x202 CALLDATASIZE PUSH1 0x4 PUSH2 0x3192 JUMP JUMPDEST PUSH1 0x0 SWAP1 DUP2 MSTORE PUSH1 0x3 PUSH1 0x20 MSTORE PUSH1 0x40 SWAP1 KECCAK256 SLOAD ISZERO ISZERO SWAP1 JUMP JUMPDEST PUSH2 0x143 PUSH2 0x224 CALLDATASIZE PUSH1 0x4 PUSH2 0x32A9 JUMP JUMPDEST PUSH2 0xEDC JUMP JUMPDEST PUSH2 0x18C PUSH2 0x237 CALLDATASIZE PUSH1 0x4 PUSH2 0x2F76 JUMP JUMPDEST PUSH2 0x1131 JUMP JUMPDEST PUSH2 0x24F PUSH2 0x24A CALLDATASIZE PUSH1 0x4 PUSH2 0x2D34 JUMP JUMPDEST PUSH2 0x1140 JUMP JUMPDEST PUSH1 0x40 MLOAD PUSH1 0x1 PUSH1 0x1 PUSH1 0xE0 SHL SUB NOT SWAP1 SWAP2 AND DUP2 MSTORE PUSH1 0x20 ADD PUSH2 0x14D JUMP JUMPDEST PUSH2 0x143 PUSH2 0x276 CALLDATASIZE PUSH1 0x4 PUSH2 0x3192 JUMP JUMPDEST PUSH1 0x0 SWAP1 DUP2 MSTORE PUSH1 0x3 PUSH1 0x20 MSTORE PUSH1 0x40 SWAP1 KECCAK256 SLOAD SWAP1 JUMP JUMPDEST PUSH2 0x18C PUSH2 0x296 CALLDATASIZE PUSH1 0x4 PUSH2 0x2FA3 JUMP JUMPDEST PUSH2 0x118B JUMP JUMPDEST PUSH2 0x143 PUSH2 0x2A9 CALLDATASIZE PUSH1 0x4 PUSH2 0x2FA3 JUMP JUMPDEST PUSH2 0x13F4 JUMP JUMPDEST PUSH2 0x143 PUSH2 0x2BC CALLDATASIZE PUSH1 0x4 PUSH2 0x32A9 JUMP JUMPDEST PUSH2 0x154B JUMP JUMPDEST PUSH2 0x169 PUSH2 0x2CF CALLDATASIZE PUSH1 0x4 PUSH2 0x2CFC JUMP JUMPDEST PUSH1 0x1 PUSH1 0x1 PUSH1 0xA0 SHL SUB SWAP2 DUP3 AND PUSH1 0x0 SWAP1 DUP2 MSTORE PUSH1 0x1 PUSH1 0x20 SWAP1 DUP2 MSTORE PUSH1 0x40 DUP1 DUP4 KECCAK256 SWAP4 SWAP1 SWAP5 AND DUP3 MSTORE SWAP2 SWAP1 SWAP2 MSTORE KECCAK256 SLOAD PUSH1 0xFF AND SWAP1 JUMP JUMPDEST PUSH2 0x24F PUSH2 0x30B CALLDATASIZE PUSH1 0x4 PUSH2 0x2E97 JUMP JUMPDEST PUSH4 0xF23A6E61 PUSH1 0xE0 SHL SWAP7 SWAP6 POP POP POP POP POP POP JUMP JUMPDEST PUSH2 0x18C PUSH2 0x32B CALLDATASIZE PUSH1 0x4 PUSH2 0x2F10 JUMP JUMPDEST PUSH2 0x176F JUMP JUMPDEST PUSH2 0x143 PUSH2 0x17B4 JUMP JUMPDEST PUSH2 0x18C PUSH2 0x346 CALLDATASIZE PUSH1 0x4 PUSH2 0x328D JUMP JUMPDEST PUSH2 0x1844 JUMP JUMPDEST PUSH1 0x0 PUSH1 0x1 PUSH1 0x1 PUSH1 0xA0 SHL SUB DUP4 AND PUSH2 0x3BB JUMPI PUSH1 0x40 MLOAD PUSH3 0x461BCD PUSH1 0xE5 SHL DUP2 MSTORE PUSH1 0x20 PUSH1 0x4 DUP3 ADD MSTORE PUSH1 0x2A PUSH1 0x24 DUP3 ADD MSTORE PUSH32 0x455243313135353A2061646472657373207A65726F206973206E6F7420612076 PUSH1 0x44 DUP3 ADD MSTORE PUSH10 0x30B634B21037BBB732B9 PUSH1 0xB1 SHL PUSH1 0x64 DUP3 ADD MSTORE PUSH1 0x84 ADD JUMPDEST PUSH1 0x40 MLOAD DUP1 SWAP2 SUB SWAP1 REVERT JUMPDEST POP PUSH1 0x0 DUP2 DUP2 MSTORE PUSH1 0x20 DUP2 DUP2 MSTORE PUSH1 0x40 DUP1 DUP4 KECCAK256 PUSH1 0x1 PUSH1 0x1 PUSH1 0xA0 SHL SUB DUP7 AND DUP5 MSTORE SWAP1 SWAP2 MSTORE SWAP1 KECCAK256 SLOAD JUMPDEST SWAP3 SWAP2 POP POP JUMP JUMPDEST PUSH1 0x0 PUSH1 0x1 PUSH1 0x1 PUSH1 0xE0 SHL SUB NOT DUP3 AND PUSH4 0x6CDB3D13 PUSH1 0xE1 SHL EQ DUP1 PUSH2 0x415 JUMPI POP PUSH1 0x1 PUSH1 0x1 PUSH1 0xE0 SHL SUB NOT DUP3 AND PUSH4 0x3A24D07 PUSH1 0xE2 SHL EQ JUMPDEST DUP1 PUSH2 0x3DE JUMPI POP PUSH4 0x1FFC9A7 PUSH1 0xE0 SHL PUSH1 0x1 PUSH1 0x1 PUSH1 0xE0 SHL SUB NOT DUP4 AND EQ PUSH2 0x3DE JUMP JUMPDEST PUSH4 0xFFFFFFFF DUP4 AND PUSH1 0x0 SWAP1 DUP2 MSTORE PUSH1 0x7 PUSH1 0x20 SWAP1 DUP2 MSTORE PUSH1 0x40 DUP1 DUP4 KECCAK256 DUP2 MLOAD PUSH2 0x140 DUP2 ADD DUP4 MSTORE DUP2 SLOAD PUSH1 0x1 PUSH1 0x1 PUSH1 0xA0 SHL SUB AND DUP2 MSTORE PUSH1 0x1 DUP3 ADD SLOAD DUP2 DUP6 ADD MSTORE PUSH1 0x2 DUP3 ADD DUP1 SLOAD DUP5 MLOAD DUP2 DUP8 MUL DUP2 ADD DUP8 ADD DUP7 MSTORE DUP2 DUP2 MSTORE SWAP3 SWAP6 SWAP4 SWAP5 DUP7 ADD SWAP4 DUP4 ADD DUP3 DUP3 DUP1 ISZERO PUSH2 0x4B5 JUMPI PUSH1 0x20 MUL DUP3 ADD SWAP2 SWAP1 PUSH1 0x0 MSTORE PUSH1 0x20 PUSH1 0x0 KECCAK256 SWAP1 JUMPDEST DUP2 SLOAD DUP2 MSTORE PUSH1 0x20 ADD SWAP1 PUSH1 0x1 ADD SWAP1 DUP1 DUP4 GT PUSH2 0x4A1 JUMPI JUMPDEST POP POP POP POP POP DUP2 MSTORE PUSH1 0x20 ADD PUSH1 0x3 DUP3 ADD DUP1 SLOAD DUP1 PUSH1 0x20 MUL PUSH1 0x20 ADD PUSH1 0x40 MLOAD SWAP1 DUP2 ADD PUSH1 0x40 MSTORE DUP1 SWAP3 SWAP2 SWAP1 DUP2 DUP2 MSTORE PUSH1 0x20 ADD DUP3 DUP1 SLOAD DUP1 ISZERO PUSH2 0x50D JUMPI PUSH1 0x20 MUL DUP3 ADD SWAP2 SWAP1 PUSH1 0x0 MSTORE PUSH1 0x20 PUSH1 0x0 KECCAK256 SWAP1 JUMPDEST DUP2 SLOAD DUP2 MSTORE PUSH1 0x20 ADD SWAP1 PUSH1 0x1 ADD SWAP1 DUP1 DUP4 GT PUSH2 0x4F9 JUMPI JUMPDEST POP POP POP POP POP DUP2 MSTORE PUSH1 0x20 ADD PUSH1 0x4 DUP3 ADD DUP1 SLOAD DUP1 PUSH1 0x20 MUL PUSH1 0x20 ADD PUSH1 0x40 MLOAD SWAP1 DUP2 ADD PUSH1 0x40 MSTORE DUP1 SWAP3 SWAP2 SWAP1 DUP2 DUP2 MSTORE PUSH1 0x20 ADD PUSH1 0x0 SWAP1 JUMPDEST DUP3 DUP3 LT ISZERO PUSH2 0x5BA JUMPI PUSH1 0x0 DUP5 DUP2 MSTORE PUSH1 0x20 SWAP1 DUP2 SWAP1 KECCAK256 PUSH1 0x40 DUP1 MLOAD PUSH1 0xC0 DUP2 ADD DUP3 MSTORE PUSH1 0x5 DUP7 MUL SWAP1 SWAP3 ADD DUP1 SLOAD DUP4 MSTORE PUSH1 0x1 DUP1 DUP3 ADD SLOAD DUP5 DUP7 ADD MSTORE PUSH1 0x2 DUP3 ADD SLOAD PUSH1 0x1 PUSH1 0x1 PUSH1 0x40 SHL SUB AND SWAP3 DUP5 ADD SWAP3 SWAP1 SWAP3 MSTORE PUSH1 0x3 DUP2 ADD SLOAD PUSH1 0x60 DUP5 ADD MSTORE PUSH1 0x4 ADD SLOAD PUSH4 0xFFFFFFFF DUP2 AND PUSH1 0x80 DUP5 ADD MSTORE PUSH1 0x1 PUSH1 0x20 SHL SWAP1 DIV PUSH1 0xFF AND ISZERO ISZERO PUSH1 0xA0 DUP4 ADD MSTORE SWAP1 DUP4 MSTORE SWAP1 SWAP3 ADD SWAP2 ADD PUSH2 0x53B JUMP JUMPDEST POP POP POP POP DUP2 MSTORE PUSH1 0x20 ADD PUSH1 0x5 DUP3 ADD DUP1 SLOAD DUP1 PUSH1 0x20 MUL PUSH1 0x20 ADD PUSH1 0x40 MLOAD SWAP1 DUP2 ADD PUSH1 0x40 MSTORE DUP1 SWAP3 SWAP2 SWAP1 DUP2 DUP2 MSTORE PUSH1 0x20 ADD DUP3 DUP1 SLOAD DUP1 ISZERO PUSH2 0x611 JUMPI PUSH1 0x20 MUL DUP3 ADD SWAP2 SWAP1 PUSH1 0x0 MSTORE PUSH1 0x20 PUSH1 0x0 KECCAK256 SWAP1 JUMPDEST DUP2 SLOAD DUP2 MSTORE PUSH1 0x20 ADD SWAP1 PUSH1 0x1 ADD SWAP1 DUP1 DUP4 GT PUSH2 0x5FD JUMPI JUMPDEST POP POP POP POP POP DUP2 MSTORE PUSH1 0x20 ADD PUSH1 0x6 DUP3 ADD PUSH1 0x0 SWAP1 SLOAD SWAP1 PUSH2 0x100 EXP SWAP1 DIV PUSH1 0xFF AND ISZERO ISZERO ISZERO ISZERO DUP2 MSTORE PUSH1 0x20 ADD PUSH1 0x7 DUP3 ADD SLOAD DUP2 MSTORE PUSH1 0x20 ADD PUSH1 0x8 DUP3 ADD SLOAD DUP2 MSTORE PUSH1 0x20 ADD PUSH1 0x9 DUP3 ADD SLOAD DUP2 MSTORE POP POP SWAP1 POP PUSH1 0x0 PUSH2 0x66E ADDRESS DUP4 PUSH1 0x20 ADD MLOAD DUP7 PUSH1 0xFF AND PUSH2 0x13E SWAP2 SWAP1 PUSH2 0x365B JUMP JUMPDEST GT PUSH2 0x68B JUMPI PUSH1 0x40 MLOAD PUSH3 0x461BCD PUSH1 0xE5 SHL DUP2 MSTORE PUSH1 0x4 ADD PUSH2 0x3B2 SWAP1 PUSH2 0x35C1 JUMP JUMPDEST PUSH1 0x0 PUSH2 0x697 DUP3 DUP6 PUSH2 0x1E55 JUMP JUMPDEST PUSH1 0x4 SLOAD DUP4 MLOAD SWAP2 SWAP3 POP PUSH1 0x1 PUSH1 0x1 PUSH1 0xA0 SHL SUB AND SWAP1 PUSH4 0x23B872DD SWAP1 CALLER SWAP1 PUSH2 0x6BB DUP8 DUP7 PUSH2 0x36D4 JUMP JUMPDEST PUSH1 0x40 MLOAD DUP5 PUSH4 0xFFFFFFFF AND PUSH1 0xE0 SHL DUP2 MSTORE PUSH1 0x4 ADD PUSH2 0x6D9 SWAP4 SWAP3 SWAP2 SWAP1 PUSH2 0x3429 JUMP JUMPDEST PUSH1 0x20 PUSH1 0x40 MLOAD DUP1 DUP4 SUB DUP2 PUSH1 0x0 DUP8 DUP1 EXTCODESIZE ISZERO DUP1 ISZERO PUSH2 0x6F3 JUMPI PUSH1 0x0 DUP1 REVERT JUMPDEST POP GAS CALL ISZERO DUP1 ISZERO PUSH2 0x707 JUMPI RETURNDATASIZE PUSH1 0x0 DUP1 RETURNDATACOPY RETURNDATASIZE PUSH1 0x0 REVERT JUMPDEST POP POP POP POP PUSH1 0x40 MLOAD RETURNDATASIZE PUSH1 0x1F NOT PUSH1 0x1F DUP3 ADD AND DUP3 ADD DUP1 PUSH1 0x40 MSTORE POP DUP2 ADD SWAP1 PUSH2 0x72B SWAP2 SWAP1 PUSH2 0x313E JUMP JUMPDEST POP PUSH2 0x75A ADDRESS CALLER DUP5 PUSH1 0x20 ADD MLOAD DUP8 PUSH1 0xFF AND PUSH2 0x744 SWAP2 SWAP1 PUSH2 0x365B JUMP JUMPDEST DUP7 PUSH1 0x40 MLOAD DUP1 PUSH1 0x20 ADD PUSH1 0x40 MSTORE DUP1 PUSH1 0x0 DUP2 MSTORE POP PUSH2 0x176F JUMP JUMPDEST POP POP POP POP POP JUMP JUMPDEST PUSH1 0x60 PUSH1 0x2 DUP1 SLOAD PUSH2 0x770 SWAP1 PUSH2 0x3788 JUMP JUMPDEST DUP1 PUSH1 0x1F ADD PUSH1 0x20 DUP1 SWAP2 DIV MUL PUSH1 0x20 ADD PUSH1 0x40 MLOAD SWAP1 DUP2 ADD PUSH1 0x40 MSTORE DUP1 SWAP3 SWAP2 SWAP1 DUP2 DUP2 MSTORE PUSH1 0x20 ADD DUP3 DUP1 SLOAD PUSH2 0x79C SWAP1 PUSH2 0x3788 JUMP JUMPDEST DUP1 ISZERO PUSH2 0x7E9 JUMPI DUP1 PUSH1 0x1F LT PUSH2 0x7BE JUMPI PUSH2 0x100 DUP1 DUP4 SLOAD DIV MUL DUP4 MSTORE SWAP2 PUSH1 0x20 ADD SWAP2 PUSH2 0x7E9 JUMP JUMPDEST DUP3 ADD SWAP2 SWAP1 PUSH1 0x0 MSTORE PUSH1 0x20 PUSH1 0x0 KECCAK256 SWAP1 JUMPDEST DUP2 SLOAD DUP2 MSTORE SWAP1 PUSH1 0x1 ADD SWAP1 PUSH1 0x20 ADD DUP1 DUP4 GT PUSH2 0x7CC JUMPI DUP3 SWAP1 SUB PUSH1 0x1F AND DUP3 ADD SWAP2 JUMPDEST POP POP POP POP POP SWAP1 POP SWAP2 SWAP1 POP JUMP JUMPDEST PUSH1 0x1 PUSH1 0x1 PUSH1 0xA0 SHL SUB DUP6 AND CALLER EQ DUP1 PUSH2 0x811 JUMPI POP PUSH2 0x811 DUP6 CALLER PUSH2 0x2CF JUMP JUMPDEST PUSH2 0x82D JUMPI PUSH1 0x40 MLOAD PUSH3 0x461BCD PUSH1 0xE5 SHL DUP2 MSTORE PUSH1 0x4 ADD PUSH2 0x3B2 SWAP1 PUSH2 0x352E JUMP JUMPDEST PUSH2 0x75A DUP6 DUP6 DUP6 DUP6 DUP6 PUSH2 0x1ECF JUMP JUMPDEST PUSH1 0x20 DUP8 LT PUSH2 0x87E JUMPI PUSH1 0x40 MLOAD PUSH3 0x461BCD PUSH1 0xE5 SHL DUP2 MSTORE PUSH1 0x20 PUSH1 0x4 DUP3 ADD MSTORE PUSH1 0x11 PUSH1 0x24 DUP3 ADD MSTORE PUSH17 0x546F6F206D616E79207472616E63686573 PUSH1 0x78 SHL PUSH1 0x44 DUP3 ADD MSTORE PUSH1 0x64 ADD PUSH2 0x3B2 JUMP JUMPDEST DUP7 DUP6 EQ PUSH2 0x8E8 JUMPI PUSH1 0x40 MLOAD PUSH3 0x461BCD PUSH1 0xE5 SHL DUP2 MSTORE PUSH1 0x20 PUSH1 0x4 DUP3 ADD MSTORE PUSH1 0x32 PUSH1 0x24 DUP3 ADD MSTORE PUSH32 0x4E756D626572206F6620696E74657265737420726174657320616E64206E6F74 PUSH1 0x44 DUP3 ADD MSTORE PUSH18 0xD2DEDCC2D8E640C8DEDC4EE840DAC2E8C6D PUSH1 0x73 SHL PUSH1 0x64 DUP3 ADD MSTORE PUSH1 0x84 ADD PUSH2 0x3B2 JUMP JUMPDEST PUSH1 0x9 SLOAD PUSH4 0xFFFFFFFF AND PUSH1 0x0 SWAP1 DUP2 MSTORE PUSH1 0x7 PUSH1 0x20 MSTORE PUSH1 0x40 DUP2 KECCAK256 SWAP1 JUMPDEST PUSH4 0xFFFFFFFF DUP2 AND DUP6 GT ISZERO PUSH2 0xB8A JUMPI PUSH1 0x0 DUP3 PUSH1 0x4 ADD DUP3 PUSH4 0xFFFFFFFF AND DUP2 SLOAD DUP2 LT PUSH2 0x93A JUMPI PUSH4 0x4E487B71 PUSH1 0xE0 SHL PUSH1 0x0 MSTORE PUSH1 0x32 PUSH1 0x4 MSTORE PUSH1 0x24 PUSH1 0x0 REVERT JUMPDEST SWAP1 PUSH1 0x0 MSTORE PUSH1 0x20 PUSH1 0x0 KECCAK256 SWAP1 PUSH1 0x5 MUL ADD SWAP1 POP DUP7 DUP7 DUP4 PUSH4 0xFFFFFFFF AND DUP2 DUP2 LT PUSH2 0x970 JUMPI PUSH4 0x4E487B71 PUSH1 0xE0 SHL PUSH1 0x0 MSTORE PUSH1 0x32 PUSH1 0x4 MSTORE PUSH1 0x24 PUSH1 0x0 REVERT JUMPDEST SWAP1 POP PUSH1 0x20 MUL ADD PUSH1 0x20 DUP2 ADD SWAP1 PUSH2 0x985 SWAP2 SWAP1 PUSH2 0x328D JUMP JUMPDEST PUSH1 0x4 DUP3 DUP2 ADD DUP1 SLOAD PUSH4 0xFFFFFFFF NOT AND PUSH4 0xFFFFFFFF SWAP4 SWAP1 SWAP4 AND SWAP3 DUP4 OR SWAP1 SSTORE PUSH1 0x5 SLOAD PUSH1 0x40 MLOAD PUSH4 0x44F9B43 PUSH1 0xE3 SHL DUP2 MSTORE SWAP2 DUP3 ADD SWAP3 SWAP1 SWAP3 MSTORE PUSH1 0x0 SWAP2 DUP3 SWAP2 DUP3 SWAP2 DUP3 SWAP2 DUP3 SWAP2 DUP3 SWAP2 PUSH1 0x1 PUSH1 0x1 PUSH1 0xA0 SHL SUB SWAP1 SWAP2 AND SWAP1 PUSH4 0x227CDA18 SWAP1 PUSH1 0x24 ADD PUSH2 0x160 PUSH1 0x40 MLOAD DUP1 DUP4 SUB DUP2 DUP7 DUP1 EXTCODESIZE ISZERO DUP1 ISZERO PUSH2 0x9F3 JUMPI PUSH1 0x0 DUP1 REVERT JUMPDEST POP GAS STATICCALL ISZERO DUP1 ISZERO PUSH2 0xA07 JUMPI RETURNDATASIZE PUSH1 0x0 DUP1 RETURNDATACOPY RETURNDATASIZE PUSH1 0x0 REVERT JUMPDEST POP POP POP POP PUSH1 0x40 MLOAD RETURNDATASIZE PUSH1 0x1F NOT PUSH1 0x1F DUP3 ADD AND DUP3 ADD DUP1 PUSH1 0x40 MSTORE POP DUP2 ADD SWAP1 PUSH2 0xA2B SWAP2 SWAP1 PUSH2 0x31C2 JUMP JUMPDEST SWAP1 SWAP2 SWAP3 SWAP4 SWAP5 SWAP6 SWAP7 POP SWAP1 SWAP2 SWAP3 SWAP4 SWAP5 POP SWAP1 SWAP2 SWAP3 POP POP DUP14 PUSH1 0x0 ADD PUSH1 0x0 DUP3 SWAP10 POP DUP4 SWAP11 POP DUP5 SWAP12 POP DUP6 SWAP13 POP DUP7 SWAP14 POP DUP8 SWAP15 POP DUP9 SWAP2 SWAP1 POP SSTORE POP POP POP POP POP POP POP DUP7 PUSH1 0x0 ADD SLOAD PUSH2 0x2710 DUP5 PUSH2 0x2710 PUSH2 0xA78 SWAP2 SWAP1 PUSH2 0x3722 JUMP JUMPDEST PUSH2 0xFFFF AND DUP10 PUSH1 0x0 ADD SLOAD DUP10 PUSH2 0xA8C SWAP2 SWAP1 PUSH2 0x3745 JUMP JUMPDEST PUSH2 0xA96 SWAP2 SWAP1 PUSH2 0x36D4 JUMP JUMPDEST PUSH2 0xAA0 SWAP2 SWAP1 PUSH2 0x36B4 JUMP JUMPDEST PUSH2 0xAAA SWAP2 SWAP1 PUSH2 0x365B JUMP JUMPDEST PUSH1 0x1 DUP9 ADD SSTORE PUSH2 0xABF PUSH4 0xFFFFFFFF DUP6 AND DUP4 PUSH2 0x3692 JUMP JUMPDEST PUSH1 0x2 DUP9 ADD DUP1 SLOAD PUSH8 0xFFFFFFFFFFFFFFFF NOT AND PUSH1 0x1 PUSH1 0x1 PUSH1 0x40 SHL SUB SWAP3 SWAP1 SWAP3 AND SWAP2 SWAP1 SWAP2 OR SWAP1 SSTORE PUSH2 0xAF0 PUSH3 0x15180 PUSH1 0x23 PUSH2 0x36F3 JUMP JUMPDEST PUSH2 0xB03 SWAP1 PUSH1 0x1 PUSH1 0x1 PUSH1 0x40 SHL SUB AND TIMESTAMP PUSH2 0x365B JUMP JUMPDEST PUSH1 0x3 SWAP1 SWAP8 ADD SWAP7 SWAP1 SWAP7 SSTORE POP POP PUSH1 0x40 DUP1 MLOAD DUP1 DUP3 ADD DUP3 MSTORE PUSH1 0x9 SLOAD PUSH4 0xFFFFFFFF SWAP1 DUP2 AND DUP3 MSTORE DUP8 DUP2 AND PUSH1 0x20 DUP1 DUP5 ADD SWAP2 DUP3 MSTORE PUSH1 0x1 PUSH1 0x1 PUSH1 0xA0 SHL SUB SWAP1 SWAP9 AND PUSH1 0x0 SWAP1 DUP2 MSTORE PUSH1 0x8 DUP10 MSTORE DUP5 DUP2 KECCAK256 SWAP7 DUP2 MSTORE SWAP6 SWAP1 SWAP8 MSTORE SWAP2 SWAP1 SWAP4 KECCAK256 SWAP3 MLOAD DUP4 SLOAD SWAP6 MLOAD DUP3 AND PUSH1 0x1 PUSH1 0x20 SHL MUL PUSH8 0xFFFFFFFFFFFFFFFF NOT SWAP1 SWAP7 AND SWAP2 AND OR SWAP4 SWAP1 SWAP4 OR SWAP1 SSTORE POP DUP2 SWAP1 POP PUSH2 0xB82 DUP2 PUSH2 0x380A JUMP JUMPDEST SWAP2 POP POP PUSH2 0x901 JUMP JUMPDEST POP DUP1 SLOAD PUSH1 0x1 PUSH1 0x1 PUSH1 0xA0 SHL SUB NOT AND CALLER OR DUP2 SSTORE PUSH1 0xA SLOAD PUSH1 0x1 DUP3 ADD SSTORE TIMESTAMP PUSH1 0x7 DUP3 ADD DUP2 SWAP1 SSTORE PUSH2 0xBB6 SWAP1 DUP5 SWAP1 PUSH2 0x365B JUMP JUMPDEST PUSH1 0x8 DUP3 ADD SSTORE PUSH1 0x9 DUP2 ADD DUP3 SWAP1 SSTORE PUSH1 0x0 JUMPDEST PUSH1 0xFF DUP2 AND DUP10 GT ISZERO PUSH2 0xC74 JUMPI DUP2 PUSH1 0x2 ADD DUP11 DUP11 DUP4 PUSH1 0xFF AND DUP2 DUP2 LT PUSH2 0xBF7 JUMPI PUSH4 0x4E487B71 PUSH1 0xE0 SHL PUSH1 0x0 MSTORE PUSH1 0x32 PUSH1 0x4 MSTORE PUSH1 0x24 PUSH1 0x0 REVERT JUMPDEST DUP4 SLOAD PUSH1 0x1 DUP2 ADD DUP6 SSTORE PUSH1 0x0 SWAP5 DUP6 MSTORE PUSH1 0x20 SWAP5 DUP6 SWAP1 KECCAK256 SWAP2 SWAP1 SWAP5 MUL SWAP3 SWAP1 SWAP3 ADD CALLDATALOAD SWAP2 SWAP1 SWAP3 ADD SSTORE POP PUSH1 0x3 DUP3 ADD DUP9 DUP9 PUSH1 0xFF DUP5 AND DUP2 DUP2 LT PUSH2 0xC40 JUMPI PUSH4 0x4E487B71 PUSH1 0xE0 SHL PUSH1 0x0 MSTORE PUSH1 0x32 PUSH1 0x4 MSTORE PUSH1 0x24 PUSH1 0x0 REVERT JUMPDEST DUP4 SLOAD PUSH1 0x1 DUP2 ADD DUP6 SSTORE PUSH1 0x0 SWAP5 DUP6 MSTORE PUSH1 0x20 SWAP5 DUP6 SWAP1 KECCAK256 SWAP2 SWAP1 SWAP5 MUL SWAP3 SWAP1 SWAP3 ADD CALLDATALOAD SWAP2 SWAP1 SWAP3 ADD SSTORE POP DUP1 PUSH2 0xC6C DUP2 PUSH2 0x382E JUMP JUMPDEST SWAP2 POP POP PUSH2 0xBC5 JUMP JUMPDEST POP PUSH1 0x9 DUP1 SLOAD PUSH1 0x1 SWAP2 SWAP1 PUSH1 0x0 SWAP1 PUSH2 0xC91 SWAP1 DUP5 SWAP1 PUSH4 0xFFFFFFFF AND PUSH2 0x3673 JUMP JUMPDEST SWAP3 POP PUSH2 0x100 EXP DUP2 SLOAD DUP2 PUSH4 0xFFFFFFFF MUL NOT AND SWAP1 DUP4 PUSH4 0xFFFFFFFF AND MUL OR SWAP1 SSTORE POP PUSH1 0x0 JUMPDEST PUSH1 0xFF DUP2 AND DUP8 GT ISZERO PUSH2 0xD23 JUMPI PUSH2 0xD11 ADDRESS PUSH1 0xA SLOAD DUP4 PUSH1 0xFF AND PUSH2 0xCD2 SWAP2 SWAP1 PUSH2 0x365B JUMP JUMPDEST DUP11 DUP11 DUP6 PUSH1 0xFF AND DUP2 DUP2 LT PUSH2 0xCF5 JUMPI PUSH4 0x4E487B71 PUSH1 0xE0 SHL PUSH1 0x0 MSTORE PUSH1 0x32 PUSH1 0x4 MSTORE PUSH1 0x24 PUSH1 0x0 REVERT JUMPDEST SWAP1 POP PUSH1 0x20 MUL ADD CALLDATALOAD PUSH1 0x40 MLOAD DUP1 PUSH1 0x20 ADD PUSH1 0x40 MSTORE DUP1 PUSH1 0x0 DUP2 MSTORE POP PUSH2 0x20D6 JUMP JUMPDEST DUP1 PUSH2 0xD1B DUP2 PUSH2 0x382E JUMP JUMPDEST SWAP2 POP POP PUSH2 0xCB2 JUMP JUMPDEST POP PUSH1 0xA SLOAD PUSH2 0xD4F SWAP1 ADDRESS SWAP1 PUSH2 0xD38 SWAP1 DUP10 SWAP1 PUSH2 0x365B JUMP JUMPDEST PUSH1 0x1 PUSH1 0x40 MLOAD DUP1 PUSH1 0x20 ADD PUSH1 0x40 MSTORE DUP1 PUSH1 0x0 DUP2 MSTORE POP PUSH2 0x20D6 JUMP JUMPDEST PUSH2 0xD5A DUP7 PUSH1 0x1 PUSH2 0x365B JUMP JUMPDEST PUSH1 0xA PUSH1 0x0 DUP3 DUP3 SLOAD PUSH2 0xD6B SWAP2 SWAP1 PUSH2 0x365B JUMP JUMPDEST SWAP1 SWAP2 SSTORE POP POP POP POP POP POP POP POP POP POP POP JUMP JUMPDEST PUSH1 0x60 DUP2 MLOAD DUP4 MLOAD EQ PUSH2 0xDE0 JUMPI PUSH1 0x40 MLOAD PUSH3 0x461BCD PUSH1 0xE5 SHL DUP2 MSTORE PUSH1 0x20 PUSH1 0x4 DUP3 ADD MSTORE PUSH1 0x29 PUSH1 0x24 DUP3 ADD MSTORE PUSH32 0x455243313135353A206163636F756E747320616E6420696473206C656E677468 PUSH1 0x44 DUP3 ADD MSTORE PUSH9 0x40DAD2E6DAC2E8C6D PUSH1 0xBB SHL PUSH1 0x64 DUP3 ADD MSTORE PUSH1 0x84 ADD PUSH2 0x3B2 JUMP JUMPDEST PUSH1 0x0 DUP4 MLOAD PUSH1 0x1 PUSH1 0x1 PUSH1 0x40 SHL SUB DUP2 GT ISZERO PUSH2 0xE09 JUMPI PUSH4 0x4E487B71 PUSH1 0xE0 SHL PUSH1 0x0 MSTORE PUSH1 0x41 PUSH1 0x4 MSTORE PUSH1 0x24 PUSH1 0x0 REVERT JUMPDEST PUSH1 0x40 MLOAD SWAP1 DUP1 DUP3 MSTORE DUP1 PUSH1 0x20 MUL PUSH1 0x20 ADD DUP3 ADD PUSH1 0x40 MSTORE DUP1 ISZERO PUSH2 0xE32 JUMPI DUP2 PUSH1 0x20 ADD PUSH1 0x20 DUP3 MUL DUP1 CALLDATASIZE DUP4 CALLDATACOPY ADD SWAP1 POP JUMPDEST POP SWAP1 POP PUSH1 0x0 JUMPDEST DUP5 MLOAD DUP2 LT ISZERO PUSH2 0xED4 JUMPI PUSH2 0xE99 DUP6 DUP3 DUP2 MLOAD DUP2 LT PUSH2 0xE64 JUMPI PUSH4 0x4E487B71 PUSH1 0xE0 SHL PUSH1 0x0 MSTORE PUSH1 0x32 PUSH1 0x4 MSTORE PUSH1 0x24 PUSH1 0x0 REVERT JUMPDEST PUSH1 0x20 MUL PUSH1 0x20 ADD ADD MLOAD DUP6 DUP4 DUP2 MLOAD DUP2 LT PUSH2 0xE8C JUMPI PUSH4 0x4E487B71 PUSH1 0xE0 SHL PUSH1 0x0 MSTORE PUSH1 0x32 PUSH1 0x4 MSTORE PUSH1 0x24 PUSH1 0x0 REVERT JUMPDEST PUSH1 0x20 MUL PUSH1 0x20 ADD ADD MLOAD PUSH2 0x34B JUMP JUMPDEST DUP3 DUP3 DUP2 MLOAD DUP2 LT PUSH2 0xEB9 JUMPI PUSH4 0x4E487B71 PUSH1 0xE0 SHL PUSH1 0x0 MSTORE PUSH1 0x32 PUSH1 0x4 MSTORE PUSH1 0x24 PUSH1 0x0 REVERT JUMPDEST PUSH1 0x20 SWAP1 DUP2 MUL SWAP2 SWAP1 SWAP2 ADD ADD MSTORE PUSH2 0xECD DUP2 PUSH2 0x37EF JUMP JUMPDEST SWAP1 POP PUSH2 0xE38 JUMP JUMPDEST POP SWAP4 SWAP3 POP POP POP JUMP JUMPDEST PUSH4 0xFFFFFFFF DUP3 AND PUSH1 0x0 SWAP1 DUP2 MSTORE PUSH1 0x7 PUSH1 0x20 SWAP1 DUP2 MSTORE PUSH1 0x40 DUP1 DUP4 KECCAK256 DUP2 MLOAD PUSH2 0x140 DUP2 ADD DUP4 MSTORE DUP2 SLOAD PUSH1 0x1 PUSH1 0x1 PUSH1 0xA0 SHL SUB AND DUP2 MSTORE PUSH1 0x1 DUP3 ADD SLOAD DUP2 DUP6 ADD MSTORE PUSH1 0x2 DUP3 ADD DUP1 SLOAD DUP5 MLOAD DUP2 DUP8 MUL DUP2 ADD DUP8 ADD DUP7 MSTORE DUP2 DUP2 MSTORE DUP8 SWAP7 SWAP4 SWAP6 DUP7 ADD SWAP4 SWAP1 SWAP3 SWAP2 SWAP1 DUP4 ADD DUP3 DUP3 DUP1 ISZERO PUSH2 0xF61 JUMPI PUSH1 0x20 MUL DUP3 ADD SWAP2 SWAP1 PUSH1 0x0 MSTORE PUSH1 0x20 PUSH1 0x0 KECCAK256 SWAP1 JUMPDEST DUP2 SLOAD DUP2 MSTORE PUSH1 0x20 ADD SWAP1 PUSH1 0x1 ADD SWAP1 DUP1 DUP4 GT PUSH2 0xF4D JUMPI JUMPDEST POP POP POP POP POP DUP2 MSTORE PUSH1 0x20 ADD PUSH1 0x3 DUP3 ADD DUP1 SLOAD DUP1 PUSH1 0x20 MUL PUSH1 0x20 ADD PUSH1 0x40 MLOAD SWAP1 DUP2 ADD PUSH1 0x40 MSTORE DUP1 SWAP3 SWAP2 SWAP1 DUP2 DUP2 MSTORE PUSH1 0x20 ADD DUP3 DUP1 SLOAD DUP1 ISZERO PUSH2 0xFB9 JUMPI PUSH1 0x20 MUL DUP3 ADD SWAP2 SWAP1 PUSH1 0x0 MSTORE PUSH1 0x20 PUSH1 0x0 KECCAK256 SWAP1 JUMPDEST DUP2 SLOAD DUP2 MSTORE PUSH1 0x20 ADD SWAP1 PUSH1 0x1 ADD SWAP1 DUP1 DUP4 GT PUSH2 0xFA5 JUMPI JUMPDEST POP POP POP POP POP DUP2 MSTORE PUSH1 0x20 ADD PUSH1 0x4 DUP3 ADD DUP1 SLOAD DUP1 PUSH1 0x20 MUL PUSH1 0x20 ADD PUSH1 0x40 MLOAD SWAP1 DUP2 ADD PUSH1 0x40 MSTORE DUP1 SWAP3 SWAP2 SWAP1 DUP2 DUP2 MSTORE PUSH1 0x20 ADD PUSH1 0x0 SWAP1 JUMPDEST DUP3 DUP3 LT ISZERO PUSH2 0x1066 JUMPI PUSH1 0x0 DUP5 DUP2 MSTORE PUSH1 0x20 SWAP1 DUP2 SWAP1 KECCAK256 PUSH1 0x40 DUP1 MLOAD PUSH1 0xC0 DUP2 ADD DUP3 MSTORE PUSH1 0x5 DUP7 MUL SWAP1 SWAP3 ADD DUP1 SLOAD DUP4 MSTORE PUSH1 0x1 DUP1 DUP3 ADD SLOAD DUP5 DUP7 ADD MSTORE PUSH1 0x2 DUP3 ADD SLOAD PUSH1 0x1 PUSH1 0x1 PUSH1 0x40 SHL SUB AND SWAP3 DUP5 ADD SWAP3 SWAP1 SWAP3 MSTORE PUSH1 0x3 DUP2 ADD SLOAD PUSH1 0x60 DUP5 ADD MSTORE PUSH1 0x4 ADD SLOAD PUSH4 0xFFFFFFFF DUP2 AND PUSH1 0x80 DUP5 ADD MSTORE PUSH1 0x1 PUSH1 0x20 SHL SWAP1 DIV PUSH1 0xFF AND ISZERO ISZERO PUSH1 0xA0 DUP4 ADD MSTORE SWAP1 DUP4 MSTORE SWAP1 SWAP3 ADD SWAP2 ADD PUSH2 0xFE7 JUMP JUMPDEST POP POP POP POP DUP2 MSTORE PUSH1 0x20 ADD PUSH1 0x5 DUP3 ADD DUP1 SLOAD DUP1 PUSH1 0x20 MUL PUSH1 0x20 ADD PUSH1 0x40 MLOAD SWAP1 DUP2 ADD PUSH1 0x40 MSTORE DUP1 SWAP3 SWAP2 SWAP1 DUP2 DUP2 MSTORE PUSH1 0x20 ADD DUP3 DUP1 SLOAD DUP1 ISZERO PUSH2 0x10BD JUMPI PUSH1 0x20 MUL DUP3 ADD SWAP2 SWAP1 PUSH1 0x0 MSTORE PUSH1 0x20 PUSH1 0x0 KECCAK256 SWAP1 JUMPDEST DUP2 SLOAD DUP2 MSTORE PUSH1 0x20 ADD SWAP1 PUSH1 0x1 ADD SWAP1 DUP1 DUP4 GT PUSH2 0x10A9 JUMPI JUMPDEST POP POP POP SWAP2 DUP4 MSTORE POP POP PUSH1 0x6 DUP3 ADD SLOAD PUSH1 0xFF AND ISZERO ISZERO PUSH1 0x20 DUP3 ADD MSTORE PUSH1 0x7 DUP3 ADD SLOAD PUSH1 0x40 DUP3 ADD MSTORE PUSH1 0x8 DUP3 ADD SLOAD PUSH1 0x60 DUP3 ADD MSTORE PUSH1 0x9 SWAP1 SWAP2 ADD SLOAD PUSH1 0x80 SWAP1 SWAP2 ADD MSTORE SWAP1 POP PUSH1 0x0 PUSH2 0x1102 DUP3 DUP6 PUSH2 0x21E7 JUMP JUMPDEST GT PUSH2 0x111F JUMPI PUSH1 0x40 MLOAD PUSH3 0x461BCD PUSH1 0xE5 SHL DUP2 MSTORE PUSH1 0x4 ADD PUSH2 0x3B2 SWAP1 PUSH2 0x35C1 JUMP JUMPDEST PUSH2 0x1129 DUP2 DUP5 PUSH2 0x1E55 JUMP JUMPDEST SWAP5 SWAP4 POP POP POP POP JUMP JUMPDEST PUSH2 0x113C CALLER DUP4 DUP4 PUSH2 0x2207 JUMP JUMPDEST POP POP JUMP JUMPDEST PUSH1 0x40 MLOAD PUSH3 0x461BCD PUSH1 0xE5 SHL DUP2 MSTORE PUSH1 0x20 PUSH1 0x4 DUP3 ADD MSTORE PUSH1 0x1B PUSH1 0x24 DUP3 ADD MSTORE PUSH32 0x45524331313535206261746368206E6F7420737570706F727465640000000000 PUSH1 0x44 DUP3 ADD MSTORE PUSH1 0x0 SWAP1 PUSH1 0x64 ADD PUSH2 0x3B2 JUMP JUMPDEST PUSH1 0x0 PUSH2 0x1197 DUP4 DUP4 PUSH2 0x22E8 JUMP JUMPDEST SWAP1 POP PUSH1 0x0 PUSH2 0x11B2 DUP3 PUSH1 0x0 ADD MLOAD DUP4 PUSH1 0x40 ADD MLOAD DUP5 PUSH1 0x60 ADD MLOAD PUSH2 0x2409 JUMP JUMPDEST PUSH1 0x4 DUP1 SLOAD PUSH1 0x40 MLOAD PUSH4 0x6EB1769F PUSH1 0xE1 SHL DUP2 MSTORE ADDRESS SWAP3 DUP2 ADD SWAP3 SWAP1 SWAP3 MSTORE CALLER PUSH1 0x24 DUP4 ADD MSTORE SWAP2 SWAP3 POP PUSH1 0x1 PUSH1 0x1 PUSH1 0xA0 SHL SUB SWAP1 SWAP2 AND SWAP1 DUP3 SWAP1 DUP3 SWAP1 PUSH4 0xDD62ED3E SWAP1 PUSH1 0x44 ADD PUSH1 0x20 PUSH1 0x40 MLOAD DUP1 DUP4 SUB DUP2 DUP7 DUP1 EXTCODESIZE ISZERO DUP1 ISZERO PUSH2 0x1205 JUMPI PUSH1 0x0 DUP1 REVERT JUMPDEST POP GAS STATICCALL ISZERO DUP1 ISZERO PUSH2 0x1219 JUMPI RETURNDATASIZE PUSH1 0x0 DUP1 RETURNDATACOPY RETURNDATASIZE PUSH1 0x0 REVERT JUMPDEST POP POP POP POP PUSH1 0x40 MLOAD RETURNDATASIZE PUSH1 0x1F NOT PUSH1 0x1F DUP3 ADD AND DUP3 ADD DUP1 PUSH1 0x40 MSTORE POP DUP2 ADD SWAP1 PUSH2 0x123D SWAP2 SWAP1 PUSH2 0x31AA JUMP JUMPDEST LT ISZERO PUSH2 0x129B JUMPI PUSH1 0x40 MLOAD PUSH3 0x461BCD PUSH1 0xE5 SHL DUP2 MSTORE PUSH1 0x20 PUSH1 0x4 DUP3 ADD MSTORE PUSH1 0x27 PUSH1 0x24 DUP3 ADD MSTORE PUSH32 0x4469646E277420617070726F766520656E6F756768207745544820746F206C69 PUSH1 0x44 DUP3 ADD MSTORE PUSH7 0x71756964617465 PUSH1 0xC8 SHL PUSH1 0x64 DUP3 ADD MSTORE PUSH1 0x84 ADD PUSH2 0x3B2 JUMP JUMPDEST PUSH1 0x5 SLOAD PUSH1 0x80 DUP5 ADD MLOAD PUSH1 0x40 MLOAD PUSH4 0x2CC7B075 PUSH1 0xE2 SHL DUP2 MSTORE PUSH4 0xFFFFFFFF SWAP1 SWAP2 AND PUSH1 0x4 DUP3 ADD MSTORE PUSH1 0x1 PUSH1 0x1 PUSH1 0xA0 SHL SUB SWAP1 SWAP2 AND SWAP1 PUSH4 0xB31EC1D4 SWAP1 PUSH1 0x24 ADD PUSH1 0x0 PUSH1 0x40 MLOAD DUP1 DUP4 SUB DUP2 PUSH1 0x0 DUP8 DUP1 EXTCODESIZE ISZERO DUP1 ISZERO PUSH2 0x12EC JUMPI PUSH1 0x0 DUP1 REVERT JUMPDEST POP GAS CALL ISZERO DUP1 ISZERO PUSH2 0x1300 JUMPI RETURNDATASIZE PUSH1 0x0 DUP1 RETURNDATACOPY RETURNDATASIZE PUSH1 0x0 REVERT JUMPDEST POP POP PUSH1 0x40 MLOAD PUSH4 0x23B872DD PUSH1 0xE0 SHL DUP2 MSTORE PUSH1 0x1 PUSH1 0x1 PUSH1 0xA0 SHL SUB DUP5 AND SWAP3 POP PUSH4 0x23B872DD SWAP2 POP PUSH2 0x1334 SWAP1 CALLER SWAP1 ADDRESS SWAP1 DUP8 SWAP1 PUSH1 0x4 ADD PUSH2 0x3429 JUMP JUMPDEST PUSH1 0x20 PUSH1 0x40 MLOAD DUP1 DUP4 SUB DUP2 PUSH1 0x0 DUP8 DUP1 EXTCODESIZE ISZERO DUP1 ISZERO PUSH2 0x134E JUMPI PUSH1 0x0 DUP1 REVERT JUMPDEST POP GAS CALL ISZERO DUP1 ISZERO PUSH2 0x1362 JUMPI RETURNDATASIZE PUSH1 0x0 DUP1 RETURNDATACOPY RETURNDATASIZE PUSH1 0x0 REVERT JUMPDEST POP POP POP POP PUSH1 0x40 MLOAD RETURNDATASIZE PUSH1 0x1F NOT PUSH1 0x1F DUP3 ADD AND DUP3 ADD DUP1 PUSH1 0x40 MSTORE POP DUP2 ADD SWAP1 PUSH2 0x1386 SWAP2 SWAP1 PUSH2 0x313E JUMP JUMPDEST POP PUSH1 0x40 MLOAD PUSH4 0x23B872DD PUSH1 0xE0 SHL DUP2 MSTORE PUSH1 0x1 PUSH1 0x1 PUSH1 0xA0 SHL SUB DUP7 AND SWAP1 PUSH4 0x23B872DD SWAP1 PUSH2 0x13B7 SWAP1 ADDRESS SWAP1 CALLER SWAP1 DUP10 SWAP1 PUSH1 0x4 ADD PUSH2 0x3429 JUMP JUMPDEST PUSH1 0x0 PUSH1 0x40 MLOAD DUP1 DUP4 SUB DUP2 PUSH1 0x0 DUP8 DUP1 EXTCODESIZE ISZERO DUP1 ISZERO PUSH2 0x13D1 JUMPI PUSH1 0x0 DUP1 REVERT JUMPDEST POP GAS CALL ISZERO DUP1 ISZERO PUSH2 0x13E5 JUMPI RETURNDATASIZE PUSH1 0x0 DUP1 RETURNDATACOPY RETURNDATASIZE PUSH1 0x0 REVERT JUMPDEST POP POP POP POP PUSH1 0x20 SWAP1 SWAP3 ADD MSTORE POP POP POP JUMP JUMPDEST PUSH1 0x0 DUP1 PUSH2 0x1401 DUP5 DUP5 PUSH2 0x22E8 JUMP JUMPDEST SWAP1 POP DUP1 PUSH1 0x40 ADD MLOAD PUSH1 0x1 PUSH1 0x1 PUSH1 0x40 SHL SUB AND TIMESTAMP GT PUSH2 0x1456 JUMPI PUSH1 0x40 MLOAD PUSH3 0x461BCD PUSH1 0xE5 SHL DUP2 MSTORE PUSH1 0x20 PUSH1 0x4 DUP3 ADD MSTORE PUSH1 0x14 PUSH1 0x24 DUP3 ADD MSTORE PUSH20 0x131BD85B881B9BDD08195E1C1A5C9959081E595D PUSH1 0x62 SHL PUSH1 0x44 DUP3 ADD MSTORE PUSH1 0x64 ADD PUSH2 0x3B2 JUMP JUMPDEST PUSH1 0x5 SLOAD PUSH1 0x80 DUP3 ADD MLOAD PUSH1 0x40 MLOAD PUSH4 0x38BF9D5 PUSH1 0xE1 SHL DUP2 MSTORE PUSH4 0xFFFFFFFF SWAP1 SWAP2 AND PUSH1 0x4 DUP3 ADD MSTORE PUSH1 0x1 PUSH1 0x1 PUSH1 0xA0 SHL SUB SWAP1 SWAP2 AND SWAP1 PUSH4 0x717F3AA SWAP1 PUSH1 0x24 ADD PUSH1 0x20 PUSH1 0x40 MLOAD DUP1 DUP4 SUB DUP2 DUP7 DUP1 EXTCODESIZE ISZERO DUP1 ISZERO PUSH2 0x14A5 JUMPI PUSH1 0x0 DUP1 REVERT JUMPDEST POP GAS STATICCALL ISZERO DUP1 ISZERO PUSH2 0x14B9 JUMPI RETURNDATASIZE PUSH1 0x0 DUP1 RETURNDATACOPY RETURNDATASIZE PUSH1 0x0 REVERT JUMPDEST POP POP POP POP PUSH1 0x40 MLOAD RETURNDATASIZE PUSH1 0x1F NOT PUSH1 0x1F DUP3 ADD AND DUP3 ADD DUP1 PUSH1 0x40 MSTORE POP DUP2 ADD SWAP1 PUSH2 0x14DD SWAP2 SWAP1 PUSH2 0x313E JUMP JUMPDEST ISZERO PUSH2 0x1534 JUMPI PUSH1 0x40 MLOAD PUSH3 0x461BCD PUSH1 0xE5 SHL DUP2 MSTORE PUSH1 0x20 PUSH1 0x4 DUP3 ADD MSTORE PUSH1 0x21 PUSH1 0x24 DUP3 ADD MSTORE PUSH32 0x4C6F616E20616C726561647920726570616964206F72206C6971756964617465 PUSH1 0x44 DUP3 ADD MSTORE PUSH1 0x19 PUSH1 0xFA SHL PUSH1 0x64 DUP3 ADD MSTORE PUSH1 0x84 ADD PUSH2 0x3B2 JUMP JUMPDEST PUSH2 0x1129 DUP2 PUSH1 0x0 ADD MLOAD DUP3 PUSH1 0x40 ADD MLOAD DUP4 PUSH1 0x60 ADD MLOAD PUSH2 0x2409 JUMP JUMPDEST PUSH4 0xFFFFFFFF DUP3 AND PUSH1 0x0 SWAP1 DUP2 MSTORE PUSH1 0x7 PUSH1 0x20 SWAP1 DUP2 MSTORE PUSH1 0x40 DUP1 DUP4 KECCAK256 DUP2 MLOAD PUSH2 0x140 DUP2 ADD DUP4 MSTORE DUP2 SLOAD PUSH1 0x1 PUSH1 0x1 PUSH1 0xA0 SHL SUB AND DUP2 MSTORE PUSH1 0x1 DUP3 ADD SLOAD DUP2 DUP6 ADD MSTORE PUSH1 0x2 DUP3 ADD DUP1 SLOAD DUP5 MLOAD DUP2 DUP8 MUL DUP2 ADD DUP8 ADD DUP7 MSTORE DUP2 DUP2 MSTORE DUP8 SWAP7 SWAP4 SWAP6 DUP7 ADD SWAP4 SWAP1 SWAP3 SWAP2 SWAP1 DUP4 ADD DUP3 DUP3 DUP1 ISZERO PUSH2 0x15D0 JUMPI PUSH1 0x20 MUL DUP3 ADD SWAP2 SWAP1 PUSH1 0x0 MSTORE PUSH1 0x20 PUSH1 0x0 KECCAK256 SWAP1 JUMPDEST DUP2 SLOAD DUP2 MSTORE PUSH1 0x20 ADD SWAP1 PUSH1 0x1 ADD SWAP1 DUP1 DUP4 GT PUSH2 0x15BC JUMPI JUMPDEST POP POP POP POP POP DUP2 MSTORE PUSH1 0x20 ADD PUSH1 0x3 DUP3 ADD DUP1 SLOAD DUP1 PUSH1 0x20 MUL PUSH1 0x20 ADD PUSH1 0x40 MLOAD SWAP1 DUP2 ADD PUSH1 0x40 MSTORE DUP1 SWAP3 SWAP2 SWAP1 DUP2 DUP2 MSTORE PUSH1 0x20 ADD DUP3 DUP1 SLOAD DUP1 ISZERO PUSH2 0x1628 JUMPI PUSH1 0x20 MUL DUP3 ADD SWAP2 SWAP1 PUSH1 0x0 MSTORE PUSH1 0x20 PUSH1 0x0 KECCAK256 SWAP1 JUMPDEST DUP2 SLOAD DUP2 MSTORE PUSH1 0x20 ADD SWAP1 PUSH1 0x1 ADD SWAP1 DUP1 DUP4 GT PUSH2 0x1614 JUMPI JUMPDEST POP POP POP POP POP DUP2 MSTORE PUSH1 0x20 ADD PUSH1 0x4 DUP3 ADD DUP1 SLOAD DUP1 PUSH1 0x20 MUL PUSH1 0x20 ADD PUSH1 0x40 MLOAD SWAP1 DUP2 ADD PUSH1 0x40 MSTORE DUP1 SWAP3 SWAP2 SWAP1 DUP2 DUP2 MSTORE PUSH1 0x20 ADD PUSH1 0x0 SWAP1 JUMPDEST DUP3 DUP3 LT ISZERO PUSH2 0x16D5 JUMPI PUSH1 0x0 DUP5 DUP2 MSTORE PUSH1 0x20 SWAP1 DUP2 SWAP1 KECCAK256 PUSH1 0x40 DUP1 MLOAD PUSH1 0xC0 DUP2 ADD DUP3 MSTORE PUSH1 0x5 DUP7 MUL SWAP1 SWAP3 ADD DUP1 SLOAD DUP4 MSTORE PUSH1 0x1 DUP1 DUP3 ADD SLOAD DUP5 DUP7 ADD MSTORE PUSH1 0x2 DUP3 ADD SLOAD PUSH1 0x1 PUSH1 0x1 PUSH1 0x40 SHL SUB AND SWAP3 DUP5 ADD SWAP3 SWAP1 SWAP3 MSTORE PUSH1 0x3 DUP2 ADD SLOAD PUSH1 0x60 DUP5 ADD MSTORE PUSH1 0x4 ADD SLOAD PUSH4 0xFFFFFFFF DUP2 AND PUSH1 0x80 DUP5 ADD MSTORE PUSH1 0x1 PUSH1 0x20 SHL SWAP1 DIV PUSH1 0xFF AND ISZERO ISZERO PUSH1 0xA0 DUP4 ADD MSTORE SWAP1 DUP4 MSTORE SWAP1 SWAP3 ADD SWAP2 ADD PUSH2 0x1656 JUMP JUMPDEST POP POP POP POP DUP2 MSTORE PUSH1 0x20 ADD PUSH1 0x5 DUP3 ADD DUP1 SLOAD DUP1 PUSH1 0x20 MUL PUSH1 0x20 ADD PUSH1 0x40 MLOAD SWAP1 DUP2 ADD PUSH1 0x40 MSTORE DUP1 SWAP3 SWAP2 SWAP1 DUP2 DUP2 MSTORE PUSH1 0x20 ADD DUP3 DUP1 SLOAD DUP1 ISZERO PUSH2 0x172C JUMPI PUSH1 0x20 MUL DUP3 ADD SWAP2 SWAP1 PUSH1 0x0 MSTORE PUSH1 0x20 PUSH1 0x0 KECCAK256 SWAP1 JUMPDEST DUP2 SLOAD DUP2 MSTORE PUSH1 0x20 ADD SWAP1 PUSH1 0x1 ADD SWAP1 DUP1 DUP4 GT PUSH2 0x1718 JUMPI JUMPDEST POP POP POP SWAP2 DUP4 MSTORE POP POP PUSH1 0x6 DUP3 ADD SLOAD PUSH1 0xFF AND ISZERO ISZERO PUSH1 0x20 DUP3 ADD MSTORE PUSH1 0x7 DUP3 ADD SLOAD PUSH1 0x40 DUP3 ADD MSTORE PUSH1 0x8 DUP3 ADD SLOAD PUSH1 0x60 DUP3 ADD MSTORE PUSH1 0x9 SWAP1 SWAP2 ADD SLOAD PUSH1 0x80 SWAP1 SWAP2 ADD MSTORE SWAP1 POP PUSH2 0x1129 DUP2 DUP5 PUSH2 0x21E7 JUMP JUMPDEST PUSH1 0x1 PUSH1 0x1 PUSH1 0xA0 SHL SUB DUP6 AND CALLER EQ DUP1 PUSH2 0x178B JUMPI POP PUSH2 0x178B DUP6 CALLER PUSH2 0x2CF JUMP JUMPDEST PUSH2 0x17A7 JUMPI PUSH1 0x40 MLOAD PUSH3 0x461BCD PUSH1 0xE5 SHL DUP2 MSTORE PUSH1 0x4 ADD PUSH2 0x3B2 SWAP1 PUSH2 0x352E JUMP JUMPDEST PUSH2 0x75A DUP6 DUP6 DUP6 DUP6 DUP6 PUSH2 0x2457 JUMP JUMPDEST PUSH1 0x40 DUP1 MLOAD DUP1 DUP3 ADD DUP3 MSTORE PUSH1 0x1 DUP1 DUP3 MSTORE PUSH1 0x1D PUSH1 0xFA SHL PUSH1 0x20 DUP1 DUP5 ADD SWAP2 SWAP1 SWAP2 MSTORE DUP4 MLOAD SWAP1 DUP2 ADD DUP3 SWAP1 MSTORE PUSH1 0x1 PUSH1 0xF8 SHL DUP2 DUP6 ADD MSTORE DUP4 MLOAD PUSH1 0x21 DUP2 DUP4 SUB ADD DUP2 MSTORE PUSH1 0x41 DUP3 ADD SWAP1 SWAP5 MSTORE PUSH1 0x0 SWAP4 SWAP2 SWAP3 SWAP2 DUP4 SWAP2 PUSH2 0x1808 SWAP1 DUP5 SWAP1 PUSH1 0x61 ADD PUSH2 0x33AF JUMP JUMPDEST PUSH1 0x40 DUP1 MLOAD PUSH1 0x1F NOT DUP2 DUP5 SUB ADD DUP2 MSTORE SWAP1 DUP3 SWAP1 MSTORE PUSH2 0x1826 SWAP3 SWAP2 PUSH1 0x20 ADD PUSH2 0x3380 JUMP JUMPDEST PUSH1 0x40 MLOAD PUSH1 0x20 DUP2 DUP4 SUB SUB DUP2 MSTORE SWAP1 PUSH1 0x40 MSTORE DUP1 MLOAD SWAP1 PUSH1 0x20 ADD KECCAK256 SWAP4 POP POP POP POP SWAP1 JUMP JUMPDEST PUSH4 0xFFFFFFFF DUP2 AND PUSH1 0x0 SWAP1 DUP2 MSTORE PUSH1 0x7 PUSH1 0x20 MSTORE PUSH1 0x40 SWAP1 KECCAK256 PUSH1 0x8 DUP2 ADD SLOAD TIMESTAMP GT PUSH2 0x18B7 JUMPI PUSH1 0x40 MLOAD PUSH3 0x461BCD PUSH1 0xE5 SHL DUP2 MSTORE PUSH1 0x20 PUSH1 0x4 DUP3 ADD MSTORE PUSH1 0x22 PUSH1 0x24 DUP3 ADD MSTORE PUSH32 0x546F6B656E206E6F742079657420726561647920666F7220726564656D707469 PUSH1 0x44 DUP3 ADD MSTORE PUSH2 0x37B7 PUSH1 0xF1 SHL PUSH1 0x64 DUP3 ADD MSTORE PUSH1 0x84 ADD PUSH2 0x3B2 JUMP JUMPDEST PUSH1 0x4 SLOAD PUSH1 0x6 DUP3 ADD SLOAD PUSH1 0x1 PUSH1 0x1 PUSH1 0xA0 SHL SUB SWAP1 SWAP2 AND SWAP1 PUSH1 0xFF AND PUSH2 0x1CEC JUMPI PUSH1 0x5 SLOAD PUSH1 0x1 PUSH1 0x1 PUSH1 0xA0 SHL SUB AND PUSH1 0x0 DUP1 JUMPDEST PUSH1 0x4 DUP6 ADD SLOAD PUSH4 0xFFFFFFFF DUP3 AND LT ISZERO PUSH2 0x1A65 JUMPI DUP5 PUSH1 0x4 ADD DUP2 PUSH4 0xFFFFFFFF AND DUP2 SLOAD DUP2 LT PUSH2 0x191D JUMPI PUSH4 0x4E487B71 PUSH1 0xE0 SHL PUSH1 0x0 MSTORE PUSH1 0x32 PUSH1 0x4 MSTORE PUSH1 0x24 PUSH1 0x0 REVERT JUMPDEST SWAP1 PUSH1 0x0 MSTORE PUSH1 0x20 PUSH1 0x0 KECCAK256 SWAP1 PUSH1 0x5 MUL ADD PUSH1 0x4 ADD PUSH1 0x4 SWAP1 SLOAD SWAP1 PUSH2 0x100 EXP SWAP1 DIV PUSH1 0xFF AND DUP1 PUSH2 0x1A05 JUMPI POP DUP3 PUSH1 0x1 PUSH1 0x1 PUSH1 0xA0 SHL SUB AND PUSH4 0x717F3AA DUP7 PUSH1 0x4 ADD DUP4 PUSH4 0xFFFFFFFF AND DUP2 SLOAD DUP2 LT PUSH2 0x197A JUMPI PUSH4 0x4E487B71 PUSH1 0xE0 SHL PUSH1 0x0 MSTORE PUSH1 0x32 PUSH1 0x4 MSTORE PUSH1 0x24 PUSH1 0x0 REVERT JUMPDEST PUSH1 0x0 SWAP2 DUP3 MSTORE PUSH1 0x20 SWAP1 SWAP2 KECCAK256 PUSH1 0x4 PUSH1 0x5 SWAP1 SWAP3 MUL ADD DUP2 ADD SLOAD PUSH1 0x40 MLOAD PUSH1 0x1 PUSH1 0x1 PUSH1 0xE0 SHL SUB NOT PUSH1 0xE0 DUP6 SWAP1 SHL AND DUP2 MSTORE PUSH4 0xFFFFFFFF SWAP1 SWAP2 AND SWAP2 DUP2 ADD SWAP2 SWAP1 SWAP2 MSTORE PUSH1 0x24 ADD PUSH1 0x20 PUSH1 0x40 MLOAD DUP1 DUP4 SUB DUP2 DUP7 DUP1 EXTCODESIZE ISZERO DUP1 ISZERO PUSH2 0x19CD JUMPI PUSH1 0x0 DUP1 REVERT JUMPDEST POP GAS STATICCALL ISZERO DUP1 ISZERO PUSH2 0x19E1 JUMPI RETURNDATASIZE PUSH1 0x0 DUP1 RETURNDATACOPY RETURNDATASIZE PUSH1 0x0 REVERT JUMPDEST POP POP POP POP PUSH1 0x40 MLOAD RETURNDATASIZE PUSH1 0x1F NOT PUSH1 0x1F DUP3 ADD AND DUP3 ADD DUP1 PUSH1 0x40 MSTORE POP DUP2 ADD SWAP1 PUSH2 0x1A05 SWAP2 SWAP1 PUSH2 0x313E JUMP JUMPDEST ISZERO PUSH2 0x1A53 JUMPI DUP5 PUSH1 0x4 ADD DUP2 PUSH4 0xFFFFFFFF AND DUP2 SLOAD DUP2 LT PUSH2 0x1A33 JUMPI PUSH4 0x4E487B71 PUSH1 0xE0 SHL PUSH1 0x0 MSTORE PUSH1 0x32 PUSH1 0x4 MSTORE PUSH1 0x24 PUSH1 0x0 REVERT JUMPDEST SWAP1 PUSH1 0x0 MSTORE PUSH1 0x20 PUSH1 0x0 KECCAK256 SWAP1 PUSH1 0x5 MUL ADD PUSH1 0x1 ADD SLOAD DUP3 PUSH2 0x1A50 SWAP2 SWAP1 PUSH2 0x365B JUMP JUMPDEST SWAP2 POP JUMPDEST DUP1 PUSH2 0x1A5D DUP2 PUSH2 0x380A JUMP JUMPDEST SWAP2 POP POP PUSH2 0x18E2 JUMP JUMPDEST POP PUSH2 0x1A78 PUSH8 0x16345785D8A0000 DUP3 PUSH2 0x3745 JUMP JUMPDEST SWAP1 POP PUSH1 0x0 JUMPDEST PUSH1 0x3 DUP6 ADD SLOAD PUSH1 0xFF DUP3 AND LT ISZERO PUSH2 0x1BAE JUMPI PUSH1 0x0 PUSH2 0x2710 DUP7 PUSH1 0x2 ADD DUP4 PUSH1 0xFF AND DUP2 SLOAD DUP2 LT PUSH2 0x1AB7 JUMPI PUSH4 0x4E487B71 PUSH1 0xE0 SHL PUSH1 0x0 MSTORE PUSH1 0x32 PUSH1 0x4 MSTORE PUSH1 0x24 PUSH1 0x0 REVERT JUMPDEST SWAP1 PUSH1 0x0 MSTORE PUSH1 0x20 PUSH1 0x0 KECCAK256 ADD SLOAD PUSH2 0x2710 PUSH2 0x1ACF SWAP2 SWAP1 PUSH2 0x365B JUMP JUMPDEST DUP8 PUSH1 0x3 ADD DUP5 PUSH1 0xFF AND DUP2 SLOAD DUP2 LT PUSH2 0x1AF5 JUMPI PUSH4 0x4E487B71 PUSH1 0xE0 SHL PUSH1 0x0 MSTORE PUSH1 0x32 PUSH1 0x4 MSTORE PUSH1 0x24 PUSH1 0x0 REVERT JUMPDEST SWAP1 PUSH1 0x0 MSTORE PUSH1 0x20 PUSH1 0x0 KECCAK256 ADD SLOAD PUSH2 0x1B0A SWAP2 SWAP1 PUSH2 0x36D4 JUMP JUMPDEST PUSH2 0x1B14 SWAP2 SWAP1 PUSH2 0x36B4 JUMP JUMPDEST SWAP1 POP DUP1 DUP4 LT PUSH2 0x1B61 JUMPI DUP1 DUP7 PUSH1 0x5 ADD DUP4 PUSH1 0xFF AND DUP2 SLOAD DUP2 LT PUSH2 0x1B44 JUMPI PUSH4 0x4E487B71 PUSH1 0xE0 SHL PUSH1 0x0 MSTORE PUSH1 0x32 PUSH1 0x4 MSTORE PUSH1 0x24 PUSH1 0x0 REVERT JUMPDEST PUSH1 0x0 SWAP2 DUP3 MSTORE PUSH1 0x20 SWAP1 SWAP2 KECCAK256 ADD SSTORE PUSH2 0x1B5A DUP2 DUP5 PUSH2 0x3745 JUMP JUMPDEST SWAP3 POP PUSH2 0x1B9B JUMP JUMPDEST DUP3 DUP7 PUSH1 0x5 ADD DUP4 PUSH1 0xFF AND DUP2 SLOAD DUP2 LT PUSH2 0x1B88 JUMPI PUSH4 0x4E487B71 PUSH1 0xE0 SHL PUSH1 0x0 MSTORE PUSH1 0x32 PUSH1 0x4 MSTORE PUSH1 0x24 PUSH1 0x0 REVERT JUMPDEST SWAP1 PUSH1 0x0 MSTORE PUSH1 0x20 PUSH1 0x0 KECCAK256 ADD DUP2 SWAP1 SSTORE POP PUSH1 0x0 SWAP3 POP JUMPDEST POP DUP1 PUSH2 0x1BA6 DUP2 PUSH2 0x382E JUMP JUMPDEST SWAP2 POP POP PUSH2 0x1A7D JUMP JUMPDEST POP DUP1 ISZERO PUSH2 0x1C52 JUMPI PUSH1 0x40 MLOAD PUSH4 0x70A08231 PUSH1 0xE0 SHL DUP2 MSTORE ADDRESS PUSH1 0x4 DUP3 ADD MSTORE PUSH1 0x5 DUP6 ADD SWAP1 PUSH2 0x1C3B SWAP1 PUSH1 0x1 PUSH1 0x1 PUSH1 0xA0 SHL SUB DUP7 AND SWAP1 PUSH4 0x70A08231 SWAP1 PUSH1 0x24 ADD PUSH1 0x20 PUSH1 0x40 MLOAD DUP1 DUP4 SUB DUP2 DUP7 DUP1 EXTCODESIZE ISZERO DUP1 ISZERO PUSH2 0x1BFD JUMPI PUSH1 0x0 DUP1 REVERT JUMPDEST POP GAS STATICCALL ISZERO DUP1 ISZERO PUSH2 0x1C11 JUMPI RETURNDATASIZE PUSH1 0x0 DUP1 RETURNDATACOPY RETURNDATASIZE PUSH1 0x0 REVERT JUMPDEST POP POP POP POP PUSH1 0x40 MLOAD RETURNDATASIZE PUSH1 0x1F NOT PUSH1 0x1F DUP3 ADD AND DUP3 ADD DUP1 PUSH1 0x40 MSTORE POP DUP2 ADD SWAP1 PUSH2 0x1C35 SWAP2 SWAP1 PUSH2 0x31AA JUMP JUMPDEST DUP4 PUSH2 0x257D JUMP JUMPDEST DUP2 SLOAD PUSH1 0x1 DUP2 ADD DUP4 SSTORE PUSH1 0x0 SWAP3 DUP4 MSTORE PUSH1 0x20 SWAP1 SWAP3 KECCAK256 SWAP1 SWAP2 ADD SSTORE JUMPDEST PUSH1 0x6 DUP5 ADD DUP1 SLOAD PUSH1 0xFF NOT AND PUSH1 0x1 OR SWAP1 SSTORE PUSH1 0x40 MLOAD PUSH4 0xA9059CBB PUSH1 0xE0 SHL DUP2 MSTORE CALLER PUSH1 0x4 DUP3 ADD MSTORE PUSH8 0x16345785D8A0000 PUSH1 0x24 DUP3 ADD MSTORE PUSH1 0x1 PUSH1 0x1 PUSH1 0xA0 SHL SUB DUP5 AND SWAP1 PUSH4 0xA9059CBB SWAP1 PUSH1 0x44 ADD PUSH1 0x20 PUSH1 0x40 MLOAD DUP1 DUP4 SUB DUP2 PUSH1 0x0 DUP8 DUP1 EXTCODESIZE ISZERO DUP1 ISZERO PUSH2 0x1CB0 JUMPI PUSH1 0x0 DUP1 REVERT JUMPDEST POP GAS CALL ISZERO DUP1 ISZERO PUSH2 0x1CC4 JUMPI RETURNDATASIZE PUSH1 0x0 DUP1 RETURNDATACOPY RETURNDATASIZE PUSH1 0x0 REVERT JUMPDEST POP POP POP POP PUSH1 0x40 MLOAD RETURNDATASIZE PUSH1 0x1F NOT PUSH1 0x1F DUP3 ADD AND DUP3 ADD DUP1 PUSH1 0x40 MSTORE POP DUP2 ADD SWAP1 PUSH2 0x1CE8 SWAP2 SWAP1 PUSH2 0x313E JUMP JUMPDEST POP POP POP JUMPDEST PUSH1 0x0 JUMPDEST PUSH1 0x2 DUP4 ADD SLOAD PUSH2 0x1CFF SWAP1 PUSH1 0x1 PUSH2 0x365B JUMP JUMPDEST DUP2 LT ISZERO PUSH2 0x1E4F JUMPI PUSH1 0x0 DUP4 PUSH1 0x1 ADD SLOAD DUP3 PUSH2 0x1D18 SWAP2 SWAP1 PUSH2 0x365B JUMP JUMPDEST SWAP1 POP PUSH1 0x0 PUSH2 0x1D26 CALLER DUP4 PUSH2 0x34B JUMP JUMPDEST SWAP1 POP DUP1 ISZERO PUSH2 0x1E3A JUMPI PUSH2 0x1D39 CALLER DUP4 DUP4 PUSH2 0x2593 JUMP JUMPDEST DUP4 PUSH1 0x1 PUSH1 0x1 PUSH1 0xA0 SHL SUB AND PUSH4 0xA9059CBB CALLER DUP8 PUSH1 0x3 ADD DUP7 DUP2 SLOAD DUP2 LT PUSH2 0x1D6C JUMPI PUSH4 0x4E487B71 PUSH1 0xE0 SHL PUSH1 0x0 MSTORE PUSH1 0x32 PUSH1 0x4 MSTORE PUSH1 0x24 PUSH1 0x0 REVERT JUMPDEST SWAP1 PUSH1 0x0 MSTORE PUSH1 0x20 PUSH1 0x0 KECCAK256 ADD SLOAD DUP5 DUP10 PUSH1 0x5 ADD DUP9 DUP2 SLOAD DUP2 LT PUSH2 0x1D9B JUMPI PUSH4 0x4E487B71 PUSH1 0xE0 SHL PUSH1 0x0 MSTORE PUSH1 0x32 PUSH1 0x4 MSTORE PUSH1 0x24 PUSH1 0x0 REVERT JUMPDEST SWAP1 PUSH1 0x0 MSTORE PUSH1 0x20 PUSH1 0x0 KECCAK256 ADD SLOAD PUSH2 0x1DB0 SWAP2 SWAP1 PUSH2 0x36D4 JUMP JUMPDEST PUSH2 0x1DBA SWAP2 SWAP1 PUSH2 0x36B4 JUMP JUMPDEST PUSH1 0x40 MLOAD PUSH1 0x1 PUSH1 0x1 PUSH1 0xE0 SHL SUB NOT PUSH1 0xE0 DUP6 SWAP1 SHL AND DUP2 MSTORE PUSH1 0x1 PUSH1 0x1 PUSH1 0xA0 SHL SUB SWAP1 SWAP3 AND PUSH1 0x4 DUP4 ADD MSTORE PUSH1 0x24 DUP3 ADD MSTORE PUSH1 0x44 ADD PUSH1 0x20 PUSH1 0x40 MLOAD DUP1 DUP4 SUB DUP2 PUSH1 0x0 DUP8 DUP1 EXTCODESIZE ISZERO DUP1 ISZERO PUSH2 0x1E00 JUMPI PUSH1 0x0 DUP1 REVERT JUMPDEST POP GAS CALL ISZERO DUP1 ISZERO PUSH2 0x1E14 JUMPI RETURNDATASIZE PUSH1 0x0 DUP1 RETURNDATACOPY RETURNDATASIZE PUSH1 0x0 REVERT JUMPDEST POP POP POP POP PUSH1 0x40 MLOAD RETURNDATASIZE PUSH1 0x1F NOT PUSH1 0x1F DUP3 ADD AND DUP3 ADD DUP1 PUSH1 0x40 MSTORE POP DUP2 ADD SWAP1 PUSH2 0x1E38 SWAP2 SWAP1 PUSH2 0x313E JUMP JUMPDEST POP JUMPDEST POP POP DUP1 DUP1 PUSH2 0x1E47 SWAP1 PUSH2 0x37EF JUMP JUMPDEST SWAP2 POP POP PUSH2 0x1CEF JUMP JUMPDEST POP POP POP POP JUMP JUMPDEST PUSH1 0x0 DUP3 PUSH1 0x40 ADD MLOAD MLOAD DUP3 PUSH1 0xFF AND EQ ISZERO PUSH2 0x1E73 JUMPI POP PUSH2 0x120 DUP3 ADD MLOAD PUSH2 0x3DE JUMP JUMPDEST PUSH2 0x1EC8 PUSH1 0x0 PUSH3 0x15180 PUSH1 0x1 PUSH1 0x1 PUSH1 0x40 SHL SUB AND DUP6 PUSH1 0xE0 ADD MLOAD TIMESTAMP PUSH2 0x1E95 SWAP2 SWAP1 PUSH2 0x3745 JUMP JUMPDEST PUSH2 0x1EA7 SWAP1 PUSH8 0x16345785D8A0000 PUSH2 0x36D4 JUMP JUMPDEST PUSH2 0x1EB1 SWAP2 SWAP1 PUSH2 0x36B4 JUMP JUMPDEST PUSH2 0x1EC3 SWAP1 PUSH8 0xF43FC2C04EE0000 PUSH2 0x3745 JUMP JUMPDEST PUSH2 0x2711 JUMP JUMPDEST SWAP1 POP PUSH2 0x3DE JUMP JUMPDEST DUP2 MLOAD DUP4 MLOAD EQ PUSH2 0x1F31 JUMPI PUSH1 0x40 MLOAD PUSH3 0x461BCD PUSH1 0xE5 SHL DUP2 MSTORE PUSH1 0x20 PUSH1 0x4 DUP3 ADD MSTORE PUSH1 0x28 PUSH1 0x24 DUP3 ADD MSTORE PUSH32 0x455243313135353A2069647320616E6420616D6F756E7473206C656E67746820 PUSH1 0x44 DUP3 ADD MSTORE PUSH8 0xDAD2E6DAC2E8C6D PUSH1 0xC3 SHL PUSH1 0x64 DUP3 ADD MSTORE PUSH1 0x84 ADD PUSH2 0x3B2 JUMP JUMPDEST PUSH1 0x1 PUSH1 0x1 PUSH1 0xA0 SHL SUB DUP5 AND PUSH2 0x1F57 JUMPI PUSH1 0x40 MLOAD PUSH3 0x461BCD PUSH1 0xE5 SHL DUP2 MSTORE PUSH1 0x4 ADD PUSH2 0x3B2 SWAP1 PUSH2 0x357C JUMP JUMPDEST CALLER PUSH2 0x1F66 DUP2 DUP8 DUP8 DUP8 DUP8 DUP8 PUSH2 0x2720 JUMP JUMPDEST PUSH1 0x0 JUMPDEST DUP5 MLOAD DUP2 LT ISZERO PUSH2 0x2068 JUMPI PUSH1 0x0 DUP6 DUP3 DUP2 MLOAD DUP2 LT PUSH2 0x1F94 JUMPI PUSH4 0x4E487B71 PUSH1 0xE0 SHL PUSH1 0x0 MSTORE PUSH1 0x32 PUSH1 0x4 MSTORE PUSH1 0x24 PUSH1 0x0 REVERT JUMPDEST PUSH1 0x20 MUL PUSH1 0x20 ADD ADD MLOAD SWAP1 POP PUSH1 0x0 DUP6 DUP4 DUP2 MLOAD DUP2 LT PUSH2 0x1FC0 JUMPI PUSH4 0x4E487B71 PUSH1 0xE0 SHL PUSH1 0x0 MSTORE PUSH1 0x32 PUSH1 0x4 MSTORE PUSH1 0x24 PUSH1 0x0 REVERT JUMPDEST PUSH1 0x20 SWAP1 DUP2 MUL SWAP2 SWAP1 SWAP2 ADD DUP2 ADD MLOAD PUSH1 0x0 DUP5 DUP2 MSTORE DUP1 DUP4 MSTORE PUSH1 0x40 DUP1 DUP3 KECCAK256 PUSH1 0x1 PUSH1 0x1 PUSH1 0xA0 SHL SUB DUP15 AND DUP4 MSTORE SWAP1 SWAP4 MSTORE SWAP2 SWAP1 SWAP2 KECCAK256 SLOAD SWAP1 SWAP2 POP DUP2 DUP2 LT ISZERO PUSH2 0x2010 JUMPI PUSH1 0x40 MLOAD PUSH3 0x461BCD PUSH1 0xE5 SHL DUP2 MSTORE PUSH1 0x4 ADD PUSH2 0x3B2 SWAP1 PUSH2 0x35EE JUMP JUMPDEST PUSH1 0x0 DUP4 DUP2 MSTORE PUSH1 0x20 DUP2 DUP2 MSTORE PUSH1 0x40 DUP1 DUP4 KECCAK256 PUSH1 0x1 PUSH1 0x1 PUSH1 0xA0 SHL SUB DUP15 DUP2 AND DUP6 MSTORE SWAP3 MSTORE DUP1 DUP4 KECCAK256 DUP6 DUP6 SUB SWAP1 SSTORE SWAP1 DUP12 AND DUP3 MSTORE DUP2 KECCAK256 DUP1 SLOAD DUP5 SWAP3 SWAP1 PUSH2 0x204D SWAP1 DUP5 SWAP1 PUSH2 0x365B JUMP JUMPDEST SWAP3 POP POP DUP2 SWAP1 SSTORE POP POP POP POP DUP1 PUSH2 0x2061 SWAP1 PUSH2 0x37EF JUMP JUMPDEST SWAP1 POP PUSH2 0x1F69 JUMP JUMPDEST POP DUP5 PUSH1 0x1 PUSH1 0x1 PUSH1 0xA0 SHL SUB AND DUP7 PUSH1 0x1 PUSH1 0x1 PUSH1 0xA0 SHL SUB AND DUP3 PUSH1 0x1 PUSH1 0x1 PUSH1 0xA0 SHL SUB AND PUSH32 0x4A39DC06D4C0DBC64B70AF90FD698A233A518AA5D07E595D983B8C0526C8F7FB DUP8 DUP8 PUSH1 0x40 MLOAD PUSH2 0x20B8 SWAP3 SWAP2 SWAP1 PUSH2 0x34A5 JUMP JUMPDEST PUSH1 0x40 MLOAD DUP1 SWAP2 SUB SWAP1 LOG4 PUSH2 0x20CE DUP2 DUP8 DUP8 DUP8 DUP8 DUP8 PUSH2 0x28D1 JUMP JUMPDEST POP POP POP POP POP POP JUMP JUMPDEST PUSH1 0x1 PUSH1 0x1 PUSH1 0xA0 SHL SUB DUP5 AND PUSH2 0x2136 JUMPI PUSH1 0x40 MLOAD PUSH3 0x461BCD PUSH1 0xE5 SHL DUP2 MSTORE PUSH1 0x20 PUSH1 0x4 DUP3 ADD MSTORE PUSH1 0x21 PUSH1 0x24 DUP3 ADD MSTORE PUSH32 0x455243313135353A206D696E7420746F20746865207A65726F20616464726573 PUSH1 0x44 DUP3 ADD MSTORE PUSH1 0x73 PUSH1 0xF8 SHL PUSH1 0x64 DUP3 ADD MSTORE PUSH1 0x84 ADD PUSH2 0x3B2 JUMP JUMPDEST CALLER PUSH1 0x0 PUSH2 0x2142 DUP6 PUSH2 0x2A3C JUMP JUMPDEST SWAP1 POP PUSH1 0x0 PUSH2 0x214F DUP6 PUSH2 0x2A3C JUMP JUMPDEST SWAP1 POP PUSH2 0x2160 DUP4 PUSH1 0x0 DUP10 DUP6 DUP6 DUP10 PUSH2 0x2720 JUMP JUMPDEST PUSH1 0x0 DUP7 DUP2 MSTORE PUSH1 0x20 DUP2 DUP2 MSTORE PUSH1 0x40 DUP1 DUP4 KECCAK256 PUSH1 0x1 PUSH1 0x1 PUSH1 0xA0 SHL SUB DUP12 AND DUP5 MSTORE SWAP1 SWAP2 MSTORE DUP2 KECCAK256 DUP1 SLOAD DUP8 SWAP3 SWAP1 PUSH2 0x2190 SWAP1 DUP5 SWAP1 PUSH2 0x365B JUMP JUMPDEST SWAP1 SWAP2 SSTORE POP POP PUSH1 0x40 DUP1 MLOAD DUP8 DUP2 MSTORE PUSH1 0x20 DUP2 ADD DUP8 SWAP1 MSTORE PUSH1 0x1 PUSH1 0x1 PUSH1 0xA0 SHL SUB DUP1 DUP11 AND SWAP3 PUSH1 0x0 SWAP3 SWAP2 DUP8 AND SWAP2 PUSH1 0x0 DUP1 MLOAD PUSH1 0x20 PUSH2 0x396A DUP4 CODECOPY DUP2 MLOAD SWAP2 MSTORE SWAP2 ADD PUSH1 0x40 MLOAD DUP1 SWAP2 SUB SWAP1 LOG4 PUSH2 0x21DE DUP4 PUSH1 0x0 DUP10 DUP10 DUP10 DUP10 PUSH2 0x2A95 JUMP JUMPDEST POP POP POP POP POP POP POP JUMP JUMPDEST PUSH1 0x0 PUSH2 0x2200 ADDRESS DUP5 PUSH1 0x20 ADD MLOAD DUP5 PUSH1 0xFF AND PUSH2 0x13E SWAP2 SWAP1 PUSH2 0x365B JUMP JUMPDEST SWAP4 SWAP3 POP POP POP JUMP JUMPDEST DUP2 PUSH1 0x1 PUSH1 0x1 PUSH1 0xA0 SHL SUB AND DUP4 PUSH1 0x1 PUSH1 0x1 PUSH1 0xA0 SHL SUB AND EQ ISZERO PUSH2 0x227B JUMPI PUSH1 0x40 MLOAD PUSH3 0x461BCD PUSH1 0xE5 SHL DUP2 MSTORE PUSH1 0x20 PUSH1 0x4 DUP3 ADD MSTORE PUSH1 0x29 PUSH1 0x24 DUP3 ADD MSTORE PUSH32 0x455243313135353A2073657474696E6720617070726F76616C20737461747573 PUSH1 0x44 DUP3 ADD MSTORE PUSH9 0x103337B91039B2B633 PUSH1 0xB9 SHL PUSH1 0x64 DUP3 ADD MSTORE PUSH1 0x84 ADD PUSH2 0x3B2 JUMP JUMPDEST PUSH1 0x1 PUSH1 0x1 PUSH1 0xA0 SHL SUB DUP4 DUP2 AND PUSH1 0x0 DUP2 DUP2 MSTORE PUSH1 0x1 PUSH1 0x20 SWAP1 DUP2 MSTORE PUSH1 0x40 DUP1 DUP4 KECCAK256 SWAP5 DUP8 AND DUP1 DUP5 MSTORE SWAP5 DUP3 MSTORE SWAP2 DUP3 SWAP1 KECCAK256 DUP1 SLOAD PUSH1 0xFF NOT AND DUP7 ISZERO ISZERO SWAP1 DUP2 OR SWAP1 SWAP2 SSTORE SWAP2 MLOAD SWAP2 DUP3 MSTORE PUSH32 0x17307EAB39AB6107E8899845AD3D59BD9653F200F220920489CA2B5937696C31 SWAP2 ADD PUSH1 0x40 MLOAD DUP1 SWAP2 SUB SWAP1 LOG3 POP POP POP JUMP JUMPDEST PUSH1 0x40 DUP1 MLOAD PUSH1 0xC0 DUP2 ADD DUP3 MSTORE PUSH1 0x0 DUP1 DUP3 MSTORE PUSH1 0x20 DUP1 DUP4 ADD DUP3 SWAP1 MSTORE DUP3 DUP5 ADD DUP3 SWAP1 MSTORE PUSH1 0x60 DUP4 ADD DUP3 SWAP1 MSTORE PUSH1 0x80 DUP4 ADD DUP3 SWAP1 MSTORE PUSH1 0xA0 DUP4 ADD DUP3 SWAP1 MSTORE PUSH1 0x1 PUSH1 0x1 PUSH1 0xA0 SHL SUB DUP7 AND DUP3 MSTORE PUSH1 0x8 DUP2 MSTORE DUP4 DUP3 KECCAK256 DUP6 DUP4 MSTORE DUP2 MSTORE DUP4 DUP3 KECCAK256 DUP5 MLOAD DUP1 DUP7 ADD DUP7 MSTORE SWAP1 SLOAD PUSH4 0xFFFFFFFF DUP1 DUP3 AND DUP1 DUP5 MSTORE PUSH1 0x1 PUSH1 0x20 SHL SWAP1 SWAP3 DIV DUP2 AND DUP4 DUP6 ADD SWAP1 DUP2 MSTORE SWAP2 DUP6 MSTORE PUSH1 0x7 SWAP1 SWAP4 MSTORE SWAP5 SWAP1 SWAP3 KECCAK256 SWAP4 MLOAD PUSH1 0x4 SWAP1 SWAP5 ADD DUP1 SLOAD SWAP4 SWAP5 SWAP3 SWAP4 SWAP1 SWAP3 SWAP1 SWAP2 AND SWAP1 DUP2 LT PUSH2 0x2394 JUMPI PUSH4 0x4E487B71 PUSH1 0xE0 SHL PUSH1 0x0 MSTORE PUSH1 0x32 PUSH1 0x4 MSTORE PUSH1 0x24 PUSH1 0x0 REVERT JUMPDEST PUSH1 0x0 SWAP2 DUP3 MSTORE PUSH1 0x20 SWAP2 DUP3 SWAP1 KECCAK256 PUSH1 0x40 DUP1 MLOAD PUSH1 0xC0 DUP2 ADD DUP3 MSTORE PUSH1 0x5 SWAP4 SWAP1 SWAP4 MUL SWAP1 SWAP2 ADD DUP1 SLOAD DUP4 MSTORE PUSH1 0x1 DUP2 ADD SLOAD SWAP4 DUP4 ADD SWAP4 SWAP1 SWAP4 MSTORE PUSH1 0x2 DUP4 ADD SLOAD PUSH1 0x1 PUSH1 0x1 PUSH1 0x40 SHL SUB AND SWAP1 DUP3 ADD MSTORE PUSH1 0x3 DUP3 ADD SLOAD PUSH1 0x60 DUP3 ADD MSTORE PUSH1 0x4 SWAP1 SWAP2 ADD SLOAD PUSH4 0xFFFFFFFF DUP2 AND PUSH1 0x80 DUP4 ADD MSTORE PUSH1 0x1 PUSH1 0x20 SHL SWAP1 DIV PUSH1 0xFF AND ISZERO ISZERO PUSH1 0xA0 DUP3 ADD MSTORE SWAP5 SWAP4 POP POP POP POP JUMP JUMPDEST PUSH1 0x0 PUSH2 0x1129 DUP2 PUSH1 0x2 PUSH2 0x2424 PUSH1 0x1 PUSH1 0x1 PUSH1 0x40 SHL SUB DUP8 AND DUP7 PUSH2 0x3745 JUMP JUMPDEST PUSH2 0x242E TIMESTAMP DUP8 PUSH2 0x3745 JUMP JUMPDEST PUSH2 0x2439 DUP10 PUSH1 0x3 PUSH2 0x36D4 JUMP JUMPDEST PUSH2 0x2443 SWAP2 SWAP1 PUSH2 0x36D4 JUMP JUMPDEST PUSH2 0x244D SWAP2 SWAP1 PUSH2 0x36B4 JUMP JUMPDEST PUSH2 0x1EC3 SWAP2 SWAP1 PUSH2 0x36B4 JUMP JUMPDEST PUSH1 0x1 PUSH1 0x1 PUSH1 0xA0 SHL SUB DUP5 AND PUSH2 0x247D JUMPI PUSH1 0x40 MLOAD PUSH3 0x461BCD PUSH1 0xE5 SHL DUP2 MSTORE PUSH1 0x4 ADD PUSH2 0x3B2 SWAP1 PUSH2 0x357C JUMP JUMPDEST CALLER PUSH1 0x0 PUSH2 0x2489 DUP6 PUSH2 0x2A3C JUMP JUMPDEST SWAP1 POP PUSH1 0x0 PUSH2 0x2496 DUP6 PUSH2 0x2A3C JUMP JUMPDEST SWAP1 POP PUSH2 0x24A6 DUP4 DUP10 DUP10 DUP6 DUP6 DUP10 PUSH2 0x2720 JUMP JUMPDEST PUSH1 0x0 DUP7 DUP2 MSTORE PUSH1 0x20 DUP2 DUP2 MSTORE PUSH1 0x40 DUP1 DUP4 KECCAK256 PUSH1 0x1 PUSH1 0x1 PUSH1 0xA0 SHL SUB DUP13 AND DUP5 MSTORE SWAP1 SWAP2 MSTORE SWAP1 KECCAK256 SLOAD DUP6 DUP2 LT ISZERO PUSH2 0x24E7 JUMPI PUSH1 0x40 MLOAD PUSH3 0x461BCD PUSH1 0xE5 SHL DUP2 MSTORE PUSH1 0x4 ADD PUSH2 0x3B2 SWAP1 PUSH2 0x35EE JUMP JUMPDEST PUSH1 0x0 DUP8 DUP2 MSTORE PUSH1 0x20 DUP2 DUP2 MSTORE PUSH1 0x40 DUP1 DUP4 KECCAK256 PUSH1 0x1 PUSH1 0x1 PUSH1 0xA0 SHL SUB DUP14 DUP2 AND DUP6 MSTORE SWAP3 MSTORE DUP1 DUP4 KECCAK256 DUP10 DUP6 SUB SWAP1 SSTORE SWAP1 DUP11 AND DUP3 MSTORE DUP2 KECCAK256 DUP1 SLOAD DUP9 SWAP3 SWAP1 PUSH2 0x2524 SWAP1 DUP5 SWAP1 PUSH2 0x365B JUMP JUMPDEST SWAP1 SWAP2 SSTORE POP POP PUSH1 0x40 DUP1 MLOAD DUP9 DUP2 MSTORE PUSH1 0x20 DUP2 ADD DUP9 SWAP1 MSTORE PUSH1 0x1 PUSH1 0x1 PUSH1 0xA0 SHL SUB DUP1 DUP12 AND SWAP3 DUP13 DUP3 AND SWAP3 SWAP2 DUP9 AND SWAP2 PUSH1 0x0 DUP1 MLOAD PUSH1 0x20 PUSH2 0x396A DUP4 CODECOPY DUP2 MLOAD SWAP2 MSTORE SWAP2 ADD PUSH1 0x40 MLOAD DUP1 SWAP2 SUB SWAP1 LOG4 PUSH2 0x2572 DUP5 DUP11 DUP11 DUP11 DUP11 DUP11 PUSH2 0x2A95 JUMP JUMPDEST POP POP POP POP POP POP POP POP POP JUMP JUMPDEST PUSH1 0x0 DUP2 DUP4 LT PUSH2 0x258C JUMPI DUP2 PUSH2 0x2200 JUMP JUMPDEST POP SWAP1 SWAP2 SWAP1 POP JUMP JUMPDEST PUSH1 0x1 PUSH1 0x1 PUSH1 0xA0 SHL SUB DUP4 AND PUSH2 0x25F5 JUMPI PUSH1 0x40 MLOAD PUSH3 0x461BCD PUSH1 0xE5 SHL DUP2 MSTORE PUSH1 0x20 PUSH1 0x4 DUP3 ADD MSTORE PUSH1 0x23 PUSH1 0x24 DUP3 ADD MSTORE PUSH32 0x455243313135353A206275726E2066726F6D20746865207A65726F2061646472 PUSH1 0x44 DUP3 ADD MSTORE PUSH3 0x657373 PUSH1 0xE8 SHL PUSH1 0x64 DUP3 ADD MSTORE PUSH1 0x84 ADD PUSH2 0x3B2 JUMP JUMPDEST CALLER PUSH1 0x0 PUSH2 0x2601 DUP5 PUSH2 0x2A3C JUMP JUMPDEST SWAP1 POP PUSH1 0x0 PUSH2 0x260E DUP5 PUSH2 0x2A3C JUMP JUMPDEST SWAP1 POP PUSH2 0x262E DUP4 DUP8 PUSH1 0x0 DUP6 DUP6 PUSH1 0x40 MLOAD DUP1 PUSH1 0x20 ADD PUSH1 0x40 MSTORE DUP1 PUSH1 0x0 DUP2 MSTORE POP PUSH2 0x2720 JUMP JUMPDEST PUSH1 0x0 DUP6 DUP2 MSTORE PUSH1 0x20 DUP2 DUP2 MSTORE PUSH1 0x40 DUP1 DUP4 KECCAK256 PUSH1 0x1 PUSH1 0x1 PUSH1 0xA0 SHL SUB DUP11 AND DUP5 MSTORE SWAP1 SWAP2 MSTORE SWAP1 KECCAK256 SLOAD DUP5 DUP2 LT ISZERO PUSH2 0x26AB JUMPI PUSH1 0x40 MLOAD PUSH3 0x461BCD PUSH1 0xE5 SHL DUP2 MSTORE PUSH1 0x20 PUSH1 0x4 DUP3 ADD MSTORE PUSH1 0x24 DUP1 DUP3 ADD MSTORE PUSH32 0x455243313135353A206275726E20616D6F756E7420657863656564732062616C PUSH1 0x44 DUP3 ADD MSTORE PUSH4 0x616E6365 PUSH1 0xE0 SHL PUSH1 0x64 DUP3 ADD MSTORE PUSH1 0x84 ADD PUSH2 0x3B2 JUMP JUMPDEST PUSH1 0x0 DUP7 DUP2 MSTORE PUSH1 0x20 DUP2 DUP2 MSTORE PUSH1 0x40 DUP1 DUP4 KECCAK256 PUSH1 0x1 PUSH1 0x1 PUSH1 0xA0 SHL SUB DUP12 DUP2 AND DUP1 DUP7 MSTORE SWAP2 DUP5 MSTORE DUP3 DUP6 KECCAK256 DUP11 DUP8 SUB SWAP1 SSTORE DUP3 MLOAD DUP12 DUP2 MSTORE SWAP4 DUP5 ADD DUP11 SWAP1 MSTORE SWAP1 SWAP3 SWAP1 DUP9 AND SWAP2 PUSH1 0x0 DUP1 MLOAD PUSH1 0x20 PUSH2 0x396A DUP4 CODECOPY DUP2 MLOAD SWAP2 MSTORE SWAP2 ADD PUSH1 0x40 MLOAD DUP1 SWAP2 SUB SWAP1 LOG4 PUSH1 0x40 DUP1 MLOAD PUSH1 0x20 DUP2 ADD SWAP1 SWAP2 MSTORE PUSH1 0x0 SWAP1 MSTORE PUSH2 0x21DE JUMP JUMPDEST PUSH1 0x0 DUP2 DUP4 GT PUSH2 0x258C JUMPI DUP2 PUSH2 0x2200 JUMP JUMPDEST PUSH1 0x1 PUSH1 0x1 PUSH1 0xA0 SHL SUB DUP6 AND PUSH2 0x27C3 JUMPI PUSH1 0x0 JUMPDEST DUP4 MLOAD DUP2 LT ISZERO PUSH2 0x27C1 JUMPI DUP3 DUP2 DUP2 MLOAD DUP2 LT PUSH2 0x275A JUMPI PUSH4 0x4E487B71 PUSH1 0xE0 SHL PUSH1 0x0 MSTORE PUSH1 0x32 PUSH1 0x4 MSTORE PUSH1 0x24 PUSH1 0x0 REVERT JUMPDEST PUSH1 0x20 MUL PUSH1 0x20 ADD ADD MLOAD PUSH1 0x3 PUSH1 0x0 DUP7 DUP5 DUP2 MLOAD DUP2 LT PUSH2 0x2786 JUMPI PUSH4 0x4E487B71 PUSH1 0xE0 SHL PUSH1 0x0 MSTORE PUSH1 0x32 PUSH1 0x4 MSTORE PUSH1 0x24 PUSH1 0x0 REVERT JUMPDEST PUSH1 0x20 MUL PUSH1 0x20 ADD ADD MLOAD DUP2 MSTORE PUSH1 0x20 ADD SWAP1 DUP2 MSTORE PUSH1 0x20 ADD PUSH1 0x0 KECCAK256 PUSH1 0x0 DUP3 DUP3 SLOAD PUSH2 0x27AB SWAP2 SWAP1 PUSH2 0x365B JUMP JUMPDEST SWAP1 SWAP2 SSTORE POP PUSH2 0x27BA SWAP1 POP DUP2 PUSH2 0x37EF JUMP JUMPDEST SWAP1 POP PUSH2 0x2731 JUMP JUMPDEST POP JUMPDEST PUSH1 0x1 PUSH1 0x1 PUSH1 0xA0 SHL SUB DUP5 AND PUSH2 0x20CE JUMPI PUSH1 0x0 JUMPDEST DUP4 MLOAD DUP2 LT ISZERO PUSH2 0x21DE JUMPI PUSH1 0x0 DUP5 DUP3 DUP2 MLOAD DUP2 LT PUSH2 0x27FF JUMPI PUSH4 0x4E487B71 PUSH1 0xE0 SHL PUSH1 0x0 MSTORE PUSH1 0x32 PUSH1 0x4 MSTORE PUSH1 0x24 PUSH1 0x0 REVERT JUMPDEST PUSH1 0x20 MUL PUSH1 0x20 ADD ADD MLOAD SWAP1 POP PUSH1 0x0 DUP5 DUP4 DUP2 MLOAD DUP2 LT PUSH2 0x282B JUMPI PUSH4 0x4E487B71 PUSH1 0xE0 SHL PUSH1 0x0 MSTORE PUSH1 0x32 PUSH1 0x4 MSTORE PUSH1 0x24 PUSH1 0x0 REVERT JUMPDEST PUSH1 0x20 MUL PUSH1 0x20 ADD ADD MLOAD SWAP1 POP PUSH1 0x0 PUSH1 0x3 PUSH1 0x0 DUP5 DUP2 MSTORE PUSH1 0x20 ADD SWAP1 DUP2 MSTORE PUSH1 0x20 ADD PUSH1 0x0 KECCAK256 SLOAD SWAP1 POP DUP2 DUP2 LT ISZERO PUSH2 0x28AE JUMPI PUSH1 0x40 MLOAD PUSH3 0x461BCD PUSH1 0xE5 SHL DUP2 MSTORE PUSH1 0x20 PUSH1 0x4 DUP3 ADD MSTORE PUSH1 0x28 PUSH1 0x24 DUP3 ADD MSTORE PUSH32 0x455243313135353A206275726E20616D6F756E74206578636565647320746F74 PUSH1 0x44 DUP3 ADD MSTORE PUSH8 0x616C537570706C79 PUSH1 0xC0 SHL PUSH1 0x64 DUP3 ADD MSTORE PUSH1 0x84 ADD PUSH2 0x3B2 JUMP JUMPDEST PUSH1 0x0 SWAP3 DUP4 MSTORE PUSH1 0x3 PUSH1 0x20 MSTORE PUSH1 0x40 SWAP1 SWAP3 KECCAK256 SWAP2 SUB SWAP1 SSTORE PUSH2 0x28CA DUP2 PUSH2 0x37EF JUMP JUMPDEST SWAP1 POP PUSH2 0x27D4 JUMP JUMPDEST PUSH1 0x1 PUSH1 0x1 PUSH1 0xA0 SHL SUB DUP5 AND EXTCODESIZE ISZERO PUSH2 0x20CE JUMPI PUSH1 0x40 MLOAD PUSH4 0xBC197C81 PUSH1 0xE0 SHL DUP2 MSTORE PUSH1 0x1 PUSH1 0x1 PUSH1 0xA0 SHL SUB DUP6 AND SWAP1 PUSH4 0xBC197C81 SWAP1 PUSH2 0x2915 SWAP1 DUP10 SWAP1 DUP10 SWAP1 DUP9 SWAP1 DUP9 SWAP1 DUP9 SWAP1 PUSH1 0x4 ADD PUSH2 0x33CB JUMP JUMPDEST PUSH1 0x20 PUSH1 0x40 MLOAD DUP1 DUP4 SUB DUP2 PUSH1 0x0 DUP8 DUP1 EXTCODESIZE ISZERO DUP1 ISZERO PUSH2 0x292F JUMPI PUSH1 0x0 DUP1 REVERT JUMPDEST POP GAS CALL SWAP3 POP POP POP DUP1 ISZERO PUSH2 0x295F JUMPI POP PUSH1 0x40 DUP1 MLOAD PUSH1 0x1F RETURNDATASIZE SWAP1 DUP2 ADD PUSH1 0x1F NOT AND DUP3 ADD SWAP1 SWAP3 MSTORE PUSH2 0x295C SWAP2 DUP2 ADD SWAP1 PUSH2 0x3176 JUMP JUMPDEST PUSH1 0x1 JUMPDEST PUSH2 0x2A0C JUMPI PUSH2 0x296B PUSH2 0x387A JUMP JUMPDEST DUP1 PUSH4 0x8C379A0 EQ ISZERO PUSH2 0x29A5 JUMPI POP PUSH2 0x2980 PUSH2 0x3892 JUMP JUMPDEST DUP1 PUSH2 0x298B JUMPI POP PUSH2 0x29A7 JUMP JUMPDEST DUP1 PUSH1 0x40 MLOAD PUSH3 0x461BCD PUSH1 0xE5 SHL DUP2 MSTORE PUSH1 0x4 ADD PUSH2 0x3B2 SWAP2 SWAP1 PUSH2 0x34D3 JUMP JUMPDEST POP JUMPDEST PUSH1 0x40 MLOAD PUSH3 0x461BCD PUSH1 0xE5 SHL DUP2 MSTORE PUSH1 0x20 PUSH1 0x4 DUP3 ADD MSTORE PUSH1 0x34 PUSH1 0x24 DUP3 ADD MSTORE PUSH32 0x455243313135353A207472616E7366657220746F206E6F6E2D45524331313535 PUSH1 0x44 DUP3 ADD MSTORE PUSH20 0x2932B1B2B4BB32B91034B6B83632B6B2B73A32B9 PUSH1 0x61 SHL PUSH1 0x64 DUP3 ADD MSTORE PUSH1 0x84 ADD PUSH2 0x3B2 JUMP JUMPDEST PUSH1 0x1 PUSH1 0x1 PUSH1 0xE0 SHL SUB NOT DUP2 AND PUSH4 0xBC197C81 PUSH1 0xE0 SHL EQ PUSH2 0x21DE JUMPI PUSH1 0x40 MLOAD PUSH3 0x461BCD PUSH1 0xE5 SHL DUP2 MSTORE PUSH1 0x4 ADD PUSH2 0x3B2 SWAP1 PUSH2 0x34E6 JUMP JUMPDEST PUSH1 0x40 DUP1 MLOAD PUSH1 0x1 DUP1 DUP3 MSTORE DUP2 DUP4 ADD SWAP1 SWAP3 MSTORE PUSH1 0x60 SWAP2 PUSH1 0x0 SWAP2 SWAP1 PUSH1 0x20 DUP1 DUP4 ADD SWAP1 DUP1 CALLDATASIZE DUP4 CALLDATACOPY ADD SWAP1 POP POP SWAP1 POP DUP3 DUP2 PUSH1 0x0 DUP2 MLOAD DUP2 LT PUSH2 0x2A84 JUMPI PUSH4 0x4E487B71 PUSH1 0xE0 SHL PUSH1 0x0 MSTORE PUSH1 0x32 PUSH1 0x4 MSTORE PUSH1 0x24 PUSH1 0x0 REVERT JUMPDEST PUSH1 0x20 SWAP1 DUP2 MUL SWAP2 SWAP1 SWAP2 ADD ADD MSTORE SWAP3 SWAP2 POP POP JUMP JUMPDEST PUSH1 0x1 PUSH1 0x1 PUSH1 0xA0 SHL SUB DUP5 AND EXTCODESIZE ISZERO PUSH2 0x20CE JUMPI PUSH1 0x40 MLOAD PUSH4 0xF23A6E61 PUSH1 0xE0 SHL DUP2 MSTORE PUSH1 0x1 PUSH1 0x1 PUSH1 0xA0 SHL SUB DUP6 AND SWAP1 PUSH4 0xF23A6E61 SWAP1 PUSH2 0x2AD9 SWAP1 DUP10 SWAP1 DUP10 SWAP1 DUP9 SWAP1 DUP9 SWAP1 DUP9 SWAP1 PUSH1 0x4 ADD PUSH2 0x344D JUMP JUMPDEST PUSH1 0x20 PUSH1 0x40 MLOAD DUP1 DUP4 SUB DUP2 PUSH1 0x0 DUP8 DUP1 EXTCODESIZE ISZERO DUP1 ISZERO PUSH2 0x2AF3 JUMPI PUSH1 0x0 DUP1 REVERT JUMPDEST POP GAS CALL SWAP3 POP POP POP DUP1 ISZERO PUSH2 0x2B23 JUMPI POP PUSH1 0x40 DUP1 MLOAD PUSH1 0x1F RETURNDATASIZE SWAP1 DUP2 ADD PUSH1 0x1F NOT AND DUP3 ADD SWAP1 SWAP3 MSTORE PUSH2 0x2B20 SWAP2 DUP2 ADD SWAP1 PUSH2 0x3176 JUMP JUMPDEST PUSH1 0x1 JUMPDEST PUSH2 0x2B2F JUMPI PUSH2 0x296B PUSH2 0x387A JUMP JUMPDEST PUSH1 0x1 PUSH1 0x1 PUSH1 0xE0 SHL SUB NOT DUP2 AND PUSH4 0xF23A6E61 PUSH1 0xE0 SHL EQ PUSH2 0x21DE JUMPI PUSH1 0x40 MLOAD PUSH3 0x461BCD PUSH1 0xE5 SHL DUP2 MSTORE PUSH1 0x4 ADD PUSH2 0x3B2 SWAP1 PUSH2 0x34E6 JUMP JUMPDEST DUP1 MLOAD PUSH2 0x2B6A DUP2 PUSH2 0x391B JUMP JUMPDEST SWAP2 SWAP1 POP JUMP JUMPDEST PUSH1 0x0 DUP1 DUP4 PUSH1 0x1F DUP5 ADD SLT PUSH2 0x2B80 JUMPI DUP2 DUP3 REVERT JUMPDEST POP DUP2 CALLDATALOAD PUSH1 0x1 PUSH1 0x1 PUSH1 0x40 SHL SUB DUP2 GT ISZERO PUSH2 0x2B96 JUMPI DUP2 DUP3 REVERT JUMPDEST PUSH1 0x20 DUP4 ADD SWAP2 POP DUP4 PUSH1 0x20 DUP3 PUSH1 0x5 SHL DUP6 ADD ADD GT ISZERO PUSH2 0x2BB1 JUMPI PUSH1 0x0 DUP1 REVERT JUMPDEST SWAP3 POP SWAP3 SWAP1 POP JUMP JUMPDEST PUSH1 0x0 DUP3 PUSH1 0x1F DUP4 ADD SLT PUSH2 0x2BC8 JUMPI DUP1 DUP2 REVERT JUMPDEST DUP2 CALLDATALOAD PUSH1 0x20 PUSH2 0x2BD5 DUP3 PUSH2 0x3638 JUMP JUMPDEST PUSH1 0x40 MLOAD PUSH2 0x2BE2 DUP3 DUP3 PUSH2 0x37C3 JUMP JUMPDEST DUP4 DUP2 MSTORE DUP3 DUP2 ADD SWAP2 POP DUP6 DUP4 ADD PUSH1 0x5 DUP6 SWAP1 SHL DUP8 ADD DUP5 ADD DUP9 LT ISZERO PUSH2 0x2C01 JUMPI DUP6 DUP7 REVERT JUMPDEST DUP6 JUMPDEST DUP6 DUP2 LT ISZERO PUSH2 0x2C1F JUMPI DUP2 CALLDATALOAD DUP5 MSTORE SWAP3 DUP5 ADD SWAP3 SWAP1 DUP5 ADD SWAP1 PUSH1 0x1 ADD PUSH2 0x2C03 JUMP JUMPDEST POP SWAP1 SWAP8 SWAP7 POP POP POP POP POP POP POP JUMP JUMPDEST PUSH1 0x0 DUP1 DUP4 PUSH1 0x1F DUP5 ADD SLT PUSH2 0x2C3D JUMPI DUP2 DUP3 REVERT JUMPDEST POP DUP2 CALLDATALOAD PUSH1 0x1 PUSH1 0x1 PUSH1 0x40 SHL SUB DUP2 GT ISZERO PUSH2 0x2C53 JUMPI DUP2 DUP3 REVERT JUMPDEST PUSH1 0x20 DUP4 ADD SWAP2 POP DUP4 PUSH1 0x20 DUP3 DUP6 ADD ADD GT ISZERO PUSH2 0x2BB1 JUMPI PUSH1 0x0 DUP1 REVERT JUMPDEST PUSH1 0x0 DUP3 PUSH1 0x1F DUP4 ADD SLT PUSH2 0x2C7B JUMPI DUP1 DUP2 REVERT JUMPDEST DUP2 CALLDATALOAD PUSH1 0x1 PUSH1 0x1 PUSH1 0x40 SHL SUB DUP2 GT ISZERO PUSH2 0x2C94 JUMPI PUSH2 0x2C94 PUSH2 0x3864 JUMP JUMPDEST PUSH1 0x40 MLOAD PUSH2 0x2CAB PUSH1 0x1F DUP4 ADD PUSH1 0x1F NOT AND PUSH1 0x20 ADD DUP3 PUSH2 0x37C3 JUMP JUMPDEST DUP2 DUP2 MSTORE DUP5 PUSH1 0x20 DUP4 DUP7 ADD ADD GT ISZERO PUSH2 0x2CBF JUMPI DUP3 DUP4 REVERT JUMPDEST DUP2 PUSH1 0x20 DUP6 ADD PUSH1 0x20 DUP4 ADD CALLDATACOPY SWAP1 DUP2 ADD PUSH1 0x20 ADD SWAP2 SWAP1 SWAP2 MSTORE SWAP3 SWAP2 POP POP JUMP JUMPDEST DUP1 MLOAD PUSH2 0xFFFF DUP2 AND DUP2 EQ PUSH2 0x2B6A JUMPI PUSH1 0x0 DUP1 REVERT JUMPDEST DUP1 CALLDATALOAD PUSH1 0xFF DUP2 AND DUP2 EQ PUSH2 0x2B6A JUMPI PUSH1 0x0 DUP1 REVERT JUMPDEST PUSH1 0x0 DUP1 PUSH1 0x40 DUP4 DUP6 SUB SLT ISZERO PUSH2 0x2D0E JUMPI DUP2 DUP3 REVERT JUMPDEST DUP3 CALLDATALOAD PUSH2 0x2D19 DUP2 PUSH2 0x391B JUMP JUMPDEST SWAP2 POP PUSH1 0x20 DUP4 ADD CALLDATALOAD PUSH2 0x2D29 DUP2 PUSH2 0x391B JUMP JUMPDEST DUP1 SWAP2 POP POP SWAP3 POP SWAP3 SWAP1 POP JUMP JUMPDEST PUSH1 0x0 DUP1 PUSH1 0x0 DUP1 PUSH1 0x0 DUP1 PUSH1 0x0 DUP1 PUSH1 0xA0 DUP10 DUP12 SUB SLT ISZERO PUSH2 0x2D4F JUMPI DUP4 DUP5 REVERT JUMPDEST DUP9 CALLDATALOAD PUSH2 0x2D5A DUP2 PUSH2 0x391B JUMP JUMPDEST SWAP8 POP PUSH1 0x20 DUP10 ADD CALLDATALOAD PUSH2 0x2D6A DUP2 PUSH2 0x391B JUMP JUMPDEST SWAP7 POP PUSH1 0x40 DUP10 ADD CALLDATALOAD PUSH1 0x1 PUSH1 0x1 PUSH1 0x40 SHL SUB DUP1 DUP3 GT ISZERO PUSH2 0x2D85 JUMPI DUP6 DUP7 REVERT JUMPDEST PUSH2 0x2D91 DUP13 DUP4 DUP14 ADD PUSH2 0x2B6F JUMP JUMPDEST SWAP1 SWAP9 POP SWAP7 POP PUSH1 0x60 DUP12 ADD CALLDATALOAD SWAP2 POP DUP1 DUP3 GT ISZERO PUSH2 0x2DA9 JUMPI DUP6 DUP7 REVERT JUMPDEST PUSH2 0x2DB5 DUP13 DUP4 DUP14 ADD PUSH2 0x2B6F JUMP JUMPDEST SWAP1 SWAP7 POP SWAP5 POP PUSH1 0x80 DUP12 ADD CALLDATALOAD SWAP2 POP DUP1 DUP3 GT ISZERO PUSH2 0x2DCD JUMPI DUP4 DUP5 REVERT JUMPDEST POP PUSH2 0x2DDA DUP12 DUP3 DUP13 ADD PUSH2 0x2C2C JUMP JUMPDEST SWAP10 SWAP13 SWAP9 SWAP12 POP SWAP7 SWAP10 POP SWAP5 SWAP8 SWAP4 SWAP7 SWAP3 SWAP6 SWAP5 POP POP POP JUMP JUMPDEST PUSH1 0x0 DUP1 PUSH1 0x0 DUP1 PUSH1 0x0 PUSH1 0xA0 DUP7 DUP9 SUB SLT ISZERO PUSH2 0x2E05 JUMPI DUP1 DUP2 REVERT JUMPDEST DUP6 CALLDATALOAD PUSH2 0x2E10 DUP2 PUSH2 0x391B JUMP JUMPDEST SWAP5 POP PUSH1 0x20 DUP7 ADD CALLDATALOAD PUSH2 0x2E20 DUP2 PUSH2 0x391B JUMP JUMPDEST SWAP4 POP PUSH1 0x40 DUP7 ADD CALLDATALOAD PUSH1 0x1 PUSH1 0x1 PUSH1 0x40 SHL SUB DUP1 DUP3 GT ISZERO PUSH2 0x2E3B JUMPI DUP3 DUP4 REVERT JUMPDEST PUSH2 0x2E47 DUP10 DUP4 DUP11 ADD PUSH2 0x2BB8 JUMP JUMPDEST SWAP5 POP PUSH1 0x60 DUP9 ADD CALLDATALOAD SWAP2 POP DUP1 DUP3 GT ISZERO PUSH2 0x2E5C JUMPI DUP3 DUP4 REVERT JUMPDEST PUSH2 0x2E68 DUP10 DUP4 DUP11 ADD PUSH2 0x2BB8 JUMP JUMPDEST SWAP4 POP PUSH1 0x80 DUP9 ADD CALLDATALOAD SWAP2 POP DUP1 DUP3 GT ISZERO PUSH2 0x2E7D JUMPI DUP3 DUP4 REVERT JUMPDEST POP PUSH2 0x2E8A DUP9 DUP3 DUP10 ADD PUSH2 0x2C6B JUMP JUMPDEST SWAP2 POP POP SWAP3 SWAP6 POP SWAP3 SWAP6 SWAP1 SWAP4 POP JUMP JUMPDEST PUSH1 0x0 DUP1 PUSH1 0x0 DUP1 PUSH1 0x0 DUP1 PUSH1 0xA0 DUP8 DUP10 SUB SLT ISZERO PUSH2 0x2EAF JUMPI DUP4 DUP5 REVERT JUMPDEST DUP7 CALLDATALOAD PUSH2 0x2EBA DUP2 PUSH2 0x391B JUMP JUMPDEST SWAP6 POP PUSH1 0x20 DUP8 ADD CALLDATALOAD PUSH2 0x2ECA DUP2 PUSH2 0x391B JUMP JUMPDEST SWAP5 POP PUSH1 0x40 DUP8 ADD CALLDATALOAD SWAP4 POP PUSH1 0x60 DUP8 ADD CALLDATALOAD SWAP3 POP PUSH1 0x80 DUP8 ADD CALLDATALOAD PUSH1 0x1 PUSH1 0x1 PUSH1 0x40 SHL SUB DUP2 GT ISZERO PUSH2 0x2EF2 JUMPI DUP3 DUP4 REVERT JUMPDEST PUSH2 0x2EFE DUP10 DUP3 DUP11 ADD PUSH2 0x2C2C JUMP JUMPDEST SWAP8 SWAP11 SWAP7 SWAP10 POP SWAP5 SWAP8 POP SWAP3 SWAP6 SWAP4 SWAP5 SWAP3 POP POP POP JUMP JUMPDEST PUSH1 0x0 DUP1 PUSH1 0x0 DUP1 PUSH1 0x0 PUSH1 0xA0 DUP7 DUP9 SUB SLT ISZERO PUSH2 0x2F27 JUMPI DUP3 DUP4 REVERT JUMPDEST DUP6 CALLDATALOAD PUSH2 0x2F32 DUP2 PUSH2 0x391B JUMP JUMPDEST SWAP5 POP PUSH1 0x20 DUP7 ADD CALLDATALOAD PUSH2 0x2F42 DUP2 PUSH2 0x391B JUMP JUMPDEST SWAP4 POP PUSH1 0x40 DUP7 ADD CALLDATALOAD SWAP3 POP PUSH1 0x60 DUP7 ADD CALLDATALOAD SWAP2 POP PUSH1 0x80 DUP7 ADD CALLDATALOAD PUSH1 0x1 PUSH1 0x1 PUSH1 0x40 SHL SUB DUP2 GT ISZERO PUSH2 0x2F6A JUMPI DUP2 DUP3 REVERT JUMPDEST PUSH2 0x2E8A DUP9 DUP3 DUP10 ADD PUSH2 0x2C6B JUMP JUMPDEST PUSH1 0x0 DUP1 PUSH1 0x40 DUP4 DUP6 SUB SLT ISZERO PUSH2 0x2F88 JUMPI DUP2 DUP3 REVERT JUMPDEST DUP3 CALLDATALOAD PUSH2 0x2F93 DUP2 PUSH2 0x391B JUMP JUMPDEST SWAP2 POP PUSH1 0x20 DUP4 ADD CALLDATALOAD PUSH2 0x2D29 DUP2 PUSH2 0x3933 JUMP JUMPDEST PUSH1 0x0 DUP1 PUSH1 0x40 DUP4 DUP6 SUB SLT ISZERO PUSH2 0x2FB5 JUMPI DUP2 DUP3 REVERT JUMPDEST DUP3 CALLDATALOAD PUSH2 0x2FC0 DUP2 PUSH2 0x391B JUMP JUMPDEST SWAP5 PUSH1 0x20 SWAP4 SWAP1 SWAP4 ADD CALLDATALOAD SWAP4 POP POP POP JUMP JUMPDEST PUSH1 0x0 DUP1 PUSH1 0x40 DUP4 DUP6 SUB SLT ISZERO PUSH2 0x2FE0 JUMPI DUP2 DUP3 REVERT JUMPDEST DUP3 CALLDATALOAD PUSH1 0x1 PUSH1 0x1 PUSH1 0x40 SHL SUB DUP1 DUP3 GT ISZERO PUSH2 0x2FF6 JUMPI DUP4 DUP5 REVERT JUMPDEST DUP2 DUP6 ADD SWAP2 POP DUP6 PUSH1 0x1F DUP4 ADD SLT PUSH2 0x3009 JUMPI DUP4 DUP5 REVERT JUMPDEST DUP2 CALLDATALOAD PUSH1 0x20 PUSH2 0x3016 DUP3 PUSH2 0x3638 JUMP JUMPDEST PUSH1 0x40 MLOAD PUSH2 0x3023 DUP3 DUP3 PUSH2 0x37C3 JUMP JUMPDEST DUP4 DUP2 MSTORE DUP3 DUP2 ADD SWAP2 POP DUP6 DUP4 ADD PUSH1 0x5 DUP6 SWAP1 SHL DUP8 ADD DUP5 ADD DUP12 LT ISZERO PUSH2 0x3042 JUMPI DUP9 DUP10 REVERT JUMPDEST DUP9 SWAP7 POP JUMPDEST DUP5 DUP8 LT ISZERO PUSH2 0x306D JUMPI DUP1 CALLDATALOAD PUSH2 0x3059 DUP2 PUSH2 0x391B JUMP JUMPDEST DUP4 MSTORE PUSH1 0x1 SWAP7 SWAP1 SWAP7 ADD SWAP6 SWAP2 DUP4 ADD SWAP2 DUP4 ADD PUSH2 0x3046 JUMP JUMPDEST POP SWAP7 POP POP DUP7 ADD CALLDATALOAD SWAP3 POP POP DUP1 DUP3 GT ISZERO PUSH2 0x3083 JUMPI DUP3 DUP4 REVERT JUMPDEST POP PUSH2 0x3090 DUP6 DUP3 DUP7 ADD PUSH2 0x2BB8 JUMP JUMPDEST SWAP2 POP POP SWAP3 POP SWAP3 SWAP1 POP JUMP JUMPDEST PUSH1 0x0 DUP1 PUSH1 0x0 DUP1 PUSH1 0x0 DUP1 PUSH1 0x0 DUP1 PUSH1 0xA0 DUP10 DUP12 SUB SLT ISZERO PUSH2 0x30B5 JUMPI DUP2 DUP3 REVERT JUMPDEST DUP9 CALLDATALOAD PUSH1 0x1 PUSH1 0x1 PUSH1 0x40 SHL SUB DUP1 DUP3 GT ISZERO PUSH2 0x30CB JUMPI DUP4 DUP5 REVERT JUMPDEST PUSH2 0x30D7 DUP13 DUP4 DUP14 ADD PUSH2 0x2B6F JUMP JUMPDEST SWAP1 SWAP11 POP SWAP9 POP PUSH1 0x20 DUP12 ADD CALLDATALOAD SWAP2 POP DUP1 DUP3 GT ISZERO PUSH2 0x30EF JUMPI DUP4 DUP5 REVERT JUMPDEST PUSH2 0x30FB DUP13 DUP4 DUP14 ADD PUSH2 0x2B6F JUMP JUMPDEST SWAP1 SWAP9 POP SWAP7 POP PUSH1 0x40 DUP12 ADD CALLDATALOAD SWAP2 POP DUP1 DUP3 GT ISZERO PUSH2 0x3113 JUMPI DUP4 DUP5 REVERT JUMPDEST POP PUSH2 0x3120 DUP12 DUP3 DUP13 ADD PUSH2 0x2B6F JUMP JUMPDEST SWAP10 SWAP13 SWAP9 SWAP12 POP SWAP7 SWAP10 SWAP6 SWAP9 SWAP7 SWAP8 PUSH1 0x60 DUP8 ADD CALLDATALOAD SWAP7 PUSH1 0x80 ADD CALLDATALOAD SWAP6 POP SWAP4 POP POP POP POP JUMP JUMPDEST PUSH1 0x0 PUSH1 0x20 DUP3 DUP5 SUB SLT ISZERO PUSH2 0x314F JUMPI DUP1 DUP2 REVERT JUMPDEST DUP2 MLOAD PUSH2 0x2200 DUP2 PUSH2 0x3933 JUMP JUMPDEST PUSH1 0x0 PUSH1 0x20 DUP3 DUP5 SUB SLT ISZERO PUSH2 0x316B JUMPI DUP1 DUP2 REVERT JUMPDEST DUP2 CALLDATALOAD PUSH2 0x2200 DUP2 PUSH2 0x3941 JUMP JUMPDEST PUSH1 0x0 PUSH1 0x20 DUP3 DUP5 SUB SLT ISZERO PUSH2 0x3187 JUMPI DUP1 DUP2 REVERT JUMPDEST DUP2 MLOAD PUSH2 0x2200 DUP2 PUSH2 0x3941 JUMP JUMPDEST PUSH1 0x0 PUSH1 0x20 DUP3 DUP5 SUB SLT ISZERO PUSH2 0x31A3 JUMPI DUP1 DUP2 REVERT JUMPDEST POP CALLDATALOAD SWAP2 SWAP1 POP JUMP JUMPDEST PUSH1 0x0 PUSH1 0x20 DUP3 DUP5 SUB SLT ISZERO PUSH2 0x31BB JUMPI DUP1 DUP2 REVERT JUMPDEST POP MLOAD SWAP2 SWAP1 POP JUMP JUMPDEST PUSH1 0x0 DUP1 PUSH1 0x0 DUP1 PUSH1 0x0 DUP1 PUSH1 0x0 DUP1 PUSH1 0x0 DUP1 PUSH1 0x0 PUSH2 0x160 DUP13 DUP15 SUB SLT ISZERO PUSH2 0x31E3 JUMPI DUP5 DUP6 REVERT JUMPDEST DUP12 MLOAD SWAP11 POP PUSH1 0x20 DUP13 ADD MLOAD SWAP10 POP PUSH1 0x40 DUP13 ADD MLOAD SWAP9 POP PUSH1 0x60 DUP13 ADD MLOAD PUSH2 0x3203 DUP2 PUSH2 0x391B JUMP JUMPDEST PUSH1 0x80 DUP14 ADD MLOAD SWAP1 SWAP9 POP PUSH2 0x3214 DUP2 PUSH2 0x3957 JUMP JUMPDEST SWAP7 POP PUSH2 0x3222 PUSH1 0xA0 DUP14 ADD PUSH2 0x2CD9 JUMP JUMPDEST SWAP6 POP PUSH2 0x3230 PUSH1 0xC0 DUP14 ADD PUSH2 0x2CD9 JUMP JUMPDEST SWAP5 POP PUSH1 0xE0 DUP13 ADD MLOAD PUSH2 0x3240 DUP2 PUSH2 0x391B JUMP JUMPDEST PUSH2 0x100 DUP14 ADD MLOAD SWAP1 SWAP5 POP PUSH1 0x1 PUSH1 0x1 PUSH1 0x40 SHL SUB DUP2 AND DUP2 EQ PUSH2 0x325D JUMPI DUP4 DUP5 REVERT JUMPDEST SWAP3 POP PUSH2 0x326C PUSH2 0x120 DUP14 ADD PUSH2 0x2B5F JUMP JUMPDEST SWAP2 POP PUSH2 0x327B PUSH2 0x140 DUP14 ADD PUSH2 0x2B5F JUMP JUMPDEST SWAP1 POP SWAP3 SWAP6 SWAP9 SWAP12 POP SWAP3 SWAP6 SWAP9 SWAP12 SWAP1 SWAP4 SWAP7 SWAP10 POP JUMP JUMPDEST PUSH1 0x0 PUSH1 0x20 DUP3 DUP5 SUB SLT ISZERO PUSH2 0x329E JUMPI DUP1 DUP2 REVERT JUMPDEST DUP2 CALLDATALOAD PUSH2 0x2200 DUP2 PUSH2 0x3957 JUMP JUMPDEST PUSH1 0x0 DUP1 PUSH1 0x40 DUP4 DUP6 SUB SLT ISZERO PUSH2 0x32BB JUMPI DUP2 DUP3 REVERT JUMPDEST DUP3 CALLDATALOAD PUSH2 0x32C6 DUP2 PUSH2 0x3957 JUMP JUMPDEST SWAP2 POP PUSH2 0x32D4 PUSH1 0x20 DUP5 ADD PUSH2 0x2CEB JUMP JUMPDEST SWAP1 POP SWAP3 POP SWAP3 SWAP1 POP JUMP JUMPDEST PUSH1 0x0 DUP1 PUSH1 0x0 PUSH1 0x60 DUP5 DUP7 SUB SLT ISZERO PUSH2 0x32F1 JUMPI DUP1 DUP2 REVERT JUMPDEST DUP4 CALLDATALOAD PUSH2 0x32FC DUP2 PUSH2 0x3957 JUMP JUMPDEST SWAP3 POP PUSH2 0x330A PUSH1 0x20 DUP6 ADD PUSH2 0x2CEB JUMP JUMPDEST SWAP2 POP PUSH1 0x40 DUP5 ADD CALLDATALOAD SWAP1 POP SWAP3 POP SWAP3 POP SWAP3 JUMP JUMPDEST PUSH1 0x0 DUP2 MLOAD DUP1 DUP5 MSTORE PUSH1 0x20 DUP1 DUP6 ADD SWAP5 POP DUP1 DUP5 ADD DUP4 JUMPDEST DUP4 DUP2 LT ISZERO PUSH2 0x3349 JUMPI DUP2 MLOAD DUP8 MSTORE SWAP6 DUP3 ADD SWAP6 SWAP1 DUP3 ADD SWAP1 PUSH1 0x1 ADD PUSH2 0x332D JUMP JUMPDEST POP SWAP5 SWAP6 SWAP5 POP POP POP POP POP JUMP JUMPDEST PUSH1 0x0 DUP2 MLOAD DUP1 DUP5 MSTORE PUSH2 0x336C DUP2 PUSH1 0x20 DUP7 ADD PUSH1 0x20 DUP7 ADD PUSH2 0x375C JUMP JUMPDEST PUSH1 0x1F ADD PUSH1 0x1F NOT AND SWAP3 SWAP1 SWAP3 ADD PUSH1 0x20 ADD SWAP3 SWAP2 POP POP JUMP JUMPDEST PUSH1 0x0 DUP4 MLOAD PUSH2 0x3392 DUP2 DUP5 PUSH1 0x20 DUP9 ADD PUSH2 0x375C JUMP JUMPDEST DUP4 MLOAD SWAP1 DUP4 ADD SWAP1 PUSH2 0x33A6 DUP2 DUP4 PUSH1 0x20 DUP9 ADD PUSH2 0x375C JUMP JUMPDEST ADD SWAP5 SWAP4 POP POP POP POP JUMP JUMPDEST PUSH1 0x0 DUP3 MLOAD PUSH2 0x33C1 DUP2 DUP5 PUSH1 0x20 DUP8 ADD PUSH2 0x375C JUMP JUMPDEST SWAP2 SWAP1 SWAP2 ADD SWAP3 SWAP2 POP POP JUMP JUMPDEST PUSH1 0x1 PUSH1 0x1 PUSH1 0xA0 SHL SUB DUP7 DUP2 AND DUP3 MSTORE DUP6 AND PUSH1 0x20 DUP3 ADD MSTORE PUSH1 0xA0 PUSH1 0x40 DUP3 ADD DUP2 SWAP1 MSTORE PUSH1 0x0 SWAP1 PUSH2 0x33F7 SWAP1 DUP4 ADD DUP7 PUSH2 0x331A JUMP JUMPDEST DUP3 DUP2 SUB PUSH1 0x60 DUP5 ADD MSTORE PUSH2 0x3409 DUP2 DUP7 PUSH2 0x331A JUMP JUMPDEST SWAP1 POP DUP3 DUP2 SUB PUSH1 0x80 DUP5 ADD MSTORE PUSH2 0x341D DUP2 DUP6 PUSH2 0x3354 JUMP JUMPDEST SWAP9 SWAP8 POP POP POP POP POP POP POP POP JUMP JUMPDEST PUSH1 0x1 PUSH1 0x1 PUSH1 0xA0 SHL SUB SWAP4 DUP5 AND DUP2 MSTORE SWAP2 SWAP1 SWAP3 AND PUSH1 0x20 DUP3 ADD MSTORE PUSH1 0x40 DUP2 ADD SWAP2 SWAP1 SWAP2 MSTORE PUSH1 0x60 ADD SWAP1 JUMP JUMPDEST PUSH1 0x1 PUSH1 0x1 PUSH1 0xA0 SHL SUB DUP7 DUP2 AND DUP3 MSTORE DUP6 AND PUSH1 0x20 DUP3 ADD MSTORE PUSH1 0x40 DUP2 ADD DUP5 SWAP1 MSTORE PUSH1 0x60 DUP2 ADD DUP4 SWAP1 MSTORE PUSH1 0xA0 PUSH1 0x80 DUP3 ADD DUP2 SWAP1 MSTORE PUSH1 0x0 SWAP1 PUSH2 0x3487 SWAP1 DUP4 ADD DUP5 PUSH2 0x3354 JUMP JUMPDEST SWAP8 SWAP7 POP POP POP POP POP POP POP JUMP JUMPDEST PUSH1 0x20 DUP2 MSTORE PUSH1 0x0 PUSH2 0x2200 PUSH1 0x20 DUP4 ADD DUP5 PUSH2 0x331A JUMP JUMPDEST PUSH1 0x40 DUP2 MSTORE PUSH1 0x0 PUSH2 0x34B8 PUSH1 0x40 DUP4 ADD DUP6 PUSH2 0x331A JUMP JUMPDEST DUP3 DUP2 SUB PUSH1 0x20 DUP5 ADD MSTORE PUSH2 0x34CA DUP2 DUP6 PUSH2 0x331A JUMP JUMPDEST SWAP6 SWAP5 POP POP POP POP POP JUMP JUMPDEST PUSH1 0x20 DUP2 MSTORE PUSH1 0x0 PUSH2 0x2200 PUSH1 0x20 DUP4 ADD DUP5 PUSH2 0x3354 JUMP JUMPDEST PUSH1 0x20 DUP1 DUP3 MSTORE PUSH1 0x28 SWAP1 DUP3 ADD MSTORE PUSH32 0x455243313135353A204552433131353552656365697665722072656A65637465 PUSH1 0x40 DUP3 ADD MSTORE PUSH8 0x6420746F6B656E73 PUSH1 0xC0 SHL PUSH1 0x60 DUP3 ADD MSTORE PUSH1 0x80 ADD SWAP1 JUMP JUMPDEST PUSH1 0x20 DUP1 DUP3 MSTORE PUSH1 0x2E SWAP1 DUP3 ADD MSTORE PUSH32 0x455243313135353A2063616C6C6572206973206E6F7420746F6B656E206F776E PUSH1 0x40 DUP3 ADD MSTORE PUSH14 0x195C881BDC88185C1C1C9BDD9959 PUSH1 0x92 SHL PUSH1 0x60 DUP3 ADD MSTORE PUSH1 0x80 ADD SWAP1 JUMP JUMPDEST PUSH1 0x20 DUP1 DUP3 MSTORE PUSH1 0x25 SWAP1 DUP3 ADD MSTORE PUSH32 0x455243313135353A207472616E7366657220746F20746865207A65726F206164 PUSH1 0x40 DUP3 ADD MSTORE PUSH5 0x6472657373 PUSH1 0xD8 SHL PUSH1 0x60 DUP3 ADD MSTORE PUSH1 0x80 ADD SWAP1 JUMP JUMPDEST PUSH1 0x20 DUP1 DUP3 MSTORE PUSH1 0x13 SWAP1 DUP3 ADD MSTORE PUSH19 0x4E6F20737570706C792072656D61696E696E67 PUSH1 0x68 SHL PUSH1 0x40 DUP3 ADD MSTORE PUSH1 0x60 ADD SWAP1 JUMP JUMPDEST PUSH1 0x20 DUP1 DUP3 MSTORE PUSH1 0x2A SWAP1 DUP3 ADD MSTORE PUSH32 0x455243313135353A20696E73756666696369656E742062616C616E636520666F PUSH1 0x40 DUP3 ADD MSTORE PUSH10 0x39103A3930B739B332B9 PUSH1 0xB1 SHL PUSH1 0x60 DUP3 ADD MSTORE PUSH1 0x80 ADD SWAP1 JUMP JUMPDEST PUSH1 0x0 PUSH1 0x1 PUSH1 0x1 PUSH1 0x40 SHL SUB DUP3 GT ISZERO PUSH2 0x3651 JUMPI PUSH2 0x3651 PUSH2 0x3864 JUMP JUMPDEST POP PUSH1 0x5 SHL PUSH1 0x20 ADD SWAP1 JUMP JUMPDEST PUSH1 0x0 DUP3 NOT DUP3 GT ISZERO PUSH2 0x366E JUMPI PUSH2 0x366E PUSH2 0x384E JUMP JUMPDEST POP ADD SWAP1 JUMP JUMPDEST PUSH1 0x0 PUSH4 0xFFFFFFFF DUP1 DUP4 AND DUP2 DUP6 AND DUP1 DUP4 SUB DUP3 GT ISZERO PUSH2 0x33A6 JUMPI PUSH2 0x33A6 PUSH2 0x384E JUMP JUMPDEST PUSH1 0x0 PUSH1 0x1 PUSH1 0x1 PUSH1 0x40 SHL SUB DUP1 DUP4 AND DUP2 DUP6 AND DUP1 DUP4 SUB DUP3 GT ISZERO PUSH2 0x33A6 JUMPI PUSH2 0x33A6 PUSH2 0x384E JUMP JUMPDEST PUSH1 0x0 DUP3 PUSH2 0x36CF JUMPI PUSH4 0x4E487B71 PUSH1 0xE0 SHL DUP2 MSTORE PUSH1 0x12 PUSH1 0x4 MSTORE PUSH1 0x24 DUP2 REVERT JUMPDEST POP DIV SWAP1 JUMP JUMPDEST PUSH1 0x0 DUP2 PUSH1 0x0 NOT DIV DUP4 GT DUP3 ISZERO ISZERO AND ISZERO PUSH2 0x36EE JUMPI PUSH2 0x36EE PUSH2 0x384E JUMP JUMPDEST POP MUL SWAP1 JUMP JUMPDEST PUSH1 0x0 PUSH1 0x1 PUSH1 0x1 PUSH1 0x40 SHL SUB DUP1 DUP4 AND DUP2 DUP6 AND DUP2 DUP4 DIV DUP2 GT DUP3 ISZERO ISZERO AND ISZERO PUSH2 0x3719 JUMPI PUSH2 0x3719 PUSH2 0x384E JUMP JUMPDEST MUL SWAP5 SWAP4 POP POP POP POP JUMP JUMPDEST PUSH1 0x0 PUSH2 0xFFFF DUP4 DUP2 AND SWAP1 DUP4 AND DUP2 DUP2 LT ISZERO PUSH2 0x373D JUMPI PUSH2 0x373D PUSH2 0x384E JUMP JUMPDEST SUB SWAP4 SWAP3 POP POP POP JUMP JUMPDEST PUSH1 0x0 DUP3 DUP3 LT ISZERO PUSH2 0x3757 JUMPI PUSH2 0x3757 PUSH2 0x384E JUMP JUMPDEST POP SUB SWAP1 JUMP JUMPDEST PUSH1 0x0 JUMPDEST DUP4 DUP2 LT ISZERO PUSH2 0x3777 JUMPI DUP2 DUP2 ADD MLOAD DUP4 DUP3 ADD MSTORE PUSH1 0x20 ADD PUSH2 0x375F JUMP JUMPDEST DUP4 DUP2 GT ISZERO PUSH2 0x1E4F JUMPI POP POP PUSH1 0x0 SWAP2 ADD MSTORE JUMP JUMPDEST PUSH1 0x1 DUP2 DUP2 SHR SWAP1 DUP3 AND DUP1 PUSH2 0x379C JUMPI PUSH1 0x7F DUP3 AND SWAP2 POP JUMPDEST PUSH1 0x20 DUP3 LT DUP2 EQ ISZERO PUSH2 0x37BD JUMPI PUSH4 0x4E487B71 PUSH1 0xE0 SHL PUSH1 0x0 MSTORE PUSH1 0x22 PUSH1 0x4 MSTORE PUSH1 0x24 PUSH1 0x0 REVERT JUMPDEST POP SWAP2 SWAP1 POP JUMP JUMPDEST PUSH1 0x1F DUP3 ADD PUSH1 0x1F NOT AND DUP2 ADD PUSH1 0x1 PUSH1 0x1 PUSH1 0x40 SHL SUB DUP2 GT DUP3 DUP3 LT OR ISZERO PUSH2 0x37E8 JUMPI PUSH2 0x37E8 PUSH2 0x3864 JUMP JUMPDEST PUSH1 0x40 MSTORE POP POP JUMP JUMPDEST PUSH1 0x0 PUSH1 0x0 NOT DUP3 EQ ISZERO PUSH2 0x3803 JUMPI PUSH2 0x3803 PUSH2 0x384E JUMP JUMPDEST POP PUSH1 0x1 ADD SWAP1 JUMP JUMPDEST PUSH1 0x0 PUSH4 0xFFFFFFFF DUP1 DUP4 AND DUP2 DUP2 EQ ISZERO PUSH2 0x3824 JUMPI PUSH2 0x3824 PUSH2 0x384E JUMP JUMPDEST PUSH1 0x1 ADD SWAP4 SWAP3 POP POP POP JUMP JUMPDEST PUSH1 0x0 PUSH1 0xFF DUP3 AND PUSH1 0xFF DUP2 EQ ISZERO PUSH2 0x3845 JUMPI PUSH2 0x3845 PUSH2 0x384E JUMP JUMPDEST PUSH1 0x1 ADD SWAP3 SWAP2 POP POP JUMP JUMPDEST PUSH4 0x4E487B71 PUSH1 0xE0 SHL PUSH1 0x0 MSTORE PUSH1 0x11 PUSH1 0x4 MSTORE PUSH1 0x24 PUSH1 0x0 REVERT JUMPDEST PUSH4 0x4E487B71 PUSH1 0xE0 SHL PUSH1 0x0 MSTORE PUSH1 0x41 PUSH1 0x4 MSTORE PUSH1 0x24 PUSH1 0x0 REVERT JUMPDEST PUSH1 0x0 PUSH1 0x3 RETURNDATASIZE GT ISZERO PUSH2 0x388F JUMPI PUSH1 0x4 DUP2 DUP3 RETURNDATACOPY MLOAD PUSH1 0xE0 SHR JUMPDEST SWAP1 JUMP JUMPDEST PUSH1 0x0 PUSH1 0x44 RETURNDATASIZE LT ISZERO PUSH2 0x38A0 JUMPI SWAP1 JUMP JUMPDEST PUSH1 0x40 MLOAD PUSH1 0x3 NOT RETURNDATASIZE DUP2 ADD PUSH1 0x4 DUP4 RETURNDATACOPY DUP2 MLOAD RETURNDATASIZE PUSH1 0x1 PUSH1 0x1 PUSH1 0x40 SHL SUB DUP2 PUSH1 0x24 DUP5 ADD GT DUP2 DUP5 GT OR ISZERO PUSH2 0x38CF JUMPI POP POP POP POP POP SWAP1 JUMP JUMPDEST DUP3 DUP6 ADD SWAP2 POP DUP2 MLOAD DUP2 DUP2 GT ISZERO PUSH2 0x38E7 JUMPI POP POP POP POP POP POP SWAP1 JUMP JUMPDEST DUP5 RETURNDATASIZE DUP8 ADD ADD PUSH1 0x20 DUP3 DUP6 ADD ADD GT ISZERO PUSH2 0x3901 JUMPI POP POP POP POP POP POP SWAP1 JUMP JUMPDEST PUSH2 0x3910 PUSH1 0x20 DUP3 DUP7 ADD ADD DUP8 PUSH2 0x37C3 JUMP JUMPDEST POP SWAP1 SWAP6 SWAP5 POP POP POP POP POP JUMP JUMPDEST PUSH1 0x1 PUSH1 0x1 PUSH1 0xA0 SHL SUB DUP2 AND DUP2 EQ PUSH2 0x3930 JUMPI PUSH1 0x0 DUP1 REVERT JUMPDEST POP JUMP JUMPDEST DUP1 ISZERO ISZERO DUP2 EQ PUSH2 0x3930 JUMPI PUSH1 0x0 DUP1 REVERT JUMPDEST PUSH1 0x1 PUSH1 0x1 PUSH1 0xE0 SHL SUB NOT DUP2 AND DUP2 EQ PUSH2 0x3930 JUMPI PUSH1 0x0 DUP1 REVERT JUMPDEST PUSH4 0xFFFFFFFF DUP2 AND DUP2 EQ PUSH2 0x3930 JUMPI PUSH1 0x0 DUP1 REVERT INVALID 0xC3 0xD5 DUP2 PUSH9 0xC5AE7397731D063D5B 0xBF RETURNDATASIZE PUSH6 0x7854427343F4 0xC0 DUP4 0x24 0xF PUSH27 0xACAA2D0F62A2646970667358221220B68F9423B411EE306541D7CC SIGNEXTEND PUSH19 0xCE7E50230DB55CE8FBBB38893DE5C4348CA064 PUSH20 0x6F6C634300080400330000000000000000000000 "
		},
		"gasEstimates": {
			"creation": {
				"codeDepositCost": "2956600",
				"executionCost": "infinite",
				"totalCost": "infinite"
			},
			"external": {
				"balanceOf(address,uint256)": "1394",
				"balanceOfBatch(address[],uint256[])": "infinite",
				"buyTokens(uint32,uint8,uint256)": "infinite",
				"exists(uint256)": "1217",
				"getNftPrice(address,uint256)": "infinite",
				"getTokenPrice(uint32,uint8)": "infinite",
				"getTokenQuantity(uint32,uint8)": "infinite",
				"isApprovedForAll(address,address)": "infinite",
				"liquidateNft(address,uint256)": "infinite",
				"mint(uint256[],uint256[],uint32[],uint256,uint256)": "infinite",
				"onERC1155BatchReceived(address,address,uint256[],uint256[],bytes)": "infinite",
				"onERC1155Received(address,address,uint256,uint256,bytes)": "infinite",
				"redeemTokens(uint32)": "infinite",
				"safeBatchTransferFrom(address,address,uint256[],uint256[],bytes)": "infinite",
				"safeTransferFrom(address,address,uint256,uint256,bytes)": "infinite",
				"setApprovalForAll(address,bool)": "infinite",
				"supportsInterface(bytes4)": "578",
				"test()": "infinite",
				"totalSupply(uint256)": "1172",
				"uri(uint256)": "infinite"
			},
			"internal": {
				"_getNftPrice(uint256,uint64,uint256)": "infinite",
				"_getTokenPrice(struct NftSec.Product memory,uint8)": "infinite",
				"_getTokenQuantity(struct NftSec.Product memory,uint8)": "infinite",
				"_getUnderlying(address,uint256)": "infinite"
			}
		},
		"methodIdentifiers": {
			"balanceOf(address,uint256)": "00fdd58e",
			"balanceOfBatch(address[],uint256[])": "4e1273f4",
			"buyTokens(uint32,uint8,uint256)": "092af626",
			"exists(uint256)": "4f558e79",
			"getNftPrice(address,uint256)": "c8c1885a",
			"getTokenPrice(uint32,uint8)": "75bab092",
			"getTokenQuantity(uint32,uint8)": "d3904b92",
			"isApprovedForAll(address,address)": "e985e9c5",
			"liquidateNft(address,uint256)": "c5c65fc9",
			"mint(uint256[],uint256[],uint32[],uint256,uint256)": "3b7e6a12",
			"onERC1155BatchReceived(address,address,uint256[],uint256[],bytes)": "bc197c81",
			"onERC1155Received(address,address,uint256,uint256,bytes)": "f23a6e61",
			"redeemTokens(uint32)": "ff6d2edc",
			"safeBatchTransferFrom(address,address,uint256[],uint256[],bytes)": "2eb2c2d6",
			"safeTransferFrom(address,address,uint256,uint256,bytes)": "f242432a",
			"setApprovalForAll(address,bool)": "a22cb465",
			"supportsInterface(bytes4)": "01ffc9a7",
			"test()": "f8a8fd6d",
			"totalSupply(uint256)": "bd85b039",
			"uri(uint256)": "0e89341c"
		}
	},
	"abi": [
		{
			"inputs": [
				{
					"internalType": "address",
					"name": "weth",
					"type": "address"
				},
				{
					"internalType": "address",
					"name": "nftfi",
					"type": "address"
				},
				{
					"internalType": "address",
					"name": "erc721Wrapper",
					"type": "address"
				}
			],
			"stateMutability": "nonpayable",
			"type": "constructor"
		},
		{
			"anonymous": false,
			"inputs": [
				{
					"indexed": true,
					"internalType": "address",
					"name": "account",
					"type": "address"
				},
				{
					"indexed": true,
					"internalType": "address",
					"name": "operator",
					"type": "address"
				},
				{
					"indexed": false,
					"internalType": "bool",
					"name": "approved",
					"type": "bool"
				}
			],
			"name": "ApprovalForAll",
			"type": "event"
		},
		{
			"anonymous": false,
			"inputs": [
				{
					"indexed": true,
					"internalType": "address",
					"name": "operator",
					"type": "address"
				},
				{
					"indexed": true,
					"internalType": "address",
					"name": "from",
					"type": "address"
				},
				{
					"indexed": true,
					"internalType": "address",
					"name": "to",
					"type": "address"
				},
				{
					"indexed": false,
					"internalType": "uint256[]",
					"name": "ids",
					"type": "uint256[]"
				},
				{
					"indexed": false,
					"internalType": "uint256[]",
					"name": "values",
					"type": "uint256[]"
				}
			],
			"name": "TransferBatch",
			"type": "event"
		},
		{
			"anonymous": false,
			"inputs": [
				{
					"indexed": true,
					"internalType": "address",
					"name": "operator",
					"type": "address"
				},
				{
					"indexed": true,
					"internalType": "address",
					"name": "from",
					"type": "address"
				},
				{
					"indexed": true,
					"internalType": "address",
					"name": "to",
					"type": "address"
				},
				{
					"indexed": false,
					"internalType": "uint256",
					"name": "id",
					"type": "uint256"
				},
				{
					"indexed": false,
					"internalType": "uint256",
					"name": "value",
					"type": "uint256"
				}
			],
			"name": "TransferSingle",
			"type": "event"
		},
		{
			"anonymous": false,
			"inputs": [
				{
					"indexed": false,
					"internalType": "string",
					"name": "value",
					"type": "string"
				},
				{
					"indexed": true,
					"internalType": "uint256",
					"name": "id",
					"type": "uint256"
				}
			],
			"name": "URI",
			"type": "event"
		},
		{
			"inputs": [
				{
					"internalType": "address",
					"name": "account",
					"type": "address"
				},
				{
					"internalType": "uint256",
					"name": "id",
					"type": "uint256"
				}
			],
			"name": "balanceOf",
			"outputs": [
				{
					"internalType": "uint256",
					"name": "",
					"type": "uint256"
				}
			],
			"stateMutability": "view",
			"type": "function"
		},
		{
			"inputs": [
				{
					"internalType": "address[]",
					"name": "accounts",
					"type": "address[]"
				},
				{
					"internalType": "uint256[]",
					"name": "ids",
					"type": "uint256[]"
				}
			],
			"name": "balanceOfBatch",
			"outputs": [
				{
					"internalType": "uint256[]",
					"name": "",
					"type": "uint256[]"
				}
			],
			"stateMutability": "view",
			"type": "function"
		},
		{
			"inputs": [
				{
					"internalType": "uint32",
					"name": "productId",
					"type": "uint32"
				},
				{
					"internalType": "uint8",
					"name": "trancheId",
					"type": "uint8"
				},
				{
					"internalType": "uint256",
					"name": "amount",
					"type": "uint256"
				}
			],
			"name": "buyTokens",
			"outputs": [],
			"stateMutability": "nonpayable",
			"type": "function"
		},
		{
			"inputs": [
				{
					"internalType": "uint256",
					"name": "id",
					"type": "uint256"
				}
			],
			"name": "exists",
			"outputs": [
				{
					"internalType": "bool",
					"name": "",
					"type": "bool"
				}
			],
			"stateMutability": "view",
			"type": "function"
		},
		{
			"inputs": [
				{
					"internalType": "address",
					"name": "nftContract",
					"type": "address"
				},
				{
					"internalType": "uint256",
					"name": "nftId",
					"type": "uint256"
				}
			],
			"name": "getNftPrice",
			"outputs": [
				{
					"internalType": "uint256",
					"name": "",
					"type": "uint256"
				}
			],
			"stateMutability": "view",
			"type": "function"
		},
		{
			"inputs": [
				{
					"internalType": "uint32",
					"name": "productId",
					"type": "uint32"
				},
				{
					"internalType": "uint8",
					"name": "trancheId",
					"type": "uint8"
				}
			],
			"name": "getTokenPrice",
			"outputs": [
				{
					"internalType": "uint256",
					"name": "",
					"type": "uint256"
				}
			],
			"stateMutability": "view",
			"type": "function"
		},
		{
			"inputs": [
				{
					"internalType": "uint32",
					"name": "productId",
					"type": "uint32"
				},
				{
					"internalType": "uint8",
					"name": "trancheId",
					"type": "uint8"
				}
			],
			"name": "getTokenQuantity",
			"outputs": [
				{
					"internalType": "uint256",
					"name": "",
					"type": "uint256"
				}
			],
			"stateMutability": "view",
			"type": "function"
		},
		{
			"inputs": [
				{
					"internalType": "address",
					"name": "account",
					"type": "address"
				},
				{
					"internalType": "address",
					"name": "operator",
					"type": "address"
				}
			],
			"name": "isApprovedForAll",
			"outputs": [
				{
					"internalType": "bool",
					"name": "",
					"type": "bool"
				}
			],
			"stateMutability": "view",
			"type": "function"
		},
		{
			"inputs": [
				{
					"internalType": "address",
					"name": "nftContract",
					"type": "address"
				},
				{
					"internalType": "uint256",
					"name": "nftId",
					"type": "uint256"
				}
			],
			"name": "liquidateNft",
			"outputs": [],
			"stateMutability": "nonpayable",
			"type": "function"
		},
		{
			"inputs": [
				{
					"internalType": "uint256[]",
					"name": "trancheInterestRates",
					"type": "uint256[]"
				},
				{
					"internalType": "uint256[]",
					"name": "trancheNotionals",
					"type": "uint256[]"
				},
				{
					"internalType": "uint32[]",
					"name": "loanIds",
					"type": "uint32[]"
				},
				{
					"internalType": "uint256",
					"name": "duration",
					"type": "uint256"
				},
				{
					"internalType": "uint256",
					"name": "residualPrice",
					"type": "uint256"
				}
			],
			"name": "mint",
			"outputs": [],
			"stateMutability": "nonpayable",
			"type": "function"
		},
		{
			"inputs": [
				{
					"internalType": "address",
					"name": "",
					"type": "address"
				},
				{
					"internalType": "address",
					"name": "",
					"type": "address"
				},
				{
					"internalType": "uint256[]",
					"name": "",
					"type": "uint256[]"
				},
				{
					"internalType": "uint256[]",
					"name": "",
					"type": "uint256[]"
				},
				{
					"internalType": "bytes",
					"name": "",
					"type": "bytes"
				}
			],
			"name": "onERC1155BatchReceived",
			"outputs": [
				{
					"internalType": "bytes4",
					"name": "",
					"type": "bytes4"
				}
			],
			"stateMutability": "nonpayable",
			"type": "function"
		},
		{
			"inputs": [
				{
					"internalType": "address",
					"name": "",
					"type": "address"
				},
				{
					"internalType": "address",
					"name": "",
					"type": "address"
				},
				{
					"internalType": "uint256",
					"name": "",
					"type": "uint256"
				},
				{
					"internalType": "uint256",
					"name": "",
					"type": "uint256"
				},
				{
					"internalType": "bytes",
					"name": "",
					"type": "bytes"
				}
			],
			"name": "onERC1155Received",
			"outputs": [
				{
					"internalType": "bytes4",
					"name": "",
					"type": "bytes4"
				}
			],
			"stateMutability": "nonpayable",
			"type": "function"
		},
		{
			"inputs": [
				{
					"internalType": "uint32",
					"name": "productId",
					"type": "uint32"
				}
			],
			"name": "redeemTokens",
			"outputs": [],
			"stateMutability": "nonpayable",
			"type": "function"
		},
		{
			"inputs": [
				{
					"internalType": "address",
					"name": "from",
					"type": "address"
				},
				{
					"internalType": "address",
					"name": "to",
					"type": "address"
				},
				{
					"internalType": "uint256[]",
					"name": "ids",
					"type": "uint256[]"
				},
				{
					"internalType": "uint256[]",
					"name": "amounts",
					"type": "uint256[]"
				},
				{
					"internalType": "bytes",
					"name": "data",
					"type": "bytes"
				}
			],
			"name": "safeBatchTransferFrom",
			"outputs": [],
			"stateMutability": "nonpayable",
			"type": "function"
		},
		{
			"inputs": [
				{
					"internalType": "address",
					"name": "from",
					"type": "address"
				},
				{
					"internalType": "address",
					"name": "to",
					"type": "address"
				},
				{
					"internalType": "uint256",
					"name": "id",
					"type": "uint256"
				},
				{
					"internalType": "uint256",
					"name": "amount",
					"type": "uint256"
				},
				{
					"internalType": "bytes",
					"name": "data",
					"type": "bytes"
				}
			],
			"name": "safeTransferFrom",
			"outputs": [],
			"stateMutability": "nonpayable",
			"type": "function"
		},
		{
			"inputs": [
				{
					"internalType": "address",
					"name": "operator",
					"type": "address"
				},
				{
					"internalType": "bool",
					"name": "approved",
					"type": "bool"
				}
			],
			"name": "setApprovalForAll",
			"outputs": [],
			"stateMutability": "nonpayable",
			"type": "function"
		},
		{
			"inputs": [
				{
					"internalType": "bytes4",
					"name": "interfaceId",
					"type": "bytes4"
				}
			],
			"name": "supportsInterface",
			"outputs": [
				{
					"internalType": "bool",
					"name": "",
					"type": "bool"
				}
			],
			"stateMutability": "view",
			"type": "function"
		},
		{
			"inputs": [],
			"name": "test",
			"outputs": [
				{
					"internalType": "bytes32",
					"name": "",
					"type": "bytes32"
				}
			],
			"stateMutability": "view",
			"type": "function"
		},
		{
			"inputs": [
				{
					"internalType": "uint256",
					"name": "id",
					"type": "uint256"
				}
			],
			"name": "totalSupply",
			"outputs": [
				{
					"internalType": "uint256",
					"name": "",
					"type": "uint256"
				}
			],
			"stateMutability": "view",
			"type": "function"
		},
		{
			"inputs": [
				{
					"internalType": "uint256",
					"name": "",
					"type": "uint256"
				}
			],
			"name": "uri",
			"outputs": [
				{
					"internalType": "string",
					"name": "",
					"type": "string"
				}
			],
			"stateMutability": "view",
			"type": "function"
		}
	]
}