{
	"data": {
		"bytecode": {
			"linkReferences": {},
			"object": "60806040523480156200001157600080fd5b506040516200163738038062001637833981016040819052620000349162000736565b85620000408162000080565b50600180546001600160a01b0319166001600160a01b038716179055620000688484620000d0565b620000748282620001c8565b505050505050620008a6565b600080546001600160a01b038381166001600160a01b0319831681178455604051919092169283917f8be0079c531659141344cd1fd0a4f28419497f9722a3daafe3b4186f6b6457e09190a35050565b80518251146200013f5760405162461bcd60e51b815260206004820152602f60248201527f7365744e667454797065732066756e6374696f6e20696e666f726d6174696f6e60448201526e040c2e4d2e8f240dad2e6dac2e8c6d608b1b60648201526084015b60405180910390fd5b60005b8151811015620001c357620001ae8382815181106200017157634e487b7160e01b600052603260045260246000fd5b60200260200101518383815181106200019a57634e487b7160e01b600052603260045260246000fd5b6020026020010151620002b960201b60201c565b80620001ba8162000868565b91505062000142565b505050565b8051825114620002355760405162461bcd60e51b815260206004820152603160248201527f7365744e46545065726d6974732066756e6374696f6e20696e666f726d6174696044820152700dedc40c2e4d2e8f240dad2e6dac2e8c6d607b1b606482015260840162000136565b60005b8251811015620001c357620002a48382815181106200026757634e487b7160e01b600052603260045260246000fd5b60200260200101518383815181106200029057634e487b7160e01b600052603260045260246000fd5b60200260200101516200036f60201b60201c565b80620002b08162000868565b91505062000238565b8151620002fc5760405162461bcd60e51b815260206004820152601060248201526f6e66745479706520697320656d70747960801b604482015260640162000136565b600062000314836200053b60201b620004d41760201c565b60008181526002602052604080822080546001600160a01b0319166001600160a01b03871690811790915590519293509183917f22be69269c1f7d73e73dcb25b710dd88c7aa1cf374c16d945def98df2107c2f891a3505050565b6001600160a01b038216620003c75760405162461bcd60e51b815260206004820152601b60248201527f6e6674436f6e7472616374206973207a65726f20616464726573730000000000604482015260640162000136565b6000620003df826200053b60201b620004d41760201c565b905080156200044e576000818152600260205260409020546001600160a01b03166200044e5760405162461bcd60e51b815260206004820152601760248201527f4e46542074797065206e6f742072656769737465726564000000000000000000604482015260640162000136565b6200048a6040518060400160405280600e81526020016d20b4b9323937b82bb930b83832b960911b8152506200053b60201b620004d41760201c565b6001600160a01b0384166000908152600360205260409020541415620004f35760405162461bcd60e51b815260206004820181905260248201527f41697264726f70577261707065722063616e2774206265206d6f646966696564604482015260640162000136565b6001600160a01b038316600081815260036020526040808220849055518392917f903a211c8bcdc0ab18afc116fc4776504a9aac5c0121be0fda712d399017bd2291a3505050565b60006020825111156200057f5760405162461bcd60e51b815260206004820152600b60248201526a696e76616c6964206b657960a81b604482015260640162000136565b506020015190565b80516001600160a01b03811681146200059f57600080fd5b919050565b600082601f830112620005b5578081fd5b81516020620005ce620005c88362000842565b6200080f565b80838252828201915082860187848660051b8901011115620005ee578586fd5b855b858110156200061757620006048262000587565b84529284019290840190600101620005f0565b5090979650505050505050565b6000601f838184011262000636578182fd5b8251602062000649620005c88362000842565b80838252828201915082870188848660051b8a0101111562000669578687fd5b865b85811015620007285781516001600160401b03808211156200068b57898afd5b818b0191508b603f8301126200069f57898afd5b8682015181811115620006b657620006b662000890565b620006c9818b01601f191689016200080f565b915080825260408d81838601011115620006e1578b8cfd5b8b5b8281101562000700578481018201518482018b01528901620006e3565b8281111562000711578c8a84860101525b50505085525092840192908401906001016200066b565b509098975050505050505050565b60008060008060008060c087890312156200074f578182fd5b6200075a8762000587565b95506200076a6020880162000587565b60408801519095506001600160401b038082111562000787578384fd5b620007958a838b0162000624565b95506060890151915080821115620007ab578384fd5b620007b98a838b01620005a4565b94506080890151915080821115620007cf578384fd5b620007dd8a838b01620005a4565b935060a0890151915080821115620007f3578283fd5b506200080289828a0162000624565b9150509295509295509295565b604051601f8201601f191681016001600160401b03811182821017156200083a576200083a62000890565b604052919050565b60006001600160401b038211156200085e576200085e62000890565b5060051b60200190565b60006000198214156200088957634e487b7160e01b81526011600452602481fd5b5060010190565b634e487b7160e01b600052604160045260246000fd5b610d8180620008b66000396000f3fe608060405234801561001057600080fd5b506004361061009e5760003560e01c806395244b941161006657806395244b941461013a578063b8c8aff81461014d578063c88641a214610160578063d8e4e93e14610173578063f2fde38b1461018657600080fd5b80630a21cc43146100a35780631a3dd0a5146100b8578063365a86fc146100e85780636651f11d146100fb5780638da5cb5b14610132575b600080fd5b6100b66100b1366004610bb4565b610199565b005b6100cb6100c6366004610c0a565b6101df565b6040516001600160a01b0390911681526020015b60405180910390f35b6001546100cb906001600160a01b031681565b610124610109366004610ad9565b6001600160a01b031660009081526003602052604090205490565b6040519081526020016100df565b6100cb6101fa565b6100b6610148366004610b5e565b610209565b6100cb61015b366004610ad9565b610242565b6100b661016e366004610b11565b61026b565b6100b6610181366004610c22565b6103fb565b6100b6610194366004610ad9565b610434565b336101a26101fa565b6001600160a01b0316146101d15760405162461bcd60e51b81526004016101c890610c71565b60405180910390fd5b6101db828261051e565b5050565b6000908152600260205260409020546001600160a01b031690565b6000546001600160a01b031690565b336102126101fa565b6001600160a01b0316146102385760405162461bcd60e51b81526004016101c890610c71565b6101db82826105fd565b6001600160a01b038116600090815260036020526040812054610264816101df565b9392505050565b8061029b6040518060400160405280600e81526020016d20b4b9323937b82bb930b83832b960911b8152506104d4565b6102a4826104d4565b14156103975733600154604051631c2d8fb360e31b81526e41495244524f505f464143544f525960881b60048201526001600160a01b03928316929091169063e16c7d989060240160206040518083038186803b15801561030457600080fd5b505afa158015610318573d6000803e3d6000fd5b505050506040513d601f19601f8201168201806040525081019061033c9190610af5565b6001600160a01b0316146103925760405162461bcd60e51b815260206004820152601c60248201527f63616c6c6572206973206e6f742041697264726f70466163746f72790000000060448201526064016101c8565b6103ec565b336103a06101fa565b6001600160a01b0316146103ec5760405162461bcd60e51b815260206004820152601360248201527231b0b63632b91034b9903737ba1037bbb732b960691b60448201526064016101c8565b6103f683836106de565b505050565b336104046101fa565b6001600160a01b03161461042a5760405162461bcd60e51b81526004016101c890610c71565b6101db8282610881565b3361043d6101fa565b6001600160a01b0316146104635760405162461bcd60e51b81526004016101c890610c71565b6001600160a01b0381166104c85760405162461bcd60e51b815260206004820152602660248201527f4f776e61626c653a206e6577206f776e657220697320746865207a65726f206160448201526564647265737360d01b60648201526084016101c8565b6104d181610928565b50565b60006020825111156105165760405162461bcd60e51b815260206004820152600b60248201526a696e76616c6964206b657960a81b60448201526064016101c8565b506020015190565b80518251146105875760405162461bcd60e51b815260206004820152602f60248201527f7365744e667454797065732066756e6374696f6e20696e666f726d6174696f6e60448201526e040c2e4d2e8f240dad2e6dac2e8c6d608b1b60648201526084016101c8565b60005b81518110156103f6576105eb8382815181106105b657634e487b7160e01b600052603260045260246000fd5b60200260200101518383815181106105de57634e487b7160e01b600052603260045260246000fd5b6020026020010151610881565b806105f581610cf9565b91505061058a565b80518251146106685760405162461bcd60e51b815260206004820152603160248201527f7365744e46545065726d6974732066756e6374696f6e20696e666f726d6174696044820152700dedc40c2e4d2e8f240dad2e6dac2e8c6d607b1b60648201526084016101c8565b60005b82518110156103f6576106cc83828151811061069757634e487b7160e01b600052603260045260246000fd5b60200260200101518383815181106106bf57634e487b7160e01b600052603260045260246000fd5b60200260200101516106de565b806106d681610cf9565b91505061066b565b6001600160a01b0382166107345760405162461bcd60e51b815260206004820152601b60248201527f6e6674436f6e7472616374206973207a65726f2061646472657373000000000060448201526064016101c8565b600061073f826104d4565b905080156107a3576000610752826101df565b6001600160a01b031614156107a35760405162461bcd60e51b8152602060048201526017602482015276139195081d1e5c19481b9bdd081c9959da5cdd195c9959604a1b60448201526064016101c8565b6107d26040518060400160405280600e81526020016d20b4b9323937b82bb930b83832b960911b8152506104d4565b6001600160a01b03841660009081526003602052604090205414156108395760405162461bcd60e51b815260206004820181905260248201527f41697264726f70577261707065722063616e2774206265206d6f64696669656460448201526064016101c8565b6001600160a01b038316600081815260036020526040808220849055518392917f903a211c8bcdc0ab18afc116fc4776504a9aac5c0121be0fda712d399017bd2291a3505050565b81516108c25760405162461bcd60e51b815260206004820152601060248201526f6e66745479706520697320656d70747960801b60448201526064016101c8565b60006108cd836104d4565b60008181526002602052604080822080546001600160a01b0319166001600160a01b03871690811790915590519293509183917f22be69269c1f7d73e73dcb25b710dd88c7aa1cf374c16d945def98df2107c2f891a3505050565b600080546001600160a01b038381166001600160a01b0319831681178455604051919092169283917f8be0079c531659141344cd1fd0a4f28419497f9722a3daafe3b4186f6b6457e09190a35050565b600082601f830112610988578081fd5b8135602061099d61099883610cd6565b610ca6565b80838252828201915082860187848660051b89010111156109bc578586fd5b855b858110156109e35781356109d181610d36565b845292840192908401906001016109be565b5090979650505050505050565b600082601f830112610a00578081fd5b81356020610a1061099883610cd6565b80838252828201915082860187848660051b8901011115610a2f578586fd5b855b858110156109e35781356001600160401b03811115610a4e578788fd5b610a5c8a87838c0101610a6f565b8552509284019290840190600101610a31565b600082601f830112610a7f578081fd5b81356001600160401b03811115610a9857610a98610d20565b610aab601f8201601f1916602001610ca6565b818152846020838601011115610abf578283fd5b816020850160208301379081016020019190915292915050565b600060208284031215610aea578081fd5b813561026481610d36565b600060208284031215610b06578081fd5b815161026481610d36565b60008060408385031215610b23578081fd5b8235610b2e81610d36565b915060208301356001600160401b03811115610b48578182fd5b610b5485828601610a6f565b9150509250929050565b60008060408385031215610b70578182fd5b82356001600160401b0380821115610b86578384fd5b610b9286838701610978565b93506020850135915080821115610ba7578283fd5b50610b54858286016109f0565b60008060408385031215610bc6578182fd5b82356001600160401b0380821115610bdc578384fd5b610be8868387016109f0565b93506020850135915080821115610bfd578283fd5b50610b5485828601610978565b600060208284031215610c1b578081fd5b5035919050565b60008060408385031215610c34578182fd5b82356001600160401b03811115610c49578283fd5b610c5585828601610a6f565b9250506020830135610c6681610d36565b809150509250929050565b6020808252818101527f4f776e61626c653a2063616c6c6572206973206e6f7420746865206f776e6572604082015260600190565b604051601f8201601f191681016001600160401b0381118282101715610cce57610cce610d20565b604052919050565b60006001600160401b03821115610cef57610cef610d20565b5060051b60200190565b6000600019821415610d1957634e487b7160e01b81526011600452602481fd5b5060010190565b634e487b7160e01b600052604160045260246000fd5b6001600160a01b03811681146104d157600080fdfea2646970667358221220c9ae7940801d4662fcdd30394691ef1ffc53e6fa217faedc0dbb11ede3ad441864736f6c63430008040033",
			"opcodes": "PUSH1 0x80 PUSH1 0x40 MSTORE CALLVALUE DUP1 ISZERO PUSH3 0x11 JUMPI PUSH1 0x0 DUP1 REVERT JUMPDEST POP PUSH1 0x40 MLOAD PUSH3 0x1637 CODESIZE SUB DUP1 PUSH3 0x1637 DUP4 CODECOPY DUP2 ADD PUSH1 0x40 DUP2 SWAP1 MSTORE PUSH3 0x34 SWAP2 PUSH3 0x736 JUMP JUMPDEST DUP6 PUSH3 0x40 DUP2 PUSH3 0x80 JUMP JUMPDEST POP PUSH1 0x1 DUP1 SLOAD PUSH1 0x1 PUSH1 0x1 PUSH1 0xA0 SHL SUB NOT AND PUSH1 0x1 PUSH1 0x1 PUSH1 0xA0 SHL SUB DUP8 AND OR SWAP1 SSTORE PUSH3 0x68 DUP5 DUP5 PUSH3 0xD0 JUMP JUMPDEST PUSH3 0x74 DUP3 DUP3 PUSH3 0x1C8 JUMP JUMPDEST POP POP POP POP POP POP PUSH3 0x8A6 JUMP JUMPDEST PUSH1 0x0 DUP1 SLOAD PUSH1 0x1 PUSH1 0x1 PUSH1 0xA0 SHL SUB DUP4 DUP2 AND PUSH1 0x1 PUSH1 0x1 PUSH1 0xA0 SHL SUB NOT DUP4 AND DUP2 OR DUP5 SSTORE PUSH1 0x40 MLOAD SWAP2 SWAP1 SWAP3 AND SWAP3 DUP4 SWAP2 PUSH32 0x8BE0079C531659141344CD1FD0A4F28419497F9722A3DAAFE3B4186F6B6457E0 SWAP2 SWAP1 LOG3 POP POP JUMP JUMPDEST DUP1 MLOAD DUP3 MLOAD EQ PUSH3 0x13F JUMPI PUSH1 0x40 MLOAD PUSH3 0x461BCD PUSH1 0xE5 SHL DUP2 MSTORE PUSH1 0x20 PUSH1 0x4 DUP3 ADD MSTORE PUSH1 0x2F PUSH1 0x24 DUP3 ADD MSTORE PUSH32 0x7365744E667454797065732066756E6374696F6E20696E666F726D6174696F6E PUSH1 0x44 DUP3 ADD MSTORE PUSH15 0x40C2E4D2E8F240DAD2E6DAC2E8C6D PUSH1 0x8B SHL PUSH1 0x64 DUP3 ADD MSTORE PUSH1 0x84 ADD JUMPDEST PUSH1 0x40 MLOAD DUP1 SWAP2 SUB SWAP1 REVERT JUMPDEST PUSH1 0x0 JUMPDEST DUP2 MLOAD DUP2 LT ISZERO PUSH3 0x1C3 JUMPI PUSH3 0x1AE DUP4 DUP3 DUP2 MLOAD DUP2 LT PUSH3 0x171 JUMPI PUSH4 0x4E487B71 PUSH1 0xE0 SHL PUSH1 0x0 MSTORE PUSH1 0x32 PUSH1 0x4 MSTORE PUSH1 0x24 PUSH1 0x0 REVERT JUMPDEST PUSH1 0x20 MUL PUSH1 0x20 ADD ADD MLOAD DUP4 DUP4 DUP2 MLOAD DUP2 LT PUSH3 0x19A JUMPI PUSH4 0x4E487B71 PUSH1 0xE0 SHL PUSH1 0x0 MSTORE PUSH1 0x32 PUSH1 0x4 MSTORE PUSH1 0x24 PUSH1 0x0 REVERT JUMPDEST PUSH1 0x20 MUL PUSH1 0x20 ADD ADD MLOAD PUSH3 0x2B9 PUSH1 0x20 SHL PUSH1 0x20 SHR JUMP JUMPDEST DUP1 PUSH3 0x1BA DUP2 PUSH3 0x868 JUMP JUMPDEST SWAP2 POP POP PUSH3 0x142 JUMP JUMPDEST POP POP POP JUMP JUMPDEST DUP1 MLOAD DUP3 MLOAD EQ PUSH3 0x235 JUMPI PUSH1 0x40 MLOAD PUSH3 0x461BCD PUSH1 0xE5 SHL DUP2 MSTORE PUSH1 0x20 PUSH1 0x4 DUP3 ADD MSTORE PUSH1 0x31 PUSH1 0x24 DUP3 ADD MSTORE PUSH32 0x7365744E46545065726D6974732066756E6374696F6E20696E666F726D617469 PUSH1 0x44 DUP3 ADD MSTORE PUSH17 0xDEDC40C2E4D2E8F240DAD2E6DAC2E8C6D PUSH1 0x7B SHL PUSH1 0x64 DUP3 ADD MSTORE PUSH1 0x84 ADD PUSH3 0x136 JUMP JUMPDEST PUSH1 0x0 JUMPDEST DUP3 MLOAD DUP2 LT ISZERO PUSH3 0x1C3 JUMPI PUSH3 0x2A4 DUP4 DUP3 DUP2 MLOAD DUP2 LT PUSH3 0x267 JUMPI PUSH4 0x4E487B71 PUSH1 0xE0 SHL PUSH1 0x0 MSTORE PUSH1 0x32 PUSH1 0x4 MSTORE PUSH1 0x24 PUSH1 0x0 REVERT JUMPDEST PUSH1 0x20 MUL PUSH1 0x20 ADD ADD MLOAD DUP4 DUP4 DUP2 MLOAD DUP2 LT PUSH3 0x290 JUMPI PUSH4 0x4E487B71 PUSH1 0xE0 SHL PUSH1 0x0 MSTORE PUSH1 0x32 PUSH1 0x4 MSTORE PUSH1 0x24 PUSH1 0x0 REVERT JUMPDEST PUSH1 0x20 MUL PUSH1 0x20 ADD ADD MLOAD PUSH3 0x36F PUSH1 0x20 SHL PUSH1 0x20 SHR JUMP JUMPDEST DUP1 PUSH3 0x2B0 DUP2 PUSH3 0x868 JUMP JUMPDEST SWAP2 POP POP PUSH3 0x238 JUMP JUMPDEST DUP2 MLOAD PUSH3 0x2FC JUMPI PUSH1 0x40 MLOAD PUSH3 0x461BCD PUSH1 0xE5 SHL DUP2 MSTORE PUSH1 0x20 PUSH1 0x4 DUP3 ADD MSTORE PUSH1 0x10 PUSH1 0x24 DUP3 ADD MSTORE PUSH16 0x6E66745479706520697320656D707479 PUSH1 0x80 SHL PUSH1 0x44 DUP3 ADD MSTORE PUSH1 0x64 ADD PUSH3 0x136 JUMP JUMPDEST PUSH1 0x0 PUSH3 0x314 DUP4 PUSH3 0x53B PUSH1 0x20 SHL PUSH3 0x4D4 OR PUSH1 0x20 SHR JUMP JUMPDEST PUSH1 0x0 DUP2 DUP2 MSTORE PUSH1 0x2 PUSH1 0x20 MSTORE PUSH1 0x40 DUP1 DUP3 KECCAK256 DUP1 SLOAD PUSH1 0x1 PUSH1 0x1 PUSH1 0xA0 SHL SUB NOT AND PUSH1 0x1 PUSH1 0x1 PUSH1 0xA0 SHL SUB DUP8 AND SWAP1 DUP2 OR SWAP1 SWAP2 SSTORE SWAP1 MLOAD SWAP3 SWAP4 POP SWAP2 DUP4 SWAP2 PUSH32 0x22BE69269C1F7D73E73DCB25B710DD88C7AA1CF374C16D945DEF98DF2107C2F8 SWAP2 LOG3 POP POP POP JUMP JUMPDEST PUSH1 0x1 PUSH1 0x1 PUSH1 0xA0 SHL SUB DUP3 AND PUSH3 0x3C7 JUMPI PUSH1 0x40 MLOAD PUSH3 0x461BCD PUSH1 0xE5 SHL DUP2 MSTORE PUSH1 0x20 PUSH1 0x4 DUP3 ADD MSTORE PUSH1 0x1B PUSH1 0x24 DUP3 ADD MSTORE PUSH32 0x6E6674436F6E7472616374206973207A65726F20616464726573730000000000 PUSH1 0x44 DUP3 ADD MSTORE PUSH1 0x64 ADD PUSH3 0x136 JUMP JUMPDEST PUSH1 0x0 PUSH3 0x3DF DUP3 PUSH3 0x53B PUSH1 0x20 SHL PUSH3 0x4D4 OR PUSH1 0x20 SHR JUMP JUMPDEST SWAP1 POP DUP1 ISZERO PUSH3 0x44E JUMPI PUSH1 0x0 DUP2 DUP2 MSTORE PUSH1 0x2 PUSH1 0x20 MSTORE PUSH1 0x40 SWAP1 KECCAK256 SLOAD PUSH1 0x1 PUSH1 0x1 PUSH1 0xA0 SHL SUB AND PUSH3 0x44E JUMPI PUSH1 0x40 MLOAD PUSH3 0x461BCD PUSH1 0xE5 SHL DUP2 MSTORE PUSH1 0x20 PUSH1 0x4 DUP3 ADD MSTORE PUSH1 0x17 PUSH1 0x24 DUP3 ADD MSTORE PUSH32 0x4E46542074797065206E6F742072656769737465726564000000000000000000 PUSH1 0x44 DUP3 ADD MSTORE PUSH1 0x64 ADD PUSH3 0x136 JUMP JUMPDEST PUSH3 0x48A PUSH1 0x40 MLOAD DUP1 PUSH1 0x40 ADD PUSH1 0x40 MSTORE DUP1 PUSH1 0xE DUP2 MSTORE PUSH1 0x20 ADD PUSH14 0x20B4B9323937B82BB930B83832B9 PUSH1 0x91 SHL DUP2 MSTORE POP PUSH3 0x53B PUSH1 0x20 SHL PUSH3 0x4D4 OR PUSH1 0x20 SHR JUMP JUMPDEST PUSH1 0x1 PUSH1 0x1 PUSH1 0xA0 SHL SUB DUP5 AND PUSH1 0x0 SWAP1 DUP2 MSTORE PUSH1 0x3 PUSH1 0x20 MSTORE PUSH1 0x40 SWAP1 KECCAK256 SLOAD EQ ISZERO PUSH3 0x4F3 JUMPI PUSH1 0x40 MLOAD PUSH3 0x461BCD PUSH1 0xE5 SHL DUP2 MSTORE PUSH1 0x20 PUSH1 0x4 DUP3 ADD DUP2 SWAP1 MSTORE PUSH1 0x24 DUP3 ADD MSTORE PUSH32 0x41697264726F70577261707065722063616E2774206265206D6F646966696564 PUSH1 0x44 DUP3 ADD MSTORE PUSH1 0x64 ADD PUSH3 0x136 JUMP JUMPDEST PUSH1 0x1 PUSH1 0x1 PUSH1 0xA0 SHL SUB DUP4 AND PUSH1 0x0 DUP2 DUP2 MSTORE PUSH1 0x3 PUSH1 0x20 MSTORE PUSH1 0x40 DUP1 DUP3 KECCAK256 DUP5 SWAP1 SSTORE MLOAD DUP4 SWAP3 SWAP2 PUSH32 0x903A211C8BCDC0AB18AFC116FC4776504A9AAC5C0121BE0FDA712D399017BD22 SWAP2 LOG3 POP POP POP JUMP JUMPDEST PUSH1 0x0 PUSH1 0x20 DUP3 MLOAD GT ISZERO PUSH3 0x57F JUMPI PUSH1 0x40 MLOAD PUSH3 0x461BCD PUSH1 0xE5 SHL DUP2 MSTORE PUSH1 0x20 PUSH1 0x4 DUP3 ADD MSTORE PUSH1 0xB PUSH1 0x24 DUP3 ADD MSTORE PUSH11 0x696E76616C6964206B6579 PUSH1 0xA8 SHL PUSH1 0x44 DUP3 ADD MSTORE PUSH1 0x64 ADD PUSH3 0x136 JUMP JUMPDEST POP PUSH1 0x20 ADD MLOAD SWAP1 JUMP JUMPDEST DUP1 MLOAD PUSH1 0x1 PUSH1 0x1 PUSH1 0xA0 SHL SUB DUP2 AND DUP2 EQ PUSH3 0x59F JUMPI PUSH1 0x0 DUP1 REVERT JUMPDEST SWAP2 SWAP1 POP JUMP JUMPDEST PUSH1 0x0 DUP3 PUSH1 0x1F DUP4 ADD SLT PUSH3 0x5B5 JUMPI DUP1 DUP2 REVERT JUMPDEST DUP2 MLOAD PUSH1 0x20 PUSH3 0x5CE PUSH3 0x5C8 DUP4 PUSH3 0x842 JUMP JUMPDEST PUSH3 0x80F JUMP JUMPDEST DUP1 DUP4 DUP3 MSTORE DUP3 DUP3 ADD SWAP2 POP DUP3 DUP7 ADD DUP8 DUP5 DUP7 PUSH1 0x5 SHL DUP10 ADD ADD GT ISZERO PUSH3 0x5EE JUMPI DUP6 DUP7 REVERT JUMPDEST DUP6 JUMPDEST DUP6 DUP2 LT ISZERO PUSH3 0x617 JUMPI PUSH3 0x604 DUP3 PUSH3 0x587 JUMP JUMPDEST DUP5 MSTORE SWAP3 DUP5 ADD SWAP3 SWAP1 DUP5 ADD SWAP1 PUSH1 0x1 ADD PUSH3 0x5F0 JUMP JUMPDEST POP SWAP1 SWAP8 SWAP7 POP POP POP POP POP POP POP JUMP JUMPDEST PUSH1 0x0 PUSH1 0x1F DUP4 DUP2 DUP5 ADD SLT PUSH3 0x636 JUMPI DUP2 DUP3 REVERT JUMPDEST DUP3 MLOAD PUSH1 0x20 PUSH3 0x649 PUSH3 0x5C8 DUP4 PUSH3 0x842 JUMP JUMPDEST DUP1 DUP4 DUP3 MSTORE DUP3 DUP3 ADD SWAP2 POP DUP3 DUP8 ADD DUP9 DUP5 DUP7 PUSH1 0x5 SHL DUP11 ADD ADD GT ISZERO PUSH3 0x669 JUMPI DUP7 DUP8 REVERT JUMPDEST DUP7 JUMPDEST DUP6 DUP2 LT ISZERO PUSH3 0x728 JUMPI DUP2 MLOAD PUSH1 0x1 PUSH1 0x1 PUSH1 0x40 SHL SUB DUP1 DUP3 GT ISZERO PUSH3 0x68B JUMPI DUP10 DUP11 REVERT JUMPDEST DUP2 DUP12 ADD SWAP2 POP DUP12 PUSH1 0x3F DUP4 ADD SLT PUSH3 0x69F JUMPI DUP10 DUP11 REVERT JUMPDEST DUP7 DUP3 ADD MLOAD DUP2 DUP2 GT ISZERO PUSH3 0x6B6 JUMPI PUSH3 0x6B6 PUSH3 0x890 JUMP JUMPDEST PUSH3 0x6C9 DUP2 DUP12 ADD PUSH1 0x1F NOT AND DUP10 ADD PUSH3 0x80F JUMP JUMPDEST SWAP2 POP DUP1 DUP3 MSTORE PUSH1 0x40 DUP14 DUP2 DUP4 DUP7 ADD ADD GT ISZERO PUSH3 0x6E1 JUMPI DUP12 DUP13 REVERT JUMPDEST DUP12 JUMPDEST DUP3 DUP2 LT ISZERO PUSH3 0x700 JUMPI DUP5 DUP2 ADD DUP3 ADD MLOAD DUP5 DUP3 ADD DUP12 ADD MSTORE DUP10 ADD PUSH3 0x6E3 JUMP JUMPDEST DUP3 DUP2 GT ISZERO PUSH3 0x711 JUMPI DUP13 DUP11 DUP5 DUP7 ADD ADD MSTORE JUMPDEST POP POP POP DUP6 MSTORE POP SWAP3 DUP5 ADD SWAP3 SWAP1 DUP5 ADD SWAP1 PUSH1 0x1 ADD PUSH3 0x66B JUMP JUMPDEST POP SWAP1 SWAP9 SWAP8 POP POP POP POP POP POP POP POP JUMP JUMPDEST PUSH1 0x0 DUP1 PUSH1 0x0 DUP1 PUSH1 0x0 DUP1 PUSH1 0xC0 DUP8 DUP10 SUB SLT ISZERO PUSH3 0x74F JUMPI DUP2 DUP3 REVERT JUMPDEST PUSH3 0x75A DUP8 PUSH3 0x587 JUMP JUMPDEST SWAP6 POP PUSH3 0x76A PUSH1 0x20 DUP9 ADD PUSH3 0x587 JUMP JUMPDEST PUSH1 0x40 DUP9 ADD MLOAD SWAP1 SWAP6 POP PUSH1 0x1 PUSH1 0x1 PUSH1 0x40 SHL SUB DUP1 DUP3 GT ISZERO PUSH3 0x787 JUMPI DUP4 DUP5 REVERT JUMPDEST PUSH3 0x795 DUP11 DUP4 DUP12 ADD PUSH3 0x624 JUMP JUMPDEST SWAP6 POP PUSH1 0x60 DUP10 ADD MLOAD SWAP2 POP DUP1 DUP3 GT ISZERO PUSH3 0x7AB JUMPI DUP4 DUP5 REVERT JUMPDEST PUSH3 0x7B9 DUP11 DUP4 DUP12 ADD PUSH3 0x5A4 JUMP JUMPDEST SWAP5 POP PUSH1 0x80 DUP10 ADD MLOAD SWAP2 POP DUP1 DUP3 GT ISZERO PUSH3 0x7CF JUMPI DUP4 DUP5 REVERT JUMPDEST PUSH3 0x7DD DUP11 DUP4 DUP12 ADD PUSH3 0x5A4 JUMP JUMPDEST SWAP4 POP PUSH1 0xA0 DUP10 ADD MLOAD SWAP2 POP DUP1 DUP3 GT ISZERO PUSH3 0x7F3 JUMPI DUP3 DUP4 REVERT JUMPDEST POP PUSH3 0x802 DUP10 DUP3 DUP11 ADD PUSH3 0x624 JUMP JUMPDEST SWAP2 POP POP SWAP3 SWAP6 POP SWAP3 SWAP6 POP SWAP3 SWAP6 JUMP JUMPDEST PUSH1 0x40 MLOAD PUSH1 0x1F DUP3 ADD PUSH1 0x1F NOT AND DUP2 ADD PUSH1 0x1 PUSH1 0x1 PUSH1 0x40 SHL SUB DUP2 GT DUP3 DUP3 LT OR ISZERO PUSH3 0x83A JUMPI PUSH3 0x83A PUSH3 0x890 JUMP JUMPDEST PUSH1 0x40 MSTORE SWAP2 SWAP1 POP JUMP JUMPDEST PUSH1 0x0 PUSH1 0x1 PUSH1 0x1 PUSH1 0x40 SHL SUB DUP3 GT ISZERO PUSH3 0x85E JUMPI PUSH3 0x85E PUSH3 0x890 JUMP JUMPDEST POP PUSH1 0x5 SHL PUSH1 0x20 ADD SWAP1 JUMP JUMPDEST PUSH1 0x0 PUSH1 0x0 NOT DUP3 EQ ISZERO PUSH3 0x889 JUMPI PUSH4 0x4E487B71 PUSH1 0xE0 SHL DUP2 MSTORE PUSH1 0x11 PUSH1 0x4 MSTORE PUSH1 0x24 DUP2 REVERT JUMPDEST POP PUSH1 0x1 ADD SWAP1 JUMP JUMPDEST PUSH4 0x4E487B71 PUSH1 0xE0 SHL PUSH1 0x0 MSTORE PUSH1 0x41 PUSH1 0x4 MSTORE PUSH1 0x24 PUSH1 0x0 REVERT JUMPDEST PUSH2 0xD81 DUP1 PUSH3 0x8B6 PUSH1 0x0 CODECOPY PUSH1 0x0 RETURN INVALID PUSH1 0x80 PUSH1 0x40 MSTORE CALLVALUE DUP1 ISZERO PUSH2 0x10 JUMPI PUSH1 0x0 DUP1 REVERT JUMPDEST POP PUSH1 0x4 CALLDATASIZE LT PUSH2 0x9E JUMPI PUSH1 0x0 CALLDATALOAD PUSH1 0xE0 SHR DUP1 PUSH4 0x95244B94 GT PUSH2 0x66 JUMPI DUP1 PUSH4 0x95244B94 EQ PUSH2 0x13A JUMPI DUP1 PUSH4 0xB8C8AFF8 EQ PUSH2 0x14D JUMPI DUP1 PUSH4 0xC88641A2 EQ PUSH2 0x160 JUMPI DUP1 PUSH4 0xD8E4E93E EQ PUSH2 0x173 JUMPI DUP1 PUSH4 0xF2FDE38B EQ PUSH2 0x186 JUMPI PUSH1 0x0 DUP1 REVERT JUMPDEST DUP1 PUSH4 0xA21CC43 EQ PUSH2 0xA3 JUMPI DUP1 PUSH4 0x1A3DD0A5 EQ PUSH2 0xB8 JUMPI DUP1 PUSH4 0x365A86FC EQ PUSH2 0xE8 JUMPI DUP1 PUSH4 0x6651F11D EQ PUSH2 0xFB JUMPI DUP1 PUSH4 0x8DA5CB5B EQ PUSH2 0x132 JUMPI JUMPDEST PUSH1 0x0 DUP1 REVERT JUMPDEST PUSH2 0xB6 PUSH2 0xB1 CALLDATASIZE PUSH1 0x4 PUSH2 0xBB4 JUMP JUMPDEST PUSH2 0x199 JUMP JUMPDEST STOP JUMPDEST PUSH2 0xCB PUSH2 0xC6 CALLDATASIZE PUSH1 0x4 PUSH2 0xC0A JUMP JUMPDEST PUSH2 0x1DF JUMP JUMPDEST PUSH1 0x40 MLOAD PUSH1 0x1 PUSH1 0x1 PUSH1 0xA0 SHL SUB SWAP1 SWAP2 AND DUP2 MSTORE PUSH1 0x20 ADD JUMPDEST PUSH1 0x40 MLOAD DUP1 SWAP2 SUB SWAP1 RETURN JUMPDEST PUSH1 0x1 SLOAD PUSH2 0xCB SWAP1 PUSH1 0x1 PUSH1 0x1 PUSH1 0xA0 SHL SUB AND DUP2 JUMP JUMPDEST PUSH2 0x124 PUSH2 0x109 CALLDATASIZE PUSH1 0x4 PUSH2 0xAD9 JUMP JUMPDEST PUSH1 0x1 PUSH1 0x1 PUSH1 0xA0 SHL SUB AND PUSH1 0x0 SWAP1 DUP2 MSTORE PUSH1 0x3 PUSH1 0x20 MSTORE PUSH1 0x40 SWAP1 KECCAK256 SLOAD SWAP1 JUMP JUMPDEST PUSH1 0x40 MLOAD SWAP1 DUP2 MSTORE PUSH1 0x20 ADD PUSH2 0xDF JUMP JUMPDEST PUSH2 0xCB PUSH2 0x1FA JUMP JUMPDEST PUSH2 0xB6 PUSH2 0x148 CALLDATASIZE PUSH1 0x4 PUSH2 0xB5E JUMP JUMPDEST PUSH2 0x209 JUMP JUMPDEST PUSH2 0xCB PUSH2 0x15B CALLDATASIZE PUSH1 0x4 PUSH2 0xAD9 JUMP JUMPDEST PUSH2 0x242 JUMP JUMPDEST PUSH2 0xB6 PUSH2 0x16E CALLDATASIZE PUSH1 0x4 PUSH2 0xB11 JUMP JUMPDEST PUSH2 0x26B JUMP JUMPDEST PUSH2 0xB6 PUSH2 0x181 CALLDATASIZE PUSH1 0x4 PUSH2 0xC22 JUMP JUMPDEST PUSH2 0x3FB JUMP JUMPDEST PUSH2 0xB6 PUSH2 0x194 CALLDATASIZE PUSH1 0x4 PUSH2 0xAD9 JUMP JUMPDEST PUSH2 0x434 JUMP JUMPDEST CALLER PUSH2 0x1A2 PUSH2 0x1FA JUMP JUMPDEST PUSH1 0x1 PUSH1 0x1 PUSH1 0xA0 SHL SUB AND EQ PUSH2 0x1D1 JUMPI PUSH1 0x40 MLOAD PUSH3 0x461BCD PUSH1 0xE5 SHL DUP2 MSTORE PUSH1 0x4 ADD PUSH2 0x1C8 SWAP1 PUSH2 0xC71 JUMP JUMPDEST PUSH1 0x40 MLOAD DUP1 SWAP2 SUB SWAP1 REVERT JUMPDEST PUSH2 0x1DB DUP3 DUP3 PUSH2 0x51E JUMP JUMPDEST POP POP JUMP JUMPDEST PUSH1 0x0 SWAP1 DUP2 MSTORE PUSH1 0x2 PUSH1 0x20 MSTORE PUSH1 0x40 SWAP1 KECCAK256 SLOAD PUSH1 0x1 PUSH1 0x1 PUSH1 0xA0 SHL SUB AND SWAP1 JUMP JUMPDEST PUSH1 0x0 SLOAD PUSH1 0x1 PUSH1 0x1 PUSH1 0xA0 SHL SUB AND SWAP1 JUMP JUMPDEST CALLER PUSH2 0x212 PUSH2 0x1FA JUMP JUMPDEST PUSH1 0x1 PUSH1 0x1 PUSH1 0xA0 SHL SUB AND EQ PUSH2 0x238 JUMPI PUSH1 0x40 MLOAD PUSH3 0x461BCD PUSH1 0xE5 SHL DUP2 MSTORE PUSH1 0x4 ADD PUSH2 0x1C8 SWAP1 PUSH2 0xC71 JUMP JUMPDEST PUSH2 0x1DB DUP3 DUP3 PUSH2 0x5FD JUMP JUMPDEST PUSH1 0x1 PUSH1 0x1 PUSH1 0xA0 SHL SUB DUP2 AND PUSH1 0x0 SWAP1 DUP2 MSTORE PUSH1 0x3 PUSH1 0x20 MSTORE PUSH1 0x40 DUP2 KECCAK256 SLOAD PUSH2 0x264 DUP2 PUSH2 0x1DF JUMP JUMPDEST SWAP4 SWAP3 POP POP POP JUMP JUMPDEST DUP1 PUSH2 0x29B PUSH1 0x40 MLOAD DUP1 PUSH1 0x40 ADD PUSH1 0x40 MSTORE DUP1 PUSH1 0xE DUP2 MSTORE PUSH1 0x20 ADD PUSH14 0x20B4B9323937B82BB930B83832B9 PUSH1 0x91 SHL DUP2 MSTORE POP PUSH2 0x4D4 JUMP JUMPDEST PUSH2 0x2A4 DUP3 PUSH2 0x4D4 JUMP JUMPDEST EQ ISZERO PUSH2 0x397 JUMPI CALLER PUSH1 0x1 SLOAD PUSH1 0x40 MLOAD PUSH4 0x1C2D8FB3 PUSH1 0xE3 SHL DUP2 MSTORE PUSH15 0x41495244524F505F464143544F5259 PUSH1 0x88 SHL PUSH1 0x4 DUP3 ADD MSTORE PUSH1 0x1 PUSH1 0x1 PUSH1 0xA0 SHL SUB SWAP3 DUP4 AND SWAP3 SWAP1 SWAP2 AND SWAP1 PUSH4 0xE16C7D98 SWAP1 PUSH1 0x24 ADD PUSH1 0x20 PUSH1 0x40 MLOAD DUP1 DUP4 SUB DUP2 DUP7 DUP1 EXTCODESIZE ISZERO DUP1 ISZERO PUSH2 0x304 JUMPI PUSH1 0x0 DUP1 REVERT JUMPDEST POP GAS STATICCALL ISZERO DUP1 ISZERO PUSH2 0x318 JUMPI RETURNDATASIZE PUSH1 0x0 DUP1 RETURNDATACOPY RETURNDATASIZE PUSH1 0x0 REVERT JUMPDEST POP POP POP POP PUSH1 0x40 MLOAD RETURNDATASIZE PUSH1 0x1F NOT PUSH1 0x1F DUP3 ADD AND DUP3 ADD DUP1 PUSH1 0x40 MSTORE POP DUP2 ADD SWAP1 PUSH2 0x33C SWAP2 SWAP1 PUSH2 0xAF5 JUMP JUMPDEST PUSH1 0x1 PUSH1 0x1 PUSH1 0xA0 SHL SUB AND EQ PUSH2 0x392 JUMPI PUSH1 0x40 MLOAD PUSH3 0x461BCD PUSH1 0xE5 SHL DUP2 MSTORE PUSH1 0x20 PUSH1 0x4 DUP3 ADD MSTORE PUSH1 0x1C PUSH1 0x24 DUP3 ADD MSTORE PUSH32 0x63616C6C6572206973206E6F742041697264726F70466163746F727900000000 PUSH1 0x44 DUP3 ADD MSTORE PUSH1 0x64 ADD PUSH2 0x1C8 JUMP JUMPDEST PUSH2 0x3EC JUMP JUMPDEST CALLER PUSH2 0x3A0 PUSH2 0x1FA JUMP JUMPDEST PUSH1 0x1 PUSH1 0x1 PUSH1 0xA0 SHL SUB AND EQ PUSH2 0x3EC JUMPI PUSH1 0x40 MLOAD PUSH3 0x461BCD PUSH1 0xE5 SHL DUP2 MSTORE PUSH1 0x20 PUSH1 0x4 DUP3 ADD MSTORE PUSH1 0x13 PUSH1 0x24 DUP3 ADD MSTORE PUSH19 0x31B0B63632B91034B9903737BA1037BBB732B9 PUSH1 0x69 SHL PUSH1 0x44 DUP3 ADD MSTORE PUSH1 0x64 ADD PUSH2 0x1C8 JUMP JUMPDEST PUSH2 0x3F6 DUP4 DUP4 PUSH2 0x6DE JUMP JUMPDEST POP POP POP JUMP JUMPDEST CALLER PUSH2 0x404 PUSH2 0x1FA JUMP JUMPDEST PUSH1 0x1 PUSH1 0x1 PUSH1 0xA0 SHL SUB AND EQ PUSH2 0x42A JUMPI PUSH1 0x40 MLOAD PUSH3 0x461BCD PUSH1 0xE5 SHL DUP2 MSTORE PUSH1 0x4 ADD PUSH2 0x1C8 SWAP1 PUSH2 0xC71 JUMP JUMPDEST PUSH2 0x1DB DUP3 DUP3 PUSH2 0x881 JUMP JUMPDEST CALLER PUSH2 0x43D PUSH2 0x1FA JUMP JUMPDEST PUSH1 0x1 PUSH1 0x1 PUSH1 0xA0 SHL SUB AND EQ PUSH2 0x463 JUMPI PUSH1 0x40 MLOAD PUSH3 0x461BCD PUSH1 0xE5 SHL DUP2 MSTORE PUSH1 0x4 ADD PUSH2 0x1C8 SWAP1 PUSH2 0xC71 JUMP JUMPDEST PUSH1 0x1 PUSH1 0x1 PUSH1 0xA0 SHL SUB DUP2 AND PUSH2 0x4C8 JUMPI PUSH1 0x40 MLOAD PUSH3 0x461BCD PUSH1 0xE5 SHL DUP2 MSTORE PUSH1 0x20 PUSH1 0x4 DUP3 ADD MSTORE PUSH1 0x26 PUSH1 0x24 DUP3 ADD MSTORE PUSH32 0x4F776E61626C653A206E6577206F776E657220697320746865207A65726F2061 PUSH1 0x44 DUP3 ADD MSTORE PUSH6 0x646472657373 PUSH1 0xD0 SHL PUSH1 0x64 DUP3 ADD MSTORE PUSH1 0x84 ADD PUSH2 0x1C8 JUMP JUMPDEST PUSH2 0x4D1 DUP2 PUSH2 0x928 JUMP JUMPDEST POP JUMP JUMPDEST PUSH1 0x0 PUSH1 0x20 DUP3 MLOAD GT ISZERO PUSH2 0x516 JUMPI PUSH1 0x40 MLOAD PUSH3 0x461BCD PUSH1 0xE5 SHL DUP2 MSTORE PUSH1 0x20 PUSH1 0x4 DUP3 ADD MSTORE PUSH1 0xB PUSH1 0x24 DUP3 ADD MSTORE PUSH11 0x696E76616C6964206B6579 PUSH1 0xA8 SHL PUSH1 0x44 DUP3 ADD MSTORE PUSH1 0x64 ADD PUSH2 0x1C8 JUMP JUMPDEST POP PUSH1 0x20 ADD MLOAD SWAP1 JUMP JUMPDEST DUP1 MLOAD DUP3 MLOAD EQ PUSH2 0x587 JUMPI PUSH1 0x40 MLOAD PUSH3 0x461BCD PUSH1 0xE5 SHL DUP2 MSTORE PUSH1 0x20 PUSH1 0x4 DUP3 ADD MSTORE PUSH1 0x2F PUSH1 0x24 DUP3 ADD MSTORE PUSH32 0x7365744E667454797065732066756E6374696F6E20696E666F726D6174696F6E PUSH1 0x44 DUP3 ADD MSTORE PUSH15 0x40C2E4D2E8F240DAD2E6DAC2E8C6D PUSH1 0x8B SHL PUSH1 0x64 DUP3 ADD MSTORE PUSH1 0x84 ADD PUSH2 0x1C8 JUMP JUMPDEST PUSH1 0x0 JUMPDEST DUP2 MLOAD DUP2 LT ISZERO PUSH2 0x3F6 JUMPI PUSH2 0x5EB DUP4 DUP3 DUP2 MLOAD DUP2 LT PUSH2 0x5B6 JUMPI PUSH4 0x4E487B71 PUSH1 0xE0 SHL PUSH1 0x0 MSTORE PUSH1 0x32 PUSH1 0x4 MSTORE PUSH1 0x24 PUSH1 0x0 REVERT JUMPDEST PUSH1 0x20 MUL PUSH1 0x20 ADD ADD MLOAD DUP4 DUP4 DUP2 MLOAD DUP2 LT PUSH2 0x5DE JUMPI PUSH4 0x4E487B71 PUSH1 0xE0 SHL PUSH1 0x0 MSTORE PUSH1 0x32 PUSH1 0x4 MSTORE PUSH1 0x24 PUSH1 0x0 REVERT JUMPDEST PUSH1 0x20 MUL PUSH1 0x20 ADD ADD MLOAD PUSH2 0x881 JUMP JUMPDEST DUP1 PUSH2 0x5F5 DUP2 PUSH2 0xCF9 JUMP JUMPDEST SWAP2 POP POP PUSH2 0x58A JUMP JUMPDEST DUP1 MLOAD DUP3 MLOAD EQ PUSH2 0x668 JUMPI PUSH1 0x40 MLOAD PUSH3 0x461BCD PUSH1 0xE5 SHL DUP2 MSTORE PUSH1 0x20 PUSH1 0x4 DUP3 ADD MSTORE PUSH1 0x31 PUSH1 0x24 DUP3 ADD MSTORE PUSH32 0x7365744E46545065726D6974732066756E6374696F6E20696E666F726D617469 PUSH1 0x44 DUP3 ADD MSTORE PUSH17 0xDEDC40C2E4D2E8F240DAD2E6DAC2E8C6D PUSH1 0x7B SHL PUSH1 0x64 DUP3 ADD MSTORE PUSH1 0x84 ADD PUSH2 0x1C8 JUMP JUMPDEST PUSH1 0x0 JUMPDEST DUP3 MLOAD DUP2 LT ISZERO PUSH2 0x3F6 JUMPI PUSH2 0x6CC DUP4 DUP3 DUP2 MLOAD DUP2 LT PUSH2 0x697 JUMPI PUSH4 0x4E487B71 PUSH1 0xE0 SHL PUSH1 0x0 MSTORE PUSH1 0x32 PUSH1 0x4 MSTORE PUSH1 0x24 PUSH1 0x0 REVERT JUMPDEST PUSH1 0x20 MUL PUSH1 0x20 ADD ADD MLOAD DUP4 DUP4 DUP2 MLOAD DUP2 LT PUSH2 0x6BF JUMPI PUSH4 0x4E487B71 PUSH1 0xE0 SHL PUSH1 0x0 MSTORE PUSH1 0x32 PUSH1 0x4 MSTORE PUSH1 0x24 PUSH1 0x0 REVERT JUMPDEST PUSH1 0x20 MUL PUSH1 0x20 ADD ADD MLOAD PUSH2 0x6DE JUMP JUMPDEST DUP1 PUSH2 0x6D6 DUP2 PUSH2 0xCF9 JUMP JUMPDEST SWAP2 POP POP PUSH2 0x66B JUMP JUMPDEST PUSH1 0x1 PUSH1 0x1 PUSH1 0xA0 SHL SUB DUP3 AND PUSH2 0x734 JUMPI PUSH1 0x40 MLOAD PUSH3 0x461BCD PUSH1 0xE5 SHL DUP2 MSTORE PUSH1 0x20 PUSH1 0x4 DUP3 ADD MSTORE PUSH1 0x1B PUSH1 0x24 DUP3 ADD MSTORE PUSH32 0x6E6674436F6E7472616374206973207A65726F20616464726573730000000000 PUSH1 0x44 DUP3 ADD MSTORE PUSH1 0x64 ADD PUSH2 0x1C8 JUMP JUMPDEST PUSH1 0x0 PUSH2 0x73F DUP3 PUSH2 0x4D4 JUMP JUMPDEST SWAP1 POP DUP1 ISZERO PUSH2 0x7A3 JUMPI PUSH1 0x0 PUSH2 0x752 DUP3 PUSH2 0x1DF JUMP JUMPDEST PUSH1 0x1 PUSH1 0x1 PUSH1 0xA0 SHL SUB AND EQ ISZERO PUSH2 0x7A3 JUMPI PUSH1 0x40 MLOAD PUSH3 0x461BCD PUSH1 0xE5 SHL DUP2 MSTORE PUSH1 0x20 PUSH1 0x4 DUP3 ADD MSTORE PUSH1 0x17 PUSH1 0x24 DUP3 ADD MSTORE PUSH23 0x139195081D1E5C19481B9BDD081C9959DA5CDD195C9959 PUSH1 0x4A SHL PUSH1 0x44 DUP3 ADD MSTORE PUSH1 0x64 ADD PUSH2 0x1C8 JUMP JUMPDEST PUSH2 0x7D2 PUSH1 0x40 MLOAD DUP1 PUSH1 0x40 ADD PUSH1 0x40 MSTORE DUP1 PUSH1 0xE DUP2 MSTORE PUSH1 0x20 ADD PUSH14 0x20B4B9323937B82BB930B83832B9 PUSH1 0x91 SHL DUP2 MSTORE POP PUSH2 0x4D4 JUMP JUMPDEST PUSH1 0x1 PUSH1 0x1 PUSH1 0xA0 SHL SUB DUP5 AND PUSH1 0x0 SWAP1 DUP2 MSTORE PUSH1 0x3 PUSH1 0x20 MSTORE PUSH1 0x40 SWAP1 KECCAK256 SLOAD EQ ISZERO PUSH2 0x839 JUMPI PUSH1 0x40 MLOAD PUSH3 0x461BCD PUSH1 0xE5 SHL DUP2 MSTORE PUSH1 0x20 PUSH1 0x4 DUP3 ADD DUP2 SWAP1 MSTORE PUSH1 0x24 DUP3 ADD MSTORE PUSH32 0x41697264726F70577261707065722063616E2774206265206D6F646966696564 PUSH1 0x44 DUP3 ADD MSTORE PUSH1 0x64 ADD PUSH2 0x1C8 JUMP JUMPDEST PUSH1 0x1 PUSH1 0x1 PUSH1 0xA0 SHL SUB DUP4 AND PUSH1 0x0 DUP2 DUP2 MSTORE PUSH1 0x3 PUSH1 0x20 MSTORE PUSH1 0x40 DUP1 DUP3 KECCAK256 DUP5 SWAP1 SSTORE MLOAD DUP4 SWAP3 SWAP2 PUSH32 0x903A211C8BCDC0AB18AFC116FC4776504A9AAC5C0121BE0FDA712D399017BD22 SWAP2 LOG3 POP POP POP JUMP JUMPDEST DUP2 MLOAD PUSH2 0x8C2 JUMPI PUSH1 0x40 MLOAD PUSH3 0x461BCD PUSH1 0xE5 SHL DUP2 MSTORE PUSH1 0x20 PUSH1 0x4 DUP3 ADD MSTORE PUSH1 0x10 PUSH1 0x24 DUP3 ADD MSTORE PUSH16 0x6E66745479706520697320656D707479 PUSH1 0x80 SHL PUSH1 0x44 DUP3 ADD MSTORE PUSH1 0x64 ADD PUSH2 0x1C8 JUMP JUMPDEST PUSH1 0x0 PUSH2 0x8CD DUP4 PUSH2 0x4D4 JUMP JUMPDEST PUSH1 0x0 DUP2 DUP2 MSTORE PUSH1 0x2 PUSH1 0x20 MSTORE PUSH1 0x40 DUP1 DUP3 KECCAK256 DUP1 SLOAD PUSH1 0x1 PUSH1 0x1 PUSH1 0xA0 SHL SUB NOT AND PUSH1 0x1 PUSH1 0x1 PUSH1 0xA0 SHL SUB DUP8 AND SWAP1 DUP2 OR SWAP1 SWAP2 SSTORE SWAP1 MLOAD SWAP3 SWAP4 POP SWAP2 DUP4 SWAP2 PUSH32 0x22BE69269C1F7D73E73DCB25B710DD88C7AA1CF374C16D945DEF98DF2107C2F8 SWAP2 LOG3 POP POP POP JUMP JUMPDEST PUSH1 0x0 DUP1 SLOAD PUSH1 0x1 PUSH1 0x1 PUSH1 0xA0 SHL SUB DUP4 DUP2 AND PUSH1 0x1 PUSH1 0x1 PUSH1 0xA0 SHL SUB NOT DUP4 AND DUP2 OR DUP5 SSTORE PUSH1 0x40 MLOAD SWAP2 SWAP1 SWAP3 AND SWAP3 DUP4 SWAP2 PUSH32 0x8BE0079C531659141344CD1FD0A4F28419497F9722A3DAAFE3B4186F6B6457E0 SWAP2 SWAP1 LOG3 POP POP JUMP JUMPDEST PUSH1 0x0 DUP3 PUSH1 0x1F DUP4 ADD SLT PUSH2 0x988 JUMPI DUP1 DUP2 REVERT JUMPDEST DUP2 CALLDATALOAD PUSH1 0x20 PUSH2 0x99D PUSH2 0x998 DUP4 PUSH2 0xCD6 JUMP JUMPDEST PUSH2 0xCA6 JUMP JUMPDEST DUP1 DUP4 DUP3 MSTORE DUP3 DUP3 ADD SWAP2 POP DUP3 DUP7 ADD DUP8 DUP5 DUP7 PUSH1 0x5 SHL DUP10 ADD ADD GT ISZERO PUSH2 0x9BC JUMPI DUP6 DUP7 REVERT JUMPDEST DUP6 JUMPDEST DUP6 DUP2 LT ISZERO PUSH2 0x9E3 JUMPI DUP2 CALLDATALOAD PUSH2 0x9D1 DUP2 PUSH2 0xD36 JUMP JUMPDEST DUP5 MSTORE SWAP3 DUP5 ADD SWAP3 SWAP1 DUP5 ADD SWAP1 PUSH1 0x1 ADD PUSH2 0x9BE JUMP JUMPDEST POP SWAP1 SWAP8 SWAP7 POP POP POP POP POP POP POP JUMP JUMPDEST PUSH1 0x0 DUP3 PUSH1 0x1F DUP4 ADD SLT PUSH2 0xA00 JUMPI DUP1 DUP2 REVERT JUMPDEST DUP2 CALLDATALOAD PUSH1 0x20 PUSH2 0xA10 PUSH2 0x998 DUP4 PUSH2 0xCD6 JUMP JUMPDEST DUP1 DUP4 DUP3 MSTORE DUP3 DUP3 ADD SWAP2 POP DUP3 DUP7 ADD DUP8 DUP5 DUP7 PUSH1 0x5 SHL DUP10 ADD ADD GT ISZERO PUSH2 0xA2F JUMPI DUP6 DUP7 REVERT JUMPDEST DUP6 JUMPDEST DUP6 DUP2 LT ISZERO PUSH2 0x9E3 JUMPI DUP2 CALLDATALOAD PUSH1 0x1 PUSH1 0x1 PUSH1 0x40 SHL SUB DUP2 GT ISZERO PUSH2 0xA4E JUMPI DUP8 DUP9 REVERT JUMPDEST PUSH2 0xA5C DUP11 DUP8 DUP4 DUP13 ADD ADD PUSH2 0xA6F JUMP JUMPDEST DUP6 MSTORE POP SWAP3 DUP5 ADD SWAP3 SWAP1 DUP5 ADD SWAP1 PUSH1 0x1 ADD PUSH2 0xA31 JUMP JUMPDEST PUSH1 0x0 DUP3 PUSH1 0x1F DUP4 ADD SLT PUSH2 0xA7F JUMPI DUP1 DUP2 REVERT JUMPDEST DUP2 CALLDATALOAD PUSH1 0x1 PUSH1 0x1 PUSH1 0x40 SHL SUB DUP2 GT ISZERO PUSH2 0xA98 JUMPI PUSH2 0xA98 PUSH2 0xD20 JUMP JUMPDEST PUSH2 0xAAB PUSH1 0x1F DUP3 ADD PUSH1 0x1F NOT AND PUSH1 0x20 ADD PUSH2 0xCA6 JUMP JUMPDEST DUP2 DUP2 MSTORE DUP5 PUSH1 0x20 DUP4 DUP7 ADD ADD GT ISZERO PUSH2 0xABF JUMPI DUP3 DUP4 REVERT JUMPDEST DUP2 PUSH1 0x20 DUP6 ADD PUSH1 0x20 DUP4 ADD CALLDATACOPY SWAP1 DUP2 ADD PUSH1 0x20 ADD SWAP2 SWAP1 SWAP2 MSTORE SWAP3 SWAP2 POP POP JUMP JUMPDEST PUSH1 0x0 PUSH1 0x20 DUP3 DUP5 SUB SLT ISZERO PUSH2 0xAEA JUMPI DUP1 DUP2 REVERT JUMPDEST DUP2 CALLDATALOAD PUSH2 0x264 DUP2 PUSH2 0xD36 JUMP JUMPDEST PUSH1 0x0 PUSH1 0x20 DUP3 DUP5 SUB SLT ISZERO PUSH2 0xB06 JUMPI DUP1 DUP2 REVERT JUMPDEST DUP2 MLOAD PUSH2 0x264 DUP2 PUSH2 0xD36 JUMP JUMPDEST PUSH1 0x0 DUP1 PUSH1 0x40 DUP4 DUP6 SUB SLT ISZERO PUSH2 0xB23 JUMPI DUP1 DUP2 REVERT JUMPDEST DUP3 CALLDATALOAD PUSH2 0xB2E DUP2 PUSH2 0xD36 JUMP JUMPDEST SWAP2 POP PUSH1 0x20 DUP4 ADD CALLDATALOAD PUSH1 0x1 PUSH1 0x1 PUSH1 0x40 SHL SUB DUP2 GT ISZERO PUSH2 0xB48 JUMPI DUP2 DUP3 REVERT JUMPDEST PUSH2 0xB54 DUP6 DUP3 DUP7 ADD PUSH2 0xA6F JUMP JUMPDEST SWAP2 POP POP SWAP3 POP SWAP3 SWAP1 POP JUMP JUMPDEST PUSH1 0x0 DUP1 PUSH1 0x40 DUP4 DUP6 SUB SLT ISZERO PUSH2 0xB70 JUMPI DUP2 DUP3 REVERT JUMPDEST DUP3 CALLDATALOAD PUSH1 0x1 PUSH1 0x1 PUSH1 0x40 SHL SUB DUP1 DUP3 GT ISZERO PUSH2 0xB86 JUMPI DUP4 DUP5 REVERT JUMPDEST PUSH2 0xB92 DUP7 DUP4 DUP8 ADD PUSH2 0x978 JUMP JUMPDEST SWAP4 POP PUSH1 0x20 DUP6 ADD CALLDATALOAD SWAP2 POP DUP1 DUP3 GT ISZERO PUSH2 0xBA7 JUMPI DUP3 DUP4 REVERT JUMPDEST POP PUSH2 0xB54 DUP6 DUP3 DUP7 ADD PUSH2 0x9F0 JUMP JUMPDEST PUSH1 0x0 DUP1 PUSH1 0x40 DUP4 DUP6 SUB SLT ISZERO PUSH2 0xBC6 JUMPI DUP2 DUP3 REVERT JUMPDEST DUP3 CALLDATALOAD PUSH1 0x1 PUSH1 0x1 PUSH1 0x40 SHL SUB DUP1 DUP3 GT ISZERO PUSH2 0xBDC JUMPI DUP4 DUP5 REVERT JUMPDEST PUSH2 0xBE8 DUP7 DUP4 DUP8 ADD PUSH2 0x9F0 JUMP JUMPDEST SWAP4 POP PUSH1 0x20 DUP6 ADD CALLDATALOAD SWAP2 POP DUP1 DUP3 GT ISZERO PUSH2 0xBFD JUMPI DUP3 DUP4 REVERT JUMPDEST POP PUSH2 0xB54 DUP6 DUP3 DUP7 ADD PUSH2 0x978 JUMP JUMPDEST PUSH1 0x0 PUSH1 0x20 DUP3 DUP5 SUB SLT ISZERO PUSH2 0xC1B JUMPI DUP1 DUP2 REVERT JUMPDEST POP CALLDATALOAD SWAP2 SWAP1 POP JUMP JUMPDEST PUSH1 0x0 DUP1 PUSH1 0x40 DUP4 DUP6 SUB SLT ISZERO PUSH2 0xC34 JUMPI DUP2 DUP3 REVERT JUMPDEST DUP3 CALLDATALOAD PUSH1 0x1 PUSH1 0x1 PUSH1 0x40 SHL SUB DUP2 GT ISZERO PUSH2 0xC49 JUMPI DUP3 DUP4 REVERT JUMPDEST PUSH2 0xC55 DUP6 DUP3 DUP7 ADD PUSH2 0xA6F JUMP JUMPDEST SWAP3 POP POP PUSH1 0x20 DUP4 ADD CALLDATALOAD PUSH2 0xC66 DUP2 PUSH2 0xD36 JUMP JUMPDEST DUP1 SWAP2 POP POP SWAP3 POP SWAP3 SWAP1 POP JUMP JUMPDEST PUSH1 0x20 DUP1 DUP3 MSTORE DUP2 DUP2 ADD MSTORE PUSH32 0x4F776E61626C653A2063616C6C6572206973206E6F7420746865206F776E6572 PUSH1 0x40 DUP3 ADD MSTORE PUSH1 0x60 ADD SWAP1 JUMP JUMPDEST PUSH1 0x40 MLOAD PUSH1 0x1F DUP3 ADD PUSH1 0x1F NOT AND DUP2 ADD PUSH1 0x1 PUSH1 0x1 PUSH1 0x40 SHL SUB DUP2 GT DUP3 DUP3 LT OR ISZERO PUSH2 0xCCE JUMPI PUSH2 0xCCE PUSH2 0xD20 JUMP JUMPDEST PUSH1 0x40 MSTORE SWAP2 SWAP1 POP JUMP JUMPDEST PUSH1 0x0 PUSH1 0x1 PUSH1 0x1 PUSH1 0x40 SHL SUB DUP3 GT ISZERO PUSH2 0xCEF JUMPI PUSH2 0xCEF PUSH2 0xD20 JUMP JUMPDEST POP PUSH1 0x5 SHL PUSH1 0x20 ADD SWAP1 JUMP JUMPDEST PUSH1 0x0 PUSH1 0x0 NOT DUP3 EQ ISZERO PUSH2 0xD19 JUMPI PUSH4 0x4E487B71 PUSH1 0xE0 SHL DUP2 MSTORE PUSH1 0x11 PUSH1 0x4 MSTORE PUSH1 0x24 DUP2 REVERT JUMPDEST POP PUSH1 0x1 ADD SWAP1 JUMP JUMPDEST PUSH4 0x4E487B71 PUSH1 0xE0 SHL PUSH1 0x0 MSTORE PUSH1 0x41 PUSH1 0x4 MSTORE PUSH1 0x24 PUSH1 0x0 REVERT JUMPDEST PUSH1 0x1 PUSH1 0x1 PUSH1 0xA0 SHL SUB DUP2 AND DUP2 EQ PUSH2 0x4D1 JUMPI PUSH1 0x0 DUP1 REVERT INVALID LOG2 PUSH5 0x6970667358 0x22 SLT KECCAK256 0xC9 0xAE PUSH26 0x40801D4662FCDD30394691EF1FFC53E6FA217FAEDC0DBB11EDE3 0xAD DIFFICULTY XOR PUSH5 0x736F6C6343 STOP ADDMOD DIV STOP CALLER "
		},
		"gasEstimates": {
			"creation": {
				"codeDepositCost": "691400",
				"executionCost": "infinite",
				"totalCost": "infinite"
			},
			"external": {
				"getNFTPermit(address)": "1298",
				"getNFTWrapper(address)": "infinite",
				"getNftTypeWrapper(bytes32)": "1201",
				"hub()": "1071",
				"owner()": "1124",
				"setNFTPermit(address,string)": "infinite",
				"setNFTPermits(address[],string[])": "infinite",
				"setNftType(string,address)": "infinite",
				"setNftTypes(string[],address[])": "infinite",
				"transferOwnership(address)": "infinite"
			},
			"internal": {
				"_setNFTPermit(address,string memory)": "infinite",
				"_setNFTPermits(address[] memory,string memory[] memory)": "infinite",
				"_setNftType(string memory,address)": "infinite",
				"_setNftTypes(string memory[] memory,address[] memory)": "infinite"
			}
		},
		"methodIdentifiers": {
			"getNFTPermit(address)": "6651f11d",
			"getNFTWrapper(address)": "b8c8aff8",
			"getNftTypeWrapper(bytes32)": "1a3dd0a5",
			"hub()": "365a86fc",
			"owner()": "8da5cb5b",
			"setNFTPermit(address,string)": "c88641a2",
			"setNFTPermits(address[],string[])": "95244b94",
			"setNftType(string,address)": "d8e4e93e",
			"setNftTypes(string[],address[])": "0a21cc43",
			"transferOwnership(address)": "f2fde38b"
		}
	},
	"abi": [
		{
			"inputs": [
				{
					"internalType": "address",
					"name": "_admin",
					"type": "address"
				},
				{
					"internalType": "address",
					"name": "_nftfiHub",
					"type": "address"
				},
				{
					"internalType": "string[]",
					"name": "_definedNftTypes",
					"type": "string[]"
				},
				{
					"internalType": "address[]",
					"name": "_definedNftWrappers",
					"type": "address[]"
				},
				{
					"internalType": "address[]",
					"name": "_permittedNftContracts",
					"type": "address[]"
				},
				{
					"internalType": "string[]",
					"name": "_permittedNftTypes",
					"type": "string[]"
				}
			],
			"stateMutability": "nonpayable",
			"type": "constructor"
		},
		{
			"anonymous": false,
			"inputs": [
				{
					"indexed": true,
					"internalType": "address",
					"name": "nftContract",
					"type": "address"
				},
				{
					"indexed": true,
					"internalType": "bytes32",
					"name": "nftType",
					"type": "bytes32"
				}
			],
			"name": "NFTPermit",
			"type": "event"
		},
		{
			"anonymous": false,
			"inputs": [
				{
					"indexed": true,
					"internalType": "address",
					"name": "previousOwner",
					"type": "address"
				},
				{
					"indexed": true,
					"internalType": "address",
					"name": "newOwner",
					"type": "address"
				}
			],
			"name": "OwnershipTransferred",
			"type": "event"
		},
		{
			"anonymous": false,
			"inputs": [
				{
					"indexed": true,
					"internalType": "bytes32",
					"name": "nftType",
					"type": "bytes32"
				},
				{
					"indexed": true,
					"internalType": "address",
					"name": "nftWrapper",
					"type": "address"
				}
			],
			"name": "TypeUpdated",
			"type": "event"
		},
		{
			"inputs": [
				{
					"internalType": "address",
					"name": "_nftContract",
					"type": "address"
				}
			],
			"name": "getNFTPermit",
			"outputs": [
				{
					"internalType": "bytes32",
					"name": "",
					"type": "bytes32"
				}
			],
			"stateMutability": "view",
			"type": "function"
		},
		{
			"inputs": [
				{
					"internalType": "address",
					"name": "_nftContract",
					"type": "address"
				}
			],
			"name": "getNFTWrapper",
			"outputs": [
				{
					"internalType": "address",
					"name": "",
					"type": "address"
				}
			],
			"stateMutability": "view",
			"type": "function"
		},
		{
			"inputs": [
				{
					"internalType": "bytes32",
					"name": "_nftType",
					"type": "bytes32"
				}
			],
			"name": "getNftTypeWrapper",
			"outputs": [
				{
					"internalType": "address",
					"name": "",
					"type": "address"
				}
			],
			"stateMutability": "view",
			"type": "function"
		},
		{
			"inputs": [],
			"name": "hub",
			"outputs": [
				{
					"internalType": "contract INftfiHub",
					"name": "",
					"type": "address"
				}
			],
			"stateMutability": "view",
			"type": "function"
		},
		{
			"inputs": [],
			"name": "owner",
			"outputs": [
				{
					"internalType": "address",
					"name": "",
					"type": "address"
				}
			],
			"stateMutability": "view",
			"type": "function"
		},
		{
			"inputs": [
				{
					"internalType": "address",
					"name": "_nftContract",
					"type": "address"
				},
				{
					"internalType": "string",
					"name": "_nftType",
					"type": "string"
				}
			],
			"name": "setNFTPermit",
			"outputs": [],
			"stateMutability": "nonpayable",
			"type": "function"
		},
		{
			"inputs": [
				{
					"internalType": "address[]",
					"name": "_nftContracts",
					"type": "address[]"
				},
				{
					"internalType": "string[]",
					"name": "_nftTypes",
					"type": "string[]"
				}
			],
			"name": "setNFTPermits",
			"outputs": [],
			"stateMutability": "nonpayable",
			"type": "function"
		},
		{
			"inputs": [
				{
					"internalType": "string",
					"name": "_nftType",
					"type": "string"
				},
				{
					"internalType": "address",
					"name": "_nftWrapper",
					"type": "address"
				}
			],
			"name": "setNftType",
			"outputs": [],
			"stateMutability": "nonpayable",
			"type": "function"
		},
		{
			"inputs": [
				{
					"internalType": "string[]",
					"name": "_nftTypes",
					"type": "string[]"
				},
				{
					"internalType": "address[]",
					"name": "_nftWrappers",
					"type": "address[]"
				}
			],
			"name": "setNftTypes",
			"outputs": [],
			"stateMutability": "nonpayable",
			"type": "function"
		},
		{
			"inputs": [
				{
					"internalType": "address",
					"name": "_newOwner",
					"type": "address"
				}
			],
			"name": "transferOwnership",
			"outputs": [],
			"stateMutability": "nonpayable",
			"type": "function"
		}
	]
}