{
	"data": {
		"bytecode": {
			"linkReferences": {
				"contracts/utils/ContractKeys.sol": {
					"ContractKeys": [
						{
							"length": 20,
							"start": 782
						},
						{
							"length": 20,
							"start": 1105
						},
						{
							"length": 20,
							"start": 1392
						},
						{
							"length": 20,
							"start": 3277
						},
						{
							"length": 20,
							"start": 3410
						},
						{
							"length": 20,
							"start": 4642
						},
						{
							"length": 20,
							"start": 4912
						},
						{
							"length": 20,
							"start": 5289
						}
					]
				}
			},
			"object": "60806040523480156200001157600080fd5b5060405162001a4038038062001a4083398101604081905262000034916200082d565b85620000408162000080565b50600180546001600160a01b0319166001600160a01b038716179055620000688484620000d0565b620000748282620001c8565b50505050505062000a1e565b600080546001600160a01b038381166001600160a01b0319831681178455604051919092169283917f8be0079c531659141344cd1fd0a4f28419497f9722a3daafe3b4186f6b6457e09190a35050565b80518251146200013f5760405162461bcd60e51b815260206004820152602f60248201527f7365744e667454797065732066756e6374696f6e20696e666f726d6174696f6e60448201526e040c2e4d2e8f240dad2e6dac2e8c6d608b1b60648201526084015b60405180910390fd5b60005b8151811015620001c357620001ae8382815181106200017157634e487b7160e01b600052603260045260246000fd5b60200260200101518383815181106200019a57634e487b7160e01b600052603260045260246000fd5b6020026020010151620002b960201b60201c565b80620001ba81620009e0565b91505062000142565b505050565b8051825114620002355760405162461bcd60e51b815260206004820152603160248201527f7365744e46545065726d6974732066756e6374696f6e20696e666f726d6174696044820152700dedc40c2e4d2e8f240dad2e6dac2e8c6d607b1b606482015260840162000136565b60005b8251811015620001c357620002a48382815181106200026757634e487b7160e01b600052603260045260246000fd5b60200260200101518383815181106200029057634e487b7160e01b600052603260045260246000fd5b6020026020010151620003e760201b60201c565b80620002b081620009e0565b91505062000238565b8151620002fc5760405162461bcd60e51b815260206004820152601060248201526f6e66745479706520697320656d70747960801b604482015260640162000136565b60405163f99a8ffb60e01b815260009073__$d7e2e0a2db402280e6c36233d590dce656$__9063f99a8ffb90620003389086906004016200091f565b60206040518083038186803b1580156200035157600080fd5b505af415801562000366573d6000803e3d6000fd5b505050506040513d601f19601f820116820180604052508101906200038c919062000906565b60008181526002602052604080822080546001600160a01b0319166001600160a01b03871690811790915590519293509183917f22be69269c1f7d73e73dcb25b710dd88c7aa1cf374c16d945def98df2107c2f891a3505050565b6001600160a01b0382166200043f5760405162461bcd60e51b815260206004820152601b60248201527f6e6674436f6e7472616374206973207a65726f20616464726573730000000000604482015260640162000136565b60405163f99a8ffb60e01b815260009073__$d7e2e0a2db402280e6c36233d590dce656$__9063f99a8ffb906200047b9085906004016200091f565b60206040518083038186803b1580156200049457600080fd5b505af4158015620004a9573d6000803e3d6000fd5b505050506040513d601f19601f82011682018060405250810190620004cf919062000906565b905080156200053e576000818152600260205260409020546001600160a01b03166200053e5760405162461bcd60e51b815260206004820152601760248201527f4e46542074797065206e6f742072656769737465726564000000000000000000604482015260640162000136565b604080518082018252600e81526d20b4b9323937b82bb930b83832b960911b6020820152905163f99a8ffb60e01b815273__$d7e2e0a2db402280e6c36233d590dce656$__9163f99a8ffb916200059991906004016200091f565b60206040518083038186803b158015620005b257600080fd5b505af4158015620005c7573d6000803e3d6000fd5b505050506040513d601f19601f82011682018060405250810190620005ed919062000906565b6001600160a01b0384166000908152600360205260409020541415620006565760405162461bcd60e51b815260206004820181905260248201527f41697264726f70577261707065722063616e2774206265206d6f646966696564604482015260640162000136565b6001600160a01b038316600081815260036020526040808220849055518392917f903a211c8bcdc0ab18afc116fc4776504a9aac5c0121be0fda712d399017bd2291a3505050565b80516001600160a01b0381168114620006b657600080fd5b919050565b600082601f830112620006cc578081fd5b81516020620006e5620006df8362000987565b62000954565b80838252828201915082860187848660051b890101111562000705578586fd5b855b858110156200072e576200071b826200069e565b8452928401929084019060010162000707565b5090979650505050505050565b6000601f83818401126200074d578182fd5b8251602062000760620006df8362000987565b80838252828201915082870188848660051b8a0101111562000780578687fd5b865b858110156200081f5781516001600160401b0380821115620007a257898afd5b818b0191508b603f830112620007b657898afd5b86820151604082821115620007cf57620007cf62000a08565b620007e2828c01601f19168a0162000954565b92508183528d81838601011115620007f8578b8cfd5b62000809828a8501838701620009ad565b5050855250928401929084019060010162000782565b509098975050505050505050565b60008060008060008060c0878903121562000846578182fd5b62000851876200069e565b955062000861602088016200069e565b60408801519095506001600160401b03808211156200087e578384fd5b6200088c8a838b016200073b565b95506060890151915080821115620008a2578384fd5b620008b08a838b01620006bb565b94506080890151915080821115620008c6578384fd5b620008d48a838b01620006bb565b935060a0890151915080821115620008ea578283fd5b50620008f989828a016200073b565b9150509295509295509295565b60006020828403121562000918578081fd5b5051919050565b602081526000825180602084015262000940816040850160208701620009ad565b601f01601f19169190910160400192915050565b604051601f8201601f191681016001600160401b03811182821017156200097f576200097f62000a08565b604052919050565b60006001600160401b03821115620009a357620009a362000a08565b5060051b60200190565b60005b83811015620009ca578181015183820152602001620009b0565b83811115620009da576000848401525b50505050565b600060001982141562000a0157634e487b7160e01b81526011600452602481fd5b5060010190565b634e487b7160e01b600052604160045260246000fd5b6110128062000a2e6000396000f3fe608060405234801561001057600080fd5b506004361061009e5760003560e01c806395244b941161006657806395244b941461013a578063b8c8aff81461014d578063c88641a214610160578063d8e4e93e14610173578063f2fde38b1461018657600080fd5b80630a21cc43146100a35780631a3dd0a5146100b8578063365a86fc146100e85780636651f11d146100fb5780638da5cb5b14610132575b600080fd5b6100b66100b1366004610dda565b610199565b005b6100cb6100c6366004610e30565b6101df565b6040516001600160a01b0390911681526020015b60405180910390f35b6001546100cb906001600160a01b031681565b610124610109366004610cff565b6001600160a01b031660009081526003602052604090205490565b6040519081526020016100df565b6100cb6101fa565b6100b6610148366004610d84565b610209565b6100cb61015b366004610cff565b610242565b6100b661016e366004610d37565b61026b565b6100b6610181366004610e60565b6104f3565b6100b6610194366004610cff565b61052c565b336101a26101fa565b6001600160a01b0316146101d15760405162461bcd60e51b81526004016101c890610f02565b60405180910390fd5b6101db82826105cc565b5050565b6000908152600260205260409020546001600160a01b031690565b6000546001600160a01b031690565b336102126101fa565b6001600160a01b0316146102385760405162461bcd60e51b81526004016101c890610f02565b6101db82826106ab565b6001600160a01b038116600090815260036020526040812054610264816101df565b9392505050565b604080518082018252600e81526d20b4b9323937b82bb930b83832b960911b6020820152905163f99a8ffb60e01b8152829173__$d7e2e0a2db402280e6c36233d590dce656$__9163f99a8ffb916102c591600401610eaf565b60206040518083038186803b1580156102dd57600080fd5b505af41580156102f1573d6000803e3d6000fd5b505050506040513d601f19601f820116820180604052508101906103159190610e48565b60405163f99a8ffb60e01b815273__$d7e2e0a2db402280e6c36233d590dce656$__9063f99a8ffb9061034c908590600401610eaf565b60206040518083038186803b15801561036457600080fd5b505af4158015610378573d6000803e3d6000fd5b505050506040513d601f19601f8201168201806040525081019061039c9190610e48565b141561048f5733600154604051631c2d8fb360e31b81526e41495244524f505f464143544f525960881b60048201526001600160a01b03928316929091169063e16c7d989060240160206040518083038186803b1580156103fc57600080fd5b505afa158015610410573d6000803e3d6000fd5b505050506040513d601f19601f820116820180604052508101906104349190610d1b565b6001600160a01b03161461048a5760405162461bcd60e51b815260206004820152601c60248201527f63616c6c6572206973206e6f742041697264726f70466163746f72790000000060448201526064016101c8565b6104e4565b336104986101fa565b6001600160a01b0316146104e45760405162461bcd60e51b815260206004820152601360248201527231b0b63632b91034b9903737ba1037bbb732b960691b60448201526064016101c8565b6104ee838361078c565b505050565b336104fc6101fa565b6001600160a01b0316146105225760405162461bcd60e51b81526004016101c890610f02565b6101db8282610a28565b336105356101fa565b6001600160a01b03161461055b5760405162461bcd60e51b81526004016101c890610f02565b6001600160a01b0381166105c05760405162461bcd60e51b815260206004820152602660248201527f4f776e61626c653a206e6577206f776e657220697320746865207a65726f206160448201526564647265737360d01b60648201526084016101c8565b6105c981610b4e565b50565b80518251146106355760405162461bcd60e51b815260206004820152602f60248201527f7365744e667454797065732066756e6374696f6e20696e666f726d6174696f6e60448201526e040c2e4d2e8f240dad2e6dac2e8c6d608b1b60648201526084016101c8565b60005b81518110156104ee5761069983828151811061066457634e487b7160e01b600052603260045260246000fd5b602002602001015183838151811061068c57634e487b7160e01b600052603260045260246000fd5b6020026020010151610a28565b806106a381610f8a565b915050610638565b80518251146107165760405162461bcd60e51b815260206004820152603160248201527f7365744e46545065726d6974732066756e6374696f6e20696e666f726d6174696044820152700dedc40c2e4d2e8f240dad2e6dac2e8c6d607b1b60648201526084016101c8565b60005b82518110156104ee5761077a83828151811061074557634e487b7160e01b600052603260045260246000fd5b602002602001015183838151811061076d57634e487b7160e01b600052603260045260246000fd5b602002602001015161078c565b8061078481610f8a565b915050610719565b6001600160a01b0382166107e25760405162461bcd60e51b815260206004820152601b60248201527f6e6674436f6e7472616374206973207a65726f2061646472657373000000000060448201526064016101c8565b60405163f99a8ffb60e01b815260009073__$d7e2e0a2db402280e6c36233d590dce656$__9063f99a8ffb9061081c908590600401610eaf565b60206040518083038186803b15801561083457600080fd5b505af4158015610848573d6000803e3d6000fd5b505050506040513d601f19601f8201168201806040525081019061086c9190610e48565b905080156108d057600061087f826101df565b6001600160a01b031614156108d05760405162461bcd60e51b8152602060048201526017602482015276139195081d1e5c19481b9bdd081c9959da5cdd195c9959604a1b60448201526064016101c8565b604080518082018252600e81526d20b4b9323937b82bb930b83832b960911b6020820152905163f99a8ffb60e01b815273__$d7e2e0a2db402280e6c36233d590dce656$__9163f99a8ffb916109299190600401610eaf565b60206040518083038186803b15801561094157600080fd5b505af4158015610955573d6000803e3d6000fd5b505050506040513d601f19601f820116820180604052508101906109799190610e48565b6001600160a01b03841660009081526003602052604090205414156109e05760405162461bcd60e51b815260206004820181905260248201527f41697264726f70577261707065722063616e2774206265206d6f64696669656460448201526064016101c8565b6001600160a01b038316600081815260036020526040808220849055518392917f903a211c8bcdc0ab18afc116fc4776504a9aac5c0121be0fda712d399017bd2291a3505050565b8151610a695760405162461bcd60e51b815260206004820152601060248201526f6e66745479706520697320656d70747960801b60448201526064016101c8565b60405163f99a8ffb60e01b815260009073__$d7e2e0a2db402280e6c36233d590dce656$__9063f99a8ffb90610aa3908690600401610eaf565b60206040518083038186803b158015610abb57600080fd5b505af4158015610acf573d6000803e3d6000fd5b505050506040513d601f19601f82011682018060405250810190610af39190610e48565b60008181526002602052604080822080546001600160a01b0319166001600160a01b03871690811790915590519293509183917f22be69269c1f7d73e73dcb25b710dd88c7aa1cf374c16d945def98df2107c2f891a3505050565b600080546001600160a01b038381166001600160a01b0319831681178455604051919092169283917f8be0079c531659141344cd1fd0a4f28419497f9722a3daafe3b4186f6b6457e09190a35050565b600082601f830112610bae578081fd5b81356020610bc3610bbe83610f67565b610f37565b80838252828201915082860187848660051b8901011115610be2578586fd5b855b85811015610c09578135610bf781610fc7565b84529284019290840190600101610be4565b5090979650505050505050565b600082601f830112610c26578081fd5b81356020610c36610bbe83610f67565b80838252828201915082860187848660051b8901011115610c55578586fd5b855b85811015610c095781356001600160401b03811115610c74578788fd5b610c828a87838c0101610c95565b8552509284019290840190600101610c57565b600082601f830112610ca5578081fd5b81356001600160401b03811115610cbe57610cbe610fb1565b610cd1601f8201601f1916602001610f37565b818152846020838601011115610ce5578283fd5b816020850160208301379081016020019190915292915050565b600060208284031215610d10578081fd5b813561026481610fc7565b600060208284031215610d2c578081fd5b815161026481610fc7565b60008060408385031215610d49578081fd5b8235610d5481610fc7565b915060208301356001600160401b03811115610d6e578182fd5b610d7a85828601610c95565b9150509250929050565b60008060408385031215610d96578182fd5b82356001600160401b0380821115610dac578384fd5b610db886838701610b9e565b93506020850135915080821115610dcd578283fd5b50610d7a85828601610c16565b60008060408385031215610dec578182fd5b82356001600160401b0380821115610e02578384fd5b610e0e86838701610c16565b93506020850135915080821115610e23578283fd5b50610d7a85828601610b9e565b600060208284031215610e41578081fd5b5035919050565b600060208284031215610e59578081fd5b5051919050565b60008060408385031215610e72578182fd5b82356001600160401b03811115610e87578283fd5b610e9385828601610c95565b9250506020830135610ea481610fc7565b809150509250929050565b6000602080835283518082850152825b81811015610edb57858101830151858201604001528201610ebf565b81811115610eec5783604083870101525b50601f01601f1916929092016040019392505050565b6020808252818101527f4f776e61626c653a2063616c6c6572206973206e6f7420746865206f776e6572604082015260600190565b604051601f8201601f191681016001600160401b0381118282101715610f5f57610f5f610fb1565b604052919050565b60006001600160401b03821115610f8057610f80610fb1565b5060051b60200190565b6000600019821415610faa57634e487b7160e01b81526011600452602481fd5b5060010190565b634e487b7160e01b600052604160045260246000fd5b6001600160a01b03811681146105c957600080fdfea2646970667358221220afb4e97aed32efd6591de5b89ab4d1a9e6df8aa121f82ad0774fddcf513413b764736f6c63430008040033",
			"opcodes": "PUSH1 0x80 PUSH1 0x40 MSTORE CALLVALUE DUP1 ISZERO PUSH3 0x11 JUMPI PUSH1 0x0 DUP1 REVERT JUMPDEST POP PUSH1 0x40 MLOAD PUSH3 0x1A40 CODESIZE SUB DUP1 PUSH3 0x1A40 DUP4 CODECOPY DUP2 ADD PUSH1 0x40 DUP2 SWAP1 MSTORE PUSH3 0x34 SWAP2 PUSH3 0x82D JUMP JUMPDEST DUP6 PUSH3 0x40 DUP2 PUSH3 0x80 JUMP JUMPDEST POP PUSH1 0x1 DUP1 SLOAD PUSH1 0x1 PUSH1 0x1 PUSH1 0xA0 SHL SUB NOT AND PUSH1 0x1 PUSH1 0x1 PUSH1 0xA0 SHL SUB DUP8 AND OR SWAP1 SSTORE PUSH3 0x68 DUP5 DUP5 PUSH3 0xD0 JUMP JUMPDEST PUSH3 0x74 DUP3 DUP3 PUSH3 0x1C8 JUMP JUMPDEST POP POP POP POP POP POP PUSH3 0xA1E JUMP JUMPDEST PUSH1 0x0 DUP1 SLOAD PUSH1 0x1 PUSH1 0x1 PUSH1 0xA0 SHL SUB DUP4 DUP2 AND PUSH1 0x1 PUSH1 0x1 PUSH1 0xA0 SHL SUB NOT DUP4 AND DUP2 OR DUP5 SSTORE PUSH1 0x40 MLOAD SWAP2 SWAP1 SWAP3 AND SWAP3 DUP4 SWAP2 PUSH32 0x8BE0079C531659141344CD1FD0A4F28419497F9722A3DAAFE3B4186F6B6457E0 SWAP2 SWAP1 LOG3 POP POP JUMP JUMPDEST DUP1 MLOAD DUP3 MLOAD EQ PUSH3 0x13F JUMPI PUSH1 0x40 MLOAD PUSH3 0x461BCD PUSH1 0xE5 SHL DUP2 MSTORE PUSH1 0x20 PUSH1 0x4 DUP3 ADD MSTORE PUSH1 0x2F PUSH1 0x24 DUP3 ADD MSTORE PUSH32 0x7365744E667454797065732066756E6374696F6E20696E666F726D6174696F6E PUSH1 0x44 DUP3 ADD MSTORE PUSH15 0x40C2E4D2E8F240DAD2E6DAC2E8C6D PUSH1 0x8B SHL PUSH1 0x64 DUP3 ADD MSTORE PUSH1 0x84 ADD JUMPDEST PUSH1 0x40 MLOAD DUP1 SWAP2 SUB SWAP1 REVERT JUMPDEST PUSH1 0x0 JUMPDEST DUP2 MLOAD DUP2 LT ISZERO PUSH3 0x1C3 JUMPI PUSH3 0x1AE DUP4 DUP3 DUP2 MLOAD DUP2 LT PUSH3 0x171 JUMPI PUSH4 0x4E487B71 PUSH1 0xE0 SHL PUSH1 0x0 MSTORE PUSH1 0x32 PUSH1 0x4 MSTORE PUSH1 0x24 PUSH1 0x0 REVERT JUMPDEST PUSH1 0x20 MUL PUSH1 0x20 ADD ADD MLOAD DUP4 DUP4 DUP2 MLOAD DUP2 LT PUSH3 0x19A JUMPI PUSH4 0x4E487B71 PUSH1 0xE0 SHL PUSH1 0x0 MSTORE PUSH1 0x32 PUSH1 0x4 MSTORE PUSH1 0x24 PUSH1 0x0 REVERT JUMPDEST PUSH1 0x20 MUL PUSH1 0x20 ADD ADD MLOAD PUSH3 0x2B9 PUSH1 0x20 SHL PUSH1 0x20 SHR JUMP JUMPDEST DUP1 PUSH3 0x1BA DUP2 PUSH3 0x9E0 JUMP JUMPDEST SWAP2 POP POP PUSH3 0x142 JUMP JUMPDEST POP POP POP JUMP JUMPDEST DUP1 MLOAD DUP3 MLOAD EQ PUSH3 0x235 JUMPI PUSH1 0x40 MLOAD PUSH3 0x461BCD PUSH1 0xE5 SHL DUP2 MSTORE PUSH1 0x20 PUSH1 0x4 DUP3 ADD MSTORE PUSH1 0x31 PUSH1 0x24 DUP3 ADD MSTORE PUSH32 0x7365744E46545065726D6974732066756E6374696F6E20696E666F726D617469 PUSH1 0x44 DUP3 ADD MSTORE PUSH17 0xDEDC40C2E4D2E8F240DAD2E6DAC2E8C6D PUSH1 0x7B SHL PUSH1 0x64 DUP3 ADD MSTORE PUSH1 0x84 ADD PUSH3 0x136 JUMP JUMPDEST PUSH1 0x0 JUMPDEST DUP3 MLOAD DUP2 LT ISZERO PUSH3 0x1C3 JUMPI PUSH3 0x2A4 DUP4 DUP3 DUP2 MLOAD DUP2 LT PUSH3 0x267 JUMPI PUSH4 0x4E487B71 PUSH1 0xE0 SHL PUSH1 0x0 MSTORE PUSH1 0x32 PUSH1 0x4 MSTORE PUSH1 0x24 PUSH1 0x0 REVERT JUMPDEST PUSH1 0x20 MUL PUSH1 0x20 ADD ADD MLOAD DUP4 DUP4 DUP2 MLOAD DUP2 LT PUSH3 0x290 JUMPI PUSH4 0x4E487B71 PUSH1 0xE0 SHL PUSH1 0x0 MSTORE PUSH1 0x32 PUSH1 0x4 MSTORE PUSH1 0x24 PUSH1 0x0 REVERT JUMPDEST PUSH1 0x20 MUL PUSH1 0x20 ADD ADD MLOAD PUSH3 0x3E7 PUSH1 0x20 SHL PUSH1 0x20 SHR JUMP JUMPDEST DUP1 PUSH3 0x2B0 DUP2 PUSH3 0x9E0 JUMP JUMPDEST SWAP2 POP POP PUSH3 0x238 JUMP JUMPDEST DUP2 MLOAD PUSH3 0x2FC JUMPI PUSH1 0x40 MLOAD PUSH3 0x461BCD PUSH1 0xE5 SHL DUP2 MSTORE PUSH1 0x20 PUSH1 0x4 DUP3 ADD MSTORE PUSH1 0x10 PUSH1 0x24 DUP3 ADD MSTORE PUSH16 0x6E66745479706520697320656D707479 PUSH1 0x80 SHL PUSH1 0x44 DUP3 ADD MSTORE PUSH1 0x64 ADD PUSH3 0x136 JUMP JUMPDEST PUSH1 0x40 MLOAD PUSH4 0xF99A8FFB PUSH1 0xE0 SHL DUP2 MSTORE PUSH1 0x0 SWAP1 PUSH20 0x0 SWAP1 PUSH4 0xF99A8FFB SWAP1 PUSH3 0x338 SWAP1 DUP7 SWAP1 PUSH1 0x4 ADD PUSH3 0x91F JUMP JUMPDEST PUSH1 0x20 PUSH1 0x40 MLOAD DUP1 DUP4 SUB DUP2 DUP7 DUP1 EXTCODESIZE ISZERO DUP1 ISZERO PUSH3 0x351 JUMPI PUSH1 0x0 DUP1 REVERT JUMPDEST POP GAS DELEGATECALL ISZERO DUP1 ISZERO PUSH3 0x366 JUMPI RETURNDATASIZE PUSH1 0x0 DUP1 RETURNDATACOPY RETURNDATASIZE PUSH1 0x0 REVERT JUMPDEST POP POP POP POP PUSH1 0x40 MLOAD RETURNDATASIZE PUSH1 0x1F NOT PUSH1 0x1F DUP3 ADD AND DUP3 ADD DUP1 PUSH1 0x40 MSTORE POP DUP2 ADD SWAP1 PUSH3 0x38C SWAP2 SWAP1 PUSH3 0x906 JUMP JUMPDEST PUSH1 0x0 DUP2 DUP2 MSTORE PUSH1 0x2 PUSH1 0x20 MSTORE PUSH1 0x40 DUP1 DUP3 KECCAK256 DUP1 SLOAD PUSH1 0x1 PUSH1 0x1 PUSH1 0xA0 SHL SUB NOT AND PUSH1 0x1 PUSH1 0x1 PUSH1 0xA0 SHL SUB DUP8 AND SWAP1 DUP2 OR SWAP1 SWAP2 SSTORE SWAP1 MLOAD SWAP3 SWAP4 POP SWAP2 DUP4 SWAP2 PUSH32 0x22BE69269C1F7D73E73DCB25B710DD88C7AA1CF374C16D945DEF98DF2107C2F8 SWAP2 LOG3 POP POP POP JUMP JUMPDEST PUSH1 0x1 PUSH1 0x1 PUSH1 0xA0 SHL SUB DUP3 AND PUSH3 0x43F JUMPI PUSH1 0x40 MLOAD PUSH3 0x461BCD PUSH1 0xE5 SHL DUP2 MSTORE PUSH1 0x20 PUSH1 0x4 DUP3 ADD MSTORE PUSH1 0x1B PUSH1 0x24 DUP3 ADD MSTORE PUSH32 0x6E6674436F6E7472616374206973207A65726F20616464726573730000000000 PUSH1 0x44 DUP3 ADD MSTORE PUSH1 0x64 ADD PUSH3 0x136 JUMP JUMPDEST PUSH1 0x40 MLOAD PUSH4 0xF99A8FFB PUSH1 0xE0 SHL DUP2 MSTORE PUSH1 0x0 SWAP1 PUSH20 0x0 SWAP1 PUSH4 0xF99A8FFB SWAP1 PUSH3 0x47B SWAP1 DUP6 SWAP1 PUSH1 0x4 ADD PUSH3 0x91F JUMP JUMPDEST PUSH1 0x20 PUSH1 0x40 MLOAD DUP1 DUP4 SUB DUP2 DUP7 DUP1 EXTCODESIZE ISZERO DUP1 ISZERO PUSH3 0x494 JUMPI PUSH1 0x0 DUP1 REVERT JUMPDEST POP GAS DELEGATECALL ISZERO DUP1 ISZERO PUSH3 0x4A9 JUMPI RETURNDATASIZE PUSH1 0x0 DUP1 RETURNDATACOPY RETURNDATASIZE PUSH1 0x0 REVERT JUMPDEST POP POP POP POP PUSH1 0x40 MLOAD RETURNDATASIZE PUSH1 0x1F NOT PUSH1 0x1F DUP3 ADD AND DUP3 ADD DUP1 PUSH1 0x40 MSTORE POP DUP2 ADD SWAP1 PUSH3 0x4CF SWAP2 SWAP1 PUSH3 0x906 JUMP JUMPDEST SWAP1 POP DUP1 ISZERO PUSH3 0x53E JUMPI PUSH1 0x0 DUP2 DUP2 MSTORE PUSH1 0x2 PUSH1 0x20 MSTORE PUSH1 0x40 SWAP1 KECCAK256 SLOAD PUSH1 0x1 PUSH1 0x1 PUSH1 0xA0 SHL SUB AND PUSH3 0x53E JUMPI PUSH1 0x40 MLOAD PUSH3 0x461BCD PUSH1 0xE5 SHL DUP2 MSTORE PUSH1 0x20 PUSH1 0x4 DUP3 ADD MSTORE PUSH1 0x17 PUSH1 0x24 DUP3 ADD MSTORE PUSH32 0x4E46542074797065206E6F742072656769737465726564000000000000000000 PUSH1 0x44 DUP3 ADD MSTORE PUSH1 0x64 ADD PUSH3 0x136 JUMP JUMPDEST PUSH1 0x40 DUP1 MLOAD DUP1 DUP3 ADD DUP3 MSTORE PUSH1 0xE DUP2 MSTORE PUSH14 0x20B4B9323937B82BB930B83832B9 PUSH1 0x91 SHL PUSH1 0x20 DUP3 ADD MSTORE SWAP1 MLOAD PUSH4 0xF99A8FFB PUSH1 0xE0 SHL DUP2 MSTORE PUSH20 0x0 SWAP2 PUSH4 0xF99A8FFB SWAP2 PUSH3 0x599 SWAP2 SWAP1 PUSH1 0x4 ADD PUSH3 0x91F JUMP JUMPDEST PUSH1 0x20 PUSH1 0x40 MLOAD DUP1 DUP4 SUB DUP2 DUP7 DUP1 EXTCODESIZE ISZERO DUP1 ISZERO PUSH3 0x5B2 JUMPI PUSH1 0x0 DUP1 REVERT JUMPDEST POP GAS DELEGATECALL ISZERO DUP1 ISZERO PUSH3 0x5C7 JUMPI RETURNDATASIZE PUSH1 0x0 DUP1 RETURNDATACOPY RETURNDATASIZE PUSH1 0x0 REVERT JUMPDEST POP POP POP POP PUSH1 0x40 MLOAD RETURNDATASIZE PUSH1 0x1F NOT PUSH1 0x1F DUP3 ADD AND DUP3 ADD DUP1 PUSH1 0x40 MSTORE POP DUP2 ADD SWAP1 PUSH3 0x5ED SWAP2 SWAP1 PUSH3 0x906 JUMP JUMPDEST PUSH1 0x1 PUSH1 0x1 PUSH1 0xA0 SHL SUB DUP5 AND PUSH1 0x0 SWAP1 DUP2 MSTORE PUSH1 0x3 PUSH1 0x20 MSTORE PUSH1 0x40 SWAP1 KECCAK256 SLOAD EQ ISZERO PUSH3 0x656 JUMPI PUSH1 0x40 MLOAD PUSH3 0x461BCD PUSH1 0xE5 SHL DUP2 MSTORE PUSH1 0x20 PUSH1 0x4 DUP3 ADD DUP2 SWAP1 MSTORE PUSH1 0x24 DUP3 ADD MSTORE PUSH32 0x41697264726F70577261707065722063616E2774206265206D6F646966696564 PUSH1 0x44 DUP3 ADD MSTORE PUSH1 0x64 ADD PUSH3 0x136 JUMP JUMPDEST PUSH1 0x1 PUSH1 0x1 PUSH1 0xA0 SHL SUB DUP4 AND PUSH1 0x0 DUP2 DUP2 MSTORE PUSH1 0x3 PUSH1 0x20 MSTORE PUSH1 0x40 DUP1 DUP3 KECCAK256 DUP5 SWAP1 SSTORE MLOAD DUP4 SWAP3 SWAP2 PUSH32 0x903A211C8BCDC0AB18AFC116FC4776504A9AAC5C0121BE0FDA712D399017BD22 SWAP2 LOG3 POP POP POP JUMP JUMPDEST DUP1 MLOAD PUSH1 0x1 PUSH1 0x1 PUSH1 0xA0 SHL SUB DUP2 AND DUP2 EQ PUSH3 0x6B6 JUMPI PUSH1 0x0 DUP1 REVERT JUMPDEST SWAP2 SWAP1 POP JUMP JUMPDEST PUSH1 0x0 DUP3 PUSH1 0x1F DUP4 ADD SLT PUSH3 0x6CC JUMPI DUP1 DUP2 REVERT JUMPDEST DUP2 MLOAD PUSH1 0x20 PUSH3 0x6E5 PUSH3 0x6DF DUP4 PUSH3 0x987 JUMP JUMPDEST PUSH3 0x954 JUMP JUMPDEST DUP1 DUP4 DUP3 MSTORE DUP3 DUP3 ADD SWAP2 POP DUP3 DUP7 ADD DUP8 DUP5 DUP7 PUSH1 0x5 SHL DUP10 ADD ADD GT ISZERO PUSH3 0x705 JUMPI DUP6 DUP7 REVERT JUMPDEST DUP6 JUMPDEST DUP6 DUP2 LT ISZERO PUSH3 0x72E JUMPI PUSH3 0x71B DUP3 PUSH3 0x69E JUMP JUMPDEST DUP5 MSTORE SWAP3 DUP5 ADD SWAP3 SWAP1 DUP5 ADD SWAP1 PUSH1 0x1 ADD PUSH3 0x707 JUMP JUMPDEST POP SWAP1 SWAP8 SWAP7 POP POP POP POP POP POP POP JUMP JUMPDEST PUSH1 0x0 PUSH1 0x1F DUP4 DUP2 DUP5 ADD SLT PUSH3 0x74D JUMPI DUP2 DUP3 REVERT JUMPDEST DUP3 MLOAD PUSH1 0x20 PUSH3 0x760 PUSH3 0x6DF DUP4 PUSH3 0x987 JUMP JUMPDEST DUP1 DUP4 DUP3 MSTORE DUP3 DUP3 ADD SWAP2 POP DUP3 DUP8 ADD DUP9 DUP5 DUP7 PUSH1 0x5 SHL DUP11 ADD ADD GT ISZERO PUSH3 0x780 JUMPI DUP7 DUP8 REVERT JUMPDEST DUP7 JUMPDEST DUP6 DUP2 LT ISZERO PUSH3 0x81F JUMPI DUP2 MLOAD PUSH1 0x1 PUSH1 0x1 PUSH1 0x40 SHL SUB DUP1 DUP3 GT ISZERO PUSH3 0x7A2 JUMPI DUP10 DUP11 REVERT JUMPDEST DUP2 DUP12 ADD SWAP2 POP DUP12 PUSH1 0x3F DUP4 ADD SLT PUSH3 0x7B6 JUMPI DUP10 DUP11 REVERT JUMPDEST DUP7 DUP3 ADD MLOAD PUSH1 0x40 DUP3 DUP3 GT ISZERO PUSH3 0x7CF JUMPI PUSH3 0x7CF PUSH3 0xA08 JUMP JUMPDEST PUSH3 0x7E2 DUP3 DUP13 ADD PUSH1 0x1F NOT AND DUP11 ADD PUSH3 0x954 JUMP JUMPDEST SWAP3 POP DUP2 DUP4 MSTORE DUP14 DUP2 DUP4 DUP7 ADD ADD GT ISZERO PUSH3 0x7F8 JUMPI DUP12 DUP13 REVERT JUMPDEST PUSH3 0x809 DUP3 DUP11 DUP6 ADD DUP4 DUP8 ADD PUSH3 0x9AD JUMP JUMPDEST POP POP DUP6 MSTORE POP SWAP3 DUP5 ADD SWAP3 SWAP1 DUP5 ADD SWAP1 PUSH1 0x1 ADD PUSH3 0x782 JUMP JUMPDEST POP SWAP1 SWAP9 SWAP8 POP POP POP POP POP POP POP POP JUMP JUMPDEST PUSH1 0x0 DUP1 PUSH1 0x0 DUP1 PUSH1 0x0 DUP1 PUSH1 0xC0 DUP8 DUP10 SUB SLT ISZERO PUSH3 0x846 JUMPI DUP2 DUP3 REVERT JUMPDEST PUSH3 0x851 DUP8 PUSH3 0x69E JUMP JUMPDEST SWAP6 POP PUSH3 0x861 PUSH1 0x20 DUP9 ADD PUSH3 0x69E JUMP JUMPDEST PUSH1 0x40 DUP9 ADD MLOAD SWAP1 SWAP6 POP PUSH1 0x1 PUSH1 0x1 PUSH1 0x40 SHL SUB DUP1 DUP3 GT ISZERO PUSH3 0x87E JUMPI DUP4 DUP5 REVERT JUMPDEST PUSH3 0x88C DUP11 DUP4 DUP12 ADD PUSH3 0x73B JUMP JUMPDEST SWAP6 POP PUSH1 0x60 DUP10 ADD MLOAD SWAP2 POP DUP1 DUP3 GT ISZERO PUSH3 0x8A2 JUMPI DUP4 DUP5 REVERT JUMPDEST PUSH3 0x8B0 DUP11 DUP4 DUP12 ADD PUSH3 0x6BB JUMP JUMPDEST SWAP5 POP PUSH1 0x80 DUP10 ADD MLOAD SWAP2 POP DUP1 DUP3 GT ISZERO PUSH3 0x8C6 JUMPI DUP4 DUP5 REVERT JUMPDEST PUSH3 0x8D4 DUP11 DUP4 DUP12 ADD PUSH3 0x6BB JUMP JUMPDEST SWAP4 POP PUSH1 0xA0 DUP10 ADD MLOAD SWAP2 POP DUP1 DUP3 GT ISZERO PUSH3 0x8EA JUMPI DUP3 DUP4 REVERT JUMPDEST POP PUSH3 0x8F9 DUP10 DUP3 DUP11 ADD PUSH3 0x73B JUMP JUMPDEST SWAP2 POP POP SWAP3 SWAP6 POP SWAP3 SWAP6 POP SWAP3 SWAP6 JUMP JUMPDEST PUSH1 0x0 PUSH1 0x20 DUP3 DUP5 SUB SLT ISZERO PUSH3 0x918 JUMPI DUP1 DUP2 REVERT JUMPDEST POP MLOAD SWAP2 SWAP1 POP JUMP JUMPDEST PUSH1 0x20 DUP2 MSTORE PUSH1 0x0 DUP3 MLOAD DUP1 PUSH1 0x20 DUP5 ADD MSTORE PUSH3 0x940 DUP2 PUSH1 0x40 DUP6 ADD PUSH1 0x20 DUP8 ADD PUSH3 0x9AD JUMP JUMPDEST PUSH1 0x1F ADD PUSH1 0x1F NOT AND SWAP2 SWAP1 SWAP2 ADD PUSH1 0x40 ADD SWAP3 SWAP2 POP POP JUMP JUMPDEST PUSH1 0x40 MLOAD PUSH1 0x1F DUP3 ADD PUSH1 0x1F NOT AND DUP2 ADD PUSH1 0x1 PUSH1 0x1 PUSH1 0x40 SHL SUB DUP2 GT DUP3 DUP3 LT OR ISZERO PUSH3 0x97F JUMPI PUSH3 0x97F PUSH3 0xA08 JUMP JUMPDEST PUSH1 0x40 MSTORE SWAP2 SWAP1 POP JUMP JUMPDEST PUSH1 0x0 PUSH1 0x1 PUSH1 0x1 PUSH1 0x40 SHL SUB DUP3 GT ISZERO PUSH3 0x9A3 JUMPI PUSH3 0x9A3 PUSH3 0xA08 JUMP JUMPDEST POP PUSH1 0x5 SHL PUSH1 0x20 ADD SWAP1 JUMP JUMPDEST PUSH1 0x0 JUMPDEST DUP4 DUP2 LT ISZERO PUSH3 0x9CA JUMPI DUP2 DUP2 ADD MLOAD DUP4 DUP3 ADD MSTORE PUSH1 0x20 ADD PUSH3 0x9B0 JUMP JUMPDEST DUP4 DUP2 GT ISZERO PUSH3 0x9DA JUMPI PUSH1 0x0 DUP5 DUP5 ADD MSTORE JUMPDEST POP POP POP POP JUMP JUMPDEST PUSH1 0x0 PUSH1 0x0 NOT DUP3 EQ ISZERO PUSH3 0xA01 JUMPI PUSH4 0x4E487B71 PUSH1 0xE0 SHL DUP2 MSTORE PUSH1 0x11 PUSH1 0x4 MSTORE PUSH1 0x24 DUP2 REVERT JUMPDEST POP PUSH1 0x1 ADD SWAP1 JUMP JUMPDEST PUSH4 0x4E487B71 PUSH1 0xE0 SHL PUSH1 0x0 MSTORE PUSH1 0x41 PUSH1 0x4 MSTORE PUSH1 0x24 PUSH1 0x0 REVERT JUMPDEST PUSH2 0x1012 DUP1 PUSH3 0xA2E PUSH1 0x0 CODECOPY PUSH1 0x0 RETURN INVALID PUSH1 0x80 PUSH1 0x40 MSTORE CALLVALUE DUP1 ISZERO PUSH2 0x10 JUMPI PUSH1 0x0 DUP1 REVERT JUMPDEST POP PUSH1 0x4 CALLDATASIZE LT PUSH2 0x9E JUMPI PUSH1 0x0 CALLDATALOAD PUSH1 0xE0 SHR DUP1 PUSH4 0x95244B94 GT PUSH2 0x66 JUMPI DUP1 PUSH4 0x95244B94 EQ PUSH2 0x13A JUMPI DUP1 PUSH4 0xB8C8AFF8 EQ PUSH2 0x14D JUMPI DUP1 PUSH4 0xC88641A2 EQ PUSH2 0x160 JUMPI DUP1 PUSH4 0xD8E4E93E EQ PUSH2 0x173 JUMPI DUP1 PUSH4 0xF2FDE38B EQ PUSH2 0x186 JUMPI PUSH1 0x0 DUP1 REVERT JUMPDEST DUP1 PUSH4 0xA21CC43 EQ PUSH2 0xA3 JUMPI DUP1 PUSH4 0x1A3DD0A5 EQ PUSH2 0xB8 JUMPI DUP1 PUSH4 0x365A86FC EQ PUSH2 0xE8 JUMPI DUP1 PUSH4 0x6651F11D EQ PUSH2 0xFB JUMPI DUP1 PUSH4 0x8DA5CB5B EQ PUSH2 0x132 JUMPI JUMPDEST PUSH1 0x0 DUP1 REVERT JUMPDEST PUSH2 0xB6 PUSH2 0xB1 CALLDATASIZE PUSH1 0x4 PUSH2 0xDDA JUMP JUMPDEST PUSH2 0x199 JUMP JUMPDEST STOP JUMPDEST PUSH2 0xCB PUSH2 0xC6 CALLDATASIZE PUSH1 0x4 PUSH2 0xE30 JUMP JUMPDEST PUSH2 0x1DF JUMP JUMPDEST PUSH1 0x40 MLOAD PUSH1 0x1 PUSH1 0x1 PUSH1 0xA0 SHL SUB SWAP1 SWAP2 AND DUP2 MSTORE PUSH1 0x20 ADD JUMPDEST PUSH1 0x40 MLOAD DUP1 SWAP2 SUB SWAP1 RETURN JUMPDEST PUSH1 0x1 SLOAD PUSH2 0xCB SWAP1 PUSH1 0x1 PUSH1 0x1 PUSH1 0xA0 SHL SUB AND DUP2 JUMP JUMPDEST PUSH2 0x124 PUSH2 0x109 CALLDATASIZE PUSH1 0x4 PUSH2 0xCFF JUMP JUMPDEST PUSH1 0x1 PUSH1 0x1 PUSH1 0xA0 SHL SUB AND PUSH1 0x0 SWAP1 DUP2 MSTORE PUSH1 0x3 PUSH1 0x20 MSTORE PUSH1 0x40 SWAP1 KECCAK256 SLOAD SWAP1 JUMP JUMPDEST PUSH1 0x40 MLOAD SWAP1 DUP2 MSTORE PUSH1 0x20 ADD PUSH2 0xDF JUMP JUMPDEST PUSH2 0xCB PUSH2 0x1FA JUMP JUMPDEST PUSH2 0xB6 PUSH2 0x148 CALLDATASIZE PUSH1 0x4 PUSH2 0xD84 JUMP JUMPDEST PUSH2 0x209 JUMP JUMPDEST PUSH2 0xCB PUSH2 0x15B CALLDATASIZE PUSH1 0x4 PUSH2 0xCFF JUMP JUMPDEST PUSH2 0x242 JUMP JUMPDEST PUSH2 0xB6 PUSH2 0x16E CALLDATASIZE PUSH1 0x4 PUSH2 0xD37 JUMP JUMPDEST PUSH2 0x26B JUMP JUMPDEST PUSH2 0xB6 PUSH2 0x181 CALLDATASIZE PUSH1 0x4 PUSH2 0xE60 JUMP JUMPDEST PUSH2 0x4F3 JUMP JUMPDEST PUSH2 0xB6 PUSH2 0x194 CALLDATASIZE PUSH1 0x4 PUSH2 0xCFF JUMP JUMPDEST PUSH2 0x52C JUMP JUMPDEST CALLER PUSH2 0x1A2 PUSH2 0x1FA JUMP JUMPDEST PUSH1 0x1 PUSH1 0x1 PUSH1 0xA0 SHL SUB AND EQ PUSH2 0x1D1 JUMPI PUSH1 0x40 MLOAD PUSH3 0x461BCD PUSH1 0xE5 SHL DUP2 MSTORE PUSH1 0x4 ADD PUSH2 0x1C8 SWAP1 PUSH2 0xF02 JUMP JUMPDEST PUSH1 0x40 MLOAD DUP1 SWAP2 SUB SWAP1 REVERT JUMPDEST PUSH2 0x1DB DUP3 DUP3 PUSH2 0x5CC JUMP JUMPDEST POP POP JUMP JUMPDEST PUSH1 0x0 SWAP1 DUP2 MSTORE PUSH1 0x2 PUSH1 0x20 MSTORE PUSH1 0x40 SWAP1 KECCAK256 SLOAD PUSH1 0x1 PUSH1 0x1 PUSH1 0xA0 SHL SUB AND SWAP1 JUMP JUMPDEST PUSH1 0x0 SLOAD PUSH1 0x1 PUSH1 0x1 PUSH1 0xA0 SHL SUB AND SWAP1 JUMP JUMPDEST CALLER PUSH2 0x212 PUSH2 0x1FA JUMP JUMPDEST PUSH1 0x1 PUSH1 0x1 PUSH1 0xA0 SHL SUB AND EQ PUSH2 0x238 JUMPI PUSH1 0x40 MLOAD PUSH3 0x461BCD PUSH1 0xE5 SHL DUP2 MSTORE PUSH1 0x4 ADD PUSH2 0x1C8 SWAP1 PUSH2 0xF02 JUMP JUMPDEST PUSH2 0x1DB DUP3 DUP3 PUSH2 0x6AB JUMP JUMPDEST PUSH1 0x1 PUSH1 0x1 PUSH1 0xA0 SHL SUB DUP2 AND PUSH1 0x0 SWAP1 DUP2 MSTORE PUSH1 0x3 PUSH1 0x20 MSTORE PUSH1 0x40 DUP2 KECCAK256 SLOAD PUSH2 0x264 DUP2 PUSH2 0x1DF JUMP JUMPDEST SWAP4 SWAP3 POP POP POP JUMP JUMPDEST PUSH1 0x40 DUP1 MLOAD DUP1 DUP3 ADD DUP3 MSTORE PUSH1 0xE DUP2 MSTORE PUSH14 0x20B4B9323937B82BB930B83832B9 PUSH1 0x91 SHL PUSH1 0x20 DUP3 ADD MSTORE SWAP1 MLOAD PUSH4 0xF99A8FFB PUSH1 0xE0 SHL DUP2 MSTORE DUP3 SWAP2 PUSH20 0x0 SWAP2 PUSH4 0xF99A8FFB SWAP2 PUSH2 0x2C5 SWAP2 PUSH1 0x4 ADD PUSH2 0xEAF JUMP JUMPDEST PUSH1 0x20 PUSH1 0x40 MLOAD DUP1 DUP4 SUB DUP2 DUP7 DUP1 EXTCODESIZE ISZERO DUP1 ISZERO PUSH2 0x2DD JUMPI PUSH1 0x0 DUP1 REVERT JUMPDEST POP GAS DELEGATECALL ISZERO DUP1 ISZERO PUSH2 0x2F1 JUMPI RETURNDATASIZE PUSH1 0x0 DUP1 RETURNDATACOPY RETURNDATASIZE PUSH1 0x0 REVERT JUMPDEST POP POP POP POP PUSH1 0x40 MLOAD RETURNDATASIZE PUSH1 0x1F NOT PUSH1 0x1F DUP3 ADD AND DUP3 ADD DUP1 PUSH1 0x40 MSTORE POP DUP2 ADD SWAP1 PUSH2 0x315 SWAP2 SWAP1 PUSH2 0xE48 JUMP JUMPDEST PUSH1 0x40 MLOAD PUSH4 0xF99A8FFB PUSH1 0xE0 SHL DUP2 MSTORE PUSH20 0x0 SWAP1 PUSH4 0xF99A8FFB SWAP1 PUSH2 0x34C SWAP1 DUP6 SWAP1 PUSH1 0x4 ADD PUSH2 0xEAF JUMP JUMPDEST PUSH1 0x20 PUSH1 0x40 MLOAD DUP1 DUP4 SUB DUP2 DUP7 DUP1 EXTCODESIZE ISZERO DUP1 ISZERO PUSH2 0x364 JUMPI PUSH1 0x0 DUP1 REVERT JUMPDEST POP GAS DELEGATECALL ISZERO DUP1 ISZERO PUSH2 0x378 JUMPI RETURNDATASIZE PUSH1 0x0 DUP1 RETURNDATACOPY RETURNDATASIZE PUSH1 0x0 REVERT JUMPDEST POP POP POP POP PUSH1 0x40 MLOAD RETURNDATASIZE PUSH1 0x1F NOT PUSH1 0x1F DUP3 ADD AND DUP3 ADD DUP1 PUSH1 0x40 MSTORE POP DUP2 ADD SWAP1 PUSH2 0x39C SWAP2 SWAP1 PUSH2 0xE48 JUMP JUMPDEST EQ ISZERO PUSH2 0x48F JUMPI CALLER PUSH1 0x1 SLOAD PUSH1 0x40 MLOAD PUSH4 0x1C2D8FB3 PUSH1 0xE3 SHL DUP2 MSTORE PUSH15 0x41495244524F505F464143544F5259 PUSH1 0x88 SHL PUSH1 0x4 DUP3 ADD MSTORE PUSH1 0x1 PUSH1 0x1 PUSH1 0xA0 SHL SUB SWAP3 DUP4 AND SWAP3 SWAP1 SWAP2 AND SWAP1 PUSH4 0xE16C7D98 SWAP1 PUSH1 0x24 ADD PUSH1 0x20 PUSH1 0x40 MLOAD DUP1 DUP4 SUB DUP2 DUP7 DUP1 EXTCODESIZE ISZERO DUP1 ISZERO PUSH2 0x3FC JUMPI PUSH1 0x0 DUP1 REVERT JUMPDEST POP GAS STATICCALL ISZERO DUP1 ISZERO PUSH2 0x410 JUMPI RETURNDATASIZE PUSH1 0x0 DUP1 RETURNDATACOPY RETURNDATASIZE PUSH1 0x0 REVERT JUMPDEST POP POP POP POP PUSH1 0x40 MLOAD RETURNDATASIZE PUSH1 0x1F NOT PUSH1 0x1F DUP3 ADD AND DUP3 ADD DUP1 PUSH1 0x40 MSTORE POP DUP2 ADD SWAP1 PUSH2 0x434 SWAP2 SWAP1 PUSH2 0xD1B JUMP JUMPDEST PUSH1 0x1 PUSH1 0x1 PUSH1 0xA0 SHL SUB AND EQ PUSH2 0x48A JUMPI PUSH1 0x40 MLOAD PUSH3 0x461BCD PUSH1 0xE5 SHL DUP2 MSTORE PUSH1 0x20 PUSH1 0x4 DUP3 ADD MSTORE PUSH1 0x1C PUSH1 0x24 DUP3 ADD MSTORE PUSH32 0x63616C6C6572206973206E6F742041697264726F70466163746F727900000000 PUSH1 0x44 DUP3 ADD MSTORE PUSH1 0x64 ADD PUSH2 0x1C8 JUMP JUMPDEST PUSH2 0x4E4 JUMP JUMPDEST CALLER PUSH2 0x498 PUSH2 0x1FA JUMP JUMPDEST PUSH1 0x1 PUSH1 0x1 PUSH1 0xA0 SHL SUB AND EQ PUSH2 0x4E4 JUMPI PUSH1 0x40 MLOAD PUSH3 0x461BCD PUSH1 0xE5 SHL DUP2 MSTORE PUSH1 0x20 PUSH1 0x4 DUP3 ADD MSTORE PUSH1 0x13 PUSH1 0x24 DUP3 ADD MSTORE PUSH19 0x31B0B63632B91034B9903737BA1037BBB732B9 PUSH1 0x69 SHL PUSH1 0x44 DUP3 ADD MSTORE PUSH1 0x64 ADD PUSH2 0x1C8 JUMP JUMPDEST PUSH2 0x4EE DUP4 DUP4 PUSH2 0x78C JUMP JUMPDEST POP POP POP JUMP JUMPDEST CALLER PUSH2 0x4FC PUSH2 0x1FA JUMP JUMPDEST PUSH1 0x1 PUSH1 0x1 PUSH1 0xA0 SHL SUB AND EQ PUSH2 0x522 JUMPI PUSH1 0x40 MLOAD PUSH3 0x461BCD PUSH1 0xE5 SHL DUP2 MSTORE PUSH1 0x4 ADD PUSH2 0x1C8 SWAP1 PUSH2 0xF02 JUMP JUMPDEST PUSH2 0x1DB DUP3 DUP3 PUSH2 0xA28 JUMP JUMPDEST CALLER PUSH2 0x535 PUSH2 0x1FA JUMP JUMPDEST PUSH1 0x1 PUSH1 0x1 PUSH1 0xA0 SHL SUB AND EQ PUSH2 0x55B JUMPI PUSH1 0x40 MLOAD PUSH3 0x461BCD PUSH1 0xE5 SHL DUP2 MSTORE PUSH1 0x4 ADD PUSH2 0x1C8 SWAP1 PUSH2 0xF02 JUMP JUMPDEST PUSH1 0x1 PUSH1 0x1 PUSH1 0xA0 SHL SUB DUP2 AND PUSH2 0x5C0 JUMPI PUSH1 0x40 MLOAD PUSH3 0x461BCD PUSH1 0xE5 SHL DUP2 MSTORE PUSH1 0x20 PUSH1 0x4 DUP3 ADD MSTORE PUSH1 0x26 PUSH1 0x24 DUP3 ADD MSTORE PUSH32 0x4F776E61626C653A206E6577206F776E657220697320746865207A65726F2061 PUSH1 0x44 DUP3 ADD MSTORE PUSH6 0x646472657373 PUSH1 0xD0 SHL PUSH1 0x64 DUP3 ADD MSTORE PUSH1 0x84 ADD PUSH2 0x1C8 JUMP JUMPDEST PUSH2 0x5C9 DUP2 PUSH2 0xB4E JUMP JUMPDEST POP JUMP JUMPDEST DUP1 MLOAD DUP3 MLOAD EQ PUSH2 0x635 JUMPI PUSH1 0x40 MLOAD PUSH3 0x461BCD PUSH1 0xE5 SHL DUP2 MSTORE PUSH1 0x20 PUSH1 0x4 DUP3 ADD MSTORE PUSH1 0x2F PUSH1 0x24 DUP3 ADD MSTORE PUSH32 0x7365744E667454797065732066756E6374696F6E20696E666F726D6174696F6E PUSH1 0x44 DUP3 ADD MSTORE PUSH15 0x40C2E4D2E8F240DAD2E6DAC2E8C6D PUSH1 0x8B SHL PUSH1 0x64 DUP3 ADD MSTORE PUSH1 0x84 ADD PUSH2 0x1C8 JUMP JUMPDEST PUSH1 0x0 JUMPDEST DUP2 MLOAD DUP2 LT ISZERO PUSH2 0x4EE JUMPI PUSH2 0x699 DUP4 DUP3 DUP2 MLOAD DUP2 LT PUSH2 0x664 JUMPI PUSH4 0x4E487B71 PUSH1 0xE0 SHL PUSH1 0x0 MSTORE PUSH1 0x32 PUSH1 0x4 MSTORE PUSH1 0x24 PUSH1 0x0 REVERT JUMPDEST PUSH1 0x20 MUL PUSH1 0x20 ADD ADD MLOAD DUP4 DUP4 DUP2 MLOAD DUP2 LT PUSH2 0x68C JUMPI PUSH4 0x4E487B71 PUSH1 0xE0 SHL PUSH1 0x0 MSTORE PUSH1 0x32 PUSH1 0x4 MSTORE PUSH1 0x24 PUSH1 0x0 REVERT JUMPDEST PUSH1 0x20 MUL PUSH1 0x20 ADD ADD MLOAD PUSH2 0xA28 JUMP JUMPDEST DUP1 PUSH2 0x6A3 DUP2 PUSH2 0xF8A JUMP JUMPDEST SWAP2 POP POP PUSH2 0x638 JUMP JUMPDEST DUP1 MLOAD DUP3 MLOAD EQ PUSH2 0x716 JUMPI PUSH1 0x40 MLOAD PUSH3 0x461BCD PUSH1 0xE5 SHL DUP2 MSTORE PUSH1 0x20 PUSH1 0x4 DUP3 ADD MSTORE PUSH1 0x31 PUSH1 0x24 DUP3 ADD MSTORE PUSH32 0x7365744E46545065726D6974732066756E6374696F6E20696E666F726D617469 PUSH1 0x44 DUP3 ADD MSTORE PUSH17 0xDEDC40C2E4D2E8F240DAD2E6DAC2E8C6D PUSH1 0x7B SHL PUSH1 0x64 DUP3 ADD MSTORE PUSH1 0x84 ADD PUSH2 0x1C8 JUMP JUMPDEST PUSH1 0x0 JUMPDEST DUP3 MLOAD DUP2 LT ISZERO PUSH2 0x4EE JUMPI PUSH2 0x77A DUP4 DUP3 DUP2 MLOAD DUP2 LT PUSH2 0x745 JUMPI PUSH4 0x4E487B71 PUSH1 0xE0 SHL PUSH1 0x0 MSTORE PUSH1 0x32 PUSH1 0x4 MSTORE PUSH1 0x24 PUSH1 0x0 REVERT JUMPDEST PUSH1 0x20 MUL PUSH1 0x20 ADD ADD MLOAD DUP4 DUP4 DUP2 MLOAD DUP2 LT PUSH2 0x76D JUMPI PUSH4 0x4E487B71 PUSH1 0xE0 SHL PUSH1 0x0 MSTORE PUSH1 0x32 PUSH1 0x4 MSTORE PUSH1 0x24 PUSH1 0x0 REVERT JUMPDEST PUSH1 0x20 MUL PUSH1 0x20 ADD ADD MLOAD PUSH2 0x78C JUMP JUMPDEST DUP1 PUSH2 0x784 DUP2 PUSH2 0xF8A JUMP JUMPDEST SWAP2 POP POP PUSH2 0x719 JUMP JUMPDEST PUSH1 0x1 PUSH1 0x1 PUSH1 0xA0 SHL SUB DUP3 AND PUSH2 0x7E2 JUMPI PUSH1 0x40 MLOAD PUSH3 0x461BCD PUSH1 0xE5 SHL DUP2 MSTORE PUSH1 0x20 PUSH1 0x4 DUP3 ADD MSTORE PUSH1 0x1B PUSH1 0x24 DUP3 ADD MSTORE PUSH32 0x6E6674436F6E7472616374206973207A65726F20616464726573730000000000 PUSH1 0x44 DUP3 ADD MSTORE PUSH1 0x64 ADD PUSH2 0x1C8 JUMP JUMPDEST PUSH1 0x40 MLOAD PUSH4 0xF99A8FFB PUSH1 0xE0 SHL DUP2 MSTORE PUSH1 0x0 SWAP1 PUSH20 0x0 SWAP1 PUSH4 0xF99A8FFB SWAP1 PUSH2 0x81C SWAP1 DUP6 SWAP1 PUSH1 0x4 ADD PUSH2 0xEAF JUMP JUMPDEST PUSH1 0x20 PUSH1 0x40 MLOAD DUP1 DUP4 SUB DUP2 DUP7 DUP1 EXTCODESIZE ISZERO DUP1 ISZERO PUSH2 0x834 JUMPI PUSH1 0x0 DUP1 REVERT JUMPDEST POP GAS DELEGATECALL ISZERO DUP1 ISZERO PUSH2 0x848 JUMPI RETURNDATASIZE PUSH1 0x0 DUP1 RETURNDATACOPY RETURNDATASIZE PUSH1 0x0 REVERT JUMPDEST POP POP POP POP PUSH1 0x40 MLOAD RETURNDATASIZE PUSH1 0x1F NOT PUSH1 0x1F DUP3 ADD AND DUP3 ADD DUP1 PUSH1 0x40 MSTORE POP DUP2 ADD SWAP1 PUSH2 0x86C SWAP2 SWAP1 PUSH2 0xE48 JUMP JUMPDEST SWAP1 POP DUP1 ISZERO PUSH2 0x8D0 JUMPI PUSH1 0x0 PUSH2 0x87F DUP3 PUSH2 0x1DF JUMP JUMPDEST PUSH1 0x1 PUSH1 0x1 PUSH1 0xA0 SHL SUB AND EQ ISZERO PUSH2 0x8D0 JUMPI PUSH1 0x40 MLOAD PUSH3 0x461BCD PUSH1 0xE5 SHL DUP2 MSTORE PUSH1 0x20 PUSH1 0x4 DUP3 ADD MSTORE PUSH1 0x17 PUSH1 0x24 DUP3 ADD MSTORE PUSH23 0x139195081D1E5C19481B9BDD081C9959DA5CDD195C9959 PUSH1 0x4A SHL PUSH1 0x44 DUP3 ADD MSTORE PUSH1 0x64 ADD PUSH2 0x1C8 JUMP JUMPDEST PUSH1 0x40 DUP1 MLOAD DUP1 DUP3 ADD DUP3 MSTORE PUSH1 0xE DUP2 MSTORE PUSH14 0x20B4B9323937B82BB930B83832B9 PUSH1 0x91 SHL PUSH1 0x20 DUP3 ADD MSTORE SWAP1 MLOAD PUSH4 0xF99A8FFB PUSH1 0xE0 SHL DUP2 MSTORE PUSH20 0x0 SWAP2 PUSH4 0xF99A8FFB SWAP2 PUSH2 0x929 SWAP2 SWAP1 PUSH1 0x4 ADD PUSH2 0xEAF JUMP JUMPDEST PUSH1 0x20 PUSH1 0x40 MLOAD DUP1 DUP4 SUB DUP2 DUP7 DUP1 EXTCODESIZE ISZERO DUP1 ISZERO PUSH2 0x941 JUMPI PUSH1 0x0 DUP1 REVERT JUMPDEST POP GAS DELEGATECALL ISZERO DUP1 ISZERO PUSH2 0x955 JUMPI RETURNDATASIZE PUSH1 0x0 DUP1 RETURNDATACOPY RETURNDATASIZE PUSH1 0x0 REVERT JUMPDEST POP POP POP POP PUSH1 0x40 MLOAD RETURNDATASIZE PUSH1 0x1F NOT PUSH1 0x1F DUP3 ADD AND DUP3 ADD DUP1 PUSH1 0x40 MSTORE POP DUP2 ADD SWAP1 PUSH2 0x979 SWAP2 SWAP1 PUSH2 0xE48 JUMP JUMPDEST PUSH1 0x1 PUSH1 0x1 PUSH1 0xA0 SHL SUB DUP5 AND PUSH1 0x0 SWAP1 DUP2 MSTORE PUSH1 0x3 PUSH1 0x20 MSTORE PUSH1 0x40 SWAP1 KECCAK256 SLOAD EQ ISZERO PUSH2 0x9E0 JUMPI PUSH1 0x40 MLOAD PUSH3 0x461BCD PUSH1 0xE5 SHL DUP2 MSTORE PUSH1 0x20 PUSH1 0x4 DUP3 ADD DUP2 SWAP1 MSTORE PUSH1 0x24 DUP3 ADD MSTORE PUSH32 0x41697264726F70577261707065722063616E2774206265206D6F646966696564 PUSH1 0x44 DUP3 ADD MSTORE PUSH1 0x64 ADD PUSH2 0x1C8 JUMP JUMPDEST PUSH1 0x1 PUSH1 0x1 PUSH1 0xA0 SHL SUB DUP4 AND PUSH1 0x0 DUP2 DUP2 MSTORE PUSH1 0x3 PUSH1 0x20 MSTORE PUSH1 0x40 DUP1 DUP3 KECCAK256 DUP5 SWAP1 SSTORE MLOAD DUP4 SWAP3 SWAP2 PUSH32 0x903A211C8BCDC0AB18AFC116FC4776504A9AAC5C0121BE0FDA712D399017BD22 SWAP2 LOG3 POP POP POP JUMP JUMPDEST DUP2 MLOAD PUSH2 0xA69 JUMPI PUSH1 0x40 MLOAD PUSH3 0x461BCD PUSH1 0xE5 SHL DUP2 MSTORE PUSH1 0x20 PUSH1 0x4 DUP3 ADD MSTORE PUSH1 0x10 PUSH1 0x24 DUP3 ADD MSTORE PUSH16 0x6E66745479706520697320656D707479 PUSH1 0x80 SHL PUSH1 0x44 DUP3 ADD MSTORE PUSH1 0x64 ADD PUSH2 0x1C8 JUMP JUMPDEST PUSH1 0x40 MLOAD PUSH4 0xF99A8FFB PUSH1 0xE0 SHL DUP2 MSTORE PUSH1 0x0 SWAP1 PUSH20 0x0 SWAP1 PUSH4 0xF99A8FFB SWAP1 PUSH2 0xAA3 SWAP1 DUP7 SWAP1 PUSH1 0x4 ADD PUSH2 0xEAF JUMP JUMPDEST PUSH1 0x20 PUSH1 0x40 MLOAD DUP1 DUP4 SUB DUP2 DUP7 DUP1 EXTCODESIZE ISZERO DUP1 ISZERO PUSH2 0xABB JUMPI PUSH1 0x0 DUP1 REVERT JUMPDEST POP GAS DELEGATECALL ISZERO DUP1 ISZERO PUSH2 0xACF JUMPI RETURNDATASIZE PUSH1 0x0 DUP1 RETURNDATACOPY RETURNDATASIZE PUSH1 0x0 REVERT JUMPDEST POP POP POP POP PUSH1 0x40 MLOAD RETURNDATASIZE PUSH1 0x1F NOT PUSH1 0x1F DUP3 ADD AND DUP3 ADD DUP1 PUSH1 0x40 MSTORE POP DUP2 ADD SWAP1 PUSH2 0xAF3 SWAP2 SWAP1 PUSH2 0xE48 JUMP JUMPDEST PUSH1 0x0 DUP2 DUP2 MSTORE PUSH1 0x2 PUSH1 0x20 MSTORE PUSH1 0x40 DUP1 DUP3 KECCAK256 DUP1 SLOAD PUSH1 0x1 PUSH1 0x1 PUSH1 0xA0 SHL SUB NOT AND PUSH1 0x1 PUSH1 0x1 PUSH1 0xA0 SHL SUB DUP8 AND SWAP1 DUP2 OR SWAP1 SWAP2 SSTORE SWAP1 MLOAD SWAP3 SWAP4 POP SWAP2 DUP4 SWAP2 PUSH32 0x22BE69269C1F7D73E73DCB25B710DD88C7AA1CF374C16D945DEF98DF2107C2F8 SWAP2 LOG3 POP POP POP JUMP JUMPDEST PUSH1 0x0 DUP1 SLOAD PUSH1 0x1 PUSH1 0x1 PUSH1 0xA0 SHL SUB DUP4 DUP2 AND PUSH1 0x1 PUSH1 0x1 PUSH1 0xA0 SHL SUB NOT DUP4 AND DUP2 OR DUP5 SSTORE PUSH1 0x40 MLOAD SWAP2 SWAP1 SWAP3 AND SWAP3 DUP4 SWAP2 PUSH32 0x8BE0079C531659141344CD1FD0A4F28419497F9722A3DAAFE3B4186F6B6457E0 SWAP2 SWAP1 LOG3 POP POP JUMP JUMPDEST PUSH1 0x0 DUP3 PUSH1 0x1F DUP4 ADD SLT PUSH2 0xBAE JUMPI DUP1 DUP2 REVERT JUMPDEST DUP2 CALLDATALOAD PUSH1 0x20 PUSH2 0xBC3 PUSH2 0xBBE DUP4 PUSH2 0xF67 JUMP JUMPDEST PUSH2 0xF37 JUMP JUMPDEST DUP1 DUP4 DUP3 MSTORE DUP3 DUP3 ADD SWAP2 POP DUP3 DUP7 ADD DUP8 DUP5 DUP7 PUSH1 0x5 SHL DUP10 ADD ADD GT ISZERO PUSH2 0xBE2 JUMPI DUP6 DUP7 REVERT JUMPDEST DUP6 JUMPDEST DUP6 DUP2 LT ISZERO PUSH2 0xC09 JUMPI DUP2 CALLDATALOAD PUSH2 0xBF7 DUP2 PUSH2 0xFC7 JUMP JUMPDEST DUP5 MSTORE SWAP3 DUP5 ADD SWAP3 SWAP1 DUP5 ADD SWAP1 PUSH1 0x1 ADD PUSH2 0xBE4 JUMP JUMPDEST POP SWAP1 SWAP8 SWAP7 POP POP POP POP POP POP POP JUMP JUMPDEST PUSH1 0x0 DUP3 PUSH1 0x1F DUP4 ADD SLT PUSH2 0xC26 JUMPI DUP1 DUP2 REVERT JUMPDEST DUP2 CALLDATALOAD PUSH1 0x20 PUSH2 0xC36 PUSH2 0xBBE DUP4 PUSH2 0xF67 JUMP JUMPDEST DUP1 DUP4 DUP3 MSTORE DUP3 DUP3 ADD SWAP2 POP DUP3 DUP7 ADD DUP8 DUP5 DUP7 PUSH1 0x5 SHL DUP10 ADD ADD GT ISZERO PUSH2 0xC55 JUMPI DUP6 DUP7 REVERT JUMPDEST DUP6 JUMPDEST DUP6 DUP2 LT ISZERO PUSH2 0xC09 JUMPI DUP2 CALLDATALOAD PUSH1 0x1 PUSH1 0x1 PUSH1 0x40 SHL SUB DUP2 GT ISZERO PUSH2 0xC74 JUMPI DUP8 DUP9 REVERT JUMPDEST PUSH2 0xC82 DUP11 DUP8 DUP4 DUP13 ADD ADD PUSH2 0xC95 JUMP JUMPDEST DUP6 MSTORE POP SWAP3 DUP5 ADD SWAP3 SWAP1 DUP5 ADD SWAP1 PUSH1 0x1 ADD PUSH2 0xC57 JUMP JUMPDEST PUSH1 0x0 DUP3 PUSH1 0x1F DUP4 ADD SLT PUSH2 0xCA5 JUMPI DUP1 DUP2 REVERT JUMPDEST DUP2 CALLDATALOAD PUSH1 0x1 PUSH1 0x1 PUSH1 0x40 SHL SUB DUP2 GT ISZERO PUSH2 0xCBE JUMPI PUSH2 0xCBE PUSH2 0xFB1 JUMP JUMPDEST PUSH2 0xCD1 PUSH1 0x1F DUP3 ADD PUSH1 0x1F NOT AND PUSH1 0x20 ADD PUSH2 0xF37 JUMP JUMPDEST DUP2 DUP2 MSTORE DUP5 PUSH1 0x20 DUP4 DUP7 ADD ADD GT ISZERO PUSH2 0xCE5 JUMPI DUP3 DUP4 REVERT JUMPDEST DUP2 PUSH1 0x20 DUP6 ADD PUSH1 0x20 DUP4 ADD CALLDATACOPY SWAP1 DUP2 ADD PUSH1 0x20 ADD SWAP2 SWAP1 SWAP2 MSTORE SWAP3 SWAP2 POP POP JUMP JUMPDEST PUSH1 0x0 PUSH1 0x20 DUP3 DUP5 SUB SLT ISZERO PUSH2 0xD10 JUMPI DUP1 DUP2 REVERT JUMPDEST DUP2 CALLDATALOAD PUSH2 0x264 DUP2 PUSH2 0xFC7 JUMP JUMPDEST PUSH1 0x0 PUSH1 0x20 DUP3 DUP5 SUB SLT ISZERO PUSH2 0xD2C JUMPI DUP1 DUP2 REVERT JUMPDEST DUP2 MLOAD PUSH2 0x264 DUP2 PUSH2 0xFC7 JUMP JUMPDEST PUSH1 0x0 DUP1 PUSH1 0x40 DUP4 DUP6 SUB SLT ISZERO PUSH2 0xD49 JUMPI DUP1 DUP2 REVERT JUMPDEST DUP3 CALLDATALOAD PUSH2 0xD54 DUP2 PUSH2 0xFC7 JUMP JUMPDEST SWAP2 POP PUSH1 0x20 DUP4 ADD CALLDATALOAD PUSH1 0x1 PUSH1 0x1 PUSH1 0x40 SHL SUB DUP2 GT ISZERO PUSH2 0xD6E JUMPI DUP2 DUP3 REVERT JUMPDEST PUSH2 0xD7A DUP6 DUP3 DUP7 ADD PUSH2 0xC95 JUMP JUMPDEST SWAP2 POP POP SWAP3 POP SWAP3 SWAP1 POP JUMP JUMPDEST PUSH1 0x0 DUP1 PUSH1 0x40 DUP4 DUP6 SUB SLT ISZERO PUSH2 0xD96 JUMPI DUP2 DUP3 REVERT JUMPDEST DUP3 CALLDATALOAD PUSH1 0x1 PUSH1 0x1 PUSH1 0x40 SHL SUB DUP1 DUP3 GT ISZERO PUSH2 0xDAC JUMPI DUP4 DUP5 REVERT JUMPDEST PUSH2 0xDB8 DUP7 DUP4 DUP8 ADD PUSH2 0xB9E JUMP JUMPDEST SWAP4 POP PUSH1 0x20 DUP6 ADD CALLDATALOAD SWAP2 POP DUP1 DUP3 GT ISZERO PUSH2 0xDCD JUMPI DUP3 DUP4 REVERT JUMPDEST POP PUSH2 0xD7A DUP6 DUP3 DUP7 ADD PUSH2 0xC16 JUMP JUMPDEST PUSH1 0x0 DUP1 PUSH1 0x40 DUP4 DUP6 SUB SLT ISZERO PUSH2 0xDEC JUMPI DUP2 DUP3 REVERT JUMPDEST DUP3 CALLDATALOAD PUSH1 0x1 PUSH1 0x1 PUSH1 0x40 SHL SUB DUP1 DUP3 GT ISZERO PUSH2 0xE02 JUMPI DUP4 DUP5 REVERT JUMPDEST PUSH2 0xE0E DUP7 DUP4 DUP8 ADD PUSH2 0xC16 JUMP JUMPDEST SWAP4 POP PUSH1 0x20 DUP6 ADD CALLDATALOAD SWAP2 POP DUP1 DUP3 GT ISZERO PUSH2 0xE23 JUMPI DUP3 DUP4 REVERT JUMPDEST POP PUSH2 0xD7A DUP6 DUP3 DUP7 ADD PUSH2 0xB9E JUMP JUMPDEST PUSH1 0x0 PUSH1 0x20 DUP3 DUP5 SUB SLT ISZERO PUSH2 0xE41 JUMPI DUP1 DUP2 REVERT JUMPDEST POP CALLDATALOAD SWAP2 SWAP1 POP JUMP JUMPDEST PUSH1 0x0 PUSH1 0x20 DUP3 DUP5 SUB SLT ISZERO PUSH2 0xE59 JUMPI DUP1 DUP2 REVERT JUMPDEST POP MLOAD SWAP2 SWAP1 POP JUMP JUMPDEST PUSH1 0x0 DUP1 PUSH1 0x40 DUP4 DUP6 SUB SLT ISZERO PUSH2 0xE72 JUMPI DUP2 DUP3 REVERT JUMPDEST DUP3 CALLDATALOAD PUSH1 0x1 PUSH1 0x1 PUSH1 0x40 SHL SUB DUP2 GT ISZERO PUSH2 0xE87 JUMPI DUP3 DUP4 REVERT JUMPDEST PUSH2 0xE93 DUP6 DUP3 DUP7 ADD PUSH2 0xC95 JUMP JUMPDEST SWAP3 POP POP PUSH1 0x20 DUP4 ADD CALLDATALOAD PUSH2 0xEA4 DUP2 PUSH2 0xFC7 JUMP JUMPDEST DUP1 SWAP2 POP POP SWAP3 POP SWAP3 SWAP1 POP JUMP JUMPDEST PUSH1 0x0 PUSH1 0x20 DUP1 DUP4 MSTORE DUP4 MLOAD DUP1 DUP3 DUP6 ADD MSTORE DUP3 JUMPDEST DUP2 DUP2 LT ISZERO PUSH2 0xEDB JUMPI DUP6 DUP2 ADD DUP4 ADD MLOAD DUP6 DUP3 ADD PUSH1 0x40 ADD MSTORE DUP3 ADD PUSH2 0xEBF JUMP JUMPDEST DUP2 DUP2 GT ISZERO PUSH2 0xEEC JUMPI DUP4 PUSH1 0x40 DUP4 DUP8 ADD ADD MSTORE JUMPDEST POP PUSH1 0x1F ADD PUSH1 0x1F NOT AND SWAP3 SWAP1 SWAP3 ADD PUSH1 0x40 ADD SWAP4 SWAP3 POP POP POP JUMP JUMPDEST PUSH1 0x20 DUP1 DUP3 MSTORE DUP2 DUP2 ADD MSTORE PUSH32 0x4F776E61626C653A2063616C6C6572206973206E6F7420746865206F776E6572 PUSH1 0x40 DUP3 ADD MSTORE PUSH1 0x60 ADD SWAP1 JUMP JUMPDEST PUSH1 0x40 MLOAD PUSH1 0x1F DUP3 ADD PUSH1 0x1F NOT AND DUP2 ADD PUSH1 0x1 PUSH1 0x1 PUSH1 0x40 SHL SUB DUP2 GT DUP3 DUP3 LT OR ISZERO PUSH2 0xF5F JUMPI PUSH2 0xF5F PUSH2 0xFB1 JUMP JUMPDEST PUSH1 0x40 MSTORE SWAP2 SWAP1 POP JUMP JUMPDEST PUSH1 0x0 PUSH1 0x1 PUSH1 0x1 PUSH1 0x40 SHL SUB DUP3 GT ISZERO PUSH2 0xF80 JUMPI PUSH2 0xF80 PUSH2 0xFB1 JUMP JUMPDEST POP PUSH1 0x5 SHL PUSH1 0x20 ADD SWAP1 JUMP JUMPDEST PUSH1 0x0 PUSH1 0x0 NOT DUP3 EQ ISZERO PUSH2 0xFAA JUMPI PUSH4 0x4E487B71 PUSH1 0xE0 SHL DUP2 MSTORE PUSH1 0x11 PUSH1 0x4 MSTORE PUSH1 0x24 DUP2 REVERT JUMPDEST POP PUSH1 0x1 ADD SWAP1 JUMP JUMPDEST PUSH4 0x4E487B71 PUSH1 0xE0 SHL PUSH1 0x0 MSTORE PUSH1 0x41 PUSH1 0x4 MSTORE PUSH1 0x24 PUSH1 0x0 REVERT JUMPDEST PUSH1 0x1 PUSH1 0x1 PUSH1 0xA0 SHL SUB DUP2 AND DUP2 EQ PUSH2 0x5C9 JUMPI PUSH1 0x0 DUP1 REVERT INVALID LOG2 PUSH5 0x6970667358 0x22 SLT KECCAK256 0xAF 0xB4 0xE9 PUSH27 0xED32EFD6591DE5B89AB4D1A9E6DF8AA121F82AD0774FDDCF513413 0xB7 PUSH5 0x736F6C6343 STOP ADDMOD DIV STOP CALLER "
		},
		"gasEstimates": {
			"creation": {
				"codeDepositCost": "822800",
				"executionCost": "infinite",
				"totalCost": "infinite"
			},
			"external": {
				"getNFTPermit(address)": "1298",
				"getNFTWrapper(address)": "infinite",
				"getNftTypeWrapper(bytes32)": "1201",
				"hub()": "1071",
				"owner()": "1124",
				"setNFTPermit(address,string)": "infinite",
				"setNFTPermits(address[],string[])": "infinite",
				"setNftType(string,address)": "infinite",
				"setNftTypes(string[],address[])": "infinite",
				"transferOwnership(address)": "infinite"
			},
			"internal": {
				"_setNFTPermit(address,string memory)": "infinite",
				"_setNFTPermits(address[] memory,string memory[] memory)": "infinite",
				"_setNftType(string memory,address)": "infinite",
				"_setNftTypes(string memory[] memory,address[] memory)": "infinite"
			}
		},
		"methodIdentifiers": {
			"getNFTPermit(address)": "6651f11d",
			"getNFTWrapper(address)": "b8c8aff8",
			"getNftTypeWrapper(bytes32)": "1a3dd0a5",
			"hub()": "365a86fc",
			"owner()": "8da5cb5b",
			"setNFTPermit(address,string)": "c88641a2",
			"setNFTPermits(address[],string[])": "95244b94",
			"setNftType(string,address)": "d8e4e93e",
			"setNftTypes(string[],address[])": "0a21cc43",
			"transferOwnership(address)": "f2fde38b"
		}
	},
	"abi": [
		{
			"inputs": [
				{
					"internalType": "address",
					"name": "_admin",
					"type": "address"
				},
				{
					"internalType": "address",
					"name": "_nftfiHub",
					"type": "address"
				},
				{
					"internalType": "string[]",
					"name": "_definedNftTypes",
					"type": "string[]"
				},
				{
					"internalType": "address[]",
					"name": "_definedNftWrappers",
					"type": "address[]"
				},
				{
					"internalType": "address[]",
					"name": "_permittedNftContracts",
					"type": "address[]"
				},
				{
					"internalType": "string[]",
					"name": "_permittedNftTypes",
					"type": "string[]"
				}
			],
			"stateMutability": "nonpayable",
			"type": "constructor"
		},
		{
			"anonymous": false,
			"inputs": [
				{
					"indexed": true,
					"internalType": "address",
					"name": "nftContract",
					"type": "address"
				},
				{
					"indexed": true,
					"internalType": "bytes32",
					"name": "nftType",
					"type": "bytes32"
				}
			],
			"name": "NFTPermit",
			"type": "event"
		},
		{
			"anonymous": false,
			"inputs": [
				{
					"indexed": true,
					"internalType": "address",
					"name": "previousOwner",
					"type": "address"
				},
				{
					"indexed": true,
					"internalType": "address",
					"name": "newOwner",
					"type": "address"
				}
			],
			"name": "OwnershipTransferred",
			"type": "event"
		},
		{
			"anonymous": false,
			"inputs": [
				{
					"indexed": true,
					"internalType": "bytes32",
					"name": "nftType",
					"type": "bytes32"
				},
				{
					"indexed": true,
					"internalType": "address",
					"name": "nftWrapper",
					"type": "address"
				}
			],
			"name": "TypeUpdated",
			"type": "event"
		},
		{
			"inputs": [
				{
					"internalType": "address",
					"name": "_nftContract",
					"type": "address"
				}
			],
			"name": "getNFTPermit",
			"outputs": [
				{
					"internalType": "bytes32",
					"name": "",
					"type": "bytes32"
				}
			],
			"stateMutability": "view",
			"type": "function"
		},
		{
			"inputs": [
				{
					"internalType": "address",
					"name": "_nftContract",
					"type": "address"
				}
			],
			"name": "getNFTWrapper",
			"outputs": [
				{
					"internalType": "address",
					"name": "",
					"type": "address"
				}
			],
			"stateMutability": "view",
			"type": "function"
		},
		{
			"inputs": [
				{
					"internalType": "bytes32",
					"name": "_nftType",
					"type": "bytes32"
				}
			],
			"name": "getNftTypeWrapper",
			"outputs": [
				{
					"internalType": "address",
					"name": "",
					"type": "address"
				}
			],
			"stateMutability": "view",
			"type": "function"
		},
		{
			"inputs": [],
			"name": "hub",
			"outputs": [
				{
					"internalType": "contract INftfiHub",
					"name": "",
					"type": "address"
				}
			],
			"stateMutability": "view",
			"type": "function"
		},
		{
			"inputs": [],
			"name": "owner",
			"outputs": [
				{
					"internalType": "address",
					"name": "",
					"type": "address"
				}
			],
			"stateMutability": "view",
			"type": "function"
		},
		{
			"inputs": [
				{
					"internalType": "address",
					"name": "_nftContract",
					"type": "address"
				},
				{
					"internalType": "string",
					"name": "_nftType",
					"type": "string"
				}
			],
			"name": "setNFTPermit",
			"outputs": [],
			"stateMutability": "nonpayable",
			"type": "function"
		},
		{
			"inputs": [
				{
					"internalType": "address[]",
					"name": "_nftContracts",
					"type": "address[]"
				},
				{
					"internalType": "string[]",
					"name": "_nftTypes",
					"type": "string[]"
				}
			],
			"name": "setNFTPermits",
			"outputs": [],
			"stateMutability": "nonpayable",
			"type": "function"
		},
		{
			"inputs": [
				{
					"internalType": "string",
					"name": "_nftType",
					"type": "string"
				},
				{
					"internalType": "address",
					"name": "_nftWrapper",
					"type": "address"
				}
			],
			"name": "setNftType",
			"outputs": [],
			"stateMutability": "nonpayable",
			"type": "function"
		},
		{
			"inputs": [
				{
					"internalType": "string[]",
					"name": "_nftTypes",
					"type": "string[]"
				},
				{
					"internalType": "address[]",
					"name": "_nftWrappers",
					"type": "address[]"
				}
			],
			"name": "setNftTypes",
			"outputs": [],
			"stateMutability": "nonpayable",
			"type": "function"
		},
		{
			"inputs": [
				{
					"internalType": "address",
					"name": "_newOwner",
					"type": "address"
				}
			],
			"name": "transferOwnership",
			"outputs": [],
			"stateMutability": "nonpayable",
			"type": "function"
		}
	]
}