{
	"data": {
		"bytecode": {
			"linkReferences": {},
			"object": "60a06040523480156200001157600080fd5b50604051620026583803806200265883398101604081905262000034916200050f565b8251839083906200004d906000906020850190620003bd565b50805162000063906001906020840190620003bd565b506200007591506000905087620000f3565b620000a17ff372640890c51dda497431936a65d3bb1ddf67b1c27cd6cdf578ce883c4f5c3687620000f3565b620000cd7f0152ff3abcd076e5909dae88c15988bc9c69e3f026f3af132517ce02b1e7920e85620000f3565b620000d88162000103565b5050505060601b6001600160601b0319166080525062000699565b620000ff828262000173565b5050565b60008151116200012357604051806020016040528060008152506200015d565b806200013a466200021760201b62000b3c1760201c565b6040516020016200014d929190620005d4565b6040516020818303038152906040525b8051620000ff91600891602090910190620003bd565b60008281526006602090815260408083206001600160a01b038516845290915290205460ff16620000ff5760008281526006602090815260408083206001600160a01b03851684529091529020805460ff19166001179055620001d33390565b6001600160a01b0316816001600160a01b0316837f2f8788117e7eff1d82e926ec794901d17c78024a50270940304540a733656f0d60405160405180910390a45050565b606060006200023183620002d360201b62000be71760201c565b60010190506000816001600160401b038111156200025f57634e487b7160e01b600052604160045260246000fd5b6040519080825280601f01601f1916602001820160405280156200028a576020820181803683370190505b5090508181016020015b600019016f181899199a1a9b1b9c1cb0b131b232b360811b600a86061a8153600a8504945084620002c557620002cb565b62000294565b509392505050565b6000807a184f03e93ff9f4daa797ed6e38ed64bf6a1f01000000000000000083106200031d577a184f03e93ff9f4daa797ed6e38ed64bf6a1f010000000000000000830492506040015b6d04ee2d6d415b85acef810000000083106200034a576d04ee2d6d415b85acef8100000000830492506020015b662386f26fc1000083106200036957662386f26fc10000830492506010015b6305f5e100831062000382576305f5e100830492506008015b61271083106200039757612710830492506004015b60648310620003aa576064830492506002015b600a8310620003b7576001015b92915050565b828054620003cb9062000646565b90600052602060002090601f016020900481019282620003ef57600085556200043a565b82601f106200040a57805160ff19168380011785556200043a565b828001600101855582156200043a579182015b828111156200043a5782518255916020019190600101906200041d565b50620004489291506200044c565b5090565b5b808211156200044857600081556001016200044d565b80516001600160a01b03811681146200047b57600080fd5b919050565b600082601f83011262000491578081fd5b81516001600160401b0380821115620004ae57620004ae62000683565b604051601f8301601f19908116603f01168101908282118183101715620004d957620004d962000683565b81604052838152866020858801011115620004f2578485fd5b6200050584602083016020890162000613565b9695505050505050565b60008060008060008060c0878903121562000528578182fd5b620005338762000463565b9550620005436020880162000463565b9450620005536040880162000463565b60608801519094506001600160401b038082111562000570578384fd5b6200057e8a838b0162000480565b9450608089015191508082111562000594578384fd5b620005a28a838b0162000480565b935060a0890151915080821115620005b8578283fd5b50620005c789828a0162000480565b9150509295509295509295565b60008351620005e881846020880162000613565b835190830190620005fe81836020880162000613565b602f60f81b9101908152600101949350505050565b60005b838110156200063057818101518382015260200162000616565b8381111562000640576000848401525b50505050565b600181811c908216806200065b57607f821691505b602082108114156200067d57634e487b7160e01b600052602260045260246000fd5b50919050565b634e487b7160e01b600052604160045260246000fd5b60805160601c611fa0620006b860003960006102800152611fa06000f3fe608060405234801561001057600080fd5b506004361061018f5760003560e01c80636c0360eb116100e4578063b88d4fde11610092578063b88d4fde14610365578063bdadce3c14610378578063c87b56dd1461039f578063c9836cdb146103b2578063d2710e2c146103c7578063d547741f146103da578063e1ec3c68146103ed578063e985e9c51461043f57600080fd5b80636c0360eb1461030157806370a082311461030957806391d148541461031c57806394d008ef1461032f57806395d89b4114610342578063a217fddf1461034a578063a22cb4651461035257600080fd5b806336568abe1161014157806336568abe14610268578063365a86fc1461027b57806342842e0e146102a257806342966c68146102b55780634f558e79146102c857806355f804b3146102db5780636352211e146102ee57600080fd5b806301ffc9a71461019457806306fdde03146101bc578063081812fc146101d1578063095ea7b3146101fc57806323b872dd14610211578063248a9ca3146102245780632f2ff15d14610255575b600080fd5b6101a76101a2366004611afc565b610452565b60405190151581526020015b60405180910390f35b6101c4610463565b6040516101b39190611cbc565b6101e46101df366004611ac2565b6104f5565b6040516001600160a01b0390911681526020016101b3565b61020f61020a366004611a17565b61051c565b005b61020f61021f366004611929565b610637565b610247610232366004611ac2565b60009081526006602052604090206001015490565b6040519081526020016101b3565b61020f610263366004611ada565b610668565b61020f610276366004611ada565b61068d565b6101e47f000000000000000000000000000000000000000000000000000000000000000081565b61020f6102b0366004611929565b61070b565b61020f6102c3366004611ac2565b610726565b6101a76102d6366004611ac2565b610767565b61020f6102e9366004611b34565b610772565b6101e46102fc366004611ac2565b6107a5565b6101c46107da565b6102476103173660046118dd565b610868565b6101a761032a366004611ada565b6108ee565b61020f61033d366004611a40565b610919565b6101c4610a15565b610247600081565b61020f6103603660046119dd565b610a24565b61020f610373366004611964565b610a2f565b6102477ff372640890c51dda497431936a65d3bb1ddf67b1c27cd6cdf578ce883c4f5c3681565b6101c46103ad366004611ac2565b610a67565b610247600080516020611f4b83398151915281565b61020f6103d53660046118dd565b610ace565b61020f6103e8366004611ada565b610ae9565b6104206103fb366004611ac2565b600760205260009081526040902080546001909101546001600160a01b039091169082565b604080516001600160a01b0390931683526020830191909152016101b3565b6101a761044d3660046118f7565b610b0e565b600061045d82610cbf565b92915050565b60606000805461047290611ead565b80601f016020809104026020016040519081016040528092919081815260200182805461049e90611ead565b80156104eb5780601f106104c0576101008083540402835291602001916104eb565b820191906000526020600020905b8154815290600101906020018083116104ce57829003601f168201915b5050505050905090565b600061050082610ce4565b506000908152600460205260409020546001600160a01b031690565b6000610527826107a5565b9050806001600160a01b0316836001600160a01b0316141561059a5760405162461bcd60e51b815260206004820152602160248201527f4552433732313a20617070726f76616c20746f2063757272656e74206f776e656044820152603960f91b60648201526084015b60405180910390fd5b336001600160a01b03821614806105b657506105b68133610b0e565b6106285760405162461bcd60e51b815260206004820152603d60248201527f4552433732313a20617070726f76652063616c6c6572206973206e6f7420746f60448201527f6b656e206f776e6572206f7220617070726f76656420666f7220616c6c0000006064820152608401610591565b6106328383610d09565b505050565b6106413382610d77565b61065d5760405162461bcd60e51b815260040161059190611ccf565b610632838383610dd6565b60008281526006602052604090206001015461068381610f35565b6106328383610f3f565b6001600160a01b03811633146106fd5760405162461bcd60e51b815260206004820152602f60248201527f416363657373436f6e74726f6c3a2063616e206f6e6c792072656e6f756e636560448201526e103937b632b9903337b91039b2b63360891b6064820152608401610591565b6107078282610fc5565b5050565b61063283838360405180602001604052806000815250610a2f565b600080516020611f4b83398151915261073e81610f35565b600082815260076020526040812080546001600160a01b0319168155600101556107078261102c565b600061045d826110bd565b7ff372640890c51dda497431936a65d3bb1ddf67b1c27cd6cdf578ce883c4f5c3661079c81610f35565b610707826110da565b6000818152600260205260408120546001600160a01b03168061045d5760405162461bcd60e51b815260040161059190611dea565b600880546107e790611ead565b80601f016020809104026020016040519081016040528092919081815260200182805461081390611ead565b80156108605780601f1061083557610100808354040283529160200191610860565b820191906000526020600020905b81548152906001019060200180831161084357829003601f168201915b505050505081565b60006001600160a01b0382166108d25760405162461bcd60e51b815260206004820152602960248201527f4552433732313a2061646472657373207a65726f206973206e6f7420612076616044820152683634b21037bbb732b960b91b6064820152608401610591565b506001600160a01b031660009081526003602052604090205490565b60009182526006602090815260408084206001600160a01b0393909316845291905290205460ff1690565b600080516020611f4b83398151915261093181610f35565b816109795760405162461bcd60e51b815260206004820152601860248201527719185d18481b5d5cdd0818dbdb9d185a5b881b1bd85b925960421b6044820152606401610591565b600061098783850185611ac2565b604080518082018252338152602080820184815260008a815260078352849020925183546001600160a01b0319166001600160a01b03909116178355516001909201919091558151601f8701829004820281018201909252858252919250610a0d9188918891889088908190840183828082843760009201919091525061113792505050565b505050505050565b60606001805461047290611ead565b61070733838361116a565b610a393383610d77565b610a555760405162461bcd60e51b815260040161059190611ccf565b610a6184848484611235565b50505050565b6060610a7282610ce4565b6000610a7c611268565b90506000815111610a9c5760405180602001604052806000815250610ac7565b80610aa684610b3c565b604051602001610ab7929190611ba6565b6040516020818303038152906040525b9392505050565b610ae6600080516020611f4b83398151915282610668565b50565b600082815260066020526040902060010154610b0481610f35565b6106328383610fc5565b6001600160a01b03918216600090815260056020908152604080832093909416825291909152205460ff1690565b60606000610b4983610be7565b600101905060008167ffffffffffffffff811115610b7757634e487b7160e01b600052604160045260246000fd5b6040519080825280601f01601f191660200182016040528015610ba1576020820181803683370190505b5090508181016020015b600019016f181899199a1a9b1b9c1cb0b131b232b360811b600a86061a8153600a8504945084610bda57610bdf565b610bab565b509392505050565b60008072184f03e93ff9f4daa797ed6e38ed64bf6a1f0160401b8310610c265772184f03e93ff9f4daa797ed6e38ed64bf6a1f0160401b830492506040015b6d04ee2d6d415b85acef81000000008310610c52576d04ee2d6d415b85acef8100000000830492506020015b662386f26fc100008310610c7057662386f26fc10000830492506010015b6305f5e1008310610c88576305f5e100830492506008015b6127108310610c9c57612710830492506004015b60648310610cae576064830492506002015b600a831061045d5760010192915050565b60006001600160e01b03198216637965db0b60e01b148061045d575061045d82611277565b610ced816110bd565b610ae65760405162461bcd60e51b815260040161059190611dea565b600081815260046020526040902080546001600160a01b0319166001600160a01b0384169081179091558190610d3e826107a5565b6001600160a01b03167f8c5be1e5ebec7d5bd14f71427d1e84f3dd0314c0f7b2291e5b200ac8c7c3b92560405160405180910390a45050565b600080610d83836107a5565b9050806001600160a01b0316846001600160a01b03161480610daa5750610daa8185610b0e565b80610dce5750836001600160a01b0316610dc3846104f5565b6001600160a01b0316145b949350505050565b826001600160a01b0316610de9826107a5565b6001600160a01b031614610e0f5760405162461bcd60e51b815260040161059190611d6e565b6001600160a01b038216610e715760405162461bcd60e51b8152602060048201526024808201527f4552433732313a207472616e7366657220746f20746865207a65726f206164646044820152637265737360e01b6064820152608401610591565b610e7e83838360016112c7565b826001600160a01b0316610e91826107a5565b6001600160a01b031614610eb75760405162461bcd60e51b815260040161059190611d6e565b600081815260046020908152604080832080546001600160a01b03199081169091556001600160a01b038781168086526003855283862080546000190190559087168086528386208054600101905586865260029094528285208054909216841790915590518493600080516020611f2b83398151915291a4505050565b610ae6813361134f565b610f4982826108ee565b6107075760008281526006602090815260408083206001600160a01b03851684529091529020805460ff19166001179055610f813390565b6001600160a01b0316816001600160a01b0316837f2f8788117e7eff1d82e926ec794901d17c78024a50270940304540a733656f0d60405160405180910390a45050565b610fcf82826108ee565b156107075760008281526006602090815260408083206001600160a01b0385168085529252808320805460ff1916905551339285917ff6391f5c32d9c69d2a47ea670b442974b53935d1edc7fd64eb21e047a839171b9190a45050565b6000611037826107a5565b90506110478160008460016112c7565b611050826107a5565b600083815260046020908152604080832080546001600160a01b03199081169091556001600160a01b038516808552600384528285208054600019019055878552600290935281842080549091169055519293508492600080516020611f2b833981519152908390a45050565b6000908152600260205260409020546001600160a01b0316151590565b60008151116110f85760405180602001604052806000815250611123565b8061110246610b3c565b604051602001611113929190611bd5565b6040516020818303038152906040525b8051610707916008916020909101906117b2565b61114183836113a8565b61114e60008484846114b1565b6106325760405162461bcd60e51b815260040161059190611d1c565b816001600160a01b0316836001600160a01b031614156111c85760405162461bcd60e51b815260206004820152601960248201527822a9219b99189d1030b8383937bb32903a379031b0b63632b960391b6044820152606401610591565b6001600160a01b03838116600081815260056020908152604080832094871680845294825291829020805460ff191686151590811790915591519182527f17307eab39ab6107e8899845ad3d59bd9653f200f220920489ca2b5937696c31910160405180910390a3505050565b611240848484610dd6565b61124c848484846114b1565b610a615760405162461bcd60e51b815260040161059190611d1c565b60606008805461047290611ead565b60006001600160e01b031982166380ac58cd60e01b14806112a857506001600160e01b03198216635b5e139f60e01b145b8061045d57506301ffc9a760e01b6001600160e01b031983161461045d565b6001811115610a61576001600160a01b0384161561130d576001600160a01b03841660009081526003602052604081208054839290611307908490611e53565b90915550505b6001600160a01b03831615610a61576001600160a01b03831660009081526003602052604081208054839290611344908490611e1c565b909155505050505050565b61135982826108ee565b61070757611366816115be565b6113718360206115d0565b604051602001611382929190611c10565b60408051601f198184030181529082905262461bcd60e51b825261059191600401611cbc565b6001600160a01b0382166113fe5760405162461bcd60e51b815260206004820181905260248201527f4552433732313a206d696e7420746f20746865207a65726f20616464726573736044820152606401610591565b611407816110bd565b156114245760405162461bcd60e51b815260040161059190611db3565b6114326000838360016112c7565b61143b816110bd565b156114585760405162461bcd60e51b815260040161059190611db3565b6001600160a01b038216600081815260036020908152604080832080546001019055848352600290915280822080546001600160a01b031916841790555183929190600080516020611f2b833981519152908290a45050565b60006001600160a01b0384163b156115b357604051630a85bd0160e11b81526001600160a01b0385169063150b7a02906114f5903390899088908890600401611c7f565b602060405180830381600087803b15801561150f57600080fd5b505af192505050801561153f575060408051601f3d908101601f1916820190925261153c91810190611b18565b60015b611599573d80801561156d576040519150601f19603f3d011682016040523d82523d6000602084013e611572565b606091505b5080516115915760405162461bcd60e51b815260040161059190611d1c565b805181602001fd5b6001600160e01b031916630a85bd0160e11b149050610dce565b506001949350505050565b606061045d6001600160a01b03831660145b606060006115df836002611e34565b6115ea906002611e1c565b67ffffffffffffffff81111561161057634e487b7160e01b600052604160045260246000fd5b6040519080825280601f01601f19166020018201604052801561163a576020820181803683370190505b509050600360fc1b8160008151811061166357634e487b7160e01b600052603260045260246000fd5b60200101906001600160f81b031916908160001a905350600f60fb1b816001815181106116a057634e487b7160e01b600052603260045260246000fd5b60200101906001600160f81b031916908160001a90535060006116c4846002611e34565b6116cf906001611e1c565b90505b6001811115611763576f181899199a1a9b1b9c1cb0b131b232b360811b85600f166010811061171157634e487b7160e01b600052603260045260246000fd5b1a60f81b82828151811061173557634e487b7160e01b600052603260045260246000fd5b60200101906001600160f81b031916908160001a90535060049490941c9361175c81611e96565b90506116d2565b508315610ac75760405162461bcd60e51b815260206004820181905260248201527f537472696e67733a20686578206c656e67746820696e73756666696369656e746044820152606401610591565b8280546117be90611ead565b90600052602060002090601f0160209004810192826117e05760008555611826565b82601f106117f957805160ff1916838001178555611826565b82800160010185558215611826579182015b8281111561182657825182559160200191906001019061180b565b50611832929150611836565b5090565b5b808211156118325760008155600101611837565b600067ffffffffffffffff8084111561186657611866611efe565b604051601f8501601f19908116603f0116810190828211818310171561188e5761188e611efe565b816040528093508581528686860111156118a757600080fd5b858560208301376000602087830101525050509392505050565b80356001600160a01b03811681146118d857600080fd5b919050565b6000602082840312156118ee578081fd5b610ac7826118c1565b60008060408385031215611909578081fd5b611912836118c1565b9150611920602084016118c1565b90509250929050565b60008060006060848603121561193d578081fd5b611946846118c1565b9250611954602085016118c1565b9150604084013590509250925092565b60008060008060808587031215611979578081fd5b611982856118c1565b9350611990602086016118c1565b925060408501359150606085013567ffffffffffffffff8111156119b2578182fd5b8501601f810187136119c2578182fd5b6119d18782356020840161184b565b91505092959194509250565b600080604083850312156119ef578182fd5b6119f8836118c1565b915060208301358015158114611a0c578182fd5b809150509250929050565b60008060408385031215611a29578182fd5b611a32836118c1565b946020939093013593505050565b60008060008060608587031215611a55578384fd5b611a5e856118c1565b935060208501359250604085013567ffffffffffffffff80821115611a81578384fd5b818701915087601f830112611a94578384fd5b813581811115611aa2578485fd5b886020828501011115611ab3578485fd5b95989497505060200194505050565b600060208284031215611ad3578081fd5b5035919050565b60008060408385031215611aec578182fd5b82359150611920602084016118c1565b600060208284031215611b0d578081fd5b8135610ac781611f14565b600060208284031215611b29578081fd5b8151610ac781611f14565b600060208284031215611b45578081fd5b813567ffffffffffffffff811115611b5b578182fd5b8201601f81018413611b6b578182fd5b610dce8482356020840161184b565b60008151808452611b92816020860160208601611e6a565b601f01601f19169290920160200192915050565b60008351611bb8818460208801611e6a565b835190830190611bcc818360208801611e6a565b01949350505050565b60008351611be7818460208801611e6a565b835190830190611bfb818360208801611e6a565b602f60f81b9101908152600101949350505050565b76020b1b1b2b9b9a1b7b73a3937b61d1030b1b1b7bab73a1604d1b815260008351611c42816017850160208801611e6a565b7001034b99036b4b9b9b4b733903937b6329607d1b6017918401918201528351611c73816028840160208801611e6a565b01602801949350505050565b6001600160a01b0385811682528416602082015260408101839052608060608201819052600090611cb290830184611b7a565b9695505050505050565b602081526000610ac76020830184611b7a565b6020808252602d908201527f4552433732313a2063616c6c6572206973206e6f7420746f6b656e206f776e6560408201526c1c881bdc88185c1c1c9bdd9959609a1b606082015260800190565b60208082526032908201527f4552433732313a207472616e7366657220746f206e6f6e20455243373231526560408201527131b2b4bb32b91034b6b83632b6b2b73a32b960711b606082015260800190565b60208082526025908201527f4552433732313a207472616e736665722066726f6d20696e636f72726563742060408201526437bbb732b960d91b606082015260800190565b6020808252601c908201527f4552433732313a20746f6b656e20616c7265616479206d696e74656400000000604082015260600190565b602080825260189082015277115490cdcc8c4e881a5b9d985b1a59081d1bdad95b88125160421b604082015260600190565b60008219821115611e2f57611e2f611ee8565b500190565b6000816000190483118215151615611e4e57611e4e611ee8565b500290565b600082821015611e6557611e65611ee8565b500390565b60005b83811015611e85578181015183820152602001611e6d565b83811115610a615750506000910152565b600081611ea557611ea5611ee8565b506000190190565b600181811c90821680611ec157607f821691505b60208210811415611ee257634e487b7160e01b600052602260045260246000fd5b50919050565b634e487b7160e01b600052601160045260246000fd5b634e487b7160e01b600052604160045260246000fd5b6001600160e01b031981168114610ae657600080fdfeddf252ad1be2c89b69c2b068fc378daa952ba7f163c4a11628f55a4df523b3ef0152ff3abcd076e5909dae88c15988bc9c69e3f026f3af132517ce02b1e7920ea2646970667358221220c38d697957a75504bfad96b73bf8e623ebd7d91a01b7455e971dfe36562bd34364736f6c63430008040033",
			"opcodes": "PUSH1 0xA0 PUSH1 0x40 MSTORE CALLVALUE DUP1 ISZERO PUSH3 0x11 JUMPI PUSH1 0x0 DUP1 REVERT JUMPDEST POP PUSH1 0x40 MLOAD PUSH3 0x2658 CODESIZE SUB DUP1 PUSH3 0x2658 DUP4 CODECOPY DUP2 ADD PUSH1 0x40 DUP2 SWAP1 MSTORE PUSH3 0x34 SWAP2 PUSH3 0x50F JUMP JUMPDEST DUP3 MLOAD DUP4 SWAP1 DUP4 SWAP1 PUSH3 0x4D SWAP1 PUSH1 0x0 SWAP1 PUSH1 0x20 DUP6 ADD SWAP1 PUSH3 0x3BD JUMP JUMPDEST POP DUP1 MLOAD PUSH3 0x63 SWAP1 PUSH1 0x1 SWAP1 PUSH1 0x20 DUP5 ADD SWAP1 PUSH3 0x3BD JUMP JUMPDEST POP PUSH3 0x75 SWAP2 POP PUSH1 0x0 SWAP1 POP DUP8 PUSH3 0xF3 JUMP JUMPDEST PUSH3 0xA1 PUSH32 0xF372640890C51DDA497431936A65D3BB1DDF67B1C27CD6CDF578CE883C4F5C36 DUP8 PUSH3 0xF3 JUMP JUMPDEST PUSH3 0xCD PUSH32 0x152FF3ABCD076E5909DAE88C15988BC9C69E3F026F3AF132517CE02B1E7920E DUP6 PUSH3 0xF3 JUMP JUMPDEST PUSH3 0xD8 DUP2 PUSH3 0x103 JUMP JUMPDEST POP POP POP POP PUSH1 0x60 SHL PUSH1 0x1 PUSH1 0x1 PUSH1 0x60 SHL SUB NOT AND PUSH1 0x80 MSTORE POP PUSH3 0x699 JUMP JUMPDEST PUSH3 0xFF DUP3 DUP3 PUSH3 0x173 JUMP JUMPDEST POP POP JUMP JUMPDEST PUSH1 0x0 DUP2 MLOAD GT PUSH3 0x123 JUMPI PUSH1 0x40 MLOAD DUP1 PUSH1 0x20 ADD PUSH1 0x40 MSTORE DUP1 PUSH1 0x0 DUP2 MSTORE POP PUSH3 0x15D JUMP JUMPDEST DUP1 PUSH3 0x13A CHAINID PUSH3 0x217 PUSH1 0x20 SHL PUSH3 0xB3C OR PUSH1 0x20 SHR JUMP JUMPDEST PUSH1 0x40 MLOAD PUSH1 0x20 ADD PUSH3 0x14D SWAP3 SWAP2 SWAP1 PUSH3 0x5D4 JUMP JUMPDEST PUSH1 0x40 MLOAD PUSH1 0x20 DUP2 DUP4 SUB SUB DUP2 MSTORE SWAP1 PUSH1 0x40 MSTORE JUMPDEST DUP1 MLOAD PUSH3 0xFF SWAP2 PUSH1 0x8 SWAP2 PUSH1 0x20 SWAP1 SWAP2 ADD SWAP1 PUSH3 0x3BD JUMP JUMPDEST PUSH1 0x0 DUP3 DUP2 MSTORE PUSH1 0x6 PUSH1 0x20 SWAP1 DUP2 MSTORE PUSH1 0x40 DUP1 DUP4 KECCAK256 PUSH1 0x1 PUSH1 0x1 PUSH1 0xA0 SHL SUB DUP6 AND DUP5 MSTORE SWAP1 SWAP2 MSTORE SWAP1 KECCAK256 SLOAD PUSH1 0xFF AND PUSH3 0xFF JUMPI PUSH1 0x0 DUP3 DUP2 MSTORE PUSH1 0x6 PUSH1 0x20 SWAP1 DUP2 MSTORE PUSH1 0x40 DUP1 DUP4 KECCAK256 PUSH1 0x1 PUSH1 0x1 PUSH1 0xA0 SHL SUB DUP6 AND DUP5 MSTORE SWAP1 SWAP2 MSTORE SWAP1 KECCAK256 DUP1 SLOAD PUSH1 0xFF NOT AND PUSH1 0x1 OR SWAP1 SSTORE PUSH3 0x1D3 CALLER SWAP1 JUMP JUMPDEST PUSH1 0x1 PUSH1 0x1 PUSH1 0xA0 SHL SUB AND DUP2 PUSH1 0x1 PUSH1 0x1 PUSH1 0xA0 SHL SUB AND DUP4 PUSH32 0x2F8788117E7EFF1D82E926EC794901D17C78024A50270940304540A733656F0D PUSH1 0x40 MLOAD PUSH1 0x40 MLOAD DUP1 SWAP2 SUB SWAP1 LOG4 POP POP JUMP JUMPDEST PUSH1 0x60 PUSH1 0x0 PUSH3 0x231 DUP4 PUSH3 0x2D3 PUSH1 0x20 SHL PUSH3 0xBE7 OR PUSH1 0x20 SHR JUMP JUMPDEST PUSH1 0x1 ADD SWAP1 POP PUSH1 0x0 DUP2 PUSH1 0x1 PUSH1 0x1 PUSH1 0x40 SHL SUB DUP2 GT ISZERO PUSH3 0x25F JUMPI PUSH4 0x4E487B71 PUSH1 0xE0 SHL PUSH1 0x0 MSTORE PUSH1 0x41 PUSH1 0x4 MSTORE PUSH1 0x24 PUSH1 0x0 REVERT JUMPDEST PUSH1 0x40 MLOAD SWAP1 DUP1 DUP3 MSTORE DUP1 PUSH1 0x1F ADD PUSH1 0x1F NOT AND PUSH1 0x20 ADD DUP3 ADD PUSH1 0x40 MSTORE DUP1 ISZERO PUSH3 0x28A JUMPI PUSH1 0x20 DUP3 ADD DUP2 DUP1 CALLDATASIZE DUP4 CALLDATACOPY ADD SWAP1 POP JUMPDEST POP SWAP1 POP DUP2 DUP2 ADD PUSH1 0x20 ADD JUMPDEST PUSH1 0x0 NOT ADD PUSH16 0x181899199A1A9B1B9C1CB0B131B232B3 PUSH1 0x81 SHL PUSH1 0xA DUP7 MOD BYTE DUP2 MSTORE8 PUSH1 0xA DUP6 DIV SWAP5 POP DUP5 PUSH3 0x2C5 JUMPI PUSH3 0x2CB JUMP JUMPDEST PUSH3 0x294 JUMP JUMPDEST POP SWAP4 SWAP3 POP POP POP JUMP JUMPDEST PUSH1 0x0 DUP1 PUSH27 0x184F03E93FF9F4DAA797ED6E38ED64BF6A1F010000000000000000 DUP4 LT PUSH3 0x31D JUMPI PUSH27 0x184F03E93FF9F4DAA797ED6E38ED64BF6A1F010000000000000000 DUP4 DIV SWAP3 POP PUSH1 0x40 ADD JUMPDEST PUSH14 0x4EE2D6D415B85ACEF8100000000 DUP4 LT PUSH3 0x34A JUMPI PUSH14 0x4EE2D6D415B85ACEF8100000000 DUP4 DIV SWAP3 POP PUSH1 0x20 ADD JUMPDEST PUSH7 0x2386F26FC10000 DUP4 LT PUSH3 0x369 JUMPI PUSH7 0x2386F26FC10000 DUP4 DIV SWAP3 POP PUSH1 0x10 ADD JUMPDEST PUSH4 0x5F5E100 DUP4 LT PUSH3 0x382 JUMPI PUSH4 0x5F5E100 DUP4 DIV SWAP3 POP PUSH1 0x8 ADD JUMPDEST PUSH2 0x2710 DUP4 LT PUSH3 0x397 JUMPI PUSH2 0x2710 DUP4 DIV SWAP3 POP PUSH1 0x4 ADD JUMPDEST PUSH1 0x64 DUP4 LT PUSH3 0x3AA JUMPI PUSH1 0x64 DUP4 DIV SWAP3 POP PUSH1 0x2 ADD JUMPDEST PUSH1 0xA DUP4 LT PUSH3 0x3B7 JUMPI PUSH1 0x1 ADD JUMPDEST SWAP3 SWAP2 POP POP JUMP JUMPDEST DUP3 DUP1 SLOAD PUSH3 0x3CB SWAP1 PUSH3 0x646 JUMP JUMPDEST SWAP1 PUSH1 0x0 MSTORE PUSH1 0x20 PUSH1 0x0 KECCAK256 SWAP1 PUSH1 0x1F ADD PUSH1 0x20 SWAP1 DIV DUP2 ADD SWAP3 DUP3 PUSH3 0x3EF JUMPI PUSH1 0x0 DUP6 SSTORE PUSH3 0x43A JUMP JUMPDEST DUP3 PUSH1 0x1F LT PUSH3 0x40A JUMPI DUP1 MLOAD PUSH1 0xFF NOT AND DUP4 DUP1 ADD OR DUP6 SSTORE PUSH3 0x43A JUMP JUMPDEST DUP3 DUP1 ADD PUSH1 0x1 ADD DUP6 SSTORE DUP3 ISZERO PUSH3 0x43A JUMPI SWAP2 DUP3 ADD JUMPDEST DUP3 DUP2 GT ISZERO PUSH3 0x43A JUMPI DUP3 MLOAD DUP3 SSTORE SWAP2 PUSH1 0x20 ADD SWAP2 SWAP1 PUSH1 0x1 ADD SWAP1 PUSH3 0x41D JUMP JUMPDEST POP PUSH3 0x448 SWAP3 SWAP2 POP PUSH3 0x44C JUMP JUMPDEST POP SWAP1 JUMP JUMPDEST JUMPDEST DUP1 DUP3 GT ISZERO PUSH3 0x448 JUMPI PUSH1 0x0 DUP2 SSTORE PUSH1 0x1 ADD PUSH3 0x44D JUMP JUMPDEST DUP1 MLOAD PUSH1 0x1 PUSH1 0x1 PUSH1 0xA0 SHL SUB DUP2 AND DUP2 EQ PUSH3 0x47B JUMPI PUSH1 0x0 DUP1 REVERT JUMPDEST SWAP2 SWAP1 POP JUMP JUMPDEST PUSH1 0x0 DUP3 PUSH1 0x1F DUP4 ADD SLT PUSH3 0x491 JUMPI DUP1 DUP2 REVERT JUMPDEST DUP2 MLOAD PUSH1 0x1 PUSH1 0x1 PUSH1 0x40 SHL SUB DUP1 DUP3 GT ISZERO PUSH3 0x4AE JUMPI PUSH3 0x4AE PUSH3 0x683 JUMP JUMPDEST PUSH1 0x40 MLOAD PUSH1 0x1F DUP4 ADD PUSH1 0x1F NOT SWAP1 DUP2 AND PUSH1 0x3F ADD AND DUP2 ADD SWAP1 DUP3 DUP3 GT DUP2 DUP4 LT OR ISZERO PUSH3 0x4D9 JUMPI PUSH3 0x4D9 PUSH3 0x683 JUMP JUMPDEST DUP2 PUSH1 0x40 MSTORE DUP4 DUP2 MSTORE DUP7 PUSH1 0x20 DUP6 DUP9 ADD ADD GT ISZERO PUSH3 0x4F2 JUMPI DUP5 DUP6 REVERT JUMPDEST PUSH3 0x505 DUP5 PUSH1 0x20 DUP4 ADD PUSH1 0x20 DUP10 ADD PUSH3 0x613 JUMP JUMPDEST SWAP7 SWAP6 POP POP POP POP POP POP JUMP JUMPDEST PUSH1 0x0 DUP1 PUSH1 0x0 DUP1 PUSH1 0x0 DUP1 PUSH1 0xC0 DUP8 DUP10 SUB SLT ISZERO PUSH3 0x528 JUMPI DUP2 DUP3 REVERT JUMPDEST PUSH3 0x533 DUP8 PUSH3 0x463 JUMP JUMPDEST SWAP6 POP PUSH3 0x543 PUSH1 0x20 DUP9 ADD PUSH3 0x463 JUMP JUMPDEST SWAP5 POP PUSH3 0x553 PUSH1 0x40 DUP9 ADD PUSH3 0x463 JUMP JUMPDEST PUSH1 0x60 DUP9 ADD MLOAD SWAP1 SWAP5 POP PUSH1 0x1 PUSH1 0x1 PUSH1 0x40 SHL SUB DUP1 DUP3 GT ISZERO PUSH3 0x570 JUMPI DUP4 DUP5 REVERT JUMPDEST PUSH3 0x57E DUP11 DUP4 DUP12 ADD PUSH3 0x480 JUMP JUMPDEST SWAP5 POP PUSH1 0x80 DUP10 ADD MLOAD SWAP2 POP DUP1 DUP3 GT ISZERO PUSH3 0x594 JUMPI DUP4 DUP5 REVERT JUMPDEST PUSH3 0x5A2 DUP11 DUP4 DUP12 ADD PUSH3 0x480 JUMP JUMPDEST SWAP4 POP PUSH1 0xA0 DUP10 ADD MLOAD SWAP2 POP DUP1 DUP3 GT ISZERO PUSH3 0x5B8 JUMPI DUP3 DUP4 REVERT JUMPDEST POP PUSH3 0x5C7 DUP10 DUP3 DUP11 ADD PUSH3 0x480 JUMP JUMPDEST SWAP2 POP POP SWAP3 SWAP6 POP SWAP3 SWAP6 POP SWAP3 SWAP6 JUMP JUMPDEST PUSH1 0x0 DUP4 MLOAD PUSH3 0x5E8 DUP2 DUP5 PUSH1 0x20 DUP9 ADD PUSH3 0x613 JUMP JUMPDEST DUP4 MLOAD SWAP1 DUP4 ADD SWAP1 PUSH3 0x5FE DUP2 DUP4 PUSH1 0x20 DUP9 ADD PUSH3 0x613 JUMP JUMPDEST PUSH1 0x2F PUSH1 0xF8 SHL SWAP2 ADD SWAP1 DUP2 MSTORE PUSH1 0x1 ADD SWAP5 SWAP4 POP POP POP POP JUMP JUMPDEST PUSH1 0x0 JUMPDEST DUP4 DUP2 LT ISZERO PUSH3 0x630 JUMPI DUP2 DUP2 ADD MLOAD DUP4 DUP3 ADD MSTORE PUSH1 0x20 ADD PUSH3 0x616 JUMP JUMPDEST DUP4 DUP2 GT ISZERO PUSH3 0x640 JUMPI PUSH1 0x0 DUP5 DUP5 ADD MSTORE JUMPDEST POP POP POP POP JUMP JUMPDEST PUSH1 0x1 DUP2 DUP2 SHR SWAP1 DUP3 AND DUP1 PUSH3 0x65B JUMPI PUSH1 0x7F DUP3 AND SWAP2 POP JUMPDEST PUSH1 0x20 DUP3 LT DUP2 EQ ISZERO PUSH3 0x67D JUMPI PUSH4 0x4E487B71 PUSH1 0xE0 SHL PUSH1 0x0 MSTORE PUSH1 0x22 PUSH1 0x4 MSTORE PUSH1 0x24 PUSH1 0x0 REVERT JUMPDEST POP SWAP2 SWAP1 POP JUMP JUMPDEST PUSH4 0x4E487B71 PUSH1 0xE0 SHL PUSH1 0x0 MSTORE PUSH1 0x41 PUSH1 0x4 MSTORE PUSH1 0x24 PUSH1 0x0 REVERT JUMPDEST PUSH1 0x80 MLOAD PUSH1 0x60 SHR PUSH2 0x1FA0 PUSH3 0x6B8 PUSH1 0x0 CODECOPY PUSH1 0x0 PUSH2 0x280 ADD MSTORE PUSH2 0x1FA0 PUSH1 0x0 RETURN INVALID PUSH1 0x80 PUSH1 0x40 MSTORE CALLVALUE DUP1 ISZERO PUSH2 0x10 JUMPI PUSH1 0x0 DUP1 REVERT JUMPDEST POP PUSH1 0x4 CALLDATASIZE LT PUSH2 0x18F JUMPI PUSH1 0x0 CALLDATALOAD PUSH1 0xE0 SHR DUP1 PUSH4 0x6C0360EB GT PUSH2 0xE4 JUMPI DUP1 PUSH4 0xB88D4FDE GT PUSH2 0x92 JUMPI DUP1 PUSH4 0xB88D4FDE EQ PUSH2 0x365 JUMPI DUP1 PUSH4 0xBDADCE3C EQ PUSH2 0x378 JUMPI DUP1 PUSH4 0xC87B56DD EQ PUSH2 0x39F JUMPI DUP1 PUSH4 0xC9836CDB EQ PUSH2 0x3B2 JUMPI DUP1 PUSH4 0xD2710E2C EQ PUSH2 0x3C7 JUMPI DUP1 PUSH4 0xD547741F EQ PUSH2 0x3DA JUMPI DUP1 PUSH4 0xE1EC3C68 EQ PUSH2 0x3ED JUMPI DUP1 PUSH4 0xE985E9C5 EQ PUSH2 0x43F JUMPI PUSH1 0x0 DUP1 REVERT JUMPDEST DUP1 PUSH4 0x6C0360EB EQ PUSH2 0x301 JUMPI DUP1 PUSH4 0x70A08231 EQ PUSH2 0x309 JUMPI DUP1 PUSH4 0x91D14854 EQ PUSH2 0x31C JUMPI DUP1 PUSH4 0x94D008EF EQ PUSH2 0x32F JUMPI DUP1 PUSH4 0x95D89B41 EQ PUSH2 0x342 JUMPI DUP1 PUSH4 0xA217FDDF EQ PUSH2 0x34A JUMPI DUP1 PUSH4 0xA22CB465 EQ PUSH2 0x352 JUMPI PUSH1 0x0 DUP1 REVERT JUMPDEST DUP1 PUSH4 0x36568ABE GT PUSH2 0x141 JUMPI DUP1 PUSH4 0x36568ABE EQ PUSH2 0x268 JUMPI DUP1 PUSH4 0x365A86FC EQ PUSH2 0x27B JUMPI DUP1 PUSH4 0x42842E0E EQ PUSH2 0x2A2 JUMPI DUP1 PUSH4 0x42966C68 EQ PUSH2 0x2B5 JUMPI DUP1 PUSH4 0x4F558E79 EQ PUSH2 0x2C8 JUMPI DUP1 PUSH4 0x55F804B3 EQ PUSH2 0x2DB JUMPI DUP1 PUSH4 0x6352211E EQ PUSH2 0x2EE JUMPI PUSH1 0x0 DUP1 REVERT JUMPDEST DUP1 PUSH4 0x1FFC9A7 EQ PUSH2 0x194 JUMPI DUP1 PUSH4 0x6FDDE03 EQ PUSH2 0x1BC JUMPI DUP1 PUSH4 0x81812FC EQ PUSH2 0x1D1 JUMPI DUP1 PUSH4 0x95EA7B3 EQ PUSH2 0x1FC JUMPI DUP1 PUSH4 0x23B872DD EQ PUSH2 0x211 JUMPI DUP1 PUSH4 0x248A9CA3 EQ PUSH2 0x224 JUMPI DUP1 PUSH4 0x2F2FF15D EQ PUSH2 0x255 JUMPI JUMPDEST PUSH1 0x0 DUP1 REVERT JUMPDEST PUSH2 0x1A7 PUSH2 0x1A2 CALLDATASIZE PUSH1 0x4 PUSH2 0x1AFC JUMP JUMPDEST PUSH2 0x452 JUMP JUMPDEST PUSH1 0x40 MLOAD SWAP1 ISZERO ISZERO DUP2 MSTORE PUSH1 0x20 ADD JUMPDEST PUSH1 0x40 MLOAD DUP1 SWAP2 SUB SWAP1 RETURN JUMPDEST PUSH2 0x1C4 PUSH2 0x463 JUMP JUMPDEST PUSH1 0x40 MLOAD PUSH2 0x1B3 SWAP2 SWAP1 PUSH2 0x1CBC JUMP JUMPDEST PUSH2 0x1E4 PUSH2 0x1DF CALLDATASIZE PUSH1 0x4 PUSH2 0x1AC2 JUMP JUMPDEST PUSH2 0x4F5 JUMP JUMPDEST PUSH1 0x40 MLOAD PUSH1 0x1 PUSH1 0x1 PUSH1 0xA0 SHL SUB SWAP1 SWAP2 AND DUP2 MSTORE PUSH1 0x20 ADD PUSH2 0x1B3 JUMP JUMPDEST PUSH2 0x20F PUSH2 0x20A CALLDATASIZE PUSH1 0x4 PUSH2 0x1A17 JUMP JUMPDEST PUSH2 0x51C JUMP JUMPDEST STOP JUMPDEST PUSH2 0x20F PUSH2 0x21F CALLDATASIZE PUSH1 0x4 PUSH2 0x1929 JUMP JUMPDEST PUSH2 0x637 JUMP JUMPDEST PUSH2 0x247 PUSH2 0x232 CALLDATASIZE PUSH1 0x4 PUSH2 0x1AC2 JUMP JUMPDEST PUSH1 0x0 SWAP1 DUP2 MSTORE PUSH1 0x6 PUSH1 0x20 MSTORE PUSH1 0x40 SWAP1 KECCAK256 PUSH1 0x1 ADD SLOAD SWAP1 JUMP JUMPDEST PUSH1 0x40 MLOAD SWAP1 DUP2 MSTORE PUSH1 0x20 ADD PUSH2 0x1B3 JUMP JUMPDEST PUSH2 0x20F PUSH2 0x263 CALLDATASIZE PUSH1 0x4 PUSH2 0x1ADA JUMP JUMPDEST PUSH2 0x668 JUMP JUMPDEST PUSH2 0x20F PUSH2 0x276 CALLDATASIZE PUSH1 0x4 PUSH2 0x1ADA JUMP JUMPDEST PUSH2 0x68D JUMP JUMPDEST PUSH2 0x1E4 PUSH32 0x0 DUP2 JUMP JUMPDEST PUSH2 0x20F PUSH2 0x2B0 CALLDATASIZE PUSH1 0x4 PUSH2 0x1929 JUMP JUMPDEST PUSH2 0x70B JUMP JUMPDEST PUSH2 0x20F PUSH2 0x2C3 CALLDATASIZE PUSH1 0x4 PUSH2 0x1AC2 JUMP JUMPDEST PUSH2 0x726 JUMP JUMPDEST PUSH2 0x1A7 PUSH2 0x2D6 CALLDATASIZE PUSH1 0x4 PUSH2 0x1AC2 JUMP JUMPDEST PUSH2 0x767 JUMP JUMPDEST PUSH2 0x20F PUSH2 0x2E9 CALLDATASIZE PUSH1 0x4 PUSH2 0x1B34 JUMP JUMPDEST PUSH2 0x772 JUMP JUMPDEST PUSH2 0x1E4 PUSH2 0x2FC CALLDATASIZE PUSH1 0x4 PUSH2 0x1AC2 JUMP JUMPDEST PUSH2 0x7A5 JUMP JUMPDEST PUSH2 0x1C4 PUSH2 0x7DA JUMP JUMPDEST PUSH2 0x247 PUSH2 0x317 CALLDATASIZE PUSH1 0x4 PUSH2 0x18DD JUMP JUMPDEST PUSH2 0x868 JUMP JUMPDEST PUSH2 0x1A7 PUSH2 0x32A CALLDATASIZE PUSH1 0x4 PUSH2 0x1ADA JUMP JUMPDEST PUSH2 0x8EE JUMP JUMPDEST PUSH2 0x20F PUSH2 0x33D CALLDATASIZE PUSH1 0x4 PUSH2 0x1A40 JUMP JUMPDEST PUSH2 0x919 JUMP JUMPDEST PUSH2 0x1C4 PUSH2 0xA15 JUMP JUMPDEST PUSH2 0x247 PUSH1 0x0 DUP2 JUMP JUMPDEST PUSH2 0x20F PUSH2 0x360 CALLDATASIZE PUSH1 0x4 PUSH2 0x19DD JUMP JUMPDEST PUSH2 0xA24 JUMP JUMPDEST PUSH2 0x20F PUSH2 0x373 CALLDATASIZE PUSH1 0x4 PUSH2 0x1964 JUMP JUMPDEST PUSH2 0xA2F JUMP JUMPDEST PUSH2 0x247 PUSH32 0xF372640890C51DDA497431936A65D3BB1DDF67B1C27CD6CDF578CE883C4F5C36 DUP2 JUMP JUMPDEST PUSH2 0x1C4 PUSH2 0x3AD CALLDATASIZE PUSH1 0x4 PUSH2 0x1AC2 JUMP JUMPDEST PUSH2 0xA67 JUMP JUMPDEST PUSH2 0x247 PUSH1 0x0 DUP1 MLOAD PUSH1 0x20 PUSH2 0x1F4B DUP4 CODECOPY DUP2 MLOAD SWAP2 MSTORE DUP2 JUMP JUMPDEST PUSH2 0x20F PUSH2 0x3D5 CALLDATASIZE PUSH1 0x4 PUSH2 0x18DD JUMP JUMPDEST PUSH2 0xACE JUMP JUMPDEST PUSH2 0x20F PUSH2 0x3E8 CALLDATASIZE PUSH1 0x4 PUSH2 0x1ADA JUMP JUMPDEST PUSH2 0xAE9 JUMP JUMPDEST PUSH2 0x420 PUSH2 0x3FB CALLDATASIZE PUSH1 0x4 PUSH2 0x1AC2 JUMP JUMPDEST PUSH1 0x7 PUSH1 0x20 MSTORE PUSH1 0x0 SWAP1 DUP2 MSTORE PUSH1 0x40 SWAP1 KECCAK256 DUP1 SLOAD PUSH1 0x1 SWAP1 SWAP2 ADD SLOAD PUSH1 0x1 PUSH1 0x1 PUSH1 0xA0 SHL SUB SWAP1 SWAP2 AND SWAP1 DUP3 JUMP JUMPDEST PUSH1 0x40 DUP1 MLOAD PUSH1 0x1 PUSH1 0x1 PUSH1 0xA0 SHL SUB SWAP1 SWAP4 AND DUP4 MSTORE PUSH1 0x20 DUP4 ADD SWAP2 SWAP1 SWAP2 MSTORE ADD PUSH2 0x1B3 JUMP JUMPDEST PUSH2 0x1A7 PUSH2 0x44D CALLDATASIZE PUSH1 0x4 PUSH2 0x18F7 JUMP JUMPDEST PUSH2 0xB0E JUMP JUMPDEST PUSH1 0x0 PUSH2 0x45D DUP3 PUSH2 0xCBF JUMP JUMPDEST SWAP3 SWAP2 POP POP JUMP JUMPDEST PUSH1 0x60 PUSH1 0x0 DUP1 SLOAD PUSH2 0x472 SWAP1 PUSH2 0x1EAD JUMP JUMPDEST DUP1 PUSH1 0x1F ADD PUSH1 0x20 DUP1 SWAP2 DIV MUL PUSH1 0x20 ADD PUSH1 0x40 MLOAD SWAP1 DUP2 ADD PUSH1 0x40 MSTORE DUP1 SWAP3 SWAP2 SWAP1 DUP2 DUP2 MSTORE PUSH1 0x20 ADD DUP3 DUP1 SLOAD PUSH2 0x49E SWAP1 PUSH2 0x1EAD JUMP JUMPDEST DUP1 ISZERO PUSH2 0x4EB JUMPI DUP1 PUSH1 0x1F LT PUSH2 0x4C0 JUMPI PUSH2 0x100 DUP1 DUP4 SLOAD DIV MUL DUP4 MSTORE SWAP2 PUSH1 0x20 ADD SWAP2 PUSH2 0x4EB JUMP JUMPDEST DUP3 ADD SWAP2 SWAP1 PUSH1 0x0 MSTORE PUSH1 0x20 PUSH1 0x0 KECCAK256 SWAP1 JUMPDEST DUP2 SLOAD DUP2 MSTORE SWAP1 PUSH1 0x1 ADD SWAP1 PUSH1 0x20 ADD DUP1 DUP4 GT PUSH2 0x4CE JUMPI DUP3 SWAP1 SUB PUSH1 0x1F AND DUP3 ADD SWAP2 JUMPDEST POP POP POP POP POP SWAP1 POP SWAP1 JUMP JUMPDEST PUSH1 0x0 PUSH2 0x500 DUP3 PUSH2 0xCE4 JUMP JUMPDEST POP PUSH1 0x0 SWAP1 DUP2 MSTORE PUSH1 0x4 PUSH1 0x20 MSTORE PUSH1 0x40 SWAP1 KECCAK256 SLOAD PUSH1 0x1 PUSH1 0x1 PUSH1 0xA0 SHL SUB AND SWAP1 JUMP JUMPDEST PUSH1 0x0 PUSH2 0x527 DUP3 PUSH2 0x7A5 JUMP JUMPDEST SWAP1 POP DUP1 PUSH1 0x1 PUSH1 0x1 PUSH1 0xA0 SHL SUB AND DUP4 PUSH1 0x1 PUSH1 0x1 PUSH1 0xA0 SHL SUB AND EQ ISZERO PUSH2 0x59A JUMPI PUSH1 0x40 MLOAD PUSH3 0x461BCD PUSH1 0xE5 SHL DUP2 MSTORE PUSH1 0x20 PUSH1 0x4 DUP3 ADD MSTORE PUSH1 0x21 PUSH1 0x24 DUP3 ADD MSTORE PUSH32 0x4552433732313A20617070726F76616C20746F2063757272656E74206F776E65 PUSH1 0x44 DUP3 ADD MSTORE PUSH1 0x39 PUSH1 0xF9 SHL PUSH1 0x64 DUP3 ADD MSTORE PUSH1 0x84 ADD JUMPDEST PUSH1 0x40 MLOAD DUP1 SWAP2 SUB SWAP1 REVERT JUMPDEST CALLER PUSH1 0x1 PUSH1 0x1 PUSH1 0xA0 SHL SUB DUP3 AND EQ DUP1 PUSH2 0x5B6 JUMPI POP PUSH2 0x5B6 DUP2 CALLER PUSH2 0xB0E JUMP JUMPDEST PUSH2 0x628 JUMPI PUSH1 0x40 MLOAD PUSH3 0x461BCD PUSH1 0xE5 SHL DUP2 MSTORE PUSH1 0x20 PUSH1 0x4 DUP3 ADD MSTORE PUSH1 0x3D PUSH1 0x24 DUP3 ADD MSTORE PUSH32 0x4552433732313A20617070726F76652063616C6C6572206973206E6F7420746F PUSH1 0x44 DUP3 ADD MSTORE PUSH32 0x6B656E206F776E6572206F7220617070726F76656420666F7220616C6C000000 PUSH1 0x64 DUP3 ADD MSTORE PUSH1 0x84 ADD PUSH2 0x591 JUMP JUMPDEST PUSH2 0x632 DUP4 DUP4 PUSH2 0xD09 JUMP JUMPDEST POP POP POP JUMP JUMPDEST PUSH2 0x641 CALLER DUP3 PUSH2 0xD77 JUMP JUMPDEST PUSH2 0x65D JUMPI PUSH1 0x40 MLOAD PUSH3 0x461BCD PUSH1 0xE5 SHL DUP2 MSTORE PUSH1 0x4 ADD PUSH2 0x591 SWAP1 PUSH2 0x1CCF JUMP JUMPDEST PUSH2 0x632 DUP4 DUP4 DUP4 PUSH2 0xDD6 JUMP JUMPDEST PUSH1 0x0 DUP3 DUP2 MSTORE PUSH1 0x6 PUSH1 0x20 MSTORE PUSH1 0x40 SWAP1 KECCAK256 PUSH1 0x1 ADD SLOAD PUSH2 0x683 DUP2 PUSH2 0xF35 JUMP JUMPDEST PUSH2 0x632 DUP4 DUP4 PUSH2 0xF3F JUMP JUMPDEST PUSH1 0x1 PUSH1 0x1 PUSH1 0xA0 SHL SUB DUP2 AND CALLER EQ PUSH2 0x6FD JUMPI PUSH1 0x40 MLOAD PUSH3 0x461BCD PUSH1 0xE5 SHL DUP2 MSTORE PUSH1 0x20 PUSH1 0x4 DUP3 ADD MSTORE PUSH1 0x2F PUSH1 0x24 DUP3 ADD MSTORE PUSH32 0x416363657373436F6E74726F6C3A2063616E206F6E6C792072656E6F756E6365 PUSH1 0x44 DUP3 ADD MSTORE PUSH15 0x103937B632B9903337B91039B2B633 PUSH1 0x89 SHL PUSH1 0x64 DUP3 ADD MSTORE PUSH1 0x84 ADD PUSH2 0x591 JUMP JUMPDEST PUSH2 0x707 DUP3 DUP3 PUSH2 0xFC5 JUMP JUMPDEST POP POP JUMP JUMPDEST PUSH2 0x632 DUP4 DUP4 DUP4 PUSH1 0x40 MLOAD DUP1 PUSH1 0x20 ADD PUSH1 0x40 MSTORE DUP1 PUSH1 0x0 DUP2 MSTORE POP PUSH2 0xA2F JUMP JUMPDEST PUSH1 0x0 DUP1 MLOAD PUSH1 0x20 PUSH2 0x1F4B DUP4 CODECOPY DUP2 MLOAD SWAP2 MSTORE PUSH2 0x73E DUP2 PUSH2 0xF35 JUMP JUMPDEST PUSH1 0x0 DUP3 DUP2 MSTORE PUSH1 0x7 PUSH1 0x20 MSTORE PUSH1 0x40 DUP2 KECCAK256 DUP1 SLOAD PUSH1 0x1 PUSH1 0x1 PUSH1 0xA0 SHL SUB NOT AND DUP2 SSTORE PUSH1 0x1 ADD SSTORE PUSH2 0x707 DUP3 PUSH2 0x102C JUMP JUMPDEST PUSH1 0x0 PUSH2 0x45D DUP3 PUSH2 0x10BD JUMP JUMPDEST PUSH32 0xF372640890C51DDA497431936A65D3BB1DDF67B1C27CD6CDF578CE883C4F5C36 PUSH2 0x79C DUP2 PUSH2 0xF35 JUMP JUMPDEST PUSH2 0x707 DUP3 PUSH2 0x10DA JUMP JUMPDEST PUSH1 0x0 DUP2 DUP2 MSTORE PUSH1 0x2 PUSH1 0x20 MSTORE PUSH1 0x40 DUP2 KECCAK256 SLOAD PUSH1 0x1 PUSH1 0x1 PUSH1 0xA0 SHL SUB AND DUP1 PUSH2 0x45D JUMPI PUSH1 0x40 MLOAD PUSH3 0x461BCD PUSH1 0xE5 SHL DUP2 MSTORE PUSH1 0x4 ADD PUSH2 0x591 SWAP1 PUSH2 0x1DEA JUMP JUMPDEST PUSH1 0x8 DUP1 SLOAD PUSH2 0x7E7 SWAP1 PUSH2 0x1EAD JUMP JUMPDEST DUP1 PUSH1 0x1F ADD PUSH1 0x20 DUP1 SWAP2 DIV MUL PUSH1 0x20 ADD PUSH1 0x40 MLOAD SWAP1 DUP2 ADD PUSH1 0x40 MSTORE DUP1 SWAP3 SWAP2 SWAP1 DUP2 DUP2 MSTORE PUSH1 0x20 ADD DUP3 DUP1 SLOAD PUSH2 0x813 SWAP1 PUSH2 0x1EAD JUMP JUMPDEST DUP1 ISZERO PUSH2 0x860 JUMPI DUP1 PUSH1 0x1F LT PUSH2 0x835 JUMPI PUSH2 0x100 DUP1 DUP4 SLOAD DIV MUL DUP4 MSTORE SWAP2 PUSH1 0x20 ADD SWAP2 PUSH2 0x860 JUMP JUMPDEST DUP3 ADD SWAP2 SWAP1 PUSH1 0x0 MSTORE PUSH1 0x20 PUSH1 0x0 KECCAK256 SWAP1 JUMPDEST DUP2 SLOAD DUP2 MSTORE SWAP1 PUSH1 0x1 ADD SWAP1 PUSH1 0x20 ADD DUP1 DUP4 GT PUSH2 0x843 JUMPI DUP3 SWAP1 SUB PUSH1 0x1F AND DUP3 ADD SWAP2 JUMPDEST POP POP POP POP POP DUP2 JUMP JUMPDEST PUSH1 0x0 PUSH1 0x1 PUSH1 0x1 PUSH1 0xA0 SHL SUB DUP3 AND PUSH2 0x8D2 JUMPI PUSH1 0x40 MLOAD PUSH3 0x461BCD PUSH1 0xE5 SHL DUP2 MSTORE PUSH1 0x20 PUSH1 0x4 DUP3 ADD MSTORE PUSH1 0x29 PUSH1 0x24 DUP3 ADD MSTORE PUSH32 0x4552433732313A2061646472657373207A65726F206973206E6F742061207661 PUSH1 0x44 DUP3 ADD MSTORE PUSH9 0x3634B21037BBB732B9 PUSH1 0xB9 SHL PUSH1 0x64 DUP3 ADD MSTORE PUSH1 0x84 ADD PUSH2 0x591 JUMP JUMPDEST POP PUSH1 0x1 PUSH1 0x1 PUSH1 0xA0 SHL SUB AND PUSH1 0x0 SWAP1 DUP2 MSTORE PUSH1 0x3 PUSH1 0x20 MSTORE PUSH1 0x40 SWAP1 KECCAK256 SLOAD SWAP1 JUMP JUMPDEST PUSH1 0x0 SWAP2 DUP3 MSTORE PUSH1 0x6 PUSH1 0x20 SWAP1 DUP2 MSTORE PUSH1 0x40 DUP1 DUP5 KECCAK256 PUSH1 0x1 PUSH1 0x1 PUSH1 0xA0 SHL SUB SWAP4 SWAP1 SWAP4 AND DUP5 MSTORE SWAP2 SWAP1 MSTORE SWAP1 KECCAK256 SLOAD PUSH1 0xFF AND SWAP1 JUMP JUMPDEST PUSH1 0x0 DUP1 MLOAD PUSH1 0x20 PUSH2 0x1F4B DUP4 CODECOPY DUP2 MLOAD SWAP2 MSTORE PUSH2 0x931 DUP2 PUSH2 0xF35 JUMP JUMPDEST DUP2 PUSH2 0x979 JUMPI PUSH1 0x40 MLOAD PUSH3 0x461BCD PUSH1 0xE5 SHL DUP2 MSTORE PUSH1 0x20 PUSH1 0x4 DUP3 ADD MSTORE PUSH1 0x18 PUSH1 0x24 DUP3 ADD MSTORE PUSH24 0x19185D18481B5D5CDD0818DBDB9D185A5B881B1BD85B9259 PUSH1 0x42 SHL PUSH1 0x44 DUP3 ADD MSTORE PUSH1 0x64 ADD PUSH2 0x591 JUMP JUMPDEST PUSH1 0x0 PUSH2 0x987 DUP4 DUP6 ADD DUP6 PUSH2 0x1AC2 JUMP JUMPDEST PUSH1 0x40 DUP1 MLOAD DUP1 DUP3 ADD DUP3 MSTORE CALLER DUP2 MSTORE PUSH1 0x20 DUP1 DUP3 ADD DUP5 DUP2 MSTORE PUSH1 0x0 DUP11 DUP2 MSTORE PUSH1 0x7 DUP4 MSTORE DUP5 SWAP1 KECCAK256 SWAP3 MLOAD DUP4 SLOAD PUSH1 0x1 PUSH1 0x1 PUSH1 0xA0 SHL SUB NOT AND PUSH1 0x1 PUSH1 0x1 PUSH1 0xA0 SHL SUB SWAP1 SWAP2 AND OR DUP4 SSTORE MLOAD PUSH1 0x1 SWAP1 SWAP3 ADD SWAP2 SWAP1 SWAP2 SSTORE DUP2 MLOAD PUSH1 0x1F DUP8 ADD DUP3 SWAP1 DIV DUP3 MUL DUP2 ADD DUP3 ADD SWAP1 SWAP3 MSTORE DUP6 DUP3 MSTORE SWAP2 SWAP3 POP PUSH2 0xA0D SWAP2 DUP9 SWAP2 DUP9 SWAP2 DUP9 SWAP1 DUP9 SWAP1 DUP2 SWAP1 DUP5 ADD DUP4 DUP3 DUP1 DUP3 DUP5 CALLDATACOPY PUSH1 0x0 SWAP3 ADD SWAP2 SWAP1 SWAP2 MSTORE POP PUSH2 0x1137 SWAP3 POP POP POP JUMP JUMPDEST POP POP POP POP POP POP JUMP JUMPDEST PUSH1 0x60 PUSH1 0x1 DUP1 SLOAD PUSH2 0x472 SWAP1 PUSH2 0x1EAD JUMP JUMPDEST PUSH2 0x707 CALLER DUP4 DUP4 PUSH2 0x116A JUMP JUMPDEST PUSH2 0xA39 CALLER DUP4 PUSH2 0xD77 JUMP JUMPDEST PUSH2 0xA55 JUMPI PUSH1 0x40 MLOAD PUSH3 0x461BCD PUSH1 0xE5 SHL DUP2 MSTORE PUSH1 0x4 ADD PUSH2 0x591 SWAP1 PUSH2 0x1CCF JUMP JUMPDEST PUSH2 0xA61 DUP5 DUP5 DUP5 DUP5 PUSH2 0x1235 JUMP JUMPDEST POP POP POP POP JUMP JUMPDEST PUSH1 0x60 PUSH2 0xA72 DUP3 PUSH2 0xCE4 JUMP JUMPDEST PUSH1 0x0 PUSH2 0xA7C PUSH2 0x1268 JUMP JUMPDEST SWAP1 POP PUSH1 0x0 DUP2 MLOAD GT PUSH2 0xA9C JUMPI PUSH1 0x40 MLOAD DUP1 PUSH1 0x20 ADD PUSH1 0x40 MSTORE DUP1 PUSH1 0x0 DUP2 MSTORE POP PUSH2 0xAC7 JUMP JUMPDEST DUP1 PUSH2 0xAA6 DUP5 PUSH2 0xB3C JUMP JUMPDEST PUSH1 0x40 MLOAD PUSH1 0x20 ADD PUSH2 0xAB7 SWAP3 SWAP2 SWAP1 PUSH2 0x1BA6 JUMP JUMPDEST PUSH1 0x40 MLOAD PUSH1 0x20 DUP2 DUP4 SUB SUB DUP2 MSTORE SWAP1 PUSH1 0x40 MSTORE JUMPDEST SWAP4 SWAP3 POP POP POP JUMP JUMPDEST PUSH2 0xAE6 PUSH1 0x0 DUP1 MLOAD PUSH1 0x20 PUSH2 0x1F4B DUP4 CODECOPY DUP2 MLOAD SWAP2 MSTORE DUP3 PUSH2 0x668 JUMP JUMPDEST POP JUMP JUMPDEST PUSH1 0x0 DUP3 DUP2 MSTORE PUSH1 0x6 PUSH1 0x20 MSTORE PUSH1 0x40 SWAP1 KECCAK256 PUSH1 0x1 ADD SLOAD PUSH2 0xB04 DUP2 PUSH2 0xF35 JUMP JUMPDEST PUSH2 0x632 DUP4 DUP4 PUSH2 0xFC5 JUMP JUMPDEST PUSH1 0x1 PUSH1 0x1 PUSH1 0xA0 SHL SUB SWAP2 DUP3 AND PUSH1 0x0 SWAP1 DUP2 MSTORE PUSH1 0x5 PUSH1 0x20 SWAP1 DUP2 MSTORE PUSH1 0x40 DUP1 DUP4 KECCAK256 SWAP4 SWAP1 SWAP5 AND DUP3 MSTORE SWAP2 SWAP1 SWAP2 MSTORE KECCAK256 SLOAD PUSH1 0xFF AND SWAP1 JUMP JUMPDEST PUSH1 0x60 PUSH1 0x0 PUSH2 0xB49 DUP4 PUSH2 0xBE7 JUMP JUMPDEST PUSH1 0x1 ADD SWAP1 POP PUSH1 0x0 DUP2 PUSH8 0xFFFFFFFFFFFFFFFF DUP2 GT ISZERO PUSH2 0xB77 JUMPI PUSH4 0x4E487B71 PUSH1 0xE0 SHL PUSH1 0x0 MSTORE PUSH1 0x41 PUSH1 0x4 MSTORE PUSH1 0x24 PUSH1 0x0 REVERT JUMPDEST PUSH1 0x40 MLOAD SWAP1 DUP1 DUP3 MSTORE DUP1 PUSH1 0x1F ADD PUSH1 0x1F NOT AND PUSH1 0x20 ADD DUP3 ADD PUSH1 0x40 MSTORE DUP1 ISZERO PUSH2 0xBA1 JUMPI PUSH1 0x20 DUP3 ADD DUP2 DUP1 CALLDATASIZE DUP4 CALLDATACOPY ADD SWAP1 POP JUMPDEST POP SWAP1 POP DUP2 DUP2 ADD PUSH1 0x20 ADD JUMPDEST PUSH1 0x0 NOT ADD PUSH16 0x181899199A1A9B1B9C1CB0B131B232B3 PUSH1 0x81 SHL PUSH1 0xA DUP7 MOD BYTE DUP2 MSTORE8 PUSH1 0xA DUP6 DIV SWAP5 POP DUP5 PUSH2 0xBDA JUMPI PUSH2 0xBDF JUMP JUMPDEST PUSH2 0xBAB JUMP JUMPDEST POP SWAP4 SWAP3 POP POP POP JUMP JUMPDEST PUSH1 0x0 DUP1 PUSH19 0x184F03E93FF9F4DAA797ED6E38ED64BF6A1F01 PUSH1 0x40 SHL DUP4 LT PUSH2 0xC26 JUMPI PUSH19 0x184F03E93FF9F4DAA797ED6E38ED64BF6A1F01 PUSH1 0x40 SHL DUP4 DIV SWAP3 POP PUSH1 0x40 ADD JUMPDEST PUSH14 0x4EE2D6D415B85ACEF8100000000 DUP4 LT PUSH2 0xC52 JUMPI PUSH14 0x4EE2D6D415B85ACEF8100000000 DUP4 DIV SWAP3 POP PUSH1 0x20 ADD JUMPDEST PUSH7 0x2386F26FC10000 DUP4 LT PUSH2 0xC70 JUMPI PUSH7 0x2386F26FC10000 DUP4 DIV SWAP3 POP PUSH1 0x10 ADD JUMPDEST PUSH4 0x5F5E100 DUP4 LT PUSH2 0xC88 JUMPI PUSH4 0x5F5E100 DUP4 DIV SWAP3 POP PUSH1 0x8 ADD JUMPDEST PUSH2 0x2710 DUP4 LT PUSH2 0xC9C JUMPI PUSH2 0x2710 DUP4 DIV SWAP3 POP PUSH1 0x4 ADD JUMPDEST PUSH1 0x64 DUP4 LT PUSH2 0xCAE JUMPI PUSH1 0x64 DUP4 DIV SWAP3 POP PUSH1 0x2 ADD JUMPDEST PUSH1 0xA DUP4 LT PUSH2 0x45D JUMPI PUSH1 0x1 ADD SWAP3 SWAP2 POP POP JUMP JUMPDEST PUSH1 0x0 PUSH1 0x1 PUSH1 0x1 PUSH1 0xE0 SHL SUB NOT DUP3 AND PUSH4 0x7965DB0B PUSH1 0xE0 SHL EQ DUP1 PUSH2 0x45D JUMPI POP PUSH2 0x45D DUP3 PUSH2 0x1277 JUMP JUMPDEST PUSH2 0xCED DUP2 PUSH2 0x10BD JUMP JUMPDEST PUSH2 0xAE6 JUMPI PUSH1 0x40 MLOAD PUSH3 0x461BCD PUSH1 0xE5 SHL DUP2 MSTORE PUSH1 0x4 ADD PUSH2 0x591 SWAP1 PUSH2 0x1DEA JUMP JUMPDEST PUSH1 0x0 DUP2 DUP2 MSTORE PUSH1 0x4 PUSH1 0x20 MSTORE PUSH1 0x40 SWAP1 KECCAK256 DUP1 SLOAD PUSH1 0x1 PUSH1 0x1 PUSH1 0xA0 SHL SUB NOT AND PUSH1 0x1 PUSH1 0x1 PUSH1 0xA0 SHL SUB DUP5 AND SWAP1 DUP2 OR SWAP1 SWAP2 SSTORE DUP2 SWAP1 PUSH2 0xD3E DUP3 PUSH2 0x7A5 JUMP JUMPDEST PUSH1 0x1 PUSH1 0x1 PUSH1 0xA0 SHL SUB AND PUSH32 0x8C5BE1E5EBEC7D5BD14F71427D1E84F3DD0314C0F7B2291E5B200AC8C7C3B925 PUSH1 0x40 MLOAD PUSH1 0x40 MLOAD DUP1 SWAP2 SUB SWAP1 LOG4 POP POP JUMP JUMPDEST PUSH1 0x0 DUP1 PUSH2 0xD83 DUP4 PUSH2 0x7A5 JUMP JUMPDEST SWAP1 POP DUP1 PUSH1 0x1 PUSH1 0x1 PUSH1 0xA0 SHL SUB AND DUP5 PUSH1 0x1 PUSH1 0x1 PUSH1 0xA0 SHL SUB AND EQ DUP1 PUSH2 0xDAA JUMPI POP PUSH2 0xDAA DUP2 DUP6 PUSH2 0xB0E JUMP JUMPDEST DUP1 PUSH2 0xDCE JUMPI POP DUP4 PUSH1 0x1 PUSH1 0x1 PUSH1 0xA0 SHL SUB AND PUSH2 0xDC3 DUP5 PUSH2 0x4F5 JUMP JUMPDEST PUSH1 0x1 PUSH1 0x1 PUSH1 0xA0 SHL SUB AND EQ JUMPDEST SWAP5 SWAP4 POP POP POP POP JUMP JUMPDEST DUP3 PUSH1 0x1 PUSH1 0x1 PUSH1 0xA0 SHL SUB AND PUSH2 0xDE9 DUP3 PUSH2 0x7A5 JUMP JUMPDEST PUSH1 0x1 PUSH1 0x1 PUSH1 0xA0 SHL SUB AND EQ PUSH2 0xE0F JUMPI PUSH1 0x40 MLOAD PUSH3 0x461BCD PUSH1 0xE5 SHL DUP2 MSTORE PUSH1 0x4 ADD PUSH2 0x591 SWAP1 PUSH2 0x1D6E JUMP JUMPDEST PUSH1 0x1 PUSH1 0x1 PUSH1 0xA0 SHL SUB DUP3 AND PUSH2 0xE71 JUMPI PUSH1 0x40 MLOAD PUSH3 0x461BCD PUSH1 0xE5 SHL DUP2 MSTORE PUSH1 0x20 PUSH1 0x4 DUP3 ADD MSTORE PUSH1 0x24 DUP1 DUP3 ADD MSTORE PUSH32 0x4552433732313A207472616E7366657220746F20746865207A65726F20616464 PUSH1 0x44 DUP3 ADD MSTORE PUSH4 0x72657373 PUSH1 0xE0 SHL PUSH1 0x64 DUP3 ADD MSTORE PUSH1 0x84 ADD PUSH2 0x591 JUMP JUMPDEST PUSH2 0xE7E DUP4 DUP4 DUP4 PUSH1 0x1 PUSH2 0x12C7 JUMP JUMPDEST DUP3 PUSH1 0x1 PUSH1 0x1 PUSH1 0xA0 SHL SUB AND PUSH2 0xE91 DUP3 PUSH2 0x7A5 JUMP JUMPDEST PUSH1 0x1 PUSH1 0x1 PUSH1 0xA0 SHL SUB AND EQ PUSH2 0xEB7 JUMPI PUSH1 0x40 MLOAD PUSH3 0x461BCD PUSH1 0xE5 SHL DUP2 MSTORE PUSH1 0x4 ADD PUSH2 0x591 SWAP1 PUSH2 0x1D6E JUMP JUMPDEST PUSH1 0x0 DUP2 DUP2 MSTORE PUSH1 0x4 PUSH1 0x20 SWAP1 DUP2 MSTORE PUSH1 0x40 DUP1 DUP4 KECCAK256 DUP1 SLOAD PUSH1 0x1 PUSH1 0x1 PUSH1 0xA0 SHL SUB NOT SWAP1 DUP2 AND SWAP1 SWAP2 SSTORE PUSH1 0x1 PUSH1 0x1 PUSH1 0xA0 SHL SUB DUP8 DUP2 AND DUP1 DUP7 MSTORE PUSH1 0x3 DUP6 MSTORE DUP4 DUP7 KECCAK256 DUP1 SLOAD PUSH1 0x0 NOT ADD SWAP1 SSTORE SWAP1 DUP8 AND DUP1 DUP7 MSTORE DUP4 DUP7 KECCAK256 DUP1 SLOAD PUSH1 0x1 ADD SWAP1 SSTORE DUP7 DUP7 MSTORE PUSH1 0x2 SWAP1 SWAP5 MSTORE DUP3 DUP6 KECCAK256 DUP1 SLOAD SWAP1 SWAP3 AND DUP5 OR SWAP1 SWAP2 SSTORE SWAP1 MLOAD DUP5 SWAP4 PUSH1 0x0 DUP1 MLOAD PUSH1 0x20 PUSH2 0x1F2B DUP4 CODECOPY DUP2 MLOAD SWAP2 MSTORE SWAP2 LOG4 POP POP POP JUMP JUMPDEST PUSH2 0xAE6 DUP2 CALLER PUSH2 0x134F JUMP JUMPDEST PUSH2 0xF49 DUP3 DUP3 PUSH2 0x8EE JUMP JUMPDEST PUSH2 0x707 JUMPI PUSH1 0x0 DUP3 DUP2 MSTORE PUSH1 0x6 PUSH1 0x20 SWAP1 DUP2 MSTORE PUSH1 0x40 DUP1 DUP4 KECCAK256 PUSH1 0x1 PUSH1 0x1 PUSH1 0xA0 SHL SUB DUP6 AND DUP5 MSTORE SWAP1 SWAP2 MSTORE SWAP1 KECCAK256 DUP1 SLOAD PUSH1 0xFF NOT AND PUSH1 0x1 OR SWAP1 SSTORE PUSH2 0xF81 CALLER SWAP1 JUMP JUMPDEST PUSH1 0x1 PUSH1 0x1 PUSH1 0xA0 SHL SUB AND DUP2 PUSH1 0x1 PUSH1 0x1 PUSH1 0xA0 SHL SUB AND DUP4 PUSH32 0x2F8788117E7EFF1D82E926EC794901D17C78024A50270940304540A733656F0D PUSH1 0x40 MLOAD PUSH1 0x40 MLOAD DUP1 SWAP2 SUB SWAP1 LOG4 POP POP JUMP JUMPDEST PUSH2 0xFCF DUP3 DUP3 PUSH2 0x8EE JUMP JUMPDEST ISZERO PUSH2 0x707 JUMPI PUSH1 0x0 DUP3 DUP2 MSTORE PUSH1 0x6 PUSH1 0x20 SWAP1 DUP2 MSTORE PUSH1 0x40 DUP1 DUP4 KECCAK256 PUSH1 0x1 PUSH1 0x1 PUSH1 0xA0 SHL SUB DUP6 AND DUP1 DUP6 MSTORE SWAP3 MSTORE DUP1 DUP4 KECCAK256 DUP1 SLOAD PUSH1 0xFF NOT AND SWAP1 SSTORE MLOAD CALLER SWAP3 DUP6 SWAP2 PUSH32 0xF6391F5C32D9C69D2A47EA670B442974B53935D1EDC7FD64EB21E047A839171B SWAP2 SWAP1 LOG4 POP POP JUMP JUMPDEST PUSH1 0x0 PUSH2 0x1037 DUP3 PUSH2 0x7A5 JUMP JUMPDEST SWAP1 POP PUSH2 0x1047 DUP2 PUSH1 0x0 DUP5 PUSH1 0x1 PUSH2 0x12C7 JUMP JUMPDEST PUSH2 0x1050 DUP3 PUSH2 0x7A5 JUMP JUMPDEST PUSH1 0x0 DUP4 DUP2 MSTORE PUSH1 0x4 PUSH1 0x20 SWAP1 DUP2 MSTORE PUSH1 0x40 DUP1 DUP4 KECCAK256 DUP1 SLOAD PUSH1 0x1 PUSH1 0x1 PUSH1 0xA0 SHL SUB NOT SWAP1 DUP2 AND SWAP1 SWAP2 SSTORE PUSH1 0x1 PUSH1 0x1 PUSH1 0xA0 SHL SUB DUP6 AND DUP1 DUP6 MSTORE PUSH1 0x3 DUP5 MSTORE DUP3 DUP6 KECCAK256 DUP1 SLOAD PUSH1 0x0 NOT ADD SWAP1 SSTORE DUP8 DUP6 MSTORE PUSH1 0x2 SWAP1 SWAP4 MSTORE DUP2 DUP5 KECCAK256 DUP1 SLOAD SWAP1 SWAP2 AND SWAP1 SSTORE MLOAD SWAP3 SWAP4 POP DUP5 SWAP3 PUSH1 0x0 DUP1 MLOAD PUSH1 0x20 PUSH2 0x1F2B DUP4 CODECOPY DUP2 MLOAD SWAP2 MSTORE SWAP1 DUP4 SWAP1 LOG4 POP POP JUMP JUMPDEST PUSH1 0x0 SWAP1 DUP2 MSTORE PUSH1 0x2 PUSH1 0x20 MSTORE PUSH1 0x40 SWAP1 KECCAK256 SLOAD PUSH1 0x1 PUSH1 0x1 PUSH1 0xA0 SHL SUB AND ISZERO ISZERO SWAP1 JUMP JUMPDEST PUSH1 0x0 DUP2 MLOAD GT PUSH2 0x10F8 JUMPI PUSH1 0x40 MLOAD DUP1 PUSH1 0x20 ADD PUSH1 0x40 MSTORE DUP1 PUSH1 0x0 DUP2 MSTORE POP PUSH2 0x1123 JUMP JUMPDEST DUP1 PUSH2 0x1102 CHAINID PUSH2 0xB3C JUMP JUMPDEST PUSH1 0x40 MLOAD PUSH1 0x20 ADD PUSH2 0x1113 SWAP3 SWAP2 SWAP1 PUSH2 0x1BD5 JUMP JUMPDEST PUSH1 0x40 MLOAD PUSH1 0x20 DUP2 DUP4 SUB SUB DUP2 MSTORE SWAP1 PUSH1 0x40 MSTORE JUMPDEST DUP1 MLOAD PUSH2 0x707 SWAP2 PUSH1 0x8 SWAP2 PUSH1 0x20 SWAP1 SWAP2 ADD SWAP1 PUSH2 0x17B2 JUMP JUMPDEST PUSH2 0x1141 DUP4 DUP4 PUSH2 0x13A8 JUMP JUMPDEST PUSH2 0x114E PUSH1 0x0 DUP5 DUP5 DUP5 PUSH2 0x14B1 JUMP JUMPDEST PUSH2 0x632 JUMPI PUSH1 0x40 MLOAD PUSH3 0x461BCD PUSH1 0xE5 SHL DUP2 MSTORE PUSH1 0x4 ADD PUSH2 0x591 SWAP1 PUSH2 0x1D1C JUMP JUMPDEST DUP2 PUSH1 0x1 PUSH1 0x1 PUSH1 0xA0 SHL SUB AND DUP4 PUSH1 0x1 PUSH1 0x1 PUSH1 0xA0 SHL SUB AND EQ ISZERO PUSH2 0x11C8 JUMPI PUSH1 0x40 MLOAD PUSH3 0x461BCD PUSH1 0xE5 SHL DUP2 MSTORE PUSH1 0x20 PUSH1 0x4 DUP3 ADD MSTORE PUSH1 0x19 PUSH1 0x24 DUP3 ADD MSTORE PUSH25 0x22A9219B99189D1030B8383937BB32903A379031B0B63632B9 PUSH1 0x39 SHL PUSH1 0x44 DUP3 ADD MSTORE PUSH1 0x64 ADD PUSH2 0x591 JUMP JUMPDEST PUSH1 0x1 PUSH1 0x1 PUSH1 0xA0 SHL SUB DUP4 DUP2 AND PUSH1 0x0 DUP2 DUP2 MSTORE PUSH1 0x5 PUSH1 0x20 SWAP1 DUP2 MSTORE PUSH1 0x40 DUP1 DUP4 KECCAK256 SWAP5 DUP8 AND DUP1 DUP5 MSTORE SWAP5 DUP3 MSTORE SWAP2 DUP3 SWAP1 KECCAK256 DUP1 SLOAD PUSH1 0xFF NOT AND DUP7 ISZERO ISZERO SWAP1 DUP2 OR SWAP1 SWAP2 SSTORE SWAP2 MLOAD SWAP2 DUP3 MSTORE PUSH32 0x17307EAB39AB6107E8899845AD3D59BD9653F200F220920489CA2B5937696C31 SWAP2 ADD PUSH1 0x40 MLOAD DUP1 SWAP2 SUB SWAP1 LOG3 POP POP POP JUMP JUMPDEST PUSH2 0x1240 DUP5 DUP5 DUP5 PUSH2 0xDD6 JUMP JUMPDEST PUSH2 0x124C DUP5 DUP5 DUP5 DUP5 PUSH2 0x14B1 JUMP JUMPDEST PUSH2 0xA61 JUMPI PUSH1 0x40 MLOAD PUSH3 0x461BCD PUSH1 0xE5 SHL DUP2 MSTORE PUSH1 0x4 ADD PUSH2 0x591 SWAP1 PUSH2 0x1D1C JUMP JUMPDEST PUSH1 0x60 PUSH1 0x8 DUP1 SLOAD PUSH2 0x472 SWAP1 PUSH2 0x1EAD JUMP JUMPDEST PUSH1 0x0 PUSH1 0x1 PUSH1 0x1 PUSH1 0xE0 SHL SUB NOT DUP3 AND PUSH4 0x80AC58CD PUSH1 0xE0 SHL EQ DUP1 PUSH2 0x12A8 JUMPI POP PUSH1 0x1 PUSH1 0x1 PUSH1 0xE0 SHL SUB NOT DUP3 AND PUSH4 0x5B5E139F PUSH1 0xE0 SHL EQ JUMPDEST DUP1 PUSH2 0x45D JUMPI POP PUSH4 0x1FFC9A7 PUSH1 0xE0 SHL PUSH1 0x1 PUSH1 0x1 PUSH1 0xE0 SHL SUB NOT DUP4 AND EQ PUSH2 0x45D JUMP JUMPDEST PUSH1 0x1 DUP2 GT ISZERO PUSH2 0xA61 JUMPI PUSH1 0x1 PUSH1 0x1 PUSH1 0xA0 SHL SUB DUP5 AND ISZERO PUSH2 0x130D JUMPI PUSH1 0x1 PUSH1 0x1 PUSH1 0xA0 SHL SUB DUP5 AND PUSH1 0x0 SWAP1 DUP2 MSTORE PUSH1 0x3 PUSH1 0x20 MSTORE PUSH1 0x40 DUP2 KECCAK256 DUP1 SLOAD DUP4 SWAP3 SWAP1 PUSH2 0x1307 SWAP1 DUP5 SWAP1 PUSH2 0x1E53 JUMP JUMPDEST SWAP1 SWAP2 SSTORE POP POP JUMPDEST PUSH1 0x1 PUSH1 0x1 PUSH1 0xA0 SHL SUB DUP4 AND ISZERO PUSH2 0xA61 JUMPI PUSH1 0x1 PUSH1 0x1 PUSH1 0xA0 SHL SUB DUP4 AND PUSH1 0x0 SWAP1 DUP2 MSTORE PUSH1 0x3 PUSH1 0x20 MSTORE PUSH1 0x40 DUP2 KECCAK256 DUP1 SLOAD DUP4 SWAP3 SWAP1 PUSH2 0x1344 SWAP1 DUP5 SWAP1 PUSH2 0x1E1C JUMP JUMPDEST SWAP1 SWAP2 SSTORE POP POP POP POP POP POP JUMP JUMPDEST PUSH2 0x1359 DUP3 DUP3 PUSH2 0x8EE JUMP JUMPDEST PUSH2 0x707 JUMPI PUSH2 0x1366 DUP2 PUSH2 0x15BE JUMP JUMPDEST PUSH2 0x1371 DUP4 PUSH1 0x20 PUSH2 0x15D0 JUMP JUMPDEST PUSH1 0x40 MLOAD PUSH1 0x20 ADD PUSH2 0x1382 SWAP3 SWAP2 SWAP1 PUSH2 0x1C10 JUMP JUMPDEST PUSH1 0x40 DUP1 MLOAD PUSH1 0x1F NOT DUP2 DUP5 SUB ADD DUP2 MSTORE SWAP1 DUP3 SWAP1 MSTORE PUSH3 0x461BCD PUSH1 0xE5 SHL DUP3 MSTORE PUSH2 0x591 SWAP2 PUSH1 0x4 ADD PUSH2 0x1CBC JUMP JUMPDEST PUSH1 0x1 PUSH1 0x1 PUSH1 0xA0 SHL SUB DUP3 AND PUSH2 0x13FE JUMPI PUSH1 0x40 MLOAD PUSH3 0x461BCD PUSH1 0xE5 SHL DUP2 MSTORE PUSH1 0x20 PUSH1 0x4 DUP3 ADD DUP2 SWAP1 MSTORE PUSH1 0x24 DUP3 ADD MSTORE PUSH32 0x4552433732313A206D696E7420746F20746865207A65726F2061646472657373 PUSH1 0x44 DUP3 ADD MSTORE PUSH1 0x64 ADD PUSH2 0x591 JUMP JUMPDEST PUSH2 0x1407 DUP2 PUSH2 0x10BD JUMP JUMPDEST ISZERO PUSH2 0x1424 JUMPI PUSH1 0x40 MLOAD PUSH3 0x461BCD PUSH1 0xE5 SHL DUP2 MSTORE PUSH1 0x4 ADD PUSH2 0x591 SWAP1 PUSH2 0x1DB3 JUMP JUMPDEST PUSH2 0x1432 PUSH1 0x0 DUP4 DUP4 PUSH1 0x1 PUSH2 0x12C7 JUMP JUMPDEST PUSH2 0x143B DUP2 PUSH2 0x10BD JUMP JUMPDEST ISZERO PUSH2 0x1458 JUMPI PUSH1 0x40 MLOAD PUSH3 0x461BCD PUSH1 0xE5 SHL DUP2 MSTORE PUSH1 0x4 ADD PUSH2 0x591 SWAP1 PUSH2 0x1DB3 JUMP JUMPDEST PUSH1 0x1 PUSH1 0x1 PUSH1 0xA0 SHL SUB DUP3 AND PUSH1 0x0 DUP2 DUP2 MSTORE PUSH1 0x3 PUSH1 0x20 SWAP1 DUP2 MSTORE PUSH1 0x40 DUP1 DUP4 KECCAK256 DUP1 SLOAD PUSH1 0x1 ADD SWAP1 SSTORE DUP5 DUP4 MSTORE PUSH1 0x2 SWAP1 SWAP2 MSTORE DUP1 DUP3 KECCAK256 DUP1 SLOAD PUSH1 0x1 PUSH1 0x1 PUSH1 0xA0 SHL SUB NOT AND DUP5 OR SWAP1 SSTORE MLOAD DUP4 SWAP3 SWAP2 SWAP1 PUSH1 0x0 DUP1 MLOAD PUSH1 0x20 PUSH2 0x1F2B DUP4 CODECOPY DUP2 MLOAD SWAP2 MSTORE SWAP1 DUP3 SWAP1 LOG4 POP POP JUMP JUMPDEST PUSH1 0x0 PUSH1 0x1 PUSH1 0x1 PUSH1 0xA0 SHL SUB DUP5 AND EXTCODESIZE ISZERO PUSH2 0x15B3 JUMPI PUSH1 0x40 MLOAD PUSH4 0xA85BD01 PUSH1 0xE1 SHL DUP2 MSTORE PUSH1 0x1 PUSH1 0x1 PUSH1 0xA0 SHL SUB DUP6 AND SWAP1 PUSH4 0x150B7A02 SWAP1 PUSH2 0x14F5 SWAP1 CALLER SWAP1 DUP10 SWAP1 DUP9 SWAP1 DUP9 SWAP1 PUSH1 0x4 ADD PUSH2 0x1C7F JUMP JUMPDEST PUSH1 0x20 PUSH1 0x40 MLOAD DUP1 DUP4 SUB DUP2 PUSH1 0x0 DUP8 DUP1 EXTCODESIZE ISZERO DUP1 ISZERO PUSH2 0x150F JUMPI PUSH1 0x0 DUP1 REVERT JUMPDEST POP GAS CALL SWAP3 POP POP POP DUP1 ISZERO PUSH2 0x153F JUMPI POP PUSH1 0x40 DUP1 MLOAD PUSH1 0x1F RETURNDATASIZE SWAP1 DUP2 ADD PUSH1 0x1F NOT AND DUP3 ADD SWAP1 SWAP3 MSTORE PUSH2 0x153C SWAP2 DUP2 ADD SWAP1 PUSH2 0x1B18 JUMP JUMPDEST PUSH1 0x1 JUMPDEST PUSH2 0x1599 JUMPI RETURNDATASIZE DUP1 DUP1 ISZERO PUSH2 0x156D JUMPI PUSH1 0x40 MLOAD SWAP2 POP PUSH1 0x1F NOT PUSH1 0x3F RETURNDATASIZE ADD AND DUP3 ADD PUSH1 0x40 MSTORE RETURNDATASIZE DUP3 MSTORE RETURNDATASIZE PUSH1 0x0 PUSH1 0x20 DUP5 ADD RETURNDATACOPY PUSH2 0x1572 JUMP JUMPDEST PUSH1 0x60 SWAP2 POP JUMPDEST POP DUP1 MLOAD PUSH2 0x1591 JUMPI PUSH1 0x40 MLOAD PUSH3 0x461BCD PUSH1 0xE5 SHL DUP2 MSTORE PUSH1 0x4 ADD PUSH2 0x591 SWAP1 PUSH2 0x1D1C JUMP JUMPDEST DUP1 MLOAD DUP2 PUSH1 0x20 ADD REVERT JUMPDEST PUSH1 0x1 PUSH1 0x1 PUSH1 0xE0 SHL SUB NOT AND PUSH4 0xA85BD01 PUSH1 0xE1 SHL EQ SWAP1 POP PUSH2 0xDCE JUMP JUMPDEST POP PUSH1 0x1 SWAP5 SWAP4 POP POP POP POP JUMP JUMPDEST PUSH1 0x60 PUSH2 0x45D PUSH1 0x1 PUSH1 0x1 PUSH1 0xA0 SHL SUB DUP4 AND PUSH1 0x14 JUMPDEST PUSH1 0x60 PUSH1 0x0 PUSH2 0x15DF DUP4 PUSH1 0x2 PUSH2 0x1E34 JUMP JUMPDEST PUSH2 0x15EA SWAP1 PUSH1 0x2 PUSH2 0x1E1C JUMP JUMPDEST PUSH8 0xFFFFFFFFFFFFFFFF DUP2 GT ISZERO PUSH2 0x1610 JUMPI PUSH4 0x4E487B71 PUSH1 0xE0 SHL PUSH1 0x0 MSTORE PUSH1 0x41 PUSH1 0x4 MSTORE PUSH1 0x24 PUSH1 0x0 REVERT JUMPDEST PUSH1 0x40 MLOAD SWAP1 DUP1 DUP3 MSTORE DUP1 PUSH1 0x1F ADD PUSH1 0x1F NOT AND PUSH1 0x20 ADD DUP3 ADD PUSH1 0x40 MSTORE DUP1 ISZERO PUSH2 0x163A JUMPI PUSH1 0x20 DUP3 ADD DUP2 DUP1 CALLDATASIZE DUP4 CALLDATACOPY ADD SWAP1 POP JUMPDEST POP SWAP1 POP PUSH1 0x3 PUSH1 0xFC SHL DUP2 PUSH1 0x0 DUP2 MLOAD DUP2 LT PUSH2 0x1663 JUMPI PUSH4 0x4E487B71 PUSH1 0xE0 SHL PUSH1 0x0 MSTORE PUSH1 0x32 PUSH1 0x4 MSTORE PUSH1 0x24 PUSH1 0x0 REVERT JUMPDEST PUSH1 0x20 ADD ADD SWAP1 PUSH1 0x1 PUSH1 0x1 PUSH1 0xF8 SHL SUB NOT AND SWAP1 DUP2 PUSH1 0x0 BYTE SWAP1 MSTORE8 POP PUSH1 0xF PUSH1 0xFB SHL DUP2 PUSH1 0x1 DUP2 MLOAD DUP2 LT PUSH2 0x16A0 JUMPI PUSH4 0x4E487B71 PUSH1 0xE0 SHL PUSH1 0x0 MSTORE PUSH1 0x32 PUSH1 0x4 MSTORE PUSH1 0x24 PUSH1 0x0 REVERT JUMPDEST PUSH1 0x20 ADD ADD SWAP1 PUSH1 0x1 PUSH1 0x1 PUSH1 0xF8 SHL SUB NOT AND SWAP1 DUP2 PUSH1 0x0 BYTE SWAP1 MSTORE8 POP PUSH1 0x0 PUSH2 0x16C4 DUP5 PUSH1 0x2 PUSH2 0x1E34 JUMP JUMPDEST PUSH2 0x16CF SWAP1 PUSH1 0x1 PUSH2 0x1E1C JUMP JUMPDEST SWAP1 POP JUMPDEST PUSH1 0x1 DUP2 GT ISZERO PUSH2 0x1763 JUMPI PUSH16 0x181899199A1A9B1B9C1CB0B131B232B3 PUSH1 0x81 SHL DUP6 PUSH1 0xF AND PUSH1 0x10 DUP2 LT PUSH2 0x1711 JUMPI PUSH4 0x4E487B71 PUSH1 0xE0 SHL PUSH1 0x0 MSTORE PUSH1 0x32 PUSH1 0x4 MSTORE PUSH1 0x24 PUSH1 0x0 REVERT JUMPDEST BYTE PUSH1 0xF8 SHL DUP3 DUP3 DUP2 MLOAD DUP2 LT PUSH2 0x1735 JUMPI PUSH4 0x4E487B71 PUSH1 0xE0 SHL PUSH1 0x0 MSTORE PUSH1 0x32 PUSH1 0x4 MSTORE PUSH1 0x24 PUSH1 0x0 REVERT JUMPDEST PUSH1 0x20 ADD ADD SWAP1 PUSH1 0x1 PUSH1 0x1 PUSH1 0xF8 SHL SUB NOT AND SWAP1 DUP2 PUSH1 0x0 BYTE SWAP1 MSTORE8 POP PUSH1 0x4 SWAP5 SWAP1 SWAP5 SHR SWAP4 PUSH2 0x175C DUP2 PUSH2 0x1E96 JUMP JUMPDEST SWAP1 POP PUSH2 0x16D2 JUMP JUMPDEST POP DUP4 ISZERO PUSH2 0xAC7 JUMPI PUSH1 0x40 MLOAD PUSH3 0x461BCD PUSH1 0xE5 SHL DUP2 MSTORE PUSH1 0x20 PUSH1 0x4 DUP3 ADD DUP2 SWAP1 MSTORE PUSH1 0x24 DUP3 ADD MSTORE PUSH32 0x537472696E67733A20686578206C656E67746820696E73756666696369656E74 PUSH1 0x44 DUP3 ADD MSTORE PUSH1 0x64 ADD PUSH2 0x591 JUMP JUMPDEST DUP3 DUP1 SLOAD PUSH2 0x17BE SWAP1 PUSH2 0x1EAD JUMP JUMPDEST SWAP1 PUSH1 0x0 MSTORE PUSH1 0x20 PUSH1 0x0 KECCAK256 SWAP1 PUSH1 0x1F ADD PUSH1 0x20 SWAP1 DIV DUP2 ADD SWAP3 DUP3 PUSH2 0x17E0 JUMPI PUSH1 0x0 DUP6 SSTORE PUSH2 0x1826 JUMP JUMPDEST DUP3 PUSH1 0x1F LT PUSH2 0x17F9 JUMPI DUP1 MLOAD PUSH1 0xFF NOT AND DUP4 DUP1 ADD OR DUP6 SSTORE PUSH2 0x1826 JUMP JUMPDEST DUP3 DUP1 ADD PUSH1 0x1 ADD DUP6 SSTORE DUP3 ISZERO PUSH2 0x1826 JUMPI SWAP2 DUP3 ADD JUMPDEST DUP3 DUP2 GT ISZERO PUSH2 0x1826 JUMPI DUP3 MLOAD DUP3 SSTORE SWAP2 PUSH1 0x20 ADD SWAP2 SWAP1 PUSH1 0x1 ADD SWAP1 PUSH2 0x180B JUMP JUMPDEST POP PUSH2 0x1832 SWAP3 SWAP2 POP PUSH2 0x1836 JUMP JUMPDEST POP SWAP1 JUMP JUMPDEST JUMPDEST DUP1 DUP3 GT ISZERO PUSH2 0x1832 JUMPI PUSH1 0x0 DUP2 SSTORE PUSH1 0x1 ADD PUSH2 0x1837 JUMP JUMPDEST PUSH1 0x0 PUSH8 0xFFFFFFFFFFFFFFFF DUP1 DUP5 GT ISZERO PUSH2 0x1866 JUMPI PUSH2 0x1866 PUSH2 0x1EFE JUMP JUMPDEST PUSH1 0x40 MLOAD PUSH1 0x1F DUP6 ADD PUSH1 0x1F NOT SWAP1 DUP2 AND PUSH1 0x3F ADD AND DUP2 ADD SWAP1 DUP3 DUP3 GT DUP2 DUP4 LT OR ISZERO PUSH2 0x188E JUMPI PUSH2 0x188E PUSH2 0x1EFE JUMP JUMPDEST DUP2 PUSH1 0x40 MSTORE DUP1 SWAP4 POP DUP6 DUP2 MSTORE DUP7 DUP7 DUP7 ADD GT ISZERO PUSH2 0x18A7 JUMPI PUSH1 0x0 DUP1 REVERT JUMPDEST DUP6 DUP6 PUSH1 0x20 DUP4 ADD CALLDATACOPY PUSH1 0x0 PUSH1 0x20 DUP8 DUP4 ADD ADD MSTORE POP POP POP SWAP4 SWAP3 POP POP POP JUMP JUMPDEST DUP1 CALLDATALOAD PUSH1 0x1 PUSH1 0x1 PUSH1 0xA0 SHL SUB DUP2 AND DUP2 EQ PUSH2 0x18D8 JUMPI PUSH1 0x0 DUP1 REVERT JUMPDEST SWAP2 SWAP1 POP JUMP JUMPDEST PUSH1 0x0 PUSH1 0x20 DUP3 DUP5 SUB SLT ISZERO PUSH2 0x18EE JUMPI DUP1 DUP2 REVERT JUMPDEST PUSH2 0xAC7 DUP3 PUSH2 0x18C1 JUMP JUMPDEST PUSH1 0x0 DUP1 PUSH1 0x40 DUP4 DUP6 SUB SLT ISZERO PUSH2 0x1909 JUMPI DUP1 DUP2 REVERT JUMPDEST PUSH2 0x1912 DUP4 PUSH2 0x18C1 JUMP JUMPDEST SWAP2 POP PUSH2 0x1920 PUSH1 0x20 DUP5 ADD PUSH2 0x18C1 JUMP JUMPDEST SWAP1 POP SWAP3 POP SWAP3 SWAP1 POP JUMP JUMPDEST PUSH1 0x0 DUP1 PUSH1 0x0 PUSH1 0x60 DUP5 DUP7 SUB SLT ISZERO PUSH2 0x193D JUMPI DUP1 DUP2 REVERT JUMPDEST PUSH2 0x1946 DUP5 PUSH2 0x18C1 JUMP JUMPDEST SWAP3 POP PUSH2 0x1954 PUSH1 0x20 DUP6 ADD PUSH2 0x18C1 JUMP JUMPDEST SWAP2 POP PUSH1 0x40 DUP5 ADD CALLDATALOAD SWAP1 POP SWAP3 POP SWAP3 POP SWAP3 JUMP JUMPDEST PUSH1 0x0 DUP1 PUSH1 0x0 DUP1 PUSH1 0x80 DUP6 DUP8 SUB SLT ISZERO PUSH2 0x1979 JUMPI DUP1 DUP2 REVERT JUMPDEST PUSH2 0x1982 DUP6 PUSH2 0x18C1 JUMP JUMPDEST SWAP4 POP PUSH2 0x1990 PUSH1 0x20 DUP7 ADD PUSH2 0x18C1 JUMP JUMPDEST SWAP3 POP PUSH1 0x40 DUP6 ADD CALLDATALOAD SWAP2 POP PUSH1 0x60 DUP6 ADD CALLDATALOAD PUSH8 0xFFFFFFFFFFFFFFFF DUP2 GT ISZERO PUSH2 0x19B2 JUMPI DUP2 DUP3 REVERT JUMPDEST DUP6 ADD PUSH1 0x1F DUP2 ADD DUP8 SGT PUSH2 0x19C2 JUMPI DUP2 DUP3 REVERT JUMPDEST PUSH2 0x19D1 DUP8 DUP3 CALLDATALOAD PUSH1 0x20 DUP5 ADD PUSH2 0x184B JUMP JUMPDEST SWAP2 POP POP SWAP3 SWAP6 SWAP2 SWAP5 POP SWAP3 POP JUMP JUMPDEST PUSH1 0x0 DUP1 PUSH1 0x40 DUP4 DUP6 SUB SLT ISZERO PUSH2 0x19EF JUMPI DUP2 DUP3 REVERT JUMPDEST PUSH2 0x19F8 DUP4 PUSH2 0x18C1 JUMP JUMPDEST SWAP2 POP PUSH1 0x20 DUP4 ADD CALLDATALOAD DUP1 ISZERO ISZERO DUP2 EQ PUSH2 0x1A0C JUMPI DUP2 DUP3 REVERT JUMPDEST DUP1 SWAP2 POP POP SWAP3 POP SWAP3 SWAP1 POP JUMP JUMPDEST PUSH1 0x0 DUP1 PUSH1 0x40 DUP4 DUP6 SUB SLT ISZERO PUSH2 0x1A29 JUMPI DUP2 DUP3 REVERT JUMPDEST PUSH2 0x1A32 DUP4 PUSH2 0x18C1 JUMP JUMPDEST SWAP5 PUSH1 0x20 SWAP4 SWAP1 SWAP4 ADD CALLDATALOAD SWAP4 POP POP POP JUMP JUMPDEST PUSH1 0x0 DUP1 PUSH1 0x0 DUP1 PUSH1 0x60 DUP6 DUP8 SUB SLT ISZERO PUSH2 0x1A55 JUMPI DUP4 DUP5 REVERT JUMPDEST PUSH2 0x1A5E DUP6 PUSH2 0x18C1 JUMP JUMPDEST SWAP4 POP PUSH1 0x20 DUP6 ADD CALLDATALOAD SWAP3 POP PUSH1 0x40 DUP6 ADD CALLDATALOAD PUSH8 0xFFFFFFFFFFFFFFFF DUP1 DUP3 GT ISZERO PUSH2 0x1A81 JUMPI DUP4 DUP5 REVERT JUMPDEST DUP2 DUP8 ADD SWAP2 POP DUP8 PUSH1 0x1F DUP4 ADD SLT PUSH2 0x1A94 JUMPI DUP4 DUP5 REVERT JUMPDEST DUP2 CALLDATALOAD DUP2 DUP2 GT ISZERO PUSH2 0x1AA2 JUMPI DUP5 DUP6 REVERT JUMPDEST DUP9 PUSH1 0x20 DUP3 DUP6 ADD ADD GT ISZERO PUSH2 0x1AB3 JUMPI DUP5 DUP6 REVERT JUMPDEST SWAP6 SWAP9 SWAP5 SWAP8 POP POP PUSH1 0x20 ADD SWAP5 POP POP POP JUMP JUMPDEST PUSH1 0x0 PUSH1 0x20 DUP3 DUP5 SUB SLT ISZERO PUSH2 0x1AD3 JUMPI DUP1 DUP2 REVERT JUMPDEST POP CALLDATALOAD SWAP2 SWAP1 POP JUMP JUMPDEST PUSH1 0x0 DUP1 PUSH1 0x40 DUP4 DUP6 SUB SLT ISZERO PUSH2 0x1AEC JUMPI DUP2 DUP3 REVERT JUMPDEST DUP3 CALLDATALOAD SWAP2 POP PUSH2 0x1920 PUSH1 0x20 DUP5 ADD PUSH2 0x18C1 JUMP JUMPDEST PUSH1 0x0 PUSH1 0x20 DUP3 DUP5 SUB SLT ISZERO PUSH2 0x1B0D JUMPI DUP1 DUP2 REVERT JUMPDEST DUP2 CALLDATALOAD PUSH2 0xAC7 DUP2 PUSH2 0x1F14 JUMP JUMPDEST PUSH1 0x0 PUSH1 0x20 DUP3 DUP5 SUB SLT ISZERO PUSH2 0x1B29 JUMPI DUP1 DUP2 REVERT JUMPDEST DUP2 MLOAD PUSH2 0xAC7 DUP2 PUSH2 0x1F14 JUMP JUMPDEST PUSH1 0x0 PUSH1 0x20 DUP3 DUP5 SUB SLT ISZERO PUSH2 0x1B45 JUMPI DUP1 DUP2 REVERT JUMPDEST DUP2 CALLDATALOAD PUSH8 0xFFFFFFFFFFFFFFFF DUP2 GT ISZERO PUSH2 0x1B5B JUMPI DUP2 DUP3 REVERT JUMPDEST DUP3 ADD PUSH1 0x1F DUP2 ADD DUP5 SGT PUSH2 0x1B6B JUMPI DUP2 DUP3 REVERT JUMPDEST PUSH2 0xDCE DUP5 DUP3 CALLDATALOAD PUSH1 0x20 DUP5 ADD PUSH2 0x184B JUMP JUMPDEST PUSH1 0x0 DUP2 MLOAD DUP1 DUP5 MSTORE PUSH2 0x1B92 DUP2 PUSH1 0x20 DUP7 ADD PUSH1 0x20 DUP7 ADD PUSH2 0x1E6A JUMP JUMPDEST PUSH1 0x1F ADD PUSH1 0x1F NOT AND SWAP3 SWAP1 SWAP3 ADD PUSH1 0x20 ADD SWAP3 SWAP2 POP POP JUMP JUMPDEST PUSH1 0x0 DUP4 MLOAD PUSH2 0x1BB8 DUP2 DUP5 PUSH1 0x20 DUP9 ADD PUSH2 0x1E6A JUMP JUMPDEST DUP4 MLOAD SWAP1 DUP4 ADD SWAP1 PUSH2 0x1BCC DUP2 DUP4 PUSH1 0x20 DUP9 ADD PUSH2 0x1E6A JUMP JUMPDEST ADD SWAP5 SWAP4 POP POP POP POP JUMP JUMPDEST PUSH1 0x0 DUP4 MLOAD PUSH2 0x1BE7 DUP2 DUP5 PUSH1 0x20 DUP9 ADD PUSH2 0x1E6A JUMP JUMPDEST DUP4 MLOAD SWAP1 DUP4 ADD SWAP1 PUSH2 0x1BFB DUP2 DUP4 PUSH1 0x20 DUP9 ADD PUSH2 0x1E6A JUMP JUMPDEST PUSH1 0x2F PUSH1 0xF8 SHL SWAP2 ADD SWAP1 DUP2 MSTORE PUSH1 0x1 ADD SWAP5 SWAP4 POP POP POP POP JUMP JUMPDEST PUSH23 0x20B1B1B2B9B9A1B7B73A3937B61D1030B1B1B7BAB73A1 PUSH1 0x4D SHL DUP2 MSTORE PUSH1 0x0 DUP4 MLOAD PUSH2 0x1C42 DUP2 PUSH1 0x17 DUP6 ADD PUSH1 0x20 DUP9 ADD PUSH2 0x1E6A JUMP JUMPDEST PUSH17 0x1034B99036B4B9B9B4B733903937B6329 PUSH1 0x7D SHL PUSH1 0x17 SWAP2 DUP5 ADD SWAP2 DUP3 ADD MSTORE DUP4 MLOAD PUSH2 0x1C73 DUP2 PUSH1 0x28 DUP5 ADD PUSH1 0x20 DUP9 ADD PUSH2 0x1E6A JUMP JUMPDEST ADD PUSH1 0x28 ADD SWAP5 SWAP4 POP POP POP POP JUMP JUMPDEST PUSH1 0x1 PUSH1 0x1 PUSH1 0xA0 SHL SUB DUP6 DUP2 AND DUP3 MSTORE DUP5 AND PUSH1 0x20 DUP3 ADD MSTORE PUSH1 0x40 DUP2 ADD DUP4 SWAP1 MSTORE PUSH1 0x80 PUSH1 0x60 DUP3 ADD DUP2 SWAP1 MSTORE PUSH1 0x0 SWAP1 PUSH2 0x1CB2 SWAP1 DUP4 ADD DUP5 PUSH2 0x1B7A JUMP JUMPDEST SWAP7 SWAP6 POP POP POP POP POP POP JUMP JUMPDEST PUSH1 0x20 DUP2 MSTORE PUSH1 0x0 PUSH2 0xAC7 PUSH1 0x20 DUP4 ADD DUP5 PUSH2 0x1B7A JUMP JUMPDEST PUSH1 0x20 DUP1 DUP3 MSTORE PUSH1 0x2D SWAP1 DUP3 ADD MSTORE PUSH32 0x4552433732313A2063616C6C6572206973206E6F7420746F6B656E206F776E65 PUSH1 0x40 DUP3 ADD MSTORE PUSH13 0x1C881BDC88185C1C1C9BDD9959 PUSH1 0x9A SHL PUSH1 0x60 DUP3 ADD MSTORE PUSH1 0x80 ADD SWAP1 JUMP JUMPDEST PUSH1 0x20 DUP1 DUP3 MSTORE PUSH1 0x32 SWAP1 DUP3 ADD MSTORE PUSH32 0x4552433732313A207472616E7366657220746F206E6F6E204552433732315265 PUSH1 0x40 DUP3 ADD MSTORE PUSH18 0x31B2B4BB32B91034B6B83632B6B2B73A32B9 PUSH1 0x71 SHL PUSH1 0x60 DUP3 ADD MSTORE PUSH1 0x80 ADD SWAP1 JUMP JUMPDEST PUSH1 0x20 DUP1 DUP3 MSTORE PUSH1 0x25 SWAP1 DUP3 ADD MSTORE PUSH32 0x4552433732313A207472616E736665722066726F6D20696E636F727265637420 PUSH1 0x40 DUP3 ADD MSTORE PUSH5 0x37BBB732B9 PUSH1 0xD9 SHL PUSH1 0x60 DUP3 ADD MSTORE PUSH1 0x80 ADD SWAP1 JUMP JUMPDEST PUSH1 0x20 DUP1 DUP3 MSTORE PUSH1 0x1C SWAP1 DUP3 ADD MSTORE PUSH32 0x4552433732313A20746F6B656E20616C7265616479206D696E74656400000000 PUSH1 0x40 DUP3 ADD MSTORE PUSH1 0x60 ADD SWAP1 JUMP JUMPDEST PUSH1 0x20 DUP1 DUP3 MSTORE PUSH1 0x18 SWAP1 DUP3 ADD MSTORE PUSH24 0x115490CDCC8C4E881A5B9D985B1A59081D1BDAD95B881251 PUSH1 0x42 SHL PUSH1 0x40 DUP3 ADD MSTORE PUSH1 0x60 ADD SWAP1 JUMP JUMPDEST PUSH1 0x0 DUP3 NOT DUP3 GT ISZERO PUSH2 0x1E2F JUMPI PUSH2 0x1E2F PUSH2 0x1EE8 JUMP JUMPDEST POP ADD SWAP1 JUMP JUMPDEST PUSH1 0x0 DUP2 PUSH1 0x0 NOT DIV DUP4 GT DUP3 ISZERO ISZERO AND ISZERO PUSH2 0x1E4E JUMPI PUSH2 0x1E4E PUSH2 0x1EE8 JUMP JUMPDEST POP MUL SWAP1 JUMP JUMPDEST PUSH1 0x0 DUP3 DUP3 LT ISZERO PUSH2 0x1E65 JUMPI PUSH2 0x1E65 PUSH2 0x1EE8 JUMP JUMPDEST POP SUB SWAP1 JUMP JUMPDEST PUSH1 0x0 JUMPDEST DUP4 DUP2 LT ISZERO PUSH2 0x1E85 JUMPI DUP2 DUP2 ADD MLOAD DUP4 DUP3 ADD MSTORE PUSH1 0x20 ADD PUSH2 0x1E6D JUMP JUMPDEST DUP4 DUP2 GT ISZERO PUSH2 0xA61 JUMPI POP POP PUSH1 0x0 SWAP2 ADD MSTORE JUMP JUMPDEST PUSH1 0x0 DUP2 PUSH2 0x1EA5 JUMPI PUSH2 0x1EA5 PUSH2 0x1EE8 JUMP JUMPDEST POP PUSH1 0x0 NOT ADD SWAP1 JUMP JUMPDEST PUSH1 0x1 DUP2 DUP2 SHR SWAP1 DUP3 AND DUP1 PUSH2 0x1EC1 JUMPI PUSH1 0x7F DUP3 AND SWAP2 POP JUMPDEST PUSH1 0x20 DUP3 LT DUP2 EQ ISZERO PUSH2 0x1EE2 JUMPI PUSH4 0x4E487B71 PUSH1 0xE0 SHL PUSH1 0x0 MSTORE PUSH1 0x22 PUSH1 0x4 MSTORE PUSH1 0x24 PUSH1 0x0 REVERT JUMPDEST POP SWAP2 SWAP1 POP JUMP JUMPDEST PUSH4 0x4E487B71 PUSH1 0xE0 SHL PUSH1 0x0 MSTORE PUSH1 0x11 PUSH1 0x4 MSTORE PUSH1 0x24 PUSH1 0x0 REVERT JUMPDEST PUSH4 0x4E487B71 PUSH1 0xE0 SHL PUSH1 0x0 MSTORE PUSH1 0x41 PUSH1 0x4 MSTORE PUSH1 0x24 PUSH1 0x0 REVERT JUMPDEST PUSH1 0x1 PUSH1 0x1 PUSH1 0xE0 SHL SUB NOT DUP2 AND DUP2 EQ PUSH2 0xAE6 JUMPI PUSH1 0x0 DUP1 REVERT INVALID 0xDD CALLCODE MSTORE 0xAD SHL 0xE2 0xC8 SWAP12 PUSH10 0xC2B068FC378DAA952BA7 CALL PUSH4 0xC4A11628 CREATE2 GAS 0x4D CREATE2 0x23 0xB3 0xEF ADD MSTORE SELFDESTRUCT GASPRICE 0xBC 0xD0 PUSH23 0xE5909DAE88C15988BC9C69E3F026F3AF132517CE02B1E7 SWAP3 0xE LOG2 PUSH5 0x6970667358 0x22 SLT KECCAK256 0xC3 DUP14 PUSH10 0x7957A75504BFAD96B73B 0xF8 0xE6 0x23 0xEB 0xD7 0xD9 BYTE ADD 0xB7 GASLIMIT 0x5E SWAP8 SAR INVALID CALLDATASIZE JUMP 0x2B 0xD3 NUMBER PUSH5 0x736F6C6343 STOP ADDMOD DIV STOP CALLER "
		},
		"gasEstimates": {
			"creation": {
				"codeDepositCost": "1619200",
				"executionCost": "infinite",
				"totalCost": "infinite"
			},
			"external": {
				"BASE_URI_ROLE()": "239",
				"DEFAULT_ADMIN_ROLE()": "328",
				"LOAN_COORDINATOR_ROLE()": "infinite",
				"approve(address,uint256)": "infinite",
				"balanceOf(address)": "1334",
				"baseURI()": "infinite",
				"burn(uint256)": "infinite",
				"exists(uint256)": "1320",
				"getApproved(uint256)": "2228",
				"getRoleAdmin(bytes32)": "1278",
				"grantRole(bytes32,address)": "infinite",
				"hasRole(bytes32,address)": "1421",
				"hub()": "infinite",
				"isApprovedForAll(address,address)": "infinite",
				"loans(uint256)": "2179",
				"mint(address,uint256,bytes)": "infinite",
				"name()": "infinite",
				"ownerOf(uint256)": "1414",
				"renounceRole(bytes32,address)": "24324",
				"revokeRole(bytes32,address)": "infinite",
				"safeTransferFrom(address,address,uint256)": "infinite",
				"safeTransferFrom(address,address,uint256,bytes)": "infinite",
				"setApprovalForAll(address,bool)": "23441",
				"setBaseURI(string)": "infinite",
				"setLoanCoordinator(address)": "infinite",
				"supportsInterface(bytes4)": "infinite",
				"symbol()": "infinite",
				"tokenURI(uint256)": "infinite",
				"transferFrom(address,address,uint256)": "infinite"
			},
			"internal": {
				"_baseURI()": "infinite",
				"_getChainID()": "infinite",
				"_setBaseURI(string memory)": "infinite"
			}
		},
		"methodIdentifiers": {
			"BASE_URI_ROLE()": "bdadce3c",
			"DEFAULT_ADMIN_ROLE()": "a217fddf",
			"LOAN_COORDINATOR_ROLE()": "c9836cdb",
			"approve(address,uint256)": "095ea7b3",
			"balanceOf(address)": "70a08231",
			"baseURI()": "6c0360eb",
			"burn(uint256)": "42966c68",
			"exists(uint256)": "4f558e79",
			"getApproved(uint256)": "081812fc",
			"getRoleAdmin(bytes32)": "248a9ca3",
			"grantRole(bytes32,address)": "2f2ff15d",
			"hasRole(bytes32,address)": "91d14854",
			"hub()": "365a86fc",
			"isApprovedForAll(address,address)": "e985e9c5",
			"loans(uint256)": "e1ec3c68",
			"mint(address,uint256,bytes)": "94d008ef",
			"name()": "06fdde03",
			"ownerOf(uint256)": "6352211e",
			"renounceRole(bytes32,address)": "36568abe",
			"revokeRole(bytes32,address)": "d547741f",
			"safeTransferFrom(address,address,uint256)": "42842e0e",
			"safeTransferFrom(address,address,uint256,bytes)": "b88d4fde",
			"setApprovalForAll(address,bool)": "a22cb465",
			"setBaseURI(string)": "55f804b3",
			"setLoanCoordinator(address)": "d2710e2c",
			"supportsInterface(bytes4)": "01ffc9a7",
			"symbol()": "95d89b41",
			"tokenURI(uint256)": "c87b56dd",
			"transferFrom(address,address,uint256)": "23b872dd"
		}
	},
	"abi": [
		{
			"inputs": [
				{
					"internalType": "address",
					"name": "_admin",
					"type": "address"
				},
				{
					"internalType": "address",
					"name": "_nftfiHub",
					"type": "address"
				},
				{
					"internalType": "address",
					"name": "_loanCoordinator",
					"type": "address"
				},
				{
					"internalType": "string",
					"name": "_name",
					"type": "string"
				},
				{
					"internalType": "string",
					"name": "_symbol",
					"type": "string"
				},
				{
					"internalType": "string",
					"name": "_customBaseURI",
					"type": "string"
				}
			],
			"stateMutability": "nonpayable",
			"type": "constructor"
		},
		{
			"anonymous": false,
			"inputs": [
				{
					"indexed": true,
					"internalType": "address",
					"name": "owner",
					"type": "address"
				},
				{
					"indexed": true,
					"internalType": "address",
					"name": "approved",
					"type": "address"
				},
				{
					"indexed": true,
					"internalType": "uint256",
					"name": "tokenId",
					"type": "uint256"
				}
			],
			"name": "Approval",
			"type": "event"
		},
		{
			"anonymous": false,
			"inputs": [
				{
					"indexed": true,
					"internalType": "address",
					"name": "owner",
					"type": "address"
				},
				{
					"indexed": true,
					"internalType": "address",
					"name": "operator",
					"type": "address"
				},
				{
					"indexed": false,
					"internalType": "bool",
					"name": "approved",
					"type": "bool"
				}
			],
			"name": "ApprovalForAll",
			"type": "event"
		},
		{
			"anonymous": false,
			"inputs": [
				{
					"indexed": true,
					"internalType": "bytes32",
					"name": "role",
					"type": "bytes32"
				},
				{
					"indexed": true,
					"internalType": "bytes32",
					"name": "previousAdminRole",
					"type": "bytes32"
				},
				{
					"indexed": true,
					"internalType": "bytes32",
					"name": "newAdminRole",
					"type": "bytes32"
				}
			],
			"name": "RoleAdminChanged",
			"type": "event"
		},
		{
			"anonymous": false,
			"inputs": [
				{
					"indexed": true,
					"internalType": "bytes32",
					"name": "role",
					"type": "bytes32"
				},
				{
					"indexed": true,
					"internalType": "address",
					"name": "account",
					"type": "address"
				},
				{
					"indexed": true,
					"internalType": "address",
					"name": "sender",
					"type": "address"
				}
			],
			"name": "RoleGranted",
			"type": "event"
		},
		{
			"anonymous": false,
			"inputs": [
				{
					"indexed": true,
					"internalType": "bytes32",
					"name": "role",
					"type": "bytes32"
				},
				{
					"indexed": true,
					"internalType": "address",
					"name": "account",
					"type": "address"
				},
				{
					"indexed": true,
					"internalType": "address",
					"name": "sender",
					"type": "address"
				}
			],
			"name": "RoleRevoked",
			"type": "event"
		},
		{
			"anonymous": false,
			"inputs": [
				{
					"indexed": true,
					"internalType": "address",
					"name": "from",
					"type": "address"
				},
				{
					"indexed": true,
					"internalType": "address",
					"name": "to",
					"type": "address"
				},
				{
					"indexed": true,
					"internalType": "uint256",
					"name": "tokenId",
					"type": "uint256"
				}
			],
			"name": "Transfer",
			"type": "event"
		},
		{
			"inputs": [],
			"name": "BASE_URI_ROLE",
			"outputs": [
				{
					"internalType": "bytes32",
					"name": "",
					"type": "bytes32"
				}
			],
			"stateMutability": "view",
			"type": "function"
		},
		{
			"inputs": [],
			"name": "DEFAULT_ADMIN_ROLE",
			"outputs": [
				{
					"internalType": "bytes32",
					"name": "",
					"type": "bytes32"
				}
			],
			"stateMutability": "view",
			"type": "function"
		},
		{
			"inputs": [],
			"name": "LOAN_COORDINATOR_ROLE",
			"outputs": [
				{
					"internalType": "bytes32",
					"name": "",
					"type": "bytes32"
				}
			],
			"stateMutability": "view",
			"type": "function"
		},
		{
			"inputs": [
				{
					"internalType": "address",
					"name": "to",
					"type": "address"
				},
				{
					"internalType": "uint256",
					"name": "tokenId",
					"type": "uint256"
				}
			],
			"name": "approve",
			"outputs": [],
			"stateMutability": "nonpayable",
			"type": "function"
		},
		{
			"inputs": [
				{
					"internalType": "address",
					"name": "owner",
					"type": "address"
				}
			],
			"name": "balanceOf",
			"outputs": [
				{
					"internalType": "uint256",
					"name": "",
					"type": "uint256"
				}
			],
			"stateMutability": "view",
			"type": "function"
		},
		{
			"inputs": [],
			"name": "baseURI",
			"outputs": [
				{
					"internalType": "string",
					"name": "",
					"type": "string"
				}
			],
			"stateMutability": "view",
			"type": "function"
		},
		{
			"inputs": [
				{
					"internalType": "uint256",
					"name": "_tokenId",
					"type": "uint256"
				}
			],
			"name": "burn",
			"outputs": [],
			"stateMutability": "nonpayable",
			"type": "function"
		},
		{
			"inputs": [
				{
					"internalType": "uint256",
					"name": "_tokenId",
					"type": "uint256"
				}
			],
			"name": "exists",
			"outputs": [
				{
					"internalType": "bool",
					"name": "",
					"type": "bool"
				}
			],
			"stateMutability": "view",
			"type": "function"
		},
		{
			"inputs": [
				{
					"internalType": "uint256",
					"name": "tokenId",
					"type": "uint256"
				}
			],
			"name": "getApproved",
			"outputs": [
				{
					"internalType": "address",
					"name": "",
					"type": "address"
				}
			],
			"stateMutability": "view",
			"type": "function"
		},
		{
			"inputs": [
				{
					"internalType": "bytes32",
					"name": "role",
					"type": "bytes32"
				}
			],
			"name": "getRoleAdmin",
			"outputs": [
				{
					"internalType": "bytes32",
					"name": "",
					"type": "bytes32"
				}
			],
			"stateMutability": "view",
			"type": "function"
		},
		{
			"inputs": [
				{
					"internalType": "bytes32",
					"name": "role",
					"type": "bytes32"
				},
				{
					"internalType": "address",
					"name": "account",
					"type": "address"
				}
			],
			"name": "grantRole",
			"outputs": [],
			"stateMutability": "nonpayable",
			"type": "function"
		},
		{
			"inputs": [
				{
					"internalType": "bytes32",
					"name": "role",
					"type": "bytes32"
				},
				{
					"internalType": "address",
					"name": "account",
					"type": "address"
				}
			],
			"name": "hasRole",
			"outputs": [
				{
					"internalType": "bool",
					"name": "",
					"type": "bool"
				}
			],
			"stateMutability": "view",
			"type": "function"
		},
		{
			"inputs": [],
			"name": "hub",
			"outputs": [
				{
					"internalType": "contract INftfiHub",
					"name": "",
					"type": "address"
				}
			],
			"stateMutability": "view",
			"type": "function"
		},
		{
			"inputs": [
				{
					"internalType": "address",
					"name": "owner",
					"type": "address"
				},
				{
					"internalType": "address",
					"name": "operator",
					"type": "address"
				}
			],
			"name": "isApprovedForAll",
			"outputs": [
				{
					"internalType": "bool",
					"name": "",
					"type": "bool"
				}
			],
			"stateMutability": "view",
			"type": "function"
		},
		{
			"inputs": [
				{
					"internalType": "uint256",
					"name": "",
					"type": "uint256"
				}
			],
			"name": "loans",
			"outputs": [
				{
					"internalType": "address",
					"name": "loanCoordinator",
					"type": "address"
				},
				{
					"internalType": "uint256",
					"name": "loanId",
					"type": "uint256"
				}
			],
			"stateMutability": "view",
			"type": "function"
		},
		{
			"inputs": [
				{
					"internalType": "address",
					"name": "_to",
					"type": "address"
				},
				{
					"internalType": "uint256",
					"name": "_tokenId",
					"type": "uint256"
				},
				{
					"internalType": "bytes",
					"name": "_data",
					"type": "bytes"
				}
			],
			"name": "mint",
			"outputs": [],
			"stateMutability": "nonpayable",
			"type": "function"
		},
		{
			"inputs": [],
			"name": "name",
			"outputs": [
				{
					"internalType": "string",
					"name": "",
					"type": "string"
				}
			],
			"stateMutability": "view",
			"type": "function"
		},
		{
			"inputs": [
				{
					"internalType": "uint256",
					"name": "tokenId",
					"type": "uint256"
				}
			],
			"name": "ownerOf",
			"outputs": [
				{
					"internalType": "address",
					"name": "",
					"type": "address"
				}
			],
			"stateMutability": "view",
			"type": "function"
		},
		{
			"inputs": [
				{
					"internalType": "bytes32",
					"name": "role",
					"type": "bytes32"
				},
				{
					"internalType": "address",
					"name": "account",
					"type": "address"
				}
			],
			"name": "renounceRole",
			"outputs": [],
			"stateMutability": "nonpayable",
			"type": "function"
		},
		{
			"inputs": [
				{
					"internalType": "bytes32",
					"name": "role",
					"type": "bytes32"
				},
				{
					"internalType": "address",
					"name": "account",
					"type": "address"
				}
			],
			"name": "revokeRole",
			"outputs": [],
			"stateMutability": "nonpayable",
			"type": "function"
		},
		{
			"inputs": [
				{
					"internalType": "address",
					"name": "from",
					"type": "address"
				},
				{
					"internalType": "address",
					"name": "to",
					"type": "address"
				},
				{
					"internalType": "uint256",
					"name": "tokenId",
					"type": "uint256"
				}
			],
			"name": "safeTransferFrom",
			"outputs": [],
			"stateMutability": "nonpayable",
			"type": "function"
		},
		{
			"inputs": [
				{
					"internalType": "address",
					"name": "from",
					"type": "address"
				},
				{
					"internalType": "address",
					"name": "to",
					"type": "address"
				},
				{
					"internalType": "uint256",
					"name": "tokenId",
					"type": "uint256"
				},
				{
					"internalType": "bytes",
					"name": "data",
					"type": "bytes"
				}
			],
			"name": "safeTransferFrom",
			"outputs": [],
			"stateMutability": "nonpayable",
			"type": "function"
		},
		{
			"inputs": [
				{
					"internalType": "address",
					"name": "operator",
					"type": "address"
				},
				{
					"internalType": "bool",
					"name": "approved",
					"type": "bool"
				}
			],
			"name": "setApprovalForAll",
			"outputs": [],
			"stateMutability": "nonpayable",
			"type": "function"
		},
		{
			"inputs": [
				{
					"internalType": "string",
					"name": "_customBaseURI",
					"type": "string"
				}
			],
			"name": "setBaseURI",
			"outputs": [],
			"stateMutability": "nonpayable",
			"type": "function"
		},
		{
			"inputs": [
				{
					"internalType": "address",
					"name": "_account",
					"type": "address"
				}
			],
			"name": "setLoanCoordinator",
			"outputs": [],
			"stateMutability": "nonpayable",
			"type": "function"
		},
		{
			"inputs": [
				{
					"internalType": "bytes4",
					"name": "_interfaceId",
					"type": "bytes4"
				}
			],
			"name": "supportsInterface",
			"outputs": [
				{
					"internalType": "bool",
					"name": "",
					"type": "bool"
				}
			],
			"stateMutability": "view",
			"type": "function"
		},
		{
			"inputs": [],
			"name": "symbol",
			"outputs": [
				{
					"internalType": "string",
					"name": "",
					"type": "string"
				}
			],
			"stateMutability": "view",
			"type": "function"
		},
		{
			"inputs": [
				{
					"internalType": "uint256",
					"name": "tokenId",
					"type": "uint256"
				}
			],
			"name": "tokenURI",
			"outputs": [
				{
					"internalType": "string",
					"name": "",
					"type": "string"
				}
			],
			"stateMutability": "view",
			"type": "function"
		},
		{
			"inputs": [
				{
					"internalType": "address",
					"name": "from",
					"type": "address"
				},
				{
					"internalType": "address",
					"name": "to",
					"type": "address"
				},
				{
					"internalType": "uint256",
					"name": "tokenId",
					"type": "uint256"
				}
			],
			"name": "transferFrom",
			"outputs": [],
			"stateMutability": "nonpayable",
			"type": "function"
		}
	]
}