{
	"contracts/utils/NFTfiSigningUtils.sol": {
		"NFTfiSigningUtils": {
			"abi": [
				{
					"inputs": [],
					"name": "getChainID",
					"outputs": [
						{
							"internalType": "uint256",
							"name": "",
							"type": "uint256"
						}
					],
					"stateMutability": "view",
					"type": "function"
				},
				{
					"inputs": [
						{
							"components": [
								{
									"internalType": "uint256",
									"name": "minLoanPrincipalAmount",
									"type": "uint256"
								},
								{
									"internalType": "uint256",
									"name": "maxLoanPrincipalAmount",
									"type": "uint256"
								},
								{
									"internalType": "uint256",
									"name": "nftCollateralId",
									"type": "uint256"
								},
								{
									"internalType": "address",
									"name": "nftCollateralContract",
									"type": "address"
								},
								{
									"internalType": "uint32",
									"name": "minLoanDuration",
									"type": "uint32"
								},
								{
									"internalType": "uint32",
									"name": "maxLoanDuration",
									"type": "uint32"
								},
								{
									"internalType": "uint16",
									"name": "maxInterestRateForDurationInBasisPoints",
									"type": "uint16"
								},
								{
									"internalType": "uint16",
									"name": "referralFeeInBasisPoints",
									"type": "uint16"
								},
								{
									"internalType": "address",
									"name": "revenueSharePartner",
									"type": "address"
								},
								{
									"internalType": "address",
									"name": "loanERC20Denomination",
									"type": "address"
								}
							],
							"internalType": "struct LoanData.ListingTerms",
							"name": "_listingTerms",
							"type": "tuple"
						},
						{
							"components": [
								{
									"internalType": "uint256",
									"name": "nonce",
									"type": "uint256"
								},
								{
									"internalType": "uint256",
									"name": "expiry",
									"type": "uint256"
								},
								{
									"internalType": "address",
									"name": "signer",
									"type": "address"
								},
								{
									"internalType": "bytes",
									"name": "signature",
									"type": "bytes"
								}
							],
							"internalType": "struct LoanData.Signature",
							"name": "_signature",
							"type": "tuple"
						}
					],
					"name": "isValidBorrowerSignature",
					"outputs": [
						{
							"internalType": "bool",
							"name": "",
							"type": "bool"
						}
					],
					"stateMutability": "view",
					"type": "function"
				},
				{
					"inputs": [
						{
							"components": [
								{
									"internalType": "uint256",
									"name": "minLoanPrincipalAmount",
									"type": "uint256"
								},
								{
									"internalType": "uint256",
									"name": "maxLoanPrincipalAmount",
									"type": "uint256"
								},
								{
									"internalType": "uint256",
									"name": "nftCollateralId",
									"type": "uint256"
								},
								{
									"internalType": "address",
									"name": "nftCollateralContract",
									"type": "address"
								},
								{
									"internalType": "uint32",
									"name": "minLoanDuration",
									"type": "uint32"
								},
								{
									"internalType": "uint32",
									"name": "maxLoanDuration",
									"type": "uint32"
								},
								{
									"internalType": "uint16",
									"name": "maxInterestRateForDurationInBasisPoints",
									"type": "uint16"
								},
								{
									"internalType": "uint16",
									"name": "referralFeeInBasisPoints",
									"type": "uint16"
								},
								{
									"internalType": "address",
									"name": "revenueSharePartner",
									"type": "address"
								},
								{
									"internalType": "address",
									"name": "loanERC20Denomination",
									"type": "address"
								}
							],
							"internalType": "struct LoanData.ListingTerms",
							"name": "_listingTerms",
							"type": "tuple"
						},
						{
							"components": [
								{
									"internalType": "uint256",
									"name": "nonce",
									"type": "uint256"
								},
								{
									"internalType": "uint256",
									"name": "expiry",
									"type": "uint256"
								},
								{
									"internalType": "address",
									"name": "signer",
									"type": "address"
								},
								{
									"internalType": "bytes",
									"name": "signature",
									"type": "bytes"
								}
							],
							"internalType": "struct LoanData.Signature",
							"name": "_signature",
							"type": "tuple"
						},
						{
							"internalType": "address",
							"name": "_loanContract",
							"type": "address"
						}
					],
					"name": "isValidBorrowerSignature",
					"outputs": [
						{
							"internalType": "bool",
							"name": "",
							"type": "bool"
						}
					],
					"stateMutability": "view",
					"type": "function"
				},
				{
					"inputs": [
						{
							"components": [
								{
									"internalType": "uint256",
									"name": "minLoanPrincipalAmount",
									"type": "uint256"
								},
								{
									"internalType": "uint256",
									"name": "maxLoanPrincipalAmount",
									"type": "uint256"
								},
								{
									"internalType": "uint256",
									"name": "nftCollateralId",
									"type": "uint256"
								},
								{
									"internalType": "address",
									"name": "nftCollateralContract",
									"type": "address"
								},
								{
									"internalType": "uint32",
									"name": "minLoanDuration",
									"type": "uint32"
								},
								{
									"internalType": "uint32",
									"name": "maxLoanDuration",
									"type": "uint32"
								},
								{
									"internalType": "uint16",
									"name": "maxInterestRateForDurationInBasisPoints",
									"type": "uint16"
								},
								{
									"internalType": "uint16",
									"name": "referralFeeInBasisPoints",
									"type": "uint16"
								},
								{
									"internalType": "address",
									"name": "revenueSharePartner",
									"type": "address"
								},
								{
									"internalType": "address",
									"name": "loanERC20Denomination",
									"type": "address"
								}
							],
							"internalType": "struct LoanData.ListingTerms",
							"name": "_listingTerms",
							"type": "tuple"
						},
						{
							"components": [
								{
									"components": [
										{
											"internalType": "address",
											"name": "tokenContract",
											"type": "address"
										},
										{
											"internalType": "uint256",
											"name": "id",
											"type": "uint256"
										},
										{
											"internalType": "bool",
											"name": "safeTransferable",
											"type": "bool"
										}
									],
									"internalType": "struct IBundleBuilder.BundleElementERC721[]",
									"name": "erc721s",
									"type": "tuple[]"
								},
								{
									"components": [
										{
											"internalType": "address",
											"name": "tokenContract",
											"type": "address"
										},
										{
											"internalType": "uint256",
											"name": "amount",
											"type": "uint256"
										}
									],
									"internalType": "struct IBundleBuilder.BundleElementERC20[]",
									"name": "erc20s",
									"type": "tuple[]"
								},
								{
									"components": [
										{
											"internalType": "address",
											"name": "tokenContract",
											"type": "address"
										},
										{
											"internalType": "uint256[]",
											"name": "ids",
											"type": "uint256[]"
										},
										{
											"internalType": "uint256[]",
											"name": "amounts",
											"type": "uint256[]"
										}
									],
									"internalType": "struct IBundleBuilder.BundleElementERC1155[]",
									"name": "erc1155s",
									"type": "tuple[]"
								}
							],
							"internalType": "struct IBundleBuilder.BundleElements",
							"name": "_bundleElements",
							"type": "tuple"
						},
						{
							"components": [
								{
									"internalType": "uint256",
									"name": "nonce",
									"type": "uint256"
								},
								{
									"internalType": "uint256",
									"name": "expiry",
									"type": "uint256"
								},
								{
									"internalType": "address",
									"name": "signer",
									"type": "address"
								},
								{
									"internalType": "bytes",
									"name": "signature",
									"type": "bytes"
								}
							],
							"internalType": "struct LoanData.Signature",
							"name": "_signature",
							"type": "tuple"
						}
					],
					"name": "isValidBorrowerSignatureBundle",
					"outputs": [
						{
							"internalType": "bool",
							"name": "",
							"type": "bool"
						}
					],
					"stateMutability": "view",
					"type": "function"
				},
				{
					"inputs": [
						{
							"components": [
								{
									"internalType": "uint256",
									"name": "minLoanPrincipalAmount",
									"type": "uint256"
								},
								{
									"internalType": "uint256",
									"name": "maxLoanPrincipalAmount",
									"type": "uint256"
								},
								{
									"internalType": "uint256",
									"name": "nftCollateralId",
									"type": "uint256"
								},
								{
									"internalType": "address",
									"name": "nftCollateralContract",
									"type": "address"
								},
								{
									"internalType": "uint32",
									"name": "minLoanDuration",
									"type": "uint32"
								},
								{
									"internalType": "uint32",
									"name": "maxLoanDuration",
									"type": "uint32"
								},
								{
									"internalType": "uint16",
									"name": "maxInterestRateForDurationInBasisPoints",
									"type": "uint16"
								},
								{
									"internalType": "uint16",
									"name": "referralFeeInBasisPoints",
									"type": "uint16"
								},
								{
									"internalType": "address",
									"name": "revenueSharePartner",
									"type": "address"
								},
								{
									"internalType": "address",
									"name": "loanERC20Denomination",
									"type": "address"
								}
							],
							"internalType": "struct LoanData.ListingTerms",
							"name": "_listingTerms",
							"type": "tuple"
						},
						{
							"components": [
								{
									"components": [
										{
											"internalType": "address",
											"name": "tokenContract",
											"type": "address"
										},
										{
											"internalType": "uint256",
											"name": "id",
											"type": "uint256"
										},
										{
											"internalType": "bool",
											"name": "safeTransferable",
											"type": "bool"
										}
									],
									"internalType": "struct IBundleBuilder.BundleElementERC721[]",
									"name": "erc721s",
									"type": "tuple[]"
								},
								{
									"components": [
										{
											"internalType": "address",
											"name": "tokenContract",
											"type": "address"
										},
										{
											"internalType": "uint256",
											"name": "amount",
											"type": "uint256"
										}
									],
									"internalType": "struct IBundleBuilder.BundleElementERC20[]",
									"name": "erc20s",
									"type": "tuple[]"
								},
								{
									"components": [
										{
											"internalType": "address",
											"name": "tokenContract",
											"type": "address"
										},
										{
											"internalType": "uint256[]",
											"name": "ids",
											"type": "uint256[]"
										},
										{
											"internalType": "uint256[]",
											"name": "amounts",
											"type": "uint256[]"
										}
									],
									"internalType": "struct IBundleBuilder.BundleElementERC1155[]",
									"name": "erc1155s",
									"type": "tuple[]"
								}
							],
							"internalType": "struct IBundleBuilder.BundleElements",
							"name": "_bundleElements",
							"type": "tuple"
						},
						{
							"components": [
								{
									"internalType": "uint256",
									"name": "nonce",
									"type": "uint256"
								},
								{
									"internalType": "uint256",
									"name": "expiry",
									"type": "uint256"
								},
								{
									"internalType": "address",
									"name": "signer",
									"type": "address"
								},
								{
									"internalType": "bytes",
									"name": "signature",
									"type": "bytes"
								}
							],
							"internalType": "struct LoanData.Signature",
							"name": "_signature",
							"type": "tuple"
						},
						{
							"internalType": "address",
							"name": "_loanContract",
							"type": "address"
						}
					],
					"name": "isValidBorrowerSignatureBundle",
					"outputs": [
						{
							"internalType": "bool",
							"name": "",
							"type": "bool"
						}
					],
					"stateMutability": "view",
					"type": "function"
				},
				{
					"inputs": [
						{
							"internalType": "uint256",
							"name": "_loanId",
							"type": "uint256"
						},
						{
							"internalType": "uint32",
							"name": "_newLoanDuration",
							"type": "uint32"
						},
						{
							"internalType": "uint256",
							"name": "_newMaximumRepaymentAmount",
							"type": "uint256"
						},
						{
							"internalType": "uint256",
							"name": "_renegotiationFee",
							"type": "uint256"
						},
						{
							"components": [
								{
									"internalType": "uint256",
									"name": "nonce",
									"type": "uint256"
								},
								{
									"internalType": "uint256",
									"name": "expiry",
									"type": "uint256"
								},
								{
									"internalType": "address",
									"name": "signer",
									"type": "address"
								},
								{
									"internalType": "bytes",
									"name": "signature",
									"type": "bytes"
								}
							],
							"internalType": "struct LoanData.Signature",
							"name": "_signature",
							"type": "tuple"
						},
						{
							"internalType": "address",
							"name": "_loanContract",
							"type": "address"
						}
					],
					"name": "isValidLenderRenegotiationSignature",
					"outputs": [
						{
							"internalType": "bool",
							"name": "",
							"type": "bool"
						}
					],
					"stateMutability": "view",
					"type": "function"
				},
				{
					"inputs": [
						{
							"internalType": "uint256",
							"name": "_loanId",
							"type": "uint256"
						},
						{
							"internalType": "uint32",
							"name": "_newLoanDuration",
							"type": "uint32"
						},
						{
							"internalType": "uint256",
							"name": "_newMaximumRepaymentAmount",
							"type": "uint256"
						},
						{
							"internalType": "uint256",
							"name": "_renegotiationFee",
							"type": "uint256"
						},
						{
							"components": [
								{
									"internalType": "uint256",
									"name": "nonce",
									"type": "uint256"
								},
								{
									"internalType": "uint256",
									"name": "expiry",
									"type": "uint256"
								},
								{
									"internalType": "address",
									"name": "signer",
									"type": "address"
								},
								{
									"internalType": "bytes",
									"name": "signature",
									"type": "bytes"
								}
							],
							"internalType": "struct LoanData.Signature",
							"name": "_signature",
							"type": "tuple"
						}
					],
					"name": "isValidLenderRenegotiationSignature",
					"outputs": [
						{
							"internalType": "bool",
							"name": "",
							"type": "bool"
						}
					],
					"stateMutability": "view",
					"type": "function"
				},
				{
					"inputs": [
						{
							"components": [
								{
									"internalType": "uint256",
									"name": "loanPrincipalAmount",
									"type": "uint256"
								},
								{
									"internalType": "uint256",
									"name": "maximumRepaymentAmount",
									"type": "uint256"
								},
								{
									"internalType": "uint256",
									"name": "nftCollateralId",
									"type": "uint256"
								},
								{
									"internalType": "address",
									"name": "nftCollateralContract",
									"type": "address"
								},
								{
									"internalType": "uint32",
									"name": "loanDuration",
									"type": "uint32"
								},
								{
									"internalType": "uint16",
									"name": "loanAdminFeeInBasisPoints",
									"type": "uint16"
								},
								{
									"internalType": "address",
									"name": "loanERC20Denomination",
									"type": "address"
								},
								{
									"internalType": "address",
									"name": "referrer",
									"type": "address"
								}
							],
							"internalType": "struct LoanData.Offer",
							"name": "_offer",
							"type": "tuple"
						},
						{
							"components": [
								{
									"internalType": "uint256",
									"name": "nonce",
									"type": "uint256"
								},
								{
									"internalType": "uint256",
									"name": "expiry",
									"type": "uint256"
								},
								{
									"internalType": "address",
									"name": "signer",
									"type": "address"
								},
								{
									"internalType": "bytes",
									"name": "signature",
									"type": "bytes"
								}
							],
							"internalType": "struct LoanData.Signature",
							"name": "_signature",
							"type": "tuple"
						},
						{
							"internalType": "address",
							"name": "_loanContract",
							"type": "address"
						}
					],
					"name": "isValidLenderSignature",
					"outputs": [
						{
							"internalType": "bool",
							"name": "",
							"type": "bool"
						}
					],
					"stateMutability": "view",
					"type": "function"
				},
				{
					"inputs": [
						{
							"components": [
								{
									"internalType": "uint256",
									"name": "loanPrincipalAmount",
									"type": "uint256"
								},
								{
									"internalType": "uint256",
									"name": "maximumRepaymentAmount",
									"type": "uint256"
								},
								{
									"internalType": "uint256",
									"name": "nftCollateralId",
									"type": "uint256"
								},
								{
									"internalType": "address",
									"name": "nftCollateralContract",
									"type": "address"
								},
								{
									"internalType": "uint32",
									"name": "loanDuration",
									"type": "uint32"
								},
								{
									"internalType": "uint16",
									"name": "loanAdminFeeInBasisPoints",
									"type": "uint16"
								},
								{
									"internalType": "address",
									"name": "loanERC20Denomination",
									"type": "address"
								},
								{
									"internalType": "address",
									"name": "referrer",
									"type": "address"
								}
							],
							"internalType": "struct LoanData.Offer",
							"name": "_offer",
							"type": "tuple"
						},
						{
							"components": [
								{
									"internalType": "uint256",
									"name": "nonce",
									"type": "uint256"
								},
								{
									"internalType": "uint256",
									"name": "expiry",
									"type": "uint256"
								},
								{
									"internalType": "address",
									"name": "signer",
									"type": "address"
								},
								{
									"internalType": "bytes",
									"name": "signature",
									"type": "bytes"
								}
							],
							"internalType": "struct LoanData.Signature",
							"name": "_signature",
							"type": "tuple"
						}
					],
					"name": "isValidLenderSignature",
					"outputs": [
						{
							"internalType": "bool",
							"name": "",
							"type": "bool"
						}
					],
					"stateMutability": "view",
					"type": "function"
				},
				{
					"inputs": [
						{
							"components": [
								{
									"internalType": "uint256",
									"name": "loanPrincipalAmount",
									"type": "uint256"
								},
								{
									"internalType": "uint256",
									"name": "maximumRepaymentAmount",
									"type": "uint256"
								},
								{
									"internalType": "uint256",
									"name": "nftCollateralId",
									"type": "uint256"
								},
								{
									"internalType": "address",
									"name": "nftCollateralContract",
									"type": "address"
								},
								{
									"internalType": "uint32",
									"name": "loanDuration",
									"type": "uint32"
								},
								{
									"internalType": "uint16",
									"name": "loanAdminFeeInBasisPoints",
									"type": "uint16"
								},
								{
									"internalType": "address",
									"name": "loanERC20Denomination",
									"type": "address"
								},
								{
									"internalType": "address",
									"name": "referrer",
									"type": "address"
								}
							],
							"internalType": "struct LoanData.Offer",
							"name": "_offer",
							"type": "tuple"
						},
						{
							"components": [
								{
									"components": [
										{
											"internalType": "address",
											"name": "tokenContract",
											"type": "address"
										},
										{
											"internalType": "uint256",
											"name": "id",
											"type": "uint256"
										},
										{
											"internalType": "bool",
											"name": "safeTransferable",
											"type": "bool"
										}
									],
									"internalType": "struct IBundleBuilder.BundleElementERC721[]",
									"name": "erc721s",
									"type": "tuple[]"
								},
								{
									"components": [
										{
											"internalType": "address",
											"name": "tokenContract",
											"type": "address"
										},
										{
											"internalType": "uint256",
											"name": "amount",
											"type": "uint256"
										}
									],
									"internalType": "struct IBundleBuilder.BundleElementERC20[]",
									"name": "erc20s",
									"type": "tuple[]"
								},
								{
									"components": [
										{
											"internalType": "address",
											"name": "tokenContract",
											"type": "address"
										},
										{
											"internalType": "uint256[]",
											"name": "ids",
											"type": "uint256[]"
										},
										{
											"internalType": "uint256[]",
											"name": "amounts",
											"type": "uint256[]"
										}
									],
									"internalType": "struct IBundleBuilder.BundleElementERC1155[]",
									"name": "erc1155s",
									"type": "tuple[]"
								}
							],
							"internalType": "struct IBundleBuilder.BundleElements",
							"name": "_bundleElements",
							"type": "tuple"
						},
						{
							"components": [
								{
									"internalType": "uint256",
									"name": "nonce",
									"type": "uint256"
								},
								{
									"internalType": "uint256",
									"name": "expiry",
									"type": "uint256"
								},
								{
									"internalType": "address",
									"name": "signer",
									"type": "address"
								},
								{
									"internalType": "bytes",
									"name": "signature",
									"type": "bytes"
								}
							],
							"internalType": "struct LoanData.Signature",
							"name": "_signature",
							"type": "tuple"
						},
						{
							"internalType": "address",
							"name": "_loanContract",
							"type": "address"
						}
					],
					"name": "isValidLenderSignatureBundle",
					"outputs": [
						{
							"internalType": "bool",
							"name": "",
							"type": "bool"
						}
					],
					"stateMutability": "view",
					"type": "function"
				},
				{
					"inputs": [
						{
							"components": [
								{
									"internalType": "uint256",
									"name": "loanPrincipalAmount",
									"type": "uint256"
								},
								{
									"internalType": "uint256",
									"name": "maximumRepaymentAmount",
									"type": "uint256"
								},
								{
									"internalType": "uint256",
									"name": "nftCollateralId",
									"type": "uint256"
								},
								{
									"internalType": "address",
									"name": "nftCollateralContract",
									"type": "address"
								},
								{
									"internalType": "uint32",
									"name": "loanDuration",
									"type": "uint32"
								},
								{
									"internalType": "uint16",
									"name": "loanAdminFeeInBasisPoints",
									"type": "uint16"
								},
								{
									"internalType": "address",
									"name": "loanERC20Denomination",
									"type": "address"
								},
								{
									"internalType": "address",
									"name": "referrer",
									"type": "address"
								}
							],
							"internalType": "struct LoanData.Offer",
							"name": "_offer",
							"type": "tuple"
						},
						{
							"components": [
								{
									"components": [
										{
											"internalType": "address",
											"name": "tokenContract",
											"type": "address"
										},
										{
											"internalType": "uint256",
											"name": "id",
											"type": "uint256"
										},
										{
											"internalType": "bool",
											"name": "safeTransferable",
											"type": "bool"
										}
									],
									"internalType": "struct IBundleBuilder.BundleElementERC721[]",
									"name": "erc721s",
									"type": "tuple[]"
								},
								{
									"components": [
										{
											"internalType": "address",
											"name": "tokenContract",
											"type": "address"
										},
										{
											"internalType": "uint256",
											"name": "amount",
											"type": "uint256"
										}
									],
									"internalType": "struct IBundleBuilder.BundleElementERC20[]",
									"name": "erc20s",
									"type": "tuple[]"
								},
								{
									"components": [
										{
											"internalType": "address",
											"name": "tokenContract",
											"type": "address"
										},
										{
											"internalType": "uint256[]",
											"name": "ids",
											"type": "uint256[]"
										},
										{
											"internalType": "uint256[]",
											"name": "amounts",
											"type": "uint256[]"
										}
									],
									"internalType": "struct IBundleBuilder.BundleElementERC1155[]",
									"name": "erc1155s",
									"type": "tuple[]"
								}
							],
							"internalType": "struct IBundleBuilder.BundleElements",
							"name": "_bundleElements",
							"type": "tuple"
						},
						{
							"components": [
								{
									"internalType": "uint256",
									"name": "nonce",
									"type": "uint256"
								},
								{
									"internalType": "uint256",
									"name": "expiry",
									"type": "uint256"
								},
								{
									"internalType": "address",
									"name": "signer",
									"type": "address"
								},
								{
									"internalType": "bytes",
									"name": "signature",
									"type": "bytes"
								}
							],
							"internalType": "struct LoanData.Signature",
							"name": "_signature",
							"type": "tuple"
						}
					],
					"name": "isValidLenderSignatureBundle",
					"outputs": [
						{
							"internalType": "bool",
							"name": "",
							"type": "bool"
						}
					],
					"stateMutability": "view",
					"type": "function"
				}
			],
			"devdoc": {
				"author": "NFTfi",
				"kind": "dev",
				"methods": {
					"getChainID()": {
						"details": "This function gets the current chain ID."
					},
					"isValidBorrowerSignature(LoanData.ListingTerms,LoanData.Signature)": {
						"params": {
							"_listingTerms": "- The listing terms struct containing: - loanERC20Denomination: The address of the ERC20 contract of the currency being used as principal/interest for this loan. - minLoanPrincipalAmount: The minumum sum of money transferred from lender to borrower at the beginning of the loan, measured in loanERC20Denomination's smallest units. - maxLoanPrincipalAmount: The  sum of money transferred from lender to borrower at the beginning of the loan, measured in loanERC20Denomination's smallest units. - maximumRepaymentAmount: The maximum amount of money that the borrower would be required to retrieve their collateral, measured in the smallest units of the ERC20 currency used for the loan. The borrower will always have to pay this amount to retrieve their collateral, regardless of whether they repay early. - nftCollateralContract: The address of the ERC721 contract of the NFT collateral. - nftCollateralId: The ID within the NFTCollateralContract for the NFT being used as collateral for this loan. The NFT is stored within this contract during the duration of the loan. - revenueSharePartner: The address of the partner that will receive the revenue share. - minLoanDuration: The minumum amount of time (measured in seconds) that can elapse before the lender can liquidate the loan and seize the underlying collateral NFT. - maxLoanDuration: The maximum amount of time (measured in seconds) that can elapse before the lender can liquidate the loan and seize the underlying collateral NFT. - maxInterestRateForDurationInBasisPoints: This is maximum the interest rate (measured in basis points, e.g. hundreths of a percent) for the loan, that must be repaid pro-rata by the borrower at the conclusion of the loan or risk seizure of their nft collateral. Note if the type of the loan is fixed then this value  is not used and is irrelevant so it should be set to 0. - referralFeeInBasisPoints: The percent (measured in basis points) of the loan principal amount that will be taken as a fee to pay to the referrer, 0 if the lender is not paying referral fee.",
							"_signature": "- The offer struct containing: - signer: The address of the signer. The borrower for `acceptOffer` the lender for `acceptListing`. - nonce: The nonce referred here is not the same as an Ethereum account's nonce. We are referring instead to a nonce that is used by the lender or the borrower when they are first signing off-chain NFTfi orders. These nonce can be any uint256 value that the user has not previously used to sign an off-chain order. Each nonce can be used at most once per user within NFTfi, regardless of whether they are the lender or the borrower in that situation. This serves two purposes:   - First, it prevents replay attacks where an attacker would submit a user's off-chain order more than once.   - Second, it allows a user to cancel an off-chain order by calling NFTfi.cancelLoanCommitmentBeforeLoanHasBegun(), which marks the nonce as used and prevents any future loan from using the user's off-chain order that contains that nonce. - expiry: Date when the signature expires - signature: The ECDSA signature of the borrower, obtained off-chain ahead of time, signing the following combination of parameters:   - listingTerms.loanERC20Denomination,   - listingTerms.minLoanPrincipalAmount,   - listingTerms.maxLoanPrincipalAmount,   - listingTerms.nftCollateralContract,   - listingTerms.nftCollateralId,   - listingTerms.revenueSharePartner,   - listingTerms.minLoanDuration,   - listingTerms.maxLoanDuration,   - listingTerms.maxInterestRateForDurationInBasisPoints,   - listingTerms.referralFeeInBasisPoints,   - signature.signer,   - signature.nonce,   - signature.expiry,   - address of this contract   - chainId"
						}
					},
					"isValidBorrowerSignature(LoanData.ListingTerms,LoanData.Signature,address)": {
						"details": "This function overload the previous function to allow the caller to specify the address of the contract"
					},
					"isValidBorrowerSignatureBundle(LoanData.ListingTerms,IBundleBuilder.BundleElements,LoanData.Signature)": {
						"params": {
							"_bundleElements": "- the lists of erc721-20-1155 tokens that are to be bundled",
							"_listingTerms": "- The listing terms struct containing: - loanERC20Denomination: The address of the ERC20 contract of the currency being used as principal/interest for this loan. - minLoanPrincipalAmount: The minumum sum of money transferred from lender to borrower at the beginning of the loan, measured in loanERC20Denomination's smallest units. - maxLoanPrincipalAmount: The  sum of money transferred from lender to borrower at the beginning of the loan, measured in loanERC20Denomination's smallest units. - maximumRepaymentAmount: The maximum amount of money that the borrower would be required to retrieve their collateral, measured in the smallest units of the ERC20 currency used for the loan. The borrower will always have to pay this amount to retrieve their collateral, regardless of whether they repay early. - nftCollateralContract: The address of the ERC721 contract of the NFT collateral. - nftCollateralId: The ID within the NFTCollateralContract for the NFT being used as collateral for this loan. The NFT is stored within this contract during the duration of the loan. - revenueSharePartner: The address of the partner that will receive the revenue share. - minLoanDuration: The minumum amount of time (measured in seconds) that can elapse before the lender can liquidate the loan and seize the underlying collateral NFT. - maxLoanDuration: The maximum amount of time (measured in seconds) that can elapse before the lender can liquidate the loan and seize the underlying collateral NFT. - maxInterestRateForDurationInBasisPoints: This is maximum the interest rate (measured in basis points, e.g. hundreths of a percent) for the loan, that must be repaid pro-rata by the borrower at the conclusion of the loan or risk seizure of their nft collateral. Note if the type of the loan is fixed then this value  is not used and is irrelevant so it should be set to 0. - referralFeeInBasisPoints: The percent (measured in basis points) of the loan principal amount that will be taken as a fee to pay to the referrer, 0 if the lender is not paying referral fee.",
							"_signature": "- The offer struct containing: - signer: The address of the signer. The borrower for `acceptOffer` the lender for `acceptListing`. - nonce: The nonce referred here is not the same as an Ethereum account's nonce. We are referring instead to a nonce that is used by the lender or the borrower when they are first signing off-chain NFTfi orders. These nonce can be any uint256 value that the user has not previously used to sign an off-chain order. Each nonce can be used at most once per user within NFTfi, regardless of whether they are the lender or the borrower in that situation. This serves two purposes:   - First, it prevents replay attacks where an attacker would submit a user's off-chain order more than once.   - Second, it allows a user to cancel an off-chain order by calling NFTfi.cancelLoanCommitmentBeforeLoanHasBegun(), which marks the nonce as used and prevents any future loan from using the user's off-chain order that contains that nonce. - expiry: Date when the signature expires - signature: The ECDSA signature of the borrower, obtained off-chain ahead of time, signing the following combination of parameters:   - listingTerms.loanERC20Denomination,   - listingTerms.minLoanPrincipalAmount,   - listingTerms.maxLoanPrincipalAmount,   - listingTerms.nftCollateralContract,   - listingTerms.nftCollateralId,   - listingTerms.revenueSharePartner,   - listingTerms.minLoanDuration,   - listingTerms.maxLoanDuration,   - listingTerms.maxInterestRateForDurationInBasisPoints,   - listingTerms.referralFeeInBasisPoints,   - bundleElements   - signature.signer,   - signature.nonce,   - signature.expiry,   - address of this contract   - chainId"
						}
					},
					"isValidBorrowerSignatureBundle(LoanData.ListingTerms,IBundleBuilder.BundleElements,LoanData.Signature,address)": {
						"details": "This function overload the previous function to allow the caller to specify the address of the contract"
					},
					"isValidLenderRenegotiationSignature(uint256,uint32,uint256,uint256,LoanData.Signature)": {
						"params": {
							"_loanId": "- The unique identifier for the loan to be renegotiated",
							"_newLoanDuration": "- The new amount of time (measured in seconds) that can elapse before the lender can liquidate the loan and seize the underlying collateral NFT.",
							"_newMaximumRepaymentAmount": "- The new maximum amount of money that the borrower would be required to retrieve their collateral, measured in the smallest units of the ERC20 currency used for the loan. The borrower will always have to pay this amount to retrieve their collateral, regardless of whether they repay early.",
							"_renegotiationFee": "Agreed upon fee in ether that borrower pays for the lender for the renegitiation",
							"_signature": "- The signature structure containing: - signer: The address of the signer. The borrower for `acceptOffer` the lender for `acceptListing`. - nonce: The nonce referred here is not the same as an Ethereum account's nonce. We are referring instead to a nonce that is used by the lender or the borrower when they are first signing off-chain NFTfi orders. These nonce can be any uint256 value that the user has not previously used to sign an off-chain order. Each nonce can be used at most once per user within NFTfi, regardless of whether they are the lender or the borrower in that situation. This serves two purposes: - First, it prevents replay attacks where an attacker would submit a user's off-chain order more than once. - Second, it allows a user to cancel an off-chain order by calling NFTfi.cancelLoanCommitmentBeforeLoanHasBegun() , which marks the nonce as used and prevents any future loan from using the user's off-chain order that contains that nonce. - expiry - The date when the renegotiation offer expires - lenderSignature - The ECDSA signature of the lender, obtained off-chain ahead of time, signing the following combination of parameters: - _loanId - _newLoanDuration - _newMaximumRepaymentAmount - _lender - _lenderNonce - _expiry - address of this contract - chainId"
						}
					},
					"isValidLenderRenegotiationSignature(uint256,uint32,uint256,uint256,LoanData.Signature,address)": {
						"details": "This function overload the previous function to allow the caller to specify the address of the contract"
					},
					"isValidLenderSignature(LoanData.Offer,LoanData.Signature)": {
						"params": {
							"_offer": "- The offer struct containing: - loanERC20Denomination: The address of the ERC20 contract of the currency being used as principal/interest for this loan. - loanPrincipalAmount: The original sum of money transferred from lender to borrower at the beginning of the loan, measured in loanERC20Denomination's smallest units. - maximumRepaymentAmount: The maximum amount of money that the borrower would be required to retrieve their collateral, measured in the smallest units of the ERC20 currency used for the loan. The borrower will always have to pay this amount to retrieve their collateral, regardless of whether they repay early. - nftCollateralContract: The address of the ERC721 contract of the NFT collateral. - nftCollateralId: The ID within the NFTCollateralContract for the NFT being used as collateral for this loan. The NFT is stored within this contract during the duration of the loan. - referrer: The address of the referrer who found the lender matching the listing, Zero address to signal this there is no referrer. - loanDuration: The amount of time (measured in seconds) that can elapse before the lender can liquidate the loan and seize the underlying collateral NFT. - loanInterestRateForDurationInBasisPoints: This is the interest rate (measured in basis points, e.g. hundreths of a percent) for the loan, that must be repaid pro-rata by the borrower at the conclusion of the loan or risk seizure of their nft collateral. Note if the type of the loan is fixed then this value  is not used and is irrelevant so it should be set to 0. - loanAdminFeeInBasisPoints: The percent (measured in basis points) of the interest earned that will be taken as a fee by the contract admins when the loan is repaid. The fee is stored in the loan struct to prevent an attack where the contract admins could adjust the fee right before a loan is repaid, and take all of the interest earned.",
							"_signature": "- The signature structure containing: - signer: The address of the signer. The borrower for `acceptOffer` the lender for `acceptListing`. - nonce: The nonce referred here is not the same as an Ethereum account's nonce. We are referring instead to a nonce that is used by the lender or the borrower when they are first signing off-chain NFTfi orders. These nonce can be any uint256 value that the user has not previously used to sign an off-chain order. Each nonce can be used at most once per user within NFTfi, regardless of whether they are the lender or the borrower in that situation. This serves two purposes:   - First, it prevents replay attacks where an attacker would submit a user's off-chain order more than once.   - Second, it allows a user to cancel an off-chain order by calling NFTfi.cancelLoanCommitmentBeforeLoanHasBegun(), which marks the nonce as used and prevents any future loan from using the user's off-chain order that contains that nonce. - expiry: Date when the signature expires - signature: The ECDSA signature of the lender, obtained off-chain ahead of time, signing the following combination of parameters:   - offer.loanERC20Denomination   - offer.loanPrincipalAmount   - offer.maximumRepaymentAmount   - offer.nftCollateralContract   - offer.nftCollateralId   - offer.referrer   - offer.loanDuration   - offer.loanAdminFeeInBasisPoints   - signature.signer,   - signature.nonce,   - signature.expiry,   - address of this contract   - chainId"
						}
					},
					"isValidLenderSignature(LoanData.Offer,LoanData.Signature,address)": {
						"details": "This function overload the previous function to allow the caller to specify the address of the contract"
					},
					"isValidLenderSignatureBundle(LoanData.Offer,IBundleBuilder.BundleElements,LoanData.Signature)": {
						"params": {
							"_bundleElements": "- the lists of erc721-20-1155 tokens that are to be bundled",
							"_offer": "- The offer struct containing: - loanERC20Denomination: The address of the ERC20 contract of the currency being used as principal/interest for this loan. - loanPrincipalAmount: The original sum of money transferred from lender to borrower at the beginning of the loan, measured in loanERC20Denomination's smallest units. - maximumRepaymentAmount: The maximum amount of money that the borrower would be required to retrieve their collateral, measured in the smallest units of the ERC20 currency used for the loan. The borrower will always have to pay this amount to retrieve their collateral, regardless of whether they repay early. - nftCollateralContract: The address of the ERC721 contract of the NFT collateral. - nftCollateralId: The ID within the NFTCollateralContract for the NFT being used as collateral for this loan. The NFT is stored within this contract during the duration of the loan. - referrer: The address of the referrer who found the lender matching the listing, Zero address to signal this there is no referrer. - loanDuration: The amount of time (measured in seconds) that can elapse before the lender can liquidate the loan and seize the underlying collateral NFT. - loanInterestRateForDurationInBasisPoints: This is the interest rate (measured in basis points, e.g. hundreths of a percent) for the loan, that must be repaid pro-rata by the borrower at the conclusion of the loan or risk seizure of their nft collateral. Note if the type of the loan is fixed then this value  is not used and is irrelevant so it should be set to 0. - loanAdminFeeInBasisPoints: The percent (measured in basis points) of the interest earned that will be taken as a fee by the contract admins when the loan is repaid. The fee is stored in the loan struct to prevent an attack where the contract admins could adjust the fee right before a loan is repaid, and take all of the interest earned.",
							"_signature": "- The signature structure containing: - signer: The address of the signer. The borrower for `acceptOffer` the lender for `acceptListing`. - nonce: The nonce referred here is not the same as an Ethereum account's nonce. We are referring instead to a nonce that is used by the lender or the borrower when they are first signing off-chain NFTfi orders. These nonce can be any uint256 value that the user has not previously used to sign an off-chain order. Each nonce can be used at most once per user within NFTfi, regardless of whether they are the lender or the borrower in that situation. This serves two purposes:   - First, it prevents replay attacks where an attacker would submit a user's off-chain order more than once.   - Second, it allows a user to cancel an off-chain order by calling NFTfi.cancelLoanCommitmentBeforeLoanHasBegun(), which marks the nonce as used and prevents any future loan from using the user's off-chain order that contains that nonce. - expiry: Date when the signature expires - signature: The ECDSA signature of the lender, obtained off-chain ahead of time, signing the following combination of parameters:   - offer.loanERC20Denomination   - offer.loanPrincipalAmount   - offer.maximumRepaymentAmount   - offer.nftCollateralContract   - offer.nftCollateralId   - offer.referrer   - offer.loanDuration   - offer.loanAdminFeeInBasisPoints   - bundleElements   - signature.signer,   - signature.nonce,   - signature.expiry,   - address of this contract   - chainId"
						}
					},
					"isValidLenderSignatureBundle(LoanData.Offer,IBundleBuilder.BundleElements,LoanData.Signature,address)": {
						"details": "This function overload the previous function to allow the caller to specify the address of the contract"
					}
				},
				"title": "NFTfiSigningUtils",
				"version": 1
			},
			"evm": {
				"assembly": "    /* \"contracts/utils/NFTfiSigningUtils.sol\":456:29439  library NFTfiSigningUtils {... */\n  dataSize(sub_0)\n  dataOffset(sub_0)\n  0x0b\n  dup3\n  dup3\n  dup3\n  codecopy\n  dup1\n  mload\n  0x00\n  byte\n  0x73\n  eq\n  tag_1\n  jumpi\n  mstore(0x00, 0x4e487b7100000000000000000000000000000000000000000000000000000000)\n  mstore(0x04, 0x00)\n  revert(0x00, 0x24)\ntag_1:\n  mstore(0x00, address)\n  0x73\n  dup2\n  mstore8\n  dup3\n  dup2\n  return\nstop\n\nsub_0: assembly {\n        /* \"contracts/utils/NFTfiSigningUtils.sol\":456:29439  library NFTfiSigningUtils {... */\n      eq(address, deployTimeAddress())\n      mstore(0x40, 0x80)\n      jumpi(tag_1, lt(calldatasize, 0x04))\n      shr(0xe0, calldataload(0x00))\n      dup1\n      0x87c0a573\n      gt\n      tag_13\n      jumpi\n      dup1\n      0x87c0a573\n      eq\n      tag_7\n      jumpi\n      dup1\n      0xa819956e\n      eq\n      tag_8\n      jumpi\n      dup1\n      0xc4212921\n      eq\n      tag_9\n      jumpi\n      dup1\n      0xd06ff741\n      eq\n      tag_10\n      jumpi\n      dup1\n      0xeb2ac63f\n      eq\n      tag_11\n      jumpi\n      dup1\n      0xfb7a322a\n      eq\n      tag_12\n      jumpi\n      jump(tag_1)\n    tag_13:\n      dup1\n      0x2eb68793\n      eq\n      tag_2\n      jumpi\n      dup1\n      0x3ce5ed9f\n      eq\n      tag_3\n      jumpi\n      dup1\n      0x4051a17a\n      eq\n      tag_4\n      jumpi\n      dup1\n      0x564b81ef\n      eq\n      tag_5\n      jumpi\n      dup1\n      0x6ab81ec0\n      eq\n      tag_6\n      jumpi\n    tag_1:\n      0x00\n      dup1\n      revert\n        /* \"contracts/utils/NFTfiSigningUtils.sol\":11042:11390  function isValidBorrowerSignatureBundle(... */\n    tag_2:\n      tag_14\n      0x04\n      dup1\n      calldatasize\n      sub\n      dup2\n      add\n      swap1\n      tag_15\n      swap2\n      swap1\n      tag_16\n      jump\t// in\n    tag_15:\n      tag_17\n      jump\t// in\n    tag_14:\n      mload(0x40)\n      tag_18\n      swap2\n      swap1\n      tag_19\n      jump\t// in\n    tag_18:\n      mload(0x40)\n      dup1\n      swap2\n      sub\n      swap1\n      return\n        /* \"contracts/utils/NFTfiSigningUtils.sol\":11535:12629  function isValidBorrowerSignatureBundle(... */\n    tag_3:\n      tag_20\n      0x04\n      dup1\n      calldatasize\n      sub\n      dup2\n      add\n      swap1\n      tag_21\n      swap2\n      swap1\n      tag_22\n      jump\t// in\n    tag_21:\n      tag_23\n      jump\t// in\n    tag_20:\n      mload(0x40)\n      tag_24\n      swap2\n      swap1\n      tag_19\n      jump\t// in\n    tag_24:\n      mload(0x40)\n      dup1\n      swap2\n      sub\n      swap1\n      return\n        /* \"contracts/utils/NFTfiSigningUtils.sol\":5185:5448  function isValidBorrowerSignature(LoanData.ListingTerms memory _listingTerms, LoanData.Signature memory _signature)... */\n    tag_4:\n      tag_25\n      0x04\n      dup1\n      calldatasize\n      sub\n      dup2\n      add\n      swap1\n      tag_26\n      swap2\n      swap1\n      tag_27\n      jump\t// in\n    tag_26:\n      tag_28\n      jump\t// in\n    tag_25:\n      mload(0x40)\n      tag_29\n      swap2\n      swap1\n      tag_19\n      jump\t// in\n    tag_29:\n      mload(0x40)\n      dup1\n      swap2\n      sub\n      swap1\n      return\n        /* \"contracts/utils/NFTfiSigningUtils.sol\":618:829  function getChainID() public view returns (uint256) {... */\n    tag_5:\n      tag_30\n      tag_31\n      jump\t// in\n    tag_30:\n      mload(0x40)\n      tag_32\n      swap2\n      swap1\n      tag_33\n      jump\t// in\n    tag_32:\n      mload(0x40)\n      dup1\n      swap2\n      sub\n      swap1\n      return\n        /* \"contracts/utils/NFTfiSigningUtils.sol\":16991:17843  function isValidLenderSignature(... */\n    tag_6:\n      tag_34\n      0x04\n      dup1\n      calldatasize\n      sub\n      dup2\n      add\n      swap1\n      tag_35\n      swap2\n      swap1\n      tag_36\n      jump\t// in\n    tag_35:\n      tag_37\n      jump\t// in\n    tag_34:\n      mload(0x40)\n      tag_38\n      swap2\n      swap1\n      tag_19\n      jump\t// in\n    tag_38:\n      mload(0x40)\n      dup1\n      swap2\n      sub\n      swap1\n      return\n        /* \"contracts/utils/NFTfiSigningUtils.sol\":26614:27792  function isValidLenderRenegotiationSignature(... */\n    tag_7:\n      tag_39\n      0x04\n      dup1\n      calldatasize\n      sub\n      dup2\n      add\n      swap1\n      tag_40\n      swap2\n      swap1\n      tag_41\n      jump\t// in\n    tag_40:\n      tag_42\n      jump\t// in\n    tag_39:\n      mload(0x40)\n      tag_43\n      swap2\n      swap1\n      tag_19\n      jump\t// in\n    tag_43:\n      mload(0x40)\n      dup1\n      swap2\n      sub\n      swap1\n      return\n        /* \"contracts/utils/NFTfiSigningUtils.sol\":22406:23473  function isValidLenderSignatureBundle(... */\n    tag_8:\n      tag_44\n      0x04\n      dup1\n      calldatasize\n      sub\n      dup2\n      add\n      swap1\n      tag_45\n      swap2\n      swap1\n      tag_46\n      jump\t// in\n    tag_45:\n      tag_47\n      jump\t// in\n    tag_44:\n      mload(0x40)\n      tag_48\n      swap2\n      swap1\n      tag_19\n      jump\t// in\n    tag_48:\n      mload(0x40)\n      dup1\n      swap2\n      sub\n      swap1\n      return\n        /* \"contracts/utils/NFTfiSigningUtils.sol\":5593:6570  function isValidBorrowerSignature(... */\n    tag_9:\n      tag_49\n      0x04\n      dup1\n      calldatasize\n      sub\n      dup2\n      add\n      swap1\n      tag_50\n      swap2\n      swap1\n      tag_51\n      jump\t// in\n    tag_50:\n      tag_52\n      jump\t// in\n    tag_49:\n      mload(0x40)\n      tag_53\n      swap2\n      swap1\n      tag_19\n      jump\t// in\n    tag_53:\n      mload(0x40)\n      dup1\n      swap2\n      sub\n      swap1\n      return\n        /* \"contracts/utils/NFTfiSigningUtils.sol\":25924:26469  function isValidLenderRenegotiationSignature(... */\n    tag_10:\n      tag_54\n      0x04\n      dup1\n      calldatasize\n      sub\n      dup2\n      add\n      swap1\n      tag_55\n      swap2\n      swap1\n      tag_56\n      jump\t// in\n    tag_55:\n      tag_57\n      jump\t// in\n    tag_54:\n      mload(0x40)\n      tag_58\n      swap2\n      swap1\n      tag_19\n      jump\t// in\n    tag_58:\n      mload(0x40)\n      dup1\n      swap2\n      sub\n      swap1\n      return\n        /* \"contracts/utils/NFTfiSigningUtils.sol\":16608:16846  function isValidLenderSignature(LoanData.Offer memory _offer, LoanData.Signature memory _signature)... */\n    tag_11:\n      tag_59\n      0x04\n      dup1\n      calldatasize\n      sub\n      dup2\n      add\n      swap1\n      tag_60\n      swap2\n      swap1\n      tag_61\n      jump\t// in\n    tag_60:\n      tag_62\n      jump\t// in\n    tag_59:\n      mload(0x40)\n      tag_63\n      swap2\n      swap1\n      tag_19\n      jump\t// in\n    tag_63:\n      mload(0x40)\n      dup1\n      swap2\n      sub\n      swap1\n      return\n        /* \"contracts/utils/NFTfiSigningUtils.sol\":21938:22261  function isValidLenderSignatureBundle(... */\n    tag_12:\n      tag_64\n      0x04\n      dup1\n      calldatasize\n      sub\n      dup2\n      add\n      swap1\n      tag_65\n      swap2\n      swap1\n      tag_66\n      jump\t// in\n    tag_65:\n      tag_67\n      jump\t// in\n    tag_64:\n      mload(0x40)\n      tag_68\n      swap2\n      swap1\n      tag_19\n      jump\t// in\n    tag_68:\n      mload(0x40)\n      dup1\n      swap2\n      sub\n      swap1\n      return\n        /* \"contracts/utils/NFTfiSigningUtils.sol\":11042:11390  function isValidBorrowerSignatureBundle(... */\n    tag_17:\n        /* \"contracts/utils/NFTfiSigningUtils.sol\":11271:11275  bool */\n      0x00\n        /* \"contracts/utils/NFTfiSigningUtils.sol\":11294:11383  isValidBorrowerSignatureBundle(_listingTerms, _bundleElements, _signature, address(this)) */\n      tag_70\n        /* \"contracts/utils/NFTfiSigningUtils.sol\":11325:11338  _listingTerms */\n      dup5\n        /* \"contracts/utils/NFTfiSigningUtils.sol\":11340:11355  _bundleElements */\n      dup5\n        /* \"contracts/utils/NFTfiSigningUtils.sol\":11357:11367  _signature */\n      dup5\n        /* \"contracts/utils/NFTfiSigningUtils.sol\":11377:11381  this */\n      address\n        /* \"contracts/utils/NFTfiSigningUtils.sol\":11294:11324  isValidBorrowerSignatureBundle */\n      tag_23\n        /* \"contracts/utils/NFTfiSigningUtils.sol\":11294:11383  isValidBorrowerSignatureBundle(_listingTerms, _bundleElements, _signature, address(this)) */\n      jump\t// in\n    tag_70:\n        /* \"contracts/utils/NFTfiSigningUtils.sol\":11287:11383  return isValidBorrowerSignatureBundle(_listingTerms, _bundleElements, _signature, address(this)) */\n      swap1\n      pop\n        /* \"contracts/utils/NFTfiSigningUtils.sol\":11042:11390  function isValidBorrowerSignatureBundle(... */\n      swap4\n      swap3\n      pop\n      pop\n      pop\n      jump\t// out\n        /* \"contracts/utils/NFTfiSigningUtils.sol\":11535:12629  function isValidBorrowerSignatureBundle(... */\n    tag_23:\n        /* \"contracts/utils/NFTfiSigningUtils.sol\":11793:11797  bool */\n      0x00\n        /* \"contracts/utils/NFTfiSigningUtils.sol\":11836:11846  _signature */\n      dup3\n        /* \"contracts/utils/NFTfiSigningUtils.sol\":11836:11853  _signature.expiry */\n      0x20\n      add\n      mload\n        /* \"contracts/utils/NFTfiSigningUtils.sol\":11817:11832  block.timestamp */\n      timestamp\n        /* \"contracts/utils/NFTfiSigningUtils.sol\":11817:11853  block.timestamp <= _signature.expiry */\n      gt\n      iszero\n        /* \"contracts/utils/NFTfiSigningUtils.sol\":11809:11888  require(block.timestamp <= _signature.expiry, \"Borrower Signature has expired\") */\n      tag_72\n      jumpi\n      mload(0x40)\n      0x08c379a000000000000000000000000000000000000000000000000000000000\n      dup2\n      mstore\n      0x04\n      add\n      tag_73\n      swap1\n      tag_74\n      jump\t// in\n    tag_73:\n      mload(0x40)\n      dup1\n      swap2\n      sub\n      swap1\n      revert\n    tag_72:\n        /* \"contracts/utils/NFTfiSigningUtils.sol\":11931:11932  0 */\n      0x00\n        /* \"contracts/utils/NFTfiSigningUtils.sol\":11906:11933  _loanContract != address(0) */\n      0xffffffffffffffffffffffffffffffffffffffff\n      and\n        /* \"contracts/utils/NFTfiSigningUtils.sol\":11906:11919  _loanContract */\n      dup3\n        /* \"contracts/utils/NFTfiSigningUtils.sol\":11906:11933  _loanContract != address(0) */\n      0xffffffffffffffffffffffffffffffffffffffff\n      and\n      eq\n      iszero\n        /* \"contracts/utils/NFTfiSigningUtils.sol\":11898:11958  require(_loanContract != address(0), \"Loan is zero address\") */\n      tag_75\n      jumpi\n      mload(0x40)\n      0x08c379a000000000000000000000000000000000000000000000000000000000\n      dup2\n      mstore\n      0x04\n      add\n      tag_76\n      swap1\n      tag_77\n      jump\t// in\n    tag_76:\n      mload(0x40)\n      dup1\n      swap2\n      sub\n      swap1\n      revert\n    tag_75:\n        /* \"contracts/utils/NFTfiSigningUtils.sol\":12001:12002  0 */\n      0x00\n        /* \"contracts/utils/NFTfiSigningUtils.sol\":11972:12003  _signature.signer == address(0) */\n      0xffffffffffffffffffffffffffffffffffffffff\n      and\n        /* \"contracts/utils/NFTfiSigningUtils.sol\":11972:11982  _signature */\n      dup4\n        /* \"contracts/utils/NFTfiSigningUtils.sol\":11972:11989  _signature.signer */\n      0x40\n      add\n      mload\n        /* \"contracts/utils/NFTfiSigningUtils.sol\":11972:12003  _signature.signer == address(0) */\n      0xffffffffffffffffffffffffffffffffffffffff\n      and\n      eq\n        /* \"contracts/utils/NFTfiSigningUtils.sol\":11968:12623  if (_signature.signer == address(0)) {... */\n      iszero\n      tag_78\n      jumpi\n        /* \"contracts/utils/NFTfiSigningUtils.sol\":12026:12031  false */\n      0x00\n        /* \"contracts/utils/NFTfiSigningUtils.sol\":12019:12031  return false */\n      swap1\n      pop\n      jump(tag_71)\n        /* \"contracts/utils/NFTfiSigningUtils.sol\":11968:12623  if (_signature.signer == address(0)) {... */\n    tag_78:\n        /* \"contracts/utils/NFTfiSigningUtils.sol\":12062:12077  bytes32 message */\n      0x00\n        /* \"contracts/utils/NFTfiSigningUtils.sol\":12145:12177  getEncodedListing(_listingTerms) */\n      tag_80\n        /* \"contracts/utils/NFTfiSigningUtils.sol\":12163:12176  _listingTerms */\n      dup7\n        /* \"contracts/utils/NFTfiSigningUtils.sol\":12145:12162  getEncodedListing */\n      tag_81\n        /* \"contracts/utils/NFTfiSigningUtils.sol\":12145:12177  getEncodedListing(_listingTerms) */\n      jump\t// in\n    tag_80:\n        /* \"contracts/utils/NFTfiSigningUtils.sol\":12210:12225  _bundleElements */\n      dup6\n        /* \"contracts/utils/NFTfiSigningUtils.sol\":12199:12226  abi.encode(_bundleElements) */\n      add(0x20, mload(0x40))\n      tag_82\n      swap2\n      swap1\n      tag_83\n      jump\t// in\n    tag_82:\n      mload(0x40)\n      0x20\n      dup2\n      dup4\n      sub\n      sub\n      dup2\n      mstore\n      swap1\n      0x40\n      mstore\n        /* \"contracts/utils/NFTfiSigningUtils.sol\":12248:12279  getEncodedSignature(_signature) */\n      tag_84\n        /* \"contracts/utils/NFTfiSigningUtils.sol\":12268:12278  _signature */\n      dup7\n        /* \"contracts/utils/NFTfiSigningUtils.sol\":12248:12267  getEncodedSignature */\n      tag_85\n        /* \"contracts/utils/NFTfiSigningUtils.sol\":12248:12279  getEncodedSignature(_signature) */\n      jump\t// in\n    tag_84:\n        /* \"contracts/utils/NFTfiSigningUtils.sol\":12301:12314  _loanContract */\n      dup6\n        /* \"contracts/utils/NFTfiSigningUtils.sol\":12336:12348  getChainID() */\n      tag_86\n        /* \"contracts/utils/NFTfiSigningUtils.sol\":12336:12346  getChainID */\n      tag_31\n        /* \"contracts/utils/NFTfiSigningUtils.sol\":12336:12348  getChainID() */\n      jump\t// in\n    tag_86:\n        /* \"contracts/utils/NFTfiSigningUtils.sol\":12107:12366  abi.encodePacked(... */\n      add(0x20, mload(0x40))\n      tag_87\n      swap6\n      swap5\n      swap4\n      swap3\n      swap2\n      swap1\n      tag_88\n      jump\t// in\n    tag_87:\n      mload(0x40)\n      0x20\n      dup2\n      dup4\n      sub\n      sub\n      dup2\n      mstore\n      swap1\n      0x40\n      mstore\n        /* \"contracts/utils/NFTfiSigningUtils.sol\":12080:12380  keccak256(... */\n      dup1\n      mload\n      swap1\n      0x20\n      add\n      keccak256\n        /* \"contracts/utils/NFTfiSigningUtils.sol\":12062:12380  bytes32 message = keccak256(... */\n      swap1\n      pop\n        /* \"contracts/utils/NFTfiSigningUtils.sol\":12418:12612  SignatureChecker.isValidSignatureNow(... */\n      tag_89\n        /* \"contracts/utils/NFTfiSigningUtils.sol\":12476:12486  _signature */\n      dup5\n        /* \"contracts/utils/NFTfiSigningUtils.sol\":12476:12493  _signature.signer */\n      0x40\n      add\n      mload\n        /* \"contracts/utils/NFTfiSigningUtils.sol\":12515:12552  ECDSA.toEthSignedMessageHash(message) */\n      tag_90\n        /* \"contracts/utils/NFTfiSigningUtils.sol\":12544:12551  message */\n      dup4\n        /* \"contracts/utils/NFTfiSigningUtils.sol\":12515:12543  ECDSA.toEthSignedMessageHash */\n      tag_91\n        /* \"contracts/utils/NFTfiSigningUtils.sol\":12515:12552  ECDSA.toEthSignedMessageHash(message) */\n      jump\t// in\n    tag_90:\n        /* \"contracts/utils/NFTfiSigningUtils.sol\":12574:12584  _signature */\n      dup7\n        /* \"contracts/utils/NFTfiSigningUtils.sol\":12574:12594  _signature.signature */\n      0x60\n      add\n      mload\n        /* \"contracts/utils/NFTfiSigningUtils.sol\":12418:12454  SignatureChecker.isValidSignatureNow */\n      tag_92\n        /* \"contracts/utils/NFTfiSigningUtils.sol\":12418:12612  SignatureChecker.isValidSignatureNow(... */\n      jump\t// in\n    tag_89:\n        /* \"contracts/utils/NFTfiSigningUtils.sol\":12395:12612  return... */\n      swap2\n      pop\n      pop\n        /* \"contracts/utils/NFTfiSigningUtils.sol\":11535:12629  function isValidBorrowerSignatureBundle(... */\n    tag_71:\n      swap5\n      swap4\n      pop\n      pop\n      pop\n      pop\n      jump\t// out\n        /* \"contracts/utils/NFTfiSigningUtils.sol\":5185:5448  function isValidBorrowerSignature(LoanData.ListingTerms memory _listingTerms, LoanData.Signature memory _signature)... */\n    tag_28:\n        /* \"contracts/utils/NFTfiSigningUtils.sol\":5348:5352  bool */\n      0x00\n        /* \"contracts/utils/NFTfiSigningUtils.sol\":5375:5441  isValidBorrowerSignature(_listingTerms, _signature, address(this)) */\n      tag_94\n        /* \"contracts/utils/NFTfiSigningUtils.sol\":5400:5413  _listingTerms */\n      dup4\n        /* \"contracts/utils/NFTfiSigningUtils.sol\":5415:5425  _signature */\n      dup4\n        /* \"contracts/utils/NFTfiSigningUtils.sol\":5435:5439  this */\n      address\n        /* \"contracts/utils/NFTfiSigningUtils.sol\":5375:5399  isValidBorrowerSignature */\n      tag_52\n        /* \"contracts/utils/NFTfiSigningUtils.sol\":5375:5441  isValidBorrowerSignature(_listingTerms, _signature, address(this)) */\n      jump\t// in\n    tag_94:\n        /* \"contracts/utils/NFTfiSigningUtils.sol\":5368:5441  return isValidBorrowerSignature(_listingTerms, _signature, address(this)) */\n      swap1\n      pop\n        /* \"contracts/utils/NFTfiSigningUtils.sol\":5185:5448  function isValidBorrowerSignature(LoanData.ListingTerms memory _listingTerms, LoanData.Signature memory _signature)... */\n      swap3\n      swap2\n      pop\n      pop\n      jump\t// out\n        /* \"contracts/utils/NFTfiSigningUtils.sol\":618:829  function getChainID() public view returns (uint256) {... */\n    tag_31:\n        /* \"contracts/utils/NFTfiSigningUtils.sol\":661:668  uint256 */\n      0x00\n        /* \"contracts/utils/NFTfiSigningUtils.sol\":680:690  uint256 id */\n      dup1\n        /* \"contracts/utils/NFTfiSigningUtils.sol\":785:794  chainid() */\n      chainid\n        /* \"contracts/utils/NFTfiSigningUtils.sol\":779:794  id := chainid() */\n      swap1\n      pop\n        /* \"contracts/utils/NFTfiSigningUtils.sol\":820:822  id */\n      dup1\n        /* \"contracts/utils/NFTfiSigningUtils.sol\":813:822  return id */\n      swap2\n      pop\n      pop\n        /* \"contracts/utils/NFTfiSigningUtils.sol\":618:829  function getChainID() public view returns (uint256) {... */\n      swap1\n      jump\t// out\n        /* \"contracts/utils/NFTfiSigningUtils.sol\":16991:17843  function isValidLenderSignature(... */\n    tag_37:\n        /* \"contracts/utils/NFTfiSigningUtils.sol\":17165:17169  bool */\n      0x00\n        /* \"contracts/utils/NFTfiSigningUtils.sol\":17208:17218  _signature */\n      dup3\n        /* \"contracts/utils/NFTfiSigningUtils.sol\":17208:17225  _signature.expiry */\n      0x20\n      add\n      mload\n        /* \"contracts/utils/NFTfiSigningUtils.sol\":17189:17204  block.timestamp */\n      timestamp\n        /* \"contracts/utils/NFTfiSigningUtils.sol\":17189:17225  block.timestamp <= _signature.expiry */\n      gt\n      iszero\n        /* \"contracts/utils/NFTfiSigningUtils.sol\":17181:17258  require(block.timestamp <= _signature.expiry, \"Lender Signature has expired\") */\n      tag_97\n      jumpi\n      mload(0x40)\n      0x08c379a000000000000000000000000000000000000000000000000000000000\n      dup2\n      mstore\n      0x04\n      add\n      tag_98\n      swap1\n      tag_99\n      jump\t// in\n    tag_98:\n      mload(0x40)\n      dup1\n      swap2\n      sub\n      swap1\n      revert\n    tag_97:\n        /* \"contracts/utils/NFTfiSigningUtils.sol\":17301:17302  0 */\n      0x00\n        /* \"contracts/utils/NFTfiSigningUtils.sol\":17276:17303  _loanContract != address(0) */\n      0xffffffffffffffffffffffffffffffffffffffff\n      and\n        /* \"contracts/utils/NFTfiSigningUtils.sol\":17276:17289  _loanContract */\n      dup3\n        /* \"contracts/utils/NFTfiSigningUtils.sol\":17276:17303  _loanContract != address(0) */\n      0xffffffffffffffffffffffffffffffffffffffff\n      and\n      eq\n      iszero\n        /* \"contracts/utils/NFTfiSigningUtils.sol\":17268:17328  require(_loanContract != address(0), \"Loan is zero address\") */\n      tag_100\n      jumpi\n      mload(0x40)\n      0x08c379a000000000000000000000000000000000000000000000000000000000\n      dup2\n      mstore\n      0x04\n      add\n      tag_101\n      swap1\n      tag_77\n      jump\t// in\n    tag_101:\n      mload(0x40)\n      dup1\n      swap2\n      sub\n      swap1\n      revert\n    tag_100:\n        /* \"contracts/utils/NFTfiSigningUtils.sol\":17371:17372  0 */\n      0x00\n        /* \"contracts/utils/NFTfiSigningUtils.sol\":17342:17373  _signature.signer == address(0) */\n      0xffffffffffffffffffffffffffffffffffffffff\n      and\n        /* \"contracts/utils/NFTfiSigningUtils.sol\":17342:17352  _signature */\n      dup4\n        /* \"contracts/utils/NFTfiSigningUtils.sol\":17342:17359  _signature.signer */\n      0x40\n      add\n      mload\n        /* \"contracts/utils/NFTfiSigningUtils.sol\":17342:17373  _signature.signer == address(0) */\n      0xffffffffffffffffffffffffffffffffffffffff\n      and\n      eq\n        /* \"contracts/utils/NFTfiSigningUtils.sol\":17338:17837  if (_signature.signer == address(0)) {... */\n      iszero\n      tag_102\n      jumpi\n        /* \"contracts/utils/NFTfiSigningUtils.sol\":17396:17401  false */\n      0x00\n        /* \"contracts/utils/NFTfiSigningUtils.sol\":17389:17401  return false */\n      swap1\n      pop\n      jump(tag_96)\n        /* \"contracts/utils/NFTfiSigningUtils.sol\":17338:17837  if (_signature.signer == address(0)) {... */\n    tag_102:\n        /* \"contracts/utils/NFTfiSigningUtils.sol\":17432:17447  bytes32 message */\n      0x00\n        /* \"contracts/utils/NFTfiSigningUtils.sol\":17494:17517  getEncodedOffer(_offer) */\n      tag_104\n        /* \"contracts/utils/NFTfiSigningUtils.sol\":17510:17516  _offer */\n      dup6\n        /* \"contracts/utils/NFTfiSigningUtils.sol\":17494:17509  getEncodedOffer */\n      tag_105\n        /* \"contracts/utils/NFTfiSigningUtils.sol\":17494:17517  getEncodedOffer(_offer) */\n      jump\t// in\n    tag_104:\n        /* \"contracts/utils/NFTfiSigningUtils.sol\":17519:17550  getEncodedSignature(_signature) */\n      tag_106\n        /* \"contracts/utils/NFTfiSigningUtils.sol\":17539:17549  _signature */\n      dup6\n        /* \"contracts/utils/NFTfiSigningUtils.sol\":17519:17538  getEncodedSignature */\n      tag_85\n        /* \"contracts/utils/NFTfiSigningUtils.sol\":17519:17550  getEncodedSignature(_signature) */\n      jump\t// in\n    tag_106:\n        /* \"contracts/utils/NFTfiSigningUtils.sol\":17552:17565  _loanContract */\n      dup5\n        /* \"contracts/utils/NFTfiSigningUtils.sol\":17567:17579  getChainID() */\n      tag_107\n        /* \"contracts/utils/NFTfiSigningUtils.sol\":17567:17577  getChainID */\n      tag_31\n        /* \"contracts/utils/NFTfiSigningUtils.sol\":17567:17579  getChainID() */\n      jump\t// in\n    tag_107:\n        /* \"contracts/utils/NFTfiSigningUtils.sol\":17477:17580  abi.encodePacked(getEncodedOffer(_offer), getEncodedSignature(_signature), _loanContract, getChainID()) */\n      add(0x20, mload(0x40))\n      tag_108\n      swap5\n      swap4\n      swap3\n      swap2\n      swap1\n      tag_109\n      jump\t// in\n    tag_108:\n      mload(0x40)\n      0x20\n      dup2\n      dup4\n      sub\n      sub\n      dup2\n      mstore\n      swap1\n      0x40\n      mstore\n        /* \"contracts/utils/NFTfiSigningUtils.sol\":17450:17594  keccak256(... */\n      dup1\n      mload\n      swap1\n      0x20\n      add\n      keccak256\n        /* \"contracts/utils/NFTfiSigningUtils.sol\":17432:17594  bytes32 message = keccak256(... */\n      swap1\n      pop\n        /* \"contracts/utils/NFTfiSigningUtils.sol\":17632:17826  SignatureChecker.isValidSignatureNow(... */\n      tag_110\n        /* \"contracts/utils/NFTfiSigningUtils.sol\":17690:17700  _signature */\n      dup5\n        /* \"contracts/utils/NFTfiSigningUtils.sol\":17690:17707  _signature.signer */\n      0x40\n      add\n      mload\n        /* \"contracts/utils/NFTfiSigningUtils.sol\":17729:17766  ECDSA.toEthSignedMessageHash(message) */\n      tag_111\n        /* \"contracts/utils/NFTfiSigningUtils.sol\":17758:17765  message */\n      dup4\n        /* \"contracts/utils/NFTfiSigningUtils.sol\":17729:17757  ECDSA.toEthSignedMessageHash */\n      tag_91\n        /* \"contracts/utils/NFTfiSigningUtils.sol\":17729:17766  ECDSA.toEthSignedMessageHash(message) */\n      jump\t// in\n    tag_111:\n        /* \"contracts/utils/NFTfiSigningUtils.sol\":17788:17798  _signature */\n      dup7\n        /* \"contracts/utils/NFTfiSigningUtils.sol\":17788:17808  _signature.signature */\n      0x60\n      add\n      mload\n        /* \"contracts/utils/NFTfiSigningUtils.sol\":17632:17668  SignatureChecker.isValidSignatureNow */\n      tag_92\n        /* \"contracts/utils/NFTfiSigningUtils.sol\":17632:17826  SignatureChecker.isValidSignatureNow(... */\n      jump\t// in\n    tag_110:\n        /* \"contracts/utils/NFTfiSigningUtils.sol\":17609:17826  return... */\n      swap2\n      pop\n      pop\n        /* \"contracts/utils/NFTfiSigningUtils.sol\":16991:17843  function isValidLenderSignature(... */\n    tag_96:\n      swap4\n      swap3\n      pop\n      pop\n      pop\n      jump\t// out\n        /* \"contracts/utils/NFTfiSigningUtils.sol\":26614:27792  function isValidLenderRenegotiationSignature(... */\n    tag_42:\n        /* \"contracts/utils/NFTfiSigningUtils.sol\":26900:26904  bool */\n      0x00\n        /* \"contracts/utils/NFTfiSigningUtils.sol\":26943:26953  _signature */\n      dup3\n        /* \"contracts/utils/NFTfiSigningUtils.sol\":26943:26960  _signature.expiry */\n      0x20\n      add\n      mload\n        /* \"contracts/utils/NFTfiSigningUtils.sol\":26924:26939  block.timestamp */\n      timestamp\n        /* \"contracts/utils/NFTfiSigningUtils.sol\":26924:26960  block.timestamp <= _signature.expiry */\n      gt\n      iszero\n        /* \"contracts/utils/NFTfiSigningUtils.sol\":26916:27000  require(block.timestamp <= _signature.expiry, \"Renegotiation Signature has expired\") */\n      tag_113\n      jumpi\n      mload(0x40)\n      0x08c379a000000000000000000000000000000000000000000000000000000000\n      dup2\n      mstore\n      0x04\n      add\n      tag_114\n      swap1\n      tag_115\n      jump\t// in\n    tag_114:\n      mload(0x40)\n      dup1\n      swap2\n      sub\n      swap1\n      revert\n    tag_113:\n        /* \"contracts/utils/NFTfiSigningUtils.sol\":27043:27044  0 */\n      0x00\n        /* \"contracts/utils/NFTfiSigningUtils.sol\":27018:27045  _loanContract != address(0) */\n      0xffffffffffffffffffffffffffffffffffffffff\n      and\n        /* \"contracts/utils/NFTfiSigningUtils.sol\":27018:27031  _loanContract */\n      dup3\n        /* \"contracts/utils/NFTfiSigningUtils.sol\":27018:27045  _loanContract != address(0) */\n      0xffffffffffffffffffffffffffffffffffffffff\n      and\n      eq\n      iszero\n        /* \"contracts/utils/NFTfiSigningUtils.sol\":27010:27070  require(_loanContract != address(0), \"Loan is zero address\") */\n      tag_116\n      jumpi\n      mload(0x40)\n      0x08c379a000000000000000000000000000000000000000000000000000000000\n      dup2\n      mstore\n      0x04\n      add\n      tag_117\n      swap1\n      tag_77\n      jump\t// in\n    tag_117:\n      mload(0x40)\n      dup1\n      swap2\n      sub\n      swap1\n      revert\n    tag_116:\n        /* \"contracts/utils/NFTfiSigningUtils.sol\":27113:27114  0 */\n      0x00\n        /* \"contracts/utils/NFTfiSigningUtils.sol\":27084:27115  _signature.signer == address(0) */\n      0xffffffffffffffffffffffffffffffffffffffff\n      and\n        /* \"contracts/utils/NFTfiSigningUtils.sol\":27084:27094  _signature */\n      dup4\n        /* \"contracts/utils/NFTfiSigningUtils.sol\":27084:27101  _signature.signer */\n      0x40\n      add\n      mload\n        /* \"contracts/utils/NFTfiSigningUtils.sol\":27084:27115  _signature.signer == address(0) */\n      0xffffffffffffffffffffffffffffffffffffffff\n      and\n      eq\n        /* \"contracts/utils/NFTfiSigningUtils.sol\":27080:27786  if (_signature.signer == address(0)) {... */\n      iszero\n      tag_118\n      jumpi\n        /* \"contracts/utils/NFTfiSigningUtils.sol\":27138:27143  false */\n      0x00\n        /* \"contracts/utils/NFTfiSigningUtils.sol\":27131:27143  return false */\n      swap1\n      pop\n      jump(tag_112)\n        /* \"contracts/utils/NFTfiSigningUtils.sol\":27080:27786  if (_signature.signer == address(0)) {... */\n    tag_118:\n        /* \"contracts/utils/NFTfiSigningUtils.sol\":27174:27189  bytes32 message */\n      0x00\n        /* \"contracts/utils/NFTfiSigningUtils.sol\":27257:27264  _loanId */\n      dup8\n        /* \"contracts/utils/NFTfiSigningUtils.sol\":27286:27302  _newLoanDuration */\n      dup8\n        /* \"contracts/utils/NFTfiSigningUtils.sol\":27324:27350  _newMaximumRepaymentAmount */\n      dup8\n        /* \"contracts/utils/NFTfiSigningUtils.sol\":27372:27389  _renegotiationFee */\n      dup8\n        /* \"contracts/utils/NFTfiSigningUtils.sol\":27411:27442  getEncodedSignature(_signature) */\n      tag_120\n        /* \"contracts/utils/NFTfiSigningUtils.sol\":27431:27441  _signature */\n      dup9\n        /* \"contracts/utils/NFTfiSigningUtils.sol\":27411:27430  getEncodedSignature */\n      tag_85\n        /* \"contracts/utils/NFTfiSigningUtils.sol\":27411:27442  getEncodedSignature(_signature) */\n      jump\t// in\n    tag_120:\n        /* \"contracts/utils/NFTfiSigningUtils.sol\":27464:27477  _loanContract */\n      dup8\n        /* \"contracts/utils/NFTfiSigningUtils.sol\":27499:27511  getChainID() */\n      tag_121\n        /* \"contracts/utils/NFTfiSigningUtils.sol\":27499:27509  getChainID */\n      tag_31\n        /* \"contracts/utils/NFTfiSigningUtils.sol\":27499:27511  getChainID() */\n      jump\t// in\n    tag_121:\n        /* \"contracts/utils/NFTfiSigningUtils.sol\":27219:27529  abi.encodePacked(... */\n      add(0x20, mload(0x40))\n      tag_122\n      swap8\n      swap7\n      swap6\n      swap5\n      swap4\n      swap3\n      swap2\n      swap1\n      tag_123\n      jump\t// in\n    tag_122:\n      mload(0x40)\n      0x20\n      dup2\n      dup4\n      sub\n      sub\n      dup2\n      mstore\n      swap1\n      0x40\n      mstore\n        /* \"contracts/utils/NFTfiSigningUtils.sol\":27192:27543  keccak256(... */\n      dup1\n      mload\n      swap1\n      0x20\n      add\n      keccak256\n        /* \"contracts/utils/NFTfiSigningUtils.sol\":27174:27543  bytes32 message = keccak256(... */\n      swap1\n      pop\n        /* \"contracts/utils/NFTfiSigningUtils.sol\":27581:27775  SignatureChecker.isValidSignatureNow(... */\n      tag_124\n        /* \"contracts/utils/NFTfiSigningUtils.sol\":27639:27649  _signature */\n      dup5\n        /* \"contracts/utils/NFTfiSigningUtils.sol\":27639:27656  _signature.signer */\n      0x40\n      add\n      mload\n        /* \"contracts/utils/NFTfiSigningUtils.sol\":27678:27715  ECDSA.toEthSignedMessageHash(message) */\n      tag_125\n        /* \"contracts/utils/NFTfiSigningUtils.sol\":27707:27714  message */\n      dup4\n        /* \"contracts/utils/NFTfiSigningUtils.sol\":27678:27706  ECDSA.toEthSignedMessageHash */\n      tag_91\n        /* \"contracts/utils/NFTfiSigningUtils.sol\":27678:27715  ECDSA.toEthSignedMessageHash(message) */\n      jump\t// in\n    tag_125:\n        /* \"contracts/utils/NFTfiSigningUtils.sol\":27737:27747  _signature */\n      dup7\n        /* \"contracts/utils/NFTfiSigningUtils.sol\":27737:27757  _signature.signature */\n      0x60\n      add\n      mload\n        /* \"contracts/utils/NFTfiSigningUtils.sol\":27581:27617  SignatureChecker.isValidSignatureNow */\n      tag_92\n        /* \"contracts/utils/NFTfiSigningUtils.sol\":27581:27775  SignatureChecker.isValidSignatureNow(... */\n      jump\t// in\n    tag_124:\n        /* \"contracts/utils/NFTfiSigningUtils.sol\":27558:27775  return... */\n      swap2\n      pop\n      pop\n        /* \"contracts/utils/NFTfiSigningUtils.sol\":26614:27792  function isValidLenderRenegotiationSignature(... */\n    tag_112:\n      swap7\n      swap6\n      pop\n      pop\n      pop\n      pop\n      pop\n      pop\n      jump\t// out\n        /* \"contracts/utils/NFTfiSigningUtils.sol\":22406:23473  function isValidLenderSignatureBundle(... */\n    tag_47:\n        /* \"contracts/utils/NFTfiSigningUtils.sol\":22648:22652  bool */\n      0x00\n        /* \"contracts/utils/NFTfiSigningUtils.sol\":22691:22701  _signature */\n      dup3\n        /* \"contracts/utils/NFTfiSigningUtils.sol\":22691:22708  _signature.expiry */\n      0x20\n      add\n      mload\n        /* \"contracts/utils/NFTfiSigningUtils.sol\":22672:22687  block.timestamp */\n      timestamp\n        /* \"contracts/utils/NFTfiSigningUtils.sol\":22672:22708  block.timestamp <= _signature.expiry */\n      gt\n      iszero\n        /* \"contracts/utils/NFTfiSigningUtils.sol\":22664:22741  require(block.timestamp <= _signature.expiry, \"Lender Signature has expired\") */\n      tag_127\n      jumpi\n      mload(0x40)\n      0x08c379a000000000000000000000000000000000000000000000000000000000\n      dup2\n      mstore\n      0x04\n      add\n      tag_128\n      swap1\n      tag_99\n      jump\t// in\n    tag_128:\n      mload(0x40)\n      dup1\n      swap2\n      sub\n      swap1\n      revert\n    tag_127:\n        /* \"contracts/utils/NFTfiSigningUtils.sol\":22784:22785  0 */\n      0x00\n        /* \"contracts/utils/NFTfiSigningUtils.sol\":22759:22786  _loanContract != address(0) */\n      0xffffffffffffffffffffffffffffffffffffffff\n      and\n        /* \"contracts/utils/NFTfiSigningUtils.sol\":22759:22772  _loanContract */\n      dup3\n        /* \"contracts/utils/NFTfiSigningUtils.sol\":22759:22786  _loanContract != address(0) */\n      0xffffffffffffffffffffffffffffffffffffffff\n      and\n      eq\n      iszero\n        /* \"contracts/utils/NFTfiSigningUtils.sol\":22751:22811  require(_loanContract != address(0), \"Loan is zero address\") */\n      tag_129\n      jumpi\n      mload(0x40)\n      0x08c379a000000000000000000000000000000000000000000000000000000000\n      dup2\n      mstore\n      0x04\n      add\n      tag_130\n      swap1\n      tag_77\n      jump\t// in\n    tag_130:\n      mload(0x40)\n      dup1\n      swap2\n      sub\n      swap1\n      revert\n    tag_129:\n        /* \"contracts/utils/NFTfiSigningUtils.sol\":22854:22855  0 */\n      0x00\n        /* \"contracts/utils/NFTfiSigningUtils.sol\":22825:22856  _signature.signer == address(0) */\n      0xffffffffffffffffffffffffffffffffffffffff\n      and\n        /* \"contracts/utils/NFTfiSigningUtils.sol\":22825:22835  _signature */\n      dup4\n        /* \"contracts/utils/NFTfiSigningUtils.sol\":22825:22842  _signature.signer */\n      0x40\n      add\n      mload\n        /* \"contracts/utils/NFTfiSigningUtils.sol\":22825:22856  _signature.signer == address(0) */\n      0xffffffffffffffffffffffffffffffffffffffff\n      and\n      eq\n        /* \"contracts/utils/NFTfiSigningUtils.sol\":22821:23467  if (_signature.signer == address(0)) {... */\n      iszero\n      tag_131\n      jumpi\n        /* \"contracts/utils/NFTfiSigningUtils.sol\":22879:22884  false */\n      0x00\n        /* \"contracts/utils/NFTfiSigningUtils.sol\":22872:22884  return false */\n      swap1\n      pop\n      jump(tag_126)\n        /* \"contracts/utils/NFTfiSigningUtils.sol\":22821:23467  if (_signature.signer == address(0)) {... */\n    tag_131:\n        /* \"contracts/utils/NFTfiSigningUtils.sol\":22915:22930  bytes32 message */\n      0x00\n        /* \"contracts/utils/NFTfiSigningUtils.sol\":22998:23021  getEncodedOffer(_offer) */\n      tag_133\n        /* \"contracts/utils/NFTfiSigningUtils.sol\":23014:23020  _offer */\n      dup7\n        /* \"contracts/utils/NFTfiSigningUtils.sol\":22998:23013  getEncodedOffer */\n      tag_105\n        /* \"contracts/utils/NFTfiSigningUtils.sol\":22998:23021  getEncodedOffer(_offer) */\n      jump\t// in\n    tag_133:\n        /* \"contracts/utils/NFTfiSigningUtils.sol\":23054:23069  _bundleElements */\n      dup6\n        /* \"contracts/utils/NFTfiSigningUtils.sol\":23043:23070  abi.encode(_bundleElements) */\n      add(0x20, mload(0x40))\n      tag_134\n      swap2\n      swap1\n      tag_83\n      jump\t// in\n    tag_134:\n      mload(0x40)\n      0x20\n      dup2\n      dup4\n      sub\n      sub\n      dup2\n      mstore\n      swap1\n      0x40\n      mstore\n        /* \"contracts/utils/NFTfiSigningUtils.sol\":23092:23123  getEncodedSignature(_signature) */\n      tag_135\n        /* \"contracts/utils/NFTfiSigningUtils.sol\":23112:23122  _signature */\n      dup7\n        /* \"contracts/utils/NFTfiSigningUtils.sol\":23092:23111  getEncodedSignature */\n      tag_85\n        /* \"contracts/utils/NFTfiSigningUtils.sol\":23092:23123  getEncodedSignature(_signature) */\n      jump\t// in\n    tag_135:\n        /* \"contracts/utils/NFTfiSigningUtils.sol\":23145:23158  _loanContract */\n      dup6\n        /* \"contracts/utils/NFTfiSigningUtils.sol\":23180:23192  getChainID() */\n      tag_136\n        /* \"contracts/utils/NFTfiSigningUtils.sol\":23180:23190  getChainID */\n      tag_31\n        /* \"contracts/utils/NFTfiSigningUtils.sol\":23180:23192  getChainID() */\n      jump\t// in\n    tag_136:\n        /* \"contracts/utils/NFTfiSigningUtils.sol\":22960:23210  abi.encodePacked(... */\n      add(0x20, mload(0x40))\n      tag_137\n      swap6\n      swap5\n      swap4\n      swap3\n      swap2\n      swap1\n      tag_88\n      jump\t// in\n    tag_137:\n      mload(0x40)\n      0x20\n      dup2\n      dup4\n      sub\n      sub\n      dup2\n      mstore\n      swap1\n      0x40\n      mstore\n        /* \"contracts/utils/NFTfiSigningUtils.sol\":22933:23224  keccak256(... */\n      dup1\n      mload\n      swap1\n      0x20\n      add\n      keccak256\n        /* \"contracts/utils/NFTfiSigningUtils.sol\":22915:23224  bytes32 message = keccak256(... */\n      swap1\n      pop\n        /* \"contracts/utils/NFTfiSigningUtils.sol\":23262:23456  SignatureChecker.isValidSignatureNow(... */\n      tag_138\n        /* \"contracts/utils/NFTfiSigningUtils.sol\":23320:23330  _signature */\n      dup5\n        /* \"contracts/utils/NFTfiSigningUtils.sol\":23320:23337  _signature.signer */\n      0x40\n      add\n      mload\n        /* \"contracts/utils/NFTfiSigningUtils.sol\":23359:23396  ECDSA.toEthSignedMessageHash(message) */\n      tag_139\n        /* \"contracts/utils/NFTfiSigningUtils.sol\":23388:23395  message */\n      dup4\n        /* \"contracts/utils/NFTfiSigningUtils.sol\":23359:23387  ECDSA.toEthSignedMessageHash */\n      tag_91\n        /* \"contracts/utils/NFTfiSigningUtils.sol\":23359:23396  ECDSA.toEthSignedMessageHash(message) */\n      jump\t// in\n    tag_139:\n        /* \"contracts/utils/NFTfiSigningUtils.sol\":23418:23428  _signature */\n      dup7\n        /* \"contracts/utils/NFTfiSigningUtils.sol\":23418:23438  _signature.signature */\n      0x60\n      add\n      mload\n        /* \"contracts/utils/NFTfiSigningUtils.sol\":23262:23298  SignatureChecker.isValidSignatureNow */\n      tag_92\n        /* \"contracts/utils/NFTfiSigningUtils.sol\":23262:23456  SignatureChecker.isValidSignatureNow(... */\n      jump\t// in\n    tag_138:\n        /* \"contracts/utils/NFTfiSigningUtils.sol\":23239:23456  return... */\n      swap2\n      pop\n      pop\n        /* \"contracts/utils/NFTfiSigningUtils.sol\":22406:23473  function isValidLenderSignatureBundle(... */\n    tag_126:\n      swap5\n      swap4\n      pop\n      pop\n      pop\n      pop\n      jump\t// out\n        /* \"contracts/utils/NFTfiSigningUtils.sol\":5593:6570  function isValidBorrowerSignature(... */\n    tag_52:\n        /* \"contracts/utils/NFTfiSigningUtils.sol\":5783:5787  bool */\n      0x00\n        /* \"contracts/utils/NFTfiSigningUtils.sol\":5826:5836  _signature */\n      dup3\n        /* \"contracts/utils/NFTfiSigningUtils.sol\":5826:5843  _signature.expiry */\n      0x20\n      add\n      mload\n        /* \"contracts/utils/NFTfiSigningUtils.sol\":5807:5822  block.timestamp */\n      timestamp\n        /* \"contracts/utils/NFTfiSigningUtils.sol\":5807:5843  block.timestamp <= _signature.expiry */\n      gt\n      iszero\n        /* \"contracts/utils/NFTfiSigningUtils.sol\":5799:5878  require(block.timestamp <= _signature.expiry, \"Borrower Signature has expired\") */\n      tag_141\n      jumpi\n      mload(0x40)\n      0x08c379a000000000000000000000000000000000000000000000000000000000\n      dup2\n      mstore\n      0x04\n      add\n      tag_142\n      swap1\n      tag_74\n      jump\t// in\n    tag_142:\n      mload(0x40)\n      dup1\n      swap2\n      sub\n      swap1\n      revert\n    tag_141:\n        /* \"contracts/utils/NFTfiSigningUtils.sol\":5921:5922  0 */\n      0x00\n        /* \"contracts/utils/NFTfiSigningUtils.sol\":5896:5923  _loanContract != address(0) */\n      0xffffffffffffffffffffffffffffffffffffffff\n      and\n        /* \"contracts/utils/NFTfiSigningUtils.sol\":5896:5909  _loanContract */\n      dup3\n        /* \"contracts/utils/NFTfiSigningUtils.sol\":5896:5923  _loanContract != address(0) */\n      0xffffffffffffffffffffffffffffffffffffffff\n      and\n      eq\n      iszero\n        /* \"contracts/utils/NFTfiSigningUtils.sol\":5888:5948  require(_loanContract != address(0), \"Loan is zero address\") */\n      tag_143\n      jumpi\n      mload(0x40)\n      0x08c379a000000000000000000000000000000000000000000000000000000000\n      dup2\n      mstore\n      0x04\n      add\n      tag_144\n      swap1\n      tag_77\n      jump\t// in\n    tag_144:\n      mload(0x40)\n      dup1\n      swap2\n      sub\n      swap1\n      revert\n    tag_143:\n        /* \"contracts/utils/NFTfiSigningUtils.sol\":5991:5992  0 */\n      0x00\n        /* \"contracts/utils/NFTfiSigningUtils.sol\":5962:5993  _signature.signer == address(0) */\n      0xffffffffffffffffffffffffffffffffffffffff\n      and\n        /* \"contracts/utils/NFTfiSigningUtils.sol\":5962:5972  _signature */\n      dup4\n        /* \"contracts/utils/NFTfiSigningUtils.sol\":5962:5979  _signature.signer */\n      0x40\n      add\n      mload\n        /* \"contracts/utils/NFTfiSigningUtils.sol\":5962:5993  _signature.signer == address(0) */\n      0xffffffffffffffffffffffffffffffffffffffff\n      and\n      eq\n        /* \"contracts/utils/NFTfiSigningUtils.sol\":5958:6564  if (_signature.signer == address(0)) {... */\n      iszero\n      tag_145\n      jumpi\n        /* \"contracts/utils/NFTfiSigningUtils.sol\":6016:6021  false */\n      0x00\n        /* \"contracts/utils/NFTfiSigningUtils.sol\":6009:6021  return false */\n      swap1\n      pop\n      jump(tag_140)\n        /* \"contracts/utils/NFTfiSigningUtils.sol\":5958:6564  if (_signature.signer == address(0)) {... */\n    tag_145:\n        /* \"contracts/utils/NFTfiSigningUtils.sol\":6052:6067  bytes32 message */\n      0x00\n        /* \"contracts/utils/NFTfiSigningUtils.sol\":6135:6167  getEncodedListing(_listingTerms) */\n      tag_147\n        /* \"contracts/utils/NFTfiSigningUtils.sol\":6153:6166  _listingTerms */\n      dup6\n        /* \"contracts/utils/NFTfiSigningUtils.sol\":6135:6152  getEncodedListing */\n      tag_81\n        /* \"contracts/utils/NFTfiSigningUtils.sol\":6135:6167  getEncodedListing(_listingTerms) */\n      jump\t// in\n    tag_147:\n        /* \"contracts/utils/NFTfiSigningUtils.sol\":6189:6220  getEncodedSignature(_signature) */\n      tag_148\n        /* \"contracts/utils/NFTfiSigningUtils.sol\":6209:6219  _signature */\n      dup6\n        /* \"contracts/utils/NFTfiSigningUtils.sol\":6189:6208  getEncodedSignature */\n      tag_85\n        /* \"contracts/utils/NFTfiSigningUtils.sol\":6189:6220  getEncodedSignature(_signature) */\n      jump\t// in\n    tag_148:\n        /* \"contracts/utils/NFTfiSigningUtils.sol\":6242:6255  _loanContract */\n      dup5\n        /* \"contracts/utils/NFTfiSigningUtils.sol\":6277:6289  getChainID() */\n      tag_149\n        /* \"contracts/utils/NFTfiSigningUtils.sol\":6277:6287  getChainID */\n      tag_31\n        /* \"contracts/utils/NFTfiSigningUtils.sol\":6277:6289  getChainID() */\n      jump\t// in\n    tag_149:\n        /* \"contracts/utils/NFTfiSigningUtils.sol\":6097:6307  abi.encodePacked(... */\n      add(0x20, mload(0x40))\n      tag_150\n      swap5\n      swap4\n      swap3\n      swap2\n      swap1\n      tag_109\n      jump\t// in\n    tag_150:\n      mload(0x40)\n      0x20\n      dup2\n      dup4\n      sub\n      sub\n      dup2\n      mstore\n      swap1\n      0x40\n      mstore\n        /* \"contracts/utils/NFTfiSigningUtils.sol\":6070:6321  keccak256(... */\n      dup1\n      mload\n      swap1\n      0x20\n      add\n      keccak256\n        /* \"contracts/utils/NFTfiSigningUtils.sol\":6052:6321  bytes32 message = keccak256(... */\n      swap1\n      pop\n        /* \"contracts/utils/NFTfiSigningUtils.sol\":6359:6553  SignatureChecker.isValidSignatureNow(... */\n      tag_151\n        /* \"contracts/utils/NFTfiSigningUtils.sol\":6417:6427  _signature */\n      dup5\n        /* \"contracts/utils/NFTfiSigningUtils.sol\":6417:6434  _signature.signer */\n      0x40\n      add\n      mload\n        /* \"contracts/utils/NFTfiSigningUtils.sol\":6456:6493  ECDSA.toEthSignedMessageHash(message) */\n      tag_152\n        /* \"contracts/utils/NFTfiSigningUtils.sol\":6485:6492  message */\n      dup4\n        /* \"contracts/utils/NFTfiSigningUtils.sol\":6456:6484  ECDSA.toEthSignedMessageHash */\n      tag_91\n        /* \"contracts/utils/NFTfiSigningUtils.sol\":6456:6493  ECDSA.toEthSignedMessageHash(message) */\n      jump\t// in\n    tag_152:\n        /* \"contracts/utils/NFTfiSigningUtils.sol\":6515:6525  _signature */\n      dup7\n        /* \"contracts/utils/NFTfiSigningUtils.sol\":6515:6535  _signature.signature */\n      0x60\n      add\n      mload\n        /* \"contracts/utils/NFTfiSigningUtils.sol\":6359:6395  SignatureChecker.isValidSignatureNow */\n      tag_92\n        /* \"contracts/utils/NFTfiSigningUtils.sol\":6359:6553  SignatureChecker.isValidSignatureNow(... */\n      jump\t// in\n    tag_151:\n        /* \"contracts/utils/NFTfiSigningUtils.sol\":6336:6553  return... */\n      swap2\n      pop\n      pop\n        /* \"contracts/utils/NFTfiSigningUtils.sol\":5593:6570  function isValidBorrowerSignature(... */\n    tag_140:\n      swap4\n      swap3\n      pop\n      pop\n      pop\n      jump\t// out\n        /* \"contracts/utils/NFTfiSigningUtils.sol\":25924:26469  function isValidLenderRenegotiationSignature(... */\n    tag_57:\n        /* \"contracts/utils/NFTfiSigningUtils.sol\":26181:26185  bool */\n      0x00\n        /* \"contracts/utils/NFTfiSigningUtils.sol\":26216:26462  isValidLenderRenegotiationSignature(... */\n      tag_154\n        /* \"contracts/utils/NFTfiSigningUtils.sol\":26269:26276  _loanId */\n      dup7\n        /* \"contracts/utils/NFTfiSigningUtils.sol\":26294:26310  _newLoanDuration */\n      dup7\n        /* \"contracts/utils/NFTfiSigningUtils.sol\":26328:26354  _newMaximumRepaymentAmount */\n      dup7\n        /* \"contracts/utils/NFTfiSigningUtils.sol\":26372:26389  _renegotiationFee */\n      dup7\n        /* \"contracts/utils/NFTfiSigningUtils.sol\":26407:26417  _signature */\n      dup7\n        /* \"contracts/utils/NFTfiSigningUtils.sol\":26443:26447  this */\n      address\n        /* \"contracts/utils/NFTfiSigningUtils.sol\":26216:26251  isValidLenderRenegotiationSignature */\n      tag_42\n        /* \"contracts/utils/NFTfiSigningUtils.sol\":26216:26462  isValidLenderRenegotiationSignature(... */\n      jump\t// in\n    tag_154:\n        /* \"contracts/utils/NFTfiSigningUtils.sol\":26197:26462  return... */\n      swap1\n      pop\n        /* \"contracts/utils/NFTfiSigningUtils.sol\":25924:26469  function isValidLenderRenegotiationSignature(... */\n      swap6\n      swap5\n      pop\n      pop\n      pop\n      pop\n      pop\n      jump\t// out\n        /* \"contracts/utils/NFTfiSigningUtils.sol\":16608:16846  function isValidLenderSignature(LoanData.Offer memory _offer, LoanData.Signature memory _signature)... */\n    tag_62:\n        /* \"contracts/utils/NFTfiSigningUtils.sol\":16755:16759  bool */\n      0x00\n        /* \"contracts/utils/NFTfiSigningUtils.sol\":16782:16839  isValidLenderSignature(_offer, _signature, address(this)) */\n      tag_156\n        /* \"contracts/utils/NFTfiSigningUtils.sol\":16805:16811  _offer */\n      dup4\n        /* \"contracts/utils/NFTfiSigningUtils.sol\":16813:16823  _signature */\n      dup4\n        /* \"contracts/utils/NFTfiSigningUtils.sol\":16833:16837  this */\n      address\n        /* \"contracts/utils/NFTfiSigningUtils.sol\":16782:16804  isValidLenderSignature */\n      tag_37\n        /* \"contracts/utils/NFTfiSigningUtils.sol\":16782:16839  isValidLenderSignature(_offer, _signature, address(this)) */\n      jump\t// in\n    tag_156:\n        /* \"contracts/utils/NFTfiSigningUtils.sol\":16775:16839  return isValidLenderSignature(_offer, _signature, address(this)) */\n      swap1\n      pop\n        /* \"contracts/utils/NFTfiSigningUtils.sol\":16608:16846  function isValidLenderSignature(LoanData.Offer memory _offer, LoanData.Signature memory _signature)... */\n      swap3\n      swap2\n      pop\n      pop\n      jump\t// out\n        /* \"contracts/utils/NFTfiSigningUtils.sol\":21938:22261  function isValidLenderSignatureBundle(... */\n    tag_67:\n        /* \"contracts/utils/NFTfiSigningUtils.sol\":22151:22155  bool */\n      0x00\n        /* \"contracts/utils/NFTfiSigningUtils.sol\":22174:22254  isValidLenderSignatureBundle(_offer, _bundleElements, _signature, address(this)) */\n      tag_158\n        /* \"contracts/utils/NFTfiSigningUtils.sol\":22203:22209  _offer */\n      dup5\n        /* \"contracts/utils/NFTfiSigningUtils.sol\":22211:22226  _bundleElements */\n      dup5\n        /* \"contracts/utils/NFTfiSigningUtils.sol\":22228:22238  _signature */\n      dup5\n        /* \"contracts/utils/NFTfiSigningUtils.sol\":22248:22252  this */\n      address\n        /* \"contracts/utils/NFTfiSigningUtils.sol\":22174:22202  isValidLenderSignatureBundle */\n      tag_47\n        /* \"contracts/utils/NFTfiSigningUtils.sol\":22174:22254  isValidLenderSignatureBundle(_offer, _bundleElements, _signature, address(this)) */\n      jump\t// in\n    tag_158:\n        /* \"contracts/utils/NFTfiSigningUtils.sol\":22167:22254  return isValidLenderSignatureBundle(_offer, _bundleElements, _signature, address(this)) */\n      swap1\n      pop\n        /* \"contracts/utils/NFTfiSigningUtils.sol\":21938:22261  function isValidLenderSignatureBundle(... */\n      swap4\n      swap3\n      pop\n      pop\n      pop\n      jump\t// out\n        /* \"contracts/utils/NFTfiSigningUtils.sol\":27871:28578  function getEncodedListing(LoanData.ListingTerms memory _listingTerms) internal pure returns (bytes memory) {... */\n    tag_81:\n        /* \"contracts/utils/NFTfiSigningUtils.sol\":27965:27977  bytes memory */\n      0x60\n        /* \"contracts/utils/NFTfiSigningUtils.sol\":28042:28055  _listingTerms */\n      dup2\n        /* \"contracts/utils/NFTfiSigningUtils.sol\":28042:28077  _listingTerms.loanERC20Denomination */\n      0x0120\n      add\n      mload\n        /* \"contracts/utils/NFTfiSigningUtils.sol\":28095:28108  _listingTerms */\n      dup3\n        /* \"contracts/utils/NFTfiSigningUtils.sol\":28095:28131  _listingTerms.minLoanPrincipalAmount */\n      0x00\n      add\n      mload\n        /* \"contracts/utils/NFTfiSigningUtils.sol\":28149:28162  _listingTerms */\n      dup4\n        /* \"contracts/utils/NFTfiSigningUtils.sol\":28149:28185  _listingTerms.maxLoanPrincipalAmount */\n      0x20\n      add\n      mload\n        /* \"contracts/utils/NFTfiSigningUtils.sol\":28203:28216  _listingTerms */\n      dup5\n        /* \"contracts/utils/NFTfiSigningUtils.sol\":28203:28238  _listingTerms.nftCollateralContract */\n      0x60\n      add\n      mload\n        /* \"contracts/utils/NFTfiSigningUtils.sol\":28256:28269  _listingTerms */\n      dup6\n        /* \"contracts/utils/NFTfiSigningUtils.sol\":28256:28285  _listingTerms.nftCollateralId */\n      0x40\n      add\n      mload\n        /* \"contracts/utils/NFTfiSigningUtils.sol\":28303:28316  _listingTerms */\n      dup7\n        /* \"contracts/utils/NFTfiSigningUtils.sol\":28303:28336  _listingTerms.revenueSharePartner */\n      0x0100\n      add\n      mload\n        /* \"contracts/utils/NFTfiSigningUtils.sol\":28354:28367  _listingTerms */\n      dup8\n        /* \"contracts/utils/NFTfiSigningUtils.sol\":28354:28383  _listingTerms.minLoanDuration */\n      0x80\n      add\n      mload\n        /* \"contracts/utils/NFTfiSigningUtils.sol\":28401:28414  _listingTerms */\n      dup9\n        /* \"contracts/utils/NFTfiSigningUtils.sol\":28401:28430  _listingTerms.maxLoanDuration */\n      0xa0\n      add\n      mload\n        /* \"contracts/utils/NFTfiSigningUtils.sol\":28448:28461  _listingTerms */\n      dup10\n        /* \"contracts/utils/NFTfiSigningUtils.sol\":28448:28501  _listingTerms.maxInterestRateForDurationInBasisPoints */\n      0xc0\n      add\n      mload\n        /* \"contracts/utils/NFTfiSigningUtils.sol\":28519:28532  _listingTerms */\n      dup11\n        /* \"contracts/utils/NFTfiSigningUtils.sol\":28519:28557  _listingTerms.referralFeeInBasisPoints */\n      0xe0\n      add\n      mload\n        /* \"contracts/utils/NFTfiSigningUtils.sol\":28008:28571  abi.encodePacked(... */\n      add(0x20, mload(0x40))\n      tag_160\n      swap11\n      swap10\n      swap9\n      swap8\n      swap7\n      swap6\n      swap5\n      swap4\n      swap3\n      swap2\n      swap1\n      tag_161\n      jump\t// in\n    tag_160:\n      mload(0x40)\n      0x20\n      dup2\n      dup4\n      sub\n      sub\n      dup2\n      mstore\n      swap1\n      0x40\n      mstore\n        /* \"contracts/utils/NFTfiSigningUtils.sol\":27989:28571  return... */\n      swap1\n      pop\n        /* \"contracts/utils/NFTfiSigningUtils.sol\":27871:28578  function getEncodedListing(LoanData.ListingTerms memory _listingTerms) internal pure returns (bytes memory) {... */\n      swap2\n      swap1\n      pop\n      jump\t// out\n        /* \"contracts/utils/NFTfiSigningUtils.sol\":29237:29437  function getEncodedSignature(LoanData.Signature memory _signature) internal pure returns (bytes memory) {... */\n    tag_85:\n        /* \"contracts/utils/NFTfiSigningUtils.sol\":29327:29339  bytes memory */\n      0x60\n        /* \"contracts/utils/NFTfiSigningUtils.sol\":29375:29385  _signature */\n      dup2\n        /* \"contracts/utils/NFTfiSigningUtils.sol\":29375:29392  _signature.signer */\n      0x40\n      add\n      mload\n        /* \"contracts/utils/NFTfiSigningUtils.sol\":29394:29404  _signature */\n      dup3\n        /* \"contracts/utils/NFTfiSigningUtils.sol\":29394:29410  _signature.nonce */\n      0x00\n      add\n      mload\n        /* \"contracts/utils/NFTfiSigningUtils.sol\":29412:29422  _signature */\n      dup4\n        /* \"contracts/utils/NFTfiSigningUtils.sol\":29412:29429  _signature.expiry */\n      0x20\n      add\n      mload\n        /* \"contracts/utils/NFTfiSigningUtils.sol\":29358:29430  abi.encodePacked(_signature.signer, _signature.nonce, _signature.expiry) */\n      add(0x20, mload(0x40))\n      tag_163\n      swap4\n      swap3\n      swap2\n      swap1\n      tag_164\n      jump\t// in\n    tag_163:\n      mload(0x40)\n      0x20\n      dup2\n      dup4\n      sub\n      sub\n      dup2\n      mstore\n      swap1\n      0x40\n      mstore\n        /* \"contracts/utils/NFTfiSigningUtils.sol\":29351:29430  return abi.encodePacked(_signature.signer, _signature.nonce, _signature.expiry) */\n      swap1\n      pop\n        /* \"contracts/utils/NFTfiSigningUtils.sol\":29237:29437  function getEncodedSignature(LoanData.Signature memory _signature) internal pure returns (bytes memory) {... */\n      swap2\n      swap1\n      pop\n      jump\t// out\n        /* \"@openzeppelin/contracts/utils/cryptography/ECDSA.sol\":7256:7521  function toEthSignedMessageHash(bytes32 hash) internal pure returns (bytes32) {... */\n    tag_91:\n        /* \"@openzeppelin/contracts/utils/cryptography/ECDSA.sol\":7325:7332  bytes32 */\n      0x00\n        /* \"@openzeppelin/contracts/utils/cryptography/ECDSA.sol\":7508:7512  hash */\n      dup2\n        /* \"@openzeppelin/contracts/utils/cryptography/ECDSA.sol\":7455:7513  abi.encodePacked(\"\\x19Ethereum Signed Message:\\n32\", hash) */\n      add(0x20, mload(0x40))\n      tag_166\n      swap2\n      swap1\n      tag_167\n      jump\t// in\n    tag_166:\n      mload(0x40)\n      0x20\n      dup2\n      dup4\n      sub\n      sub\n      dup2\n      mstore\n      swap1\n      0x40\n      mstore\n        /* \"@openzeppelin/contracts/utils/cryptography/ECDSA.sol\":7445:7514  keccak256(abi.encodePacked(\"\\x19Ethereum Signed Message:\\n32\", hash)) */\n      dup1\n      mload\n      swap1\n      0x20\n      add\n      keccak256\n        /* \"@openzeppelin/contracts/utils/cryptography/ECDSA.sol\":7438:7514  return keccak256(abi.encodePacked(\"\\x19Ethereum Signed Message:\\n32\", hash)) */\n      swap1\n      pop\n        /* \"@openzeppelin/contracts/utils/cryptography/ECDSA.sol\":7256:7521  function toEthSignedMessageHash(bytes32 hash) internal pure returns (bytes32) {... */\n      swap2\n      swap1\n      pop\n      jump\t// out\n        /* \"@openzeppelin/contracts/utils/cryptography/SignatureChecker.sol\":1039:1706  function isValidSignatureNow(... */\n    tag_92:\n        /* \"@openzeppelin/contracts/utils/cryptography/SignatureChecker.sol\":1175:1179  bool */\n      0x00\n        /* \"@openzeppelin/contracts/utils/cryptography/SignatureChecker.sol\":1192:1209  address recovered */\n      dup1\n        /* \"@openzeppelin/contracts/utils/cryptography/SignatureChecker.sol\":1211:1235  ECDSA.RecoverError error */\n      0x00\n        /* \"@openzeppelin/contracts/utils/cryptography/SignatureChecker.sol\":1239:1272  ECDSA.tryRecover(hash, signature) */\n      tag_169\n        /* \"@openzeppelin/contracts/utils/cryptography/SignatureChecker.sol\":1256:1260  hash */\n      dup6\n        /* \"@openzeppelin/contracts/utils/cryptography/SignatureChecker.sol\":1262:1271  signature */\n      dup6\n        /* \"@openzeppelin/contracts/utils/cryptography/SignatureChecker.sol\":1239:1255  ECDSA.tryRecover */\n      tag_170\n        /* \"@openzeppelin/contracts/utils/cryptography/SignatureChecker.sol\":1239:1272  ECDSA.tryRecover(hash, signature) */\n      jump\t// in\n    tag_169:\n        /* \"@openzeppelin/contracts/utils/cryptography/SignatureChecker.sol\":1191:1272  (address recovered, ECDSA.RecoverError error) = ECDSA.tryRecover(hash, signature) */\n      swap2\n      pop\n      swap2\n      pop\n        /* \"@openzeppelin/contracts/utils/cryptography/SignatureChecker.sol\":1295:1321  ECDSA.RecoverError.NoError */\n      0x00\n        /* \"@openzeppelin/contracts/utils/cryptography/SignatureChecker.sol\":1286:1321  error == ECDSA.RecoverError.NoError */\n      0x04\n      dup2\n      gt\n      iszero\n      tag_171\n      jumpi\n      mstore(0x00, 0x4e487b7100000000000000000000000000000000000000000000000000000000)\n      mstore(0x04, 0x21)\n      revert(0x00, 0x24)\n    tag_171:\n        /* \"@openzeppelin/contracts/utils/cryptography/SignatureChecker.sol\":1286:1291  error */\n      dup2\n        /* \"@openzeppelin/contracts/utils/cryptography/SignatureChecker.sol\":1286:1321  error == ECDSA.RecoverError.NoError */\n      0x04\n      dup2\n      gt\n      iszero\n      tag_172\n      jumpi\n      mstore(0x00, 0x4e487b7100000000000000000000000000000000000000000000000000000000)\n      mstore(0x04, 0x21)\n      revert(0x00, 0x24)\n    tag_172:\n      eq\n        /* \"@openzeppelin/contracts/utils/cryptography/SignatureChecker.sol\":1286:1344  error == ECDSA.RecoverError.NoError && recovered == signer */\n      dup1\n      iszero\n      tag_173\n      jumpi\n      pop\n        /* \"@openzeppelin/contracts/utils/cryptography/SignatureChecker.sol\":1338:1344  signer */\n      dup6\n        /* \"@openzeppelin/contracts/utils/cryptography/SignatureChecker.sol\":1325:1344  recovered == signer */\n      0xffffffffffffffffffffffffffffffffffffffff\n      and\n        /* \"@openzeppelin/contracts/utils/cryptography/SignatureChecker.sol\":1325:1334  recovered */\n      dup3\n        /* \"@openzeppelin/contracts/utils/cryptography/SignatureChecker.sol\":1325:1344  recovered == signer */\n      0xffffffffffffffffffffffffffffffffffffffff\n      and\n      eq\n        /* \"@openzeppelin/contracts/utils/cryptography/SignatureChecker.sol\":1286:1344  error == ECDSA.RecoverError.NoError && recovered == signer */\n    tag_173:\n        /* \"@openzeppelin/contracts/utils/cryptography/SignatureChecker.sol\":1282:1382  if (error == ECDSA.RecoverError.NoError && recovered == signer) {... */\n      iszero\n      tag_174\n      jumpi\n        /* \"@openzeppelin/contracts/utils/cryptography/SignatureChecker.sol\":1367:1371  true */\n      0x01\n        /* \"@openzeppelin/contracts/utils/cryptography/SignatureChecker.sol\":1360:1371  return true */\n      swap3\n      pop\n      pop\n      pop\n      jump(tag_168)\n        /* \"@openzeppelin/contracts/utils/cryptography/SignatureChecker.sol\":1282:1382  if (error == ECDSA.RecoverError.NoError && recovered == signer) {... */\n    tag_174:\n        /* \"@openzeppelin/contracts/utils/cryptography/SignatureChecker.sol\":1393:1405  bool success */\n      0x00\n        /* \"@openzeppelin/contracts/utils/cryptography/SignatureChecker.sol\":1407:1426  bytes memory result */\n      dup1\n        /* \"@openzeppelin/contracts/utils/cryptography/SignatureChecker.sol\":1430:1436  signer */\n      dup8\n        /* \"@openzeppelin/contracts/utils/cryptography/SignatureChecker.sol\":1430:1447  signer.staticcall */\n      0xffffffffffffffffffffffffffffffffffffffff\n      and\n        /* \"@openzeppelin/contracts/utils/cryptography/SignatureChecker.sol\":1484:1518  IERC1271.isValidSignature.selector */\n      shl(0xe0, 0x1626ba7e)\n        /* \"@openzeppelin/contracts/utils/cryptography/SignatureChecker.sol\":1520:1524  hash */\n      dup9\n        /* \"@openzeppelin/contracts/utils/cryptography/SignatureChecker.sol\":1526:1535  signature */\n      dup9\n        /* \"@openzeppelin/contracts/utils/cryptography/SignatureChecker.sol\":1461:1536  abi.encodeWithSelector(IERC1271.isValidSignature.selector, hash, signature) */\n      add(0x24, mload(0x40))\n      tag_175\n      swap3\n      swap2\n      swap1\n      tag_176\n      jump\t// in\n    tag_175:\n      mload(0x40)\n      0x20\n      dup2\n      dup4\n      sub\n      sub\n      dup2\n      mstore\n      swap1\n      0x40\n      mstore\n      swap1\n      not(0xffffffffffffffffffffffffffffffffffffffffffffffffffffffff)\n      and\n      0x20\n      dup3\n      add\n      dup1\n      mload\n      0xffffffffffffffffffffffffffffffffffffffffffffffffffffffff\n      dup4\n      dup2\n      dup4\n      and\n      or\n      dup4\n      mstore\n      pop\n      pop\n      pop\n      pop\n        /* \"@openzeppelin/contracts/utils/cryptography/SignatureChecker.sol\":1430:1546  signer.staticcall(... */\n      mload(0x40)\n      tag_177\n      swap2\n      swap1\n      tag_178\n      jump\t// in\n    tag_177:\n      0x00\n      mload(0x40)\n      dup1\n      dup4\n      sub\n      dup2\n      dup6\n      gas\n      staticcall\n      swap2\n      pop\n      pop\n      returndatasize\n      dup1\n      0x00\n      dup2\n      eq\n      tag_181\n      jumpi\n      mload(0x40)\n      swap2\n      pop\n      and(add(returndatasize, 0x3f), not(0x1f))\n      dup3\n      add\n      0x40\n      mstore\n      returndatasize\n      dup3\n      mstore\n      returndatasize\n      0x00\n      0x20\n      dup5\n      add\n      returndatacopy\n      jump(tag_180)\n    tag_181:\n      0x60\n      swap2\n      pop\n    tag_180:\n      pop\n        /* \"@openzeppelin/contracts/utils/cryptography/SignatureChecker.sol\":1392:1546  (bool success, bytes memory result) = signer.staticcall(... */\n      swap2\n      pop\n      swap2\n      pop\n        /* \"@openzeppelin/contracts/utils/cryptography/SignatureChecker.sol\":1564:1571  success */\n      dup2\n        /* \"@openzeppelin/contracts/utils/cryptography/SignatureChecker.sol\":1564:1606  success &&... */\n      dup1\n      iszero\n      tag_182\n      jumpi\n      pop\n        /* \"@openzeppelin/contracts/utils/cryptography/SignatureChecker.sol\":1604:1606  32 */\n      0x20\n        /* \"@openzeppelin/contracts/utils/cryptography/SignatureChecker.sol\":1587:1593  result */\n      dup2\n        /* \"@openzeppelin/contracts/utils/cryptography/SignatureChecker.sol\":1587:1600  result.length */\n      mload\n        /* \"@openzeppelin/contracts/utils/cryptography/SignatureChecker.sol\":1587:1606  result.length == 32 */\n      eq\n        /* \"@openzeppelin/contracts/utils/cryptography/SignatureChecker.sol\":1564:1606  success &&... */\n    tag_182:\n        /* \"@openzeppelin/contracts/utils/cryptography/SignatureChecker.sol\":1564:1698  success &&... */\n      dup1\n      iszero\n      tag_183\n      jumpi\n      pop\n        /* \"@openzeppelin/contracts/utils/cryptography/SignatureChecker.sol\":1663:1697  IERC1271.isValidSignature.selector */\n      shl(0xe0, 0x1626ba7e)\n        /* \"@openzeppelin/contracts/utils/cryptography/SignatureChecker.sol\":1655:1698  bytes32(IERC1271.isValidSignature.selector) */\n      not(0xffffffffffffffffffffffffffffffffffffffffffffffffffffffff)\n      and\n        /* \"@openzeppelin/contracts/utils/cryptography/SignatureChecker.sol\":1633:1639  result */\n      dup2\n        /* \"@openzeppelin/contracts/utils/cryptography/SignatureChecker.sol\":1622:1651  abi.decode(result, (bytes32)) */\n      dup1\n      0x20\n      add\n      swap1\n      mload\n      dup2\n      add\n      swap1\n      tag_184\n      swap2\n      swap1\n      tag_185\n      jump\t// in\n    tag_184:\n        /* \"@openzeppelin/contracts/utils/cryptography/SignatureChecker.sol\":1622:1698  abi.decode(result, (bytes32)) == bytes32(IERC1271.isValidSignature.selector) */\n      eq\n        /* \"@openzeppelin/contracts/utils/cryptography/SignatureChecker.sol\":1564:1698  success &&... */\n    tag_183:\n        /* \"@openzeppelin/contracts/utils/cryptography/SignatureChecker.sol\":1556:1699  return (success &&... */\n      swap5\n      pop\n      pop\n      pop\n      pop\n      pop\n        /* \"@openzeppelin/contracts/utils/cryptography/SignatureChecker.sol\":1039:1706  function isValidSignatureNow(... */\n    tag_168:\n      swap4\n      swap3\n      pop\n      pop\n      pop\n      jump\t// out\n        /* \"contracts/utils/NFTfiSigningUtils.sol\":28657:29158  function getEncodedOffer(LoanData.Offer memory _offer) internal pure returns (bytes memory) {... */\n    tag_105:\n        /* \"contracts/utils/NFTfiSigningUtils.sol\":28735:28747  bytes memory */\n      0x60\n        /* \"contracts/utils/NFTfiSigningUtils.sol\":28812:28818  _offer */\n      dup2\n        /* \"contracts/utils/NFTfiSigningUtils.sol\":28812:28840  _offer.loanERC20Denomination */\n      0xc0\n      add\n      mload\n        /* \"contracts/utils/NFTfiSigningUtils.sol\":28858:28864  _offer */\n      dup3\n        /* \"contracts/utils/NFTfiSigningUtils.sol\":28858:28884  _offer.loanPrincipalAmount */\n      0x00\n      add\n      mload\n        /* \"contracts/utils/NFTfiSigningUtils.sol\":28902:28908  _offer */\n      dup4\n        /* \"contracts/utils/NFTfiSigningUtils.sol\":28902:28931  _offer.maximumRepaymentAmount */\n      0x20\n      add\n      mload\n        /* \"contracts/utils/NFTfiSigningUtils.sol\":28949:28955  _offer */\n      dup5\n        /* \"contracts/utils/NFTfiSigningUtils.sol\":28949:28977  _offer.nftCollateralContract */\n      0x60\n      add\n      mload\n        /* \"contracts/utils/NFTfiSigningUtils.sol\":28995:29001  _offer */\n      dup6\n        /* \"contracts/utils/NFTfiSigningUtils.sol\":28995:29017  _offer.nftCollateralId */\n      0x40\n      add\n      mload\n        /* \"contracts/utils/NFTfiSigningUtils.sol\":29035:29041  _offer */\n      dup7\n        /* \"contracts/utils/NFTfiSigningUtils.sol\":29035:29050  _offer.referrer */\n      0xe0\n      add\n      mload\n        /* \"contracts/utils/NFTfiSigningUtils.sol\":29068:29074  _offer */\n      dup8\n        /* \"contracts/utils/NFTfiSigningUtils.sol\":29068:29087  _offer.loanDuration */\n      0x80\n      add\n      mload\n        /* \"contracts/utils/NFTfiSigningUtils.sol\":29105:29111  _offer */\n      dup9\n        /* \"contracts/utils/NFTfiSigningUtils.sol\":29105:29137  _offer.loanAdminFeeInBasisPoints */\n      0xa0\n      add\n      mload\n        /* \"contracts/utils/NFTfiSigningUtils.sol\":28778:29151  abi.encodePacked(... */\n      add(0x20, mload(0x40))\n      tag_187\n      swap9\n      swap8\n      swap7\n      swap6\n      swap5\n      swap4\n      swap3\n      swap2\n      swap1\n      tag_188\n      jump\t// in\n    tag_187:\n      mload(0x40)\n      0x20\n      dup2\n      dup4\n      sub\n      sub\n      dup2\n      mstore\n      swap1\n      0x40\n      mstore\n        /* \"contracts/utils/NFTfiSigningUtils.sol\":28759:29151  return... */\n      swap1\n      pop\n        /* \"contracts/utils/NFTfiSigningUtils.sol\":28657:29158  function getEncodedOffer(LoanData.Offer memory _offer) internal pure returns (bytes memory) {... */\n      swap2\n      swap1\n      pop\n      jump\t// out\n        /* \"@openzeppelin/contracts/utils/cryptography/ECDSA.sol\":2145:2875  function tryRecover(bytes32 hash, bytes memory signature) internal pure returns (address, RecoverError) {... */\n    tag_170:\n        /* \"@openzeppelin/contracts/utils/cryptography/ECDSA.sol\":2226:2233  address */\n      0x00\n        /* \"@openzeppelin/contracts/utils/cryptography/ECDSA.sol\":2235:2247  RecoverError */\n      dup1\n        /* \"@openzeppelin/contracts/utils/cryptography/ECDSA.sol\":2283:2285  65 */\n      0x41\n        /* \"@openzeppelin/contracts/utils/cryptography/ECDSA.sol\":2263:2272  signature */\n      dup4\n        /* \"@openzeppelin/contracts/utils/cryptography/ECDSA.sol\":2263:2279  signature.length */\n      mload\n        /* \"@openzeppelin/contracts/utils/cryptography/ECDSA.sol\":2263:2285  signature.length == 65 */\n      eq\n        /* \"@openzeppelin/contracts/utils/cryptography/ECDSA.sol\":2259:2869  if (signature.length == 65) {... */\n      iszero\n      tag_190\n      jumpi\n        /* \"@openzeppelin/contracts/utils/cryptography/ECDSA.sol\":2301:2310  bytes32 r */\n      0x00\n        /* \"@openzeppelin/contracts/utils/cryptography/ECDSA.sol\":2324:2333  bytes32 s */\n      dup1\n        /* \"@openzeppelin/contracts/utils/cryptography/ECDSA.sol\":2347:2354  uint8 v */\n      0x00\n        /* \"@openzeppelin/contracts/utils/cryptography/ECDSA.sol\":2599:2603  0x20 */\n      0x20\n        /* \"@openzeppelin/contracts/utils/cryptography/ECDSA.sol\":2588:2597  signature */\n      dup7\n        /* \"@openzeppelin/contracts/utils/cryptography/ECDSA.sol\":2584:2604  add(signature, 0x20) */\n      add\n        /* \"@openzeppelin/contracts/utils/cryptography/ECDSA.sol\":2578:2605  mload(add(signature, 0x20)) */\n      mload\n        /* \"@openzeppelin/contracts/utils/cryptography/ECDSA.sol\":2573:2605  r := mload(add(signature, 0x20)) */\n      swap3\n      pop\n        /* \"@openzeppelin/contracts/utils/cryptography/ECDSA.sol\":2648:2652  0x40 */\n      0x40\n        /* \"@openzeppelin/contracts/utils/cryptography/ECDSA.sol\":2637:2646  signature */\n      dup7\n        /* \"@openzeppelin/contracts/utils/cryptography/ECDSA.sol\":2633:2653  add(signature, 0x40) */\n      add\n        /* \"@openzeppelin/contracts/utils/cryptography/ECDSA.sol\":2627:2654  mload(add(signature, 0x40)) */\n      mload\n        /* \"@openzeppelin/contracts/utils/cryptography/ECDSA.sol\":2622:2654  s := mload(add(signature, 0x40)) */\n      swap2\n      pop\n        /* \"@openzeppelin/contracts/utils/cryptography/ECDSA.sol\":2705:2709  0x60 */\n      0x60\n        /* \"@openzeppelin/contracts/utils/cryptography/ECDSA.sol\":2694:2703  signature */\n      dup7\n        /* \"@openzeppelin/contracts/utils/cryptography/ECDSA.sol\":2690:2710  add(signature, 0x60) */\n      add\n        /* \"@openzeppelin/contracts/utils/cryptography/ECDSA.sol\":2684:2711  mload(add(signature, 0x60)) */\n      mload\n        /* \"@openzeppelin/contracts/utils/cryptography/ECDSA.sol\":2681:2682  0 */\n      0x00\n        /* \"@openzeppelin/contracts/utils/cryptography/ECDSA.sol\":2676:2712  byte(0, mload(add(signature, 0x60))) */\n      byte\n        /* \"@openzeppelin/contracts/utils/cryptography/ECDSA.sol\":2671:2712  v := byte(0, mload(add(signature, 0x60))) */\n      swap1\n      pop\n        /* \"@openzeppelin/contracts/utils/cryptography/ECDSA.sol\":2746:2771  tryRecover(hash, v, r, s) */\n      tag_191\n        /* \"@openzeppelin/contracts/utils/cryptography/ECDSA.sol\":2757:2761  hash */\n      dup8\n        /* \"@openzeppelin/contracts/utils/cryptography/ECDSA.sol\":2763:2764  v */\n      dup3\n        /* \"@openzeppelin/contracts/utils/cryptography/ECDSA.sol\":2766:2767  r */\n      dup6\n        /* \"@openzeppelin/contracts/utils/cryptography/ECDSA.sol\":2769:2770  s */\n      dup6\n        /* \"@openzeppelin/contracts/utils/cryptography/ECDSA.sol\":2746:2756  tryRecover */\n      tag_192\n        /* \"@openzeppelin/contracts/utils/cryptography/ECDSA.sol\":2746:2771  tryRecover(hash, v, r, s) */\n      jump\t// in\n    tag_191:\n        /* \"@openzeppelin/contracts/utils/cryptography/ECDSA.sol\":2739:2771  return tryRecover(hash, v, r, s) */\n      swap5\n      pop\n      swap5\n      pop\n      pop\n      pop\n      pop\n      jump(tag_189)\n        /* \"@openzeppelin/contracts/utils/cryptography/ECDSA.sol\":2259:2869  if (signature.length == 65) {... */\n    tag_190:\n        /* \"@openzeppelin/contracts/utils/cryptography/ECDSA.sol\":2818:2819  0 */\n      0x00\n        /* \"@openzeppelin/contracts/utils/cryptography/ECDSA.sol\":2822:2857  RecoverError.InvalidSignatureLength */\n      0x02\n        /* \"@openzeppelin/contracts/utils/cryptography/ECDSA.sol\":2802:2858  return (address(0), RecoverError.InvalidSignatureLength) */\n      swap2\n      pop\n      swap2\n      pop\n        /* \"@openzeppelin/contracts/utils/cryptography/ECDSA.sol\":2145:2875  function tryRecover(bytes32 hash, bytes memory signature) internal pure returns (address, RecoverError) {... */\n    tag_189:\n      swap3\n      pop\n      swap3\n      swap1\n      pop\n      jump\t// out\n        /* \"@openzeppelin/contracts/utils/cryptography/ECDSA.sol\":5069:6563  function tryRecover(... */\n    tag_192:\n        /* \"@openzeppelin/contracts/utils/cryptography/ECDSA.sol\":5195:5202  address */\n      0x00\n        /* \"@openzeppelin/contracts/utils/cryptography/ECDSA.sol\":5204:5216  RecoverError */\n      dup1\n        /* \"@openzeppelin/contracts/utils/cryptography/ECDSA.sol\":6119:6185  0x7FFFFFFFFFFFFFFFFFFFFFFFFFFFFFFF5D576E7357A4501DDFE92F46681B20A0 */\n      0x7fffffffffffffffffffffffffffffff5d576e7357a4501ddfe92f46681b20a0\n        /* \"@openzeppelin/contracts/utils/cryptography/ECDSA.sol\":6114:6115  s */\n      dup4\n        /* \"@openzeppelin/contracts/utils/cryptography/ECDSA.sol\":6106:6116  uint256(s) */\n      0x00\n      shr\n        /* \"@openzeppelin/contracts/utils/cryptography/ECDSA.sol\":6106:6185  uint256(s) > 0x7FFFFFFFFFFFFFFFFFFFFFFFFFFFFFFF5D576E7357A4501DDFE92F46681B20A0 */\n      gt\n        /* \"@openzeppelin/contracts/utils/cryptography/ECDSA.sol\":6102:6263  if (uint256(s) > 0x7FFFFFFFFFFFFFFFFFFFFFFFFFFFFFFF5D576E7357A4501DDFE92F46681B20A0) {... */\n      iszero\n      tag_195\n      jumpi\n        /* \"@openzeppelin/contracts/utils/cryptography/ECDSA.sol\":6217:6218  0 */\n      0x00\n        /* \"@openzeppelin/contracts/utils/cryptography/ECDSA.sol\":6221:6251  RecoverError.InvalidSignatureS */\n      0x03\n        /* \"@openzeppelin/contracts/utils/cryptography/ECDSA.sol\":6201:6252  return (address(0), RecoverError.InvalidSignatureS) */\n      swap2\n      pop\n      swap2\n      pop\n      jump(tag_194)\n        /* \"@openzeppelin/contracts/utils/cryptography/ECDSA.sol\":6102:6263  if (uint256(s) > 0x7FFFFFFFFFFFFFFFFFFFFFFFFFFFFFFF5D576E7357A4501DDFE92F46681B20A0) {... */\n    tag_195:\n        /* \"@openzeppelin/contracts/utils/cryptography/ECDSA.sol\":6357:6371  address signer */\n      0x00\n        /* \"@openzeppelin/contracts/utils/cryptography/ECDSA.sol\":6374:6398  ecrecover(hash, v, r, s) */\n      0x01\n        /* \"@openzeppelin/contracts/utils/cryptography/ECDSA.sol\":6384:6388  hash */\n      dup8\n        /* \"@openzeppelin/contracts/utils/cryptography/ECDSA.sol\":6390:6391  v */\n      dup8\n        /* \"@openzeppelin/contracts/utils/cryptography/ECDSA.sol\":6393:6394  r */\n      dup8\n        /* \"@openzeppelin/contracts/utils/cryptography/ECDSA.sol\":6396:6397  s */\n      dup8\n        /* \"@openzeppelin/contracts/utils/cryptography/ECDSA.sol\":6374:6398  ecrecover(hash, v, r, s) */\n      mload(0x40)\n      0x00\n      dup2\n      mstore\n      0x20\n      add\n      0x40\n      mstore\n      mload(0x40)\n      tag_196\n      swap5\n      swap4\n      swap3\n      swap2\n      swap1\n      tag_197\n      jump\t// in\n    tag_196:\n      0x20\n      mload(0x40)\n      0x20\n      dup2\n      sub\n      swap1\n      dup1\n      dup5\n      sub\n      swap1\n      dup6\n      gas\n      staticcall\n      iszero\n      dup1\n      iszero\n      tag_199\n      jumpi\n      returndatasize\n      0x00\n      dup1\n      returndatacopy\n      revert(0x00, returndatasize)\n    tag_199:\n      pop\n      pop\n      pop\n      mload(sub(mload(0x40), 0x20))\n        /* \"@openzeppelin/contracts/utils/cryptography/ECDSA.sol\":6357:6398  address signer = ecrecover(hash, v, r, s) */\n      swap1\n      pop\n        /* \"@openzeppelin/contracts/utils/cryptography/ECDSA.sol\":6430:6431  0 */\n      0x00\n        /* \"@openzeppelin/contracts/utils/cryptography/ECDSA.sol\":6412:6432  signer == address(0) */\n      0xffffffffffffffffffffffffffffffffffffffff\n      and\n        /* \"@openzeppelin/contracts/utils/cryptography/ECDSA.sol\":6412:6418  signer */\n      dup2\n        /* \"@openzeppelin/contracts/utils/cryptography/ECDSA.sol\":6412:6432  signer == address(0) */\n      0xffffffffffffffffffffffffffffffffffffffff\n      and\n      eq\n        /* \"@openzeppelin/contracts/utils/cryptography/ECDSA.sol\":6408:6509  if (signer == address(0)) {... */\n      iszero\n      tag_200\n      jumpi\n        /* \"@openzeppelin/contracts/utils/cryptography/ECDSA.sol\":6464:6465  0 */\n      0x00\n        /* \"@openzeppelin/contracts/utils/cryptography/ECDSA.sol\":6468:6497  RecoverError.InvalidSignature */\n      0x01\n        /* \"@openzeppelin/contracts/utils/cryptography/ECDSA.sol\":6448:6498  return (address(0), RecoverError.InvalidSignature) */\n      swap3\n      pop\n      swap3\n      pop\n      pop\n      jump(tag_194)\n        /* \"@openzeppelin/contracts/utils/cryptography/ECDSA.sol\":6408:6509  if (signer == address(0)) {... */\n    tag_200:\n        /* \"@openzeppelin/contracts/utils/cryptography/ECDSA.sol\":6527:6533  signer */\n      dup1\n        /* \"@openzeppelin/contracts/utils/cryptography/ECDSA.sol\":6535:6555  RecoverError.NoError */\n      0x00\n        /* \"@openzeppelin/contracts/utils/cryptography/ECDSA.sol\":6519:6556  return (signer, RecoverError.NoError) */\n      swap3\n      pop\n      swap3\n      pop\n      pop\n        /* \"@openzeppelin/contracts/utils/cryptography/ECDSA.sol\":5069:6563  function tryRecover(... */\n    tag_194:\n      swap5\n      pop\n      swap5\n      swap3\n      pop\n      pop\n      pop\n      jump\t// out\n        /* \"#utility.yul\":59:966   */\n    tag_202:\n        /* \"#utility.yul\":193:198   */\n      0x00\n        /* \"#utility.yul\":218:337   */\n      tag_204\n        /* \"#utility.yul\":234:336   */\n      tag_205\n        /* \"#utility.yul\":329:335   */\n      dup5\n        /* \"#utility.yul\":234:336   */\n      tag_206\n      jump\t// in\n    tag_205:\n        /* \"#utility.yul\":218:337   */\n      tag_207\n      jump\t// in\n    tag_204:\n        /* \"#utility.yul\":209:337   */\n      swap1\n      pop\n        /* \"#utility.yul\":357:362   */\n      dup1\n        /* \"#utility.yul\":386:392   */\n      dup4\n        /* \"#utility.yul\":379:384   */\n      dup3\n        /* \"#utility.yul\":372:393   */\n      mstore\n        /* \"#utility.yul\":420:424   */\n      0x20\n        /* \"#utility.yul\":413:418   */\n      dup3\n        /* \"#utility.yul\":409:425   */\n      add\n        /* \"#utility.yul\":402:425   */\n      swap1\n      pop\n        /* \"#utility.yul\":446:452   */\n      dup3\n        /* \"#utility.yul\":496:499   */\n      dup6\n        /* \"#utility.yul\":488:492   */\n      0x20\n        /* \"#utility.yul\":480:486   */\n      dup7\n        /* \"#utility.yul\":476:493   */\n      mul\n        /* \"#utility.yul\":471:474   */\n      dup3\n        /* \"#utility.yul\":467:494   */\n      add\n        /* \"#utility.yul\":464:500   */\n      gt\n        /* \"#utility.yul\":461:463   */\n      iszero\n      tag_208\n      jumpi\n        /* \"#utility.yul\":525:526   */\n      0x00\n        /* \"#utility.yul\":522:523   */\n      dup1\n        /* \"#utility.yul\":515:527   */\n      revert\n        /* \"#utility.yul\":461:463   */\n    tag_208:\n        /* \"#utility.yul\":561:562   */\n      0x00\n        /* \"#utility.yul\":546:960   */\n    tag_209:\n        /* \"#utility.yul\":571:577   */\n      dup6\n        /* \"#utility.yul\":568:569   */\n      dup2\n        /* \"#utility.yul\":565:578   */\n      lt\n        /* \"#utility.yul\":546:960   */\n      iszero\n      tag_211\n      jumpi\n        /* \"#utility.yul\":653:656   */\n      dup2\n        /* \"#utility.yul\":640:657   */\n      calldataload\n        /* \"#utility.yul\":689:707   */\n      0xffffffffffffffff\n        /* \"#utility.yul\":676:687   */\n      dup2\n        /* \"#utility.yul\":673:708   */\n      gt\n        /* \"#utility.yul\":670:672   */\n      iszero\n      tag_212\n      jumpi\n        /* \"#utility.yul\":721:722   */\n      0x00\n        /* \"#utility.yul\":718:719   */\n      dup1\n        /* \"#utility.yul\":711:723   */\n      revert\n        /* \"#utility.yul\":670:672   */\n    tag_212:\n        /* \"#utility.yul\":768:779   */\n      dup1\n        /* \"#utility.yul\":760:766   */\n      dup7\n        /* \"#utility.yul\":756:780   */\n      add\n        /* \"#utility.yul\":806:881   */\n      tag_213\n        /* \"#utility.yul\":877:880   */\n      dup10\n        /* \"#utility.yul\":865:875   */\n      dup3\n        /* \"#utility.yul\":806:881   */\n      tag_214\n      jump\t// in\n    tag_213:\n        /* \"#utility.yul\":801:804   */\n      dup6\n        /* \"#utility.yul\":794:882   */\n      mstore\n        /* \"#utility.yul\":911:915   */\n      0x20\n        /* \"#utility.yul\":906:909   */\n      dup6\n        /* \"#utility.yul\":902:916   */\n      add\n        /* \"#utility.yul\":895:916   */\n      swap5\n      pop\n        /* \"#utility.yul\":945:949   */\n      0x20\n        /* \"#utility.yul\":940:943   */\n      dup5\n        /* \"#utility.yul\":936:950   */\n      add\n        /* \"#utility.yul\":929:950   */\n      swap4\n      pop\n        /* \"#utility.yul\":606:960   */\n      pop\n      pop\n        /* \"#utility.yul\":593:594   */\n      0x01\n        /* \"#utility.yul\":590:591   */\n      dup2\n        /* \"#utility.yul\":586:595   */\n      add\n        /* \"#utility.yul\":581:595   */\n      swap1\n      pop\n        /* \"#utility.yul\":546:960   */\n      jump(tag_209)\n    tag_211:\n        /* \"#utility.yul\":550:564   */\n      pop\n        /* \"#utility.yul\":199:966   */\n      pop\n      pop\n      swap4\n      swap3\n      pop\n      pop\n      pop\n      jump\t// out\n        /* \"#utility.yul\":1022:1785   */\n    tag_215:\n        /* \"#utility.yul\":1154:1159   */\n      0x00\n        /* \"#utility.yul\":1179:1296   */\n      tag_217\n        /* \"#utility.yul\":1195:1295   */\n      tag_218\n        /* \"#utility.yul\":1288:1294   */\n      dup5\n        /* \"#utility.yul\":1195:1295   */\n      tag_219\n      jump\t// in\n    tag_218:\n        /* \"#utility.yul\":1179:1296   */\n      tag_207\n      jump\t// in\n    tag_217:\n        /* \"#utility.yul\":1170:1296   */\n      swap1\n      pop\n        /* \"#utility.yul\":1316:1321   */\n      dup1\n        /* \"#utility.yul\":1345:1351   */\n      dup4\n        /* \"#utility.yul\":1338:1343   */\n      dup3\n        /* \"#utility.yul\":1331:1352   */\n      mstore\n        /* \"#utility.yul\":1379:1383   */\n      0x20\n        /* \"#utility.yul\":1372:1377   */\n      dup3\n        /* \"#utility.yul\":1368:1384   */\n      add\n        /* \"#utility.yul\":1361:1384   */\n      swap1\n      pop\n        /* \"#utility.yul\":1405:1411   */\n      dup3\n        /* \"#utility.yul\":1455:1458   */\n      dup6\n        /* \"#utility.yul\":1447:1451   */\n      0x40\n        /* \"#utility.yul\":1439:1445   */\n      dup7\n        /* \"#utility.yul\":1435:1452   */\n      mul\n        /* \"#utility.yul\":1430:1433   */\n      dup3\n        /* \"#utility.yul\":1426:1453   */\n      add\n        /* \"#utility.yul\":1423:1459   */\n      gt\n        /* \"#utility.yul\":1420:1422   */\n      iszero\n      tag_220\n      jumpi\n        /* \"#utility.yul\":1484:1485   */\n      0x00\n        /* \"#utility.yul\":1481:1482   */\n      dup1\n        /* \"#utility.yul\":1474:1486   */\n      revert\n        /* \"#utility.yul\":1420:1422   */\n    tag_220:\n        /* \"#utility.yul\":1520:1521   */\n      0x00\n        /* \"#utility.yul\":1505:1779   */\n    tag_221:\n        /* \"#utility.yul\":1530:1536   */\n      dup6\n        /* \"#utility.yul\":1527:1528   */\n      dup2\n        /* \"#utility.yul\":1524:1537   */\n      lt\n        /* \"#utility.yul\":1505:1779   */\n      iszero\n      tag_223\n      jumpi\n        /* \"#utility.yul\":1598:1601   */\n      dup2\n        /* \"#utility.yul\":1627:1700   */\n      tag_224\n        /* \"#utility.yul\":1696:1699   */\n      dup9\n        /* \"#utility.yul\":1684:1694   */\n      dup3\n        /* \"#utility.yul\":1627:1700   */\n      tag_225\n      jump\t// in\n    tag_224:\n        /* \"#utility.yul\":1622:1625   */\n      dup5\n        /* \"#utility.yul\":1615:1701   */\n      mstore\n        /* \"#utility.yul\":1730:1734   */\n      0x20\n        /* \"#utility.yul\":1725:1728   */\n      dup5\n        /* \"#utility.yul\":1721:1735   */\n      add\n        /* \"#utility.yul\":1714:1735   */\n      swap4\n      pop\n        /* \"#utility.yul\":1764:1768   */\n      0x40\n        /* \"#utility.yul\":1759:1762   */\n      dup4\n        /* \"#utility.yul\":1755:1769   */\n      add\n        /* \"#utility.yul\":1748:1769   */\n      swap3\n      pop\n        /* \"#utility.yul\":1565:1779   */\n      pop\n        /* \"#utility.yul\":1552:1553   */\n      0x01\n        /* \"#utility.yul\":1549:1550   */\n      dup2\n        /* \"#utility.yul\":1545:1554   */\n      add\n        /* \"#utility.yul\":1540:1554   */\n      swap1\n      pop\n        /* \"#utility.yul\":1505:1779   */\n      jump(tag_221)\n    tag_223:\n        /* \"#utility.yul\":1509:1523   */\n      pop\n        /* \"#utility.yul\":1160:1785   */\n      pop\n      pop\n      swap4\n      swap3\n      pop\n      pop\n      pop\n      jump\t// out\n        /* \"#utility.yul\":1842:2608   */\n    tag_226:\n        /* \"#utility.yul\":1975:1980   */\n      0x00\n        /* \"#utility.yul\":2000:2118   */\n      tag_228\n        /* \"#utility.yul\":2016:2117   */\n      tag_229\n        /* \"#utility.yul\":2110:2116   */\n      dup5\n        /* \"#utility.yul\":2016:2117   */\n      tag_230\n      jump\t// in\n    tag_229:\n        /* \"#utility.yul\":2000:2118   */\n      tag_207\n      jump\t// in\n    tag_228:\n        /* \"#utility.yul\":1991:2118   */\n      swap1\n      pop\n        /* \"#utility.yul\":2138:2143   */\n      dup1\n        /* \"#utility.yul\":2167:2173   */\n      dup4\n        /* \"#utility.yul\":2160:2165   */\n      dup3\n        /* \"#utility.yul\":2153:2174   */\n      mstore\n        /* \"#utility.yul\":2201:2205   */\n      0x20\n        /* \"#utility.yul\":2194:2199   */\n      dup3\n        /* \"#utility.yul\":2190:2206   */\n      add\n        /* \"#utility.yul\":2183:2206   */\n      swap1\n      pop\n        /* \"#utility.yul\":2227:2233   */\n      dup3\n        /* \"#utility.yul\":2277:2280   */\n      dup6\n        /* \"#utility.yul\":2269:2273   */\n      0x60\n        /* \"#utility.yul\":2261:2267   */\n      dup7\n        /* \"#utility.yul\":2257:2274   */\n      mul\n        /* \"#utility.yul\":2252:2255   */\n      dup3\n        /* \"#utility.yul\":2248:2275   */\n      add\n        /* \"#utility.yul\":2245:2281   */\n      gt\n        /* \"#utility.yul\":2242:2244   */\n      iszero\n      tag_231\n      jumpi\n        /* \"#utility.yul\":2306:2307   */\n      0x00\n        /* \"#utility.yul\":2303:2304   */\n      dup1\n        /* \"#utility.yul\":2296:2308   */\n      revert\n        /* \"#utility.yul\":2242:2244   */\n    tag_231:\n        /* \"#utility.yul\":2342:2343   */\n      0x00\n        /* \"#utility.yul\":2327:2602   */\n    tag_232:\n        /* \"#utility.yul\":2352:2358   */\n      dup6\n        /* \"#utility.yul\":2349:2350   */\n      dup2\n        /* \"#utility.yul\":2346:2359   */\n      lt\n        /* \"#utility.yul\":2327:2602   */\n      iszero\n      tag_234\n      jumpi\n        /* \"#utility.yul\":2420:2423   */\n      dup2\n        /* \"#utility.yul\":2449:2523   */\n      tag_235\n        /* \"#utility.yul\":2519:2522   */\n      dup9\n        /* \"#utility.yul\":2507:2517   */\n      dup3\n        /* \"#utility.yul\":2449:2523   */\n      tag_236\n      jump\t// in\n    tag_235:\n        /* \"#utility.yul\":2444:2447   */\n      dup5\n        /* \"#utility.yul\":2437:2524   */\n      mstore\n        /* \"#utility.yul\":2553:2557   */\n      0x20\n        /* \"#utility.yul\":2548:2551   */\n      dup5\n        /* \"#utility.yul\":2544:2558   */\n      add\n        /* \"#utility.yul\":2537:2558   */\n      swap4\n      pop\n        /* \"#utility.yul\":2587:2591   */\n      0x60\n        /* \"#utility.yul\":2582:2585   */\n      dup4\n        /* \"#utility.yul\":2578:2592   */\n      add\n        /* \"#utility.yul\":2571:2592   */\n      swap3\n      pop\n        /* \"#utility.yul\":2387:2602   */\n      pop\n        /* \"#utility.yul\":2374:2375   */\n      0x01\n        /* \"#utility.yul\":2371:2372   */\n      dup2\n        /* \"#utility.yul\":2367:2376   */\n      add\n        /* \"#utility.yul\":2362:2376   */\n      swap1\n      pop\n        /* \"#utility.yul\":2327:2602   */\n      jump(tag_232)\n    tag_234:\n        /* \"#utility.yul\":2331:2345   */\n      pop\n        /* \"#utility.yul\":1981:2608   */\n      pop\n      pop\n      swap4\n      swap3\n      pop\n      pop\n      pop\n      jump\t// out\n        /* \"#utility.yul\":2631:3286   */\n    tag_237:\n        /* \"#utility.yul\":2727:2732   */\n      0x00\n        /* \"#utility.yul\":2752:2833   */\n      tag_239\n        /* \"#utility.yul\":2768:2832   */\n      tag_240\n        /* \"#utility.yul\":2825:2831   */\n      dup5\n        /* \"#utility.yul\":2768:2832   */\n      tag_241\n      jump\t// in\n    tag_240:\n        /* \"#utility.yul\":2752:2833   */\n      tag_207\n      jump\t// in\n    tag_239:\n        /* \"#utility.yul\":2743:2833   */\n      swap1\n      pop\n        /* \"#utility.yul\":2853:2858   */\n      dup1\n        /* \"#utility.yul\":2882:2888   */\n      dup4\n        /* \"#utility.yul\":2875:2880   */\n      dup3\n        /* \"#utility.yul\":2868:2889   */\n      mstore\n        /* \"#utility.yul\":2916:2920   */\n      0x20\n        /* \"#utility.yul\":2909:2914   */\n      dup3\n        /* \"#utility.yul\":2905:2921   */\n      add\n        /* \"#utility.yul\":2898:2921   */\n      swap1\n      pop\n        /* \"#utility.yul\":2942:2948   */\n      dup3\n        /* \"#utility.yul\":2992:2995   */\n      dup6\n        /* \"#utility.yul\":2984:2988   */\n      0x20\n        /* \"#utility.yul\":2976:2982   */\n      dup7\n        /* \"#utility.yul\":2972:2989   */\n      mul\n        /* \"#utility.yul\":2967:2970   */\n      dup3\n        /* \"#utility.yul\":2963:2990   */\n      add\n        /* \"#utility.yul\":2960:2996   */\n      gt\n        /* \"#utility.yul\":2957:2959   */\n      iszero\n      tag_242\n      jumpi\n        /* \"#utility.yul\":3021:3022   */\n      0x00\n        /* \"#utility.yul\":3018:3019   */\n      dup1\n        /* \"#utility.yul\":3011:3023   */\n      revert\n        /* \"#utility.yul\":2957:2959   */\n    tag_242:\n        /* \"#utility.yul\":3057:3058   */\n      0x00\n        /* \"#utility.yul\":3042:3280   */\n    tag_243:\n        /* \"#utility.yul\":3067:3073   */\n      dup6\n        /* \"#utility.yul\":3064:3065   */\n      dup2\n        /* \"#utility.yul\":3061:3074   */\n      lt\n        /* \"#utility.yul\":3042:3280   */\n      iszero\n      tag_245\n      jumpi\n        /* \"#utility.yul\":3135:3138   */\n      dup2\n        /* \"#utility.yul\":3164:3201   */\n      tag_246\n        /* \"#utility.yul\":3197:3200   */\n      dup9\n        /* \"#utility.yul\":3185:3195   */\n      dup3\n        /* \"#utility.yul\":3164:3201   */\n      tag_247\n      jump\t// in\n    tag_246:\n        /* \"#utility.yul\":3159:3162   */\n      dup5\n        /* \"#utility.yul\":3152:3202   */\n      mstore\n        /* \"#utility.yul\":3231:3235   */\n      0x20\n        /* \"#utility.yul\":3226:3229   */\n      dup5\n        /* \"#utility.yul\":3222:3236   */\n      add\n        /* \"#utility.yul\":3215:3236   */\n      swap4\n      pop\n        /* \"#utility.yul\":3265:3269   */\n      0x20\n        /* \"#utility.yul\":3260:3263   */\n      dup4\n        /* \"#utility.yul\":3256:3270   */\n      add\n        /* \"#utility.yul\":3249:3270   */\n      swap3\n      pop\n        /* \"#utility.yul\":3102:3280   */\n      pop\n        /* \"#utility.yul\":3089:3090   */\n      0x01\n        /* \"#utility.yul\":3086:3087   */\n      dup2\n        /* \"#utility.yul\":3082:3091   */\n      add\n        /* \"#utility.yul\":3077:3091   */\n      swap1\n      pop\n        /* \"#utility.yul\":3042:3280   */\n      jump(tag_243)\n    tag_245:\n        /* \"#utility.yul\":3046:3060   */\n      pop\n        /* \"#utility.yul\":2733:3286   */\n      pop\n      pop\n      swap4\n      swap3\n      pop\n      pop\n      pop\n      jump\t// out\n        /* \"#utility.yul\":3292:3635   */\n    tag_248:\n        /* \"#utility.yul\":3369:3374   */\n      0x00\n        /* \"#utility.yul\":3394:3459   */\n      tag_250\n        /* \"#utility.yul\":3410:3458   */\n      tag_251\n        /* \"#utility.yul\":3451:3457   */\n      dup5\n        /* \"#utility.yul\":3410:3458   */\n      tag_252\n      jump\t// in\n    tag_251:\n        /* \"#utility.yul\":3394:3459   */\n      tag_207\n      jump\t// in\n    tag_250:\n        /* \"#utility.yul\":3385:3459   */\n      swap1\n      pop\n        /* \"#utility.yul\":3482:3488   */\n      dup3\n        /* \"#utility.yul\":3475:3480   */\n      dup2\n        /* \"#utility.yul\":3468:3489   */\n      mstore\n        /* \"#utility.yul\":3520:3524   */\n      0x20\n        /* \"#utility.yul\":3513:3518   */\n      dup2\n        /* \"#utility.yul\":3509:3525   */\n      add\n        /* \"#utility.yul\":3558:3561   */\n      dup5\n        /* \"#utility.yul\":3549:3555   */\n      dup5\n        /* \"#utility.yul\":3544:3547   */\n      dup5\n        /* \"#utility.yul\":3540:3556   */\n      add\n        /* \"#utility.yul\":3537:3562   */\n      gt\n        /* \"#utility.yul\":3534:3536   */\n      iszero\n      tag_253\n      jumpi\n        /* \"#utility.yul\":3575:3576   */\n      0x00\n        /* \"#utility.yul\":3572:3573   */\n      dup1\n        /* \"#utility.yul\":3565:3577   */\n      revert\n        /* \"#utility.yul\":3534:3536   */\n    tag_253:\n        /* \"#utility.yul\":3588:3629   */\n      tag_254\n        /* \"#utility.yul\":3622:3628   */\n      dup5\n        /* \"#utility.yul\":3617:3620   */\n      dup3\n        /* \"#utility.yul\":3612:3615   */\n      dup6\n        /* \"#utility.yul\":3588:3629   */\n      tag_255\n      jump\t// in\n    tag_254:\n        /* \"#utility.yul\":3375:3635   */\n      pop\n      swap4\n      swap3\n      pop\n      pop\n      pop\n      jump\t// out\n        /* \"#utility.yul\":3641:3780   */\n    tag_256:\n        /* \"#utility.yul\":3687:3692   */\n      0x00\n        /* \"#utility.yul\":3725:3731   */\n      dup2\n        /* \"#utility.yul\":3712:3732   */\n      calldataload\n        /* \"#utility.yul\":3703:3732   */\n      swap1\n      pop\n        /* \"#utility.yul\":3741:3774   */\n      tag_258\n        /* \"#utility.yul\":3768:3773   */\n      dup2\n        /* \"#utility.yul\":3741:3774   */\n      tag_259\n      jump\t// in\n    tag_258:\n        /* \"#utility.yul\":3693:3780   */\n      swap3\n      swap2\n      pop\n      pop\n      jump\t// out\n        /* \"#utility.yul\":3838:4217   */\n    tag_260:\n        /* \"#utility.yul\":3947:3952   */\n      0x00\n        /* \"#utility.yul\":3996:3999   */\n      dup3\n        /* \"#utility.yul\":3989:3993   */\n      0x1f\n        /* \"#utility.yul\":3981:3987   */\n      dup4\n        /* \"#utility.yul\":3977:3994   */\n      add\n        /* \"#utility.yul\":3973:4000   */\n      slt\n        /* \"#utility.yul\":3963:3965   */\n      tag_262\n      jumpi\n        /* \"#utility.yul\":4014:4015   */\n      0x00\n        /* \"#utility.yul\":4011:4012   */\n      dup1\n        /* \"#utility.yul\":4004:4016   */\n      revert\n        /* \"#utility.yul\":3963:3965   */\n    tag_262:\n        /* \"#utility.yul\":4054:4060   */\n      dup2\n        /* \"#utility.yul\":4041:4061   */\n      calldataload\n        /* \"#utility.yul\":4079:4211   */\n      tag_263\n        /* \"#utility.yul\":4207:4210   */\n      dup5\n        /* \"#utility.yul\":4199:4205   */\n      dup3\n        /* \"#utility.yul\":4192:4196   */\n      0x20\n        /* \"#utility.yul\":4184:4190   */\n      dup7\n        /* \"#utility.yul\":4180:4197   */\n      add\n        /* \"#utility.yul\":4079:4211   */\n      tag_202\n      jump\t// in\n    tag_263:\n        /* \"#utility.yul\":4070:4211   */\n      swap2\n      pop\n        /* \"#utility.yul\":3953:4217   */\n      pop\n      swap3\n      swap2\n      pop\n      pop\n      jump\t// out\n        /* \"#utility.yul\":4273:4648   */\n    tag_264:\n        /* \"#utility.yul\":4380:4385   */\n      0x00\n        /* \"#utility.yul\":4429:4432   */\n      dup3\n        /* \"#utility.yul\":4422:4426   */\n      0x1f\n        /* \"#utility.yul\":4414:4420   */\n      dup4\n        /* \"#utility.yul\":4410:4427   */\n      add\n        /* \"#utility.yul\":4406:4433   */\n      slt\n        /* \"#utility.yul\":4396:4398   */\n      tag_266\n      jumpi\n        /* \"#utility.yul\":4447:4448   */\n      0x00\n        /* \"#utility.yul\":4444:4445   */\n      dup1\n        /* \"#utility.yul\":4437:4449   */\n      revert\n        /* \"#utility.yul\":4396:4398   */\n    tag_266:\n        /* \"#utility.yul\":4487:4493   */\n      dup2\n        /* \"#utility.yul\":4474:4494   */\n      calldataload\n        /* \"#utility.yul\":4512:4642   */\n      tag_267\n        /* \"#utility.yul\":4638:4641   */\n      dup5\n        /* \"#utility.yul\":4630:4636   */\n      dup3\n        /* \"#utility.yul\":4623:4627   */\n      0x20\n        /* \"#utility.yul\":4615:4621   */\n      dup7\n        /* \"#utility.yul\":4611:4628   */\n      add\n        /* \"#utility.yul\":4512:4642   */\n      tag_215\n      jump\t// in\n    tag_267:\n        /* \"#utility.yul\":4503:4642   */\n      swap2\n      pop\n        /* \"#utility.yul\":4386:4648   */\n      pop\n      swap3\n      swap2\n      pop\n      pop\n      jump\t// out\n        /* \"#utility.yul\":4705:5082   */\n    tag_268:\n        /* \"#utility.yul\":4813:4818   */\n      0x00\n        /* \"#utility.yul\":4862:4865   */\n      dup3\n        /* \"#utility.yul\":4855:4859   */\n      0x1f\n        /* \"#utility.yul\":4847:4853   */\n      dup4\n        /* \"#utility.yul\":4843:4860   */\n      add\n        /* \"#utility.yul\":4839:4866   */\n      slt\n        /* \"#utility.yul\":4829:4831   */\n      tag_270\n      jumpi\n        /* \"#utility.yul\":4880:4881   */\n      0x00\n        /* \"#utility.yul\":4877:4878   */\n      dup1\n        /* \"#utility.yul\":4870:4882   */\n      revert\n        /* \"#utility.yul\":4829:4831   */\n    tag_270:\n        /* \"#utility.yul\":4920:4926   */\n      dup2\n        /* \"#utility.yul\":4907:4927   */\n      calldataload\n        /* \"#utility.yul\":4945:5076   */\n      tag_271\n        /* \"#utility.yul\":5072:5075   */\n      dup5\n        /* \"#utility.yul\":5064:5070   */\n      dup3\n        /* \"#utility.yul\":5057:5061   */\n      0x20\n        /* \"#utility.yul\":5049:5055   */\n      dup7\n        /* \"#utility.yul\":5045:5062   */\n      add\n        /* \"#utility.yul\":4945:5076   */\n      tag_226\n      jump\t// in\n    tag_271:\n        /* \"#utility.yul\":4936:5076   */\n      swap2\n      pop\n        /* \"#utility.yul\":4819:5082   */\n      pop\n      swap3\n      swap2\n      pop\n      pop\n      jump\t// out\n        /* \"#utility.yul\":5105:5408   */\n    tag_272:\n        /* \"#utility.yul\":5176:5181   */\n      0x00\n        /* \"#utility.yul\":5225:5228   */\n      dup3\n        /* \"#utility.yul\":5218:5222   */\n      0x1f\n        /* \"#utility.yul\":5210:5216   */\n      dup4\n        /* \"#utility.yul\":5206:5223   */\n      add\n        /* \"#utility.yul\":5202:5229   */\n      slt\n        /* \"#utility.yul\":5192:5194   */\n      tag_274\n      jumpi\n        /* \"#utility.yul\":5243:5244   */\n      0x00\n        /* \"#utility.yul\":5240:5241   */\n      dup1\n        /* \"#utility.yul\":5233:5245   */\n      revert\n        /* \"#utility.yul\":5192:5194   */\n    tag_274:\n        /* \"#utility.yul\":5283:5289   */\n      dup2\n        /* \"#utility.yul\":5270:5290   */\n      calldataload\n        /* \"#utility.yul\":5308:5402   */\n      tag_275\n        /* \"#utility.yul\":5398:5401   */\n      dup5\n        /* \"#utility.yul\":5390:5396   */\n      dup3\n        /* \"#utility.yul\":5383:5387   */\n      0x20\n        /* \"#utility.yul\":5375:5381   */\n      dup7\n        /* \"#utility.yul\":5371:5388   */\n      add\n        /* \"#utility.yul\":5308:5402   */\n      tag_237\n      jump\t// in\n    tag_275:\n        /* \"#utility.yul\":5299:5402   */\n      swap2\n      pop\n        /* \"#utility.yul\":5182:5408   */\n      pop\n      swap3\n      swap2\n      pop\n      pop\n      jump\t// out\n        /* \"#utility.yul\":5414:5547   */\n    tag_276:\n        /* \"#utility.yul\":5457:5462   */\n      0x00\n        /* \"#utility.yul\":5495:5501   */\n      dup2\n        /* \"#utility.yul\":5482:5502   */\n      calldataload\n        /* \"#utility.yul\":5473:5502   */\n      swap1\n      pop\n        /* \"#utility.yul\":5511:5541   */\n      tag_278\n        /* \"#utility.yul\":5535:5540   */\n      dup2\n        /* \"#utility.yul\":5511:5541   */\n      tag_279\n      jump\t// in\n    tag_278:\n        /* \"#utility.yul\":5463:5547   */\n      swap3\n      swap2\n      pop\n      pop\n      jump\t// out\n        /* \"#utility.yul\":5553:5696   */\n    tag_280:\n        /* \"#utility.yul\":5610:5615   */\n      0x00\n        /* \"#utility.yul\":5641:5647   */\n      dup2\n        /* \"#utility.yul\":5635:5648   */\n      mload\n        /* \"#utility.yul\":5626:5648   */\n      swap1\n      pop\n        /* \"#utility.yul\":5657:5690   */\n      tag_282\n        /* \"#utility.yul\":5684:5689   */\n      dup2\n        /* \"#utility.yul\":5657:5690   */\n      tag_283\n      jump\t// in\n    tag_282:\n        /* \"#utility.yul\":5616:5696   */\n      swap3\n      swap2\n      pop\n      pop\n      jump\t// out\n        /* \"#utility.yul\":5715:5986   */\n    tag_284:\n        /* \"#utility.yul\":5770:5775   */\n      0x00\n        /* \"#utility.yul\":5819:5822   */\n      dup3\n        /* \"#utility.yul\":5812:5816   */\n      0x1f\n        /* \"#utility.yul\":5804:5810   */\n      dup4\n        /* \"#utility.yul\":5800:5817   */\n      add\n        /* \"#utility.yul\":5796:5823   */\n      slt\n        /* \"#utility.yul\":5786:5788   */\n      tag_286\n      jumpi\n        /* \"#utility.yul\":5837:5838   */\n      0x00\n        /* \"#utility.yul\":5834:5835   */\n      dup1\n        /* \"#utility.yul\":5827:5839   */\n      revert\n        /* \"#utility.yul\":5786:5788   */\n    tag_286:\n        /* \"#utility.yul\":5877:5883   */\n      dup2\n        /* \"#utility.yul\":5864:5884   */\n      calldataload\n        /* \"#utility.yul\":5902:5980   */\n      tag_287\n        /* \"#utility.yul\":5976:5979   */\n      dup5\n        /* \"#utility.yul\":5968:5974   */\n      dup3\n        /* \"#utility.yul\":5961:5965   */\n      0x20\n        /* \"#utility.yul\":5953:5959   */\n      dup7\n        /* \"#utility.yul\":5949:5966   */\n      add\n        /* \"#utility.yul\":5902:5980   */\n      tag_248\n      jump\t// in\n    tag_287:\n        /* \"#utility.yul\":5893:5980   */\n      swap2\n      pop\n        /* \"#utility.yul\":5776:5986   */\n      pop\n      swap3\n      swap2\n      pop\n      pop\n      jump\t// out\n        /* \"#utility.yul\":6042:6970   */\n    tag_214:\n        /* \"#utility.yul\":6129:6134   */\n      0x00\n        /* \"#utility.yul\":6173:6177   */\n      0x60\n        /* \"#utility.yul\":6161:6170   */\n      dup3\n        /* \"#utility.yul\":6156:6159   */\n      dup5\n        /* \"#utility.yul\":6152:6171   */\n      sub\n        /* \"#utility.yul\":6148:6178   */\n      slt\n        /* \"#utility.yul\":6145:6147   */\n      iszero\n      tag_289\n      jumpi\n        /* \"#utility.yul\":6191:6192   */\n      0x00\n        /* \"#utility.yul\":6188:6189   */\n      dup1\n        /* \"#utility.yul\":6181:6193   */\n      revert\n        /* \"#utility.yul\":6145:6147   */\n    tag_289:\n        /* \"#utility.yul\":6213:6234   */\n      tag_290\n        /* \"#utility.yul\":6229:6233   */\n      0x60\n        /* \"#utility.yul\":6213:6234   */\n      tag_207\n      jump\t// in\n    tag_290:\n        /* \"#utility.yul\":6204:6234   */\n      swap1\n      pop\n        /* \"#utility.yul\":6302:6303   */\n      0x00\n        /* \"#utility.yul\":6342:6391   */\n      tag_291\n        /* \"#utility.yul\":6387:6390   */\n      dup5\n        /* \"#utility.yul\":6378:6384   */\n      dup3\n        /* \"#utility.yul\":6367:6376   */\n      dup6\n        /* \"#utility.yul\":6363:6385   */\n      add\n        /* \"#utility.yul\":6342:6391   */\n      tag_256\n      jump\t// in\n    tag_291:\n        /* \"#utility.yul\":6335:6339   */\n      0x00\n        /* \"#utility.yul\":6328:6333   */\n      dup4\n        /* \"#utility.yul\":6324:6340   */\n      add\n        /* \"#utility.yul\":6317:6392   */\n      mstore\n        /* \"#utility.yul\":6244:6403   */\n      pop\n        /* \"#utility.yul\":6489:6491   */\n      0x20\n        /* \"#utility.yul\":6478:6487   */\n      dup3\n        /* \"#utility.yul\":6474:6492   */\n      add\n        /* \"#utility.yul\":6461:6493   */\n      calldataload\n        /* \"#utility.yul\":6520:6538   */\n      0xffffffffffffffff\n        /* \"#utility.yul\":6512:6518   */\n      dup2\n        /* \"#utility.yul\":6509:6539   */\n      gt\n        /* \"#utility.yul\":6506:6508   */\n      iszero\n      tag_292\n      jumpi\n        /* \"#utility.yul\":6552:6553   */\n      0x00\n        /* \"#utility.yul\":6549:6550   */\n      dup1\n        /* \"#utility.yul\":6542:6554   */\n      revert\n        /* \"#utility.yul\":6506:6508   */\n    tag_292:\n        /* \"#utility.yul\":6595:6669   */\n      tag_293\n        /* \"#utility.yul\":6665:6668   */\n      dup5\n        /* \"#utility.yul\":6656:6662   */\n      dup3\n        /* \"#utility.yul\":6645:6654   */\n      dup6\n        /* \"#utility.yul\":6641:6663   */\n      add\n        /* \"#utility.yul\":6595:6669   */\n      tag_272\n      jump\t// in\n    tag_293:\n        /* \"#utility.yul\":6588:6592   */\n      0x20\n        /* \"#utility.yul\":6581:6586   */\n      dup4\n        /* \"#utility.yul\":6577:6593   */\n      add\n        /* \"#utility.yul\":6570:6670   */\n      mstore\n        /* \"#utility.yul\":6413:6681   */\n      pop\n        /* \"#utility.yul\":6771:6773   */\n      0x40\n        /* \"#utility.yul\":6760:6769   */\n      dup3\n        /* \"#utility.yul\":6756:6774   */\n      add\n        /* \"#utility.yul\":6743:6775   */\n      calldataload\n        /* \"#utility.yul\":6802:6820   */\n      0xffffffffffffffff\n        /* \"#utility.yul\":6794:6800   */\n      dup2\n        /* \"#utility.yul\":6791:6821   */\n      gt\n        /* \"#utility.yul\":6788:6790   */\n      iszero\n      tag_294\n      jumpi\n        /* \"#utility.yul\":6834:6835   */\n      0x00\n        /* \"#utility.yul\":6831:6832   */\n      dup1\n        /* \"#utility.yul\":6824:6836   */\n      revert\n        /* \"#utility.yul\":6788:6790   */\n    tag_294:\n        /* \"#utility.yul\":6877:6951   */\n      tag_295\n        /* \"#utility.yul\":6947:6950   */\n      dup5\n        /* \"#utility.yul\":6938:6944   */\n      dup3\n        /* \"#utility.yul\":6927:6936   */\n      dup6\n        /* \"#utility.yul\":6923:6945   */\n      add\n        /* \"#utility.yul\":6877:6951   */\n      tag_272\n      jump\t// in\n    tag_295:\n        /* \"#utility.yul\":6870:6874   */\n      0x40\n        /* \"#utility.yul\":6863:6868   */\n      dup4\n        /* \"#utility.yul\":6859:6875   */\n      add\n        /* \"#utility.yul\":6852:6952   */\n      mstore\n        /* \"#utility.yul\":6691:6963   */\n      pop\n        /* \"#utility.yul\":6135:6970   */\n      swap3\n      swap2\n      pop\n      pop\n      jump\t// out\n        /* \"#utility.yul\":7024:7553   */\n    tag_225:\n        /* \"#utility.yul\":7109:7114   */\n      0x00\n        /* \"#utility.yul\":7153:7157   */\n      0x40\n        /* \"#utility.yul\":7141:7150   */\n      dup3\n        /* \"#utility.yul\":7136:7139   */\n      dup5\n        /* \"#utility.yul\":7132:7151   */\n      sub\n        /* \"#utility.yul\":7128:7158   */\n      slt\n        /* \"#utility.yul\":7125:7127   */\n      iszero\n      tag_297\n      jumpi\n        /* \"#utility.yul\":7171:7172   */\n      0x00\n        /* \"#utility.yul\":7168:7169   */\n      dup1\n        /* \"#utility.yul\":7161:7173   */\n      revert\n        /* \"#utility.yul\":7125:7127   */\n    tag_297:\n        /* \"#utility.yul\":7193:7214   */\n      tag_298\n        /* \"#utility.yul\":7209:7213   */\n      0x40\n        /* \"#utility.yul\":7193:7214   */\n      tag_207\n      jump\t// in\n    tag_298:\n        /* \"#utility.yul\":7184:7214   */\n      swap1\n      pop\n        /* \"#utility.yul\":7282:7283   */\n      0x00\n        /* \"#utility.yul\":7322:7371   */\n      tag_299\n        /* \"#utility.yul\":7367:7370   */\n      dup5\n        /* \"#utility.yul\":7358:7364   */\n      dup3\n        /* \"#utility.yul\":7347:7356   */\n      dup6\n        /* \"#utility.yul\":7343:7365   */\n      add\n        /* \"#utility.yul\":7322:7371   */\n      tag_256\n      jump\t// in\n    tag_299:\n        /* \"#utility.yul\":7315:7319   */\n      0x00\n        /* \"#utility.yul\":7308:7313   */\n      dup4\n        /* \"#utility.yul\":7304:7320   */\n      add\n        /* \"#utility.yul\":7297:7372   */\n      mstore\n        /* \"#utility.yul\":7224:7383   */\n      pop\n        /* \"#utility.yul\":7444:7446   */\n      0x20\n        /* \"#utility.yul\":7485:7534   */\n      tag_300\n        /* \"#utility.yul\":7530:7533   */\n      dup5\n        /* \"#utility.yul\":7521:7527   */\n      dup3\n        /* \"#utility.yul\":7510:7519   */\n      dup6\n        /* \"#utility.yul\":7506:7528   */\n      add\n        /* \"#utility.yul\":7485:7534   */\n      tag_247\n      jump\t// in\n    tag_300:\n        /* \"#utility.yul\":7478:7482   */\n      0x20\n        /* \"#utility.yul\":7471:7476   */\n      dup4\n        /* \"#utility.yul\":7467:7483   */\n      add\n        /* \"#utility.yul\":7460:7535   */\n      mstore\n        /* \"#utility.yul\":7393:7546   */\n      pop\n        /* \"#utility.yul\":7115:7553   */\n      swap3\n      swap2\n      pop\n      pop\n      jump\t// out\n        /* \"#utility.yul\":7608:8304   */\n    tag_236:\n        /* \"#utility.yul\":7694:7699   */\n      0x00\n        /* \"#utility.yul\":7738:7742   */\n      0x60\n        /* \"#utility.yul\":7726:7735   */\n      dup3\n        /* \"#utility.yul\":7721:7724   */\n      dup5\n        /* \"#utility.yul\":7717:7736   */\n      sub\n        /* \"#utility.yul\":7713:7743   */\n      slt\n        /* \"#utility.yul\":7710:7712   */\n      iszero\n      tag_302\n      jumpi\n        /* \"#utility.yul\":7756:7757   */\n      0x00\n        /* \"#utility.yul\":7753:7754   */\n      dup1\n        /* \"#utility.yul\":7746:7758   */\n      revert\n        /* \"#utility.yul\":7710:7712   */\n    tag_302:\n        /* \"#utility.yul\":7778:7799   */\n      tag_303\n        /* \"#utility.yul\":7794:7798   */\n      0x60\n        /* \"#utility.yul\":7778:7799   */\n      tag_207\n      jump\t// in\n    tag_303:\n        /* \"#utility.yul\":7769:7799   */\n      swap1\n      pop\n        /* \"#utility.yul\":7867:7868   */\n      0x00\n        /* \"#utility.yul\":7907:7956   */\n      tag_304\n        /* \"#utility.yul\":7952:7955   */\n      dup5\n        /* \"#utility.yul\":7943:7949   */\n      dup3\n        /* \"#utility.yul\":7932:7941   */\n      dup6\n        /* \"#utility.yul\":7928:7950   */\n      add\n        /* \"#utility.yul\":7907:7956   */\n      tag_256\n      jump\t// in\n    tag_304:\n        /* \"#utility.yul\":7900:7904   */\n      0x00\n        /* \"#utility.yul\":7893:7898   */\n      dup4\n        /* \"#utility.yul\":7889:7905   */\n      add\n        /* \"#utility.yul\":7882:7957   */\n      mstore\n        /* \"#utility.yul\":7809:7968   */\n      pop\n        /* \"#utility.yul\":8025:8027   */\n      0x20\n        /* \"#utility.yul\":8066:8115   */\n      tag_305\n        /* \"#utility.yul\":8111:8114   */\n      dup5\n        /* \"#utility.yul\":8102:8108   */\n      dup3\n        /* \"#utility.yul\":8091:8100   */\n      dup6\n        /* \"#utility.yul\":8087:8109   */\n      add\n        /* \"#utility.yul\":8066:8115   */\n      tag_247\n      jump\t// in\n    tag_305:\n        /* \"#utility.yul\":8059:8063   */\n      0x20\n        /* \"#utility.yul\":8052:8057   */\n      dup4\n        /* \"#utility.yul\":8048:8064   */\n      add\n        /* \"#utility.yul\":8041:8116   */\n      mstore\n        /* \"#utility.yul\":7978:8127   */\n      pop\n        /* \"#utility.yul\":8198:8200   */\n      0x40\n        /* \"#utility.yul\":8239:8285   */\n      tag_306\n        /* \"#utility.yul\":8281:8284   */\n      dup5\n        /* \"#utility.yul\":8272:8278   */\n      dup3\n        /* \"#utility.yul\":8261:8270   */\n      dup6\n        /* \"#utility.yul\":8257:8279   */\n      add\n        /* \"#utility.yul\":8239:8285   */\n      tag_276\n      jump\t// in\n    tag_306:\n        /* \"#utility.yul\":8232:8236   */\n      0x40\n        /* \"#utility.yul\":8225:8230   */\n      dup4\n        /* \"#utility.yul\":8221:8237   */\n      add\n        /* \"#utility.yul\":8214:8286   */\n      mstore\n        /* \"#utility.yul\":8137:8297   */\n      pop\n        /* \"#utility.yul\":7700:8304   */\n      swap3\n      swap2\n      pop\n      pop\n      jump\t// out\n        /* \"#utility.yul\":8354:9503   */\n    tag_307:\n        /* \"#utility.yul\":8435:8440   */\n      0x00\n        /* \"#utility.yul\":8479:8483   */\n      0x60\n        /* \"#utility.yul\":8467:8476   */\n      dup3\n        /* \"#utility.yul\":8462:8465   */\n      dup5\n        /* \"#utility.yul\":8458:8477   */\n      sub\n        /* \"#utility.yul\":8454:8484   */\n      slt\n        /* \"#utility.yul\":8451:8453   */\n      iszero\n      tag_309\n      jumpi\n        /* \"#utility.yul\":8497:8498   */\n      0x00\n        /* \"#utility.yul\":8494:8495   */\n      dup1\n        /* \"#utility.yul\":8487:8499   */\n      revert\n        /* \"#utility.yul\":8451:8453   */\n    tag_309:\n        /* \"#utility.yul\":8519:8540   */\n      tag_310\n        /* \"#utility.yul\":8535:8539   */\n      0x60\n        /* \"#utility.yul\":8519:8540   */\n      tag_207\n      jump\t// in\n    tag_310:\n        /* \"#utility.yul\":8510:8540   */\n      swap1\n      pop\n        /* \"#utility.yul\":8630:8631   */\n      0x00\n        /* \"#utility.yul\":8619:8628   */\n      dup3\n        /* \"#utility.yul\":8615:8632   */\n      add\n        /* \"#utility.yul\":8602:8633   */\n      calldataload\n        /* \"#utility.yul\":8660:8678   */\n      0xffffffffffffffff\n        /* \"#utility.yul\":8652:8658   */\n      dup2\n        /* \"#utility.yul\":8649:8679   */\n      gt\n        /* \"#utility.yul\":8646:8648   */\n      iszero\n      tag_311\n      jumpi\n        /* \"#utility.yul\":8692:8693   */\n      0x00\n        /* \"#utility.yul\":8689:8690   */\n      dup1\n        /* \"#utility.yul\":8682:8694   */\n      revert\n        /* \"#utility.yul\":8646:8648   */\n    tag_311:\n        /* \"#utility.yul\":8735:8846   */\n      tag_312\n        /* \"#utility.yul\":8842:8845   */\n      dup5\n        /* \"#utility.yul\":8833:8839   */\n      dup3\n        /* \"#utility.yul\":8822:8831   */\n      dup6\n        /* \"#utility.yul\":8818:8840   */\n      add\n        /* \"#utility.yul\":8735:8846   */\n      tag_268\n      jump\t// in\n    tag_312:\n        /* \"#utility.yul\":8728:8732   */\n      0x00\n        /* \"#utility.yul\":8721:8726   */\n      dup4\n        /* \"#utility.yul\":8717:8733   */\n      add\n        /* \"#utility.yul\":8710:8847   */\n      mstore\n        /* \"#utility.yul\":8550:8858   */\n      pop\n        /* \"#utility.yul\":8947:8949   */\n      0x20\n        /* \"#utility.yul\":8936:8945   */\n      dup3\n        /* \"#utility.yul\":8932:8950   */\n      add\n        /* \"#utility.yul\":8919:8951   */\n      calldataload\n        /* \"#utility.yul\":8978:8996   */\n      0xffffffffffffffff\n        /* \"#utility.yul\":8970:8976   */\n      dup2\n        /* \"#utility.yul\":8967:8997   */\n      gt\n        /* \"#utility.yul\":8964:8966   */\n      iszero\n      tag_313\n      jumpi\n        /* \"#utility.yul\":9010:9011   */\n      0x00\n        /* \"#utility.yul\":9007:9008   */\n      dup1\n        /* \"#utility.yul\":9000:9012   */\n      revert\n        /* \"#utility.yul\":8964:8966   */\n    tag_313:\n        /* \"#utility.yul\":9053:9163   */\n      tag_314\n        /* \"#utility.yul\":9159:9162   */\n      dup5\n        /* \"#utility.yul\":9150:9156   */\n      dup3\n        /* \"#utility.yul\":9139:9148   */\n      dup6\n        /* \"#utility.yul\":9135:9157   */\n      add\n        /* \"#utility.yul\":9053:9163   */\n      tag_264\n      jump\t// in\n    tag_314:\n        /* \"#utility.yul\":9046:9050   */\n      0x20\n        /* \"#utility.yul\":9039:9044   */\n      dup4\n        /* \"#utility.yul\":9035:9051   */\n      add\n        /* \"#utility.yul\":9028:9164   */\n      mstore\n        /* \"#utility.yul\":8868:9175   */\n      pop\n        /* \"#utility.yul\":9266:9268   */\n      0x40\n        /* \"#utility.yul\":9255:9264   */\n      dup3\n        /* \"#utility.yul\":9251:9269   */\n      add\n        /* \"#utility.yul\":9238:9270   */\n      calldataload\n        /* \"#utility.yul\":9297:9315   */\n      0xffffffffffffffff\n        /* \"#utility.yul\":9289:9295   */\n      dup2\n        /* \"#utility.yul\":9286:9316   */\n      gt\n        /* \"#utility.yul\":9283:9285   */\n      iszero\n      tag_315\n      jumpi\n        /* \"#utility.yul\":9329:9330   */\n      0x00\n        /* \"#utility.yul\":9326:9327   */\n      dup1\n        /* \"#utility.yul\":9319:9331   */\n      revert\n        /* \"#utility.yul\":9283:9285   */\n    tag_315:\n        /* \"#utility.yul\":9372:9484   */\n      tag_316\n        /* \"#utility.yul\":9480:9483   */\n      dup5\n        /* \"#utility.yul\":9471:9477   */\n      dup3\n        /* \"#utility.yul\":9460:9469   */\n      dup6\n        /* \"#utility.yul\":9456:9478   */\n      add\n        /* \"#utility.yul\":9372:9484   */\n      tag_260\n      jump\t// in\n    tag_316:\n        /* \"#utility.yul\":9365:9369   */\n      0x40\n        /* \"#utility.yul\":9358:9363   */\n      dup4\n        /* \"#utility.yul\":9354:9370   */\n      add\n        /* \"#utility.yul\":9347:9485   */\n      mstore\n        /* \"#utility.yul\":9185:9496   */\n      pop\n        /* \"#utility.yul\":8441:9503   */\n      swap3\n      swap2\n      pop\n      pop\n      jump\t// out\n        /* \"#utility.yul\":9545:11528   */\n    tag_317:\n        /* \"#utility.yul\":9624:9629   */\n      0x00\n        /* \"#utility.yul\":9668:9674   */\n      0x0140\n        /* \"#utility.yul\":9656:9665   */\n      dup3\n        /* \"#utility.yul\":9651:9654   */\n      dup5\n        /* \"#utility.yul\":9647:9666   */\n      sub\n        /* \"#utility.yul\":9643:9675   */\n      slt\n        /* \"#utility.yul\":9640:9642   */\n      iszero\n      tag_319\n      jumpi\n        /* \"#utility.yul\":9688:9689   */\n      0x00\n        /* \"#utility.yul\":9685:9686   */\n      dup1\n        /* \"#utility.yul\":9678:9690   */\n      revert\n        /* \"#utility.yul\":9640:9642   */\n    tag_319:\n        /* \"#utility.yul\":9710:9733   */\n      tag_320\n        /* \"#utility.yul\":9726:9732   */\n      0x0140\n        /* \"#utility.yul\":9710:9733   */\n      tag_207\n      jump\t// in\n    tag_320:\n        /* \"#utility.yul\":9701:9733   */\n      swap1\n      pop\n        /* \"#utility.yul\":9810:9811   */\n      0x00\n        /* \"#utility.yul\":9850:9899   */\n      tag_321\n        /* \"#utility.yul\":9895:9898   */\n      dup5\n        /* \"#utility.yul\":9886:9892   */\n      dup3\n        /* \"#utility.yul\":9875:9884   */\n      dup6\n        /* \"#utility.yul\":9871:9893   */\n      add\n        /* \"#utility.yul\":9850:9899   */\n      tag_247\n      jump\t// in\n    tag_321:\n        /* \"#utility.yul\":9843:9847   */\n      0x00\n        /* \"#utility.yul\":9836:9841   */\n      dup4\n        /* \"#utility.yul\":9832:9848   */\n      add\n        /* \"#utility.yul\":9825:9900   */\n      mstore\n        /* \"#utility.yul\":9743:9911   */\n      pop\n        /* \"#utility.yul\":9988:9990   */\n      0x20\n        /* \"#utility.yul\":10029:10078   */\n      tag_322\n        /* \"#utility.yul\":10074:10077   */\n      dup5\n        /* \"#utility.yul\":10065:10071   */\n      dup3\n        /* \"#utility.yul\":10054:10063   */\n      dup6\n        /* \"#utility.yul\":10050:10072   */\n      add\n        /* \"#utility.yul\":10029:10078   */\n      tag_247\n      jump\t// in\n    tag_322:\n        /* \"#utility.yul\":10022:10026   */\n      0x20\n        /* \"#utility.yul\":10015:10020   */\n      dup4\n        /* \"#utility.yul\":10011:10027   */\n      add\n        /* \"#utility.yul\":10004:10079   */\n      mstore\n        /* \"#utility.yul\":9921:10090   */\n      pop\n        /* \"#utility.yul\":10160:10162   */\n      0x40\n        /* \"#utility.yul\":10201:10250   */\n      tag_323\n        /* \"#utility.yul\":10246:10249   */\n      dup5\n        /* \"#utility.yul\":10237:10243   */\n      dup3\n        /* \"#utility.yul\":10226:10235   */\n      dup6\n        /* \"#utility.yul\":10222:10244   */\n      add\n        /* \"#utility.yul\":10201:10250   */\n      tag_247\n      jump\t// in\n    tag_323:\n        /* \"#utility.yul\":10194:10198   */\n      0x40\n        /* \"#utility.yul\":10187:10192   */\n      dup4\n        /* \"#utility.yul\":10183:10199   */\n      add\n        /* \"#utility.yul\":10176:10251   */\n      mstore\n        /* \"#utility.yul\":10100:10262   */\n      pop\n        /* \"#utility.yul\":10338:10340   */\n      0x60\n        /* \"#utility.yul\":10379:10428   */\n      tag_324\n        /* \"#utility.yul\":10424:10427   */\n      dup5\n        /* \"#utility.yul\":10415:10421   */\n      dup3\n        /* \"#utility.yul\":10404:10413   */\n      dup6\n        /* \"#utility.yul\":10400:10422   */\n      add\n        /* \"#utility.yul\":10379:10428   */\n      tag_256\n      jump\t// in\n    tag_324:\n        /* \"#utility.yul\":10372:10376   */\n      0x60\n        /* \"#utility.yul\":10365:10370   */\n      dup4\n        /* \"#utility.yul\":10361:10377   */\n      add\n        /* \"#utility.yul\":10354:10429   */\n      mstore\n        /* \"#utility.yul\":10272:10440   */\n      pop\n        /* \"#utility.yul\":10510:10513   */\n      0x80\n        /* \"#utility.yul\":10552:10600   */\n      tag_325\n        /* \"#utility.yul\":10596:10599   */\n      dup5\n        /* \"#utility.yul\":10587:10593   */\n      dup3\n        /* \"#utility.yul\":10576:10585   */\n      dup6\n        /* \"#utility.yul\":10572:10594   */\n      add\n        /* \"#utility.yul\":10552:10600   */\n      tag_326\n      jump\t// in\n    tag_325:\n        /* \"#utility.yul\":10545:10549   */\n      0x80\n        /* \"#utility.yul\":10538:10543   */\n      dup4\n        /* \"#utility.yul\":10534:10550   */\n      add\n        /* \"#utility.yul\":10527:10601   */\n      mstore\n        /* \"#utility.yul\":10450:10612   */\n      pop\n        /* \"#utility.yul\":10682:10685   */\n      0xa0\n        /* \"#utility.yul\":10724:10772   */\n      tag_327\n        /* \"#utility.yul\":10768:10771   */\n      dup5\n        /* \"#utility.yul\":10759:10765   */\n      dup3\n        /* \"#utility.yul\":10748:10757   */\n      dup6\n        /* \"#utility.yul\":10744:10766   */\n      add\n        /* \"#utility.yul\":10724:10772   */\n      tag_326\n      jump\t// in\n    tag_327:\n        /* \"#utility.yul\":10717:10721   */\n      0xa0\n        /* \"#utility.yul\":10710:10715   */\n      dup4\n        /* \"#utility.yul\":10706:10722   */\n      add\n        /* \"#utility.yul\":10699:10773   */\n      mstore\n        /* \"#utility.yul\":10622:10784   */\n      pop\n        /* \"#utility.yul\":10878:10881   */\n      0xc0\n        /* \"#utility.yul\":10920:10968   */\n      tag_328\n        /* \"#utility.yul\":10964:10967   */\n      dup5\n        /* \"#utility.yul\":10955:10961   */\n      dup3\n        /* \"#utility.yul\":10944:10953   */\n      dup6\n        /* \"#utility.yul\":10940:10962   */\n      add\n        /* \"#utility.yul\":10920:10968   */\n      tag_329\n      jump\t// in\n    tag_328:\n        /* \"#utility.yul\":10913:10917   */\n      0xc0\n        /* \"#utility.yul\":10906:10911   */\n      dup4\n        /* \"#utility.yul\":10902:10918   */\n      add\n        /* \"#utility.yul\":10895:10969   */\n      mstore\n        /* \"#utility.yul\":10794:10980   */\n      pop\n        /* \"#utility.yul\":11059:11062   */\n      0xe0\n        /* \"#utility.yul\":11101:11149   */\n      tag_330\n        /* \"#utility.yul\":11145:11148   */\n      dup5\n        /* \"#utility.yul\":11136:11142   */\n      dup3\n        /* \"#utility.yul\":11125:11134   */\n      dup6\n        /* \"#utility.yul\":11121:11143   */\n      add\n        /* \"#utility.yul\":11101:11149   */\n      tag_329\n      jump\t// in\n    tag_330:\n        /* \"#utility.yul\":11094:11098   */\n      0xe0\n        /* \"#utility.yul\":11087:11092   */\n      dup4\n        /* \"#utility.yul\":11083:11099   */\n      add\n        /* \"#utility.yul\":11076:11150   */\n      mstore\n        /* \"#utility.yul\":10990:11161   */\n      pop\n        /* \"#utility.yul\":11235:11238   */\n      0x0100\n        /* \"#utility.yul\":11279:11328   */\n      tag_331\n        /* \"#utility.yul\":11324:11327   */\n      dup5\n        /* \"#utility.yul\":11315:11321   */\n      dup3\n        /* \"#utility.yul\":11304:11313   */\n      dup6\n        /* \"#utility.yul\":11300:11322   */\n      add\n        /* \"#utility.yul\":11279:11328   */\n      tag_256\n      jump\t// in\n    tag_331:\n        /* \"#utility.yul\":11270:11276   */\n      0x0100\n        /* \"#utility.yul\":11263:11268   */\n      dup4\n        /* \"#utility.yul\":11259:11277   */\n      add\n        /* \"#utility.yul\":11252:11329   */\n      mstore\n        /* \"#utility.yul\":11171:11340   */\n      pop\n        /* \"#utility.yul\":11416:11419   */\n      0x0120\n        /* \"#utility.yul\":11460:11509   */\n      tag_332\n        /* \"#utility.yul\":11505:11508   */\n      dup5\n        /* \"#utility.yul\":11496:11502   */\n      dup3\n        /* \"#utility.yul\":11485:11494   */\n      dup6\n        /* \"#utility.yul\":11481:11503   */\n      add\n        /* \"#utility.yul\":11460:11509   */\n      tag_256\n      jump\t// in\n    tag_332:\n        /* \"#utility.yul\":11451:11457   */\n      0x0120\n        /* \"#utility.yul\":11444:11449   */\n      dup4\n        /* \"#utility.yul\":11440:11458   */\n      add\n        /* \"#utility.yul\":11433:11510   */\n      mstore\n        /* \"#utility.yul\":11350:11521   */\n      pop\n        /* \"#utility.yul\":9630:11528   */\n      swap3\n      swap2\n      pop\n      pop\n      jump\t// out\n        /* \"#utility.yul\":11563:13151   */\n    tag_333:\n        /* \"#utility.yul\":11635:11640   */\n      0x00\n        /* \"#utility.yul\":11679:11685   */\n      0x0100\n        /* \"#utility.yul\":11667:11676   */\n      dup3\n        /* \"#utility.yul\":11662:11665   */\n      dup5\n        /* \"#utility.yul\":11658:11677   */\n      sub\n        /* \"#utility.yul\":11654:11686   */\n      slt\n        /* \"#utility.yul\":11651:11653   */\n      iszero\n      tag_335\n      jumpi\n        /* \"#utility.yul\":11699:11700   */\n      0x00\n        /* \"#utility.yul\":11696:11697   */\n      dup1\n        /* \"#utility.yul\":11689:11701   */\n      revert\n        /* \"#utility.yul\":11651:11653   */\n    tag_335:\n        /* \"#utility.yul\":11721:11744   */\n      tag_336\n        /* \"#utility.yul\":11737:11743   */\n      0x0100\n        /* \"#utility.yul\":11721:11744   */\n      tag_207\n      jump\t// in\n    tag_336:\n        /* \"#utility.yul\":11712:11744   */\n      swap1\n      pop\n        /* \"#utility.yul\":11818:11819   */\n      0x00\n        /* \"#utility.yul\":11858:11907   */\n      tag_337\n        /* \"#utility.yul\":11903:11906   */\n      dup5\n        /* \"#utility.yul\":11894:11900   */\n      dup3\n        /* \"#utility.yul\":11883:11892   */\n      dup6\n        /* \"#utility.yul\":11879:11901   */\n      add\n        /* \"#utility.yul\":11858:11907   */\n      tag_247\n      jump\t// in\n    tag_337:\n        /* \"#utility.yul\":11851:11855   */\n      0x00\n        /* \"#utility.yul\":11844:11849   */\n      dup4\n        /* \"#utility.yul\":11840:11856   */\n      add\n        /* \"#utility.yul\":11833:11908   */\n      mstore\n        /* \"#utility.yul\":11754:11919   */\n      pop\n        /* \"#utility.yul\":11996:11998   */\n      0x20\n        /* \"#utility.yul\":12037:12086   */\n      tag_338\n        /* \"#utility.yul\":12082:12085   */\n      dup5\n        /* \"#utility.yul\":12073:12079   */\n      dup3\n        /* \"#utility.yul\":12062:12071   */\n      dup6\n        /* \"#utility.yul\":12058:12080   */\n      add\n        /* \"#utility.yul\":12037:12086   */\n      tag_247\n      jump\t// in\n    tag_338:\n        /* \"#utility.yul\":12030:12034   */\n      0x20\n        /* \"#utility.yul\":12023:12028   */\n      dup4\n        /* \"#utility.yul\":12019:12035   */\n      add\n        /* \"#utility.yul\":12012:12087   */\n      mstore\n        /* \"#utility.yul\":11929:12098   */\n      pop\n        /* \"#utility.yul\":12168:12170   */\n      0x40\n        /* \"#utility.yul\":12209:12258   */\n      tag_339\n        /* \"#utility.yul\":12254:12257   */\n      dup5\n        /* \"#utility.yul\":12245:12251   */\n      dup3\n        /* \"#utility.yul\":12234:12243   */\n      dup6\n        /* \"#utility.yul\":12230:12252   */\n      add\n        /* \"#utility.yul\":12209:12258   */\n      tag_247\n      jump\t// in\n    tag_339:\n        /* \"#utility.yul\":12202:12206   */\n      0x40\n        /* \"#utility.yul\":12195:12200   */\n      dup4\n        /* \"#utility.yul\":12191:12207   */\n      add\n        /* \"#utility.yul\":12184:12259   */\n      mstore\n        /* \"#utility.yul\":12108:12270   */\n      pop\n        /* \"#utility.yul\":12346:12348   */\n      0x60\n        /* \"#utility.yul\":12387:12436   */\n      tag_340\n        /* \"#utility.yul\":12432:12435   */\n      dup5\n        /* \"#utility.yul\":12423:12429   */\n      dup3\n        /* \"#utility.yul\":12412:12421   */\n      dup6\n        /* \"#utility.yul\":12408:12430   */\n      add\n        /* \"#utility.yul\":12387:12436   */\n      tag_256\n      jump\t// in\n    tag_340:\n        /* \"#utility.yul\":12380:12384   */\n      0x60\n        /* \"#utility.yul\":12373:12378   */\n      dup4\n        /* \"#utility.yul\":12369:12385   */\n      add\n        /* \"#utility.yul\":12362:12437   */\n      mstore\n        /* \"#utility.yul\":12280:12448   */\n      pop\n        /* \"#utility.yul\":12515:12518   */\n      0x80\n        /* \"#utility.yul\":12557:12605   */\n      tag_341\n        /* \"#utility.yul\":12601:12604   */\n      dup5\n        /* \"#utility.yul\":12592:12598   */\n      dup3\n        /* \"#utility.yul\":12581:12590   */\n      dup6\n        /* \"#utility.yul\":12577:12599   */\n      add\n        /* \"#utility.yul\":12557:12605   */\n      tag_326\n      jump\t// in\n    tag_341:\n        /* \"#utility.yul\":12550:12554   */\n      0x80\n        /* \"#utility.yul\":12543:12548   */\n      dup4\n        /* \"#utility.yul\":12539:12555   */\n      add\n        /* \"#utility.yul\":12532:12606   */\n      mstore\n        /* \"#utility.yul\":12458:12617   */\n      pop\n        /* \"#utility.yul\":12697:12700   */\n      0xa0\n        /* \"#utility.yul\":12739:12787   */\n      tag_342\n        /* \"#utility.yul\":12783:12786   */\n      dup5\n        /* \"#utility.yul\":12774:12780   */\n      dup3\n        /* \"#utility.yul\":12763:12772   */\n      dup6\n        /* \"#utility.yul\":12759:12781   */\n      add\n        /* \"#utility.yul\":12739:12787   */\n      tag_329\n      jump\t// in\n    tag_342:\n        /* \"#utility.yul\":12732:12736   */\n      0xa0\n        /* \"#utility.yul\":12725:12730   */\n      dup4\n        /* \"#utility.yul\":12721:12737   */\n      add\n        /* \"#utility.yul\":12714:12788   */\n      mstore\n        /* \"#utility.yul\":12627:12799   */\n      pop\n        /* \"#utility.yul\":12875:12878   */\n      0xc0\n        /* \"#utility.yul\":12917:12966   */\n      tag_343\n        /* \"#utility.yul\":12962:12965   */\n      dup5\n        /* \"#utility.yul\":12953:12959   */\n      dup3\n        /* \"#utility.yul\":12942:12951   */\n      dup6\n        /* \"#utility.yul\":12938:12960   */\n      add\n        /* \"#utility.yul\":12917:12966   */\n      tag_256\n      jump\t// in\n    tag_343:\n        /* \"#utility.yul\":12910:12914   */\n      0xc0\n        /* \"#utility.yul\":12903:12908   */\n      dup4\n        /* \"#utility.yul\":12899:12915   */\n      add\n        /* \"#utility.yul\":12892:12967   */\n      mstore\n        /* \"#utility.yul\":12809:12978   */\n      pop\n        /* \"#utility.yul\":13041:13044   */\n      0xe0\n        /* \"#utility.yul\":13083:13132   */\n      tag_344\n        /* \"#utility.yul\":13128:13131   */\n      dup5\n        /* \"#utility.yul\":13119:13125   */\n      dup3\n        /* \"#utility.yul\":13108:13117   */\n      dup6\n        /* \"#utility.yul\":13104:13126   */\n      add\n        /* \"#utility.yul\":13083:13132   */\n      tag_256\n      jump\t// in\n    tag_344:\n        /* \"#utility.yul\":13076:13080   */\n      0xe0\n        /* \"#utility.yul\":13069:13074   */\n      dup4\n        /* \"#utility.yul\":13065:13081   */\n      add\n        /* \"#utility.yul\":13058:13133   */\n      mstore\n        /* \"#utility.yul\":12988:13144   */\n      pop\n        /* \"#utility.yul\":11641:13151   */\n      swap3\n      swap2\n      pop\n      pop\n      jump\t// out\n        /* \"#utility.yul\":13190:14133   */\n    tag_345:\n        /* \"#utility.yul\":13266:13271   */\n      0x00\n        /* \"#utility.yul\":13310:13314   */\n      0x80\n        /* \"#utility.yul\":13298:13307   */\n      dup3\n        /* \"#utility.yul\":13293:13296   */\n      dup5\n        /* \"#utility.yul\":13289:13308   */\n      sub\n        /* \"#utility.yul\":13285:13315   */\n      slt\n        /* \"#utility.yul\":13282:13284   */\n      iszero\n      tag_347\n      jumpi\n        /* \"#utility.yul\":13328:13329   */\n      0x00\n        /* \"#utility.yul\":13325:13326   */\n      dup1\n        /* \"#utility.yul\":13318:13330   */\n      revert\n        /* \"#utility.yul\":13282:13284   */\n    tag_347:\n        /* \"#utility.yul\":13350:13371   */\n      tag_348\n        /* \"#utility.yul\":13366:13370   */\n      0x80\n        /* \"#utility.yul\":13350:13371   */\n      tag_207\n      jump\t// in\n    tag_348:\n        /* \"#utility.yul\":13341:13371   */\n      swap1\n      pop\n        /* \"#utility.yul\":13431:13432   */\n      0x00\n        /* \"#utility.yul\":13471:13520   */\n      tag_349\n        /* \"#utility.yul\":13516:13519   */\n      dup5\n        /* \"#utility.yul\":13507:13513   */\n      dup3\n        /* \"#utility.yul\":13496:13505   */\n      dup6\n        /* \"#utility.yul\":13492:13514   */\n      add\n        /* \"#utility.yul\":13471:13520   */\n      tag_247\n      jump\t// in\n    tag_349:\n        /* \"#utility.yul\":13464:13468   */\n      0x00\n        /* \"#utility.yul\":13457:13462   */\n      dup4\n        /* \"#utility.yul\":13453:13469   */\n      add\n        /* \"#utility.yul\":13446:13521   */\n      mstore\n        /* \"#utility.yul\":13381:13532   */\n      pop\n        /* \"#utility.yul\":13593:13595   */\n      0x20\n        /* \"#utility.yul\":13634:13683   */\n      tag_350\n        /* \"#utility.yul\":13679:13682   */\n      dup5\n        /* \"#utility.yul\":13670:13676   */\n      dup3\n        /* \"#utility.yul\":13659:13668   */\n      dup6\n        /* \"#utility.yul\":13655:13677   */\n      add\n        /* \"#utility.yul\":13634:13683   */\n      tag_247\n      jump\t// in\n    tag_350:\n        /* \"#utility.yul\":13627:13631   */\n      0x20\n        /* \"#utility.yul\":13620:13625   */\n      dup4\n        /* \"#utility.yul\":13616:13632   */\n      add\n        /* \"#utility.yul\":13609:13684   */\n      mstore\n        /* \"#utility.yul\":13542:13695   */\n      pop\n        /* \"#utility.yul\":13756:13758   */\n      0x40\n        /* \"#utility.yul\":13797:13846   */\n      tag_351\n        /* \"#utility.yul\":13842:13845   */\n      dup5\n        /* \"#utility.yul\":13833:13839   */\n      dup3\n        /* \"#utility.yul\":13822:13831   */\n      dup6\n        /* \"#utility.yul\":13818:13840   */\n      add\n        /* \"#utility.yul\":13797:13846   */\n      tag_256\n      jump\t// in\n    tag_351:\n        /* \"#utility.yul\":13790:13794   */\n      0x40\n        /* \"#utility.yul\":13783:13788   */\n      dup4\n        /* \"#utility.yul\":13779:13795   */\n      add\n        /* \"#utility.yul\":13772:13847   */\n      mstore\n        /* \"#utility.yul\":13705:13858   */\n      pop\n        /* \"#utility.yul\":13950:13952   */\n      0x60\n        /* \"#utility.yul\":13939:13948   */\n      dup3\n        /* \"#utility.yul\":13935:13953   */\n      add\n        /* \"#utility.yul\":13922:13954   */\n      calldataload\n        /* \"#utility.yul\":13981:13999   */\n      0xffffffffffffffff\n        /* \"#utility.yul\":13973:13979   */\n      dup2\n        /* \"#utility.yul\":13970:14000   */\n      gt\n        /* \"#utility.yul\":13967:13969   */\n      iszero\n      tag_352\n      jumpi\n        /* \"#utility.yul\":14013:14014   */\n      0x00\n        /* \"#utility.yul\":14010:14011   */\n      dup1\n        /* \"#utility.yul\":14003:14015   */\n      revert\n        /* \"#utility.yul\":13967:13969   */\n    tag_352:\n        /* \"#utility.yul\":14056:14114   */\n      tag_353\n        /* \"#utility.yul\":14110:14113   */\n      dup5\n        /* \"#utility.yul\":14101:14107   */\n      dup3\n        /* \"#utility.yul\":14090:14099   */\n      dup6\n        /* \"#utility.yul\":14086:14108   */\n      add\n        /* \"#utility.yul\":14056:14114   */\n      tag_284\n      jump\t// in\n    tag_353:\n        /* \"#utility.yul\":14049:14053   */\n      0x60\n        /* \"#utility.yul\":14042:14047   */\n      dup4\n        /* \"#utility.yul\":14038:14054   */\n      add\n        /* \"#utility.yul\":14031:14115   */\n      mstore\n        /* \"#utility.yul\":13868:14126   */\n      pop\n        /* \"#utility.yul\":13272:14133   */\n      swap3\n      swap2\n      pop\n      pop\n      jump\t// out\n        /* \"#utility.yul\":14139:14276   */\n    tag_329:\n        /* \"#utility.yul\":14184:14189   */\n      0x00\n        /* \"#utility.yul\":14222:14228   */\n      dup2\n        /* \"#utility.yul\":14209:14229   */\n      calldataload\n        /* \"#utility.yul\":14200:14229   */\n      swap1\n      pop\n        /* \"#utility.yul\":14238:14270   */\n      tag_355\n        /* \"#utility.yul\":14264:14269   */\n      dup2\n        /* \"#utility.yul\":14238:14270   */\n      tag_356\n      jump\t// in\n    tag_355:\n        /* \"#utility.yul\":14190:14276   */\n      swap3\n      swap2\n      pop\n      pop\n      jump\t// out\n        /* \"#utility.yul\":14282:14421   */\n    tag_247:\n        /* \"#utility.yul\":14328:14333   */\n      0x00\n        /* \"#utility.yul\":14366:14372   */\n      dup2\n        /* \"#utility.yul\":14353:14373   */\n      calldataload\n        /* \"#utility.yul\":14344:14373   */\n      swap1\n      pop\n        /* \"#utility.yul\":14382:14415   */\n      tag_358\n        /* \"#utility.yul\":14409:14414   */\n      dup2\n        /* \"#utility.yul\":14382:14415   */\n      tag_359\n      jump\t// in\n    tag_358:\n        /* \"#utility.yul\":14334:14421   */\n      swap3\n      swap2\n      pop\n      pop\n      jump\t// out\n        /* \"#utility.yul\":14427:14564   */\n    tag_326:\n        /* \"#utility.yul\":14472:14477   */\n      0x00\n        /* \"#utility.yul\":14510:14516   */\n      dup2\n        /* \"#utility.yul\":14497:14517   */\n      calldataload\n        /* \"#utility.yul\":14488:14517   */\n      swap1\n      pop\n        /* \"#utility.yul\":14526:14558   */\n      tag_361\n        /* \"#utility.yul\":14552:14557   */\n      dup2\n        /* \"#utility.yul\":14526:14558   */\n      tag_362\n      jump\t// in\n    tag_361:\n        /* \"#utility.yul\":14478:14564   */\n      swap3\n      swap2\n      pop\n      pop\n      jump\t// out\n        /* \"#utility.yul\":14570:14854   */\n    tag_185:\n        /* \"#utility.yul\":14640:14646   */\n      0x00\n        /* \"#utility.yul\":14689:14691   */\n      0x20\n        /* \"#utility.yul\":14677:14686   */\n      dup3\n        /* \"#utility.yul\":14668:14675   */\n      dup5\n        /* \"#utility.yul\":14664:14687   */\n      sub\n        /* \"#utility.yul\":14660:14692   */\n      slt\n        /* \"#utility.yul\":14657:14659   */\n      iszero\n      tag_364\n      jumpi\n        /* \"#utility.yul\":14705:14706   */\n      0x00\n        /* \"#utility.yul\":14702:14703   */\n      dup1\n        /* \"#utility.yul\":14695:14707   */\n      revert\n        /* \"#utility.yul\":14657:14659   */\n    tag_364:\n        /* \"#utility.yul\":14748:14749   */\n      0x00\n        /* \"#utility.yul\":14773:14837   */\n      tag_365\n        /* \"#utility.yul\":14829:14836   */\n      dup5\n        /* \"#utility.yul\":14820:14826   */\n      dup3\n        /* \"#utility.yul\":14809:14818   */\n      dup6\n        /* \"#utility.yul\":14805:14827   */\n      add\n        /* \"#utility.yul\":14773:14837   */\n      tag_280\n      jump\t// in\n    tag_365:\n        /* \"#utility.yul\":14763:14837   */\n      swap2\n      pop\n        /* \"#utility.yul\":14719:14847   */\n      pop\n        /* \"#utility.yul\":14647:14854   */\n      swap3\n      swap2\n      pop\n      pop\n      jump\t// out\n        /* \"#utility.yul\":14860:15779   */\n    tag_16:\n        /* \"#utility.yul\":15026:15032   */\n      0x00\n        /* \"#utility.yul\":15034:15040   */\n      dup1\n        /* \"#utility.yul\":15042:15048   */\n      0x00\n        /* \"#utility.yul\":15091:15094   */\n      0x0180\n        /* \"#utility.yul\":15079:15088   */\n      dup5\n        /* \"#utility.yul\":15070:15077   */\n      dup7\n        /* \"#utility.yul\":15066:15089   */\n      sub\n        /* \"#utility.yul\":15062:15095   */\n      slt\n        /* \"#utility.yul\":15059:15061   */\n      iszero\n      tag_367\n      jumpi\n        /* \"#utility.yul\":15108:15109   */\n      0x00\n        /* \"#utility.yul\":15105:15106   */\n      dup1\n        /* \"#utility.yul\":15098:15110   */\n      revert\n        /* \"#utility.yul\":15059:15061   */\n    tag_367:\n        /* \"#utility.yul\":15151:15152   */\n      0x00\n        /* \"#utility.yul\":15176:15259   */\n      tag_368\n        /* \"#utility.yul\":15251:15258   */\n      dup7\n        /* \"#utility.yul\":15242:15248   */\n      dup3\n        /* \"#utility.yul\":15231:15240   */\n      dup8\n        /* \"#utility.yul\":15227:15249   */\n      add\n        /* \"#utility.yul\":15176:15259   */\n      tag_317\n      jump\t// in\n    tag_368:\n        /* \"#utility.yul\":15166:15259   */\n      swap4\n      pop\n        /* \"#utility.yul\":15122:15269   */\n      pop\n        /* \"#utility.yul\":15336:15339   */\n      0x0140\n        /* \"#utility.yul\":15325:15334   */\n      dup5\n        /* \"#utility.yul\":15321:15340   */\n      add\n        /* \"#utility.yul\":15308:15341   */\n      calldataload\n        /* \"#utility.yul\":15368:15386   */\n      0xffffffffffffffff\n        /* \"#utility.yul\":15360:15366   */\n      dup2\n        /* \"#utility.yul\":15357:15387   */\n      gt\n        /* \"#utility.yul\":15354:15356   */\n      iszero\n      tag_369\n      jumpi\n        /* \"#utility.yul\":15400:15401   */\n      0x00\n        /* \"#utility.yul\":15397:15398   */\n      dup1\n        /* \"#utility.yul\":15390:15402   */\n      revert\n        /* \"#utility.yul\":15354:15356   */\n    tag_369:\n        /* \"#utility.yul\":15428:15513   */\n      tag_370\n        /* \"#utility.yul\":15505:15512   */\n      dup7\n        /* \"#utility.yul\":15496:15502   */\n      dup3\n        /* \"#utility.yul\":15485:15494   */\n      dup8\n        /* \"#utility.yul\":15481:15503   */\n      add\n        /* \"#utility.yul\":15428:15513   */\n      tag_307\n      jump\t// in\n    tag_370:\n        /* \"#utility.yul\":15418:15513   */\n      swap3\n      pop\n        /* \"#utility.yul\":15279:15523   */\n      pop\n        /* \"#utility.yul\":15590:15593   */\n      0x0160\n        /* \"#utility.yul\":15579:15588   */\n      dup5\n        /* \"#utility.yul\":15575:15594   */\n      add\n        /* \"#utility.yul\":15562:15595   */\n      calldataload\n        /* \"#utility.yul\":15622:15640   */\n      0xffffffffffffffff\n        /* \"#utility.yul\":15614:15620   */\n      dup2\n        /* \"#utility.yul\":15611:15641   */\n      gt\n        /* \"#utility.yul\":15608:15610   */\n      iszero\n      tag_371\n      jumpi\n        /* \"#utility.yul\":15654:15655   */\n      0x00\n        /* \"#utility.yul\":15651:15652   */\n      dup1\n        /* \"#utility.yul\":15644:15656   */\n      revert\n        /* \"#utility.yul\":15608:15610   */\n    tag_371:\n        /* \"#utility.yul\":15682:15762   */\n      tag_372\n        /* \"#utility.yul\":15754:15761   */\n      dup7\n        /* \"#utility.yul\":15745:15751   */\n      dup3\n        /* \"#utility.yul\":15734:15743   */\n      dup8\n        /* \"#utility.yul\":15730:15752   */\n      add\n        /* \"#utility.yul\":15682:15762   */\n      tag_345\n      jump\t// in\n    tag_372:\n        /* \"#utility.yul\":15672:15762   */\n      swap2\n      pop\n        /* \"#utility.yul\":15533:15772   */\n      pop\n        /* \"#utility.yul\":15049:15779   */\n      swap3\n      pop\n      swap3\n      pop\n      swap3\n      jump\t// out\n        /* \"#utility.yul\":15785:16850   */\n    tag_22:\n        /* \"#utility.yul\":15960:15966   */\n      0x00\n        /* \"#utility.yul\":15968:15974   */\n      dup1\n        /* \"#utility.yul\":15976:15982   */\n      0x00\n        /* \"#utility.yul\":15984:15990   */\n      dup1\n        /* \"#utility.yul\":16033:16036   */\n      0x01a0\n        /* \"#utility.yul\":16021:16030   */\n      dup6\n        /* \"#utility.yul\":16012:16019   */\n      dup8\n        /* \"#utility.yul\":16008:16031   */\n      sub\n        /* \"#utility.yul\":16004:16037   */\n      slt\n        /* \"#utility.yul\":16001:16003   */\n      iszero\n      tag_374\n      jumpi\n        /* \"#utility.yul\":16050:16051   */\n      0x00\n        /* \"#utility.yul\":16047:16048   */\n      dup1\n        /* \"#utility.yul\":16040:16052   */\n      revert\n        /* \"#utility.yul\":16001:16003   */\n    tag_374:\n        /* \"#utility.yul\":16093:16094   */\n      0x00\n        /* \"#utility.yul\":16118:16201   */\n      tag_375\n        /* \"#utility.yul\":16193:16200   */\n      dup8\n        /* \"#utility.yul\":16184:16190   */\n      dup3\n        /* \"#utility.yul\":16173:16182   */\n      dup9\n        /* \"#utility.yul\":16169:16191   */\n      add\n        /* \"#utility.yul\":16118:16201   */\n      tag_317\n      jump\t// in\n    tag_375:\n        /* \"#utility.yul\":16108:16201   */\n      swap5\n      pop\n        /* \"#utility.yul\":16064:16211   */\n      pop\n        /* \"#utility.yul\":16278:16281   */\n      0x0140\n        /* \"#utility.yul\":16267:16276   */\n      dup6\n        /* \"#utility.yul\":16263:16282   */\n      add\n        /* \"#utility.yul\":16250:16283   */\n      calldataload\n        /* \"#utility.yul\":16310:16328   */\n      0xffffffffffffffff\n        /* \"#utility.yul\":16302:16308   */\n      dup2\n        /* \"#utility.yul\":16299:16329   */\n      gt\n        /* \"#utility.yul\":16296:16298   */\n      iszero\n      tag_376\n      jumpi\n        /* \"#utility.yul\":16342:16343   */\n      0x00\n        /* \"#utility.yul\":16339:16340   */\n      dup1\n        /* \"#utility.yul\":16332:16344   */\n      revert\n        /* \"#utility.yul\":16296:16298   */\n    tag_376:\n        /* \"#utility.yul\":16370:16455   */\n      tag_377\n        /* \"#utility.yul\":16447:16454   */\n      dup8\n        /* \"#utility.yul\":16438:16444   */\n      dup3\n        /* \"#utility.yul\":16427:16436   */\n      dup9\n        /* \"#utility.yul\":16423:16445   */\n      add\n        /* \"#utility.yul\":16370:16455   */\n      tag_307\n      jump\t// in\n    tag_377:\n        /* \"#utility.yul\":16360:16455   */\n      swap4\n      pop\n        /* \"#utility.yul\":16221:16465   */\n      pop\n        /* \"#utility.yul\":16532:16535   */\n      0x0160\n        /* \"#utility.yul\":16521:16530   */\n      dup6\n        /* \"#utility.yul\":16517:16536   */\n      add\n        /* \"#utility.yul\":16504:16537   */\n      calldataload\n        /* \"#utility.yul\":16564:16582   */\n      0xffffffffffffffff\n        /* \"#utility.yul\":16556:16562   */\n      dup2\n        /* \"#utility.yul\":16553:16583   */\n      gt\n        /* \"#utility.yul\":16550:16552   */\n      iszero\n      tag_378\n      jumpi\n        /* \"#utility.yul\":16596:16597   */\n      0x00\n        /* \"#utility.yul\":16593:16594   */\n      dup1\n        /* \"#utility.yul\":16586:16598   */\n      revert\n        /* \"#utility.yul\":16550:16552   */\n    tag_378:\n        /* \"#utility.yul\":16624:16704   */\n      tag_379\n        /* \"#utility.yul\":16696:16703   */\n      dup8\n        /* \"#utility.yul\":16687:16693   */\n      dup3\n        /* \"#utility.yul\":16676:16685   */\n      dup9\n        /* \"#utility.yul\":16672:16694   */\n      add\n        /* \"#utility.yul\":16624:16704   */\n      tag_345\n      jump\t// in\n    tag_379:\n        /* \"#utility.yul\":16614:16704   */\n      swap3\n      pop\n        /* \"#utility.yul\":16475:16714   */\n      pop\n        /* \"#utility.yul\":16753:16756   */\n      0x0180\n        /* \"#utility.yul\":16780:16833   */\n      tag_380\n        /* \"#utility.yul\":16825:16832   */\n      dup8\n        /* \"#utility.yul\":16816:16822   */\n      dup3\n        /* \"#utility.yul\":16805:16814   */\n      dup9\n        /* \"#utility.yul\":16801:16823   */\n      add\n        /* \"#utility.yul\":16780:16833   */\n      tag_256\n      jump\t// in\n    tag_380:\n        /* \"#utility.yul\":16770:16833   */\n      swap2\n      pop\n        /* \"#utility.yul\":16724:16843   */\n      pop\n        /* \"#utility.yul\":15991:16850   */\n      swap3\n      swap6\n      swap2\n      swap5\n      pop\n      swap3\n      pop\n      jump\t// out\n        /* \"#utility.yul\":16856:17472   */\n    tag_27:\n        /* \"#utility.yul\":16981:16987   */\n      0x00\n        /* \"#utility.yul\":16989:16995   */\n      dup1\n        /* \"#utility.yul\":17038:17041   */\n      0x0160\n        /* \"#utility.yul\":17026:17035   */\n      dup4\n        /* \"#utility.yul\":17017:17024   */\n      dup6\n        /* \"#utility.yul\":17013:17036   */\n      sub\n        /* \"#utility.yul\":17009:17042   */\n      slt\n        /* \"#utility.yul\":17006:17008   */\n      iszero\n      tag_382\n      jumpi\n        /* \"#utility.yul\":17055:17056   */\n      0x00\n        /* \"#utility.yul\":17052:17053   */\n      dup1\n        /* \"#utility.yul\":17045:17057   */\n      revert\n        /* \"#utility.yul\":17006:17008   */\n    tag_382:\n        /* \"#utility.yul\":17098:17099   */\n      0x00\n        /* \"#utility.yul\":17123:17206   */\n      tag_383\n        /* \"#utility.yul\":17198:17205   */\n      dup6\n        /* \"#utility.yul\":17189:17195   */\n      dup3\n        /* \"#utility.yul\":17178:17187   */\n      dup7\n        /* \"#utility.yul\":17174:17196   */\n      add\n        /* \"#utility.yul\":17123:17206   */\n      tag_317\n      jump\t// in\n    tag_383:\n        /* \"#utility.yul\":17113:17206   */\n      swap3\n      pop\n        /* \"#utility.yul\":17069:17216   */\n      pop\n        /* \"#utility.yul\":17283:17286   */\n      0x0140\n        /* \"#utility.yul\":17272:17281   */\n      dup4\n        /* \"#utility.yul\":17268:17287   */\n      add\n        /* \"#utility.yul\":17255:17288   */\n      calldataload\n        /* \"#utility.yul\":17315:17333   */\n      0xffffffffffffffff\n        /* \"#utility.yul\":17307:17313   */\n      dup2\n        /* \"#utility.yul\":17304:17334   */\n      gt\n        /* \"#utility.yul\":17301:17303   */\n      iszero\n      tag_384\n      jumpi\n        /* \"#utility.yul\":17347:17348   */\n      0x00\n        /* \"#utility.yul\":17344:17345   */\n      dup1\n        /* \"#utility.yul\":17337:17349   */\n      revert\n        /* \"#utility.yul\":17301:17303   */\n    tag_384:\n        /* \"#utility.yul\":17375:17455   */\n      tag_385\n        /* \"#utility.yul\":17447:17454   */\n      dup6\n        /* \"#utility.yul\":17438:17444   */\n      dup3\n        /* \"#utility.yul\":17427:17436   */\n      dup7\n        /* \"#utility.yul\":17423:17445   */\n      add\n        /* \"#utility.yul\":17375:17455   */\n      tag_345\n      jump\t// in\n    tag_385:\n        /* \"#utility.yul\":17365:17455   */\n      swap2\n      pop\n        /* \"#utility.yul\":17226:17465   */\n      pop\n        /* \"#utility.yul\":16996:17472   */\n      swap3\n      pop\n      swap3\n      swap1\n      pop\n      jump\t// out\n        /* \"#utility.yul\":17478:18240   */\n    tag_51:\n        /* \"#utility.yul\":17612:17618   */\n      0x00\n        /* \"#utility.yul\":17620:17626   */\n      dup1\n        /* \"#utility.yul\":17628:17634   */\n      0x00\n        /* \"#utility.yul\":17677:17680   */\n      0x0180\n        /* \"#utility.yul\":17665:17674   */\n      dup5\n        /* \"#utility.yul\":17656:17663   */\n      dup7\n        /* \"#utility.yul\":17652:17675   */\n      sub\n        /* \"#utility.yul\":17648:17681   */\n      slt\n        /* \"#utility.yul\":17645:17647   */\n      iszero\n      tag_387\n      jumpi\n        /* \"#utility.yul\":17694:17695   */\n      0x00\n        /* \"#utility.yul\":17691:17692   */\n      dup1\n        /* \"#utility.yul\":17684:17696   */\n      revert\n        /* \"#utility.yul\":17645:17647   */\n    tag_387:\n        /* \"#utility.yul\":17737:17738   */\n      0x00\n        /* \"#utility.yul\":17762:17845   */\n      tag_388\n        /* \"#utility.yul\":17837:17844   */\n      dup7\n        /* \"#utility.yul\":17828:17834   */\n      dup3\n        /* \"#utility.yul\":17817:17826   */\n      dup8\n        /* \"#utility.yul\":17813:17835   */\n      add\n        /* \"#utility.yul\":17762:17845   */\n      tag_317\n      jump\t// in\n    tag_388:\n        /* \"#utility.yul\":17752:17845   */\n      swap4\n      pop\n        /* \"#utility.yul\":17708:17855   */\n      pop\n        /* \"#utility.yul\":17922:17925   */\n      0x0140\n        /* \"#utility.yul\":17911:17920   */\n      dup5\n        /* \"#utility.yul\":17907:17926   */\n      add\n        /* \"#utility.yul\":17894:17927   */\n      calldataload\n        /* \"#utility.yul\":17954:17972   */\n      0xffffffffffffffff\n        /* \"#utility.yul\":17946:17952   */\n      dup2\n        /* \"#utility.yul\":17943:17973   */\n      gt\n        /* \"#utility.yul\":17940:17942   */\n      iszero\n      tag_389\n      jumpi\n        /* \"#utility.yul\":17986:17987   */\n      0x00\n        /* \"#utility.yul\":17983:17984   */\n      dup1\n        /* \"#utility.yul\":17976:17988   */\n      revert\n        /* \"#utility.yul\":17940:17942   */\n    tag_389:\n        /* \"#utility.yul\":18014:18094   */\n      tag_390\n        /* \"#utility.yul\":18086:18093   */\n      dup7\n        /* \"#utility.yul\":18077:18083   */\n      dup3\n        /* \"#utility.yul\":18066:18075   */\n      dup8\n        /* \"#utility.yul\":18062:18084   */\n      add\n        /* \"#utility.yul\":18014:18094   */\n      tag_345\n      jump\t// in\n    tag_390:\n        /* \"#utility.yul\":18004:18094   */\n      swap3\n      pop\n        /* \"#utility.yul\":17865:18104   */\n      pop\n        /* \"#utility.yul\":18143:18146   */\n      0x0160\n        /* \"#utility.yul\":18170:18223   */\n      tag_391\n        /* \"#utility.yul\":18215:18222   */\n      dup7\n        /* \"#utility.yul\":18206:18212   */\n      dup3\n        /* \"#utility.yul\":18195:18204   */\n      dup8\n        /* \"#utility.yul\":18191:18213   */\n      add\n        /* \"#utility.yul\":18170:18223   */\n      tag_256\n      jump\t// in\n    tag_391:\n        /* \"#utility.yul\":18160:18223   */\n      swap2\n      pop\n        /* \"#utility.yul\":18114:18233   */\n      pop\n        /* \"#utility.yul\":17635:18240   */\n      swap3\n      pop\n      swap3\n      pop\n      swap3\n      jump\t// out\n        /* \"#utility.yul\":18246:19151   */\n    tag_66:\n        /* \"#utility.yul\":18405:18411   */\n      0x00\n        /* \"#utility.yul\":18413:18419   */\n      dup1\n        /* \"#utility.yul\":18421:18427   */\n      0x00\n        /* \"#utility.yul\":18470:18473   */\n      0x0140\n        /* \"#utility.yul\":18458:18467   */\n      dup5\n        /* \"#utility.yul\":18449:18456   */\n      dup7\n        /* \"#utility.yul\":18445:18468   */\n      sub\n        /* \"#utility.yul\":18441:18474   */\n      slt\n        /* \"#utility.yul\":18438:18440   */\n      iszero\n      tag_393\n      jumpi\n        /* \"#utility.yul\":18487:18488   */\n      0x00\n        /* \"#utility.yul\":18484:18485   */\n      dup1\n        /* \"#utility.yul\":18477:18489   */\n      revert\n        /* \"#utility.yul\":18438:18440   */\n    tag_393:\n        /* \"#utility.yul\":18530:18531   */\n      0x00\n        /* \"#utility.yul\":18555:18631   */\n      tag_394\n        /* \"#utility.yul\":18623:18630   */\n      dup7\n        /* \"#utility.yul\":18614:18620   */\n      dup3\n        /* \"#utility.yul\":18603:18612   */\n      dup8\n        /* \"#utility.yul\":18599:18621   */\n      add\n        /* \"#utility.yul\":18555:18631   */\n      tag_333\n      jump\t// in\n    tag_394:\n        /* \"#utility.yul\":18545:18631   */\n      swap4\n      pop\n        /* \"#utility.yul\":18501:18641   */\n      pop\n        /* \"#utility.yul\":18708:18711   */\n      0x0100\n        /* \"#utility.yul\":18697:18706   */\n      dup5\n        /* \"#utility.yul\":18693:18712   */\n      add\n        /* \"#utility.yul\":18680:18713   */\n      calldataload\n        /* \"#utility.yul\":18740:18758   */\n      0xffffffffffffffff\n        /* \"#utility.yul\":18732:18738   */\n      dup2\n        /* \"#utility.yul\":18729:18759   */\n      gt\n        /* \"#utility.yul\":18726:18728   */\n      iszero\n      tag_395\n      jumpi\n        /* \"#utility.yul\":18772:18773   */\n      0x00\n        /* \"#utility.yul\":18769:18770   */\n      dup1\n        /* \"#utility.yul\":18762:18774   */\n      revert\n        /* \"#utility.yul\":18726:18728   */\n    tag_395:\n        /* \"#utility.yul\":18800:18885   */\n      tag_396\n        /* \"#utility.yul\":18877:18884   */\n      dup7\n        /* \"#utility.yul\":18868:18874   */\n      dup3\n        /* \"#utility.yul\":18857:18866   */\n      dup8\n        /* \"#utility.yul\":18853:18875   */\n      add\n        /* \"#utility.yul\":18800:18885   */\n      tag_307\n      jump\t// in\n    tag_396:\n        /* \"#utility.yul\":18790:18885   */\n      swap3\n      pop\n        /* \"#utility.yul\":18651:18895   */\n      pop\n        /* \"#utility.yul\":18962:18965   */\n      0x0120\n        /* \"#utility.yul\":18951:18960   */\n      dup5\n        /* \"#utility.yul\":18947:18966   */\n      add\n        /* \"#utility.yul\":18934:18967   */\n      calldataload\n        /* \"#utility.yul\":18994:19012   */\n      0xffffffffffffffff\n        /* \"#utility.yul\":18986:18992   */\n      dup2\n        /* \"#utility.yul\":18983:19013   */\n      gt\n        /* \"#utility.yul\":18980:18982   */\n      iszero\n      tag_397\n      jumpi\n        /* \"#utility.yul\":19026:19027   */\n      0x00\n        /* \"#utility.yul\":19023:19024   */\n      dup1\n        /* \"#utility.yul\":19016:19028   */\n      revert\n        /* \"#utility.yul\":18980:18982   */\n    tag_397:\n        /* \"#utility.yul\":19054:19134   */\n      tag_398\n        /* \"#utility.yul\":19126:19133   */\n      dup7\n        /* \"#utility.yul\":19117:19123   */\n      dup3\n        /* \"#utility.yul\":19106:19115   */\n      dup8\n        /* \"#utility.yul\":19102:19124   */\n      add\n        /* \"#utility.yul\":19054:19134   */\n      tag_345\n      jump\t// in\n    tag_398:\n        /* \"#utility.yul\":19044:19134   */\n      swap2\n      pop\n        /* \"#utility.yul\":18905:19144   */\n      pop\n        /* \"#utility.yul\":18428:19151   */\n      swap3\n      pop\n      swap3\n      pop\n      swap3\n      jump\t// out\n        /* \"#utility.yul\":19157:20208   */\n    tag_46:\n        /* \"#utility.yul\":19325:19331   */\n      0x00\n        /* \"#utility.yul\":19333:19339   */\n      dup1\n        /* \"#utility.yul\":19341:19347   */\n      0x00\n        /* \"#utility.yul\":19349:19355   */\n      dup1\n        /* \"#utility.yul\":19398:19401   */\n      0x0160\n        /* \"#utility.yul\":19386:19395   */\n      dup6\n        /* \"#utility.yul\":19377:19384   */\n      dup8\n        /* \"#utility.yul\":19373:19396   */\n      sub\n        /* \"#utility.yul\":19369:19402   */\n      slt\n        /* \"#utility.yul\":19366:19368   */\n      iszero\n      tag_400\n      jumpi\n        /* \"#utility.yul\":19415:19416   */\n      0x00\n        /* \"#utility.yul\":19412:19413   */\n      dup1\n        /* \"#utility.yul\":19405:19417   */\n      revert\n        /* \"#utility.yul\":19366:19368   */\n    tag_400:\n        /* \"#utility.yul\":19458:19459   */\n      0x00\n        /* \"#utility.yul\":19483:19559   */\n      tag_401\n        /* \"#utility.yul\":19551:19558   */\n      dup8\n        /* \"#utility.yul\":19542:19548   */\n      dup3\n        /* \"#utility.yul\":19531:19540   */\n      dup9\n        /* \"#utility.yul\":19527:19549   */\n      add\n        /* \"#utility.yul\":19483:19559   */\n      tag_333\n      jump\t// in\n    tag_401:\n        /* \"#utility.yul\":19473:19559   */\n      swap5\n      pop\n        /* \"#utility.yul\":19429:19569   */\n      pop\n        /* \"#utility.yul\":19636:19639   */\n      0x0100\n        /* \"#utility.yul\":19625:19634   */\n      dup6\n        /* \"#utility.yul\":19621:19640   */\n      add\n        /* \"#utility.yul\":19608:19641   */\n      calldataload\n        /* \"#utility.yul\":19668:19686   */\n      0xffffffffffffffff\n        /* \"#utility.yul\":19660:19666   */\n      dup2\n        /* \"#utility.yul\":19657:19687   */\n      gt\n        /* \"#utility.yul\":19654:19656   */\n      iszero\n      tag_402\n      jumpi\n        /* \"#utility.yul\":19700:19701   */\n      0x00\n        /* \"#utility.yul\":19697:19698   */\n      dup1\n        /* \"#utility.yul\":19690:19702   */\n      revert\n        /* \"#utility.yul\":19654:19656   */\n    tag_402:\n        /* \"#utility.yul\":19728:19813   */\n      tag_403\n        /* \"#utility.yul\":19805:19812   */\n      dup8\n        /* \"#utility.yul\":19796:19802   */\n      dup3\n        /* \"#utility.yul\":19785:19794   */\n      dup9\n        /* \"#utility.yul\":19781:19803   */\n      add\n        /* \"#utility.yul\":19728:19813   */\n      tag_307\n      jump\t// in\n    tag_403:\n        /* \"#utility.yul\":19718:19813   */\n      swap4\n      pop\n        /* \"#utility.yul\":19579:19823   */\n      pop\n        /* \"#utility.yul\":19890:19893   */\n      0x0120\n        /* \"#utility.yul\":19879:19888   */\n      dup6\n        /* \"#utility.yul\":19875:19894   */\n      add\n        /* \"#utility.yul\":19862:19895   */\n      calldataload\n        /* \"#utility.yul\":19922:19940   */\n      0xffffffffffffffff\n        /* \"#utility.yul\":19914:19920   */\n      dup2\n        /* \"#utility.yul\":19911:19941   */\n      gt\n        /* \"#utility.yul\":19908:19910   */\n      iszero\n      tag_404\n      jumpi\n        /* \"#utility.yul\":19954:19955   */\n      0x00\n        /* \"#utility.yul\":19951:19952   */\n      dup1\n        /* \"#utility.yul\":19944:19956   */\n      revert\n        /* \"#utility.yul\":19908:19910   */\n    tag_404:\n        /* \"#utility.yul\":19982:20062   */\n      tag_405\n        /* \"#utility.yul\":20054:20061   */\n      dup8\n        /* \"#utility.yul\":20045:20051   */\n      dup3\n        /* \"#utility.yul\":20034:20043   */\n      dup9\n        /* \"#utility.yul\":20030:20052   */\n      add\n        /* \"#utility.yul\":19982:20062   */\n      tag_345\n      jump\t// in\n    tag_405:\n        /* \"#utility.yul\":19972:20062   */\n      swap3\n      pop\n        /* \"#utility.yul\":19833:20072   */\n      pop\n        /* \"#utility.yul\":20111:20114   */\n      0x0140\n        /* \"#utility.yul\":20138:20191   */\n      tag_406\n        /* \"#utility.yul\":20183:20190   */\n      dup8\n        /* \"#utility.yul\":20174:20180   */\n      dup3\n        /* \"#utility.yul\":20163:20172   */\n      dup9\n        /* \"#utility.yul\":20159:20181   */\n      add\n        /* \"#utility.yul\":20138:20191   */\n      tag_256\n      jump\t// in\n    tag_406:\n        /* \"#utility.yul\":20128:20191   */\n      swap2\n      pop\n        /* \"#utility.yul\":20082:20201   */\n      pop\n        /* \"#utility.yul\":19356:20208   */\n      swap3\n      swap6\n      swap2\n      swap5\n      pop\n      swap3\n      pop\n      jump\t// out\n        /* \"#utility.yul\":20214:20816   */\n    tag_61:\n        /* \"#utility.yul\":20332:20338   */\n      0x00\n        /* \"#utility.yul\":20340:20346   */\n      dup1\n        /* \"#utility.yul\":20389:20392   */\n      0x0120\n        /* \"#utility.yul\":20377:20386   */\n      dup4\n        /* \"#utility.yul\":20368:20375   */\n      dup6\n        /* \"#utility.yul\":20364:20387   */\n      sub\n        /* \"#utility.yul\":20360:20393   */\n      slt\n        /* \"#utility.yul\":20357:20359   */\n      iszero\n      tag_408\n      jumpi\n        /* \"#utility.yul\":20406:20407   */\n      0x00\n        /* \"#utility.yul\":20403:20404   */\n      dup1\n        /* \"#utility.yul\":20396:20408   */\n      revert\n        /* \"#utility.yul\":20357:20359   */\n    tag_408:\n        /* \"#utility.yul\":20449:20450   */\n      0x00\n        /* \"#utility.yul\":20474:20550   */\n      tag_409\n        /* \"#utility.yul\":20542:20549   */\n      dup6\n        /* \"#utility.yul\":20533:20539   */\n      dup3\n        /* \"#utility.yul\":20522:20531   */\n      dup7\n        /* \"#utility.yul\":20518:20540   */\n      add\n        /* \"#utility.yul\":20474:20550   */\n      tag_333\n      jump\t// in\n    tag_409:\n        /* \"#utility.yul\":20464:20550   */\n      swap3\n      pop\n        /* \"#utility.yul\":20420:20560   */\n      pop\n        /* \"#utility.yul\":20627:20630   */\n      0x0100\n        /* \"#utility.yul\":20616:20625   */\n      dup4\n        /* \"#utility.yul\":20612:20631   */\n      add\n        /* \"#utility.yul\":20599:20632   */\n      calldataload\n        /* \"#utility.yul\":20659:20677   */\n      0xffffffffffffffff\n        /* \"#utility.yul\":20651:20657   */\n      dup2\n        /* \"#utility.yul\":20648:20678   */\n      gt\n        /* \"#utility.yul\":20645:20647   */\n      iszero\n      tag_410\n      jumpi\n        /* \"#utility.yul\":20691:20692   */\n      0x00\n        /* \"#utility.yul\":20688:20689   */\n      dup1\n        /* \"#utility.yul\":20681:20693   */\n      revert\n        /* \"#utility.yul\":20645:20647   */\n    tag_410:\n        /* \"#utility.yul\":20719:20799   */\n      tag_411\n        /* \"#utility.yul\":20791:20798   */\n      dup6\n        /* \"#utility.yul\":20782:20788   */\n      dup3\n        /* \"#utility.yul\":20771:20780   */\n      dup7\n        /* \"#utility.yul\":20767:20789   */\n      add\n        /* \"#utility.yul\":20719:20799   */\n      tag_345\n      jump\t// in\n    tag_411:\n        /* \"#utility.yul\":20709:20799   */\n      swap2\n      pop\n        /* \"#utility.yul\":20570:20809   */\n      pop\n        /* \"#utility.yul\":20347:20816   */\n      swap3\n      pop\n      swap3\n      swap1\n      pop\n      jump\t// out\n        /* \"#utility.yul\":20822:21570   */\n    tag_36:\n        /* \"#utility.yul\":20949:20955   */\n      0x00\n        /* \"#utility.yul\":20957:20963   */\n      dup1\n        /* \"#utility.yul\":20965:20971   */\n      0x00\n        /* \"#utility.yul\":21014:21017   */\n      0x0140\n        /* \"#utility.yul\":21002:21011   */\n      dup5\n        /* \"#utility.yul\":20993:21000   */\n      dup7\n        /* \"#utility.yul\":20989:21012   */\n      sub\n        /* \"#utility.yul\":20985:21018   */\n      slt\n        /* \"#utility.yul\":20982:20984   */\n      iszero\n      tag_413\n      jumpi\n        /* \"#utility.yul\":21031:21032   */\n      0x00\n        /* \"#utility.yul\":21028:21029   */\n      dup1\n        /* \"#utility.yul\":21021:21033   */\n      revert\n        /* \"#utility.yul\":20982:20984   */\n    tag_413:\n        /* \"#utility.yul\":21074:21075   */\n      0x00\n        /* \"#utility.yul\":21099:21175   */\n      tag_414\n        /* \"#utility.yul\":21167:21174   */\n      dup7\n        /* \"#utility.yul\":21158:21164   */\n      dup3\n        /* \"#utility.yul\":21147:21156   */\n      dup8\n        /* \"#utility.yul\":21143:21165   */\n      add\n        /* \"#utility.yul\":21099:21175   */\n      tag_333\n      jump\t// in\n    tag_414:\n        /* \"#utility.yul\":21089:21175   */\n      swap4\n      pop\n        /* \"#utility.yul\":21045:21185   */\n      pop\n        /* \"#utility.yul\":21252:21255   */\n      0x0100\n        /* \"#utility.yul\":21241:21250   */\n      dup5\n        /* \"#utility.yul\":21237:21256   */\n      add\n        /* \"#utility.yul\":21224:21257   */\n      calldataload\n        /* \"#utility.yul\":21284:21302   */\n      0xffffffffffffffff\n        /* \"#utility.yul\":21276:21282   */\n      dup2\n        /* \"#utility.yul\":21273:21303   */\n      gt\n        /* \"#utility.yul\":21270:21272   */\n      iszero\n      tag_415\n      jumpi\n        /* \"#utility.yul\":21316:21317   */\n      0x00\n        /* \"#utility.yul\":21313:21314   */\n      dup1\n        /* \"#utility.yul\":21306:21318   */\n      revert\n        /* \"#utility.yul\":21270:21272   */\n    tag_415:\n        /* \"#utility.yul\":21344:21424   */\n      tag_416\n        /* \"#utility.yul\":21416:21423   */\n      dup7\n        /* \"#utility.yul\":21407:21413   */\n      dup3\n        /* \"#utility.yul\":21396:21405   */\n      dup8\n        /* \"#utility.yul\":21392:21414   */\n      add\n        /* \"#utility.yul\":21344:21424   */\n      tag_345\n      jump\t// in\n    tag_416:\n        /* \"#utility.yul\":21334:21424   */\n      swap3\n      pop\n        /* \"#utility.yul\":21195:21434   */\n      pop\n        /* \"#utility.yul\":21473:21476   */\n      0x0120\n        /* \"#utility.yul\":21500:21553   */\n      tag_417\n        /* \"#utility.yul\":21545:21552   */\n      dup7\n        /* \"#utility.yul\":21536:21542   */\n      dup3\n        /* \"#utility.yul\":21525:21534   */\n      dup8\n        /* \"#utility.yul\":21521:21543   */\n      add\n        /* \"#utility.yul\":21500:21553   */\n      tag_256\n      jump\t// in\n    tag_417:\n        /* \"#utility.yul\":21490:21553   */\n      swap2\n      pop\n        /* \"#utility.yul\":21444:21563   */\n      pop\n        /* \"#utility.yul\":20972:21570   */\n      swap3\n      pop\n      swap3\n      pop\n      swap3\n      jump\t// out\n        /* \"#utility.yul\":21576:22565   */\n    tag_56:\n        /* \"#utility.yul\":21697:21703   */\n      0x00\n        /* \"#utility.yul\":21705:21711   */\n      dup1\n        /* \"#utility.yul\":21713:21719   */\n      0x00\n        /* \"#utility.yul\":21721:21727   */\n      dup1\n        /* \"#utility.yul\":21729:21735   */\n      0x00\n        /* \"#utility.yul\":21778:21781   */\n      0xa0\n        /* \"#utility.yul\":21766:21775   */\n      dup7\n        /* \"#utility.yul\":21757:21764   */\n      dup9\n        /* \"#utility.yul\":21753:21776   */\n      sub\n        /* \"#utility.yul\":21749:21782   */\n      slt\n        /* \"#utility.yul\":21746:21748   */\n      iszero\n      tag_419\n      jumpi\n        /* \"#utility.yul\":21795:21796   */\n      0x00\n        /* \"#utility.yul\":21792:21793   */\n      dup1\n        /* \"#utility.yul\":21785:21797   */\n      revert\n        /* \"#utility.yul\":21746:21748   */\n    tag_419:\n        /* \"#utility.yul\":21838:21839   */\n      0x00\n        /* \"#utility.yul\":21863:21916   */\n      tag_420\n        /* \"#utility.yul\":21908:21915   */\n      dup9\n        /* \"#utility.yul\":21899:21905   */\n      dup3\n        /* \"#utility.yul\":21888:21897   */\n      dup10\n        /* \"#utility.yul\":21884:21906   */\n      add\n        /* \"#utility.yul\":21863:21916   */\n      tag_247\n      jump\t// in\n    tag_420:\n        /* \"#utility.yul\":21853:21916   */\n      swap6\n      pop\n        /* \"#utility.yul\":21809:21926   */\n      pop\n        /* \"#utility.yul\":21965:21967   */\n      0x20\n        /* \"#utility.yul\":21991:22043   */\n      tag_421\n        /* \"#utility.yul\":22035:22042   */\n      dup9\n        /* \"#utility.yul\":22026:22032   */\n      dup3\n        /* \"#utility.yul\":22015:22024   */\n      dup10\n        /* \"#utility.yul\":22011:22033   */\n      add\n        /* \"#utility.yul\":21991:22043   */\n      tag_326\n      jump\t// in\n    tag_421:\n        /* \"#utility.yul\":21981:22043   */\n      swap5\n      pop\n        /* \"#utility.yul\":21936:22053   */\n      pop\n        /* \"#utility.yul\":22092:22094   */\n      0x40\n        /* \"#utility.yul\":22118:22171   */\n      tag_422\n        /* \"#utility.yul\":22163:22170   */\n      dup9\n        /* \"#utility.yul\":22154:22160   */\n      dup3\n        /* \"#utility.yul\":22143:22152   */\n      dup10\n        /* \"#utility.yul\":22139:22161   */\n      add\n        /* \"#utility.yul\":22118:22171   */\n      tag_247\n      jump\t// in\n    tag_422:\n        /* \"#utility.yul\":22108:22171   */\n      swap4\n      pop\n        /* \"#utility.yul\":22063:22181   */\n      pop\n        /* \"#utility.yul\":22220:22222   */\n      0x60\n        /* \"#utility.yul\":22246:22299   */\n      tag_423\n        /* \"#utility.yul\":22291:22298   */\n      dup9\n        /* \"#utility.yul\":22282:22288   */\n      dup3\n        /* \"#utility.yul\":22271:22280   */\n      dup10\n        /* \"#utility.yul\":22267:22289   */\n      add\n        /* \"#utility.yul\":22246:22299   */\n      tag_247\n      jump\t// in\n    tag_423:\n        /* \"#utility.yul\":22236:22299   */\n      swap3\n      pop\n        /* \"#utility.yul\":22191:22309   */\n      pop\n        /* \"#utility.yul\":22376:22379   */\n      0x80\n        /* \"#utility.yul\":22365:22374   */\n      dup7\n        /* \"#utility.yul\":22361:22380   */\n      add\n        /* \"#utility.yul\":22348:22381   */\n      calldataload\n        /* \"#utility.yul\":22408:22426   */\n      0xffffffffffffffff\n        /* \"#utility.yul\":22400:22406   */\n      dup2\n        /* \"#utility.yul\":22397:22427   */\n      gt\n        /* \"#utility.yul\":22394:22396   */\n      iszero\n      tag_424\n      jumpi\n        /* \"#utility.yul\":22440:22441   */\n      0x00\n        /* \"#utility.yul\":22437:22438   */\n      dup1\n        /* \"#utility.yul\":22430:22442   */\n      revert\n        /* \"#utility.yul\":22394:22396   */\n    tag_424:\n        /* \"#utility.yul\":22468:22548   */\n      tag_425\n        /* \"#utility.yul\":22540:22547   */\n      dup9\n        /* \"#utility.yul\":22531:22537   */\n      dup3\n        /* \"#utility.yul\":22520:22529   */\n      dup10\n        /* \"#utility.yul\":22516:22538   */\n      add\n        /* \"#utility.yul\":22468:22548   */\n      tag_345\n      jump\t// in\n    tag_425:\n        /* \"#utility.yul\":22458:22548   */\n      swap2\n      pop\n        /* \"#utility.yul\":22319:22558   */\n      pop\n        /* \"#utility.yul\":21736:22565   */\n      swap3\n      swap6\n      pop\n      swap3\n      swap6\n      swap1\n      swap4\n      pop\n      jump\t// out\n        /* \"#utility.yul\":22571:23706   */\n    tag_41:\n        /* \"#utility.yul\":22701:22707   */\n      0x00\n        /* \"#utility.yul\":22709:22715   */\n      dup1\n        /* \"#utility.yul\":22717:22723   */\n      0x00\n        /* \"#utility.yul\":22725:22731   */\n      dup1\n        /* \"#utility.yul\":22733:22739   */\n      0x00\n        /* \"#utility.yul\":22741:22747   */\n      dup1\n        /* \"#utility.yul\":22790:22793   */\n      0xc0\n        /* \"#utility.yul\":22778:22787   */\n      dup8\n        /* \"#utility.yul\":22769:22776   */\n      dup10\n        /* \"#utility.yul\":22765:22788   */\n      sub\n        /* \"#utility.yul\":22761:22794   */\n      slt\n        /* \"#utility.yul\":22758:22760   */\n      iszero\n      tag_427\n      jumpi\n        /* \"#utility.yul\":22807:22808   */\n      0x00\n        /* \"#utility.yul\":22804:22805   */\n      dup1\n        /* \"#utility.yul\":22797:22809   */\n      revert\n        /* \"#utility.yul\":22758:22760   */\n    tag_427:\n        /* \"#utility.yul\":22850:22851   */\n      0x00\n        /* \"#utility.yul\":22875:22928   */\n      tag_428\n        /* \"#utility.yul\":22920:22927   */\n      dup10\n        /* \"#utility.yul\":22911:22917   */\n      dup3\n        /* \"#utility.yul\":22900:22909   */\n      dup11\n        /* \"#utility.yul\":22896:22918   */\n      add\n        /* \"#utility.yul\":22875:22928   */\n      tag_247\n      jump\t// in\n    tag_428:\n        /* \"#utility.yul\":22865:22928   */\n      swap7\n      pop\n        /* \"#utility.yul\":22821:22938   */\n      pop\n        /* \"#utility.yul\":22977:22979   */\n      0x20\n        /* \"#utility.yul\":23003:23055   */\n      tag_429\n        /* \"#utility.yul\":23047:23054   */\n      dup10\n        /* \"#utility.yul\":23038:23044   */\n      dup3\n        /* \"#utility.yul\":23027:23036   */\n      dup11\n        /* \"#utility.yul\":23023:23045   */\n      add\n        /* \"#utility.yul\":23003:23055   */\n      tag_326\n      jump\t// in\n    tag_429:\n        /* \"#utility.yul\":22993:23055   */\n      swap6\n      pop\n        /* \"#utility.yul\":22948:23065   */\n      pop\n        /* \"#utility.yul\":23104:23106   */\n      0x40\n        /* \"#utility.yul\":23130:23183   */\n      tag_430\n        /* \"#utility.yul\":23175:23182   */\n      dup10\n        /* \"#utility.yul\":23166:23172   */\n      dup3\n        /* \"#utility.yul\":23155:23164   */\n      dup11\n        /* \"#utility.yul\":23151:23173   */\n      add\n        /* \"#utility.yul\":23130:23183   */\n      tag_247\n      jump\t// in\n    tag_430:\n        /* \"#utility.yul\":23120:23183   */\n      swap5\n      pop\n        /* \"#utility.yul\":23075:23193   */\n      pop\n        /* \"#utility.yul\":23232:23234   */\n      0x60\n        /* \"#utility.yul\":23258:23311   */\n      tag_431\n        /* \"#utility.yul\":23303:23310   */\n      dup10\n        /* \"#utility.yul\":23294:23300   */\n      dup3\n        /* \"#utility.yul\":23283:23292   */\n      dup11\n        /* \"#utility.yul\":23279:23301   */\n      add\n        /* \"#utility.yul\":23258:23311   */\n      tag_247\n      jump\t// in\n    tag_431:\n        /* \"#utility.yul\":23248:23311   */\n      swap4\n      pop\n        /* \"#utility.yul\":23203:23321   */\n      pop\n        /* \"#utility.yul\":23388:23391   */\n      0x80\n        /* \"#utility.yul\":23377:23386   */\n      dup8\n        /* \"#utility.yul\":23373:23392   */\n      add\n        /* \"#utility.yul\":23360:23393   */\n      calldataload\n        /* \"#utility.yul\":23420:23438   */\n      0xffffffffffffffff\n        /* \"#utility.yul\":23412:23418   */\n      dup2\n        /* \"#utility.yul\":23409:23439   */\n      gt\n        /* \"#utility.yul\":23406:23408   */\n      iszero\n      tag_432\n      jumpi\n        /* \"#utility.yul\":23452:23453   */\n      0x00\n        /* \"#utility.yul\":23449:23450   */\n      dup1\n        /* \"#utility.yul\":23442:23454   */\n      revert\n        /* \"#utility.yul\":23406:23408   */\n    tag_432:\n        /* \"#utility.yul\":23480:23560   */\n      tag_433\n        /* \"#utility.yul\":23552:23559   */\n      dup10\n        /* \"#utility.yul\":23543:23549   */\n      dup3\n        /* \"#utility.yul\":23532:23541   */\n      dup11\n        /* \"#utility.yul\":23528:23550   */\n      add\n        /* \"#utility.yul\":23480:23560   */\n      tag_345\n      jump\t// in\n    tag_433:\n        /* \"#utility.yul\":23470:23560   */\n      swap3\n      pop\n        /* \"#utility.yul\":23331:23570   */\n      pop\n        /* \"#utility.yul\":23609:23612   */\n      0xa0\n        /* \"#utility.yul\":23636:23689   */\n      tag_434\n        /* \"#utility.yul\":23681:23688   */\n      dup10\n        /* \"#utility.yul\":23672:23678   */\n      dup3\n        /* \"#utility.yul\":23661:23670   */\n      dup11\n        /* \"#utility.yul\":23657:23679   */\n      add\n        /* \"#utility.yul\":23636:23689   */\n      tag_256\n      jump\t// in\n    tag_434:\n        /* \"#utility.yul\":23626:23689   */\n      swap2\n      pop\n        /* \"#utility.yul\":23580:23699   */\n      pop\n        /* \"#utility.yul\":22748:23706   */\n      swap3\n      swap6\n      pop\n      swap3\n      swap6\n      pop\n      swap3\n      swap6\n      jump\t// out\n        /* \"#utility.yul\":23712:24020   */\n    tag_435:\n        /* \"#utility.yul\":23857:23867   */\n      0x00\n        /* \"#utility.yul\":23892:24014   */\n      tag_437\n        /* \"#utility.yul\":24010:24013   */\n      dup4\n        /* \"#utility.yul\":24002:24008   */\n      dup4\n        /* \"#utility.yul\":23892:24014   */\n      tag_438\n      jump\t// in\n    tag_437:\n        /* \"#utility.yul\":23878:24014   */\n      swap1\n      pop\n        /* \"#utility.yul\":23868:24020   */\n      swap3\n      swap2\n      pop\n      pop\n      jump\t// out\n        /* \"#utility.yul\":24026:24349   */\n    tag_439:\n        /* \"#utility.yul\":24167:24177   */\n      0x00\n        /* \"#utility.yul\":24188:24306   */\n      tag_441\n        /* \"#utility.yul\":24302:24305   */\n      dup4\n        /* \"#utility.yul\":24294:24300   */\n      dup4\n        /* \"#utility.yul\":24188:24306   */\n      tag_442\n      jump\t// in\n    tag_441:\n        /* \"#utility.yul\":24338:24342   */\n      0x40\n        /* \"#utility.yul\":24333:24336   */\n      dup4\n        /* \"#utility.yul\":24329:24343   */\n      add\n        /* \"#utility.yul\":24315:24343   */\n      swap1\n      pop\n        /* \"#utility.yul\":24178:24349   */\n      swap3\n      swap2\n      pop\n      pop\n      jump\t// out\n        /* \"#utility.yul\":24355:24682   */\n    tag_443:\n        /* \"#utility.yul\":24498:24508   */\n      0x00\n        /* \"#utility.yul\":24519:24639   */\n      tag_445\n        /* \"#utility.yul\":24635:24638   */\n      dup4\n        /* \"#utility.yul\":24627:24633   */\n      dup4\n        /* \"#utility.yul\":24519:24639   */\n      tag_446\n      jump\t// in\n    tag_445:\n        /* \"#utility.yul\":24671:24675   */\n      0x60\n        /* \"#utility.yul\":24666:24669   */\n      dup4\n        /* \"#utility.yul\":24662:24676   */\n      add\n        /* \"#utility.yul\":24648:24676   */\n      swap1\n      pop\n        /* \"#utility.yul\":24509:24682   */\n      swap3\n      swap2\n      pop\n      pop\n      jump\t// out\n        /* \"#utility.yul\":24688:24867   */\n    tag_447:\n        /* \"#utility.yul\":24757:24767   */\n      0x00\n        /* \"#utility.yul\":24778:24824   */\n      tag_449\n        /* \"#utility.yul\":24820:24823   */\n      dup4\n        /* \"#utility.yul\":24812:24818   */\n      dup4\n        /* \"#utility.yul\":24778:24824   */\n      tag_450\n      jump\t// in\n    tag_449:\n        /* \"#utility.yul\":24856:24860   */\n      0x20\n        /* \"#utility.yul\":24851:24854   */\n      dup4\n        /* \"#utility.yul\":24847:24861   */\n      add\n        /* \"#utility.yul\":24833:24861   */\n      swap1\n      pop\n        /* \"#utility.yul\":24768:24867   */\n      swap3\n      swap2\n      pop\n      pop\n      jump\t// out\n        /* \"#utility.yul\":24873:24981   */\n    tag_451:\n        /* \"#utility.yul\":24950:24974   */\n      tag_453\n        /* \"#utility.yul\":24968:24973   */\n      dup2\n        /* \"#utility.yul\":24950:24974   */\n      tag_454\n      jump\t// in\n    tag_453:\n        /* \"#utility.yul\":24945:24948   */\n      dup3\n        /* \"#utility.yul\":24938:24975   */\n      mstore\n        /* \"#utility.yul\":24928:24981   */\n      pop\n      pop\n      jump\t// out\n        /* \"#utility.yul\":24987:25144   */\n    tag_455:\n        /* \"#utility.yul\":25092:25137   */\n      tag_457\n        /* \"#utility.yul\":25112:25136   */\n      tag_458\n        /* \"#utility.yul\":25130:25135   */\n      dup3\n        /* \"#utility.yul\":25112:25136   */\n      tag_454\n      jump\t// in\n    tag_458:\n        /* \"#utility.yul\":25092:25137   */\n      tag_459\n      jump\t// in\n    tag_457:\n        /* \"#utility.yul\":25087:25090   */\n      dup3\n        /* \"#utility.yul\":25080:25138   */\n      mstore\n        /* \"#utility.yul\":25070:25144   */\n      pop\n      pop\n      jump\t// out\n        /* \"#utility.yul\":25250:26445   */\n    tag_460:\n        /* \"#utility.yul\":25435:25438   */\n      0x00\n        /* \"#utility.yul\":25464:25556   */\n      tag_462\n        /* \"#utility.yul\":25550:25555   */\n      dup3\n        /* \"#utility.yul\":25464:25556   */\n      tag_463\n      jump\t// in\n    tag_462:\n        /* \"#utility.yul\":25572:25686   */\n      tag_464\n        /* \"#utility.yul\":25679:25685   */\n      dup2\n        /* \"#utility.yul\":25674:25677   */\n      dup6\n        /* \"#utility.yul\":25572:25686   */\n      tag_465\n      jump\t// in\n    tag_464:\n        /* \"#utility.yul\":25565:25686   */\n      swap4\n      pop\n        /* \"#utility.yul\":25712:25715   */\n      dup4\n        /* \"#utility.yul\":25757:25761   */\n      0x20\n        /* \"#utility.yul\":25749:25755   */\n      dup3\n        /* \"#utility.yul\":25745:25762   */\n      mul\n        /* \"#utility.yul\":25740:25743   */\n      dup6\n        /* \"#utility.yul\":25736:25763   */\n      add\n        /* \"#utility.yul\":25787:25881   */\n      tag_466\n        /* \"#utility.yul\":25875:25880   */\n      dup6\n        /* \"#utility.yul\":25787:25881   */\n      tag_467\n      jump\t// in\n    tag_466:\n        /* \"#utility.yul\":25904:25911   */\n      dup1\n        /* \"#utility.yul\":25935:25936   */\n      0x00\n        /* \"#utility.yul\":25920:26400   */\n    tag_468:\n        /* \"#utility.yul\":25945:25951   */\n      dup6\n        /* \"#utility.yul\":25942:25943   */\n      dup2\n        /* \"#utility.yul\":25939:25952   */\n      lt\n        /* \"#utility.yul\":25920:26400   */\n      iszero\n      tag_470\n      jumpi\n        /* \"#utility.yul\":26016:26025   */\n      dup5\n        /* \"#utility.yul\":26010:26014   */\n      dup5\n        /* \"#utility.yul\":26006:26026   */\n      sub\n        /* \"#utility.yul\":26001:26004   */\n      dup10\n        /* \"#utility.yul\":25994:26027   */\n      mstore\n        /* \"#utility.yul\":26067:26073   */\n      dup2\n        /* \"#utility.yul\":26061:26074   */\n      mload\n        /* \"#utility.yul\":26095:26235   */\n      tag_471\n        /* \"#utility.yul\":26230:26234   */\n      dup6\n        /* \"#utility.yul\":26215:26228   */\n      dup3\n        /* \"#utility.yul\":26095:26235   */\n      tag_435\n      jump\t// in\n    tag_471:\n        /* \"#utility.yul\":26087:26235   */\n      swap5\n      pop\n        /* \"#utility.yul\":26258:26356   */\n      tag_472\n        /* \"#utility.yul\":26349:26355   */\n      dup4\n        /* \"#utility.yul\":26258:26356   */\n      tag_473\n      jump\t// in\n    tag_472:\n        /* \"#utility.yul\":26248:26356   */\n      swap3\n      pop\n        /* \"#utility.yul\":26385:26389   */\n      0x20\n        /* \"#utility.yul\":26380:26383   */\n      dup11\n        /* \"#utility.yul\":26376:26390   */\n      add\n        /* \"#utility.yul\":26369:26390   */\n      swap10\n      pop\n        /* \"#utility.yul\":25980:26400   */\n      pop\n        /* \"#utility.yul\":25967:25968   */\n      0x01\n        /* \"#utility.yul\":25964:25965   */\n      dup2\n        /* \"#utility.yul\":25960:25969   */\n      add\n        /* \"#utility.yul\":25955:25969   */\n      swap1\n      pop\n        /* \"#utility.yul\":25920:26400   */\n      jump(tag_468)\n    tag_470:\n        /* \"#utility.yul\":25924:25938   */\n      pop\n        /* \"#utility.yul\":26416:26420   */\n      dup3\n        /* \"#utility.yul\":26409:26420   */\n      swap8\n      pop\n        /* \"#utility.yul\":26436:26439   */\n      dup8\n        /* \"#utility.yul\":26429:26439   */\n      swap6\n      pop\n        /* \"#utility.yul\":25440:26445   */\n      pop\n      pop\n      pop\n      pop\n      pop\n      swap3\n      swap2\n      pop\n      pop\n      jump\t// out\n        /* \"#utility.yul\":26547:27547   */\n    tag_474:\n        /* \"#utility.yul\":26728:26731   */\n      0x00\n        /* \"#utility.yul\":26757:26847   */\n      tag_476\n        /* \"#utility.yul\":26841:26846   */\n      dup3\n        /* \"#utility.yul\":26757:26847   */\n      tag_477\n      jump\t// in\n    tag_476:\n        /* \"#utility.yul\":26863:26975   */\n      tag_478\n        /* \"#utility.yul\":26968:26974   */\n      dup2\n        /* \"#utility.yul\":26963:26966   */\n      dup6\n        /* \"#utility.yul\":26863:26975   */\n      tag_479\n      jump\t// in\n    tag_478:\n        /* \"#utility.yul\":26856:26975   */\n      swap4\n      pop\n        /* \"#utility.yul\":26999:27091   */\n      tag_480\n        /* \"#utility.yul\":27085:27090   */\n      dup4\n        /* \"#utility.yul\":26999:27091   */\n      tag_481\n      jump\t// in\n    tag_480:\n        /* \"#utility.yul\":27114:27121   */\n      dup1\n        /* \"#utility.yul\":27145:27146   */\n      0x00\n        /* \"#utility.yul\":27130:27522   */\n    tag_482:\n        /* \"#utility.yul\":27155:27161   */\n      dup4\n        /* \"#utility.yul\":27152:27153   */\n      dup2\n        /* \"#utility.yul\":27149:27162   */\n      lt\n        /* \"#utility.yul\":27130:27522   */\n      iszero\n      tag_484\n      jumpi\n        /* \"#utility.yul\":27231:27237   */\n      dup2\n        /* \"#utility.yul\":27225:27238   */\n      mload\n        /* \"#utility.yul\":27258:27393   */\n      tag_485\n        /* \"#utility.yul\":27389:27392   */\n      dup9\n        /* \"#utility.yul\":27374:27387   */\n      dup3\n        /* \"#utility.yul\":27258:27393   */\n      tag_439\n      jump\t// in\n    tag_485:\n        /* \"#utility.yul\":27251:27393   */\n      swap8\n      pop\n        /* \"#utility.yul\":27416:27512   */\n      tag_486\n        /* \"#utility.yul\":27505:27511   */\n      dup4\n        /* \"#utility.yul\":27416:27512   */\n      tag_487\n      jump\t// in\n    tag_486:\n        /* \"#utility.yul\":27406:27512   */\n      swap3\n      pop\n        /* \"#utility.yul\":27190:27522   */\n      pop\n        /* \"#utility.yul\":27177:27178   */\n      0x01\n        /* \"#utility.yul\":27174:27175   */\n      dup2\n        /* \"#utility.yul\":27170:27179   */\n      add\n        /* \"#utility.yul\":27165:27179   */\n      swap1\n      pop\n        /* \"#utility.yul\":27130:27522   */\n      jump(tag_482)\n    tag_484:\n        /* \"#utility.yul\":27134:27148   */\n      pop\n        /* \"#utility.yul\":27538:27541   */\n      dup6\n        /* \"#utility.yul\":27531:27541   */\n      swap4\n      pop\n        /* \"#utility.yul\":26733:27547   */\n      pop\n      pop\n      pop\n      swap3\n      swap2\n      pop\n      pop\n      jump\t// out\n        /* \"#utility.yul\":27651:28659   */\n    tag_488:\n        /* \"#utility.yul\":27834:27837   */\n      0x00\n        /* \"#utility.yul\":27863:27954   */\n      tag_490\n        /* \"#utility.yul\":27948:27953   */\n      dup3\n        /* \"#utility.yul\":27863:27954   */\n      tag_491\n      jump\t// in\n    tag_490:\n        /* \"#utility.yul\":27970:28083   */\n      tag_492\n        /* \"#utility.yul\":28076:28082   */\n      dup2\n        /* \"#utility.yul\":28071:28074   */\n      dup6\n        /* \"#utility.yul\":27970:28083   */\n      tag_493\n      jump\t// in\n    tag_492:\n        /* \"#utility.yul\":27963:28083   */\n      swap4\n      pop\n        /* \"#utility.yul\":28107:28200   */\n      tag_494\n        /* \"#utility.yul\":28194:28199   */\n      dup4\n        /* \"#utility.yul\":28107:28200   */\n      tag_495\n      jump\t// in\n    tag_494:\n        /* \"#utility.yul\":28223:28230   */\n      dup1\n        /* \"#utility.yul\":28254:28255   */\n      0x00\n        /* \"#utility.yul\":28239:28634   */\n    tag_496:\n        /* \"#utility.yul\":28264:28270   */\n      dup4\n        /* \"#utility.yul\":28261:28262   */\n      dup2\n        /* \"#utility.yul\":28258:28271   */\n      lt\n        /* \"#utility.yul\":28239:28634   */\n      iszero\n      tag_498\n      jumpi\n        /* \"#utility.yul\":28340:28346   */\n      dup2\n        /* \"#utility.yul\":28334:28347   */\n      mload\n        /* \"#utility.yul\":28367:28504   */\n      tag_499\n        /* \"#utility.yul\":28500:28503   */\n      dup9\n        /* \"#utility.yul\":28485:28498   */\n      dup3\n        /* \"#utility.yul\":28367:28504   */\n      tag_443\n      jump\t// in\n    tag_499:\n        /* \"#utility.yul\":28360:28504   */\n      swap8\n      pop\n        /* \"#utility.yul\":28527:28624   */\n      tag_500\n        /* \"#utility.yul\":28617:28623   */\n      dup4\n        /* \"#utility.yul\":28527:28624   */\n      tag_501\n      jump\t// in\n    tag_500:\n        /* \"#utility.yul\":28517:28624   */\n      swap3\n      pop\n        /* \"#utility.yul\":28299:28634   */\n      pop\n        /* \"#utility.yul\":28286:28287   */\n      0x01\n        /* \"#utility.yul\":28283:28284   */\n      dup2\n        /* \"#utility.yul\":28279:28288   */\n      add\n        /* \"#utility.yul\":28274:28288   */\n      swap1\n      pop\n        /* \"#utility.yul\":28239:28634   */\n      jump(tag_496)\n    tag_498:\n        /* \"#utility.yul\":28243:28257   */\n      pop\n        /* \"#utility.yul\":28650:28653   */\n      dup6\n        /* \"#utility.yul\":28643:28653   */\n      swap4\n      pop\n        /* \"#utility.yul\":27839:28659   */\n      pop\n      pop\n      pop\n      swap3\n      swap2\n      pop\n      pop\n      jump\t// out\n        /* \"#utility.yul\":28695:29407   */\n    tag_502:\n        /* \"#utility.yul\":28804:28807   */\n      0x00\n        /* \"#utility.yul\":28833:28887   */\n      tag_504\n        /* \"#utility.yul\":28881:28886   */\n      dup3\n        /* \"#utility.yul\":28833:28887   */\n      tag_505\n      jump\t// in\n    tag_504:\n        /* \"#utility.yul\":28903:28979   */\n      tag_506\n        /* \"#utility.yul\":28972:28978   */\n      dup2\n        /* \"#utility.yul\":28967:28970   */\n      dup6\n        /* \"#utility.yul\":28903:28979   */\n      tag_507\n      jump\t// in\n    tag_506:\n        /* \"#utility.yul\":28896:28979   */\n      swap4\n      pop\n        /* \"#utility.yul\":29003:29059   */\n      tag_508\n        /* \"#utility.yul\":29053:29058   */\n      dup4\n        /* \"#utility.yul\":29003:29059   */\n      tag_509\n      jump\t// in\n    tag_508:\n        /* \"#utility.yul\":29082:29089   */\n      dup1\n        /* \"#utility.yul\":29113:29114   */\n      0x00\n        /* \"#utility.yul\":29098:29382   */\n    tag_510:\n        /* \"#utility.yul\":29123:29129   */\n      dup4\n        /* \"#utility.yul\":29120:29121   */\n      dup2\n        /* \"#utility.yul\":29117:29130   */\n      lt\n        /* \"#utility.yul\":29098:29382   */\n      iszero\n      tag_512\n      jumpi\n        /* \"#utility.yul\":29199:29205   */\n      dup2\n        /* \"#utility.yul\":29193:29206   */\n      mload\n        /* \"#utility.yul\":29226:29289   */\n      tag_513\n        /* \"#utility.yul\":29285:29288   */\n      dup9\n        /* \"#utility.yul\":29270:29283   */\n      dup3\n        /* \"#utility.yul\":29226:29289   */\n      tag_447\n      jump\t// in\n    tag_513:\n        /* \"#utility.yul\":29219:29289   */\n      swap8\n      pop\n        /* \"#utility.yul\":29312:29372   */\n      tag_514\n        /* \"#utility.yul\":29365:29371   */\n      dup4\n        /* \"#utility.yul\":29312:29372   */\n      tag_515\n      jump\t// in\n    tag_514:\n        /* \"#utility.yul\":29302:29372   */\n      swap3\n      pop\n        /* \"#utility.yul\":29158:29382   */\n      pop\n        /* \"#utility.yul\":29145:29146   */\n      0x01\n        /* \"#utility.yul\":29142:29143   */\n      dup2\n        /* \"#utility.yul\":29138:29147   */\n      add\n        /* \"#utility.yul\":29133:29147   */\n      swap1\n      pop\n        /* \"#utility.yul\":29098:29382   */\n      jump(tag_510)\n    tag_512:\n        /* \"#utility.yul\":29102:29116   */\n      pop\n        /* \"#utility.yul\":29398:29401   */\n      dup6\n        /* \"#utility.yul\":29391:29401   */\n      swap4\n      pop\n        /* \"#utility.yul\":28809:29407   */\n      pop\n      pop\n      pop\n      swap3\n      swap2\n      pop\n      pop\n      jump\t// out\n        /* \"#utility.yul\":29413:29512   */\n    tag_516:\n        /* \"#utility.yul\":29484:29505   */\n      tag_518\n        /* \"#utility.yul\":29499:29504   */\n      dup2\n        /* \"#utility.yul\":29484:29505   */\n      tag_519\n      jump\t// in\n    tag_518:\n        /* \"#utility.yul\":29479:29482   */\n      dup3\n        /* \"#utility.yul\":29472:29506   */\n      mstore\n        /* \"#utility.yul\":29462:29512   */\n      pop\n      pop\n      jump\t// out\n        /* \"#utility.yul\":29518:29635   */\n    tag_520:\n        /* \"#utility.yul\":29607:29628   */\n      tag_522\n        /* \"#utility.yul\":29622:29627   */\n      dup2\n        /* \"#utility.yul\":29607:29628   */\n      tag_519\n      jump\t// in\n    tag_522:\n        /* \"#utility.yul\":29602:29605   */\n      dup3\n        /* \"#utility.yul\":29595:29629   */\n      mstore\n        /* \"#utility.yul\":29585:29635   */\n      pop\n      pop\n      jump\t// out\n        /* \"#utility.yul\":29641:29759   */\n    tag_523:\n        /* \"#utility.yul\":29728:29752   */\n      tag_525\n        /* \"#utility.yul\":29746:29751   */\n      dup2\n        /* \"#utility.yul\":29728:29752   */\n      tag_526\n      jump\t// in\n    tag_525:\n        /* \"#utility.yul\":29723:29726   */\n      dup3\n        /* \"#utility.yul\":29716:29753   */\n      mstore\n        /* \"#utility.yul\":29706:29759   */\n      pop\n      pop\n      jump\t// out\n        /* \"#utility.yul\":29765:29922   */\n    tag_527:\n        /* \"#utility.yul\":29870:29915   */\n      tag_529\n        /* \"#utility.yul\":29890:29914   */\n      tag_530\n        /* \"#utility.yul\":29908:29913   */\n      dup3\n        /* \"#utility.yul\":29890:29914   */\n      tag_526\n      jump\t// in\n    tag_530:\n        /* \"#utility.yul\":29870:29915   */\n      tag_531\n      jump\t// in\n    tag_529:\n        /* \"#utility.yul\":29865:29868   */\n      dup3\n        /* \"#utility.yul\":29858:29916   */\n      mstore\n        /* \"#utility.yul\":29848:29922   */\n      pop\n      pop\n      jump\t// out\n        /* \"#utility.yul\":29928:30288   */\n    tag_532:\n        /* \"#utility.yul\":30014:30017   */\n      0x00\n        /* \"#utility.yul\":30042:30080   */\n      tag_534\n        /* \"#utility.yul\":30074:30079   */\n      dup3\n        /* \"#utility.yul\":30042:30080   */\n      tag_535\n      jump\t// in\n    tag_534:\n        /* \"#utility.yul\":30096:30166   */\n      tag_536\n        /* \"#utility.yul\":30159:30165   */\n      dup2\n        /* \"#utility.yul\":30154:30157   */\n      dup6\n        /* \"#utility.yul\":30096:30166   */\n      tag_537\n      jump\t// in\n    tag_536:\n        /* \"#utility.yul\":30089:30166   */\n      swap4\n      pop\n        /* \"#utility.yul\":30175:30227   */\n      tag_538\n        /* \"#utility.yul\":30220:30226   */\n      dup2\n        /* \"#utility.yul\":30215:30218   */\n      dup6\n        /* \"#utility.yul\":30208:30212   */\n      0x20\n        /* \"#utility.yul\":30201:30206   */\n      dup7\n        /* \"#utility.yul\":30197:30213   */\n      add\n        /* \"#utility.yul\":30175:30227   */\n      tag_539\n      jump\t// in\n    tag_538:\n        /* \"#utility.yul\":30252:30281   */\n      tag_540\n        /* \"#utility.yul\":30274:30280   */\n      dup2\n        /* \"#utility.yul\":30252:30281   */\n      tag_541\n      jump\t// in\n    tag_540:\n        /* \"#utility.yul\":30247:30250   */\n      dup5\n        /* \"#utility.yul\":30243:30282   */\n      add\n        /* \"#utility.yul\":30236:30282   */\n      swap2\n      pop\n        /* \"#utility.yul\":30018:30288   */\n      pop\n      swap3\n      swap2\n      pop\n      pop\n      jump\t// out\n        /* \"#utility.yul\":30294:30667   */\n    tag_542:\n        /* \"#utility.yul\":30398:30401   */\n      0x00\n        /* \"#utility.yul\":30426:30464   */\n      tag_544\n        /* \"#utility.yul\":30458:30463   */\n      dup3\n        /* \"#utility.yul\":30426:30464   */\n      tag_535\n      jump\t// in\n    tag_544:\n        /* \"#utility.yul\":30480:30568   */\n      tag_545\n        /* \"#utility.yul\":30561:30567   */\n      dup2\n        /* \"#utility.yul\":30556:30559   */\n      dup6\n        /* \"#utility.yul\":30480:30568   */\n      tag_546\n      jump\t// in\n    tag_545:\n        /* \"#utility.yul\":30473:30568   */\n      swap4\n      pop\n        /* \"#utility.yul\":30577:30629   */\n      tag_547\n        /* \"#utility.yul\":30622:30628   */\n      dup2\n        /* \"#utility.yul\":30617:30620   */\n      dup6\n        /* \"#utility.yul\":30610:30614   */\n      0x20\n        /* \"#utility.yul\":30603:30608   */\n      dup7\n        /* \"#utility.yul\":30599:30615   */\n      add\n        /* \"#utility.yul\":30577:30629   */\n      tag_539\n      jump\t// in\n    tag_547:\n        /* \"#utility.yul\":30654:30660   */\n      dup1\n        /* \"#utility.yul\":30649:30652   */\n      dup5\n        /* \"#utility.yul\":30645:30661   */\n      add\n        /* \"#utility.yul\":30638:30661   */\n      swap2\n      pop\n        /* \"#utility.yul\":30402:30667   */\n      pop\n      swap3\n      swap2\n      pop\n      pop\n      jump\t// out\n        /* \"#utility.yul\":30673:31039   */\n    tag_548:\n        /* \"#utility.yul\":30815:30818   */\n      0x00\n        /* \"#utility.yul\":30836:30903   */\n      tag_550\n        /* \"#utility.yul\":30900:30902   */\n      0x23\n        /* \"#utility.yul\":30895:30898   */\n      dup4\n        /* \"#utility.yul\":30836:30903   */\n      tag_551\n      jump\t// in\n    tag_550:\n        /* \"#utility.yul\":30829:30903   */\n      swap2\n      pop\n        /* \"#utility.yul\":30912:31005   */\n      tag_552\n        /* \"#utility.yul\":31001:31004   */\n      dup3\n        /* \"#utility.yul\":30912:31005   */\n      tag_553\n      jump\t// in\n    tag_552:\n        /* \"#utility.yul\":31030:31032   */\n      0x40\n        /* \"#utility.yul\":31025:31028   */\n      dup3\n        /* \"#utility.yul\":31021:31033   */\n      add\n        /* \"#utility.yul\":31014:31033   */\n      swap1\n      pop\n        /* \"#utility.yul\":30819:31039   */\n      swap2\n      swap1\n      pop\n      jump\t// out\n        /* \"#utility.yul\":31045:31411   */\n    tag_554:\n        /* \"#utility.yul\":31187:31190   */\n      0x00\n        /* \"#utility.yul\":31208:31275   */\n      tag_556\n        /* \"#utility.yul\":31272:31274   */\n      0x1e\n        /* \"#utility.yul\":31267:31270   */\n      dup4\n        /* \"#utility.yul\":31208:31275   */\n      tag_551\n      jump\t// in\n    tag_556:\n        /* \"#utility.yul\":31201:31275   */\n      swap2\n      pop\n        /* \"#utility.yul\":31284:31377   */\n      tag_557\n        /* \"#utility.yul\":31373:31376   */\n      dup3\n        /* \"#utility.yul\":31284:31377   */\n      tag_558\n      jump\t// in\n    tag_557:\n        /* \"#utility.yul\":31402:31404   */\n      0x20\n        /* \"#utility.yul\":31397:31400   */\n      dup3\n        /* \"#utility.yul\":31393:31405   */\n      add\n        /* \"#utility.yul\":31386:31405   */\n      swap1\n      pop\n        /* \"#utility.yul\":31191:31411   */\n      swap2\n      swap1\n      pop\n      jump\t// out\n        /* \"#utility.yul\":31417:31819   */\n    tag_559:\n        /* \"#utility.yul\":31577:31580   */\n      0x00\n        /* \"#utility.yul\":31598:31683   */\n      tag_561\n        /* \"#utility.yul\":31680:31682   */\n      0x1c\n        /* \"#utility.yul\":31675:31678   */\n      dup4\n        /* \"#utility.yul\":31598:31683   */\n      tag_562\n      jump\t// in\n    tag_561:\n        /* \"#utility.yul\":31591:31683   */\n      swap2\n      pop\n        /* \"#utility.yul\":31692:31785   */\n      tag_563\n        /* \"#utility.yul\":31781:31784   */\n      dup3\n        /* \"#utility.yul\":31692:31785   */\n      tag_564\n      jump\t// in\n    tag_563:\n        /* \"#utility.yul\":31810:31812   */\n      0x1c\n        /* \"#utility.yul\":31805:31808   */\n      dup3\n        /* \"#utility.yul\":31801:31813   */\n      add\n        /* \"#utility.yul\":31794:31813   */\n      swap1\n      pop\n        /* \"#utility.yul\":31581:31819   */\n      swap2\n      swap1\n      pop\n      jump\t// out\n        /* \"#utility.yul\":31825:32191   */\n    tag_565:\n        /* \"#utility.yul\":31967:31970   */\n      0x00\n        /* \"#utility.yul\":31988:32055   */\n      tag_567\n        /* \"#utility.yul\":32052:32054   */\n      0x1c\n        /* \"#utility.yul\":32047:32050   */\n      dup4\n        /* \"#utility.yul\":31988:32055   */\n      tag_551\n      jump\t// in\n    tag_567:\n        /* \"#utility.yul\":31981:32055   */\n      swap2\n      pop\n        /* \"#utility.yul\":32064:32157   */\n      tag_568\n        /* \"#utility.yul\":32153:32156   */\n      dup3\n        /* \"#utility.yul\":32064:32157   */\n      tag_569\n      jump\t// in\n    tag_568:\n        /* \"#utility.yul\":32182:32184   */\n      0x20\n        /* \"#utility.yul\":32177:32180   */\n      dup3\n        /* \"#utility.yul\":32173:32185   */\n      add\n        /* \"#utility.yul\":32166:32185   */\n      swap1\n      pop\n        /* \"#utility.yul\":31971:32191   */\n      swap2\n      swap1\n      pop\n      jump\t// out\n        /* \"#utility.yul\":32197:32563   */\n    tag_570:\n        /* \"#utility.yul\":32339:32342   */\n      0x00\n        /* \"#utility.yul\":32360:32427   */\n      tag_572\n        /* \"#utility.yul\":32424:32426   */\n      0x14\n        /* \"#utility.yul\":32419:32422   */\n      dup4\n        /* \"#utility.yul\":32360:32427   */\n      tag_551\n      jump\t// in\n    tag_572:\n        /* \"#utility.yul\":32353:32427   */\n      swap2\n      pop\n        /* \"#utility.yul\":32436:32529   */\n      tag_573\n        /* \"#utility.yul\":32525:32528   */\n      dup3\n        /* \"#utility.yul\":32436:32529   */\n      tag_574\n      jump\t// in\n    tag_573:\n        /* \"#utility.yul\":32554:32556   */\n      0x20\n        /* \"#utility.yul\":32549:32552   */\n      dup3\n        /* \"#utility.yul\":32545:32557   */\n      add\n        /* \"#utility.yul\":32538:32557   */\n      swap1\n      pop\n        /* \"#utility.yul\":32343:32563   */\n      swap2\n      swap1\n      pop\n      jump\t// out\n        /* \"#utility.yul\":32665:33603   */\n    tag_438:\n        /* \"#utility.yul\":32800:32803   */\n      0x00\n        /* \"#utility.yul\":32836:32840   */\n      0x60\n        /* \"#utility.yul\":32831:32834   */\n      dup4\n        /* \"#utility.yul\":32827:32841   */\n      add\n        /* \"#utility.yul\":32932:32936   */\n      0x00\n        /* \"#utility.yul\":32925:32930   */\n      dup4\n        /* \"#utility.yul\":32921:32937   */\n      add\n        /* \"#utility.yul\":32915:32938   */\n      mload\n        /* \"#utility.yul\":32951:33014   */\n      tag_576\n        /* \"#utility.yul\":33008:33012   */\n      0x00\n        /* \"#utility.yul\":33003:33006   */\n      dup7\n        /* \"#utility.yul\":32999:33013   */\n      add\n        /* \"#utility.yul\":32985:32997   */\n      dup3\n        /* \"#utility.yul\":32951:33014   */\n      tag_451\n      jump\t// in\n    tag_576:\n        /* \"#utility.yul\":32851:33024   */\n      pop\n        /* \"#utility.yul\":33105:33109   */\n      0x20\n        /* \"#utility.yul\":33098:33103   */\n      dup4\n        /* \"#utility.yul\":33094:33110   */\n      add\n        /* \"#utility.yul\":33088:33111   */\n      mload\n        /* \"#utility.yul\":33158:33161   */\n      dup5\n        /* \"#utility.yul\":33152:33156   */\n      dup3\n        /* \"#utility.yul\":33148:33162   */\n      sub\n        /* \"#utility.yul\":33141:33145   */\n      0x20\n        /* \"#utility.yul\":33136:33139   */\n      dup7\n        /* \"#utility.yul\":33132:33146   */\n      add\n        /* \"#utility.yul\":33125:33163   */\n      mstore\n        /* \"#utility.yul\":33184:33287   */\n      tag_577\n        /* \"#utility.yul\":33282:33286   */\n      dup3\n        /* \"#utility.yul\":33268:33280   */\n      dup3\n        /* \"#utility.yul\":33184:33287   */\n      tag_502\n      jump\t// in\n    tag_577:\n        /* \"#utility.yul\":33176:33287   */\n      swap2\n      pop\n        /* \"#utility.yul\":33034:33298   */\n      pop\n        /* \"#utility.yul\":33383:33387   */\n      0x40\n        /* \"#utility.yul\":33376:33381   */\n      dup4\n        /* \"#utility.yul\":33372:33388   */\n      add\n        /* \"#utility.yul\":33366:33389   */\n      mload\n        /* \"#utility.yul\":33436:33439   */\n      dup5\n        /* \"#utility.yul\":33430:33434   */\n      dup3\n        /* \"#utility.yul\":33426:33440   */\n      sub\n        /* \"#utility.yul\":33419:33423   */\n      0x40\n        /* \"#utility.yul\":33414:33417   */\n      dup7\n        /* \"#utility.yul\":33410:33424   */\n      add\n        /* \"#utility.yul\":33403:33441   */\n      mstore\n        /* \"#utility.yul\":33462:33565   */\n      tag_578\n        /* \"#utility.yul\":33560:33564   */\n      dup3\n        /* \"#utility.yul\":33546:33558   */\n      dup3\n        /* \"#utility.yul\":33462:33565   */\n      tag_502\n      jump\t// in\n    tag_578:\n        /* \"#utility.yul\":33454:33565   */\n      swap2\n      pop\n        /* \"#utility.yul\":33308:33576   */\n      pop\n        /* \"#utility.yul\":33593:33597   */\n      dup1\n        /* \"#utility.yul\":33586:33597   */\n      swap2\n      pop\n        /* \"#utility.yul\":32805:33603   */\n      pop\n      swap3\n      swap2\n      pop\n      pop\n      jump\t// out\n        /* \"#utility.yul\":33701:34231   */\n    tag_442:\n        /* \"#utility.yul\":33860:33864   */\n      0x40\n        /* \"#utility.yul\":33855:33858   */\n      dup3\n        /* \"#utility.yul\":33851:33865   */\n      add\n        /* \"#utility.yul\":33956:33960   */\n      0x00\n        /* \"#utility.yul\":33949:33954   */\n      dup3\n        /* \"#utility.yul\":33945:33961   */\n      add\n        /* \"#utility.yul\":33939:33962   */\n      mload\n        /* \"#utility.yul\":33975:34038   */\n      tag_580\n        /* \"#utility.yul\":34032:34036   */\n      0x00\n        /* \"#utility.yul\":34027:34030   */\n      dup6\n        /* \"#utility.yul\":34023:34037   */\n      add\n        /* \"#utility.yul\":34009:34021   */\n      dup3\n        /* \"#utility.yul\":33975:34038   */\n      tag_451\n      jump\t// in\n    tag_580:\n        /* \"#utility.yul\":33875:34048   */\n      pop\n        /* \"#utility.yul\":34132:34136   */\n      0x20\n        /* \"#utility.yul\":34125:34130   */\n      dup3\n        /* \"#utility.yul\":34121:34137   */\n      add\n        /* \"#utility.yul\":34115:34138   */\n      mload\n        /* \"#utility.yul\":34151:34214   */\n      tag_581\n        /* \"#utility.yul\":34208:34212   */\n      0x20\n        /* \"#utility.yul\":34203:34206   */\n      dup6\n        /* \"#utility.yul\":34199:34213   */\n      add\n        /* \"#utility.yul\":34185:34197   */\n      dup3\n        /* \"#utility.yul\":34151:34214   */\n      tag_450\n      jump\t// in\n    tag_581:\n        /* \"#utility.yul\":34058:34224   */\n      pop\n        /* \"#utility.yul\":33829:34231   */\n      pop\n      pop\n      pop\n      jump\t// out\n        /* \"#utility.yul\":34331:35039   */\n    tag_446:\n        /* \"#utility.yul\":34492:34496   */\n      0x60\n        /* \"#utility.yul\":34487:34490   */\n      dup3\n        /* \"#utility.yul\":34483:34497   */\n      add\n        /* \"#utility.yul\":34588:34592   */\n      0x00\n        /* \"#utility.yul\":34581:34586   */\n      dup3\n        /* \"#utility.yul\":34577:34593   */\n      add\n        /* \"#utility.yul\":34571:34594   */\n      mload\n        /* \"#utility.yul\":34607:34670   */\n      tag_583\n        /* \"#utility.yul\":34664:34668   */\n      0x00\n        /* \"#utility.yul\":34659:34662   */\n      dup6\n        /* \"#utility.yul\":34655:34669   */\n      add\n        /* \"#utility.yul\":34641:34653   */\n      dup3\n        /* \"#utility.yul\":34607:34670   */\n      tag_451\n      jump\t// in\n    tag_583:\n        /* \"#utility.yul\":34507:34680   */\n      pop\n        /* \"#utility.yul\":34760:34764   */\n      0x20\n        /* \"#utility.yul\":34753:34758   */\n      dup3\n        /* \"#utility.yul\":34749:34765   */\n      add\n        /* \"#utility.yul\":34743:34766   */\n      mload\n        /* \"#utility.yul\":34779:34842   */\n      tag_584\n        /* \"#utility.yul\":34836:34840   */\n      0x20\n        /* \"#utility.yul\":34831:34834   */\n      dup6\n        /* \"#utility.yul\":34827:34841   */\n      add\n        /* \"#utility.yul\":34813:34825   */\n      dup3\n        /* \"#utility.yul\":34779:34842   */\n      tag_450\n      jump\t// in\n    tag_584:\n        /* \"#utility.yul\":34690:34852   */\n      pop\n        /* \"#utility.yul\":34946:34950   */\n      0x40\n        /* \"#utility.yul\":34939:34944   */\n      dup3\n        /* \"#utility.yul\":34935:34951   */\n      add\n        /* \"#utility.yul\":34929:34952   */\n      mload\n        /* \"#utility.yul\":34965:35022   */\n      tag_585\n        /* \"#utility.yul\":35016:35020   */\n      0x40\n        /* \"#utility.yul\":35011:35014   */\n      dup6\n        /* \"#utility.yul\":35007:35021   */\n      add\n        /* \"#utility.yul\":34993:35005   */\n      dup3\n        /* \"#utility.yul\":34965:35022   */\n      tag_516\n      jump\t// in\n    tag_585:\n        /* \"#utility.yul\":34862:35032   */\n      pop\n        /* \"#utility.yul\":34461:35039   */\n      pop\n      pop\n      pop\n      jump\t// out\n        /* \"#utility.yul\":35129:36386   */\n    tag_586:\n        /* \"#utility.yul\":35262:35265   */\n      0x00\n        /* \"#utility.yul\":35298:35302   */\n      0x60\n        /* \"#utility.yul\":35293:35296   */\n      dup4\n        /* \"#utility.yul\":35289:35303   */\n      add\n        /* \"#utility.yul\":35388:35392   */\n      0x00\n        /* \"#utility.yul\":35381:35386   */\n      dup4\n        /* \"#utility.yul\":35377:35393   */\n      add\n        /* \"#utility.yul\":35371:35394   */\n      mload\n        /* \"#utility.yul\":35441:35444   */\n      dup5\n        /* \"#utility.yul\":35435:35439   */\n      dup3\n        /* \"#utility.yul\":35431:35445   */\n      sub\n        /* \"#utility.yul\":35424:35428   */\n      0x00\n        /* \"#utility.yul\":35419:35422   */\n      dup7\n        /* \"#utility.yul\":35415:35429   */\n      add\n        /* \"#utility.yul\":35408:35446   */\n      mstore\n        /* \"#utility.yul\":35467:35644   */\n      tag_588\n        /* \"#utility.yul\":35639:35643   */\n      dup3\n        /* \"#utility.yul\":35625:35637   */\n      dup3\n        /* \"#utility.yul\":35467:35644   */\n      tag_488\n      jump\t// in\n    tag_588:\n        /* \"#utility.yul\":35459:35644   */\n      swap2\n      pop\n        /* \"#utility.yul\":35313:35655   */\n      pop\n        /* \"#utility.yul\":35739:35743   */\n      0x20\n        /* \"#utility.yul\":35732:35737   */\n      dup4\n        /* \"#utility.yul\":35728:35744   */\n      add\n        /* \"#utility.yul\":35722:35745   */\n      mload\n        /* \"#utility.yul\":35792:35795   */\n      dup5\n        /* \"#utility.yul\":35786:35790   */\n      dup3\n        /* \"#utility.yul\":35782:35796   */\n      sub\n        /* \"#utility.yul\":35775:35779   */\n      0x20\n        /* \"#utility.yul\":35770:35773   */\n      dup7\n        /* \"#utility.yul\":35766:35780   */\n      add\n        /* \"#utility.yul\":35759:35797   */\n      mstore\n        /* \"#utility.yul\":35818:35993   */\n      tag_589\n        /* \"#utility.yul\":35988:35992   */\n      dup3\n        /* \"#utility.yul\":35974:35986   */\n      dup3\n        /* \"#utility.yul\":35818:35993   */\n      tag_474\n      jump\t// in\n    tag_589:\n        /* \"#utility.yul\":35810:35993   */\n      swap2\n      pop\n        /* \"#utility.yul\":35665:36004   */\n      pop\n        /* \"#utility.yul\":36090:36094   */\n      0x40\n        /* \"#utility.yul\":36083:36088   */\n      dup4\n        /* \"#utility.yul\":36079:36095   */\n      add\n        /* \"#utility.yul\":36073:36096   */\n      mload\n        /* \"#utility.yul\":36143:36146   */\n      dup5\n        /* \"#utility.yul\":36137:36141   */\n      dup3\n        /* \"#utility.yul\":36133:36147   */\n      sub\n        /* \"#utility.yul\":36126:36130   */\n      0x40\n        /* \"#utility.yul\":36121:36124   */\n      dup7\n        /* \"#utility.yul\":36117:36131   */\n      add\n        /* \"#utility.yul\":36110:36148   */\n      mstore\n        /* \"#utility.yul\":36169:36348   */\n      tag_590\n        /* \"#utility.yul\":36343:36347   */\n      dup3\n        /* \"#utility.yul\":36329:36341   */\n      dup3\n        /* \"#utility.yul\":36169:36348   */\n      tag_460\n      jump\t// in\n    tag_590:\n        /* \"#utility.yul\":36161:36348   */\n      swap2\n      pop\n        /* \"#utility.yul\":36014:36359   */\n      pop\n        /* \"#utility.yul\":36376:36380   */\n      dup1\n        /* \"#utility.yul\":36369:36380   */\n      swap2\n      pop\n        /* \"#utility.yul\":35267:36386   */\n      pop\n      swap3\n      swap2\n      pop\n      pop\n      jump\t// out\n        /* \"#utility.yul\":36392:36545   */\n    tag_591:\n        /* \"#utility.yul\":36495:36538   */\n      tag_593\n        /* \"#utility.yul\":36514:36537   */\n      tag_594\n        /* \"#utility.yul\":36531:36536   */\n      dup3\n        /* \"#utility.yul\":36514:36537   */\n      tag_595\n      jump\t// in\n    tag_594:\n        /* \"#utility.yul\":36495:36538   */\n      tag_596\n      jump\t// in\n    tag_593:\n        /* \"#utility.yul\":36490:36493   */\n      dup3\n        /* \"#utility.yul\":36483:36539   */\n      mstore\n        /* \"#utility.yul\":36473:36545   */\n      pop\n      pop\n      jump\t// out\n        /* \"#utility.yul\":36551:36659   */\n    tag_450:\n        /* \"#utility.yul\":36628:36652   */\n      tag_598\n        /* \"#utility.yul\":36646:36651   */\n      dup2\n        /* \"#utility.yul\":36628:36652   */\n      tag_599\n      jump\t// in\n    tag_598:\n        /* \"#utility.yul\":36623:36626   */\n      dup3\n        /* \"#utility.yul\":36616:36653   */\n      mstore\n        /* \"#utility.yul\":36606:36659   */\n      pop\n      pop\n      jump\t// out\n        /* \"#utility.yul\":36665:36791   */\n    tag_600:\n        /* \"#utility.yul\":36760:36784   */\n      tag_602\n        /* \"#utility.yul\":36778:36783   */\n      dup2\n        /* \"#utility.yul\":36760:36784   */\n      tag_599\n      jump\t// in\n    tag_602:\n        /* \"#utility.yul\":36755:36758   */\n      dup3\n        /* \"#utility.yul\":36748:36785   */\n      mstore\n        /* \"#utility.yul\":36738:36791   */\n      pop\n      pop\n      jump\t// out\n        /* \"#utility.yul\":36797:36954   */\n    tag_603:\n        /* \"#utility.yul\":36902:36947   */\n      tag_605\n        /* \"#utility.yul\":36922:36946   */\n      tag_606\n        /* \"#utility.yul\":36940:36945   */\n      dup3\n        /* \"#utility.yul\":36922:36946   */\n      tag_599\n      jump\t// in\n    tag_606:\n        /* \"#utility.yul\":36902:36947   */\n      tag_607\n      jump\t// in\n    tag_605:\n        /* \"#utility.yul\":36897:36900   */\n      dup3\n        /* \"#utility.yul\":36890:36948   */\n      mstore\n        /* \"#utility.yul\":36880:36954   */\n      pop\n      pop\n      jump\t// out\n        /* \"#utility.yul\":36960:37113   */\n    tag_608:\n        /* \"#utility.yul\":37063:37106   */\n      tag_610\n        /* \"#utility.yul\":37082:37105   */\n      tag_611\n        /* \"#utility.yul\":37099:37104   */\n      dup3\n        /* \"#utility.yul\":37082:37105   */\n      tag_612\n      jump\t// in\n    tag_611:\n        /* \"#utility.yul\":37063:37106   */\n      tag_613\n      jump\t// in\n    tag_610:\n        /* \"#utility.yul\":37058:37061   */\n      dup3\n        /* \"#utility.yul\":37051:37107   */\n      mstore\n        /* \"#utility.yul\":37041:37113   */\n      pop\n      pop\n      jump\t// out\n        /* \"#utility.yul\":37119:37231   */\n    tag_614:\n        /* \"#utility.yul\":37202:37224   */\n      tag_616\n        /* \"#utility.yul\":37218:37223   */\n      dup2\n        /* \"#utility.yul\":37202:37224   */\n      tag_617\n      jump\t// in\n    tag_616:\n        /* \"#utility.yul\":37197:37200   */\n      dup3\n        /* \"#utility.yul\":37190:37225   */\n      mstore\n        /* \"#utility.yul\":37180:37231   */\n      pop\n      pop\n      jump\t// out\n        /* \"#utility.yul\":37237:37775   */\n    tag_164:\n        /* \"#utility.yul\":37405:37408   */\n      0x00\n        /* \"#utility.yul\":37420:37495   */\n      tag_619\n        /* \"#utility.yul\":37491:37494   */\n      dup3\n        /* \"#utility.yul\":37482:37488   */\n      dup7\n        /* \"#utility.yul\":37420:37495   */\n      tag_455\n      jump\t// in\n    tag_619:\n        /* \"#utility.yul\":37520:37522   */\n      0x14\n        /* \"#utility.yul\":37515:37518   */\n      dup3\n        /* \"#utility.yul\":37511:37523   */\n      add\n        /* \"#utility.yul\":37504:37523   */\n      swap2\n      pop\n        /* \"#utility.yul\":37533:37608   */\n      tag_620\n        /* \"#utility.yul\":37604:37607   */\n      dup3\n        /* \"#utility.yul\":37595:37601   */\n      dup6\n        /* \"#utility.yul\":37533:37608   */\n      tag_603\n      jump\t// in\n    tag_620:\n        /* \"#utility.yul\":37633:37635   */\n      0x20\n        /* \"#utility.yul\":37628:37631   */\n      dup3\n        /* \"#utility.yul\":37624:37636   */\n      add\n        /* \"#utility.yul\":37617:37636   */\n      swap2\n      pop\n        /* \"#utility.yul\":37646:37721   */\n      tag_621\n        /* \"#utility.yul\":37717:37720   */\n      dup3\n        /* \"#utility.yul\":37708:37714   */\n      dup5\n        /* \"#utility.yul\":37646:37721   */\n      tag_603\n      jump\t// in\n    tag_621:\n        /* \"#utility.yul\":37746:37748   */\n      0x20\n        /* \"#utility.yul\":37741:37744   */\n      dup3\n        /* \"#utility.yul\":37737:37749   */\n      add\n        /* \"#utility.yul\":37730:37749   */\n      swap2\n      pop\n        /* \"#utility.yul\":37766:37769   */\n      dup2\n        /* \"#utility.yul\":37759:37769   */\n      swap1\n      pop\n        /* \"#utility.yul\":37409:37775   */\n      swap5\n      swap4\n      pop\n      pop\n      pop\n      pop\n      jump\t// out\n        /* \"#utility.yul\":37781:39014   */\n    tag_188:\n        /* \"#utility.yul\":38085:38088   */\n      0x00\n        /* \"#utility.yul\":38100:38175   */\n      tag_623\n        /* \"#utility.yul\":38171:38174   */\n      dup3\n        /* \"#utility.yul\":38162:38168   */\n      dup12\n        /* \"#utility.yul\":38100:38175   */\n      tag_455\n      jump\t// in\n    tag_623:\n        /* \"#utility.yul\":38200:38202   */\n      0x14\n        /* \"#utility.yul\":38195:38198   */\n      dup3\n        /* \"#utility.yul\":38191:38203   */\n      add\n        /* \"#utility.yul\":38184:38203   */\n      swap2\n      pop\n        /* \"#utility.yul\":38213:38288   */\n      tag_624\n        /* \"#utility.yul\":38284:38287   */\n      dup3\n        /* \"#utility.yul\":38275:38281   */\n      dup11\n        /* \"#utility.yul\":38213:38288   */\n      tag_603\n      jump\t// in\n    tag_624:\n        /* \"#utility.yul\":38313:38315   */\n      0x20\n        /* \"#utility.yul\":38308:38311   */\n      dup3\n        /* \"#utility.yul\":38304:38316   */\n      add\n        /* \"#utility.yul\":38297:38316   */\n      swap2\n      pop\n        /* \"#utility.yul\":38326:38401   */\n      tag_625\n        /* \"#utility.yul\":38397:38400   */\n      dup3\n        /* \"#utility.yul\":38388:38394   */\n      dup10\n        /* \"#utility.yul\":38326:38401   */\n      tag_603\n      jump\t// in\n    tag_625:\n        /* \"#utility.yul\":38426:38428   */\n      0x20\n        /* \"#utility.yul\":38421:38424   */\n      dup3\n        /* \"#utility.yul\":38417:38429   */\n      add\n        /* \"#utility.yul\":38410:38429   */\n      swap2\n      pop\n        /* \"#utility.yul\":38439:38514   */\n      tag_626\n        /* \"#utility.yul\":38510:38513   */\n      dup3\n        /* \"#utility.yul\":38501:38507   */\n      dup9\n        /* \"#utility.yul\":38439:38514   */\n      tag_455\n      jump\t// in\n    tag_626:\n        /* \"#utility.yul\":38539:38541   */\n      0x14\n        /* \"#utility.yul\":38534:38537   */\n      dup3\n        /* \"#utility.yul\":38530:38542   */\n      add\n        /* \"#utility.yul\":38523:38542   */\n      swap2\n      pop\n        /* \"#utility.yul\":38552:38627   */\n      tag_627\n        /* \"#utility.yul\":38623:38626   */\n      dup3\n        /* \"#utility.yul\":38614:38620   */\n      dup8\n        /* \"#utility.yul\":38552:38627   */\n      tag_603\n      jump\t// in\n    tag_627:\n        /* \"#utility.yul\":38652:38654   */\n      0x20\n        /* \"#utility.yul\":38647:38650   */\n      dup3\n        /* \"#utility.yul\":38643:38655   */\n      add\n        /* \"#utility.yul\":38636:38655   */\n      swap2\n      pop\n        /* \"#utility.yul\":38665:38740   */\n      tag_628\n        /* \"#utility.yul\":38736:38739   */\n      dup3\n        /* \"#utility.yul\":38727:38733   */\n      dup7\n        /* \"#utility.yul\":38665:38740   */\n      tag_455\n      jump\t// in\n    tag_628:\n        /* \"#utility.yul\":38765:38767   */\n      0x14\n        /* \"#utility.yul\":38760:38763   */\n      dup3\n        /* \"#utility.yul\":38756:38768   */\n      add\n        /* \"#utility.yul\":38749:38768   */\n      swap2\n      pop\n        /* \"#utility.yul\":38778:38851   */\n      tag_629\n        /* \"#utility.yul\":38847:38850   */\n      dup3\n        /* \"#utility.yul\":38838:38844   */\n      dup6\n        /* \"#utility.yul\":38778:38851   */\n      tag_608\n      jump\t// in\n    tag_629:\n        /* \"#utility.yul\":38876:38877   */\n      0x04\n        /* \"#utility.yul\":38871:38874   */\n      dup3\n        /* \"#utility.yul\":38867:38878   */\n      add\n        /* \"#utility.yul\":38860:38878   */\n      swap2\n      pop\n        /* \"#utility.yul\":38888:38961   */\n      tag_630\n        /* \"#utility.yul\":38957:38960   */\n      dup3\n        /* \"#utility.yul\":38948:38954   */\n      dup5\n        /* \"#utility.yul\":38888:38961   */\n      tag_591\n      jump\t// in\n    tag_630:\n        /* \"#utility.yul\":38986:38987   */\n      0x02\n        /* \"#utility.yul\":38981:38984   */\n      dup3\n        /* \"#utility.yul\":38977:38988   */\n      add\n        /* \"#utility.yul\":38970:38988   */\n      swap2\n      pop\n        /* \"#utility.yul\":39005:39008   */\n      dup2\n        /* \"#utility.yul\":38998:39008   */\n      swap1\n      pop\n        /* \"#utility.yul\":38089:39014   */\n      swap10\n      swap9\n      pop\n      pop\n      pop\n      pop\n      pop\n      pop\n      pop\n      pop\n      pop\n      jump\t// out\n        /* \"#utility.yul\":39020:40525   */\n    tag_161:\n        /* \"#utility.yul\":39376:39379   */\n      0x00\n        /* \"#utility.yul\":39391:39466   */\n      tag_632\n        /* \"#utility.yul\":39462:39465   */\n      dup3\n        /* \"#utility.yul\":39453:39459   */\n      dup14\n        /* \"#utility.yul\":39391:39466   */\n      tag_455\n      jump\t// in\n    tag_632:\n        /* \"#utility.yul\":39491:39493   */\n      0x14\n        /* \"#utility.yul\":39486:39489   */\n      dup3\n        /* \"#utility.yul\":39482:39494   */\n      add\n        /* \"#utility.yul\":39475:39494   */\n      swap2\n      pop\n        /* \"#utility.yul\":39504:39579   */\n      tag_633\n        /* \"#utility.yul\":39575:39578   */\n      dup3\n        /* \"#utility.yul\":39566:39572   */\n      dup13\n        /* \"#utility.yul\":39504:39579   */\n      tag_603\n      jump\t// in\n    tag_633:\n        /* \"#utility.yul\":39604:39606   */\n      0x20\n        /* \"#utility.yul\":39599:39602   */\n      dup3\n        /* \"#utility.yul\":39595:39607   */\n      add\n        /* \"#utility.yul\":39588:39607   */\n      swap2\n      pop\n        /* \"#utility.yul\":39617:39692   */\n      tag_634\n        /* \"#utility.yul\":39688:39691   */\n      dup3\n        /* \"#utility.yul\":39679:39685   */\n      dup12\n        /* \"#utility.yul\":39617:39692   */\n      tag_603\n      jump\t// in\n    tag_634:\n        /* \"#utility.yul\":39717:39719   */\n      0x20\n        /* \"#utility.yul\":39712:39715   */\n      dup3\n        /* \"#utility.yul\":39708:39720   */\n      add\n        /* \"#utility.yul\":39701:39720   */\n      swap2\n      pop\n        /* \"#utility.yul\":39730:39805   */\n      tag_635\n        /* \"#utility.yul\":39801:39804   */\n      dup3\n        /* \"#utility.yul\":39792:39798   */\n      dup11\n        /* \"#utility.yul\":39730:39805   */\n      tag_455\n      jump\t// in\n    tag_635:\n        /* \"#utility.yul\":39830:39832   */\n      0x14\n        /* \"#utility.yul\":39825:39828   */\n      dup3\n        /* \"#utility.yul\":39821:39833   */\n      add\n        /* \"#utility.yul\":39814:39833   */\n      swap2\n      pop\n        /* \"#utility.yul\":39843:39918   */\n      tag_636\n        /* \"#utility.yul\":39914:39917   */\n      dup3\n        /* \"#utility.yul\":39905:39911   */\n      dup10\n        /* \"#utility.yul\":39843:39918   */\n      tag_603\n      jump\t// in\n    tag_636:\n        /* \"#utility.yul\":39943:39945   */\n      0x20\n        /* \"#utility.yul\":39938:39941   */\n      dup3\n        /* \"#utility.yul\":39934:39946   */\n      add\n        /* \"#utility.yul\":39927:39946   */\n      swap2\n      pop\n        /* \"#utility.yul\":39956:40031   */\n      tag_637\n        /* \"#utility.yul\":40027:40030   */\n      dup3\n        /* \"#utility.yul\":40018:40024   */\n      dup9\n        /* \"#utility.yul\":39956:40031   */\n      tag_455\n      jump\t// in\n    tag_637:\n        /* \"#utility.yul\":40056:40058   */\n      0x14\n        /* \"#utility.yul\":40051:40054   */\n      dup3\n        /* \"#utility.yul\":40047:40059   */\n      add\n        /* \"#utility.yul\":40040:40059   */\n      swap2\n      pop\n        /* \"#utility.yul\":40069:40142   */\n      tag_638\n        /* \"#utility.yul\":40138:40141   */\n      dup3\n        /* \"#utility.yul\":40129:40135   */\n      dup8\n        /* \"#utility.yul\":40069:40142   */\n      tag_608\n      jump\t// in\n    tag_638:\n        /* \"#utility.yul\":40167:40168   */\n      0x04\n        /* \"#utility.yul\":40162:40165   */\n      dup3\n        /* \"#utility.yul\":40158:40169   */\n      add\n        /* \"#utility.yul\":40151:40169   */\n      swap2\n      pop\n        /* \"#utility.yul\":40179:40252   */\n      tag_639\n        /* \"#utility.yul\":40248:40251   */\n      dup3\n        /* \"#utility.yul\":40239:40245   */\n      dup7\n        /* \"#utility.yul\":40179:40252   */\n      tag_608\n      jump\t// in\n    tag_639:\n        /* \"#utility.yul\":40277:40278   */\n      0x04\n        /* \"#utility.yul\":40272:40275   */\n      dup3\n        /* \"#utility.yul\":40268:40279   */\n      add\n        /* \"#utility.yul\":40261:40279   */\n      swap2\n      pop\n        /* \"#utility.yul\":40289:40362   */\n      tag_640\n        /* \"#utility.yul\":40358:40361   */\n      dup3\n        /* \"#utility.yul\":40349:40355   */\n      dup6\n        /* \"#utility.yul\":40289:40362   */\n      tag_591\n      jump\t// in\n    tag_640:\n        /* \"#utility.yul\":40387:40388   */\n      0x02\n        /* \"#utility.yul\":40382:40385   */\n      dup3\n        /* \"#utility.yul\":40378:40389   */\n      add\n        /* \"#utility.yul\":40371:40389   */\n      swap2\n      pop\n        /* \"#utility.yul\":40399:40472   */\n      tag_641\n        /* \"#utility.yul\":40468:40471   */\n      dup3\n        /* \"#utility.yul\":40459:40465   */\n      dup5\n        /* \"#utility.yul\":40399:40472   */\n      tag_591\n      jump\t// in\n    tag_641:\n        /* \"#utility.yul\":40497:40498   */\n      0x02\n        /* \"#utility.yul\":40492:40495   */\n      dup3\n        /* \"#utility.yul\":40488:40499   */\n      add\n        /* \"#utility.yul\":40481:40499   */\n      swap2\n      pop\n        /* \"#utility.yul\":40516:40519   */\n      dup2\n        /* \"#utility.yul\":40509:40519   */\n      swap1\n      pop\n        /* \"#utility.yul\":39380:40525   */\n      swap12\n      swap11\n      pop\n      pop\n      pop\n      pop\n      pop\n      pop\n      pop\n      pop\n      pop\n      pop\n      pop\n      jump\t// out\n        /* \"#utility.yul\":40531:40802   */\n    tag_178:\n        /* \"#utility.yul\":40661:40664   */\n      0x00\n        /* \"#utility.yul\":40683:40776   */\n      tag_643\n        /* \"#utility.yul\":40772:40775   */\n      dup3\n        /* \"#utility.yul\":40763:40769   */\n      dup5\n        /* \"#utility.yul\":40683:40776   */\n      tag_542\n      jump\t// in\n    tag_643:\n        /* \"#utility.yul\":40676:40776   */\n      swap2\n      pop\n        /* \"#utility.yul\":40793:40796   */\n      dup2\n        /* \"#utility.yul\":40786:40796   */\n      swap1\n      pop\n        /* \"#utility.yul\":40665:40802   */\n      swap3\n      swap2\n      pop\n      pop\n      jump\t// out\n        /* \"#utility.yul\":40808:41517   */\n    tag_109:\n        /* \"#utility.yul\":41040:41043   */\n      0x00\n        /* \"#utility.yul\":41062:41155   */\n      tag_645\n        /* \"#utility.yul\":41151:41154   */\n      dup3\n        /* \"#utility.yul\":41142:41148   */\n      dup8\n        /* \"#utility.yul\":41062:41155   */\n      tag_542\n      jump\t// in\n    tag_645:\n        /* \"#utility.yul\":41055:41155   */\n      swap2\n      pop\n        /* \"#utility.yul\":41172:41265   */\n      tag_646\n        /* \"#utility.yul\":41261:41264   */\n      dup3\n        /* \"#utility.yul\":41252:41258   */\n      dup7\n        /* \"#utility.yul\":41172:41265   */\n      tag_542\n      jump\t// in\n    tag_646:\n        /* \"#utility.yul\":41165:41265   */\n      swap2\n      pop\n        /* \"#utility.yul\":41275:41350   */\n      tag_647\n        /* \"#utility.yul\":41346:41349   */\n      dup3\n        /* \"#utility.yul\":41337:41343   */\n      dup6\n        /* \"#utility.yul\":41275:41350   */\n      tag_455\n      jump\t// in\n    tag_647:\n        /* \"#utility.yul\":41375:41377   */\n      0x14\n        /* \"#utility.yul\":41370:41373   */\n      dup3\n        /* \"#utility.yul\":41366:41378   */\n      add\n        /* \"#utility.yul\":41359:41378   */\n      swap2\n      pop\n        /* \"#utility.yul\":41388:41463   */\n      tag_648\n        /* \"#utility.yul\":41459:41462   */\n      dup3\n        /* \"#utility.yul\":41450:41456   */\n      dup5\n        /* \"#utility.yul\":41388:41463   */\n      tag_603\n      jump\t// in\n    tag_648:\n        /* \"#utility.yul\":41488:41490   */\n      0x20\n        /* \"#utility.yul\":41483:41486   */\n      dup3\n        /* \"#utility.yul\":41479:41491   */\n      add\n        /* \"#utility.yul\":41472:41491   */\n      swap2\n      pop\n        /* \"#utility.yul\":41508:41511   */\n      dup2\n        /* \"#utility.yul\":41501:41511   */\n      swap1\n      pop\n        /* \"#utility.yul\":41044:41517   */\n      swap6\n      swap5\n      pop\n      pop\n      pop\n      pop\n      pop\n      jump\t// out\n        /* \"#utility.yul\":41523:42388   */\n    tag_88:\n        /* \"#utility.yul\":41801:41804   */\n      0x00\n        /* \"#utility.yul\":41823:41916   */\n      tag_650\n        /* \"#utility.yul\":41912:41915   */\n      dup3\n        /* \"#utility.yul\":41903:41909   */\n      dup9\n        /* \"#utility.yul\":41823:41916   */\n      tag_542\n      jump\t// in\n    tag_650:\n        /* \"#utility.yul\":41816:41916   */\n      swap2\n      pop\n        /* \"#utility.yul\":41933:42026   */\n      tag_651\n        /* \"#utility.yul\":42022:42025   */\n      dup3\n        /* \"#utility.yul\":42013:42019   */\n      dup8\n        /* \"#utility.yul\":41933:42026   */\n      tag_542\n      jump\t// in\n    tag_651:\n        /* \"#utility.yul\":41926:42026   */\n      swap2\n      pop\n        /* \"#utility.yul\":42043:42136   */\n      tag_652\n        /* \"#utility.yul\":42132:42135   */\n      dup3\n        /* \"#utility.yul\":42123:42129   */\n      dup7\n        /* \"#utility.yul\":42043:42136   */\n      tag_542\n      jump\t// in\n    tag_652:\n        /* \"#utility.yul\":42036:42136   */\n      swap2\n      pop\n        /* \"#utility.yul\":42146:42221   */\n      tag_653\n        /* \"#utility.yul\":42217:42220   */\n      dup3\n        /* \"#utility.yul\":42208:42214   */\n      dup6\n        /* \"#utility.yul\":42146:42221   */\n      tag_455\n      jump\t// in\n    tag_653:\n        /* \"#utility.yul\":42246:42248   */\n      0x14\n        /* \"#utility.yul\":42241:42244   */\n      dup3\n        /* \"#utility.yul\":42237:42249   */\n      add\n        /* \"#utility.yul\":42230:42249   */\n      swap2\n      pop\n        /* \"#utility.yul\":42259:42334   */\n      tag_654\n        /* \"#utility.yul\":42330:42333   */\n      dup3\n        /* \"#utility.yul\":42321:42327   */\n      dup5\n        /* \"#utility.yul\":42259:42334   */\n      tag_603\n      jump\t// in\n    tag_654:\n        /* \"#utility.yul\":42359:42361   */\n      0x20\n        /* \"#utility.yul\":42354:42357   */\n      dup3\n        /* \"#utility.yul\":42350:42362   */\n      add\n        /* \"#utility.yul\":42343:42362   */\n      swap2\n      pop\n        /* \"#utility.yul\":42379:42382   */\n      dup2\n        /* \"#utility.yul\":42372:42382   */\n      swap1\n      pop\n        /* \"#utility.yul\":41805:42388   */\n      swap7\n      swap6\n      pop\n      pop\n      pop\n      pop\n      pop\n      pop\n      jump\t// out\n        /* \"#utility.yul\":42394:42916   */\n    tag_167:\n        /* \"#utility.yul\":42607:42610   */\n      0x00\n        /* \"#utility.yul\":42629:42777   */\n      tag_656\n        /* \"#utility.yul\":42773:42776   */\n      dup3\n        /* \"#utility.yul\":42629:42777   */\n      tag_559\n      jump\t// in\n    tag_656:\n        /* \"#utility.yul\":42622:42777   */\n      swap2\n      pop\n        /* \"#utility.yul\":42787:42862   */\n      tag_657\n        /* \"#utility.yul\":42858:42861   */\n      dup3\n        /* \"#utility.yul\":42849:42855   */\n      dup5\n        /* \"#utility.yul\":42787:42862   */\n      tag_527\n      jump\t// in\n    tag_657:\n        /* \"#utility.yul\":42887:42889   */\n      0x20\n        /* \"#utility.yul\":42882:42885   */\n      dup3\n        /* \"#utility.yul\":42878:42890   */\n      add\n        /* \"#utility.yul\":42871:42890   */\n      swap2\n      pop\n        /* \"#utility.yul\":42907:42910   */\n      dup2\n        /* \"#utility.yul\":42900:42910   */\n      swap1\n      pop\n        /* \"#utility.yul\":42611:42916   */\n      swap3\n      swap2\n      pop\n      pop\n      jump\t// out\n        /* \"#utility.yul\":42922:44034   */\n    tag_123:\n        /* \"#utility.yul\":43218:43221   */\n      0x00\n        /* \"#utility.yul\":43233:43308   */\n      tag_659\n        /* \"#utility.yul\":43304:43307   */\n      dup3\n        /* \"#utility.yul\":43295:43301   */\n      dup11\n        /* \"#utility.yul\":43233:43308   */\n      tag_603\n      jump\t// in\n    tag_659:\n        /* \"#utility.yul\":43333:43335   */\n      0x20\n        /* \"#utility.yul\":43328:43331   */\n      dup3\n        /* \"#utility.yul\":43324:43336   */\n      add\n        /* \"#utility.yul\":43317:43336   */\n      swap2\n      pop\n        /* \"#utility.yul\":43346:43419   */\n      tag_660\n        /* \"#utility.yul\":43415:43418   */\n      dup3\n        /* \"#utility.yul\":43406:43412   */\n      dup10\n        /* \"#utility.yul\":43346:43419   */\n      tag_608\n      jump\t// in\n    tag_660:\n        /* \"#utility.yul\":43444:43445   */\n      0x04\n        /* \"#utility.yul\":43439:43442   */\n      dup3\n        /* \"#utility.yul\":43435:43446   */\n      add\n        /* \"#utility.yul\":43428:43446   */\n      swap2\n      pop\n        /* \"#utility.yul\":43456:43531   */\n      tag_661\n        /* \"#utility.yul\":43527:43530   */\n      dup3\n        /* \"#utility.yul\":43518:43524   */\n      dup9\n        /* \"#utility.yul\":43456:43531   */\n      tag_603\n      jump\t// in\n    tag_661:\n        /* \"#utility.yul\":43556:43558   */\n      0x20\n        /* \"#utility.yul\":43551:43554   */\n      dup3\n        /* \"#utility.yul\":43547:43559   */\n      add\n        /* \"#utility.yul\":43540:43559   */\n      swap2\n      pop\n        /* \"#utility.yul\":43569:43644   */\n      tag_662\n        /* \"#utility.yul\":43640:43643   */\n      dup3\n        /* \"#utility.yul\":43631:43637   */\n      dup8\n        /* \"#utility.yul\":43569:43644   */\n      tag_603\n      jump\t// in\n    tag_662:\n        /* \"#utility.yul\":43669:43671   */\n      0x20\n        /* \"#utility.yul\":43664:43667   */\n      dup3\n        /* \"#utility.yul\":43660:43672   */\n      add\n        /* \"#utility.yul\":43653:43672   */\n      swap2\n      pop\n        /* \"#utility.yul\":43689:43782   */\n      tag_663\n        /* \"#utility.yul\":43778:43781   */\n      dup3\n        /* \"#utility.yul\":43769:43775   */\n      dup7\n        /* \"#utility.yul\":43689:43782   */\n      tag_542\n      jump\t// in\n    tag_663:\n        /* \"#utility.yul\":43682:43782   */\n      swap2\n      pop\n        /* \"#utility.yul\":43792:43867   */\n      tag_664\n        /* \"#utility.yul\":43863:43866   */\n      dup3\n        /* \"#utility.yul\":43854:43860   */\n      dup6\n        /* \"#utility.yul\":43792:43867   */\n      tag_455\n      jump\t// in\n    tag_664:\n        /* \"#utility.yul\":43892:43894   */\n      0x14\n        /* \"#utility.yul\":43887:43890   */\n      dup3\n        /* \"#utility.yul\":43883:43895   */\n      add\n        /* \"#utility.yul\":43876:43895   */\n      swap2\n      pop\n        /* \"#utility.yul\":43905:43980   */\n      tag_665\n        /* \"#utility.yul\":43976:43979   */\n      dup3\n        /* \"#utility.yul\":43967:43973   */\n      dup5\n        /* \"#utility.yul\":43905:43980   */\n      tag_603\n      jump\t// in\n    tag_665:\n        /* \"#utility.yul\":44005:44007   */\n      0x20\n        /* \"#utility.yul\":44000:44003   */\n      dup3\n        /* \"#utility.yul\":43996:44008   */\n      add\n        /* \"#utility.yul\":43989:44008   */\n      swap2\n      pop\n        /* \"#utility.yul\":44025:44028   */\n      dup2\n        /* \"#utility.yul\":44018:44028   */\n      swap1\n      pop\n        /* \"#utility.yul\":43222:44034   */\n      swap9\n      swap8\n      pop\n      pop\n      pop\n      pop\n      pop\n      pop\n      pop\n      pop\n      jump\t// out\n        /* \"#utility.yul\":44040:44266   */\n    tag_19:\n        /* \"#utility.yul\":44135:44139   */\n      0x00\n        /* \"#utility.yul\":44173:44175   */\n      0x20\n        /* \"#utility.yul\":44162:44171   */\n      dup3\n        /* \"#utility.yul\":44158:44176   */\n      add\n        /* \"#utility.yul\":44150:44176   */\n      swap1\n      pop\n        /* \"#utility.yul\":44186:44259   */\n      tag_667\n        /* \"#utility.yul\":44256:44257   */\n      0x00\n        /* \"#utility.yul\":44245:44254   */\n      dup4\n        /* \"#utility.yul\":44241:44258   */\n      add\n        /* \"#utility.yul\":44232:44238   */\n      dup5\n        /* \"#utility.yul\":44186:44259   */\n      tag_520\n      jump\t// in\n    tag_667:\n        /* \"#utility.yul\":44140:44266   */\n      swap3\n      swap2\n      pop\n      pop\n      jump\t// out\n        /* \"#utility.yul\":44272:44691   */\n    tag_176:\n        /* \"#utility.yul\":44411:44415   */\n      0x00\n        /* \"#utility.yul\":44449:44451   */\n      0x40\n        /* \"#utility.yul\":44438:44447   */\n      dup3\n        /* \"#utility.yul\":44434:44452   */\n      add\n        /* \"#utility.yul\":44426:44452   */\n      swap1\n      pop\n        /* \"#utility.yul\":44462:44533   */\n      tag_669\n        /* \"#utility.yul\":44530:44531   */\n      0x00\n        /* \"#utility.yul\":44519:44528   */\n      dup4\n        /* \"#utility.yul\":44515:44532   */\n      add\n        /* \"#utility.yul\":44506:44512   */\n      dup6\n        /* \"#utility.yul\":44462:44533   */\n      tag_523\n      jump\t// in\n    tag_669:\n        /* \"#utility.yul\":44580:44589   */\n      dup2\n        /* \"#utility.yul\":44574:44578   */\n      dup2\n        /* \"#utility.yul\":44570:44590   */\n      sub\n        /* \"#utility.yul\":44565:44567   */\n      0x20\n        /* \"#utility.yul\":44554:44563   */\n      dup4\n        /* \"#utility.yul\":44550:44568   */\n      add\n        /* \"#utility.yul\":44543:44591   */\n      mstore\n        /* \"#utility.yul\":44608:44684   */\n      tag_670\n        /* \"#utility.yul\":44679:44683   */\n      dup2\n        /* \"#utility.yul\":44670:44676   */\n      dup5\n        /* \"#utility.yul\":44608:44684   */\n      tag_532\n      jump\t// in\n    tag_670:\n        /* \"#utility.yul\":44600:44684   */\n      swap1\n      pop\n        /* \"#utility.yul\":44416:44691   */\n      swap4\n      swap3\n      pop\n      pop\n      pop\n      jump\t// out\n        /* \"#utility.yul\":44697:45242   */\n    tag_197:\n        /* \"#utility.yul\":44870:44874   */\n      0x00\n        /* \"#utility.yul\":44908:44911   */\n      0x80\n        /* \"#utility.yul\":44897:44906   */\n      dup3\n        /* \"#utility.yul\":44893:44912   */\n      add\n        /* \"#utility.yul\":44885:44912   */\n      swap1\n      pop\n        /* \"#utility.yul\":44922:44993   */\n      tag_672\n        /* \"#utility.yul\":44990:44991   */\n      0x00\n        /* \"#utility.yul\":44979:44988   */\n      dup4\n        /* \"#utility.yul\":44975:44992   */\n      add\n        /* \"#utility.yul\":44966:44972   */\n      dup8\n        /* \"#utility.yul\":44922:44993   */\n      tag_523\n      jump\t// in\n    tag_672:\n        /* \"#utility.yul\":45003:45071   */\n      tag_673\n        /* \"#utility.yul\":45067:45069   */\n      0x20\n        /* \"#utility.yul\":45056:45065   */\n      dup4\n        /* \"#utility.yul\":45052:45070   */\n      add\n        /* \"#utility.yul\":45043:45049   */\n      dup7\n        /* \"#utility.yul\":45003:45071   */\n      tag_614\n      jump\t// in\n    tag_673:\n        /* \"#utility.yul\":45081:45153   */\n      tag_674\n        /* \"#utility.yul\":45149:45151   */\n      0x40\n        /* \"#utility.yul\":45138:45147   */\n      dup4\n        /* \"#utility.yul\":45134:45152   */\n      add\n        /* \"#utility.yul\":45125:45131   */\n      dup6\n        /* \"#utility.yul\":45081:45153   */\n      tag_523\n      jump\t// in\n    tag_674:\n        /* \"#utility.yul\":45163:45235   */\n      tag_675\n        /* \"#utility.yul\":45231:45233   */\n      0x60\n        /* \"#utility.yul\":45220:45229   */\n      dup4\n        /* \"#utility.yul\":45216:45234   */\n      add\n        /* \"#utility.yul\":45207:45213   */\n      dup5\n        /* \"#utility.yul\":45163:45235   */\n      tag_523\n      jump\t// in\n    tag_675:\n        /* \"#utility.yul\":44875:45242   */\n      swap6\n      swap5\n      pop\n      pop\n      pop\n      pop\n      pop\n      jump\t// out\n        /* \"#utility.yul\":45248:45667   */\n    tag_115:\n        /* \"#utility.yul\":45414:45418   */\n      0x00\n        /* \"#utility.yul\":45452:45454   */\n      0x20\n        /* \"#utility.yul\":45441:45450   */\n      dup3\n        /* \"#utility.yul\":45437:45455   */\n      add\n        /* \"#utility.yul\":45429:45455   */\n      swap1\n      pop\n        /* \"#utility.yul\":45501:45510   */\n      dup2\n        /* \"#utility.yul\":45495:45499   */\n      dup2\n        /* \"#utility.yul\":45491:45511   */\n      sub\n        /* \"#utility.yul\":45487:45488   */\n      0x00\n        /* \"#utility.yul\":45476:45485   */\n      dup4\n        /* \"#utility.yul\":45472:45489   */\n      add\n        /* \"#utility.yul\":45465:45512   */\n      mstore\n        /* \"#utility.yul\":45529:45660   */\n      tag_677\n        /* \"#utility.yul\":45655:45659   */\n      dup2\n        /* \"#utility.yul\":45529:45660   */\n      tag_548\n      jump\t// in\n    tag_677:\n        /* \"#utility.yul\":45521:45660   */\n      swap1\n      pop\n        /* \"#utility.yul\":45419:45667   */\n      swap2\n      swap1\n      pop\n      jump\t// out\n        /* \"#utility.yul\":45673:46092   */\n    tag_74:\n        /* \"#utility.yul\":45839:45843   */\n      0x00\n        /* \"#utility.yul\":45877:45879   */\n      0x20\n        /* \"#utility.yul\":45866:45875   */\n      dup3\n        /* \"#utility.yul\":45862:45880   */\n      add\n        /* \"#utility.yul\":45854:45880   */\n      swap1\n      pop\n        /* \"#utility.yul\":45926:45935   */\n      dup2\n        /* \"#utility.yul\":45920:45924   */\n      dup2\n        /* \"#utility.yul\":45916:45936   */\n      sub\n        /* \"#utility.yul\":45912:45913   */\n      0x00\n        /* \"#utility.yul\":45901:45910   */\n      dup4\n        /* \"#utility.yul\":45897:45914   */\n      add\n        /* \"#utility.yul\":45890:45937   */\n      mstore\n        /* \"#utility.yul\":45954:46085   */\n      tag_679\n        /* \"#utility.yul\":46080:46084   */\n      dup2\n        /* \"#utility.yul\":45954:46085   */\n      tag_554\n      jump\t// in\n    tag_679:\n        /* \"#utility.yul\":45946:46085   */\n      swap1\n      pop\n        /* \"#utility.yul\":45844:46092   */\n      swap2\n      swap1\n      pop\n      jump\t// out\n        /* \"#utility.yul\":46098:46517   */\n    tag_99:\n        /* \"#utility.yul\":46264:46268   */\n      0x00\n        /* \"#utility.yul\":46302:46304   */\n      0x20\n        /* \"#utility.yul\":46291:46300   */\n      dup3\n        /* \"#utility.yul\":46287:46305   */\n      add\n        /* \"#utility.yul\":46279:46305   */\n      swap1\n      pop\n        /* \"#utility.yul\":46351:46360   */\n      dup2\n        /* \"#utility.yul\":46345:46349   */\n      dup2\n        /* \"#utility.yul\":46341:46361   */\n      sub\n        /* \"#utility.yul\":46337:46338   */\n      0x00\n        /* \"#utility.yul\":46326:46335   */\n      dup4\n        /* \"#utility.yul\":46322:46339   */\n      add\n        /* \"#utility.yul\":46315:46362   */\n      mstore\n        /* \"#utility.yul\":46379:46510   */\n      tag_681\n        /* \"#utility.yul\":46505:46509   */\n      dup2\n        /* \"#utility.yul\":46379:46510   */\n      tag_565\n      jump\t// in\n    tag_681:\n        /* \"#utility.yul\":46371:46510   */\n      swap1\n      pop\n        /* \"#utility.yul\":46269:46517   */\n      swap2\n      swap1\n      pop\n      jump\t// out\n        /* \"#utility.yul\":46523:46942   */\n    tag_77:\n        /* \"#utility.yul\":46689:46693   */\n      0x00\n        /* \"#utility.yul\":46727:46729   */\n      0x20\n        /* \"#utility.yul\":46716:46725   */\n      dup3\n        /* \"#utility.yul\":46712:46730   */\n      add\n        /* \"#utility.yul\":46704:46730   */\n      swap1\n      pop\n        /* \"#utility.yul\":46776:46785   */\n      dup2\n        /* \"#utility.yul\":46770:46774   */\n      dup2\n        /* \"#utility.yul\":46766:46786   */\n      sub\n        /* \"#utility.yul\":46762:46763   */\n      0x00\n        /* \"#utility.yul\":46751:46760   */\n      dup4\n        /* \"#utility.yul\":46747:46764   */\n      add\n        /* \"#utility.yul\":46740:46787   */\n      mstore\n        /* \"#utility.yul\":46804:46935   */\n      tag_683\n        /* \"#utility.yul\":46930:46934   */\n      dup2\n        /* \"#utility.yul\":46804:46935   */\n      tag_570\n      jump\t// in\n    tag_683:\n        /* \"#utility.yul\":46796:46935   */\n      swap1\n      pop\n        /* \"#utility.yul\":46694:46942   */\n      swap2\n      swap1\n      pop\n      jump\t// out\n        /* \"#utility.yul\":46948:47349   */\n    tag_83:\n        /* \"#utility.yul\":47105:47109   */\n      0x00\n        /* \"#utility.yul\":47143:47145   */\n      0x20\n        /* \"#utility.yul\":47132:47141   */\n      dup3\n        /* \"#utility.yul\":47128:47146   */\n      add\n        /* \"#utility.yul\":47120:47146   */\n      swap1\n      pop\n        /* \"#utility.yul\":47192:47201   */\n      dup2\n        /* \"#utility.yul\":47186:47190   */\n      dup2\n        /* \"#utility.yul\":47182:47202   */\n      sub\n        /* \"#utility.yul\":47178:47179   */\n      0x00\n        /* \"#utility.yul\":47167:47176   */\n      dup4\n        /* \"#utility.yul\":47163:47180   */\n      add\n        /* \"#utility.yul\":47156:47203   */\n      mstore\n        /* \"#utility.yul\":47220:47342   */\n      tag_685\n        /* \"#utility.yul\":47337:47341   */\n      dup2\n        /* \"#utility.yul\":47328:47334   */\n      dup5\n        /* \"#utility.yul\":47220:47342   */\n      tag_586\n      jump\t// in\n    tag_685:\n        /* \"#utility.yul\":47212:47342   */\n      swap1\n      pop\n        /* \"#utility.yul\":47110:47349   */\n      swap3\n      swap2\n      pop\n      pop\n      jump\t// out\n        /* \"#utility.yul\":47355:47593   */\n    tag_33:\n        /* \"#utility.yul\":47456:47460   */\n      0x00\n        /* \"#utility.yul\":47494:47496   */\n      0x20\n        /* \"#utility.yul\":47483:47492   */\n      dup3\n        /* \"#utility.yul\":47479:47497   */\n      add\n        /* \"#utility.yul\":47471:47497   */\n      swap1\n      pop\n        /* \"#utility.yul\":47507:47586   */\n      tag_687\n        /* \"#utility.yul\":47583:47584   */\n      0x00\n        /* \"#utility.yul\":47572:47581   */\n      dup4\n        /* \"#utility.yul\":47568:47585   */\n      add\n        /* \"#utility.yul\":47559:47565   */\n      dup5\n        /* \"#utility.yul\":47507:47586   */\n      tag_600\n      jump\t// in\n    tag_687:\n        /* \"#utility.yul\":47461:47593   */\n      swap3\n      swap2\n      pop\n      pop\n      jump\t// out\n        /* \"#utility.yul\":47599:47728   */\n    tag_207:\n        /* \"#utility.yul\":47633:47639   */\n      0x00\n        /* \"#utility.yul\":47660:47680   */\n      tag_689\n      tag_690\n      jump\t// in\n    tag_689:\n        /* \"#utility.yul\":47650:47680   */\n      swap1\n      pop\n        /* \"#utility.yul\":47689:47722   */\n      tag_691\n        /* \"#utility.yul\":47717:47721   */\n      dup3\n        /* \"#utility.yul\":47709:47715   */\n      dup3\n        /* \"#utility.yul\":47689:47722   */\n      tag_692\n      jump\t// in\n    tag_691:\n        /* \"#utility.yul\":47640:47728   */\n      swap2\n      swap1\n      pop\n      jump\t// out\n        /* \"#utility.yul\":47734:47809   */\n    tag_690:\n        /* \"#utility.yul\":47767:47773   */\n      0x00\n        /* \"#utility.yul\":47800:47802   */\n      0x40\n        /* \"#utility.yul\":47794:47803   */\n      mload\n        /* \"#utility.yul\":47784:47803   */\n      swap1\n      pop\n        /* \"#utility.yul\":47774:47809   */\n      swap1\n      jump\t// out\n        /* \"#utility.yul\":47815:48164   */\n    tag_206:\n        /* \"#utility.yul\":47930:47934   */\n      0x00\n        /* \"#utility.yul\":48020:48038   */\n      0xffffffffffffffff\n        /* \"#utility.yul\":48012:48018   */\n      dup3\n        /* \"#utility.yul\":48009:48039   */\n      gt\n        /* \"#utility.yul\":48006:48008   */\n      iszero\n      tag_695\n      jumpi\n        /* \"#utility.yul\":48042:48060   */\n      tag_696\n      tag_697\n      jump\t// in\n    tag_696:\n        /* \"#utility.yul\":48006:48008   */\n    tag_695:\n        /* \"#utility.yul\":48092:48096   */\n      0x20\n        /* \"#utility.yul\":48084:48090   */\n      dup3\n        /* \"#utility.yul\":48080:48097   */\n      mul\n        /* \"#utility.yul\":48072:48097   */\n      swap1\n      pop\n        /* \"#utility.yul\":48152:48156   */\n      0x20\n        /* \"#utility.yul\":48146:48150   */\n      dup2\n        /* \"#utility.yul\":48142:48157   */\n      add\n        /* \"#utility.yul\":48134:48157   */\n      swap1\n      pop\n        /* \"#utility.yul\":47935:48164   */\n      swap2\n      swap1\n      pop\n      jump\t// out\n        /* \"#utility.yul\":48170:48517   */\n    tag_219:\n        /* \"#utility.yul\":48283:48287   */\n      0x00\n        /* \"#utility.yul\":48373:48391   */\n      0xffffffffffffffff\n        /* \"#utility.yul\":48365:48371   */\n      dup3\n        /* \"#utility.yul\":48362:48392   */\n      gt\n        /* \"#utility.yul\":48359:48361   */\n      iszero\n      tag_699\n      jumpi\n        /* \"#utility.yul\":48395:48413   */\n      tag_700\n      tag_697\n      jump\t// in\n    tag_700:\n        /* \"#utility.yul\":48359:48361   */\n    tag_699:\n        /* \"#utility.yul\":48445:48449   */\n      0x20\n        /* \"#utility.yul\":48437:48443   */\n      dup3\n        /* \"#utility.yul\":48433:48450   */\n      mul\n        /* \"#utility.yul\":48425:48450   */\n      swap1\n      pop\n        /* \"#utility.yul\":48505:48509   */\n      0x20\n        /* \"#utility.yul\":48499:48503   */\n      dup2\n        /* \"#utility.yul\":48495:48510   */\n      add\n        /* \"#utility.yul\":48487:48510   */\n      swap1\n      pop\n        /* \"#utility.yul\":48288:48517   */\n      swap2\n      swap1\n      pop\n      jump\t// out\n        /* \"#utility.yul\":48523:48871   */\n    tag_230:\n        /* \"#utility.yul\":48637:48641   */\n      0x00\n        /* \"#utility.yul\":48727:48745   */\n      0xffffffffffffffff\n        /* \"#utility.yul\":48719:48725   */\n      dup3\n        /* \"#utility.yul\":48716:48746   */\n      gt\n        /* \"#utility.yul\":48713:48715   */\n      iszero\n      tag_702\n      jumpi\n        /* \"#utility.yul\":48749:48767   */\n      tag_703\n      tag_697\n      jump\t// in\n    tag_703:\n        /* \"#utility.yul\":48713:48715   */\n    tag_702:\n        /* \"#utility.yul\":48799:48803   */\n      0x20\n        /* \"#utility.yul\":48791:48797   */\n      dup3\n        /* \"#utility.yul\":48787:48804   */\n      mul\n        /* \"#utility.yul\":48779:48804   */\n      swap1\n      pop\n        /* \"#utility.yul\":48859:48863   */\n      0x20\n        /* \"#utility.yul\":48853:48857   */\n      dup2\n        /* \"#utility.yul\":48849:48864   */\n      add\n        /* \"#utility.yul\":48841:48864   */\n      swap1\n      pop\n        /* \"#utility.yul\":48642:48871   */\n      swap2\n      swap1\n      pop\n      jump\t// out\n        /* \"#utility.yul\":48877:49188   */\n    tag_241:\n        /* \"#utility.yul\":48954:48958   */\n      0x00\n        /* \"#utility.yul\":49044:49062   */\n      0xffffffffffffffff\n        /* \"#utility.yul\":49036:49042   */\n      dup3\n        /* \"#utility.yul\":49033:49063   */\n      gt\n        /* \"#utility.yul\":49030:49032   */\n      iszero\n      tag_705\n      jumpi\n        /* \"#utility.yul\":49066:49084   */\n      tag_706\n      tag_697\n      jump\t// in\n    tag_706:\n        /* \"#utility.yul\":49030:49032   */\n    tag_705:\n        /* \"#utility.yul\":49116:49120   */\n      0x20\n        /* \"#utility.yul\":49108:49114   */\n      dup3\n        /* \"#utility.yul\":49104:49121   */\n      mul\n        /* \"#utility.yul\":49096:49121   */\n      swap1\n      pop\n        /* \"#utility.yul\":49176:49180   */\n      0x20\n        /* \"#utility.yul\":49170:49174   */\n      dup2\n        /* \"#utility.yul\":49166:49181   */\n      add\n        /* \"#utility.yul\":49158:49181   */\n      swap1\n      pop\n        /* \"#utility.yul\":48959:49188   */\n      swap2\n      swap1\n      pop\n      jump\t// out\n        /* \"#utility.yul\":49194:49501   */\n    tag_252:\n        /* \"#utility.yul\":49255:49259   */\n      0x00\n        /* \"#utility.yul\":49345:49363   */\n      0xffffffffffffffff\n        /* \"#utility.yul\":49337:49343   */\n      dup3\n        /* \"#utility.yul\":49334:49364   */\n      gt\n        /* \"#utility.yul\":49331:49333   */\n      iszero\n      tag_708\n      jumpi\n        /* \"#utility.yul\":49367:49385   */\n      tag_709\n      tag_697\n      jump\t// in\n    tag_709:\n        /* \"#utility.yul\":49331:49333   */\n    tag_708:\n        /* \"#utility.yul\":49405:49434   */\n      tag_710\n        /* \"#utility.yul\":49427:49433   */\n      dup3\n        /* \"#utility.yul\":49405:49434   */\n      tag_541\n      jump\t// in\n    tag_710:\n        /* \"#utility.yul\":49397:49434   */\n      swap1\n      pop\n        /* \"#utility.yul\":49489:49493   */\n      0x20\n        /* \"#utility.yul\":49483:49487   */\n      dup2\n        /* \"#utility.yul\":49479:49494   */\n      add\n        /* \"#utility.yul\":49471:49494   */\n      swap1\n      pop\n        /* \"#utility.yul\":49260:49501   */\n      swap2\n      swap1\n      pop\n      jump\t// out\n        /* \"#utility.yul\":49507:49677   */\n    tag_467:\n        /* \"#utility.yul\":49612:49616   */\n      0x00\n        /* \"#utility.yul\":49635:49638   */\n      dup2\n        /* \"#utility.yul\":49627:49638   */\n      swap1\n      pop\n        /* \"#utility.yul\":49665:49669   */\n      0x20\n        /* \"#utility.yul\":49660:49663   */\n      dup3\n        /* \"#utility.yul\":49656:49670   */\n      add\n        /* \"#utility.yul\":49648:49670   */\n      swap1\n      pop\n        /* \"#utility.yul\":49617:49677   */\n      swap2\n      swap1\n      pop\n      jump\t// out\n        /* \"#utility.yul\":49683:49851   */\n    tag_481:\n        /* \"#utility.yul\":49786:49790   */\n      0x00\n        /* \"#utility.yul\":49809:49812   */\n      dup2\n        /* \"#utility.yul\":49801:49812   */\n      swap1\n      pop\n        /* \"#utility.yul\":49839:49843   */\n      0x20\n        /* \"#utility.yul\":49834:49837   */\n      dup3\n        /* \"#utility.yul\":49830:49844   */\n      add\n        /* \"#utility.yul\":49822:49844   */\n      swap1\n      pop\n        /* \"#utility.yul\":49791:49851   */\n      swap2\n      swap1\n      pop\n      jump\t// out\n        /* \"#utility.yul\":49857:50026   */\n    tag_495:\n        /* \"#utility.yul\":49961:49965   */\n      0x00\n        /* \"#utility.yul\":49984:49987   */\n      dup2\n        /* \"#utility.yul\":49976:49987   */\n      swap1\n      pop\n        /* \"#utility.yul\":50014:50018   */\n      0x20\n        /* \"#utility.yul\":50009:50012   */\n      dup3\n        /* \"#utility.yul\":50005:50019   */\n      add\n        /* \"#utility.yul\":49997:50019   */\n      swap1\n      pop\n        /* \"#utility.yul\":49966:50026   */\n      swap2\n      swap1\n      pop\n      jump\t// out\n        /* \"#utility.yul\":50032:50164   */\n    tag_509:\n        /* \"#utility.yul\":50099:50103   */\n      0x00\n        /* \"#utility.yul\":50122:50125   */\n      dup2\n        /* \"#utility.yul\":50114:50125   */\n      swap1\n      pop\n        /* \"#utility.yul\":50152:50156   */\n      0x20\n        /* \"#utility.yul\":50147:50150   */\n      dup3\n        /* \"#utility.yul\":50143:50157   */\n      add\n        /* \"#utility.yul\":50135:50157   */\n      swap1\n      pop\n        /* \"#utility.yul\":50104:50164   */\n      swap2\n      swap1\n      pop\n      jump\t// out\n        /* \"#utility.yul\":50170:50322   */\n    tag_463:\n        /* \"#utility.yul\":50275:50281   */\n      0x00\n        /* \"#utility.yul\":50309:50314   */\n      dup2\n        /* \"#utility.yul\":50303:50315   */\n      mload\n        /* \"#utility.yul\":50293:50315   */\n      swap1\n      pop\n        /* \"#utility.yul\":50282:50322   */\n      swap2\n      swap1\n      pop\n      jump\t// out\n        /* \"#utility.yul\":50328:50478   */\n    tag_477:\n        /* \"#utility.yul\":50431:50437   */\n      0x00\n        /* \"#utility.yul\":50465:50470   */\n      dup2\n        /* \"#utility.yul\":50459:50471   */\n      mload\n        /* \"#utility.yul\":50449:50471   */\n      swap1\n      pop\n        /* \"#utility.yul\":50438:50478   */\n      swap2\n      swap1\n      pop\n      jump\t// out\n        /* \"#utility.yul\":50484:50635   */\n    tag_491:\n        /* \"#utility.yul\":50588:50594   */\n      0x00\n        /* \"#utility.yul\":50622:50627   */\n      dup2\n        /* \"#utility.yul\":50616:50628   */\n      mload\n        /* \"#utility.yul\":50606:50628   */\n      swap1\n      pop\n        /* \"#utility.yul\":50595:50635   */\n      swap2\n      swap1\n      pop\n      jump\t// out\n        /* \"#utility.yul\":50641:50755   */\n    tag_505:\n        /* \"#utility.yul\":50708:50714   */\n      0x00\n        /* \"#utility.yul\":50742:50747   */\n      dup2\n        /* \"#utility.yul\":50736:50748   */\n      mload\n        /* \"#utility.yul\":50726:50748   */\n      swap1\n      pop\n        /* \"#utility.yul\":50715:50755   */\n      swap2\n      swap1\n      pop\n      jump\t// out\n        /* \"#utility.yul\":50761:50859   */\n    tag_535:\n        /* \"#utility.yul\":50812:50818   */\n      0x00\n        /* \"#utility.yul\":50846:50851   */\n      dup2\n        /* \"#utility.yul\":50840:50852   */\n      mload\n        /* \"#utility.yul\":50830:50852   */\n      swap1\n      pop\n        /* \"#utility.yul\":50819:50859   */\n      swap2\n      swap1\n      pop\n      jump\t// out\n        /* \"#utility.yul\":50865:51016   */\n    tag_473:\n        /* \"#utility.yul\":50973:50977   */\n      0x00\n        /* \"#utility.yul\":51005:51009   */\n      0x20\n        /* \"#utility.yul\":51000:51003   */\n      dup3\n        /* \"#utility.yul\":50996:51010   */\n      add\n        /* \"#utility.yul\":50988:51010   */\n      swap1\n      pop\n        /* \"#utility.yul\":50978:51016   */\n      swap2\n      swap1\n      pop\n      jump\t// out\n        /* \"#utility.yul\":51022:51171   */\n    tag_487:\n        /* \"#utility.yul\":51128:51132   */\n      0x00\n        /* \"#utility.yul\":51160:51164   */\n      0x20\n        /* \"#utility.yul\":51155:51158   */\n      dup3\n        /* \"#utility.yul\":51151:51165   */\n      add\n        /* \"#utility.yul\":51143:51165   */\n      swap1\n      pop\n        /* \"#utility.yul\":51133:51171   */\n      swap2\n      swap1\n      pop\n      jump\t// out\n        /* \"#utility.yul\":51177:51327   */\n    tag_501:\n        /* \"#utility.yul\":51284:51288   */\n      0x00\n        /* \"#utility.yul\":51316:51320   */\n      0x20\n        /* \"#utility.yul\":51311:51314   */\n      dup3\n        /* \"#utility.yul\":51307:51321   */\n      add\n        /* \"#utility.yul\":51299:51321   */\n      swap1\n      pop\n        /* \"#utility.yul\":51289:51327   */\n      swap2\n      swap1\n      pop\n      jump\t// out\n        /* \"#utility.yul\":51333:51446   */\n    tag_515:\n        /* \"#utility.yul\":51403:51407   */\n      0x00\n        /* \"#utility.yul\":51435:51439   */\n      0x20\n        /* \"#utility.yul\":51430:51433   */\n      dup3\n        /* \"#utility.yul\":51426:51440   */\n      add\n        /* \"#utility.yul\":51418:51440   */\n      swap1\n      pop\n        /* \"#utility.yul\":51408:51446   */\n      swap2\n      swap1\n      pop\n      jump\t// out\n        /* \"#utility.yul\":51452:51664   */\n    tag_465:\n        /* \"#utility.yul\":51579:51590   */\n      0x00\n        /* \"#utility.yul\":51613:51619   */\n      dup3\n        /* \"#utility.yul\":51608:51611   */\n      dup3\n        /* \"#utility.yul\":51601:51620   */\n      mstore\n        /* \"#utility.yul\":51653:51657   */\n      0x20\n        /* \"#utility.yul\":51648:51651   */\n      dup3\n        /* \"#utility.yul\":51644:51658   */\n      add\n        /* \"#utility.yul\":51629:51658   */\n      swap1\n      pop\n        /* \"#utility.yul\":51591:51664   */\n      swap3\n      swap2\n      pop\n      pop\n      jump\t// out\n        /* \"#utility.yul\":51670:51880   */\n    tag_479:\n        /* \"#utility.yul\":51795:51806   */\n      0x00\n        /* \"#utility.yul\":51829:51835   */\n      dup3\n        /* \"#utility.yul\":51824:51827   */\n      dup3\n        /* \"#utility.yul\":51817:51836   */\n      mstore\n        /* \"#utility.yul\":51869:51873   */\n      0x20\n        /* \"#utility.yul\":51864:51867   */\n      dup3\n        /* \"#utility.yul\":51860:51874   */\n      add\n        /* \"#utility.yul\":51845:51874   */\n      swap1\n      pop\n        /* \"#utility.yul\":51807:51880   */\n      swap3\n      swap2\n      pop\n      pop\n      jump\t// out\n        /* \"#utility.yul\":51886:52097   */\n    tag_493:\n        /* \"#utility.yul\":52012:52023   */\n      0x00\n        /* \"#utility.yul\":52046:52052   */\n      dup3\n        /* \"#utility.yul\":52041:52044   */\n      dup3\n        /* \"#utility.yul\":52034:52053   */\n      mstore\n        /* \"#utility.yul\":52086:52090   */\n      0x20\n        /* \"#utility.yul\":52081:52084   */\n      dup3\n        /* \"#utility.yul\":52077:52091   */\n      add\n        /* \"#utility.yul\":52062:52091   */\n      swap1\n      pop\n        /* \"#utility.yul\":52024:52097   */\n      swap3\n      swap2\n      pop\n      pop\n      jump\t// out\n        /* \"#utility.yul\":52103:52277   */\n    tag_507:\n        /* \"#utility.yul\":52192:52203   */\n      0x00\n        /* \"#utility.yul\":52226:52232   */\n      dup3\n        /* \"#utility.yul\":52221:52224   */\n      dup3\n        /* \"#utility.yul\":52214:52233   */\n      mstore\n        /* \"#utility.yul\":52266:52270   */\n      0x20\n        /* \"#utility.yul\":52261:52264   */\n      dup3\n        /* \"#utility.yul\":52257:52271   */\n      add\n        /* \"#utility.yul\":52242:52271   */\n      swap1\n      pop\n        /* \"#utility.yul\":52204:52277   */\n      swap3\n      swap2\n      pop\n      pop\n      jump\t// out\n        /* \"#utility.yul\":52283:52451   */\n    tag_537:\n        /* \"#utility.yul\":52366:52377   */\n      0x00\n        /* \"#utility.yul\":52400:52406   */\n      dup3\n        /* \"#utility.yul\":52395:52398   */\n      dup3\n        /* \"#utility.yul\":52388:52407   */\n      mstore\n        /* \"#utility.yul\":52440:52444   */\n      0x20\n        /* \"#utility.yul\":52435:52438   */\n      dup3\n        /* \"#utility.yul\":52431:52445   */\n      add\n        /* \"#utility.yul\":52416:52445   */\n      swap1\n      pop\n        /* \"#utility.yul\":52378:52451   */\n      swap3\n      swap2\n      pop\n      pop\n      jump\t// out\n        /* \"#utility.yul\":52457:52604   */\n    tag_546:\n        /* \"#utility.yul\":52558:52569   */\n      0x00\n        /* \"#utility.yul\":52595:52598   */\n      dup2\n        /* \"#utility.yul\":52580:52598   */\n      swap1\n      pop\n        /* \"#utility.yul\":52570:52604   */\n      swap3\n      swap2\n      pop\n      pop\n      jump\t// out\n        /* \"#utility.yul\":52610:52779   */\n    tag_551:\n        /* \"#utility.yul\":52694:52705   */\n      0x00\n        /* \"#utility.yul\":52728:52734   */\n      dup3\n        /* \"#utility.yul\":52723:52726   */\n      dup3\n        /* \"#utility.yul\":52716:52735   */\n      mstore\n        /* \"#utility.yul\":52768:52772   */\n      0x20\n        /* \"#utility.yul\":52763:52766   */\n      dup3\n        /* \"#utility.yul\":52759:52773   */\n      add\n        /* \"#utility.yul\":52744:52773   */\n      swap1\n      pop\n        /* \"#utility.yul\":52706:52779   */\n      swap3\n      swap2\n      pop\n      pop\n      jump\t// out\n        /* \"#utility.yul\":52785:52933   */\n    tag_562:\n        /* \"#utility.yul\":52887:52898   */\n      0x00\n        /* \"#utility.yul\":52924:52927   */\n      dup2\n        /* \"#utility.yul\":52909:52927   */\n      swap1\n      pop\n        /* \"#utility.yul\":52899:52933   */\n      swap3\n      swap2\n      pop\n      pop\n      jump\t// out\n        /* \"#utility.yul\":52939:53035   */\n    tag_454:\n        /* \"#utility.yul\":52976:52983   */\n      0x00\n        /* \"#utility.yul\":53005:53029   */\n      tag_733\n        /* \"#utility.yul\":53023:53028   */\n      dup3\n        /* \"#utility.yul\":53005:53029   */\n      tag_734\n      jump\t// in\n    tag_733:\n        /* \"#utility.yul\":52994:53029   */\n      swap1\n      pop\n        /* \"#utility.yul\":52984:53035   */\n      swap2\n      swap1\n      pop\n      jump\t// out\n        /* \"#utility.yul\":53041:53131   */\n    tag_519:\n        /* \"#utility.yul\":53075:53082   */\n      0x00\n        /* \"#utility.yul\":53118:53123   */\n      dup2\n        /* \"#utility.yul\":53111:53124   */\n      iszero\n        /* \"#utility.yul\":53104:53125   */\n      iszero\n        /* \"#utility.yul\":53093:53125   */\n      swap1\n      pop\n        /* \"#utility.yul\":53083:53131   */\n      swap2\n      swap1\n      pop\n      jump\t// out\n        /* \"#utility.yul\":53137:53214   */\n    tag_526:\n        /* \"#utility.yul\":53174:53181   */\n      0x00\n        /* \"#utility.yul\":53203:53208   */\n      dup2\n        /* \"#utility.yul\":53192:53208   */\n      swap1\n      pop\n        /* \"#utility.yul\":53182:53214   */\n      swap2\n      swap1\n      pop\n      jump\t// out\n        /* \"#utility.yul\":53220:53309   */\n    tag_595:\n        /* \"#utility.yul\":53256:53263   */\n      0x00\n        /* \"#utility.yul\":53296:53302   */\n      0xffff\n        /* \"#utility.yul\":53289:53294   */\n      dup3\n        /* \"#utility.yul\":53285:53303   */\n      and\n        /* \"#utility.yul\":53274:53303   */\n      swap1\n      pop\n        /* \"#utility.yul\":53264:53309   */\n      swap2\n      swap1\n      pop\n      jump\t// out\n        /* \"#utility.yul\":53315:53441   */\n    tag_734:\n        /* \"#utility.yul\":53352:53359   */\n      0x00\n        /* \"#utility.yul\":53392:53434   */\n      0xffffffffffffffffffffffffffffffffffffffff\n        /* \"#utility.yul\":53385:53390   */\n      dup3\n        /* \"#utility.yul\":53381:53435   */\n      and\n        /* \"#utility.yul\":53370:53435   */\n      swap1\n      pop\n        /* \"#utility.yul\":53360:53441   */\n      swap2\n      swap1\n      pop\n      jump\t// out\n        /* \"#utility.yul\":53447:53524   */\n    tag_599:\n        /* \"#utility.yul\":53484:53491   */\n      0x00\n        /* \"#utility.yul\":53513:53518   */\n      dup2\n        /* \"#utility.yul\":53502:53518   */\n      swap1\n      pop\n        /* \"#utility.yul\":53492:53524   */\n      swap2\n      swap1\n      pop\n      jump\t// out\n        /* \"#utility.yul\":53530:53623   */\n    tag_612:\n        /* \"#utility.yul\":53566:53573   */\n      0x00\n        /* \"#utility.yul\":53606:53616   */\n      0xffffffff\n        /* \"#utility.yul\":53599:53604   */\n      dup3\n        /* \"#utility.yul\":53595:53617   */\n      and\n        /* \"#utility.yul\":53584:53617   */\n      swap1\n      pop\n        /* \"#utility.yul\":53574:53623   */\n      swap2\n      swap1\n      pop\n      jump\t// out\n        /* \"#utility.yul\":53629:53715   */\n    tag_617:\n        /* \"#utility.yul\":53664:53671   */\n      0x00\n        /* \"#utility.yul\":53704:53708   */\n      0xff\n        /* \"#utility.yul\":53697:53702   */\n      dup3\n        /* \"#utility.yul\":53693:53709   */\n      and\n        /* \"#utility.yul\":53682:53709   */\n      swap1\n      pop\n        /* \"#utility.yul\":53672:53715   */\n      swap2\n      swap1\n      pop\n      jump\t// out\n        /* \"#utility.yul\":53721:53875   */\n    tag_255:\n        /* \"#utility.yul\":53805:53811   */\n      dup3\n        /* \"#utility.yul\":53800:53803   */\n      dup2\n        /* \"#utility.yul\":53795:53798   */\n      dup4\n        /* \"#utility.yul\":53782:53812   */\n      calldatacopy\n        /* \"#utility.yul\":53867:53868   */\n      0x00\n        /* \"#utility.yul\":53858:53864   */\n      dup4\n        /* \"#utility.yul\":53853:53856   */\n      dup4\n        /* \"#utility.yul\":53849:53865   */\n      add\n        /* \"#utility.yul\":53842:53869   */\n      mstore\n        /* \"#utility.yul\":53772:53875   */\n      pop\n      pop\n      pop\n      jump\t// out\n        /* \"#utility.yul\":53881:54188   */\n    tag_539:\n        /* \"#utility.yul\":53949:53950   */\n      0x00\n        /* \"#utility.yul\":53959:54072   */\n    tag_744:\n        /* \"#utility.yul\":53973:53979   */\n      dup4\n        /* \"#utility.yul\":53970:53971   */\n      dup2\n        /* \"#utility.yul\":53967:53980   */\n      lt\n        /* \"#utility.yul\":53959:54072   */\n      iszero\n      tag_746\n      jumpi\n        /* \"#utility.yul\":54058:54059   */\n      dup1\n        /* \"#utility.yul\":54053:54056   */\n      dup3\n        /* \"#utility.yul\":54049:54060   */\n      add\n        /* \"#utility.yul\":54043:54061   */\n      mload\n        /* \"#utility.yul\":54039:54040   */\n      dup2\n        /* \"#utility.yul\":54034:54037   */\n      dup5\n        /* \"#utility.yul\":54030:54041   */\n      add\n        /* \"#utility.yul\":54023:54062   */\n      mstore\n        /* \"#utility.yul\":53995:53997   */\n      0x20\n        /* \"#utility.yul\":53992:53993   */\n      dup2\n        /* \"#utility.yul\":53988:53998   */\n      add\n        /* \"#utility.yul\":53983:53998   */\n      swap1\n      pop\n        /* \"#utility.yul\":53959:54072   */\n      jump(tag_744)\n    tag_746:\n        /* \"#utility.yul\":54090:54096   */\n      dup4\n        /* \"#utility.yul\":54087:54088   */\n      dup2\n        /* \"#utility.yul\":54084:54097   */\n      gt\n        /* \"#utility.yul\":54081:54083   */\n      iszero\n      tag_747\n      jumpi\n        /* \"#utility.yul\":54170:54171   */\n      0x00\n        /* \"#utility.yul\":54161:54167   */\n      dup5\n        /* \"#utility.yul\":54156:54159   */\n      dup5\n        /* \"#utility.yul\":54152:54168   */\n      add\n        /* \"#utility.yul\":54145:54172   */\n      mstore\n        /* \"#utility.yul\":54081:54083   */\n    tag_747:\n        /* \"#utility.yul\":53930:54188   */\n      pop\n      pop\n      pop\n      pop\n      jump\t// out\n        /* \"#utility.yul\":54194:54475   */\n    tag_692:\n        /* \"#utility.yul\":54277:54304   */\n      tag_749\n        /* \"#utility.yul\":54299:54303   */\n      dup3\n        /* \"#utility.yul\":54277:54304   */\n      tag_541\n      jump\t// in\n    tag_749:\n        /* \"#utility.yul\":54269:54275   */\n      dup2\n        /* \"#utility.yul\":54265:54305   */\n      add\n        /* \"#utility.yul\":54407:54413   */\n      dup2\n        /* \"#utility.yul\":54395:54405   */\n      dup2\n        /* \"#utility.yul\":54392:54414   */\n      lt\n        /* \"#utility.yul\":54371:54389   */\n      0xffffffffffffffff\n        /* \"#utility.yul\":54359:54369   */\n      dup3\n        /* \"#utility.yul\":54356:54390   */\n      gt\n        /* \"#utility.yul\":54353:54415   */\n      or\n        /* \"#utility.yul\":54350:54352   */\n      iszero\n      tag_750\n      jumpi\n        /* \"#utility.yul\":54418:54436   */\n      tag_751\n      tag_697\n      jump\t// in\n    tag_751:\n        /* \"#utility.yul\":54350:54352   */\n    tag_750:\n        /* \"#utility.yul\":54458:54468   */\n      dup1\n        /* \"#utility.yul\":54454:54456   */\n      0x40\n        /* \"#utility.yul\":54447:54469   */\n      mstore\n        /* \"#utility.yul\":54237:54475   */\n      pop\n      pop\n      pop\n      jump\t// out\n        /* \"#utility.yul\":54481:54581   */\n    tag_459:\n        /* \"#utility.yul\":54520:54527   */\n      0x00\n        /* \"#utility.yul\":54549:54575   */\n      tag_753\n        /* \"#utility.yul\":54569:54574   */\n      dup3\n        /* \"#utility.yul\":54549:54575   */\n      tag_754\n      jump\t// in\n    tag_753:\n        /* \"#utility.yul\":54538:54575   */\n      swap1\n      pop\n        /* \"#utility.yul\":54528:54581   */\n      swap2\n      swap1\n      pop\n      jump\t// out\n        /* \"#utility.yul\":54587:54666   */\n    tag_531:\n        /* \"#utility.yul\":54626:54633   */\n      0x00\n        /* \"#utility.yul\":54655:54660   */\n      dup2\n        /* \"#utility.yul\":54644:54660   */\n      swap1\n      pop\n        /* \"#utility.yul\":54634:54666   */\n      swap2\n      swap1\n      pop\n      jump\t// out\n        /* \"#utility.yul\":54672:54766   */\n    tag_596:\n        /* \"#utility.yul\":54710:54717   */\n      0x00\n        /* \"#utility.yul\":54739:54760   */\n      tag_757\n        /* \"#utility.yul\":54754:54759   */\n      dup3\n        /* \"#utility.yul\":54739:54760   */\n      tag_758\n      jump\t// in\n    tag_757:\n        /* \"#utility.yul\":54728:54760   */\n      swap1\n      pop\n        /* \"#utility.yul\":54718:54766   */\n      swap2\n      swap1\n      pop\n      jump\t// out\n        /* \"#utility.yul\":54772:54866   */\n    tag_754:\n        /* \"#utility.yul\":54811:54818   */\n      0x00\n        /* \"#utility.yul\":54840:54860   */\n      tag_760\n        /* \"#utility.yul\":54854:54859   */\n      dup3\n        /* \"#utility.yul\":54840:54860   */\n      tag_761\n      jump\t// in\n    tag_760:\n        /* \"#utility.yul\":54829:54860   */\n      swap1\n      pop\n        /* \"#utility.yul\":54819:54866   */\n      swap2\n      swap1\n      pop\n      jump\t// out\n        /* \"#utility.yul\":54872:54951   */\n    tag_607:\n        /* \"#utility.yul\":54911:54918   */\n      0x00\n        /* \"#utility.yul\":54940:54945   */\n      dup2\n        /* \"#utility.yul\":54929:54945   */\n      swap1\n      pop\n        /* \"#utility.yul\":54919:54951   */\n      swap2\n      swap1\n      pop\n      jump\t// out\n        /* \"#utility.yul\":54957:55051   */\n    tag_613:\n        /* \"#utility.yul\":54995:55002   */\n      0x00\n        /* \"#utility.yul\":55024:55045   */\n      tag_764\n        /* \"#utility.yul\":55039:55044   */\n      dup3\n        /* \"#utility.yul\":55024:55045   */\n      tag_765\n      jump\t// in\n    tag_764:\n        /* \"#utility.yul\":55013:55045   */\n      swap1\n      pop\n        /* \"#utility.yul\":55003:55051   */\n      swap2\n      swap1\n      pop\n      jump\t// out\n        /* \"#utility.yul\":55057:55237   */\n    tag_697:\n        /* \"#utility.yul\":55105:55182   */\n      0x4e487b7100000000000000000000000000000000000000000000000000000000\n        /* \"#utility.yul\":55102:55103   */\n      0x00\n        /* \"#utility.yul\":55095:55183   */\n      mstore\n        /* \"#utility.yul\":55202:55206   */\n      0x41\n        /* \"#utility.yul\":55199:55200   */\n      0x04\n        /* \"#utility.yul\":55192:55207   */\n      mstore\n        /* \"#utility.yul\":55226:55230   */\n      0x24\n        /* \"#utility.yul\":55223:55224   */\n      0x00\n        /* \"#utility.yul\":55216:55231   */\n      revert\n        /* \"#utility.yul\":55243:55345   */\n    tag_541:\n        /* \"#utility.yul\":55284:55290   */\n      0x00\n        /* \"#utility.yul\":55335:55337   */\n      0x1f\n        /* \"#utility.yul\":55331:55338   */\n      not\n        /* \"#utility.yul\":55326:55328   */\n      0x1f\n        /* \"#utility.yul\":55319:55324   */\n      dup4\n        /* \"#utility.yul\":55315:55329   */\n      add\n        /* \"#utility.yul\":55311:55339   */\n      and\n        /* \"#utility.yul\":55301:55339   */\n      swap1\n      pop\n        /* \"#utility.yul\":55291:55345   */\n      swap2\n      swap1\n      pop\n      jump\t// out\n        /* \"#utility.yul\":55351:55447   */\n    tag_765:\n        /* \"#utility.yul\":55385:55393   */\n      0x00\n        /* \"#utility.yul\":55434:55439   */\n      dup2\n        /* \"#utility.yul\":55429:55432   */\n      0xe0\n        /* \"#utility.yul\":55425:55440   */\n      shl\n        /* \"#utility.yul\":55404:55440   */\n      swap1\n      pop\n        /* \"#utility.yul\":55394:55447   */\n      swap2\n      swap1\n      pop\n      jump\t// out\n        /* \"#utility.yul\":55453:55549   */\n    tag_758:\n        /* \"#utility.yul\":55487:55495   */\n      0x00\n        /* \"#utility.yul\":55536:55541   */\n      dup2\n        /* \"#utility.yul\":55531:55534   */\n      0xf0\n        /* \"#utility.yul\":55527:55542   */\n      shl\n        /* \"#utility.yul\":55506:55542   */\n      swap1\n      pop\n        /* \"#utility.yul\":55496:55549   */\n      swap2\n      swap1\n      pop\n      jump\t// out\n        /* \"#utility.yul\":55555:55649   */\n    tag_761:\n        /* \"#utility.yul\":55588:55596   */\n      0x00\n        /* \"#utility.yul\":55636:55641   */\n      dup2\n        /* \"#utility.yul\":55632:55634   */\n      0x60\n        /* \"#utility.yul\":55628:55642   */\n      shl\n        /* \"#utility.yul\":55607:55642   */\n      swap1\n      pop\n        /* \"#utility.yul\":55597:55649   */\n      swap2\n      swap1\n      pop\n      jump\t// out\n        /* \"#utility.yul\":55655:55877   */\n    tag_553:\n        /* \"#utility.yul\":55795:55829   */\n      0x52656e65676f74696174696f6e205369676e6174757265206861732065787069\n        /* \"#utility.yul\":55791:55792   */\n      0x00\n        /* \"#utility.yul\":55783:55789   */\n      dup3\n        /* \"#utility.yul\":55779:55793   */\n      add\n        /* \"#utility.yul\":55772:55830   */\n      mstore\n        /* \"#utility.yul\":55864:55869   */\n      0x7265640000000000000000000000000000000000000000000000000000000000\n        /* \"#utility.yul\":55859:55861   */\n      0x20\n        /* \"#utility.yul\":55851:55857   */\n      dup3\n        /* \"#utility.yul\":55847:55862   */\n      add\n        /* \"#utility.yul\":55840:55870   */\n      mstore\n        /* \"#utility.yul\":55761:55877   */\n      pop\n      jump\t// out\n        /* \"#utility.yul\":55883:56063   */\n    tag_558:\n        /* \"#utility.yul\":56023:56055   */\n      0x426f72726f776572205369676e61747572652068617320657870697265640000\n        /* \"#utility.yul\":56019:56020   */\n      0x00\n        /* \"#utility.yul\":56011:56017   */\n      dup3\n        /* \"#utility.yul\":56007:56021   */\n      add\n        /* \"#utility.yul\":56000:56056   */\n      mstore\n        /* \"#utility.yul\":55989:56063   */\n      pop\n      jump\t// out\n        /* \"#utility.yul\":56069:56283   */\n    tag_564:\n        /* \"#utility.yul\":56209:56275   */\n      0x19457468657265756d205369676e6564204d6573736167653a0a333200000000\n        /* \"#utility.yul\":56205:56206   */\n      0x00\n        /* \"#utility.yul\":56197:56203   */\n      dup3\n        /* \"#utility.yul\":56193:56207   */\n      add\n        /* \"#utility.yul\":56186:56276   */\n      mstore\n        /* \"#utility.yul\":56175:56283   */\n      pop\n      jump\t// out\n        /* \"#utility.yul\":56289:56467   */\n    tag_569:\n        /* \"#utility.yul\":56429:56459   */\n      0x4c656e646572205369676e617475726520686173206578706972656400000000\n        /* \"#utility.yul\":56425:56426   */\n      0x00\n        /* \"#utility.yul\":56417:56423   */\n      dup3\n        /* \"#utility.yul\":56413:56427   */\n      add\n        /* \"#utility.yul\":56406:56460   */\n      mstore\n        /* \"#utility.yul\":56395:56467   */\n      pop\n      jump\t// out\n        /* \"#utility.yul\":56473:56643   */\n    tag_574:\n        /* \"#utility.yul\":56613:56635   */\n      0x4c6f616e206973207a65726f2061646472657373000000000000000000000000\n        /* \"#utility.yul\":56609:56610   */\n      0x00\n        /* \"#utility.yul\":56601:56607   */\n      dup3\n        /* \"#utility.yul\":56597:56611   */\n      add\n        /* \"#utility.yul\":56590:56636   */\n      mstore\n        /* \"#utility.yul\":56579:56643   */\n      pop\n      jump\t// out\n        /* \"#utility.yul\":56649:56771   */\n    tag_259:\n        /* \"#utility.yul\":56722:56746   */\n      tag_777\n        /* \"#utility.yul\":56740:56745   */\n      dup2\n        /* \"#utility.yul\":56722:56746   */\n      tag_454\n      jump\t// in\n    tag_777:\n        /* \"#utility.yul\":56715:56720   */\n      dup2\n        /* \"#utility.yul\":56712:56747   */\n      eq\n        /* \"#utility.yul\":56702:56704   */\n      tag_778\n      jumpi\n        /* \"#utility.yul\":56761:56762   */\n      0x00\n        /* \"#utility.yul\":56758:56759   */\n      dup1\n        /* \"#utility.yul\":56751:56763   */\n      revert\n        /* \"#utility.yul\":56702:56704   */\n    tag_778:\n        /* \"#utility.yul\":56692:56771   */\n      pop\n      jump\t// out\n        /* \"#utility.yul\":56777:56893   */\n    tag_279:\n        /* \"#utility.yul\":56847:56868   */\n      tag_780\n        /* \"#utility.yul\":56862:56867   */\n      dup2\n        /* \"#utility.yul\":56847:56868   */\n      tag_519\n      jump\t// in\n    tag_780:\n        /* \"#utility.yul\":56840:56845   */\n      dup2\n        /* \"#utility.yul\":56837:56869   */\n      eq\n        /* \"#utility.yul\":56827:56829   */\n      tag_781\n      jumpi\n        /* \"#utility.yul\":56883:56884   */\n      0x00\n        /* \"#utility.yul\":56880:56881   */\n      dup1\n        /* \"#utility.yul\":56873:56885   */\n      revert\n        /* \"#utility.yul\":56827:56829   */\n    tag_781:\n        /* \"#utility.yul\":56817:56893   */\n      pop\n      jump\t// out\n        /* \"#utility.yul\":56899:57021   */\n    tag_283:\n        /* \"#utility.yul\":56972:56996   */\n      tag_783\n        /* \"#utility.yul\":56990:56995   */\n      dup2\n        /* \"#utility.yul\":56972:56996   */\n      tag_526\n      jump\t// in\n    tag_783:\n        /* \"#utility.yul\":56965:56970   */\n      dup2\n        /* \"#utility.yul\":56962:56997   */\n      eq\n        /* \"#utility.yul\":56952:56954   */\n      tag_784\n      jumpi\n        /* \"#utility.yul\":57011:57012   */\n      0x00\n        /* \"#utility.yul\":57008:57009   */\n      dup1\n        /* \"#utility.yul\":57001:57013   */\n      revert\n        /* \"#utility.yul\":56952:56954   */\n    tag_784:\n        /* \"#utility.yul\":56942:57021   */\n      pop\n      jump\t// out\n        /* \"#utility.yul\":57027:57147   */\n    tag_356:\n        /* \"#utility.yul\":57099:57122   */\n      tag_786\n        /* \"#utility.yul\":57116:57121   */\n      dup2\n        /* \"#utility.yul\":57099:57122   */\n      tag_595\n      jump\t// in\n    tag_786:\n        /* \"#utility.yul\":57092:57097   */\n      dup2\n        /* \"#utility.yul\":57089:57123   */\n      eq\n        /* \"#utility.yul\":57079:57081   */\n      tag_787\n      jumpi\n        /* \"#utility.yul\":57137:57138   */\n      0x00\n        /* \"#utility.yul\":57134:57135   */\n      dup1\n        /* \"#utility.yul\":57127:57139   */\n      revert\n        /* \"#utility.yul\":57079:57081   */\n    tag_787:\n        /* \"#utility.yul\":57069:57147   */\n      pop\n      jump\t// out\n        /* \"#utility.yul\":57153:57275   */\n    tag_359:\n        /* \"#utility.yul\":57226:57250   */\n      tag_789\n        /* \"#utility.yul\":57244:57249   */\n      dup2\n        /* \"#utility.yul\":57226:57250   */\n      tag_599\n      jump\t// in\n    tag_789:\n        /* \"#utility.yul\":57219:57224   */\n      dup2\n        /* \"#utility.yul\":57216:57251   */\n      eq\n        /* \"#utility.yul\":57206:57208   */\n      tag_790\n      jumpi\n        /* \"#utility.yul\":57265:57266   */\n      0x00\n        /* \"#utility.yul\":57262:57263   */\n      dup1\n        /* \"#utility.yul\":57255:57267   */\n      revert\n        /* \"#utility.yul\":57206:57208   */\n    tag_790:\n        /* \"#utility.yul\":57196:57275   */\n      pop\n      jump\t// out\n        /* \"#utility.yul\":57281:57401   */\n    tag_362:\n        /* \"#utility.yul\":57353:57376   */\n      tag_792\n        /* \"#utility.yul\":57370:57375   */\n      dup2\n        /* \"#utility.yul\":57353:57376   */\n      tag_612\n      jump\t// in\n    tag_792:\n        /* \"#utility.yul\":57346:57351   */\n      dup2\n        /* \"#utility.yul\":57343:57377   */\n      eq\n        /* \"#utility.yul\":57333:57335   */\n      tag_793\n      jumpi\n        /* \"#utility.yul\":57391:57392   */\n      0x00\n        /* \"#utility.yul\":57388:57389   */\n      dup1\n        /* \"#utility.yul\":57381:57393   */\n      revert\n        /* \"#utility.yul\":57333:57335   */\n    tag_793:\n        /* \"#utility.yul\":57323:57401   */\n      pop\n      jump\t// out\n\n    auxdata: 0xa264697066735822122000e6030161e0730609dfcebc37fb4bf745cb494cff8c8337c4c5e502903a28be64736f6c63430008040033\n}\n",
				"bytecode": {
					"linkReferences": {},
					"object": "612a3b610053600b82828239805160001a607314610046577f4e487b7100000000000000000000000000000000000000000000000000000000600052600060045260246000fd5b30600052607381538281f3fe73000000000000000000000000000000000000000030146080604052600436106100b35760003560e01c806387c0a5731161007b57806387c0a57314610196578063a819956e146101c6578063c4212921146101f6578063d06ff74114610226578063eb2ac63f14610256578063fb7a322a14610286576100b3565b80632eb68793146100b85780633ce5ed9f146100e85780634051a17a14610118578063564b81ef146101485780636ab81ec014610166575b600080fd5b6100d260048036038101906100cd919061169d565b6102b6565b6040516100df919061235b565b60405180910390f35b61010260048036038101906100fd919061171f565b6102cd565b60405161010f919061235b565b60405180910390f35b610132600480360381019061012d91906117b6565b610458565b60405161013f919061235b565b60405180910390f35b61015061046d565b60405161015d919061248d565b60405180910390f35b610180600480360381019061017b91906119e5565b61047a565b60405161018d919061235b565b60405180910390f35b6101b060048036038101906101ab9190611ade565b6105e3565b6040516101bd919061235b565b60405180910390f35b6101e060048036038101906101db91906118f8565b61074d565b6040516101ed919061235b565b60405180910390f35b610210600480360381019061020b919061180c565b6108d8565b60405161021d919061235b565b60405180910390f35b610240600480360381019061023b9190611a4f565b610a41565b60405161024d919061235b565b60405180910390f35b610270600480360381019061026b919061198f565b610a5c565b60405161027d919061235b565b60405180910390f35b6102a0600480360381019061029b9190611876565b610a71565b6040516102ad919061235b565b60405180910390f35b60006102c4848484306102cd565b90509392505050565b60008260200151421115610316576040517f08c379a000000000000000000000000000000000000000000000000000000000815260040161030d9061240b565b60405180910390fd5b600073ffffffffffffffffffffffffffffffffffffffff168273ffffffffffffffffffffffffffffffffffffffff161415610386576040517f08c379a000000000000000000000000000000000000000000000000000000000815260040161037d9061244b565b60405180910390fd5b600073ffffffffffffffffffffffffffffffffffffffff16836040015173ffffffffffffffffffffffffffffffffffffffff1614156103c85760009050610450565b60006103d386610a88565b856040516020016103e4919061246b565b6040516020818303038152906040526103fc86610aed565b8561040561046d565b604051602001610419959493929190612265565b60405160208183030381529060405280519060200120905061044c846040015161044283610b26565b8660600151610b56565b9150505b949350505050565b60006104658383306108d8565b905092915050565b6000804690508091505090565b600082602001514211156104c3576040517f08c379a00000000000000000000000000000000000000000000000000000000081526004016104ba9061242b565b60405180910390fd5b600073ffffffffffffffffffffffffffffffffffffffff168273ffffffffffffffffffffffffffffffffffffffff161415610533576040517f08c379a000000000000000000000000000000000000000000000000000000000815260040161052a9061244b565b60405180910390fd5b600073ffffffffffffffffffffffffffffffffffffffff16836040015173ffffffffffffffffffffffffffffffffffffffff16141561057557600090506105dc565b600061058085610d68565b61058985610aed565b8461059261046d565b6040516020016105a5949392919061221f565b6040516020818303038152906040528051906020012090506105d884604001516105ce83610b26565b8660600151610b56565b9150505b9392505050565b6000826020015142111561062c576040517f08c379a0000000000000000000000000000000000000000000000000000000008152600401610623906123eb565b60405180910390fd5b600073ffffffffffffffffffffffffffffffffffffffff168273ffffffffffffffffffffffffffffffffffffffff16141561069c576040517f08c379a00000000000000000000000000000000000000000000000000000000081526004016106939061244b565b60405180910390fd5b600073ffffffffffffffffffffffffffffffffffffffff16836040015173ffffffffffffffffffffffffffffffffffffffff1614156106de5760009050610743565b6000878787876106ed88610aed565b876106f661046d565b60405160200161070c97969594939291906122de565b60405160208183030381529060405280519060200120905061073f846040015161073583610b26565b8660600151610b56565b9150505b9695505050505050565b60008260200151421115610796576040517f08c379a000000000000000000000000000000000000000000000000000000000815260040161078d9061242b565b60405180910390fd5b600073ffffffffffffffffffffffffffffffffffffffff168273ffffffffffffffffffffffffffffffffffffffff161415610806576040517f08c379a00000000000000000000000000000000000000000000000000000000081526004016107fd9061244b565b60405180910390fd5b600073ffffffffffffffffffffffffffffffffffffffff16836040015173ffffffffffffffffffffffffffffffffffffffff16141561084857600090506108d0565b600061085386610d68565b85604051602001610864919061246b565b60405160208183030381529060405261087c86610aed565b8561088561046d565b604051602001610899959493929190612265565b6040516020818303038152906040528051906020012090506108cc84604001516108c283610b26565b8660600151610b56565b9150505b949350505050565b60008260200151421115610921576040517f08c379a00000000000000000000000000000000000000000000000000000000081526004016109189061240b565b60405180910390fd5b600073ffffffffffffffffffffffffffffffffffffffff168273ffffffffffffffffffffffffffffffffffffffff161415610991576040517f08c379a00000000000000000000000000000000000000000000000000000000081526004016109889061244b565b60405180910390fd5b600073ffffffffffffffffffffffffffffffffffffffff16836040015173ffffffffffffffffffffffffffffffffffffffff1614156109d35760009050610a3a565b60006109de85610a88565b6109e785610aed565b846109f061046d565b604051602001610a03949392919061221f565b604051602081830303815290604052805190602001209050610a368460400151610a2c83610b26565b8660600151610b56565b9150505b9392505050565b6000610a518686868686306105e3565b905095945050505050565b6000610a6983833061047a565b905092915050565b6000610a7f8484843061074d565b90509392505050565b6060816101200151826000015183602001518460600151856040015186610100015187608001518860a001518960c001518a60e00151604051602001610ad79a99989796959493929190612154565b6040516020818303038152906040529050919050565b6060816040015182600001518360200151604051602001610b1093929190612085565b6040516020818303038152906040529050919050565b600081604051602001610b3991906122b8565b604051602081830303815290604052805190602001209050919050565b6000806000610b658585610dbf565b9150915060006004811115610ba3577f4e487b7100000000000000000000000000000000000000000000000000000000600052602160045260246000fd5b816004811115610bdc577f4e487b7100000000000000000000000000000000000000000000000000000000600052602160045260246000fd5b148015610c1457508573ffffffffffffffffffffffffffffffffffffffff168273ffffffffffffffffffffffffffffffffffffffff16145b15610c2457600192505050610d61565b6000808773ffffffffffffffffffffffffffffffffffffffff16631626ba7e60e01b8888604051602401610c59929190612376565b604051602081830303815290604052907bffffffffffffffffffffffffffffffffffffffffffffffffffffffff19166020820180517bffffffffffffffffffffffffffffffffffffffffffffffffffffffff8381831617835250505050604051610cc39190612208565b600060405180830381855afa9150503d8060008114610cfe576040519150601f19603f3d011682016040523d82523d6000602084013e610d03565b606091505b5091509150818015610d16575060208151145b8015610d5a5750631626ba7e60e01b7bffffffffffffffffffffffffffffffffffffffffffffffffffffffff191681806020019051810190610d589190611674565b145b9450505050505b9392505050565b60608160c0015182600001518360200151846060015185604001518660e0015187608001518860a00151604051602001610da99897969594939291906120c2565b6040516020818303038152906040529050919050565b600080604183511415610e015760008060006020860151925060408601519150606086015160001a9050610df587828585610e11565b94509450505050610e0a565b60006002915091505b9250929050565b6000807f7fffffffffffffffffffffffffffffff5d576e7357a4501ddfe92f46681b20a08360001c1115610e4c576000600391509150610eeb565b600060018787878760405160008152602001604052604051610e7194939291906123a6565b6020604051602081039080840390855afa158015610e93573d6000803e3d6000fd5b505050602060405103519050600073ffffffffffffffffffffffffffffffffffffffff168173ffffffffffffffffffffffffffffffffffffffff161415610ee257600060019250925050610eeb565b80600092509250505b94509492505050565b6000610f07610f02846124cd565b6124a8565b90508083825260208201905082856020860282011115610f2657600080fd5b60005b85811015610f7057813567ffffffffffffffff811115610f4857600080fd5b808601610f55898261120d565b85526020850194506020840193505050600181019050610f29565b5050509392505050565b6000610f8d610f88846124f9565b6124a8565b90508083825260208201905082856040860282011115610fac57600080fd5b60005b85811015610fdc5781610fc2888261129d565b845260208401935060408301925050600181019050610faf565b5050509392505050565b6000610ff9610ff484612525565b6124a8565b9050808382526020820190508285606086028201111561101857600080fd5b60005b85811015611048578161102e88826112e9565b84526020840193506060830192505060018101905061101b565b5050509392505050565b600061106561106084612551565b6124a8565b9050808382526020820190508285602086028201111561108457600080fd5b60005b858110156110b4578161109a888261164a565b845260208401935060208301925050600181019050611087565b5050509392505050565b60006110d16110cc8461257d565b6124a8565b9050828152602081018484840111156110e957600080fd5b6110f4848285612752565b509392505050565b60008135905061110b8161297b565b92915050565b600082601f83011261112257600080fd5b8135611132848260208601610ef4565b91505092915050565b600082601f83011261114c57600080fd5b813561115c848260208601610f7a565b91505092915050565b600082601f83011261117657600080fd5b8135611186848260208601610fe6565b91505092915050565b600082601f8301126111a057600080fd5b81356111b0848260208601611052565b91505092915050565b6000813590506111c881612992565b92915050565b6000815190506111dd816129a9565b92915050565b600082601f8301126111f457600080fd5b81356112048482602086016110be565b91505092915050565b60006060828403121561121f57600080fd5b61122960606124a8565b90506000611239848285016110fc565b600083015250602082013567ffffffffffffffff81111561125957600080fd5b6112658482850161118f565b602083015250604082013567ffffffffffffffff81111561128557600080fd5b6112918482850161118f565b60408301525092915050565b6000604082840312156112af57600080fd5b6112b960406124a8565b905060006112c9848285016110fc565b60008301525060206112dd8482850161164a565b60208301525092915050565b6000606082840312156112fb57600080fd5b61130560606124a8565b90506000611315848285016110fc565b60008301525060206113298482850161164a565b602083015250604061133d848285016111b9565b60408301525092915050565b60006060828403121561135b57600080fd5b61136560606124a8565b9050600082013567ffffffffffffffff81111561138157600080fd5b61138d84828501611165565b600083015250602082013567ffffffffffffffff8111156113ad57600080fd5b6113b98482850161113b565b602083015250604082013567ffffffffffffffff8111156113d957600080fd5b6113e584828501611111565b60408301525092915050565b6000610140828403121561140457600080fd5b61140f6101406124a8565b9050600061141f8482850161164a565b60008301525060206114338482850161164a565b60208301525060406114478482850161164a565b604083015250606061145b848285016110fc565b606083015250608061146f8482850161165f565b60808301525060a06114838482850161165f565b60a08301525060c061149784828501611635565b60c08301525060e06114ab84828501611635565b60e0830152506101006114c0848285016110fc565b610100830152506101206114d6848285016110fc565b6101208301525092915050565b600061010082840312156114f657600080fd5b6115016101006124a8565b905060006115118482850161164a565b60008301525060206115258482850161164a565b60208301525060406115398482850161164a565b604083015250606061154d848285016110fc565b60608301525060806115618482850161165f565b60808301525060a061157584828501611635565b60a08301525060c0611589848285016110fc565b60c08301525060e061159d848285016110fc565b60e08301525092915050565b6000608082840312156115bb57600080fd5b6115c560806124a8565b905060006115d58482850161164a565b60008301525060206115e98482850161164a565b60208301525060406115fd848285016110fc565b604083015250606082013567ffffffffffffffff81111561161d57600080fd5b611629848285016111e3565b60608301525092915050565b600081359050611644816129c0565b92915050565b600081359050611659816129d7565b92915050565b60008135905061166e816129ee565b92915050565b60006020828403121561168657600080fd5b6000611694848285016111ce565b91505092915050565b600080600061018084860312156116b357600080fd5b60006116c1868287016113f1565b93505061014084013567ffffffffffffffff8111156116df57600080fd5b6116eb86828701611349565b92505061016084013567ffffffffffffffff81111561170957600080fd5b611715868287016115a9565b9150509250925092565b6000806000806101a0858703121561173657600080fd5b6000611744878288016113f1565b94505061014085013567ffffffffffffffff81111561176257600080fd5b61176e87828801611349565b93505061016085013567ffffffffffffffff81111561178c57600080fd5b611798878288016115a9565b9250506101806117aa878288016110fc565b91505092959194509250565b60008061016083850312156117ca57600080fd5b60006117d8858286016113f1565b92505061014083013567ffffffffffffffff8111156117f657600080fd5b611802858286016115a9565b9150509250929050565b6000806000610180848603121561182257600080fd5b6000611830868287016113f1565b93505061014084013567ffffffffffffffff81111561184e57600080fd5b61185a868287016115a9565b92505061016061186c868287016110fc565b9150509250925092565b6000806000610140848603121561188c57600080fd5b600061189a868287016114e3565b93505061010084013567ffffffffffffffff8111156118b857600080fd5b6118c486828701611349565b92505061012084013567ffffffffffffffff8111156118e257600080fd5b6118ee868287016115a9565b9150509250925092565b600080600080610160858703121561190f57600080fd5b600061191d878288016114e3565b94505061010085013567ffffffffffffffff81111561193b57600080fd5b61194787828801611349565b93505061012085013567ffffffffffffffff81111561196557600080fd5b611971878288016115a9565b925050610140611983878288016110fc565b91505092959194509250565b60008061012083850312156119a357600080fd5b60006119b1858286016114e3565b92505061010083013567ffffffffffffffff8111156119cf57600080fd5b6119db858286016115a9565b9150509250929050565b600080600061014084860312156119fb57600080fd5b6000611a09868287016114e3565b93505061010084013567ffffffffffffffff811115611a2757600080fd5b611a33868287016115a9565b925050610120611a45868287016110fc565b9150509250925092565b600080600080600060a08688031215611a6757600080fd5b6000611a758882890161164a565b9550506020611a868882890161165f565b9450506040611a978882890161164a565b9350506060611aa88882890161164a565b925050608086013567ffffffffffffffff811115611ac557600080fd5b611ad1888289016115a9565b9150509295509295909350565b60008060008060008060c08789031215611af757600080fd5b6000611b0589828a0161164a565b9650506020611b1689828a0161165f565b9550506040611b2789828a0161164a565b9450506060611b3889828a0161164a565b935050608087013567ffffffffffffffff811115611b5557600080fd5b611b6189828a016115a9565b92505060a0611b7289828a016110fc565b9150509295509295509295565b6000611b8b8383611eed565b905092915050565b6000611b9f8383611f44565b60408301905092915050565b6000611bb78383611f73565b60608301905092915050565b6000611bcf838361202a565b60208301905092915050565b611be4816126d5565b82525050565b611bfb611bf6826126d5565b6127c5565b82525050565b6000611c0c826125ee565b611c168185612659565b935083602082028501611c28856125ae565b8060005b85811015611c645784840389528151611c458582611b7f565b9450611c5083612625565b925060208a01995050600181019050611c2c565b50829750879550505050505092915050565b6000611c81826125f9565b611c8b818561266a565b9350611c96836125be565b8060005b83811015611cc7578151611cae8882611b93565b9750611cb983612632565b925050600181019050611c9a565b5085935050505092915050565b6000611cdf82612604565b611ce9818561267b565b9350611cf4836125ce565b8060005b83811015611d25578151611d0c8882611bab565b9750611d178361263f565b925050600181019050611cf8565b5085935050505092915050565b6000611d3d8261260f565b611d47818561268c565b9350611d52836125de565b8060005b83811015611d83578151611d6a8882611bc3565b9750611d758361264c565b925050600181019050611d56565b5085935050505092915050565b611d99816126e7565b82525050565b611da8816126e7565b82525050565b611db7816126f3565b82525050565b611dce611dc9826126f3565b6127d7565b82525050565b6000611ddf8261261a565b611de9818561269d565b9350611df9818560208601612761565b611e0281612850565b840191505092915050565b6000611e188261261a565b611e2281856126ae565b9350611e32818560208601612761565b80840191505092915050565b6000611e4b6023836126b9565b9150611e5682612888565b604082019050919050565b6000611e6e601e836126b9565b9150611e79826128d7565b602082019050919050565b6000611e91601c836126ca565b9150611e9c82612900565b601c82019050919050565b6000611eb4601c836126b9565b9150611ebf82612929565b602082019050919050565b6000611ed76014836126b9565b9150611ee282612952565b602082019050919050565b6000606083016000830151611f056000860182611bdb565b5060208301518482036020860152611f1d8282611d32565b91505060408301518482036040860152611f378282611d32565b9150508091505092915050565b604082016000820151611f5a6000850182611bdb565b506020820151611f6d602085018261202a565b50505050565b606082016000820151611f896000850182611bdb565b506020820151611f9c602085018261202a565b506040820151611faf6040850182611d90565b50505050565b60006060830160008301518482036000860152611fd28282611cd4565b91505060208301518482036020860152611fec8282611c76565b915050604083015184820360408601526120068282611c01565b9150508091505092915050565b61202461201f826126fd565b6127e1565b82525050565b6120338161272b565b82525050565b6120428161272b565b82525050565b6120596120548261272b565b612805565b82525050565b61207061206b82612735565b61280f565b82525050565b61207f81612745565b82525050565b60006120918286611bea565b6014820191506120a18285612048565b6020820191506120b18284612048565b602082019150819050949350505050565b60006120ce828b611bea565b6014820191506120de828a612048565b6020820191506120ee8289612048565b6020820191506120fe8288611bea565b60148201915061210e8287612048565b60208201915061211e8286611bea565b60148201915061212e828561205f565b60048201915061213e8284612013565b6002820191508190509998505050505050505050565b6000612160828d611bea565b601482019150612170828c612048565b602082019150612180828b612048565b602082019150612190828a611bea565b6014820191506121a08289612048565b6020820191506121b08288611bea565b6014820191506121c0828761205f565b6004820191506121d0828661205f565b6004820191506121e08285612013565b6002820191506121f08284612013565b6002820191508190509b9a5050505050505050505050565b60006122148284611e0d565b915081905092915050565b600061222b8287611e0d565b91506122378286611e0d565b91506122438285611bea565b6014820191506122538284612048565b60208201915081905095945050505050565b60006122718288611e0d565b915061227d8287611e0d565b91506122898286611e0d565b91506122958285611bea565b6014820191506122a58284612048565b6020820191508190509695505050505050565b60006122c382611e84565b91506122cf8284611dbd565b60208201915081905092915050565b60006122ea828a612048565b6020820191506122fa828961205f565b60048201915061230a8288612048565b60208201915061231a8287612048565b60208201915061232a8286611e0d565b91506123368285611bea565b6014820191506123468284612048565b60208201915081905098975050505050505050565b60006020820190506123706000830184611d9f565b92915050565b600060408201905061238b6000830185611dae565b818103602083015261239d8184611dd4565b90509392505050565b60006080820190506123bb6000830187611dae565b6123c86020830186612076565b6123d56040830185611dae565b6123e26060830184611dae565b95945050505050565b6000602082019050818103600083015261240481611e3e565b9050919050565b6000602082019050818103600083015261242481611e61565b9050919050565b6000602082019050818103600083015261244481611ea7565b9050919050565b6000602082019050818103600083015261246481611eca565b9050919050565b600060208201905081810360008301526124858184611fb5565b905092915050565b60006020820190506124a26000830184612039565b92915050565b60006124b26124c3565b90506124be8282612794565b919050565b6000604051905090565b600067ffffffffffffffff8211156124e8576124e7612821565b5b602082029050602081019050919050565b600067ffffffffffffffff82111561251457612513612821565b5b602082029050602081019050919050565b600067ffffffffffffffff8211156125405761253f612821565b5b602082029050602081019050919050565b600067ffffffffffffffff82111561256c5761256b612821565b5b602082029050602081019050919050565b600067ffffffffffffffff82111561259857612597612821565b5b6125a182612850565b9050602081019050919050565b6000819050602082019050919050565b6000819050602082019050919050565b6000819050602082019050919050565b6000819050602082019050919050565b600081519050919050565b600081519050919050565b600081519050919050565b600081519050919050565b600081519050919050565b6000602082019050919050565b6000602082019050919050565b6000602082019050919050565b6000602082019050919050565b600082825260208201905092915050565b600082825260208201905092915050565b600082825260208201905092915050565b600082825260208201905092915050565b600082825260208201905092915050565b600081905092915050565b600082825260208201905092915050565b600081905092915050565b60006126e08261270b565b9050919050565b60008115159050919050565b6000819050919050565b600061ffff82169050919050565b600073ffffffffffffffffffffffffffffffffffffffff82169050919050565b6000819050919050565b600063ffffffff82169050919050565b600060ff82169050919050565b82818337600083830152505050565b60005b8381101561277f578082015181840152602081019050612764565b8381111561278e576000848401525b50505050565b61279d82612850565b810181811067ffffffffffffffff821117156127bc576127bb612821565b5b80604052505050565b60006127d0826127f3565b9050919050565b6000819050919050565b60006127ec8261286e565b9050919050565b60006127fe8261287b565b9050919050565b6000819050919050565b600061281a82612861565b9050919050565b7f4e487b7100000000000000000000000000000000000000000000000000000000600052604160045260246000fd5b6000601f19601f8301169050919050565b60008160e01b9050919050565b60008160f01b9050919050565b60008160601b9050919050565b7f52656e65676f74696174696f6e205369676e617475726520686173206578706960008201527f7265640000000000000000000000000000000000000000000000000000000000602082015250565b7f426f72726f776572205369676e61747572652068617320657870697265640000600082015250565b7f19457468657265756d205369676e6564204d6573736167653a0a333200000000600082015250565b7f4c656e646572205369676e617475726520686173206578706972656400000000600082015250565b7f4c6f616e206973207a65726f2061646472657373000000000000000000000000600082015250565b612984816126d5565b811461298f57600080fd5b50565b61299b816126e7565b81146129a657600080fd5b50565b6129b2816126f3565b81146129bd57600080fd5b50565b6129c9816126fd565b81146129d457600080fd5b50565b6129e08161272b565b81146129eb57600080fd5b50565b6129f781612735565b8114612a0257600080fd5b5056fea264697066735822122000e6030161e0730609dfcebc37fb4bf745cb494cff8c8337c4c5e502903a28be64736f6c63430008040033",
					"opcodes": "PUSH2 0x2A3B PUSH2 0x53 PUSH1 0xB DUP3 DUP3 DUP3 CODECOPY DUP1 MLOAD PUSH1 0x0 BYTE PUSH1 0x73 EQ PUSH2 0x46 JUMPI PUSH32 0x4E487B7100000000000000000000000000000000000000000000000000000000 PUSH1 0x0 MSTORE PUSH1 0x0 PUSH1 0x4 MSTORE PUSH1 0x24 PUSH1 0x0 REVERT JUMPDEST ADDRESS PUSH1 0x0 MSTORE PUSH1 0x73 DUP2 MSTORE8 DUP3 DUP2 RETURN INVALID PUSH20 0x0 ADDRESS EQ PUSH1 0x80 PUSH1 0x40 MSTORE PUSH1 0x4 CALLDATASIZE LT PUSH2 0xB3 JUMPI PUSH1 0x0 CALLDATALOAD PUSH1 0xE0 SHR DUP1 PUSH4 0x87C0A573 GT PUSH2 0x7B JUMPI DUP1 PUSH4 0x87C0A573 EQ PUSH2 0x196 JUMPI DUP1 PUSH4 0xA819956E EQ PUSH2 0x1C6 JUMPI DUP1 PUSH4 0xC4212921 EQ PUSH2 0x1F6 JUMPI DUP1 PUSH4 0xD06FF741 EQ PUSH2 0x226 JUMPI DUP1 PUSH4 0xEB2AC63F EQ PUSH2 0x256 JUMPI DUP1 PUSH4 0xFB7A322A EQ PUSH2 0x286 JUMPI PUSH2 0xB3 JUMP JUMPDEST DUP1 PUSH4 0x2EB68793 EQ PUSH2 0xB8 JUMPI DUP1 PUSH4 0x3CE5ED9F EQ PUSH2 0xE8 JUMPI DUP1 PUSH4 0x4051A17A EQ PUSH2 0x118 JUMPI DUP1 PUSH4 0x564B81EF EQ PUSH2 0x148 JUMPI DUP1 PUSH4 0x6AB81EC0 EQ PUSH2 0x166 JUMPI JUMPDEST PUSH1 0x0 DUP1 REVERT JUMPDEST PUSH2 0xD2 PUSH1 0x4 DUP1 CALLDATASIZE SUB DUP2 ADD SWAP1 PUSH2 0xCD SWAP2 SWAP1 PUSH2 0x169D JUMP JUMPDEST PUSH2 0x2B6 JUMP JUMPDEST PUSH1 0x40 MLOAD PUSH2 0xDF SWAP2 SWAP1 PUSH2 0x235B JUMP JUMPDEST PUSH1 0x40 MLOAD DUP1 SWAP2 SUB SWAP1 RETURN JUMPDEST PUSH2 0x102 PUSH1 0x4 DUP1 CALLDATASIZE SUB DUP2 ADD SWAP1 PUSH2 0xFD SWAP2 SWAP1 PUSH2 0x171F JUMP JUMPDEST PUSH2 0x2CD JUMP JUMPDEST PUSH1 0x40 MLOAD PUSH2 0x10F SWAP2 SWAP1 PUSH2 0x235B JUMP JUMPDEST PUSH1 0x40 MLOAD DUP1 SWAP2 SUB SWAP1 RETURN JUMPDEST PUSH2 0x132 PUSH1 0x4 DUP1 CALLDATASIZE SUB DUP2 ADD SWAP1 PUSH2 0x12D SWAP2 SWAP1 PUSH2 0x17B6 JUMP JUMPDEST PUSH2 0x458 JUMP JUMPDEST PUSH1 0x40 MLOAD PUSH2 0x13F SWAP2 SWAP1 PUSH2 0x235B JUMP JUMPDEST PUSH1 0x40 MLOAD DUP1 SWAP2 SUB SWAP1 RETURN JUMPDEST PUSH2 0x150 PUSH2 0x46D JUMP JUMPDEST PUSH1 0x40 MLOAD PUSH2 0x15D SWAP2 SWAP1 PUSH2 0x248D JUMP JUMPDEST PUSH1 0x40 MLOAD DUP1 SWAP2 SUB SWAP1 RETURN JUMPDEST PUSH2 0x180 PUSH1 0x4 DUP1 CALLDATASIZE SUB DUP2 ADD SWAP1 PUSH2 0x17B SWAP2 SWAP1 PUSH2 0x19E5 JUMP JUMPDEST PUSH2 0x47A JUMP JUMPDEST PUSH1 0x40 MLOAD PUSH2 0x18D SWAP2 SWAP1 PUSH2 0x235B JUMP JUMPDEST PUSH1 0x40 MLOAD DUP1 SWAP2 SUB SWAP1 RETURN JUMPDEST PUSH2 0x1B0 PUSH1 0x4 DUP1 CALLDATASIZE SUB DUP2 ADD SWAP1 PUSH2 0x1AB SWAP2 SWAP1 PUSH2 0x1ADE JUMP JUMPDEST PUSH2 0x5E3 JUMP JUMPDEST PUSH1 0x40 MLOAD PUSH2 0x1BD SWAP2 SWAP1 PUSH2 0x235B JUMP JUMPDEST PUSH1 0x40 MLOAD DUP1 SWAP2 SUB SWAP1 RETURN JUMPDEST PUSH2 0x1E0 PUSH1 0x4 DUP1 CALLDATASIZE SUB DUP2 ADD SWAP1 PUSH2 0x1DB SWAP2 SWAP1 PUSH2 0x18F8 JUMP JUMPDEST PUSH2 0x74D JUMP JUMPDEST PUSH1 0x40 MLOAD PUSH2 0x1ED SWAP2 SWAP1 PUSH2 0x235B JUMP JUMPDEST PUSH1 0x40 MLOAD DUP1 SWAP2 SUB SWAP1 RETURN JUMPDEST PUSH2 0x210 PUSH1 0x4 DUP1 CALLDATASIZE SUB DUP2 ADD SWAP1 PUSH2 0x20B SWAP2 SWAP1 PUSH2 0x180C JUMP JUMPDEST PUSH2 0x8D8 JUMP JUMPDEST PUSH1 0x40 MLOAD PUSH2 0x21D SWAP2 SWAP1 PUSH2 0x235B JUMP JUMPDEST PUSH1 0x40 MLOAD DUP1 SWAP2 SUB SWAP1 RETURN JUMPDEST PUSH2 0x240 PUSH1 0x4 DUP1 CALLDATASIZE SUB DUP2 ADD SWAP1 PUSH2 0x23B SWAP2 SWAP1 PUSH2 0x1A4F JUMP JUMPDEST PUSH2 0xA41 JUMP JUMPDEST PUSH1 0x40 MLOAD PUSH2 0x24D SWAP2 SWAP1 PUSH2 0x235B JUMP JUMPDEST PUSH1 0x40 MLOAD DUP1 SWAP2 SUB SWAP1 RETURN JUMPDEST PUSH2 0x270 PUSH1 0x4 DUP1 CALLDATASIZE SUB DUP2 ADD SWAP1 PUSH2 0x26B SWAP2 SWAP1 PUSH2 0x198F JUMP JUMPDEST PUSH2 0xA5C JUMP JUMPDEST PUSH1 0x40 MLOAD PUSH2 0x27D SWAP2 SWAP1 PUSH2 0x235B JUMP JUMPDEST PUSH1 0x40 MLOAD DUP1 SWAP2 SUB SWAP1 RETURN JUMPDEST PUSH2 0x2A0 PUSH1 0x4 DUP1 CALLDATASIZE SUB DUP2 ADD SWAP1 PUSH2 0x29B SWAP2 SWAP1 PUSH2 0x1876 JUMP JUMPDEST PUSH2 0xA71 JUMP JUMPDEST PUSH1 0x40 MLOAD PUSH2 0x2AD SWAP2 SWAP1 PUSH2 0x235B JUMP JUMPDEST PUSH1 0x40 MLOAD DUP1 SWAP2 SUB SWAP1 RETURN JUMPDEST PUSH1 0x0 PUSH2 0x2C4 DUP5 DUP5 DUP5 ADDRESS PUSH2 0x2CD JUMP JUMPDEST SWAP1 POP SWAP4 SWAP3 POP POP POP JUMP JUMPDEST PUSH1 0x0 DUP3 PUSH1 0x20 ADD MLOAD TIMESTAMP GT ISZERO PUSH2 0x316 JUMPI PUSH1 0x40 MLOAD PUSH32 0x8C379A000000000000000000000000000000000000000000000000000000000 DUP2 MSTORE PUSH1 0x4 ADD PUSH2 0x30D SWAP1 PUSH2 0x240B JUMP JUMPDEST PUSH1 0x40 MLOAD DUP1 SWAP2 SUB SWAP1 REVERT JUMPDEST PUSH1 0x0 PUSH20 0xFFFFFFFFFFFFFFFFFFFFFFFFFFFFFFFFFFFFFFFF AND DUP3 PUSH20 0xFFFFFFFFFFFFFFFFFFFFFFFFFFFFFFFFFFFFFFFF AND EQ ISZERO PUSH2 0x386 JUMPI PUSH1 0x40 MLOAD PUSH32 0x8C379A000000000000000000000000000000000000000000000000000000000 DUP2 MSTORE PUSH1 0x4 ADD PUSH2 0x37D SWAP1 PUSH2 0x244B JUMP JUMPDEST PUSH1 0x40 MLOAD DUP1 SWAP2 SUB SWAP1 REVERT JUMPDEST PUSH1 0x0 PUSH20 0xFFFFFFFFFFFFFFFFFFFFFFFFFFFFFFFFFFFFFFFF AND DUP4 PUSH1 0x40 ADD MLOAD PUSH20 0xFFFFFFFFFFFFFFFFFFFFFFFFFFFFFFFFFFFFFFFF AND EQ ISZERO PUSH2 0x3C8 JUMPI PUSH1 0x0 SWAP1 POP PUSH2 0x450 JUMP JUMPDEST PUSH1 0x0 PUSH2 0x3D3 DUP7 PUSH2 0xA88 JUMP JUMPDEST DUP6 PUSH1 0x40 MLOAD PUSH1 0x20 ADD PUSH2 0x3E4 SWAP2 SWAP1 PUSH2 0x246B JUMP JUMPDEST PUSH1 0x40 MLOAD PUSH1 0x20 DUP2 DUP4 SUB SUB DUP2 MSTORE SWAP1 PUSH1 0x40 MSTORE PUSH2 0x3FC DUP7 PUSH2 0xAED JUMP JUMPDEST DUP6 PUSH2 0x405 PUSH2 0x46D JUMP JUMPDEST PUSH1 0x40 MLOAD PUSH1 0x20 ADD PUSH2 0x419 SWAP6 SWAP5 SWAP4 SWAP3 SWAP2 SWAP1 PUSH2 0x2265 JUMP JUMPDEST PUSH1 0x40 MLOAD PUSH1 0x20 DUP2 DUP4 SUB SUB DUP2 MSTORE SWAP1 PUSH1 0x40 MSTORE DUP1 MLOAD SWAP1 PUSH1 0x20 ADD KECCAK256 SWAP1 POP PUSH2 0x44C DUP5 PUSH1 0x40 ADD MLOAD PUSH2 0x442 DUP4 PUSH2 0xB26 JUMP JUMPDEST DUP7 PUSH1 0x60 ADD MLOAD PUSH2 0xB56 JUMP JUMPDEST SWAP2 POP POP JUMPDEST SWAP5 SWAP4 POP POP POP POP JUMP JUMPDEST PUSH1 0x0 PUSH2 0x465 DUP4 DUP4 ADDRESS PUSH2 0x8D8 JUMP JUMPDEST SWAP1 POP SWAP3 SWAP2 POP POP JUMP JUMPDEST PUSH1 0x0 DUP1 CHAINID SWAP1 POP DUP1 SWAP2 POP POP SWAP1 JUMP JUMPDEST PUSH1 0x0 DUP3 PUSH1 0x20 ADD MLOAD TIMESTAMP GT ISZERO PUSH2 0x4C3 JUMPI PUSH1 0x40 MLOAD PUSH32 0x8C379A000000000000000000000000000000000000000000000000000000000 DUP2 MSTORE PUSH1 0x4 ADD PUSH2 0x4BA SWAP1 PUSH2 0x242B JUMP JUMPDEST PUSH1 0x40 MLOAD DUP1 SWAP2 SUB SWAP1 REVERT JUMPDEST PUSH1 0x0 PUSH20 0xFFFFFFFFFFFFFFFFFFFFFFFFFFFFFFFFFFFFFFFF AND DUP3 PUSH20 0xFFFFFFFFFFFFFFFFFFFFFFFFFFFFFFFFFFFFFFFF AND EQ ISZERO PUSH2 0x533 JUMPI PUSH1 0x40 MLOAD PUSH32 0x8C379A000000000000000000000000000000000000000000000000000000000 DUP2 MSTORE PUSH1 0x4 ADD PUSH2 0x52A SWAP1 PUSH2 0x244B JUMP JUMPDEST PUSH1 0x40 MLOAD DUP1 SWAP2 SUB SWAP1 REVERT JUMPDEST PUSH1 0x0 PUSH20 0xFFFFFFFFFFFFFFFFFFFFFFFFFFFFFFFFFFFFFFFF AND DUP4 PUSH1 0x40 ADD MLOAD PUSH20 0xFFFFFFFFFFFFFFFFFFFFFFFFFFFFFFFFFFFFFFFF AND EQ ISZERO PUSH2 0x575 JUMPI PUSH1 0x0 SWAP1 POP PUSH2 0x5DC JUMP JUMPDEST PUSH1 0x0 PUSH2 0x580 DUP6 PUSH2 0xD68 JUMP JUMPDEST PUSH2 0x589 DUP6 PUSH2 0xAED JUMP JUMPDEST DUP5 PUSH2 0x592 PUSH2 0x46D JUMP JUMPDEST PUSH1 0x40 MLOAD PUSH1 0x20 ADD PUSH2 0x5A5 SWAP5 SWAP4 SWAP3 SWAP2 SWAP1 PUSH2 0x221F JUMP JUMPDEST PUSH1 0x40 MLOAD PUSH1 0x20 DUP2 DUP4 SUB SUB DUP2 MSTORE SWAP1 PUSH1 0x40 MSTORE DUP1 MLOAD SWAP1 PUSH1 0x20 ADD KECCAK256 SWAP1 POP PUSH2 0x5D8 DUP5 PUSH1 0x40 ADD MLOAD PUSH2 0x5CE DUP4 PUSH2 0xB26 JUMP JUMPDEST DUP7 PUSH1 0x60 ADD MLOAD PUSH2 0xB56 JUMP JUMPDEST SWAP2 POP POP JUMPDEST SWAP4 SWAP3 POP POP POP JUMP JUMPDEST PUSH1 0x0 DUP3 PUSH1 0x20 ADD MLOAD TIMESTAMP GT ISZERO PUSH2 0x62C JUMPI PUSH1 0x40 MLOAD PUSH32 0x8C379A000000000000000000000000000000000000000000000000000000000 DUP2 MSTORE PUSH1 0x4 ADD PUSH2 0x623 SWAP1 PUSH2 0x23EB JUMP JUMPDEST PUSH1 0x40 MLOAD DUP1 SWAP2 SUB SWAP1 REVERT JUMPDEST PUSH1 0x0 PUSH20 0xFFFFFFFFFFFFFFFFFFFFFFFFFFFFFFFFFFFFFFFF AND DUP3 PUSH20 0xFFFFFFFFFFFFFFFFFFFFFFFFFFFFFFFFFFFFFFFF AND EQ ISZERO PUSH2 0x69C JUMPI PUSH1 0x40 MLOAD PUSH32 0x8C379A000000000000000000000000000000000000000000000000000000000 DUP2 MSTORE PUSH1 0x4 ADD PUSH2 0x693 SWAP1 PUSH2 0x244B JUMP JUMPDEST PUSH1 0x40 MLOAD DUP1 SWAP2 SUB SWAP1 REVERT JUMPDEST PUSH1 0x0 PUSH20 0xFFFFFFFFFFFFFFFFFFFFFFFFFFFFFFFFFFFFFFFF AND DUP4 PUSH1 0x40 ADD MLOAD PUSH20 0xFFFFFFFFFFFFFFFFFFFFFFFFFFFFFFFFFFFFFFFF AND EQ ISZERO PUSH2 0x6DE JUMPI PUSH1 0x0 SWAP1 POP PUSH2 0x743 JUMP JUMPDEST PUSH1 0x0 DUP8 DUP8 DUP8 DUP8 PUSH2 0x6ED DUP9 PUSH2 0xAED JUMP JUMPDEST DUP8 PUSH2 0x6F6 PUSH2 0x46D JUMP JUMPDEST PUSH1 0x40 MLOAD PUSH1 0x20 ADD PUSH2 0x70C SWAP8 SWAP7 SWAP6 SWAP5 SWAP4 SWAP3 SWAP2 SWAP1 PUSH2 0x22DE JUMP JUMPDEST PUSH1 0x40 MLOAD PUSH1 0x20 DUP2 DUP4 SUB SUB DUP2 MSTORE SWAP1 PUSH1 0x40 MSTORE DUP1 MLOAD SWAP1 PUSH1 0x20 ADD KECCAK256 SWAP1 POP PUSH2 0x73F DUP5 PUSH1 0x40 ADD MLOAD PUSH2 0x735 DUP4 PUSH2 0xB26 JUMP JUMPDEST DUP7 PUSH1 0x60 ADD MLOAD PUSH2 0xB56 JUMP JUMPDEST SWAP2 POP POP JUMPDEST SWAP7 SWAP6 POP POP POP POP POP POP JUMP JUMPDEST PUSH1 0x0 DUP3 PUSH1 0x20 ADD MLOAD TIMESTAMP GT ISZERO PUSH2 0x796 JUMPI PUSH1 0x40 MLOAD PUSH32 0x8C379A000000000000000000000000000000000000000000000000000000000 DUP2 MSTORE PUSH1 0x4 ADD PUSH2 0x78D SWAP1 PUSH2 0x242B JUMP JUMPDEST PUSH1 0x40 MLOAD DUP1 SWAP2 SUB SWAP1 REVERT JUMPDEST PUSH1 0x0 PUSH20 0xFFFFFFFFFFFFFFFFFFFFFFFFFFFFFFFFFFFFFFFF AND DUP3 PUSH20 0xFFFFFFFFFFFFFFFFFFFFFFFFFFFFFFFFFFFFFFFF AND EQ ISZERO PUSH2 0x806 JUMPI PUSH1 0x40 MLOAD PUSH32 0x8C379A000000000000000000000000000000000000000000000000000000000 DUP2 MSTORE PUSH1 0x4 ADD PUSH2 0x7FD SWAP1 PUSH2 0x244B JUMP JUMPDEST PUSH1 0x40 MLOAD DUP1 SWAP2 SUB SWAP1 REVERT JUMPDEST PUSH1 0x0 PUSH20 0xFFFFFFFFFFFFFFFFFFFFFFFFFFFFFFFFFFFFFFFF AND DUP4 PUSH1 0x40 ADD MLOAD PUSH20 0xFFFFFFFFFFFFFFFFFFFFFFFFFFFFFFFFFFFFFFFF AND EQ ISZERO PUSH2 0x848 JUMPI PUSH1 0x0 SWAP1 POP PUSH2 0x8D0 JUMP JUMPDEST PUSH1 0x0 PUSH2 0x853 DUP7 PUSH2 0xD68 JUMP JUMPDEST DUP6 PUSH1 0x40 MLOAD PUSH1 0x20 ADD PUSH2 0x864 SWAP2 SWAP1 PUSH2 0x246B JUMP JUMPDEST PUSH1 0x40 MLOAD PUSH1 0x20 DUP2 DUP4 SUB SUB DUP2 MSTORE SWAP1 PUSH1 0x40 MSTORE PUSH2 0x87C DUP7 PUSH2 0xAED JUMP JUMPDEST DUP6 PUSH2 0x885 PUSH2 0x46D JUMP JUMPDEST PUSH1 0x40 MLOAD PUSH1 0x20 ADD PUSH2 0x899 SWAP6 SWAP5 SWAP4 SWAP3 SWAP2 SWAP1 PUSH2 0x2265 JUMP JUMPDEST PUSH1 0x40 MLOAD PUSH1 0x20 DUP2 DUP4 SUB SUB DUP2 MSTORE SWAP1 PUSH1 0x40 MSTORE DUP1 MLOAD SWAP1 PUSH1 0x20 ADD KECCAK256 SWAP1 POP PUSH2 0x8CC DUP5 PUSH1 0x40 ADD MLOAD PUSH2 0x8C2 DUP4 PUSH2 0xB26 JUMP JUMPDEST DUP7 PUSH1 0x60 ADD MLOAD PUSH2 0xB56 JUMP JUMPDEST SWAP2 POP POP JUMPDEST SWAP5 SWAP4 POP POP POP POP JUMP JUMPDEST PUSH1 0x0 DUP3 PUSH1 0x20 ADD MLOAD TIMESTAMP GT ISZERO PUSH2 0x921 JUMPI PUSH1 0x40 MLOAD PUSH32 0x8C379A000000000000000000000000000000000000000000000000000000000 DUP2 MSTORE PUSH1 0x4 ADD PUSH2 0x918 SWAP1 PUSH2 0x240B JUMP JUMPDEST PUSH1 0x40 MLOAD DUP1 SWAP2 SUB SWAP1 REVERT JUMPDEST PUSH1 0x0 PUSH20 0xFFFFFFFFFFFFFFFFFFFFFFFFFFFFFFFFFFFFFFFF AND DUP3 PUSH20 0xFFFFFFFFFFFFFFFFFFFFFFFFFFFFFFFFFFFFFFFF AND EQ ISZERO PUSH2 0x991 JUMPI PUSH1 0x40 MLOAD PUSH32 0x8C379A000000000000000000000000000000000000000000000000000000000 DUP2 MSTORE PUSH1 0x4 ADD PUSH2 0x988 SWAP1 PUSH2 0x244B JUMP JUMPDEST PUSH1 0x40 MLOAD DUP1 SWAP2 SUB SWAP1 REVERT JUMPDEST PUSH1 0x0 PUSH20 0xFFFFFFFFFFFFFFFFFFFFFFFFFFFFFFFFFFFFFFFF AND DUP4 PUSH1 0x40 ADD MLOAD PUSH20 0xFFFFFFFFFFFFFFFFFFFFFFFFFFFFFFFFFFFFFFFF AND EQ ISZERO PUSH2 0x9D3 JUMPI PUSH1 0x0 SWAP1 POP PUSH2 0xA3A JUMP JUMPDEST PUSH1 0x0 PUSH2 0x9DE DUP6 PUSH2 0xA88 JUMP JUMPDEST PUSH2 0x9E7 DUP6 PUSH2 0xAED JUMP JUMPDEST DUP5 PUSH2 0x9F0 PUSH2 0x46D JUMP JUMPDEST PUSH1 0x40 MLOAD PUSH1 0x20 ADD PUSH2 0xA03 SWAP5 SWAP4 SWAP3 SWAP2 SWAP1 PUSH2 0x221F JUMP JUMPDEST PUSH1 0x40 MLOAD PUSH1 0x20 DUP2 DUP4 SUB SUB DUP2 MSTORE SWAP1 PUSH1 0x40 MSTORE DUP1 MLOAD SWAP1 PUSH1 0x20 ADD KECCAK256 SWAP1 POP PUSH2 0xA36 DUP5 PUSH1 0x40 ADD MLOAD PUSH2 0xA2C DUP4 PUSH2 0xB26 JUMP JUMPDEST DUP7 PUSH1 0x60 ADD MLOAD PUSH2 0xB56 JUMP JUMPDEST SWAP2 POP POP JUMPDEST SWAP4 SWAP3 POP POP POP JUMP JUMPDEST PUSH1 0x0 PUSH2 0xA51 DUP7 DUP7 DUP7 DUP7 DUP7 ADDRESS PUSH2 0x5E3 JUMP JUMPDEST SWAP1 POP SWAP6 SWAP5 POP POP POP POP POP JUMP JUMPDEST PUSH1 0x0 PUSH2 0xA69 DUP4 DUP4 ADDRESS PUSH2 0x47A JUMP JUMPDEST SWAP1 POP SWAP3 SWAP2 POP POP JUMP JUMPDEST PUSH1 0x0 PUSH2 0xA7F DUP5 DUP5 DUP5 ADDRESS PUSH2 0x74D JUMP JUMPDEST SWAP1 POP SWAP4 SWAP3 POP POP POP JUMP JUMPDEST PUSH1 0x60 DUP2 PUSH2 0x120 ADD MLOAD DUP3 PUSH1 0x0 ADD MLOAD DUP4 PUSH1 0x20 ADD MLOAD DUP5 PUSH1 0x60 ADD MLOAD DUP6 PUSH1 0x40 ADD MLOAD DUP7 PUSH2 0x100 ADD MLOAD DUP8 PUSH1 0x80 ADD MLOAD DUP9 PUSH1 0xA0 ADD MLOAD DUP10 PUSH1 0xC0 ADD MLOAD DUP11 PUSH1 0xE0 ADD MLOAD PUSH1 0x40 MLOAD PUSH1 0x20 ADD PUSH2 0xAD7 SWAP11 SWAP10 SWAP9 SWAP8 SWAP7 SWAP6 SWAP5 SWAP4 SWAP3 SWAP2 SWAP1 PUSH2 0x2154 JUMP JUMPDEST PUSH1 0x40 MLOAD PUSH1 0x20 DUP2 DUP4 SUB SUB DUP2 MSTORE SWAP1 PUSH1 0x40 MSTORE SWAP1 POP SWAP2 SWAP1 POP JUMP JUMPDEST PUSH1 0x60 DUP2 PUSH1 0x40 ADD MLOAD DUP3 PUSH1 0x0 ADD MLOAD DUP4 PUSH1 0x20 ADD MLOAD PUSH1 0x40 MLOAD PUSH1 0x20 ADD PUSH2 0xB10 SWAP4 SWAP3 SWAP2 SWAP1 PUSH2 0x2085 JUMP JUMPDEST PUSH1 0x40 MLOAD PUSH1 0x20 DUP2 DUP4 SUB SUB DUP2 MSTORE SWAP1 PUSH1 0x40 MSTORE SWAP1 POP SWAP2 SWAP1 POP JUMP JUMPDEST PUSH1 0x0 DUP2 PUSH1 0x40 MLOAD PUSH1 0x20 ADD PUSH2 0xB39 SWAP2 SWAP1 PUSH2 0x22B8 JUMP JUMPDEST PUSH1 0x40 MLOAD PUSH1 0x20 DUP2 DUP4 SUB SUB DUP2 MSTORE SWAP1 PUSH1 0x40 MSTORE DUP1 MLOAD SWAP1 PUSH1 0x20 ADD KECCAK256 SWAP1 POP SWAP2 SWAP1 POP JUMP JUMPDEST PUSH1 0x0 DUP1 PUSH1 0x0 PUSH2 0xB65 DUP6 DUP6 PUSH2 0xDBF JUMP JUMPDEST SWAP2 POP SWAP2 POP PUSH1 0x0 PUSH1 0x4 DUP2 GT ISZERO PUSH2 0xBA3 JUMPI PUSH32 0x4E487B7100000000000000000000000000000000000000000000000000000000 PUSH1 0x0 MSTORE PUSH1 0x21 PUSH1 0x4 MSTORE PUSH1 0x24 PUSH1 0x0 REVERT JUMPDEST DUP2 PUSH1 0x4 DUP2 GT ISZERO PUSH2 0xBDC JUMPI PUSH32 0x4E487B7100000000000000000000000000000000000000000000000000000000 PUSH1 0x0 MSTORE PUSH1 0x21 PUSH1 0x4 MSTORE PUSH1 0x24 PUSH1 0x0 REVERT JUMPDEST EQ DUP1 ISZERO PUSH2 0xC14 JUMPI POP DUP6 PUSH20 0xFFFFFFFFFFFFFFFFFFFFFFFFFFFFFFFFFFFFFFFF AND DUP3 PUSH20 0xFFFFFFFFFFFFFFFFFFFFFFFFFFFFFFFFFFFFFFFF AND EQ JUMPDEST ISZERO PUSH2 0xC24 JUMPI PUSH1 0x1 SWAP3 POP POP POP PUSH2 0xD61 JUMP JUMPDEST PUSH1 0x0 DUP1 DUP8 PUSH20 0xFFFFFFFFFFFFFFFFFFFFFFFFFFFFFFFFFFFFFFFF AND PUSH4 0x1626BA7E PUSH1 0xE0 SHL DUP9 DUP9 PUSH1 0x40 MLOAD PUSH1 0x24 ADD PUSH2 0xC59 SWAP3 SWAP2 SWAP1 PUSH2 0x2376 JUMP JUMPDEST PUSH1 0x40 MLOAD PUSH1 0x20 DUP2 DUP4 SUB SUB DUP2 MSTORE SWAP1 PUSH1 0x40 MSTORE SWAP1 PUSH28 0xFFFFFFFFFFFFFFFFFFFFFFFFFFFFFFFFFFFFFFFFFFFFFFFFFFFFFFFF NOT AND PUSH1 0x20 DUP3 ADD DUP1 MLOAD PUSH28 0xFFFFFFFFFFFFFFFFFFFFFFFFFFFFFFFFFFFFFFFFFFFFFFFFFFFFFFFF DUP4 DUP2 DUP4 AND OR DUP4 MSTORE POP POP POP POP PUSH1 0x40 MLOAD PUSH2 0xCC3 SWAP2 SWAP1 PUSH2 0x2208 JUMP JUMPDEST PUSH1 0x0 PUSH1 0x40 MLOAD DUP1 DUP4 SUB DUP2 DUP6 GAS STATICCALL SWAP2 POP POP RETURNDATASIZE DUP1 PUSH1 0x0 DUP2 EQ PUSH2 0xCFE JUMPI PUSH1 0x40 MLOAD SWAP2 POP PUSH1 0x1F NOT PUSH1 0x3F RETURNDATASIZE ADD AND DUP3 ADD PUSH1 0x40 MSTORE RETURNDATASIZE DUP3 MSTORE RETURNDATASIZE PUSH1 0x0 PUSH1 0x20 DUP5 ADD RETURNDATACOPY PUSH2 0xD03 JUMP JUMPDEST PUSH1 0x60 SWAP2 POP JUMPDEST POP SWAP2 POP SWAP2 POP DUP2 DUP1 ISZERO PUSH2 0xD16 JUMPI POP PUSH1 0x20 DUP2 MLOAD EQ JUMPDEST DUP1 ISZERO PUSH2 0xD5A JUMPI POP PUSH4 0x1626BA7E PUSH1 0xE0 SHL PUSH28 0xFFFFFFFFFFFFFFFFFFFFFFFFFFFFFFFFFFFFFFFFFFFFFFFFFFFFFFFF NOT AND DUP2 DUP1 PUSH1 0x20 ADD SWAP1 MLOAD DUP2 ADD SWAP1 PUSH2 0xD58 SWAP2 SWAP1 PUSH2 0x1674 JUMP JUMPDEST EQ JUMPDEST SWAP5 POP POP POP POP POP JUMPDEST SWAP4 SWAP3 POP POP POP JUMP JUMPDEST PUSH1 0x60 DUP2 PUSH1 0xC0 ADD MLOAD DUP3 PUSH1 0x0 ADD MLOAD DUP4 PUSH1 0x20 ADD MLOAD DUP5 PUSH1 0x60 ADD MLOAD DUP6 PUSH1 0x40 ADD MLOAD DUP7 PUSH1 0xE0 ADD MLOAD DUP8 PUSH1 0x80 ADD MLOAD DUP9 PUSH1 0xA0 ADD MLOAD PUSH1 0x40 MLOAD PUSH1 0x20 ADD PUSH2 0xDA9 SWAP9 SWAP8 SWAP7 SWAP6 SWAP5 SWAP4 SWAP3 SWAP2 SWAP1 PUSH2 0x20C2 JUMP JUMPDEST PUSH1 0x40 MLOAD PUSH1 0x20 DUP2 DUP4 SUB SUB DUP2 MSTORE SWAP1 PUSH1 0x40 MSTORE SWAP1 POP SWAP2 SWAP1 POP JUMP JUMPDEST PUSH1 0x0 DUP1 PUSH1 0x41 DUP4 MLOAD EQ ISZERO PUSH2 0xE01 JUMPI PUSH1 0x0 DUP1 PUSH1 0x0 PUSH1 0x20 DUP7 ADD MLOAD SWAP3 POP PUSH1 0x40 DUP7 ADD MLOAD SWAP2 POP PUSH1 0x60 DUP7 ADD MLOAD PUSH1 0x0 BYTE SWAP1 POP PUSH2 0xDF5 DUP8 DUP3 DUP6 DUP6 PUSH2 0xE11 JUMP JUMPDEST SWAP5 POP SWAP5 POP POP POP POP PUSH2 0xE0A JUMP JUMPDEST PUSH1 0x0 PUSH1 0x2 SWAP2 POP SWAP2 POP JUMPDEST SWAP3 POP SWAP3 SWAP1 POP JUMP JUMPDEST PUSH1 0x0 DUP1 PUSH32 0x7FFFFFFFFFFFFFFFFFFFFFFFFFFFFFFF5D576E7357A4501DDFE92F46681B20A0 DUP4 PUSH1 0x0 SHR GT ISZERO PUSH2 0xE4C JUMPI PUSH1 0x0 PUSH1 0x3 SWAP2 POP SWAP2 POP PUSH2 0xEEB JUMP JUMPDEST PUSH1 0x0 PUSH1 0x1 DUP8 DUP8 DUP8 DUP8 PUSH1 0x40 MLOAD PUSH1 0x0 DUP2 MSTORE PUSH1 0x20 ADD PUSH1 0x40 MSTORE PUSH1 0x40 MLOAD PUSH2 0xE71 SWAP5 SWAP4 SWAP3 SWAP2 SWAP1 PUSH2 0x23A6 JUMP JUMPDEST PUSH1 0x20 PUSH1 0x40 MLOAD PUSH1 0x20 DUP2 SUB SWAP1 DUP1 DUP5 SUB SWAP1 DUP6 GAS STATICCALL ISZERO DUP1 ISZERO PUSH2 0xE93 JUMPI RETURNDATASIZE PUSH1 0x0 DUP1 RETURNDATACOPY RETURNDATASIZE PUSH1 0x0 REVERT JUMPDEST POP POP POP PUSH1 0x20 PUSH1 0x40 MLOAD SUB MLOAD SWAP1 POP PUSH1 0x0 PUSH20 0xFFFFFFFFFFFFFFFFFFFFFFFFFFFFFFFFFFFFFFFF AND DUP2 PUSH20 0xFFFFFFFFFFFFFFFFFFFFFFFFFFFFFFFFFFFFFFFF AND EQ ISZERO PUSH2 0xEE2 JUMPI PUSH1 0x0 PUSH1 0x1 SWAP3 POP SWAP3 POP POP PUSH2 0xEEB JUMP JUMPDEST DUP1 PUSH1 0x0 SWAP3 POP SWAP3 POP POP JUMPDEST SWAP5 POP SWAP5 SWAP3 POP POP POP JUMP JUMPDEST PUSH1 0x0 PUSH2 0xF07 PUSH2 0xF02 DUP5 PUSH2 0x24CD JUMP JUMPDEST PUSH2 0x24A8 JUMP JUMPDEST SWAP1 POP DUP1 DUP4 DUP3 MSTORE PUSH1 0x20 DUP3 ADD SWAP1 POP DUP3 DUP6 PUSH1 0x20 DUP7 MUL DUP3 ADD GT ISZERO PUSH2 0xF26 JUMPI PUSH1 0x0 DUP1 REVERT JUMPDEST PUSH1 0x0 JUMPDEST DUP6 DUP2 LT ISZERO PUSH2 0xF70 JUMPI DUP2 CALLDATALOAD PUSH8 0xFFFFFFFFFFFFFFFF DUP2 GT ISZERO PUSH2 0xF48 JUMPI PUSH1 0x0 DUP1 REVERT JUMPDEST DUP1 DUP7 ADD PUSH2 0xF55 DUP10 DUP3 PUSH2 0x120D JUMP JUMPDEST DUP6 MSTORE PUSH1 0x20 DUP6 ADD SWAP5 POP PUSH1 0x20 DUP5 ADD SWAP4 POP POP POP PUSH1 0x1 DUP2 ADD SWAP1 POP PUSH2 0xF29 JUMP JUMPDEST POP POP POP SWAP4 SWAP3 POP POP POP JUMP JUMPDEST PUSH1 0x0 PUSH2 0xF8D PUSH2 0xF88 DUP5 PUSH2 0x24F9 JUMP JUMPDEST PUSH2 0x24A8 JUMP JUMPDEST SWAP1 POP DUP1 DUP4 DUP3 MSTORE PUSH1 0x20 DUP3 ADD SWAP1 POP DUP3 DUP6 PUSH1 0x40 DUP7 MUL DUP3 ADD GT ISZERO PUSH2 0xFAC JUMPI PUSH1 0x0 DUP1 REVERT JUMPDEST PUSH1 0x0 JUMPDEST DUP6 DUP2 LT ISZERO PUSH2 0xFDC JUMPI DUP2 PUSH2 0xFC2 DUP9 DUP3 PUSH2 0x129D JUMP JUMPDEST DUP5 MSTORE PUSH1 0x20 DUP5 ADD SWAP4 POP PUSH1 0x40 DUP4 ADD SWAP3 POP POP PUSH1 0x1 DUP2 ADD SWAP1 POP PUSH2 0xFAF JUMP JUMPDEST POP POP POP SWAP4 SWAP3 POP POP POP JUMP JUMPDEST PUSH1 0x0 PUSH2 0xFF9 PUSH2 0xFF4 DUP5 PUSH2 0x2525 JUMP JUMPDEST PUSH2 0x24A8 JUMP JUMPDEST SWAP1 POP DUP1 DUP4 DUP3 MSTORE PUSH1 0x20 DUP3 ADD SWAP1 POP DUP3 DUP6 PUSH1 0x60 DUP7 MUL DUP3 ADD GT ISZERO PUSH2 0x1018 JUMPI PUSH1 0x0 DUP1 REVERT JUMPDEST PUSH1 0x0 JUMPDEST DUP6 DUP2 LT ISZERO PUSH2 0x1048 JUMPI DUP2 PUSH2 0x102E DUP9 DUP3 PUSH2 0x12E9 JUMP JUMPDEST DUP5 MSTORE PUSH1 0x20 DUP5 ADD SWAP4 POP PUSH1 0x60 DUP4 ADD SWAP3 POP POP PUSH1 0x1 DUP2 ADD SWAP1 POP PUSH2 0x101B JUMP JUMPDEST POP POP POP SWAP4 SWAP3 POP POP POP JUMP JUMPDEST PUSH1 0x0 PUSH2 0x1065 PUSH2 0x1060 DUP5 PUSH2 0x2551 JUMP JUMPDEST PUSH2 0x24A8 JUMP JUMPDEST SWAP1 POP DUP1 DUP4 DUP3 MSTORE PUSH1 0x20 DUP3 ADD SWAP1 POP DUP3 DUP6 PUSH1 0x20 DUP7 MUL DUP3 ADD GT ISZERO PUSH2 0x1084 JUMPI PUSH1 0x0 DUP1 REVERT JUMPDEST PUSH1 0x0 JUMPDEST DUP6 DUP2 LT ISZERO PUSH2 0x10B4 JUMPI DUP2 PUSH2 0x109A DUP9 DUP3 PUSH2 0x164A JUMP JUMPDEST DUP5 MSTORE PUSH1 0x20 DUP5 ADD SWAP4 POP PUSH1 0x20 DUP4 ADD SWAP3 POP POP PUSH1 0x1 DUP2 ADD SWAP1 POP PUSH2 0x1087 JUMP JUMPDEST POP POP POP SWAP4 SWAP3 POP POP POP JUMP JUMPDEST PUSH1 0x0 PUSH2 0x10D1 PUSH2 0x10CC DUP5 PUSH2 0x257D JUMP JUMPDEST PUSH2 0x24A8 JUMP JUMPDEST SWAP1 POP DUP3 DUP2 MSTORE PUSH1 0x20 DUP2 ADD DUP5 DUP5 DUP5 ADD GT ISZERO PUSH2 0x10E9 JUMPI PUSH1 0x0 DUP1 REVERT JUMPDEST PUSH2 0x10F4 DUP5 DUP3 DUP6 PUSH2 0x2752 JUMP JUMPDEST POP SWAP4 SWAP3 POP POP POP JUMP JUMPDEST PUSH1 0x0 DUP2 CALLDATALOAD SWAP1 POP PUSH2 0x110B DUP2 PUSH2 0x297B JUMP JUMPDEST SWAP3 SWAP2 POP POP JUMP JUMPDEST PUSH1 0x0 DUP3 PUSH1 0x1F DUP4 ADD SLT PUSH2 0x1122 JUMPI PUSH1 0x0 DUP1 REVERT JUMPDEST DUP2 CALLDATALOAD PUSH2 0x1132 DUP5 DUP3 PUSH1 0x20 DUP7 ADD PUSH2 0xEF4 JUMP JUMPDEST SWAP2 POP POP SWAP3 SWAP2 POP POP JUMP JUMPDEST PUSH1 0x0 DUP3 PUSH1 0x1F DUP4 ADD SLT PUSH2 0x114C JUMPI PUSH1 0x0 DUP1 REVERT JUMPDEST DUP2 CALLDATALOAD PUSH2 0x115C DUP5 DUP3 PUSH1 0x20 DUP7 ADD PUSH2 0xF7A JUMP JUMPDEST SWAP2 POP POP SWAP3 SWAP2 POP POP JUMP JUMPDEST PUSH1 0x0 DUP3 PUSH1 0x1F DUP4 ADD SLT PUSH2 0x1176 JUMPI PUSH1 0x0 DUP1 REVERT JUMPDEST DUP2 CALLDATALOAD PUSH2 0x1186 DUP5 DUP3 PUSH1 0x20 DUP7 ADD PUSH2 0xFE6 JUMP JUMPDEST SWAP2 POP POP SWAP3 SWAP2 POP POP JUMP JUMPDEST PUSH1 0x0 DUP3 PUSH1 0x1F DUP4 ADD SLT PUSH2 0x11A0 JUMPI PUSH1 0x0 DUP1 REVERT JUMPDEST DUP2 CALLDATALOAD PUSH2 0x11B0 DUP5 DUP3 PUSH1 0x20 DUP7 ADD PUSH2 0x1052 JUMP JUMPDEST SWAP2 POP POP SWAP3 SWAP2 POP POP JUMP JUMPDEST PUSH1 0x0 DUP2 CALLDATALOAD SWAP1 POP PUSH2 0x11C8 DUP2 PUSH2 0x2992 JUMP JUMPDEST SWAP3 SWAP2 POP POP JUMP JUMPDEST PUSH1 0x0 DUP2 MLOAD SWAP1 POP PUSH2 0x11DD DUP2 PUSH2 0x29A9 JUMP JUMPDEST SWAP3 SWAP2 POP POP JUMP JUMPDEST PUSH1 0x0 DUP3 PUSH1 0x1F DUP4 ADD SLT PUSH2 0x11F4 JUMPI PUSH1 0x0 DUP1 REVERT JUMPDEST DUP2 CALLDATALOAD PUSH2 0x1204 DUP5 DUP3 PUSH1 0x20 DUP7 ADD PUSH2 0x10BE JUMP JUMPDEST SWAP2 POP POP SWAP3 SWAP2 POP POP JUMP JUMPDEST PUSH1 0x0 PUSH1 0x60 DUP3 DUP5 SUB SLT ISZERO PUSH2 0x121F JUMPI PUSH1 0x0 DUP1 REVERT JUMPDEST PUSH2 0x1229 PUSH1 0x60 PUSH2 0x24A8 JUMP JUMPDEST SWAP1 POP PUSH1 0x0 PUSH2 0x1239 DUP5 DUP3 DUP6 ADD PUSH2 0x10FC JUMP JUMPDEST PUSH1 0x0 DUP4 ADD MSTORE POP PUSH1 0x20 DUP3 ADD CALLDATALOAD PUSH8 0xFFFFFFFFFFFFFFFF DUP2 GT ISZERO PUSH2 0x1259 JUMPI PUSH1 0x0 DUP1 REVERT JUMPDEST PUSH2 0x1265 DUP5 DUP3 DUP6 ADD PUSH2 0x118F JUMP JUMPDEST PUSH1 0x20 DUP4 ADD MSTORE POP PUSH1 0x40 DUP3 ADD CALLDATALOAD PUSH8 0xFFFFFFFFFFFFFFFF DUP2 GT ISZERO PUSH2 0x1285 JUMPI PUSH1 0x0 DUP1 REVERT JUMPDEST PUSH2 0x1291 DUP5 DUP3 DUP6 ADD PUSH2 0x118F JUMP JUMPDEST PUSH1 0x40 DUP4 ADD MSTORE POP SWAP3 SWAP2 POP POP JUMP JUMPDEST PUSH1 0x0 PUSH1 0x40 DUP3 DUP5 SUB SLT ISZERO PUSH2 0x12AF JUMPI PUSH1 0x0 DUP1 REVERT JUMPDEST PUSH2 0x12B9 PUSH1 0x40 PUSH2 0x24A8 JUMP JUMPDEST SWAP1 POP PUSH1 0x0 PUSH2 0x12C9 DUP5 DUP3 DUP6 ADD PUSH2 0x10FC JUMP JUMPDEST PUSH1 0x0 DUP4 ADD MSTORE POP PUSH1 0x20 PUSH2 0x12DD DUP5 DUP3 DUP6 ADD PUSH2 0x164A JUMP JUMPDEST PUSH1 0x20 DUP4 ADD MSTORE POP SWAP3 SWAP2 POP POP JUMP JUMPDEST PUSH1 0x0 PUSH1 0x60 DUP3 DUP5 SUB SLT ISZERO PUSH2 0x12FB JUMPI PUSH1 0x0 DUP1 REVERT JUMPDEST PUSH2 0x1305 PUSH1 0x60 PUSH2 0x24A8 JUMP JUMPDEST SWAP1 POP PUSH1 0x0 PUSH2 0x1315 DUP5 DUP3 DUP6 ADD PUSH2 0x10FC JUMP JUMPDEST PUSH1 0x0 DUP4 ADD MSTORE POP PUSH1 0x20 PUSH2 0x1329 DUP5 DUP3 DUP6 ADD PUSH2 0x164A JUMP JUMPDEST PUSH1 0x20 DUP4 ADD MSTORE POP PUSH1 0x40 PUSH2 0x133D DUP5 DUP3 DUP6 ADD PUSH2 0x11B9 JUMP JUMPDEST PUSH1 0x40 DUP4 ADD MSTORE POP SWAP3 SWAP2 POP POP JUMP JUMPDEST PUSH1 0x0 PUSH1 0x60 DUP3 DUP5 SUB SLT ISZERO PUSH2 0x135B JUMPI PUSH1 0x0 DUP1 REVERT JUMPDEST PUSH2 0x1365 PUSH1 0x60 PUSH2 0x24A8 JUMP JUMPDEST SWAP1 POP PUSH1 0x0 DUP3 ADD CALLDATALOAD PUSH8 0xFFFFFFFFFFFFFFFF DUP2 GT ISZERO PUSH2 0x1381 JUMPI PUSH1 0x0 DUP1 REVERT JUMPDEST PUSH2 0x138D DUP5 DUP3 DUP6 ADD PUSH2 0x1165 JUMP JUMPDEST PUSH1 0x0 DUP4 ADD MSTORE POP PUSH1 0x20 DUP3 ADD CALLDATALOAD PUSH8 0xFFFFFFFFFFFFFFFF DUP2 GT ISZERO PUSH2 0x13AD JUMPI PUSH1 0x0 DUP1 REVERT JUMPDEST PUSH2 0x13B9 DUP5 DUP3 DUP6 ADD PUSH2 0x113B JUMP JUMPDEST PUSH1 0x20 DUP4 ADD MSTORE POP PUSH1 0x40 DUP3 ADD CALLDATALOAD PUSH8 0xFFFFFFFFFFFFFFFF DUP2 GT ISZERO PUSH2 0x13D9 JUMPI PUSH1 0x0 DUP1 REVERT JUMPDEST PUSH2 0x13E5 DUP5 DUP3 DUP6 ADD PUSH2 0x1111 JUMP JUMPDEST PUSH1 0x40 DUP4 ADD MSTORE POP SWAP3 SWAP2 POP POP JUMP JUMPDEST PUSH1 0x0 PUSH2 0x140 DUP3 DUP5 SUB SLT ISZERO PUSH2 0x1404 JUMPI PUSH1 0x0 DUP1 REVERT JUMPDEST PUSH2 0x140F PUSH2 0x140 PUSH2 0x24A8 JUMP JUMPDEST SWAP1 POP PUSH1 0x0 PUSH2 0x141F DUP5 DUP3 DUP6 ADD PUSH2 0x164A JUMP JUMPDEST PUSH1 0x0 DUP4 ADD MSTORE POP PUSH1 0x20 PUSH2 0x1433 DUP5 DUP3 DUP6 ADD PUSH2 0x164A JUMP JUMPDEST PUSH1 0x20 DUP4 ADD MSTORE POP PUSH1 0x40 PUSH2 0x1447 DUP5 DUP3 DUP6 ADD PUSH2 0x164A JUMP JUMPDEST PUSH1 0x40 DUP4 ADD MSTORE POP PUSH1 0x60 PUSH2 0x145B DUP5 DUP3 DUP6 ADD PUSH2 0x10FC JUMP JUMPDEST PUSH1 0x60 DUP4 ADD MSTORE POP PUSH1 0x80 PUSH2 0x146F DUP5 DUP3 DUP6 ADD PUSH2 0x165F JUMP JUMPDEST PUSH1 0x80 DUP4 ADD MSTORE POP PUSH1 0xA0 PUSH2 0x1483 DUP5 DUP3 DUP6 ADD PUSH2 0x165F JUMP JUMPDEST PUSH1 0xA0 DUP4 ADD MSTORE POP PUSH1 0xC0 PUSH2 0x1497 DUP5 DUP3 DUP6 ADD PUSH2 0x1635 JUMP JUMPDEST PUSH1 0xC0 DUP4 ADD MSTORE POP PUSH1 0xE0 PUSH2 0x14AB DUP5 DUP3 DUP6 ADD PUSH2 0x1635 JUMP JUMPDEST PUSH1 0xE0 DUP4 ADD MSTORE POP PUSH2 0x100 PUSH2 0x14C0 DUP5 DUP3 DUP6 ADD PUSH2 0x10FC JUMP JUMPDEST PUSH2 0x100 DUP4 ADD MSTORE POP PUSH2 0x120 PUSH2 0x14D6 DUP5 DUP3 DUP6 ADD PUSH2 0x10FC JUMP JUMPDEST PUSH2 0x120 DUP4 ADD MSTORE POP SWAP3 SWAP2 POP POP JUMP JUMPDEST PUSH1 0x0 PUSH2 0x100 DUP3 DUP5 SUB SLT ISZERO PUSH2 0x14F6 JUMPI PUSH1 0x0 DUP1 REVERT JUMPDEST PUSH2 0x1501 PUSH2 0x100 PUSH2 0x24A8 JUMP JUMPDEST SWAP1 POP PUSH1 0x0 PUSH2 0x1511 DUP5 DUP3 DUP6 ADD PUSH2 0x164A JUMP JUMPDEST PUSH1 0x0 DUP4 ADD MSTORE POP PUSH1 0x20 PUSH2 0x1525 DUP5 DUP3 DUP6 ADD PUSH2 0x164A JUMP JUMPDEST PUSH1 0x20 DUP4 ADD MSTORE POP PUSH1 0x40 PUSH2 0x1539 DUP5 DUP3 DUP6 ADD PUSH2 0x164A JUMP JUMPDEST PUSH1 0x40 DUP4 ADD MSTORE POP PUSH1 0x60 PUSH2 0x154D DUP5 DUP3 DUP6 ADD PUSH2 0x10FC JUMP JUMPDEST PUSH1 0x60 DUP4 ADD MSTORE POP PUSH1 0x80 PUSH2 0x1561 DUP5 DUP3 DUP6 ADD PUSH2 0x165F JUMP JUMPDEST PUSH1 0x80 DUP4 ADD MSTORE POP PUSH1 0xA0 PUSH2 0x1575 DUP5 DUP3 DUP6 ADD PUSH2 0x1635 JUMP JUMPDEST PUSH1 0xA0 DUP4 ADD MSTORE POP PUSH1 0xC0 PUSH2 0x1589 DUP5 DUP3 DUP6 ADD PUSH2 0x10FC JUMP JUMPDEST PUSH1 0xC0 DUP4 ADD MSTORE POP PUSH1 0xE0 PUSH2 0x159D DUP5 DUP3 DUP6 ADD PUSH2 0x10FC JUMP JUMPDEST PUSH1 0xE0 DUP4 ADD MSTORE POP SWAP3 SWAP2 POP POP JUMP JUMPDEST PUSH1 0x0 PUSH1 0x80 DUP3 DUP5 SUB SLT ISZERO PUSH2 0x15BB JUMPI PUSH1 0x0 DUP1 REVERT JUMPDEST PUSH2 0x15C5 PUSH1 0x80 PUSH2 0x24A8 JUMP JUMPDEST SWAP1 POP PUSH1 0x0 PUSH2 0x15D5 DUP5 DUP3 DUP6 ADD PUSH2 0x164A JUMP JUMPDEST PUSH1 0x0 DUP4 ADD MSTORE POP PUSH1 0x20 PUSH2 0x15E9 DUP5 DUP3 DUP6 ADD PUSH2 0x164A JUMP JUMPDEST PUSH1 0x20 DUP4 ADD MSTORE POP PUSH1 0x40 PUSH2 0x15FD DUP5 DUP3 DUP6 ADD PUSH2 0x10FC JUMP JUMPDEST PUSH1 0x40 DUP4 ADD MSTORE POP PUSH1 0x60 DUP3 ADD CALLDATALOAD PUSH8 0xFFFFFFFFFFFFFFFF DUP2 GT ISZERO PUSH2 0x161D JUMPI PUSH1 0x0 DUP1 REVERT JUMPDEST PUSH2 0x1629 DUP5 DUP3 DUP6 ADD PUSH2 0x11E3 JUMP JUMPDEST PUSH1 0x60 DUP4 ADD MSTORE POP SWAP3 SWAP2 POP POP JUMP JUMPDEST PUSH1 0x0 DUP2 CALLDATALOAD SWAP1 POP PUSH2 0x1644 DUP2 PUSH2 0x29C0 JUMP JUMPDEST SWAP3 SWAP2 POP POP JUMP JUMPDEST PUSH1 0x0 DUP2 CALLDATALOAD SWAP1 POP PUSH2 0x1659 DUP2 PUSH2 0x29D7 JUMP JUMPDEST SWAP3 SWAP2 POP POP JUMP JUMPDEST PUSH1 0x0 DUP2 CALLDATALOAD SWAP1 POP PUSH2 0x166E DUP2 PUSH2 0x29EE JUMP JUMPDEST SWAP3 SWAP2 POP POP JUMP JUMPDEST PUSH1 0x0 PUSH1 0x20 DUP3 DUP5 SUB SLT ISZERO PUSH2 0x1686 JUMPI PUSH1 0x0 DUP1 REVERT JUMPDEST PUSH1 0x0 PUSH2 0x1694 DUP5 DUP3 DUP6 ADD PUSH2 0x11CE JUMP JUMPDEST SWAP2 POP POP SWAP3 SWAP2 POP POP JUMP JUMPDEST PUSH1 0x0 DUP1 PUSH1 0x0 PUSH2 0x180 DUP5 DUP7 SUB SLT ISZERO PUSH2 0x16B3 JUMPI PUSH1 0x0 DUP1 REVERT JUMPDEST PUSH1 0x0 PUSH2 0x16C1 DUP7 DUP3 DUP8 ADD PUSH2 0x13F1 JUMP JUMPDEST SWAP4 POP POP PUSH2 0x140 DUP5 ADD CALLDATALOAD PUSH8 0xFFFFFFFFFFFFFFFF DUP2 GT ISZERO PUSH2 0x16DF JUMPI PUSH1 0x0 DUP1 REVERT JUMPDEST PUSH2 0x16EB DUP7 DUP3 DUP8 ADD PUSH2 0x1349 JUMP JUMPDEST SWAP3 POP POP PUSH2 0x160 DUP5 ADD CALLDATALOAD PUSH8 0xFFFFFFFFFFFFFFFF DUP2 GT ISZERO PUSH2 0x1709 JUMPI PUSH1 0x0 DUP1 REVERT JUMPDEST PUSH2 0x1715 DUP7 DUP3 DUP8 ADD PUSH2 0x15A9 JUMP JUMPDEST SWAP2 POP POP SWAP3 POP SWAP3 POP SWAP3 JUMP JUMPDEST PUSH1 0x0 DUP1 PUSH1 0x0 DUP1 PUSH2 0x1A0 DUP6 DUP8 SUB SLT ISZERO PUSH2 0x1736 JUMPI PUSH1 0x0 DUP1 REVERT JUMPDEST PUSH1 0x0 PUSH2 0x1744 DUP8 DUP3 DUP9 ADD PUSH2 0x13F1 JUMP JUMPDEST SWAP5 POP POP PUSH2 0x140 DUP6 ADD CALLDATALOAD PUSH8 0xFFFFFFFFFFFFFFFF DUP2 GT ISZERO PUSH2 0x1762 JUMPI PUSH1 0x0 DUP1 REVERT JUMPDEST PUSH2 0x176E DUP8 DUP3 DUP9 ADD PUSH2 0x1349 JUMP JUMPDEST SWAP4 POP POP PUSH2 0x160 DUP6 ADD CALLDATALOAD PUSH8 0xFFFFFFFFFFFFFFFF DUP2 GT ISZERO PUSH2 0x178C JUMPI PUSH1 0x0 DUP1 REVERT JUMPDEST PUSH2 0x1798 DUP8 DUP3 DUP9 ADD PUSH2 0x15A9 JUMP JUMPDEST SWAP3 POP POP PUSH2 0x180 PUSH2 0x17AA DUP8 DUP3 DUP9 ADD PUSH2 0x10FC JUMP JUMPDEST SWAP2 POP POP SWAP3 SWAP6 SWAP2 SWAP5 POP SWAP3 POP JUMP JUMPDEST PUSH1 0x0 DUP1 PUSH2 0x160 DUP4 DUP6 SUB SLT ISZERO PUSH2 0x17CA JUMPI PUSH1 0x0 DUP1 REVERT JUMPDEST PUSH1 0x0 PUSH2 0x17D8 DUP6 DUP3 DUP7 ADD PUSH2 0x13F1 JUMP JUMPDEST SWAP3 POP POP PUSH2 0x140 DUP4 ADD CALLDATALOAD PUSH8 0xFFFFFFFFFFFFFFFF DUP2 GT ISZERO PUSH2 0x17F6 JUMPI PUSH1 0x0 DUP1 REVERT JUMPDEST PUSH2 0x1802 DUP6 DUP3 DUP7 ADD PUSH2 0x15A9 JUMP JUMPDEST SWAP2 POP POP SWAP3 POP SWAP3 SWAP1 POP JUMP JUMPDEST PUSH1 0x0 DUP1 PUSH1 0x0 PUSH2 0x180 DUP5 DUP7 SUB SLT ISZERO PUSH2 0x1822 JUMPI PUSH1 0x0 DUP1 REVERT JUMPDEST PUSH1 0x0 PUSH2 0x1830 DUP7 DUP3 DUP8 ADD PUSH2 0x13F1 JUMP JUMPDEST SWAP4 POP POP PUSH2 0x140 DUP5 ADD CALLDATALOAD PUSH8 0xFFFFFFFFFFFFFFFF DUP2 GT ISZERO PUSH2 0x184E JUMPI PUSH1 0x0 DUP1 REVERT JUMPDEST PUSH2 0x185A DUP7 DUP3 DUP8 ADD PUSH2 0x15A9 JUMP JUMPDEST SWAP3 POP POP PUSH2 0x160 PUSH2 0x186C DUP7 DUP3 DUP8 ADD PUSH2 0x10FC JUMP JUMPDEST SWAP2 POP POP SWAP3 POP SWAP3 POP SWAP3 JUMP JUMPDEST PUSH1 0x0 DUP1 PUSH1 0x0 PUSH2 0x140 DUP5 DUP7 SUB SLT ISZERO PUSH2 0x188C JUMPI PUSH1 0x0 DUP1 REVERT JUMPDEST PUSH1 0x0 PUSH2 0x189A DUP7 DUP3 DUP8 ADD PUSH2 0x14E3 JUMP JUMPDEST SWAP4 POP POP PUSH2 0x100 DUP5 ADD CALLDATALOAD PUSH8 0xFFFFFFFFFFFFFFFF DUP2 GT ISZERO PUSH2 0x18B8 JUMPI PUSH1 0x0 DUP1 REVERT JUMPDEST PUSH2 0x18C4 DUP7 DUP3 DUP8 ADD PUSH2 0x1349 JUMP JUMPDEST SWAP3 POP POP PUSH2 0x120 DUP5 ADD CALLDATALOAD PUSH8 0xFFFFFFFFFFFFFFFF DUP2 GT ISZERO PUSH2 0x18E2 JUMPI PUSH1 0x0 DUP1 REVERT JUMPDEST PUSH2 0x18EE DUP7 DUP3 DUP8 ADD PUSH2 0x15A9 JUMP JUMPDEST SWAP2 POP POP SWAP3 POP SWAP3 POP SWAP3 JUMP JUMPDEST PUSH1 0x0 DUP1 PUSH1 0x0 DUP1 PUSH2 0x160 DUP6 DUP8 SUB SLT ISZERO PUSH2 0x190F JUMPI PUSH1 0x0 DUP1 REVERT JUMPDEST PUSH1 0x0 PUSH2 0x191D DUP8 DUP3 DUP9 ADD PUSH2 0x14E3 JUMP JUMPDEST SWAP5 POP POP PUSH2 0x100 DUP6 ADD CALLDATALOAD PUSH8 0xFFFFFFFFFFFFFFFF DUP2 GT ISZERO PUSH2 0x193B JUMPI PUSH1 0x0 DUP1 REVERT JUMPDEST PUSH2 0x1947 DUP8 DUP3 DUP9 ADD PUSH2 0x1349 JUMP JUMPDEST SWAP4 POP POP PUSH2 0x120 DUP6 ADD CALLDATALOAD PUSH8 0xFFFFFFFFFFFFFFFF DUP2 GT ISZERO PUSH2 0x1965 JUMPI PUSH1 0x0 DUP1 REVERT JUMPDEST PUSH2 0x1971 DUP8 DUP3 DUP9 ADD PUSH2 0x15A9 JUMP JUMPDEST SWAP3 POP POP PUSH2 0x140 PUSH2 0x1983 DUP8 DUP3 DUP9 ADD PUSH2 0x10FC JUMP JUMPDEST SWAP2 POP POP SWAP3 SWAP6 SWAP2 SWAP5 POP SWAP3 POP JUMP JUMPDEST PUSH1 0x0 DUP1 PUSH2 0x120 DUP4 DUP6 SUB SLT ISZERO PUSH2 0x19A3 JUMPI PUSH1 0x0 DUP1 REVERT JUMPDEST PUSH1 0x0 PUSH2 0x19B1 DUP6 DUP3 DUP7 ADD PUSH2 0x14E3 JUMP JUMPDEST SWAP3 POP POP PUSH2 0x100 DUP4 ADD CALLDATALOAD PUSH8 0xFFFFFFFFFFFFFFFF DUP2 GT ISZERO PUSH2 0x19CF JUMPI PUSH1 0x0 DUP1 REVERT JUMPDEST PUSH2 0x19DB DUP6 DUP3 DUP7 ADD PUSH2 0x15A9 JUMP JUMPDEST SWAP2 POP POP SWAP3 POP SWAP3 SWAP1 POP JUMP JUMPDEST PUSH1 0x0 DUP1 PUSH1 0x0 PUSH2 0x140 DUP5 DUP7 SUB SLT ISZERO PUSH2 0x19FB JUMPI PUSH1 0x0 DUP1 REVERT JUMPDEST PUSH1 0x0 PUSH2 0x1A09 DUP7 DUP3 DUP8 ADD PUSH2 0x14E3 JUMP JUMPDEST SWAP4 POP POP PUSH2 0x100 DUP5 ADD CALLDATALOAD PUSH8 0xFFFFFFFFFFFFFFFF DUP2 GT ISZERO PUSH2 0x1A27 JUMPI PUSH1 0x0 DUP1 REVERT JUMPDEST PUSH2 0x1A33 DUP7 DUP3 DUP8 ADD PUSH2 0x15A9 JUMP JUMPDEST SWAP3 POP POP PUSH2 0x120 PUSH2 0x1A45 DUP7 DUP3 DUP8 ADD PUSH2 0x10FC JUMP JUMPDEST SWAP2 POP POP SWAP3 POP SWAP3 POP SWAP3 JUMP JUMPDEST PUSH1 0x0 DUP1 PUSH1 0x0 DUP1 PUSH1 0x0 PUSH1 0xA0 DUP7 DUP9 SUB SLT ISZERO PUSH2 0x1A67 JUMPI PUSH1 0x0 DUP1 REVERT JUMPDEST PUSH1 0x0 PUSH2 0x1A75 DUP9 DUP3 DUP10 ADD PUSH2 0x164A JUMP JUMPDEST SWAP6 POP POP PUSH1 0x20 PUSH2 0x1A86 DUP9 DUP3 DUP10 ADD PUSH2 0x165F JUMP JUMPDEST SWAP5 POP POP PUSH1 0x40 PUSH2 0x1A97 DUP9 DUP3 DUP10 ADD PUSH2 0x164A JUMP JUMPDEST SWAP4 POP POP PUSH1 0x60 PUSH2 0x1AA8 DUP9 DUP3 DUP10 ADD PUSH2 0x164A JUMP JUMPDEST SWAP3 POP POP PUSH1 0x80 DUP7 ADD CALLDATALOAD PUSH8 0xFFFFFFFFFFFFFFFF DUP2 GT ISZERO PUSH2 0x1AC5 JUMPI PUSH1 0x0 DUP1 REVERT JUMPDEST PUSH2 0x1AD1 DUP9 DUP3 DUP10 ADD PUSH2 0x15A9 JUMP JUMPDEST SWAP2 POP POP SWAP3 SWAP6 POP SWAP3 SWAP6 SWAP1 SWAP4 POP JUMP JUMPDEST PUSH1 0x0 DUP1 PUSH1 0x0 DUP1 PUSH1 0x0 DUP1 PUSH1 0xC0 DUP8 DUP10 SUB SLT ISZERO PUSH2 0x1AF7 JUMPI PUSH1 0x0 DUP1 REVERT JUMPDEST PUSH1 0x0 PUSH2 0x1B05 DUP10 DUP3 DUP11 ADD PUSH2 0x164A JUMP JUMPDEST SWAP7 POP POP PUSH1 0x20 PUSH2 0x1B16 DUP10 DUP3 DUP11 ADD PUSH2 0x165F JUMP JUMPDEST SWAP6 POP POP PUSH1 0x40 PUSH2 0x1B27 DUP10 DUP3 DUP11 ADD PUSH2 0x164A JUMP JUMPDEST SWAP5 POP POP PUSH1 0x60 PUSH2 0x1B38 DUP10 DUP3 DUP11 ADD PUSH2 0x164A JUMP JUMPDEST SWAP4 POP POP PUSH1 0x80 DUP8 ADD CALLDATALOAD PUSH8 0xFFFFFFFFFFFFFFFF DUP2 GT ISZERO PUSH2 0x1B55 JUMPI PUSH1 0x0 DUP1 REVERT JUMPDEST PUSH2 0x1B61 DUP10 DUP3 DUP11 ADD PUSH2 0x15A9 JUMP JUMPDEST SWAP3 POP POP PUSH1 0xA0 PUSH2 0x1B72 DUP10 DUP3 DUP11 ADD PUSH2 0x10FC JUMP JUMPDEST SWAP2 POP POP SWAP3 SWAP6 POP SWAP3 SWAP6 POP SWAP3 SWAP6 JUMP JUMPDEST PUSH1 0x0 PUSH2 0x1B8B DUP4 DUP4 PUSH2 0x1EED JUMP JUMPDEST SWAP1 POP SWAP3 SWAP2 POP POP JUMP JUMPDEST PUSH1 0x0 PUSH2 0x1B9F DUP4 DUP4 PUSH2 0x1F44 JUMP JUMPDEST PUSH1 0x40 DUP4 ADD SWAP1 POP SWAP3 SWAP2 POP POP JUMP JUMPDEST PUSH1 0x0 PUSH2 0x1BB7 DUP4 DUP4 PUSH2 0x1F73 JUMP JUMPDEST PUSH1 0x60 DUP4 ADD SWAP1 POP SWAP3 SWAP2 POP POP JUMP JUMPDEST PUSH1 0x0 PUSH2 0x1BCF DUP4 DUP4 PUSH2 0x202A JUMP JUMPDEST PUSH1 0x20 DUP4 ADD SWAP1 POP SWAP3 SWAP2 POP POP JUMP JUMPDEST PUSH2 0x1BE4 DUP2 PUSH2 0x26D5 JUMP JUMPDEST DUP3 MSTORE POP POP JUMP JUMPDEST PUSH2 0x1BFB PUSH2 0x1BF6 DUP3 PUSH2 0x26D5 JUMP JUMPDEST PUSH2 0x27C5 JUMP JUMPDEST DUP3 MSTORE POP POP JUMP JUMPDEST PUSH1 0x0 PUSH2 0x1C0C DUP3 PUSH2 0x25EE JUMP JUMPDEST PUSH2 0x1C16 DUP2 DUP6 PUSH2 0x2659 JUMP JUMPDEST SWAP4 POP DUP4 PUSH1 0x20 DUP3 MUL DUP6 ADD PUSH2 0x1C28 DUP6 PUSH2 0x25AE JUMP JUMPDEST DUP1 PUSH1 0x0 JUMPDEST DUP6 DUP2 LT ISZERO PUSH2 0x1C64 JUMPI DUP5 DUP5 SUB DUP10 MSTORE DUP2 MLOAD PUSH2 0x1C45 DUP6 DUP3 PUSH2 0x1B7F JUMP JUMPDEST SWAP5 POP PUSH2 0x1C50 DUP4 PUSH2 0x2625 JUMP JUMPDEST SWAP3 POP PUSH1 0x20 DUP11 ADD SWAP10 POP POP PUSH1 0x1 DUP2 ADD SWAP1 POP PUSH2 0x1C2C JUMP JUMPDEST POP DUP3 SWAP8 POP DUP8 SWAP6 POP POP POP POP POP POP SWAP3 SWAP2 POP POP JUMP JUMPDEST PUSH1 0x0 PUSH2 0x1C81 DUP3 PUSH2 0x25F9 JUMP JUMPDEST PUSH2 0x1C8B DUP2 DUP6 PUSH2 0x266A JUMP JUMPDEST SWAP4 POP PUSH2 0x1C96 DUP4 PUSH2 0x25BE JUMP JUMPDEST DUP1 PUSH1 0x0 JUMPDEST DUP4 DUP2 LT ISZERO PUSH2 0x1CC7 JUMPI DUP2 MLOAD PUSH2 0x1CAE DUP9 DUP3 PUSH2 0x1B93 JUMP JUMPDEST SWAP8 POP PUSH2 0x1CB9 DUP4 PUSH2 0x2632 JUMP JUMPDEST SWAP3 POP POP PUSH1 0x1 DUP2 ADD SWAP1 POP PUSH2 0x1C9A JUMP JUMPDEST POP DUP6 SWAP4 POP POP POP POP SWAP3 SWAP2 POP POP JUMP JUMPDEST PUSH1 0x0 PUSH2 0x1CDF DUP3 PUSH2 0x2604 JUMP JUMPDEST PUSH2 0x1CE9 DUP2 DUP6 PUSH2 0x267B JUMP JUMPDEST SWAP4 POP PUSH2 0x1CF4 DUP4 PUSH2 0x25CE JUMP JUMPDEST DUP1 PUSH1 0x0 JUMPDEST DUP4 DUP2 LT ISZERO PUSH2 0x1D25 JUMPI DUP2 MLOAD PUSH2 0x1D0C DUP9 DUP3 PUSH2 0x1BAB JUMP JUMPDEST SWAP8 POP PUSH2 0x1D17 DUP4 PUSH2 0x263F JUMP JUMPDEST SWAP3 POP POP PUSH1 0x1 DUP2 ADD SWAP1 POP PUSH2 0x1CF8 JUMP JUMPDEST POP DUP6 SWAP4 POP POP POP POP SWAP3 SWAP2 POP POP JUMP JUMPDEST PUSH1 0x0 PUSH2 0x1D3D DUP3 PUSH2 0x260F JUMP JUMPDEST PUSH2 0x1D47 DUP2 DUP6 PUSH2 0x268C JUMP JUMPDEST SWAP4 POP PUSH2 0x1D52 DUP4 PUSH2 0x25DE JUMP JUMPDEST DUP1 PUSH1 0x0 JUMPDEST DUP4 DUP2 LT ISZERO PUSH2 0x1D83 JUMPI DUP2 MLOAD PUSH2 0x1D6A DUP9 DUP3 PUSH2 0x1BC3 JUMP JUMPDEST SWAP8 POP PUSH2 0x1D75 DUP4 PUSH2 0x264C JUMP JUMPDEST SWAP3 POP POP PUSH1 0x1 DUP2 ADD SWAP1 POP PUSH2 0x1D56 JUMP JUMPDEST POP DUP6 SWAP4 POP POP POP POP SWAP3 SWAP2 POP POP JUMP JUMPDEST PUSH2 0x1D99 DUP2 PUSH2 0x26E7 JUMP JUMPDEST DUP3 MSTORE POP POP JUMP JUMPDEST PUSH2 0x1DA8 DUP2 PUSH2 0x26E7 JUMP JUMPDEST DUP3 MSTORE POP POP JUMP JUMPDEST PUSH2 0x1DB7 DUP2 PUSH2 0x26F3 JUMP JUMPDEST DUP3 MSTORE POP POP JUMP JUMPDEST PUSH2 0x1DCE PUSH2 0x1DC9 DUP3 PUSH2 0x26F3 JUMP JUMPDEST PUSH2 0x27D7 JUMP JUMPDEST DUP3 MSTORE POP POP JUMP JUMPDEST PUSH1 0x0 PUSH2 0x1DDF DUP3 PUSH2 0x261A JUMP JUMPDEST PUSH2 0x1DE9 DUP2 DUP6 PUSH2 0x269D JUMP JUMPDEST SWAP4 POP PUSH2 0x1DF9 DUP2 DUP6 PUSH1 0x20 DUP7 ADD PUSH2 0x2761 JUMP JUMPDEST PUSH2 0x1E02 DUP2 PUSH2 0x2850 JUMP JUMPDEST DUP5 ADD SWAP2 POP POP SWAP3 SWAP2 POP POP JUMP JUMPDEST PUSH1 0x0 PUSH2 0x1E18 DUP3 PUSH2 0x261A JUMP JUMPDEST PUSH2 0x1E22 DUP2 DUP6 PUSH2 0x26AE JUMP JUMPDEST SWAP4 POP PUSH2 0x1E32 DUP2 DUP6 PUSH1 0x20 DUP7 ADD PUSH2 0x2761 JUMP JUMPDEST DUP1 DUP5 ADD SWAP2 POP POP SWAP3 SWAP2 POP POP JUMP JUMPDEST PUSH1 0x0 PUSH2 0x1E4B PUSH1 0x23 DUP4 PUSH2 0x26B9 JUMP JUMPDEST SWAP2 POP PUSH2 0x1E56 DUP3 PUSH2 0x2888 JUMP JUMPDEST PUSH1 0x40 DUP3 ADD SWAP1 POP SWAP2 SWAP1 POP JUMP JUMPDEST PUSH1 0x0 PUSH2 0x1E6E PUSH1 0x1E DUP4 PUSH2 0x26B9 JUMP JUMPDEST SWAP2 POP PUSH2 0x1E79 DUP3 PUSH2 0x28D7 JUMP JUMPDEST PUSH1 0x20 DUP3 ADD SWAP1 POP SWAP2 SWAP1 POP JUMP JUMPDEST PUSH1 0x0 PUSH2 0x1E91 PUSH1 0x1C DUP4 PUSH2 0x26CA JUMP JUMPDEST SWAP2 POP PUSH2 0x1E9C DUP3 PUSH2 0x2900 JUMP JUMPDEST PUSH1 0x1C DUP3 ADD SWAP1 POP SWAP2 SWAP1 POP JUMP JUMPDEST PUSH1 0x0 PUSH2 0x1EB4 PUSH1 0x1C DUP4 PUSH2 0x26B9 JUMP JUMPDEST SWAP2 POP PUSH2 0x1EBF DUP3 PUSH2 0x2929 JUMP JUMPDEST PUSH1 0x20 DUP3 ADD SWAP1 POP SWAP2 SWAP1 POP JUMP JUMPDEST PUSH1 0x0 PUSH2 0x1ED7 PUSH1 0x14 DUP4 PUSH2 0x26B9 JUMP JUMPDEST SWAP2 POP PUSH2 0x1EE2 DUP3 PUSH2 0x2952 JUMP JUMPDEST PUSH1 0x20 DUP3 ADD SWAP1 POP SWAP2 SWAP1 POP JUMP JUMPDEST PUSH1 0x0 PUSH1 0x60 DUP4 ADD PUSH1 0x0 DUP4 ADD MLOAD PUSH2 0x1F05 PUSH1 0x0 DUP7 ADD DUP3 PUSH2 0x1BDB JUMP JUMPDEST POP PUSH1 0x20 DUP4 ADD MLOAD DUP5 DUP3 SUB PUSH1 0x20 DUP7 ADD MSTORE PUSH2 0x1F1D DUP3 DUP3 PUSH2 0x1D32 JUMP JUMPDEST SWAP2 POP POP PUSH1 0x40 DUP4 ADD MLOAD DUP5 DUP3 SUB PUSH1 0x40 DUP7 ADD MSTORE PUSH2 0x1F37 DUP3 DUP3 PUSH2 0x1D32 JUMP JUMPDEST SWAP2 POP POP DUP1 SWAP2 POP POP SWAP3 SWAP2 POP POP JUMP JUMPDEST PUSH1 0x40 DUP3 ADD PUSH1 0x0 DUP3 ADD MLOAD PUSH2 0x1F5A PUSH1 0x0 DUP6 ADD DUP3 PUSH2 0x1BDB JUMP JUMPDEST POP PUSH1 0x20 DUP3 ADD MLOAD PUSH2 0x1F6D PUSH1 0x20 DUP6 ADD DUP3 PUSH2 0x202A JUMP JUMPDEST POP POP POP POP JUMP JUMPDEST PUSH1 0x60 DUP3 ADD PUSH1 0x0 DUP3 ADD MLOAD PUSH2 0x1F89 PUSH1 0x0 DUP6 ADD DUP3 PUSH2 0x1BDB JUMP JUMPDEST POP PUSH1 0x20 DUP3 ADD MLOAD PUSH2 0x1F9C PUSH1 0x20 DUP6 ADD DUP3 PUSH2 0x202A JUMP JUMPDEST POP PUSH1 0x40 DUP3 ADD MLOAD PUSH2 0x1FAF PUSH1 0x40 DUP6 ADD DUP3 PUSH2 0x1D90 JUMP JUMPDEST POP POP POP POP JUMP JUMPDEST PUSH1 0x0 PUSH1 0x60 DUP4 ADD PUSH1 0x0 DUP4 ADD MLOAD DUP5 DUP3 SUB PUSH1 0x0 DUP7 ADD MSTORE PUSH2 0x1FD2 DUP3 DUP3 PUSH2 0x1CD4 JUMP JUMPDEST SWAP2 POP POP PUSH1 0x20 DUP4 ADD MLOAD DUP5 DUP3 SUB PUSH1 0x20 DUP7 ADD MSTORE PUSH2 0x1FEC DUP3 DUP3 PUSH2 0x1C76 JUMP JUMPDEST SWAP2 POP POP PUSH1 0x40 DUP4 ADD MLOAD DUP5 DUP3 SUB PUSH1 0x40 DUP7 ADD MSTORE PUSH2 0x2006 DUP3 DUP3 PUSH2 0x1C01 JUMP JUMPDEST SWAP2 POP POP DUP1 SWAP2 POP POP SWAP3 SWAP2 POP POP JUMP JUMPDEST PUSH2 0x2024 PUSH2 0x201F DUP3 PUSH2 0x26FD JUMP JUMPDEST PUSH2 0x27E1 JUMP JUMPDEST DUP3 MSTORE POP POP JUMP JUMPDEST PUSH2 0x2033 DUP2 PUSH2 0x272B JUMP JUMPDEST DUP3 MSTORE POP POP JUMP JUMPDEST PUSH2 0x2042 DUP2 PUSH2 0x272B JUMP JUMPDEST DUP3 MSTORE POP POP JUMP JUMPDEST PUSH2 0x2059 PUSH2 0x2054 DUP3 PUSH2 0x272B JUMP JUMPDEST PUSH2 0x2805 JUMP JUMPDEST DUP3 MSTORE POP POP JUMP JUMPDEST PUSH2 0x2070 PUSH2 0x206B DUP3 PUSH2 0x2735 JUMP JUMPDEST PUSH2 0x280F JUMP JUMPDEST DUP3 MSTORE POP POP JUMP JUMPDEST PUSH2 0x207F DUP2 PUSH2 0x2745 JUMP JUMPDEST DUP3 MSTORE POP POP JUMP JUMPDEST PUSH1 0x0 PUSH2 0x2091 DUP3 DUP7 PUSH2 0x1BEA JUMP JUMPDEST PUSH1 0x14 DUP3 ADD SWAP2 POP PUSH2 0x20A1 DUP3 DUP6 PUSH2 0x2048 JUMP JUMPDEST PUSH1 0x20 DUP3 ADD SWAP2 POP PUSH2 0x20B1 DUP3 DUP5 PUSH2 0x2048 JUMP JUMPDEST PUSH1 0x20 DUP3 ADD SWAP2 POP DUP2 SWAP1 POP SWAP5 SWAP4 POP POP POP POP JUMP JUMPDEST PUSH1 0x0 PUSH2 0x20CE DUP3 DUP12 PUSH2 0x1BEA JUMP JUMPDEST PUSH1 0x14 DUP3 ADD SWAP2 POP PUSH2 0x20DE DUP3 DUP11 PUSH2 0x2048 JUMP JUMPDEST PUSH1 0x20 DUP3 ADD SWAP2 POP PUSH2 0x20EE DUP3 DUP10 PUSH2 0x2048 JUMP JUMPDEST PUSH1 0x20 DUP3 ADD SWAP2 POP PUSH2 0x20FE DUP3 DUP9 PUSH2 0x1BEA JUMP JUMPDEST PUSH1 0x14 DUP3 ADD SWAP2 POP PUSH2 0x210E DUP3 DUP8 PUSH2 0x2048 JUMP JUMPDEST PUSH1 0x20 DUP3 ADD SWAP2 POP PUSH2 0x211E DUP3 DUP7 PUSH2 0x1BEA JUMP JUMPDEST PUSH1 0x14 DUP3 ADD SWAP2 POP PUSH2 0x212E DUP3 DUP6 PUSH2 0x205F JUMP JUMPDEST PUSH1 0x4 DUP3 ADD SWAP2 POP PUSH2 0x213E DUP3 DUP5 PUSH2 0x2013 JUMP JUMPDEST PUSH1 0x2 DUP3 ADD SWAP2 POP DUP2 SWAP1 POP SWAP10 SWAP9 POP POP POP POP POP POP POP POP POP JUMP JUMPDEST PUSH1 0x0 PUSH2 0x2160 DUP3 DUP14 PUSH2 0x1BEA JUMP JUMPDEST PUSH1 0x14 DUP3 ADD SWAP2 POP PUSH2 0x2170 DUP3 DUP13 PUSH2 0x2048 JUMP JUMPDEST PUSH1 0x20 DUP3 ADD SWAP2 POP PUSH2 0x2180 DUP3 DUP12 PUSH2 0x2048 JUMP JUMPDEST PUSH1 0x20 DUP3 ADD SWAP2 POP PUSH2 0x2190 DUP3 DUP11 PUSH2 0x1BEA JUMP JUMPDEST PUSH1 0x14 DUP3 ADD SWAP2 POP PUSH2 0x21A0 DUP3 DUP10 PUSH2 0x2048 JUMP JUMPDEST PUSH1 0x20 DUP3 ADD SWAP2 POP PUSH2 0x21B0 DUP3 DUP9 PUSH2 0x1BEA JUMP JUMPDEST PUSH1 0x14 DUP3 ADD SWAP2 POP PUSH2 0x21C0 DUP3 DUP8 PUSH2 0x205F JUMP JUMPDEST PUSH1 0x4 DUP3 ADD SWAP2 POP PUSH2 0x21D0 DUP3 DUP7 PUSH2 0x205F JUMP JUMPDEST PUSH1 0x4 DUP3 ADD SWAP2 POP PUSH2 0x21E0 DUP3 DUP6 PUSH2 0x2013 JUMP JUMPDEST PUSH1 0x2 DUP3 ADD SWAP2 POP PUSH2 0x21F0 DUP3 DUP5 PUSH2 0x2013 JUMP JUMPDEST PUSH1 0x2 DUP3 ADD SWAP2 POP DUP2 SWAP1 POP SWAP12 SWAP11 POP POP POP POP POP POP POP POP POP POP POP JUMP JUMPDEST PUSH1 0x0 PUSH2 0x2214 DUP3 DUP5 PUSH2 0x1E0D JUMP JUMPDEST SWAP2 POP DUP2 SWAP1 POP SWAP3 SWAP2 POP POP JUMP JUMPDEST PUSH1 0x0 PUSH2 0x222B DUP3 DUP8 PUSH2 0x1E0D JUMP JUMPDEST SWAP2 POP PUSH2 0x2237 DUP3 DUP7 PUSH2 0x1E0D JUMP JUMPDEST SWAP2 POP PUSH2 0x2243 DUP3 DUP6 PUSH2 0x1BEA JUMP JUMPDEST PUSH1 0x14 DUP3 ADD SWAP2 POP PUSH2 0x2253 DUP3 DUP5 PUSH2 0x2048 JUMP JUMPDEST PUSH1 0x20 DUP3 ADD SWAP2 POP DUP2 SWAP1 POP SWAP6 SWAP5 POP POP POP POP POP JUMP JUMPDEST PUSH1 0x0 PUSH2 0x2271 DUP3 DUP9 PUSH2 0x1E0D JUMP JUMPDEST SWAP2 POP PUSH2 0x227D DUP3 DUP8 PUSH2 0x1E0D JUMP JUMPDEST SWAP2 POP PUSH2 0x2289 DUP3 DUP7 PUSH2 0x1E0D JUMP JUMPDEST SWAP2 POP PUSH2 0x2295 DUP3 DUP6 PUSH2 0x1BEA JUMP JUMPDEST PUSH1 0x14 DUP3 ADD SWAP2 POP PUSH2 0x22A5 DUP3 DUP5 PUSH2 0x2048 JUMP JUMPDEST PUSH1 0x20 DUP3 ADD SWAP2 POP DUP2 SWAP1 POP SWAP7 SWAP6 POP POP POP POP POP POP JUMP JUMPDEST PUSH1 0x0 PUSH2 0x22C3 DUP3 PUSH2 0x1E84 JUMP JUMPDEST SWAP2 POP PUSH2 0x22CF DUP3 DUP5 PUSH2 0x1DBD JUMP JUMPDEST PUSH1 0x20 DUP3 ADD SWAP2 POP DUP2 SWAP1 POP SWAP3 SWAP2 POP POP JUMP JUMPDEST PUSH1 0x0 PUSH2 0x22EA DUP3 DUP11 PUSH2 0x2048 JUMP JUMPDEST PUSH1 0x20 DUP3 ADD SWAP2 POP PUSH2 0x22FA DUP3 DUP10 PUSH2 0x205F JUMP JUMPDEST PUSH1 0x4 DUP3 ADD SWAP2 POP PUSH2 0x230A DUP3 DUP9 PUSH2 0x2048 JUMP JUMPDEST PUSH1 0x20 DUP3 ADD SWAP2 POP PUSH2 0x231A DUP3 DUP8 PUSH2 0x2048 JUMP JUMPDEST PUSH1 0x20 DUP3 ADD SWAP2 POP PUSH2 0x232A DUP3 DUP7 PUSH2 0x1E0D JUMP JUMPDEST SWAP2 POP PUSH2 0x2336 DUP3 DUP6 PUSH2 0x1BEA JUMP JUMPDEST PUSH1 0x14 DUP3 ADD SWAP2 POP PUSH2 0x2346 DUP3 DUP5 PUSH2 0x2048 JUMP JUMPDEST PUSH1 0x20 DUP3 ADD SWAP2 POP DUP2 SWAP1 POP SWAP9 SWAP8 POP POP POP POP POP POP POP POP JUMP JUMPDEST PUSH1 0x0 PUSH1 0x20 DUP3 ADD SWAP1 POP PUSH2 0x2370 PUSH1 0x0 DUP4 ADD DUP5 PUSH2 0x1D9F JUMP JUMPDEST SWAP3 SWAP2 POP POP JUMP JUMPDEST PUSH1 0x0 PUSH1 0x40 DUP3 ADD SWAP1 POP PUSH2 0x238B PUSH1 0x0 DUP4 ADD DUP6 PUSH2 0x1DAE JUMP JUMPDEST DUP2 DUP2 SUB PUSH1 0x20 DUP4 ADD MSTORE PUSH2 0x239D DUP2 DUP5 PUSH2 0x1DD4 JUMP JUMPDEST SWAP1 POP SWAP4 SWAP3 POP POP POP JUMP JUMPDEST PUSH1 0x0 PUSH1 0x80 DUP3 ADD SWAP1 POP PUSH2 0x23BB PUSH1 0x0 DUP4 ADD DUP8 PUSH2 0x1DAE JUMP JUMPDEST PUSH2 0x23C8 PUSH1 0x20 DUP4 ADD DUP7 PUSH2 0x2076 JUMP JUMPDEST PUSH2 0x23D5 PUSH1 0x40 DUP4 ADD DUP6 PUSH2 0x1DAE JUMP JUMPDEST PUSH2 0x23E2 PUSH1 0x60 DUP4 ADD DUP5 PUSH2 0x1DAE JUMP JUMPDEST SWAP6 SWAP5 POP POP POP POP POP JUMP JUMPDEST PUSH1 0x0 PUSH1 0x20 DUP3 ADD SWAP1 POP DUP2 DUP2 SUB PUSH1 0x0 DUP4 ADD MSTORE PUSH2 0x2404 DUP2 PUSH2 0x1E3E JUMP JUMPDEST SWAP1 POP SWAP2 SWAP1 POP JUMP JUMPDEST PUSH1 0x0 PUSH1 0x20 DUP3 ADD SWAP1 POP DUP2 DUP2 SUB PUSH1 0x0 DUP4 ADD MSTORE PUSH2 0x2424 DUP2 PUSH2 0x1E61 JUMP JUMPDEST SWAP1 POP SWAP2 SWAP1 POP JUMP JUMPDEST PUSH1 0x0 PUSH1 0x20 DUP3 ADD SWAP1 POP DUP2 DUP2 SUB PUSH1 0x0 DUP4 ADD MSTORE PUSH2 0x2444 DUP2 PUSH2 0x1EA7 JUMP JUMPDEST SWAP1 POP SWAP2 SWAP1 POP JUMP JUMPDEST PUSH1 0x0 PUSH1 0x20 DUP3 ADD SWAP1 POP DUP2 DUP2 SUB PUSH1 0x0 DUP4 ADD MSTORE PUSH2 0x2464 DUP2 PUSH2 0x1ECA JUMP JUMPDEST SWAP1 POP SWAP2 SWAP1 POP JUMP JUMPDEST PUSH1 0x0 PUSH1 0x20 DUP3 ADD SWAP1 POP DUP2 DUP2 SUB PUSH1 0x0 DUP4 ADD MSTORE PUSH2 0x2485 DUP2 DUP5 PUSH2 0x1FB5 JUMP JUMPDEST SWAP1 POP SWAP3 SWAP2 POP POP JUMP JUMPDEST PUSH1 0x0 PUSH1 0x20 DUP3 ADD SWAP1 POP PUSH2 0x24A2 PUSH1 0x0 DUP4 ADD DUP5 PUSH2 0x2039 JUMP JUMPDEST SWAP3 SWAP2 POP POP JUMP JUMPDEST PUSH1 0x0 PUSH2 0x24B2 PUSH2 0x24C3 JUMP JUMPDEST SWAP1 POP PUSH2 0x24BE DUP3 DUP3 PUSH2 0x2794 JUMP JUMPDEST SWAP2 SWAP1 POP JUMP JUMPDEST PUSH1 0x0 PUSH1 0x40 MLOAD SWAP1 POP SWAP1 JUMP JUMPDEST PUSH1 0x0 PUSH8 0xFFFFFFFFFFFFFFFF DUP3 GT ISZERO PUSH2 0x24E8 JUMPI PUSH2 0x24E7 PUSH2 0x2821 JUMP JUMPDEST JUMPDEST PUSH1 0x20 DUP3 MUL SWAP1 POP PUSH1 0x20 DUP2 ADD SWAP1 POP SWAP2 SWAP1 POP JUMP JUMPDEST PUSH1 0x0 PUSH8 0xFFFFFFFFFFFFFFFF DUP3 GT ISZERO PUSH2 0x2514 JUMPI PUSH2 0x2513 PUSH2 0x2821 JUMP JUMPDEST JUMPDEST PUSH1 0x20 DUP3 MUL SWAP1 POP PUSH1 0x20 DUP2 ADD SWAP1 POP SWAP2 SWAP1 POP JUMP JUMPDEST PUSH1 0x0 PUSH8 0xFFFFFFFFFFFFFFFF DUP3 GT ISZERO PUSH2 0x2540 JUMPI PUSH2 0x253F PUSH2 0x2821 JUMP JUMPDEST JUMPDEST PUSH1 0x20 DUP3 MUL SWAP1 POP PUSH1 0x20 DUP2 ADD SWAP1 POP SWAP2 SWAP1 POP JUMP JUMPDEST PUSH1 0x0 PUSH8 0xFFFFFFFFFFFFFFFF DUP3 GT ISZERO PUSH2 0x256C JUMPI PUSH2 0x256B PUSH2 0x2821 JUMP JUMPDEST JUMPDEST PUSH1 0x20 DUP3 MUL SWAP1 POP PUSH1 0x20 DUP2 ADD SWAP1 POP SWAP2 SWAP1 POP JUMP JUMPDEST PUSH1 0x0 PUSH8 0xFFFFFFFFFFFFFFFF DUP3 GT ISZERO PUSH2 0x2598 JUMPI PUSH2 0x2597 PUSH2 0x2821 JUMP JUMPDEST JUMPDEST PUSH2 0x25A1 DUP3 PUSH2 0x2850 JUMP JUMPDEST SWAP1 POP PUSH1 0x20 DUP2 ADD SWAP1 POP SWAP2 SWAP1 POP JUMP JUMPDEST PUSH1 0x0 DUP2 SWAP1 POP PUSH1 0x20 DUP3 ADD SWAP1 POP SWAP2 SWAP1 POP JUMP JUMPDEST PUSH1 0x0 DUP2 SWAP1 POP PUSH1 0x20 DUP3 ADD SWAP1 POP SWAP2 SWAP1 POP JUMP JUMPDEST PUSH1 0x0 DUP2 SWAP1 POP PUSH1 0x20 DUP3 ADD SWAP1 POP SWAP2 SWAP1 POP JUMP JUMPDEST PUSH1 0x0 DUP2 SWAP1 POP PUSH1 0x20 DUP3 ADD SWAP1 POP SWAP2 SWAP1 POP JUMP JUMPDEST PUSH1 0x0 DUP2 MLOAD SWAP1 POP SWAP2 SWAP1 POP JUMP JUMPDEST PUSH1 0x0 DUP2 MLOAD SWAP1 POP SWAP2 SWAP1 POP JUMP JUMPDEST PUSH1 0x0 DUP2 MLOAD SWAP1 POP SWAP2 SWAP1 POP JUMP JUMPDEST PUSH1 0x0 DUP2 MLOAD SWAP1 POP SWAP2 SWAP1 POP JUMP JUMPDEST PUSH1 0x0 DUP2 MLOAD SWAP1 POP SWAP2 SWAP1 POP JUMP JUMPDEST PUSH1 0x0 PUSH1 0x20 DUP3 ADD SWAP1 POP SWAP2 SWAP1 POP JUMP JUMPDEST PUSH1 0x0 PUSH1 0x20 DUP3 ADD SWAP1 POP SWAP2 SWAP1 POP JUMP JUMPDEST PUSH1 0x0 PUSH1 0x20 DUP3 ADD SWAP1 POP SWAP2 SWAP1 POP JUMP JUMPDEST PUSH1 0x0 PUSH1 0x20 DUP3 ADD SWAP1 POP SWAP2 SWAP1 POP JUMP JUMPDEST PUSH1 0x0 DUP3 DUP3 MSTORE PUSH1 0x20 DUP3 ADD SWAP1 POP SWAP3 SWAP2 POP POP JUMP JUMPDEST PUSH1 0x0 DUP3 DUP3 MSTORE PUSH1 0x20 DUP3 ADD SWAP1 POP SWAP3 SWAP2 POP POP JUMP JUMPDEST PUSH1 0x0 DUP3 DUP3 MSTORE PUSH1 0x20 DUP3 ADD SWAP1 POP SWAP3 SWAP2 POP POP JUMP JUMPDEST PUSH1 0x0 DUP3 DUP3 MSTORE PUSH1 0x20 DUP3 ADD SWAP1 POP SWAP3 SWAP2 POP POP JUMP JUMPDEST PUSH1 0x0 DUP3 DUP3 MSTORE PUSH1 0x20 DUP3 ADD SWAP1 POP SWAP3 SWAP2 POP POP JUMP JUMPDEST PUSH1 0x0 DUP2 SWAP1 POP SWAP3 SWAP2 POP POP JUMP JUMPDEST PUSH1 0x0 DUP3 DUP3 MSTORE PUSH1 0x20 DUP3 ADD SWAP1 POP SWAP3 SWAP2 POP POP JUMP JUMPDEST PUSH1 0x0 DUP2 SWAP1 POP SWAP3 SWAP2 POP POP JUMP JUMPDEST PUSH1 0x0 PUSH2 0x26E0 DUP3 PUSH2 0x270B JUMP JUMPDEST SWAP1 POP SWAP2 SWAP1 POP JUMP JUMPDEST PUSH1 0x0 DUP2 ISZERO ISZERO SWAP1 POP SWAP2 SWAP1 POP JUMP JUMPDEST PUSH1 0x0 DUP2 SWAP1 POP SWAP2 SWAP1 POP JUMP JUMPDEST PUSH1 0x0 PUSH2 0xFFFF DUP3 AND SWAP1 POP SWAP2 SWAP1 POP JUMP JUMPDEST PUSH1 0x0 PUSH20 0xFFFFFFFFFFFFFFFFFFFFFFFFFFFFFFFFFFFFFFFF DUP3 AND SWAP1 POP SWAP2 SWAP1 POP JUMP JUMPDEST PUSH1 0x0 DUP2 SWAP1 POP SWAP2 SWAP1 POP JUMP JUMPDEST PUSH1 0x0 PUSH4 0xFFFFFFFF DUP3 AND SWAP1 POP SWAP2 SWAP1 POP JUMP JUMPDEST PUSH1 0x0 PUSH1 0xFF DUP3 AND SWAP1 POP SWAP2 SWAP1 POP JUMP JUMPDEST DUP3 DUP2 DUP4 CALLDATACOPY PUSH1 0x0 DUP4 DUP4 ADD MSTORE POP POP POP JUMP JUMPDEST PUSH1 0x0 JUMPDEST DUP4 DUP2 LT ISZERO PUSH2 0x277F JUMPI DUP1 DUP3 ADD MLOAD DUP2 DUP5 ADD MSTORE PUSH1 0x20 DUP2 ADD SWAP1 POP PUSH2 0x2764 JUMP JUMPDEST DUP4 DUP2 GT ISZERO PUSH2 0x278E JUMPI PUSH1 0x0 DUP5 DUP5 ADD MSTORE JUMPDEST POP POP POP POP JUMP JUMPDEST PUSH2 0x279D DUP3 PUSH2 0x2850 JUMP JUMPDEST DUP2 ADD DUP2 DUP2 LT PUSH8 0xFFFFFFFFFFFFFFFF DUP3 GT OR ISZERO PUSH2 0x27BC JUMPI PUSH2 0x27BB PUSH2 0x2821 JUMP JUMPDEST JUMPDEST DUP1 PUSH1 0x40 MSTORE POP POP POP JUMP JUMPDEST PUSH1 0x0 PUSH2 0x27D0 DUP3 PUSH2 0x27F3 JUMP JUMPDEST SWAP1 POP SWAP2 SWAP1 POP JUMP JUMPDEST PUSH1 0x0 DUP2 SWAP1 POP SWAP2 SWAP1 POP JUMP JUMPDEST PUSH1 0x0 PUSH2 0x27EC DUP3 PUSH2 0x286E JUMP JUMPDEST SWAP1 POP SWAP2 SWAP1 POP JUMP JUMPDEST PUSH1 0x0 PUSH2 0x27FE DUP3 PUSH2 0x287B JUMP JUMPDEST SWAP1 POP SWAP2 SWAP1 POP JUMP JUMPDEST PUSH1 0x0 DUP2 SWAP1 POP SWAP2 SWAP1 POP JUMP JUMPDEST PUSH1 0x0 PUSH2 0x281A DUP3 PUSH2 0x2861 JUMP JUMPDEST SWAP1 POP SWAP2 SWAP1 POP JUMP JUMPDEST PUSH32 0x4E487B7100000000000000000000000000000000000000000000000000000000 PUSH1 0x0 MSTORE PUSH1 0x41 PUSH1 0x4 MSTORE PUSH1 0x24 PUSH1 0x0 REVERT JUMPDEST PUSH1 0x0 PUSH1 0x1F NOT PUSH1 0x1F DUP4 ADD AND SWAP1 POP SWAP2 SWAP1 POP JUMP JUMPDEST PUSH1 0x0 DUP2 PUSH1 0xE0 SHL SWAP1 POP SWAP2 SWAP1 POP JUMP JUMPDEST PUSH1 0x0 DUP2 PUSH1 0xF0 SHL SWAP1 POP SWAP2 SWAP1 POP JUMP JUMPDEST PUSH1 0x0 DUP2 PUSH1 0x60 SHL SWAP1 POP SWAP2 SWAP1 POP JUMP JUMPDEST PUSH32 0x52656E65676F74696174696F6E205369676E6174757265206861732065787069 PUSH1 0x0 DUP3 ADD MSTORE PUSH32 0x7265640000000000000000000000000000000000000000000000000000000000 PUSH1 0x20 DUP3 ADD MSTORE POP JUMP JUMPDEST PUSH32 0x426F72726F776572205369676E61747572652068617320657870697265640000 PUSH1 0x0 DUP3 ADD MSTORE POP JUMP JUMPDEST PUSH32 0x19457468657265756D205369676E6564204D6573736167653A0A333200000000 PUSH1 0x0 DUP3 ADD MSTORE POP JUMP JUMPDEST PUSH32 0x4C656E646572205369676E617475726520686173206578706972656400000000 PUSH1 0x0 DUP3 ADD MSTORE POP JUMP JUMPDEST PUSH32 0x4C6F616E206973207A65726F2061646472657373000000000000000000000000 PUSH1 0x0 DUP3 ADD MSTORE POP JUMP JUMPDEST PUSH2 0x2984 DUP2 PUSH2 0x26D5 JUMP JUMPDEST DUP2 EQ PUSH2 0x298F JUMPI PUSH1 0x0 DUP1 REVERT JUMPDEST POP JUMP JUMPDEST PUSH2 0x299B DUP2 PUSH2 0x26E7 JUMP JUMPDEST DUP2 EQ PUSH2 0x29A6 JUMPI PUSH1 0x0 DUP1 REVERT JUMPDEST POP JUMP JUMPDEST PUSH2 0x29B2 DUP2 PUSH2 0x26F3 JUMP JUMPDEST DUP2 EQ PUSH2 0x29BD JUMPI PUSH1 0x0 DUP1 REVERT JUMPDEST POP JUMP JUMPDEST PUSH2 0x29C9 DUP2 PUSH2 0x26FD JUMP JUMPDEST DUP2 EQ PUSH2 0x29D4 JUMPI PUSH1 0x0 DUP1 REVERT JUMPDEST POP JUMP JUMPDEST PUSH2 0x29E0 DUP2 PUSH2 0x272B JUMP JUMPDEST DUP2 EQ PUSH2 0x29EB JUMPI PUSH1 0x0 DUP1 REVERT JUMPDEST POP JUMP JUMPDEST PUSH2 0x29F7 DUP2 PUSH2 0x2735 JUMP JUMPDEST DUP2 EQ PUSH2 0x2A02 JUMPI PUSH1 0x0 DUP1 REVERT JUMPDEST POP JUMP INVALID LOG2 PUSH5 0x6970667358 0x22 SLT KECCAK256 STOP 0xE6 SUB ADD PUSH2 0xE073 MOD MULMOD 0xDF 0xCE 0xBC CALLDATACOPY 0xFB 0x4B 0xF7 GASLIMIT 0xCB 0x49 0x4C SELFDESTRUCT DUP13 DUP4 CALLDATACOPY 0xC4 0xC5 0xE5 MUL SWAP1 GASPRICE 0x28 0xBE PUSH5 0x736F6C6343 STOP ADDMOD DIV STOP CALLER "
				},
				"gasEstimates": {
					"creation": {
						"codeDepositCost": "2162200",
						"executionCost": "2331",
						"totalCost": "2164531"
					},
					"external": {
						"getChainID()": "400",
						"isValidBorrowerSignature(LoanData.ListingTerms,LoanData.Signature)": "infinite",
						"isValidBorrowerSignature(LoanData.ListingTerms,LoanData.Signature,address)": "infinite",
						"isValidBorrowerSignatureBundle(LoanData.ListingTerms,IBundleBuilder.BundleElements,LoanData.Signature)": "infinite",
						"isValidBorrowerSignatureBundle(LoanData.ListingTerms,IBundleBuilder.BundleElements,LoanData.Signature,address)": "infinite",
						"isValidLenderRenegotiationSignature(uint256,uint32,uint256,uint256,LoanData.Signature)": "infinite",
						"isValidLenderRenegotiationSignature(uint256,uint32,uint256,uint256,LoanData.Signature,address)": "infinite",
						"isValidLenderSignature(LoanData.Offer,LoanData.Signature)": "infinite",
						"isValidLenderSignature(LoanData.Offer,LoanData.Signature,address)": "infinite",
						"isValidLenderSignatureBundle(LoanData.Offer,IBundleBuilder.BundleElements,LoanData.Signature)": "infinite",
						"isValidLenderSignatureBundle(LoanData.Offer,IBundleBuilder.BundleElements,LoanData.Signature,address)": "infinite"
					},
					"internal": {
						"getEncodedListing(struct LoanData.ListingTerms memory)": "infinite",
						"getEncodedOffer(struct LoanData.Offer memory)": "infinite",
						"getEncodedSignature(struct LoanData.Signature memory)": "infinite"
					}
				},
				"methodIdentifiers": {
					"getChainID()": "564b81ef",
					"isValidBorrowerSignature(LoanData.ListingTerms,LoanData.Signature)": "4051a17a",
					"isValidBorrowerSignature(LoanData.ListingTerms,LoanData.Signature,address)": "c4212921",
					"isValidBorrowerSignatureBundle(LoanData.ListingTerms,IBundleBuilder.BundleElements,LoanData.Signature)": "2eb68793",
					"isValidBorrowerSignatureBundle(LoanData.ListingTerms,IBundleBuilder.BundleElements,LoanData.Signature,address)": "3ce5ed9f",
					"isValidLenderRenegotiationSignature(uint256,uint32,uint256,uint256,LoanData.Signature)": "d06ff741",
					"isValidLenderRenegotiationSignature(uint256,uint32,uint256,uint256,LoanData.Signature,address)": "87c0a573",
					"isValidLenderSignature(LoanData.Offer,LoanData.Signature)": "eb2ac63f",
					"isValidLenderSignature(LoanData.Offer,LoanData.Signature,address)": "6ab81ec0",
					"isValidLenderSignatureBundle(LoanData.Offer,IBundleBuilder.BundleElements,LoanData.Signature)": "fb7a322a",
					"isValidLenderSignatureBundle(LoanData.Offer,IBundleBuilder.BundleElements,LoanData.Signature,address)": "a819956e"
				}
			},
			"storageLayout": {
				"storage": [],
				"types": null
			},
			"userdoc": {
				"kind": "user",
				"methods": {
					"isValidBorrowerSignature(LoanData.ListingTerms,LoanData.Signature)": {
						"notice": "This function is when the lender accepts a borrower's binding listing terms, to validate the lender's signature that the borrower provided off-chain to verify that it did indeed made such listing."
					},
					"isValidBorrowerSignatureBundle(LoanData.ListingTerms,IBundleBuilder.BundleElements,LoanData.Signature)": {
						"notice": "This function is when the lender accepts a borrower's binding listing terms, to validate the lender's signature that the borrower provided off-chain to verify that it did indeed made such listing."
					},
					"isValidLenderRenegotiationSignature(uint256,uint32,uint256,uint256,LoanData.Signature)": {
						"notice": "This function is called in renegotiateLoan() to validate the lender's signature that the lender provided off-chain to verify that they did indeed want to agree to this loan renegotiation according to these terms."
					},
					"isValidLenderSignature(LoanData.Offer,LoanData.Signature)": {
						"notice": "This function is when the borrower accepts a lender's offer, to validate the lender's signature that the lender provided off-chain to verify that it did indeed made such offer."
					},
					"isValidLenderSignatureBundle(LoanData.Offer,IBundleBuilder.BundleElements,LoanData.Signature)": {
						"notice": "This function is when the borrower accepts a lender's offer, to validate the lender's signature that the lender provided off-chain to verify that it did indeed made such offer."
					}
				},
				"notice": "Helper contract for NFTfi. This contract manages verifying signatures from off-chain NFTfi orders. Based on the version of this same contract used on NFTfi V1",
				"version": 1
			}
		}
	}
}